{
	"contracts/494_storage_contract.sol": {
		"ShardManager": {
			"abi": [
				{
					"anonymous": false,
					"inputs": [
						{
							"indexed": false,
							"internalType": "bytes20",
							"name": "_filehash",
							"type": "bytes20"
						}
					],
					"name": "DeleteFile",
					"type": "event"
				},
				{
					"anonymous": false,
					"inputs": [
						{
							"indexed": false,
							"internalType": "bytes20",
							"name": "_filehash",
							"type": "bytes20"
						}
					],
					"name": "NewFile",
					"type": "event"
				},
				{
					"anonymous": false,
					"inputs": [
						{
							"indexed": true,
							"internalType": "address",
							"name": "previousOwner",
							"type": "address"
						},
						{
							"indexed": true,
							"internalType": "address",
							"name": "newOwner",
							"type": "address"
						}
					],
					"name": "OwnershipTransferred",
					"type": "event"
				},
				{
					"anonymous": false,
					"inputs": [
						{
							"indexed": false,
							"internalType": "uint256",
							"name": "shardId",
							"type": "uint256"
						},
						{
							"indexed": false,
							"internalType": "uint256",
							"name": "farmerId",
							"type": "uint256"
						}
					],
					"name": "deleteShardFromFarmer",
					"type": "event"
				},
				{
					"inputs": [
						{
							"internalType": "bytes20",
							"name": "_fileHash",
							"type": "bytes20"
						}
					],
					"name": "_deleteFileHash",
					"outputs": [],
					"stateMutability": "nonpayable",
					"type": "function"
				},
				{
					"inputs": [
						{
							"internalType": "bytes20",
							"name": "_filehash",
							"type": "bytes20"
						}
					],
					"name": "_storeFile",
					"outputs": [],
					"stateMutability": "nonpayable",
					"type": "function"
				},
				{
					"inputs": [
						{
							"internalType": "uint256",
							"name": "_shardId",
							"type": "uint256"
						},
						{
							"internalType": "uint256",
							"name": "_shardSize",
							"type": "uint256"
						},
						{
							"internalType": "uint256",
							"name": "_nodeId",
							"type": "uint256"
						}
					],
					"name": "addShardToStorageProvider",
					"outputs": [],
					"stateMutability": "nonpayable",
					"type": "function"
				},
				{
					"inputs": [
						{
							"internalType": "address",
							"name": "_address",
							"type": "address"
						},
						{
							"internalType": "uint256",
							"name": "_nodeID",
							"type": "uint256"
						},
						{
							"internalType": "uint256",
							"name": "_storageSize",
							"type": "uint256"
						},
						{
							"internalType": "string",
							"name": "_storageType",
							"type": "string"
						}
					],
					"name": "addStorageProvider",
					"outputs": [],
					"stateMutability": "nonpayable",
					"type": "function"
				},
				{
					"inputs": [
						{
							"internalType": "bytes20",
							"name": "_fileHash",
							"type": "bytes20"
						},
						{
							"internalType": "uint256[]",
							"name": "shardIDs",
							"type": "uint256[]"
						}
					],
					"name": "associateShardsWithFileHash",
					"outputs": [],
					"stateMutability": "nonpayable",
					"type": "function"
				},
				{
					"inputs": [
						{
							"internalType": "address",
							"name": "_owner",
							"type": "address"
						}
					],
					"name": "getFilehashesByOwner",
					"outputs": [
						{
							"internalType": "bytes20[]",
							"name": "",
							"type": "bytes20[]"
						}
					],
					"stateMutability": "view",
					"type": "function"
				},
				{
					"inputs": [
						{
							"internalType": "bytes20",
							"name": "_filehash",
							"type": "bytes20"
						}
					],
					"name": "getShardsByFilehash",
					"outputs": [
						{
							"internalType": "uint256[]",
							"name": "",
							"type": "uint256[]"
						}
					],
					"stateMutability": "view",
					"type": "function"
				},
				{
					"inputs": [
						{
							"internalType": "bytes20",
							"name": "fileHash",
							"type": "bytes20"
						}
					],
					"name": "getShardsInFile_Count",
					"outputs": [
						{
							"internalType": "uint256",
							"name": "",
							"type": "uint256"
						}
					],
					"stateMutability": "view",
					"type": "function"
				},
				{
					"inputs": [
						{
							"internalType": "address",
							"name": "_address",
							"type": "address"
						}
					],
					"name": "getStorageProviderNodeID",
					"outputs": [
						{
							"internalType": "uint256",
							"name": "",
							"type": "uint256"
						}
					],
					"stateMutability": "view",
					"type": "function"
				},
				{
					"inputs": [],
					"name": "owner",
					"outputs": [
						{
							"internalType": "address",
							"name": "",
							"type": "address"
						}
					],
					"stateMutability": "view",
					"type": "function"
				},
				{
					"inputs": [
						{
							"internalType": "uint256",
							"name": "_shardId",
							"type": "uint256"
						},
						{
							"internalType": "uint256",
							"name": "_shardSize",
							"type": "uint256"
						}
					],
					"name": "removeShardFromStorageProvider",
					"outputs": [],
					"stateMutability": "nonpayable",
					"type": "function"
				},
				{
					"inputs": [
						{
							"internalType": "address",
							"name": "_address",
							"type": "address"
						}
					],
					"name": "removeStorageProvider",
					"outputs": [],
					"stateMutability": "nonpayable",
					"type": "function"
				},
				{
					"inputs": [],
					"name": "renounceOwnership",
					"outputs": [],
					"stateMutability": "nonpayable",
					"type": "function"
				},
				{
					"inputs": [
						{
							"internalType": "bytes20",
							"name": "fileHash",
							"type": "bytes20"
						},
						{
							"internalType": "address",
							"name": "owner",
							"type": "address"
						}
					],
					"name": "setFileHashOwner",
					"outputs": [],
					"stateMutability": "nonpayable",
					"type": "function"
				},
				{
					"inputs": [
						{
							"internalType": "address",
							"name": "newOwner",
							"type": "address"
						}
					],
					"name": "transferOwnership",
					"outputs": [],
					"stateMutability": "nonpayable",
					"type": "function"
				}
			],
			"devdoc": {
				"custom:dev-run-script": "./scripts/web3-lib.ts",
				"details": "turns files into many shards. ./contracts/Ben_1_cryptozombies_testing.sol",
				"kind": "dev",
				"methods": {
					"owner()": {
						"details": "Returns the address of the current owner."
					},
					"renounceOwnership()": {
						"details": "Leaves the contract without owner. It will not be possible to call `onlyOwner` functions. Can only be called by the current owner. NOTE: Renouncing ownership will leave the contract without an owner, thereby disabling any functionality that is only available to the owner."
					},
					"transferOwnership(address)": {
						"details": "Transfers ownership of the contract to a new account (`newOwner`). Can only be called by the current owner."
					}
				},
				"title": "ShardManager",
				"version": 1
			},
			"evm": {
				"assembly": "    /* \"contracts/494_storage_contract.sol\":260:12560  contract ShardManager is Ownable {... */\n  mstore(0x40, 0x80)\n  callvalue\n  dup1\n  iszero\n  tag_1\n  jumpi\n  0x00\n  dup1\n  revert\ntag_1:\n  pop\n    /* \".deps/ownable.sol\":957:989  _transferOwnership(_msgSender()) */\n  tag_4\n    /* \".deps/ownable.sol\":976:988  _msgSender() */\n  tag_5\n    /* \".deps/ownable.sol\":976:986  _msgSender */\n  shl(0x20, tag_6)\n    /* \".deps/ownable.sol\":976:988  _msgSender() */\n  0x20\n  shr\n  jump\t// in\ntag_5:\n    /* \".deps/ownable.sol\":957:975  _transferOwnership */\n  shl(0x20, tag_7)\n    /* \".deps/ownable.sol\":957:989  _transferOwnership(_msgSender()) */\n  0x20\n  shr\n  jump\t// in\ntag_4:\n    /* \"contracts/494_storage_contract.sol\":260:12560  contract ShardManager is Ownable {... */\n  jump(tag_8)\n    /* \".deps/context.sol\":656:754  function _msgSender() internal view virtual returns (address) {... */\ntag_6:\n    /* \".deps/context.sol\":709:716  address */\n  0x00\n    /* \".deps/context.sol\":736:746  msg.sender */\n  caller\n    /* \".deps/context.sol\":729:746  return msg.sender */\n  swap1\n  pop\n    /* \".deps/context.sol\":656:754  function _msgSender() internal view virtual returns (address) {... */\n  swap1\n  jump\t// out\n    /* \".deps/ownable.sol\":2496:2687  function _transferOwnership(address newOwner) internal virtual {... */\ntag_7:\n    /* \".deps/ownable.sol\":2570:2586  address oldOwner */\n  0x00\n    /* \".deps/ownable.sol\":2589:2595  _owner */\n  dup1\n  0x00\n  swap1\n  sload\n  swap1\n  0x0100\n  exp\n  swap1\n  div\n  0xffffffffffffffffffffffffffffffffffffffff\n  and\n    /* \".deps/ownable.sol\":2570:2595  address oldOwner = _owner */\n  swap1\n  pop\n    /* \".deps/ownable.sol\":2615:2623  newOwner */\n  dup2\n    /* \".deps/ownable.sol\":2606:2612  _owner */\n  0x00\n  dup1\n    /* \".deps/ownable.sol\":2606:2623  _owner = newOwner */\n  0x0100\n  exp\n  dup2\n  sload\n  dup2\n  0xffffffffffffffffffffffffffffffffffffffff\n  mul\n  not\n  and\n  swap1\n  dup4\n  0xffffffffffffffffffffffffffffffffffffffff\n  and\n  mul\n  or\n  swap1\n  sstore\n  pop\n    /* \".deps/ownable.sol\":2670:2678  newOwner */\n  dup2\n    /* \".deps/ownable.sol\":2639:2679  OwnershipTransferred(oldOwner, newOwner) */\n  0xffffffffffffffffffffffffffffffffffffffff\n  and\n    /* \".deps/ownable.sol\":2660:2668  oldOwner */\n  dup2\n    /* \".deps/ownable.sol\":2639:2679  OwnershipTransferred(oldOwner, newOwner) */\n  0xffffffffffffffffffffffffffffffffffffffff\n  and\n  0x8be0079c531659141344cd1fd0a4f28419497f9722a3daafe3b4186f6b6457e0\n  mload(0x40)\n  mload(0x40)\n  dup1\n  swap2\n  sub\n  swap1\n  log3\n    /* \".deps/ownable.sol\":2559:2687  {... */\n  pop\n    /* \".deps/ownable.sol\":2496:2687  function _transferOwnership(address newOwner) internal virtual {... */\n  pop\n  jump\t// out\n    /* \"contracts/494_storage_contract.sol\":260:12560  contract ShardManager is Ownable {... */\ntag_8:\n  dataSize(sub_0)\n  dup1\n  dataOffset(sub_0)\n  0x00\n  codecopy\n  0x00\n  return\nstop\n\nsub_0: assembly {\n        /* \"contracts/494_storage_contract.sol\":260:12560  contract ShardManager is Ownable {... */\n      mstore(0x40, 0x80)\n      callvalue\n      dup1\n      iszero\n      tag_1\n      jumpi\n      0x00\n      dup1\n      revert\n    tag_1:\n      pop\n      jumpi(tag_2, lt(calldatasize, 0x04))\n      shr(0xe0, calldataload(0x00))\n      dup1\n      0x8381d799\n      gt\n      tag_18\n      jumpi\n      dup1\n      0xbbbc1f08\n      gt\n      tag_19\n      jumpi\n      dup1\n      0xbbbc1f08\n      eq\n      tag_14\n      jumpi\n      dup1\n      0xd5faa8d1\n      eq\n      tag_15\n      jumpi\n      dup1\n      0xe0400f74\n      eq\n      tag_16\n      jumpi\n      dup1\n      0xf2fde38b\n      eq\n      tag_17\n      jumpi\n      jump(tag_2)\n    tag_19:\n      dup1\n      0x8381d799\n      eq\n      tag_10\n      jumpi\n      dup1\n      0x8d22899b\n      eq\n      tag_11\n      jumpi\n      dup1\n      0x8da5cb5b\n      eq\n      tag_12\n      jumpi\n      dup1\n      0x93ed6900\n      eq\n      tag_13\n      jumpi\n      jump(tag_2)\n    tag_18:\n      dup1\n      0x45246f8e\n      gt\n      tag_20\n      jumpi\n      dup1\n      0x45246f8e\n      eq\n      tag_6\n      jumpi\n      dup1\n      0x7083ffd4\n      eq\n      tag_7\n      jumpi\n      dup1\n      0x715018a6\n      eq\n      tag_8\n      jumpi\n      dup1\n      0x828e6f1a\n      eq\n      tag_9\n      jumpi\n      jump(tag_2)\n    tag_20:\n      dup1\n      0x103f90a3\n      eq\n      tag_3\n      jumpi\n      dup1\n      0x28d305ab\n      eq\n      tag_4\n      jumpi\n      dup1\n      0x2de1468e\n      eq\n      tag_5\n      jumpi\n    tag_2:\n      0x00\n      dup1\n      revert\n        /* \"contracts/494_storage_contract.sol\":4498:4985  function associateShardsWithFileHash(... */\n    tag_3:\n      tag_21\n      0x04\n      dup1\n      calldatasize\n      sub\n      dup2\n      add\n      swap1\n      tag_22\n      swap2\n      swap1\n      tag_23\n      jump\t// in\n    tag_22:\n      tag_24\n      jump\t// in\n    tag_21:\n      stop\n        /* \"contracts/494_storage_contract.sol\":8829:9538  function getShardsByFilehash (bytes20 _filehash) public view returns(uint[] memory) {... */\n    tag_4:\n      tag_25\n      0x04\n      dup1\n      calldatasize\n      sub\n      dup2\n      add\n      swap1\n      tag_26\n      swap2\n      swap1\n      tag_27\n      jump\t// in\n    tag_26:\n      tag_28\n      jump\t// in\n    tag_25:\n      mload(0x40)\n      tag_29\n      swap2\n      swap1\n      tag_30\n      jump\t// in\n    tag_29:\n      mload(0x40)\n      dup1\n      swap2\n      sub\n      swap1\n      return\n        /* \"contracts/494_storage_contract.sol\":2588:3608  function _deleteFileHash(bytes20 _fileHash) public {... */\n    tag_5:\n      tag_31\n      0x04\n      dup1\n      calldatasize\n      sub\n      dup2\n      add\n      swap1\n      tag_32\n      swap2\n      swap1\n      tag_27\n      jump\t// in\n    tag_32:\n      tag_33\n      jump\t// in\n    tag_31:\n      stop\n        /* \"contracts/494_storage_contract.sol\":1305:2181  function _storeFile(bytes20 _filehash) public {... */\n    tag_6:\n      tag_34\n      0x04\n      dup1\n      calldatasize\n      sub\n      dup2\n      add\n      swap1\n      tag_35\n      swap2\n      swap1\n      tag_27\n      jump\t// in\n    tag_35:\n      tag_36\n      jump\t// in\n    tag_34:\n      stop\n        /* \"contracts/494_storage_contract.sol\":11518:12151  function addShardToStorageProvider(... */\n    tag_7:\n      tag_37\n      0x04\n      dup1\n      calldatasize\n      sub\n      dup2\n      add\n      swap1\n      tag_38\n      swap2\n      swap1\n      tag_39\n      jump\t// in\n    tag_38:\n      tag_40\n      jump\t// in\n    tag_37:\n      stop\n        /* \".deps/ownable.sol\":1877:1980  function renounceOwnership() public virtual onlyOwner {... */\n    tag_8:\n      tag_41\n      tag_42\n      jump\t// in\n    tag_41:\n      stop\n        /* \"contracts/494_storage_contract.sol\":11213:11512  function getStorageProviderNodeID(address _address) external view returns (uint) {... */\n    tag_9:\n      tag_43\n      0x04\n      dup1\n      calldatasize\n      sub\n      dup2\n      add\n      swap1\n      tag_44\n      swap2\n      swap1\n      tag_45\n      jump\t// in\n    tag_44:\n      tag_46\n      jump\t// in\n    tag_43:\n      mload(0x40)\n      tag_47\n      swap2\n      swap1\n      tag_48\n      jump\t// in\n    tag_47:\n      mload(0x40)\n      dup1\n      swap2\n      sub\n      swap1\n      return\n        /* \"contracts/494_storage_contract.sol\":5533:5770  function setFileHashOwner(bytes20 fileHash, address owner) external {... */\n    tag_10:\n      tag_49\n      0x04\n      dup1\n      calldatasize\n      sub\n      dup2\n      add\n      swap1\n      tag_50\n      swap2\n      swap1\n      tag_51\n      jump\t// in\n    tag_50:\n      tag_52\n      jump\t// in\n    tag_49:\n      stop\n        /* \"contracts/494_storage_contract.sol\":8078:8818  function getFilehashesByOwner(address _owner) external view onlyOwner returns (bytes20[] memory) {... */\n    tag_11:\n      tag_53\n      0x04\n      dup1\n      calldatasize\n      sub\n      dup2\n      add\n      swap1\n      tag_54\n      swap2\n      swap1\n      tag_45\n      jump\t// in\n    tag_54:\n      tag_55\n      jump\t// in\n    tag_53:\n      mload(0x40)\n      tag_56\n      swap2\n      swap1\n      tag_57\n      jump\t// in\n    tag_56:\n      mload(0x40)\n      dup1\n      swap2\n      sub\n      swap1\n      return\n        /* \".deps/ownable.sol\":1236:1323  function owner() public view virtual returns (address) {... */\n    tag_12:\n      tag_58\n      tag_59\n      jump\t// in\n    tag_58:\n      mload(0x40)\n      tag_60\n      swap2\n      swap1\n      tag_61\n      jump\t// in\n    tag_60:\n      mload(0x40)\n      dup1\n      swap2\n      sub\n      swap1\n      return\n        /* \"contracts/494_storage_contract.sol\":10609:10819  function addStorageProvider(address _address, uint _nodeID, uint _storageSize, string memory _storageType) external {... */\n    tag_13:\n      tag_62\n      0x04\n      dup1\n      calldatasize\n      sub\n      dup2\n      add\n      swap1\n      tag_63\n      swap2\n      swap1\n      tag_64\n      jump\t// in\n    tag_63:\n      tag_65\n      jump\t// in\n    tag_62:\n      stop\n        /* \"contracts/494_storage_contract.sol\":10829:11207  function removeStorageProvider(address _address) external {... */\n    tag_14:\n      tag_66\n      0x04\n      dup1\n      calldatasize\n      sub\n      dup2\n      add\n      swap1\n      tag_67\n      swap2\n      swap1\n      tag_45\n      jump\t// in\n    tag_67:\n      tag_68\n      jump\t// in\n    tag_66:\n      stop\n        /* \"contracts/494_storage_contract.sol\":12157:12558  function removeShardFromStorageProvider(... */\n    tag_15:\n      tag_69\n      0x04\n      dup1\n      calldatasize\n      sub\n      dup2\n      add\n      swap1\n      tag_70\n      swap2\n      swap1\n      tag_71\n      jump\t// in\n    tag_70:\n      tag_72\n      jump\t// in\n    tag_69:\n      stop\n        /* \"contracts/494_storage_contract.sol\":5235:5474  function getShardsInFile_Count(bytes20 fileHash) external view returns (uint) {... */\n    tag_16:\n      tag_73\n      0x04\n      dup1\n      calldatasize\n      sub\n      dup2\n      add\n      swap1\n      tag_74\n      swap2\n      swap1\n      tag_27\n      jump\t// in\n    tag_74:\n      tag_75\n      jump\t// in\n    tag_73:\n      mload(0x40)\n      tag_76\n      swap2\n      swap1\n      tag_48\n      jump\t// in\n    tag_76:\n      mload(0x40)\n      dup1\n      swap2\n      sub\n      swap1\n      return\n        /* \".deps/ownable.sol\":2135:2336  function transferOwnership(address newOwner) public virtual onlyOwner {... */\n    tag_17:\n      tag_77\n      0x04\n      dup1\n      calldatasize\n      sub\n      dup2\n      add\n      swap1\n      tag_78\n      swap2\n      swap1\n      tag_45\n      jump\t// in\n    tag_78:\n      tag_79\n      jump\t// in\n    tag_77:\n      stop\n        /* \"contracts/494_storage_contract.sol\":4498:4985  function associateShardsWithFileHash(... */\n    tag_24:\n        /* \"contracts/494_storage_contract.sol\":4630:4639  _fileHash */\n      dup2\n        /* \"contracts/494_storage_contract.sol\":4241:4256  fileHashToOwner */\n      0x05\n        /* \"contracts/494_storage_contract.sol\":4241:4266  fileHashToOwner[fileHash] */\n      0x00\n        /* \"contracts/494_storage_contract.sol\":4257:4265  fileHash */\n      dup3\n        /* \"contracts/494_storage_contract.sol\":4241:4266  fileHashToOwner[fileHash] */\n      not(0xffffffffffffffffffffffff)\n      and\n      not(0xffffffffffffffffffffffff)\n      and\n      dup2\n      mstore\n      0x20\n      add\n      swap1\n      dup2\n      mstore\n      0x20\n      add\n      0x00\n      keccak256\n      0x00\n      swap1\n      sload\n      swap1\n      0x0100\n      exp\n      swap1\n      div\n      0xffffffffffffffffffffffffffffffffffffffff\n      and\n        /* \"contracts/494_storage_contract.sol\":4227:4266  msg.sender == fileHashToOwner[fileHash] */\n      0xffffffffffffffffffffffffffffffffffffffff\n      and\n        /* \"contracts/494_storage_contract.sol\":4227:4237  msg.sender */\n      caller\n        /* \"contracts/494_storage_contract.sol\":4227:4266  msg.sender == fileHashToOwner[fileHash] */\n      0xffffffffffffffffffffffffffffffffffffffff\n      and\n      eq\n        /* \"contracts/494_storage_contract.sol\":4227:4315  msg.sender == fileHashToOwner[fileHash] || ... */\n      dup1\n      tag_81\n      jumpi\n      pop\n        /* \"contracts/494_storage_contract.sol\":4283:4315  hasConsent(fileHash, msg.sender) */\n      tag_82\n        /* \"contracts/494_storage_contract.sol\":4294:4302  fileHash */\n      dup2\n        /* \"contracts/494_storage_contract.sol\":4304:4314  msg.sender */\n      caller\n        /* \"contracts/494_storage_contract.sol\":4283:4293  hasConsent */\n      tag_83\n        /* \"contracts/494_storage_contract.sol\":4283:4315  hasConsent(fileHash, msg.sender) */\n      jump\t// in\n    tag_82:\n        /* \"contracts/494_storage_contract.sol\":4227:4315  msg.sender == fileHashToOwner[fileHash] || ... */\n    tag_81:\n        /* \"contracts/494_storage_contract.sol\":4206:4394  require(... */\n      tag_84\n      jumpi\n      mload(0x40)\n      0x08c379a000000000000000000000000000000000000000000000000000000000\n      dup2\n      mstore\n      0x04\n      add\n      tag_85\n      swap1\n      tag_86\n      jump\t// in\n    tag_85:\n      mload(0x40)\n      dup1\n      swap2\n      sub\n      swap1\n      revert\n    tag_84:\n        /* \"contracts/494_storage_contract.sol\":4677:4678  0 */\n      0x00\n        /* \"contracts/494_storage_contract.sol\":4659:4667  shardIDs */\n      dup3\n        /* \"contracts/494_storage_contract.sol\":4659:4674  shardIDs.length */\n      mload\n        /* \"contracts/494_storage_contract.sol\":4659:4678  shardIDs.length > 0 */\n      gt\n        /* \"contracts/494_storage_contract.sol\":4651:4710  require(shardIDs.length > 0, \"Shard IDs must not be empty\") */\n      tag_88\n      jumpi\n      mload(0x40)\n      0x08c379a000000000000000000000000000000000000000000000000000000000\n      dup2\n      mstore\n      0x04\n      add\n      tag_89\n      swap1\n      tag_90\n      jump\t// in\n    tag_89:\n      mload(0x40)\n      dup1\n      swap2\n      sub\n      swap1\n      revert\n    tag_88:\n        /* \"contracts/494_storage_contract.sol\":4811:4819  shardIDs */\n      dup2\n        /* \"contracts/494_storage_contract.sol\":4781:4797  fileHashToShards */\n      0x09\n        /* \"contracts/494_storage_contract.sol\":4781:4808  fileHashToShards[_fileHash] */\n      0x00\n        /* \"contracts/494_storage_contract.sol\":4798:4807  _fileHash */\n      dup6\n        /* \"contracts/494_storage_contract.sol\":4781:4808  fileHashToShards[_fileHash] */\n      not(0xffffffffffffffffffffffff)\n      and\n      not(0xffffffffffffffffffffffff)\n      and\n      dup2\n      mstore\n      0x20\n      add\n      swap1\n      dup2\n      mstore\n      0x20\n      add\n      0x00\n      keccak256\n        /* \"contracts/494_storage_contract.sol\":4781:4819  fileHashToShards[_fileHash] = shardIDs */\n      swap1\n      dup1\n      mload\n      swap1\n      0x20\n      add\n      swap1\n      tag_91\n      swap3\n      swap2\n      swap1\n      tag_92\n      jump\t// in\n    tag_91:\n      pop\n        /* \"contracts/494_storage_contract.sol\":4963:4971  shardIDs */\n      dup2\n        /* \"contracts/494_storage_contract.sol\":4963:4978  shardIDs.length */\n      mload\n        /* \"contracts/494_storage_contract.sol\":4930:4948  shardsInFile_Count */\n      0x0d\n        /* \"contracts/494_storage_contract.sol\":4930:4959  shardsInFile_Count[_fileHash] */\n      0x00\n        /* \"contracts/494_storage_contract.sol\":4949:4958  _fileHash */\n      dup6\n        /* \"contracts/494_storage_contract.sol\":4930:4959  shardsInFile_Count[_fileHash] */\n      not(0xffffffffffffffffffffffff)\n      and\n      not(0xffffffffffffffffffffffff)\n      and\n      dup2\n      mstore\n      0x20\n      add\n      swap1\n      dup2\n      mstore\n      0x20\n      add\n      0x00\n      keccak256\n      0x00\n        /* \"contracts/494_storage_contract.sol\":4930:4978  shardsInFile_Count[_fileHash] += shardIDs.length */\n      dup3\n      dup3\n      sload\n      tag_93\n      swap2\n      swap1\n      tag_94\n      jump\t// in\n    tag_93:\n      swap3\n      pop\n      pop\n      dup2\n      swap1\n      sstore\n      pop\n        /* \"contracts/494_storage_contract.sol\":4498:4985  function associateShardsWithFileHash(... */\n      pop\n      pop\n      pop\n      jump\t// out\n        /* \"contracts/494_storage_contract.sol\":8829:9538  function getShardsByFilehash (bytes20 _filehash) public view returns(uint[] memory) {... */\n    tag_28:\n        /* \"contracts/494_storage_contract.sol\":8898:8911  uint[] memory */\n      0x60\n        /* \"contracts/494_storage_contract.sol\":8943:8958  fileHashToOwner */\n      0x05\n        /* \"contracts/494_storage_contract.sol\":8943:8969  fileHashToOwner[_filehash] */\n      0x00\n        /* \"contracts/494_storage_contract.sol\":8959:8968  _filehash */\n      dup4\n        /* \"contracts/494_storage_contract.sol\":8943:8969  fileHashToOwner[_filehash] */\n      not(0xffffffffffffffffffffffff)\n      and\n      not(0xffffffffffffffffffffffff)\n      and\n      dup2\n      mstore\n      0x20\n      add\n      swap1\n      dup2\n      mstore\n      0x20\n      add\n      0x00\n      keccak256\n      0x00\n      swap1\n      sload\n      swap1\n      0x0100\n      exp\n      swap1\n      div\n      0xffffffffffffffffffffffffffffffffffffffff\n      and\n        /* \"contracts/494_storage_contract.sol\":8929:8969  msg.sender == fileHashToOwner[_filehash] */\n      0xffffffffffffffffffffffffffffffffffffffff\n      and\n        /* \"contracts/494_storage_contract.sol\":8929:8939  msg.sender */\n      caller\n        /* \"contracts/494_storage_contract.sol\":8929:8969  msg.sender == fileHashToOwner[_filehash] */\n      0xffffffffffffffffffffffffffffffffffffffff\n      and\n      eq\n        /* \"contracts/494_storage_contract.sol\":8921:9016  require(msg.sender == fileHashToOwner[_filehash], \"Only the File Owner can access its shards.\") */\n      tag_96\n      jumpi\n      mload(0x40)\n      0x08c379a000000000000000000000000000000000000000000000000000000000\n      dup2\n      mstore\n      0x04\n      add\n      tag_97\n      swap1\n      tag_98\n      jump\t// in\n    tag_97:\n      mload(0x40)\n      dup1\n      swap2\n      sub\n      swap1\n      revert\n    tag_96:\n        /* \"contracts/494_storage_contract.sol\":9025:9053  uint[] memory filehashShards */\n      0x00\n        /* \"contracts/494_storage_contract.sol\":9067:9085  shardsInFile_Count */\n      0x0d\n        /* \"contracts/494_storage_contract.sol\":9067:9096  shardsInFile_Count[_filehash] */\n      0x00\n        /* \"contracts/494_storage_contract.sol\":9086:9095  _filehash */\n      dup5\n        /* \"contracts/494_storage_contract.sol\":9067:9096  shardsInFile_Count[_filehash] */\n      not(0xffffffffffffffffffffffff)\n      and\n      not(0xffffffffffffffffffffffff)\n      and\n      dup2\n      mstore\n      0x20\n      add\n      swap1\n      dup2\n      mstore\n      0x20\n      add\n      0x00\n      keccak256\n      sload\n        /* \"contracts/494_storage_contract.sol\":9056:9097  new uint[](shardsInFile_Count[_filehash]) */\n      0xffffffffffffffff\n      dup2\n      gt\n      iszero\n      tag_99\n      jumpi\n      tag_100\n      tag_101\n      jump\t// in\n    tag_100:\n    tag_99:\n      mload(0x40)\n      swap1\n      dup1\n      dup3\n      mstore\n      dup1\n      0x20\n      mul\n      0x20\n      add\n      dup3\n      add\n      0x40\n      mstore\n      dup1\n      iszero\n      tag_102\n      jumpi\n      dup2\n      0x20\n      add\n      0x20\n      dup3\n      mul\n      dup1\n      calldatasize\n      dup4\n      calldatacopy\n      dup1\n      dup3\n      add\n      swap2\n      pop\n      pop\n      swap1\n      pop\n    tag_102:\n      pop\n        /* \"contracts/494_storage_contract.sol\":9025:9097  uint[] memory filehashShards = new uint[](shardsInFile_Count[_filehash]) */\n      swap1\n      pop\n        /* \"contracts/494_storage_contract.sol\":9108:9120  uint counter */\n      0x00\n        /* \"contracts/494_storage_contract.sol\":9183:9189  uint i */\n      dup1\n        /* \"contracts/494_storage_contract.sol\":9178:9503  for (uint i = 0; i < shards.length; i++) {... */\n    tag_103:\n        /* \"contracts/494_storage_contract.sol\":9199:9205  shards */\n      0x03\n        /* \"contracts/494_storage_contract.sol\":9199:9212  shards.length */\n      dup1\n      sload\n      swap1\n      pop\n        /* \"contracts/494_storage_contract.sol\":9195:9196  i */\n      dup2\n        /* \"contracts/494_storage_contract.sol\":9195:9212  i < shards.length */\n      lt\n        /* \"contracts/494_storage_contract.sol\":9178:9503  for (uint i = 0; i < shards.length; i++) {... */\n      iszero\n      tag_104\n      jumpi\n        /* \"contracts/494_storage_contract.sol\":9334:9343  _filehash */\n      dup5\n        /* \"contracts/494_storage_contract.sol\":9294:9343  shardIdtoFileHash[shards[i].shardId] == _filehash */\n      not(0xffffffffffffffffffffffff)\n      and\n        /* \"contracts/494_storage_contract.sol\":9294:9311  shardIdtoFileHash */\n      0x06\n        /* \"contracts/494_storage_contract.sol\":9294:9330  shardIdtoFileHash[shards[i].shardId] */\n      0x00\n        /* \"contracts/494_storage_contract.sol\":9312:9318  shards */\n      0x03\n        /* \"contracts/494_storage_contract.sol\":9319:9320  i */\n      dup5\n        /* \"contracts/494_storage_contract.sol\":9312:9321  shards[i] */\n      dup2\n      sload\n      dup2\n      lt\n      tag_106\n      jumpi\n      tag_107\n      tag_108\n      jump\t// in\n    tag_107:\n    tag_106:\n      swap1\n      0x00\n      mstore\n      keccak256(0x00, 0x20)\n      swap1\n      0x02\n      mul\n      add\n        /* \"contracts/494_storage_contract.sol\":9312:9329  shards[i].shardId */\n      0x00\n      add\n      sload\n        /* \"contracts/494_storage_contract.sol\":9294:9330  shardIdtoFileHash[shards[i].shardId] */\n      dup2\n      mstore\n      0x20\n      add\n      swap1\n      dup2\n      mstore\n      0x20\n      add\n      0x00\n      keccak256\n      0x00\n      swap1\n      sload\n      swap1\n      0x0100\n      exp\n      swap1\n      div\n      0x60\n      shl\n        /* \"contracts/494_storage_contract.sol\":9294:9343  shardIdtoFileHash[shards[i].shardId] == _filehash */\n      not(0xffffffffffffffffffffffff)\n      and\n      sub\n        /* \"contracts/494_storage_contract.sol\":9290:9493  if (shardIdtoFileHash[shards[i].shardId] == _filehash) {... */\n      tag_110\n      jumpi\n        /* \"contracts/494_storage_contract.sol\":9439:9445  shards */\n      0x03\n        /* \"contracts/494_storage_contract.sol\":9446:9447  i */\n      dup2\n        /* \"contracts/494_storage_contract.sol\":9439:9448  shards[i] */\n      dup2\n      sload\n      dup2\n      lt\n      tag_111\n      jumpi\n      tag_112\n      tag_108\n      jump\t// in\n    tag_112:\n    tag_111:\n      swap1\n      0x00\n      mstore\n      keccak256(0x00, 0x20)\n      swap1\n      0x02\n      mul\n      add\n        /* \"contracts/494_storage_contract.sol\":9439:9456  shards[i].shardId */\n      0x00\n      add\n      sload\n        /* \"contracts/494_storage_contract.sol\":9413:9427  filehashShards */\n      dup4\n        /* \"contracts/494_storage_contract.sol\":9428:9435  counter */\n      dup4\n        /* \"contracts/494_storage_contract.sol\":9413:9436  filehashShards[counter] */\n      dup2\n      mload\n      dup2\n      lt\n      tag_114\n      jumpi\n      tag_115\n      tag_108\n      jump\t// in\n    tag_115:\n    tag_114:\n      0x20\n      mul\n      0x20\n      add\n      add\n        /* \"contracts/494_storage_contract.sol\":9413:9456  filehashShards[counter] = shards[i].shardId */\n      dup2\n      dup2\n      mstore\n      pop\n      pop\n        /* \"contracts/494_storage_contract.sol\":9471:9480  counter++ */\n      dup2\n      dup1\n      tag_116\n      swap1\n      tag_117\n      jump\t// in\n    tag_116:\n      swap3\n      pop\n      pop\n        /* \"contracts/494_storage_contract.sol\":9290:9493  if (shardIdtoFileHash[shards[i].shardId] == _filehash) {... */\n    tag_110:\n        /* \"contracts/494_storage_contract.sol\":9214:9217  i++ */\n      dup1\n      dup1\n      tag_118\n      swap1\n      tag_117\n      jump\t// in\n    tag_118:\n      swap2\n      pop\n      pop\n        /* \"contracts/494_storage_contract.sol\":9178:9503  for (uint i = 0; i < shards.length; i++) {... */\n      jump(tag_103)\n    tag_104:\n      pop\n        /* \"contracts/494_storage_contract.sol\":9517:9531  filehashShards */\n      dup2\n        /* \"contracts/494_storage_contract.sol\":9510:9531  return filehashShards */\n      swap3\n      pop\n      pop\n      pop\n        /* \"contracts/494_storage_contract.sol\":8829:9538  function getShardsByFilehash (bytes20 _filehash) public view returns(uint[] memory) {... */\n      swap2\n      swap1\n      pop\n      jump\t// out\n        /* \"contracts/494_storage_contract.sol\":2588:3608  function _deleteFileHash(bytes20 _fileHash) public {... */\n    tag_33:\n        /* \"contracts/494_storage_contract.sol\":2910:2911  1 */\n      0x01\n        /* \"contracts/494_storage_contract.sol\":2882:2906  checkFileHash(_fileHash) */\n      tag_120\n        /* \"contracts/494_storage_contract.sol\":2896:2905  _fileHash */\n      dup3\n        /* \"contracts/494_storage_contract.sol\":2882:2895  checkFileHash */\n      tag_121\n        /* \"contracts/494_storage_contract.sol\":2882:2906  checkFileHash(_fileHash) */\n      jump\t// in\n    tag_120:\n        /* \"contracts/494_storage_contract.sol\":2882:2911  checkFileHash(_fileHash) == 1 */\n      eq\n        /* \"contracts/494_storage_contract.sol\":2690:2961  require(... */\n      tag_122\n      jumpi\n      mload(0x40)\n      0x08c379a000000000000000000000000000000000000000000000000000000000\n      dup2\n      mstore\n      0x04\n      add\n      tag_123\n      swap1\n      tag_124\n      jump\t// in\n    tag_123:\n      mload(0x40)\n      dup1\n      swap2\n      sub\n      swap1\n      revert\n    tag_122:\n        /* \"contracts/494_storage_contract.sol\":3004:3019  fileHashToOwner */\n      0x05\n        /* \"contracts/494_storage_contract.sol\":3004:3030  fileHashToOwner[_fileHash] */\n      0x00\n        /* \"contracts/494_storage_contract.sol\":3020:3029  _fileHash */\n      dup3\n        /* \"contracts/494_storage_contract.sol\":3004:3030  fileHashToOwner[_fileHash] */\n      not(0xffffffffffffffffffffffff)\n      and\n      not(0xffffffffffffffffffffffff)\n      and\n      dup2\n      mstore\n      0x20\n      add\n      swap1\n      dup2\n      mstore\n      0x20\n      add\n      0x00\n      keccak256\n      0x00\n      swap1\n      sload\n      swap1\n      0x0100\n      exp\n      swap1\n      div\n      0xffffffffffffffffffffffffffffffffffffffff\n      and\n        /* \"contracts/494_storage_contract.sol\":2990:3030  msg.sender == fileHashToOwner[_fileHash] */\n      0xffffffffffffffffffffffffffffffffffffffff\n      and\n        /* \"contracts/494_storage_contract.sol\":2990:3000  msg.sender */\n      caller\n        /* \"contracts/494_storage_contract.sol\":2990:3030  msg.sender == fileHashToOwner[_fileHash] */\n      0xffffffffffffffffffffffffffffffffffffffff\n      and\n      eq\n        /* \"contracts/494_storage_contract.sol\":2969:3092  require(... */\n      tag_125\n      jumpi\n      mload(0x40)\n      0x08c379a000000000000000000000000000000000000000000000000000000000\n      dup2\n      mstore\n      0x04\n      add\n      tag_126\n      swap1\n      tag_127\n      jump\t// in\n    tag_126:\n      mload(0x40)\n      dup1\n      swap2\n      sub\n      swap1\n      revert\n    tag_125:\n        /* \"contracts/494_storage_contract.sol\":3101:3111  uint index */\n      0x00\n        /* \"contracts/494_storage_contract.sol\":3114:3136  fileHashToArrayIndexes */\n      0x08\n        /* \"contracts/494_storage_contract.sol\":3114:3147  fileHashToArrayIndexes[_fileHash] */\n      0x00\n        /* \"contracts/494_storage_contract.sol\":3137:3146  _fileHash */\n      dup4\n        /* \"contracts/494_storage_contract.sol\":3114:3147  fileHashToArrayIndexes[_fileHash] */\n      not(0xffffffffffffffffffffffff)\n      and\n      not(0xffffffffffffffffffffffff)\n      and\n      dup2\n      mstore\n      0x20\n      add\n      swap1\n      dup2\n      mstore\n      0x20\n      add\n      0x00\n      keccak256\n      sload\n        /* \"contracts/494_storage_contract.sol\":3101:3147  uint index = fileHashToArrayIndexes[_fileHash] */\n      swap1\n      pop\n        /* \"contracts/494_storage_contract.sol\":3222:3232  fileHashes */\n      0x04\n        /* \"contracts/494_storage_contract.sol\":3253:3254  1 */\n      0x01\n        /* \"contracts/494_storage_contract.sol\":3233:3243  fileHashes */\n      0x04\n        /* \"contracts/494_storage_contract.sol\":3233:3250  fileHashes.length */\n      dup1\n      sload\n      swap1\n      pop\n        /* \"contracts/494_storage_contract.sol\":3233:3254  fileHashes.length - 1 */\n      tag_128\n      swap2\n      swap1\n      tag_129\n      jump\t// in\n    tag_128:\n        /* \"contracts/494_storage_contract.sol\":3222:3255  fileHashes[fileHashes.length - 1] */\n      dup2\n      sload\n      dup2\n      lt\n      tag_130\n      jumpi\n      tag_131\n      tag_108\n      jump\t// in\n    tag_131:\n    tag_130:\n      swap1\n      0x00\n      mstore\n      keccak256(0x00, 0x20)\n      add\n      0x00\n      swap1\n      sload\n      swap1\n      0x0100\n      exp\n      swap1\n      div\n      0x60\n      shl\n        /* \"contracts/494_storage_contract.sol\":3202:3212  fileHashes */\n      0x04\n        /* \"contracts/494_storage_contract.sol\":3213:3218  index */\n      dup3\n        /* \"contracts/494_storage_contract.sol\":3202:3219  fileHashes[index] */\n      dup2\n      sload\n      dup2\n      lt\n      tag_133\n      jumpi\n      tag_134\n      tag_108\n      jump\t// in\n    tag_134:\n    tag_133:\n      swap1\n      0x00\n      mstore\n      keccak256(0x00, 0x20)\n      add\n      0x00\n        /* \"contracts/494_storage_contract.sol\":3202:3255  fileHashes[index] = fileHashes[fileHashes.length - 1] */\n      0x0100\n      exp\n      dup2\n      sload\n      dup2\n      0xffffffffffffffffffffffffffffffffffffffff\n      mul\n      not\n      and\n      swap1\n      dup4\n      0x60\n      shr\n      mul\n      or\n      swap1\n      sstore\n      pop\n        /* \"contracts/494_storage_contract.sol\":3263:3273  fileHashes */\n      0x04\n        /* \"contracts/494_storage_contract.sol\":3263:3279  fileHashes.pop() */\n      dup1\n      sload\n      dup1\n      tag_136\n      jumpi\n      tag_137\n      tag_138\n      jump\t// in\n    tag_137:\n    tag_136:\n      0x01\n      swap1\n      sub\n      dup2\n      dup2\n      swap1\n      0x00\n      mstore\n      keccak256(0x00, 0x20)\n      add\n      exp(0x0100, 0x00)\n      dup2\n      sload\n      swap1\n      0xffffffffffffffffffffffffffffffffffffffff\n      mul\n      not\n      and\n      swap1\n      sstore\n      swap1\n      sstore\n        /* \"contracts/494_storage_contract.sol\":3287:3301  ownerFileCount */\n      0x0c\n        /* \"contracts/494_storage_contract.sol\":3287:3313  ownerFileCount[msg.sender] */\n      0x00\n        /* \"contracts/494_storage_contract.sol\":3302:3312  msg.sender */\n      caller\n        /* \"contracts/494_storage_contract.sol\":3287:3313  ownerFileCount[msg.sender] */\n      0xffffffffffffffffffffffffffffffffffffffff\n      and\n      0xffffffffffffffffffffffffffffffffffffffff\n      and\n      dup2\n      mstore\n      0x20\n      add\n      swap1\n      dup2\n      mstore\n      0x20\n      add\n      0x00\n      keccak256\n      0x00\n        /* \"contracts/494_storage_contract.sol\":3287:3315  ownerFileCount[msg.sender]-- */\n      dup2\n      sload\n      dup1\n      swap3\n      swap2\n      swap1\n      tag_140\n      swap1\n      tag_141\n      jump\t// in\n    tag_140:\n      swap2\n      swap1\n      pop\n      sstore\n      pop\n        /* \"contracts/494_storage_contract.sol\":3364:3386  fileHashToArrayIndexes */\n      0x08\n        /* \"contracts/494_storage_contract.sol\":3364:3397  fileHashToArrayIndexes[_fileHash] */\n      0x00\n        /* \"contracts/494_storage_contract.sol\":3387:3396  _fileHash */\n      dup4\n        /* \"contracts/494_storage_contract.sol\":3364:3397  fileHashToArrayIndexes[_fileHash] */\n      not(0xffffffffffffffffffffffff)\n      and\n      not(0xffffffffffffffffffffffff)\n      and\n      dup2\n      mstore\n      0x20\n      add\n      swap1\n      dup2\n      mstore\n      0x20\n      add\n      0x00\n      keccak256\n        /* \"contracts/494_storage_contract.sol\":3357:3397  delete fileHashToArrayIndexes[_fileHash] */\n      0x00\n      swap1\n      sstore\n        /* \"contracts/494_storage_contract.sol\":3412:3428  fileHashToShards */\n      0x09\n        /* \"contracts/494_storage_contract.sol\":3412:3439  fileHashToShards[_fileHash] */\n      0x00\n        /* \"contracts/494_storage_contract.sol\":3429:3438  _fileHash */\n      dup4\n        /* \"contracts/494_storage_contract.sol\":3412:3439  fileHashToShards[_fileHash] */\n      not(0xffffffffffffffffffffffff)\n      and\n      not(0xffffffffffffffffffffffff)\n      and\n      dup2\n      mstore\n      0x20\n      add\n      swap1\n      dup2\n      mstore\n      0x20\n      add\n      0x00\n      keccak256\n      0x00\n        /* \"contracts/494_storage_contract.sol\":3405:3439  delete fileHashToShards[_fileHash] */\n      tag_142\n      swap2\n      swap1\n      tag_143\n      jump\t// in\n    tag_142:\n        /* \"contracts/494_storage_contract.sol\":3454:3472  shardsInFile_Count */\n      0x0d\n        /* \"contracts/494_storage_contract.sol\":3454:3483  shardsInFile_Count[_fileHash] */\n      0x00\n        /* \"contracts/494_storage_contract.sol\":3473:3482  _fileHash */\n      dup4\n        /* \"contracts/494_storage_contract.sol\":3454:3483  shardsInFile_Count[_fileHash] */\n      not(0xffffffffffffffffffffffff)\n      and\n      not(0xffffffffffffffffffffffff)\n      and\n      dup2\n      mstore\n      0x20\n      add\n      swap1\n      dup2\n      mstore\n      0x20\n      add\n      0x00\n      keccak256\n        /* \"contracts/494_storage_contract.sol\":3447:3483  delete shardsInFile_Count[_fileHash] */\n      0x00\n      swap1\n      sstore\n        /* \"contracts/494_storage_contract.sol\":3497:3518  DeleteFile(_fileHash) */\n      0xda13aa46e5e29a22ea7832e5283268a938c39ddc897441a090548cf71a8f81c2\n        /* \"contracts/494_storage_contract.sol\":3508:3517  _fileHash */\n      dup3\n        /* \"contracts/494_storage_contract.sol\":3497:3518  DeleteFile(_fileHash) */\n      mload(0x40)\n      tag_144\n      swap2\n      swap1\n      tag_145\n      jump\t// in\n    tag_144:\n      mload(0x40)\n      dup1\n      swap2\n      sub\n      swap1\n      log1\n        /* \"contracts/494_storage_contract.sol\":2639:3608  {... */\n      pop\n        /* \"contracts/494_storage_contract.sol\":2588:3608  function _deleteFileHash(bytes20 _fileHash) public {... */\n      pop\n      jump\t// out\n        /* \"contracts/494_storage_contract.sol\":1305:2181  function _storeFile(bytes20 _filehash) public {... */\n    tag_36:\n        /* \"contracts/494_storage_contract.sol\":1511:1521  fileHashes */\n      0x04\n        /* \"contracts/494_storage_contract.sol\":1527:1536  _filehash */\n      dup2\n        /* \"contracts/494_storage_contract.sol\":1511:1537  fileHashes.push(_filehash) */\n      swap1\n      dup1\n      0x01\n      dup2\n      sload\n      add\n      dup1\n      dup3\n      sstore\n      dup1\n      swap2\n      pop\n      pop\n      0x01\n      swap1\n      sub\n      swap1\n      0x00\n      mstore\n      keccak256(0x00, 0x20)\n      add\n      0x00\n      swap1\n      swap2\n      swap1\n      swap2\n      swap1\n      swap2\n      0x0100\n      exp\n      dup2\n      sload\n      dup2\n      0xffffffffffffffffffffffffffffffffffffffff\n      mul\n      not\n      and\n      swap1\n      dup4\n      0x60\n      shr\n      mul\n      or\n      swap1\n      sstore\n      pop\n        /* \"contracts/494_storage_contract.sol\":1545:1555  uint index */\n      0x00\n        /* \"contracts/494_storage_contract.sol\":1578:1579  1 */\n      0x01\n        /* \"contracts/494_storage_contract.sol\":1558:1568  fileHashes */\n      0x04\n        /* \"contracts/494_storage_contract.sol\":1558:1575  fileHashes.length */\n      dup1\n      sload\n      swap1\n      pop\n        /* \"contracts/494_storage_contract.sol\":1558:1579  fileHashes.length - 1 */\n      tag_148\n      swap2\n      swap1\n      tag_129\n      jump\t// in\n    tag_148:\n        /* \"contracts/494_storage_contract.sol\":1545:1579  uint index = fileHashes.length - 1 */\n      swap1\n      pop\n        /* \"contracts/494_storage_contract.sol\":1616:1626  msg.sender */\n      caller\n        /* \"contracts/494_storage_contract.sol\":1587:1602  fileHashToOwner */\n      0x05\n        /* \"contracts/494_storage_contract.sol\":1587:1613  fileHashToOwner[_filehash] */\n      0x00\n        /* \"contracts/494_storage_contract.sol\":1603:1612  _filehash */\n      dup5\n        /* \"contracts/494_storage_contract.sol\":1587:1613  fileHashToOwner[_filehash] */\n      not(0xffffffffffffffffffffffff)\n      and\n      not(0xffffffffffffffffffffffff)\n      and\n      dup2\n      mstore\n      0x20\n      add\n      swap1\n      dup2\n      mstore\n      0x20\n      add\n      0x00\n      keccak256\n      0x00\n        /* \"contracts/494_storage_contract.sol\":1587:1626  fileHashToOwner[_filehash] = msg.sender */\n      0x0100\n      exp\n      dup2\n      sload\n      dup2\n      0xffffffffffffffffffffffffffffffffffffffff\n      mul\n      not\n      and\n      swap1\n      dup4\n      0xffffffffffffffffffffffffffffffffffffffff\n      and\n      mul\n      or\n      swap1\n      sstore\n      pop\n        /* \"contracts/494_storage_contract.sol\":1671:1676  index */\n      dup1\n        /* \"contracts/494_storage_contract.sol\":1635:1657  fileHashToArrayIndexes */\n      0x08\n        /* \"contracts/494_storage_contract.sol\":1635:1668  fileHashToArrayIndexes[_filehash] */\n      0x00\n        /* \"contracts/494_storage_contract.sol\":1658:1667  _filehash */\n      dup5\n        /* \"contracts/494_storage_contract.sol\":1635:1668  fileHashToArrayIndexes[_filehash] */\n      not(0xffffffffffffffffffffffff)\n      and\n      not(0xffffffffffffffffffffffff)\n      and\n      dup2\n      mstore\n      0x20\n      add\n      swap1\n      dup2\n      mstore\n      0x20\n      add\n      0x00\n      keccak256\n        /* \"contracts/494_storage_contract.sol\":1635:1676  fileHashToArrayIndexes[_filehash] = index */\n      dup2\n      swap1\n      sstore\n      pop\n        /* \"contracts/494_storage_contract.sol\":1713:1727  ownerFileCount */\n      0x0c\n        /* \"contracts/494_storage_contract.sol\":1713:1739  ownerFileCount[msg.sender] */\n      0x00\n        /* \"contracts/494_storage_contract.sol\":1728:1738  msg.sender */\n      caller\n        /* \"contracts/494_storage_contract.sol\":1713:1739  ownerFileCount[msg.sender] */\n      0xffffffffffffffffffffffffffffffffffffffff\n      and\n      0xffffffffffffffffffffffffffffffffffffffff\n      and\n      dup2\n      mstore\n      0x20\n      add\n      swap1\n      dup2\n      mstore\n      0x20\n      add\n      0x00\n      keccak256\n      0x00\n        /* \"contracts/494_storage_contract.sol\":1713:1741  ownerFileCount[msg.sender]++ */\n      dup2\n      sload\n      dup1\n      swap3\n      swap2\n      swap1\n      tag_149\n      swap1\n      tag_117\n      jump\t// in\n    tag_149:\n      swap2\n      swap1\n      pop\n      sstore\n      pop\n        /* \"contracts/494_storage_contract.sol\":1979:1997  NewFile(_filehash) */\n      0xa7714b5994b2cbb93bfe098ef622436aa3e9be80ed5f01b373fd3aa629e14962\n        /* \"contracts/494_storage_contract.sol\":1987:1996  _filehash */\n      dup3\n        /* \"contracts/494_storage_contract.sol\":1979:1997  NewFile(_filehash) */\n      mload(0x40)\n      tag_150\n      swap2\n      swap1\n      tag_145\n      jump\t// in\n    tag_150:\n      mload(0x40)\n      dup1\n      swap2\n      sub\n      swap1\n      log1\n        /* \"contracts/494_storage_contract.sol\":1351:2181  {... */\n      pop\n        /* \"contracts/494_storage_contract.sol\":1305:2181  function _storeFile(bytes20 _filehash) public {... */\n      pop\n      jump\t// out\n        /* \"contracts/494_storage_contract.sol\":11518:12151  function addShardToStorageProvider(... */\n    tag_40:\n        /* \"contracts/494_storage_contract.sol\":11653:11659  uint i */\n      0x00\n        /* \"contracts/494_storage_contract.sol\":11648:12145  for (uint i = 0; i < availableFarmers.length; i++) {... */\n    tag_152:\n        /* \"contracts/494_storage_contract.sol\":11669:11685  availableFarmers */\n      0x01\n        /* \"contracts/494_storage_contract.sol\":11669:11692  availableFarmers.length */\n      dup1\n      sload\n      swap1\n      pop\n        /* \"contracts/494_storage_contract.sol\":11665:11666  i */\n      dup2\n        /* \"contracts/494_storage_contract.sol\":11665:11692  i < availableFarmers.length */\n      lt\n        /* \"contracts/494_storage_contract.sol\":11648:12145  for (uint i = 0; i < availableFarmers.length; i++) {... */\n      iszero\n      tag_153\n      jumpi\n        /* \"contracts/494_storage_contract.sol\":11747:11754  _nodeId */\n      dup2\n        /* \"contracts/494_storage_contract.sol\":11717:11733  availableFarmers */\n      0x01\n        /* \"contracts/494_storage_contract.sol\":11734:11735  i */\n      dup3\n        /* \"contracts/494_storage_contract.sol\":11717:11736  availableFarmers[i] */\n      dup2\n      sload\n      dup2\n      lt\n      tag_155\n      jumpi\n      tag_156\n      tag_108\n      jump\t// in\n    tag_156:\n    tag_155:\n      swap1\n      0x00\n      mstore\n      keccak256(0x00, 0x20)\n      swap1\n      0x05\n      mul\n      add\n        /* \"contracts/494_storage_contract.sol\":11717:11743  availableFarmers[i].nodeId */\n      0x01\n      add\n      sload\n        /* \"contracts/494_storage_contract.sol\":11717:11754  availableFarmers[i].nodeId == _nodeId */\n      sub\n        /* \"contracts/494_storage_contract.sol\":11713:12135  if (availableFarmers[i].nodeId == _nodeId) {... */\n      tag_158\n      jumpi\n        /* \"contracts/494_storage_contract.sol\":11907:11917  _shardSize */\n      dup3\n        /* \"contracts/494_storage_contract.sol\":11865:11881  availableFarmers */\n      0x01\n        /* \"contracts/494_storage_contract.sol\":11882:11883  i */\n      dup3\n        /* \"contracts/494_storage_contract.sol\":11865:11884  availableFarmers[i] */\n      dup2\n      sload\n      dup2\n      lt\n      tag_159\n      jumpi\n      tag_160\n      tag_108\n      jump\t// in\n    tag_160:\n    tag_159:\n      swap1\n      0x00\n      mstore\n      keccak256(0x00, 0x20)\n      swap1\n      0x05\n      mul\n      add\n        /* \"contracts/494_storage_contract.sol\":11865:11902  availableFarmers[i].currentStoredSize */\n      0x02\n      add\n      sload\n        /* \"contracts/494_storage_contract.sol\":11804:11820  availableFarmers */\n      0x01\n        /* \"contracts/494_storage_contract.sol\":11821:11822  i */\n      dup4\n        /* \"contracts/494_storage_contract.sol\":11804:11823  availableFarmers[i] */\n      dup2\n      sload\n      dup2\n      lt\n      tag_162\n      jumpi\n      tag_163\n      tag_108\n      jump\t// in\n    tag_163:\n    tag_162:\n      swap1\n      0x00\n      mstore\n      keccak256(0x00, 0x20)\n      swap1\n      0x05\n      mul\n      add\n        /* \"contracts/494_storage_contract.sol\":11804:11838  availableFarmers[i].maxStorageSize */\n      0x03\n      add\n      sload\n        /* \"contracts/494_storage_contract.sol\":11804:11902  availableFarmers[i].maxStorageSize -... */\n      tag_165\n      swap2\n      swap1\n      tag_129\n      jump\t// in\n    tag_165:\n        /* \"contracts/494_storage_contract.sol\":11803:11917  (availableFarmers[i].maxStorageSize -... */\n      lt\n      iszero\n        /* \"contracts/494_storage_contract.sol\":11774:11992  require(... */\n      tag_166\n      jumpi\n      mload(0x40)\n      0x08c379a000000000000000000000000000000000000000000000000000000000\n      dup2\n      mstore\n      0x04\n      add\n      tag_167\n      swap1\n      tag_168\n      jump\t// in\n    tag_167:\n      mload(0x40)\n      dup1\n      swap2\n      sub\n      swap1\n      revert\n    tag_166:\n        /* \"contracts/494_storage_contract.sol\":12051:12061  _shardSize */\n      dup3\n        /* \"contracts/494_storage_contract.sol\":12010:12026  availableFarmers */\n      0x01\n        /* \"contracts/494_storage_contract.sol\":12027:12028  i */\n      dup3\n        /* \"contracts/494_storage_contract.sol\":12010:12029  availableFarmers[i] */\n      dup2\n      sload\n      dup2\n      lt\n      tag_169\n      jumpi\n      tag_170\n      tag_108\n      jump\t// in\n    tag_170:\n    tag_169:\n      swap1\n      0x00\n      mstore\n      keccak256(0x00, 0x20)\n      swap1\n      0x05\n      mul\n      add\n        /* \"contracts/494_storage_contract.sol\":12010:12047  availableFarmers[i].currentStoredSize */\n      0x02\n      add\n      0x00\n        /* \"contracts/494_storage_contract.sol\":12010:12061  availableFarmers[i].currentStoredSize += _shardSize */\n      dup3\n      dup3\n      sload\n      tag_172\n      swap2\n      swap1\n      tag_94\n      jump\t// in\n    tag_172:\n      swap3\n      pop\n      pop\n      dup2\n      swap1\n      sstore\n      pop\n        /* \"contracts/494_storage_contract.sol\":12113:12120  _nodeId */\n      dup2\n        /* \"contracts/494_storage_contract.sol\":12079:12100  shardIdtoFarmerNodeId */\n      0x07\n        /* \"contracts/494_storage_contract.sol\":12079:12110  shardIdtoFarmerNodeId[_shardId] */\n      0x00\n        /* \"contracts/494_storage_contract.sol\":12101:12109  _shardId */\n      dup7\n        /* \"contracts/494_storage_contract.sol\":12079:12110  shardIdtoFarmerNodeId[_shardId] */\n      dup2\n      mstore\n      0x20\n      add\n      swap1\n      dup2\n      mstore\n      0x20\n      add\n      0x00\n      keccak256\n        /* \"contracts/494_storage_contract.sol\":12079:12120  shardIdtoFarmerNodeId[_shardId] = _nodeId */\n      dup2\n      swap1\n      sstore\n      pop\n        /* \"contracts/494_storage_contract.sol\":11713:12135  if (availableFarmers[i].nodeId == _nodeId) {... */\n    tag_158:\n        /* \"contracts/494_storage_contract.sol\":11694:11697  i++ */\n      dup1\n      dup1\n      tag_173\n      swap1\n      tag_117\n      jump\t// in\n    tag_173:\n      swap2\n      pop\n      pop\n        /* \"contracts/494_storage_contract.sol\":11648:12145  for (uint i = 0; i < availableFarmers.length; i++) {... */\n      jump(tag_152)\n    tag_153:\n      pop\n        /* \"contracts/494_storage_contract.sol\":11518:12151  function addShardToStorageProvider(... */\n      pop\n      pop\n      pop\n      jump\t// out\n        /* \".deps/ownable.sol\":1877:1980  function renounceOwnership() public virtual onlyOwner {... */\n    tag_42:\n        /* \".deps/ownable.sol\":1122:1135  _checkOwner() */\n      tag_175\n        /* \".deps/ownable.sol\":1122:1133  _checkOwner */\n      tag_176\n        /* \".deps/ownable.sol\":1122:1135  _checkOwner() */\n      jump\t// in\n    tag_175:\n        /* \".deps/ownable.sol\":1942:1972  _transferOwnership(address(0)) */\n      tag_178\n        /* \".deps/ownable.sol\":1969:1970  0 */\n      0x00\n        /* \".deps/ownable.sol\":1942:1960  _transferOwnership */\n      tag_179\n        /* \".deps/ownable.sol\":1942:1972  _transferOwnership(address(0)) */\n      jump\t// in\n    tag_178:\n        /* \".deps/ownable.sol\":1877:1980  function renounceOwnership() public virtual onlyOwner {... */\n      jump\t// out\n        /* \"contracts/494_storage_contract.sol\":11213:11512  function getStorageProviderNodeID(address _address) external view returns (uint) {... */\n    tag_46:\n        /* \"contracts/494_storage_contract.sol\":11288:11292  uint */\n      0x00\n        /* \"contracts/494_storage_contract.sol\":11307:11313  uint i */\n      dup1\n        /* \"contracts/494_storage_contract.sol\":11316:11317  0 */\n      0x00\n        /* \"contracts/494_storage_contract.sol\":11307:11317  uint i = 0 */\n      swap1\n      pop\n        /* \"contracts/494_storage_contract.sol\":11302:11478  for (uint i = 0; i < availableFarmers.length; i++) {... */\n    tag_181:\n        /* \"contracts/494_storage_contract.sol\":11323:11339  availableFarmers */\n      0x01\n        /* \"contracts/494_storage_contract.sol\":11323:11346  availableFarmers.length */\n      dup1\n      sload\n      swap1\n      pop\n        /* \"contracts/494_storage_contract.sol\":11319:11320  i */\n      dup2\n        /* \"contracts/494_storage_contract.sol\":11319:11346  i < availableFarmers.length */\n      lt\n        /* \"contracts/494_storage_contract.sol\":11302:11478  for (uint i = 0; i < availableFarmers.length; i++) {... */\n      iszero\n      tag_182\n      jumpi\n        /* \"contracts/494_storage_contract.sol\":11404:11412  _address */\n      dup3\n        /* \"contracts/494_storage_contract.sol\":11367:11412  availableFarmers[i].walletAddress == _address */\n      0xffffffffffffffffffffffffffffffffffffffff\n      and\n        /* \"contracts/494_storage_contract.sol\":11367:11383  availableFarmers */\n      0x01\n        /* \"contracts/494_storage_contract.sol\":11384:11385  i */\n      dup3\n        /* \"contracts/494_storage_contract.sol\":11367:11386  availableFarmers[i] */\n      dup2\n      sload\n      dup2\n      lt\n      tag_184\n      jumpi\n      tag_185\n      tag_108\n      jump\t// in\n    tag_185:\n    tag_184:\n      swap1\n      0x00\n      mstore\n      keccak256(0x00, 0x20)\n      swap1\n      0x05\n      mul\n      add\n        /* \"contracts/494_storage_contract.sol\":11367:11400  availableFarmers[i].walletAddress */\n      0x00\n      add\n      0x00\n      swap1\n      sload\n      swap1\n      0x0100\n      exp\n      swap1\n      div\n      0xffffffffffffffffffffffffffffffffffffffff\n      and\n        /* \"contracts/494_storage_contract.sol\":11367:11412  availableFarmers[i].walletAddress == _address */\n      0xffffffffffffffffffffffffffffffffffffffff\n      and\n      sub\n        /* \"contracts/494_storage_contract.sol\":11363:11470  if (availableFarmers[i].walletAddress == _address) {... */\n      tag_187\n      jumpi\n        /* \"contracts/494_storage_contract.sol\":11433:11449  availableFarmers */\n      0x01\n        /* \"contracts/494_storage_contract.sol\":11450:11451  i */\n      dup2\n        /* \"contracts/494_storage_contract.sol\":11433:11452  availableFarmers[i] */\n      dup2\n      sload\n      dup2\n      lt\n      tag_188\n      jumpi\n      tag_189\n      tag_108\n      jump\t// in\n    tag_189:\n    tag_188:\n      swap1\n      0x00\n      mstore\n      keccak256(0x00, 0x20)\n      swap1\n      0x05\n      mul\n      add\n        /* \"contracts/494_storage_contract.sol\":11433:11459  availableFarmers[i].nodeId */\n      0x01\n      add\n      sload\n        /* \"contracts/494_storage_contract.sol\":11426:11459  return availableFarmers[i].nodeId */\n      swap2\n      pop\n      pop\n      jump(tag_180)\n        /* \"contracts/494_storage_contract.sol\":11363:11470  if (availableFarmers[i].walletAddress == _address) {... */\n    tag_187:\n        /* \"contracts/494_storage_contract.sol\":11348:11351  i++ */\n      dup1\n      dup1\n      tag_191\n      swap1\n      tag_117\n      jump\t// in\n    tag_191:\n      swap2\n      pop\n      pop\n        /* \"contracts/494_storage_contract.sol\":11302:11478  for (uint i = 0; i < availableFarmers.length; i++) {... */\n      jump(tag_181)\n    tag_182:\n      pop\n        /* \"contracts/494_storage_contract.sol\":11486:11505  revert(\"Not found\") */\n      mload(0x40)\n      0x08c379a000000000000000000000000000000000000000000000000000000000\n      dup2\n      mstore\n      0x04\n      add\n      tag_192\n      swap1\n      tag_193\n      jump\t// in\n    tag_192:\n      mload(0x40)\n      dup1\n      swap2\n      sub\n      swap1\n      revert\n        /* \"contracts/494_storage_contract.sol\":11213:11512  function getStorageProviderNodeID(address _address) external view returns (uint) {... */\n    tag_180:\n      swap2\n      swap1\n      pop\n      jump\t// out\n        /* \"contracts/494_storage_contract.sol\":5533:5770  function setFileHashOwner(bytes20 fileHash, address owner) external {... */\n    tag_52:\n        /* \"contracts/494_storage_contract.sol\":5633:5648  fileHashToOwner */\n      0x05\n        /* \"contracts/494_storage_contract.sol\":5633:5658  fileHashToOwner[fileHash] */\n      0x00\n        /* \"contracts/494_storage_contract.sol\":5649:5657  fileHash */\n      dup4\n        /* \"contracts/494_storage_contract.sol\":5633:5658  fileHashToOwner[fileHash] */\n      not(0xffffffffffffffffffffffff)\n      and\n      not(0xffffffffffffffffffffffff)\n      and\n      dup2\n      mstore\n      0x20\n      add\n      swap1\n      dup2\n      mstore\n      0x20\n      add\n      0x00\n      keccak256\n      0x00\n      swap1\n      sload\n      swap1\n      0x0100\n      exp\n      swap1\n      div\n      0xffffffffffffffffffffffffffffffffffffffff\n      and\n        /* \"contracts/494_storage_contract.sol\":5619:5658  msg.sender == fileHashToOwner[fileHash] */\n      0xffffffffffffffffffffffffffffffffffffffff\n      and\n        /* \"contracts/494_storage_contract.sol\":5619:5629  msg.sender */\n      caller\n        /* \"contracts/494_storage_contract.sol\":5619:5658  msg.sender == fileHashToOwner[fileHash] */\n      0xffffffffffffffffffffffffffffffffffffffff\n      and\n      eq\n        /* \"contracts/494_storage_contract.sol\":5611:5720  require(msg.sender == fileHashToOwner[fileHash], \"Only the File Owner can give away ownership of their file\") */\n      tag_195\n      jumpi\n      mload(0x40)\n      0x08c379a000000000000000000000000000000000000000000000000000000000\n      dup2\n      mstore\n      0x04\n      add\n      tag_196\n      swap1\n      tag_197\n      jump\t// in\n    tag_196:\n      mload(0x40)\n      dup1\n      swap2\n      sub\n      swap1\n      revert\n    tag_195:\n        /* \"contracts/494_storage_contract.sol\":5758:5763  owner */\n      dup1\n        /* \"contracts/494_storage_contract.sol\":5730:5745  fileHashToOwner */\n      0x05\n        /* \"contracts/494_storage_contract.sol\":5730:5755  fileHashToOwner[fileHash] */\n      0x00\n        /* \"contracts/494_storage_contract.sol\":5746:5754  fileHash */\n      dup5\n        /* \"contracts/494_storage_contract.sol\":5730:5755  fileHashToOwner[fileHash] */\n      not(0xffffffffffffffffffffffff)\n      and\n      not(0xffffffffffffffffffffffff)\n      and\n      dup2\n      mstore\n      0x20\n      add\n      swap1\n      dup2\n      mstore\n      0x20\n      add\n      0x00\n      keccak256\n      0x00\n        /* \"contracts/494_storage_contract.sol\":5730:5763  fileHashToOwner[fileHash] = owner */\n      0x0100\n      exp\n      dup2\n      sload\n      dup2\n      0xffffffffffffffffffffffffffffffffffffffff\n      mul\n      not\n      and\n      swap1\n      dup4\n      0xffffffffffffffffffffffffffffffffffffffff\n      and\n      mul\n      or\n      swap1\n      sstore\n      pop\n        /* \"contracts/494_storage_contract.sol\":5533:5770  function setFileHashOwner(bytes20 fileHash, address owner) external {... */\n      pop\n      pop\n      jump\t// out\n        /* \"contracts/494_storage_contract.sol\":8078:8818  function getFilehashesByOwner(address _owner) external view onlyOwner returns (bytes20[] memory) {... */\n    tag_55:\n        /* \"contracts/494_storage_contract.sol\":8157:8173  bytes20[] memory */\n      0x60\n        /* \".deps/ownable.sol\":1122:1135  _checkOwner() */\n      tag_199\n        /* \".deps/ownable.sol\":1122:1133  _checkOwner */\n      tag_176\n        /* \".deps/ownable.sol\":1122:1135  _checkOwner() */\n      jump\t// in\n    tag_199:\n        /* \"contracts/494_storage_contract.sol\":8313:8345  bytes20[] memory ownerFilehashes */\n      0x00\n        /* \"contracts/494_storage_contract.sol\":8362:8376  ownerFileCount */\n      0x0c\n        /* \"contracts/494_storage_contract.sol\":8362:8384  ownerFileCount[_owner] */\n      0x00\n        /* \"contracts/494_storage_contract.sol\":8377:8383  _owner */\n      dup5\n        /* \"contracts/494_storage_contract.sol\":8362:8384  ownerFileCount[_owner] */\n      0xffffffffffffffffffffffffffffffffffffffff\n      and\n      0xffffffffffffffffffffffffffffffffffffffff\n      and\n      dup2\n      mstore\n      0x20\n      add\n      swap1\n      dup2\n      mstore\n      0x20\n      add\n      0x00\n      keccak256\n      sload\n        /* \"contracts/494_storage_contract.sol\":8348:8385  new bytes20[](ownerFileCount[_owner]) */\n      0xffffffffffffffff\n      dup2\n      gt\n      iszero\n      tag_201\n      jumpi\n      tag_202\n      tag_101\n      jump\t// in\n    tag_202:\n    tag_201:\n      mload(0x40)\n      swap1\n      dup1\n      dup3\n      mstore\n      dup1\n      0x20\n      mul\n      0x20\n      add\n      dup3\n      add\n      0x40\n      mstore\n      dup1\n      iszero\n      tag_203\n      jumpi\n      dup2\n      0x20\n      add\n      0x20\n      dup3\n      mul\n      dup1\n      calldatasize\n      dup4\n      calldatacopy\n      dup1\n      dup3\n      add\n      swap2\n      pop\n      pop\n      swap1\n      pop\n    tag_203:\n      pop\n        /* \"contracts/494_storage_contract.sol\":8313:8385  bytes20[] memory ownerFilehashes = new bytes20[](ownerFileCount[_owner]) */\n      swap1\n      pop\n        /* \"contracts/494_storage_contract.sol\":8396:8408  uint counter */\n      0x00\n        /* \"contracts/494_storage_contract.sol\":8471:8477  uint i */\n      dup1\n        /* \"contracts/494_storage_contract.sol\":8466:8782  for (uint i = 0; i < fileHashes.length; i++) {... */\n    tag_204:\n        /* \"contracts/494_storage_contract.sol\":8487:8497  fileHashes */\n      0x04\n        /* \"contracts/494_storage_contract.sol\":8487:8504  fileHashes.length */\n      dup1\n      sload\n      swap1\n      pop\n        /* \"contracts/494_storage_contract.sol\":8483:8484  i */\n      dup2\n        /* \"contracts/494_storage_contract.sol\":8483:8504  i < fileHashes.length */\n      lt\n        /* \"contracts/494_storage_contract.sol\":8466:8782  for (uint i = 0; i < fileHashes.length; i++) {... */\n      iszero\n      tag_205\n      jumpi\n        /* \"contracts/494_storage_contract.sol\":8620:8626  _owner */\n      dup5\n        /* \"contracts/494_storage_contract.sol\":8586:8626  fileHashToOwner[fileHashes[i]] == _owner */\n      0xffffffffffffffffffffffffffffffffffffffff\n      and\n        /* \"contracts/494_storage_contract.sol\":8586:8601  fileHashToOwner */\n      0x05\n        /* \"contracts/494_storage_contract.sol\":8586:8616  fileHashToOwner[fileHashes[i]] */\n      0x00\n        /* \"contracts/494_storage_contract.sol\":8602:8612  fileHashes */\n      0x04\n        /* \"contracts/494_storage_contract.sol\":8613:8614  i */\n      dup5\n        /* \"contracts/494_storage_contract.sol\":8602:8615  fileHashes[i] */\n      dup2\n      sload\n      dup2\n      lt\n      tag_207\n      jumpi\n      tag_208\n      tag_108\n      jump\t// in\n    tag_208:\n    tag_207:\n      swap1\n      0x00\n      mstore\n      keccak256(0x00, 0x20)\n      add\n      0x00\n      swap1\n      sload\n      swap1\n      0x0100\n      exp\n      swap1\n      div\n      0x60\n      shl\n        /* \"contracts/494_storage_contract.sol\":8586:8616  fileHashToOwner[fileHashes[i]] */\n      not(0xffffffffffffffffffffffff)\n      and\n      not(0xffffffffffffffffffffffff)\n      and\n      dup2\n      mstore\n      0x20\n      add\n      swap1\n      dup2\n      mstore\n      0x20\n      add\n      0x00\n      keccak256\n      0x00\n      swap1\n      sload\n      swap1\n      0x0100\n      exp\n      swap1\n      div\n      0xffffffffffffffffffffffffffffffffffffffff\n      and\n        /* \"contracts/494_storage_contract.sol\":8586:8626  fileHashToOwner[fileHashes[i]] == _owner */\n      0xffffffffffffffffffffffffffffffffffffffff\n      and\n      sub\n        /* \"contracts/494_storage_contract.sol\":8582:8772  if (fileHashToOwner[fileHashes[i]] == _owner) {... */\n      tag_210\n      jumpi\n        /* \"contracts/494_storage_contract.sol\":8723:8733  fileHashes */\n      0x04\n        /* \"contracts/494_storage_contract.sol\":8734:8735  i */\n      dup2\n        /* \"contracts/494_storage_contract.sol\":8723:8736  fileHashes[i] */\n      dup2\n      sload\n      dup2\n      lt\n      tag_211\n      jumpi\n      tag_212\n      tag_108\n      jump\t// in\n    tag_212:\n    tag_211:\n      swap1\n      0x00\n      mstore\n      keccak256(0x00, 0x20)\n      add\n      0x00\n      swap1\n      sload\n      swap1\n      0x0100\n      exp\n      swap1\n      div\n      0x60\n      shl\n        /* \"contracts/494_storage_contract.sol\":8696:8711  ownerFilehashes */\n      dup4\n        /* \"contracts/494_storage_contract.sol\":8712:8719  counter */\n      dup4\n        /* \"contracts/494_storage_contract.sol\":8696:8720  ownerFilehashes[counter] */\n      dup2\n      mload\n      dup2\n      lt\n      tag_214\n      jumpi\n      tag_215\n      tag_108\n      jump\t// in\n    tag_215:\n    tag_214:\n      0x20\n      mul\n      0x20\n      add\n      add\n        /* \"contracts/494_storage_contract.sol\":8696:8736  ownerFilehashes[counter] = fileHashes[i] */\n      swap1\n      not(0xffffffffffffffffffffffff)\n      and\n      swap1\n      dup2\n      not(0xffffffffffffffffffffffff)\n      and\n      dup2\n      mstore\n      pop\n      pop\n        /* \"contracts/494_storage_contract.sol\":8750:8759  counter++ */\n      dup2\n      dup1\n      tag_216\n      swap1\n      tag_117\n      jump\t// in\n    tag_216:\n      swap3\n      pop\n      pop\n        /* \"contracts/494_storage_contract.sol\":8582:8772  if (fileHashToOwner[fileHashes[i]] == _owner) {... */\n    tag_210:\n        /* \"contracts/494_storage_contract.sol\":8506:8509  i++ */\n      dup1\n      dup1\n      tag_217\n      swap1\n      tag_117\n      jump\t// in\n    tag_217:\n      swap2\n      pop\n      pop\n        /* \"contracts/494_storage_contract.sol\":8466:8782  for (uint i = 0; i < fileHashes.length; i++) {... */\n      jump(tag_204)\n    tag_205:\n      pop\n        /* \"contracts/494_storage_contract.sol\":8796:8811  ownerFilehashes */\n      dup2\n        /* \"contracts/494_storage_contract.sol\":8789:8811  return ownerFilehashes */\n      swap3\n      pop\n      pop\n      pop\n        /* \"contracts/494_storage_contract.sol\":8078:8818  function getFilehashesByOwner(address _owner) external view onlyOwner returns (bytes20[] memory) {... */\n      swap2\n      swap1\n      pop\n      jump\t// out\n        /* \".deps/ownable.sol\":1236:1323  function owner() public view virtual returns (address) {... */\n    tag_59:\n        /* \".deps/ownable.sol\":1282:1289  address */\n      0x00\n        /* \".deps/ownable.sol\":1309:1315  _owner */\n      dup1\n      0x00\n      swap1\n      sload\n      swap1\n      0x0100\n      exp\n      swap1\n      div\n      0xffffffffffffffffffffffffffffffffffffffff\n      and\n        /* \".deps/ownable.sol\":1302:1315  return _owner */\n      swap1\n      pop\n        /* \".deps/ownable.sol\":1236:1323  function owner() public view virtual returns (address) {... */\n      swap1\n      jump\t// out\n        /* \"contracts/494_storage_contract.sol\":10609:10819  function addStorageProvider(address _address, uint _nodeID, uint _storageSize, string memory _storageType) external {... */\n    tag_65:\n        /* \"contracts/494_storage_contract.sol\":10733:10749  availableFarmers */\n      0x01\n        /* \"contracts/494_storage_contract.sol\":10755:10811  Farmer(_address, _nodeID, 0, _storageSize, _storageType) */\n      mload(0x40)\n      dup1\n      0xa0\n      add\n      0x40\n      mstore\n      dup1\n        /* \"contracts/494_storage_contract.sol\":10762:10770  _address */\n      dup7\n        /* \"contracts/494_storage_contract.sol\":10755:10811  Farmer(_address, _nodeID, 0, _storageSize, _storageType) */\n      0xffffffffffffffffffffffffffffffffffffffff\n      and\n      dup2\n      mstore\n      0x20\n      add\n        /* \"contracts/494_storage_contract.sol\":10772:10779  _nodeID */\n      dup6\n        /* \"contracts/494_storage_contract.sol\":10755:10811  Farmer(_address, _nodeID, 0, _storageSize, _storageType) */\n      dup2\n      mstore\n      0x20\n      add\n        /* \"contracts/494_storage_contract.sol\":10781:10782  0 */\n      0x00\n        /* \"contracts/494_storage_contract.sol\":10755:10811  Farmer(_address, _nodeID, 0, _storageSize, _storageType) */\n      dup2\n      mstore\n      0x20\n      add\n        /* \"contracts/494_storage_contract.sol\":10784:10796  _storageSize */\n      dup5\n        /* \"contracts/494_storage_contract.sol\":10755:10811  Farmer(_address, _nodeID, 0, _storageSize, _storageType) */\n      dup2\n      mstore\n      0x20\n      add\n        /* \"contracts/494_storage_contract.sol\":10798:10810  _storageType */\n      dup4\n        /* \"contracts/494_storage_contract.sol\":10755:10811  Farmer(_address, _nodeID, 0, _storageSize, _storageType) */\n      dup2\n      mstore\n      pop\n        /* \"contracts/494_storage_contract.sol\":10733:10812  availableFarmers.push(Farmer(_address, _nodeID, 0, _storageSize, _storageType)) */\n      swap1\n      dup1\n      0x01\n      dup2\n      sload\n      add\n      dup1\n      dup3\n      sstore\n      dup1\n      swap2\n      pop\n      pop\n      0x01\n      swap1\n      sub\n      swap1\n      0x00\n      mstore\n      keccak256(0x00, 0x20)\n      swap1\n      0x05\n      mul\n      add\n      0x00\n      swap1\n      swap2\n      swap1\n      swap2\n      swap1\n      swap2\n      pop\n      0x00\n      dup3\n      add\n      mload\n      dup2\n      0x00\n      add\n      exp(0x0100, 0x00)\n      dup2\n      sload\n      dup2\n      0xffffffffffffffffffffffffffffffffffffffff\n      mul\n      not\n      and\n      swap1\n      dup4\n      0xffffffffffffffffffffffffffffffffffffffff\n      and\n      mul\n      or\n      swap1\n      sstore\n      pop\n      0x20\n      dup3\n      add\n      mload\n      dup2\n      0x01\n      add\n      sstore\n      0x40\n      dup3\n      add\n      mload\n      dup2\n      0x02\n      add\n      sstore\n      0x60\n      dup3\n      add\n      mload\n      dup2\n      0x03\n      add\n      sstore\n      0x80\n      dup3\n      add\n      mload\n      dup2\n      0x04\n      add\n      swap1\n      dup2\n      tag_221\n      swap2\n      swap1\n      tag_222\n      jump\t// in\n    tag_221:\n      pop\n      pop\n      pop\n        /* \"contracts/494_storage_contract.sol\":10609:10819  function addStorageProvider(address _address, uint _nodeID, uint _storageSize, string memory _storageType) external {... */\n      pop\n      pop\n      pop\n      pop\n      jump\t// out\n        /* \"contracts/494_storage_contract.sol\":10829:11207  function removeStorageProvider(address _address) external {... */\n    tag_68:\n        /* \"contracts/494_storage_contract.sol\":10902:10908  uint i */\n      0x00\n        /* \"contracts/494_storage_contract.sol\":10897:11201  for (uint i = 0; i < availableFarmers.length; i++) {... */\n    tag_224:\n        /* \"contracts/494_storage_contract.sol\":10918:10934  availableFarmers */\n      0x01\n        /* \"contracts/494_storage_contract.sol\":10918:10941  availableFarmers.length */\n      dup1\n      sload\n      swap1\n      pop\n        /* \"contracts/494_storage_contract.sol\":10914:10915  i */\n      dup2\n        /* \"contracts/494_storage_contract.sol\":10914:10941  i < availableFarmers.length */\n      lt\n        /* \"contracts/494_storage_contract.sol\":10897:11201  for (uint i = 0; i < availableFarmers.length; i++) {... */\n      iszero\n      tag_225\n      jumpi\n        /* \"contracts/494_storage_contract.sol\":11003:11011  _address */\n      dup2\n        /* \"contracts/494_storage_contract.sol\":10966:11011  availableFarmers[i].walletAddress == _address */\n      0xffffffffffffffffffffffffffffffffffffffff\n      and\n        /* \"contracts/494_storage_contract.sol\":10966:10982  availableFarmers */\n      0x01\n        /* \"contracts/494_storage_contract.sol\":10983:10984  i */\n      dup3\n        /* \"contracts/494_storage_contract.sol\":10966:10985  availableFarmers[i] */\n      dup2\n      sload\n      dup2\n      lt\n      tag_227\n      jumpi\n      tag_228\n      tag_108\n      jump\t// in\n    tag_228:\n    tag_227:\n      swap1\n      0x00\n      mstore\n      keccak256(0x00, 0x20)\n      swap1\n      0x05\n      mul\n      add\n        /* \"contracts/494_storage_contract.sol\":10966:10999  availableFarmers[i].walletAddress */\n      0x00\n      add\n      0x00\n      swap1\n      sload\n      swap1\n      0x0100\n      exp\n      swap1\n      div\n      0xffffffffffffffffffffffffffffffffffffffff\n      and\n        /* \"contracts/494_storage_contract.sol\":10966:11011  availableFarmers[i].walletAddress == _address */\n      0xffffffffffffffffffffffffffffffffffffffff\n      and\n      sub\n        /* \"contracts/494_storage_contract.sol\":10962:11191  if (availableFarmers[i].walletAddress == _address) {... */\n      tag_230\n      jumpi\n        /* \"contracts/494_storage_contract.sol\":11053:11069  availableFarmers */\n      0x01\n        /* \"contracts/494_storage_contract.sol\":11117:11118  1 */\n      dup1\n        /* \"contracts/494_storage_contract.sol\":11091:11107  availableFarmers */\n      dup1\n        /* \"contracts/494_storage_contract.sol\":11091:11114  availableFarmers.length */\n      dup1\n      sload\n      swap1\n      pop\n        /* \"contracts/494_storage_contract.sol\":11091:11118  availableFarmers.length - 1 */\n      tag_231\n      swap2\n      swap1\n      tag_129\n      jump\t// in\n    tag_231:\n        /* \"contracts/494_storage_contract.sol\":11053:11136  availableFarmers[... */\n      dup2\n      sload\n      dup2\n      lt\n      tag_232\n      jumpi\n      tag_233\n      tag_108\n      jump\t// in\n    tag_233:\n    tag_232:\n      swap1\n      0x00\n      mstore\n      keccak256(0x00, 0x20)\n      swap1\n      0x05\n      mul\n      add\n        /* \"contracts/494_storage_contract.sol\":11031:11047  availableFarmers */\n      0x01\n        /* \"contracts/494_storage_contract.sol\":11048:11049  i */\n      dup3\n        /* \"contracts/494_storage_contract.sol\":11031:11050  availableFarmers[i] */\n      dup2\n      sload\n      dup2\n      lt\n      tag_235\n      jumpi\n      tag_236\n      tag_108\n      jump\t// in\n    tag_236:\n    tag_235:\n      swap1\n      0x00\n      mstore\n      keccak256(0x00, 0x20)\n      swap1\n      0x05\n      mul\n      add\n        /* \"contracts/494_storage_contract.sol\":11031:11136  availableFarmers[i] = availableFarmers[... */\n      0x00\n      dup3\n      add\n      0x00\n      swap1\n      sload\n      swap1\n      0x0100\n      exp\n      swap1\n      div\n      0xffffffffffffffffffffffffffffffffffffffff\n      and\n      dup2\n      0x00\n      add\n      exp(0x0100, 0x00)\n      dup2\n      sload\n      dup2\n      0xffffffffffffffffffffffffffffffffffffffff\n      mul\n      not\n      and\n      swap1\n      dup4\n      0xffffffffffffffffffffffffffffffffffffffff\n      and\n      mul\n      or\n      swap1\n      sstore\n      pop\n      0x01\n      dup3\n      add\n      sload\n      dup2\n      0x01\n      add\n      sstore\n      0x02\n      dup3\n      add\n      sload\n      dup2\n      0x02\n      add\n      sstore\n      0x03\n      dup3\n      add\n      sload\n      dup2\n      0x03\n      add\n      sstore\n      0x04\n      dup3\n      add\n      dup2\n      0x04\n      add\n      swap1\n      dup2\n      tag_238\n      swap2\n      swap1\n      tag_239\n      jump\t// in\n    tag_238:\n      pop\n      swap1\n      pop\n      pop\n        /* \"contracts/494_storage_contract.sol\":11154:11170  availableFarmers */\n      0x01\n        /* \"contracts/494_storage_contract.sol\":11154:11176  availableFarmers.pop() */\n      dup1\n      sload\n      dup1\n      tag_240\n      jumpi\n      tag_241\n      tag_138\n      jump\t// in\n    tag_241:\n    tag_240:\n      0x01\n      swap1\n      sub\n      dup2\n      dup2\n      swap1\n      0x00\n      mstore\n      keccak256(0x00, 0x20)\n      swap1\n      0x05\n      mul\n      add\n      0x00\n      dup1\n      dup3\n      add\n      exp(0x0100, 0x00)\n      dup2\n      sload\n      swap1\n      0xffffffffffffffffffffffffffffffffffffffff\n      mul\n      not\n      and\n      swap1\n      sstore\n      0x01\n      dup3\n      add\n      0x00\n      swap1\n      sstore\n      0x02\n      dup3\n      add\n      0x00\n      swap1\n      sstore\n      0x03\n      dup3\n      add\n      0x00\n      swap1\n      sstore\n      0x04\n      dup3\n      add\n      0x00\n      tag_243\n      swap2\n      swap1\n      tag_244\n      jump\t// in\n    tag_243:\n      pop\n      pop\n      swap1\n      sstore\n        /* \"contracts/494_storage_contract.sol\":10962:11191  if (availableFarmers[i].walletAddress == _address) {... */\n    tag_230:\n        /* \"contracts/494_storage_contract.sol\":10943:10946  i++ */\n      dup1\n      dup1\n      tag_245\n      swap1\n      tag_117\n      jump\t// in\n    tag_245:\n      swap2\n      pop\n      pop\n        /* \"contracts/494_storage_contract.sol\":10897:11201  for (uint i = 0; i < availableFarmers.length; i++) {... */\n      jump(tag_224)\n    tag_225:\n      pop\n        /* \"contracts/494_storage_contract.sol\":10829:11207  function removeStorageProvider(address _address) external {... */\n      pop\n      jump\t// out\n        /* \"contracts/494_storage_contract.sol\":12157:12558  function removeShardFromStorageProvider(... */\n    tag_72:\n        /* \"contracts/494_storage_contract.sol\":12275:12281  uint i */\n      0x00\n        /* \"contracts/494_storage_contract.sol\":12270:12552  for (uint i = 0; i < availableFarmers.length; i++) {... */\n    tag_247:\n        /* \"contracts/494_storage_contract.sol\":12291:12307  availableFarmers */\n      0x01\n        /* \"contracts/494_storage_contract.sol\":12291:12314  availableFarmers.length */\n      dup1\n      sload\n      swap1\n      pop\n        /* \"contracts/494_storage_contract.sol\":12287:12288  i */\n      dup2\n        /* \"contracts/494_storage_contract.sol\":12287:12314  i < availableFarmers.length */\n      lt\n        /* \"contracts/494_storage_contract.sol\":12270:12552  for (uint i = 0; i < availableFarmers.length; i++) {... */\n      iszero\n      tag_248\n      jumpi\n        /* \"contracts/494_storage_contract.sol\":12369:12390  shardIdtoFarmerNodeId */\n      0x07\n        /* \"contracts/494_storage_contract.sol\":12369:12400  shardIdtoFarmerNodeId[_shardId] */\n      0x00\n        /* \"contracts/494_storage_contract.sol\":12391:12399  _shardId */\n      dup5\n        /* \"contracts/494_storage_contract.sol\":12369:12400  shardIdtoFarmerNodeId[_shardId] */\n      dup2\n      mstore\n      0x20\n      add\n      swap1\n      dup2\n      mstore\n      0x20\n      add\n      0x00\n      keccak256\n      sload\n        /* \"contracts/494_storage_contract.sol\":12339:12355  availableFarmers */\n      0x01\n        /* \"contracts/494_storage_contract.sol\":12356:12357  i */\n      dup3\n        /* \"contracts/494_storage_contract.sol\":12339:12358  availableFarmers[i] */\n      dup2\n      sload\n      dup2\n      lt\n      tag_250\n      jumpi\n      tag_251\n      tag_108\n      jump\t// in\n    tag_251:\n    tag_250:\n      swap1\n      0x00\n      mstore\n      keccak256(0x00, 0x20)\n      swap1\n      0x05\n      mul\n      add\n        /* \"contracts/494_storage_contract.sol\":12339:12365  availableFarmers[i].nodeId */\n      0x01\n      add\n      sload\n        /* \"contracts/494_storage_contract.sol\":12339:12400  availableFarmers[i].nodeId == shardIdtoFarmerNodeId[_shardId] */\n      sub\n        /* \"contracts/494_storage_contract.sol\":12335:12542  if (availableFarmers[i].nodeId == shardIdtoFarmerNodeId[_shardId]) {... */\n      tag_253\n      jumpi\n        /* \"contracts/494_storage_contract.sol\":12461:12471  _shardSize */\n      dup2\n        /* \"contracts/494_storage_contract.sol\":12420:12436  availableFarmers */\n      0x01\n        /* \"contracts/494_storage_contract.sol\":12437:12438  i */\n      dup3\n        /* \"contracts/494_storage_contract.sol\":12420:12439  availableFarmers[i] */\n      dup2\n      sload\n      dup2\n      lt\n      tag_254\n      jumpi\n      tag_255\n      tag_108\n      jump\t// in\n    tag_255:\n    tag_254:\n      swap1\n      0x00\n      mstore\n      keccak256(0x00, 0x20)\n      swap1\n      0x05\n      mul\n      add\n        /* \"contracts/494_storage_contract.sol\":12420:12457  availableFarmers[i].currentStoredSize */\n      0x02\n      add\n      0x00\n        /* \"contracts/494_storage_contract.sol\":12420:12471  availableFarmers[i].currentStoredSize -= _shardSize */\n      dup3\n      dup3\n      sload\n      tag_257\n      swap2\n      swap1\n      tag_129\n      jump\t// in\n    tag_257:\n      swap3\n      pop\n      pop\n      dup2\n      swap1\n      sstore\n      pop\n        /* \"contracts/494_storage_contract.sol\":12496:12517  shardIdtoFarmerNodeId */\n      0x07\n        /* \"contracts/494_storage_contract.sol\":12496:12527  shardIdtoFarmerNodeId[_shardId] */\n      0x00\n        /* \"contracts/494_storage_contract.sol\":12518:12526  _shardId */\n      dup5\n        /* \"contracts/494_storage_contract.sol\":12496:12527  shardIdtoFarmerNodeId[_shardId] */\n      dup2\n      mstore\n      0x20\n      add\n      swap1\n      dup2\n      mstore\n      0x20\n      add\n      0x00\n      keccak256\n        /* \"contracts/494_storage_contract.sol\":12489:12527  delete shardIdtoFarmerNodeId[_shardId] */\n      0x00\n      swap1\n      sstore\n        /* \"contracts/494_storage_contract.sol\":12335:12542  if (availableFarmers[i].nodeId == shardIdtoFarmerNodeId[_shardId]) {... */\n    tag_253:\n        /* \"contracts/494_storage_contract.sol\":12316:12319  i++ */\n      dup1\n      dup1\n      tag_258\n      swap1\n      tag_117\n      jump\t// in\n    tag_258:\n      swap2\n      pop\n      pop\n        /* \"contracts/494_storage_contract.sol\":12270:12552  for (uint i = 0; i < availableFarmers.length; i++) {... */\n      jump(tag_247)\n    tag_248:\n      pop\n        /* \"contracts/494_storage_contract.sol\":12157:12558  function removeShardFromStorageProvider(... */\n      pop\n      pop\n      jump\t// out\n        /* \"contracts/494_storage_contract.sol\":5235:5474  function getShardsInFile_Count(bytes20 fileHash) external view returns (uint) {... */\n    tag_75:\n        /* \"contracts/494_storage_contract.sol\":5307:5311  uint */\n      0x00\n        /* \"contracts/494_storage_contract.sol\":5345:5360  fileHashToOwner */\n      0x05\n        /* \"contracts/494_storage_contract.sol\":5345:5370  fileHashToOwner[fileHash] */\n      0x00\n        /* \"contracts/494_storage_contract.sol\":5361:5369  fileHash */\n      dup4\n        /* \"contracts/494_storage_contract.sol\":5345:5370  fileHashToOwner[fileHash] */\n      not(0xffffffffffffffffffffffff)\n      and\n      not(0xffffffffffffffffffffffff)\n      and\n      dup2\n      mstore\n      0x20\n      add\n      swap1\n      dup2\n      mstore\n      0x20\n      add\n      0x00\n      keccak256\n      0x00\n      swap1\n      sload\n      swap1\n      0x0100\n      exp\n      swap1\n      div\n      0xffffffffffffffffffffffffffffffffffffffff\n      and\n        /* \"contracts/494_storage_contract.sol\":5331:5370  msg.sender == fileHashToOwner[fileHash] */\n      0xffffffffffffffffffffffffffffffffffffffff\n      and\n        /* \"contracts/494_storage_contract.sol\":5331:5341  msg.sender */\n      caller\n        /* \"contracts/494_storage_contract.sol\":5331:5370  msg.sender == fileHashToOwner[fileHash] */\n      0xffffffffffffffffffffffffffffffffffffffff\n      and\n      eq\n        /* \"contracts/494_storage_contract.sol\":5323:5421  require(msg.sender == fileHashToOwner[fileHash], \"Only the File Owner can check number of shards\") */\n      tag_260\n      jumpi\n      mload(0x40)\n      0x08c379a000000000000000000000000000000000000000000000000000000000\n      dup2\n      mstore\n      0x04\n      add\n      tag_261\n      swap1\n      tag_262\n      jump\t// in\n    tag_261:\n      mload(0x40)\n      dup1\n      swap2\n      sub\n      swap1\n      revert\n    tag_260:\n        /* \"contracts/494_storage_contract.sol\":5439:5457  shardsInFile_Count */\n      0x0d\n        /* \"contracts/494_storage_contract.sol\":5439:5467  shardsInFile_Count[fileHash] */\n      0x00\n        /* \"contracts/494_storage_contract.sol\":5458:5466  fileHash */\n      dup4\n        /* \"contracts/494_storage_contract.sol\":5439:5467  shardsInFile_Count[fileHash] */\n      not(0xffffffffffffffffffffffff)\n      and\n      not(0xffffffffffffffffffffffff)\n      and\n      dup2\n      mstore\n      0x20\n      add\n      swap1\n      dup2\n      mstore\n      0x20\n      add\n      0x00\n      keccak256\n      sload\n        /* \"contracts/494_storage_contract.sol\":5432:5467  return shardsInFile_Count[fileHash] */\n      swap1\n      pop\n        /* \"contracts/494_storage_contract.sol\":5235:5474  function getShardsInFile_Count(bytes20 fileHash) external view returns (uint) {... */\n      swap2\n      swap1\n      pop\n      jump\t// out\n        /* \".deps/ownable.sol\":2135:2336  function transferOwnership(address newOwner) public virtual onlyOwner {... */\n    tag_79:\n        /* \".deps/ownable.sol\":1122:1135  _checkOwner() */\n      tag_264\n        /* \".deps/ownable.sol\":1122:1133  _checkOwner */\n      tag_176\n        /* \".deps/ownable.sol\":1122:1135  _checkOwner() */\n      jump\t// in\n    tag_264:\n        /* \".deps/ownable.sol\":2244:2245  0 */\n      0x00\n        /* \".deps/ownable.sol\":2224:2246  newOwner != address(0) */\n      0xffffffffffffffffffffffffffffffffffffffff\n      and\n        /* \".deps/ownable.sol\":2224:2232  newOwner */\n      dup2\n        /* \".deps/ownable.sol\":2224:2246  newOwner != address(0) */\n      0xffffffffffffffffffffffffffffffffffffffff\n      and\n      sub\n        /* \".deps/ownable.sol\":2216:2289  require(newOwner != address(0), \"Ownable: new owner is the zero address\") */\n      tag_266\n      jumpi\n      mload(0x40)\n      0x08c379a000000000000000000000000000000000000000000000000000000000\n      dup2\n      mstore\n      0x04\n      add\n      tag_267\n      swap1\n      tag_268\n      jump\t// in\n    tag_267:\n      mload(0x40)\n      dup1\n      swap2\n      sub\n      swap1\n      revert\n    tag_266:\n        /* \".deps/ownable.sol\":2300:2328  _transferOwnership(newOwner) */\n      tag_269\n        /* \".deps/ownable.sol\":2319:2327  newOwner */\n      dup2\n        /* \".deps/ownable.sol\":2300:2318  _transferOwnership */\n      tag_179\n        /* \".deps/ownable.sol\":2300:2328  _transferOwnership(newOwner) */\n      jump\t// in\n    tag_269:\n        /* \".deps/ownable.sol\":2135:2336  function transferOwnership(address newOwner) public virtual onlyOwner {... */\n      pop\n      jump\t// out\n        /* \"contracts/494_storage_contract.sol\":5847:5991  function hasConsent(bytes20 _fileHash, address caller) internal view returns (bool) {... */\n    tag_83:\n        /* \"contracts/494_storage_contract.sol\":5925:5929  bool */\n      0x00\n        /* \"contracts/494_storage_contract.sol\":5978:5984  caller */\n      dup2\n        /* \"contracts/494_storage_contract.sol\":5948:5984  fileHashToOwner[_fileHash] == caller */\n      0xffffffffffffffffffffffffffffffffffffffff\n      and\n        /* \"contracts/494_storage_contract.sol\":5948:5963  fileHashToOwner */\n      0x05\n        /* \"contracts/494_storage_contract.sol\":5948:5974  fileHashToOwner[_fileHash] */\n      0x00\n        /* \"contracts/494_storage_contract.sol\":5964:5973  _fileHash */\n      dup6\n        /* \"contracts/494_storage_contract.sol\":5948:5974  fileHashToOwner[_fileHash] */\n      not(0xffffffffffffffffffffffff)\n      and\n      not(0xffffffffffffffffffffffff)\n      and\n      dup2\n      mstore\n      0x20\n      add\n      swap1\n      dup2\n      mstore\n      0x20\n      add\n      0x00\n      keccak256\n      0x00\n      swap1\n      sload\n      swap1\n      0x0100\n      exp\n      swap1\n      div\n      0xffffffffffffffffffffffffffffffffffffffff\n      and\n        /* \"contracts/494_storage_contract.sol\":5948:5984  fileHashToOwner[_fileHash] == caller */\n      0xffffffffffffffffffffffffffffffffffffffff\n      and\n      eq\n        /* \"contracts/494_storage_contract.sol\":5941:5984  return fileHashToOwner[_fileHash] == caller */\n      swap1\n      pop\n        /* \"contracts/494_storage_contract.sol\":5847:5991  function hasConsent(bytes20 _fileHash, address caller) internal view returns (bool) {... */\n      swap3\n      swap2\n      pop\n      pop\n      jump\t// out\n        /* \"contracts/494_storage_contract.sol\":2187:2582  function checkFileHash(bytes20 _filehash) internal view returns (uint) {... */\n    tag_121:\n        /* \"contracts/494_storage_contract.sol\":2252:2256  uint */\n      0x00\n        /* \"contracts/494_storage_contract.sol\":2317:2323  uint i */\n      dup1\n        /* \"contracts/494_storage_contract.sol\":2326:2327  0 */\n      0x00\n        /* \"contracts/494_storage_contract.sol\":2317:2327  uint i = 0 */\n      swap1\n      pop\n        /* \"contracts/494_storage_contract.sol\":2312:2532  for (uint i = 0; i < fileHashes.length; i++) {... */\n    tag_272:\n        /* \"contracts/494_storage_contract.sol\":2333:2343  fileHashes */\n      0x04\n        /* \"contracts/494_storage_contract.sol\":2333:2350  fileHashes.length */\n      dup1\n      sload\n      swap1\n      pop\n        /* \"contracts/494_storage_contract.sol\":2329:2330  i */\n      dup2\n        /* \"contracts/494_storage_contract.sol\":2329:2350  i < fileHashes.length */\n      lt\n        /* \"contracts/494_storage_contract.sol\":2312:2532  for (uint i = 0; i < fileHashes.length; i++) {... */\n      iszero\n      tag_273\n      jumpi\n        /* \"contracts/494_storage_contract.sol\":2453:2462  _filehash */\n      dup3\n        /* \"contracts/494_storage_contract.sol\":2436:2462  fileHashes[i] == _filehash */\n      not(0xffffffffffffffffffffffff)\n      and\n        /* \"contracts/494_storage_contract.sol\":2436:2446  fileHashes */\n      0x04\n        /* \"contracts/494_storage_contract.sol\":2447:2448  i */\n      dup3\n        /* \"contracts/494_storage_contract.sol\":2436:2449  fileHashes[i] */\n      dup2\n      sload\n      dup2\n      lt\n      tag_275\n      jumpi\n      tag_276\n      tag_108\n      jump\t// in\n    tag_276:\n    tag_275:\n      swap1\n      0x00\n      mstore\n      keccak256(0x00, 0x20)\n      add\n      0x00\n      swap1\n      sload\n      swap1\n      0x0100\n      exp\n      swap1\n      div\n      0x60\n      shl\n        /* \"contracts/494_storage_contract.sol\":2436:2462  fileHashes[i] == _filehash */\n      not(0xffffffffffffffffffffffff)\n      and\n      sub\n        /* \"contracts/494_storage_contract.sol\":2432:2522  if (fileHashes[i] == _filehash) {... */\n      tag_278\n      jumpi\n        /* \"contracts/494_storage_contract.sol\":2489:2490  1 */\n      0x01\n        /* \"contracts/494_storage_contract.sol\":2482:2490  return 1 */\n      swap2\n      pop\n      pop\n      jump(tag_271)\n        /* \"contracts/494_storage_contract.sol\":2432:2522  if (fileHashes[i] == _filehash) {... */\n    tag_278:\n        /* \"contracts/494_storage_contract.sol\":2352:2355  i++ */\n      dup1\n      dup1\n      tag_279\n      swap1\n      tag_117\n      jump\t// in\n    tag_279:\n      swap2\n      pop\n      pop\n        /* \"contracts/494_storage_contract.sol\":2312:2532  for (uint i = 0; i < fileHashes.length; i++) {... */\n      jump(tag_272)\n    tag_273:\n      pop\n        /* \"contracts/494_storage_contract.sol\":2548:2549  0 */\n      0x00\n        /* \"contracts/494_storage_contract.sol\":2541:2549  return 0 */\n      swap1\n      pop\n        /* \"contracts/494_storage_contract.sol\":2187:2582  function checkFileHash(bytes20 _filehash) internal view returns (uint) {... */\n    tag_271:\n      swap2\n      swap1\n      pop\n      jump\t// out\n        /* \".deps/ownable.sol\":1401:1533  function _checkOwner() internal view virtual {... */\n    tag_176:\n        /* \".deps/ownable.sol\":1476:1488  _msgSender() */\n      tag_281\n        /* \".deps/ownable.sol\":1476:1486  _msgSender */\n      tag_282\n        /* \".deps/ownable.sol\":1476:1488  _msgSender() */\n      jump\t// in\n    tag_281:\n        /* \".deps/ownable.sol\":1465:1488  owner() == _msgSender() */\n      0xffffffffffffffffffffffffffffffffffffffff\n      and\n        /* \".deps/ownable.sol\":1465:1472  owner() */\n      tag_283\n        /* \".deps/ownable.sol\":1465:1470  owner */\n      tag_59\n        /* \".deps/ownable.sol\":1465:1472  owner() */\n      jump\t// in\n    tag_283:\n        /* \".deps/ownable.sol\":1465:1488  owner() == _msgSender() */\n      0xffffffffffffffffffffffffffffffffffffffff\n      and\n      eq\n        /* \".deps/ownable.sol\":1457:1525  require(owner() == _msgSender(), \"Ownable: caller is not the owner\") */\n      tag_284\n      jumpi\n      mload(0x40)\n      0x08c379a000000000000000000000000000000000000000000000000000000000\n      dup2\n      mstore\n      0x04\n      add\n      tag_285\n      swap1\n      tag_286\n      jump\t// in\n    tag_285:\n      mload(0x40)\n      dup1\n      swap2\n      sub\n      swap1\n      revert\n    tag_284:\n        /* \".deps/ownable.sol\":1401:1533  function _checkOwner() internal view virtual {... */\n      jump\t// out\n        /* \".deps/ownable.sol\":2496:2687  function _transferOwnership(address newOwner) internal virtual {... */\n    tag_179:\n        /* \".deps/ownable.sol\":2570:2586  address oldOwner */\n      0x00\n        /* \".deps/ownable.sol\":2589:2595  _owner */\n      dup1\n      0x00\n      swap1\n      sload\n      swap1\n      0x0100\n      exp\n      swap1\n      div\n      0xffffffffffffffffffffffffffffffffffffffff\n      and\n        /* \".deps/ownable.sol\":2570:2595  address oldOwner = _owner */\n      swap1\n      pop\n        /* \".deps/ownable.sol\":2615:2623  newOwner */\n      dup2\n        /* \".deps/ownable.sol\":2606:2612  _owner */\n      0x00\n      dup1\n        /* \".deps/ownable.sol\":2606:2623  _owner = newOwner */\n      0x0100\n      exp\n      dup2\n      sload\n      dup2\n      0xffffffffffffffffffffffffffffffffffffffff\n      mul\n      not\n      and\n      swap1\n      dup4\n      0xffffffffffffffffffffffffffffffffffffffff\n      and\n      mul\n      or\n      swap1\n      sstore\n      pop\n        /* \".deps/ownable.sol\":2670:2678  newOwner */\n      dup2\n        /* \".deps/ownable.sol\":2639:2679  OwnershipTransferred(oldOwner, newOwner) */\n      0xffffffffffffffffffffffffffffffffffffffff\n      and\n        /* \".deps/ownable.sol\":2660:2668  oldOwner */\n      dup2\n        /* \".deps/ownable.sol\":2639:2679  OwnershipTransferred(oldOwner, newOwner) */\n      0xffffffffffffffffffffffffffffffffffffffff\n      and\n      0x8be0079c531659141344cd1fd0a4f28419497f9722a3daafe3b4186f6b6457e0\n      mload(0x40)\n      mload(0x40)\n      dup1\n      swap2\n      sub\n      swap1\n      log3\n        /* \".deps/ownable.sol\":2559:2687  {... */\n      pop\n        /* \".deps/ownable.sol\":2496:2687  function _transferOwnership(address newOwner) internal virtual {... */\n      pop\n      jump\t// out\n        /* \".deps/context.sol\":656:754  function _msgSender() internal view virtual returns (address) {... */\n    tag_282:\n        /* \".deps/context.sol\":709:716  address */\n      0x00\n        /* \".deps/context.sol\":736:746  msg.sender */\n      caller\n        /* \".deps/context.sol\":729:746  return msg.sender */\n      swap1\n      pop\n        /* \".deps/context.sol\":656:754  function _msgSender() internal view virtual returns (address) {... */\n      swap1\n      jump\t// out\n    tag_92:\n      dup3\n      dup1\n      sload\n      dup3\n      dup3\n      sstore\n      swap1\n      0x00\n      mstore\n      keccak256(0x00, 0x20)\n      swap1\n      dup2\n      add\n      swap3\n      dup3\n      iszero\n      tag_289\n      jumpi\n      swap2\n      0x20\n      mul\n      dup3\n      add\n    tag_290:\n      dup3\n      dup2\n      gt\n      iszero\n      tag_291\n      jumpi\n      dup3\n      mload\n      dup3\n      sstore\n      swap2\n      0x20\n      add\n      swap2\n      swap1\n      0x01\n      add\n      swap1\n      jump(tag_290)\n    tag_291:\n    tag_289:\n      pop\n      swap1\n      pop\n      tag_292\n      swap2\n      swap1\n      tag_293\n      jump\t// in\n    tag_292:\n      pop\n      swap1\n      jump\t// out\n    tag_143:\n      pop\n      dup1\n      sload\n      0x00\n      dup3\n      sstore\n      swap1\n      0x00\n      mstore\n      keccak256(0x00, 0x20)\n      swap1\n      dup2\n      add\n      swap1\n      tag_295\n      swap2\n      swap1\n      tag_293\n      jump\t// in\n    tag_295:\n      pop\n      jump\t// out\n    tag_244:\n      pop\n      dup1\n      sload\n      tag_296\n      swap1\n      tag_297\n      jump\t// in\n    tag_296:\n      0x00\n      dup3\n      sstore\n      dup1\n      0x1f\n      lt\n      tag_299\n      jumpi\n      pop\n      jump(tag_298)\n    tag_299:\n      0x1f\n      add\n      0x20\n      swap1\n      div\n      swap1\n      0x00\n      mstore\n      keccak256(0x00, 0x20)\n      swap1\n      dup2\n      add\n      swap1\n      tag_300\n      swap2\n      swap1\n      tag_293\n      jump\t// in\n    tag_300:\n    tag_298:\n      pop\n      jump\t// out\n    tag_293:\n    tag_301:\n      dup1\n      dup3\n      gt\n      iszero\n      tag_302\n      jumpi\n      0x00\n      dup2\n      0x00\n      swap1\n      sstore\n      pop\n      0x01\n      add\n      jump(tag_301)\n    tag_302:\n      pop\n      swap1\n      jump\t// out\n        /* \"#utility.yul\":7:82   */\n    tag_303:\n        /* \"#utility.yul\":40:46   */\n      0x00\n        /* \"#utility.yul\":73:75   */\n      0x40\n        /* \"#utility.yul\":67:76   */\n      mload\n        /* \"#utility.yul\":57:76   */\n      swap1\n      pop\n        /* \"#utility.yul\":7:82   */\n      swap1\n      jump\t// out\n        /* \"#utility.yul\":88:205   */\n    tag_304:\n        /* \"#utility.yul\":197:198   */\n      0x00\n        /* \"#utility.yul\":194:195   */\n      dup1\n        /* \"#utility.yul\":187:199   */\n      revert\n        /* \"#utility.yul\":211:328   */\n    tag_305:\n        /* \"#utility.yul\":320:321   */\n      0x00\n        /* \"#utility.yul\":317:318   */\n      dup1\n        /* \"#utility.yul\":310:322   */\n      revert\n        /* \"#utility.yul\":334:484   */\n    tag_306:\n        /* \"#utility.yul\":371:378   */\n      0x00\n        /* \"#utility.yul\":411:477   */\n      0xffffffffffffffffffffffffffffffffffffffff000000000000000000000000\n        /* \"#utility.yul\":404:409   */\n      dup3\n        /* \"#utility.yul\":400:478   */\n      and\n        /* \"#utility.yul\":389:478   */\n      swap1\n      pop\n        /* \"#utility.yul\":334:484   */\n      swap2\n      swap1\n      pop\n      jump\t// out\n        /* \"#utility.yul\":490:612   */\n    tag_307:\n        /* \"#utility.yul\":563:587   */\n      tag_394\n        /* \"#utility.yul\":581:586   */\n      dup2\n        /* \"#utility.yul\":563:587   */\n      tag_306\n      jump\t// in\n    tag_394:\n        /* \"#utility.yul\":556:561   */\n      dup2\n        /* \"#utility.yul\":553:588   */\n      eq\n        /* \"#utility.yul\":543:606   */\n      tag_395\n      jumpi\n        /* \"#utility.yul\":602:603   */\n      0x00\n        /* \"#utility.yul\":599:600   */\n      dup1\n        /* \"#utility.yul\":592:604   */\n      revert\n        /* \"#utility.yul\":543:606   */\n    tag_395:\n        /* \"#utility.yul\":490:612   */\n      pop\n      jump\t// out\n        /* \"#utility.yul\":618:757   */\n    tag_308:\n        /* \"#utility.yul\":664:669   */\n      0x00\n        /* \"#utility.yul\":702:708   */\n      dup2\n        /* \"#utility.yul\":689:709   */\n      calldataload\n        /* \"#utility.yul\":680:709   */\n      swap1\n      pop\n        /* \"#utility.yul\":718:751   */\n      tag_397\n        /* \"#utility.yul\":745:750   */\n      dup2\n        /* \"#utility.yul\":718:751   */\n      tag_307\n      jump\t// in\n    tag_397:\n        /* \"#utility.yul\":618:757   */\n      swap3\n      swap2\n      pop\n      pop\n      jump\t// out\n        /* \"#utility.yul\":763:880   */\n    tag_309:\n        /* \"#utility.yul\":872:873   */\n      0x00\n        /* \"#utility.yul\":869:870   */\n      dup1\n        /* \"#utility.yul\":862:874   */\n      revert\n        /* \"#utility.yul\":886:988   */\n    tag_310:\n        /* \"#utility.yul\":927:933   */\n      0x00\n        /* \"#utility.yul\":978:980   */\n      0x1f\n        /* \"#utility.yul\":974:981   */\n      not\n        /* \"#utility.yul\":969:971   */\n      0x1f\n        /* \"#utility.yul\":962:967   */\n      dup4\n        /* \"#utility.yul\":958:972   */\n      add\n        /* \"#utility.yul\":954:982   */\n      and\n        /* \"#utility.yul\":944:982   */\n      swap1\n      pop\n        /* \"#utility.yul\":886:988   */\n      swap2\n      swap1\n      pop\n      jump\t// out\n        /* \"#utility.yul\":994:1174   */\n    tag_101:\n        /* \"#utility.yul\":1042:1119   */\n      0x4e487b7100000000000000000000000000000000000000000000000000000000\n        /* \"#utility.yul\":1039:1040   */\n      0x00\n        /* \"#utility.yul\":1032:1120   */\n      mstore\n        /* \"#utility.yul\":1139:1143   */\n      0x41\n        /* \"#utility.yul\":1136:1137   */\n      0x04\n        /* \"#utility.yul\":1129:1144   */\n      mstore\n        /* \"#utility.yul\":1163:1167   */\n      0x24\n        /* \"#utility.yul\":1160:1161   */\n      0x00\n        /* \"#utility.yul\":1153:1168   */\n      revert\n        /* \"#utility.yul\":1180:1461   */\n    tag_311:\n        /* \"#utility.yul\":1263:1290   */\n      tag_402\n        /* \"#utility.yul\":1285:1289   */\n      dup3\n        /* \"#utility.yul\":1263:1290   */\n      tag_310\n      jump\t// in\n    tag_402:\n        /* \"#utility.yul\":1255:1261   */\n      dup2\n        /* \"#utility.yul\":1251:1291   */\n      add\n        /* \"#utility.yul\":1393:1399   */\n      dup2\n        /* \"#utility.yul\":1381:1391   */\n      dup2\n        /* \"#utility.yul\":1378:1400   */\n      lt\n        /* \"#utility.yul\":1357:1375   */\n      0xffffffffffffffff\n        /* \"#utility.yul\":1345:1355   */\n      dup3\n        /* \"#utility.yul\":1342:1376   */\n      gt\n        /* \"#utility.yul\":1339:1401   */\n      or\n        /* \"#utility.yul\":1336:1424   */\n      iszero\n      tag_403\n      jumpi\n        /* \"#utility.yul\":1404:1422   */\n      tag_404\n      tag_101\n      jump\t// in\n    tag_404:\n        /* \"#utility.yul\":1336:1424   */\n    tag_403:\n        /* \"#utility.yul\":1444:1454   */\n      dup1\n        /* \"#utility.yul\":1440:1442   */\n      0x40\n        /* \"#utility.yul\":1433:1455   */\n      mstore\n        /* \"#utility.yul\":1223:1461   */\n      pop\n        /* \"#utility.yul\":1180:1461   */\n      pop\n      pop\n      jump\t// out\n        /* \"#utility.yul\":1467:1596   */\n    tag_312:\n        /* \"#utility.yul\":1501:1507   */\n      0x00\n        /* \"#utility.yul\":1528:1548   */\n      tag_406\n      tag_303\n      jump\t// in\n    tag_406:\n        /* \"#utility.yul\":1518:1548   */\n      swap1\n      pop\n        /* \"#utility.yul\":1557:1590   */\n      tag_407\n        /* \"#utility.yul\":1585:1589   */\n      dup3\n        /* \"#utility.yul\":1577:1583   */\n      dup3\n        /* \"#utility.yul\":1557:1590   */\n      tag_311\n      jump\t// in\n    tag_407:\n        /* \"#utility.yul\":1467:1596   */\n      swap2\n      swap1\n      pop\n      jump\t// out\n        /* \"#utility.yul\":1602:1913   */\n    tag_313:\n        /* \"#utility.yul\":1679:1683   */\n      0x00\n        /* \"#utility.yul\":1769:1787   */\n      0xffffffffffffffff\n        /* \"#utility.yul\":1761:1767   */\n      dup3\n        /* \"#utility.yul\":1758:1788   */\n      gt\n        /* \"#utility.yul\":1755:1811   */\n      iszero\n      tag_409\n      jumpi\n        /* \"#utility.yul\":1791:1809   */\n      tag_410\n      tag_101\n      jump\t// in\n    tag_410:\n        /* \"#utility.yul\":1755:1811   */\n    tag_409:\n        /* \"#utility.yul\":1841:1845   */\n      0x20\n        /* \"#utility.yul\":1833:1839   */\n      dup3\n        /* \"#utility.yul\":1829:1846   */\n      mul\n        /* \"#utility.yul\":1821:1846   */\n      swap1\n      pop\n        /* \"#utility.yul\":1901:1905   */\n      0x20\n        /* \"#utility.yul\":1895:1899   */\n      dup2\n        /* \"#utility.yul\":1891:1906   */\n      add\n        /* \"#utility.yul\":1883:1906   */\n      swap1\n      pop\n        /* \"#utility.yul\":1602:1913   */\n      swap2\n      swap1\n      pop\n      jump\t// out\n        /* \"#utility.yul\":1919:2036   */\n    tag_314:\n        /* \"#utility.yul\":2028:2029   */\n      0x00\n        /* \"#utility.yul\":2025:2026   */\n      dup1\n        /* \"#utility.yul\":2018:2030   */\n      revert\n        /* \"#utility.yul\":2042:2119   */\n    tag_315:\n        /* \"#utility.yul\":2079:2086   */\n      0x00\n        /* \"#utility.yul\":2108:2113   */\n      dup2\n        /* \"#utility.yul\":2097:2113   */\n      swap1\n      pop\n        /* \"#utility.yul\":2042:2119   */\n      swap2\n      swap1\n      pop\n      jump\t// out\n        /* \"#utility.yul\":2125:2247   */\n    tag_316:\n        /* \"#utility.yul\":2198:2222   */\n      tag_414\n        /* \"#utility.yul\":2216:2221   */\n      dup2\n        /* \"#utility.yul\":2198:2222   */\n      tag_315\n      jump\t// in\n    tag_414:\n        /* \"#utility.yul\":2191:2196   */\n      dup2\n        /* \"#utility.yul\":2188:2223   */\n      eq\n        /* \"#utility.yul\":2178:2241   */\n      tag_415\n      jumpi\n        /* \"#utility.yul\":2237:2238   */\n      0x00\n        /* \"#utility.yul\":2234:2235   */\n      dup1\n        /* \"#utility.yul\":2227:2239   */\n      revert\n        /* \"#utility.yul\":2178:2241   */\n    tag_415:\n        /* \"#utility.yul\":2125:2247   */\n      pop\n      jump\t// out\n        /* \"#utility.yul\":2253:2392   */\n    tag_317:\n        /* \"#utility.yul\":2299:2304   */\n      0x00\n        /* \"#utility.yul\":2337:2343   */\n      dup2\n        /* \"#utility.yul\":2324:2344   */\n      calldataload\n        /* \"#utility.yul\":2315:2344   */\n      swap1\n      pop\n        /* \"#utility.yul\":2353:2386   */\n      tag_417\n        /* \"#utility.yul\":2380:2385   */\n      dup2\n        /* \"#utility.yul\":2353:2386   */\n      tag_316\n      jump\t// in\n    tag_417:\n        /* \"#utility.yul\":2253:2392   */\n      swap3\n      swap2\n      pop\n      pop\n      jump\t// out\n        /* \"#utility.yul\":2415:3125   */\n    tag_318:\n        /* \"#utility.yul\":2511:2516   */\n      0x00\n        /* \"#utility.yul\":2536:2617   */\n      tag_419\n        /* \"#utility.yul\":2552:2616   */\n      tag_420\n        /* \"#utility.yul\":2609:2615   */\n      dup5\n        /* \"#utility.yul\":2552:2616   */\n      tag_313\n      jump\t// in\n    tag_420:\n        /* \"#utility.yul\":2536:2617   */\n      tag_312\n      jump\t// in\n    tag_419:\n        /* \"#utility.yul\":2527:2617   */\n      swap1\n      pop\n        /* \"#utility.yul\":2637:2642   */\n      dup1\n        /* \"#utility.yul\":2666:2672   */\n      dup4\n        /* \"#utility.yul\":2659:2664   */\n      dup3\n        /* \"#utility.yul\":2652:2673   */\n      mstore\n        /* \"#utility.yul\":2700:2704   */\n      0x20\n        /* \"#utility.yul\":2693:2698   */\n      dup3\n        /* \"#utility.yul\":2689:2705   */\n      add\n        /* \"#utility.yul\":2682:2705   */\n      swap1\n      pop\n        /* \"#utility.yul\":2753:2757   */\n      0x20\n        /* \"#utility.yul\":2745:2751   */\n      dup5\n        /* \"#utility.yul\":2741:2758   */\n      mul\n        /* \"#utility.yul\":2733:2739   */\n      dup4\n        /* \"#utility.yul\":2729:2759   */\n      add\n        /* \"#utility.yul\":2782:2785   */\n      dup6\n        /* \"#utility.yul\":2774:2780   */\n      dup2\n        /* \"#utility.yul\":2771:2786   */\n      gt\n        /* \"#utility.yul\":2768:2890   */\n      iszero\n      tag_421\n      jumpi\n        /* \"#utility.yul\":2801:2880   */\n      tag_422\n      tag_314\n      jump\t// in\n    tag_422:\n        /* \"#utility.yul\":2768:2890   */\n    tag_421:\n        /* \"#utility.yul\":2916:2922   */\n      dup4\n        /* \"#utility.yul\":2899:3119   */\n    tag_423:\n        /* \"#utility.yul\":2933:2939   */\n      dup2\n        /* \"#utility.yul\":2928:2931   */\n      dup2\n        /* \"#utility.yul\":2925:2940   */\n      lt\n        /* \"#utility.yul\":2899:3119   */\n      iszero\n      tag_425\n      jumpi\n        /* \"#utility.yul\":3008:3011   */\n      dup1\n        /* \"#utility.yul\":3037:3074   */\n      tag_426\n        /* \"#utility.yul\":3070:3073   */\n      dup9\n        /* \"#utility.yul\":3058:3068   */\n      dup3\n        /* \"#utility.yul\":3037:3074   */\n      tag_317\n      jump\t// in\n    tag_426:\n        /* \"#utility.yul\":3032:3035   */\n      dup5\n        /* \"#utility.yul\":3025:3075   */\n      mstore\n        /* \"#utility.yul\":3104:3108   */\n      0x20\n        /* \"#utility.yul\":3099:3102   */\n      dup5\n        /* \"#utility.yul\":3095:3109   */\n      add\n        /* \"#utility.yul\":3088:3109   */\n      swap4\n      pop\n        /* \"#utility.yul\":2975:3119   */\n      pop\n        /* \"#utility.yul\":2959:2963   */\n      0x20\n        /* \"#utility.yul\":2954:2957   */\n      dup2\n        /* \"#utility.yul\":2950:2964   */\n      add\n        /* \"#utility.yul\":2943:2964   */\n      swap1\n      pop\n        /* \"#utility.yul\":2899:3119   */\n      jump(tag_423)\n    tag_425:\n        /* \"#utility.yul\":2903:2924   */\n      pop\n        /* \"#utility.yul\":2517:3125   */\n      pop\n      pop\n        /* \"#utility.yul\":2415:3125   */\n      swap4\n      swap3\n      pop\n      pop\n      pop\n      jump\t// out\n        /* \"#utility.yul\":3148:3518   */\n    tag_319:\n        /* \"#utility.yul\":3219:3224   */\n      0x00\n        /* \"#utility.yul\":3268:3271   */\n      dup3\n        /* \"#utility.yul\":3261:3265   */\n      0x1f\n        /* \"#utility.yul\":3253:3259   */\n      dup4\n        /* \"#utility.yul\":3249:3266   */\n      add\n        /* \"#utility.yul\":3245:3272   */\n      slt\n        /* \"#utility.yul\":3235:3357   */\n      tag_428\n      jumpi\n        /* \"#utility.yul\":3276:3355   */\n      tag_429\n      tag_309\n      jump\t// in\n    tag_429:\n        /* \"#utility.yul\":3235:3357   */\n    tag_428:\n        /* \"#utility.yul\":3393:3399   */\n      dup2\n        /* \"#utility.yul\":3380:3400   */\n      calldataload\n        /* \"#utility.yul\":3418:3512   */\n      tag_430\n        /* \"#utility.yul\":3508:3511   */\n      dup5\n        /* \"#utility.yul\":3500:3506   */\n      dup3\n        /* \"#utility.yul\":3493:3497   */\n      0x20\n        /* \"#utility.yul\":3485:3491   */\n      dup7\n        /* \"#utility.yul\":3481:3498   */\n      add\n        /* \"#utility.yul\":3418:3512   */\n      tag_318\n      jump\t// in\n    tag_430:\n        /* \"#utility.yul\":3409:3512   */\n      swap2\n      pop\n        /* \"#utility.yul\":3225:3518   */\n      pop\n        /* \"#utility.yul\":3148:3518   */\n      swap3\n      swap2\n      pop\n      pop\n      jump\t// out\n        /* \"#utility.yul\":3524:4208   */\n    tag_23:\n        /* \"#utility.yul\":3617:3623   */\n      0x00\n        /* \"#utility.yul\":3625:3631   */\n      dup1\n        /* \"#utility.yul\":3674:3676   */\n      0x40\n        /* \"#utility.yul\":3662:3671   */\n      dup4\n        /* \"#utility.yul\":3653:3660   */\n      dup6\n        /* \"#utility.yul\":3649:3672   */\n      sub\n        /* \"#utility.yul\":3645:3677   */\n      slt\n        /* \"#utility.yul\":3642:3761   */\n      iszero\n      tag_432\n      jumpi\n        /* \"#utility.yul\":3680:3759   */\n      tag_433\n      tag_304\n      jump\t// in\n    tag_433:\n        /* \"#utility.yul\":3642:3761   */\n    tag_432:\n        /* \"#utility.yul\":3800:3801   */\n      0x00\n        /* \"#utility.yul\":3825:3878   */\n      tag_434\n        /* \"#utility.yul\":3870:3877   */\n      dup6\n        /* \"#utility.yul\":3861:3867   */\n      dup3\n        /* \"#utility.yul\":3850:3859   */\n      dup7\n        /* \"#utility.yul\":3846:3868   */\n      add\n        /* \"#utility.yul\":3825:3878   */\n      tag_308\n      jump\t// in\n    tag_434:\n        /* \"#utility.yul\":3815:3878   */\n      swap3\n      pop\n        /* \"#utility.yul\":3771:3888   */\n      pop\n        /* \"#utility.yul\":3955:3957   */\n      0x20\n        /* \"#utility.yul\":3944:3953   */\n      dup4\n        /* \"#utility.yul\":3940:3958   */\n      add\n        /* \"#utility.yul\":3927:3959   */\n      calldataload\n        /* \"#utility.yul\":3986:4004   */\n      0xffffffffffffffff\n        /* \"#utility.yul\":3978:3984   */\n      dup2\n        /* \"#utility.yul\":3975:4005   */\n      gt\n        /* \"#utility.yul\":3972:4089   */\n      iszero\n      tag_435\n      jumpi\n        /* \"#utility.yul\":4008:4087   */\n      tag_436\n      tag_305\n      jump\t// in\n    tag_436:\n        /* \"#utility.yul\":3972:4089   */\n    tag_435:\n        /* \"#utility.yul\":4113:4191   */\n      tag_437\n        /* \"#utility.yul\":4183:4190   */\n      dup6\n        /* \"#utility.yul\":4174:4180   */\n      dup3\n        /* \"#utility.yul\":4163:4172   */\n      dup7\n        /* \"#utility.yul\":4159:4181   */\n      add\n        /* \"#utility.yul\":4113:4191   */\n      tag_319\n      jump\t// in\n    tag_437:\n        /* \"#utility.yul\":4103:4191   */\n      swap2\n      pop\n        /* \"#utility.yul\":3898:4201   */\n      pop\n        /* \"#utility.yul\":3524:4208   */\n      swap3\n      pop\n      swap3\n      swap1\n      pop\n      jump\t// out\n        /* \"#utility.yul\":4214:4543   */\n    tag_27:\n        /* \"#utility.yul\":4273:4279   */\n      0x00\n        /* \"#utility.yul\":4322:4324   */\n      0x20\n        /* \"#utility.yul\":4310:4319   */\n      dup3\n        /* \"#utility.yul\":4301:4308   */\n      dup5\n        /* \"#utility.yul\":4297:4320   */\n      sub\n        /* \"#utility.yul\":4293:4325   */\n      slt\n        /* \"#utility.yul\":4290:4409   */\n      iszero\n      tag_439\n      jumpi\n        /* \"#utility.yul\":4328:4407   */\n      tag_440\n      tag_304\n      jump\t// in\n    tag_440:\n        /* \"#utility.yul\":4290:4409   */\n    tag_439:\n        /* \"#utility.yul\":4448:4449   */\n      0x00\n        /* \"#utility.yul\":4473:4526   */\n      tag_441\n        /* \"#utility.yul\":4518:4525   */\n      dup5\n        /* \"#utility.yul\":4509:4515   */\n      dup3\n        /* \"#utility.yul\":4498:4507   */\n      dup6\n        /* \"#utility.yul\":4494:4516   */\n      add\n        /* \"#utility.yul\":4473:4526   */\n      tag_308\n      jump\t// in\n    tag_441:\n        /* \"#utility.yul\":4463:4526   */\n      swap2\n      pop\n        /* \"#utility.yul\":4419:4536   */\n      pop\n        /* \"#utility.yul\":4214:4543   */\n      swap3\n      swap2\n      pop\n      pop\n      jump\t// out\n        /* \"#utility.yul\":4549:4663   */\n    tag_320:\n        /* \"#utility.yul\":4616:4622   */\n      0x00\n        /* \"#utility.yul\":4650:4655   */\n      dup2\n        /* \"#utility.yul\":4644:4656   */\n      mload\n        /* \"#utility.yul\":4634:4656   */\n      swap1\n      pop\n        /* \"#utility.yul\":4549:4663   */\n      swap2\n      swap1\n      pop\n      jump\t// out\n        /* \"#utility.yul\":4669:4853   */\n    tag_321:\n        /* \"#utility.yul\":4768:4779   */\n      0x00\n        /* \"#utility.yul\":4802:4808   */\n      dup3\n        /* \"#utility.yul\":4797:4800   */\n      dup3\n        /* \"#utility.yul\":4790:4809   */\n      mstore\n        /* \"#utility.yul\":4842:4846   */\n      0x20\n        /* \"#utility.yul\":4837:4840   */\n      dup3\n        /* \"#utility.yul\":4833:4847   */\n      add\n        /* \"#utility.yul\":4818:4847   */\n      swap1\n      pop\n        /* \"#utility.yul\":4669:4853   */\n      swap3\n      swap2\n      pop\n      pop\n      jump\t// out\n        /* \"#utility.yul\":4859:4991   */\n    tag_322:\n        /* \"#utility.yul\":4926:4930   */\n      0x00\n        /* \"#utility.yul\":4949:4952   */\n      dup2\n        /* \"#utility.yul\":4941:4952   */\n      swap1\n      pop\n        /* \"#utility.yul\":4979:4983   */\n      0x20\n        /* \"#utility.yul\":4974:4977   */\n      dup3\n        /* \"#utility.yul\":4970:4984   */\n      add\n        /* \"#utility.yul\":4962:4984   */\n      swap1\n      pop\n        /* \"#utility.yul\":4859:4991   */\n      swap2\n      swap1\n      pop\n      jump\t// out\n        /* \"#utility.yul\":4997:5105   */\n    tag_323:\n        /* \"#utility.yul\":5074:5098   */\n      tag_446\n        /* \"#utility.yul\":5092:5097   */\n      dup2\n        /* \"#utility.yul\":5074:5098   */\n      tag_315\n      jump\t// in\n    tag_446:\n        /* \"#utility.yul\":5069:5072   */\n      dup3\n        /* \"#utility.yul\":5062:5099   */\n      mstore\n        /* \"#utility.yul\":4997:5105   */\n      pop\n      pop\n      jump\t// out\n        /* \"#utility.yul\":5111:5290   */\n    tag_324:\n        /* \"#utility.yul\":5180:5190   */\n      0x00\n        /* \"#utility.yul\":5201:5247   */\n      tag_448\n        /* \"#utility.yul\":5243:5246   */\n      dup4\n        /* \"#utility.yul\":5235:5241   */\n      dup4\n        /* \"#utility.yul\":5201:5247   */\n      tag_323\n      jump\t// in\n    tag_448:\n        /* \"#utility.yul\":5279:5283   */\n      0x20\n        /* \"#utility.yul\":5274:5277   */\n      dup4\n        /* \"#utility.yul\":5270:5284   */\n      add\n        /* \"#utility.yul\":5256:5284   */\n      swap1\n      pop\n        /* \"#utility.yul\":5111:5290   */\n      swap3\n      swap2\n      pop\n      pop\n      jump\t// out\n        /* \"#utility.yul\":5296:5409   */\n    tag_325:\n        /* \"#utility.yul\":5366:5370   */\n      0x00\n        /* \"#utility.yul\":5398:5402   */\n      0x20\n        /* \"#utility.yul\":5393:5396   */\n      dup3\n        /* \"#utility.yul\":5389:5403   */\n      add\n        /* \"#utility.yul\":5381:5403   */\n      swap1\n      pop\n        /* \"#utility.yul\":5296:5409   */\n      swap2\n      swap1\n      pop\n      jump\t// out\n        /* \"#utility.yul\":5445:6177   */\n    tag_326:\n        /* \"#utility.yul\":5564:5567   */\n      0x00\n        /* \"#utility.yul\":5593:5647   */\n      tag_451\n        /* \"#utility.yul\":5641:5646   */\n      dup3\n        /* \"#utility.yul\":5593:5647   */\n      tag_320\n      jump\t// in\n    tag_451:\n        /* \"#utility.yul\":5663:5749   */\n      tag_452\n        /* \"#utility.yul\":5742:5748   */\n      dup2\n        /* \"#utility.yul\":5737:5740   */\n      dup6\n        /* \"#utility.yul\":5663:5749   */\n      tag_321\n      jump\t// in\n    tag_452:\n        /* \"#utility.yul\":5656:5749   */\n      swap4\n      pop\n        /* \"#utility.yul\":5773:5829   */\n      tag_453\n        /* \"#utility.yul\":5823:5828   */\n      dup4\n        /* \"#utility.yul\":5773:5829   */\n      tag_322\n      jump\t// in\n    tag_453:\n        /* \"#utility.yul\":5852:5859   */\n      dup1\n        /* \"#utility.yul\":5883:5884   */\n      0x00\n        /* \"#utility.yul\":5868:6152   */\n    tag_454:\n        /* \"#utility.yul\":5893:5899   */\n      dup4\n        /* \"#utility.yul\":5890:5891   */\n      dup2\n        /* \"#utility.yul\":5887:5900   */\n      lt\n        /* \"#utility.yul\":5868:6152   */\n      iszero\n      tag_456\n      jumpi\n        /* \"#utility.yul\":5969:5975   */\n      dup2\n        /* \"#utility.yul\":5963:5976   */\n      mload\n        /* \"#utility.yul\":5996:6059   */\n      tag_457\n        /* \"#utility.yul\":6055:6058   */\n      dup9\n        /* \"#utility.yul\":6040:6053   */\n      dup3\n        /* \"#utility.yul\":5996:6059   */\n      tag_324\n      jump\t// in\n    tag_457:\n        /* \"#utility.yul\":5989:6059   */\n      swap8\n      pop\n        /* \"#utility.yul\":6082:6142   */\n      tag_458\n        /* \"#utility.yul\":6135:6141   */\n      dup4\n        /* \"#utility.yul\":6082:6142   */\n      tag_325\n      jump\t// in\n    tag_458:\n        /* \"#utility.yul\":6072:6142   */\n      swap3\n      pop\n        /* \"#utility.yul\":5928:6152   */\n      pop\n        /* \"#utility.yul\":5915:5916   */\n      0x01\n        /* \"#utility.yul\":5912:5913   */\n      dup2\n        /* \"#utility.yul\":5908:5917   */\n      add\n        /* \"#utility.yul\":5903:5917   */\n      swap1\n      pop\n        /* \"#utility.yul\":5868:6152   */\n      jump(tag_454)\n    tag_456:\n        /* \"#utility.yul\":5872:5886   */\n      pop\n        /* \"#utility.yul\":6168:6171   */\n      dup6\n        /* \"#utility.yul\":6161:6171   */\n      swap4\n      pop\n        /* \"#utility.yul\":5569:6177   */\n      pop\n      pop\n      pop\n        /* \"#utility.yul\":5445:6177   */\n      swap3\n      swap2\n      pop\n      pop\n      jump\t// out\n        /* \"#utility.yul\":6183:6556   */\n    tag_30:\n        /* \"#utility.yul\":6326:6330   */\n      0x00\n        /* \"#utility.yul\":6364:6366   */\n      0x20\n        /* \"#utility.yul\":6353:6362   */\n      dup3\n        /* \"#utility.yul\":6349:6367   */\n      add\n        /* \"#utility.yul\":6341:6367   */\n      swap1\n      pop\n        /* \"#utility.yul\":6413:6422   */\n      dup2\n        /* \"#utility.yul\":6407:6411   */\n      dup2\n        /* \"#utility.yul\":6403:6423   */\n      sub\n        /* \"#utility.yul\":6399:6400   */\n      0x00\n        /* \"#utility.yul\":6388:6397   */\n      dup4\n        /* \"#utility.yul\":6384:6401   */\n      add\n        /* \"#utility.yul\":6377:6424   */\n      mstore\n        /* \"#utility.yul\":6441:6549   */\n      tag_460\n        /* \"#utility.yul\":6544:6548   */\n      dup2\n        /* \"#utility.yul\":6535:6541   */\n      dup5\n        /* \"#utility.yul\":6441:6549   */\n      tag_326\n      jump\t// in\n    tag_460:\n        /* \"#utility.yul\":6433:6549   */\n      swap1\n      pop\n        /* \"#utility.yul\":6183:6556   */\n      swap3\n      swap2\n      pop\n      pop\n      jump\t// out\n        /* \"#utility.yul\":6562:7181   */\n    tag_39:\n        /* \"#utility.yul\":6639:6645   */\n      0x00\n        /* \"#utility.yul\":6647:6653   */\n      dup1\n        /* \"#utility.yul\":6655:6661   */\n      0x00\n        /* \"#utility.yul\":6704:6706   */\n      0x60\n        /* \"#utility.yul\":6692:6701   */\n      dup5\n        /* \"#utility.yul\":6683:6690   */\n      dup7\n        /* \"#utility.yul\":6679:6702   */\n      sub\n        /* \"#utility.yul\":6675:6707   */\n      slt\n        /* \"#utility.yul\":6672:6791   */\n      iszero\n      tag_462\n      jumpi\n        /* \"#utility.yul\":6710:6789   */\n      tag_463\n      tag_304\n      jump\t// in\n    tag_463:\n        /* \"#utility.yul\":6672:6791   */\n    tag_462:\n        /* \"#utility.yul\":6830:6831   */\n      0x00\n        /* \"#utility.yul\":6855:6908   */\n      tag_464\n        /* \"#utility.yul\":6900:6907   */\n      dup7\n        /* \"#utility.yul\":6891:6897   */\n      dup3\n        /* \"#utility.yul\":6880:6889   */\n      dup8\n        /* \"#utility.yul\":6876:6898   */\n      add\n        /* \"#utility.yul\":6855:6908   */\n      tag_317\n      jump\t// in\n    tag_464:\n        /* \"#utility.yul\":6845:6908   */\n      swap4\n      pop\n        /* \"#utility.yul\":6801:6918   */\n      pop\n        /* \"#utility.yul\":6957:6959   */\n      0x20\n        /* \"#utility.yul\":6983:7036   */\n      tag_465\n        /* \"#utility.yul\":7028:7035   */\n      dup7\n        /* \"#utility.yul\":7019:7025   */\n      dup3\n        /* \"#utility.yul\":7008:7017   */\n      dup8\n        /* \"#utility.yul\":7004:7026   */\n      add\n        /* \"#utility.yul\":6983:7036   */\n      tag_317\n      jump\t// in\n    tag_465:\n        /* \"#utility.yul\":6973:7036   */\n      swap3\n      pop\n        /* \"#utility.yul\":6928:7046   */\n      pop\n        /* \"#utility.yul\":7085:7087   */\n      0x40\n        /* \"#utility.yul\":7111:7164   */\n      tag_466\n        /* \"#utility.yul\":7156:7163   */\n      dup7\n        /* \"#utility.yul\":7147:7153   */\n      dup3\n        /* \"#utility.yul\":7136:7145   */\n      dup8\n        /* \"#utility.yul\":7132:7154   */\n      add\n        /* \"#utility.yul\":7111:7164   */\n      tag_317\n      jump\t// in\n    tag_466:\n        /* \"#utility.yul\":7101:7164   */\n      swap2\n      pop\n        /* \"#utility.yul\":7056:7174   */\n      pop\n        /* \"#utility.yul\":6562:7181   */\n      swap3\n      pop\n      swap3\n      pop\n      swap3\n      jump\t// out\n        /* \"#utility.yul\":7187:7313   */\n    tag_327:\n        /* \"#utility.yul\":7224:7231   */\n      0x00\n        /* \"#utility.yul\":7264:7306   */\n      0xffffffffffffffffffffffffffffffffffffffff\n        /* \"#utility.yul\":7257:7262   */\n      dup3\n        /* \"#utility.yul\":7253:7307   */\n      and\n        /* \"#utility.yul\":7242:7307   */\n      swap1\n      pop\n        /* \"#utility.yul\":7187:7313   */\n      swap2\n      swap1\n      pop\n      jump\t// out\n        /* \"#utility.yul\":7319:7415   */\n    tag_328:\n        /* \"#utility.yul\":7356:7363   */\n      0x00\n        /* \"#utility.yul\":7385:7409   */\n      tag_469\n        /* \"#utility.yul\":7403:7408   */\n      dup3\n        /* \"#utility.yul\":7385:7409   */\n      tag_327\n      jump\t// in\n    tag_469:\n        /* \"#utility.yul\":7374:7409   */\n      swap1\n      pop\n        /* \"#utility.yul\":7319:7415   */\n      swap2\n      swap1\n      pop\n      jump\t// out\n        /* \"#utility.yul\":7421:7543   */\n    tag_329:\n        /* \"#utility.yul\":7494:7518   */\n      tag_471\n        /* \"#utility.yul\":7512:7517   */\n      dup2\n        /* \"#utility.yul\":7494:7518   */\n      tag_328\n      jump\t// in\n    tag_471:\n        /* \"#utility.yul\":7487:7492   */\n      dup2\n        /* \"#utility.yul\":7484:7519   */\n      eq\n        /* \"#utility.yul\":7474:7537   */\n      tag_472\n      jumpi\n        /* \"#utility.yul\":7533:7534   */\n      0x00\n        /* \"#utility.yul\":7530:7531   */\n      dup1\n        /* \"#utility.yul\":7523:7535   */\n      revert\n        /* \"#utility.yul\":7474:7537   */\n    tag_472:\n        /* \"#utility.yul\":7421:7543   */\n      pop\n      jump\t// out\n        /* \"#utility.yul\":7549:7688   */\n    tag_330:\n        /* \"#utility.yul\":7595:7600   */\n      0x00\n        /* \"#utility.yul\":7633:7639   */\n      dup2\n        /* \"#utility.yul\":7620:7640   */\n      calldataload\n        /* \"#utility.yul\":7611:7640   */\n      swap1\n      pop\n        /* \"#utility.yul\":7649:7682   */\n      tag_474\n        /* \"#utility.yul\":7676:7681   */\n      dup2\n        /* \"#utility.yul\":7649:7682   */\n      tag_329\n      jump\t// in\n    tag_474:\n        /* \"#utility.yul\":7549:7688   */\n      swap3\n      swap2\n      pop\n      pop\n      jump\t// out\n        /* \"#utility.yul\":7694:8023   */\n    tag_45:\n        /* \"#utility.yul\":7753:7759   */\n      0x00\n        /* \"#utility.yul\":7802:7804   */\n      0x20\n        /* \"#utility.yul\":7790:7799   */\n      dup3\n        /* \"#utility.yul\":7781:7788   */\n      dup5\n        /* \"#utility.yul\":7777:7800   */\n      sub\n        /* \"#utility.yul\":7773:7805   */\n      slt\n        /* \"#utility.yul\":7770:7889   */\n      iszero\n      tag_476\n      jumpi\n        /* \"#utility.yul\":7808:7887   */\n      tag_477\n      tag_304\n      jump\t// in\n    tag_477:\n        /* \"#utility.yul\":7770:7889   */\n    tag_476:\n        /* \"#utility.yul\":7928:7929   */\n      0x00\n        /* \"#utility.yul\":7953:8006   */\n      tag_478\n        /* \"#utility.yul\":7998:8005   */\n      dup5\n        /* \"#utility.yul\":7989:7995   */\n      dup3\n        /* \"#utility.yul\":7978:7987   */\n      dup6\n        /* \"#utility.yul\":7974:7996   */\n      add\n        /* \"#utility.yul\":7953:8006   */\n      tag_330\n      jump\t// in\n    tag_478:\n        /* \"#utility.yul\":7943:8006   */\n      swap2\n      pop\n        /* \"#utility.yul\":7899:8016   */\n      pop\n        /* \"#utility.yul\":7694:8023   */\n      swap3\n      swap2\n      pop\n      pop\n      jump\t// out\n        /* \"#utility.yul\":8029:8147   */\n    tag_331:\n        /* \"#utility.yul\":8116:8140   */\n      tag_480\n        /* \"#utility.yul\":8134:8139   */\n      dup2\n        /* \"#utility.yul\":8116:8140   */\n      tag_315\n      jump\t// in\n    tag_480:\n        /* \"#utility.yul\":8111:8114   */\n      dup3\n        /* \"#utility.yul\":8104:8141   */\n      mstore\n        /* \"#utility.yul\":8029:8147   */\n      pop\n      pop\n      jump\t// out\n        /* \"#utility.yul\":8153:8375   */\n    tag_48:\n        /* \"#utility.yul\":8246:8250   */\n      0x00\n        /* \"#utility.yul\":8284:8286   */\n      0x20\n        /* \"#utility.yul\":8273:8282   */\n      dup3\n        /* \"#utility.yul\":8269:8287   */\n      add\n        /* \"#utility.yul\":8261:8287   */\n      swap1\n      pop\n        /* \"#utility.yul\":8297:8368   */\n      tag_482\n        /* \"#utility.yul\":8365:8366   */\n      0x00\n        /* \"#utility.yul\":8354:8363   */\n      dup4\n        /* \"#utility.yul\":8350:8367   */\n      add\n        /* \"#utility.yul\":8341:8347   */\n      dup5\n        /* \"#utility.yul\":8297:8368   */\n      tag_331\n      jump\t// in\n    tag_482:\n        /* \"#utility.yul\":8153:8375   */\n      swap3\n      swap2\n      pop\n      pop\n      jump\t// out\n        /* \"#utility.yul\":8381:8855   */\n    tag_51:\n        /* \"#utility.yul\":8449:8455   */\n      0x00\n        /* \"#utility.yul\":8457:8463   */\n      dup1\n        /* \"#utility.yul\":8506:8508   */\n      0x40\n        /* \"#utility.yul\":8494:8503   */\n      dup4\n        /* \"#utility.yul\":8485:8492   */\n      dup6\n        /* \"#utility.yul\":8481:8504   */\n      sub\n        /* \"#utility.yul\":8477:8509   */\n      slt\n        /* \"#utility.yul\":8474:8593   */\n      iszero\n      tag_484\n      jumpi\n        /* \"#utility.yul\":8512:8591   */\n      tag_485\n      tag_304\n      jump\t// in\n    tag_485:\n        /* \"#utility.yul\":8474:8593   */\n    tag_484:\n        /* \"#utility.yul\":8632:8633   */\n      0x00\n        /* \"#utility.yul\":8657:8710   */\n      tag_486\n        /* \"#utility.yul\":8702:8709   */\n      dup6\n        /* \"#utility.yul\":8693:8699   */\n      dup3\n        /* \"#utility.yul\":8682:8691   */\n      dup7\n        /* \"#utility.yul\":8678:8700   */\n      add\n        /* \"#utility.yul\":8657:8710   */\n      tag_308\n      jump\t// in\n    tag_486:\n        /* \"#utility.yul\":8647:8710   */\n      swap3\n      pop\n        /* \"#utility.yul\":8603:8720   */\n      pop\n        /* \"#utility.yul\":8759:8761   */\n      0x20\n        /* \"#utility.yul\":8785:8838   */\n      tag_487\n        /* \"#utility.yul\":8830:8837   */\n      dup6\n        /* \"#utility.yul\":8821:8827   */\n      dup3\n        /* \"#utility.yul\":8810:8819   */\n      dup7\n        /* \"#utility.yul\":8806:8828   */\n      add\n        /* \"#utility.yul\":8785:8838   */\n      tag_330\n      jump\t// in\n    tag_487:\n        /* \"#utility.yul\":8775:8838   */\n      swap2\n      pop\n        /* \"#utility.yul\":8730:8848   */\n      pop\n        /* \"#utility.yul\":8381:8855   */\n      swap3\n      pop\n      swap3\n      swap1\n      pop\n      jump\t// out\n        /* \"#utility.yul\":8861:8975   */\n    tag_332:\n        /* \"#utility.yul\":8928:8934   */\n      0x00\n        /* \"#utility.yul\":8962:8967   */\n      dup2\n        /* \"#utility.yul\":8956:8968   */\n      mload\n        /* \"#utility.yul\":8946:8968   */\n      swap1\n      pop\n        /* \"#utility.yul\":8861:8975   */\n      swap2\n      swap1\n      pop\n      jump\t// out\n        /* \"#utility.yul\":8981:9165   */\n    tag_333:\n        /* \"#utility.yul\":9080:9091   */\n      0x00\n        /* \"#utility.yul\":9114:9120   */\n      dup3\n        /* \"#utility.yul\":9109:9112   */\n      dup3\n        /* \"#utility.yul\":9102:9121   */\n      mstore\n        /* \"#utility.yul\":9154:9158   */\n      0x20\n        /* \"#utility.yul\":9149:9152   */\n      dup3\n        /* \"#utility.yul\":9145:9159   */\n      add\n        /* \"#utility.yul\":9130:9159   */\n      swap1\n      pop\n        /* \"#utility.yul\":8981:9165   */\n      swap3\n      swap2\n      pop\n      pop\n      jump\t// out\n        /* \"#utility.yul\":9171:9303   */\n    tag_334:\n        /* \"#utility.yul\":9238:9242   */\n      0x00\n        /* \"#utility.yul\":9261:9264   */\n      dup2\n        /* \"#utility.yul\":9253:9264   */\n      swap1\n      pop\n        /* \"#utility.yul\":9291:9295   */\n      0x20\n        /* \"#utility.yul\":9286:9289   */\n      dup3\n        /* \"#utility.yul\":9282:9296   */\n      add\n        /* \"#utility.yul\":9274:9296   */\n      swap1\n      pop\n        /* \"#utility.yul\":9171:9303   */\n      swap2\n      swap1\n      pop\n      jump\t// out\n        /* \"#utility.yul\":9309:9417   */\n    tag_335:\n        /* \"#utility.yul\":9386:9410   */\n      tag_492\n        /* \"#utility.yul\":9404:9409   */\n      dup2\n        /* \"#utility.yul\":9386:9410   */\n      tag_306\n      jump\t// in\n    tag_492:\n        /* \"#utility.yul\":9381:9384   */\n      dup3\n        /* \"#utility.yul\":9374:9411   */\n      mstore\n        /* \"#utility.yul\":9309:9417   */\n      pop\n      pop\n      jump\t// out\n        /* \"#utility.yul\":9423:9602   */\n    tag_336:\n        /* \"#utility.yul\":9492:9502   */\n      0x00\n        /* \"#utility.yul\":9513:9559   */\n      tag_494\n        /* \"#utility.yul\":9555:9558   */\n      dup4\n        /* \"#utility.yul\":9547:9553   */\n      dup4\n        /* \"#utility.yul\":9513:9559   */\n      tag_335\n      jump\t// in\n    tag_494:\n        /* \"#utility.yul\":9591:9595   */\n      0x20\n        /* \"#utility.yul\":9586:9589   */\n      dup4\n        /* \"#utility.yul\":9582:9596   */\n      add\n        /* \"#utility.yul\":9568:9596   */\n      swap1\n      pop\n        /* \"#utility.yul\":9423:9602   */\n      swap3\n      swap2\n      pop\n      pop\n      jump\t// out\n        /* \"#utility.yul\":9608:9721   */\n    tag_337:\n        /* \"#utility.yul\":9678:9682   */\n      0x00\n        /* \"#utility.yul\":9710:9714   */\n      0x20\n        /* \"#utility.yul\":9705:9708   */\n      dup3\n        /* \"#utility.yul\":9701:9715   */\n      add\n        /* \"#utility.yul\":9693:9715   */\n      swap1\n      pop\n        /* \"#utility.yul\":9608:9721   */\n      swap2\n      swap1\n      pop\n      jump\t// out\n        /* \"#utility.yul\":9757:10489   */\n    tag_338:\n        /* \"#utility.yul\":9876:9879   */\n      0x00\n        /* \"#utility.yul\":9905:9959   */\n      tag_497\n        /* \"#utility.yul\":9953:9958   */\n      dup3\n        /* \"#utility.yul\":9905:9959   */\n      tag_332\n      jump\t// in\n    tag_497:\n        /* \"#utility.yul\":9975:10061   */\n      tag_498\n        /* \"#utility.yul\":10054:10060   */\n      dup2\n        /* \"#utility.yul\":10049:10052   */\n      dup6\n        /* \"#utility.yul\":9975:10061   */\n      tag_333\n      jump\t// in\n    tag_498:\n        /* \"#utility.yul\":9968:10061   */\n      swap4\n      pop\n        /* \"#utility.yul\":10085:10141   */\n      tag_499\n        /* \"#utility.yul\":10135:10140   */\n      dup4\n        /* \"#utility.yul\":10085:10141   */\n      tag_334\n      jump\t// in\n    tag_499:\n        /* \"#utility.yul\":10164:10171   */\n      dup1\n        /* \"#utility.yul\":10195:10196   */\n      0x00\n        /* \"#utility.yul\":10180:10464   */\n    tag_500:\n        /* \"#utility.yul\":10205:10211   */\n      dup4\n        /* \"#utility.yul\":10202:10203   */\n      dup2\n        /* \"#utility.yul\":10199:10212   */\n      lt\n        /* \"#utility.yul\":10180:10464   */\n      iszero\n      tag_502\n      jumpi\n        /* \"#utility.yul\":10281:10287   */\n      dup2\n        /* \"#utility.yul\":10275:10288   */\n      mload\n        /* \"#utility.yul\":10308:10371   */\n      tag_503\n        /* \"#utility.yul\":10367:10370   */\n      dup9\n        /* \"#utility.yul\":10352:10365   */\n      dup3\n        /* \"#utility.yul\":10308:10371   */\n      tag_336\n      jump\t// in\n    tag_503:\n        /* \"#utility.yul\":10301:10371   */\n      swap8\n      pop\n        /* \"#utility.yul\":10394:10454   */\n      tag_504\n        /* \"#utility.yul\":10447:10453   */\n      dup4\n        /* \"#utility.yul\":10394:10454   */\n      tag_337\n      jump\t// in\n    tag_504:\n        /* \"#utility.yul\":10384:10454   */\n      swap3\n      pop\n        /* \"#utility.yul\":10240:10464   */\n      pop\n        /* \"#utility.yul\":10227:10228   */\n      0x01\n        /* \"#utility.yul\":10224:10225   */\n      dup2\n        /* \"#utility.yul\":10220:10229   */\n      add\n        /* \"#utility.yul\":10215:10229   */\n      swap1\n      pop\n        /* \"#utility.yul\":10180:10464   */\n      jump(tag_500)\n    tag_502:\n        /* \"#utility.yul\":10184:10198   */\n      pop\n        /* \"#utility.yul\":10480:10483   */\n      dup6\n        /* \"#utility.yul\":10473:10483   */\n      swap4\n      pop\n        /* \"#utility.yul\":9881:10489   */\n      pop\n      pop\n      pop\n        /* \"#utility.yul\":9757:10489   */\n      swap3\n      swap2\n      pop\n      pop\n      jump\t// out\n        /* \"#utility.yul\":10495:10868   */\n    tag_57:\n        /* \"#utility.yul\":10638:10642   */\n      0x00\n        /* \"#utility.yul\":10676:10678   */\n      0x20\n        /* \"#utility.yul\":10665:10674   */\n      dup3\n        /* \"#utility.yul\":10661:10679   */\n      add\n        /* \"#utility.yul\":10653:10679   */\n      swap1\n      pop\n        /* \"#utility.yul\":10725:10734   */\n      dup2\n        /* \"#utility.yul\":10719:10723   */\n      dup2\n        /* \"#utility.yul\":10715:10735   */\n      sub\n        /* \"#utility.yul\":10711:10712   */\n      0x00\n        /* \"#utility.yul\":10700:10709   */\n      dup4\n        /* \"#utility.yul\":10696:10713   */\n      add\n        /* \"#utility.yul\":10689:10736   */\n      mstore\n        /* \"#utility.yul\":10753:10861   */\n      tag_506\n        /* \"#utility.yul\":10856:10860   */\n      dup2\n        /* \"#utility.yul\":10847:10853   */\n      dup5\n        /* \"#utility.yul\":10753:10861   */\n      tag_338\n      jump\t// in\n    tag_506:\n        /* \"#utility.yul\":10745:10861   */\n      swap1\n      pop\n        /* \"#utility.yul\":10495:10868   */\n      swap3\n      swap2\n      pop\n      pop\n      jump\t// out\n        /* \"#utility.yul\":10874:10992   */\n    tag_339:\n        /* \"#utility.yul\":10961:10985   */\n      tag_508\n        /* \"#utility.yul\":10979:10984   */\n      dup2\n        /* \"#utility.yul\":10961:10985   */\n      tag_328\n      jump\t// in\n    tag_508:\n        /* \"#utility.yul\":10956:10959   */\n      dup3\n        /* \"#utility.yul\":10949:10986   */\n      mstore\n        /* \"#utility.yul\":10874:10992   */\n      pop\n      pop\n      jump\t// out\n        /* \"#utility.yul\":10998:11220   */\n    tag_61:\n        /* \"#utility.yul\":11091:11095   */\n      0x00\n        /* \"#utility.yul\":11129:11131   */\n      0x20\n        /* \"#utility.yul\":11118:11127   */\n      dup3\n        /* \"#utility.yul\":11114:11132   */\n      add\n        /* \"#utility.yul\":11106:11132   */\n      swap1\n      pop\n        /* \"#utility.yul\":11142:11213   */\n      tag_510\n        /* \"#utility.yul\":11210:11211   */\n      0x00\n        /* \"#utility.yul\":11199:11208   */\n      dup4\n        /* \"#utility.yul\":11195:11212   */\n      add\n        /* \"#utility.yul\":11186:11192   */\n      dup5\n        /* \"#utility.yul\":11142:11213   */\n      tag_339\n      jump\t// in\n    tag_510:\n        /* \"#utility.yul\":10998:11220   */\n      swap3\n      swap2\n      pop\n      pop\n      jump\t// out\n        /* \"#utility.yul\":11226:11343   */\n    tag_340:\n        /* \"#utility.yul\":11335:11336   */\n      0x00\n        /* \"#utility.yul\":11332:11333   */\n      dup1\n        /* \"#utility.yul\":11325:11337   */\n      revert\n        /* \"#utility.yul\":11349:11657   */\n    tag_341:\n        /* \"#utility.yul\":11411:11415   */\n      0x00\n        /* \"#utility.yul\":11501:11519   */\n      0xffffffffffffffff\n        /* \"#utility.yul\":11493:11499   */\n      dup3\n        /* \"#utility.yul\":11490:11520   */\n      gt\n        /* \"#utility.yul\":11487:11543   */\n      iszero\n      tag_513\n      jumpi\n        /* \"#utility.yul\":11523:11541   */\n      tag_514\n      tag_101\n      jump\t// in\n    tag_514:\n        /* \"#utility.yul\":11487:11543   */\n    tag_513:\n        /* \"#utility.yul\":11561:11590   */\n      tag_515\n        /* \"#utility.yul\":11583:11589   */\n      dup3\n        /* \"#utility.yul\":11561:11590   */\n      tag_310\n      jump\t// in\n    tag_515:\n        /* \"#utility.yul\":11553:11590   */\n      swap1\n      pop\n        /* \"#utility.yul\":11645:11649   */\n      0x20\n        /* \"#utility.yul\":11639:11643   */\n      dup2\n        /* \"#utility.yul\":11635:11650   */\n      add\n        /* \"#utility.yul\":11627:11650   */\n      swap1\n      pop\n        /* \"#utility.yul\":11349:11657   */\n      swap2\n      swap1\n      pop\n      jump\t// out\n        /* \"#utility.yul\":11663:11809   */\n    tag_342:\n        /* \"#utility.yul\":11760:11766   */\n      dup3\n        /* \"#utility.yul\":11755:11758   */\n      dup2\n        /* \"#utility.yul\":11750:11753   */\n      dup4\n        /* \"#utility.yul\":11737:11767   */\n      calldatacopy\n        /* \"#utility.yul\":11801:11802   */\n      0x00\n        /* \"#utility.yul\":11792:11798   */\n      dup4\n        /* \"#utility.yul\":11787:11790   */\n      dup4\n        /* \"#utility.yul\":11783:11799   */\n      add\n        /* \"#utility.yul\":11776:11803   */\n      mstore\n        /* \"#utility.yul\":11663:11809   */\n      pop\n      pop\n      pop\n      jump\t// out\n        /* \"#utility.yul\":11815:12240   */\n    tag_343:\n        /* \"#utility.yul\":11893:11898   */\n      0x00\n        /* \"#utility.yul\":11918:11984   */\n      tag_518\n        /* \"#utility.yul\":11934:11983   */\n      tag_519\n        /* \"#utility.yul\":11976:11982   */\n      dup5\n        /* \"#utility.yul\":11934:11983   */\n      tag_341\n      jump\t// in\n    tag_519:\n        /* \"#utility.yul\":11918:11984   */\n      tag_312\n      jump\t// in\n    tag_518:\n        /* \"#utility.yul\":11909:11984   */\n      swap1\n      pop\n        /* \"#utility.yul\":12007:12013   */\n      dup3\n        /* \"#utility.yul\":12000:12005   */\n      dup2\n        /* \"#utility.yul\":11993:12014   */\n      mstore\n        /* \"#utility.yul\":12045:12049   */\n      0x20\n        /* \"#utility.yul\":12038:12043   */\n      dup2\n        /* \"#utility.yul\":12034:12050   */\n      add\n        /* \"#utility.yul\":12083:12086   */\n      dup5\n        /* \"#utility.yul\":12074:12080   */\n      dup5\n        /* \"#utility.yul\":12069:12072   */\n      dup5\n        /* \"#utility.yul\":12065:12081   */\n      add\n        /* \"#utility.yul\":12062:12087   */\n      gt\n        /* \"#utility.yul\":12059:12171   */\n      iszero\n      tag_520\n      jumpi\n        /* \"#utility.yul\":12090:12169   */\n      tag_521\n      tag_340\n      jump\t// in\n    tag_521:\n        /* \"#utility.yul\":12059:12171   */\n    tag_520:\n        /* \"#utility.yul\":12180:12234   */\n      tag_522\n        /* \"#utility.yul\":12227:12233   */\n      dup5\n        /* \"#utility.yul\":12222:12225   */\n      dup3\n        /* \"#utility.yul\":12217:12220   */\n      dup6\n        /* \"#utility.yul\":12180:12234   */\n      tag_342\n      jump\t// in\n    tag_522:\n        /* \"#utility.yul\":11899:12240   */\n      pop\n        /* \"#utility.yul\":11815:12240   */\n      swap4\n      swap3\n      pop\n      pop\n      pop\n      jump\t// out\n        /* \"#utility.yul\":12260:12600   */\n    tag_344:\n        /* \"#utility.yul\":12316:12321   */\n      0x00\n        /* \"#utility.yul\":12365:12368   */\n      dup3\n        /* \"#utility.yul\":12358:12362   */\n      0x1f\n        /* \"#utility.yul\":12350:12356   */\n      dup4\n        /* \"#utility.yul\":12346:12363   */\n      add\n        /* \"#utility.yul\":12342:12369   */\n      slt\n        /* \"#utility.yul\":12332:12454   */\n      tag_524\n      jumpi\n        /* \"#utility.yul\":12373:12452   */\n      tag_525\n      tag_309\n      jump\t// in\n    tag_525:\n        /* \"#utility.yul\":12332:12454   */\n    tag_524:\n        /* \"#utility.yul\":12490:12496   */\n      dup2\n        /* \"#utility.yul\":12477:12497   */\n      calldataload\n        /* \"#utility.yul\":12515:12594   */\n      tag_526\n        /* \"#utility.yul\":12590:12593   */\n      dup5\n        /* \"#utility.yul\":12582:12588   */\n      dup3\n        /* \"#utility.yul\":12575:12579   */\n      0x20\n        /* \"#utility.yul\":12567:12573   */\n      dup7\n        /* \"#utility.yul\":12563:12580   */\n      add\n        /* \"#utility.yul\":12515:12594   */\n      tag_343\n      jump\t// in\n    tag_526:\n        /* \"#utility.yul\":12506:12594   */\n      swap2\n      pop\n        /* \"#utility.yul\":12322:12600   */\n      pop\n        /* \"#utility.yul\":12260:12600   */\n      swap3\n      swap2\n      pop\n      pop\n      jump\t// out\n        /* \"#utility.yul\":12606:13551   */\n    tag_64:\n        /* \"#utility.yul\":12702:12708   */\n      0x00\n        /* \"#utility.yul\":12710:12716   */\n      dup1\n        /* \"#utility.yul\":12718:12724   */\n      0x00\n        /* \"#utility.yul\":12726:12732   */\n      dup1\n        /* \"#utility.yul\":12775:12778   */\n      0x80\n        /* \"#utility.yul\":12763:12772   */\n      dup6\n        /* \"#utility.yul\":12754:12761   */\n      dup8\n        /* \"#utility.yul\":12750:12773   */\n      sub\n        /* \"#utility.yul\":12746:12779   */\n      slt\n        /* \"#utility.yul\":12743:12863   */\n      iszero\n      tag_528\n      jumpi\n        /* \"#utility.yul\":12782:12861   */\n      tag_529\n      tag_304\n      jump\t// in\n    tag_529:\n        /* \"#utility.yul\":12743:12863   */\n    tag_528:\n        /* \"#utility.yul\":12902:12903   */\n      0x00\n        /* \"#utility.yul\":12927:12980   */\n      tag_530\n        /* \"#utility.yul\":12972:12979   */\n      dup8\n        /* \"#utility.yul\":12963:12969   */\n      dup3\n        /* \"#utility.yul\":12952:12961   */\n      dup9\n        /* \"#utility.yul\":12948:12970   */\n      add\n        /* \"#utility.yul\":12927:12980   */\n      tag_330\n      jump\t// in\n    tag_530:\n        /* \"#utility.yul\":12917:12980   */\n      swap5\n      pop\n        /* \"#utility.yul\":12873:12990   */\n      pop\n        /* \"#utility.yul\":13029:13031   */\n      0x20\n        /* \"#utility.yul\":13055:13108   */\n      tag_531\n        /* \"#utility.yul\":13100:13107   */\n      dup8\n        /* \"#utility.yul\":13091:13097   */\n      dup3\n        /* \"#utility.yul\":13080:13089   */\n      dup9\n        /* \"#utility.yul\":13076:13098   */\n      add\n        /* \"#utility.yul\":13055:13108   */\n      tag_317\n      jump\t// in\n    tag_531:\n        /* \"#utility.yul\":13045:13108   */\n      swap4\n      pop\n        /* \"#utility.yul\":13000:13118   */\n      pop\n        /* \"#utility.yul\":13157:13159   */\n      0x40\n        /* \"#utility.yul\":13183:13236   */\n      tag_532\n        /* \"#utility.yul\":13228:13235   */\n      dup8\n        /* \"#utility.yul\":13219:13225   */\n      dup3\n        /* \"#utility.yul\":13208:13217   */\n      dup9\n        /* \"#utility.yul\":13204:13226   */\n      add\n        /* \"#utility.yul\":13183:13236   */\n      tag_317\n      jump\t// in\n    tag_532:\n        /* \"#utility.yul\":13173:13236   */\n      swap3\n      pop\n        /* \"#utility.yul\":13128:13246   */\n      pop\n        /* \"#utility.yul\":13313:13315   */\n      0x60\n        /* \"#utility.yul\":13302:13311   */\n      dup6\n        /* \"#utility.yul\":13298:13316   */\n      add\n        /* \"#utility.yul\":13285:13317   */\n      calldataload\n        /* \"#utility.yul\":13344:13362   */\n      0xffffffffffffffff\n        /* \"#utility.yul\":13336:13342   */\n      dup2\n        /* \"#utility.yul\":13333:13363   */\n      gt\n        /* \"#utility.yul\":13330:13447   */\n      iszero\n      tag_533\n      jumpi\n        /* \"#utility.yul\":13366:13445   */\n      tag_534\n      tag_305\n      jump\t// in\n    tag_534:\n        /* \"#utility.yul\":13330:13447   */\n    tag_533:\n        /* \"#utility.yul\":13471:13534   */\n      tag_535\n        /* \"#utility.yul\":13526:13533   */\n      dup8\n        /* \"#utility.yul\":13517:13523   */\n      dup3\n        /* \"#utility.yul\":13506:13515   */\n      dup9\n        /* \"#utility.yul\":13502:13524   */\n      add\n        /* \"#utility.yul\":13471:13534   */\n      tag_344\n      jump\t// in\n    tag_535:\n        /* \"#utility.yul\":13461:13534   */\n      swap2\n      pop\n        /* \"#utility.yul\":13256:13544   */\n      pop\n        /* \"#utility.yul\":12606:13551   */\n      swap3\n      swap6\n      swap2\n      swap5\n      pop\n      swap3\n      pop\n      jump\t// out\n        /* \"#utility.yul\":13557:14031   */\n    tag_71:\n        /* \"#utility.yul\":13625:13631   */\n      0x00\n        /* \"#utility.yul\":13633:13639   */\n      dup1\n        /* \"#utility.yul\":13682:13684   */\n      0x40\n        /* \"#utility.yul\":13670:13679   */\n      dup4\n        /* \"#utility.yul\":13661:13668   */\n      dup6\n        /* \"#utility.yul\":13657:13680   */\n      sub\n        /* \"#utility.yul\":13653:13685   */\n      slt\n        /* \"#utility.yul\":13650:13769   */\n      iszero\n      tag_537\n      jumpi\n        /* \"#utility.yul\":13688:13767   */\n      tag_538\n      tag_304\n      jump\t// in\n    tag_538:\n        /* \"#utility.yul\":13650:13769   */\n    tag_537:\n        /* \"#utility.yul\":13808:13809   */\n      0x00\n        /* \"#utility.yul\":13833:13886   */\n      tag_539\n        /* \"#utility.yul\":13878:13885   */\n      dup6\n        /* \"#utility.yul\":13869:13875   */\n      dup3\n        /* \"#utility.yul\":13858:13867   */\n      dup7\n        /* \"#utility.yul\":13854:13876   */\n      add\n        /* \"#utility.yul\":13833:13886   */\n      tag_317\n      jump\t// in\n    tag_539:\n        /* \"#utility.yul\":13823:13886   */\n      swap3\n      pop\n        /* \"#utility.yul\":13779:13896   */\n      pop\n        /* \"#utility.yul\":13935:13937   */\n      0x20\n        /* \"#utility.yul\":13961:14014   */\n      tag_540\n        /* \"#utility.yul\":14006:14013   */\n      dup6\n        /* \"#utility.yul\":13997:14003   */\n      dup3\n        /* \"#utility.yul\":13986:13995   */\n      dup7\n        /* \"#utility.yul\":13982:14004   */\n      add\n        /* \"#utility.yul\":13961:14014   */\n      tag_317\n      jump\t// in\n    tag_540:\n        /* \"#utility.yul\":13951:14014   */\n      swap2\n      pop\n        /* \"#utility.yul\":13906:14024   */\n      pop\n        /* \"#utility.yul\":13557:14031   */\n      swap3\n      pop\n      swap3\n      swap1\n      pop\n      jump\t// out\n        /* \"#utility.yul\":14037:14206   */\n    tag_345:\n        /* \"#utility.yul\":14121:14132   */\n      0x00\n        /* \"#utility.yul\":14155:14161   */\n      dup3\n        /* \"#utility.yul\":14150:14153   */\n      dup3\n        /* \"#utility.yul\":14143:14162   */\n      mstore\n        /* \"#utility.yul\":14195:14199   */\n      0x20\n        /* \"#utility.yul\":14190:14193   */\n      dup3\n        /* \"#utility.yul\":14186:14200   */\n      add\n        /* \"#utility.yul\":14171:14200   */\n      swap1\n      pop\n        /* \"#utility.yul\":14037:14206   */\n      swap3\n      swap2\n      pop\n      pop\n      jump\t// out\n        /* \"#utility.yul\":14212:14452   */\n    tag_346:\n        /* \"#utility.yul\":14352:14386   */\n      0x43616c6c6572206973206e6f74207468652066696c65206f776e6572206f7220\n        /* \"#utility.yul\":14348:14349   */\n      0x00\n        /* \"#utility.yul\":14340:14346   */\n      dup3\n        /* \"#utility.yul\":14336:14350   */\n      add\n        /* \"#utility.yul\":14329:14387   */\n      mstore\n        /* \"#utility.yul\":14421:14444   */\n      0x646f6573206e6f74206861766520636f6e73656e740000000000000000000000\n        /* \"#utility.yul\":14416:14418   */\n      0x20\n        /* \"#utility.yul\":14408:14414   */\n      dup3\n        /* \"#utility.yul\":14404:14419   */\n      add\n        /* \"#utility.yul\":14397:14445   */\n      mstore\n        /* \"#utility.yul\":14212:14452   */\n      pop\n      jump\t// out\n        /* \"#utility.yul\":14458:14824   */\n    tag_347:\n        /* \"#utility.yul\":14600:14603   */\n      0x00\n        /* \"#utility.yul\":14621:14688   */\n      tag_544\n        /* \"#utility.yul\":14685:14687   */\n      0x35\n        /* \"#utility.yul\":14680:14683   */\n      dup4\n        /* \"#utility.yul\":14621:14688   */\n      tag_345\n      jump\t// in\n    tag_544:\n        /* \"#utility.yul\":14614:14688   */\n      swap2\n      pop\n        /* \"#utility.yul\":14697:14790   */\n      tag_545\n        /* \"#utility.yul\":14786:14789   */\n      dup3\n        /* \"#utility.yul\":14697:14790   */\n      tag_346\n      jump\t// in\n    tag_545:\n        /* \"#utility.yul\":14815:14817   */\n      0x40\n        /* \"#utility.yul\":14810:14813   */\n      dup3\n        /* \"#utility.yul\":14806:14818   */\n      add\n        /* \"#utility.yul\":14799:14818   */\n      swap1\n      pop\n        /* \"#utility.yul\":14458:14824   */\n      swap2\n      swap1\n      pop\n      jump\t// out\n        /* \"#utility.yul\":14830:15249   */\n    tag_86:\n        /* \"#utility.yul\":14996:15000   */\n      0x00\n        /* \"#utility.yul\":15034:15036   */\n      0x20\n        /* \"#utility.yul\":15023:15032   */\n      dup3\n        /* \"#utility.yul\":15019:15037   */\n      add\n        /* \"#utility.yul\":15011:15037   */\n      swap1\n      pop\n        /* \"#utility.yul\":15083:15092   */\n      dup2\n        /* \"#utility.yul\":15077:15081   */\n      dup2\n        /* \"#utility.yul\":15073:15093   */\n      sub\n        /* \"#utility.yul\":15069:15070   */\n      0x00\n        /* \"#utility.yul\":15058:15067   */\n      dup4\n        /* \"#utility.yul\":15054:15071   */\n      add\n        /* \"#utility.yul\":15047:15094   */\n      mstore\n        /* \"#utility.yul\":15111:15242   */\n      tag_547\n        /* \"#utility.yul\":15237:15241   */\n      dup2\n        /* \"#utility.yul\":15111:15242   */\n      tag_347\n      jump\t// in\n    tag_547:\n        /* \"#utility.yul\":15103:15242   */\n      swap1\n      pop\n        /* \"#utility.yul\":14830:15249   */\n      swap2\n      swap1\n      pop\n      jump\t// out\n        /* \"#utility.yul\":15255:15432   */\n    tag_348:\n        /* \"#utility.yul\":15395:15424   */\n      0x536861726420494473206d757374206e6f7420626520656d7074790000000000\n        /* \"#utility.yul\":15391:15392   */\n      0x00\n        /* \"#utility.yul\":15383:15389   */\n      dup3\n        /* \"#utility.yul\":15379:15393   */\n      add\n        /* \"#utility.yul\":15372:15425   */\n      mstore\n        /* \"#utility.yul\":15255:15432   */\n      pop\n      jump\t// out\n        /* \"#utility.yul\":15438:15804   */\n    tag_349:\n        /* \"#utility.yul\":15580:15583   */\n      0x00\n        /* \"#utility.yul\":15601:15668   */\n      tag_550\n        /* \"#utility.yul\":15665:15667   */\n      0x1b\n        /* \"#utility.yul\":15660:15663   */\n      dup4\n        /* \"#utility.yul\":15601:15668   */\n      tag_345\n      jump\t// in\n    tag_550:\n        /* \"#utility.yul\":15594:15668   */\n      swap2\n      pop\n        /* \"#utility.yul\":15677:15770   */\n      tag_551\n        /* \"#utility.yul\":15766:15769   */\n      dup3\n        /* \"#utility.yul\":15677:15770   */\n      tag_348\n      jump\t// in\n    tag_551:\n        /* \"#utility.yul\":15795:15797   */\n      0x20\n        /* \"#utility.yul\":15790:15793   */\n      dup3\n        /* \"#utility.yul\":15786:15798   */\n      add\n        /* \"#utility.yul\":15779:15798   */\n      swap1\n      pop\n        /* \"#utility.yul\":15438:15804   */\n      swap2\n      swap1\n      pop\n      jump\t// out\n        /* \"#utility.yul\":15810:16229   */\n    tag_90:\n        /* \"#utility.yul\":15976:15980   */\n      0x00\n        /* \"#utility.yul\":16014:16016   */\n      0x20\n        /* \"#utility.yul\":16003:16012   */\n      dup3\n        /* \"#utility.yul\":15999:16017   */\n      add\n        /* \"#utility.yul\":15991:16017   */\n      swap1\n      pop\n        /* \"#utility.yul\":16063:16072   */\n      dup2\n        /* \"#utility.yul\":16057:16061   */\n      dup2\n        /* \"#utility.yul\":16053:16073   */\n      sub\n        /* \"#utility.yul\":16049:16050   */\n      0x00\n        /* \"#utility.yul\":16038:16047   */\n      dup4\n        /* \"#utility.yul\":16034:16051   */\n      add\n        /* \"#utility.yul\":16027:16074   */\n      mstore\n        /* \"#utility.yul\":16091:16222   */\n      tag_553\n        /* \"#utility.yul\":16217:16221   */\n      dup2\n        /* \"#utility.yul\":16091:16222   */\n      tag_349\n      jump\t// in\n    tag_553:\n        /* \"#utility.yul\":16083:16222   */\n      swap1\n      pop\n        /* \"#utility.yul\":15810:16229   */\n      swap2\n      swap1\n      pop\n      jump\t// out\n        /* \"#utility.yul\":16235:16415   */\n    tag_350:\n        /* \"#utility.yul\":16283:16360   */\n      0x4e487b7100000000000000000000000000000000000000000000000000000000\n        /* \"#utility.yul\":16280:16281   */\n      0x00\n        /* \"#utility.yul\":16273:16361   */\n      mstore\n        /* \"#utility.yul\":16380:16384   */\n      0x11\n        /* \"#utility.yul\":16377:16378   */\n      0x04\n        /* \"#utility.yul\":16370:16385   */\n      mstore\n        /* \"#utility.yul\":16404:16408   */\n      0x24\n        /* \"#utility.yul\":16401:16402   */\n      0x00\n        /* \"#utility.yul\":16394:16409   */\n      revert\n        /* \"#utility.yul\":16421:16612   */\n    tag_94:\n        /* \"#utility.yul\":16461:16464   */\n      0x00\n        /* \"#utility.yul\":16480:16500   */\n      tag_556\n        /* \"#utility.yul\":16498:16499   */\n      dup3\n        /* \"#utility.yul\":16480:16500   */\n      tag_315\n      jump\t// in\n    tag_556:\n        /* \"#utility.yul\":16475:16500   */\n      swap2\n      pop\n        /* \"#utility.yul\":16514:16534   */\n      tag_557\n        /* \"#utility.yul\":16532:16533   */\n      dup4\n        /* \"#utility.yul\":16514:16534   */\n      tag_315\n      jump\t// in\n    tag_557:\n        /* \"#utility.yul\":16509:16534   */\n      swap3\n      pop\n        /* \"#utility.yul\":16557:16558   */\n      dup3\n        /* \"#utility.yul\":16554:16555   */\n      dup3\n        /* \"#utility.yul\":16550:16559   */\n      add\n        /* \"#utility.yul\":16543:16559   */\n      swap1\n      pop\n        /* \"#utility.yul\":16578:16581   */\n      dup1\n        /* \"#utility.yul\":16575:16576   */\n      dup3\n        /* \"#utility.yul\":16572:16582   */\n      gt\n        /* \"#utility.yul\":16569:16605   */\n      iszero\n      tag_558\n      jumpi\n        /* \"#utility.yul\":16585:16603   */\n      tag_559\n      tag_350\n      jump\t// in\n    tag_559:\n        /* \"#utility.yul\":16569:16605   */\n    tag_558:\n        /* \"#utility.yul\":16421:16612   */\n      swap3\n      swap2\n      pop\n      pop\n      jump\t// out\n        /* \"#utility.yul\":16618:16847   */\n    tag_351:\n        /* \"#utility.yul\":16758:16792   */\n      0x4f6e6c79207468652046696c65204f776e65722063616e206163636573732069\n        /* \"#utility.yul\":16754:16755   */\n      0x00\n        /* \"#utility.yul\":16746:16752   */\n      dup3\n        /* \"#utility.yul\":16742:16756   */\n      add\n        /* \"#utility.yul\":16735:16793   */\n      mstore\n        /* \"#utility.yul\":16827:16839   */\n      0x7473207368617264732e00000000000000000000000000000000000000000000\n        /* \"#utility.yul\":16822:16824   */\n      0x20\n        /* \"#utility.yul\":16814:16820   */\n      dup3\n        /* \"#utility.yul\":16810:16825   */\n      add\n        /* \"#utility.yul\":16803:16840   */\n      mstore\n        /* \"#utility.yul\":16618:16847   */\n      pop\n      jump\t// out\n        /* \"#utility.yul\":16853:17219   */\n    tag_352:\n        /* \"#utility.yul\":16995:16998   */\n      0x00\n        /* \"#utility.yul\":17016:17083   */\n      tag_562\n        /* \"#utility.yul\":17080:17082   */\n      0x2a\n        /* \"#utility.yul\":17075:17078   */\n      dup4\n        /* \"#utility.yul\":17016:17083   */\n      tag_345\n      jump\t// in\n    tag_562:\n        /* \"#utility.yul\":17009:17083   */\n      swap2\n      pop\n        /* \"#utility.yul\":17092:17185   */\n      tag_563\n        /* \"#utility.yul\":17181:17184   */\n      dup3\n        /* \"#utility.yul\":17092:17185   */\n      tag_351\n      jump\t// in\n    tag_563:\n        /* \"#utility.yul\":17210:17212   */\n      0x40\n        /* \"#utility.yul\":17205:17208   */\n      dup3\n        /* \"#utility.yul\":17201:17213   */\n      add\n        /* \"#utility.yul\":17194:17213   */\n      swap1\n      pop\n        /* \"#utility.yul\":16853:17219   */\n      swap2\n      swap1\n      pop\n      jump\t// out\n        /* \"#utility.yul\":17225:17644   */\n    tag_98:\n        /* \"#utility.yul\":17391:17395   */\n      0x00\n        /* \"#utility.yul\":17429:17431   */\n      0x20\n        /* \"#utility.yul\":17418:17427   */\n      dup3\n        /* \"#utility.yul\":17414:17432   */\n      add\n        /* \"#utility.yul\":17406:17432   */\n      swap1\n      pop\n        /* \"#utility.yul\":17478:17487   */\n      dup2\n        /* \"#utility.yul\":17472:17476   */\n      dup2\n        /* \"#utility.yul\":17468:17488   */\n      sub\n        /* \"#utility.yul\":17464:17465   */\n      0x00\n        /* \"#utility.yul\":17453:17462   */\n      dup4\n        /* \"#utility.yul\":17449:17466   */\n      add\n        /* \"#utility.yul\":17442:17489   */\n      mstore\n        /* \"#utility.yul\":17506:17637   */\n      tag_565\n        /* \"#utility.yul\":17632:17636   */\n      dup2\n        /* \"#utility.yul\":17506:17637   */\n      tag_352\n      jump\t// in\n    tag_565:\n        /* \"#utility.yul\":17498:17637   */\n      swap1\n      pop\n        /* \"#utility.yul\":17225:17644   */\n      swap2\n      swap1\n      pop\n      jump\t// out\n        /* \"#utility.yul\":17650:17830   */\n    tag_108:\n        /* \"#utility.yul\":17698:17775   */\n      0x4e487b7100000000000000000000000000000000000000000000000000000000\n        /* \"#utility.yul\":17695:17696   */\n      0x00\n        /* \"#utility.yul\":17688:17776   */\n      mstore\n        /* \"#utility.yul\":17795:17799   */\n      0x32\n        /* \"#utility.yul\":17792:17793   */\n      0x04\n        /* \"#utility.yul\":17785:17800   */\n      mstore\n        /* \"#utility.yul\":17819:17823   */\n      0x24\n        /* \"#utility.yul\":17816:17817   */\n      0x00\n        /* \"#utility.yul\":17809:17824   */\n      revert\n        /* \"#utility.yul\":17836:18069   */\n    tag_117:\n        /* \"#utility.yul\":17875:17878   */\n      0x00\n        /* \"#utility.yul\":17898:17922   */\n      tag_568\n        /* \"#utility.yul\":17916:17921   */\n      dup3\n        /* \"#utility.yul\":17898:17922   */\n      tag_315\n      jump\t// in\n    tag_568:\n        /* \"#utility.yul\":17889:17922   */\n      swap2\n      pop\n        /* \"#utility.yul\":17944:18010   */\n      0xffffffffffffffffffffffffffffffffffffffffffffffffffffffffffffffff\n        /* \"#utility.yul\":17937:17942   */\n      dup3\n        /* \"#utility.yul\":17934:18011   */\n      sub\n        /* \"#utility.yul\":17931:18034   */\n      tag_569\n      jumpi\n        /* \"#utility.yul\":18014:18032   */\n      tag_570\n      tag_350\n      jump\t// in\n    tag_570:\n        /* \"#utility.yul\":17931:18034   */\n    tag_569:\n        /* \"#utility.yul\":18061:18062   */\n      0x01\n        /* \"#utility.yul\":18054:18059   */\n      dup3\n        /* \"#utility.yul\":18050:18063   */\n      add\n        /* \"#utility.yul\":18043:18063   */\n      swap1\n      pop\n        /* \"#utility.yul\":17836:18069   */\n      swap2\n      swap1\n      pop\n      jump\t// out\n        /* \"#utility.yul\":18075:18249   */\n    tag_353:\n        /* \"#utility.yul\":18215:18241   */\n      0x5468652066696c6520646f6573206e6f742065786973742e0000000000000000\n        /* \"#utility.yul\":18211:18212   */\n      0x00\n        /* \"#utility.yul\":18203:18209   */\n      dup3\n        /* \"#utility.yul\":18199:18213   */\n      add\n        /* \"#utility.yul\":18192:18242   */\n      mstore\n        /* \"#utility.yul\":18075:18249   */\n      pop\n      jump\t// out\n        /* \"#utility.yul\":18255:18621   */\n    tag_354:\n        /* \"#utility.yul\":18397:18400   */\n      0x00\n        /* \"#utility.yul\":18418:18485   */\n      tag_573\n        /* \"#utility.yul\":18482:18484   */\n      0x18\n        /* \"#utility.yul\":18477:18480   */\n      dup4\n        /* \"#utility.yul\":18418:18485   */\n      tag_345\n      jump\t// in\n    tag_573:\n        /* \"#utility.yul\":18411:18485   */\n      swap2\n      pop\n        /* \"#utility.yul\":18494:18587   */\n      tag_574\n        /* \"#utility.yul\":18583:18586   */\n      dup3\n        /* \"#utility.yul\":18494:18587   */\n      tag_353\n      jump\t// in\n    tag_574:\n        /* \"#utility.yul\":18612:18614   */\n      0x20\n        /* \"#utility.yul\":18607:18610   */\n      dup3\n        /* \"#utility.yul\":18603:18615   */\n      add\n        /* \"#utility.yul\":18596:18615   */\n      swap1\n      pop\n        /* \"#utility.yul\":18255:18621   */\n      swap2\n      swap1\n      pop\n      jump\t// out\n        /* \"#utility.yul\":18627:19046   */\n    tag_124:\n        /* \"#utility.yul\":18793:18797   */\n      0x00\n        /* \"#utility.yul\":18831:18833   */\n      0x20\n        /* \"#utility.yul\":18820:18829   */\n      dup3\n        /* \"#utility.yul\":18816:18834   */\n      add\n        /* \"#utility.yul\":18808:18834   */\n      swap1\n      pop\n        /* \"#utility.yul\":18880:18889   */\n      dup2\n        /* \"#utility.yul\":18874:18878   */\n      dup2\n        /* \"#utility.yul\":18870:18890   */\n      sub\n        /* \"#utility.yul\":18866:18867   */\n      0x00\n        /* \"#utility.yul\":18855:18864   */\n      dup4\n        /* \"#utility.yul\":18851:18868   */\n      add\n        /* \"#utility.yul\":18844:18891   */\n      mstore\n        /* \"#utility.yul\":18908:19039   */\n      tag_576\n        /* \"#utility.yul\":19034:19038   */\n      dup2\n        /* \"#utility.yul\":18908:19039   */\n      tag_354\n      jump\t// in\n    tag_576:\n        /* \"#utility.yul\":18900:19039   */\n      swap1\n      pop\n        /* \"#utility.yul\":18627:19046   */\n      swap2\n      swap1\n      pop\n      jump\t// out\n        /* \"#utility.yul\":19052:19275   */\n    tag_355:\n        /* \"#utility.yul\":19192:19226   */\n      0x4f6e6c792046696c65204f776e65722063616e2064656c657465207468652066\n        /* \"#utility.yul\":19188:19189   */\n      0x00\n        /* \"#utility.yul\":19180:19186   */\n      dup3\n        /* \"#utility.yul\":19176:19190   */\n      add\n        /* \"#utility.yul\":19169:19227   */\n      mstore\n        /* \"#utility.yul\":19261:19267   */\n      0x696c652100000000000000000000000000000000000000000000000000000000\n        /* \"#utility.yul\":19256:19258   */\n      0x20\n        /* \"#utility.yul\":19248:19254   */\n      dup3\n        /* \"#utility.yul\":19244:19259   */\n      add\n        /* \"#utility.yul\":19237:19268   */\n      mstore\n        /* \"#utility.yul\":19052:19275   */\n      pop\n      jump\t// out\n        /* \"#utility.yul\":19281:19647   */\n    tag_356:\n        /* \"#utility.yul\":19423:19426   */\n      0x00\n        /* \"#utility.yul\":19444:19511   */\n      tag_579\n        /* \"#utility.yul\":19508:19510   */\n      0x24\n        /* \"#utility.yul\":19503:19506   */\n      dup4\n        /* \"#utility.yul\":19444:19511   */\n      tag_345\n      jump\t// in\n    tag_579:\n        /* \"#utility.yul\":19437:19511   */\n      swap2\n      pop\n        /* \"#utility.yul\":19520:19613   */\n      tag_580\n        /* \"#utility.yul\":19609:19612   */\n      dup3\n        /* \"#utility.yul\":19520:19613   */\n      tag_355\n      jump\t// in\n    tag_580:\n        /* \"#utility.yul\":19638:19640   */\n      0x40\n        /* \"#utility.yul\":19633:19636   */\n      dup3\n        /* \"#utility.yul\":19629:19641   */\n      add\n        /* \"#utility.yul\":19622:19641   */\n      swap1\n      pop\n        /* \"#utility.yul\":19281:19647   */\n      swap2\n      swap1\n      pop\n      jump\t// out\n        /* \"#utility.yul\":19653:20072   */\n    tag_127:\n        /* \"#utility.yul\":19819:19823   */\n      0x00\n        /* \"#utility.yul\":19857:19859   */\n      0x20\n        /* \"#utility.yul\":19846:19855   */\n      dup3\n        /* \"#utility.yul\":19842:19860   */\n      add\n        /* \"#utility.yul\":19834:19860   */\n      swap1\n      pop\n        /* \"#utility.yul\":19906:19915   */\n      dup2\n        /* \"#utility.yul\":19900:19904   */\n      dup2\n        /* \"#utility.yul\":19896:19916   */\n      sub\n        /* \"#utility.yul\":19892:19893   */\n      0x00\n        /* \"#utility.yul\":19881:19890   */\n      dup4\n        /* \"#utility.yul\":19877:19894   */\n      add\n        /* \"#utility.yul\":19870:19917   */\n      mstore\n        /* \"#utility.yul\":19934:20065   */\n      tag_582\n        /* \"#utility.yul\":20060:20064   */\n      dup2\n        /* \"#utility.yul\":19934:20065   */\n      tag_356\n      jump\t// in\n    tag_582:\n        /* \"#utility.yul\":19926:20065   */\n      swap1\n      pop\n        /* \"#utility.yul\":19653:20072   */\n      swap2\n      swap1\n      pop\n      jump\t// out\n        /* \"#utility.yul\":20078:20272   */\n    tag_129:\n        /* \"#utility.yul\":20118:20122   */\n      0x00\n        /* \"#utility.yul\":20138:20158   */\n      tag_584\n        /* \"#utility.yul\":20156:20157   */\n      dup3\n        /* \"#utility.yul\":20138:20158   */\n      tag_315\n      jump\t// in\n    tag_584:\n        /* \"#utility.yul\":20133:20158   */\n      swap2\n      pop\n        /* \"#utility.yul\":20172:20192   */\n      tag_585\n        /* \"#utility.yul\":20190:20191   */\n      dup4\n        /* \"#utility.yul\":20172:20192   */\n      tag_315\n      jump\t// in\n    tag_585:\n        /* \"#utility.yul\":20167:20192   */\n      swap3\n      pop\n        /* \"#utility.yul\":20216:20217   */\n      dup3\n        /* \"#utility.yul\":20213:20214   */\n      dup3\n        /* \"#utility.yul\":20209:20218   */\n      sub\n        /* \"#utility.yul\":20201:20218   */\n      swap1\n      pop\n        /* \"#utility.yul\":20240:20241   */\n      dup2\n        /* \"#utility.yul\":20234:20238   */\n      dup2\n        /* \"#utility.yul\":20231:20242   */\n      gt\n        /* \"#utility.yul\":20228:20265   */\n      iszero\n      tag_586\n      jumpi\n        /* \"#utility.yul\":20245:20263   */\n      tag_587\n      tag_350\n      jump\t// in\n    tag_587:\n        /* \"#utility.yul\":20228:20265   */\n    tag_586:\n        /* \"#utility.yul\":20078:20272   */\n      swap3\n      swap2\n      pop\n      pop\n      jump\t// out\n        /* \"#utility.yul\":20278:20458   */\n    tag_138:\n        /* \"#utility.yul\":20326:20403   */\n      0x4e487b7100000000000000000000000000000000000000000000000000000000\n        /* \"#utility.yul\":20323:20324   */\n      0x00\n        /* \"#utility.yul\":20316:20404   */\n      mstore\n        /* \"#utility.yul\":20423:20427   */\n      0x31\n        /* \"#utility.yul\":20420:20421   */\n      0x04\n        /* \"#utility.yul\":20413:20428   */\n      mstore\n        /* \"#utility.yul\":20447:20451   */\n      0x24\n        /* \"#utility.yul\":20444:20445   */\n      0x00\n        /* \"#utility.yul\":20437:20452   */\n      revert\n        /* \"#utility.yul\":20464:20635   */\n    tag_141:\n        /* \"#utility.yul\":20503:20506   */\n      0x00\n        /* \"#utility.yul\":20526:20550   */\n      tag_590\n        /* \"#utility.yul\":20544:20549   */\n      dup3\n        /* \"#utility.yul\":20526:20550   */\n      tag_315\n      jump\t// in\n    tag_590:\n        /* \"#utility.yul\":20517:20550   */\n      swap2\n      pop\n        /* \"#utility.yul\":20572:20576   */\n      0x00\n        /* \"#utility.yul\":20565:20570   */\n      dup3\n        /* \"#utility.yul\":20562:20577   */\n      sub\n        /* \"#utility.yul\":20559:20600   */\n      tag_591\n      jumpi\n        /* \"#utility.yul\":20580:20598   */\n      tag_592\n      tag_350\n      jump\t// in\n    tag_592:\n        /* \"#utility.yul\":20559:20600   */\n    tag_591:\n        /* \"#utility.yul\":20627:20628   */\n      0x01\n        /* \"#utility.yul\":20620:20625   */\n      dup3\n        /* \"#utility.yul\":20616:20629   */\n      sub\n        /* \"#utility.yul\":20609:20629   */\n      swap1\n      pop\n        /* \"#utility.yul\":20464:20635   */\n      swap2\n      swap1\n      pop\n      jump\t// out\n        /* \"#utility.yul\":20641:20759   */\n    tag_357:\n        /* \"#utility.yul\":20728:20752   */\n      tag_594\n        /* \"#utility.yul\":20746:20751   */\n      dup2\n        /* \"#utility.yul\":20728:20752   */\n      tag_306\n      jump\t// in\n    tag_594:\n        /* \"#utility.yul\":20723:20726   */\n      dup3\n        /* \"#utility.yul\":20716:20753   */\n      mstore\n        /* \"#utility.yul\":20641:20759   */\n      pop\n      pop\n      jump\t// out\n        /* \"#utility.yul\":20765:20987   */\n    tag_145:\n        /* \"#utility.yul\":20858:20862   */\n      0x00\n        /* \"#utility.yul\":20896:20898   */\n      0x20\n        /* \"#utility.yul\":20885:20894   */\n      dup3\n        /* \"#utility.yul\":20881:20899   */\n      add\n        /* \"#utility.yul\":20873:20899   */\n      swap1\n      pop\n        /* \"#utility.yul\":20909:20980   */\n      tag_596\n        /* \"#utility.yul\":20977:20978   */\n      0x00\n        /* \"#utility.yul\":20966:20975   */\n      dup4\n        /* \"#utility.yul\":20962:20979   */\n      add\n        /* \"#utility.yul\":20953:20959   */\n      dup5\n        /* \"#utility.yul\":20909:20980   */\n      tag_357\n      jump\t// in\n    tag_596:\n        /* \"#utility.yul\":20765:20987   */\n      swap3\n      swap2\n      pop\n      pop\n      jump\t// out\n        /* \"#utility.yul\":20993:21213   */\n    tag_358:\n        /* \"#utility.yul\":21133:21167   */\n      0x6661726d657220646f6573206e6f74206861766520656e6f7567682073706163\n        /* \"#utility.yul\":21129:21130   */\n      0x00\n        /* \"#utility.yul\":21121:21127   */\n      dup3\n        /* \"#utility.yul\":21117:21131   */\n      add\n        /* \"#utility.yul\":21110:21168   */\n      mstore\n        /* \"#utility.yul\":21202:21205   */\n      0x6500000000000000000000000000000000000000000000000000000000000000\n        /* \"#utility.yul\":21197:21199   */\n      0x20\n        /* \"#utility.yul\":21189:21195   */\n      dup3\n        /* \"#utility.yul\":21185:21200   */\n      add\n        /* \"#utility.yul\":21178:21206   */\n      mstore\n        /* \"#utility.yul\":20993:21213   */\n      pop\n      jump\t// out\n        /* \"#utility.yul\":21219:21585   */\n    tag_359:\n        /* \"#utility.yul\":21361:21364   */\n      0x00\n        /* \"#utility.yul\":21382:21449   */\n      tag_599\n        /* \"#utility.yul\":21446:21448   */\n      0x21\n        /* \"#utility.yul\":21441:21444   */\n      dup4\n        /* \"#utility.yul\":21382:21449   */\n      tag_345\n      jump\t// in\n    tag_599:\n        /* \"#utility.yul\":21375:21449   */\n      swap2\n      pop\n        /* \"#utility.yul\":21458:21551   */\n      tag_600\n        /* \"#utility.yul\":21547:21550   */\n      dup3\n        /* \"#utility.yul\":21458:21551   */\n      tag_358\n      jump\t// in\n    tag_600:\n        /* \"#utility.yul\":21576:21578   */\n      0x40\n        /* \"#utility.yul\":21571:21574   */\n      dup3\n        /* \"#utility.yul\":21567:21579   */\n      add\n        /* \"#utility.yul\":21560:21579   */\n      swap1\n      pop\n        /* \"#utility.yul\":21219:21585   */\n      swap2\n      swap1\n      pop\n      jump\t// out\n        /* \"#utility.yul\":21591:22010   */\n    tag_168:\n        /* \"#utility.yul\":21757:21761   */\n      0x00\n        /* \"#utility.yul\":21795:21797   */\n      0x20\n        /* \"#utility.yul\":21784:21793   */\n      dup3\n        /* \"#utility.yul\":21780:21798   */\n      add\n        /* \"#utility.yul\":21772:21798   */\n      swap1\n      pop\n        /* \"#utility.yul\":21844:21853   */\n      dup2\n        /* \"#utility.yul\":21838:21842   */\n      dup2\n        /* \"#utility.yul\":21834:21854   */\n      sub\n        /* \"#utility.yul\":21830:21831   */\n      0x00\n        /* \"#utility.yul\":21819:21828   */\n      dup4\n        /* \"#utility.yul\":21815:21832   */\n      add\n        /* \"#utility.yul\":21808:21855   */\n      mstore\n        /* \"#utility.yul\":21872:22003   */\n      tag_602\n        /* \"#utility.yul\":21998:22002   */\n      dup2\n        /* \"#utility.yul\":21872:22003   */\n      tag_359\n      jump\t// in\n    tag_602:\n        /* \"#utility.yul\":21864:22003   */\n      swap1\n      pop\n        /* \"#utility.yul\":21591:22010   */\n      swap2\n      swap1\n      pop\n      jump\t// out\n        /* \"#utility.yul\":22016:22175   */\n    tag_360:\n        /* \"#utility.yul\":22156:22167   */\n      0x4e6f7420666f756e640000000000000000000000000000000000000000000000\n        /* \"#utility.yul\":22152:22153   */\n      0x00\n        /* \"#utility.yul\":22144:22150   */\n      dup3\n        /* \"#utility.yul\":22140:22154   */\n      add\n        /* \"#utility.yul\":22133:22168   */\n      mstore\n        /* \"#utility.yul\":22016:22175   */\n      pop\n      jump\t// out\n        /* \"#utility.yul\":22181:22546   */\n    tag_361:\n        /* \"#utility.yul\":22323:22326   */\n      0x00\n        /* \"#utility.yul\":22344:22410   */\n      tag_605\n        /* \"#utility.yul\":22408:22409   */\n      0x09\n        /* \"#utility.yul\":22403:22406   */\n      dup4\n        /* \"#utility.yul\":22344:22410   */\n      tag_345\n      jump\t// in\n    tag_605:\n        /* \"#utility.yul\":22337:22410   */\n      swap2\n      pop\n        /* \"#utility.yul\":22419:22512   */\n      tag_606\n        /* \"#utility.yul\":22508:22511   */\n      dup3\n        /* \"#utility.yul\":22419:22512   */\n      tag_360\n      jump\t// in\n    tag_606:\n        /* \"#utility.yul\":22537:22539   */\n      0x20\n        /* \"#utility.yul\":22532:22535   */\n      dup3\n        /* \"#utility.yul\":22528:22540   */\n      add\n        /* \"#utility.yul\":22521:22540   */\n      swap1\n      pop\n        /* \"#utility.yul\":22181:22546   */\n      swap2\n      swap1\n      pop\n      jump\t// out\n        /* \"#utility.yul\":22552:22971   */\n    tag_193:\n        /* \"#utility.yul\":22718:22722   */\n      0x00\n        /* \"#utility.yul\":22756:22758   */\n      0x20\n        /* \"#utility.yul\":22745:22754   */\n      dup3\n        /* \"#utility.yul\":22741:22759   */\n      add\n        /* \"#utility.yul\":22733:22759   */\n      swap1\n      pop\n        /* \"#utility.yul\":22805:22814   */\n      dup2\n        /* \"#utility.yul\":22799:22803   */\n      dup2\n        /* \"#utility.yul\":22795:22815   */\n      sub\n        /* \"#utility.yul\":22791:22792   */\n      0x00\n        /* \"#utility.yul\":22780:22789   */\n      dup4\n        /* \"#utility.yul\":22776:22793   */\n      add\n        /* \"#utility.yul\":22769:22816   */\n      mstore\n        /* \"#utility.yul\":22833:22964   */\n      tag_608\n        /* \"#utility.yul\":22959:22963   */\n      dup2\n        /* \"#utility.yul\":22833:22964   */\n      tag_361\n      jump\t// in\n    tag_608:\n        /* \"#utility.yul\":22825:22964   */\n      swap1\n      pop\n        /* \"#utility.yul\":22552:22971   */\n      swap2\n      swap1\n      pop\n      jump\t// out\n        /* \"#utility.yul\":22977:23221   */\n    tag_362:\n        /* \"#utility.yul\":23117:23151   */\n      0x4f6e6c79207468652046696c65204f776e65722063616e206769766520617761\n        /* \"#utility.yul\":23113:23114   */\n      0x00\n        /* \"#utility.yul\":23105:23111   */\n      dup3\n        /* \"#utility.yul\":23101:23115   */\n      add\n        /* \"#utility.yul\":23094:23152   */\n      mstore\n        /* \"#utility.yul\":23186:23213   */\n      0x79206f776e657273686970206f662074686569722066696c6500000000000000\n        /* \"#utility.yul\":23181:23183   */\n      0x20\n        /* \"#utility.yul\":23173:23179   */\n      dup3\n        /* \"#utility.yul\":23169:23184   */\n      add\n        /* \"#utility.yul\":23162:23214   */\n      mstore\n        /* \"#utility.yul\":22977:23221   */\n      pop\n      jump\t// out\n        /* \"#utility.yul\":23227:23593   */\n    tag_363:\n        /* \"#utility.yul\":23369:23372   */\n      0x00\n        /* \"#utility.yul\":23390:23457   */\n      tag_611\n        /* \"#utility.yul\":23454:23456   */\n      0x39\n        /* \"#utility.yul\":23449:23452   */\n      dup4\n        /* \"#utility.yul\":23390:23457   */\n      tag_345\n      jump\t// in\n    tag_611:\n        /* \"#utility.yul\":23383:23457   */\n      swap2\n      pop\n        /* \"#utility.yul\":23466:23559   */\n      tag_612\n        /* \"#utility.yul\":23555:23558   */\n      dup3\n        /* \"#utility.yul\":23466:23559   */\n      tag_362\n      jump\t// in\n    tag_612:\n        /* \"#utility.yul\":23584:23586   */\n      0x40\n        /* \"#utility.yul\":23579:23582   */\n      dup3\n        /* \"#utility.yul\":23575:23587   */\n      add\n        /* \"#utility.yul\":23568:23587   */\n      swap1\n      pop\n        /* \"#utility.yul\":23227:23593   */\n      swap2\n      swap1\n      pop\n      jump\t// out\n        /* \"#utility.yul\":23599:24018   */\n    tag_197:\n        /* \"#utility.yul\":23765:23769   */\n      0x00\n        /* \"#utility.yul\":23803:23805   */\n      0x20\n        /* \"#utility.yul\":23792:23801   */\n      dup3\n        /* \"#utility.yul\":23788:23806   */\n      add\n        /* \"#utility.yul\":23780:23806   */\n      swap1\n      pop\n        /* \"#utility.yul\":23852:23861   */\n      dup2\n        /* \"#utility.yul\":23846:23850   */\n      dup2\n        /* \"#utility.yul\":23842:23862   */\n      sub\n        /* \"#utility.yul\":23838:23839   */\n      0x00\n        /* \"#utility.yul\":23827:23836   */\n      dup4\n        /* \"#utility.yul\":23823:23840   */\n      add\n        /* \"#utility.yul\":23816:23863   */\n      mstore\n        /* \"#utility.yul\":23880:24011   */\n      tag_614\n        /* \"#utility.yul\":24006:24010   */\n      dup2\n        /* \"#utility.yul\":23880:24011   */\n      tag_363\n      jump\t// in\n    tag_614:\n        /* \"#utility.yul\":23872:24011   */\n      swap1\n      pop\n        /* \"#utility.yul\":23599:24018   */\n      swap2\n      swap1\n      pop\n      jump\t// out\n        /* \"#utility.yul\":24024:24123   */\n    tag_364:\n        /* \"#utility.yul\":24076:24082   */\n      0x00\n        /* \"#utility.yul\":24110:24115   */\n      dup2\n        /* \"#utility.yul\":24104:24116   */\n      mload\n        /* \"#utility.yul\":24094:24116   */\n      swap1\n      pop\n        /* \"#utility.yul\":24024:24123   */\n      swap2\n      swap1\n      pop\n      jump\t// out\n        /* \"#utility.yul\":24129:24309   */\n    tag_365:\n        /* \"#utility.yul\":24177:24254   */\n      0x4e487b7100000000000000000000000000000000000000000000000000000000\n        /* \"#utility.yul\":24174:24175   */\n      0x00\n        /* \"#utility.yul\":24167:24255   */\n      mstore\n        /* \"#utility.yul\":24274:24278   */\n      0x22\n        /* \"#utility.yul\":24271:24272   */\n      0x04\n        /* \"#utility.yul\":24264:24279   */\n      mstore\n        /* \"#utility.yul\":24298:24302   */\n      0x24\n        /* \"#utility.yul\":24295:24296   */\n      0x00\n        /* \"#utility.yul\":24288:24303   */\n      revert\n        /* \"#utility.yul\":24315:24635   */\n    tag_297:\n        /* \"#utility.yul\":24359:24365   */\n      0x00\n        /* \"#utility.yul\":24396:24397   */\n      0x02\n        /* \"#utility.yul\":24390:24394   */\n      dup3\n        /* \"#utility.yul\":24386:24398   */\n      div\n        /* \"#utility.yul\":24376:24398   */\n      swap1\n      pop\n        /* \"#utility.yul\":24443:24444   */\n      0x01\n        /* \"#utility.yul\":24437:24441   */\n      dup3\n        /* \"#utility.yul\":24433:24445   */\n      and\n        /* \"#utility.yul\":24464:24482   */\n      dup1\n        /* \"#utility.yul\":24454:24535   */\n      tag_618\n      jumpi\n        /* \"#utility.yul\":24520:24524   */\n      0x7f\n        /* \"#utility.yul\":24512:24518   */\n      dup3\n        /* \"#utility.yul\":24508:24525   */\n      and\n        /* \"#utility.yul\":24498:24525   */\n      swap2\n      pop\n        /* \"#utility.yul\":24454:24535   */\n    tag_618:\n        /* \"#utility.yul\":24582:24584   */\n      0x20\n        /* \"#utility.yul\":24574:24580   */\n      dup3\n        /* \"#utility.yul\":24571:24585   */\n      lt\n        /* \"#utility.yul\":24551:24569   */\n      dup2\n        /* \"#utility.yul\":24548:24586   */\n      sub\n        /* \"#utility.yul\":24545:24629   */\n      tag_619\n      jumpi\n        /* \"#utility.yul\":24601:24619   */\n      tag_620\n      tag_365\n      jump\t// in\n    tag_620:\n        /* \"#utility.yul\":24545:24629   */\n    tag_619:\n        /* \"#utility.yul\":24366:24635   */\n      pop\n        /* \"#utility.yul\":24315:24635   */\n      swap2\n      swap1\n      pop\n      jump\t// out\n        /* \"#utility.yul\":24641:24782   */\n    tag_366:\n        /* \"#utility.yul\":24690:24694   */\n      0x00\n        /* \"#utility.yul\":24713:24716   */\n      dup2\n        /* \"#utility.yul\":24705:24716   */\n      swap1\n      pop\n        /* \"#utility.yul\":24736:24739   */\n      dup2\n        /* \"#utility.yul\":24733:24734   */\n      0x00\n        /* \"#utility.yul\":24726:24740   */\n      mstore\n        /* \"#utility.yul\":24770:24774   */\n      0x20\n        /* \"#utility.yul\":24767:24768   */\n      0x00\n        /* \"#utility.yul\":24757:24775   */\n      keccak256\n        /* \"#utility.yul\":24749:24775   */\n      swap1\n      pop\n        /* \"#utility.yul\":24641:24782   */\n      swap2\n      swap1\n      pop\n      jump\t// out\n        /* \"#utility.yul\":24788:24881   */\n    tag_367:\n        /* \"#utility.yul\":24825:24831   */\n      0x00\n        /* \"#utility.yul\":24872:24874   */\n      0x20\n        /* \"#utility.yul\":24867:24869   */\n      0x1f\n        /* \"#utility.yul\":24860:24865   */\n      dup4\n        /* \"#utility.yul\":24856:24870   */\n      add\n        /* \"#utility.yul\":24852:24875   */\n      div\n        /* \"#utility.yul\":24842:24875   */\n      swap1\n      pop\n        /* \"#utility.yul\":24788:24881   */\n      swap2\n      swap1\n      pop\n      jump\t// out\n        /* \"#utility.yul\":24887:24994   */\n    tag_368:\n        /* \"#utility.yul\":24931:24939   */\n      0x00\n        /* \"#utility.yul\":24981:24986   */\n      dup3\n        /* \"#utility.yul\":24975:24979   */\n      dup3\n        /* \"#utility.yul\":24971:24987   */\n      shl\n        /* \"#utility.yul\":24950:24987   */\n      swap1\n      pop\n        /* \"#utility.yul\":24887:24994   */\n      swap3\n      swap2\n      pop\n      pop\n      jump\t// out\n        /* \"#utility.yul\":25000:25393   */\n    tag_369:\n        /* \"#utility.yul\":25069:25075   */\n      0x00\n        /* \"#utility.yul\":25119:25120   */\n      0x08\n        /* \"#utility.yul\":25107:25117   */\n      dup4\n        /* \"#utility.yul\":25103:25121   */\n      mul\n        /* \"#utility.yul\":25142:25239   */\n      tag_625\n        /* \"#utility.yul\":25172:25238   */\n      0xffffffffffffffffffffffffffffffffffffffffffffffffffffffffffffffff\n        /* \"#utility.yul\":25161:25170   */\n      dup3\n        /* \"#utility.yul\":25142:25239   */\n      tag_368\n      jump\t// in\n    tag_625:\n        /* \"#utility.yul\":25260:25299   */\n      tag_626\n        /* \"#utility.yul\":25290:25298   */\n      dup7\n        /* \"#utility.yul\":25279:25288   */\n      dup4\n        /* \"#utility.yul\":25260:25299   */\n      tag_368\n      jump\t// in\n    tag_626:\n        /* \"#utility.yul\":25248:25299   */\n      swap6\n      pop\n        /* \"#utility.yul\":25332:25336   */\n      dup1\n        /* \"#utility.yul\":25328:25337   */\n      not\n        /* \"#utility.yul\":25321:25326   */\n      dup5\n        /* \"#utility.yul\":25317:25338   */\n      and\n        /* \"#utility.yul\":25308:25338   */\n      swap4\n      pop\n        /* \"#utility.yul\":25381:25385   */\n      dup1\n        /* \"#utility.yul\":25371:25379   */\n      dup7\n        /* \"#utility.yul\":25367:25386   */\n      and\n        /* \"#utility.yul\":25360:25365   */\n      dup5\n        /* \"#utility.yul\":25357:25387   */\n      or\n        /* \"#utility.yul\":25347:25387   */\n      swap3\n      pop\n        /* \"#utility.yul\":25076:25393   */\n      pop\n      pop\n        /* \"#utility.yul\":25000:25393   */\n      swap4\n      swap3\n      pop\n      pop\n      pop\n      jump\t// out\n        /* \"#utility.yul\":25399:25459   */\n    tag_370:\n        /* \"#utility.yul\":25427:25430   */\n      0x00\n        /* \"#utility.yul\":25448:25453   */\n      dup2\n        /* \"#utility.yul\":25441:25453   */\n      swap1\n      pop\n        /* \"#utility.yul\":25399:25459   */\n      swap2\n      swap1\n      pop\n      jump\t// out\n        /* \"#utility.yul\":25465:25607   */\n    tag_371:\n        /* \"#utility.yul\":25515:25524   */\n      0x00\n        /* \"#utility.yul\":25548:25601   */\n      tag_629\n        /* \"#utility.yul\":25566:25600   */\n      tag_630\n        /* \"#utility.yul\":25575:25599   */\n      tag_631\n        /* \"#utility.yul\":25593:25598   */\n      dup5\n        /* \"#utility.yul\":25575:25599   */\n      tag_315\n      jump\t// in\n    tag_631:\n        /* \"#utility.yul\":25566:25600   */\n      tag_370\n      jump\t// in\n    tag_630:\n        /* \"#utility.yul\":25548:25601   */\n      tag_315\n      jump\t// in\n    tag_629:\n        /* \"#utility.yul\":25535:25601   */\n      swap1\n      pop\n        /* \"#utility.yul\":25465:25607   */\n      swap2\n      swap1\n      pop\n      jump\t// out\n        /* \"#utility.yul\":25613:25688   */\n    tag_372:\n        /* \"#utility.yul\":25656:25659   */\n      0x00\n        /* \"#utility.yul\":25677:25682   */\n      dup2\n        /* \"#utility.yul\":25670:25682   */\n      swap1\n      pop\n        /* \"#utility.yul\":25613:25688   */\n      swap2\n      swap1\n      pop\n      jump\t// out\n        /* \"#utility.yul\":25694:25963   */\n    tag_373:\n        /* \"#utility.yul\":25804:25843   */\n      tag_634\n        /* \"#utility.yul\":25835:25842   */\n      dup4\n        /* \"#utility.yul\":25804:25843   */\n      tag_371\n      jump\t// in\n    tag_634:\n        /* \"#utility.yul\":25865:25956   */\n      tag_635\n        /* \"#utility.yul\":25914:25955   */\n      tag_636\n        /* \"#utility.yul\":25938:25954   */\n      dup3\n        /* \"#utility.yul\":25914:25955   */\n      tag_372\n      jump\t// in\n    tag_636:\n        /* \"#utility.yul\":25906:25912   */\n      dup5\n        /* \"#utility.yul\":25899:25903   */\n      dup5\n        /* \"#utility.yul\":25893:25904   */\n      sload\n        /* \"#utility.yul\":25865:25956   */\n      tag_369\n      jump\t// in\n    tag_635:\n        /* \"#utility.yul\":25859:25863   */\n      dup3\n        /* \"#utility.yul\":25852:25957   */\n      sstore\n        /* \"#utility.yul\":25770:25963   */\n      pop\n        /* \"#utility.yul\":25694:25963   */\n      pop\n      pop\n      pop\n      jump\t// out\n        /* \"#utility.yul\":25969:26042   */\n    tag_374:\n        /* \"#utility.yul\":26014:26017   */\n      0x00\n        /* \"#utility.yul\":25969:26042   */\n      swap1\n      jump\t// out\n        /* \"#utility.yul\":26048:26237   */\n    tag_375:\n        /* \"#utility.yul\":26125:26157   */\n      tag_639\n      tag_374\n      jump\t// in\n    tag_639:\n        /* \"#utility.yul\":26166:26231   */\n      tag_640\n        /* \"#utility.yul\":26224:26230   */\n      dup2\n        /* \"#utility.yul\":26216:26222   */\n      dup5\n        /* \"#utility.yul\":26210:26214   */\n      dup5\n        /* \"#utility.yul\":26166:26231   */\n      tag_373\n      jump\t// in\n    tag_640:\n        /* \"#utility.yul\":26101:26237   */\n      pop\n        /* \"#utility.yul\":26048:26237   */\n      pop\n      pop\n      jump\t// out\n        /* \"#utility.yul\":26243:26429   */\n    tag_376:\n        /* \"#utility.yul\":26303:26423   */\n    tag_642:\n        /* \"#utility.yul\":26320:26323   */\n      dup2\n        /* \"#utility.yul\":26313:26318   */\n      dup2\n        /* \"#utility.yul\":26310:26324   */\n      lt\n        /* \"#utility.yul\":26303:26423   */\n      iszero\n      tag_644\n      jumpi\n        /* \"#utility.yul\":26374:26413   */\n      tag_645\n        /* \"#utility.yul\":26411:26412   */\n      0x00\n        /* \"#utility.yul\":26404:26409   */\n      dup3\n        /* \"#utility.yul\":26374:26413   */\n      tag_375\n      jump\t// in\n    tag_645:\n        /* \"#utility.yul\":26347:26348   */\n      0x01\n        /* \"#utility.yul\":26340:26345   */\n      dup2\n        /* \"#utility.yul\":26336:26349   */\n      add\n        /* \"#utility.yul\":26327:26349   */\n      swap1\n      pop\n        /* \"#utility.yul\":26303:26423   */\n      jump(tag_642)\n    tag_644:\n        /* \"#utility.yul\":26243:26429   */\n      pop\n      pop\n      jump\t// out\n        /* \"#utility.yul\":26435:26978   */\n    tag_377:\n        /* \"#utility.yul\":26536:26538   */\n      0x1f\n        /* \"#utility.yul\":26531:26534   */\n      dup3\n        /* \"#utility.yul\":26528:26539   */\n      gt\n        /* \"#utility.yul\":26525:26971   */\n      iszero\n      tag_647\n      jumpi\n        /* \"#utility.yul\":26570:26608   */\n      tag_648\n        /* \"#utility.yul\":26602:26607   */\n      dup2\n        /* \"#utility.yul\":26570:26608   */\n      tag_366\n      jump\t// in\n    tag_648:\n        /* \"#utility.yul\":26654:26683   */\n      tag_649\n        /* \"#utility.yul\":26672:26682   */\n      dup5\n        /* \"#utility.yul\":26654:26683   */\n      tag_367\n      jump\t// in\n    tag_649:\n        /* \"#utility.yul\":26644:26652   */\n      dup2\n        /* \"#utility.yul\":26640:26684   */\n      add\n        /* \"#utility.yul\":26837:26839   */\n      0x20\n        /* \"#utility.yul\":26825:26835   */\n      dup6\n        /* \"#utility.yul\":26822:26840   */\n      lt\n        /* \"#utility.yul\":26819:26868   */\n      iszero\n      tag_650\n      jumpi\n        /* \"#utility.yul\":26858:26866   */\n      dup2\n        /* \"#utility.yul\":26843:26866   */\n      swap1\n      pop\n        /* \"#utility.yul\":26819:26868   */\n    tag_650:\n        /* \"#utility.yul\":26881:26961   */\n      tag_651\n        /* \"#utility.yul\":26937:26959   */\n      tag_652\n        /* \"#utility.yul\":26955:26958   */\n      dup6\n        /* \"#utility.yul\":26937:26959   */\n      tag_367\n      jump\t// in\n    tag_652:\n        /* \"#utility.yul\":26927:26935   */\n      dup4\n        /* \"#utility.yul\":26923:26960   */\n      add\n        /* \"#utility.yul\":26910:26921   */\n      dup3\n        /* \"#utility.yul\":26881:26961   */\n      tag_376\n      jump\t// in\n    tag_651:\n        /* \"#utility.yul\":26540:26971   */\n      pop\n      pop\n        /* \"#utility.yul\":26525:26971   */\n    tag_647:\n        /* \"#utility.yul\":26435:26978   */\n      pop\n      pop\n      pop\n      jump\t// out\n        /* \"#utility.yul\":26984:27101   */\n    tag_378:\n        /* \"#utility.yul\":27038:27046   */\n      0x00\n        /* \"#utility.yul\":27088:27093   */\n      dup3\n        /* \"#utility.yul\":27082:27086   */\n      dup3\n        /* \"#utility.yul\":27078:27094   */\n      shr\n        /* \"#utility.yul\":27057:27094   */\n      swap1\n      pop\n        /* \"#utility.yul\":26984:27101   */\n      swap3\n      swap2\n      pop\n      pop\n      jump\t// out\n        /* \"#utility.yul\":27107:27276   */\n    tag_379:\n        /* \"#utility.yul\":27151:27157   */\n      0x00\n        /* \"#utility.yul\":27184:27235   */\n      tag_655\n        /* \"#utility.yul\":27232:27233   */\n      0x00\n        /* \"#utility.yul\":27228:27234   */\n      not\n        /* \"#utility.yul\":27220:27225   */\n      dup5\n        /* \"#utility.yul\":27217:27218   */\n      0x08\n        /* \"#utility.yul\":27213:27226   */\n      mul\n        /* \"#utility.yul\":27184:27235   */\n      tag_378\n      jump\t// in\n    tag_655:\n        /* \"#utility.yul\":27180:27236   */\n      not\n        /* \"#utility.yul\":27265:27269   */\n      dup1\n        /* \"#utility.yul\":27259:27263   */\n      dup4\n        /* \"#utility.yul\":27255:27270   */\n      and\n        /* \"#utility.yul\":27245:27270   */\n      swap2\n      pop\n        /* \"#utility.yul\":27158:27276   */\n      pop\n        /* \"#utility.yul\":27107:27276   */\n      swap3\n      swap2\n      pop\n      pop\n      jump\t// out\n        /* \"#utility.yul\":27281:27576   */\n    tag_380:\n        /* \"#utility.yul\":27357:27361   */\n      0x00\n        /* \"#utility.yul\":27503:27532   */\n      tag_657\n        /* \"#utility.yul\":27528:27531   */\n      dup4\n        /* \"#utility.yul\":27522:27526   */\n      dup4\n        /* \"#utility.yul\":27503:27532   */\n      tag_379\n      jump\t// in\n    tag_657:\n        /* \"#utility.yul\":27495:27532   */\n      swap2\n      pop\n        /* \"#utility.yul\":27565:27568   */\n      dup3\n        /* \"#utility.yul\":27562:27563   */\n      0x02\n        /* \"#utility.yul\":27558:27569   */\n      mul\n        /* \"#utility.yul\":27552:27556   */\n      dup3\n        /* \"#utility.yul\":27549:27570   */\n      or\n        /* \"#utility.yul\":27541:27570   */\n      swap1\n      pop\n        /* \"#utility.yul\":27281:27576   */\n      swap3\n      swap2\n      pop\n      pop\n      jump\t// out\n        /* \"#utility.yul\":27581:28976   */\n    tag_222:\n        /* \"#utility.yul\":27698:27735   */\n      tag_659\n        /* \"#utility.yul\":27731:27734   */\n      dup3\n        /* \"#utility.yul\":27698:27735   */\n      tag_364\n      jump\t// in\n    tag_659:\n        /* \"#utility.yul\":27800:27818   */\n      0xffffffffffffffff\n        /* \"#utility.yul\":27792:27798   */\n      dup2\n        /* \"#utility.yul\":27789:27819   */\n      gt\n        /* \"#utility.yul\":27786:27842   */\n      iszero\n      tag_660\n      jumpi\n        /* \"#utility.yul\":27822:27840   */\n      tag_661\n      tag_101\n      jump\t// in\n    tag_661:\n        /* \"#utility.yul\":27786:27842   */\n    tag_660:\n        /* \"#utility.yul\":27866:27904   */\n      tag_662\n        /* \"#utility.yul\":27898:27902   */\n      dup3\n        /* \"#utility.yul\":27892:27903   */\n      sload\n        /* \"#utility.yul\":27866:27904   */\n      tag_297\n      jump\t// in\n    tag_662:\n        /* \"#utility.yul\":27951:28018   */\n      tag_663\n        /* \"#utility.yul\":28011:28017   */\n      dup3\n        /* \"#utility.yul\":28003:28009   */\n      dup3\n        /* \"#utility.yul\":27997:28001   */\n      dup6\n        /* \"#utility.yul\":27951:28018   */\n      tag_377\n      jump\t// in\n    tag_663:\n        /* \"#utility.yul\":28045:28046   */\n      0x00\n        /* \"#utility.yul\":28069:28073   */\n      0x20\n        /* \"#utility.yul\":28056:28073   */\n      swap1\n      pop\n        /* \"#utility.yul\":28101:28103   */\n      0x1f\n        /* \"#utility.yul\":28093:28099   */\n      dup4\n        /* \"#utility.yul\":28090:28104   */\n      gt\n        /* \"#utility.yul\":28118:28119   */\n      0x01\n        /* \"#utility.yul\":28113:28731   */\n      dup2\n      eq\n      tag_665\n      jumpi\n        /* \"#utility.yul\":28775:28776   */\n      0x00\n        /* \"#utility.yul\":28792:28798   */\n      dup5\n        /* \"#utility.yul\":28789:28866   */\n      iszero\n      tag_666\n      jumpi\n        /* \"#utility.yul\":28841:28850   */\n      dup3\n        /* \"#utility.yul\":28836:28839   */\n      dup8\n        /* \"#utility.yul\":28832:28851   */\n      add\n        /* \"#utility.yul\":28826:28852   */\n      mload\n        /* \"#utility.yul\":28817:28852   */\n      swap1\n      pop\n        /* \"#utility.yul\":28789:28866   */\n    tag_666:\n        /* \"#utility.yul\":28892:28959   */\n      tag_667\n        /* \"#utility.yul\":28952:28958   */\n      dup6\n        /* \"#utility.yul\":28945:28950   */\n      dup3\n        /* \"#utility.yul\":28892:28959   */\n      tag_380\n      jump\t// in\n    tag_667:\n        /* \"#utility.yul\":28886:28890   */\n      dup7\n        /* \"#utility.yul\":28879:28960   */\n      sstore\n        /* \"#utility.yul\":28748:28970   */\n      pop\n        /* \"#utility.yul\":28083:28970   */\n      jump(tag_664)\n        /* \"#utility.yul\":28113:28731   */\n    tag_665:\n        /* \"#utility.yul\":28165:28169   */\n      0x1f\n        /* \"#utility.yul\":28161:28170   */\n      not\n        /* \"#utility.yul\":28153:28159   */\n      dup5\n        /* \"#utility.yul\":28149:28171   */\n      and\n        /* \"#utility.yul\":28199:28236   */\n      tag_668\n        /* \"#utility.yul\":28231:28235   */\n      dup7\n        /* \"#utility.yul\":28199:28236   */\n      tag_366\n      jump\t// in\n    tag_668:\n        /* \"#utility.yul\":28258:28259   */\n      0x00\n        /* \"#utility.yul\":28272:28480   */\n    tag_669:\n        /* \"#utility.yul\":28286:28293   */\n      dup3\n        /* \"#utility.yul\":28283:28284   */\n      dup2\n        /* \"#utility.yul\":28280:28294   */\n      lt\n        /* \"#utility.yul\":28272:28480   */\n      iszero\n      tag_671\n      jumpi\n        /* \"#utility.yul\":28365:28374   */\n      dup5\n        /* \"#utility.yul\":28360:28363   */\n      dup10\n        /* \"#utility.yul\":28356:28375   */\n      add\n        /* \"#utility.yul\":28350:28376   */\n      mload\n        /* \"#utility.yul\":28342:28348   */\n      dup3\n        /* \"#utility.yul\":28335:28377   */\n      sstore\n        /* \"#utility.yul\":28416:28417   */\n      0x01\n        /* \"#utility.yul\":28408:28414   */\n      dup3\n        /* \"#utility.yul\":28404:28418   */\n      add\n        /* \"#utility.yul\":28394:28418   */\n      swap2\n      pop\n        /* \"#utility.yul\":28463:28465   */\n      0x20\n        /* \"#utility.yul\":28452:28461   */\n      dup6\n        /* \"#utility.yul\":28448:28466   */\n      add\n        /* \"#utility.yul\":28435:28466   */\n      swap5\n      pop\n        /* \"#utility.yul\":28309:28313   */\n      0x20\n        /* \"#utility.yul\":28306:28307   */\n      dup2\n        /* \"#utility.yul\":28302:28314   */\n      add\n        /* \"#utility.yul\":28297:28314   */\n      swap1\n      pop\n        /* \"#utility.yul\":28272:28480   */\n      jump(tag_669)\n    tag_671:\n        /* \"#utility.yul\":28508:28514   */\n      dup7\n        /* \"#utility.yul\":28499:28506   */\n      dup4\n        /* \"#utility.yul\":28496:28515   */\n      lt\n        /* \"#utility.yul\":28493:28672   */\n      iszero\n      tag_672\n      jumpi\n        /* \"#utility.yul\":28566:28575   */\n      dup5\n        /* \"#utility.yul\":28561:28564   */\n      dup10\n        /* \"#utility.yul\":28557:28576   */\n      add\n        /* \"#utility.yul\":28551:28577   */\n      mload\n        /* \"#utility.yul\":28609:28657   */\n      tag_673\n        /* \"#utility.yul\":28651:28655   */\n      0x1f\n        /* \"#utility.yul\":28643:28649   */\n      dup10\n        /* \"#utility.yul\":28639:28656   */\n      and\n        /* \"#utility.yul\":28628:28637   */\n      dup3\n        /* \"#utility.yul\":28609:28657   */\n      tag_379\n      jump\t// in\n    tag_673:\n        /* \"#utility.yul\":28601:28607   */\n      dup4\n        /* \"#utility.yul\":28594:28658   */\n      sstore\n        /* \"#utility.yul\":28516:28672   */\n      pop\n        /* \"#utility.yul\":28493:28672   */\n    tag_672:\n        /* \"#utility.yul\":28718:28719   */\n      0x01\n        /* \"#utility.yul\":28714:28715   */\n      0x02\n        /* \"#utility.yul\":28706:28712   */\n      dup9\n        /* \"#utility.yul\":28702:28716   */\n      mul\n        /* \"#utility.yul\":28698:28720   */\n      add\n        /* \"#utility.yul\":28692:28696   */\n      dup9\n        /* \"#utility.yul\":28685:28721   */\n      sstore\n        /* \"#utility.yul\":28120:28731   */\n      pop\n      pop\n      pop\n        /* \"#utility.yul\":28083:28970   */\n    tag_664:\n      pop\n        /* \"#utility.yul\":27673:28976   */\n      pop\n      pop\n      pop\n        /* \"#utility.yul\":27581:28976   */\n      pop\n      pop\n      jump\t// out\n        /* \"#utility.yul\":28982:29131   */\n    tag_381:\n        /* \"#utility.yul\":29031:29037   */\n      0x00\n        /* \"#utility.yul\":29065:29070   */\n      dup2\n        /* \"#utility.yul\":29059:29071   */\n      sload\n        /* \"#utility.yul\":29049:29071   */\n      swap1\n      pop\n        /* \"#utility.yul\":29091:29124   */\n      tag_675\n        /* \"#utility.yul\":29117:29123   */\n      dup2\n        /* \"#utility.yul\":29091:29124   */\n      tag_297\n      jump\t// in\n    tag_675:\n        /* \"#utility.yul\":29081:29124   */\n      swap1\n      pop\n        /* \"#utility.yul\":28982:29131   */\n      swap2\n      swap1\n      pop\n      jump\t// out\n        /* \"#utility.yul\":29137:30588   */\n    tag_239:\n        /* \"#utility.yul\":29248:29251   */\n      dup2\n        /* \"#utility.yul\":29242:29246   */\n      dup2\n        /* \"#utility.yul\":29239:29252   */\n      sub\n        /* \"#utility.yul\":29236:29262   */\n      tag_677\n      jumpi\n        /* \"#utility.yul\":29255:29260   */\n      pop\n      pop\n      jump(tag_676)\n        /* \"#utility.yul\":29236:29262   */\n    tag_677:\n        /* \"#utility.yul\":29286:29320   */\n      tag_678\n        /* \"#utility.yul\":29316:29319   */\n      dup3\n        /* \"#utility.yul\":29286:29320   */\n      tag_381\n      jump\t// in\n    tag_678:\n        /* \"#utility.yul\":29385:29403   */\n      0xffffffffffffffff\n        /* \"#utility.yul\":29377:29383   */\n      dup2\n        /* \"#utility.yul\":29374:29404   */\n      gt\n        /* \"#utility.yul\":29371:29427   */\n      iszero\n      tag_679\n      jumpi\n        /* \"#utility.yul\":29407:29425   */\n      tag_680\n      tag_101\n      jump\t// in\n    tag_680:\n        /* \"#utility.yul\":29371:29427   */\n    tag_679:\n        /* \"#utility.yul\":29451:29489   */\n      tag_681\n        /* \"#utility.yul\":29483:29487   */\n      dup3\n        /* \"#utility.yul\":29477:29488   */\n      sload\n        /* \"#utility.yul\":29451:29489   */\n      tag_297\n      jump\t// in\n    tag_681:\n        /* \"#utility.yul\":29536:29603   */\n      tag_682\n        /* \"#utility.yul\":29596:29602   */\n      dup3\n        /* \"#utility.yul\":29588:29594   */\n      dup3\n        /* \"#utility.yul\":29582:29586   */\n      dup6\n        /* \"#utility.yul\":29536:29603   */\n      tag_377\n      jump\t// in\n    tag_682:\n        /* \"#utility.yul\":29630:29631   */\n      0x00\n        /* \"#utility.yul\":29659:29661   */\n      0x1f\n        /* \"#utility.yul\":29651:29657   */\n      dup4\n        /* \"#utility.yul\":29648:29662   */\n      gt\n        /* \"#utility.yul\":29676:29677   */\n      0x01\n        /* \"#utility.yul\":29671:30343   */\n      dup2\n      eq\n      tag_684\n      jumpi\n        /* \"#utility.yul\":30387:30388   */\n      0x00\n        /* \"#utility.yul\":30404:30410   */\n      dup5\n        /* \"#utility.yul\":30401:30478   */\n      iszero\n      tag_685\n      jumpi\n        /* \"#utility.yul\":30453:30462   */\n      dup3\n        /* \"#utility.yul\":30448:30451   */\n      dup8\n        /* \"#utility.yul\":30444:30463   */\n      add\n        /* \"#utility.yul\":30438:30464   */\n      sload\n        /* \"#utility.yul\":30429:30464   */\n      swap1\n      pop\n        /* \"#utility.yul\":30401:30478   */\n    tag_685:\n        /* \"#utility.yul\":30504:30571   */\n      tag_686\n        /* \"#utility.yul\":30564:30570   */\n      dup6\n        /* \"#utility.yul\":30557:30562   */\n      dup3\n        /* \"#utility.yul\":30504:30571   */\n      tag_380\n      jump\t// in\n    tag_686:\n        /* \"#utility.yul\":30498:30502   */\n      dup7\n        /* \"#utility.yul\":30491:30572   */\n      sstore\n        /* \"#utility.yul\":30360:30582   */\n      pop\n        /* \"#utility.yul\":29641:30582   */\n      jump(tag_683)\n        /* \"#utility.yul\":29671:30343   */\n    tag_684:\n        /* \"#utility.yul\":29723:29727   */\n      0x1f\n        /* \"#utility.yul\":29719:29728   */\n      not\n        /* \"#utility.yul\":29711:29717   */\n      dup5\n        /* \"#utility.yul\":29707:29729   */\n      and\n        /* \"#utility.yul\":29749:29785   */\n      tag_687\n        /* \"#utility.yul\":29781:29784   */\n      dup8\n        /* \"#utility.yul\":29749:29785   */\n      tag_366\n      jump\t// in\n    tag_687:\n        /* \"#utility.yul\":29742:29785   */\n      swap7\n      pop\n        /* \"#utility.yul\":29812:29849   */\n      tag_688\n        /* \"#utility.yul\":29844:29848   */\n      dup7\n        /* \"#utility.yul\":29812:29849   */\n      tag_366\n      jump\t// in\n    tag_688:\n        /* \"#utility.yul\":29871:29872   */\n      0x00\n        /* \"#utility.yul\":29885:30092   */\n    tag_689:\n        /* \"#utility.yul\":29899:29906   */\n      dup3\n        /* \"#utility.yul\":29896:29897   */\n      dup2\n        /* \"#utility.yul\":29893:29907   */\n      lt\n        /* \"#utility.yul\":29885:30092   */\n      iszero\n      tag_691\n      jumpi\n        /* \"#utility.yul\":29978:29987   */\n      dup5\n        /* \"#utility.yul\":29973:29976   */\n      dup10\n        /* \"#utility.yul\":29969:29988   */\n      add\n        /* \"#utility.yul\":29963:29989   */\n      sload\n        /* \"#utility.yul\":29955:29961   */\n      dup3\n        /* \"#utility.yul\":29948:29990   */\n      sstore\n        /* \"#utility.yul\":30029:30030   */\n      0x01\n        /* \"#utility.yul\":30021:30027   */\n      dup3\n        /* \"#utility.yul\":30017:30031   */\n      add\n        /* \"#utility.yul\":30007:30031   */\n      swap2\n      pop\n        /* \"#utility.yul\":30076:30077   */\n      0x01\n        /* \"#utility.yul\":30065:30074   */\n      dup6\n        /* \"#utility.yul\":30061:30078   */\n      add\n        /* \"#utility.yul\":30048:30078   */\n      swap5\n      pop\n        /* \"#utility.yul\":29922:29926   */\n      0x20\n        /* \"#utility.yul\":29919:29920   */\n      dup2\n        /* \"#utility.yul\":29915:29927   */\n      add\n        /* \"#utility.yul\":29910:29927   */\n      swap1\n      pop\n        /* \"#utility.yul\":29885:30092   */\n      jump(tag_689)\n    tag_691:\n        /* \"#utility.yul\":30120:30126   */\n      dup7\n        /* \"#utility.yul\":30111:30118   */\n      dup4\n        /* \"#utility.yul\":30108:30127   */\n      lt\n        /* \"#utility.yul\":30105:30284   */\n      iszero\n      tag_692\n      jumpi\n        /* \"#utility.yul\":30178:30187   */\n      dup5\n        /* \"#utility.yul\":30173:30176   */\n      dup10\n        /* \"#utility.yul\":30169:30188   */\n      add\n        /* \"#utility.yul\":30163:30189   */\n      sload\n        /* \"#utility.yul\":30221:30269   */\n      tag_693\n        /* \"#utility.yul\":30263:30267   */\n      0x1f\n        /* \"#utility.yul\":30255:30261   */\n      dup10\n        /* \"#utility.yul\":30251:30268   */\n      and\n        /* \"#utility.yul\":30240:30249   */\n      dup3\n        /* \"#utility.yul\":30221:30269   */\n      tag_379\n      jump\t// in\n    tag_693:\n        /* \"#utility.yul\":30213:30219   */\n      dup4\n        /* \"#utility.yul\":30206:30270   */\n      sstore\n        /* \"#utility.yul\":30128:30284   */\n      pop\n        /* \"#utility.yul\":30105:30284   */\n    tag_692:\n        /* \"#utility.yul\":30330:30331   */\n      0x01\n        /* \"#utility.yul\":30326:30327   */\n      0x02\n        /* \"#utility.yul\":30318:30324   */\n      dup9\n        /* \"#utility.yul\":30314:30328   */\n      mul\n        /* \"#utility.yul\":30310:30332   */\n      add\n        /* \"#utility.yul\":30304:30308   */\n      dup9\n        /* \"#utility.yul\":30297:30333   */\n      sstore\n        /* \"#utility.yul\":29678:30343   */\n      pop\n      pop\n      pop\n        /* \"#utility.yul\":29641:30582   */\n    tag_683:\n      pop\n        /* \"#utility.yul\":29226:30588   */\n      pop\n      pop\n      pop\n        /* \"#utility.yul\":29137:30588   */\n      pop\n      pop\n    tag_676:\n      jump\t// out\n        /* \"#utility.yul\":30594:30827   */\n    tag_382:\n        /* \"#utility.yul\":30734:30768   */\n      0x4f6e6c79207468652046696c65204f776e65722063616e20636865636b206e75\n        /* \"#utility.yul\":30730:30731   */\n      0x00\n        /* \"#utility.yul\":30722:30728   */\n      dup3\n        /* \"#utility.yul\":30718:30732   */\n      add\n        /* \"#utility.yul\":30711:30769   */\n      mstore\n        /* \"#utility.yul\":30803:30819   */\n      0x6d626572206f6620736861726473000000000000000000000000000000000000\n        /* \"#utility.yul\":30798:30800   */\n      0x20\n        /* \"#utility.yul\":30790:30796   */\n      dup3\n        /* \"#utility.yul\":30786:30801   */\n      add\n        /* \"#utility.yul\":30779:30820   */\n      mstore\n        /* \"#utility.yul\":30594:30827   */\n      pop\n      jump\t// out\n        /* \"#utility.yul\":30833:31199   */\n    tag_383:\n        /* \"#utility.yul\":30975:30978   */\n      0x00\n        /* \"#utility.yul\":30996:31063   */\n      tag_696\n        /* \"#utility.yul\":31060:31062   */\n      0x2e\n        /* \"#utility.yul\":31055:31058   */\n      dup4\n        /* \"#utility.yul\":30996:31063   */\n      tag_345\n      jump\t// in\n    tag_696:\n        /* \"#utility.yul\":30989:31063   */\n      swap2\n      pop\n        /* \"#utility.yul\":31072:31165   */\n      tag_697\n        /* \"#utility.yul\":31161:31164   */\n      dup3\n        /* \"#utility.yul\":31072:31165   */\n      tag_382\n      jump\t// in\n    tag_697:\n        /* \"#utility.yul\":31190:31192   */\n      0x40\n        /* \"#utility.yul\":31185:31188   */\n      dup3\n        /* \"#utility.yul\":31181:31193   */\n      add\n        /* \"#utility.yul\":31174:31193   */\n      swap1\n      pop\n        /* \"#utility.yul\":30833:31199   */\n      swap2\n      swap1\n      pop\n      jump\t// out\n        /* \"#utility.yul\":31205:31624   */\n    tag_262:\n        /* \"#utility.yul\":31371:31375   */\n      0x00\n        /* \"#utility.yul\":31409:31411   */\n      0x20\n        /* \"#utility.yul\":31398:31407   */\n      dup3\n        /* \"#utility.yul\":31394:31412   */\n      add\n        /* \"#utility.yul\":31386:31412   */\n      swap1\n      pop\n        /* \"#utility.yul\":31458:31467   */\n      dup2\n        /* \"#utility.yul\":31452:31456   */\n      dup2\n        /* \"#utility.yul\":31448:31468   */\n      sub\n        /* \"#utility.yul\":31444:31445   */\n      0x00\n        /* \"#utility.yul\":31433:31442   */\n      dup4\n        /* \"#utility.yul\":31429:31446   */\n      add\n        /* \"#utility.yul\":31422:31469   */\n      mstore\n        /* \"#utility.yul\":31486:31617   */\n      tag_699\n        /* \"#utility.yul\":31612:31616   */\n      dup2\n        /* \"#utility.yul\":31486:31617   */\n      tag_383\n      jump\t// in\n    tag_699:\n        /* \"#utility.yul\":31478:31617   */\n      swap1\n      pop\n        /* \"#utility.yul\":31205:31624   */\n      swap2\n      swap1\n      pop\n      jump\t// out\n        /* \"#utility.yul\":31630:31855   */\n    tag_384:\n        /* \"#utility.yul\":31770:31804   */\n      0x4f776e61626c653a206e6577206f776e657220697320746865207a65726f2061\n        /* \"#utility.yul\":31766:31767   */\n      0x00\n        /* \"#utility.yul\":31758:31764   */\n      dup3\n        /* \"#utility.yul\":31754:31768   */\n      add\n        /* \"#utility.yul\":31747:31805   */\n      mstore\n        /* \"#utility.yul\":31839:31847   */\n      0x6464726573730000000000000000000000000000000000000000000000000000\n        /* \"#utility.yul\":31834:31836   */\n      0x20\n        /* \"#utility.yul\":31826:31832   */\n      dup3\n        /* \"#utility.yul\":31822:31837   */\n      add\n        /* \"#utility.yul\":31815:31848   */\n      mstore\n        /* \"#utility.yul\":31630:31855   */\n      pop\n      jump\t// out\n        /* \"#utility.yul\":31861:32227   */\n    tag_385:\n        /* \"#utility.yul\":32003:32006   */\n      0x00\n        /* \"#utility.yul\":32024:32091   */\n      tag_702\n        /* \"#utility.yul\":32088:32090   */\n      0x26\n        /* \"#utility.yul\":32083:32086   */\n      dup4\n        /* \"#utility.yul\":32024:32091   */\n      tag_345\n      jump\t// in\n    tag_702:\n        /* \"#utility.yul\":32017:32091   */\n      swap2\n      pop\n        /* \"#utility.yul\":32100:32193   */\n      tag_703\n        /* \"#utility.yul\":32189:32192   */\n      dup3\n        /* \"#utility.yul\":32100:32193   */\n      tag_384\n      jump\t// in\n    tag_703:\n        /* \"#utility.yul\":32218:32220   */\n      0x40\n        /* \"#utility.yul\":32213:32216   */\n      dup3\n        /* \"#utility.yul\":32209:32221   */\n      add\n        /* \"#utility.yul\":32202:32221   */\n      swap1\n      pop\n        /* \"#utility.yul\":31861:32227   */\n      swap2\n      swap1\n      pop\n      jump\t// out\n        /* \"#utility.yul\":32233:32652   */\n    tag_268:\n        /* \"#utility.yul\":32399:32403   */\n      0x00\n        /* \"#utility.yul\":32437:32439   */\n      0x20\n        /* \"#utility.yul\":32426:32435   */\n      dup3\n        /* \"#utility.yul\":32422:32440   */\n      add\n        /* \"#utility.yul\":32414:32440   */\n      swap1\n      pop\n        /* \"#utility.yul\":32486:32495   */\n      dup2\n        /* \"#utility.yul\":32480:32484   */\n      dup2\n        /* \"#utility.yul\":32476:32496   */\n      sub\n        /* \"#utility.yul\":32472:32473   */\n      0x00\n        /* \"#utility.yul\":32461:32470   */\n      dup4\n        /* \"#utility.yul\":32457:32474   */\n      add\n        /* \"#utility.yul\":32450:32497   */\n      mstore\n        /* \"#utility.yul\":32514:32645   */\n      tag_705\n        /* \"#utility.yul\":32640:32644   */\n      dup2\n        /* \"#utility.yul\":32514:32645   */\n      tag_385\n      jump\t// in\n    tag_705:\n        /* \"#utility.yul\":32506:32645   */\n      swap1\n      pop\n        /* \"#utility.yul\":32233:32652   */\n      swap2\n      swap1\n      pop\n      jump\t// out\n        /* \"#utility.yul\":32658:32840   */\n    tag_386:\n        /* \"#utility.yul\":32798:32832   */\n      0x4f776e61626c653a2063616c6c6572206973206e6f7420746865206f776e6572\n        /* \"#utility.yul\":32794:32795   */\n      0x00\n        /* \"#utility.yul\":32786:32792   */\n      dup3\n        /* \"#utility.yul\":32782:32796   */\n      add\n        /* \"#utility.yul\":32775:32833   */\n      mstore\n        /* \"#utility.yul\":32658:32840   */\n      pop\n      jump\t// out\n        /* \"#utility.yul\":32846:33212   */\n    tag_387:\n        /* \"#utility.yul\":32988:32991   */\n      0x00\n        /* \"#utility.yul\":33009:33076   */\n      tag_708\n        /* \"#utility.yul\":33073:33075   */\n      0x20\n        /* \"#utility.yul\":33068:33071   */\n      dup4\n        /* \"#utility.yul\":33009:33076   */\n      tag_345\n      jump\t// in\n    tag_708:\n        /* \"#utility.yul\":33002:33076   */\n      swap2\n      pop\n        /* \"#utility.yul\":33085:33178   */\n      tag_709\n        /* \"#utility.yul\":33174:33177   */\n      dup3\n        /* \"#utility.yul\":33085:33178   */\n      tag_386\n      jump\t// in\n    tag_709:\n        /* \"#utility.yul\":33203:33205   */\n      0x20\n        /* \"#utility.yul\":33198:33201   */\n      dup3\n        /* \"#utility.yul\":33194:33206   */\n      add\n        /* \"#utility.yul\":33187:33206   */\n      swap1\n      pop\n        /* \"#utility.yul\":32846:33212   */\n      swap2\n      swap1\n      pop\n      jump\t// out\n        /* \"#utility.yul\":33218:33637   */\n    tag_286:\n        /* \"#utility.yul\":33384:33388   */\n      0x00\n        /* \"#utility.yul\":33422:33424   */\n      0x20\n        /* \"#utility.yul\":33411:33420   */\n      dup3\n        /* \"#utility.yul\":33407:33425   */\n      add\n        /* \"#utility.yul\":33399:33425   */\n      swap1\n      pop\n        /* \"#utility.yul\":33471:33480   */\n      dup2\n        /* \"#utility.yul\":33465:33469   */\n      dup2\n        /* \"#utility.yul\":33461:33481   */\n      sub\n        /* \"#utility.yul\":33457:33458   */\n      0x00\n        /* \"#utility.yul\":33446:33455   */\n      dup4\n        /* \"#utility.yul\":33442:33459   */\n      add\n        /* \"#utility.yul\":33435:33482   */\n      mstore\n        /* \"#utility.yul\":33499:33630   */\n      tag_711\n        /* \"#utility.yul\":33625:33629   */\n      dup2\n        /* \"#utility.yul\":33499:33630   */\n      tag_387\n      jump\t// in\n    tag_711:\n        /* \"#utility.yul\":33491:33630   */\n      swap1\n      pop\n        /* \"#utility.yul\":33218:33637   */\n      swap2\n      swap1\n      pop\n      jump\t// out\n\n    auxdata: 0xa26469706673582212208bd6f46c2c33b442a0767c83874f826ebaf5ecf18a9949ef6f7be8c251c83f8c64736f6c63430008120033\n}\n",
				"bytecode": {
					"linkReferences": {},
					"object": "60806040523480156200001157600080fd5b5062000032620000266200003860201b60201c565b6200004060201b60201c565b62000104565b600033905090565b60008060009054906101000a900473ffffffffffffffffffffffffffffffffffffffff169050816000806101000a81548173ffffffffffffffffffffffffffffffffffffffff021916908373ffffffffffffffffffffffffffffffffffffffff1602179055508173ffffffffffffffffffffffffffffffffffffffff168173ffffffffffffffffffffffffffffffffffffffff167f8be0079c531659141344cd1fd0a4f28419497f9722a3daafe3b4186f6b6457e060405160405180910390a35050565b612c3680620001146000396000f3fe608060405234801561001057600080fd5b50600436106100f55760003560e01c80638381d79911610097578063bbbc1f0811610066578063bbbc1f081461025a578063d5faa8d114610276578063e0400f7414610292578063f2fde38b146102c2576100f5565b80638381d799146101d45780638d22899b146101f05780638da5cb5b1461022057806393ed69001461023e576100f5565b806345246f8e116100d357806345246f8e146101625780637083ffd41461017e578063715018a61461019a578063828e6f1a146101a4576100f5565b8063103f90a3146100fa57806328d305ab146101165780632de1468e14610146575b600080fd5b610114600480360381019061010f9190611b97565b6102de565b005b610130600480360381019061012b9190611bf3565b610487565b60405161013d9190611cde565b60405180910390f35b610160600480360381019061015b9190611bf3565b6106b3565b005b61017c60048036038101906101779190611bf3565b6109f7565b005b61019860048036038101906101939190611d00565b610b93565b005b6101a2610cd5565b005b6101be60048036038101906101b99190611db1565b610ce9565b6040516101cb9190611ded565b60405180910390f35b6101ee60048036038101906101e99190611e08565b610df8565b005b61020a60048036038101906102059190611db1565b610f2b565b6040516102179190611f06565b60405180910390f35b610228611119565b6040516102359190611f37565b60405180910390f35b61025860048036038101906102539190612007565b611142565b005b610274600480360381019061026f9190611db1565b61122e565b005b610290600480360381019061028b919061208a565b611438565b005b6102ac60048036038101906102a79190611bf3565b6114f3565b6040516102b99190611ded565b60405180910390f35b6102dc60048036038101906102d79190611db1565b6115ed565b005b8160056000826bffffffffffffffffffffffff19166bffffffffffffffffffffffff1916815260200190815260200160002060009054906101000a900473ffffffffffffffffffffffffffffffffffffffff1673ffffffffffffffffffffffffffffffffffffffff163373ffffffffffffffffffffffffffffffffffffffff161480610370575061036f8133611670565b5b6103af576040517f08c379a00000000000000000000000000000000000000000000000000000000081526004016103a69061214d565b60405180910390fd5b60008251116103f3576040517f08c379a00000000000000000000000000000000000000000000000000000000081526004016103ea906121b9565b60405180910390fd5b8160096000856bffffffffffffffffffffffff19166bffffffffffffffffffffffff1916815260200190815260200160002090805190602001906104389291906118d1565b508151600d6000856bffffffffffffffffffffffff19166bffffffffffffffffffffffff19168152602001908152602001600020600082825461047b9190612208565b92505081905550505050565b606060056000836bffffffffffffffffffffffff19166bffffffffffffffffffffffff1916815260200190815260200160002060009054906101000a900473ffffffffffffffffffffffffffffffffffffffff1673ffffffffffffffffffffffffffffffffffffffff163373ffffffffffffffffffffffffffffffffffffffff1614610548576040517f08c379a000000000000000000000000000000000000000000000000000000000815260040161053f906122ae565b60405180910390fd5b6000600d6000846bffffffffffffffffffffffff19166bffffffffffffffffffffffff191681526020019081526020016000205467ffffffffffffffff81111561059557610594611a1e565b5b6040519080825280602002602001820160405280156105c35781602001602082028036833780820191505090505b5090506000805b6003805490508110156106a857846bffffffffffffffffffffffff191660066000600384815481106105ff576105fe6122ce565b5b906000526020600020906002020160000154815260200190815260200160002060009054906101000a900460601b6bffffffffffffffffffffffff1916036106955760038181548110610655576106546122ce565b5b90600052602060002090600202016000015483838151811061067a576106796122ce565b5b6020026020010181815250508180610691906122fd565b9250505b80806106a0906122fd565b9150506105ca565b508192505050919050565b60016106be826116fa565b146106fe576040517f08c379a00000000000000000000000000000000000000000000000000000000081526004016106f590612391565b60405180910390fd5b60056000826bffffffffffffffffffffffff19166bffffffffffffffffffffffff1916815260200190815260200160002060009054906101000a900473ffffffffffffffffffffffffffffffffffffffff1673ffffffffffffffffffffffffffffffffffffffff163373ffffffffffffffffffffffffffffffffffffffff16146107bd576040517f08c379a00000000000000000000000000000000000000000000000000000000081526004016107b490612423565b60405180910390fd5b600060086000836bffffffffffffffffffffffff19166bffffffffffffffffffffffff19168152602001908152602001600020549050600460016004805490506108079190612443565b81548110610818576108176122ce565b5b9060005260206000200160009054906101000a900460601b60048281548110610844576108436122ce565b5b9060005260206000200160006101000a81548173ffffffffffffffffffffffffffffffffffffffff021916908360601c0217905550600480548061088b5761088a612477565b5b6001900381819060005260206000200160006101000a81549073ffffffffffffffffffffffffffffffffffffffff02191690559055600c60003373ffffffffffffffffffffffffffffffffffffffff1673ffffffffffffffffffffffffffffffffffffffff1681526020019081526020016000206000815480929190610910906124a6565b919050555060086000836bffffffffffffffffffffffff19166bffffffffffffffffffffffff191681526020019081526020016000206000905560096000836bffffffffffffffffffffffff19166bffffffffffffffffffffffff191681526020019081526020016000206000610987919061191e565b600d6000836bffffffffffffffffffffffff19166bffffffffffffffffffffffff19168152602001908152602001600020600090557fda13aa46e5e29a22ea7832e5283268a938c39ddc897441a090548cf71a8f81c2826040516109eb91906124de565b60405180910390a15050565b6004819080600181540180825580915050600190039060005260206000200160009091909190916101000a81548173ffffffffffffffffffffffffffffffffffffffff021916908360601c021790555060006001600480549050610a5b9190612443565b90503360056000846bffffffffffffffffffffffff19166bffffffffffffffffffffffff1916815260200190815260200160002060006101000a81548173ffffffffffffffffffffffffffffffffffffffff021916908373ffffffffffffffffffffffffffffffffffffffff1602179055508060086000846bffffffffffffffffffffffff19166bffffffffffffffffffffffff1916815260200190815260200160002081905550600c60003373ffffffffffffffffffffffffffffffffffffffff1673ffffffffffffffffffffffffffffffffffffffff1681526020019081526020016000206000815480929190610b53906122fd565b91905055507fa7714b5994b2cbb93bfe098ef622436aa3e9be80ed5f01b373fd3aa629e1496282604051610b8791906124de565b60405180910390a15050565b60005b600180549050811015610ccf578160018281548110610bb857610bb76122ce565b5b90600052602060002090600502016001015403610cbc578260018281548110610be457610be36122ce565b5b90600052602060002090600502016002015460018381548110610c0a57610c096122ce565b5b906000526020600020906005020160030154610c269190612443565b1015610c67576040517f08c379a0000000000000000000000000000000000000000000000000000000008152600401610c5e9061256b565b60405180910390fd5b8260018281548110610c7c57610c7b6122ce565b5b90600052602060002090600502016002016000828254610c9c9190612208565b925050819055508160076000868152602001908152602001600020819055505b8080610cc7906122fd565b915050610b96565b50505050565b610cdd611787565b610ce76000611805565b565b600080600090505b600180549050811015610db7578273ffffffffffffffffffffffffffffffffffffffff1660018281548110610d2957610d286122ce565b5b906000526020600020906005020160000160009054906101000a900473ffffffffffffffffffffffffffffffffffffffff1673ffffffffffffffffffffffffffffffffffffffff1603610da45760018181548110610d8a57610d896122ce565b5b906000526020600020906005020160010154915050610df3565b8080610daf906122fd565b915050610cf1565b506040517f08c379a0000000000000000000000000000000000000000000000000000000008152600401610dea906125d7565b60405180910390fd5b919050565b60056000836bffffffffffffffffffffffff19166bffffffffffffffffffffffff1916815260200190815260200160002060009054906101000a900473ffffffffffffffffffffffffffffffffffffffff1673ffffffffffffffffffffffffffffffffffffffff163373ffffffffffffffffffffffffffffffffffffffff1614610eb7576040517f08c379a0000000000000000000000000000000000000000000000000000000008152600401610eae90612669565b60405180910390fd5b8060056000846bffffffffffffffffffffffff19166bffffffffffffffffffffffff1916815260200190815260200160002060006101000a81548173ffffffffffffffffffffffffffffffffffffffff021916908373ffffffffffffffffffffffffffffffffffffffff1602179055505050565b6060610f35611787565b6000600c60008473ffffffffffffffffffffffffffffffffffffffff1673ffffffffffffffffffffffffffffffffffffffff1681526020019081526020016000205467ffffffffffffffff811115610f9057610f8f611a1e565b5b604051908082528060200260200182016040528015610fbe5781602001602082028036833780820191505090505b5090506000805b60048054905081101561110e578473ffffffffffffffffffffffffffffffffffffffff166005600060048481548110611001576110006122ce565b5b9060005260206000200160009054906101000a900460601b6bffffffffffffffffffffffff19166bffffffffffffffffffffffff1916815260200190815260200160002060009054906101000a900473ffffffffffffffffffffffffffffffffffffffff1673ffffffffffffffffffffffffffffffffffffffff16036110fb5760048181548110611095576110946122ce565b5b9060005260206000200160009054906101000a900460601b8383815181106110c0576110bf6122ce565b5b60200260200101906bffffffffffffffffffffffff191690816bffffffffffffffffffffffff19168152505081806110f7906122fd565b9250505b8080611106906122fd565b915050610fc5565b508192505050919050565b60008060009054906101000a900473ffffffffffffffffffffffffffffffffffffffff16905090565b60016040518060a001604052808673ffffffffffffffffffffffffffffffffffffffff1681526020018581526020016000815260200184815260200183815250908060018154018082558091505060019003906000526020600020906005020160009091909190915060008201518160000160006101000a81548173ffffffffffffffffffffffffffffffffffffffff021916908373ffffffffffffffffffffffffffffffffffffffff160217905550602082015181600101556040820151816002015560608201518160030155608082015181600401908161122591906128a0565b50505050505050565b60005b600180549050811015611434578173ffffffffffffffffffffffffffffffffffffffff1660018281548110611269576112686122ce565b5b906000526020600020906005020160000160009054906101000a900473ffffffffffffffffffffffffffffffffffffffff1673ffffffffffffffffffffffffffffffffffffffff16036114215760018080805490506112c89190612443565b815481106112d9576112d86122ce565b5b9060005260206000209060050201600182815481106112fb576112fa6122ce565b5b90600052602060002090600502016000820160009054906101000a900473ffffffffffffffffffffffffffffffffffffffff168160000160006101000a81548173ffffffffffffffffffffffffffffffffffffffff021916908373ffffffffffffffffffffffffffffffffffffffff160217905550600182015481600101556002820154816002015560038201548160030155600482018160040190816113a29190612988565b5090505060018054806113b8576113b7612477565b5b6001900381819060005260206000209060050201600080820160006101000a81549073ffffffffffffffffffffffffffffffffffffffff021916905560018201600090556002820160009055600382016000905560048201600061141c919061193f565b505090555b808061142c906122fd565b915050611231565b5050565b60005b6001805490508110156114ee576007600084815260200190815260200160002054600182815481106114705761146f6122ce565b5b906000526020600020906005020160010154036114db57816001828154811061149c5761149b6122ce565b5b906000526020600020906005020160020160008282546114bc9190612443565b9250508190555060076000848152602001908152602001600020600090555b80806114e6906122fd565b91505061143b565b505050565b600060056000836bffffffffffffffffffffffff19166bffffffffffffffffffffffff1916815260200190815260200160002060009054906101000a900473ffffffffffffffffffffffffffffffffffffffff1673ffffffffffffffffffffffffffffffffffffffff163373ffffffffffffffffffffffffffffffffffffffff16146115b4576040517f08c379a00000000000000000000000000000000000000000000000000000000081526004016115ab90612ae2565b60405180910390fd5b600d6000836bffffffffffffffffffffffff19166bffffffffffffffffffffffff19168152602001908152602001600020549050919050565b6115f5611787565b600073ffffffffffffffffffffffffffffffffffffffff168173ffffffffffffffffffffffffffffffffffffffff1603611664576040517f08c379a000000000000000000000000000000000000000000000000000000000815260040161165b90612b74565b60405180910390fd5b61166d81611805565b50565b60008173ffffffffffffffffffffffffffffffffffffffff1660056000856bffffffffffffffffffffffff19166bffffffffffffffffffffffff1916815260200190815260200160002060009054906101000a900473ffffffffffffffffffffffffffffffffffffffff1673ffffffffffffffffffffffffffffffffffffffff1614905092915050565b600080600090505b60048054905081101561177c57826bffffffffffffffffffffffff191660048281548110611733576117326122ce565b5b9060005260206000200160009054906101000a900460601b6bffffffffffffffffffffffff191603611769576001915050611782565b8080611774906122fd565b915050611702565b50600090505b919050565b61178f6118c9565b73ffffffffffffffffffffffffffffffffffffffff166117ad611119565b73ffffffffffffffffffffffffffffffffffffffff1614611803576040517f08c379a00000000000000000000000000000000000000000000000000000000081526004016117fa90612be0565b60405180910390fd5b565b60008060009054906101000a900473ffffffffffffffffffffffffffffffffffffffff169050816000806101000a81548173ffffffffffffffffffffffffffffffffffffffff021916908373ffffffffffffffffffffffffffffffffffffffff1602179055508173ffffffffffffffffffffffffffffffffffffffff168173ffffffffffffffffffffffffffffffffffffffff167f8be0079c531659141344cd1fd0a4f28419497f9722a3daafe3b4186f6b6457e060405160405180910390a35050565b600033905090565b82805482825590600052602060002090810192821561190d579160200282015b8281111561190c5782518255916020019190600101906118f1565b5b50905061191a919061197f565b5090565b508054600082559060005260206000209081019061193c919061197f565b50565b50805461194b906126c3565b6000825580601f1061195d575061197c565b601f01602090049060005260206000209081019061197b919061197f565b5b50565b5b80821115611998576000816000905550600101611980565b5090565b6000604051905090565b600080fd5b600080fd5b60007fffffffffffffffffffffffffffffffffffffffff00000000000000000000000082169050919050565b6119e5816119b0565b81146119f057600080fd5b50565b600081359050611a02816119dc565b92915050565b600080fd5b6000601f19601f8301169050919050565b7f4e487b7100000000000000000000000000000000000000000000000000000000600052604160045260246000fd5b611a5682611a0d565b810181811067ffffffffffffffff82111715611a7557611a74611a1e565b5b80604052505050565b6000611a8861199c565b9050611a948282611a4d565b919050565b600067ffffffffffffffff821115611ab457611ab3611a1e565b5b602082029050602081019050919050565b600080fd5b6000819050919050565b611add81611aca565b8114611ae857600080fd5b50565b600081359050611afa81611ad4565b92915050565b6000611b13611b0e84611a99565b611a7e565b90508083825260208201905060208402830185811115611b3657611b35611ac5565b5b835b81811015611b5f5780611b4b8882611aeb565b845260208401935050602081019050611b38565b5050509392505050565b600082601f830112611b7e57611b7d611a08565b5b8135611b8e848260208601611b00565b91505092915050565b60008060408385031215611bae57611bad6119a6565b5b6000611bbc858286016119f3565b925050602083013567ffffffffffffffff811115611bdd57611bdc6119ab565b5b611be985828601611b69565b9150509250929050565b600060208284031215611c0957611c086119a6565b5b6000611c17848285016119f3565b91505092915050565b600081519050919050565b600082825260208201905092915050565b6000819050602082019050919050565b611c5581611aca565b82525050565b6000611c678383611c4c565b60208301905092915050565b6000602082019050919050565b6000611c8b82611c20565b611c958185611c2b565b9350611ca083611c3c565b8060005b83811015611cd1578151611cb88882611c5b565b9750611cc383611c73565b925050600181019050611ca4565b5085935050505092915050565b60006020820190508181036000830152611cf88184611c80565b905092915050565b600080600060608486031215611d1957611d186119a6565b5b6000611d2786828701611aeb565b9350506020611d3886828701611aeb565b9250506040611d4986828701611aeb565b9150509250925092565b600073ffffffffffffffffffffffffffffffffffffffff82169050919050565b6000611d7e82611d53565b9050919050565b611d8e81611d73565b8114611d9957600080fd5b50565b600081359050611dab81611d85565b92915050565b600060208284031215611dc757611dc66119a6565b5b6000611dd584828501611d9c565b91505092915050565b611de781611aca565b82525050565b6000602082019050611e026000830184611dde565b92915050565b60008060408385031215611e1f57611e1e6119a6565b5b6000611e2d858286016119f3565b9250506020611e3e85828601611d9c565b9150509250929050565b600081519050919050565b600082825260208201905092915050565b6000819050602082019050919050565b611e7d816119b0565b82525050565b6000611e8f8383611e74565b60208301905092915050565b6000602082019050919050565b6000611eb382611e48565b611ebd8185611e53565b9350611ec883611e64565b8060005b83811015611ef9578151611ee08882611e83565b9750611eeb83611e9b565b925050600181019050611ecc565b5085935050505092915050565b60006020820190508181036000830152611f208184611ea8565b905092915050565b611f3181611d73565b82525050565b6000602082019050611f4c6000830184611f28565b92915050565b600080fd5b600067ffffffffffffffff821115611f7257611f71611a1e565b5b611f7b82611a0d565b9050602081019050919050565b82818337600083830152505050565b6000611faa611fa584611f57565b611a7e565b905082815260208101848484011115611fc657611fc5611f52565b5b611fd1848285611f88565b509392505050565b600082601f830112611fee57611fed611a08565b5b8135611ffe848260208601611f97565b91505092915050565b60008060008060808587031215612021576120206119a6565b5b600061202f87828801611d9c565b945050602061204087828801611aeb565b935050604061205187828801611aeb565b925050606085013567ffffffffffffffff811115612072576120716119ab565b5b61207e87828801611fd9565b91505092959194509250565b600080604083850312156120a1576120a06119a6565b5b60006120af85828601611aeb565b92505060206120c085828601611aeb565b9150509250929050565b600082825260208201905092915050565b7f43616c6c6572206973206e6f74207468652066696c65206f776e6572206f722060008201527f646f6573206e6f74206861766520636f6e73656e740000000000000000000000602082015250565b60006121376035836120ca565b9150612142826120db565b604082019050919050565b600060208201905081810360008301526121668161212a565b9050919050565b7f536861726420494473206d757374206e6f7420626520656d7074790000000000600082015250565b60006121a3601b836120ca565b91506121ae8261216d565b602082019050919050565b600060208201905081810360008301526121d281612196565b9050919050565b7f4e487b7100000000000000000000000000000000000000000000000000000000600052601160045260246000fd5b600061221382611aca565b915061221e83611aca565b9250828201905080821115612236576122356121d9565b5b92915050565b7f4f6e6c79207468652046696c65204f776e65722063616e20616363657373206960008201527f7473207368617264732e00000000000000000000000000000000000000000000602082015250565b6000612298602a836120ca565b91506122a38261223c565b604082019050919050565b600060208201905081810360008301526122c78161228b565b9050919050565b7f4e487b7100000000000000000000000000000000000000000000000000000000600052603260045260246000fd5b600061230882611aca565b91507fffffffffffffffffffffffffffffffffffffffffffffffffffffffffffffffff820361233a576123396121d9565b5b600182019050919050565b7f5468652066696c6520646f6573206e6f742065786973742e0000000000000000600082015250565b600061237b6018836120ca565b915061238682612345565b602082019050919050565b600060208201905081810360008301526123aa8161236e565b9050919050565b7f4f6e6c792046696c65204f776e65722063616e2064656c65746520746865206660008201527f696c652100000000000000000000000000000000000000000000000000000000602082015250565b600061240d6024836120ca565b9150612418826123b1565b604082019050919050565b6000602082019050818103600083015261243c81612400565b9050919050565b600061244e82611aca565b915061245983611aca565b9250828203905081811115612471576124706121d9565b5b92915050565b7f4e487b7100000000000000000000000000000000000000000000000000000000600052603160045260246000fd5b60006124b182611aca565b9150600082036124c4576124c36121d9565b5b600182039050919050565b6124d8816119b0565b82525050565b60006020820190506124f360008301846124cf565b92915050565b7f6661726d657220646f6573206e6f74206861766520656e6f756768207370616360008201527f6500000000000000000000000000000000000000000000000000000000000000602082015250565b60006125556021836120ca565b9150612560826124f9565b604082019050919050565b6000602082019050818103600083015261258481612548565b9050919050565b7f4e6f7420666f756e640000000000000000000000000000000000000000000000600082015250565b60006125c16009836120ca565b91506125cc8261258b565b602082019050919050565b600060208201905081810360008301526125f0816125b4565b9050919050565b7f4f6e6c79207468652046696c65204f776e65722063616e20676976652061776160008201527f79206f776e657273686970206f662074686569722066696c6500000000000000602082015250565b60006126536039836120ca565b915061265e826125f7565b604082019050919050565b6000602082019050818103600083015261268281612646565b9050919050565b600081519050919050565b7f4e487b7100000000000000000000000000000000000000000000000000000000600052602260045260246000fd5b600060028204905060018216806126db57607f821691505b6020821081036126ee576126ed612694565b5b50919050565b60008190508160005260206000209050919050565b60006020601f8301049050919050565b600082821b905092915050565b6000600883026127567fffffffffffffffffffffffffffffffffffffffffffffffffffffffffffffffff82612719565b6127608683612719565b95508019841693508086168417925050509392505050565b6000819050919050565b600061279d61279861279384611aca565b612778565b611aca565b9050919050565b6000819050919050565b6127b783612782565b6127cb6127c3826127a4565b848454612726565b825550505050565b600090565b6127e06127d3565b6127eb8184846127ae565b505050565b5b8181101561280f576128046000826127d8565b6001810190506127f1565b5050565b601f82111561285457612825816126f4565b61282e84612709565b8101602085101561283d578190505b61285161284985612709565b8301826127f0565b50505b505050565b600082821c905092915050565b600061287760001984600802612859565b1980831691505092915050565b60006128908383612866565b9150826002028217905092915050565b6128a982612689565b67ffffffffffffffff8111156128c2576128c1611a1e565b5b6128cc82546126c3565b6128d7828285612813565b600060209050601f83116001811461290a57600084156128f8578287015190505b6129028582612884565b86555061296a565b601f198416612918866126f4565b60005b828110156129405784890151825560018201915060208501945060208101905061291b565b8683101561295d5784890151612959601f891682612866565b8355505b6001600288020188555050505b505050505050565b600081549050612981816126c3565b9050919050565b818103612996575050612a6e565b61299f82612972565b67ffffffffffffffff8111156129b8576129b7611a1e565b5b6129c282546126c3565b6129cd828285612813565b6000601f8311600181146129fc57600084156129ea578287015490505b6129f48582612884565b865550612a67565b601f198416612a0a876126f4565b9650612a15866126f4565b60005b82811015612a3d57848901548255600182019150600185019450602081019050612a18565b86831015612a5a5784890154612a56601f891682612866565b8355505b6001600288020188555050505b5050505050505b565b7f4f6e6c79207468652046696c65204f776e65722063616e20636865636b206e7560008201527f6d626572206f6620736861726473000000000000000000000000000000000000602082015250565b6000612acc602e836120ca565b9150612ad782612a70565b604082019050919050565b60006020820190508181036000830152612afb81612abf565b9050919050565b7f4f776e61626c653a206e6577206f776e657220697320746865207a65726f206160008201527f6464726573730000000000000000000000000000000000000000000000000000602082015250565b6000612b5e6026836120ca565b9150612b6982612b02565b604082019050919050565b60006020820190508181036000830152612b8d81612b51565b9050919050565b7f4f776e61626c653a2063616c6c6572206973206e6f7420746865206f776e6572600082015250565b6000612bca6020836120ca565b9150612bd582612b94565b602082019050919050565b60006020820190508181036000830152612bf981612bbd565b905091905056fea26469706673582212208bd6f46c2c33b442a0767c83874f826ebaf5ecf18a9949ef6f7be8c251c83f8c64736f6c63430008120033",
					"opcodes": "PUSH1 0x80 PUSH1 0x40 MSTORE CALLVALUE DUP1 ISZERO PUSH3 0x11 JUMPI PUSH1 0x0 DUP1 REVERT JUMPDEST POP PUSH3 0x32 PUSH3 0x26 PUSH3 0x38 PUSH1 0x20 SHL PUSH1 0x20 SHR JUMP JUMPDEST PUSH3 0x40 PUSH1 0x20 SHL PUSH1 0x20 SHR JUMP JUMPDEST PUSH3 0x104 JUMP JUMPDEST PUSH1 0x0 CALLER SWAP1 POP SWAP1 JUMP JUMPDEST PUSH1 0x0 DUP1 PUSH1 0x0 SWAP1 SLOAD SWAP1 PUSH2 0x100 EXP SWAP1 DIV PUSH20 0xFFFFFFFFFFFFFFFFFFFFFFFFFFFFFFFFFFFFFFFF AND SWAP1 POP DUP2 PUSH1 0x0 DUP1 PUSH2 0x100 EXP DUP2 SLOAD DUP2 PUSH20 0xFFFFFFFFFFFFFFFFFFFFFFFFFFFFFFFFFFFFFFFF MUL NOT AND SWAP1 DUP4 PUSH20 0xFFFFFFFFFFFFFFFFFFFFFFFFFFFFFFFFFFFFFFFF AND MUL OR SWAP1 SSTORE POP DUP2 PUSH20 0xFFFFFFFFFFFFFFFFFFFFFFFFFFFFFFFFFFFFFFFF AND DUP2 PUSH20 0xFFFFFFFFFFFFFFFFFFFFFFFFFFFFFFFFFFFFFFFF AND PUSH32 0x8BE0079C531659141344CD1FD0A4F28419497F9722A3DAAFE3B4186F6B6457E0 PUSH1 0x40 MLOAD PUSH1 0x40 MLOAD DUP1 SWAP2 SUB SWAP1 LOG3 POP POP JUMP JUMPDEST PUSH2 0x2C36 DUP1 PUSH3 0x114 PUSH1 0x0 CODECOPY PUSH1 0x0 RETURN INVALID PUSH1 0x80 PUSH1 0x40 MSTORE CALLVALUE DUP1 ISZERO PUSH2 0x10 JUMPI PUSH1 0x0 DUP1 REVERT JUMPDEST POP PUSH1 0x4 CALLDATASIZE LT PUSH2 0xF5 JUMPI PUSH1 0x0 CALLDATALOAD PUSH1 0xE0 SHR DUP1 PUSH4 0x8381D799 GT PUSH2 0x97 JUMPI DUP1 PUSH4 0xBBBC1F08 GT PUSH2 0x66 JUMPI DUP1 PUSH4 0xBBBC1F08 EQ PUSH2 0x25A JUMPI DUP1 PUSH4 0xD5FAA8D1 EQ PUSH2 0x276 JUMPI DUP1 PUSH4 0xE0400F74 EQ PUSH2 0x292 JUMPI DUP1 PUSH4 0xF2FDE38B EQ PUSH2 0x2C2 JUMPI PUSH2 0xF5 JUMP JUMPDEST DUP1 PUSH4 0x8381D799 EQ PUSH2 0x1D4 JUMPI DUP1 PUSH4 0x8D22899B EQ PUSH2 0x1F0 JUMPI DUP1 PUSH4 0x8DA5CB5B EQ PUSH2 0x220 JUMPI DUP1 PUSH4 0x93ED6900 EQ PUSH2 0x23E JUMPI PUSH2 0xF5 JUMP JUMPDEST DUP1 PUSH4 0x45246F8E GT PUSH2 0xD3 JUMPI DUP1 PUSH4 0x45246F8E EQ PUSH2 0x162 JUMPI DUP1 PUSH4 0x7083FFD4 EQ PUSH2 0x17E JUMPI DUP1 PUSH4 0x715018A6 EQ PUSH2 0x19A JUMPI DUP1 PUSH4 0x828E6F1A EQ PUSH2 0x1A4 JUMPI PUSH2 0xF5 JUMP JUMPDEST DUP1 PUSH4 0x103F90A3 EQ PUSH2 0xFA JUMPI DUP1 PUSH4 0x28D305AB EQ PUSH2 0x116 JUMPI DUP1 PUSH4 0x2DE1468E EQ PUSH2 0x146 JUMPI JUMPDEST PUSH1 0x0 DUP1 REVERT JUMPDEST PUSH2 0x114 PUSH1 0x4 DUP1 CALLDATASIZE SUB DUP2 ADD SWAP1 PUSH2 0x10F SWAP2 SWAP1 PUSH2 0x1B97 JUMP JUMPDEST PUSH2 0x2DE JUMP JUMPDEST STOP JUMPDEST PUSH2 0x130 PUSH1 0x4 DUP1 CALLDATASIZE SUB DUP2 ADD SWAP1 PUSH2 0x12B SWAP2 SWAP1 PUSH2 0x1BF3 JUMP JUMPDEST PUSH2 0x487 JUMP JUMPDEST PUSH1 0x40 MLOAD PUSH2 0x13D SWAP2 SWAP1 PUSH2 0x1CDE JUMP JUMPDEST PUSH1 0x40 MLOAD DUP1 SWAP2 SUB SWAP1 RETURN JUMPDEST PUSH2 0x160 PUSH1 0x4 DUP1 CALLDATASIZE SUB DUP2 ADD SWAP1 PUSH2 0x15B SWAP2 SWAP1 PUSH2 0x1BF3 JUMP JUMPDEST PUSH2 0x6B3 JUMP JUMPDEST STOP JUMPDEST PUSH2 0x17C PUSH1 0x4 DUP1 CALLDATASIZE SUB DUP2 ADD SWAP1 PUSH2 0x177 SWAP2 SWAP1 PUSH2 0x1BF3 JUMP JUMPDEST PUSH2 0x9F7 JUMP JUMPDEST STOP JUMPDEST PUSH2 0x198 PUSH1 0x4 DUP1 CALLDATASIZE SUB DUP2 ADD SWAP1 PUSH2 0x193 SWAP2 SWAP1 PUSH2 0x1D00 JUMP JUMPDEST PUSH2 0xB93 JUMP JUMPDEST STOP JUMPDEST PUSH2 0x1A2 PUSH2 0xCD5 JUMP JUMPDEST STOP JUMPDEST PUSH2 0x1BE PUSH1 0x4 DUP1 CALLDATASIZE SUB DUP2 ADD SWAP1 PUSH2 0x1B9 SWAP2 SWAP1 PUSH2 0x1DB1 JUMP JUMPDEST PUSH2 0xCE9 JUMP JUMPDEST PUSH1 0x40 MLOAD PUSH2 0x1CB SWAP2 SWAP1 PUSH2 0x1DED JUMP JUMPDEST PUSH1 0x40 MLOAD DUP1 SWAP2 SUB SWAP1 RETURN JUMPDEST PUSH2 0x1EE PUSH1 0x4 DUP1 CALLDATASIZE SUB DUP2 ADD SWAP1 PUSH2 0x1E9 SWAP2 SWAP1 PUSH2 0x1E08 JUMP JUMPDEST PUSH2 0xDF8 JUMP JUMPDEST STOP JUMPDEST PUSH2 0x20A PUSH1 0x4 DUP1 CALLDATASIZE SUB DUP2 ADD SWAP1 PUSH2 0x205 SWAP2 SWAP1 PUSH2 0x1DB1 JUMP JUMPDEST PUSH2 0xF2B JUMP JUMPDEST PUSH1 0x40 MLOAD PUSH2 0x217 SWAP2 SWAP1 PUSH2 0x1F06 JUMP JUMPDEST PUSH1 0x40 MLOAD DUP1 SWAP2 SUB SWAP1 RETURN JUMPDEST PUSH2 0x228 PUSH2 0x1119 JUMP JUMPDEST PUSH1 0x40 MLOAD PUSH2 0x235 SWAP2 SWAP1 PUSH2 0x1F37 JUMP JUMPDEST PUSH1 0x40 MLOAD DUP1 SWAP2 SUB SWAP1 RETURN JUMPDEST PUSH2 0x258 PUSH1 0x4 DUP1 CALLDATASIZE SUB DUP2 ADD SWAP1 PUSH2 0x253 SWAP2 SWAP1 PUSH2 0x2007 JUMP JUMPDEST PUSH2 0x1142 JUMP JUMPDEST STOP JUMPDEST PUSH2 0x274 PUSH1 0x4 DUP1 CALLDATASIZE SUB DUP2 ADD SWAP1 PUSH2 0x26F SWAP2 SWAP1 PUSH2 0x1DB1 JUMP JUMPDEST PUSH2 0x122E JUMP JUMPDEST STOP JUMPDEST PUSH2 0x290 PUSH1 0x4 DUP1 CALLDATASIZE SUB DUP2 ADD SWAP1 PUSH2 0x28B SWAP2 SWAP1 PUSH2 0x208A JUMP JUMPDEST PUSH2 0x1438 JUMP JUMPDEST STOP JUMPDEST PUSH2 0x2AC PUSH1 0x4 DUP1 CALLDATASIZE SUB DUP2 ADD SWAP1 PUSH2 0x2A7 SWAP2 SWAP1 PUSH2 0x1BF3 JUMP JUMPDEST PUSH2 0x14F3 JUMP JUMPDEST PUSH1 0x40 MLOAD PUSH2 0x2B9 SWAP2 SWAP1 PUSH2 0x1DED JUMP JUMPDEST PUSH1 0x40 MLOAD DUP1 SWAP2 SUB SWAP1 RETURN JUMPDEST PUSH2 0x2DC PUSH1 0x4 DUP1 CALLDATASIZE SUB DUP2 ADD SWAP1 PUSH2 0x2D7 SWAP2 SWAP1 PUSH2 0x1DB1 JUMP JUMPDEST PUSH2 0x15ED JUMP JUMPDEST STOP JUMPDEST DUP2 PUSH1 0x5 PUSH1 0x0 DUP3 PUSH12 0xFFFFFFFFFFFFFFFFFFFFFFFF NOT AND PUSH12 0xFFFFFFFFFFFFFFFFFFFFFFFF NOT AND DUP2 MSTORE PUSH1 0x20 ADD SWAP1 DUP2 MSTORE PUSH1 0x20 ADD PUSH1 0x0 KECCAK256 PUSH1 0x0 SWAP1 SLOAD SWAP1 PUSH2 0x100 EXP SWAP1 DIV PUSH20 0xFFFFFFFFFFFFFFFFFFFFFFFFFFFFFFFFFFFFFFFF AND PUSH20 0xFFFFFFFFFFFFFFFFFFFFFFFFFFFFFFFFFFFFFFFF AND CALLER PUSH20 0xFFFFFFFFFFFFFFFFFFFFFFFFFFFFFFFFFFFFFFFF AND EQ DUP1 PUSH2 0x370 JUMPI POP PUSH2 0x36F DUP2 CALLER PUSH2 0x1670 JUMP JUMPDEST JUMPDEST PUSH2 0x3AF JUMPI PUSH1 0x40 MLOAD PUSH32 0x8C379A000000000000000000000000000000000000000000000000000000000 DUP2 MSTORE PUSH1 0x4 ADD PUSH2 0x3A6 SWAP1 PUSH2 0x214D JUMP JUMPDEST PUSH1 0x40 MLOAD DUP1 SWAP2 SUB SWAP1 REVERT JUMPDEST PUSH1 0x0 DUP3 MLOAD GT PUSH2 0x3F3 JUMPI PUSH1 0x40 MLOAD PUSH32 0x8C379A000000000000000000000000000000000000000000000000000000000 DUP2 MSTORE PUSH1 0x4 ADD PUSH2 0x3EA SWAP1 PUSH2 0x21B9 JUMP JUMPDEST PUSH1 0x40 MLOAD DUP1 SWAP2 SUB SWAP1 REVERT JUMPDEST DUP2 PUSH1 0x9 PUSH1 0x0 DUP6 PUSH12 0xFFFFFFFFFFFFFFFFFFFFFFFF NOT AND PUSH12 0xFFFFFFFFFFFFFFFFFFFFFFFF NOT AND DUP2 MSTORE PUSH1 0x20 ADD SWAP1 DUP2 MSTORE PUSH1 0x20 ADD PUSH1 0x0 KECCAK256 SWAP1 DUP1 MLOAD SWAP1 PUSH1 0x20 ADD SWAP1 PUSH2 0x438 SWAP3 SWAP2 SWAP1 PUSH2 0x18D1 JUMP JUMPDEST POP DUP2 MLOAD PUSH1 0xD PUSH1 0x0 DUP6 PUSH12 0xFFFFFFFFFFFFFFFFFFFFFFFF NOT AND PUSH12 0xFFFFFFFFFFFFFFFFFFFFFFFF NOT AND DUP2 MSTORE PUSH1 0x20 ADD SWAP1 DUP2 MSTORE PUSH1 0x20 ADD PUSH1 0x0 KECCAK256 PUSH1 0x0 DUP3 DUP3 SLOAD PUSH2 0x47B SWAP2 SWAP1 PUSH2 0x2208 JUMP JUMPDEST SWAP3 POP POP DUP2 SWAP1 SSTORE POP POP POP POP JUMP JUMPDEST PUSH1 0x60 PUSH1 0x5 PUSH1 0x0 DUP4 PUSH12 0xFFFFFFFFFFFFFFFFFFFFFFFF NOT AND PUSH12 0xFFFFFFFFFFFFFFFFFFFFFFFF NOT AND DUP2 MSTORE PUSH1 0x20 ADD SWAP1 DUP2 MSTORE PUSH1 0x20 ADD PUSH1 0x0 KECCAK256 PUSH1 0x0 SWAP1 SLOAD SWAP1 PUSH2 0x100 EXP SWAP1 DIV PUSH20 0xFFFFFFFFFFFFFFFFFFFFFFFFFFFFFFFFFFFFFFFF AND PUSH20 0xFFFFFFFFFFFFFFFFFFFFFFFFFFFFFFFFFFFFFFFF AND CALLER PUSH20 0xFFFFFFFFFFFFFFFFFFFFFFFFFFFFFFFFFFFFFFFF AND EQ PUSH2 0x548 JUMPI PUSH1 0x40 MLOAD PUSH32 0x8C379A000000000000000000000000000000000000000000000000000000000 DUP2 MSTORE PUSH1 0x4 ADD PUSH2 0x53F SWAP1 PUSH2 0x22AE JUMP JUMPDEST PUSH1 0x40 MLOAD DUP1 SWAP2 SUB SWAP1 REVERT JUMPDEST PUSH1 0x0 PUSH1 0xD PUSH1 0x0 DUP5 PUSH12 0xFFFFFFFFFFFFFFFFFFFFFFFF NOT AND PUSH12 0xFFFFFFFFFFFFFFFFFFFFFFFF NOT AND DUP2 MSTORE PUSH1 0x20 ADD SWAP1 DUP2 MSTORE PUSH1 0x20 ADD PUSH1 0x0 KECCAK256 SLOAD PUSH8 0xFFFFFFFFFFFFFFFF DUP2 GT ISZERO PUSH2 0x595 JUMPI PUSH2 0x594 PUSH2 0x1A1E JUMP JUMPDEST JUMPDEST PUSH1 0x40 MLOAD SWAP1 DUP1 DUP3 MSTORE DUP1 PUSH1 0x20 MUL PUSH1 0x20 ADD DUP3 ADD PUSH1 0x40 MSTORE DUP1 ISZERO PUSH2 0x5C3 JUMPI DUP2 PUSH1 0x20 ADD PUSH1 0x20 DUP3 MUL DUP1 CALLDATASIZE DUP4 CALLDATACOPY DUP1 DUP3 ADD SWAP2 POP POP SWAP1 POP JUMPDEST POP SWAP1 POP PUSH1 0x0 DUP1 JUMPDEST PUSH1 0x3 DUP1 SLOAD SWAP1 POP DUP2 LT ISZERO PUSH2 0x6A8 JUMPI DUP5 PUSH12 0xFFFFFFFFFFFFFFFFFFFFFFFF NOT AND PUSH1 0x6 PUSH1 0x0 PUSH1 0x3 DUP5 DUP2 SLOAD DUP2 LT PUSH2 0x5FF JUMPI PUSH2 0x5FE PUSH2 0x22CE JUMP JUMPDEST JUMPDEST SWAP1 PUSH1 0x0 MSTORE PUSH1 0x20 PUSH1 0x0 KECCAK256 SWAP1 PUSH1 0x2 MUL ADD PUSH1 0x0 ADD SLOAD DUP2 MSTORE PUSH1 0x20 ADD SWAP1 DUP2 MSTORE PUSH1 0x20 ADD PUSH1 0x0 KECCAK256 PUSH1 0x0 SWAP1 SLOAD SWAP1 PUSH2 0x100 EXP SWAP1 DIV PUSH1 0x60 SHL PUSH12 0xFFFFFFFFFFFFFFFFFFFFFFFF NOT AND SUB PUSH2 0x695 JUMPI PUSH1 0x3 DUP2 DUP2 SLOAD DUP2 LT PUSH2 0x655 JUMPI PUSH2 0x654 PUSH2 0x22CE JUMP JUMPDEST JUMPDEST SWAP1 PUSH1 0x0 MSTORE PUSH1 0x20 PUSH1 0x0 KECCAK256 SWAP1 PUSH1 0x2 MUL ADD PUSH1 0x0 ADD SLOAD DUP4 DUP4 DUP2 MLOAD DUP2 LT PUSH2 0x67A JUMPI PUSH2 0x679 PUSH2 0x22CE JUMP JUMPDEST JUMPDEST PUSH1 0x20 MUL PUSH1 0x20 ADD ADD DUP2 DUP2 MSTORE POP POP DUP2 DUP1 PUSH2 0x691 SWAP1 PUSH2 0x22FD JUMP JUMPDEST SWAP3 POP POP JUMPDEST DUP1 DUP1 PUSH2 0x6A0 SWAP1 PUSH2 0x22FD JUMP JUMPDEST SWAP2 POP POP PUSH2 0x5CA JUMP JUMPDEST POP DUP2 SWAP3 POP POP POP SWAP2 SWAP1 POP JUMP JUMPDEST PUSH1 0x1 PUSH2 0x6BE DUP3 PUSH2 0x16FA JUMP JUMPDEST EQ PUSH2 0x6FE JUMPI PUSH1 0x40 MLOAD PUSH32 0x8C379A000000000000000000000000000000000000000000000000000000000 DUP2 MSTORE PUSH1 0x4 ADD PUSH2 0x6F5 SWAP1 PUSH2 0x2391 JUMP JUMPDEST PUSH1 0x40 MLOAD DUP1 SWAP2 SUB SWAP1 REVERT JUMPDEST PUSH1 0x5 PUSH1 0x0 DUP3 PUSH12 0xFFFFFFFFFFFFFFFFFFFFFFFF NOT AND PUSH12 0xFFFFFFFFFFFFFFFFFFFFFFFF NOT AND DUP2 MSTORE PUSH1 0x20 ADD SWAP1 DUP2 MSTORE PUSH1 0x20 ADD PUSH1 0x0 KECCAK256 PUSH1 0x0 SWAP1 SLOAD SWAP1 PUSH2 0x100 EXP SWAP1 DIV PUSH20 0xFFFFFFFFFFFFFFFFFFFFFFFFFFFFFFFFFFFFFFFF AND PUSH20 0xFFFFFFFFFFFFFFFFFFFFFFFFFFFFFFFFFFFFFFFF AND CALLER PUSH20 0xFFFFFFFFFFFFFFFFFFFFFFFFFFFFFFFFFFFFFFFF AND EQ PUSH2 0x7BD JUMPI PUSH1 0x40 MLOAD PUSH32 0x8C379A000000000000000000000000000000000000000000000000000000000 DUP2 MSTORE PUSH1 0x4 ADD PUSH2 0x7B4 SWAP1 PUSH2 0x2423 JUMP JUMPDEST PUSH1 0x40 MLOAD DUP1 SWAP2 SUB SWAP1 REVERT JUMPDEST PUSH1 0x0 PUSH1 0x8 PUSH1 0x0 DUP4 PUSH12 0xFFFFFFFFFFFFFFFFFFFFFFFF NOT AND PUSH12 0xFFFFFFFFFFFFFFFFFFFFFFFF NOT AND DUP2 MSTORE PUSH1 0x20 ADD SWAP1 DUP2 MSTORE PUSH1 0x20 ADD PUSH1 0x0 KECCAK256 SLOAD SWAP1 POP PUSH1 0x4 PUSH1 0x1 PUSH1 0x4 DUP1 SLOAD SWAP1 POP PUSH2 0x807 SWAP2 SWAP1 PUSH2 0x2443 JUMP JUMPDEST DUP2 SLOAD DUP2 LT PUSH2 0x818 JUMPI PUSH2 0x817 PUSH2 0x22CE JUMP JUMPDEST JUMPDEST SWAP1 PUSH1 0x0 MSTORE PUSH1 0x20 PUSH1 0x0 KECCAK256 ADD PUSH1 0x0 SWAP1 SLOAD SWAP1 PUSH2 0x100 EXP SWAP1 DIV PUSH1 0x60 SHL PUSH1 0x4 DUP3 DUP2 SLOAD DUP2 LT PUSH2 0x844 JUMPI PUSH2 0x843 PUSH2 0x22CE JUMP JUMPDEST JUMPDEST SWAP1 PUSH1 0x0 MSTORE PUSH1 0x20 PUSH1 0x0 KECCAK256 ADD PUSH1 0x0 PUSH2 0x100 EXP DUP2 SLOAD DUP2 PUSH20 0xFFFFFFFFFFFFFFFFFFFFFFFFFFFFFFFFFFFFFFFF MUL NOT AND SWAP1 DUP4 PUSH1 0x60 SHR MUL OR SWAP1 SSTORE POP PUSH1 0x4 DUP1 SLOAD DUP1 PUSH2 0x88B JUMPI PUSH2 0x88A PUSH2 0x2477 JUMP JUMPDEST JUMPDEST PUSH1 0x1 SWAP1 SUB DUP2 DUP2 SWAP1 PUSH1 0x0 MSTORE PUSH1 0x20 PUSH1 0x0 KECCAK256 ADD PUSH1 0x0 PUSH2 0x100 EXP DUP2 SLOAD SWAP1 PUSH20 0xFFFFFFFFFFFFFFFFFFFFFFFFFFFFFFFFFFFFFFFF MUL NOT AND SWAP1 SSTORE SWAP1 SSTORE PUSH1 0xC PUSH1 0x0 CALLER PUSH20 0xFFFFFFFFFFFFFFFFFFFFFFFFFFFFFFFFFFFFFFFF AND PUSH20 0xFFFFFFFFFFFFFFFFFFFFFFFFFFFFFFFFFFFFFFFF AND DUP2 MSTORE PUSH1 0x20 ADD SWAP1 DUP2 MSTORE PUSH1 0x20 ADD PUSH1 0x0 KECCAK256 PUSH1 0x0 DUP2 SLOAD DUP1 SWAP3 SWAP2 SWAP1 PUSH2 0x910 SWAP1 PUSH2 0x24A6 JUMP JUMPDEST SWAP2 SWAP1 POP SSTORE POP PUSH1 0x8 PUSH1 0x0 DUP4 PUSH12 0xFFFFFFFFFFFFFFFFFFFFFFFF NOT AND PUSH12 0xFFFFFFFFFFFFFFFFFFFFFFFF NOT AND DUP2 MSTORE PUSH1 0x20 ADD SWAP1 DUP2 MSTORE PUSH1 0x20 ADD PUSH1 0x0 KECCAK256 PUSH1 0x0 SWAP1 SSTORE PUSH1 0x9 PUSH1 0x0 DUP4 PUSH12 0xFFFFFFFFFFFFFFFFFFFFFFFF NOT AND PUSH12 0xFFFFFFFFFFFFFFFFFFFFFFFF NOT AND DUP2 MSTORE PUSH1 0x20 ADD SWAP1 DUP2 MSTORE PUSH1 0x20 ADD PUSH1 0x0 KECCAK256 PUSH1 0x0 PUSH2 0x987 SWAP2 SWAP1 PUSH2 0x191E JUMP JUMPDEST PUSH1 0xD PUSH1 0x0 DUP4 PUSH12 0xFFFFFFFFFFFFFFFFFFFFFFFF NOT AND PUSH12 0xFFFFFFFFFFFFFFFFFFFFFFFF NOT AND DUP2 MSTORE PUSH1 0x20 ADD SWAP1 DUP2 MSTORE PUSH1 0x20 ADD PUSH1 0x0 KECCAK256 PUSH1 0x0 SWAP1 SSTORE PUSH32 0xDA13AA46E5E29A22EA7832E5283268A938C39DDC897441A090548CF71A8F81C2 DUP3 PUSH1 0x40 MLOAD PUSH2 0x9EB SWAP2 SWAP1 PUSH2 0x24DE JUMP JUMPDEST PUSH1 0x40 MLOAD DUP1 SWAP2 SUB SWAP1 LOG1 POP POP JUMP JUMPDEST PUSH1 0x4 DUP2 SWAP1 DUP1 PUSH1 0x1 DUP2 SLOAD ADD DUP1 DUP3 SSTORE DUP1 SWAP2 POP POP PUSH1 0x1 SWAP1 SUB SWAP1 PUSH1 0x0 MSTORE PUSH1 0x20 PUSH1 0x0 KECCAK256 ADD PUSH1 0x0 SWAP1 SWAP2 SWAP1 SWAP2 SWAP1 SWAP2 PUSH2 0x100 EXP DUP2 SLOAD DUP2 PUSH20 0xFFFFFFFFFFFFFFFFFFFFFFFFFFFFFFFFFFFFFFFF MUL NOT AND SWAP1 DUP4 PUSH1 0x60 SHR MUL OR SWAP1 SSTORE POP PUSH1 0x0 PUSH1 0x1 PUSH1 0x4 DUP1 SLOAD SWAP1 POP PUSH2 0xA5B SWAP2 SWAP1 PUSH2 0x2443 JUMP JUMPDEST SWAP1 POP CALLER PUSH1 0x5 PUSH1 0x0 DUP5 PUSH12 0xFFFFFFFFFFFFFFFFFFFFFFFF NOT AND PUSH12 0xFFFFFFFFFFFFFFFFFFFFFFFF NOT AND DUP2 MSTORE PUSH1 0x20 ADD SWAP1 DUP2 MSTORE PUSH1 0x20 ADD PUSH1 0x0 KECCAK256 PUSH1 0x0 PUSH2 0x100 EXP DUP2 SLOAD DUP2 PUSH20 0xFFFFFFFFFFFFFFFFFFFFFFFFFFFFFFFFFFFFFFFF MUL NOT AND SWAP1 DUP4 PUSH20 0xFFFFFFFFFFFFFFFFFFFFFFFFFFFFFFFFFFFFFFFF AND MUL OR SWAP1 SSTORE POP DUP1 PUSH1 0x8 PUSH1 0x0 DUP5 PUSH12 0xFFFFFFFFFFFFFFFFFFFFFFFF NOT AND PUSH12 0xFFFFFFFFFFFFFFFFFFFFFFFF NOT AND DUP2 MSTORE PUSH1 0x20 ADD SWAP1 DUP2 MSTORE PUSH1 0x20 ADD PUSH1 0x0 KECCAK256 DUP2 SWAP1 SSTORE POP PUSH1 0xC PUSH1 0x0 CALLER PUSH20 0xFFFFFFFFFFFFFFFFFFFFFFFFFFFFFFFFFFFFFFFF AND PUSH20 0xFFFFFFFFFFFFFFFFFFFFFFFFFFFFFFFFFFFFFFFF AND DUP2 MSTORE PUSH1 0x20 ADD SWAP1 DUP2 MSTORE PUSH1 0x20 ADD PUSH1 0x0 KECCAK256 PUSH1 0x0 DUP2 SLOAD DUP1 SWAP3 SWAP2 SWAP1 PUSH2 0xB53 SWAP1 PUSH2 0x22FD JUMP JUMPDEST SWAP2 SWAP1 POP SSTORE POP PUSH32 0xA7714B5994B2CBB93BFE098EF622436AA3E9BE80ED5F01B373FD3AA629E14962 DUP3 PUSH1 0x40 MLOAD PUSH2 0xB87 SWAP2 SWAP1 PUSH2 0x24DE JUMP JUMPDEST PUSH1 0x40 MLOAD DUP1 SWAP2 SUB SWAP1 LOG1 POP POP JUMP JUMPDEST PUSH1 0x0 JUMPDEST PUSH1 0x1 DUP1 SLOAD SWAP1 POP DUP2 LT ISZERO PUSH2 0xCCF JUMPI DUP2 PUSH1 0x1 DUP3 DUP2 SLOAD DUP2 LT PUSH2 0xBB8 JUMPI PUSH2 0xBB7 PUSH2 0x22CE JUMP JUMPDEST JUMPDEST SWAP1 PUSH1 0x0 MSTORE PUSH1 0x20 PUSH1 0x0 KECCAK256 SWAP1 PUSH1 0x5 MUL ADD PUSH1 0x1 ADD SLOAD SUB PUSH2 0xCBC JUMPI DUP3 PUSH1 0x1 DUP3 DUP2 SLOAD DUP2 LT PUSH2 0xBE4 JUMPI PUSH2 0xBE3 PUSH2 0x22CE JUMP JUMPDEST JUMPDEST SWAP1 PUSH1 0x0 MSTORE PUSH1 0x20 PUSH1 0x0 KECCAK256 SWAP1 PUSH1 0x5 MUL ADD PUSH1 0x2 ADD SLOAD PUSH1 0x1 DUP4 DUP2 SLOAD DUP2 LT PUSH2 0xC0A JUMPI PUSH2 0xC09 PUSH2 0x22CE JUMP JUMPDEST JUMPDEST SWAP1 PUSH1 0x0 MSTORE PUSH1 0x20 PUSH1 0x0 KECCAK256 SWAP1 PUSH1 0x5 MUL ADD PUSH1 0x3 ADD SLOAD PUSH2 0xC26 SWAP2 SWAP1 PUSH2 0x2443 JUMP JUMPDEST LT ISZERO PUSH2 0xC67 JUMPI PUSH1 0x40 MLOAD PUSH32 0x8C379A000000000000000000000000000000000000000000000000000000000 DUP2 MSTORE PUSH1 0x4 ADD PUSH2 0xC5E SWAP1 PUSH2 0x256B JUMP JUMPDEST PUSH1 0x40 MLOAD DUP1 SWAP2 SUB SWAP1 REVERT JUMPDEST DUP3 PUSH1 0x1 DUP3 DUP2 SLOAD DUP2 LT PUSH2 0xC7C JUMPI PUSH2 0xC7B PUSH2 0x22CE JUMP JUMPDEST JUMPDEST SWAP1 PUSH1 0x0 MSTORE PUSH1 0x20 PUSH1 0x0 KECCAK256 SWAP1 PUSH1 0x5 MUL ADD PUSH1 0x2 ADD PUSH1 0x0 DUP3 DUP3 SLOAD PUSH2 0xC9C SWAP2 SWAP1 PUSH2 0x2208 JUMP JUMPDEST SWAP3 POP POP DUP2 SWAP1 SSTORE POP DUP2 PUSH1 0x7 PUSH1 0x0 DUP7 DUP2 MSTORE PUSH1 0x20 ADD SWAP1 DUP2 MSTORE PUSH1 0x20 ADD PUSH1 0x0 KECCAK256 DUP2 SWAP1 SSTORE POP JUMPDEST DUP1 DUP1 PUSH2 0xCC7 SWAP1 PUSH2 0x22FD JUMP JUMPDEST SWAP2 POP POP PUSH2 0xB96 JUMP JUMPDEST POP POP POP POP JUMP JUMPDEST PUSH2 0xCDD PUSH2 0x1787 JUMP JUMPDEST PUSH2 0xCE7 PUSH1 0x0 PUSH2 0x1805 JUMP JUMPDEST JUMP JUMPDEST PUSH1 0x0 DUP1 PUSH1 0x0 SWAP1 POP JUMPDEST PUSH1 0x1 DUP1 SLOAD SWAP1 POP DUP2 LT ISZERO PUSH2 0xDB7 JUMPI DUP3 PUSH20 0xFFFFFFFFFFFFFFFFFFFFFFFFFFFFFFFFFFFFFFFF AND PUSH1 0x1 DUP3 DUP2 SLOAD DUP2 LT PUSH2 0xD29 JUMPI PUSH2 0xD28 PUSH2 0x22CE JUMP JUMPDEST JUMPDEST SWAP1 PUSH1 0x0 MSTORE PUSH1 0x20 PUSH1 0x0 KECCAK256 SWAP1 PUSH1 0x5 MUL ADD PUSH1 0x0 ADD PUSH1 0x0 SWAP1 SLOAD SWAP1 PUSH2 0x100 EXP SWAP1 DIV PUSH20 0xFFFFFFFFFFFFFFFFFFFFFFFFFFFFFFFFFFFFFFFF AND PUSH20 0xFFFFFFFFFFFFFFFFFFFFFFFFFFFFFFFFFFFFFFFF AND SUB PUSH2 0xDA4 JUMPI PUSH1 0x1 DUP2 DUP2 SLOAD DUP2 LT PUSH2 0xD8A JUMPI PUSH2 0xD89 PUSH2 0x22CE JUMP JUMPDEST JUMPDEST SWAP1 PUSH1 0x0 MSTORE PUSH1 0x20 PUSH1 0x0 KECCAK256 SWAP1 PUSH1 0x5 MUL ADD PUSH1 0x1 ADD SLOAD SWAP2 POP POP PUSH2 0xDF3 JUMP JUMPDEST DUP1 DUP1 PUSH2 0xDAF SWAP1 PUSH2 0x22FD JUMP JUMPDEST SWAP2 POP POP PUSH2 0xCF1 JUMP JUMPDEST POP PUSH1 0x40 MLOAD PUSH32 0x8C379A000000000000000000000000000000000000000000000000000000000 DUP2 MSTORE PUSH1 0x4 ADD PUSH2 0xDEA SWAP1 PUSH2 0x25D7 JUMP JUMPDEST PUSH1 0x40 MLOAD DUP1 SWAP2 SUB SWAP1 REVERT JUMPDEST SWAP2 SWAP1 POP JUMP JUMPDEST PUSH1 0x5 PUSH1 0x0 DUP4 PUSH12 0xFFFFFFFFFFFFFFFFFFFFFFFF NOT AND PUSH12 0xFFFFFFFFFFFFFFFFFFFFFFFF NOT AND DUP2 MSTORE PUSH1 0x20 ADD SWAP1 DUP2 MSTORE PUSH1 0x20 ADD PUSH1 0x0 KECCAK256 PUSH1 0x0 SWAP1 SLOAD SWAP1 PUSH2 0x100 EXP SWAP1 DIV PUSH20 0xFFFFFFFFFFFFFFFFFFFFFFFFFFFFFFFFFFFFFFFF AND PUSH20 0xFFFFFFFFFFFFFFFFFFFFFFFFFFFFFFFFFFFFFFFF AND CALLER PUSH20 0xFFFFFFFFFFFFFFFFFFFFFFFFFFFFFFFFFFFFFFFF AND EQ PUSH2 0xEB7 JUMPI PUSH1 0x40 MLOAD PUSH32 0x8C379A000000000000000000000000000000000000000000000000000000000 DUP2 MSTORE PUSH1 0x4 ADD PUSH2 0xEAE SWAP1 PUSH2 0x2669 JUMP JUMPDEST PUSH1 0x40 MLOAD DUP1 SWAP2 SUB SWAP1 REVERT JUMPDEST DUP1 PUSH1 0x5 PUSH1 0x0 DUP5 PUSH12 0xFFFFFFFFFFFFFFFFFFFFFFFF NOT AND PUSH12 0xFFFFFFFFFFFFFFFFFFFFFFFF NOT AND DUP2 MSTORE PUSH1 0x20 ADD SWAP1 DUP2 MSTORE PUSH1 0x20 ADD PUSH1 0x0 KECCAK256 PUSH1 0x0 PUSH2 0x100 EXP DUP2 SLOAD DUP2 PUSH20 0xFFFFFFFFFFFFFFFFFFFFFFFFFFFFFFFFFFFFFFFF MUL NOT AND SWAP1 DUP4 PUSH20 0xFFFFFFFFFFFFFFFFFFFFFFFFFFFFFFFFFFFFFFFF AND MUL OR SWAP1 SSTORE POP POP POP JUMP JUMPDEST PUSH1 0x60 PUSH2 0xF35 PUSH2 0x1787 JUMP JUMPDEST PUSH1 0x0 PUSH1 0xC PUSH1 0x0 DUP5 PUSH20 0xFFFFFFFFFFFFFFFFFFFFFFFFFFFFFFFFFFFFFFFF AND PUSH20 0xFFFFFFFFFFFFFFFFFFFFFFFFFFFFFFFFFFFFFFFF AND DUP2 MSTORE PUSH1 0x20 ADD SWAP1 DUP2 MSTORE PUSH1 0x20 ADD PUSH1 0x0 KECCAK256 SLOAD PUSH8 0xFFFFFFFFFFFFFFFF DUP2 GT ISZERO PUSH2 0xF90 JUMPI PUSH2 0xF8F PUSH2 0x1A1E JUMP JUMPDEST JUMPDEST PUSH1 0x40 MLOAD SWAP1 DUP1 DUP3 MSTORE DUP1 PUSH1 0x20 MUL PUSH1 0x20 ADD DUP3 ADD PUSH1 0x40 MSTORE DUP1 ISZERO PUSH2 0xFBE JUMPI DUP2 PUSH1 0x20 ADD PUSH1 0x20 DUP3 MUL DUP1 CALLDATASIZE DUP4 CALLDATACOPY DUP1 DUP3 ADD SWAP2 POP POP SWAP1 POP JUMPDEST POP SWAP1 POP PUSH1 0x0 DUP1 JUMPDEST PUSH1 0x4 DUP1 SLOAD SWAP1 POP DUP2 LT ISZERO PUSH2 0x110E JUMPI DUP5 PUSH20 0xFFFFFFFFFFFFFFFFFFFFFFFFFFFFFFFFFFFFFFFF AND PUSH1 0x5 PUSH1 0x0 PUSH1 0x4 DUP5 DUP2 SLOAD DUP2 LT PUSH2 0x1001 JUMPI PUSH2 0x1000 PUSH2 0x22CE JUMP JUMPDEST JUMPDEST SWAP1 PUSH1 0x0 MSTORE PUSH1 0x20 PUSH1 0x0 KECCAK256 ADD PUSH1 0x0 SWAP1 SLOAD SWAP1 PUSH2 0x100 EXP SWAP1 DIV PUSH1 0x60 SHL PUSH12 0xFFFFFFFFFFFFFFFFFFFFFFFF NOT AND PUSH12 0xFFFFFFFFFFFFFFFFFFFFFFFF NOT AND DUP2 MSTORE PUSH1 0x20 ADD SWAP1 DUP2 MSTORE PUSH1 0x20 ADD PUSH1 0x0 KECCAK256 PUSH1 0x0 SWAP1 SLOAD SWAP1 PUSH2 0x100 EXP SWAP1 DIV PUSH20 0xFFFFFFFFFFFFFFFFFFFFFFFFFFFFFFFFFFFFFFFF AND PUSH20 0xFFFFFFFFFFFFFFFFFFFFFFFFFFFFFFFFFFFFFFFF AND SUB PUSH2 0x10FB JUMPI PUSH1 0x4 DUP2 DUP2 SLOAD DUP2 LT PUSH2 0x1095 JUMPI PUSH2 0x1094 PUSH2 0x22CE JUMP JUMPDEST JUMPDEST SWAP1 PUSH1 0x0 MSTORE PUSH1 0x20 PUSH1 0x0 KECCAK256 ADD PUSH1 0x0 SWAP1 SLOAD SWAP1 PUSH2 0x100 EXP SWAP1 DIV PUSH1 0x60 SHL DUP4 DUP4 DUP2 MLOAD DUP2 LT PUSH2 0x10C0 JUMPI PUSH2 0x10BF PUSH2 0x22CE JUMP JUMPDEST JUMPDEST PUSH1 0x20 MUL PUSH1 0x20 ADD ADD SWAP1 PUSH12 0xFFFFFFFFFFFFFFFFFFFFFFFF NOT AND SWAP1 DUP2 PUSH12 0xFFFFFFFFFFFFFFFFFFFFFFFF NOT AND DUP2 MSTORE POP POP DUP2 DUP1 PUSH2 0x10F7 SWAP1 PUSH2 0x22FD JUMP JUMPDEST SWAP3 POP POP JUMPDEST DUP1 DUP1 PUSH2 0x1106 SWAP1 PUSH2 0x22FD JUMP JUMPDEST SWAP2 POP POP PUSH2 0xFC5 JUMP JUMPDEST POP DUP2 SWAP3 POP POP POP SWAP2 SWAP1 POP JUMP JUMPDEST PUSH1 0x0 DUP1 PUSH1 0x0 SWAP1 SLOAD SWAP1 PUSH2 0x100 EXP SWAP1 DIV PUSH20 0xFFFFFFFFFFFFFFFFFFFFFFFFFFFFFFFFFFFFFFFF AND SWAP1 POP SWAP1 JUMP JUMPDEST PUSH1 0x1 PUSH1 0x40 MLOAD DUP1 PUSH1 0xA0 ADD PUSH1 0x40 MSTORE DUP1 DUP7 PUSH20 0xFFFFFFFFFFFFFFFFFFFFFFFFFFFFFFFFFFFFFFFF AND DUP2 MSTORE PUSH1 0x20 ADD DUP6 DUP2 MSTORE PUSH1 0x20 ADD PUSH1 0x0 DUP2 MSTORE PUSH1 0x20 ADD DUP5 DUP2 MSTORE PUSH1 0x20 ADD DUP4 DUP2 MSTORE POP SWAP1 DUP1 PUSH1 0x1 DUP2 SLOAD ADD DUP1 DUP3 SSTORE DUP1 SWAP2 POP POP PUSH1 0x1 SWAP1 SUB SWAP1 PUSH1 0x0 MSTORE PUSH1 0x20 PUSH1 0x0 KECCAK256 SWAP1 PUSH1 0x5 MUL ADD PUSH1 0x0 SWAP1 SWAP2 SWAP1 SWAP2 SWAP1 SWAP2 POP PUSH1 0x0 DUP3 ADD MLOAD DUP2 PUSH1 0x0 ADD PUSH1 0x0 PUSH2 0x100 EXP DUP2 SLOAD DUP2 PUSH20 0xFFFFFFFFFFFFFFFFFFFFFFFFFFFFFFFFFFFFFFFF MUL NOT AND SWAP1 DUP4 PUSH20 0xFFFFFFFFFFFFFFFFFFFFFFFFFFFFFFFFFFFFFFFF AND MUL OR SWAP1 SSTORE POP PUSH1 0x20 DUP3 ADD MLOAD DUP2 PUSH1 0x1 ADD SSTORE PUSH1 0x40 DUP3 ADD MLOAD DUP2 PUSH1 0x2 ADD SSTORE PUSH1 0x60 DUP3 ADD MLOAD DUP2 PUSH1 0x3 ADD SSTORE PUSH1 0x80 DUP3 ADD MLOAD DUP2 PUSH1 0x4 ADD SWAP1 DUP2 PUSH2 0x1225 SWAP2 SWAP1 PUSH2 0x28A0 JUMP JUMPDEST POP POP POP POP POP POP POP JUMP JUMPDEST PUSH1 0x0 JUMPDEST PUSH1 0x1 DUP1 SLOAD SWAP1 POP DUP2 LT ISZERO PUSH2 0x1434 JUMPI DUP2 PUSH20 0xFFFFFFFFFFFFFFFFFFFFFFFFFFFFFFFFFFFFFFFF AND PUSH1 0x1 DUP3 DUP2 SLOAD DUP2 LT PUSH2 0x1269 JUMPI PUSH2 0x1268 PUSH2 0x22CE JUMP JUMPDEST JUMPDEST SWAP1 PUSH1 0x0 MSTORE PUSH1 0x20 PUSH1 0x0 KECCAK256 SWAP1 PUSH1 0x5 MUL ADD PUSH1 0x0 ADD PUSH1 0x0 SWAP1 SLOAD SWAP1 PUSH2 0x100 EXP SWAP1 DIV PUSH20 0xFFFFFFFFFFFFFFFFFFFFFFFFFFFFFFFFFFFFFFFF AND PUSH20 0xFFFFFFFFFFFFFFFFFFFFFFFFFFFFFFFFFFFFFFFF AND SUB PUSH2 0x1421 JUMPI PUSH1 0x1 DUP1 DUP1 DUP1 SLOAD SWAP1 POP PUSH2 0x12C8 SWAP2 SWAP1 PUSH2 0x2443 JUMP JUMPDEST DUP2 SLOAD DUP2 LT PUSH2 0x12D9 JUMPI PUSH2 0x12D8 PUSH2 0x22CE JUMP JUMPDEST JUMPDEST SWAP1 PUSH1 0x0 MSTORE PUSH1 0x20 PUSH1 0x0 KECCAK256 SWAP1 PUSH1 0x5 MUL ADD PUSH1 0x1 DUP3 DUP2 SLOAD DUP2 LT PUSH2 0x12FB JUMPI PUSH2 0x12FA PUSH2 0x22CE JUMP JUMPDEST JUMPDEST SWAP1 PUSH1 0x0 MSTORE PUSH1 0x20 PUSH1 0x0 KECCAK256 SWAP1 PUSH1 0x5 MUL ADD PUSH1 0x0 DUP3 ADD PUSH1 0x0 SWAP1 SLOAD SWAP1 PUSH2 0x100 EXP SWAP1 DIV PUSH20 0xFFFFFFFFFFFFFFFFFFFFFFFFFFFFFFFFFFFFFFFF AND DUP2 PUSH1 0x0 ADD PUSH1 0x0 PUSH2 0x100 EXP DUP2 SLOAD DUP2 PUSH20 0xFFFFFFFFFFFFFFFFFFFFFFFFFFFFFFFFFFFFFFFF MUL NOT AND SWAP1 DUP4 PUSH20 0xFFFFFFFFFFFFFFFFFFFFFFFFFFFFFFFFFFFFFFFF AND MUL OR SWAP1 SSTORE POP PUSH1 0x1 DUP3 ADD SLOAD DUP2 PUSH1 0x1 ADD SSTORE PUSH1 0x2 DUP3 ADD SLOAD DUP2 PUSH1 0x2 ADD SSTORE PUSH1 0x3 DUP3 ADD SLOAD DUP2 PUSH1 0x3 ADD SSTORE PUSH1 0x4 DUP3 ADD DUP2 PUSH1 0x4 ADD SWAP1 DUP2 PUSH2 0x13A2 SWAP2 SWAP1 PUSH2 0x2988 JUMP JUMPDEST POP SWAP1 POP POP PUSH1 0x1 DUP1 SLOAD DUP1 PUSH2 0x13B8 JUMPI PUSH2 0x13B7 PUSH2 0x2477 JUMP JUMPDEST JUMPDEST PUSH1 0x1 SWAP1 SUB DUP2 DUP2 SWAP1 PUSH1 0x0 MSTORE PUSH1 0x20 PUSH1 0x0 KECCAK256 SWAP1 PUSH1 0x5 MUL ADD PUSH1 0x0 DUP1 DUP3 ADD PUSH1 0x0 PUSH2 0x100 EXP DUP2 SLOAD SWAP1 PUSH20 0xFFFFFFFFFFFFFFFFFFFFFFFFFFFFFFFFFFFFFFFF MUL NOT AND SWAP1 SSTORE PUSH1 0x1 DUP3 ADD PUSH1 0x0 SWAP1 SSTORE PUSH1 0x2 DUP3 ADD PUSH1 0x0 SWAP1 SSTORE PUSH1 0x3 DUP3 ADD PUSH1 0x0 SWAP1 SSTORE PUSH1 0x4 DUP3 ADD PUSH1 0x0 PUSH2 0x141C SWAP2 SWAP1 PUSH2 0x193F JUMP JUMPDEST POP POP SWAP1 SSTORE JUMPDEST DUP1 DUP1 PUSH2 0x142C SWAP1 PUSH2 0x22FD JUMP JUMPDEST SWAP2 POP POP PUSH2 0x1231 JUMP JUMPDEST POP POP JUMP JUMPDEST PUSH1 0x0 JUMPDEST PUSH1 0x1 DUP1 SLOAD SWAP1 POP DUP2 LT ISZERO PUSH2 0x14EE JUMPI PUSH1 0x7 PUSH1 0x0 DUP5 DUP2 MSTORE PUSH1 0x20 ADD SWAP1 DUP2 MSTORE PUSH1 0x20 ADD PUSH1 0x0 KECCAK256 SLOAD PUSH1 0x1 DUP3 DUP2 SLOAD DUP2 LT PUSH2 0x1470 JUMPI PUSH2 0x146F PUSH2 0x22CE JUMP JUMPDEST JUMPDEST SWAP1 PUSH1 0x0 MSTORE PUSH1 0x20 PUSH1 0x0 KECCAK256 SWAP1 PUSH1 0x5 MUL ADD PUSH1 0x1 ADD SLOAD SUB PUSH2 0x14DB JUMPI DUP2 PUSH1 0x1 DUP3 DUP2 SLOAD DUP2 LT PUSH2 0x149C JUMPI PUSH2 0x149B PUSH2 0x22CE JUMP JUMPDEST JUMPDEST SWAP1 PUSH1 0x0 MSTORE PUSH1 0x20 PUSH1 0x0 KECCAK256 SWAP1 PUSH1 0x5 MUL ADD PUSH1 0x2 ADD PUSH1 0x0 DUP3 DUP3 SLOAD PUSH2 0x14BC SWAP2 SWAP1 PUSH2 0x2443 JUMP JUMPDEST SWAP3 POP POP DUP2 SWAP1 SSTORE POP PUSH1 0x7 PUSH1 0x0 DUP5 DUP2 MSTORE PUSH1 0x20 ADD SWAP1 DUP2 MSTORE PUSH1 0x20 ADD PUSH1 0x0 KECCAK256 PUSH1 0x0 SWAP1 SSTORE JUMPDEST DUP1 DUP1 PUSH2 0x14E6 SWAP1 PUSH2 0x22FD JUMP JUMPDEST SWAP2 POP POP PUSH2 0x143B JUMP JUMPDEST POP POP POP JUMP JUMPDEST PUSH1 0x0 PUSH1 0x5 PUSH1 0x0 DUP4 PUSH12 0xFFFFFFFFFFFFFFFFFFFFFFFF NOT AND PUSH12 0xFFFFFFFFFFFFFFFFFFFFFFFF NOT AND DUP2 MSTORE PUSH1 0x20 ADD SWAP1 DUP2 MSTORE PUSH1 0x20 ADD PUSH1 0x0 KECCAK256 PUSH1 0x0 SWAP1 SLOAD SWAP1 PUSH2 0x100 EXP SWAP1 DIV PUSH20 0xFFFFFFFFFFFFFFFFFFFFFFFFFFFFFFFFFFFFFFFF AND PUSH20 0xFFFFFFFFFFFFFFFFFFFFFFFFFFFFFFFFFFFFFFFF AND CALLER PUSH20 0xFFFFFFFFFFFFFFFFFFFFFFFFFFFFFFFFFFFFFFFF AND EQ PUSH2 0x15B4 JUMPI PUSH1 0x40 MLOAD PUSH32 0x8C379A000000000000000000000000000000000000000000000000000000000 DUP2 MSTORE PUSH1 0x4 ADD PUSH2 0x15AB SWAP1 PUSH2 0x2AE2 JUMP JUMPDEST PUSH1 0x40 MLOAD DUP1 SWAP2 SUB SWAP1 REVERT JUMPDEST PUSH1 0xD PUSH1 0x0 DUP4 PUSH12 0xFFFFFFFFFFFFFFFFFFFFFFFF NOT AND PUSH12 0xFFFFFFFFFFFFFFFFFFFFFFFF NOT AND DUP2 MSTORE PUSH1 0x20 ADD SWAP1 DUP2 MSTORE PUSH1 0x20 ADD PUSH1 0x0 KECCAK256 SLOAD SWAP1 POP SWAP2 SWAP1 POP JUMP JUMPDEST PUSH2 0x15F5 PUSH2 0x1787 JUMP JUMPDEST PUSH1 0x0 PUSH20 0xFFFFFFFFFFFFFFFFFFFFFFFFFFFFFFFFFFFFFFFF AND DUP2 PUSH20 0xFFFFFFFFFFFFFFFFFFFFFFFFFFFFFFFFFFFFFFFF AND SUB PUSH2 0x1664 JUMPI PUSH1 0x40 MLOAD PUSH32 0x8C379A000000000000000000000000000000000000000000000000000000000 DUP2 MSTORE PUSH1 0x4 ADD PUSH2 0x165B SWAP1 PUSH2 0x2B74 JUMP JUMPDEST PUSH1 0x40 MLOAD DUP1 SWAP2 SUB SWAP1 REVERT JUMPDEST PUSH2 0x166D DUP2 PUSH2 0x1805 JUMP JUMPDEST POP JUMP JUMPDEST PUSH1 0x0 DUP2 PUSH20 0xFFFFFFFFFFFFFFFFFFFFFFFFFFFFFFFFFFFFFFFF AND PUSH1 0x5 PUSH1 0x0 DUP6 PUSH12 0xFFFFFFFFFFFFFFFFFFFFFFFF NOT AND PUSH12 0xFFFFFFFFFFFFFFFFFFFFFFFF NOT AND DUP2 MSTORE PUSH1 0x20 ADD SWAP1 DUP2 MSTORE PUSH1 0x20 ADD PUSH1 0x0 KECCAK256 PUSH1 0x0 SWAP1 SLOAD SWAP1 PUSH2 0x100 EXP SWAP1 DIV PUSH20 0xFFFFFFFFFFFFFFFFFFFFFFFFFFFFFFFFFFFFFFFF AND PUSH20 0xFFFFFFFFFFFFFFFFFFFFFFFFFFFFFFFFFFFFFFFF AND EQ SWAP1 POP SWAP3 SWAP2 POP POP JUMP JUMPDEST PUSH1 0x0 DUP1 PUSH1 0x0 SWAP1 POP JUMPDEST PUSH1 0x4 DUP1 SLOAD SWAP1 POP DUP2 LT ISZERO PUSH2 0x177C JUMPI DUP3 PUSH12 0xFFFFFFFFFFFFFFFFFFFFFFFF NOT AND PUSH1 0x4 DUP3 DUP2 SLOAD DUP2 LT PUSH2 0x1733 JUMPI PUSH2 0x1732 PUSH2 0x22CE JUMP JUMPDEST JUMPDEST SWAP1 PUSH1 0x0 MSTORE PUSH1 0x20 PUSH1 0x0 KECCAK256 ADD PUSH1 0x0 SWAP1 SLOAD SWAP1 PUSH2 0x100 EXP SWAP1 DIV PUSH1 0x60 SHL PUSH12 0xFFFFFFFFFFFFFFFFFFFFFFFF NOT AND SUB PUSH2 0x1769 JUMPI PUSH1 0x1 SWAP2 POP POP PUSH2 0x1782 JUMP JUMPDEST DUP1 DUP1 PUSH2 0x1774 SWAP1 PUSH2 0x22FD JUMP JUMPDEST SWAP2 POP POP PUSH2 0x1702 JUMP JUMPDEST POP PUSH1 0x0 SWAP1 POP JUMPDEST SWAP2 SWAP1 POP JUMP JUMPDEST PUSH2 0x178F PUSH2 0x18C9 JUMP JUMPDEST PUSH20 0xFFFFFFFFFFFFFFFFFFFFFFFFFFFFFFFFFFFFFFFF AND PUSH2 0x17AD PUSH2 0x1119 JUMP JUMPDEST PUSH20 0xFFFFFFFFFFFFFFFFFFFFFFFFFFFFFFFFFFFFFFFF AND EQ PUSH2 0x1803 JUMPI PUSH1 0x40 MLOAD PUSH32 0x8C379A000000000000000000000000000000000000000000000000000000000 DUP2 MSTORE PUSH1 0x4 ADD PUSH2 0x17FA SWAP1 PUSH2 0x2BE0 JUMP JUMPDEST PUSH1 0x40 MLOAD DUP1 SWAP2 SUB SWAP1 REVERT JUMPDEST JUMP JUMPDEST PUSH1 0x0 DUP1 PUSH1 0x0 SWAP1 SLOAD SWAP1 PUSH2 0x100 EXP SWAP1 DIV PUSH20 0xFFFFFFFFFFFFFFFFFFFFFFFFFFFFFFFFFFFFFFFF AND SWAP1 POP DUP2 PUSH1 0x0 DUP1 PUSH2 0x100 EXP DUP2 SLOAD DUP2 PUSH20 0xFFFFFFFFFFFFFFFFFFFFFFFFFFFFFFFFFFFFFFFF MUL NOT AND SWAP1 DUP4 PUSH20 0xFFFFFFFFFFFFFFFFFFFFFFFFFFFFFFFFFFFFFFFF AND MUL OR SWAP1 SSTORE POP DUP2 PUSH20 0xFFFFFFFFFFFFFFFFFFFFFFFFFFFFFFFFFFFFFFFF AND DUP2 PUSH20 0xFFFFFFFFFFFFFFFFFFFFFFFFFFFFFFFFFFFFFFFF AND PUSH32 0x8BE0079C531659141344CD1FD0A4F28419497F9722A3DAAFE3B4186F6B6457E0 PUSH1 0x40 MLOAD PUSH1 0x40 MLOAD DUP1 SWAP2 SUB SWAP1 LOG3 POP POP JUMP JUMPDEST PUSH1 0x0 CALLER SWAP1 POP SWAP1 JUMP JUMPDEST DUP3 DUP1 SLOAD DUP3 DUP3 SSTORE SWAP1 PUSH1 0x0 MSTORE PUSH1 0x20 PUSH1 0x0 KECCAK256 SWAP1 DUP2 ADD SWAP3 DUP3 ISZERO PUSH2 0x190D JUMPI SWAP2 PUSH1 0x20 MUL DUP3 ADD JUMPDEST DUP3 DUP2 GT ISZERO PUSH2 0x190C JUMPI DUP3 MLOAD DUP3 SSTORE SWAP2 PUSH1 0x20 ADD SWAP2 SWAP1 PUSH1 0x1 ADD SWAP1 PUSH2 0x18F1 JUMP JUMPDEST JUMPDEST POP SWAP1 POP PUSH2 0x191A SWAP2 SWAP1 PUSH2 0x197F JUMP JUMPDEST POP SWAP1 JUMP JUMPDEST POP DUP1 SLOAD PUSH1 0x0 DUP3 SSTORE SWAP1 PUSH1 0x0 MSTORE PUSH1 0x20 PUSH1 0x0 KECCAK256 SWAP1 DUP2 ADD SWAP1 PUSH2 0x193C SWAP2 SWAP1 PUSH2 0x197F JUMP JUMPDEST POP JUMP JUMPDEST POP DUP1 SLOAD PUSH2 0x194B SWAP1 PUSH2 0x26C3 JUMP JUMPDEST PUSH1 0x0 DUP3 SSTORE DUP1 PUSH1 0x1F LT PUSH2 0x195D JUMPI POP PUSH2 0x197C JUMP JUMPDEST PUSH1 0x1F ADD PUSH1 0x20 SWAP1 DIV SWAP1 PUSH1 0x0 MSTORE PUSH1 0x20 PUSH1 0x0 KECCAK256 SWAP1 DUP2 ADD SWAP1 PUSH2 0x197B SWAP2 SWAP1 PUSH2 0x197F JUMP JUMPDEST JUMPDEST POP JUMP JUMPDEST JUMPDEST DUP1 DUP3 GT ISZERO PUSH2 0x1998 JUMPI PUSH1 0x0 DUP2 PUSH1 0x0 SWAP1 SSTORE POP PUSH1 0x1 ADD PUSH2 0x1980 JUMP JUMPDEST POP SWAP1 JUMP JUMPDEST PUSH1 0x0 PUSH1 0x40 MLOAD SWAP1 POP SWAP1 JUMP JUMPDEST PUSH1 0x0 DUP1 REVERT JUMPDEST PUSH1 0x0 DUP1 REVERT JUMPDEST PUSH1 0x0 PUSH32 0xFFFFFFFFFFFFFFFFFFFFFFFFFFFFFFFFFFFFFFFF000000000000000000000000 DUP3 AND SWAP1 POP SWAP2 SWAP1 POP JUMP JUMPDEST PUSH2 0x19E5 DUP2 PUSH2 0x19B0 JUMP JUMPDEST DUP2 EQ PUSH2 0x19F0 JUMPI PUSH1 0x0 DUP1 REVERT JUMPDEST POP JUMP JUMPDEST PUSH1 0x0 DUP2 CALLDATALOAD SWAP1 POP PUSH2 0x1A02 DUP2 PUSH2 0x19DC JUMP JUMPDEST SWAP3 SWAP2 POP POP JUMP JUMPDEST PUSH1 0x0 DUP1 REVERT JUMPDEST PUSH1 0x0 PUSH1 0x1F NOT PUSH1 0x1F DUP4 ADD AND SWAP1 POP SWAP2 SWAP1 POP JUMP JUMPDEST PUSH32 0x4E487B7100000000000000000000000000000000000000000000000000000000 PUSH1 0x0 MSTORE PUSH1 0x41 PUSH1 0x4 MSTORE PUSH1 0x24 PUSH1 0x0 REVERT JUMPDEST PUSH2 0x1A56 DUP3 PUSH2 0x1A0D JUMP JUMPDEST DUP2 ADD DUP2 DUP2 LT PUSH8 0xFFFFFFFFFFFFFFFF DUP3 GT OR ISZERO PUSH2 0x1A75 JUMPI PUSH2 0x1A74 PUSH2 0x1A1E JUMP JUMPDEST JUMPDEST DUP1 PUSH1 0x40 MSTORE POP POP POP JUMP JUMPDEST PUSH1 0x0 PUSH2 0x1A88 PUSH2 0x199C JUMP JUMPDEST SWAP1 POP PUSH2 0x1A94 DUP3 DUP3 PUSH2 0x1A4D JUMP JUMPDEST SWAP2 SWAP1 POP JUMP JUMPDEST PUSH1 0x0 PUSH8 0xFFFFFFFFFFFFFFFF DUP3 GT ISZERO PUSH2 0x1AB4 JUMPI PUSH2 0x1AB3 PUSH2 0x1A1E JUMP JUMPDEST JUMPDEST PUSH1 0x20 DUP3 MUL SWAP1 POP PUSH1 0x20 DUP2 ADD SWAP1 POP SWAP2 SWAP1 POP JUMP JUMPDEST PUSH1 0x0 DUP1 REVERT JUMPDEST PUSH1 0x0 DUP2 SWAP1 POP SWAP2 SWAP1 POP JUMP JUMPDEST PUSH2 0x1ADD DUP2 PUSH2 0x1ACA JUMP JUMPDEST DUP2 EQ PUSH2 0x1AE8 JUMPI PUSH1 0x0 DUP1 REVERT JUMPDEST POP JUMP JUMPDEST PUSH1 0x0 DUP2 CALLDATALOAD SWAP1 POP PUSH2 0x1AFA DUP2 PUSH2 0x1AD4 JUMP JUMPDEST SWAP3 SWAP2 POP POP JUMP JUMPDEST PUSH1 0x0 PUSH2 0x1B13 PUSH2 0x1B0E DUP5 PUSH2 0x1A99 JUMP JUMPDEST PUSH2 0x1A7E JUMP JUMPDEST SWAP1 POP DUP1 DUP4 DUP3 MSTORE PUSH1 0x20 DUP3 ADD SWAP1 POP PUSH1 0x20 DUP5 MUL DUP4 ADD DUP6 DUP2 GT ISZERO PUSH2 0x1B36 JUMPI PUSH2 0x1B35 PUSH2 0x1AC5 JUMP JUMPDEST JUMPDEST DUP4 JUMPDEST DUP2 DUP2 LT ISZERO PUSH2 0x1B5F JUMPI DUP1 PUSH2 0x1B4B DUP9 DUP3 PUSH2 0x1AEB JUMP JUMPDEST DUP5 MSTORE PUSH1 0x20 DUP5 ADD SWAP4 POP POP PUSH1 0x20 DUP2 ADD SWAP1 POP PUSH2 0x1B38 JUMP JUMPDEST POP POP POP SWAP4 SWAP3 POP POP POP JUMP JUMPDEST PUSH1 0x0 DUP3 PUSH1 0x1F DUP4 ADD SLT PUSH2 0x1B7E JUMPI PUSH2 0x1B7D PUSH2 0x1A08 JUMP JUMPDEST JUMPDEST DUP2 CALLDATALOAD PUSH2 0x1B8E DUP5 DUP3 PUSH1 0x20 DUP7 ADD PUSH2 0x1B00 JUMP JUMPDEST SWAP2 POP POP SWAP3 SWAP2 POP POP JUMP JUMPDEST PUSH1 0x0 DUP1 PUSH1 0x40 DUP4 DUP6 SUB SLT ISZERO PUSH2 0x1BAE JUMPI PUSH2 0x1BAD PUSH2 0x19A6 JUMP JUMPDEST JUMPDEST PUSH1 0x0 PUSH2 0x1BBC DUP6 DUP3 DUP7 ADD PUSH2 0x19F3 JUMP JUMPDEST SWAP3 POP POP PUSH1 0x20 DUP4 ADD CALLDATALOAD PUSH8 0xFFFFFFFFFFFFFFFF DUP2 GT ISZERO PUSH2 0x1BDD JUMPI PUSH2 0x1BDC PUSH2 0x19AB JUMP JUMPDEST JUMPDEST PUSH2 0x1BE9 DUP6 DUP3 DUP7 ADD PUSH2 0x1B69 JUMP JUMPDEST SWAP2 POP POP SWAP3 POP SWAP3 SWAP1 POP JUMP JUMPDEST PUSH1 0x0 PUSH1 0x20 DUP3 DUP5 SUB SLT ISZERO PUSH2 0x1C09 JUMPI PUSH2 0x1C08 PUSH2 0x19A6 JUMP JUMPDEST JUMPDEST PUSH1 0x0 PUSH2 0x1C17 DUP5 DUP3 DUP6 ADD PUSH2 0x19F3 JUMP JUMPDEST SWAP2 POP POP SWAP3 SWAP2 POP POP JUMP JUMPDEST PUSH1 0x0 DUP2 MLOAD SWAP1 POP SWAP2 SWAP1 POP JUMP JUMPDEST PUSH1 0x0 DUP3 DUP3 MSTORE PUSH1 0x20 DUP3 ADD SWAP1 POP SWAP3 SWAP2 POP POP JUMP JUMPDEST PUSH1 0x0 DUP2 SWAP1 POP PUSH1 0x20 DUP3 ADD SWAP1 POP SWAP2 SWAP1 POP JUMP JUMPDEST PUSH2 0x1C55 DUP2 PUSH2 0x1ACA JUMP JUMPDEST DUP3 MSTORE POP POP JUMP JUMPDEST PUSH1 0x0 PUSH2 0x1C67 DUP4 DUP4 PUSH2 0x1C4C JUMP JUMPDEST PUSH1 0x20 DUP4 ADD SWAP1 POP SWAP3 SWAP2 POP POP JUMP JUMPDEST PUSH1 0x0 PUSH1 0x20 DUP3 ADD SWAP1 POP SWAP2 SWAP1 POP JUMP JUMPDEST PUSH1 0x0 PUSH2 0x1C8B DUP3 PUSH2 0x1C20 JUMP JUMPDEST PUSH2 0x1C95 DUP2 DUP6 PUSH2 0x1C2B JUMP JUMPDEST SWAP4 POP PUSH2 0x1CA0 DUP4 PUSH2 0x1C3C JUMP JUMPDEST DUP1 PUSH1 0x0 JUMPDEST DUP4 DUP2 LT ISZERO PUSH2 0x1CD1 JUMPI DUP2 MLOAD PUSH2 0x1CB8 DUP9 DUP3 PUSH2 0x1C5B JUMP JUMPDEST SWAP8 POP PUSH2 0x1CC3 DUP4 PUSH2 0x1C73 JUMP JUMPDEST SWAP3 POP POP PUSH1 0x1 DUP2 ADD SWAP1 POP PUSH2 0x1CA4 JUMP JUMPDEST POP DUP6 SWAP4 POP POP POP POP SWAP3 SWAP2 POP POP JUMP JUMPDEST PUSH1 0x0 PUSH1 0x20 DUP3 ADD SWAP1 POP DUP2 DUP2 SUB PUSH1 0x0 DUP4 ADD MSTORE PUSH2 0x1CF8 DUP2 DUP5 PUSH2 0x1C80 JUMP JUMPDEST SWAP1 POP SWAP3 SWAP2 POP POP JUMP JUMPDEST PUSH1 0x0 DUP1 PUSH1 0x0 PUSH1 0x60 DUP5 DUP7 SUB SLT ISZERO PUSH2 0x1D19 JUMPI PUSH2 0x1D18 PUSH2 0x19A6 JUMP JUMPDEST JUMPDEST PUSH1 0x0 PUSH2 0x1D27 DUP7 DUP3 DUP8 ADD PUSH2 0x1AEB JUMP JUMPDEST SWAP4 POP POP PUSH1 0x20 PUSH2 0x1D38 DUP7 DUP3 DUP8 ADD PUSH2 0x1AEB JUMP JUMPDEST SWAP3 POP POP PUSH1 0x40 PUSH2 0x1D49 DUP7 DUP3 DUP8 ADD PUSH2 0x1AEB JUMP JUMPDEST SWAP2 POP POP SWAP3 POP SWAP3 POP SWAP3 JUMP JUMPDEST PUSH1 0x0 PUSH20 0xFFFFFFFFFFFFFFFFFFFFFFFFFFFFFFFFFFFFFFFF DUP3 AND SWAP1 POP SWAP2 SWAP1 POP JUMP JUMPDEST PUSH1 0x0 PUSH2 0x1D7E DUP3 PUSH2 0x1D53 JUMP JUMPDEST SWAP1 POP SWAP2 SWAP1 POP JUMP JUMPDEST PUSH2 0x1D8E DUP2 PUSH2 0x1D73 JUMP JUMPDEST DUP2 EQ PUSH2 0x1D99 JUMPI PUSH1 0x0 DUP1 REVERT JUMPDEST POP JUMP JUMPDEST PUSH1 0x0 DUP2 CALLDATALOAD SWAP1 POP PUSH2 0x1DAB DUP2 PUSH2 0x1D85 JUMP JUMPDEST SWAP3 SWAP2 POP POP JUMP JUMPDEST PUSH1 0x0 PUSH1 0x20 DUP3 DUP5 SUB SLT ISZERO PUSH2 0x1DC7 JUMPI PUSH2 0x1DC6 PUSH2 0x19A6 JUMP JUMPDEST JUMPDEST PUSH1 0x0 PUSH2 0x1DD5 DUP5 DUP3 DUP6 ADD PUSH2 0x1D9C JUMP JUMPDEST SWAP2 POP POP SWAP3 SWAP2 POP POP JUMP JUMPDEST PUSH2 0x1DE7 DUP2 PUSH2 0x1ACA JUMP JUMPDEST DUP3 MSTORE POP POP JUMP JUMPDEST PUSH1 0x0 PUSH1 0x20 DUP3 ADD SWAP1 POP PUSH2 0x1E02 PUSH1 0x0 DUP4 ADD DUP5 PUSH2 0x1DDE JUMP JUMPDEST SWAP3 SWAP2 POP POP JUMP JUMPDEST PUSH1 0x0 DUP1 PUSH1 0x40 DUP4 DUP6 SUB SLT ISZERO PUSH2 0x1E1F JUMPI PUSH2 0x1E1E PUSH2 0x19A6 JUMP JUMPDEST JUMPDEST PUSH1 0x0 PUSH2 0x1E2D DUP6 DUP3 DUP7 ADD PUSH2 0x19F3 JUMP JUMPDEST SWAP3 POP POP PUSH1 0x20 PUSH2 0x1E3E DUP6 DUP3 DUP7 ADD PUSH2 0x1D9C JUMP JUMPDEST SWAP2 POP POP SWAP3 POP SWAP3 SWAP1 POP JUMP JUMPDEST PUSH1 0x0 DUP2 MLOAD SWAP1 POP SWAP2 SWAP1 POP JUMP JUMPDEST PUSH1 0x0 DUP3 DUP3 MSTORE PUSH1 0x20 DUP3 ADD SWAP1 POP SWAP3 SWAP2 POP POP JUMP JUMPDEST PUSH1 0x0 DUP2 SWAP1 POP PUSH1 0x20 DUP3 ADD SWAP1 POP SWAP2 SWAP1 POP JUMP JUMPDEST PUSH2 0x1E7D DUP2 PUSH2 0x19B0 JUMP JUMPDEST DUP3 MSTORE POP POP JUMP JUMPDEST PUSH1 0x0 PUSH2 0x1E8F DUP4 DUP4 PUSH2 0x1E74 JUMP JUMPDEST PUSH1 0x20 DUP4 ADD SWAP1 POP SWAP3 SWAP2 POP POP JUMP JUMPDEST PUSH1 0x0 PUSH1 0x20 DUP3 ADD SWAP1 POP SWAP2 SWAP1 POP JUMP JUMPDEST PUSH1 0x0 PUSH2 0x1EB3 DUP3 PUSH2 0x1E48 JUMP JUMPDEST PUSH2 0x1EBD DUP2 DUP6 PUSH2 0x1E53 JUMP JUMPDEST SWAP4 POP PUSH2 0x1EC8 DUP4 PUSH2 0x1E64 JUMP JUMPDEST DUP1 PUSH1 0x0 JUMPDEST DUP4 DUP2 LT ISZERO PUSH2 0x1EF9 JUMPI DUP2 MLOAD PUSH2 0x1EE0 DUP9 DUP3 PUSH2 0x1E83 JUMP JUMPDEST SWAP8 POP PUSH2 0x1EEB DUP4 PUSH2 0x1E9B JUMP JUMPDEST SWAP3 POP POP PUSH1 0x1 DUP2 ADD SWAP1 POP PUSH2 0x1ECC JUMP JUMPDEST POP DUP6 SWAP4 POP POP POP POP SWAP3 SWAP2 POP POP JUMP JUMPDEST PUSH1 0x0 PUSH1 0x20 DUP3 ADD SWAP1 POP DUP2 DUP2 SUB PUSH1 0x0 DUP4 ADD MSTORE PUSH2 0x1F20 DUP2 DUP5 PUSH2 0x1EA8 JUMP JUMPDEST SWAP1 POP SWAP3 SWAP2 POP POP JUMP JUMPDEST PUSH2 0x1F31 DUP2 PUSH2 0x1D73 JUMP JUMPDEST DUP3 MSTORE POP POP JUMP JUMPDEST PUSH1 0x0 PUSH1 0x20 DUP3 ADD SWAP1 POP PUSH2 0x1F4C PUSH1 0x0 DUP4 ADD DUP5 PUSH2 0x1F28 JUMP JUMPDEST SWAP3 SWAP2 POP POP JUMP JUMPDEST PUSH1 0x0 DUP1 REVERT JUMPDEST PUSH1 0x0 PUSH8 0xFFFFFFFFFFFFFFFF DUP3 GT ISZERO PUSH2 0x1F72 JUMPI PUSH2 0x1F71 PUSH2 0x1A1E JUMP JUMPDEST JUMPDEST PUSH2 0x1F7B DUP3 PUSH2 0x1A0D JUMP JUMPDEST SWAP1 POP PUSH1 0x20 DUP2 ADD SWAP1 POP SWAP2 SWAP1 POP JUMP JUMPDEST DUP3 DUP2 DUP4 CALLDATACOPY PUSH1 0x0 DUP4 DUP4 ADD MSTORE POP POP POP JUMP JUMPDEST PUSH1 0x0 PUSH2 0x1FAA PUSH2 0x1FA5 DUP5 PUSH2 0x1F57 JUMP JUMPDEST PUSH2 0x1A7E JUMP JUMPDEST SWAP1 POP DUP3 DUP2 MSTORE PUSH1 0x20 DUP2 ADD DUP5 DUP5 DUP5 ADD GT ISZERO PUSH2 0x1FC6 JUMPI PUSH2 0x1FC5 PUSH2 0x1F52 JUMP JUMPDEST JUMPDEST PUSH2 0x1FD1 DUP5 DUP3 DUP6 PUSH2 0x1F88 JUMP JUMPDEST POP SWAP4 SWAP3 POP POP POP JUMP JUMPDEST PUSH1 0x0 DUP3 PUSH1 0x1F DUP4 ADD SLT PUSH2 0x1FEE JUMPI PUSH2 0x1FED PUSH2 0x1A08 JUMP JUMPDEST JUMPDEST DUP2 CALLDATALOAD PUSH2 0x1FFE DUP5 DUP3 PUSH1 0x20 DUP7 ADD PUSH2 0x1F97 JUMP JUMPDEST SWAP2 POP POP SWAP3 SWAP2 POP POP JUMP JUMPDEST PUSH1 0x0 DUP1 PUSH1 0x0 DUP1 PUSH1 0x80 DUP6 DUP8 SUB SLT ISZERO PUSH2 0x2021 JUMPI PUSH2 0x2020 PUSH2 0x19A6 JUMP JUMPDEST JUMPDEST PUSH1 0x0 PUSH2 0x202F DUP8 DUP3 DUP9 ADD PUSH2 0x1D9C JUMP JUMPDEST SWAP5 POP POP PUSH1 0x20 PUSH2 0x2040 DUP8 DUP3 DUP9 ADD PUSH2 0x1AEB JUMP JUMPDEST SWAP4 POP POP PUSH1 0x40 PUSH2 0x2051 DUP8 DUP3 DUP9 ADD PUSH2 0x1AEB JUMP JUMPDEST SWAP3 POP POP PUSH1 0x60 DUP6 ADD CALLDATALOAD PUSH8 0xFFFFFFFFFFFFFFFF DUP2 GT ISZERO PUSH2 0x2072 JUMPI PUSH2 0x2071 PUSH2 0x19AB JUMP JUMPDEST JUMPDEST PUSH2 0x207E DUP8 DUP3 DUP9 ADD PUSH2 0x1FD9 JUMP JUMPDEST SWAP2 POP POP SWAP3 SWAP6 SWAP2 SWAP5 POP SWAP3 POP JUMP JUMPDEST PUSH1 0x0 DUP1 PUSH1 0x40 DUP4 DUP6 SUB SLT ISZERO PUSH2 0x20A1 JUMPI PUSH2 0x20A0 PUSH2 0x19A6 JUMP JUMPDEST JUMPDEST PUSH1 0x0 PUSH2 0x20AF DUP6 DUP3 DUP7 ADD PUSH2 0x1AEB JUMP JUMPDEST SWAP3 POP POP PUSH1 0x20 PUSH2 0x20C0 DUP6 DUP3 DUP7 ADD PUSH2 0x1AEB JUMP JUMPDEST SWAP2 POP POP SWAP3 POP SWAP3 SWAP1 POP JUMP JUMPDEST PUSH1 0x0 DUP3 DUP3 MSTORE PUSH1 0x20 DUP3 ADD SWAP1 POP SWAP3 SWAP2 POP POP JUMP JUMPDEST PUSH32 0x43616C6C6572206973206E6F74207468652066696C65206F776E6572206F7220 PUSH1 0x0 DUP3 ADD MSTORE PUSH32 0x646F6573206E6F74206861766520636F6E73656E740000000000000000000000 PUSH1 0x20 DUP3 ADD MSTORE POP JUMP JUMPDEST PUSH1 0x0 PUSH2 0x2137 PUSH1 0x35 DUP4 PUSH2 0x20CA JUMP JUMPDEST SWAP2 POP PUSH2 0x2142 DUP3 PUSH2 0x20DB JUMP JUMPDEST PUSH1 0x40 DUP3 ADD SWAP1 POP SWAP2 SWAP1 POP JUMP JUMPDEST PUSH1 0x0 PUSH1 0x20 DUP3 ADD SWAP1 POP DUP2 DUP2 SUB PUSH1 0x0 DUP4 ADD MSTORE PUSH2 0x2166 DUP2 PUSH2 0x212A JUMP JUMPDEST SWAP1 POP SWAP2 SWAP1 POP JUMP JUMPDEST PUSH32 0x536861726420494473206D757374206E6F7420626520656D7074790000000000 PUSH1 0x0 DUP3 ADD MSTORE POP JUMP JUMPDEST PUSH1 0x0 PUSH2 0x21A3 PUSH1 0x1B DUP4 PUSH2 0x20CA JUMP JUMPDEST SWAP2 POP PUSH2 0x21AE DUP3 PUSH2 0x216D JUMP JUMPDEST PUSH1 0x20 DUP3 ADD SWAP1 POP SWAP2 SWAP1 POP JUMP JUMPDEST PUSH1 0x0 PUSH1 0x20 DUP3 ADD SWAP1 POP DUP2 DUP2 SUB PUSH1 0x0 DUP4 ADD MSTORE PUSH2 0x21D2 DUP2 PUSH2 0x2196 JUMP JUMPDEST SWAP1 POP SWAP2 SWAP1 POP JUMP JUMPDEST PUSH32 0x4E487B7100000000000000000000000000000000000000000000000000000000 PUSH1 0x0 MSTORE PUSH1 0x11 PUSH1 0x4 MSTORE PUSH1 0x24 PUSH1 0x0 REVERT JUMPDEST PUSH1 0x0 PUSH2 0x2213 DUP3 PUSH2 0x1ACA JUMP JUMPDEST SWAP2 POP PUSH2 0x221E DUP4 PUSH2 0x1ACA JUMP JUMPDEST SWAP3 POP DUP3 DUP3 ADD SWAP1 POP DUP1 DUP3 GT ISZERO PUSH2 0x2236 JUMPI PUSH2 0x2235 PUSH2 0x21D9 JUMP JUMPDEST JUMPDEST SWAP3 SWAP2 POP POP JUMP JUMPDEST PUSH32 0x4F6E6C79207468652046696C65204F776E65722063616E206163636573732069 PUSH1 0x0 DUP3 ADD MSTORE PUSH32 0x7473207368617264732E00000000000000000000000000000000000000000000 PUSH1 0x20 DUP3 ADD MSTORE POP JUMP JUMPDEST PUSH1 0x0 PUSH2 0x2298 PUSH1 0x2A DUP4 PUSH2 0x20CA JUMP JUMPDEST SWAP2 POP PUSH2 0x22A3 DUP3 PUSH2 0x223C JUMP JUMPDEST PUSH1 0x40 DUP3 ADD SWAP1 POP SWAP2 SWAP1 POP JUMP JUMPDEST PUSH1 0x0 PUSH1 0x20 DUP3 ADD SWAP1 POP DUP2 DUP2 SUB PUSH1 0x0 DUP4 ADD MSTORE PUSH2 0x22C7 DUP2 PUSH2 0x228B JUMP JUMPDEST SWAP1 POP SWAP2 SWAP1 POP JUMP JUMPDEST PUSH32 0x4E487B7100000000000000000000000000000000000000000000000000000000 PUSH1 0x0 MSTORE PUSH1 0x32 PUSH1 0x4 MSTORE PUSH1 0x24 PUSH1 0x0 REVERT JUMPDEST PUSH1 0x0 PUSH2 0x2308 DUP3 PUSH2 0x1ACA JUMP JUMPDEST SWAP2 POP PUSH32 0xFFFFFFFFFFFFFFFFFFFFFFFFFFFFFFFFFFFFFFFFFFFFFFFFFFFFFFFFFFFFFFFF DUP3 SUB PUSH2 0x233A JUMPI PUSH2 0x2339 PUSH2 0x21D9 JUMP JUMPDEST JUMPDEST PUSH1 0x1 DUP3 ADD SWAP1 POP SWAP2 SWAP1 POP JUMP JUMPDEST PUSH32 0x5468652066696C6520646F6573206E6F742065786973742E0000000000000000 PUSH1 0x0 DUP3 ADD MSTORE POP JUMP JUMPDEST PUSH1 0x0 PUSH2 0x237B PUSH1 0x18 DUP4 PUSH2 0x20CA JUMP JUMPDEST SWAP2 POP PUSH2 0x2386 DUP3 PUSH2 0x2345 JUMP JUMPDEST PUSH1 0x20 DUP3 ADD SWAP1 POP SWAP2 SWAP1 POP JUMP JUMPDEST PUSH1 0x0 PUSH1 0x20 DUP3 ADD SWAP1 POP DUP2 DUP2 SUB PUSH1 0x0 DUP4 ADD MSTORE PUSH2 0x23AA DUP2 PUSH2 0x236E JUMP JUMPDEST SWAP1 POP SWAP2 SWAP1 POP JUMP JUMPDEST PUSH32 0x4F6E6C792046696C65204F776E65722063616E2064656C657465207468652066 PUSH1 0x0 DUP3 ADD MSTORE PUSH32 0x696C652100000000000000000000000000000000000000000000000000000000 PUSH1 0x20 DUP3 ADD MSTORE POP JUMP JUMPDEST PUSH1 0x0 PUSH2 0x240D PUSH1 0x24 DUP4 PUSH2 0x20CA JUMP JUMPDEST SWAP2 POP PUSH2 0x2418 DUP3 PUSH2 0x23B1 JUMP JUMPDEST PUSH1 0x40 DUP3 ADD SWAP1 POP SWAP2 SWAP1 POP JUMP JUMPDEST PUSH1 0x0 PUSH1 0x20 DUP3 ADD SWAP1 POP DUP2 DUP2 SUB PUSH1 0x0 DUP4 ADD MSTORE PUSH2 0x243C DUP2 PUSH2 0x2400 JUMP JUMPDEST SWAP1 POP SWAP2 SWAP1 POP JUMP JUMPDEST PUSH1 0x0 PUSH2 0x244E DUP3 PUSH2 0x1ACA JUMP JUMPDEST SWAP2 POP PUSH2 0x2459 DUP4 PUSH2 0x1ACA JUMP JUMPDEST SWAP3 POP DUP3 DUP3 SUB SWAP1 POP DUP2 DUP2 GT ISZERO PUSH2 0x2471 JUMPI PUSH2 0x2470 PUSH2 0x21D9 JUMP JUMPDEST JUMPDEST SWAP3 SWAP2 POP POP JUMP JUMPDEST PUSH32 0x4E487B7100000000000000000000000000000000000000000000000000000000 PUSH1 0x0 MSTORE PUSH1 0x31 PUSH1 0x4 MSTORE PUSH1 0x24 PUSH1 0x0 REVERT JUMPDEST PUSH1 0x0 PUSH2 0x24B1 DUP3 PUSH2 0x1ACA JUMP JUMPDEST SWAP2 POP PUSH1 0x0 DUP3 SUB PUSH2 0x24C4 JUMPI PUSH2 0x24C3 PUSH2 0x21D9 JUMP JUMPDEST JUMPDEST PUSH1 0x1 DUP3 SUB SWAP1 POP SWAP2 SWAP1 POP JUMP JUMPDEST PUSH2 0x24D8 DUP2 PUSH2 0x19B0 JUMP JUMPDEST DUP3 MSTORE POP POP JUMP JUMPDEST PUSH1 0x0 PUSH1 0x20 DUP3 ADD SWAP1 POP PUSH2 0x24F3 PUSH1 0x0 DUP4 ADD DUP5 PUSH2 0x24CF JUMP JUMPDEST SWAP3 SWAP2 POP POP JUMP JUMPDEST PUSH32 0x6661726D657220646F6573206E6F74206861766520656E6F7567682073706163 PUSH1 0x0 DUP3 ADD MSTORE PUSH32 0x6500000000000000000000000000000000000000000000000000000000000000 PUSH1 0x20 DUP3 ADD MSTORE POP JUMP JUMPDEST PUSH1 0x0 PUSH2 0x2555 PUSH1 0x21 DUP4 PUSH2 0x20CA JUMP JUMPDEST SWAP2 POP PUSH2 0x2560 DUP3 PUSH2 0x24F9 JUMP JUMPDEST PUSH1 0x40 DUP3 ADD SWAP1 POP SWAP2 SWAP1 POP JUMP JUMPDEST PUSH1 0x0 PUSH1 0x20 DUP3 ADD SWAP1 POP DUP2 DUP2 SUB PUSH1 0x0 DUP4 ADD MSTORE PUSH2 0x2584 DUP2 PUSH2 0x2548 JUMP JUMPDEST SWAP1 POP SWAP2 SWAP1 POP JUMP JUMPDEST PUSH32 0x4E6F7420666F756E640000000000000000000000000000000000000000000000 PUSH1 0x0 DUP3 ADD MSTORE POP JUMP JUMPDEST PUSH1 0x0 PUSH2 0x25C1 PUSH1 0x9 DUP4 PUSH2 0x20CA JUMP JUMPDEST SWAP2 POP PUSH2 0x25CC DUP3 PUSH2 0x258B JUMP JUMPDEST PUSH1 0x20 DUP3 ADD SWAP1 POP SWAP2 SWAP1 POP JUMP JUMPDEST PUSH1 0x0 PUSH1 0x20 DUP3 ADD SWAP1 POP DUP2 DUP2 SUB PUSH1 0x0 DUP4 ADD MSTORE PUSH2 0x25F0 DUP2 PUSH2 0x25B4 JUMP JUMPDEST SWAP1 POP SWAP2 SWAP1 POP JUMP JUMPDEST PUSH32 0x4F6E6C79207468652046696C65204F776E65722063616E206769766520617761 PUSH1 0x0 DUP3 ADD MSTORE PUSH32 0x79206F776E657273686970206F662074686569722066696C6500000000000000 PUSH1 0x20 DUP3 ADD MSTORE POP JUMP JUMPDEST PUSH1 0x0 PUSH2 0x2653 PUSH1 0x39 DUP4 PUSH2 0x20CA JUMP JUMPDEST SWAP2 POP PUSH2 0x265E DUP3 PUSH2 0x25F7 JUMP JUMPDEST PUSH1 0x40 DUP3 ADD SWAP1 POP SWAP2 SWAP1 POP JUMP JUMPDEST PUSH1 0x0 PUSH1 0x20 DUP3 ADD SWAP1 POP DUP2 DUP2 SUB PUSH1 0x0 DUP4 ADD MSTORE PUSH2 0x2682 DUP2 PUSH2 0x2646 JUMP JUMPDEST SWAP1 POP SWAP2 SWAP1 POP JUMP JUMPDEST PUSH1 0x0 DUP2 MLOAD SWAP1 POP SWAP2 SWAP1 POP JUMP JUMPDEST PUSH32 0x4E487B7100000000000000000000000000000000000000000000000000000000 PUSH1 0x0 MSTORE PUSH1 0x22 PUSH1 0x4 MSTORE PUSH1 0x24 PUSH1 0x0 REVERT JUMPDEST PUSH1 0x0 PUSH1 0x2 DUP3 DIV SWAP1 POP PUSH1 0x1 DUP3 AND DUP1 PUSH2 0x26DB JUMPI PUSH1 0x7F DUP3 AND SWAP2 POP JUMPDEST PUSH1 0x20 DUP3 LT DUP2 SUB PUSH2 0x26EE JUMPI PUSH2 0x26ED PUSH2 0x2694 JUMP JUMPDEST JUMPDEST POP SWAP2 SWAP1 POP JUMP JUMPDEST PUSH1 0x0 DUP2 SWAP1 POP DUP2 PUSH1 0x0 MSTORE PUSH1 0x20 PUSH1 0x0 KECCAK256 SWAP1 POP SWAP2 SWAP1 POP JUMP JUMPDEST PUSH1 0x0 PUSH1 0x20 PUSH1 0x1F DUP4 ADD DIV SWAP1 POP SWAP2 SWAP1 POP JUMP JUMPDEST PUSH1 0x0 DUP3 DUP3 SHL SWAP1 POP SWAP3 SWAP2 POP POP JUMP JUMPDEST PUSH1 0x0 PUSH1 0x8 DUP4 MUL PUSH2 0x2756 PUSH32 0xFFFFFFFFFFFFFFFFFFFFFFFFFFFFFFFFFFFFFFFFFFFFFFFFFFFFFFFFFFFFFFFF DUP3 PUSH2 0x2719 JUMP JUMPDEST PUSH2 0x2760 DUP7 DUP4 PUSH2 0x2719 JUMP JUMPDEST SWAP6 POP DUP1 NOT DUP5 AND SWAP4 POP DUP1 DUP7 AND DUP5 OR SWAP3 POP POP POP SWAP4 SWAP3 POP POP POP JUMP JUMPDEST PUSH1 0x0 DUP2 SWAP1 POP SWAP2 SWAP1 POP JUMP JUMPDEST PUSH1 0x0 PUSH2 0x279D PUSH2 0x2798 PUSH2 0x2793 DUP5 PUSH2 0x1ACA JUMP JUMPDEST PUSH2 0x2778 JUMP JUMPDEST PUSH2 0x1ACA JUMP JUMPDEST SWAP1 POP SWAP2 SWAP1 POP JUMP JUMPDEST PUSH1 0x0 DUP2 SWAP1 POP SWAP2 SWAP1 POP JUMP JUMPDEST PUSH2 0x27B7 DUP4 PUSH2 0x2782 JUMP JUMPDEST PUSH2 0x27CB PUSH2 0x27C3 DUP3 PUSH2 0x27A4 JUMP JUMPDEST DUP5 DUP5 SLOAD PUSH2 0x2726 JUMP JUMPDEST DUP3 SSTORE POP POP POP POP JUMP JUMPDEST PUSH1 0x0 SWAP1 JUMP JUMPDEST PUSH2 0x27E0 PUSH2 0x27D3 JUMP JUMPDEST PUSH2 0x27EB DUP2 DUP5 DUP5 PUSH2 0x27AE JUMP JUMPDEST POP POP POP JUMP JUMPDEST JUMPDEST DUP2 DUP2 LT ISZERO PUSH2 0x280F JUMPI PUSH2 0x2804 PUSH1 0x0 DUP3 PUSH2 0x27D8 JUMP JUMPDEST PUSH1 0x1 DUP2 ADD SWAP1 POP PUSH2 0x27F1 JUMP JUMPDEST POP POP JUMP JUMPDEST PUSH1 0x1F DUP3 GT ISZERO PUSH2 0x2854 JUMPI PUSH2 0x2825 DUP2 PUSH2 0x26F4 JUMP JUMPDEST PUSH2 0x282E DUP5 PUSH2 0x2709 JUMP JUMPDEST DUP2 ADD PUSH1 0x20 DUP6 LT ISZERO PUSH2 0x283D JUMPI DUP2 SWAP1 POP JUMPDEST PUSH2 0x2851 PUSH2 0x2849 DUP6 PUSH2 0x2709 JUMP JUMPDEST DUP4 ADD DUP3 PUSH2 0x27F0 JUMP JUMPDEST POP POP JUMPDEST POP POP POP JUMP JUMPDEST PUSH1 0x0 DUP3 DUP3 SHR SWAP1 POP SWAP3 SWAP2 POP POP JUMP JUMPDEST PUSH1 0x0 PUSH2 0x2877 PUSH1 0x0 NOT DUP5 PUSH1 0x8 MUL PUSH2 0x2859 JUMP JUMPDEST NOT DUP1 DUP4 AND SWAP2 POP POP SWAP3 SWAP2 POP POP JUMP JUMPDEST PUSH1 0x0 PUSH2 0x2890 DUP4 DUP4 PUSH2 0x2866 JUMP JUMPDEST SWAP2 POP DUP3 PUSH1 0x2 MUL DUP3 OR SWAP1 POP SWAP3 SWAP2 POP POP JUMP JUMPDEST PUSH2 0x28A9 DUP3 PUSH2 0x2689 JUMP JUMPDEST PUSH8 0xFFFFFFFFFFFFFFFF DUP2 GT ISZERO PUSH2 0x28C2 JUMPI PUSH2 0x28C1 PUSH2 0x1A1E JUMP JUMPDEST JUMPDEST PUSH2 0x28CC DUP3 SLOAD PUSH2 0x26C3 JUMP JUMPDEST PUSH2 0x28D7 DUP3 DUP3 DUP6 PUSH2 0x2813 JUMP JUMPDEST PUSH1 0x0 PUSH1 0x20 SWAP1 POP PUSH1 0x1F DUP4 GT PUSH1 0x1 DUP2 EQ PUSH2 0x290A JUMPI PUSH1 0x0 DUP5 ISZERO PUSH2 0x28F8 JUMPI DUP3 DUP8 ADD MLOAD SWAP1 POP JUMPDEST PUSH2 0x2902 DUP6 DUP3 PUSH2 0x2884 JUMP JUMPDEST DUP7 SSTORE POP PUSH2 0x296A JUMP JUMPDEST PUSH1 0x1F NOT DUP5 AND PUSH2 0x2918 DUP7 PUSH2 0x26F4 JUMP JUMPDEST PUSH1 0x0 JUMPDEST DUP3 DUP2 LT ISZERO PUSH2 0x2940 JUMPI DUP5 DUP10 ADD MLOAD DUP3 SSTORE PUSH1 0x1 DUP3 ADD SWAP2 POP PUSH1 0x20 DUP6 ADD SWAP5 POP PUSH1 0x20 DUP2 ADD SWAP1 POP PUSH2 0x291B JUMP JUMPDEST DUP7 DUP4 LT ISZERO PUSH2 0x295D JUMPI DUP5 DUP10 ADD MLOAD PUSH2 0x2959 PUSH1 0x1F DUP10 AND DUP3 PUSH2 0x2866 JUMP JUMPDEST DUP4 SSTORE POP JUMPDEST PUSH1 0x1 PUSH1 0x2 DUP9 MUL ADD DUP9 SSTORE POP POP POP JUMPDEST POP POP POP POP POP POP JUMP JUMPDEST PUSH1 0x0 DUP2 SLOAD SWAP1 POP PUSH2 0x2981 DUP2 PUSH2 0x26C3 JUMP JUMPDEST SWAP1 POP SWAP2 SWAP1 POP JUMP JUMPDEST DUP2 DUP2 SUB PUSH2 0x2996 JUMPI POP POP PUSH2 0x2A6E JUMP JUMPDEST PUSH2 0x299F DUP3 PUSH2 0x2972 JUMP JUMPDEST PUSH8 0xFFFFFFFFFFFFFFFF DUP2 GT ISZERO PUSH2 0x29B8 JUMPI PUSH2 0x29B7 PUSH2 0x1A1E JUMP JUMPDEST JUMPDEST PUSH2 0x29C2 DUP3 SLOAD PUSH2 0x26C3 JUMP JUMPDEST PUSH2 0x29CD DUP3 DUP3 DUP6 PUSH2 0x2813 JUMP JUMPDEST PUSH1 0x0 PUSH1 0x1F DUP4 GT PUSH1 0x1 DUP2 EQ PUSH2 0x29FC JUMPI PUSH1 0x0 DUP5 ISZERO PUSH2 0x29EA JUMPI DUP3 DUP8 ADD SLOAD SWAP1 POP JUMPDEST PUSH2 0x29F4 DUP6 DUP3 PUSH2 0x2884 JUMP JUMPDEST DUP7 SSTORE POP PUSH2 0x2A67 JUMP JUMPDEST PUSH1 0x1F NOT DUP5 AND PUSH2 0x2A0A DUP8 PUSH2 0x26F4 JUMP JUMPDEST SWAP7 POP PUSH2 0x2A15 DUP7 PUSH2 0x26F4 JUMP JUMPDEST PUSH1 0x0 JUMPDEST DUP3 DUP2 LT ISZERO PUSH2 0x2A3D JUMPI DUP5 DUP10 ADD SLOAD DUP3 SSTORE PUSH1 0x1 DUP3 ADD SWAP2 POP PUSH1 0x1 DUP6 ADD SWAP5 POP PUSH1 0x20 DUP2 ADD SWAP1 POP PUSH2 0x2A18 JUMP JUMPDEST DUP7 DUP4 LT ISZERO PUSH2 0x2A5A JUMPI DUP5 DUP10 ADD SLOAD PUSH2 0x2A56 PUSH1 0x1F DUP10 AND DUP3 PUSH2 0x2866 JUMP JUMPDEST DUP4 SSTORE POP JUMPDEST PUSH1 0x1 PUSH1 0x2 DUP9 MUL ADD DUP9 SSTORE POP POP POP JUMPDEST POP POP POP POP POP POP JUMPDEST JUMP JUMPDEST PUSH32 0x4F6E6C79207468652046696C65204F776E65722063616E20636865636B206E75 PUSH1 0x0 DUP3 ADD MSTORE PUSH32 0x6D626572206F6620736861726473000000000000000000000000000000000000 PUSH1 0x20 DUP3 ADD MSTORE POP JUMP JUMPDEST PUSH1 0x0 PUSH2 0x2ACC PUSH1 0x2E DUP4 PUSH2 0x20CA JUMP JUMPDEST SWAP2 POP PUSH2 0x2AD7 DUP3 PUSH2 0x2A70 JUMP JUMPDEST PUSH1 0x40 DUP3 ADD SWAP1 POP SWAP2 SWAP1 POP JUMP JUMPDEST PUSH1 0x0 PUSH1 0x20 DUP3 ADD SWAP1 POP DUP2 DUP2 SUB PUSH1 0x0 DUP4 ADD MSTORE PUSH2 0x2AFB DUP2 PUSH2 0x2ABF JUMP JUMPDEST SWAP1 POP SWAP2 SWAP1 POP JUMP JUMPDEST PUSH32 0x4F776E61626C653A206E6577206F776E657220697320746865207A65726F2061 PUSH1 0x0 DUP3 ADD MSTORE PUSH32 0x6464726573730000000000000000000000000000000000000000000000000000 PUSH1 0x20 DUP3 ADD MSTORE POP JUMP JUMPDEST PUSH1 0x0 PUSH2 0x2B5E PUSH1 0x26 DUP4 PUSH2 0x20CA JUMP JUMPDEST SWAP2 POP PUSH2 0x2B69 DUP3 PUSH2 0x2B02 JUMP JUMPDEST PUSH1 0x40 DUP3 ADD SWAP1 POP SWAP2 SWAP1 POP JUMP JUMPDEST PUSH1 0x0 PUSH1 0x20 DUP3 ADD SWAP1 POP DUP2 DUP2 SUB PUSH1 0x0 DUP4 ADD MSTORE PUSH2 0x2B8D DUP2 PUSH2 0x2B51 JUMP JUMPDEST SWAP1 POP SWAP2 SWAP1 POP JUMP JUMPDEST PUSH32 0x4F776E61626C653A2063616C6C6572206973206E6F7420746865206F776E6572 PUSH1 0x0 DUP3 ADD MSTORE POP JUMP JUMPDEST PUSH1 0x0 PUSH2 0x2BCA PUSH1 0x20 DUP4 PUSH2 0x20CA JUMP JUMPDEST SWAP2 POP PUSH2 0x2BD5 DUP3 PUSH2 0x2B94 JUMP JUMPDEST PUSH1 0x20 DUP3 ADD SWAP1 POP SWAP2 SWAP1 POP JUMP JUMPDEST PUSH1 0x0 PUSH1 0x20 DUP3 ADD SWAP1 POP DUP2 DUP2 SUB PUSH1 0x0 DUP4 ADD MSTORE PUSH2 0x2BF9 DUP2 PUSH2 0x2BBD JUMP JUMPDEST SWAP1 POP SWAP2 SWAP1 POP JUMP INVALID LOG2 PUSH5 0x6970667358 0x22 SLT KECCAK256 DUP12 0xD6 DELEGATECALL PUSH13 0x2C33B442A0767C83874F826EBA CREATE2 0xEC CALL DUP11 SWAP10 0x49 0xEF PUSH16 0x7BE8C251C83F8C64736F6C6343000812 STOP CALLER "
				},
				"gasEstimates": {
					"creation": {
						"codeDepositCost": "2263600",
						"executionCost": "infinite",
						"totalCost": "infinite"
					},
					"external": {
						"_deleteFileHash(bytes20)": "infinite",
						"_storeFile(bytes20)": "infinite",
						"addShardToStorageProvider(uint256,uint256,uint256)": "infinite",
						"addStorageProvider(address,uint256,uint256,string)": "infinite",
						"associateShardsWithFileHash(bytes20,uint256[])": "infinite",
						"getFilehashesByOwner(address)": "infinite",
						"getShardsByFilehash(bytes20)": "infinite",
						"getShardsInFile_Count(bytes20)": "5136",
						"getStorageProviderNodeID(address)": "infinite",
						"owner()": "2589",
						"removeShardFromStorageProvider(uint256,uint256)": "infinite",
						"removeStorageProvider(address)": "infinite",
						"renounceOwnership()": "30465",
						"setFileHashOwner(bytes20,address)": "27286",
						"transferOwnership(address)": "30832"
					},
					"internal": {
						"_dropShardsOfDeletedFile(bytes20)": "infinite",
						"checkFileHash(bytes20)": "infinite",
						"getShardIDs(bytes20)": "infinite",
						"hasConsent(bytes20,address)": "2286"
					}
				},
				"methodIdentifiers": {
					"_deleteFileHash(bytes20)": "2de1468e",
					"_storeFile(bytes20)": "45246f8e",
					"addShardToStorageProvider(uint256,uint256,uint256)": "7083ffd4",
					"addStorageProvider(address,uint256,uint256,string)": "93ed6900",
					"associateShardsWithFileHash(bytes20,uint256[])": "103f90a3",
					"getFilehashesByOwner(address)": "8d22899b",
					"getShardsByFilehash(bytes20)": "28d305ab",
					"getShardsInFile_Count(bytes20)": "e0400f74",
					"getStorageProviderNodeID(address)": "828e6f1a",
					"owner()": "8da5cb5b",
					"removeShardFromStorageProvider(uint256,uint256)": "d5faa8d1",
					"removeStorageProvider(address)": "bbbc1f08",
					"renounceOwnership()": "715018a6",
					"setFileHashOwner(bytes20,address)": "8381d799",
					"transferOwnership(address)": "f2fde38b"
				}
			},
			"storageLayout": {
				"storage": [
					{
						"astId": 29,
						"contract": "contracts/494_storage_contract.sol:ShardManager",
						"label": "_owner",
						"offset": 0,
						"slot": "0",
						"type": "t_address"
					},
					{
						"astId": 160,
						"contract": "contracts/494_storage_contract.sol:ShardManager",
						"label": "availableFarmers",
						"offset": 0,
						"slot": "1",
						"type": "t_array(t_struct(Farmer)156_storage)dyn_storage"
					},
					{
						"astId": 163,
						"contract": "contracts/494_storage_contract.sol:ShardManager",
						"label": "availableFarmerNodeIds",
						"offset": 0,
						"slot": "2",
						"type": "t_array(t_uint256)dyn_storage"
					},
					{
						"astId": 167,
						"contract": "contracts/494_storage_contract.sol:ShardManager",
						"label": "shards",
						"offset": 0,
						"slot": "3",
						"type": "t_array(t_struct(Shard)145_storage)dyn_storage"
					},
					{
						"astId": 170,
						"contract": "contracts/494_storage_contract.sol:ShardManager",
						"label": "fileHashes",
						"offset": 0,
						"slot": "4",
						"type": "t_array(t_bytes20)dyn_storage"
					},
					{
						"astId": 174,
						"contract": "contracts/494_storage_contract.sol:ShardManager",
						"label": "fileHashToOwner",
						"offset": 0,
						"slot": "5",
						"type": "t_mapping(t_bytes20,t_address)"
					},
					{
						"astId": 178,
						"contract": "contracts/494_storage_contract.sol:ShardManager",
						"label": "shardIdtoFileHash",
						"offset": 0,
						"slot": "6",
						"type": "t_mapping(t_uint256,t_bytes20)"
					},
					{
						"astId": 182,
						"contract": "contracts/494_storage_contract.sol:ShardManager",
						"label": "shardIdtoFarmerNodeId",
						"offset": 0,
						"slot": "7",
						"type": "t_mapping(t_uint256,t_uint256)"
					},
					{
						"astId": 186,
						"contract": "contracts/494_storage_contract.sol:ShardManager",
						"label": "fileHashToArrayIndexes",
						"offset": 0,
						"slot": "8",
						"type": "t_mapping(t_bytes20,t_uint256)"
					},
					{
						"astId": 351,
						"contract": "contracts/494_storage_contract.sol:ShardManager",
						"label": "fileHashToShards",
						"offset": 0,
						"slot": "9",
						"type": "t_mapping(t_bytes20,t_array(t_uint256)dyn_storage)"
					},
					{
						"astId": 355,
						"contract": "contracts/494_storage_contract.sol:ShardManager",
						"label": "fileHashOwners",
						"offset": 0,
						"slot": "10",
						"type": "t_mapping(t_string_memory_ptr,t_address)"
					},
					{
						"astId": 489,
						"contract": "contracts/494_storage_contract.sol:ShardManager",
						"label": "farmerShardCount",
						"offset": 0,
						"slot": "11",
						"type": "t_mapping(t_uint256,t_uint256)"
					},
					{
						"astId": 493,
						"contract": "contracts/494_storage_contract.sol:ShardManager",
						"label": "ownerFileCount",
						"offset": 0,
						"slot": "12",
						"type": "t_mapping(t_address,t_uint256)"
					},
					{
						"astId": 497,
						"contract": "contracts/494_storage_contract.sol:ShardManager",
						"label": "shardsInFile_Count",
						"offset": 0,
						"slot": "13",
						"type": "t_mapping(t_bytes20,t_uint256)"
					}
				],
				"types": {
					"t_address": {
						"encoding": "inplace",
						"label": "address",
						"numberOfBytes": "20"
					},
					"t_array(t_bytes20)dyn_storage": {
						"base": "t_bytes20",
						"encoding": "dynamic_array",
						"label": "bytes20[]",
						"numberOfBytes": "32"
					},
					"t_array(t_struct(Farmer)156_storage)dyn_storage": {
						"base": "t_struct(Farmer)156_storage",
						"encoding": "dynamic_array",
						"label": "struct ShardManager.Farmer[]",
						"numberOfBytes": "32"
					},
					"t_array(t_struct(Shard)145_storage)dyn_storage": {
						"base": "t_struct(Shard)145_storage",
						"encoding": "dynamic_array",
						"label": "struct ShardManager.Shard[]",
						"numberOfBytes": "32"
					},
					"t_array(t_uint256)dyn_storage": {
						"base": "t_uint256",
						"encoding": "dynamic_array",
						"label": "uint256[]",
						"numberOfBytes": "32"
					},
					"t_bytes20": {
						"encoding": "inplace",
						"label": "bytes20",
						"numberOfBytes": "20"
					},
					"t_mapping(t_address,t_uint256)": {
						"encoding": "mapping",
						"key": "t_address",
						"label": "mapping(address => uint256)",
						"numberOfBytes": "32",
						"value": "t_uint256"
					},
					"t_mapping(t_bytes20,t_address)": {
						"encoding": "mapping",
						"key": "t_bytes20",
						"label": "mapping(bytes20 => address)",
						"numberOfBytes": "32",
						"value": "t_address"
					},
					"t_mapping(t_bytes20,t_array(t_uint256)dyn_storage)": {
						"encoding": "mapping",
						"key": "t_bytes20",
						"label": "mapping(bytes20 => uint256[])",
						"numberOfBytes": "32",
						"value": "t_array(t_uint256)dyn_storage"
					},
					"t_mapping(t_bytes20,t_uint256)": {
						"encoding": "mapping",
						"key": "t_bytes20",
						"label": "mapping(bytes20 => uint256)",
						"numberOfBytes": "32",
						"value": "t_uint256"
					},
					"t_mapping(t_string_memory_ptr,t_address)": {
						"encoding": "mapping",
						"key": "t_string_memory_ptr",
						"label": "mapping(string => address)",
						"numberOfBytes": "32",
						"value": "t_address"
					},
					"t_mapping(t_uint256,t_bytes20)": {
						"encoding": "mapping",
						"key": "t_uint256",
						"label": "mapping(uint256 => bytes20)",
						"numberOfBytes": "32",
						"value": "t_bytes20"
					},
					"t_mapping(t_uint256,t_uint256)": {
						"encoding": "mapping",
						"key": "t_uint256",
						"label": "mapping(uint256 => uint256)",
						"numberOfBytes": "32",
						"value": "t_uint256"
					},
					"t_string_memory_ptr": {
						"encoding": "bytes",
						"label": "string",
						"numberOfBytes": "32"
					},
					"t_string_storage": {
						"encoding": "bytes",
						"label": "string",
						"numberOfBytes": "32"
					},
					"t_struct(Farmer)156_storage": {
						"encoding": "inplace",
						"label": "struct ShardManager.Farmer",
						"members": [
							{
								"astId": 147,
								"contract": "contracts/494_storage_contract.sol:ShardManager",
								"label": "walletAddress",
								"offset": 0,
								"slot": "0",
								"type": "t_address"
							},
							{
								"astId": 149,
								"contract": "contracts/494_storage_contract.sol:ShardManager",
								"label": "nodeId",
								"offset": 0,
								"slot": "1",
								"type": "t_uint256"
							},
							{
								"astId": 151,
								"contract": "contracts/494_storage_contract.sol:ShardManager",
								"label": "currentStoredSize",
								"offset": 0,
								"slot": "2",
								"type": "t_uint256"
							},
							{
								"astId": 153,
								"contract": "contracts/494_storage_contract.sol:ShardManager",
								"label": "maxStorageSize",
								"offset": 0,
								"slot": "3",
								"type": "t_uint256"
							},
							{
								"astId": 155,
								"contract": "contracts/494_storage_contract.sol:ShardManager",
								"label": "storageType",
								"offset": 0,
								"slot": "4",
								"type": "t_string_storage"
							}
						],
						"numberOfBytes": "160"
					},
					"t_struct(Shard)145_storage": {
						"encoding": "inplace",
						"label": "struct ShardManager.Shard",
						"members": [
							{
								"astId": 142,
								"contract": "contracts/494_storage_contract.sol:ShardManager",
								"label": "shardId",
								"offset": 0,
								"slot": "0",
								"type": "t_uint256"
							},
							{
								"astId": 144,
								"contract": "contracts/494_storage_contract.sol:ShardManager",
								"label": "shardData",
								"offset": 0,
								"slot": "1",
								"type": "t_string_storage"
							}
						],
						"numberOfBytes": "64"
					},
					"t_uint256": {
						"encoding": "inplace",
						"label": "uint256",
						"numberOfBytes": "32"
					}
				}
			},
			"userdoc": {
				"kind": "user",
				"methods": {},
				"version": 1
			}
		}
	}
}