{
	"Cloudy-Blockchain/contracts/cloudy_contract.sol": {
		"ClientManager": {
			"abi": [
				{
					"anonymous": false,
					"inputs": [
						{
							"indexed": false,
							"internalType": "bytes20",
							"name": "_filehash",
							"type": "bytes20"
						}
					],
					"name": "DeleteFile",
					"type": "event"
				},
				{
					"anonymous": false,
					"inputs": [
						{
							"indexed": false,
							"internalType": "uint256",
							"name": "farmerNodeId",
							"type": "uint256"
						}
					],
					"name": "FarmerAdded",
					"type": "event"
				},
				{
					"anonymous": false,
					"inputs": [
						{
							"indexed": false,
							"internalType": "uint256",
							"name": "farmerNodeId",
							"type": "uint256"
						}
					],
					"name": "FarmerRemoved",
					"type": "event"
				},
				{
					"anonymous": false,
					"inputs": [
						{
							"indexed": false,
							"internalType": "bytes20",
							"name": "_filehash",
							"type": "bytes20"
						}
					],
					"name": "NewFile",
					"type": "event"
				},
				{
					"anonymous": false,
					"inputs": [
						{
							"indexed": true,
							"internalType": "address",
							"name": "previousOwner",
							"type": "address"
						},
						{
							"indexed": true,
							"internalType": "address",
							"name": "newOwner",
							"type": "address"
						}
					],
					"name": "OwnershipTransferred",
					"type": "event"
				},
				{
					"anonymous": false,
					"inputs": [
						{
							"indexed": false,
							"internalType": "uint256",
							"name": "shardId",
							"type": "uint256"
						}
					],
					"name": "ShardAdded",
					"type": "event"
				},
				{
					"anonymous": false,
					"inputs": [
						{
							"indexed": false,
							"internalType": "uint256",
							"name": "shardId",
							"type": "uint256"
						},
						{
							"indexed": false,
							"internalType": "uint256",
							"name": "farmerNodeId",
							"type": "uint256"
						}
					],
					"name": "ShardAssigned",
					"type": "event"
				},
				{
					"anonymous": false,
					"inputs": [
						{
							"indexed": false,
							"internalType": "uint256",
							"name": "shardId",
							"type": "uint256"
						},
						{
							"indexed": false,
							"internalType": "uint256",
							"name": "farmerNodeId",
							"type": "uint256"
						}
					],
					"name": "ShardDeleted",
					"type": "event"
				},
				{
					"inputs": [
						{
							"internalType": "bytes20",
							"name": "_fileHash",
							"type": "bytes20"
						}
					],
					"name": "_deleteFileHash",
					"outputs": [],
					"stateMutability": "nonpayable",
					"type": "function"
				},
				{
					"inputs": [
						{
							"internalType": "bytes20",
							"name": "_filehash",
							"type": "bytes20"
						}
					],
					"name": "_dropShardsOfDeletedFile",
					"outputs": [],
					"stateMutability": "nonpayable",
					"type": "function"
				},
				{
					"inputs": [
						{
							"internalType": "bytes20",
							"name": "_filehash",
							"type": "bytes20"
						}
					],
					"name": "_storeFile",
					"outputs": [],
					"stateMutability": "nonpayable",
					"type": "function"
				},
				{
					"inputs": [
						{
							"internalType": "uint256",
							"name": "_shardId",
							"type": "uint256"
						},
						{
							"internalType": "uint256",
							"name": "_farmerNodeId",
							"type": "uint256"
						}
					],
					"name": "addShardToStorageProvider",
					"outputs": [],
					"stateMutability": "nonpayable",
					"type": "function"
				},
				{
					"inputs": [
						{
							"internalType": "address",
							"name": "_walletAddress",
							"type": "address"
						},
						{
							"internalType": "uint256",
							"name": "_maxStorageSize",
							"type": "uint256"
						},
						{
							"internalType": "string",
							"name": "_storageType",
							"type": "string"
						}
					],
					"name": "addStorageProvider",
					"outputs": [
						{
							"internalType": "uint256",
							"name": "_nodeId",
							"type": "uint256"
						}
					],
					"stateMutability": "nonpayable",
					"type": "function"
				},
				{
					"inputs": [
						{
							"internalType": "bytes20",
							"name": "_fileHash",
							"type": "bytes20"
						},
						{
							"internalType": "uint256[]",
							"name": "shardIDs",
							"type": "uint256[]"
						}
					],
					"name": "associateShardsWithFileHash",
					"outputs": [],
					"stateMutability": "nonpayable",
					"type": "function"
				},
				{
					"inputs": [
						{
							"internalType": "bytes20",
							"name": "_filehash",
							"type": "bytes20"
						}
					],
					"name": "checkFileHashExternal",
					"outputs": [
						{
							"internalType": "uint256",
							"name": "",
							"type": "uint256"
						}
					],
					"stateMutability": "view",
					"type": "function"
				},
				{
					"inputs": [
						{
							"internalType": "uint256",
							"name": "nodeId",
							"type": "uint256"
						}
					],
					"name": "containsNode",
					"outputs": [
						{
							"internalType": "bool",
							"name": "",
							"type": "bool"
						}
					],
					"stateMutability": "view",
					"type": "function"
				},
				{
					"inputs": [
						{
							"internalType": "bytes20",
							"name": "",
							"type": "bytes20"
						}
					],
					"name": "fileHashToOwner",
					"outputs": [
						{
							"internalType": "address",
							"name": "",
							"type": "address"
						}
					],
					"stateMutability": "view",
					"type": "function"
				},
				{
					"inputs": [
						{
							"internalType": "bytes20",
							"name": "",
							"type": "bytes20"
						}
					],
					"name": "fileHashToShardCount",
					"outputs": [
						{
							"internalType": "uint256",
							"name": "",
							"type": "uint256"
						}
					],
					"stateMutability": "view",
					"type": "function"
				},
				{
					"inputs": [
						{
							"internalType": "uint256",
							"name": "_nodeId",
							"type": "uint256"
						}
					],
					"name": "getFarmer",
					"outputs": [
						{
							"internalType": "address",
							"name": "",
							"type": "address"
						},
						{
							"internalType": "uint256",
							"name": "",
							"type": "uint256"
						},
						{
							"internalType": "uint256",
							"name": "",
							"type": "uint256"
						},
						{
							"internalType": "uint256",
							"name": "",
							"type": "uint256"
						},
						{
							"internalType": "string",
							"name": "",
							"type": "string"
						}
					],
					"stateMutability": "view",
					"type": "function"
				},
				{
					"inputs": [],
					"name": "getFarmerCount",
					"outputs": [
						{
							"internalType": "uint256",
							"name": "",
							"type": "uint256"
						}
					],
					"stateMutability": "view",
					"type": "function"
				},
				{
					"inputs": [
						{
							"internalType": "uint256",
							"name": "_shardId",
							"type": "uint256"
						}
					],
					"name": "getFarmerIdFromShardId",
					"outputs": [
						{
							"internalType": "uint256",
							"name": "",
							"type": "uint256"
						}
					],
					"stateMutability": "view",
					"type": "function"
				},
				{
					"inputs": [],
					"name": "getMyFilehashes",
					"outputs": [
						{
							"internalType": "bytes20[]",
							"name": "",
							"type": "bytes20[]"
						}
					],
					"stateMutability": "view",
					"type": "function"
				},
				{
					"inputs": [],
					"name": "getShardCount",
					"outputs": [
						{
							"internalType": "uint256",
							"name": "",
							"type": "uint256"
						}
					],
					"stateMutability": "view",
					"type": "function"
				},
				{
					"inputs": [
						{
							"internalType": "uint256",
							"name": "_shardId",
							"type": "uint256"
						}
					],
					"name": "getShardData",
					"outputs": [
						{
							"internalType": "string",
							"name": "",
							"type": "string"
						}
					],
					"stateMutability": "view",
					"type": "function"
				},
				{
					"inputs": [
						{
							"internalType": "bytes20",
							"name": "fileHash",
							"type": "bytes20"
						}
					],
					"name": "getShardIDs",
					"outputs": [
						{
							"internalType": "uint256[]",
							"name": "",
							"type": "uint256[]"
						}
					],
					"stateMutability": "view",
					"type": "function"
				},
				{
					"inputs": [
						{
							"internalType": "bytes20",
							"name": "_filehash",
							"type": "bytes20"
						}
					],
					"name": "getShardsByFilehash",
					"outputs": [
						{
							"internalType": "uint256[]",
							"name": "",
							"type": "uint256[]"
						}
					],
					"stateMutability": "view",
					"type": "function"
				},
				{
					"inputs": [
						{
							"internalType": "bytes20",
							"name": "fileHash",
							"type": "bytes20"
						}
					],
					"name": "getShardsInFile_Count",
					"outputs": [
						{
							"internalType": "uint256",
							"name": "",
							"type": "uint256"
						}
					],
					"stateMutability": "view",
					"type": "function"
				},
				{
					"inputs": [
						{
							"internalType": "address",
							"name": "_address",
							"type": "address"
						}
					],
					"name": "getStorageProviderNodeID",
					"outputs": [
						{
							"internalType": "uint256",
							"name": "",
							"type": "uint256"
						}
					],
					"stateMutability": "view",
					"type": "function"
				},
				{
					"inputs": [
						{
							"internalType": "bytes20",
							"name": "_fileHash",
							"type": "bytes20"
						},
						{
							"internalType": "address",
							"name": "caller",
							"type": "address"
						}
					],
					"name": "hasConsent",
					"outputs": [
						{
							"internalType": "bool",
							"name": "",
							"type": "bool"
						}
					],
					"stateMutability": "view",
					"type": "function"
				},
				{
					"inputs": [],
					"name": "owner",
					"outputs": [
						{
							"internalType": "address",
							"name": "",
							"type": "address"
						}
					],
					"stateMutability": "view",
					"type": "function"
				},
				{
					"inputs": [
						{
							"internalType": "address",
							"name": "",
							"type": "address"
						}
					],
					"name": "ownerFileCount",
					"outputs": [
						{
							"internalType": "uint256",
							"name": "",
							"type": "uint256"
						}
					],
					"stateMutability": "view",
					"type": "function"
				},
				{
					"inputs": [
						{
							"internalType": "uint256",
							"name": "_shardId",
							"type": "uint256"
						},
						{
							"internalType": "uint256",
							"name": "_farmerNodeId",
							"type": "uint256"
						}
					],
					"name": "removeShardFromStorageProvider",
					"outputs": [],
					"stateMutability": "nonpayable",
					"type": "function"
				},
				{
					"inputs": [
						{
							"internalType": "uint256",
							"name": "_nodeId",
							"type": "uint256"
						}
					],
					"name": "removeStorageProvider",
					"outputs": [],
					"stateMutability": "nonpayable",
					"type": "function"
				},
				{
					"inputs": [],
					"name": "renounceOwnership",
					"outputs": [],
					"stateMutability": "nonpayable",
					"type": "function"
				},
				{
					"inputs": [
						{
							"internalType": "bytes20",
							"name": "fileHash",
							"type": "bytes20"
						},
						{
							"internalType": "address",
							"name": "owner",
							"type": "address"
						}
					],
					"name": "setFileHashOwner",
					"outputs": [],
					"stateMutability": "nonpayable",
					"type": "function"
				},
				{
					"inputs": [
						{
							"internalType": "address",
							"name": "newOwner",
							"type": "address"
						}
					],
					"name": "transferOwnership",
					"outputs": [],
					"stateMutability": "nonpayable",
					"type": "function"
				}
			],
			"devdoc": {
				"custom:dev-run-script": "./scripts/web3-lib.ts",
				"details": "turns files into many shards. ./contracts/Ben_1_cryptozombies_testing.sol",
				"kind": "dev",
				"methods": {
					"owner()": {
						"details": "Returns the address of the current owner."
					},
					"renounceOwnership()": {
						"details": "Leaves the contract without owner. It will not be possible to call `onlyOwner` functions. Can only be called by the current owner. NOTE: Renouncing ownership will leave the contract without an owner, thereby disabling any functionality that is only available to the owner."
					},
					"transferOwnership(address)": {
						"details": "Transfers ownership of the contract to a new account (`newOwner`). Can only be called by the current owner."
					}
				},
				"title": "ClientManager",
				"version": 1
			},
			"evm": {
				"assembly": "    /* \"Cloudy-Blockchain/contracts/cloudy_contract.sol\":264:16082  contract ClientManager is Ownable {... */\n  mstore(0x40, 0x80)\n    /* \"Cloudy-Blockchain/contracts/cloudy_contract.sol\":942:943  0 */\n  0x00\n    /* \"Cloudy-Blockchain/contracts/cloudy_contract.sol\":911:943  uint farmerNodeIdIncrementer = 0 */\n  0x04\n  sstore\n    /* \"Cloudy-Blockchain/contracts/cloudy_contract.sol\":264:16082  contract ClientManager is Ownable {... */\n  callvalue\n  dup1\n  iszero\n  tag_1\n  jumpi\n  0x00\n  dup1\n  revert\ntag_1:\n  pop\n    /* \"Cloudy-Blockchain/.deps/ownable.sol\":929:961  _transferOwnership(_msgSender()) */\n  tag_4\n    /* \"Cloudy-Blockchain/.deps/ownable.sol\":948:960  _msgSender() */\n  tag_5\n    /* \"Cloudy-Blockchain/.deps/ownable.sol\":948:958  _msgSender */\n  shl(0x20, tag_6)\n    /* \"Cloudy-Blockchain/.deps/ownable.sol\":948:960  _msgSender() */\n  0x20\n  shr\n  jump\t// in\ntag_5:\n    /* \"Cloudy-Blockchain/.deps/ownable.sol\":929:947  _transferOwnership */\n  shl(0x20, tag_7)\n    /* \"Cloudy-Blockchain/.deps/ownable.sol\":929:961  _transferOwnership(_msgSender()) */\n  0x20\n  shr\n  jump\t// in\ntag_4:\n    /* \"Cloudy-Blockchain/contracts/cloudy_contract.sol\":264:16082  contract ClientManager is Ownable {... */\n  jump(tag_8)\n    /* \"Cloudy-Blockchain/.deps/context.sol\":640:736  function _msgSender() internal view virtual returns (address) {... */\ntag_6:\n    /* \"Cloudy-Blockchain/.deps/context.sol\":693:700  address */\n  0x00\n    /* \"Cloudy-Blockchain/.deps/context.sol\":719:729  msg.sender */\n  caller\n    /* \"Cloudy-Blockchain/.deps/context.sol\":712:729  return msg.sender */\n  swap1\n  pop\n    /* \"Cloudy-Blockchain/.deps/context.sol\":640:736  function _msgSender() internal view virtual returns (address) {... */\n  swap1\n  jump\t// out\n    /* \"Cloudy-Blockchain/.deps/ownable.sol\":2419:2606  function _transferOwnership(address newOwner) internal virtual {... */\ntag_7:\n    /* \"Cloudy-Blockchain/.deps/ownable.sol\":2492:2508  address oldOwner */\n  0x00\n    /* \"Cloudy-Blockchain/.deps/ownable.sol\":2511:2517  _owner */\n  dup1\n  0x00\n  swap1\n  sload\n  swap1\n  0x0100\n  exp\n  swap1\n  div\n  0xffffffffffffffffffffffffffffffffffffffff\n  and\n    /* \"Cloudy-Blockchain/.deps/ownable.sol\":2492:2517  address oldOwner = _owner */\n  swap1\n  pop\n    /* \"Cloudy-Blockchain/.deps/ownable.sol\":2536:2544  newOwner */\n  dup2\n    /* \"Cloudy-Blockchain/.deps/ownable.sol\":2527:2533  _owner */\n  0x00\n  dup1\n    /* \"Cloudy-Blockchain/.deps/ownable.sol\":2527:2544  _owner = newOwner */\n  0x0100\n  exp\n  dup2\n  sload\n  dup2\n  0xffffffffffffffffffffffffffffffffffffffff\n  mul\n  not\n  and\n  swap1\n  dup4\n  0xffffffffffffffffffffffffffffffffffffffff\n  and\n  mul\n  or\n  swap1\n  sstore\n  pop\n    /* \"Cloudy-Blockchain/.deps/ownable.sol\":2590:2598  newOwner */\n  dup2\n    /* \"Cloudy-Blockchain/.deps/ownable.sol\":2559:2599  OwnershipTransferred(oldOwner, newOwner) */\n  0xffffffffffffffffffffffffffffffffffffffff\n  and\n    /* \"Cloudy-Blockchain/.deps/ownable.sol\":2580:2588  oldOwner */\n  dup2\n    /* \"Cloudy-Blockchain/.deps/ownable.sol\":2559:2599  OwnershipTransferred(oldOwner, newOwner) */\n  0xffffffffffffffffffffffffffffffffffffffff\n  and\n  0x8be0079c531659141344cd1fd0a4f28419497f9722a3daafe3b4186f6b6457e0\n  mload(0x40)\n  mload(0x40)\n  dup1\n  swap2\n  sub\n  swap1\n  log3\n    /* \"Cloudy-Blockchain/.deps/ownable.sol\":2482:2606  {... */\n  pop\n    /* \"Cloudy-Blockchain/.deps/ownable.sol\":2419:2606  function _transferOwnership(address newOwner) internal virtual {... */\n  pop\n  jump\t// out\n    /* \"Cloudy-Blockchain/contracts/cloudy_contract.sol\":264:16082  contract ClientManager is Ownable {... */\ntag_8:\n  dataSize(sub_0)\n  dup1\n  dataOffset(sub_0)\n  0x00\n  codecopy\n  0x00\n  return\nstop\n\nsub_0: assembly {\n        /* \"Cloudy-Blockchain/contracts/cloudy_contract.sol\":264:16082  contract ClientManager is Ownable {... */\n      mstore(0x40, 0x80)\n      callvalue\n      dup1\n      iszero\n      tag_1\n      jumpi\n      0x00\n      dup1\n      revert\n    tag_1:\n      pop\n      jumpi(tag_2, lt(calldatasize, 0x04))\n      shr(0xe0, calldataload(0x00))\n      dup1\n      0x828e6f1a\n      gt\n      tag_31\n      jumpi\n      dup1\n      0xb4fe4fa6\n      gt\n      tag_32\n      jumpi\n      dup1\n      0xd5faa8d1\n      gt\n      tag_33\n      jumpi\n      dup1\n      0xd5faa8d1\n      eq\n      tag_27\n      jumpi\n      dup1\n      0xe0400f74\n      eq\n      tag_28\n      jumpi\n      dup1\n      0xe270d1c1\n      eq\n      tag_29\n      jumpi\n      dup1\n      0xf2fde38b\n      eq\n      tag_30\n      jumpi\n      jump(tag_2)\n    tag_33:\n      dup1\n      0xb4fe4fa6\n      eq\n      tag_24\n      jumpi\n      dup1\n      0xc4a8b5d5\n      eq\n      tag_25\n      jumpi\n      dup1\n      0xc759bdbe\n      eq\n      tag_26\n      jumpi\n      jump(tag_2)\n    tag_32:\n      dup1\n      0x8da5cb5b\n      gt\n      tag_34\n      jumpi\n      dup1\n      0x8da5cb5b\n      eq\n      tag_20\n      jumpi\n      dup1\n      0x9650b0a5\n      eq\n      tag_21\n      jumpi\n      dup1\n      0xaad9eb3d\n      eq\n      tag_22\n      jumpi\n      dup1\n      0xad0caa76\n      eq\n      tag_23\n      jumpi\n      jump(tag_2)\n    tag_34:\n      dup1\n      0x828e6f1a\n      eq\n      tag_17\n      jumpi\n      dup1\n      0x8381d799\n      eq\n      tag_18\n      jumpi\n      dup1\n      0x8a78e46e\n      eq\n      tag_19\n      jumpi\n      jump(tag_2)\n    tag_31:\n      dup1\n      0x45246f8e\n      gt\n      tag_35\n      jumpi\n      dup1\n      0x636943b3\n      gt\n      tag_36\n      jumpi\n      dup1\n      0x636943b3\n      eq\n      tag_13\n      jumpi\n      dup1\n      0x6773042b\n      eq\n      tag_14\n      jumpi\n      dup1\n      0x715018a6\n      eq\n      tag_15\n      jumpi\n      dup1\n      0x8258d46e\n      eq\n      tag_16\n      jumpi\n      jump(tag_2)\n    tag_36:\n      dup1\n      0x45246f8e\n      eq\n      tag_10\n      jumpi\n      dup1\n      0x473f8928\n      eq\n      tag_11\n      jumpi\n      dup1\n      0x4f83b0ea\n      eq\n      tag_12\n      jumpi\n      jump(tag_2)\n    tag_35:\n      dup1\n      0x29eaa31b\n      gt\n      tag_37\n      jumpi\n      dup1\n      0x29eaa31b\n      eq\n      tag_6\n      jumpi\n      dup1\n      0x2de1468e\n      eq\n      tag_7\n      jumpi\n      dup1\n      0x4039df79\n      eq\n      tag_8\n      jumpi\n      dup1\n      0x439ec341\n      eq\n      tag_9\n      jumpi\n      jump(tag_2)\n    tag_37:\n      dup1\n      0x103f90a3\n      eq\n      tag_3\n      jumpi\n      dup1\n      0x189c4460\n      eq\n      tag_4\n      jumpi\n      dup1\n      0x28d305ab\n      eq\n      tag_5\n      jumpi\n    tag_2:\n      0x00\n      dup1\n      revert\n        /* \"Cloudy-Blockchain/contracts/cloudy_contract.sol\":5725:6193  function associateShardsWithFileHash(bytes20 _fileHash, uint[] memory shardIDs) external _onlyFileOwnerOrConsent(_fileHash) {... */\n    tag_3:\n      tag_38\n      0x04\n      dup1\n      calldatasize\n      sub\n      dup2\n      add\n      swap1\n      tag_39\n      swap2\n      swap1\n      tag_40\n      jump\t// in\n    tag_39:\n      tag_41\n      jump\t// in\n    tag_38:\n      stop\n        /* \"Cloudy-Blockchain/contracts/cloudy_contract.sol\":9614:10838  function addStorageProvider(address _walletAddress, uint _maxStorageSize, string memory _storageType) public returns (uint _nodeId) {... */\n    tag_4:\n      tag_42\n      0x04\n      dup1\n      calldatasize\n      sub\n      dup2\n      add\n      swap1\n      tag_43\n      swap2\n      swap1\n      tag_44\n      jump\t// in\n    tag_43:\n      tag_45\n      jump\t// in\n    tag_42:\n      mload(0x40)\n      tag_46\n      swap2\n      swap1\n      tag_47\n      jump\t// in\n    tag_46:\n      mload(0x40)\n      dup1\n      swap2\n      sub\n      swap1\n      return\n        /* \"Cloudy-Blockchain/contracts/cloudy_contract.sol\":8322:8563  function getShardsByFilehash(bytes20 _filehash) public view returns (uint[] memory) {... */\n    tag_5:\n      tag_48\n      0x04\n      dup1\n      calldatasize\n      sub\n      dup2\n      add\n      swap1\n      tag_49\n      swap2\n      swap1\n      tag_50\n      jump\t// in\n    tag_49:\n      tag_51\n      jump\t// in\n    tag_48:\n      mload(0x40)\n      tag_52\n      swap2\n      swap1\n      tag_53\n      jump\t// in\n    tag_52:\n      mload(0x40)\n      dup1\n      swap2\n      sub\n      swap1\n      return\n        /* \"Cloudy-Blockchain/contracts/cloudy_contract.sol\":15814:16080  function containsNode(uint nodeId) public view returns (bool) {... */\n    tag_6:\n      tag_54\n      0x04\n      dup1\n      calldatasize\n      sub\n      dup2\n      add\n      swap1\n      tag_55\n      swap2\n      swap1\n      tag_56\n      jump\t// in\n    tag_55:\n      tag_57\n      jump\t// in\n    tag_54:\n      mload(0x40)\n      tag_58\n      swap2\n      swap1\n      tag_59\n      jump\t// in\n    tag_58:\n      mload(0x40)\n      dup1\n      swap2\n      sub\n      swap1\n      return\n        /* \"Cloudy-Blockchain/contracts/cloudy_contract.sol\":3901:5039  function _deleteFileHash(bytes20 _fileHash) public {... */\n    tag_7:\n      tag_60\n      0x04\n      dup1\n      calldatasize\n      sub\n      dup2\n      add\n      swap1\n      tag_61\n      swap2\n      swap1\n      tag_50\n      jump\t// in\n    tag_61:\n      tag_62\n      jump\t// in\n    tag_60:\n      stop\n        /* \"Cloudy-Blockchain/contracts/cloudy_contract.sol\":14770:14995  function getShardData(uint _shardId) public view returns (string memory) {... */\n    tag_8:\n      tag_63\n      0x04\n      dup1\n      calldatasize\n      sub\n      dup2\n      add\n      swap1\n      tag_64\n      swap2\n      swap1\n      tag_56\n      jump\t// in\n    tag_64:\n      tag_65\n      jump\t// in\n    tag_63:\n      mload(0x40)\n      tag_66\n      swap2\n      swap1\n      tag_67\n      jump\t// in\n    tag_66:\n      mload(0x40)\n      dup1\n      swap2\n      sub\n      swap1\n      return\n        /* \"Cloudy-Blockchain/contracts/cloudy_contract.sol\":6250:6376  function getShardIDs(bytes20 fileHash) public view returns (uint[] memory) {... */\n    tag_9:\n      tag_68\n      0x04\n      dup1\n      calldatasize\n      sub\n      dup2\n      add\n      swap1\n      tag_69\n      swap2\n      swap1\n      tag_50\n      jump\t// in\n    tag_69:\n      tag_70\n      jump\t// in\n    tag_68:\n      mload(0x40)\n      tag_71\n      swap2\n      swap1\n      tag_53\n      jump\t// in\n    tag_71:\n      mload(0x40)\n      dup1\n      swap2\n      sub\n      swap1\n      return\n        /* \"Cloudy-Blockchain/contracts/cloudy_contract.sol\":2085:2916  function _storeFile(bytes20 _filehash) public {... */\n    tag_10:\n      tag_72\n      0x04\n      dup1\n      calldatasize\n      sub\n      dup2\n      add\n      swap1\n      tag_73\n      swap2\n      swap1\n      tag_50\n      jump\t// in\n    tag_73:\n      tag_74\n      jump\t// in\n    tag_72:\n      stop\n        /* \"Cloudy-Blockchain/contracts/cloudy_contract.sol\":2922:3325  function checkFileHashExternal(bytes20 _filehash) external view returns (uint) {... */\n    tag_11:\n      tag_75\n      0x04\n      dup1\n      calldatasize\n      sub\n      dup2\n      add\n      swap1\n      tag_76\n      swap2\n      swap1\n      tag_50\n      jump\t// in\n    tag_76:\n      tag_77\n      jump\t// in\n    tag_75:\n      mload(0x40)\n      tag_78\n      swap2\n      swap1\n      tag_47\n      jump\t// in\n    tag_78:\n      mload(0x40)\n      dup1\n      swap2\n      sub\n      swap1\n      return\n        /* \"Cloudy-Blockchain/contracts/cloudy_contract.sol\":8742:9608  function _dropShardsOfDeletedFile (bytes20 _filehash) public {... */\n    tag_12:\n      tag_79\n      0x04\n      dup1\n      calldatasize\n      sub\n      dup2\n      add\n      swap1\n      tag_80\n      swap2\n      swap1\n      tag_50\n      jump\t// in\n    tag_80:\n      tag_81\n      jump\t// in\n    tag_79:\n      stop\n        /* \"Cloudy-Blockchain/contracts/cloudy_contract.sol\":1241:1293  mapping(bytes20 => uint) public fileHashToShardCount */\n    tag_13:\n      tag_82\n      0x04\n      dup1\n      calldatasize\n      sub\n      dup2\n      add\n      swap1\n      tag_83\n      swap2\n      swap1\n      tag_50\n      jump\t// in\n    tag_83:\n      tag_84\n      jump\t// in\n    tag_82:\n      mload(0x40)\n      tag_85\n      swap2\n      swap1\n      tag_47\n      jump\t// in\n    tag_85:\n      mload(0x40)\n      dup1\n      swap2\n      sub\n      swap1\n      return\n        /* \"Cloudy-Blockchain/contracts/cloudy_contract.sol\":15134:15223  function getShardCount() public view returns (uint) {... */\n    tag_14:\n      tag_86\n      tag_87\n      jump\t// in\n    tag_86:\n      mload(0x40)\n      tag_88\n      swap2\n      swap1\n      tag_47\n      jump\t// in\n    tag_88:\n      mload(0x40)\n      dup1\n      swap2\n      sub\n      swap1\n      return\n        /* \"Cloudy-Blockchain/.deps/ownable.sol\":1817:1918  function renounceOwnership() public virtual onlyOwner {... */\n    tag_15:\n      tag_89\n      tag_90\n      jump\t// in\n    tag_89:\n      stop\n        /* \"Cloudy-Blockchain/contracts/cloudy_contract.sol\":11281:12058  function removeStorageProvider(uint _nodeId) public {... */\n    tag_16:\n      tag_91\n      0x04\n      dup1\n      calldatasize\n      sub\n      dup2\n      add\n      swap1\n      tag_92\n      swap2\n      swap1\n      tag_56\n      jump\t// in\n    tag_92:\n      tag_93\n      jump\t// in\n    tag_91:\n      stop\n        /* \"Cloudy-Blockchain/contracts/cloudy_contract.sol\":12064:12352  function getStorageProviderNodeID(address _address) external view returns (uint) {... */\n    tag_17:\n      tag_94\n      0x04\n      dup1\n      calldatasize\n      sub\n      dup2\n      add\n      swap1\n      tag_95\n      swap2\n      swap1\n      tag_96\n      jump\t// in\n    tag_95:\n      tag_97\n      jump\t// in\n    tag_94:\n      mload(0x40)\n      tag_98\n      swap2\n      swap1\n      tag_47\n      jump\t// in\n    tag_98:\n      mload(0x40)\n      dup1\n      swap2\n      sub\n      swap1\n      return\n        /* \"Cloudy-Blockchain/contracts/cloudy_contract.sol\":6739:6976  function setFileHashOwner(bytes20 fileHash, address owner) external {... */\n    tag_18:\n      tag_99\n      0x04\n      dup1\n      calldatasize\n      sub\n      dup2\n      add\n      swap1\n      tag_100\n      swap2\n      swap1\n      tag_101\n      jump\t// in\n    tag_100:\n      tag_102\n      jump\t// in\n    tag_99:\n      stop\n        /* \"Cloudy-Blockchain/contracts/cloudy_contract.sol\":12358:13699  function addShardToStorageProvider(uint _shardId, uint _farmerNodeId) public onlyOwner {... */\n    tag_19:\n      tag_103\n      0x04\n      dup1\n      calldatasize\n      sub\n      dup2\n      add\n      swap1\n      tag_104\n      swap2\n      swap1\n      tag_105\n      jump\t// in\n    tag_104:\n      tag_106\n      jump\t// in\n    tag_103:\n      stop\n        /* \"Cloudy-Blockchain/.deps/ownable.sol\":1194:1279  function owner() public view virtual returns (address) {... */\n    tag_20:\n      tag_107\n      tag_108\n      jump\t// in\n    tag_107:\n      mload(0x40)\n      tag_109\n      swap2\n      swap1\n      tag_110\n      jump\t// in\n    tag_109:\n      mload(0x40)\n      dup1\n      swap2\n      sub\n      swap1\n      return\n        /* \"Cloudy-Blockchain/contracts/cloudy_contract.sol\":1184:1235  mapping (bytes20 => address) public fileHashToOwner */\n    tag_21:\n      tag_111\n      0x04\n      dup1\n      calldatasize\n      sub\n      dup2\n      add\n      swap1\n      tag_112\n      swap2\n      swap1\n      tag_50\n      jump\t// in\n    tag_112:\n      tag_113\n      jump\t// in\n    tag_111:\n      mload(0x40)\n      tag_114\n      swap2\n      swap1\n      tag_110\n      jump\t// in\n    tag_114:\n      mload(0x40)\n      dup1\n      swap2\n      sub\n      swap1\n      return\n        /* \"Cloudy-Blockchain/contracts/cloudy_contract.sol\":7254:7301  mapping (address => uint) public ownerFileCount */\n    tag_22:\n      tag_115\n      0x04\n      dup1\n      calldatasize\n      sub\n      dup2\n      add\n      swap1\n      tag_116\n      swap2\n      swap1\n      tag_96\n      jump\t// in\n    tag_116:\n      tag_117\n      jump\t// in\n    tag_115:\n      mload(0x40)\n      tag_118\n      swap2\n      swap1\n      tag_47\n      jump\t// in\n    tag_118:\n      mload(0x40)\n      dup1\n      swap2\n      sub\n      swap1\n      return\n        /* \"Cloudy-Blockchain/contracts/cloudy_contract.sol\":15335:15808  function getFarmer(uint _nodeId) public view returns (address, uint, uint, uint, string memory) {... */\n    tag_23:\n      tag_119\n      0x04\n      dup1\n      calldatasize\n      sub\n      dup2\n      add\n      swap1\n      tag_120\n      swap2\n      swap1\n      tag_56\n      jump\t// in\n    tag_120:\n      tag_121\n      jump\t// in\n    tag_119:\n      mload(0x40)\n      tag_122\n      swap6\n      swap5\n      swap4\n      swap3\n      swap2\n      swap1\n      tag_123\n      jump\t// in\n    tag_122:\n      mload(0x40)\n      dup1\n      swap2\n      sub\n      swap1\n      return\n        /* \"Cloudy-Blockchain/contracts/cloudy_contract.sol\":15001:15128  function getFarmerIdFromShardId(uint _shardId) public view returns (uint) {... */\n    tag_24:\n      tag_124\n      0x04\n      dup1\n      calldatasize\n      sub\n      dup2\n      add\n      swap1\n      tag_125\n      swap2\n      swap1\n      tag_56\n      jump\t// in\n    tag_125:\n      tag_126\n      jump\t// in\n    tag_124:\n      mload(0x40)\n      tag_127\n      swap2\n      swap1\n      tag_47\n      jump\t// in\n    tag_127:\n      mload(0x40)\n      dup1\n      swap2\n      sub\n      swap1\n      return\n        /* \"Cloudy-Blockchain/contracts/cloudy_contract.sol\":15229:15329  function getFarmerCount() public view returns (uint) {... */\n    tag_25:\n      tag_128\n      tag_129\n      jump\t// in\n    tag_128:\n      mload(0x40)\n      tag_130\n      swap2\n      swap1\n      tag_47\n      jump\t// in\n    tag_130:\n      mload(0x40)\n      dup1\n      swap2\n      sub\n      swap1\n      return\n        /* \"Cloudy-Blockchain/contracts/cloudy_contract.sol\":7053:7195  function hasConsent(bytes20 _fileHash, address caller) public view returns (bool) {... */\n    tag_26:\n      tag_131\n      0x04\n      dup1\n      calldatasize\n      sub\n      dup2\n      add\n      swap1\n      tag_132\n      swap2\n      swap1\n      tag_101\n      jump\t// in\n    tag_132:\n      tag_133\n      jump\t// in\n    tag_131:\n      mload(0x40)\n      tag_134\n      swap2\n      swap1\n      tag_59\n      jump\t// in\n    tag_134:\n      mload(0x40)\n      dup1\n      swap2\n      sub\n      swap1\n      return\n        /* \"Cloudy-Blockchain/contracts/cloudy_contract.sol\":13705:14764  function removeShardFromStorageProvider(uint _shardId, uint _farmerNodeId) public onlyOwner {... */\n    tag_27:\n      tag_135\n      0x04\n      dup1\n      calldatasize\n      sub\n      dup2\n      add\n      swap1\n      tag_136\n      swap2\n      swap1\n      tag_105\n      jump\t// in\n    tag_136:\n      tag_137\n      jump\t// in\n    tag_135:\n      stop\n        /* \"Cloudy-Blockchain/contracts/cloudy_contract.sol\":6441:6680  function getShardsInFile_Count(bytes20 fileHash) external view returns (uint) {... */\n    tag_28:\n      tag_138\n      0x04\n      dup1\n      calldatasize\n      sub\n      dup2\n      add\n      swap1\n      tag_139\n      swap2\n      swap1\n      tag_50\n      jump\t// in\n    tag_139:\n      tag_140\n      jump\t// in\n    tag_138:\n      mload(0x40)\n      tag_141\n      swap2\n      swap1\n      tag_47\n      jump\t// in\n    tag_141:\n      mload(0x40)\n      dup1\n      swap2\n      sub\n      swap1\n      return\n        /* \"Cloudy-Blockchain/contracts/cloudy_contract.sol\":7597:8316  function getMyFilehashes() external view returns (bytes20[] memory) {... */\n    tag_29:\n      tag_142\n      tag_143\n      jump\t// in\n    tag_142:\n      mload(0x40)\n      tag_144\n      swap2\n      swap1\n      tag_145\n      jump\t// in\n    tag_144:\n      mload(0x40)\n      dup1\n      swap2\n      sub\n      swap1\n      return\n        /* \"Cloudy-Blockchain/.deps/ownable.sol\":2067:2265  function transferOwnership(address newOwner) public virtual onlyOwner {... */\n    tag_30:\n      tag_146\n      0x04\n      dup1\n      calldatasize\n      sub\n      dup2\n      add\n      swap1\n      tag_147\n      swap2\n      swap1\n      tag_96\n      jump\t// in\n    tag_147:\n      tag_148\n      jump\t// in\n    tag_146:\n      stop\n        /* \"Cloudy-Blockchain/contracts/cloudy_contract.sol\":5725:6193  function associateShardsWithFileHash(bytes20 _fileHash, uint[] memory shardIDs) external _onlyFileOwnerOrConsent(_fileHash) {... */\n    tag_41:\n        /* \"Cloudy-Blockchain/contracts/cloudy_contract.sol\":5838:5847  _fileHash */\n      dup2\n        /* \"Cloudy-Blockchain/contracts/cloudy_contract.sol\":5468:5483  fileHashToOwner */\n      0x07\n        /* \"Cloudy-Blockchain/contracts/cloudy_contract.sol\":5468:5493  fileHashToOwner[fileHash] */\n      0x00\n        /* \"Cloudy-Blockchain/contracts/cloudy_contract.sol\":5484:5492  fileHash */\n      dup3\n        /* \"Cloudy-Blockchain/contracts/cloudy_contract.sol\":5468:5493  fileHashToOwner[fileHash] */\n      not(0xffffffffffffffffffffffff)\n      and\n      not(0xffffffffffffffffffffffff)\n      and\n      dup2\n      mstore\n      0x20\n      add\n      swap1\n      dup2\n      mstore\n      0x20\n      add\n      0x00\n      keccak256\n      0x00\n      swap1\n      sload\n      swap1\n      0x0100\n      exp\n      swap1\n      div\n      0xffffffffffffffffffffffffffffffffffffffff\n      and\n        /* \"Cloudy-Blockchain/contracts/cloudy_contract.sol\":5454:5493  msg.sender == fileHashToOwner[fileHash] */\n      0xffffffffffffffffffffffffffffffffffffffff\n      and\n        /* \"Cloudy-Blockchain/contracts/cloudy_contract.sol\":5454:5464  msg.sender */\n      caller\n        /* \"Cloudy-Blockchain/contracts/cloudy_contract.sol\":5454:5493  msg.sender == fileHashToOwner[fileHash] */\n      0xffffffffffffffffffffffffffffffffffffffff\n      and\n      eq\n        /* \"Cloudy-Blockchain/contracts/cloudy_contract.sol\":5454:5542  msg.sender == fileHashToOwner[fileHash] || ... */\n      dup1\n      tag_150\n      jumpi\n      pop\n        /* \"Cloudy-Blockchain/contracts/cloudy_contract.sol\":5510:5542  hasConsent(fileHash, msg.sender) */\n      tag_151\n        /* \"Cloudy-Blockchain/contracts/cloudy_contract.sol\":5521:5529  fileHash */\n      dup2\n        /* \"Cloudy-Blockchain/contracts/cloudy_contract.sol\":5531:5541  msg.sender */\n      caller\n        /* \"Cloudy-Blockchain/contracts/cloudy_contract.sol\":5510:5520  hasConsent */\n      tag_133\n        /* \"Cloudy-Blockchain/contracts/cloudy_contract.sol\":5510:5542  hasConsent(fileHash, msg.sender) */\n      jump\t// in\n    tag_151:\n        /* \"Cloudy-Blockchain/contracts/cloudy_contract.sol\":5454:5542  msg.sender == fileHashToOwner[fileHash] || ... */\n    tag_150:\n        /* \"Cloudy-Blockchain/contracts/cloudy_contract.sol\":5433:5621  require(... */\n      tag_152\n      jumpi\n      mload(0x40)\n      0x08c379a000000000000000000000000000000000000000000000000000000000\n      dup2\n      mstore\n      0x04\n      add\n      tag_153\n      swap1\n      tag_154\n      jump\t// in\n    tag_153:\n      mload(0x40)\n      dup1\n      swap2\n      sub\n      swap1\n      revert\n    tag_152:\n        /* \"Cloudy-Blockchain/contracts/cloudy_contract.sol\":5885:5886  0 */\n      0x00\n        /* \"Cloudy-Blockchain/contracts/cloudy_contract.sol\":5867:5875  shardIDs */\n      dup3\n        /* \"Cloudy-Blockchain/contracts/cloudy_contract.sol\":5867:5882  shardIDs.length */\n      mload\n        /* \"Cloudy-Blockchain/contracts/cloudy_contract.sol\":5867:5886  shardIDs.length > 0 */\n      gt\n        /* \"Cloudy-Blockchain/contracts/cloudy_contract.sol\":5859:5918  require(shardIDs.length > 0, \"Shard IDs must not be empty\") */\n      tag_156\n      jumpi\n      mload(0x40)\n      0x08c379a000000000000000000000000000000000000000000000000000000000\n      dup2\n      mstore\n      0x04\n      add\n      tag_157\n      swap1\n      tag_158\n      jump\t// in\n    tag_157:\n      mload(0x40)\n      dup1\n      swap2\n      sub\n      swap1\n      revert\n    tag_156:\n        /* \"Cloudy-Blockchain/contracts/cloudy_contract.sol\":6019:6027  shardIDs */\n      dup2\n        /* \"Cloudy-Blockchain/contracts/cloudy_contract.sol\":5989:6005  fileHashToShards */\n      0x0b\n        /* \"Cloudy-Blockchain/contracts/cloudy_contract.sol\":5989:6016  fileHashToShards[_fileHash] */\n      0x00\n        /* \"Cloudy-Blockchain/contracts/cloudy_contract.sol\":6006:6015  _fileHash */\n      dup6\n        /* \"Cloudy-Blockchain/contracts/cloudy_contract.sol\":5989:6016  fileHashToShards[_fileHash] */\n      not(0xffffffffffffffffffffffff)\n      and\n      not(0xffffffffffffffffffffffff)\n      and\n      dup2\n      mstore\n      0x20\n      add\n      swap1\n      dup2\n      mstore\n      0x20\n      add\n      0x00\n      keccak256\n        /* \"Cloudy-Blockchain/contracts/cloudy_contract.sol\":5989:6027  fileHashToShards[_fileHash] = shardIDs */\n      swap1\n      dup1\n      mload\n      swap1\n      0x20\n      add\n      swap1\n      tag_159\n      swap3\n      swap2\n      swap1\n      tag_160\n      jump\t// in\n    tag_159:\n      pop\n        /* \"Cloudy-Blockchain/contracts/cloudy_contract.sol\":6171:6179  shardIDs */\n      dup2\n        /* \"Cloudy-Blockchain/contracts/cloudy_contract.sol\":6171:6186  shardIDs.length */\n      mload\n        /* \"Cloudy-Blockchain/contracts/cloudy_contract.sol\":6138:6156  shardsInFile_Count */\n      0x10\n        /* \"Cloudy-Blockchain/contracts/cloudy_contract.sol\":6138:6167  shardsInFile_Count[_fileHash] */\n      0x00\n        /* \"Cloudy-Blockchain/contracts/cloudy_contract.sol\":6157:6166  _fileHash */\n      dup6\n        /* \"Cloudy-Blockchain/contracts/cloudy_contract.sol\":6138:6167  shardsInFile_Count[_fileHash] */\n      not(0xffffffffffffffffffffffff)\n      and\n      not(0xffffffffffffffffffffffff)\n      and\n      dup2\n      mstore\n      0x20\n      add\n      swap1\n      dup2\n      mstore\n      0x20\n      add\n      0x00\n      keccak256\n      0x00\n        /* \"Cloudy-Blockchain/contracts/cloudy_contract.sol\":6138:6186  shardsInFile_Count[_fileHash] += shardIDs.length */\n      dup3\n      dup3\n      sload\n      tag_161\n      swap2\n      swap1\n      tag_162\n      jump\t// in\n    tag_161:\n      swap3\n      pop\n      pop\n      dup2\n      swap1\n      sstore\n      pop\n        /* \"Cloudy-Blockchain/contracts/cloudy_contract.sol\":5725:6193  function associateShardsWithFileHash(bytes20 _fileHash, uint[] memory shardIDs) external _onlyFileOwnerOrConsent(_fileHash) {... */\n      pop\n      pop\n      pop\n      jump\t// out\n        /* \"Cloudy-Blockchain/contracts/cloudy_contract.sol\":9614:10838  function addStorageProvider(address _walletAddress, uint _maxStorageSize, string memory _storageType) public returns (uint _nodeId) {... */\n    tag_45:\n        /* \"Cloudy-Blockchain/contracts/cloudy_contract.sol\":9732:9744  uint _nodeId */\n      0x00\n        /* \"Cloudy-Blockchain/contracts/cloudy_contract.sol\":9776:9790  _walletAddress */\n      dup4\n        /* \"Cloudy-Blockchain/contracts/cloudy_contract.sol\":9762:9790  msg.sender == _walletAddress */\n      0xffffffffffffffffffffffffffffffffffffffff\n      and\n        /* \"Cloudy-Blockchain/contracts/cloudy_contract.sol\":9762:9772  msg.sender */\n      caller\n        /* \"Cloudy-Blockchain/contracts/cloudy_contract.sol\":9762:9790  msg.sender == _walletAddress */\n      0xffffffffffffffffffffffffffffffffffffffff\n      and\n      eq\n        /* \"Cloudy-Blockchain/contracts/cloudy_contract.sol\":9762:9815  msg.sender == _walletAddress || msg.sender == owner() */\n      dup1\n      tag_164\n      jumpi\n      pop\n        /* \"Cloudy-Blockchain/contracts/cloudy_contract.sol\":9808:9815  owner() */\n      tag_165\n        /* \"Cloudy-Blockchain/contracts/cloudy_contract.sol\":9808:9813  owner */\n      tag_108\n        /* \"Cloudy-Blockchain/contracts/cloudy_contract.sol\":9808:9815  owner() */\n      jump\t// in\n    tag_165:\n        /* \"Cloudy-Blockchain/contracts/cloudy_contract.sol\":9794:9815  msg.sender == owner() */\n      0xffffffffffffffffffffffffffffffffffffffff\n      and\n        /* \"Cloudy-Blockchain/contracts/cloudy_contract.sol\":9794:9804  msg.sender */\n      caller\n        /* \"Cloudy-Blockchain/contracts/cloudy_contract.sol\":9794:9815  msg.sender == owner() */\n      0xffffffffffffffffffffffffffffffffffffffff\n      and\n      eq\n        /* \"Cloudy-Blockchain/contracts/cloudy_contract.sol\":9762:9815  msg.sender == _walletAddress || msg.sender == owner() */\n    tag_164:\n        /* \"Cloudy-Blockchain/contracts/cloudy_contract.sol\":9754:9920  require(msg.sender == _walletAddress || msg.sender == owner(), \"Storage Providers can only be added by the contract owner's address or the address being registered!\") */\n      tag_166\n      jumpi\n      mload(0x40)\n      0x08c379a000000000000000000000000000000000000000000000000000000000\n      dup2\n      mstore\n      0x04\n      add\n      tag_167\n      swap1\n      tag_168\n      jump\t// in\n    tag_167:\n      mload(0x40)\n      dup1\n      swap2\n      sub\n      swap1\n      revert\n    tag_166:\n        /* \"Cloudy-Blockchain/contracts/cloudy_contract.sol\":10045:10065  Farmer memory farmer */\n      0x00\n        /* \"Cloudy-Blockchain/contracts/cloudy_contract.sol\":10068:10280  Farmer({... */\n      mload(0x40)\n      dup1\n      0xa0\n      add\n      0x40\n      mstore\n      dup1\n        /* \"Cloudy-Blockchain/contracts/cloudy_contract.sol\":10102:10116  _walletAddress */\n      dup7\n        /* \"Cloudy-Blockchain/contracts/cloudy_contract.sol\":10068:10280  Farmer({... */\n      0xffffffffffffffffffffffffffffffffffffffff\n      and\n      dup2\n      mstore\n      0x20\n      add\n        /* \"Cloudy-Blockchain/contracts/cloudy_contract.sol\":10136:10159  farmerNodeIdIncrementer */\n      sload(0x04)\n        /* \"Cloudy-Blockchain/contracts/cloudy_contract.sol\":10068:10280  Farmer({... */\n      dup2\n      mstore\n      0x20\n      add\n        /* \"Cloudy-Blockchain/contracts/cloudy_contract.sol\":10190:10191  0 */\n      0x00\n        /* \"Cloudy-Blockchain/contracts/cloudy_contract.sol\":10068:10280  Farmer({... */\n      dup2\n      mstore\n      0x20\n      add\n        /* \"Cloudy-Blockchain/contracts/cloudy_contract.sol\":10219:10234  _maxStorageSize */\n      dup6\n        /* \"Cloudy-Blockchain/contracts/cloudy_contract.sol\":10068:10280  Farmer({... */\n      dup2\n      mstore\n      0x20\n      add\n        /* \"Cloudy-Blockchain/contracts/cloudy_contract.sol\":10259:10271  _storageType */\n      dup5\n        /* \"Cloudy-Blockchain/contracts/cloudy_contract.sol\":10068:10280  Farmer({... */\n      dup2\n      mstore\n      pop\n        /* \"Cloudy-Blockchain/contracts/cloudy_contract.sol\":10045:10280  Farmer memory farmer = Farmer({... */\n      swap1\n      pop\n        /* \"Cloudy-Blockchain/contracts/cloudy_contract.sol\":10470:10486  availableFarmers */\n      0x01\n        /* \"Cloudy-Blockchain/contracts/cloudy_contract.sol\":10492:10498  farmer */\n      dup2\n        /* \"Cloudy-Blockchain/contracts/cloudy_contract.sol\":10470:10499  availableFarmers.push(farmer) */\n      swap1\n      dup1\n      0x01\n      dup2\n      sload\n      add\n      dup1\n      dup3\n      sstore\n      dup1\n      swap2\n      pop\n      pop\n      0x01\n      swap1\n      sub\n      swap1\n      0x00\n      mstore\n      keccak256(0x00, 0x20)\n      swap1\n      0x05\n      mul\n      add\n      0x00\n      swap1\n      swap2\n      swap1\n      swap2\n      swap1\n      swap2\n      pop\n      0x00\n      dup3\n      add\n      mload\n      dup2\n      0x00\n      add\n      exp(0x0100, 0x00)\n      dup2\n      sload\n      dup2\n      0xffffffffffffffffffffffffffffffffffffffff\n      mul\n      not\n      and\n      swap1\n      dup4\n      0xffffffffffffffffffffffffffffffffffffffff\n      and\n      mul\n      or\n      swap1\n      sstore\n      pop\n      0x20\n      dup3\n      add\n      mload\n      dup2\n      0x01\n      add\n      sstore\n      0x40\n      dup3\n      add\n      mload\n      dup2\n      0x02\n      add\n      sstore\n      0x60\n      dup3\n      add\n      mload\n      dup2\n      0x03\n      add\n      sstore\n      0x80\n      dup3\n      add\n      mload\n      dup2\n      0x04\n      add\n      swap1\n      dup2\n      tag_170\n      swap2\n      swap1\n      tag_171\n      jump\t// in\n    tag_170:\n      pop\n      pop\n      pop\n        /* \"Cloudy-Blockchain/contracts/cloudy_contract.sol\":10507:10529  availableFarmerNodeIds */\n      0x02\n        /* \"Cloudy-Blockchain/contracts/cloudy_contract.sol\":10535:10541  farmer */\n      dup2\n        /* \"Cloudy-Blockchain/contracts/cloudy_contract.sol\":10535:10548  farmer.nodeId */\n      0x20\n      add\n      mload\n        /* \"Cloudy-Blockchain/contracts/cloudy_contract.sol\":10507:10549  availableFarmerNodeIds.push(farmer.nodeId) */\n      swap1\n      dup1\n      0x01\n      dup2\n      sload\n      add\n      dup1\n      dup3\n      sstore\n      dup1\n      swap2\n      pop\n      pop\n      0x01\n      swap1\n      sub\n      swap1\n      0x00\n      mstore\n      keccak256(0x00, 0x20)\n      add\n      0x00\n      swap1\n      swap2\n      swap1\n      swap2\n      swap1\n      swap2\n      pop\n      sstore\n        /* \"Cloudy-Blockchain/contracts/cloudy_contract.sol\":10558:10568  uint index */\n      0x00\n        /* \"Cloudy-Blockchain/contracts/cloudy_contract.sol\":10597:10598  1 */\n      0x01\n        /* \"Cloudy-Blockchain/contracts/cloudy_contract.sol\":10571:10587  availableFarmers */\n      dup1\n        /* \"Cloudy-Blockchain/contracts/cloudy_contract.sol\":10571:10594  availableFarmers.length */\n      dup1\n      sload\n      swap1\n      pop\n        /* \"Cloudy-Blockchain/contracts/cloudy_contract.sol\":10571:10598  availableFarmers.length - 1 */\n      tag_173\n      swap2\n      swap1\n      tag_174\n      jump\t// in\n    tag_173:\n        /* \"Cloudy-Blockchain/contracts/cloudy_contract.sol\":10558:10598  uint index = availableFarmers.length - 1 */\n      swap1\n      pop\n        /* \"Cloudy-Blockchain/contracts/cloudy_contract.sol\":10654:10659  index */\n      dup1\n        /* \"Cloudy-Blockchain/contracts/cloudy_contract.sol\":10606:10636  farmerNodeIdToFarmerArrayIndex */\n      0x03\n        /* \"Cloudy-Blockchain/contracts/cloudy_contract.sol\":10606:10651  farmerNodeIdToFarmerArrayIndex[farmer.nodeId] */\n      0x00\n        /* \"Cloudy-Blockchain/contracts/cloudy_contract.sol\":10637:10643  farmer */\n      dup5\n        /* \"Cloudy-Blockchain/contracts/cloudy_contract.sol\":10637:10650  farmer.nodeId */\n      0x20\n      add\n      mload\n        /* \"Cloudy-Blockchain/contracts/cloudy_contract.sol\":10606:10651  farmerNodeIdToFarmerArrayIndex[farmer.nodeId] */\n      dup2\n      mstore\n      0x20\n      add\n      swap1\n      dup2\n      mstore\n      0x20\n      add\n      0x00\n      keccak256\n        /* \"Cloudy-Blockchain/contracts/cloudy_contract.sol\":10606:10659  farmerNodeIdToFarmerArrayIndex[farmer.nodeId] = index */\n      dup2\n      swap1\n      sstore\n      pop\n        /* \"Cloudy-Blockchain/contracts/cloudy_contract.sol\":10667:10690  farmerNodeIdIncrementer */\n      0x04\n      0x00\n        /* \"Cloudy-Blockchain/contracts/cloudy_contract.sol\":10667:10692  farmerNodeIdIncrementer++ */\n      dup2\n      sload\n      dup1\n      swap3\n      swap2\n      swap1\n      tag_175\n      swap1\n      tag_176\n      jump\t// in\n    tag_175:\n      swap2\n      swap1\n      pop\n      sstore\n      pop\n        /* \"Cloudy-Blockchain/contracts/cloudy_contract.sol\":10800:10826  FarmerAdded(farmer.nodeId) */\n      0x2ddb9351de05fe32bd5d30de5c77b03a2606011e3e3680eba8639fb446c54925\n        /* \"Cloudy-Blockchain/contracts/cloudy_contract.sol\":10812:10818  farmer */\n      dup3\n        /* \"Cloudy-Blockchain/contracts/cloudy_contract.sol\":10812:10825  farmer.nodeId */\n      0x20\n      add\n      mload\n        /* \"Cloudy-Blockchain/contracts/cloudy_contract.sol\":10800:10826  FarmerAdded(farmer.nodeId) */\n      mload(0x40)\n      tag_177\n      swap2\n      swap1\n      tag_47\n      jump\t// in\n    tag_177:\n      mload(0x40)\n      dup1\n      swap2\n      sub\n      swap1\n      log1\n        /* \"Cloudy-Blockchain/contracts/cloudy_contract.sol\":9746:10838  {... */\n      pop\n      pop\n        /* \"Cloudy-Blockchain/contracts/cloudy_contract.sol\":9614:10838  function addStorageProvider(address _walletAddress, uint _maxStorageSize, string memory _storageType) public returns (uint _nodeId) {... */\n      swap4\n      swap3\n      pop\n      pop\n      pop\n      jump\t// out\n        /* \"Cloudy-Blockchain/contracts/cloudy_contract.sol\":8322:8563  function getShardsByFilehash(bytes20 _filehash) public view returns (uint[] memory) {... */\n    tag_51:\n        /* \"Cloudy-Blockchain/contracts/cloudy_contract.sol\":8391:8404  uint[] memory */\n      0x60\n        /* \"Cloudy-Blockchain/contracts/cloudy_contract.sol\":8438:8453  fileHashToOwner */\n      0x07\n        /* \"Cloudy-Blockchain/contracts/cloudy_contract.sol\":8438:8464  fileHashToOwner[_filehash] */\n      0x00\n        /* \"Cloudy-Blockchain/contracts/cloudy_contract.sol\":8454:8463  _filehash */\n      dup4\n        /* \"Cloudy-Blockchain/contracts/cloudy_contract.sol\":8438:8464  fileHashToOwner[_filehash] */\n      not(0xffffffffffffffffffffffff)\n      and\n      not(0xffffffffffffffffffffffff)\n      and\n      dup2\n      mstore\n      0x20\n      add\n      swap1\n      dup2\n      mstore\n      0x20\n      add\n      0x00\n      keccak256\n      0x00\n      swap1\n      sload\n      swap1\n      0x0100\n      exp\n      swap1\n      div\n      0xffffffffffffffffffffffffffffffffffffffff\n      and\n        /* \"Cloudy-Blockchain/contracts/cloudy_contract.sol\":8424:8464  msg.sender == fileHashToOwner[_filehash] */\n      0xffffffffffffffffffffffffffffffffffffffff\n      and\n        /* \"Cloudy-Blockchain/contracts/cloudy_contract.sol\":8424:8434  msg.sender */\n      caller\n        /* \"Cloudy-Blockchain/contracts/cloudy_contract.sol\":8424:8464  msg.sender == fileHashToOwner[_filehash] */\n      0xffffffffffffffffffffffffffffffffffffffff\n      and\n      eq\n        /* \"Cloudy-Blockchain/contracts/cloudy_contract.sol\":8416:8511  require(msg.sender == fileHashToOwner[_filehash], \"Only the File Owner can access its shards.\") */\n      tag_179\n      jumpi\n      mload(0x40)\n      0x08c379a000000000000000000000000000000000000000000000000000000000\n      dup2\n      mstore\n      0x04\n      add\n      tag_180\n      swap1\n      tag_181\n      jump\t// in\n    tag_180:\n      mload(0x40)\n      dup1\n      swap2\n      sub\n      swap1\n      revert\n    tag_179:\n        /* \"Cloudy-Blockchain/contracts/cloudy_contract.sol\":8529:8545  fileHashToShards */\n      0x0b\n        /* \"Cloudy-Blockchain/contracts/cloudy_contract.sol\":8529:8556  fileHashToShards[_filehash] */\n      0x00\n        /* \"Cloudy-Blockchain/contracts/cloudy_contract.sol\":8546:8555  _filehash */\n      dup4\n        /* \"Cloudy-Blockchain/contracts/cloudy_contract.sol\":8529:8556  fileHashToShards[_filehash] */\n      not(0xffffffffffffffffffffffff)\n      and\n      not(0xffffffffffffffffffffffff)\n      and\n      dup2\n      mstore\n      0x20\n      add\n      swap1\n      dup2\n      mstore\n      0x20\n      add\n      0x00\n      keccak256\n        /* \"Cloudy-Blockchain/contracts/cloudy_contract.sol\":8522:8556  return fileHashToShards[_filehash] */\n      dup1\n      sload\n      dup1\n      0x20\n      mul\n      0x20\n      add\n      mload(0x40)\n      swap1\n      dup2\n      add\n      0x40\n      mstore\n      dup1\n      swap3\n      swap2\n      swap1\n      dup2\n      dup2\n      mstore\n      0x20\n      add\n      dup3\n      dup1\n      sload\n      dup1\n      iszero\n      tag_182\n      jumpi\n      0x20\n      mul\n      dup3\n      add\n      swap2\n      swap1\n      0x00\n      mstore\n      keccak256(0x00, 0x20)\n      swap1\n    tag_183:\n      dup2\n      sload\n      dup2\n      mstore\n      0x20\n      add\n      swap1\n      0x01\n      add\n      swap1\n      dup1\n      dup4\n      gt\n      tag_183\n      jumpi\n    tag_182:\n      pop\n      pop\n      pop\n      pop\n      pop\n      swap1\n      pop\n        /* \"Cloudy-Blockchain/contracts/cloudy_contract.sol\":8322:8563  function getShardsByFilehash(bytes20 _filehash) public view returns (uint[] memory) {... */\n      swap2\n      swap1\n      pop\n      jump\t// out\n        /* \"Cloudy-Blockchain/contracts/cloudy_contract.sol\":15814:16080  function containsNode(uint nodeId) public view returns (bool) {... */\n    tag_57:\n        /* \"Cloudy-Blockchain/contracts/cloudy_contract.sol\":15870:15874  bool */\n      0x00\n        /* \"Cloudy-Blockchain/contracts/cloudy_contract.sol\":15891:15897  uint i */\n      dup1\n        /* \"Cloudy-Blockchain/contracts/cloudy_contract.sol\":15900:15901  0 */\n      0x00\n        /* \"Cloudy-Blockchain/contracts/cloudy_contract.sol\":15891:15901  uint i = 0 */\n      swap1\n      pop\n        /* \"Cloudy-Blockchain/contracts/cloudy_contract.sol\":15886:16052  for (uint i = 0; i < availableFarmerNodeIds.length; i++) {... */\n    tag_185:\n        /* \"Cloudy-Blockchain/contracts/cloudy_contract.sol\":15907:15929  availableFarmerNodeIds */\n      0x02\n        /* \"Cloudy-Blockchain/contracts/cloudy_contract.sol\":15907:15936  availableFarmerNodeIds.length */\n      dup1\n      sload\n      swap1\n      pop\n        /* \"Cloudy-Blockchain/contracts/cloudy_contract.sol\":15903:15904  i */\n      dup2\n        /* \"Cloudy-Blockchain/contracts/cloudy_contract.sol\":15903:15936  i < availableFarmerNodeIds.length */\n      lt\n        /* \"Cloudy-Blockchain/contracts/cloudy_contract.sol\":15886:16052  for (uint i = 0; i < availableFarmerNodeIds.length; i++) {... */\n      iszero\n      tag_186\n      jumpi\n        /* \"Cloudy-Blockchain/contracts/cloudy_contract.sol\":15990:15996  nodeId */\n      dup3\n        /* \"Cloudy-Blockchain/contracts/cloudy_contract.sol\":15961:15983  availableFarmerNodeIds */\n      0x02\n        /* \"Cloudy-Blockchain/contracts/cloudy_contract.sol\":15984:15985  i */\n      dup3\n        /* \"Cloudy-Blockchain/contracts/cloudy_contract.sol\":15961:15986  availableFarmerNodeIds[i] */\n      dup2\n      sload\n      dup2\n      lt\n      tag_188\n      jumpi\n      tag_189\n      tag_190\n      jump\t// in\n    tag_189:\n    tag_188:\n      swap1\n      0x00\n      mstore\n      keccak256(0x00, 0x20)\n      add\n      sload\n        /* \"Cloudy-Blockchain/contracts/cloudy_contract.sol\":15961:15996  availableFarmerNodeIds[i] == nodeId */\n      sub\n        /* \"Cloudy-Blockchain/contracts/cloudy_contract.sol\":15957:16042  if (availableFarmerNodeIds[i] == nodeId) {... */\n      tag_192\n      jumpi\n        /* \"Cloudy-Blockchain/contracts/cloudy_contract.sol\":16023:16027  true */\n      0x01\n        /* \"Cloudy-Blockchain/contracts/cloudy_contract.sol\":16016:16027  return true */\n      swap2\n      pop\n      pop\n      jump(tag_184)\n        /* \"Cloudy-Blockchain/contracts/cloudy_contract.sol\":15957:16042  if (availableFarmerNodeIds[i] == nodeId) {... */\n    tag_192:\n        /* \"Cloudy-Blockchain/contracts/cloudy_contract.sol\":15938:15941  i++ */\n      dup1\n      dup1\n      tag_193\n      swap1\n      tag_176\n      jump\t// in\n    tag_193:\n      swap2\n      pop\n      pop\n        /* \"Cloudy-Blockchain/contracts/cloudy_contract.sol\":15886:16052  for (uint i = 0; i < availableFarmerNodeIds.length; i++) {... */\n      jump(tag_185)\n    tag_186:\n      pop\n        /* \"Cloudy-Blockchain/contracts/cloudy_contract.sol\":16068:16073  false */\n      0x00\n        /* \"Cloudy-Blockchain/contracts/cloudy_contract.sol\":16061:16073  return false */\n      swap1\n      pop\n        /* \"Cloudy-Blockchain/contracts/cloudy_contract.sol\":15814:16080  function containsNode(uint nodeId) public view returns (bool) {... */\n    tag_184:\n      swap2\n      swap1\n      pop\n      jump\t// out\n        /* \"Cloudy-Blockchain/contracts/cloudy_contract.sol\":3901:5039  function _deleteFileHash(bytes20 _fileHash) public {... */\n    tag_62:\n        /* \"Cloudy-Blockchain/contracts/cloudy_contract.sol\":4223:4224  1 */\n      0x01\n        /* \"Cloudy-Blockchain/contracts/cloudy_contract.sol\":4195:4219  checkFileHash(_fileHash) */\n      tag_195\n        /* \"Cloudy-Blockchain/contracts/cloudy_contract.sol\":4209:4218  _fileHash */\n      dup3\n        /* \"Cloudy-Blockchain/contracts/cloudy_contract.sol\":4195:4208  checkFileHash */\n      tag_196\n        /* \"Cloudy-Blockchain/contracts/cloudy_contract.sol\":4195:4219  checkFileHash(_fileHash) */\n      jump\t// in\n    tag_195:\n        /* \"Cloudy-Blockchain/contracts/cloudy_contract.sol\":4195:4224  checkFileHash(_fileHash) == 1 */\n      eq\n        /* \"Cloudy-Blockchain/contracts/cloudy_contract.sol\":4003:4274  require(... */\n      tag_197\n      jumpi\n      mload(0x40)\n      0x08c379a000000000000000000000000000000000000000000000000000000000\n      dup2\n      mstore\n      0x04\n      add\n      tag_198\n      swap1\n      tag_199\n      jump\t// in\n    tag_198:\n      mload(0x40)\n      dup1\n      swap2\n      sub\n      swap1\n      revert\n    tag_197:\n        /* \"Cloudy-Blockchain/contracts/cloudy_contract.sol\":4389:4399  msg.sender */\n      caller\n        /* \"Cloudy-Blockchain/contracts/cloudy_contract.sol\":4359:4399  fileHashToOwner[_fileHash] == msg.sender */\n      0xffffffffffffffffffffffffffffffffffffffff\n      and\n        /* \"Cloudy-Blockchain/contracts/cloudy_contract.sol\":4359:4374  fileHashToOwner */\n      0x07\n        /* \"Cloudy-Blockchain/contracts/cloudy_contract.sol\":4359:4385  fileHashToOwner[_fileHash] */\n      0x00\n        /* \"Cloudy-Blockchain/contracts/cloudy_contract.sol\":4375:4384  _fileHash */\n      dup4\n        /* \"Cloudy-Blockchain/contracts/cloudy_contract.sol\":4359:4385  fileHashToOwner[_fileHash] */\n      not(0xffffffffffffffffffffffff)\n      and\n      not(0xffffffffffffffffffffffff)\n      and\n      dup2\n      mstore\n      0x20\n      add\n      swap1\n      dup2\n      mstore\n      0x20\n      add\n      0x00\n      keccak256\n      0x00\n      swap1\n      sload\n      swap1\n      0x0100\n      exp\n      swap1\n      div\n      0xffffffffffffffffffffffffffffffffffffffff\n      and\n        /* \"Cloudy-Blockchain/contracts/cloudy_contract.sol\":4359:4399  fileHashToOwner[_fileHash] == msg.sender */\n      0xffffffffffffffffffffffffffffffffffffffff\n      and\n      eq\n        /* \"Cloudy-Blockchain/contracts/cloudy_contract.sol\":4338:4460  require(... */\n      tag_200\n      jumpi\n      mload(0x40)\n      0x08c379a000000000000000000000000000000000000000000000000000000000\n      dup2\n      mstore\n      0x04\n      add\n      tag_201\n      swap1\n      tag_202\n      jump\t// in\n    tag_201:\n      mload(0x40)\n      dup1\n      swap2\n      sub\n      swap1\n      revert\n    tag_200:\n        /* \"Cloudy-Blockchain/contracts/cloudy_contract.sol\":4469:4479  uint index */\n      0x00\n        /* \"Cloudy-Blockchain/contracts/cloudy_contract.sol\":4482:4504  fileHashToArrayIndexes */\n      0x0d\n        /* \"Cloudy-Blockchain/contracts/cloudy_contract.sol\":4482:4515  fileHashToArrayIndexes[_fileHash] */\n      0x00\n        /* \"Cloudy-Blockchain/contracts/cloudy_contract.sol\":4505:4514  _fileHash */\n      dup4\n        /* \"Cloudy-Blockchain/contracts/cloudy_contract.sol\":4482:4515  fileHashToArrayIndexes[_fileHash] */\n      not(0xffffffffffffffffffffffff)\n      and\n      not(0xffffffffffffffffffffffff)\n      and\n      dup2\n      mstore\n      0x20\n      add\n      swap1\n      dup2\n      mstore\n      0x20\n      add\n      0x00\n      keccak256\n      sload\n        /* \"Cloudy-Blockchain/contracts/cloudy_contract.sol\":4469:4515  uint index = fileHashToArrayIndexes[_fileHash] */\n      swap1\n      pop\n        /* \"Cloudy-Blockchain/contracts/cloudy_contract.sol\":4653:4663  fileHashes */\n      0x06\n        /* \"Cloudy-Blockchain/contracts/cloudy_contract.sol\":4684:4685  1 */\n      0x01\n        /* \"Cloudy-Blockchain/contracts/cloudy_contract.sol\":4664:4674  fileHashes */\n      0x06\n        /* \"Cloudy-Blockchain/contracts/cloudy_contract.sol\":4664:4681  fileHashes.length */\n      dup1\n      sload\n      swap1\n      pop\n        /* \"Cloudy-Blockchain/contracts/cloudy_contract.sol\":4664:4685  fileHashes.length - 1 */\n      tag_203\n      swap2\n      swap1\n      tag_174\n      jump\t// in\n    tag_203:\n        /* \"Cloudy-Blockchain/contracts/cloudy_contract.sol\":4653:4686  fileHashes[fileHashes.length - 1] */\n      dup2\n      sload\n      dup2\n      lt\n      tag_204\n      jumpi\n      tag_205\n      tag_190\n      jump\t// in\n    tag_205:\n    tag_204:\n      swap1\n      0x00\n      mstore\n      keccak256(0x00, 0x20)\n      add\n      0x00\n      swap1\n      sload\n      swap1\n      0x0100\n      exp\n      swap1\n      div\n      0x60\n      shl\n        /* \"Cloudy-Blockchain/contracts/cloudy_contract.sol\":4633:4643  fileHashes */\n      0x06\n        /* \"Cloudy-Blockchain/contracts/cloudy_contract.sol\":4644:4649  index */\n      dup3\n        /* \"Cloudy-Blockchain/contracts/cloudy_contract.sol\":4633:4650  fileHashes[index] */\n      dup2\n      sload\n      dup2\n      lt\n      tag_207\n      jumpi\n      tag_208\n      tag_190\n      jump\t// in\n    tag_208:\n    tag_207:\n      swap1\n      0x00\n      mstore\n      keccak256(0x00, 0x20)\n      add\n      0x00\n        /* \"Cloudy-Blockchain/contracts/cloudy_contract.sol\":4633:4686  fileHashes[index] = fileHashes[fileHashes.length - 1] */\n      0x0100\n      exp\n      dup2\n      sload\n      dup2\n      0xffffffffffffffffffffffffffffffffffffffff\n      mul\n      not\n      and\n      swap1\n      dup4\n      0x60\n      shr\n      mul\n      or\n      swap1\n      sstore\n      pop\n        /* \"Cloudy-Blockchain/contracts/cloudy_contract.sol\":4694:4704  fileHashes */\n      0x06\n        /* \"Cloudy-Blockchain/contracts/cloudy_contract.sol\":4694:4710  fileHashes.pop() */\n      dup1\n      sload\n      dup1\n      tag_210\n      jumpi\n      tag_211\n      tag_212\n      jump\t// in\n    tag_211:\n    tag_210:\n      0x01\n      swap1\n      sub\n      dup2\n      dup2\n      swap1\n      0x00\n      mstore\n      keccak256(0x00, 0x20)\n      add\n      exp(0x0100, 0x00)\n      dup2\n      sload\n      swap1\n      0xffffffffffffffffffffffffffffffffffffffff\n      mul\n      not\n      and\n      swap1\n      sstore\n      swap1\n      sstore\n        /* \"Cloudy-Blockchain/contracts/cloudy_contract.sol\":4718:4732  ownerFileCount */\n      0x0f\n        /* \"Cloudy-Blockchain/contracts/cloudy_contract.sol\":4718:4744  ownerFileCount[msg.sender] */\n      0x00\n        /* \"Cloudy-Blockchain/contracts/cloudy_contract.sol\":4733:4743  msg.sender */\n      caller\n        /* \"Cloudy-Blockchain/contracts/cloudy_contract.sol\":4718:4744  ownerFileCount[msg.sender] */\n      0xffffffffffffffffffffffffffffffffffffffff\n      and\n      0xffffffffffffffffffffffffffffffffffffffff\n      and\n      dup2\n      mstore\n      0x20\n      add\n      swap1\n      dup2\n      mstore\n      0x20\n      add\n      0x00\n      keccak256\n      0x00\n        /* \"Cloudy-Blockchain/contracts/cloudy_contract.sol\":4718:4746  ownerFileCount[msg.sender]-- */\n      dup2\n      sload\n      dup1\n      swap3\n      swap2\n      swap1\n      tag_214\n      swap1\n      tag_215\n      jump\t// in\n    tag_214:\n      swap2\n      swap1\n      pop\n      sstore\n      pop\n        /* \"Cloudy-Blockchain/contracts/cloudy_contract.sol\":4795:4817  fileHashToArrayIndexes */\n      0x0d\n        /* \"Cloudy-Blockchain/contracts/cloudy_contract.sol\":4795:4828  fileHashToArrayIndexes[_fileHash] */\n      0x00\n        /* \"Cloudy-Blockchain/contracts/cloudy_contract.sol\":4818:4827  _fileHash */\n      dup4\n        /* \"Cloudy-Blockchain/contracts/cloudy_contract.sol\":4795:4828  fileHashToArrayIndexes[_fileHash] */\n      not(0xffffffffffffffffffffffff)\n      and\n      not(0xffffffffffffffffffffffff)\n      and\n      dup2\n      mstore\n      0x20\n      add\n      swap1\n      dup2\n      mstore\n      0x20\n      add\n      0x00\n      keccak256\n        /* \"Cloudy-Blockchain/contracts/cloudy_contract.sol\":4788:4828  delete fileHashToArrayIndexes[_fileHash] */\n      0x00\n      swap1\n      sstore\n        /* \"Cloudy-Blockchain/contracts/cloudy_contract.sol\":4843:4859  fileHashToShards */\n      0x0b\n        /* \"Cloudy-Blockchain/contracts/cloudy_contract.sol\":4843:4870  fileHashToShards[_fileHash] */\n      0x00\n        /* \"Cloudy-Blockchain/contracts/cloudy_contract.sol\":4860:4869  _fileHash */\n      dup4\n        /* \"Cloudy-Blockchain/contracts/cloudy_contract.sol\":4843:4870  fileHashToShards[_fileHash] */\n      not(0xffffffffffffffffffffffff)\n      and\n      not(0xffffffffffffffffffffffff)\n      and\n      dup2\n      mstore\n      0x20\n      add\n      swap1\n      dup2\n      mstore\n      0x20\n      add\n      0x00\n      keccak256\n      0x00\n        /* \"Cloudy-Blockchain/contracts/cloudy_contract.sol\":4836:4870  delete fileHashToShards[_fileHash] */\n      tag_216\n      swap2\n      swap1\n      tag_217\n      jump\t// in\n    tag_216:\n        /* \"Cloudy-Blockchain/contracts/cloudy_contract.sol\":4885:4903  shardsInFile_Count */\n      0x10\n        /* \"Cloudy-Blockchain/contracts/cloudy_contract.sol\":4885:4914  shardsInFile_Count[_fileHash] */\n      0x00\n        /* \"Cloudy-Blockchain/contracts/cloudy_contract.sol\":4904:4913  _fileHash */\n      dup4\n        /* \"Cloudy-Blockchain/contracts/cloudy_contract.sol\":4885:4914  shardsInFile_Count[_fileHash] */\n      not(0xffffffffffffffffffffffff)\n      and\n      not(0xffffffffffffffffffffffff)\n      and\n      dup2\n      mstore\n      0x20\n      add\n      swap1\n      dup2\n      mstore\n      0x20\n      add\n      0x00\n      keccak256\n        /* \"Cloudy-Blockchain/contracts/cloudy_contract.sol\":4878:4914  delete shardsInFile_Count[_fileHash] */\n      0x00\n      swap1\n      sstore\n        /* \"Cloudy-Blockchain/contracts/cloudy_contract.sol\":4928:4949  DeleteFile(_fileHash) */\n      0xda13aa46e5e29a22ea7832e5283268a938c39ddc897441a090548cf71a8f81c2\n        /* \"Cloudy-Blockchain/contracts/cloudy_contract.sol\":4939:4948  _fileHash */\n      dup3\n        /* \"Cloudy-Blockchain/contracts/cloudy_contract.sol\":4928:4949  DeleteFile(_fileHash) */\n      mload(0x40)\n      tag_218\n      swap2\n      swap1\n      tag_219\n      jump\t// in\n    tag_218:\n      mload(0x40)\n      dup1\n      swap2\n      sub\n      swap1\n      log1\n        /* \"Cloudy-Blockchain/contracts/cloudy_contract.sol\":3952:5039  {... */\n      pop\n        /* \"Cloudy-Blockchain/contracts/cloudy_contract.sol\":3901:5039  function _deleteFileHash(bytes20 _fileHash) public {... */\n      pop\n      jump\t// out\n        /* \"Cloudy-Blockchain/contracts/cloudy_contract.sol\":14770:14995  function getShardData(uint _shardId) public view returns (string memory) {... */\n    tag_65:\n        /* \"Cloudy-Blockchain/contracts/cloudy_contract.sol\":14828:14841  string memory */\n      0x60\n        /* \"Cloudy-Blockchain/contracts/cloudy_contract.sol\":14909:14915  shards */\n      0x05\n        /* \"Cloudy-Blockchain/contracts/cloudy_contract.sol\":14909:14922  shards.length */\n      dup1\n      sload\n      swap1\n      pop\n        /* \"Cloudy-Blockchain/contracts/cloudy_contract.sol\":14898:14906  _shardId */\n      dup3\n        /* \"Cloudy-Blockchain/contracts/cloudy_contract.sol\":14898:14922  _shardId < shards.length */\n      lt\n        /* \"Cloudy-Blockchain/contracts/cloudy_contract.sol\":14890:14944  require(_shardId < shards.length, \"Invalid shard ID.\") */\n      tag_221\n      jumpi\n      mload(0x40)\n      0x08c379a000000000000000000000000000000000000000000000000000000000\n      dup2\n      mstore\n      0x04\n      add\n      tag_222\n      swap1\n      tag_223\n      jump\t// in\n    tag_222:\n      mload(0x40)\n      dup1\n      swap2\n      sub\n      swap1\n      revert\n    tag_221:\n        /* \"Cloudy-Blockchain/contracts/cloudy_contract.sol\":14962:14968  shards */\n      0x05\n        /* \"Cloudy-Blockchain/contracts/cloudy_contract.sol\":14969:14977  _shardId */\n      dup3\n        /* \"Cloudy-Blockchain/contracts/cloudy_contract.sol\":14962:14978  shards[_shardId] */\n      dup2\n      sload\n      dup2\n      lt\n      tag_224\n      jumpi\n      tag_225\n      tag_190\n      jump\t// in\n    tag_225:\n    tag_224:\n      swap1\n      0x00\n      mstore\n      keccak256(0x00, 0x20)\n      swap1\n      0x02\n      mul\n      add\n        /* \"Cloudy-Blockchain/contracts/cloudy_contract.sol\":14962:14988  shards[_shardId].shardData */\n      0x01\n      add\n        /* \"Cloudy-Blockchain/contracts/cloudy_contract.sol\":14955:14988  return shards[_shardId].shardData */\n      dup1\n      sload\n      tag_227\n      swap1\n      tag_228\n      jump\t// in\n    tag_227:\n      dup1\n      0x1f\n      add\n      0x20\n      dup1\n      swap2\n      div\n      mul\n      0x20\n      add\n      mload(0x40)\n      swap1\n      dup2\n      add\n      0x40\n      mstore\n      dup1\n      swap3\n      swap2\n      swap1\n      dup2\n      dup2\n      mstore\n      0x20\n      add\n      dup3\n      dup1\n      sload\n      tag_229\n      swap1\n      tag_228\n      jump\t// in\n    tag_229:\n      dup1\n      iszero\n      tag_230\n      jumpi\n      dup1\n      0x1f\n      lt\n      tag_231\n      jumpi\n      0x0100\n      dup1\n      dup4\n      sload\n      div\n      mul\n      dup4\n      mstore\n      swap2\n      0x20\n      add\n      swap2\n      jump(tag_230)\n    tag_231:\n      dup3\n      add\n      swap2\n      swap1\n      0x00\n      mstore\n      keccak256(0x00, 0x20)\n      swap1\n    tag_232:\n      dup2\n      sload\n      dup2\n      mstore\n      swap1\n      0x01\n      add\n      swap1\n      0x20\n      add\n      dup1\n      dup4\n      gt\n      tag_232\n      jumpi\n      dup3\n      swap1\n      sub\n      0x1f\n      and\n      dup3\n      add\n      swap2\n    tag_230:\n      pop\n      pop\n      pop\n      pop\n      pop\n      swap1\n      pop\n        /* \"Cloudy-Blockchain/contracts/cloudy_contract.sol\":14770:14995  function getShardData(uint _shardId) public view returns (string memory) {... */\n      swap2\n      swap1\n      pop\n      jump\t// out\n        /* \"Cloudy-Blockchain/contracts/cloudy_contract.sol\":6250:6376  function getShardIDs(bytes20 fileHash) public view returns (uint[] memory) {... */\n    tag_70:\n        /* \"Cloudy-Blockchain/contracts/cloudy_contract.sol\":6310:6323  uint[] memory */\n      0x60\n        /* \"Cloudy-Blockchain/contracts/cloudy_contract.sol\":6343:6359  fileHashToShards */\n      0x0b\n        /* \"Cloudy-Blockchain/contracts/cloudy_contract.sol\":6343:6369  fileHashToShards[fileHash] */\n      0x00\n        /* \"Cloudy-Blockchain/contracts/cloudy_contract.sol\":6360:6368  fileHash */\n      dup4\n        /* \"Cloudy-Blockchain/contracts/cloudy_contract.sol\":6343:6369  fileHashToShards[fileHash] */\n      not(0xffffffffffffffffffffffff)\n      and\n      not(0xffffffffffffffffffffffff)\n      and\n      dup2\n      mstore\n      0x20\n      add\n      swap1\n      dup2\n      mstore\n      0x20\n      add\n      0x00\n      keccak256\n        /* \"Cloudy-Blockchain/contracts/cloudy_contract.sol\":6335:6369  return  fileHashToShards[fileHash] */\n      dup1\n      sload\n      dup1\n      0x20\n      mul\n      0x20\n      add\n      mload(0x40)\n      swap1\n      dup2\n      add\n      0x40\n      mstore\n      dup1\n      swap3\n      swap2\n      swap1\n      dup2\n      dup2\n      mstore\n      0x20\n      add\n      dup3\n      dup1\n      sload\n      dup1\n      iszero\n      tag_234\n      jumpi\n      0x20\n      mul\n      dup3\n      add\n      swap2\n      swap1\n      0x00\n      mstore\n      keccak256(0x00, 0x20)\n      swap1\n    tag_235:\n      dup2\n      sload\n      dup2\n      mstore\n      0x20\n      add\n      swap1\n      0x01\n      add\n      swap1\n      dup1\n      dup4\n      gt\n      tag_235\n      jumpi\n    tag_234:\n      pop\n      pop\n      pop\n      pop\n      pop\n      swap1\n      pop\n        /* \"Cloudy-Blockchain/contracts/cloudy_contract.sol\":6250:6376  function getShardIDs(bytes20 fileHash) public view returns (uint[] memory) {... */\n      swap2\n      swap1\n      pop\n      jump\t// out\n        /* \"Cloudy-Blockchain/contracts/cloudy_contract.sol\":2085:2916  function _storeFile(bytes20 _filehash) public {... */\n    tag_74:\n        /* \"Cloudy-Blockchain/contracts/cloudy_contract.sol\":2246:2256  fileHashes */\n      0x06\n        /* \"Cloudy-Blockchain/contracts/cloudy_contract.sol\":2262:2271  _filehash */\n      dup2\n        /* \"Cloudy-Blockchain/contracts/cloudy_contract.sol\":2246:2272  fileHashes.push(_filehash) */\n      swap1\n      dup1\n      0x01\n      dup2\n      sload\n      add\n      dup1\n      dup3\n      sstore\n      dup1\n      swap2\n      pop\n      pop\n      0x01\n      swap1\n      sub\n      swap1\n      0x00\n      mstore\n      keccak256(0x00, 0x20)\n      add\n      0x00\n      swap1\n      swap2\n      swap1\n      swap2\n      swap1\n      swap2\n      0x0100\n      exp\n      dup2\n      sload\n      dup2\n      0xffffffffffffffffffffffffffffffffffffffff\n      mul\n      not\n      and\n      swap1\n      dup4\n      0x60\n      shr\n      mul\n      or\n      swap1\n      sstore\n      pop\n        /* \"Cloudy-Blockchain/contracts/cloudy_contract.sol\":2280:2290  uint index */\n      0x00\n        /* \"Cloudy-Blockchain/contracts/cloudy_contract.sol\":2313:2314  1 */\n      0x01\n        /* \"Cloudy-Blockchain/contracts/cloudy_contract.sol\":2293:2303  fileHashes */\n      0x06\n        /* \"Cloudy-Blockchain/contracts/cloudy_contract.sol\":2293:2310  fileHashes.length */\n      dup1\n      sload\n      swap1\n      pop\n        /* \"Cloudy-Blockchain/contracts/cloudy_contract.sol\":2293:2314  fileHashes.length - 1 */\n      tag_238\n      swap2\n      swap1\n      tag_174\n      jump\t// in\n    tag_238:\n        /* \"Cloudy-Blockchain/contracts/cloudy_contract.sol\":2280:2314  uint index = fileHashes.length - 1 */\n      swap1\n      pop\n        /* \"Cloudy-Blockchain/contracts/cloudy_contract.sol\":2351:2361  msg.sender */\n      caller\n        /* \"Cloudy-Blockchain/contracts/cloudy_contract.sol\":2322:2337  fileHashToOwner */\n      0x07\n        /* \"Cloudy-Blockchain/contracts/cloudy_contract.sol\":2322:2348  fileHashToOwner[_filehash] */\n      0x00\n        /* \"Cloudy-Blockchain/contracts/cloudy_contract.sol\":2338:2347  _filehash */\n      dup5\n        /* \"Cloudy-Blockchain/contracts/cloudy_contract.sol\":2322:2348  fileHashToOwner[_filehash] */\n      not(0xffffffffffffffffffffffff)\n      and\n      not(0xffffffffffffffffffffffff)\n      and\n      dup2\n      mstore\n      0x20\n      add\n      swap1\n      dup2\n      mstore\n      0x20\n      add\n      0x00\n      keccak256\n      0x00\n        /* \"Cloudy-Blockchain/contracts/cloudy_contract.sol\":2322:2361  fileHashToOwner[_filehash] = msg.sender */\n      0x0100\n      exp\n      dup2\n      sload\n      dup2\n      0xffffffffffffffffffffffffffffffffffffffff\n      mul\n      not\n      and\n      swap1\n      dup4\n      0xffffffffffffffffffffffffffffffffffffffff\n      and\n      mul\n      or\n      swap1\n      sstore\n      pop\n        /* \"Cloudy-Blockchain/contracts/cloudy_contract.sol\":2406:2411  index */\n      dup1\n        /* \"Cloudy-Blockchain/contracts/cloudy_contract.sol\":2370:2392  fileHashToArrayIndexes */\n      0x0d\n        /* \"Cloudy-Blockchain/contracts/cloudy_contract.sol\":2370:2403  fileHashToArrayIndexes[_filehash] */\n      0x00\n        /* \"Cloudy-Blockchain/contracts/cloudy_contract.sol\":2393:2402  _filehash */\n      dup5\n        /* \"Cloudy-Blockchain/contracts/cloudy_contract.sol\":2370:2403  fileHashToArrayIndexes[_filehash] */\n      not(0xffffffffffffffffffffffff)\n      and\n      not(0xffffffffffffffffffffffff)\n      and\n      dup2\n      mstore\n      0x20\n      add\n      swap1\n      dup2\n      mstore\n      0x20\n      add\n      0x00\n      keccak256\n        /* \"Cloudy-Blockchain/contracts/cloudy_contract.sol\":2370:2411  fileHashToArrayIndexes[_filehash] = index */\n      dup2\n      swap1\n      sstore\n      pop\n        /* \"Cloudy-Blockchain/contracts/cloudy_contract.sol\":2448:2462  ownerFileCount */\n      0x0f\n        /* \"Cloudy-Blockchain/contracts/cloudy_contract.sol\":2448:2474  ownerFileCount[msg.sender] */\n      0x00\n        /* \"Cloudy-Blockchain/contracts/cloudy_contract.sol\":2463:2473  msg.sender */\n      caller\n        /* \"Cloudy-Blockchain/contracts/cloudy_contract.sol\":2448:2474  ownerFileCount[msg.sender] */\n      0xffffffffffffffffffffffffffffffffffffffff\n      and\n      0xffffffffffffffffffffffffffffffffffffffff\n      and\n      dup2\n      mstore\n      0x20\n      add\n      swap1\n      dup2\n      mstore\n      0x20\n      add\n      0x00\n      keccak256\n      0x00\n        /* \"Cloudy-Blockchain/contracts/cloudy_contract.sol\":2448:2476  ownerFileCount[msg.sender]++ */\n      dup2\n      sload\n      dup1\n      swap3\n      swap2\n      swap1\n      tag_239\n      swap1\n      tag_176\n      jump\t// in\n    tag_239:\n      swap2\n      swap1\n      pop\n      sstore\n      pop\n        /* \"Cloudy-Blockchain/contracts/cloudy_contract.sol\":2714:2732  NewFile(_filehash) */\n      0xa7714b5994b2cbb93bfe098ef622436aa3e9be80ed5f01b373fd3aa629e14962\n        /* \"Cloudy-Blockchain/contracts/cloudy_contract.sol\":2722:2731  _filehash */\n      dup3\n        /* \"Cloudy-Blockchain/contracts/cloudy_contract.sol\":2714:2732  NewFile(_filehash) */\n      mload(0x40)\n      tag_240\n      swap2\n      swap1\n      tag_219\n      jump\t// in\n    tag_240:\n      mload(0x40)\n      dup1\n      swap2\n      sub\n      swap1\n      log1\n        /* \"Cloudy-Blockchain/contracts/cloudy_contract.sol\":2131:2916  {... */\n      pop\n        /* \"Cloudy-Blockchain/contracts/cloudy_contract.sol\":2085:2916  function _storeFile(bytes20 _filehash) public {... */\n      pop\n      jump\t// out\n        /* \"Cloudy-Blockchain/contracts/cloudy_contract.sol\":2922:3325  function checkFileHashExternal(bytes20 _filehash) external view returns (uint) {... */\n    tag_77:\n        /* \"Cloudy-Blockchain/contracts/cloudy_contract.sol\":2995:2999  uint */\n      0x00\n        /* \"Cloudy-Blockchain/contracts/cloudy_contract.sol\":3060:3066  uint i */\n      dup1\n        /* \"Cloudy-Blockchain/contracts/cloudy_contract.sol\":3069:3070  0 */\n      0x00\n        /* \"Cloudy-Blockchain/contracts/cloudy_contract.sol\":3060:3070  uint i = 0 */\n      swap1\n      pop\n        /* \"Cloudy-Blockchain/contracts/cloudy_contract.sol\":3055:3275  for (uint i = 0; i < fileHashes.length; i++) {... */\n    tag_242:\n        /* \"Cloudy-Blockchain/contracts/cloudy_contract.sol\":3076:3086  fileHashes */\n      0x06\n        /* \"Cloudy-Blockchain/contracts/cloudy_contract.sol\":3076:3093  fileHashes.length */\n      dup1\n      sload\n      swap1\n      pop\n        /* \"Cloudy-Blockchain/contracts/cloudy_contract.sol\":3072:3073  i */\n      dup2\n        /* \"Cloudy-Blockchain/contracts/cloudy_contract.sol\":3072:3093  i < fileHashes.length */\n      lt\n        /* \"Cloudy-Blockchain/contracts/cloudy_contract.sol\":3055:3275  for (uint i = 0; i < fileHashes.length; i++) {... */\n      iszero\n      tag_243\n      jumpi\n        /* \"Cloudy-Blockchain/contracts/cloudy_contract.sol\":3196:3205  _filehash */\n      dup3\n        /* \"Cloudy-Blockchain/contracts/cloudy_contract.sol\":3179:3205  fileHashes[i] == _filehash */\n      not(0xffffffffffffffffffffffff)\n      and\n        /* \"Cloudy-Blockchain/contracts/cloudy_contract.sol\":3179:3189  fileHashes */\n      0x06\n        /* \"Cloudy-Blockchain/contracts/cloudy_contract.sol\":3190:3191  i */\n      dup3\n        /* \"Cloudy-Blockchain/contracts/cloudy_contract.sol\":3179:3192  fileHashes[i] */\n      dup2\n      sload\n      dup2\n      lt\n      tag_245\n      jumpi\n      tag_246\n      tag_190\n      jump\t// in\n    tag_246:\n    tag_245:\n      swap1\n      0x00\n      mstore\n      keccak256(0x00, 0x20)\n      add\n      0x00\n      swap1\n      sload\n      swap1\n      0x0100\n      exp\n      swap1\n      div\n      0x60\n      shl\n        /* \"Cloudy-Blockchain/contracts/cloudy_contract.sol\":3179:3205  fileHashes[i] == _filehash */\n      not(0xffffffffffffffffffffffff)\n      and\n      sub\n        /* \"Cloudy-Blockchain/contracts/cloudy_contract.sol\":3175:3265  if (fileHashes[i] == _filehash) {... */\n      tag_248\n      jumpi\n        /* \"Cloudy-Blockchain/contracts/cloudy_contract.sol\":3232:3233  1 */\n      0x01\n        /* \"Cloudy-Blockchain/contracts/cloudy_contract.sol\":3225:3233  return 1 */\n      swap2\n      pop\n      pop\n      jump(tag_241)\n        /* \"Cloudy-Blockchain/contracts/cloudy_contract.sol\":3175:3265  if (fileHashes[i] == _filehash) {... */\n    tag_248:\n        /* \"Cloudy-Blockchain/contracts/cloudy_contract.sol\":3095:3098  i++ */\n      dup1\n      dup1\n      tag_249\n      swap1\n      tag_176\n      jump\t// in\n    tag_249:\n      swap2\n      pop\n      pop\n        /* \"Cloudy-Blockchain/contracts/cloudy_contract.sol\":3055:3275  for (uint i = 0; i < fileHashes.length; i++) {... */\n      jump(tag_242)\n    tag_243:\n      pop\n        /* \"Cloudy-Blockchain/contracts/cloudy_contract.sol\":3291:3292  0 */\n      0x00\n        /* \"Cloudy-Blockchain/contracts/cloudy_contract.sol\":3284:3292  return 0 */\n      swap1\n      pop\n        /* \"Cloudy-Blockchain/contracts/cloudy_contract.sol\":2922:3325  function checkFileHashExternal(bytes20 _filehash) external view returns (uint) {... */\n    tag_241:\n      swap2\n      swap1\n      pop\n      jump\t// out\n        /* \"Cloudy-Blockchain/contracts/cloudy_contract.sol\":8742:9608  function _dropShardsOfDeletedFile (bytes20 _filehash) public {... */\n    tag_81:\n        /* \"Cloudy-Blockchain/contracts/cloudy_contract.sol\":8833:8848  fileHashToOwner */\n      0x07\n        /* \"Cloudy-Blockchain/contracts/cloudy_contract.sol\":8833:8859  fileHashToOwner[_filehash] */\n      0x00\n        /* \"Cloudy-Blockchain/contracts/cloudy_contract.sol\":8849:8858  _filehash */\n      dup3\n        /* \"Cloudy-Blockchain/contracts/cloudy_contract.sol\":8833:8859  fileHashToOwner[_filehash] */\n      not(0xffffffffffffffffffffffff)\n      and\n      not(0xffffffffffffffffffffffff)\n      and\n      dup2\n      mstore\n      0x20\n      add\n      swap1\n      dup2\n      mstore\n      0x20\n      add\n      0x00\n      keccak256\n      0x00\n      swap1\n      sload\n      swap1\n      0x0100\n      exp\n      swap1\n      div\n      0xffffffffffffffffffffffffffffffffffffffff\n      and\n        /* \"Cloudy-Blockchain/contracts/cloudy_contract.sol\":8819:8859  msg.sender == fileHashToOwner[_filehash] */\n      0xffffffffffffffffffffffffffffffffffffffff\n      and\n        /* \"Cloudy-Blockchain/contracts/cloudy_contract.sol\":8819:8829  msg.sender */\n      caller\n        /* \"Cloudy-Blockchain/contracts/cloudy_contract.sol\":8819:8859  msg.sender == fileHashToOwner[_filehash] */\n      0xffffffffffffffffffffffffffffffffffffffff\n      and\n      eq\n        /* \"Cloudy-Blockchain/contracts/cloudy_contract.sol\":8811:8900  require(msg.sender == fileHashToOwner[_filehash], \"Only File Owner can delete the file!\") */\n      tag_251\n      jumpi\n      mload(0x40)\n      0x08c379a000000000000000000000000000000000000000000000000000000000\n      dup2\n      mstore\n      0x04\n      add\n      tag_252\n      swap1\n      tag_253\n      jump\t// in\n    tag_252:\n      mload(0x40)\n      dup1\n      swap2\n      sub\n      swap1\n      revert\n    tag_251:\n        /* \"Cloudy-Blockchain/contracts/cloudy_contract.sol\":9060:9088  uint[] memory filehashShards */\n      0x00\n        /* \"Cloudy-Blockchain/contracts/cloudy_contract.sol\":9091:9113  getShardIDs(_filehash) */\n      tag_254\n        /* \"Cloudy-Blockchain/contracts/cloudy_contract.sol\":9103:9112  _filehash */\n      dup3\n        /* \"Cloudy-Blockchain/contracts/cloudy_contract.sol\":9091:9102  getShardIDs */\n      tag_70\n        /* \"Cloudy-Blockchain/contracts/cloudy_contract.sol\":9091:9113  getShardIDs(_filehash) */\n      jump\t// in\n    tag_254:\n        /* \"Cloudy-Blockchain/contracts/cloudy_contract.sol\":9060:9113  uint[] memory filehashShards = getShardIDs(_filehash) */\n      swap1\n      pop\n        /* \"Cloudy-Blockchain/contracts/cloudy_contract.sol\":9172:9178  uint i */\n      0x00\n        /* \"Cloudy-Blockchain/contracts/cloudy_contract.sol\":9167:9602  for (uint i = 0; i < filehashShards.length; i++) {... */\n    tag_255:\n        /* \"Cloudy-Blockchain/contracts/cloudy_contract.sol\":9188:9202  filehashShards */\n      dup2\n        /* \"Cloudy-Blockchain/contracts/cloudy_contract.sol\":9188:9209  filehashShards.length */\n      mload\n        /* \"Cloudy-Blockchain/contracts/cloudy_contract.sol\":9184:9185  i */\n      dup2\n        /* \"Cloudy-Blockchain/contracts/cloudy_contract.sol\":9184:9209  i < filehashShards.length */\n      lt\n        /* \"Cloudy-Blockchain/contracts/cloudy_contract.sol\":9167:9602  for (uint i = 0; i < filehashShards.length; i++) {... */\n      iszero\n      tag_256\n      jumpi\n        /* \"Cloudy-Blockchain/contracts/cloudy_contract.sol\":9275:9281  uint j */\n      0x00\n        /* \"Cloudy-Blockchain/contracts/cloudy_contract.sol\":9270:9594  for (uint j = 0; j < availableFarmerNodeIds.length; j++) {... */\n    tag_258:\n        /* \"Cloudy-Blockchain/contracts/cloudy_contract.sol\":9291:9313  availableFarmerNodeIds */\n      0x02\n        /* \"Cloudy-Blockchain/contracts/cloudy_contract.sol\":9291:9320  availableFarmerNodeIds.length */\n      dup1\n      sload\n      swap1\n      pop\n        /* \"Cloudy-Blockchain/contracts/cloudy_contract.sol\":9287:9288  j */\n      dup2\n        /* \"Cloudy-Blockchain/contracts/cloudy_contract.sol\":9287:9320  j < availableFarmerNodeIds.length */\n      lt\n        /* \"Cloudy-Blockchain/contracts/cloudy_contract.sol\":9270:9594  for (uint j = 0; j < availableFarmerNodeIds.length; j++) {... */\n      iszero\n      tag_259\n      jumpi\n        /* \"Cloudy-Blockchain/contracts/cloudy_contract.sol\":9371:9393  availableFarmerNodeIds */\n      0x02\n        /* \"Cloudy-Blockchain/contracts/cloudy_contract.sol\":9394:9395  j */\n      dup2\n        /* \"Cloudy-Blockchain/contracts/cloudy_contract.sol\":9371:9396  availableFarmerNodeIds[j] */\n      dup2\n      sload\n      dup2\n      lt\n      tag_261\n      jumpi\n      tag_262\n      tag_190\n      jump\t// in\n    tag_262:\n    tag_261:\n      swap1\n      0x00\n      mstore\n      keccak256(0x00, 0x20)\n      add\n      sload\n        /* \"Cloudy-Blockchain/contracts/cloudy_contract.sol\":9343:9364  shardIdtoFarmerNodeId */\n      0x0a\n        /* \"Cloudy-Blockchain/contracts/cloudy_contract.sol\":9343:9367  shardIdtoFarmerNodeId[i] */\n      0x00\n        /* \"Cloudy-Blockchain/contracts/cloudy_contract.sol\":9365:9366  i */\n      dup5\n        /* \"Cloudy-Blockchain/contracts/cloudy_contract.sol\":9343:9367  shardIdtoFarmerNodeId[i] */\n      dup2\n      mstore\n      0x20\n      add\n      swap1\n      dup2\n      mstore\n      0x20\n      add\n      0x00\n      keccak256\n      sload\n        /* \"Cloudy-Blockchain/contracts/cloudy_contract.sol\":9343:9396  shardIdtoFarmerNodeId[i] == availableFarmerNodeIds[j] */\n      sub\n        /* \"Cloudy-Blockchain/contracts/cloudy_contract.sol\":9339:9584  if (shardIdtoFarmerNodeId[i] == availableFarmerNodeIds[j]) {  ... */\n      tag_264\n      jumpi\n        /* \"Cloudy-Blockchain/contracts/cloudy_contract.sol\":9498:9571  ShardDeleted(shardIdtoFarmerNodeId[filehashShards[i]], filehashShards[i]) */\n      0x236ef25c59db1c092b5a1df6c8523bd8028b948a5943cfac940c3169845dfb6a\n        /* \"Cloudy-Blockchain/contracts/cloudy_contract.sol\":9511:9532  shardIdtoFarmerNodeId */\n      0x0a\n        /* \"Cloudy-Blockchain/contracts/cloudy_contract.sol\":9511:9551  shardIdtoFarmerNodeId[filehashShards[i]] */\n      0x00\n        /* \"Cloudy-Blockchain/contracts/cloudy_contract.sol\":9533:9547  filehashShards */\n      dup6\n        /* \"Cloudy-Blockchain/contracts/cloudy_contract.sol\":9548:9549  i */\n      dup6\n        /* \"Cloudy-Blockchain/contracts/cloudy_contract.sol\":9533:9550  filehashShards[i] */\n      dup2\n      mload\n      dup2\n      lt\n      tag_265\n      jumpi\n      tag_266\n      tag_190\n      jump\t// in\n    tag_266:\n    tag_265:\n      0x20\n      mul\n      0x20\n      add\n      add\n      mload\n        /* \"Cloudy-Blockchain/contracts/cloudy_contract.sol\":9511:9551  shardIdtoFarmerNodeId[filehashShards[i]] */\n      dup2\n      mstore\n      0x20\n      add\n      swap1\n      dup2\n      mstore\n      0x20\n      add\n      0x00\n      keccak256\n      sload\n        /* \"Cloudy-Blockchain/contracts/cloudy_contract.sol\":9553:9567  filehashShards */\n      dup5\n        /* \"Cloudy-Blockchain/contracts/cloudy_contract.sol\":9568:9569  i */\n      dup5\n        /* \"Cloudy-Blockchain/contracts/cloudy_contract.sol\":9553:9570  filehashShards[i] */\n      dup2\n      mload\n      dup2\n      lt\n      tag_267\n      jumpi\n      tag_268\n      tag_190\n      jump\t// in\n    tag_268:\n    tag_267:\n      0x20\n      mul\n      0x20\n      add\n      add\n      mload\n        /* \"Cloudy-Blockchain/contracts/cloudy_contract.sol\":9498:9571  ShardDeleted(shardIdtoFarmerNodeId[filehashShards[i]], filehashShards[i]) */\n      mload(0x40)\n      tag_269\n      swap3\n      swap2\n      swap1\n      tag_270\n      jump\t// in\n    tag_269:\n      mload(0x40)\n      dup1\n      swap2\n      sub\n      swap1\n      log1\n        /* \"Cloudy-Blockchain/contracts/cloudy_contract.sol\":9339:9584  if (shardIdtoFarmerNodeId[i] == availableFarmerNodeIds[j]) {  ... */\n    tag_264:\n        /* \"Cloudy-Blockchain/contracts/cloudy_contract.sol\":9322:9325  j++ */\n      dup1\n      dup1\n      tag_271\n      swap1\n      tag_176\n      jump\t// in\n    tag_271:\n      swap2\n      pop\n      pop\n        /* \"Cloudy-Blockchain/contracts/cloudy_contract.sol\":9270:9594  for (uint j = 0; j < availableFarmerNodeIds.length; j++) {... */\n      jump(tag_258)\n    tag_259:\n      pop\n        /* \"Cloudy-Blockchain/contracts/cloudy_contract.sol\":9211:9214  i++ */\n      dup1\n      dup1\n      tag_272\n      swap1\n      tag_176\n      jump\t// in\n    tag_272:\n      swap2\n      pop\n      pop\n        /* \"Cloudy-Blockchain/contracts/cloudy_contract.sol\":9167:9602  for (uint i = 0; i < filehashShards.length; i++) {... */\n      jump(tag_255)\n    tag_256:\n      pop\n        /* \"Cloudy-Blockchain/contracts/cloudy_contract.sol\":8803:9608  {... */\n      pop\n        /* \"Cloudy-Blockchain/contracts/cloudy_contract.sol\":8742:9608  function _dropShardsOfDeletedFile (bytes20 _filehash) public {... */\n      pop\n      jump\t// out\n        /* \"Cloudy-Blockchain/contracts/cloudy_contract.sol\":1241:1293  mapping(bytes20 => uint) public fileHashToShardCount */\n    tag_84:\n      mstore(0x20, 0x08)\n      dup1\n      0x00\n      mstore\n      keccak256(0x00, 0x40)\n      0x00\n      swap2\n      pop\n      swap1\n      pop\n      sload\n      dup2\n      jump\t// out\n        /* \"Cloudy-Blockchain/contracts/cloudy_contract.sol\":15134:15223  function getShardCount() public view returns (uint) {... */\n    tag_87:\n        /* \"Cloudy-Blockchain/contracts/cloudy_contract.sol\":15180:15184  uint */\n      0x00\n        /* \"Cloudy-Blockchain/contracts/cloudy_contract.sol\":15203:15209  shards */\n      0x05\n        /* \"Cloudy-Blockchain/contracts/cloudy_contract.sol\":15203:15216  shards.length */\n      dup1\n      sload\n      swap1\n      pop\n        /* \"Cloudy-Blockchain/contracts/cloudy_contract.sol\":15196:15216  return shards.length */\n      swap1\n      pop\n        /* \"Cloudy-Blockchain/contracts/cloudy_contract.sol\":15134:15223  function getShardCount() public view returns (uint) {... */\n      swap1\n      jump\t// out\n        /* \"Cloudy-Blockchain/.deps/ownable.sol\":1817:1918  function renounceOwnership() public virtual onlyOwner {... */\n    tag_90:\n        /* \"Cloudy-Blockchain/.deps/ownable.sol\":1087:1100  _checkOwner() */\n      tag_275\n        /* \"Cloudy-Blockchain/.deps/ownable.sol\":1087:1098  _checkOwner */\n      tag_276\n        /* \"Cloudy-Blockchain/.deps/ownable.sol\":1087:1100  _checkOwner() */\n      jump\t// in\n    tag_275:\n        /* \"Cloudy-Blockchain/.deps/ownable.sol\":1881:1911  _transferOwnership(address(0)) */\n      tag_278\n        /* \"Cloudy-Blockchain/.deps/ownable.sol\":1908:1909  0 */\n      0x00\n        /* \"Cloudy-Blockchain/.deps/ownable.sol\":1881:1899  _transferOwnership */\n      tag_279\n        /* \"Cloudy-Blockchain/.deps/ownable.sol\":1881:1911  _transferOwnership(address(0)) */\n      jump\t// in\n    tag_278:\n        /* \"Cloudy-Blockchain/.deps/ownable.sol\":1817:1918  function renounceOwnership() public virtual onlyOwner {... */\n      jump\t// out\n        /* \"Cloudy-Blockchain/contracts/cloudy_contract.sol\":11281:12058  function removeStorageProvider(uint _nodeId) public {... */\n    tag_93:\n        /* \"Cloudy-Blockchain/contracts/cloudy_contract.sol\":11387:11408  containsNode(_nodeId) */\n      tag_281\n        /* \"Cloudy-Blockchain/contracts/cloudy_contract.sol\":11400:11407  _nodeId */\n      dup2\n        /* \"Cloudy-Blockchain/contracts/cloudy_contract.sol\":11387:11399  containsNode */\n      tag_57\n        /* \"Cloudy-Blockchain/contracts/cloudy_contract.sol\":11387:11408  containsNode(_nodeId) */\n      jump\t// in\n    tag_281:\n        /* \"Cloudy-Blockchain/contracts/cloudy_contract.sol\":11379:11436  require(containsNode(_nodeId), \"Invalid farmer node ID.\") */\n      tag_282\n      jumpi\n      mload(0x40)\n      0x08c379a000000000000000000000000000000000000000000000000000000000\n      dup2\n      mstore\n      0x04\n      add\n      tag_283\n      swap1\n      tag_284\n      jump\t// in\n    tag_283:\n      mload(0x40)\n      dup1\n      swap2\n      sub\n      swap1\n      revert\n    tag_282:\n        /* \"Cloudy-Blockchain/contracts/cloudy_contract.sol\":11445:11455  uint index */\n      0x00\n        /* \"Cloudy-Blockchain/contracts/cloudy_contract.sol\":11458:11488  farmerNodeIdToFarmerArrayIndex */\n      0x03\n        /* \"Cloudy-Blockchain/contracts/cloudy_contract.sol\":11458:11497  farmerNodeIdToFarmerArrayIndex[_nodeId] */\n      0x00\n        /* \"Cloudy-Blockchain/contracts/cloudy_contract.sol\":11489:11496  _nodeId */\n      dup4\n        /* \"Cloudy-Blockchain/contracts/cloudy_contract.sol\":11458:11497  farmerNodeIdToFarmerArrayIndex[_nodeId] */\n      dup2\n      mstore\n      0x20\n      add\n      swap1\n      dup2\n      mstore\n      0x20\n      add\n      0x00\n      keccak256\n      sload\n        /* \"Cloudy-Blockchain/contracts/cloudy_contract.sol\":11445:11497  uint index = farmerNodeIdToFarmerArrayIndex[_nodeId] */\n      swap1\n      pop\n        /* \"Cloudy-Blockchain/contracts/cloudy_contract.sol\":11527:11543  availableFarmers */\n      0x01\n        /* \"Cloudy-Blockchain/contracts/cloudy_contract.sol\":11544:11549  index */\n      dup2\n        /* \"Cloudy-Blockchain/contracts/cloudy_contract.sol\":11527:11550  availableFarmers[index] */\n      dup2\n      sload\n      dup2\n      lt\n      tag_285\n      jumpi\n      tag_286\n      tag_190\n      jump\t// in\n    tag_286:\n    tag_285:\n      swap1\n      0x00\n      mstore\n      keccak256(0x00, 0x20)\n      swap1\n      0x05\n      mul\n      add\n        /* \"Cloudy-Blockchain/contracts/cloudy_contract.sol\":11527:11564  availableFarmers[index].walletAddress */\n      0x00\n      add\n      0x00\n      swap1\n      sload\n      swap1\n      0x0100\n      exp\n      swap1\n      div\n      0xffffffffffffffffffffffffffffffffffffffff\n      and\n        /* \"Cloudy-Blockchain/contracts/cloudy_contract.sol\":11513:11564  msg.sender == availableFarmers[index].walletAddress */\n      0xffffffffffffffffffffffffffffffffffffffff\n      and\n        /* \"Cloudy-Blockchain/contracts/cloudy_contract.sol\":11513:11523  msg.sender */\n      caller\n        /* \"Cloudy-Blockchain/contracts/cloudy_contract.sol\":11513:11564  msg.sender == availableFarmers[index].walletAddress */\n      0xffffffffffffffffffffffffffffffffffffffff\n      and\n      eq\n        /* \"Cloudy-Blockchain/contracts/cloudy_contract.sol\":11513:11589  msg.sender == availableFarmers[index].walletAddress || msg.sender == owner() */\n      dup1\n      tag_288\n      jumpi\n      pop\n        /* \"Cloudy-Blockchain/contracts/cloudy_contract.sol\":11582:11589  owner() */\n      tag_289\n        /* \"Cloudy-Blockchain/contracts/cloudy_contract.sol\":11582:11587  owner */\n      tag_108\n        /* \"Cloudy-Blockchain/contracts/cloudy_contract.sol\":11582:11589  owner() */\n      jump\t// in\n    tag_289:\n        /* \"Cloudy-Blockchain/contracts/cloudy_contract.sol\":11568:11589  msg.sender == owner() */\n      0xffffffffffffffffffffffffffffffffffffffff\n      and\n        /* \"Cloudy-Blockchain/contracts/cloudy_contract.sol\":11568:11578  msg.sender */\n      caller\n        /* \"Cloudy-Blockchain/contracts/cloudy_contract.sol\":11568:11589  msg.sender == owner() */\n      0xffffffffffffffffffffffffffffffffffffffff\n      and\n      eq\n        /* \"Cloudy-Blockchain/contracts/cloudy_contract.sol\":11513:11589  msg.sender == availableFarmers[index].walletAddress || msg.sender == owner() */\n    tag_288:\n        /* \"Cloudy-Blockchain/contracts/cloudy_contract.sol\":11505:11696  require(msg.sender == availableFarmers[index].walletAddress || msg.sender == owner(), \"Storage Providers can only be removed by the contract owner's address or the address being registered!\") */\n      tag_290\n      jumpi\n      mload(0x40)\n      0x08c379a000000000000000000000000000000000000000000000000000000000\n      dup2\n      mstore\n      0x04\n      add\n      tag_291\n      swap1\n      tag_292\n      jump\t// in\n    tag_291:\n      mload(0x40)\n      dup1\n      swap2\n      sub\n      swap1\n      revert\n    tag_290:\n        /* \"Cloudy-Blockchain/contracts/cloudy_contract.sol\":11739:11755  availableFarmers */\n      0x01\n        /* \"Cloudy-Blockchain/contracts/cloudy_contract.sol\":11782:11783  1 */\n      dup1\n        /* \"Cloudy-Blockchain/contracts/cloudy_contract.sol\":11756:11772  availableFarmers */\n      dup1\n        /* \"Cloudy-Blockchain/contracts/cloudy_contract.sol\":11756:11779  availableFarmers.length */\n      dup1\n      sload\n      swap1\n      pop\n        /* \"Cloudy-Blockchain/contracts/cloudy_contract.sol\":11756:11783  availableFarmers.length - 1 */\n      tag_293\n      swap2\n      swap1\n      tag_174\n      jump\t// in\n    tag_293:\n        /* \"Cloudy-Blockchain/contracts/cloudy_contract.sol\":11739:11784  availableFarmers[availableFarmers.length - 1] */\n      dup2\n      sload\n      dup2\n      lt\n      tag_294\n      jumpi\n      tag_295\n      tag_190\n      jump\t// in\n    tag_295:\n    tag_294:\n      swap1\n      0x00\n      mstore\n      keccak256(0x00, 0x20)\n      swap1\n      0x05\n      mul\n      add\n        /* \"Cloudy-Blockchain/contracts/cloudy_contract.sol\":11713:11729  availableFarmers */\n      0x01\n        /* \"Cloudy-Blockchain/contracts/cloudy_contract.sol\":11730:11735  index */\n      dup3\n        /* \"Cloudy-Blockchain/contracts/cloudy_contract.sol\":11713:11736  availableFarmers[index] */\n      dup2\n      sload\n      dup2\n      lt\n      tag_297\n      jumpi\n      tag_298\n      tag_190\n      jump\t// in\n    tag_298:\n    tag_297:\n      swap1\n      0x00\n      mstore\n      keccak256(0x00, 0x20)\n      swap1\n      0x05\n      mul\n      add\n        /* \"Cloudy-Blockchain/contracts/cloudy_contract.sol\":11713:11784  availableFarmers[index] = availableFarmers[availableFarmers.length - 1] */\n      0x00\n      dup3\n      add\n      0x00\n      swap1\n      sload\n      swap1\n      0x0100\n      exp\n      swap1\n      div\n      0xffffffffffffffffffffffffffffffffffffffff\n      and\n      dup2\n      0x00\n      add\n      exp(0x0100, 0x00)\n      dup2\n      sload\n      dup2\n      0xffffffffffffffffffffffffffffffffffffffff\n      mul\n      not\n      and\n      swap1\n      dup4\n      0xffffffffffffffffffffffffffffffffffffffff\n      and\n      mul\n      or\n      swap1\n      sstore\n      pop\n      0x01\n      dup3\n      add\n      sload\n      dup2\n      0x01\n      add\n      sstore\n      0x02\n      dup3\n      add\n      sload\n      dup2\n      0x02\n      add\n      sstore\n      0x03\n      dup3\n      add\n      sload\n      dup2\n      0x03\n      add\n      sstore\n      0x04\n      dup3\n      add\n      dup2\n      0x04\n      add\n      swap1\n      dup2\n      tag_300\n      swap2\n      swap1\n      tag_301\n      jump\t// in\n    tag_300:\n      pop\n      swap1\n      pop\n      pop\n        /* \"Cloudy-Blockchain/contracts/cloudy_contract.sol\":11792:11808  availableFarmers */\n      0x01\n        /* \"Cloudy-Blockchain/contracts/cloudy_contract.sol\":11792:11814  availableFarmers.pop() */\n      dup1\n      sload\n      dup1\n      tag_302\n      jumpi\n      tag_303\n      tag_212\n      jump\t// in\n    tag_303:\n    tag_302:\n      0x01\n      swap1\n      sub\n      dup2\n      dup2\n      swap1\n      0x00\n      mstore\n      keccak256(0x00, 0x20)\n      swap1\n      0x05\n      mul\n      add\n      0x00\n      dup1\n      dup3\n      add\n      exp(0x0100, 0x00)\n      dup2\n      sload\n      swap1\n      0xffffffffffffffffffffffffffffffffffffffff\n      mul\n      not\n      and\n      swap1\n      sstore\n      0x01\n      dup3\n      add\n      0x00\n      swap1\n      sstore\n      0x02\n      dup3\n      add\n      0x00\n      swap1\n      sstore\n      0x03\n      dup3\n      add\n      0x00\n      swap1\n      sstore\n      0x04\n      dup3\n      add\n      0x00\n      tag_305\n      swap2\n      swap1\n      tag_306\n      jump\t// in\n    tag_305:\n      pop\n      pop\n      swap1\n      sstore\n        /* \"Cloudy-Blockchain/contracts/cloudy_contract.sol\":11915:11937  availableFarmerNodeIds */\n      0x02\n        /* \"Cloudy-Blockchain/contracts/cloudy_contract.sol\":11970:11971  1 */\n      0x01\n        /* \"Cloudy-Blockchain/contracts/cloudy_contract.sol\":11938:11960  availableFarmerNodeIds */\n      0x02\n        /* \"Cloudy-Blockchain/contracts/cloudy_contract.sol\":11938:11967  availableFarmerNodeIds.length */\n      dup1\n      sload\n      swap1\n      pop\n        /* \"Cloudy-Blockchain/contracts/cloudy_contract.sol\":11938:11971  availableFarmerNodeIds.length - 1 */\n      tag_307\n      swap2\n      swap1\n      tag_174\n      jump\t// in\n    tag_307:\n        /* \"Cloudy-Blockchain/contracts/cloudy_contract.sol\":11915:11972  availableFarmerNodeIds[availableFarmerNodeIds.length - 1] */\n      dup2\n      sload\n      dup2\n      lt\n      tag_308\n      jumpi\n      tag_309\n      tag_190\n      jump\t// in\n    tag_309:\n    tag_308:\n      swap1\n      0x00\n      mstore\n      keccak256(0x00, 0x20)\n      add\n      sload\n        /* \"Cloudy-Blockchain/contracts/cloudy_contract.sol\":11883:11905  availableFarmerNodeIds */\n      0x02\n        /* \"Cloudy-Blockchain/contracts/cloudy_contract.sol\":11906:11911  index */\n      dup3\n        /* \"Cloudy-Blockchain/contracts/cloudy_contract.sol\":11883:11912  availableFarmerNodeIds[index] */\n      dup2\n      sload\n      dup2\n      lt\n      tag_311\n      jumpi\n      tag_312\n      tag_190\n      jump\t// in\n    tag_312:\n    tag_311:\n      swap1\n      0x00\n      mstore\n      keccak256(0x00, 0x20)\n      add\n        /* \"Cloudy-Blockchain/contracts/cloudy_contract.sol\":11883:11972  availableFarmerNodeIds[index] = availableFarmerNodeIds[availableFarmerNodeIds.length - 1] */\n      dup2\n      swap1\n      sstore\n      pop\n        /* \"Cloudy-Blockchain/contracts/cloudy_contract.sol\":11980:12002  availableFarmerNodeIds */\n      0x02\n        /* \"Cloudy-Blockchain/contracts/cloudy_contract.sol\":11980:12008  availableFarmerNodeIds.pop() */\n      dup1\n      sload\n      dup1\n      tag_314\n      jumpi\n      tag_315\n      tag_212\n      jump\t// in\n    tag_315:\n    tag_314:\n      0x01\n      swap1\n      sub\n      dup2\n      dup2\n      swap1\n      0x00\n      mstore\n      keccak256(0x00, 0x20)\n      add\n      0x00\n      swap1\n      sstore\n      swap1\n      sstore\n        /* \"Cloudy-Blockchain/contracts/cloudy_contract.sol\":12029:12051  FarmerRemoved(_nodeId) */\n      0x284d601f5edf187107debaa43ba7901585fb4c85926a0ff565798ac1f9030a3a\n        /* \"Cloudy-Blockchain/contracts/cloudy_contract.sol\":12043:12050  _nodeId */\n      dup3\n        /* \"Cloudy-Blockchain/contracts/cloudy_contract.sol\":12029:12051  FarmerRemoved(_nodeId) */\n      mload(0x40)\n      tag_317\n      swap2\n      swap1\n      tag_47\n      jump\t// in\n    tag_317:\n      mload(0x40)\n      dup1\n      swap2\n      sub\n      swap1\n      log1\n        /* \"Cloudy-Blockchain/contracts/cloudy_contract.sol\":11333:12058  {... */\n      pop\n        /* \"Cloudy-Blockchain/contracts/cloudy_contract.sol\":11281:12058  function removeStorageProvider(uint _nodeId) public {... */\n      pop\n      jump\t// out\n        /* \"Cloudy-Blockchain/contracts/cloudy_contract.sol\":12064:12352  function getStorageProviderNodeID(address _address) external view returns (uint) {... */\n    tag_97:\n        /* \"Cloudy-Blockchain/contracts/cloudy_contract.sol\":12139:12143  uint */\n      0x00\n        /* \"Cloudy-Blockchain/contracts/cloudy_contract.sol\":12158:12164  uint i */\n      dup1\n        /* \"Cloudy-Blockchain/contracts/cloudy_contract.sol\":12167:12168  0 */\n      0x00\n        /* \"Cloudy-Blockchain/contracts/cloudy_contract.sol\":12158:12168  uint i = 0 */\n      swap1\n      pop\n        /* \"Cloudy-Blockchain/contracts/cloudy_contract.sol\":12153:12329  for (uint i = 0; i < availableFarmers.length; i++) {... */\n    tag_319:\n        /* \"Cloudy-Blockchain/contracts/cloudy_contract.sol\":12174:12190  availableFarmers */\n      0x01\n        /* \"Cloudy-Blockchain/contracts/cloudy_contract.sol\":12174:12197  availableFarmers.length */\n      dup1\n      sload\n      swap1\n      pop\n        /* \"Cloudy-Blockchain/contracts/cloudy_contract.sol\":12170:12171  i */\n      dup2\n        /* \"Cloudy-Blockchain/contracts/cloudy_contract.sol\":12170:12197  i < availableFarmers.length */\n      lt\n        /* \"Cloudy-Blockchain/contracts/cloudy_contract.sol\":12153:12329  for (uint i = 0; i < availableFarmers.length; i++) {... */\n      iszero\n      tag_320\n      jumpi\n        /* \"Cloudy-Blockchain/contracts/cloudy_contract.sol\":12255:12263  _address */\n      dup3\n        /* \"Cloudy-Blockchain/contracts/cloudy_contract.sol\":12218:12263  availableFarmers[i].walletAddress == _address */\n      0xffffffffffffffffffffffffffffffffffffffff\n      and\n        /* \"Cloudy-Blockchain/contracts/cloudy_contract.sol\":12218:12234  availableFarmers */\n      0x01\n        /* \"Cloudy-Blockchain/contracts/cloudy_contract.sol\":12235:12236  i */\n      dup3\n        /* \"Cloudy-Blockchain/contracts/cloudy_contract.sol\":12218:12237  availableFarmers[i] */\n      dup2\n      sload\n      dup2\n      lt\n      tag_322\n      jumpi\n      tag_323\n      tag_190\n      jump\t// in\n    tag_323:\n    tag_322:\n      swap1\n      0x00\n      mstore\n      keccak256(0x00, 0x20)\n      swap1\n      0x05\n      mul\n      add\n        /* \"Cloudy-Blockchain/contracts/cloudy_contract.sol\":12218:12251  availableFarmers[i].walletAddress */\n      0x00\n      add\n      0x00\n      swap1\n      sload\n      swap1\n      0x0100\n      exp\n      swap1\n      div\n      0xffffffffffffffffffffffffffffffffffffffff\n      and\n        /* \"Cloudy-Blockchain/contracts/cloudy_contract.sol\":12218:12263  availableFarmers[i].walletAddress == _address */\n      0xffffffffffffffffffffffffffffffffffffffff\n      and\n      sub\n        /* \"Cloudy-Blockchain/contracts/cloudy_contract.sol\":12214:12321  if (availableFarmers[i].walletAddress == _address) {... */\n      tag_325\n      jumpi\n        /* \"Cloudy-Blockchain/contracts/cloudy_contract.sol\":12284:12300  availableFarmers */\n      0x01\n        /* \"Cloudy-Blockchain/contracts/cloudy_contract.sol\":12301:12302  i */\n      dup2\n        /* \"Cloudy-Blockchain/contracts/cloudy_contract.sol\":12284:12303  availableFarmers[i] */\n      dup2\n      sload\n      dup2\n      lt\n      tag_326\n      jumpi\n      tag_327\n      tag_190\n      jump\t// in\n    tag_327:\n    tag_326:\n      swap1\n      0x00\n      mstore\n      keccak256(0x00, 0x20)\n      swap1\n      0x05\n      mul\n      add\n        /* \"Cloudy-Blockchain/contracts/cloudy_contract.sol\":12284:12310  availableFarmers[i].nodeId */\n      0x01\n      add\n      sload\n        /* \"Cloudy-Blockchain/contracts/cloudy_contract.sol\":12277:12310  return availableFarmers[i].nodeId */\n      swap2\n      pop\n      pop\n      jump(tag_318)\n        /* \"Cloudy-Blockchain/contracts/cloudy_contract.sol\":12214:12321  if (availableFarmers[i].walletAddress == _address) {... */\n    tag_325:\n        /* \"Cloudy-Blockchain/contracts/cloudy_contract.sol\":12199:12202  i++ */\n      dup1\n      dup1\n      tag_329\n      swap1\n      tag_176\n      jump\t// in\n    tag_329:\n      swap2\n      pop\n      pop\n        /* \"Cloudy-Blockchain/contracts/cloudy_contract.sol\":12153:12329  for (uint i = 0; i < availableFarmers.length; i++) {... */\n      jump(tag_319)\n    tag_320:\n      pop\n        /* \"Cloudy-Blockchain/contracts/cloudy_contract.sol\":12344:12345  0 */\n      0x00\n        /* \"Cloudy-Blockchain/contracts/cloudy_contract.sol\":12337:12345  return 0 */\n      swap1\n      pop\n        /* \"Cloudy-Blockchain/contracts/cloudy_contract.sol\":12064:12352  function getStorageProviderNodeID(address _address) external view returns (uint) {... */\n    tag_318:\n      swap2\n      swap1\n      pop\n      jump\t// out\n        /* \"Cloudy-Blockchain/contracts/cloudy_contract.sol\":6739:6976  function setFileHashOwner(bytes20 fileHash, address owner) external {... */\n    tag_102:\n        /* \"Cloudy-Blockchain/contracts/cloudy_contract.sol\":6839:6854  fileHashToOwner */\n      0x07\n        /* \"Cloudy-Blockchain/contracts/cloudy_contract.sol\":6839:6864  fileHashToOwner[fileHash] */\n      0x00\n        /* \"Cloudy-Blockchain/contracts/cloudy_contract.sol\":6855:6863  fileHash */\n      dup4\n        /* \"Cloudy-Blockchain/contracts/cloudy_contract.sol\":6839:6864  fileHashToOwner[fileHash] */\n      not(0xffffffffffffffffffffffff)\n      and\n      not(0xffffffffffffffffffffffff)\n      and\n      dup2\n      mstore\n      0x20\n      add\n      swap1\n      dup2\n      mstore\n      0x20\n      add\n      0x00\n      keccak256\n      0x00\n      swap1\n      sload\n      swap1\n      0x0100\n      exp\n      swap1\n      div\n      0xffffffffffffffffffffffffffffffffffffffff\n      and\n        /* \"Cloudy-Blockchain/contracts/cloudy_contract.sol\":6825:6864  msg.sender == fileHashToOwner[fileHash] */\n      0xffffffffffffffffffffffffffffffffffffffff\n      and\n        /* \"Cloudy-Blockchain/contracts/cloudy_contract.sol\":6825:6835  msg.sender */\n      caller\n        /* \"Cloudy-Blockchain/contracts/cloudy_contract.sol\":6825:6864  msg.sender == fileHashToOwner[fileHash] */\n      0xffffffffffffffffffffffffffffffffffffffff\n      and\n      eq\n        /* \"Cloudy-Blockchain/contracts/cloudy_contract.sol\":6817:6926  require(msg.sender == fileHashToOwner[fileHash], \"Only the File Owner can give away ownership of their file\") */\n      tag_331\n      jumpi\n      mload(0x40)\n      0x08c379a000000000000000000000000000000000000000000000000000000000\n      dup2\n      mstore\n      0x04\n      add\n      tag_332\n      swap1\n      tag_333\n      jump\t// in\n    tag_332:\n      mload(0x40)\n      dup1\n      swap2\n      sub\n      swap1\n      revert\n    tag_331:\n        /* \"Cloudy-Blockchain/contracts/cloudy_contract.sol\":6964:6969  owner */\n      dup1\n        /* \"Cloudy-Blockchain/contracts/cloudy_contract.sol\":6936:6951  fileHashToOwner */\n      0x07\n        /* \"Cloudy-Blockchain/contracts/cloudy_contract.sol\":6936:6961  fileHashToOwner[fileHash] */\n      0x00\n        /* \"Cloudy-Blockchain/contracts/cloudy_contract.sol\":6952:6960  fileHash */\n      dup5\n        /* \"Cloudy-Blockchain/contracts/cloudy_contract.sol\":6936:6961  fileHashToOwner[fileHash] */\n      not(0xffffffffffffffffffffffff)\n      and\n      not(0xffffffffffffffffffffffff)\n      and\n      dup2\n      mstore\n      0x20\n      add\n      swap1\n      dup2\n      mstore\n      0x20\n      add\n      0x00\n      keccak256\n      0x00\n        /* \"Cloudy-Blockchain/contracts/cloudy_contract.sol\":6936:6969  fileHashToOwner[fileHash] = owner */\n      0x0100\n      exp\n      dup2\n      sload\n      dup2\n      0xffffffffffffffffffffffffffffffffffffffff\n      mul\n      not\n      and\n      swap1\n      dup4\n      0xffffffffffffffffffffffffffffffffffffffff\n      and\n      mul\n      or\n      swap1\n      sstore\n      pop\n        /* \"Cloudy-Blockchain/contracts/cloudy_contract.sol\":6739:6976  function setFileHashOwner(bytes20 fileHash, address owner) external {... */\n      pop\n      pop\n      jump\t// out\n        /* \"Cloudy-Blockchain/contracts/cloudy_contract.sol\":12358:13699  function addShardToStorageProvider(uint _shardId, uint _farmerNodeId) public onlyOwner {... */\n    tag_106:\n        /* \"Cloudy-Blockchain/.deps/ownable.sol\":1087:1100  _checkOwner() */\n      tag_335\n        /* \"Cloudy-Blockchain/.deps/ownable.sol\":1087:1098  _checkOwner */\n      tag_276\n        /* \"Cloudy-Blockchain/.deps/ownable.sol\":1087:1100  _checkOwner() */\n      jump\t// in\n    tag_335:\n        /* \"Cloudy-Blockchain/contracts/cloudy_contract.sol\":12502:12529  containsNode(_farmerNodeId) */\n      tag_337\n        /* \"Cloudy-Blockchain/contracts/cloudy_contract.sol\":12515:12528  _farmerNodeId */\n      dup2\n        /* \"Cloudy-Blockchain/contracts/cloudy_contract.sol\":12502:12514  containsNode */\n      tag_57\n        /* \"Cloudy-Blockchain/contracts/cloudy_contract.sol\":12502:12529  containsNode(_farmerNodeId) */\n      jump\t// in\n    tag_337:\n        /* \"Cloudy-Blockchain/contracts/cloudy_contract.sol\":12494:12557  require(containsNode(_farmerNodeId), \"Invalid farmer node ID.\") */\n      tag_338\n      jumpi\n      mload(0x40)\n      0x08c379a000000000000000000000000000000000000000000000000000000000\n      dup2\n      mstore\n      0x04\n      add\n      tag_339\n      swap1\n      tag_284\n      jump\t// in\n    tag_339:\n      mload(0x40)\n      dup1\n      swap2\n      sub\n      swap1\n      revert\n    tag_338:\n        /* \"Cloudy-Blockchain/contracts/cloudy_contract.sol\":12621:12642  Farmer storage farmer */\n      0x00\n        /* \"Cloudy-Blockchain/contracts/cloudy_contract.sol\":12645:12661  availableFarmers */\n      0x01\n        /* \"Cloudy-Blockchain/contracts/cloudy_contract.sol\":12662:12675  _farmerNodeId */\n      dup3\n        /* \"Cloudy-Blockchain/contracts/cloudy_contract.sol\":12645:12676  availableFarmers[_farmerNodeId] */\n      dup2\n      sload\n      dup2\n      lt\n      tag_340\n      jumpi\n      tag_341\n      tag_190\n      jump\t// in\n    tag_341:\n    tag_340:\n      swap1\n      0x00\n      mstore\n      keccak256(0x00, 0x20)\n      swap1\n      0x05\n      mul\n      add\n        /* \"Cloudy-Blockchain/contracts/cloudy_contract.sol\":12621:12676  Farmer storage farmer = availableFarmers[_farmerNodeId] */\n      swap1\n      pop\n        /* \"Cloudy-Blockchain/contracts/cloudy_contract.sol\":12721:12727  farmer */\n      dup1\n        /* \"Cloudy-Blockchain/contracts/cloudy_contract.sol\":12721:12742  farmer.maxStorageSize */\n      0x03\n      add\n      sload\n        /* \"Cloudy-Blockchain/contracts/cloudy_contract.sol\":12694:12700  farmer */\n      dup2\n        /* \"Cloudy-Blockchain/contracts/cloudy_contract.sol\":12694:12718  farmer.currentStoredSize */\n      0x02\n      add\n      sload\n        /* \"Cloudy-Blockchain/contracts/cloudy_contract.sol\":12694:12742  farmer.currentStoredSize < farmer.maxStorageSize */\n      lt\n        /* \"Cloudy-Blockchain/contracts/cloudy_contract.sol\":12686:12791  require(farmer.currentStoredSize < farmer.maxStorageSize, \"Farmer has reached maximum storage capacity.\") */\n      tag_343\n      jumpi\n      mload(0x40)\n      0x08c379a000000000000000000000000000000000000000000000000000000000\n      dup2\n      mstore\n      0x04\n      add\n      tag_344\n      swap1\n      tag_345\n      jump\t// in\n    tag_344:\n      mload(0x40)\n      dup1\n      swap2\n      sub\n      swap1\n      revert\n    tag_343:\n        /* \"Cloudy-Blockchain/contracts/cloudy_contract.sol\":12907:12908  0 */\n      0x00\n        /* \"Cloudy-Blockchain/contracts/cloudy_contract.sol\":12872:12893  shardIdtoFarmerNodeId */\n      0x0a\n        /* \"Cloudy-Blockchain/contracts/cloudy_contract.sol\":12872:12903  shardIdtoFarmerNodeId[_shardId] */\n      0x00\n        /* \"Cloudy-Blockchain/contracts/cloudy_contract.sol\":12894:12902  _shardId */\n      dup6\n        /* \"Cloudy-Blockchain/contracts/cloudy_contract.sol\":12872:12903  shardIdtoFarmerNodeId[_shardId] */\n      dup2\n      mstore\n      0x20\n      add\n      swap1\n      dup2\n      mstore\n      0x20\n      add\n      0x00\n      keccak256\n      sload\n        /* \"Cloudy-Blockchain/contracts/cloudy_contract.sol\":12872:12908  shardIdtoFarmerNodeId[_shardId] == 0 */\n      eq\n        /* \"Cloudy-Blockchain/contracts/cloudy_contract.sol\":12864:12951  require(shardIdtoFarmerNodeId[_shardId] == 0, \"Shard is already assigned to a farmer.\") */\n      tag_346\n      jumpi\n      mload(0x40)\n      0x08c379a000000000000000000000000000000000000000000000000000000000\n      dup2\n      mstore\n      0x04\n      add\n      tag_347\n      swap1\n      tag_348\n      jump\t// in\n    tag_347:\n      mload(0x40)\n      dup1\n      swap2\n      sub\n      swap1\n      revert\n    tag_346:\n        /* \"Cloudy-Blockchain/contracts/cloudy_contract.sol\":13038:13051  _farmerNodeId */\n      dup2\n        /* \"Cloudy-Blockchain/contracts/cloudy_contract.sol\":13004:13025  shardIdtoFarmerNodeId */\n      0x0a\n        /* \"Cloudy-Blockchain/contracts/cloudy_contract.sol\":13004:13035  shardIdtoFarmerNodeId[_shardId] */\n      0x00\n        /* \"Cloudy-Blockchain/contracts/cloudy_contract.sol\":13026:13034  _shardId */\n      dup6\n        /* \"Cloudy-Blockchain/contracts/cloudy_contract.sol\":13004:13035  shardIdtoFarmerNodeId[_shardId] */\n      dup2\n      mstore\n      0x20\n      add\n      swap1\n      dup2\n      mstore\n      0x20\n      add\n      0x00\n      keccak256\n        /* \"Cloudy-Blockchain/contracts/cloudy_contract.sol\":13004:13051  shardIdtoFarmerNodeId[_shardId] = _farmerNodeId */\n      dup2\n      swap1\n      sstore\n      pop\n        /* \"Cloudy-Blockchain/contracts/cloudy_contract.sol\":13110:13116  farmer */\n      dup1\n        /* \"Cloudy-Blockchain/contracts/cloudy_contract.sol\":13110:13134  farmer.currentStoredSize */\n      0x02\n      add\n      0x00\n        /* \"Cloudy-Blockchain/contracts/cloudy_contract.sol\":13110:13136  farmer.currentStoredSize++ */\n      dup2\n      sload\n      dup1\n      swap3\n      swap2\n      swap1\n      tag_349\n      swap1\n      tag_176\n      jump\t// in\n    tag_349:\n      swap2\n      swap1\n      pop\n      sstore\n      pop\n        /* \"Cloudy-Blockchain/contracts/cloudy_contract.sol\":13174:13212  ShardAssigned(_shardId, _farmerNodeId) */\n      0xdffeaa5e1aa86d24dcb11d6c9bf68b6e684aebaf31e88f0d03a30cf89858abd6\n        /* \"Cloudy-Blockchain/contracts/cloudy_contract.sol\":13188:13196  _shardId */\n      dup4\n        /* \"Cloudy-Blockchain/contracts/cloudy_contract.sol\":13198:13211  _farmerNodeId */\n      dup4\n        /* \"Cloudy-Blockchain/contracts/cloudy_contract.sol\":13174:13212  ShardAssigned(_shardId, _farmerNodeId) */\n      mload(0x40)\n      tag_350\n      swap3\n      swap2\n      swap1\n      tag_270\n      jump\t// in\n    tag_350:\n      mload(0x40)\n      dup1\n      swap2\n      sub\n      swap1\n      log1\n        /* \"Cloudy-Blockchain/contracts/cloudy_contract.sol\":12445:13699  {... */\n      pop\n        /* \"Cloudy-Blockchain/contracts/cloudy_contract.sol\":12358:13699  function addShardToStorageProvider(uint _shardId, uint _farmerNodeId) public onlyOwner {... */\n      pop\n      pop\n      jump\t// out\n        /* \"Cloudy-Blockchain/.deps/ownable.sol\":1194:1279  function owner() public view virtual returns (address) {... */\n    tag_108:\n        /* \"Cloudy-Blockchain/.deps/ownable.sol\":1240:1247  address */\n      0x00\n        /* \"Cloudy-Blockchain/.deps/ownable.sol\":1266:1272  _owner */\n      dup1\n      0x00\n      swap1\n      sload\n      swap1\n      0x0100\n      exp\n      swap1\n      div\n      0xffffffffffffffffffffffffffffffffffffffff\n      and\n        /* \"Cloudy-Blockchain/.deps/ownable.sol\":1259:1272  return _owner */\n      swap1\n      pop\n        /* \"Cloudy-Blockchain/.deps/ownable.sol\":1194:1279  function owner() public view virtual returns (address) {... */\n      swap1\n      jump\t// out\n        /* \"Cloudy-Blockchain/contracts/cloudy_contract.sol\":1184:1235  mapping (bytes20 => address) public fileHashToOwner */\n    tag_113:\n      mstore(0x20, 0x07)\n      dup1\n      0x00\n      mstore\n      keccak256(0x00, 0x40)\n      0x00\n      swap2\n      pop\n      sload\n      swap1\n      0x0100\n      exp\n      swap1\n      div\n      0xffffffffffffffffffffffffffffffffffffffff\n      and\n      dup2\n      jump\t// out\n        /* \"Cloudy-Blockchain/contracts/cloudy_contract.sol\":7254:7301  mapping (address => uint) public ownerFileCount */\n    tag_117:\n      mstore(0x20, 0x0f)\n      dup1\n      0x00\n      mstore\n      keccak256(0x00, 0x40)\n      0x00\n      swap2\n      pop\n      swap1\n      pop\n      sload\n      dup2\n      jump\t// out\n        /* \"Cloudy-Blockchain/contracts/cloudy_contract.sol\":15335:15808  function getFarmer(uint _nodeId) public view returns (address, uint, uint, uint, string memory) {... */\n    tag_121:\n        /* \"Cloudy-Blockchain/contracts/cloudy_contract.sol\":15389:15396  address */\n      0x00\n        /* \"Cloudy-Blockchain/contracts/cloudy_contract.sol\":15398:15402  uint */\n      dup1\n        /* \"Cloudy-Blockchain/contracts/cloudy_contract.sol\":15404:15408  uint */\n      0x00\n        /* \"Cloudy-Blockchain/contracts/cloudy_contract.sol\":15410:15414  uint */\n      dup1\n        /* \"Cloudy-Blockchain/contracts/cloudy_contract.sol\":15416:15429  string memory */\n      0x60\n        /* \"Cloudy-Blockchain/contracts/cloudy_contract.sol\":15497:15513  availableFarmers */\n      0x01\n        /* \"Cloudy-Blockchain/contracts/cloudy_contract.sol\":15497:15520  availableFarmers.length */\n      dup1\n      sload\n      swap1\n      pop\n        /* \"Cloudy-Blockchain/contracts/cloudy_contract.sol\":15487:15494  _nodeId */\n      dup7\n        /* \"Cloudy-Blockchain/contracts/cloudy_contract.sol\":15487:15520  _nodeId < availableFarmers.length */\n      lt\n        /* \"Cloudy-Blockchain/contracts/cloudy_contract.sol\":15479:15548  require(_nodeId < availableFarmers.length, \"Invalid farmer node ID.\") */\n      tag_353\n      jumpi\n      mload(0x40)\n      0x08c379a000000000000000000000000000000000000000000000000000000000\n      dup2\n      mstore\n      0x04\n      add\n      tag_354\n      swap1\n      tag_284\n      jump\t// in\n    tag_354:\n      mload(0x40)\n      dup1\n      swap2\n      sub\n      swap1\n      revert\n    tag_353:\n        /* \"Cloudy-Blockchain/contracts/cloudy_contract.sol\":15559:15580  Farmer storage farmer */\n      0x00\n        /* \"Cloudy-Blockchain/contracts/cloudy_contract.sol\":15583:15599  availableFarmers */\n      0x01\n        /* \"Cloudy-Blockchain/contracts/cloudy_contract.sol\":15600:15607  _nodeId */\n      dup8\n        /* \"Cloudy-Blockchain/contracts/cloudy_contract.sol\":15583:15608  availableFarmers[_nodeId] */\n      dup2\n      sload\n      dup2\n      lt\n      tag_355\n      jumpi\n      tag_356\n      tag_190\n      jump\t// in\n    tag_356:\n    tag_355:\n      swap1\n      0x00\n      mstore\n      keccak256(0x00, 0x20)\n      swap1\n      0x05\n      mul\n      add\n        /* \"Cloudy-Blockchain/contracts/cloudy_contract.sol\":15559:15608  Farmer storage farmer = availableFarmers[_nodeId] */\n      swap1\n      pop\n        /* \"Cloudy-Blockchain/contracts/cloudy_contract.sol\":15639:15645  farmer */\n      dup1\n        /* \"Cloudy-Blockchain/contracts/cloudy_contract.sol\":15639:15659  farmer.walletAddress */\n      0x00\n      add\n      0x00\n      swap1\n      sload\n      swap1\n      0x0100\n      exp\n      swap1\n      div\n      0xffffffffffffffffffffffffffffffffffffffff\n      and\n        /* \"Cloudy-Blockchain/contracts/cloudy_contract.sol\":15673:15679  farmer */\n      dup2\n        /* \"Cloudy-Blockchain/contracts/cloudy_contract.sol\":15673:15686  farmer.nodeId */\n      0x01\n      add\n      sload\n        /* \"Cloudy-Blockchain/contracts/cloudy_contract.sol\":15700:15706  farmer */\n      dup3\n        /* \"Cloudy-Blockchain/contracts/cloudy_contract.sol\":15700:15724  farmer.currentStoredSize */\n      0x02\n      add\n      sload\n        /* \"Cloudy-Blockchain/contracts/cloudy_contract.sol\":15738:15744  farmer */\n      dup4\n        /* \"Cloudy-Blockchain/contracts/cloudy_contract.sol\":15738:15759  farmer.maxStorageSize */\n      0x03\n      add\n      sload\n        /* \"Cloudy-Blockchain/contracts/cloudy_contract.sol\":15773:15779  farmer */\n      dup5\n        /* \"Cloudy-Blockchain/contracts/cloudy_contract.sol\":15773:15791  farmer.storageType */\n      0x04\n      add\n        /* \"Cloudy-Blockchain/contracts/cloudy_contract.sol\":15618:15801  return (... */\n      dup1\n      dup1\n      sload\n      tag_358\n      swap1\n      tag_228\n      jump\t// in\n    tag_358:\n      dup1\n      0x1f\n      add\n      0x20\n      dup1\n      swap2\n      div\n      mul\n      0x20\n      add\n      mload(0x40)\n      swap1\n      dup2\n      add\n      0x40\n      mstore\n      dup1\n      swap3\n      swap2\n      swap1\n      dup2\n      dup2\n      mstore\n      0x20\n      add\n      dup3\n      dup1\n      sload\n      tag_359\n      swap1\n      tag_228\n      jump\t// in\n    tag_359:\n      dup1\n      iszero\n      tag_360\n      jumpi\n      dup1\n      0x1f\n      lt\n      tag_361\n      jumpi\n      0x0100\n      dup1\n      dup4\n      sload\n      div\n      mul\n      dup4\n      mstore\n      swap2\n      0x20\n      add\n      swap2\n      jump(tag_360)\n    tag_361:\n      dup3\n      add\n      swap2\n      swap1\n      0x00\n      mstore\n      keccak256(0x00, 0x20)\n      swap1\n    tag_362:\n      dup2\n      sload\n      dup2\n      mstore\n      swap1\n      0x01\n      add\n      swap1\n      0x20\n      add\n      dup1\n      dup4\n      gt\n      tag_362\n      jumpi\n      dup3\n      swap1\n      sub\n      0x1f\n      and\n      dup3\n      add\n      swap2\n    tag_360:\n      pop\n      pop\n      pop\n      pop\n      pop\n      swap1\n      pop\n      swap6\n      pop\n      swap6\n      pop\n      swap6\n      pop\n      swap6\n      pop\n      swap6\n      pop\n      pop\n        /* \"Cloudy-Blockchain/contracts/cloudy_contract.sol\":15335:15808  function getFarmer(uint _nodeId) public view returns (address, uint, uint, uint, string memory) {... */\n      swap2\n      swap4\n      swap6\n      swap1\n      swap3\n      swap5\n      pop\n      jump\t// out\n        /* \"Cloudy-Blockchain/contracts/cloudy_contract.sol\":15001:15128  function getFarmerIdFromShardId(uint _shardId) public view returns (uint) {... */\n    tag_126:\n        /* \"Cloudy-Blockchain/contracts/cloudy_contract.sol\":15069:15073  uint */\n      0x00\n        /* \"Cloudy-Blockchain/contracts/cloudy_contract.sol\":15090:15111  shardIdtoFarmerNodeId */\n      0x0a\n        /* \"Cloudy-Blockchain/contracts/cloudy_contract.sol\":15090:15121  shardIdtoFarmerNodeId[_shardId] */\n      0x00\n        /* \"Cloudy-Blockchain/contracts/cloudy_contract.sol\":15112:15120  _shardId */\n      dup4\n        /* \"Cloudy-Blockchain/contracts/cloudy_contract.sol\":15090:15121  shardIdtoFarmerNodeId[_shardId] */\n      dup2\n      mstore\n      0x20\n      add\n      swap1\n      dup2\n      mstore\n      0x20\n      add\n      0x00\n      keccak256\n      sload\n        /* \"Cloudy-Blockchain/contracts/cloudy_contract.sol\":15083:15121  return shardIdtoFarmerNodeId[_shardId] */\n      swap1\n      pop\n        /* \"Cloudy-Blockchain/contracts/cloudy_contract.sol\":15001:15128  function getFarmerIdFromShardId(uint _shardId) public view returns (uint) {... */\n      swap2\n      swap1\n      pop\n      jump\t// out\n        /* \"Cloudy-Blockchain/contracts/cloudy_contract.sol\":15229:15329  function getFarmerCount() public view returns (uint) {... */\n    tag_129:\n        /* \"Cloudy-Blockchain/contracts/cloudy_contract.sol\":15276:15280  uint */\n      0x00\n        /* \"Cloudy-Blockchain/contracts/cloudy_contract.sol\":15299:15315  availableFarmers */\n      0x01\n        /* \"Cloudy-Blockchain/contracts/cloudy_contract.sol\":15299:15322  availableFarmers.length */\n      dup1\n      sload\n      swap1\n      pop\n        /* \"Cloudy-Blockchain/contracts/cloudy_contract.sol\":15292:15322  return availableFarmers.length */\n      swap1\n      pop\n        /* \"Cloudy-Blockchain/contracts/cloudy_contract.sol\":15229:15329  function getFarmerCount() public view returns (uint) {... */\n      swap1\n      jump\t// out\n        /* \"Cloudy-Blockchain/contracts/cloudy_contract.sol\":7053:7195  function hasConsent(bytes20 _fileHash, address caller) public view returns (bool) {... */\n    tag_133:\n        /* \"Cloudy-Blockchain/contracts/cloudy_contract.sol\":7129:7133  bool */\n      0x00\n        /* \"Cloudy-Blockchain/contracts/cloudy_contract.sol\":7182:7188  caller */\n      dup2\n        /* \"Cloudy-Blockchain/contracts/cloudy_contract.sol\":7152:7188  fileHashToOwner[_fileHash] == caller */\n      0xffffffffffffffffffffffffffffffffffffffff\n      and\n        /* \"Cloudy-Blockchain/contracts/cloudy_contract.sol\":7152:7167  fileHashToOwner */\n      0x07\n        /* \"Cloudy-Blockchain/contracts/cloudy_contract.sol\":7152:7178  fileHashToOwner[_fileHash] */\n      0x00\n        /* \"Cloudy-Blockchain/contracts/cloudy_contract.sol\":7168:7177  _fileHash */\n      dup6\n        /* \"Cloudy-Blockchain/contracts/cloudy_contract.sol\":7152:7178  fileHashToOwner[_fileHash] */\n      not(0xffffffffffffffffffffffff)\n      and\n      not(0xffffffffffffffffffffffff)\n      and\n      dup2\n      mstore\n      0x20\n      add\n      swap1\n      dup2\n      mstore\n      0x20\n      add\n      0x00\n      keccak256\n      0x00\n      swap1\n      sload\n      swap1\n      0x0100\n      exp\n      swap1\n      div\n      0xffffffffffffffffffffffffffffffffffffffff\n      and\n        /* \"Cloudy-Blockchain/contracts/cloudy_contract.sol\":7152:7188  fileHashToOwner[_fileHash] == caller */\n      0xffffffffffffffffffffffffffffffffffffffff\n      and\n      eq\n        /* \"Cloudy-Blockchain/contracts/cloudy_contract.sol\":7145:7188  return fileHashToOwner[_fileHash] == caller */\n      swap1\n      pop\n        /* \"Cloudy-Blockchain/contracts/cloudy_contract.sol\":7053:7195  function hasConsent(bytes20 _fileHash, address caller) public view returns (bool) {... */\n      swap3\n      swap2\n      pop\n      pop\n      jump\t// out\n        /* \"Cloudy-Blockchain/contracts/cloudy_contract.sol\":13705:14764  function removeShardFromStorageProvider(uint _shardId, uint _farmerNodeId) public onlyOwner {... */\n    tag_137:\n        /* \"Cloudy-Blockchain/.deps/ownable.sol\":1087:1100  _checkOwner() */\n      tag_367\n        /* \"Cloudy-Blockchain/.deps/ownable.sol\":1087:1098  _checkOwner */\n      tag_276\n        /* \"Cloudy-Blockchain/.deps/ownable.sol\":1087:1100  _checkOwner() */\n      jump\t// in\n    tag_367:\n        /* \"Cloudy-Blockchain/contracts/cloudy_contract.sol\":13854:13881  containsNode(_farmerNodeId) */\n      tag_369\n        /* \"Cloudy-Blockchain/contracts/cloudy_contract.sol\":13867:13880  _farmerNodeId */\n      dup2\n        /* \"Cloudy-Blockchain/contracts/cloudy_contract.sol\":13854:13866  containsNode */\n      tag_57\n        /* \"Cloudy-Blockchain/contracts/cloudy_contract.sol\":13854:13881  containsNode(_farmerNodeId) */\n      jump\t// in\n    tag_369:\n        /* \"Cloudy-Blockchain/contracts/cloudy_contract.sol\":13846:13909  require(containsNode(_farmerNodeId), \"Invalid farmer node ID.\") */\n      tag_370\n      jumpi\n      mload(0x40)\n      0x08c379a000000000000000000000000000000000000000000000000000000000\n      dup2\n      mstore\n      0x04\n      add\n      tag_371\n      swap1\n      tag_284\n      jump\t// in\n    tag_371:\n      mload(0x40)\n      dup1\n      swap2\n      sub\n      swap1\n      revert\n    tag_370:\n        /* \"Cloudy-Blockchain/contracts/cloudy_contract.sol\":14025:14038  _farmerNodeId */\n      dup1\n        /* \"Cloudy-Blockchain/contracts/cloudy_contract.sol\":13990:14011  shardIdtoFarmerNodeId */\n      0x0a\n        /* \"Cloudy-Blockchain/contracts/cloudy_contract.sol\":13990:14021  shardIdtoFarmerNodeId[_shardId] */\n      0x00\n        /* \"Cloudy-Blockchain/contracts/cloudy_contract.sol\":14012:14020  _shardId */\n      dup5\n        /* \"Cloudy-Blockchain/contracts/cloudy_contract.sol\":13990:14021  shardIdtoFarmerNodeId[_shardId] */\n      dup2\n      mstore\n      0x20\n      add\n      swap1\n      dup2\n      mstore\n      0x20\n      add\n      0x00\n      keccak256\n      sload\n        /* \"Cloudy-Blockchain/contracts/cloudy_contract.sol\":13990:14038  shardIdtoFarmerNodeId[_shardId] == _farmerNodeId */\n      eq\n        /* \"Cloudy-Blockchain/contracts/cloudy_contract.sol\":13982:14089  require(shardIdtoFarmerNodeId[_shardId] == _farmerNodeId, \"Shard is not assigned to the specified farmer.\") */\n      tag_372\n      jumpi\n      mload(0x40)\n      0x08c379a000000000000000000000000000000000000000000000000000000000\n      dup2\n      mstore\n      0x04\n      add\n      tag_373\n      swap1\n      tag_374\n      jump\t// in\n    tag_373:\n      mload(0x40)\n      dup1\n      swap2\n      sub\n      swap1\n      revert\n    tag_372:\n        /* \"Cloudy-Blockchain/contracts/cloudy_contract.sol\":14151:14172  shardIdtoFarmerNodeId */\n      0x0a\n        /* \"Cloudy-Blockchain/contracts/cloudy_contract.sol\":14151:14182  shardIdtoFarmerNodeId[_shardId] */\n      0x00\n        /* \"Cloudy-Blockchain/contracts/cloudy_contract.sol\":14173:14181  _shardId */\n      dup4\n        /* \"Cloudy-Blockchain/contracts/cloudy_contract.sol\":14151:14182  shardIdtoFarmerNodeId[_shardId] */\n      dup2\n      mstore\n      0x20\n      add\n      swap1\n      dup2\n      mstore\n      0x20\n      add\n      0x00\n      keccak256\n        /* \"Cloudy-Blockchain/contracts/cloudy_contract.sol\":14144:14182  delete shardIdtoFarmerNodeId[_shardId] */\n      0x00\n      swap1\n      sstore\n        /* \"Cloudy-Blockchain/contracts/cloudy_contract.sol\":14241:14262  Farmer storage farmer */\n      0x00\n        /* \"Cloudy-Blockchain/contracts/cloudy_contract.sol\":14265:14281  availableFarmers */\n      0x01\n        /* \"Cloudy-Blockchain/contracts/cloudy_contract.sol\":14282:14295  _farmerNodeId */\n      dup3\n        /* \"Cloudy-Blockchain/contracts/cloudy_contract.sol\":14265:14296  availableFarmers[_farmerNodeId] */\n      dup2\n      sload\n      dup2\n      lt\n      tag_375\n      jumpi\n      tag_376\n      tag_190\n      jump\t// in\n    tag_376:\n    tag_375:\n      swap1\n      0x00\n      mstore\n      keccak256(0x00, 0x20)\n      swap1\n      0x05\n      mul\n      add\n        /* \"Cloudy-Blockchain/contracts/cloudy_contract.sol\":14241:14296  Farmer storage farmer = availableFarmers[_farmerNodeId] */\n      swap1\n      pop\n        /* \"Cloudy-Blockchain/contracts/cloudy_contract.sol\":14306:14312  farmer */\n      dup1\n        /* \"Cloudy-Blockchain/contracts/cloudy_contract.sol\":14306:14330  farmer.currentStoredSize */\n      0x02\n      add\n      0x00\n        /* \"Cloudy-Blockchain/contracts/cloudy_contract.sol\":14306:14332  farmer.currentStoredSize-- */\n      dup2\n      sload\n      dup1\n      swap3\n      swap2\n      swap1\n      tag_378\n      swap1\n      tag_215\n      jump\t// in\n    tag_378:\n      swap2\n      swap1\n      pop\n      sstore\n      pop\n        /* \"Cloudy-Blockchain/contracts/cloudy_contract.sol\":14370:14407  ShardDeleted(_shardId, _farmerNodeId) */\n      0x236ef25c59db1c092b5a1df6c8523bd8028b948a5943cfac940c3169845dfb6a\n        /* \"Cloudy-Blockchain/contracts/cloudy_contract.sol\":14383:14391  _shardId */\n      dup4\n        /* \"Cloudy-Blockchain/contracts/cloudy_contract.sol\":14393:14406  _farmerNodeId */\n      dup4\n        /* \"Cloudy-Blockchain/contracts/cloudy_contract.sol\":14370:14407  ShardDeleted(_shardId, _farmerNodeId) */\n      mload(0x40)\n      tag_379\n      swap3\n      swap2\n      swap1\n      tag_270\n      jump\t// in\n    tag_379:\n      mload(0x40)\n      dup1\n      swap2\n      sub\n      swap1\n      log1\n        /* \"Cloudy-Blockchain/contracts/cloudy_contract.sol\":13797:14764  {... */\n      pop\n        /* \"Cloudy-Blockchain/contracts/cloudy_contract.sol\":13705:14764  function removeShardFromStorageProvider(uint _shardId, uint _farmerNodeId) public onlyOwner {... */\n      pop\n      pop\n      jump\t// out\n        /* \"Cloudy-Blockchain/contracts/cloudy_contract.sol\":6441:6680  function getShardsInFile_Count(bytes20 fileHash) external view returns (uint) {... */\n    tag_140:\n        /* \"Cloudy-Blockchain/contracts/cloudy_contract.sol\":6513:6517  uint */\n      0x00\n        /* \"Cloudy-Blockchain/contracts/cloudy_contract.sol\":6551:6566  fileHashToOwner */\n      0x07\n        /* \"Cloudy-Blockchain/contracts/cloudy_contract.sol\":6551:6576  fileHashToOwner[fileHash] */\n      0x00\n        /* \"Cloudy-Blockchain/contracts/cloudy_contract.sol\":6567:6575  fileHash */\n      dup4\n        /* \"Cloudy-Blockchain/contracts/cloudy_contract.sol\":6551:6576  fileHashToOwner[fileHash] */\n      not(0xffffffffffffffffffffffff)\n      and\n      not(0xffffffffffffffffffffffff)\n      and\n      dup2\n      mstore\n      0x20\n      add\n      swap1\n      dup2\n      mstore\n      0x20\n      add\n      0x00\n      keccak256\n      0x00\n      swap1\n      sload\n      swap1\n      0x0100\n      exp\n      swap1\n      div\n      0xffffffffffffffffffffffffffffffffffffffff\n      and\n        /* \"Cloudy-Blockchain/contracts/cloudy_contract.sol\":6537:6576  msg.sender == fileHashToOwner[fileHash] */\n      0xffffffffffffffffffffffffffffffffffffffff\n      and\n        /* \"Cloudy-Blockchain/contracts/cloudy_contract.sol\":6537:6547  msg.sender */\n      caller\n        /* \"Cloudy-Blockchain/contracts/cloudy_contract.sol\":6537:6576  msg.sender == fileHashToOwner[fileHash] */\n      0xffffffffffffffffffffffffffffffffffffffff\n      and\n      eq\n        /* \"Cloudy-Blockchain/contracts/cloudy_contract.sol\":6529:6627  require(msg.sender == fileHashToOwner[fileHash], \"Only the File Owner can check number of shards\") */\n      tag_381\n      jumpi\n      mload(0x40)\n      0x08c379a000000000000000000000000000000000000000000000000000000000\n      dup2\n      mstore\n      0x04\n      add\n      tag_382\n      swap1\n      tag_383\n      jump\t// in\n    tag_382:\n      mload(0x40)\n      dup1\n      swap2\n      sub\n      swap1\n      revert\n    tag_381:\n        /* \"Cloudy-Blockchain/contracts/cloudy_contract.sol\":6645:6663  shardsInFile_Count */\n      0x10\n        /* \"Cloudy-Blockchain/contracts/cloudy_contract.sol\":6645:6673  shardsInFile_Count[fileHash] */\n      0x00\n        /* \"Cloudy-Blockchain/contracts/cloudy_contract.sol\":6664:6672  fileHash */\n      dup4\n        /* \"Cloudy-Blockchain/contracts/cloudy_contract.sol\":6645:6673  shardsInFile_Count[fileHash] */\n      not(0xffffffffffffffffffffffff)\n      and\n      not(0xffffffffffffffffffffffff)\n      and\n      dup2\n      mstore\n      0x20\n      add\n      swap1\n      dup2\n      mstore\n      0x20\n      add\n      0x00\n      keccak256\n      sload\n        /* \"Cloudy-Blockchain/contracts/cloudy_contract.sol\":6638:6673  return shardsInFile_Count[fileHash] */\n      swap1\n      pop\n        /* \"Cloudy-Blockchain/contracts/cloudy_contract.sol\":6441:6680  function getShardsInFile_Count(bytes20 fileHash) external view returns (uint) {... */\n      swap2\n      swap1\n      pop\n      jump\t// out\n        /* \"Cloudy-Blockchain/contracts/cloudy_contract.sol\":7597:8316  function getMyFilehashes() external view returns (bytes20[] memory) {... */\n    tag_143:\n        /* \"Cloudy-Blockchain/contracts/cloudy_contract.sol\":7647:7663  bytes20[] memory */\n      0x60\n        /* \"Cloudy-Blockchain/contracts/cloudy_contract.sol\":7803:7835  bytes20[] memory ownerFilehashes */\n      0x00\n        /* \"Cloudy-Blockchain/contracts/cloudy_contract.sol\":7852:7866  ownerFileCount */\n      0x0f\n        /* \"Cloudy-Blockchain/contracts/cloudy_contract.sol\":7852:7878  ownerFileCount[msg.sender] */\n      0x00\n        /* \"Cloudy-Blockchain/contracts/cloudy_contract.sol\":7867:7877  msg.sender */\n      caller\n        /* \"Cloudy-Blockchain/contracts/cloudy_contract.sol\":7852:7878  ownerFileCount[msg.sender] */\n      0xffffffffffffffffffffffffffffffffffffffff\n      and\n      0xffffffffffffffffffffffffffffffffffffffff\n      and\n      dup2\n      mstore\n      0x20\n      add\n      swap1\n      dup2\n      mstore\n      0x20\n      add\n      0x00\n      keccak256\n      sload\n        /* \"Cloudy-Blockchain/contracts/cloudy_contract.sol\":7838:7879  new bytes20[](ownerFileCount[msg.sender]) */\n      0xffffffffffffffff\n      dup2\n      gt\n      iszero\n      tag_385\n      jumpi\n      tag_386\n      tag_387\n      jump\t// in\n    tag_386:\n    tag_385:\n      mload(0x40)\n      swap1\n      dup1\n      dup3\n      mstore\n      dup1\n      0x20\n      mul\n      0x20\n      add\n      dup3\n      add\n      0x40\n      mstore\n      dup1\n      iszero\n      tag_388\n      jumpi\n      dup2\n      0x20\n      add\n      0x20\n      dup3\n      mul\n      dup1\n      calldatasize\n      dup4\n      calldatacopy\n      dup1\n      dup3\n      add\n      swap2\n      pop\n      pop\n      swap1\n      pop\n    tag_388:\n      pop\n        /* \"Cloudy-Blockchain/contracts/cloudy_contract.sol\":7803:7879  bytes20[] memory ownerFilehashes = new bytes20[](ownerFileCount[msg.sender]) */\n      swap1\n      pop\n        /* \"Cloudy-Blockchain/contracts/cloudy_contract.sol\":7890:7902  uint counter */\n      0x00\n        /* \"Cloudy-Blockchain/contracts/cloudy_contract.sol\":7965:7971  uint i */\n      dup1\n        /* \"Cloudy-Blockchain/contracts/cloudy_contract.sol\":7960:8280  for (uint i = 0; i < fileHashes.length; i++) {... */\n    tag_389:\n        /* \"Cloudy-Blockchain/contracts/cloudy_contract.sol\":7981:7991  fileHashes */\n      0x06\n        /* \"Cloudy-Blockchain/contracts/cloudy_contract.sol\":7981:7998  fileHashes.length */\n      dup1\n      sload\n      swap1\n      pop\n        /* \"Cloudy-Blockchain/contracts/cloudy_contract.sol\":7977:7978  i */\n      dup2\n        /* \"Cloudy-Blockchain/contracts/cloudy_contract.sol\":7977:7998  i < fileHashes.length */\n      lt\n        /* \"Cloudy-Blockchain/contracts/cloudy_contract.sol\":7960:8280  for (uint i = 0; i < fileHashes.length; i++) {... */\n      iszero\n      tag_390\n      jumpi\n        /* \"Cloudy-Blockchain/contracts/cloudy_contract.sol\":8114:8124  msg.sender */\n      caller\n        /* \"Cloudy-Blockchain/contracts/cloudy_contract.sol\":8080:8124  fileHashToOwner[fileHashes[i]] == msg.sender */\n      0xffffffffffffffffffffffffffffffffffffffff\n      and\n        /* \"Cloudy-Blockchain/contracts/cloudy_contract.sol\":8080:8095  fileHashToOwner */\n      0x07\n        /* \"Cloudy-Blockchain/contracts/cloudy_contract.sol\":8080:8110  fileHashToOwner[fileHashes[i]] */\n      0x00\n        /* \"Cloudy-Blockchain/contracts/cloudy_contract.sol\":8096:8106  fileHashes */\n      0x06\n        /* \"Cloudy-Blockchain/contracts/cloudy_contract.sol\":8107:8108  i */\n      dup5\n        /* \"Cloudy-Blockchain/contracts/cloudy_contract.sol\":8096:8109  fileHashes[i] */\n      dup2\n      sload\n      dup2\n      lt\n      tag_392\n      jumpi\n      tag_393\n      tag_190\n      jump\t// in\n    tag_393:\n    tag_392:\n      swap1\n      0x00\n      mstore\n      keccak256(0x00, 0x20)\n      add\n      0x00\n      swap1\n      sload\n      swap1\n      0x0100\n      exp\n      swap1\n      div\n      0x60\n      shl\n        /* \"Cloudy-Blockchain/contracts/cloudy_contract.sol\":8080:8110  fileHashToOwner[fileHashes[i]] */\n      not(0xffffffffffffffffffffffff)\n      and\n      not(0xffffffffffffffffffffffff)\n      and\n      dup2\n      mstore\n      0x20\n      add\n      swap1\n      dup2\n      mstore\n      0x20\n      add\n      0x00\n      keccak256\n      0x00\n      swap1\n      sload\n      swap1\n      0x0100\n      exp\n      swap1\n      div\n      0xffffffffffffffffffffffffffffffffffffffff\n      and\n        /* \"Cloudy-Blockchain/contracts/cloudy_contract.sol\":8080:8124  fileHashToOwner[fileHashes[i]] == msg.sender */\n      0xffffffffffffffffffffffffffffffffffffffff\n      and\n      sub\n        /* \"Cloudy-Blockchain/contracts/cloudy_contract.sol\":8076:8270  if (fileHashToOwner[fileHashes[i]] == msg.sender) {... */\n      tag_395\n      jumpi\n        /* \"Cloudy-Blockchain/contracts/cloudy_contract.sol\":8221:8231  fileHashes */\n      0x06\n        /* \"Cloudy-Blockchain/contracts/cloudy_contract.sol\":8232:8233  i */\n      dup2\n        /* \"Cloudy-Blockchain/contracts/cloudy_contract.sol\":8221:8234  fileHashes[i] */\n      dup2\n      sload\n      dup2\n      lt\n      tag_396\n      jumpi\n      tag_397\n      tag_190\n      jump\t// in\n    tag_397:\n    tag_396:\n      swap1\n      0x00\n      mstore\n      keccak256(0x00, 0x20)\n      add\n      0x00\n      swap1\n      sload\n      swap1\n      0x0100\n      exp\n      swap1\n      div\n      0x60\n      shl\n        /* \"Cloudy-Blockchain/contracts/cloudy_contract.sol\":8194:8209  ownerFilehashes */\n      dup4\n        /* \"Cloudy-Blockchain/contracts/cloudy_contract.sol\":8210:8217  counter */\n      dup4\n        /* \"Cloudy-Blockchain/contracts/cloudy_contract.sol\":8194:8218  ownerFilehashes[counter] */\n      dup2\n      mload\n      dup2\n      lt\n      tag_399\n      jumpi\n      tag_400\n      tag_190\n      jump\t// in\n    tag_400:\n    tag_399:\n      0x20\n      mul\n      0x20\n      add\n      add\n        /* \"Cloudy-Blockchain/contracts/cloudy_contract.sol\":8194:8234  ownerFilehashes[counter] = fileHashes[i] */\n      swap1\n      not(0xffffffffffffffffffffffff)\n      and\n      swap1\n      dup2\n      not(0xffffffffffffffffffffffff)\n      and\n      dup2\n      mstore\n      pop\n      pop\n        /* \"Cloudy-Blockchain/contracts/cloudy_contract.sol\":8248:8257  counter++ */\n      dup2\n      dup1\n      tag_401\n      swap1\n      tag_176\n      jump\t// in\n    tag_401:\n      swap3\n      pop\n      pop\n        /* \"Cloudy-Blockchain/contracts/cloudy_contract.sol\":8076:8270  if (fileHashToOwner[fileHashes[i]] == msg.sender) {... */\n    tag_395:\n        /* \"Cloudy-Blockchain/contracts/cloudy_contract.sol\":8000:8003  i++ */\n      dup1\n      dup1\n      tag_402\n      swap1\n      tag_176\n      jump\t// in\n    tag_402:\n      swap2\n      pop\n      pop\n        /* \"Cloudy-Blockchain/contracts/cloudy_contract.sol\":7960:8280  for (uint i = 0; i < fileHashes.length; i++) {... */\n      jump(tag_389)\n    tag_390:\n      pop\n        /* \"Cloudy-Blockchain/contracts/cloudy_contract.sol\":8294:8309  ownerFilehashes */\n      dup2\n        /* \"Cloudy-Blockchain/contracts/cloudy_contract.sol\":8287:8309  return ownerFilehashes */\n      swap3\n      pop\n      pop\n      pop\n        /* \"Cloudy-Blockchain/contracts/cloudy_contract.sol\":7597:8316  function getMyFilehashes() external view returns (bytes20[] memory) {... */\n      swap1\n      jump\t// out\n        /* \"Cloudy-Blockchain/.deps/ownable.sol\":2067:2265  function transferOwnership(address newOwner) public virtual onlyOwner {... */\n    tag_148:\n        /* \"Cloudy-Blockchain/.deps/ownable.sol\":1087:1100  _checkOwner() */\n      tag_404\n        /* \"Cloudy-Blockchain/.deps/ownable.sol\":1087:1098  _checkOwner */\n      tag_276\n        /* \"Cloudy-Blockchain/.deps/ownable.sol\":1087:1100  _checkOwner() */\n      jump\t// in\n    tag_404:\n        /* \"Cloudy-Blockchain/.deps/ownable.sol\":2175:2176  0 */\n      0x00\n        /* \"Cloudy-Blockchain/.deps/ownable.sol\":2155:2177  newOwner != address(0) */\n      0xffffffffffffffffffffffffffffffffffffffff\n      and\n        /* \"Cloudy-Blockchain/.deps/ownable.sol\":2155:2163  newOwner */\n      dup2\n        /* \"Cloudy-Blockchain/.deps/ownable.sol\":2155:2177  newOwner != address(0) */\n      0xffffffffffffffffffffffffffffffffffffffff\n      and\n      sub\n        /* \"Cloudy-Blockchain/.deps/ownable.sol\":2147:2220  require(newOwner != address(0), \"Ownable: new owner is the zero address\") */\n      tag_406\n      jumpi\n      mload(0x40)\n      0x08c379a000000000000000000000000000000000000000000000000000000000\n      dup2\n      mstore\n      0x04\n      add\n      tag_407\n      swap1\n      tag_408\n      jump\t// in\n    tag_407:\n      mload(0x40)\n      dup1\n      swap2\n      sub\n      swap1\n      revert\n    tag_406:\n        /* \"Cloudy-Blockchain/.deps/ownable.sol\":2230:2258  _transferOwnership(newOwner) */\n      tag_409\n        /* \"Cloudy-Blockchain/.deps/ownable.sol\":2249:2257  newOwner */\n      dup2\n        /* \"Cloudy-Blockchain/.deps/ownable.sol\":2230:2248  _transferOwnership */\n      tag_279\n        /* \"Cloudy-Blockchain/.deps/ownable.sol\":2230:2258  _transferOwnership(newOwner) */\n      jump\t// in\n    tag_409:\n        /* \"Cloudy-Blockchain/.deps/ownable.sol\":2067:2265  function transferOwnership(address newOwner) public virtual onlyOwner {... */\n      pop\n      jump\t// out\n        /* \"Cloudy-Blockchain/contracts/cloudy_contract.sol\":3331:3894  function checkFileHash(bytes20 _filehash) internal view returns (uint) {... */\n    tag_196:\n        /* \"Cloudy-Blockchain/contracts/cloudy_contract.sol\":3396:3400  uint */\n      0x00\n        /* \"Cloudy-Blockchain/contracts/cloudy_contract.sol\":3886:3887  1 */\n      0x01\n        /* \"Cloudy-Blockchain/contracts/cloudy_contract.sol\":3879:3887  return 1 */\n      swap1\n      pop\n        /* \"Cloudy-Blockchain/contracts/cloudy_contract.sol\":3331:3894  function checkFileHash(bytes20 _filehash) internal view returns (uint) {... */\n      swap2\n      swap1\n      pop\n      jump\t// out\n        /* \"Cloudy-Blockchain/.deps/ownable.sol\":1352:1482  function _checkOwner() internal view virtual {... */\n    tag_276:\n        /* \"Cloudy-Blockchain/.deps/ownable.sol\":1426:1438  _msgSender() */\n      tag_412\n        /* \"Cloudy-Blockchain/.deps/ownable.sol\":1426:1436  _msgSender */\n      tag_413\n        /* \"Cloudy-Blockchain/.deps/ownable.sol\":1426:1438  _msgSender() */\n      jump\t// in\n    tag_412:\n        /* \"Cloudy-Blockchain/.deps/ownable.sol\":1415:1438  owner() == _msgSender() */\n      0xffffffffffffffffffffffffffffffffffffffff\n      and\n        /* \"Cloudy-Blockchain/.deps/ownable.sol\":1415:1422  owner() */\n      tag_414\n        /* \"Cloudy-Blockchain/.deps/ownable.sol\":1415:1420  owner */\n      tag_108\n        /* \"Cloudy-Blockchain/.deps/ownable.sol\":1415:1422  owner() */\n      jump\t// in\n    tag_414:\n        /* \"Cloudy-Blockchain/.deps/ownable.sol\":1415:1438  owner() == _msgSender() */\n      0xffffffffffffffffffffffffffffffffffffffff\n      and\n      eq\n        /* \"Cloudy-Blockchain/.deps/ownable.sol\":1407:1475  require(owner() == _msgSender(), \"Ownable: caller is not the owner\") */\n      tag_415\n      jumpi\n      mload(0x40)\n      0x08c379a000000000000000000000000000000000000000000000000000000000\n      dup2\n      mstore\n      0x04\n      add\n      tag_416\n      swap1\n      tag_417\n      jump\t// in\n    tag_416:\n      mload(0x40)\n      dup1\n      swap2\n      sub\n      swap1\n      revert\n    tag_415:\n        /* \"Cloudy-Blockchain/.deps/ownable.sol\":1352:1482  function _checkOwner() internal view virtual {... */\n      jump\t// out\n        /* \"Cloudy-Blockchain/.deps/ownable.sol\":2419:2606  function _transferOwnership(address newOwner) internal virtual {... */\n    tag_279:\n        /* \"Cloudy-Blockchain/.deps/ownable.sol\":2492:2508  address oldOwner */\n      0x00\n        /* \"Cloudy-Blockchain/.deps/ownable.sol\":2511:2517  _owner */\n      dup1\n      0x00\n      swap1\n      sload\n      swap1\n      0x0100\n      exp\n      swap1\n      div\n      0xffffffffffffffffffffffffffffffffffffffff\n      and\n        /* \"Cloudy-Blockchain/.deps/ownable.sol\":2492:2517  address oldOwner = _owner */\n      swap1\n      pop\n        /* \"Cloudy-Blockchain/.deps/ownable.sol\":2536:2544  newOwner */\n      dup2\n        /* \"Cloudy-Blockchain/.deps/ownable.sol\":2527:2533  _owner */\n      0x00\n      dup1\n        /* \"Cloudy-Blockchain/.deps/ownable.sol\":2527:2544  _owner = newOwner */\n      0x0100\n      exp\n      dup2\n      sload\n      dup2\n      0xffffffffffffffffffffffffffffffffffffffff\n      mul\n      not\n      and\n      swap1\n      dup4\n      0xffffffffffffffffffffffffffffffffffffffff\n      and\n      mul\n      or\n      swap1\n      sstore\n      pop\n        /* \"Cloudy-Blockchain/.deps/ownable.sol\":2590:2598  newOwner */\n      dup2\n        /* \"Cloudy-Blockchain/.deps/ownable.sol\":2559:2599  OwnershipTransferred(oldOwner, newOwner) */\n      0xffffffffffffffffffffffffffffffffffffffff\n      and\n        /* \"Cloudy-Blockchain/.deps/ownable.sol\":2580:2588  oldOwner */\n      dup2\n        /* \"Cloudy-Blockchain/.deps/ownable.sol\":2559:2599  OwnershipTransferred(oldOwner, newOwner) */\n      0xffffffffffffffffffffffffffffffffffffffff\n      and\n      0x8be0079c531659141344cd1fd0a4f28419497f9722a3daafe3b4186f6b6457e0\n      mload(0x40)\n      mload(0x40)\n      dup1\n      swap2\n      sub\n      swap1\n      log3\n        /* \"Cloudy-Blockchain/.deps/ownable.sol\":2482:2606  {... */\n      pop\n        /* \"Cloudy-Blockchain/.deps/ownable.sol\":2419:2606  function _transferOwnership(address newOwner) internal virtual {... */\n      pop\n      jump\t// out\n        /* \"Cloudy-Blockchain/.deps/context.sol\":640:736  function _msgSender() internal view virtual returns (address) {... */\n    tag_413:\n        /* \"Cloudy-Blockchain/.deps/context.sol\":693:700  address */\n      0x00\n        /* \"Cloudy-Blockchain/.deps/context.sol\":719:729  msg.sender */\n      caller\n        /* \"Cloudy-Blockchain/.deps/context.sol\":712:729  return msg.sender */\n      swap1\n      pop\n        /* \"Cloudy-Blockchain/.deps/context.sol\":640:736  function _msgSender() internal view virtual returns (address) {... */\n      swap1\n      jump\t// out\n    tag_160:\n      dup3\n      dup1\n      sload\n      dup3\n      dup3\n      sstore\n      swap1\n      0x00\n      mstore\n      keccak256(0x00, 0x20)\n      swap1\n      dup2\n      add\n      swap3\n      dup3\n      iszero\n      tag_420\n      jumpi\n      swap2\n      0x20\n      mul\n      dup3\n      add\n    tag_421:\n      dup3\n      dup2\n      gt\n      iszero\n      tag_422\n      jumpi\n      dup3\n      mload\n      dup3\n      sstore\n      swap2\n      0x20\n      add\n      swap2\n      swap1\n      0x01\n      add\n      swap1\n      jump(tag_421)\n    tag_422:\n    tag_420:\n      pop\n      swap1\n      pop\n      tag_423\n      swap2\n      swap1\n      tag_424\n      jump\t// in\n    tag_423:\n      pop\n      swap1\n      jump\t// out\n    tag_217:\n      pop\n      dup1\n      sload\n      0x00\n      dup3\n      sstore\n      swap1\n      0x00\n      mstore\n      keccak256(0x00, 0x20)\n      swap1\n      dup2\n      add\n      swap1\n      tag_426\n      swap2\n      swap1\n      tag_424\n      jump\t// in\n    tag_426:\n      pop\n      jump\t// out\n    tag_306:\n      pop\n      dup1\n      sload\n      tag_427\n      swap1\n      tag_228\n      jump\t// in\n    tag_427:\n      0x00\n      dup3\n      sstore\n      dup1\n      0x1f\n      lt\n      tag_429\n      jumpi\n      pop\n      jump(tag_428)\n    tag_429:\n      0x1f\n      add\n      0x20\n      swap1\n      div\n      swap1\n      0x00\n      mstore\n      keccak256(0x00, 0x20)\n      swap1\n      dup2\n      add\n      swap1\n      tag_430\n      swap2\n      swap1\n      tag_424\n      jump\t// in\n    tag_430:\n    tag_428:\n      pop\n      jump\t// out\n    tag_424:\n    tag_431:\n      dup1\n      dup3\n      gt\n      iszero\n      tag_432\n      jumpi\n      0x00\n      dup2\n      0x00\n      swap1\n      sstore\n      pop\n      0x01\n      add\n      jump(tag_431)\n    tag_432:\n      pop\n      swap1\n      jump\t// out\n        /* \"#utility.yul\":7:82   */\n    tag_433:\n        /* \"#utility.yul\":40:46   */\n      0x00\n        /* \"#utility.yul\":73:75   */\n      0x40\n        /* \"#utility.yul\":67:76   */\n      mload\n        /* \"#utility.yul\":57:76   */\n      swap1\n      pop\n        /* \"#utility.yul\":7:82   */\n      swap1\n      jump\t// out\n        /* \"#utility.yul\":88:205   */\n    tag_434:\n        /* \"#utility.yul\":197:198   */\n      0x00\n        /* \"#utility.yul\":194:195   */\n      dup1\n        /* \"#utility.yul\":187:199   */\n      revert\n        /* \"#utility.yul\":211:328   */\n    tag_435:\n        /* \"#utility.yul\":320:321   */\n      0x00\n        /* \"#utility.yul\":317:318   */\n      dup1\n        /* \"#utility.yul\":310:322   */\n      revert\n        /* \"#utility.yul\":334:484   */\n    tag_436:\n        /* \"#utility.yul\":371:378   */\n      0x00\n        /* \"#utility.yul\":411:477   */\n      0xffffffffffffffffffffffffffffffffffffffff000000000000000000000000\n        /* \"#utility.yul\":404:409   */\n      dup3\n        /* \"#utility.yul\":400:478   */\n      and\n        /* \"#utility.yul\":389:478   */\n      swap1\n      pop\n        /* \"#utility.yul\":334:484   */\n      swap2\n      swap1\n      pop\n      jump\t// out\n        /* \"#utility.yul\":490:612   */\n    tag_437:\n        /* \"#utility.yul\":563:587   */\n      tag_540\n        /* \"#utility.yul\":581:586   */\n      dup2\n        /* \"#utility.yul\":563:587   */\n      tag_436\n      jump\t// in\n    tag_540:\n        /* \"#utility.yul\":556:561   */\n      dup2\n        /* \"#utility.yul\":553:588   */\n      eq\n        /* \"#utility.yul\":543:606   */\n      tag_541\n      jumpi\n        /* \"#utility.yul\":602:603   */\n      0x00\n        /* \"#utility.yul\":599:600   */\n      dup1\n        /* \"#utility.yul\":592:604   */\n      revert\n        /* \"#utility.yul\":543:606   */\n    tag_541:\n        /* \"#utility.yul\":490:612   */\n      pop\n      jump\t// out\n        /* \"#utility.yul\":618:757   */\n    tag_438:\n        /* \"#utility.yul\":664:669   */\n      0x00\n        /* \"#utility.yul\":702:708   */\n      dup2\n        /* \"#utility.yul\":689:709   */\n      calldataload\n        /* \"#utility.yul\":680:709   */\n      swap1\n      pop\n        /* \"#utility.yul\":718:751   */\n      tag_543\n        /* \"#utility.yul\":745:750   */\n      dup2\n        /* \"#utility.yul\":718:751   */\n      tag_437\n      jump\t// in\n    tag_543:\n        /* \"#utility.yul\":618:757   */\n      swap3\n      swap2\n      pop\n      pop\n      jump\t// out\n        /* \"#utility.yul\":763:880   */\n    tag_439:\n        /* \"#utility.yul\":872:873   */\n      0x00\n        /* \"#utility.yul\":869:870   */\n      dup1\n        /* \"#utility.yul\":862:874   */\n      revert\n        /* \"#utility.yul\":886:988   */\n    tag_440:\n        /* \"#utility.yul\":927:933   */\n      0x00\n        /* \"#utility.yul\":978:980   */\n      0x1f\n        /* \"#utility.yul\":974:981   */\n      not\n        /* \"#utility.yul\":969:971   */\n      0x1f\n        /* \"#utility.yul\":962:967   */\n      dup4\n        /* \"#utility.yul\":958:972   */\n      add\n        /* \"#utility.yul\":954:982   */\n      and\n        /* \"#utility.yul\":944:982   */\n      swap1\n      pop\n        /* \"#utility.yul\":886:988   */\n      swap2\n      swap1\n      pop\n      jump\t// out\n        /* \"#utility.yul\":994:1174   */\n    tag_387:\n        /* \"#utility.yul\":1042:1119   */\n      0x4e487b7100000000000000000000000000000000000000000000000000000000\n        /* \"#utility.yul\":1039:1040   */\n      0x00\n        /* \"#utility.yul\":1032:1120   */\n      mstore\n        /* \"#utility.yul\":1139:1143   */\n      0x41\n        /* \"#utility.yul\":1136:1137   */\n      0x04\n        /* \"#utility.yul\":1129:1144   */\n      mstore\n        /* \"#utility.yul\":1163:1167   */\n      0x24\n        /* \"#utility.yul\":1160:1161   */\n      0x00\n        /* \"#utility.yul\":1153:1168   */\n      revert\n        /* \"#utility.yul\":1180:1461   */\n    tag_441:\n        /* \"#utility.yul\":1263:1290   */\n      tag_548\n        /* \"#utility.yul\":1285:1289   */\n      dup3\n        /* \"#utility.yul\":1263:1290   */\n      tag_440\n      jump\t// in\n    tag_548:\n        /* \"#utility.yul\":1255:1261   */\n      dup2\n        /* \"#utility.yul\":1251:1291   */\n      add\n        /* \"#utility.yul\":1393:1399   */\n      dup2\n        /* \"#utility.yul\":1381:1391   */\n      dup2\n        /* \"#utility.yul\":1378:1400   */\n      lt\n        /* \"#utility.yul\":1357:1375   */\n      0xffffffffffffffff\n        /* \"#utility.yul\":1345:1355   */\n      dup3\n        /* \"#utility.yul\":1342:1376   */\n      gt\n        /* \"#utility.yul\":1339:1401   */\n      or\n        /* \"#utility.yul\":1336:1424   */\n      iszero\n      tag_549\n      jumpi\n        /* \"#utility.yul\":1404:1422   */\n      tag_550\n      tag_387\n      jump\t// in\n    tag_550:\n        /* \"#utility.yul\":1336:1424   */\n    tag_549:\n        /* \"#utility.yul\":1444:1454   */\n      dup1\n        /* \"#utility.yul\":1440:1442   */\n      0x40\n        /* \"#utility.yul\":1433:1455   */\n      mstore\n        /* \"#utility.yul\":1223:1461   */\n      pop\n        /* \"#utility.yul\":1180:1461   */\n      pop\n      pop\n      jump\t// out\n        /* \"#utility.yul\":1467:1596   */\n    tag_442:\n        /* \"#utility.yul\":1501:1507   */\n      0x00\n        /* \"#utility.yul\":1528:1548   */\n      tag_552\n      tag_433\n      jump\t// in\n    tag_552:\n        /* \"#utility.yul\":1518:1548   */\n      swap1\n      pop\n        /* \"#utility.yul\":1557:1590   */\n      tag_553\n        /* \"#utility.yul\":1585:1589   */\n      dup3\n        /* \"#utility.yul\":1577:1583   */\n      dup3\n        /* \"#utility.yul\":1557:1590   */\n      tag_441\n      jump\t// in\n    tag_553:\n        /* \"#utility.yul\":1467:1596   */\n      swap2\n      swap1\n      pop\n      jump\t// out\n        /* \"#utility.yul\":1602:1913   */\n    tag_443:\n        /* \"#utility.yul\":1679:1683   */\n      0x00\n        /* \"#utility.yul\":1769:1787   */\n      0xffffffffffffffff\n        /* \"#utility.yul\":1761:1767   */\n      dup3\n        /* \"#utility.yul\":1758:1788   */\n      gt\n        /* \"#utility.yul\":1755:1811   */\n      iszero\n      tag_555\n      jumpi\n        /* \"#utility.yul\":1791:1809   */\n      tag_556\n      tag_387\n      jump\t// in\n    tag_556:\n        /* \"#utility.yul\":1755:1811   */\n    tag_555:\n        /* \"#utility.yul\":1841:1845   */\n      0x20\n        /* \"#utility.yul\":1833:1839   */\n      dup3\n        /* \"#utility.yul\":1829:1846   */\n      mul\n        /* \"#utility.yul\":1821:1846   */\n      swap1\n      pop\n        /* \"#utility.yul\":1901:1905   */\n      0x20\n        /* \"#utility.yul\":1895:1899   */\n      dup2\n        /* \"#utility.yul\":1891:1906   */\n      add\n        /* \"#utility.yul\":1883:1906   */\n      swap1\n      pop\n        /* \"#utility.yul\":1602:1913   */\n      swap2\n      swap1\n      pop\n      jump\t// out\n        /* \"#utility.yul\":1919:2036   */\n    tag_444:\n        /* \"#utility.yul\":2028:2029   */\n      0x00\n        /* \"#utility.yul\":2025:2026   */\n      dup1\n        /* \"#utility.yul\":2018:2030   */\n      revert\n        /* \"#utility.yul\":2042:2119   */\n    tag_445:\n        /* \"#utility.yul\":2079:2086   */\n      0x00\n        /* \"#utility.yul\":2108:2113   */\n      dup2\n        /* \"#utility.yul\":2097:2113   */\n      swap1\n      pop\n        /* \"#utility.yul\":2042:2119   */\n      swap2\n      swap1\n      pop\n      jump\t// out\n        /* \"#utility.yul\":2125:2247   */\n    tag_446:\n        /* \"#utility.yul\":2198:2222   */\n      tag_560\n        /* \"#utility.yul\":2216:2221   */\n      dup2\n        /* \"#utility.yul\":2198:2222   */\n      tag_445\n      jump\t// in\n    tag_560:\n        /* \"#utility.yul\":2191:2196   */\n      dup2\n        /* \"#utility.yul\":2188:2223   */\n      eq\n        /* \"#utility.yul\":2178:2241   */\n      tag_561\n      jumpi\n        /* \"#utility.yul\":2237:2238   */\n      0x00\n        /* \"#utility.yul\":2234:2235   */\n      dup1\n        /* \"#utility.yul\":2227:2239   */\n      revert\n        /* \"#utility.yul\":2178:2241   */\n    tag_561:\n        /* \"#utility.yul\":2125:2247   */\n      pop\n      jump\t// out\n        /* \"#utility.yul\":2253:2392   */\n    tag_447:\n        /* \"#utility.yul\":2299:2304   */\n      0x00\n        /* \"#utility.yul\":2337:2343   */\n      dup2\n        /* \"#utility.yul\":2324:2344   */\n      calldataload\n        /* \"#utility.yul\":2315:2344   */\n      swap1\n      pop\n        /* \"#utility.yul\":2353:2386   */\n      tag_563\n        /* \"#utility.yul\":2380:2385   */\n      dup2\n        /* \"#utility.yul\":2353:2386   */\n      tag_446\n      jump\t// in\n    tag_563:\n        /* \"#utility.yul\":2253:2392   */\n      swap3\n      swap2\n      pop\n      pop\n      jump\t// out\n        /* \"#utility.yul\":2415:3125   */\n    tag_448:\n        /* \"#utility.yul\":2511:2516   */\n      0x00\n        /* \"#utility.yul\":2536:2617   */\n      tag_565\n        /* \"#utility.yul\":2552:2616   */\n      tag_566\n        /* \"#utility.yul\":2609:2615   */\n      dup5\n        /* \"#utility.yul\":2552:2616   */\n      tag_443\n      jump\t// in\n    tag_566:\n        /* \"#utility.yul\":2536:2617   */\n      tag_442\n      jump\t// in\n    tag_565:\n        /* \"#utility.yul\":2527:2617   */\n      swap1\n      pop\n        /* \"#utility.yul\":2637:2642   */\n      dup1\n        /* \"#utility.yul\":2666:2672   */\n      dup4\n        /* \"#utility.yul\":2659:2664   */\n      dup3\n        /* \"#utility.yul\":2652:2673   */\n      mstore\n        /* \"#utility.yul\":2700:2704   */\n      0x20\n        /* \"#utility.yul\":2693:2698   */\n      dup3\n        /* \"#utility.yul\":2689:2705   */\n      add\n        /* \"#utility.yul\":2682:2705   */\n      swap1\n      pop\n        /* \"#utility.yul\":2753:2757   */\n      0x20\n        /* \"#utility.yul\":2745:2751   */\n      dup5\n        /* \"#utility.yul\":2741:2758   */\n      mul\n        /* \"#utility.yul\":2733:2739   */\n      dup4\n        /* \"#utility.yul\":2729:2759   */\n      add\n        /* \"#utility.yul\":2782:2785   */\n      dup6\n        /* \"#utility.yul\":2774:2780   */\n      dup2\n        /* \"#utility.yul\":2771:2786   */\n      gt\n        /* \"#utility.yul\":2768:2890   */\n      iszero\n      tag_567\n      jumpi\n        /* \"#utility.yul\":2801:2880   */\n      tag_568\n      tag_444\n      jump\t// in\n    tag_568:\n        /* \"#utility.yul\":2768:2890   */\n    tag_567:\n        /* \"#utility.yul\":2916:2922   */\n      dup4\n        /* \"#utility.yul\":2899:3119   */\n    tag_569:\n        /* \"#utility.yul\":2933:2939   */\n      dup2\n        /* \"#utility.yul\":2928:2931   */\n      dup2\n        /* \"#utility.yul\":2925:2940   */\n      lt\n        /* \"#utility.yul\":2899:3119   */\n      iszero\n      tag_571\n      jumpi\n        /* \"#utility.yul\":3008:3011   */\n      dup1\n        /* \"#utility.yul\":3037:3074   */\n      tag_572\n        /* \"#utility.yul\":3070:3073   */\n      dup9\n        /* \"#utility.yul\":3058:3068   */\n      dup3\n        /* \"#utility.yul\":3037:3074   */\n      tag_447\n      jump\t// in\n    tag_572:\n        /* \"#utility.yul\":3032:3035   */\n      dup5\n        /* \"#utility.yul\":3025:3075   */\n      mstore\n        /* \"#utility.yul\":3104:3108   */\n      0x20\n        /* \"#utility.yul\":3099:3102   */\n      dup5\n        /* \"#utility.yul\":3095:3109   */\n      add\n        /* \"#utility.yul\":3088:3109   */\n      swap4\n      pop\n        /* \"#utility.yul\":2975:3119   */\n      pop\n        /* \"#utility.yul\":2959:2963   */\n      0x20\n        /* \"#utility.yul\":2954:2957   */\n      dup2\n        /* \"#utility.yul\":2950:2964   */\n      add\n        /* \"#utility.yul\":2943:2964   */\n      swap1\n      pop\n        /* \"#utility.yul\":2899:3119   */\n      jump(tag_569)\n    tag_571:\n        /* \"#utility.yul\":2903:2924   */\n      pop\n        /* \"#utility.yul\":2517:3125   */\n      pop\n      pop\n        /* \"#utility.yul\":2415:3125   */\n      swap4\n      swap3\n      pop\n      pop\n      pop\n      jump\t// out\n        /* \"#utility.yul\":3148:3518   */\n    tag_449:\n        /* \"#utility.yul\":3219:3224   */\n      0x00\n        /* \"#utility.yul\":3268:3271   */\n      dup3\n        /* \"#utility.yul\":3261:3265   */\n      0x1f\n        /* \"#utility.yul\":3253:3259   */\n      dup4\n        /* \"#utility.yul\":3249:3266   */\n      add\n        /* \"#utility.yul\":3245:3272   */\n      slt\n        /* \"#utility.yul\":3235:3357   */\n      tag_574\n      jumpi\n        /* \"#utility.yul\":3276:3355   */\n      tag_575\n      tag_439\n      jump\t// in\n    tag_575:\n        /* \"#utility.yul\":3235:3357   */\n    tag_574:\n        /* \"#utility.yul\":3393:3399   */\n      dup2\n        /* \"#utility.yul\":3380:3400   */\n      calldataload\n        /* \"#utility.yul\":3418:3512   */\n      tag_576\n        /* \"#utility.yul\":3508:3511   */\n      dup5\n        /* \"#utility.yul\":3500:3506   */\n      dup3\n        /* \"#utility.yul\":3493:3497   */\n      0x20\n        /* \"#utility.yul\":3485:3491   */\n      dup7\n        /* \"#utility.yul\":3481:3498   */\n      add\n        /* \"#utility.yul\":3418:3512   */\n      tag_448\n      jump\t// in\n    tag_576:\n        /* \"#utility.yul\":3409:3512   */\n      swap2\n      pop\n        /* \"#utility.yul\":3225:3518   */\n      pop\n        /* \"#utility.yul\":3148:3518   */\n      swap3\n      swap2\n      pop\n      pop\n      jump\t// out\n        /* \"#utility.yul\":3524:4208   */\n    tag_40:\n        /* \"#utility.yul\":3617:3623   */\n      0x00\n        /* \"#utility.yul\":3625:3631   */\n      dup1\n        /* \"#utility.yul\":3674:3676   */\n      0x40\n        /* \"#utility.yul\":3662:3671   */\n      dup4\n        /* \"#utility.yul\":3653:3660   */\n      dup6\n        /* \"#utility.yul\":3649:3672   */\n      sub\n        /* \"#utility.yul\":3645:3677   */\n      slt\n        /* \"#utility.yul\":3642:3761   */\n      iszero\n      tag_578\n      jumpi\n        /* \"#utility.yul\":3680:3759   */\n      tag_579\n      tag_434\n      jump\t// in\n    tag_579:\n        /* \"#utility.yul\":3642:3761   */\n    tag_578:\n        /* \"#utility.yul\":3800:3801   */\n      0x00\n        /* \"#utility.yul\":3825:3878   */\n      tag_580\n        /* \"#utility.yul\":3870:3877   */\n      dup6\n        /* \"#utility.yul\":3861:3867   */\n      dup3\n        /* \"#utility.yul\":3850:3859   */\n      dup7\n        /* \"#utility.yul\":3846:3868   */\n      add\n        /* \"#utility.yul\":3825:3878   */\n      tag_438\n      jump\t// in\n    tag_580:\n        /* \"#utility.yul\":3815:3878   */\n      swap3\n      pop\n        /* \"#utility.yul\":3771:3888   */\n      pop\n        /* \"#utility.yul\":3955:3957   */\n      0x20\n        /* \"#utility.yul\":3944:3953   */\n      dup4\n        /* \"#utility.yul\":3940:3958   */\n      add\n        /* \"#utility.yul\":3927:3959   */\n      calldataload\n        /* \"#utility.yul\":3986:4004   */\n      0xffffffffffffffff\n        /* \"#utility.yul\":3978:3984   */\n      dup2\n        /* \"#utility.yul\":3975:4005   */\n      gt\n        /* \"#utility.yul\":3972:4089   */\n      iszero\n      tag_581\n      jumpi\n        /* \"#utility.yul\":4008:4087   */\n      tag_582\n      tag_435\n      jump\t// in\n    tag_582:\n        /* \"#utility.yul\":3972:4089   */\n    tag_581:\n        /* \"#utility.yul\":4113:4191   */\n      tag_583\n        /* \"#utility.yul\":4183:4190   */\n      dup6\n        /* \"#utility.yul\":4174:4180   */\n      dup3\n        /* \"#utility.yul\":4163:4172   */\n      dup7\n        /* \"#utility.yul\":4159:4181   */\n      add\n        /* \"#utility.yul\":4113:4191   */\n      tag_449\n      jump\t// in\n    tag_583:\n        /* \"#utility.yul\":4103:4191   */\n      swap2\n      pop\n        /* \"#utility.yul\":3898:4201   */\n      pop\n        /* \"#utility.yul\":3524:4208   */\n      swap3\n      pop\n      swap3\n      swap1\n      pop\n      jump\t// out\n        /* \"#utility.yul\":4214:4340   */\n    tag_450:\n        /* \"#utility.yul\":4251:4258   */\n      0x00\n        /* \"#utility.yul\":4291:4333   */\n      0xffffffffffffffffffffffffffffffffffffffff\n        /* \"#utility.yul\":4284:4289   */\n      dup3\n        /* \"#utility.yul\":4280:4334   */\n      and\n        /* \"#utility.yul\":4269:4334   */\n      swap1\n      pop\n        /* \"#utility.yul\":4214:4340   */\n      swap2\n      swap1\n      pop\n      jump\t// out\n        /* \"#utility.yul\":4346:4442   */\n    tag_451:\n        /* \"#utility.yul\":4383:4390   */\n      0x00\n        /* \"#utility.yul\":4412:4436   */\n      tag_586\n        /* \"#utility.yul\":4430:4435   */\n      dup3\n        /* \"#utility.yul\":4412:4436   */\n      tag_450\n      jump\t// in\n    tag_586:\n        /* \"#utility.yul\":4401:4436   */\n      swap1\n      pop\n        /* \"#utility.yul\":4346:4442   */\n      swap2\n      swap1\n      pop\n      jump\t// out\n        /* \"#utility.yul\":4448:4570   */\n    tag_452:\n        /* \"#utility.yul\":4521:4545   */\n      tag_588\n        /* \"#utility.yul\":4539:4544   */\n      dup2\n        /* \"#utility.yul\":4521:4545   */\n      tag_451\n      jump\t// in\n    tag_588:\n        /* \"#utility.yul\":4514:4519   */\n      dup2\n        /* \"#utility.yul\":4511:4546   */\n      eq\n        /* \"#utility.yul\":4501:4564   */\n      tag_589\n      jumpi\n        /* \"#utility.yul\":4560:4561   */\n      0x00\n        /* \"#utility.yul\":4557:4558   */\n      dup1\n        /* \"#utility.yul\":4550:4562   */\n      revert\n        /* \"#utility.yul\":4501:4564   */\n    tag_589:\n        /* \"#utility.yul\":4448:4570   */\n      pop\n      jump\t// out\n        /* \"#utility.yul\":4576:4715   */\n    tag_453:\n        /* \"#utility.yul\":4622:4627   */\n      0x00\n        /* \"#utility.yul\":4660:4666   */\n      dup2\n        /* \"#utility.yul\":4647:4667   */\n      calldataload\n        /* \"#utility.yul\":4638:4667   */\n      swap1\n      pop\n        /* \"#utility.yul\":4676:4709   */\n      tag_591\n        /* \"#utility.yul\":4703:4708   */\n      dup2\n        /* \"#utility.yul\":4676:4709   */\n      tag_452\n      jump\t// in\n    tag_591:\n        /* \"#utility.yul\":4576:4715   */\n      swap3\n      swap2\n      pop\n      pop\n      jump\t// out\n        /* \"#utility.yul\":4721:4838   */\n    tag_454:\n        /* \"#utility.yul\":4830:4831   */\n      0x00\n        /* \"#utility.yul\":4827:4828   */\n      dup1\n        /* \"#utility.yul\":4820:4832   */\n      revert\n        /* \"#utility.yul\":4844:5152   */\n    tag_455:\n        /* \"#utility.yul\":4906:4910   */\n      0x00\n        /* \"#utility.yul\":4996:5014   */\n      0xffffffffffffffff\n        /* \"#utility.yul\":4988:4994   */\n      dup3\n        /* \"#utility.yul\":4985:5015   */\n      gt\n        /* \"#utility.yul\":4982:5038   */\n      iszero\n      tag_594\n      jumpi\n        /* \"#utility.yul\":5018:5036   */\n      tag_595\n      tag_387\n      jump\t// in\n    tag_595:\n        /* \"#utility.yul\":4982:5038   */\n    tag_594:\n        /* \"#utility.yul\":5056:5085   */\n      tag_596\n        /* \"#utility.yul\":5078:5084   */\n      dup3\n        /* \"#utility.yul\":5056:5085   */\n      tag_440\n      jump\t// in\n    tag_596:\n        /* \"#utility.yul\":5048:5085   */\n      swap1\n      pop\n        /* \"#utility.yul\":5140:5144   */\n      0x20\n        /* \"#utility.yul\":5134:5138   */\n      dup2\n        /* \"#utility.yul\":5130:5145   */\n      add\n        /* \"#utility.yul\":5122:5145   */\n      swap1\n      pop\n        /* \"#utility.yul\":4844:5152   */\n      swap2\n      swap1\n      pop\n      jump\t// out\n        /* \"#utility.yul\":5158:5304   */\n    tag_456:\n        /* \"#utility.yul\":5255:5261   */\n      dup3\n        /* \"#utility.yul\":5250:5253   */\n      dup2\n        /* \"#utility.yul\":5245:5248   */\n      dup4\n        /* \"#utility.yul\":5232:5262   */\n      calldatacopy\n        /* \"#utility.yul\":5296:5297   */\n      0x00\n        /* \"#utility.yul\":5287:5293   */\n      dup4\n        /* \"#utility.yul\":5282:5285   */\n      dup4\n        /* \"#utility.yul\":5278:5294   */\n      add\n        /* \"#utility.yul\":5271:5298   */\n      mstore\n        /* \"#utility.yul\":5158:5304   */\n      pop\n      pop\n      pop\n      jump\t// out\n        /* \"#utility.yul\":5310:5735   */\n    tag_457:\n        /* \"#utility.yul\":5388:5393   */\n      0x00\n        /* \"#utility.yul\":5413:5479   */\n      tag_599\n        /* \"#utility.yul\":5429:5478   */\n      tag_600\n        /* \"#utility.yul\":5471:5477   */\n      dup5\n        /* \"#utility.yul\":5429:5478   */\n      tag_455\n      jump\t// in\n    tag_600:\n        /* \"#utility.yul\":5413:5479   */\n      tag_442\n      jump\t// in\n    tag_599:\n        /* \"#utility.yul\":5404:5479   */\n      swap1\n      pop\n        /* \"#utility.yul\":5502:5508   */\n      dup3\n        /* \"#utility.yul\":5495:5500   */\n      dup2\n        /* \"#utility.yul\":5488:5509   */\n      mstore\n        /* \"#utility.yul\":5540:5544   */\n      0x20\n        /* \"#utility.yul\":5533:5538   */\n      dup2\n        /* \"#utility.yul\":5529:5545   */\n      add\n        /* \"#utility.yul\":5578:5581   */\n      dup5\n        /* \"#utility.yul\":5569:5575   */\n      dup5\n        /* \"#utility.yul\":5564:5567   */\n      dup5\n        /* \"#utility.yul\":5560:5576   */\n      add\n        /* \"#utility.yul\":5557:5582   */\n      gt\n        /* \"#utility.yul\":5554:5666   */\n      iszero\n      tag_601\n      jumpi\n        /* \"#utility.yul\":5585:5664   */\n      tag_602\n      tag_454\n      jump\t// in\n    tag_602:\n        /* \"#utility.yul\":5554:5666   */\n    tag_601:\n        /* \"#utility.yul\":5675:5729   */\n      tag_603\n        /* \"#utility.yul\":5722:5728   */\n      dup5\n        /* \"#utility.yul\":5717:5720   */\n      dup3\n        /* \"#utility.yul\":5712:5715   */\n      dup6\n        /* \"#utility.yul\":5675:5729   */\n      tag_456\n      jump\t// in\n    tag_603:\n        /* \"#utility.yul\":5394:5735   */\n      pop\n        /* \"#utility.yul\":5310:5735   */\n      swap4\n      swap3\n      pop\n      pop\n      pop\n      jump\t// out\n        /* \"#utility.yul\":5755:6095   */\n    tag_458:\n        /* \"#utility.yul\":5811:5816   */\n      0x00\n        /* \"#utility.yul\":5860:5863   */\n      dup3\n        /* \"#utility.yul\":5853:5857   */\n      0x1f\n        /* \"#utility.yul\":5845:5851   */\n      dup4\n        /* \"#utility.yul\":5841:5858   */\n      add\n        /* \"#utility.yul\":5837:5864   */\n      slt\n        /* \"#utility.yul\":5827:5949   */\n      tag_605\n      jumpi\n        /* \"#utility.yul\":5868:5947   */\n      tag_606\n      tag_439\n      jump\t// in\n    tag_606:\n        /* \"#utility.yul\":5827:5949   */\n    tag_605:\n        /* \"#utility.yul\":5985:5991   */\n      dup2\n        /* \"#utility.yul\":5972:5992   */\n      calldataload\n        /* \"#utility.yul\":6010:6089   */\n      tag_607\n        /* \"#utility.yul\":6085:6088   */\n      dup5\n        /* \"#utility.yul\":6077:6083   */\n      dup3\n        /* \"#utility.yul\":6070:6074   */\n      0x20\n        /* \"#utility.yul\":6062:6068   */\n      dup7\n        /* \"#utility.yul\":6058:6075   */\n      add\n        /* \"#utility.yul\":6010:6089   */\n      tag_457\n      jump\t// in\n    tag_607:\n        /* \"#utility.yul\":6001:6089   */\n      swap2\n      pop\n        /* \"#utility.yul\":5817:6095   */\n      pop\n        /* \"#utility.yul\":5755:6095   */\n      swap3\n      swap2\n      pop\n      pop\n      jump\t// out\n        /* \"#utility.yul\":6101:6900   */\n    tag_44:\n        /* \"#utility.yul\":6188:6194   */\n      0x00\n        /* \"#utility.yul\":6196:6202   */\n      dup1\n        /* \"#utility.yul\":6204:6210   */\n      0x00\n        /* \"#utility.yul\":6253:6255   */\n      0x60\n        /* \"#utility.yul\":6241:6250   */\n      dup5\n        /* \"#utility.yul\":6232:6239   */\n      dup7\n        /* \"#utility.yul\":6228:6251   */\n      sub\n        /* \"#utility.yul\":6224:6256   */\n      slt\n        /* \"#utility.yul\":6221:6340   */\n      iszero\n      tag_609\n      jumpi\n        /* \"#utility.yul\":6259:6338   */\n      tag_610\n      tag_434\n      jump\t// in\n    tag_610:\n        /* \"#utility.yul\":6221:6340   */\n    tag_609:\n        /* \"#utility.yul\":6379:6380   */\n      0x00\n        /* \"#utility.yul\":6404:6457   */\n      tag_611\n        /* \"#utility.yul\":6449:6456   */\n      dup7\n        /* \"#utility.yul\":6440:6446   */\n      dup3\n        /* \"#utility.yul\":6429:6438   */\n      dup8\n        /* \"#utility.yul\":6425:6447   */\n      add\n        /* \"#utility.yul\":6404:6457   */\n      tag_453\n      jump\t// in\n    tag_611:\n        /* \"#utility.yul\":6394:6457   */\n      swap4\n      pop\n        /* \"#utility.yul\":6350:6467   */\n      pop\n        /* \"#utility.yul\":6506:6508   */\n      0x20\n        /* \"#utility.yul\":6532:6585   */\n      tag_612\n        /* \"#utility.yul\":6577:6584   */\n      dup7\n        /* \"#utility.yul\":6568:6574   */\n      dup3\n        /* \"#utility.yul\":6557:6566   */\n      dup8\n        /* \"#utility.yul\":6553:6575   */\n      add\n        /* \"#utility.yul\":6532:6585   */\n      tag_447\n      jump\t// in\n    tag_612:\n        /* \"#utility.yul\":6522:6585   */\n      swap3\n      pop\n        /* \"#utility.yul\":6477:6595   */\n      pop\n        /* \"#utility.yul\":6662:6664   */\n      0x40\n        /* \"#utility.yul\":6651:6660   */\n      dup5\n        /* \"#utility.yul\":6647:6665   */\n      add\n        /* \"#utility.yul\":6634:6666   */\n      calldataload\n        /* \"#utility.yul\":6693:6711   */\n      0xffffffffffffffff\n        /* \"#utility.yul\":6685:6691   */\n      dup2\n        /* \"#utility.yul\":6682:6712   */\n      gt\n        /* \"#utility.yul\":6679:6796   */\n      iszero\n      tag_613\n      jumpi\n        /* \"#utility.yul\":6715:6794   */\n      tag_614\n      tag_435\n      jump\t// in\n    tag_614:\n        /* \"#utility.yul\":6679:6796   */\n    tag_613:\n        /* \"#utility.yul\":6820:6883   */\n      tag_615\n        /* \"#utility.yul\":6875:6882   */\n      dup7\n        /* \"#utility.yul\":6866:6872   */\n      dup3\n        /* \"#utility.yul\":6855:6864   */\n      dup8\n        /* \"#utility.yul\":6851:6873   */\n      add\n        /* \"#utility.yul\":6820:6883   */\n      tag_458\n      jump\t// in\n    tag_615:\n        /* \"#utility.yul\":6810:6883   */\n      swap2\n      pop\n        /* \"#utility.yul\":6605:6893   */\n      pop\n        /* \"#utility.yul\":6101:6900   */\n      swap3\n      pop\n      swap3\n      pop\n      swap3\n      jump\t// out\n        /* \"#utility.yul\":6906:7024   */\n    tag_459:\n        /* \"#utility.yul\":6993:7017   */\n      tag_617\n        /* \"#utility.yul\":7011:7016   */\n      dup2\n        /* \"#utility.yul\":6993:7017   */\n      tag_445\n      jump\t// in\n    tag_617:\n        /* \"#utility.yul\":6988:6991   */\n      dup3\n        /* \"#utility.yul\":6981:7018   */\n      mstore\n        /* \"#utility.yul\":6906:7024   */\n      pop\n      pop\n      jump\t// out\n        /* \"#utility.yul\":7030:7252   */\n    tag_47:\n        /* \"#utility.yul\":7123:7127   */\n      0x00\n        /* \"#utility.yul\":7161:7163   */\n      0x20\n        /* \"#utility.yul\":7150:7159   */\n      dup3\n        /* \"#utility.yul\":7146:7164   */\n      add\n        /* \"#utility.yul\":7138:7164   */\n      swap1\n      pop\n        /* \"#utility.yul\":7174:7245   */\n      tag_619\n        /* \"#utility.yul\":7242:7243   */\n      0x00\n        /* \"#utility.yul\":7231:7240   */\n      dup4\n        /* \"#utility.yul\":7227:7244   */\n      add\n        /* \"#utility.yul\":7218:7224   */\n      dup5\n        /* \"#utility.yul\":7174:7245   */\n      tag_459\n      jump\t// in\n    tag_619:\n        /* \"#utility.yul\":7030:7252   */\n      swap3\n      swap2\n      pop\n      pop\n      jump\t// out\n        /* \"#utility.yul\":7258:7587   */\n    tag_50:\n        /* \"#utility.yul\":7317:7323   */\n      0x00\n        /* \"#utility.yul\":7366:7368   */\n      0x20\n        /* \"#utility.yul\":7354:7363   */\n      dup3\n        /* \"#utility.yul\":7345:7352   */\n      dup5\n        /* \"#utility.yul\":7341:7364   */\n      sub\n        /* \"#utility.yul\":7337:7369   */\n      slt\n        /* \"#utility.yul\":7334:7453   */\n      iszero\n      tag_621\n      jumpi\n        /* \"#utility.yul\":7372:7451   */\n      tag_622\n      tag_434\n      jump\t// in\n    tag_622:\n        /* \"#utility.yul\":7334:7453   */\n    tag_621:\n        /* \"#utility.yul\":7492:7493   */\n      0x00\n        /* \"#utility.yul\":7517:7570   */\n      tag_623\n        /* \"#utility.yul\":7562:7569   */\n      dup5\n        /* \"#utility.yul\":7553:7559   */\n      dup3\n        /* \"#utility.yul\":7542:7551   */\n      dup6\n        /* \"#utility.yul\":7538:7560   */\n      add\n        /* \"#utility.yul\":7517:7570   */\n      tag_438\n      jump\t// in\n    tag_623:\n        /* \"#utility.yul\":7507:7570   */\n      swap2\n      pop\n        /* \"#utility.yul\":7463:7580   */\n      pop\n        /* \"#utility.yul\":7258:7587   */\n      swap3\n      swap2\n      pop\n      pop\n      jump\t// out\n        /* \"#utility.yul\":7593:7707   */\n    tag_460:\n        /* \"#utility.yul\":7660:7666   */\n      0x00\n        /* \"#utility.yul\":7694:7699   */\n      dup2\n        /* \"#utility.yul\":7688:7700   */\n      mload\n        /* \"#utility.yul\":7678:7700   */\n      swap1\n      pop\n        /* \"#utility.yul\":7593:7707   */\n      swap2\n      swap1\n      pop\n      jump\t// out\n        /* \"#utility.yul\":7713:7897   */\n    tag_461:\n        /* \"#utility.yul\":7812:7823   */\n      0x00\n        /* \"#utility.yul\":7846:7852   */\n      dup3\n        /* \"#utility.yul\":7841:7844   */\n      dup3\n        /* \"#utility.yul\":7834:7853   */\n      mstore\n        /* \"#utility.yul\":7886:7890   */\n      0x20\n        /* \"#utility.yul\":7881:7884   */\n      dup3\n        /* \"#utility.yul\":7877:7891   */\n      add\n        /* \"#utility.yul\":7862:7891   */\n      swap1\n      pop\n        /* \"#utility.yul\":7713:7897   */\n      swap3\n      swap2\n      pop\n      pop\n      jump\t// out\n        /* \"#utility.yul\":7903:8035   */\n    tag_462:\n        /* \"#utility.yul\":7970:7974   */\n      0x00\n        /* \"#utility.yul\":7993:7996   */\n      dup2\n        /* \"#utility.yul\":7985:7996   */\n      swap1\n      pop\n        /* \"#utility.yul\":8023:8027   */\n      0x20\n        /* \"#utility.yul\":8018:8021   */\n      dup3\n        /* \"#utility.yul\":8014:8028   */\n      add\n        /* \"#utility.yul\":8006:8028   */\n      swap1\n      pop\n        /* \"#utility.yul\":7903:8035   */\n      swap2\n      swap1\n      pop\n      jump\t// out\n        /* \"#utility.yul\":8041:8149   */\n    tag_463:\n        /* \"#utility.yul\":8118:8142   */\n      tag_628\n        /* \"#utility.yul\":8136:8141   */\n      dup2\n        /* \"#utility.yul\":8118:8142   */\n      tag_445\n      jump\t// in\n    tag_628:\n        /* \"#utility.yul\":8113:8116   */\n      dup3\n        /* \"#utility.yul\":8106:8143   */\n      mstore\n        /* \"#utility.yul\":8041:8149   */\n      pop\n      pop\n      jump\t// out\n        /* \"#utility.yul\":8155:8334   */\n    tag_464:\n        /* \"#utility.yul\":8224:8234   */\n      0x00\n        /* \"#utility.yul\":8245:8291   */\n      tag_630\n        /* \"#utility.yul\":8287:8290   */\n      dup4\n        /* \"#utility.yul\":8279:8285   */\n      dup4\n        /* \"#utility.yul\":8245:8291   */\n      tag_463\n      jump\t// in\n    tag_630:\n        /* \"#utility.yul\":8323:8327   */\n      0x20\n        /* \"#utility.yul\":8318:8321   */\n      dup4\n        /* \"#utility.yul\":8314:8328   */\n      add\n        /* \"#utility.yul\":8300:8328   */\n      swap1\n      pop\n        /* \"#utility.yul\":8155:8334   */\n      swap3\n      swap2\n      pop\n      pop\n      jump\t// out\n        /* \"#utility.yul\":8340:8453   */\n    tag_465:\n        /* \"#utility.yul\":8410:8414   */\n      0x00\n        /* \"#utility.yul\":8442:8446   */\n      0x20\n        /* \"#utility.yul\":8437:8440   */\n      dup3\n        /* \"#utility.yul\":8433:8447   */\n      add\n        /* \"#utility.yul\":8425:8447   */\n      swap1\n      pop\n        /* \"#utility.yul\":8340:8453   */\n      swap2\n      swap1\n      pop\n      jump\t// out\n        /* \"#utility.yul\":8489:9221   */\n    tag_466:\n        /* \"#utility.yul\":8608:8611   */\n      0x00\n        /* \"#utility.yul\":8637:8691   */\n      tag_633\n        /* \"#utility.yul\":8685:8690   */\n      dup3\n        /* \"#utility.yul\":8637:8691   */\n      tag_460\n      jump\t// in\n    tag_633:\n        /* \"#utility.yul\":8707:8793   */\n      tag_634\n        /* \"#utility.yul\":8786:8792   */\n      dup2\n        /* \"#utility.yul\":8781:8784   */\n      dup6\n        /* \"#utility.yul\":8707:8793   */\n      tag_461\n      jump\t// in\n    tag_634:\n        /* \"#utility.yul\":8700:8793   */\n      swap4\n      pop\n        /* \"#utility.yul\":8817:8873   */\n      tag_635\n        /* \"#utility.yul\":8867:8872   */\n      dup4\n        /* \"#utility.yul\":8817:8873   */\n      tag_462\n      jump\t// in\n    tag_635:\n        /* \"#utility.yul\":8896:8903   */\n      dup1\n        /* \"#utility.yul\":8927:8928   */\n      0x00\n        /* \"#utility.yul\":8912:9196   */\n    tag_636:\n        /* \"#utility.yul\":8937:8943   */\n      dup4\n        /* \"#utility.yul\":8934:8935   */\n      dup2\n        /* \"#utility.yul\":8931:8944   */\n      lt\n        /* \"#utility.yul\":8912:9196   */\n      iszero\n      tag_638\n      jumpi\n        /* \"#utility.yul\":9013:9019   */\n      dup2\n        /* \"#utility.yul\":9007:9020   */\n      mload\n        /* \"#utility.yul\":9040:9103   */\n      tag_639\n        /* \"#utility.yul\":9099:9102   */\n      dup9\n        /* \"#utility.yul\":9084:9097   */\n      dup3\n        /* \"#utility.yul\":9040:9103   */\n      tag_464\n      jump\t// in\n    tag_639:\n        /* \"#utility.yul\":9033:9103   */\n      swap8\n      pop\n        /* \"#utility.yul\":9126:9186   */\n      tag_640\n        /* \"#utility.yul\":9179:9185   */\n      dup4\n        /* \"#utility.yul\":9126:9186   */\n      tag_465\n      jump\t// in\n    tag_640:\n        /* \"#utility.yul\":9116:9186   */\n      swap3\n      pop\n        /* \"#utility.yul\":8972:9196   */\n      pop\n        /* \"#utility.yul\":8959:8960   */\n      0x01\n        /* \"#utility.yul\":8956:8957   */\n      dup2\n        /* \"#utility.yul\":8952:8961   */\n      add\n        /* \"#utility.yul\":8947:8961   */\n      swap1\n      pop\n        /* \"#utility.yul\":8912:9196   */\n      jump(tag_636)\n    tag_638:\n        /* \"#utility.yul\":8916:8930   */\n      pop\n        /* \"#utility.yul\":9212:9215   */\n      dup6\n        /* \"#utility.yul\":9205:9215   */\n      swap4\n      pop\n        /* \"#utility.yul\":8613:9221   */\n      pop\n      pop\n      pop\n        /* \"#utility.yul\":8489:9221   */\n      swap3\n      swap2\n      pop\n      pop\n      jump\t// out\n        /* \"#utility.yul\":9227:9600   */\n    tag_53:\n        /* \"#utility.yul\":9370:9374   */\n      0x00\n        /* \"#utility.yul\":9408:9410   */\n      0x20\n        /* \"#utility.yul\":9397:9406   */\n      dup3\n        /* \"#utility.yul\":9393:9411   */\n      add\n        /* \"#utility.yul\":9385:9411   */\n      swap1\n      pop\n        /* \"#utility.yul\":9457:9466   */\n      dup2\n        /* \"#utility.yul\":9451:9455   */\n      dup2\n        /* \"#utility.yul\":9447:9467   */\n      sub\n        /* \"#utility.yul\":9443:9444   */\n      0x00\n        /* \"#utility.yul\":9432:9441   */\n      dup4\n        /* \"#utility.yul\":9428:9445   */\n      add\n        /* \"#utility.yul\":9421:9468   */\n      mstore\n        /* \"#utility.yul\":9485:9593   */\n      tag_642\n        /* \"#utility.yul\":9588:9592   */\n      dup2\n        /* \"#utility.yul\":9579:9585   */\n      dup5\n        /* \"#utility.yul\":9485:9593   */\n      tag_466\n      jump\t// in\n    tag_642:\n        /* \"#utility.yul\":9477:9593   */\n      swap1\n      pop\n        /* \"#utility.yul\":9227:9600   */\n      swap3\n      swap2\n      pop\n      pop\n      jump\t// out\n        /* \"#utility.yul\":9606:9935   */\n    tag_56:\n        /* \"#utility.yul\":9665:9671   */\n      0x00\n        /* \"#utility.yul\":9714:9716   */\n      0x20\n        /* \"#utility.yul\":9702:9711   */\n      dup3\n        /* \"#utility.yul\":9693:9700   */\n      dup5\n        /* \"#utility.yul\":9689:9712   */\n      sub\n        /* \"#utility.yul\":9685:9717   */\n      slt\n        /* \"#utility.yul\":9682:9801   */\n      iszero\n      tag_644\n      jumpi\n        /* \"#utility.yul\":9720:9799   */\n      tag_645\n      tag_434\n      jump\t// in\n    tag_645:\n        /* \"#utility.yul\":9682:9801   */\n    tag_644:\n        /* \"#utility.yul\":9840:9841   */\n      0x00\n        /* \"#utility.yul\":9865:9918   */\n      tag_646\n        /* \"#utility.yul\":9910:9917   */\n      dup5\n        /* \"#utility.yul\":9901:9907   */\n      dup3\n        /* \"#utility.yul\":9890:9899   */\n      dup6\n        /* \"#utility.yul\":9886:9908   */\n      add\n        /* \"#utility.yul\":9865:9918   */\n      tag_447\n      jump\t// in\n    tag_646:\n        /* \"#utility.yul\":9855:9918   */\n      swap2\n      pop\n        /* \"#utility.yul\":9811:9928   */\n      pop\n        /* \"#utility.yul\":9606:9935   */\n      swap3\n      swap2\n      pop\n      pop\n      jump\t// out\n        /* \"#utility.yul\":9941:10031   */\n    tag_467:\n        /* \"#utility.yul\":9975:9982   */\n      0x00\n        /* \"#utility.yul\":10018:10023   */\n      dup2\n        /* \"#utility.yul\":10011:10024   */\n      iszero\n        /* \"#utility.yul\":10004:10025   */\n      iszero\n        /* \"#utility.yul\":9993:10025   */\n      swap1\n      pop\n        /* \"#utility.yul\":9941:10031   */\n      swap2\n      swap1\n      pop\n      jump\t// out\n        /* \"#utility.yul\":10037:10146   */\n    tag_468:\n        /* \"#utility.yul\":10118:10139   */\n      tag_649\n        /* \"#utility.yul\":10133:10138   */\n      dup2\n        /* \"#utility.yul\":10118:10139   */\n      tag_467\n      jump\t// in\n    tag_649:\n        /* \"#utility.yul\":10113:10116   */\n      dup3\n        /* \"#utility.yul\":10106:10140   */\n      mstore\n        /* \"#utility.yul\":10037:10146   */\n      pop\n      pop\n      jump\t// out\n        /* \"#utility.yul\":10152:10362   */\n    tag_59:\n        /* \"#utility.yul\":10239:10243   */\n      0x00\n        /* \"#utility.yul\":10277:10279   */\n      0x20\n        /* \"#utility.yul\":10266:10275   */\n      dup3\n        /* \"#utility.yul\":10262:10280   */\n      add\n        /* \"#utility.yul\":10254:10280   */\n      swap1\n      pop\n        /* \"#utility.yul\":10290:10355   */\n      tag_651\n        /* \"#utility.yul\":10352:10353   */\n      0x00\n        /* \"#utility.yul\":10341:10350   */\n      dup4\n        /* \"#utility.yul\":10337:10354   */\n      add\n        /* \"#utility.yul\":10328:10334   */\n      dup5\n        /* \"#utility.yul\":10290:10355   */\n      tag_468\n      jump\t// in\n    tag_651:\n        /* \"#utility.yul\":10152:10362   */\n      swap3\n      swap2\n      pop\n      pop\n      jump\t// out\n        /* \"#utility.yul\":10368:10467   */\n    tag_469:\n        /* \"#utility.yul\":10420:10426   */\n      0x00\n        /* \"#utility.yul\":10454:10459   */\n      dup2\n        /* \"#utility.yul\":10448:10460   */\n      mload\n        /* \"#utility.yul\":10438:10460   */\n      swap1\n      pop\n        /* \"#utility.yul\":10368:10467   */\n      swap2\n      swap1\n      pop\n      jump\t// out\n        /* \"#utility.yul\":10473:10642   */\n    tag_470:\n        /* \"#utility.yul\":10557:10568   */\n      0x00\n        /* \"#utility.yul\":10591:10597   */\n      dup3\n        /* \"#utility.yul\":10586:10589   */\n      dup3\n        /* \"#utility.yul\":10579:10598   */\n      mstore\n        /* \"#utility.yul\":10631:10635   */\n      0x20\n        /* \"#utility.yul\":10626:10629   */\n      dup3\n        /* \"#utility.yul\":10622:10636   */\n      add\n        /* \"#utility.yul\":10607:10636   */\n      swap1\n      pop\n        /* \"#utility.yul\":10473:10642   */\n      swap3\n      swap2\n      pop\n      pop\n      jump\t// out\n        /* \"#utility.yul\":10648:10894   */\n    tag_471:\n        /* \"#utility.yul\":10729:10730   */\n      0x00\n        /* \"#utility.yul\":10739:10852   */\n    tag_655:\n        /* \"#utility.yul\":10753:10759   */\n      dup4\n        /* \"#utility.yul\":10750:10751   */\n      dup2\n        /* \"#utility.yul\":10747:10760   */\n      lt\n        /* \"#utility.yul\":10739:10852   */\n      iszero\n      tag_657\n      jumpi\n        /* \"#utility.yul\":10838:10839   */\n      dup1\n        /* \"#utility.yul\":10833:10836   */\n      dup3\n        /* \"#utility.yul\":10829:10840   */\n      add\n        /* \"#utility.yul\":10823:10841   */\n      mload\n        /* \"#utility.yul\":10819:10820   */\n      dup2\n        /* \"#utility.yul\":10814:10817   */\n      dup5\n        /* \"#utility.yul\":10810:10821   */\n      add\n        /* \"#utility.yul\":10803:10842   */\n      mstore\n        /* \"#utility.yul\":10775:10777   */\n      0x20\n        /* \"#utility.yul\":10772:10773   */\n      dup2\n        /* \"#utility.yul\":10768:10778   */\n      add\n        /* \"#utility.yul\":10763:10778   */\n      swap1\n      pop\n        /* \"#utility.yul\":10739:10852   */\n      jump(tag_655)\n    tag_657:\n        /* \"#utility.yul\":10886:10887   */\n      0x00\n        /* \"#utility.yul\":10877:10883   */\n      dup5\n        /* \"#utility.yul\":10872:10875   */\n      dup5\n        /* \"#utility.yul\":10868:10884   */\n      add\n        /* \"#utility.yul\":10861:10888   */\n      mstore\n        /* \"#utility.yul\":10710:10894   */\n      pop\n        /* \"#utility.yul\":10648:10894   */\n      pop\n      pop\n      pop\n      jump\t// out\n        /* \"#utility.yul\":10900:11277   */\n    tag_472:\n        /* \"#utility.yul\":10988:10991   */\n      0x00\n        /* \"#utility.yul\":11016:11055   */\n      tag_659\n        /* \"#utility.yul\":11049:11054   */\n      dup3\n        /* \"#utility.yul\":11016:11055   */\n      tag_469\n      jump\t// in\n    tag_659:\n        /* \"#utility.yul\":11071:11142   */\n      tag_660\n        /* \"#utility.yul\":11135:11141   */\n      dup2\n        /* \"#utility.yul\":11130:11133   */\n      dup6\n        /* \"#utility.yul\":11071:11142   */\n      tag_470\n      jump\t// in\n    tag_660:\n        /* \"#utility.yul\":11064:11142   */\n      swap4\n      pop\n        /* \"#utility.yul\":11151:11216   */\n      tag_661\n        /* \"#utility.yul\":11209:11215   */\n      dup2\n        /* \"#utility.yul\":11204:11207   */\n      dup6\n        /* \"#utility.yul\":11197:11201   */\n      0x20\n        /* \"#utility.yul\":11190:11195   */\n      dup7\n        /* \"#utility.yul\":11186:11202   */\n      add\n        /* \"#utility.yul\":11151:11216   */\n      tag_471\n      jump\t// in\n    tag_661:\n        /* \"#utility.yul\":11241:11270   */\n      tag_662\n        /* \"#utility.yul\":11263:11269   */\n      dup2\n        /* \"#utility.yul\":11241:11270   */\n      tag_440\n      jump\t// in\n    tag_662:\n        /* \"#utility.yul\":11236:11239   */\n      dup5\n        /* \"#utility.yul\":11232:11271   */\n      add\n        /* \"#utility.yul\":11225:11271   */\n      swap2\n      pop\n        /* \"#utility.yul\":10992:11277   */\n      pop\n        /* \"#utility.yul\":10900:11277   */\n      swap3\n      swap2\n      pop\n      pop\n      jump\t// out\n        /* \"#utility.yul\":11283:11596   */\n    tag_67:\n        /* \"#utility.yul\":11396:11400   */\n      0x00\n        /* \"#utility.yul\":11434:11436   */\n      0x20\n        /* \"#utility.yul\":11423:11432   */\n      dup3\n        /* \"#utility.yul\":11419:11437   */\n      add\n        /* \"#utility.yul\":11411:11437   */\n      swap1\n      pop\n        /* \"#utility.yul\":11483:11492   */\n      dup2\n        /* \"#utility.yul\":11477:11481   */\n      dup2\n        /* \"#utility.yul\":11473:11493   */\n      sub\n        /* \"#utility.yul\":11469:11470   */\n      0x00\n        /* \"#utility.yul\":11458:11467   */\n      dup4\n        /* \"#utility.yul\":11454:11471   */\n      add\n        /* \"#utility.yul\":11447:11494   */\n      mstore\n        /* \"#utility.yul\":11511:11589   */\n      tag_664\n        /* \"#utility.yul\":11584:11588   */\n      dup2\n        /* \"#utility.yul\":11575:11581   */\n      dup5\n        /* \"#utility.yul\":11511:11589   */\n      tag_472\n      jump\t// in\n    tag_664:\n        /* \"#utility.yul\":11503:11589   */\n      swap1\n      pop\n        /* \"#utility.yul\":11283:11596   */\n      swap3\n      swap2\n      pop\n      pop\n      jump\t// out\n        /* \"#utility.yul\":11602:11931   */\n    tag_96:\n        /* \"#utility.yul\":11661:11667   */\n      0x00\n        /* \"#utility.yul\":11710:11712   */\n      0x20\n        /* \"#utility.yul\":11698:11707   */\n      dup3\n        /* \"#utility.yul\":11689:11696   */\n      dup5\n        /* \"#utility.yul\":11685:11708   */\n      sub\n        /* \"#utility.yul\":11681:11713   */\n      slt\n        /* \"#utility.yul\":11678:11797   */\n      iszero\n      tag_666\n      jumpi\n        /* \"#utility.yul\":11716:11795   */\n      tag_667\n      tag_434\n      jump\t// in\n    tag_667:\n        /* \"#utility.yul\":11678:11797   */\n    tag_666:\n        /* \"#utility.yul\":11836:11837   */\n      0x00\n        /* \"#utility.yul\":11861:11914   */\n      tag_668\n        /* \"#utility.yul\":11906:11913   */\n      dup5\n        /* \"#utility.yul\":11897:11903   */\n      dup3\n        /* \"#utility.yul\":11886:11895   */\n      dup6\n        /* \"#utility.yul\":11882:11904   */\n      add\n        /* \"#utility.yul\":11861:11914   */\n      tag_453\n      jump\t// in\n    tag_668:\n        /* \"#utility.yul\":11851:11914   */\n      swap2\n      pop\n        /* \"#utility.yul\":11807:11924   */\n      pop\n        /* \"#utility.yul\":11602:11931   */\n      swap3\n      swap2\n      pop\n      pop\n      jump\t// out\n        /* \"#utility.yul\":11937:12411   */\n    tag_101:\n        /* \"#utility.yul\":12005:12011   */\n      0x00\n        /* \"#utility.yul\":12013:12019   */\n      dup1\n        /* \"#utility.yul\":12062:12064   */\n      0x40\n        /* \"#utility.yul\":12050:12059   */\n      dup4\n        /* \"#utility.yul\":12041:12048   */\n      dup6\n        /* \"#utility.yul\":12037:12060   */\n      sub\n        /* \"#utility.yul\":12033:12065   */\n      slt\n        /* \"#utility.yul\":12030:12149   */\n      iszero\n      tag_670\n      jumpi\n        /* \"#utility.yul\":12068:12147   */\n      tag_671\n      tag_434\n      jump\t// in\n    tag_671:\n        /* \"#utility.yul\":12030:12149   */\n    tag_670:\n        /* \"#utility.yul\":12188:12189   */\n      0x00\n        /* \"#utility.yul\":12213:12266   */\n      tag_672\n        /* \"#utility.yul\":12258:12265   */\n      dup6\n        /* \"#utility.yul\":12249:12255   */\n      dup3\n        /* \"#utility.yul\":12238:12247   */\n      dup7\n        /* \"#utility.yul\":12234:12256   */\n      add\n        /* \"#utility.yul\":12213:12266   */\n      tag_438\n      jump\t// in\n    tag_672:\n        /* \"#utility.yul\":12203:12266   */\n      swap3\n      pop\n        /* \"#utility.yul\":12159:12276   */\n      pop\n        /* \"#utility.yul\":12315:12317   */\n      0x20\n        /* \"#utility.yul\":12341:12394   */\n      tag_673\n        /* \"#utility.yul\":12386:12393   */\n      dup6\n        /* \"#utility.yul\":12377:12383   */\n      dup3\n        /* \"#utility.yul\":12366:12375   */\n      dup7\n        /* \"#utility.yul\":12362:12384   */\n      add\n        /* \"#utility.yul\":12341:12394   */\n      tag_453\n      jump\t// in\n    tag_673:\n        /* \"#utility.yul\":12331:12394   */\n      swap2\n      pop\n        /* \"#utility.yul\":12286:12404   */\n      pop\n        /* \"#utility.yul\":11937:12411   */\n      swap3\n      pop\n      swap3\n      swap1\n      pop\n      jump\t// out\n        /* \"#utility.yul\":12417:12891   */\n    tag_105:\n        /* \"#utility.yul\":12485:12491   */\n      0x00\n        /* \"#utility.yul\":12493:12499   */\n      dup1\n        /* \"#utility.yul\":12542:12544   */\n      0x40\n        /* \"#utility.yul\":12530:12539   */\n      dup4\n        /* \"#utility.yul\":12521:12528   */\n      dup6\n        /* \"#utility.yul\":12517:12540   */\n      sub\n        /* \"#utility.yul\":12513:12545   */\n      slt\n        /* \"#utility.yul\":12510:12629   */\n      iszero\n      tag_675\n      jumpi\n        /* \"#utility.yul\":12548:12627   */\n      tag_676\n      tag_434\n      jump\t// in\n    tag_676:\n        /* \"#utility.yul\":12510:12629   */\n    tag_675:\n        /* \"#utility.yul\":12668:12669   */\n      0x00\n        /* \"#utility.yul\":12693:12746   */\n      tag_677\n        /* \"#utility.yul\":12738:12745   */\n      dup6\n        /* \"#utility.yul\":12729:12735   */\n      dup3\n        /* \"#utility.yul\":12718:12727   */\n      dup7\n        /* \"#utility.yul\":12714:12736   */\n      add\n        /* \"#utility.yul\":12693:12746   */\n      tag_447\n      jump\t// in\n    tag_677:\n        /* \"#utility.yul\":12683:12746   */\n      swap3\n      pop\n        /* \"#utility.yul\":12639:12756   */\n      pop\n        /* \"#utility.yul\":12795:12797   */\n      0x20\n        /* \"#utility.yul\":12821:12874   */\n      tag_678\n        /* \"#utility.yul\":12866:12873   */\n      dup6\n        /* \"#utility.yul\":12857:12863   */\n      dup3\n        /* \"#utility.yul\":12846:12855   */\n      dup7\n        /* \"#utility.yul\":12842:12864   */\n      add\n        /* \"#utility.yul\":12821:12874   */\n      tag_447\n      jump\t// in\n    tag_678:\n        /* \"#utility.yul\":12811:12874   */\n      swap2\n      pop\n        /* \"#utility.yul\":12766:12884   */\n      pop\n        /* \"#utility.yul\":12417:12891   */\n      swap3\n      pop\n      swap3\n      swap1\n      pop\n      jump\t// out\n        /* \"#utility.yul\":12897:13015   */\n    tag_473:\n        /* \"#utility.yul\":12984:13008   */\n      tag_680\n        /* \"#utility.yul\":13002:13007   */\n      dup2\n        /* \"#utility.yul\":12984:13008   */\n      tag_451\n      jump\t// in\n    tag_680:\n        /* \"#utility.yul\":12979:12982   */\n      dup3\n        /* \"#utility.yul\":12972:13009   */\n      mstore\n        /* \"#utility.yul\":12897:13015   */\n      pop\n      pop\n      jump\t// out\n        /* \"#utility.yul\":13021:13243   */\n    tag_110:\n        /* \"#utility.yul\":13114:13118   */\n      0x00\n        /* \"#utility.yul\":13152:13154   */\n      0x20\n        /* \"#utility.yul\":13141:13150   */\n      dup3\n        /* \"#utility.yul\":13137:13155   */\n      add\n        /* \"#utility.yul\":13129:13155   */\n      swap1\n      pop\n        /* \"#utility.yul\":13165:13236   */\n      tag_682\n        /* \"#utility.yul\":13233:13234   */\n      0x00\n        /* \"#utility.yul\":13222:13231   */\n      dup4\n        /* \"#utility.yul\":13218:13235   */\n      add\n        /* \"#utility.yul\":13209:13215   */\n      dup5\n        /* \"#utility.yul\":13165:13236   */\n      tag_473\n      jump\t// in\n    tag_682:\n        /* \"#utility.yul\":13021:13243   */\n      swap3\n      swap2\n      pop\n      pop\n      jump\t// out\n        /* \"#utility.yul\":13249:14004   */\n    tag_123:\n        /* \"#utility.yul\":13474:13478   */\n      0x00\n        /* \"#utility.yul\":13512:13515   */\n      0xa0\n        /* \"#utility.yul\":13501:13510   */\n      dup3\n        /* \"#utility.yul\":13497:13516   */\n      add\n        /* \"#utility.yul\":13489:13516   */\n      swap1\n      pop\n        /* \"#utility.yul\":13526:13597   */\n      tag_684\n        /* \"#utility.yul\":13594:13595   */\n      0x00\n        /* \"#utility.yul\":13583:13592   */\n      dup4\n        /* \"#utility.yul\":13579:13596   */\n      add\n        /* \"#utility.yul\":13570:13576   */\n      dup9\n        /* \"#utility.yul\":13526:13597   */\n      tag_473\n      jump\t// in\n    tag_684:\n        /* \"#utility.yul\":13607:13679   */\n      tag_685\n        /* \"#utility.yul\":13675:13677   */\n      0x20\n        /* \"#utility.yul\":13664:13673   */\n      dup4\n        /* \"#utility.yul\":13660:13678   */\n      add\n        /* \"#utility.yul\":13651:13657   */\n      dup8\n        /* \"#utility.yul\":13607:13679   */\n      tag_459\n      jump\t// in\n    tag_685:\n        /* \"#utility.yul\":13689:13761   */\n      tag_686\n        /* \"#utility.yul\":13757:13759   */\n      0x40\n        /* \"#utility.yul\":13746:13755   */\n      dup4\n        /* \"#utility.yul\":13742:13760   */\n      add\n        /* \"#utility.yul\":13733:13739   */\n      dup7\n        /* \"#utility.yul\":13689:13761   */\n      tag_459\n      jump\t// in\n    tag_686:\n        /* \"#utility.yul\":13771:13843   */\n      tag_687\n        /* \"#utility.yul\":13839:13841   */\n      0x60\n        /* \"#utility.yul\":13828:13837   */\n      dup4\n        /* \"#utility.yul\":13824:13842   */\n      add\n        /* \"#utility.yul\":13815:13821   */\n      dup6\n        /* \"#utility.yul\":13771:13843   */\n      tag_459\n      jump\t// in\n    tag_687:\n        /* \"#utility.yul\":13891:13900   */\n      dup2\n        /* \"#utility.yul\":13885:13889   */\n      dup2\n        /* \"#utility.yul\":13881:13901   */\n      sub\n        /* \"#utility.yul\":13875:13878   */\n      0x80\n        /* \"#utility.yul\":13864:13873   */\n      dup4\n        /* \"#utility.yul\":13860:13879   */\n      add\n        /* \"#utility.yul\":13853:13902   */\n      mstore\n        /* \"#utility.yul\":13919:13997   */\n      tag_688\n        /* \"#utility.yul\":13992:13996   */\n      dup2\n        /* \"#utility.yul\":13983:13989   */\n      dup5\n        /* \"#utility.yul\":13919:13997   */\n      tag_472\n      jump\t// in\n    tag_688:\n        /* \"#utility.yul\":13911:13997   */\n      swap1\n      pop\n        /* \"#utility.yul\":13249:14004   */\n      swap7\n      swap6\n      pop\n      pop\n      pop\n      pop\n      pop\n      pop\n      jump\t// out\n        /* \"#utility.yul\":14010:14124   */\n    tag_474:\n        /* \"#utility.yul\":14077:14083   */\n      0x00\n        /* \"#utility.yul\":14111:14116   */\n      dup2\n        /* \"#utility.yul\":14105:14117   */\n      mload\n        /* \"#utility.yul\":14095:14117   */\n      swap1\n      pop\n        /* \"#utility.yul\":14010:14124   */\n      swap2\n      swap1\n      pop\n      jump\t// out\n        /* \"#utility.yul\":14130:14314   */\n    tag_475:\n        /* \"#utility.yul\":14229:14240   */\n      0x00\n        /* \"#utility.yul\":14263:14269   */\n      dup3\n        /* \"#utility.yul\":14258:14261   */\n      dup3\n        /* \"#utility.yul\":14251:14270   */\n      mstore\n        /* \"#utility.yul\":14303:14307   */\n      0x20\n        /* \"#utility.yul\":14298:14301   */\n      dup3\n        /* \"#utility.yul\":14294:14308   */\n      add\n        /* \"#utility.yul\":14279:14308   */\n      swap1\n      pop\n        /* \"#utility.yul\":14130:14314   */\n      swap3\n      swap2\n      pop\n      pop\n      jump\t// out\n        /* \"#utility.yul\":14320:14452   */\n    tag_476:\n        /* \"#utility.yul\":14387:14391   */\n      0x00\n        /* \"#utility.yul\":14410:14413   */\n      dup2\n        /* \"#utility.yul\":14402:14413   */\n      swap1\n      pop\n        /* \"#utility.yul\":14440:14444   */\n      0x20\n        /* \"#utility.yul\":14435:14438   */\n      dup3\n        /* \"#utility.yul\":14431:14445   */\n      add\n        /* \"#utility.yul\":14423:14445   */\n      swap1\n      pop\n        /* \"#utility.yul\":14320:14452   */\n      swap2\n      swap1\n      pop\n      jump\t// out\n        /* \"#utility.yul\":14458:14566   */\n    tag_477:\n        /* \"#utility.yul\":14535:14559   */\n      tag_693\n        /* \"#utility.yul\":14553:14558   */\n      dup2\n        /* \"#utility.yul\":14535:14559   */\n      tag_436\n      jump\t// in\n    tag_693:\n        /* \"#utility.yul\":14530:14533   */\n      dup3\n        /* \"#utility.yul\":14523:14560   */\n      mstore\n        /* \"#utility.yul\":14458:14566   */\n      pop\n      pop\n      jump\t// out\n        /* \"#utility.yul\":14572:14751   */\n    tag_478:\n        /* \"#utility.yul\":14641:14651   */\n      0x00\n        /* \"#utility.yul\":14662:14708   */\n      tag_695\n        /* \"#utility.yul\":14704:14707   */\n      dup4\n        /* \"#utility.yul\":14696:14702   */\n      dup4\n        /* \"#utility.yul\":14662:14708   */\n      tag_477\n      jump\t// in\n    tag_695:\n        /* \"#utility.yul\":14740:14744   */\n      0x20\n        /* \"#utility.yul\":14735:14738   */\n      dup4\n        /* \"#utility.yul\":14731:14745   */\n      add\n        /* \"#utility.yul\":14717:14745   */\n      swap1\n      pop\n        /* \"#utility.yul\":14572:14751   */\n      swap3\n      swap2\n      pop\n      pop\n      jump\t// out\n        /* \"#utility.yul\":14757:14870   */\n    tag_479:\n        /* \"#utility.yul\":14827:14831   */\n      0x00\n        /* \"#utility.yul\":14859:14863   */\n      0x20\n        /* \"#utility.yul\":14854:14857   */\n      dup3\n        /* \"#utility.yul\":14850:14864   */\n      add\n        /* \"#utility.yul\":14842:14864   */\n      swap1\n      pop\n        /* \"#utility.yul\":14757:14870   */\n      swap2\n      swap1\n      pop\n      jump\t// out\n        /* \"#utility.yul\":14906:15638   */\n    tag_480:\n        /* \"#utility.yul\":15025:15028   */\n      0x00\n        /* \"#utility.yul\":15054:15108   */\n      tag_698\n        /* \"#utility.yul\":15102:15107   */\n      dup3\n        /* \"#utility.yul\":15054:15108   */\n      tag_474\n      jump\t// in\n    tag_698:\n        /* \"#utility.yul\":15124:15210   */\n      tag_699\n        /* \"#utility.yul\":15203:15209   */\n      dup2\n        /* \"#utility.yul\":15198:15201   */\n      dup6\n        /* \"#utility.yul\":15124:15210   */\n      tag_475\n      jump\t// in\n    tag_699:\n        /* \"#utility.yul\":15117:15210   */\n      swap4\n      pop\n        /* \"#utility.yul\":15234:15290   */\n      tag_700\n        /* \"#utility.yul\":15284:15289   */\n      dup4\n        /* \"#utility.yul\":15234:15290   */\n      tag_476\n      jump\t// in\n    tag_700:\n        /* \"#utility.yul\":15313:15320   */\n      dup1\n        /* \"#utility.yul\":15344:15345   */\n      0x00\n        /* \"#utility.yul\":15329:15613   */\n    tag_701:\n        /* \"#utility.yul\":15354:15360   */\n      dup4\n        /* \"#utility.yul\":15351:15352   */\n      dup2\n        /* \"#utility.yul\":15348:15361   */\n      lt\n        /* \"#utility.yul\":15329:15613   */\n      iszero\n      tag_703\n      jumpi\n        /* \"#utility.yul\":15430:15436   */\n      dup2\n        /* \"#utility.yul\":15424:15437   */\n      mload\n        /* \"#utility.yul\":15457:15520   */\n      tag_704\n        /* \"#utility.yul\":15516:15519   */\n      dup9\n        /* \"#utility.yul\":15501:15514   */\n      dup3\n        /* \"#utility.yul\":15457:15520   */\n      tag_478\n      jump\t// in\n    tag_704:\n        /* \"#utility.yul\":15450:15520   */\n      swap8\n      pop\n        /* \"#utility.yul\":15543:15603   */\n      tag_705\n        /* \"#utility.yul\":15596:15602   */\n      dup4\n        /* \"#utility.yul\":15543:15603   */\n      tag_479\n      jump\t// in\n    tag_705:\n        /* \"#utility.yul\":15533:15603   */\n      swap3\n      pop\n        /* \"#utility.yul\":15389:15613   */\n      pop\n        /* \"#utility.yul\":15376:15377   */\n      0x01\n        /* \"#utility.yul\":15373:15374   */\n      dup2\n        /* \"#utility.yul\":15369:15378   */\n      add\n        /* \"#utility.yul\":15364:15378   */\n      swap1\n      pop\n        /* \"#utility.yul\":15329:15613   */\n      jump(tag_701)\n    tag_703:\n        /* \"#utility.yul\":15333:15347   */\n      pop\n        /* \"#utility.yul\":15629:15632   */\n      dup6\n        /* \"#utility.yul\":15622:15632   */\n      swap4\n      pop\n        /* \"#utility.yul\":15030:15638   */\n      pop\n      pop\n      pop\n        /* \"#utility.yul\":14906:15638   */\n      swap3\n      swap2\n      pop\n      pop\n      jump\t// out\n        /* \"#utility.yul\":15644:16017   */\n    tag_145:\n        /* \"#utility.yul\":15787:15791   */\n      0x00\n        /* \"#utility.yul\":15825:15827   */\n      0x20\n        /* \"#utility.yul\":15814:15823   */\n      dup3\n        /* \"#utility.yul\":15810:15828   */\n      add\n        /* \"#utility.yul\":15802:15828   */\n      swap1\n      pop\n        /* \"#utility.yul\":15874:15883   */\n      dup2\n        /* \"#utility.yul\":15868:15872   */\n      dup2\n        /* \"#utility.yul\":15864:15884   */\n      sub\n        /* \"#utility.yul\":15860:15861   */\n      0x00\n        /* \"#utility.yul\":15849:15858   */\n      dup4\n        /* \"#utility.yul\":15845:15862   */\n      add\n        /* \"#utility.yul\":15838:15885   */\n      mstore\n        /* \"#utility.yul\":15902:16010   */\n      tag_707\n        /* \"#utility.yul\":16005:16009   */\n      dup2\n        /* \"#utility.yul\":15996:16002   */\n      dup5\n        /* \"#utility.yul\":15902:16010   */\n      tag_480\n      jump\t// in\n    tag_707:\n        /* \"#utility.yul\":15894:16010   */\n      swap1\n      pop\n        /* \"#utility.yul\":15644:16017   */\n      swap3\n      swap2\n      pop\n      pop\n      jump\t// out\n        /* \"#utility.yul\":16023:16263   */\n    tag_481:\n        /* \"#utility.yul\":16163:16197   */\n      0x43616c6c6572206973206e6f74207468652066696c65206f776e6572206f7220\n        /* \"#utility.yul\":16159:16160   */\n      0x00\n        /* \"#utility.yul\":16151:16157   */\n      dup3\n        /* \"#utility.yul\":16147:16161   */\n      add\n        /* \"#utility.yul\":16140:16198   */\n      mstore\n        /* \"#utility.yul\":16232:16255   */\n      0x646f6573206e6f74206861766520636f6e73656e740000000000000000000000\n        /* \"#utility.yul\":16227:16229   */\n      0x20\n        /* \"#utility.yul\":16219:16225   */\n      dup3\n        /* \"#utility.yul\":16215:16230   */\n      add\n        /* \"#utility.yul\":16208:16256   */\n      mstore\n        /* \"#utility.yul\":16023:16263   */\n      pop\n      jump\t// out\n        /* \"#utility.yul\":16269:16635   */\n    tag_482:\n        /* \"#utility.yul\":16411:16414   */\n      0x00\n        /* \"#utility.yul\":16432:16499   */\n      tag_710\n        /* \"#utility.yul\":16496:16498   */\n      0x35\n        /* \"#utility.yul\":16491:16494   */\n      dup4\n        /* \"#utility.yul\":16432:16499   */\n      tag_470\n      jump\t// in\n    tag_710:\n        /* \"#utility.yul\":16425:16499   */\n      swap2\n      pop\n        /* \"#utility.yul\":16508:16601   */\n      tag_711\n        /* \"#utility.yul\":16597:16600   */\n      dup3\n        /* \"#utility.yul\":16508:16601   */\n      tag_481\n      jump\t// in\n    tag_711:\n        /* \"#utility.yul\":16626:16628   */\n      0x40\n        /* \"#utility.yul\":16621:16624   */\n      dup3\n        /* \"#utility.yul\":16617:16629   */\n      add\n        /* \"#utility.yul\":16610:16629   */\n      swap1\n      pop\n        /* \"#utility.yul\":16269:16635   */\n      swap2\n      swap1\n      pop\n      jump\t// out\n        /* \"#utility.yul\":16641:17060   */\n    tag_154:\n        /* \"#utility.yul\":16807:16811   */\n      0x00\n        /* \"#utility.yul\":16845:16847   */\n      0x20\n        /* \"#utility.yul\":16834:16843   */\n      dup3\n        /* \"#utility.yul\":16830:16848   */\n      add\n        /* \"#utility.yul\":16822:16848   */\n      swap1\n      pop\n        /* \"#utility.yul\":16894:16903   */\n      dup2\n        /* \"#utility.yul\":16888:16892   */\n      dup2\n        /* \"#utility.yul\":16884:16904   */\n      sub\n        /* \"#utility.yul\":16880:16881   */\n      0x00\n        /* \"#utility.yul\":16869:16878   */\n      dup4\n        /* \"#utility.yul\":16865:16882   */\n      add\n        /* \"#utility.yul\":16858:16905   */\n      mstore\n        /* \"#utility.yul\":16922:17053   */\n      tag_713\n        /* \"#utility.yul\":17048:17052   */\n      dup2\n        /* \"#utility.yul\":16922:17053   */\n      tag_482\n      jump\t// in\n    tag_713:\n        /* \"#utility.yul\":16914:17053   */\n      swap1\n      pop\n        /* \"#utility.yul\":16641:17060   */\n      swap2\n      swap1\n      pop\n      jump\t// out\n        /* \"#utility.yul\":17066:17243   */\n    tag_483:\n        /* \"#utility.yul\":17206:17235   */\n      0x536861726420494473206d757374206e6f7420626520656d7074790000000000\n        /* \"#utility.yul\":17202:17203   */\n      0x00\n        /* \"#utility.yul\":17194:17200   */\n      dup3\n        /* \"#utility.yul\":17190:17204   */\n      add\n        /* \"#utility.yul\":17183:17236   */\n      mstore\n        /* \"#utility.yul\":17066:17243   */\n      pop\n      jump\t// out\n        /* \"#utility.yul\":17249:17615   */\n    tag_484:\n        /* \"#utility.yul\":17391:17394   */\n      0x00\n        /* \"#utility.yul\":17412:17479   */\n      tag_716\n        /* \"#utility.yul\":17476:17478   */\n      0x1b\n        /* \"#utility.yul\":17471:17474   */\n      dup4\n        /* \"#utility.yul\":17412:17479   */\n      tag_470\n      jump\t// in\n    tag_716:\n        /* \"#utility.yul\":17405:17479   */\n      swap2\n      pop\n        /* \"#utility.yul\":17488:17581   */\n      tag_717\n        /* \"#utility.yul\":17577:17580   */\n      dup3\n        /* \"#utility.yul\":17488:17581   */\n      tag_483\n      jump\t// in\n    tag_717:\n        /* \"#utility.yul\":17606:17608   */\n      0x20\n        /* \"#utility.yul\":17601:17604   */\n      dup3\n        /* \"#utility.yul\":17597:17609   */\n      add\n        /* \"#utility.yul\":17590:17609   */\n      swap1\n      pop\n        /* \"#utility.yul\":17249:17615   */\n      swap2\n      swap1\n      pop\n      jump\t// out\n        /* \"#utility.yul\":17621:18040   */\n    tag_158:\n        /* \"#utility.yul\":17787:17791   */\n      0x00\n        /* \"#utility.yul\":17825:17827   */\n      0x20\n        /* \"#utility.yul\":17814:17823   */\n      dup3\n        /* \"#utility.yul\":17810:17828   */\n      add\n        /* \"#utility.yul\":17802:17828   */\n      swap1\n      pop\n        /* \"#utility.yul\":17874:17883   */\n      dup2\n        /* \"#utility.yul\":17868:17872   */\n      dup2\n        /* \"#utility.yul\":17864:17884   */\n      sub\n        /* \"#utility.yul\":17860:17861   */\n      0x00\n        /* \"#utility.yul\":17849:17858   */\n      dup4\n        /* \"#utility.yul\":17845:17862   */\n      add\n        /* \"#utility.yul\":17838:17885   */\n      mstore\n        /* \"#utility.yul\":17902:18033   */\n      tag_719\n        /* \"#utility.yul\":18028:18032   */\n      dup2\n        /* \"#utility.yul\":17902:18033   */\n      tag_484\n      jump\t// in\n    tag_719:\n        /* \"#utility.yul\":17894:18033   */\n      swap1\n      pop\n        /* \"#utility.yul\":17621:18040   */\n      swap2\n      swap1\n      pop\n      jump\t// out\n        /* \"#utility.yul\":18046:18226   */\n    tag_485:\n        /* \"#utility.yul\":18094:18171   */\n      0x4e487b7100000000000000000000000000000000000000000000000000000000\n        /* \"#utility.yul\":18091:18092   */\n      0x00\n        /* \"#utility.yul\":18084:18172   */\n      mstore\n        /* \"#utility.yul\":18191:18195   */\n      0x11\n        /* \"#utility.yul\":18188:18189   */\n      0x04\n        /* \"#utility.yul\":18181:18196   */\n      mstore\n        /* \"#utility.yul\":18215:18219   */\n      0x24\n        /* \"#utility.yul\":18212:18213   */\n      0x00\n        /* \"#utility.yul\":18205:18220   */\n      revert\n        /* \"#utility.yul\":18232:18423   */\n    tag_162:\n        /* \"#utility.yul\":18272:18275   */\n      0x00\n        /* \"#utility.yul\":18291:18311   */\n      tag_722\n        /* \"#utility.yul\":18309:18310   */\n      dup3\n        /* \"#utility.yul\":18291:18311   */\n      tag_445\n      jump\t// in\n    tag_722:\n        /* \"#utility.yul\":18286:18311   */\n      swap2\n      pop\n        /* \"#utility.yul\":18325:18345   */\n      tag_723\n        /* \"#utility.yul\":18343:18344   */\n      dup4\n        /* \"#utility.yul\":18325:18345   */\n      tag_445\n      jump\t// in\n    tag_723:\n        /* \"#utility.yul\":18320:18345   */\n      swap3\n      pop\n        /* \"#utility.yul\":18368:18369   */\n      dup3\n        /* \"#utility.yul\":18365:18366   */\n      dup3\n        /* \"#utility.yul\":18361:18370   */\n      add\n        /* \"#utility.yul\":18354:18370   */\n      swap1\n      pop\n        /* \"#utility.yul\":18389:18392   */\n      dup1\n        /* \"#utility.yul\":18386:18387   */\n      dup3\n        /* \"#utility.yul\":18383:18393   */\n      gt\n        /* \"#utility.yul\":18380:18416   */\n      iszero\n      tag_724\n      jumpi\n        /* \"#utility.yul\":18396:18414   */\n      tag_725\n      tag_485\n      jump\t// in\n    tag_725:\n        /* \"#utility.yul\":18380:18416   */\n    tag_724:\n        /* \"#utility.yul\":18232:18423   */\n      swap3\n      swap2\n      pop\n      pop\n      jump\t// out\n        /* \"#utility.yul\":18429:18790   */\n    tag_486:\n        /* \"#utility.yul\":18569:18603   */\n      0x53746f726167652050726f7669646572732063616e206f6e6c79206265206164\n        /* \"#utility.yul\":18565:18566   */\n      0x00\n        /* \"#utility.yul\":18557:18563   */\n      dup3\n        /* \"#utility.yul\":18553:18567   */\n      add\n        /* \"#utility.yul\":18546:18604   */\n      mstore\n        /* \"#utility.yul\":18638:18672   */\n      0x6465642062792074686520636f6e7472616374206f776e657227732061646472\n        /* \"#utility.yul\":18633:18635   */\n      0x20\n        /* \"#utility.yul\":18625:18631   */\n      dup3\n        /* \"#utility.yul\":18621:18636   */\n      add\n        /* \"#utility.yul\":18614:18673   */\n      mstore\n        /* \"#utility.yul\":18707:18741   */\n      0x657373206f72207468652061646472657373206265696e672072656769737465\n        /* \"#utility.yul\":18702:18704   */\n      0x40\n        /* \"#utility.yul\":18694:18700   */\n      dup3\n        /* \"#utility.yul\":18690:18705   */\n      add\n        /* \"#utility.yul\":18683:18742   */\n      mstore\n        /* \"#utility.yul\":18776:18782   */\n      0x7265642100000000000000000000000000000000000000000000000000000000\n        /* \"#utility.yul\":18771:18773   */\n      0x60\n        /* \"#utility.yul\":18763:18769   */\n      dup3\n        /* \"#utility.yul\":18759:18774   */\n      add\n        /* \"#utility.yul\":18752:18783   */\n      mstore\n        /* \"#utility.yul\":18429:18790   */\n      pop\n      jump\t// out\n        /* \"#utility.yul\":18796:19164   */\n    tag_487:\n        /* \"#utility.yul\":18938:18941   */\n      0x00\n        /* \"#utility.yul\":18959:19027   */\n      tag_728\n        /* \"#utility.yul\":19023:19026   */\n      0x64\n        /* \"#utility.yul\":19018:19021   */\n      dup4\n        /* \"#utility.yul\":18959:19027   */\n      tag_470\n      jump\t// in\n    tag_728:\n        /* \"#utility.yul\":18952:19027   */\n      swap2\n      pop\n        /* \"#utility.yul\":19036:19129   */\n      tag_729\n        /* \"#utility.yul\":19125:19128   */\n      dup3\n        /* \"#utility.yul\":19036:19129   */\n      tag_486\n      jump\t// in\n    tag_729:\n        /* \"#utility.yul\":19154:19157   */\n      0x80\n        /* \"#utility.yul\":19149:19152   */\n      dup3\n        /* \"#utility.yul\":19145:19158   */\n      add\n        /* \"#utility.yul\":19138:19158   */\n      swap1\n      pop\n        /* \"#utility.yul\":18796:19164   */\n      swap2\n      swap1\n      pop\n      jump\t// out\n        /* \"#utility.yul\":19170:19589   */\n    tag_168:\n        /* \"#utility.yul\":19336:19340   */\n      0x00\n        /* \"#utility.yul\":19374:19376   */\n      0x20\n        /* \"#utility.yul\":19363:19372   */\n      dup3\n        /* \"#utility.yul\":19359:19377   */\n      add\n        /* \"#utility.yul\":19351:19377   */\n      swap1\n      pop\n        /* \"#utility.yul\":19423:19432   */\n      dup2\n        /* \"#utility.yul\":19417:19421   */\n      dup2\n        /* \"#utility.yul\":19413:19433   */\n      sub\n        /* \"#utility.yul\":19409:19410   */\n      0x00\n        /* \"#utility.yul\":19398:19407   */\n      dup4\n        /* \"#utility.yul\":19394:19411   */\n      add\n        /* \"#utility.yul\":19387:19434   */\n      mstore\n        /* \"#utility.yul\":19451:19582   */\n      tag_731\n        /* \"#utility.yul\":19577:19581   */\n      dup2\n        /* \"#utility.yul\":19451:19582   */\n      tag_487\n      jump\t// in\n    tag_731:\n        /* \"#utility.yul\":19443:19582   */\n      swap1\n      pop\n        /* \"#utility.yul\":19170:19589   */\n      swap2\n      swap1\n      pop\n      jump\t// out\n        /* \"#utility.yul\":19595:19775   */\n    tag_488:\n        /* \"#utility.yul\":19643:19720   */\n      0x4e487b7100000000000000000000000000000000000000000000000000000000\n        /* \"#utility.yul\":19640:19641   */\n      0x00\n        /* \"#utility.yul\":19633:19721   */\n      mstore\n        /* \"#utility.yul\":19740:19744   */\n      0x22\n        /* \"#utility.yul\":19737:19738   */\n      0x04\n        /* \"#utility.yul\":19730:19745   */\n      mstore\n        /* \"#utility.yul\":19764:19768   */\n      0x24\n        /* \"#utility.yul\":19761:19762   */\n      0x00\n        /* \"#utility.yul\":19754:19769   */\n      revert\n        /* \"#utility.yul\":19781:20101   */\n    tag_228:\n        /* \"#utility.yul\":19825:19831   */\n      0x00\n        /* \"#utility.yul\":19862:19863   */\n      0x02\n        /* \"#utility.yul\":19856:19860   */\n      dup3\n        /* \"#utility.yul\":19852:19864   */\n      div\n        /* \"#utility.yul\":19842:19864   */\n      swap1\n      pop\n        /* \"#utility.yul\":19909:19910   */\n      0x01\n        /* \"#utility.yul\":19903:19907   */\n      dup3\n        /* \"#utility.yul\":19899:19911   */\n      and\n        /* \"#utility.yul\":19930:19948   */\n      dup1\n        /* \"#utility.yul\":19920:20001   */\n      tag_734\n      jumpi\n        /* \"#utility.yul\":19986:19990   */\n      0x7f\n        /* \"#utility.yul\":19978:19984   */\n      dup3\n        /* \"#utility.yul\":19974:19991   */\n      and\n        /* \"#utility.yul\":19964:19991   */\n      swap2\n      pop\n        /* \"#utility.yul\":19920:20001   */\n    tag_734:\n        /* \"#utility.yul\":20048:20050   */\n      0x20\n        /* \"#utility.yul\":20040:20046   */\n      dup3\n        /* \"#utility.yul\":20037:20051   */\n      lt\n        /* \"#utility.yul\":20017:20035   */\n      dup2\n        /* \"#utility.yul\":20014:20052   */\n      sub\n        /* \"#utility.yul\":20011:20095   */\n      tag_735\n      jumpi\n        /* \"#utility.yul\":20067:20085   */\n      tag_736\n      tag_488\n      jump\t// in\n    tag_736:\n        /* \"#utility.yul\":20011:20095   */\n    tag_735:\n        /* \"#utility.yul\":19832:20101   */\n      pop\n        /* \"#utility.yul\":19781:20101   */\n      swap2\n      swap1\n      pop\n      jump\t// out\n        /* \"#utility.yul\":20107:20248   */\n    tag_489:\n        /* \"#utility.yul\":20156:20160   */\n      0x00\n        /* \"#utility.yul\":20179:20182   */\n      dup2\n        /* \"#utility.yul\":20171:20182   */\n      swap1\n      pop\n        /* \"#utility.yul\":20202:20205   */\n      dup2\n        /* \"#utility.yul\":20199:20200   */\n      0x00\n        /* \"#utility.yul\":20192:20206   */\n      mstore\n        /* \"#utility.yul\":20236:20240   */\n      0x20\n        /* \"#utility.yul\":20233:20234   */\n      0x00\n        /* \"#utility.yul\":20223:20241   */\n      keccak256\n        /* \"#utility.yul\":20215:20241   */\n      swap1\n      pop\n        /* \"#utility.yul\":20107:20248   */\n      swap2\n      swap1\n      pop\n      jump\t// out\n        /* \"#utility.yul\":20254:20347   */\n    tag_490:\n        /* \"#utility.yul\":20291:20297   */\n      0x00\n        /* \"#utility.yul\":20338:20340   */\n      0x20\n        /* \"#utility.yul\":20333:20335   */\n      0x1f\n        /* \"#utility.yul\":20326:20331   */\n      dup4\n        /* \"#utility.yul\":20322:20336   */\n      add\n        /* \"#utility.yul\":20318:20341   */\n      div\n        /* \"#utility.yul\":20308:20341   */\n      swap1\n      pop\n        /* \"#utility.yul\":20254:20347   */\n      swap2\n      swap1\n      pop\n      jump\t// out\n        /* \"#utility.yul\":20353:20460   */\n    tag_491:\n        /* \"#utility.yul\":20397:20405   */\n      0x00\n        /* \"#utility.yul\":20447:20452   */\n      dup3\n        /* \"#utility.yul\":20441:20445   */\n      dup3\n        /* \"#utility.yul\":20437:20453   */\n      shl\n        /* \"#utility.yul\":20416:20453   */\n      swap1\n      pop\n        /* \"#utility.yul\":20353:20460   */\n      swap3\n      swap2\n      pop\n      pop\n      jump\t// out\n        /* \"#utility.yul\":20466:20859   */\n    tag_492:\n        /* \"#utility.yul\":20535:20541   */\n      0x00\n        /* \"#utility.yul\":20585:20586   */\n      0x08\n        /* \"#utility.yul\":20573:20583   */\n      dup4\n        /* \"#utility.yul\":20569:20587   */\n      mul\n        /* \"#utility.yul\":20608:20705   */\n      tag_741\n        /* \"#utility.yul\":20638:20704   */\n      0xffffffffffffffffffffffffffffffffffffffffffffffffffffffffffffffff\n        /* \"#utility.yul\":20627:20636   */\n      dup3\n        /* \"#utility.yul\":20608:20705   */\n      tag_491\n      jump\t// in\n    tag_741:\n        /* \"#utility.yul\":20726:20765   */\n      tag_742\n        /* \"#utility.yul\":20756:20764   */\n      dup7\n        /* \"#utility.yul\":20745:20754   */\n      dup4\n        /* \"#utility.yul\":20726:20765   */\n      tag_491\n      jump\t// in\n    tag_742:\n        /* \"#utility.yul\":20714:20765   */\n      swap6\n      pop\n        /* \"#utility.yul\":20798:20802   */\n      dup1\n        /* \"#utility.yul\":20794:20803   */\n      not\n        /* \"#utility.yul\":20787:20792   */\n      dup5\n        /* \"#utility.yul\":20783:20804   */\n      and\n        /* \"#utility.yul\":20774:20804   */\n      swap4\n      pop\n        /* \"#utility.yul\":20847:20851   */\n      dup1\n        /* \"#utility.yul\":20837:20845   */\n      dup7\n        /* \"#utility.yul\":20833:20852   */\n      and\n        /* \"#utility.yul\":20826:20831   */\n      dup5\n        /* \"#utility.yul\":20823:20853   */\n      or\n        /* \"#utility.yul\":20813:20853   */\n      swap3\n      pop\n        /* \"#utility.yul\":20542:20859   */\n      pop\n      pop\n        /* \"#utility.yul\":20466:20859   */\n      swap4\n      swap3\n      pop\n      pop\n      pop\n      jump\t// out\n        /* \"#utility.yul\":20865:20925   */\n    tag_493:\n        /* \"#utility.yul\":20893:20896   */\n      0x00\n        /* \"#utility.yul\":20914:20919   */\n      dup2\n        /* \"#utility.yul\":20907:20919   */\n      swap1\n      pop\n        /* \"#utility.yul\":20865:20925   */\n      swap2\n      swap1\n      pop\n      jump\t// out\n        /* \"#utility.yul\":20931:21073   */\n    tag_494:\n        /* \"#utility.yul\":20981:20990   */\n      0x00\n        /* \"#utility.yul\":21014:21067   */\n      tag_745\n        /* \"#utility.yul\":21032:21066   */\n      tag_746\n        /* \"#utility.yul\":21041:21065   */\n      tag_747\n        /* \"#utility.yul\":21059:21064   */\n      dup5\n        /* \"#utility.yul\":21041:21065   */\n      tag_445\n      jump\t// in\n    tag_747:\n        /* \"#utility.yul\":21032:21066   */\n      tag_493\n      jump\t// in\n    tag_746:\n        /* \"#utility.yul\":21014:21067   */\n      tag_445\n      jump\t// in\n    tag_745:\n        /* \"#utility.yul\":21001:21067   */\n      swap1\n      pop\n        /* \"#utility.yul\":20931:21073   */\n      swap2\n      swap1\n      pop\n      jump\t// out\n        /* \"#utility.yul\":21079:21154   */\n    tag_495:\n        /* \"#utility.yul\":21122:21125   */\n      0x00\n        /* \"#utility.yul\":21143:21148   */\n      dup2\n        /* \"#utility.yul\":21136:21148   */\n      swap1\n      pop\n        /* \"#utility.yul\":21079:21154   */\n      swap2\n      swap1\n      pop\n      jump\t// out\n        /* \"#utility.yul\":21160:21429   */\n    tag_496:\n        /* \"#utility.yul\":21270:21309   */\n      tag_750\n        /* \"#utility.yul\":21301:21308   */\n      dup4\n        /* \"#utility.yul\":21270:21309   */\n      tag_494\n      jump\t// in\n    tag_750:\n        /* \"#utility.yul\":21331:21422   */\n      tag_751\n        /* \"#utility.yul\":21380:21421   */\n      tag_752\n        /* \"#utility.yul\":21404:21420   */\n      dup3\n        /* \"#utility.yul\":21380:21421   */\n      tag_495\n      jump\t// in\n    tag_752:\n        /* \"#utility.yul\":21372:21378   */\n      dup5\n        /* \"#utility.yul\":21365:21369   */\n      dup5\n        /* \"#utility.yul\":21359:21370   */\n      sload\n        /* \"#utility.yul\":21331:21422   */\n      tag_492\n      jump\t// in\n    tag_751:\n        /* \"#utility.yul\":21325:21329   */\n      dup3\n        /* \"#utility.yul\":21318:21423   */\n      sstore\n        /* \"#utility.yul\":21236:21429   */\n      pop\n        /* \"#utility.yul\":21160:21429   */\n      pop\n      pop\n      pop\n      jump\t// out\n        /* \"#utility.yul\":21435:21508   */\n    tag_497:\n        /* \"#utility.yul\":21480:21483   */\n      0x00\n        /* \"#utility.yul\":21435:21508   */\n      swap1\n      jump\t// out\n        /* \"#utility.yul\":21514:21703   */\n    tag_498:\n        /* \"#utility.yul\":21591:21623   */\n      tag_755\n      tag_497\n      jump\t// in\n    tag_755:\n        /* \"#utility.yul\":21632:21697   */\n      tag_756\n        /* \"#utility.yul\":21690:21696   */\n      dup2\n        /* \"#utility.yul\":21682:21688   */\n      dup5\n        /* \"#utility.yul\":21676:21680   */\n      dup5\n        /* \"#utility.yul\":21632:21697   */\n      tag_496\n      jump\t// in\n    tag_756:\n        /* \"#utility.yul\":21567:21703   */\n      pop\n        /* \"#utility.yul\":21514:21703   */\n      pop\n      pop\n      jump\t// out\n        /* \"#utility.yul\":21709:21895   */\n    tag_499:\n        /* \"#utility.yul\":21769:21889   */\n    tag_758:\n        /* \"#utility.yul\":21786:21789   */\n      dup2\n        /* \"#utility.yul\":21779:21784   */\n      dup2\n        /* \"#utility.yul\":21776:21790   */\n      lt\n        /* \"#utility.yul\":21769:21889   */\n      iszero\n      tag_760\n      jumpi\n        /* \"#utility.yul\":21840:21879   */\n      tag_761\n        /* \"#utility.yul\":21877:21878   */\n      0x00\n        /* \"#utility.yul\":21870:21875   */\n      dup3\n        /* \"#utility.yul\":21840:21879   */\n      tag_498\n      jump\t// in\n    tag_761:\n        /* \"#utility.yul\":21813:21814   */\n      0x01\n        /* \"#utility.yul\":21806:21811   */\n      dup2\n        /* \"#utility.yul\":21802:21815   */\n      add\n        /* \"#utility.yul\":21793:21815   */\n      swap1\n      pop\n        /* \"#utility.yul\":21769:21889   */\n      jump(tag_758)\n    tag_760:\n        /* \"#utility.yul\":21709:21895   */\n      pop\n      pop\n      jump\t// out\n        /* \"#utility.yul\":21901:22444   */\n    tag_500:\n        /* \"#utility.yul\":22002:22004   */\n      0x1f\n        /* \"#utility.yul\":21997:22000   */\n      dup3\n        /* \"#utility.yul\":21994:22005   */\n      gt\n        /* \"#utility.yul\":21991:22437   */\n      iszero\n      tag_763\n      jumpi\n        /* \"#utility.yul\":22036:22074   */\n      tag_764\n        /* \"#utility.yul\":22068:22073   */\n      dup2\n        /* \"#utility.yul\":22036:22074   */\n      tag_489\n      jump\t// in\n    tag_764:\n        /* \"#utility.yul\":22120:22149   */\n      tag_765\n        /* \"#utility.yul\":22138:22148   */\n      dup5\n        /* \"#utility.yul\":22120:22149   */\n      tag_490\n      jump\t// in\n    tag_765:\n        /* \"#utility.yul\":22110:22118   */\n      dup2\n        /* \"#utility.yul\":22106:22150   */\n      add\n        /* \"#utility.yul\":22303:22305   */\n      0x20\n        /* \"#utility.yul\":22291:22301   */\n      dup6\n        /* \"#utility.yul\":22288:22306   */\n      lt\n        /* \"#utility.yul\":22285:22334   */\n      iszero\n      tag_766\n      jumpi\n        /* \"#utility.yul\":22324:22332   */\n      dup2\n        /* \"#utility.yul\":22309:22332   */\n      swap1\n      pop\n        /* \"#utility.yul\":22285:22334   */\n    tag_766:\n        /* \"#utility.yul\":22347:22427   */\n      tag_767\n        /* \"#utility.yul\":22403:22425   */\n      tag_768\n        /* \"#utility.yul\":22421:22424   */\n      dup6\n        /* \"#utility.yul\":22403:22425   */\n      tag_490\n      jump\t// in\n    tag_768:\n        /* \"#utility.yul\":22393:22401   */\n      dup4\n        /* \"#utility.yul\":22389:22426   */\n      add\n        /* \"#utility.yul\":22376:22387   */\n      dup3\n        /* \"#utility.yul\":22347:22427   */\n      tag_499\n      jump\t// in\n    tag_767:\n        /* \"#utility.yul\":22006:22437   */\n      pop\n      pop\n        /* \"#utility.yul\":21991:22437   */\n    tag_763:\n        /* \"#utility.yul\":21901:22444   */\n      pop\n      pop\n      pop\n      jump\t// out\n        /* \"#utility.yul\":22450:22567   */\n    tag_501:\n        /* \"#utility.yul\":22504:22512   */\n      0x00\n        /* \"#utility.yul\":22554:22559   */\n      dup3\n        /* \"#utility.yul\":22548:22552   */\n      dup3\n        /* \"#utility.yul\":22544:22560   */\n      shr\n        /* \"#utility.yul\":22523:22560   */\n      swap1\n      pop\n        /* \"#utility.yul\":22450:22567   */\n      swap3\n      swap2\n      pop\n      pop\n      jump\t// out\n        /* \"#utility.yul\":22573:22742   */\n    tag_502:\n        /* \"#utility.yul\":22617:22623   */\n      0x00\n        /* \"#utility.yul\":22650:22701   */\n      tag_771\n        /* \"#utility.yul\":22698:22699   */\n      0x00\n        /* \"#utility.yul\":22694:22700   */\n      not\n        /* \"#utility.yul\":22686:22691   */\n      dup5\n        /* \"#utility.yul\":22683:22684   */\n      0x08\n        /* \"#utility.yul\":22679:22692   */\n      mul\n        /* \"#utility.yul\":22650:22701   */\n      tag_501\n      jump\t// in\n    tag_771:\n        /* \"#utility.yul\":22646:22702   */\n      not\n        /* \"#utility.yul\":22731:22735   */\n      dup1\n        /* \"#utility.yul\":22725:22729   */\n      dup4\n        /* \"#utility.yul\":22721:22736   */\n      and\n        /* \"#utility.yul\":22711:22736   */\n      swap2\n      pop\n        /* \"#utility.yul\":22624:22742   */\n      pop\n        /* \"#utility.yul\":22573:22742   */\n      swap3\n      swap2\n      pop\n      pop\n      jump\t// out\n        /* \"#utility.yul\":22747:23042   */\n    tag_503:\n        /* \"#utility.yul\":22823:22827   */\n      0x00\n        /* \"#utility.yul\":22969:22998   */\n      tag_773\n        /* \"#utility.yul\":22994:22997   */\n      dup4\n        /* \"#utility.yul\":22988:22992   */\n      dup4\n        /* \"#utility.yul\":22969:22998   */\n      tag_502\n      jump\t// in\n    tag_773:\n        /* \"#utility.yul\":22961:22998   */\n      swap2\n      pop\n        /* \"#utility.yul\":23031:23034   */\n      dup3\n        /* \"#utility.yul\":23028:23029   */\n      0x02\n        /* \"#utility.yul\":23024:23035   */\n      mul\n        /* \"#utility.yul\":23018:23022   */\n      dup3\n        /* \"#utility.yul\":23015:23036   */\n      or\n        /* \"#utility.yul\":23007:23036   */\n      swap1\n      pop\n        /* \"#utility.yul\":22747:23042   */\n      swap3\n      swap2\n      pop\n      pop\n      jump\t// out\n        /* \"#utility.yul\":23047:24442   */\n    tag_171:\n        /* \"#utility.yul\":23164:23201   */\n      tag_775\n        /* \"#utility.yul\":23197:23200   */\n      dup3\n        /* \"#utility.yul\":23164:23201   */\n      tag_469\n      jump\t// in\n    tag_775:\n        /* \"#utility.yul\":23266:23284   */\n      0xffffffffffffffff\n        /* \"#utility.yul\":23258:23264   */\n      dup2\n        /* \"#utility.yul\":23255:23285   */\n      gt\n        /* \"#utility.yul\":23252:23308   */\n      iszero\n      tag_776\n      jumpi\n        /* \"#utility.yul\":23288:23306   */\n      tag_777\n      tag_387\n      jump\t// in\n    tag_777:\n        /* \"#utility.yul\":23252:23308   */\n    tag_776:\n        /* \"#utility.yul\":23332:23370   */\n      tag_778\n        /* \"#utility.yul\":23364:23368   */\n      dup3\n        /* \"#utility.yul\":23358:23369   */\n      sload\n        /* \"#utility.yul\":23332:23370   */\n      tag_228\n      jump\t// in\n    tag_778:\n        /* \"#utility.yul\":23417:23484   */\n      tag_779\n        /* \"#utility.yul\":23477:23483   */\n      dup3\n        /* \"#utility.yul\":23469:23475   */\n      dup3\n        /* \"#utility.yul\":23463:23467   */\n      dup6\n        /* \"#utility.yul\":23417:23484   */\n      tag_500\n      jump\t// in\n    tag_779:\n        /* \"#utility.yul\":23511:23512   */\n      0x00\n        /* \"#utility.yul\":23535:23539   */\n      0x20\n        /* \"#utility.yul\":23522:23539   */\n      swap1\n      pop\n        /* \"#utility.yul\":23567:23569   */\n      0x1f\n        /* \"#utility.yul\":23559:23565   */\n      dup4\n        /* \"#utility.yul\":23556:23570   */\n      gt\n        /* \"#utility.yul\":23584:23585   */\n      0x01\n        /* \"#utility.yul\":23579:24197   */\n      dup2\n      eq\n      tag_781\n      jumpi\n        /* \"#utility.yul\":24241:24242   */\n      0x00\n        /* \"#utility.yul\":24258:24264   */\n      dup5\n        /* \"#utility.yul\":24255:24332   */\n      iszero\n      tag_782\n      jumpi\n        /* \"#utility.yul\":24307:24316   */\n      dup3\n        /* \"#utility.yul\":24302:24305   */\n      dup8\n        /* \"#utility.yul\":24298:24317   */\n      add\n        /* \"#utility.yul\":24292:24318   */\n      mload\n        /* \"#utility.yul\":24283:24318   */\n      swap1\n      pop\n        /* \"#utility.yul\":24255:24332   */\n    tag_782:\n        /* \"#utility.yul\":24358:24425   */\n      tag_783\n        /* \"#utility.yul\":24418:24424   */\n      dup6\n        /* \"#utility.yul\":24411:24416   */\n      dup3\n        /* \"#utility.yul\":24358:24425   */\n      tag_503\n      jump\t// in\n    tag_783:\n        /* \"#utility.yul\":24352:24356   */\n      dup7\n        /* \"#utility.yul\":24345:24426   */\n      sstore\n        /* \"#utility.yul\":24214:24436   */\n      pop\n        /* \"#utility.yul\":23549:24436   */\n      jump(tag_780)\n        /* \"#utility.yul\":23579:24197   */\n    tag_781:\n        /* \"#utility.yul\":23631:23635   */\n      0x1f\n        /* \"#utility.yul\":23627:23636   */\n      not\n        /* \"#utility.yul\":23619:23625   */\n      dup5\n        /* \"#utility.yul\":23615:23637   */\n      and\n        /* \"#utility.yul\":23665:23702   */\n      tag_784\n        /* \"#utility.yul\":23697:23701   */\n      dup7\n        /* \"#utility.yul\":23665:23702   */\n      tag_489\n      jump\t// in\n    tag_784:\n        /* \"#utility.yul\":23724:23725   */\n      0x00\n        /* \"#utility.yul\":23738:23946   */\n    tag_785:\n        /* \"#utility.yul\":23752:23759   */\n      dup3\n        /* \"#utility.yul\":23749:23750   */\n      dup2\n        /* \"#utility.yul\":23746:23760   */\n      lt\n        /* \"#utility.yul\":23738:23946   */\n      iszero\n      tag_787\n      jumpi\n        /* \"#utility.yul\":23831:23840   */\n      dup5\n        /* \"#utility.yul\":23826:23829   */\n      dup10\n        /* \"#utility.yul\":23822:23841   */\n      add\n        /* \"#utility.yul\":23816:23842   */\n      mload\n        /* \"#utility.yul\":23808:23814   */\n      dup3\n        /* \"#utility.yul\":23801:23843   */\n      sstore\n        /* \"#utility.yul\":23882:23883   */\n      0x01\n        /* \"#utility.yul\":23874:23880   */\n      dup3\n        /* \"#utility.yul\":23870:23884   */\n      add\n        /* \"#utility.yul\":23860:23884   */\n      swap2\n      pop\n        /* \"#utility.yul\":23929:23931   */\n      0x20\n        /* \"#utility.yul\":23918:23927   */\n      dup6\n        /* \"#utility.yul\":23914:23932   */\n      add\n        /* \"#utility.yul\":23901:23932   */\n      swap5\n      pop\n        /* \"#utility.yul\":23775:23779   */\n      0x20\n        /* \"#utility.yul\":23772:23773   */\n      dup2\n        /* \"#utility.yul\":23768:23780   */\n      add\n        /* \"#utility.yul\":23763:23780   */\n      swap1\n      pop\n        /* \"#utility.yul\":23738:23946   */\n      jump(tag_785)\n    tag_787:\n        /* \"#utility.yul\":23974:23980   */\n      dup7\n        /* \"#utility.yul\":23965:23972   */\n      dup4\n        /* \"#utility.yul\":23962:23981   */\n      lt\n        /* \"#utility.yul\":23959:24138   */\n      iszero\n      tag_788\n      jumpi\n        /* \"#utility.yul\":24032:24041   */\n      dup5\n        /* \"#utility.yul\":24027:24030   */\n      dup10\n        /* \"#utility.yul\":24023:24042   */\n      add\n        /* \"#utility.yul\":24017:24043   */\n      mload\n        /* \"#utility.yul\":24075:24123   */\n      tag_789\n        /* \"#utility.yul\":24117:24121   */\n      0x1f\n        /* \"#utility.yul\":24109:24115   */\n      dup10\n        /* \"#utility.yul\":24105:24122   */\n      and\n        /* \"#utility.yul\":24094:24103   */\n      dup3\n        /* \"#utility.yul\":24075:24123   */\n      tag_502\n      jump\t// in\n    tag_789:\n        /* \"#utility.yul\":24067:24073   */\n      dup4\n        /* \"#utility.yul\":24060:24124   */\n      sstore\n        /* \"#utility.yul\":23982:24138   */\n      pop\n        /* \"#utility.yul\":23959:24138   */\n    tag_788:\n        /* \"#utility.yul\":24184:24185   */\n      0x01\n        /* \"#utility.yul\":24180:24181   */\n      0x02\n        /* \"#utility.yul\":24172:24178   */\n      dup9\n        /* \"#utility.yul\":24168:24182   */\n      mul\n        /* \"#utility.yul\":24164:24186   */\n      add\n        /* \"#utility.yul\":24158:24162   */\n      dup9\n        /* \"#utility.yul\":24151:24187   */\n      sstore\n        /* \"#utility.yul\":23586:24197   */\n      pop\n      pop\n      pop\n        /* \"#utility.yul\":23549:24436   */\n    tag_780:\n      pop\n        /* \"#utility.yul\":23139:24442   */\n      pop\n      pop\n      pop\n        /* \"#utility.yul\":23047:24442   */\n      pop\n      pop\n      jump\t// out\n        /* \"#utility.yul\":24448:24642   */\n    tag_174:\n        /* \"#utility.yul\":24488:24492   */\n      0x00\n        /* \"#utility.yul\":24508:24528   */\n      tag_791\n        /* \"#utility.yul\":24526:24527   */\n      dup3\n        /* \"#utility.yul\":24508:24528   */\n      tag_445\n      jump\t// in\n    tag_791:\n        /* \"#utility.yul\":24503:24528   */\n      swap2\n      pop\n        /* \"#utility.yul\":24542:24562   */\n      tag_792\n        /* \"#utility.yul\":24560:24561   */\n      dup4\n        /* \"#utility.yul\":24542:24562   */\n      tag_445\n      jump\t// in\n    tag_792:\n        /* \"#utility.yul\":24537:24562   */\n      swap3\n      pop\n        /* \"#utility.yul\":24586:24587   */\n      dup3\n        /* \"#utility.yul\":24583:24584   */\n      dup3\n        /* \"#utility.yul\":24579:24588   */\n      sub\n        /* \"#utility.yul\":24571:24588   */\n      swap1\n      pop\n        /* \"#utility.yul\":24610:24611   */\n      dup2\n        /* \"#utility.yul\":24604:24608   */\n      dup2\n        /* \"#utility.yul\":24601:24612   */\n      gt\n        /* \"#utility.yul\":24598:24635   */\n      iszero\n      tag_793\n      jumpi\n        /* \"#utility.yul\":24615:24633   */\n      tag_794\n      tag_485\n      jump\t// in\n    tag_794:\n        /* \"#utility.yul\":24598:24635   */\n    tag_793:\n        /* \"#utility.yul\":24448:24642   */\n      swap3\n      swap2\n      pop\n      pop\n      jump\t// out\n        /* \"#utility.yul\":24648:24881   */\n    tag_176:\n        /* \"#utility.yul\":24687:24690   */\n      0x00\n        /* \"#utility.yul\":24710:24734   */\n      tag_796\n        /* \"#utility.yul\":24728:24733   */\n      dup3\n        /* \"#utility.yul\":24710:24734   */\n      tag_445\n      jump\t// in\n    tag_796:\n        /* \"#utility.yul\":24701:24734   */\n      swap2\n      pop\n        /* \"#utility.yul\":24756:24822   */\n      0xffffffffffffffffffffffffffffffffffffffffffffffffffffffffffffffff\n        /* \"#utility.yul\":24749:24754   */\n      dup3\n        /* \"#utility.yul\":24746:24823   */\n      sub\n        /* \"#utility.yul\":24743:24846   */\n      tag_797\n      jumpi\n        /* \"#utility.yul\":24826:24844   */\n      tag_798\n      tag_485\n      jump\t// in\n    tag_798:\n        /* \"#utility.yul\":24743:24846   */\n    tag_797:\n        /* \"#utility.yul\":24873:24874   */\n      0x01\n        /* \"#utility.yul\":24866:24871   */\n      dup3\n        /* \"#utility.yul\":24862:24875   */\n      add\n        /* \"#utility.yul\":24855:24875   */\n      swap1\n      pop\n        /* \"#utility.yul\":24648:24881   */\n      swap2\n      swap1\n      pop\n      jump\t// out\n        /* \"#utility.yul\":24887:25116   */\n    tag_504:\n        /* \"#utility.yul\":25027:25061   */\n      0x4f6e6c79207468652046696c65204f776e65722063616e206163636573732069\n        /* \"#utility.yul\":25023:25024   */\n      0x00\n        /* \"#utility.yul\":25015:25021   */\n      dup3\n        /* \"#utility.yul\":25011:25025   */\n      add\n        /* \"#utility.yul\":25004:25062   */\n      mstore\n        /* \"#utility.yul\":25096:25108   */\n      0x7473207368617264732e00000000000000000000000000000000000000000000\n        /* \"#utility.yul\":25091:25093   */\n      0x20\n        /* \"#utility.yul\":25083:25089   */\n      dup3\n        /* \"#utility.yul\":25079:25094   */\n      add\n        /* \"#utility.yul\":25072:25109   */\n      mstore\n        /* \"#utility.yul\":24887:25116   */\n      pop\n      jump\t// out\n        /* \"#utility.yul\":25122:25488   */\n    tag_505:\n        /* \"#utility.yul\":25264:25267   */\n      0x00\n        /* \"#utility.yul\":25285:25352   */\n      tag_801\n        /* \"#utility.yul\":25349:25351   */\n      0x2a\n        /* \"#utility.yul\":25344:25347   */\n      dup4\n        /* \"#utility.yul\":25285:25352   */\n      tag_470\n      jump\t// in\n    tag_801:\n        /* \"#utility.yul\":25278:25352   */\n      swap2\n      pop\n        /* \"#utility.yul\":25361:25454   */\n      tag_802\n        /* \"#utility.yul\":25450:25453   */\n      dup3\n        /* \"#utility.yul\":25361:25454   */\n      tag_504\n      jump\t// in\n    tag_802:\n        /* \"#utility.yul\":25479:25481   */\n      0x40\n        /* \"#utility.yul\":25474:25477   */\n      dup3\n        /* \"#utility.yul\":25470:25482   */\n      add\n        /* \"#utility.yul\":25463:25482   */\n      swap1\n      pop\n        /* \"#utility.yul\":25122:25488   */\n      swap2\n      swap1\n      pop\n      jump\t// out\n        /* \"#utility.yul\":25494:25913   */\n    tag_181:\n        /* \"#utility.yul\":25660:25664   */\n      0x00\n        /* \"#utility.yul\":25698:25700   */\n      0x20\n        /* \"#utility.yul\":25687:25696   */\n      dup3\n        /* \"#utility.yul\":25683:25701   */\n      add\n        /* \"#utility.yul\":25675:25701   */\n      swap1\n      pop\n        /* \"#utility.yul\":25747:25756   */\n      dup2\n        /* \"#utility.yul\":25741:25745   */\n      dup2\n        /* \"#utility.yul\":25737:25757   */\n      sub\n        /* \"#utility.yul\":25733:25734   */\n      0x00\n        /* \"#utility.yul\":25722:25731   */\n      dup4\n        /* \"#utility.yul\":25718:25735   */\n      add\n        /* \"#utility.yul\":25711:25758   */\n      mstore\n        /* \"#utility.yul\":25775:25906   */\n      tag_804\n        /* \"#utility.yul\":25901:25905   */\n      dup2\n        /* \"#utility.yul\":25775:25906   */\n      tag_505\n      jump\t// in\n    tag_804:\n        /* \"#utility.yul\":25767:25906   */\n      swap1\n      pop\n        /* \"#utility.yul\":25494:25913   */\n      swap2\n      swap1\n      pop\n      jump\t// out\n        /* \"#utility.yul\":25919:26099   */\n    tag_190:\n        /* \"#utility.yul\":25967:26044   */\n      0x4e487b7100000000000000000000000000000000000000000000000000000000\n        /* \"#utility.yul\":25964:25965   */\n      0x00\n        /* \"#utility.yul\":25957:26045   */\n      mstore\n        /* \"#utility.yul\":26064:26068   */\n      0x32\n        /* \"#utility.yul\":26061:26062   */\n      0x04\n        /* \"#utility.yul\":26054:26069   */\n      mstore\n        /* \"#utility.yul\":26088:26092   */\n      0x24\n        /* \"#utility.yul\":26085:26086   */\n      0x00\n        /* \"#utility.yul\":26078:26093   */\n      revert\n        /* \"#utility.yul\":26105:26279   */\n    tag_506:\n        /* \"#utility.yul\":26245:26271   */\n      0x5468652066696c6520646f6573206e6f742065786973742e0000000000000000\n        /* \"#utility.yul\":26241:26242   */\n      0x00\n        /* \"#utility.yul\":26233:26239   */\n      dup3\n        /* \"#utility.yul\":26229:26243   */\n      add\n        /* \"#utility.yul\":26222:26272   */\n      mstore\n        /* \"#utility.yul\":26105:26279   */\n      pop\n      jump\t// out\n        /* \"#utility.yul\":26285:26651   */\n    tag_507:\n        /* \"#utility.yul\":26427:26430   */\n      0x00\n        /* \"#utility.yul\":26448:26515   */\n      tag_808\n        /* \"#utility.yul\":26512:26514   */\n      0x18\n        /* \"#utility.yul\":26507:26510   */\n      dup4\n        /* \"#utility.yul\":26448:26515   */\n      tag_470\n      jump\t// in\n    tag_808:\n        /* \"#utility.yul\":26441:26515   */\n      swap2\n      pop\n        /* \"#utility.yul\":26524:26617   */\n      tag_809\n        /* \"#utility.yul\":26613:26616   */\n      dup3\n        /* \"#utility.yul\":26524:26617   */\n      tag_506\n      jump\t// in\n    tag_809:\n        /* \"#utility.yul\":26642:26644   */\n      0x20\n        /* \"#utility.yul\":26637:26640   */\n      dup3\n        /* \"#utility.yul\":26633:26645   */\n      add\n        /* \"#utility.yul\":26626:26645   */\n      swap1\n      pop\n        /* \"#utility.yul\":26285:26651   */\n      swap2\n      swap1\n      pop\n      jump\t// out\n        /* \"#utility.yul\":26657:27076   */\n    tag_199:\n        /* \"#utility.yul\":26823:26827   */\n      0x00\n        /* \"#utility.yul\":26861:26863   */\n      0x20\n        /* \"#utility.yul\":26850:26859   */\n      dup3\n        /* \"#utility.yul\":26846:26864   */\n      add\n        /* \"#utility.yul\":26838:26864   */\n      swap1\n      pop\n        /* \"#utility.yul\":26910:26919   */\n      dup2\n        /* \"#utility.yul\":26904:26908   */\n      dup2\n        /* \"#utility.yul\":26900:26920   */\n      sub\n        /* \"#utility.yul\":26896:26897   */\n      0x00\n        /* \"#utility.yul\":26885:26894   */\n      dup4\n        /* \"#utility.yul\":26881:26898   */\n      add\n        /* \"#utility.yul\":26874:26921   */\n      mstore\n        /* \"#utility.yul\":26938:27069   */\n      tag_811\n        /* \"#utility.yul\":27064:27068   */\n      dup2\n        /* \"#utility.yul\":26938:27069   */\n      tag_507\n      jump\t// in\n    tag_811:\n        /* \"#utility.yul\":26930:27069   */\n      swap1\n      pop\n        /* \"#utility.yul\":26657:27076   */\n      swap2\n      swap1\n      pop\n      jump\t// out\n        /* \"#utility.yul\":27082:27304   */\n    tag_508:\n        /* \"#utility.yul\":27222:27256   */\n      0x4f6e6c7920746865206f776e65722063616e2064656c65746520746865206669\n        /* \"#utility.yul\":27218:27219   */\n      0x00\n        /* \"#utility.yul\":27210:27216   */\n      dup3\n        /* \"#utility.yul\":27206:27220   */\n      add\n        /* \"#utility.yul\":27199:27257   */\n      mstore\n        /* \"#utility.yul\":27291:27296   */\n      0x6c652e0000000000000000000000000000000000000000000000000000000000\n        /* \"#utility.yul\":27286:27288   */\n      0x20\n        /* \"#utility.yul\":27278:27284   */\n      dup3\n        /* \"#utility.yul\":27274:27289   */\n      add\n        /* \"#utility.yul\":27267:27297   */\n      mstore\n        /* \"#utility.yul\":27082:27304   */\n      pop\n      jump\t// out\n        /* \"#utility.yul\":27310:27676   */\n    tag_509:\n        /* \"#utility.yul\":27452:27455   */\n      0x00\n        /* \"#utility.yul\":27473:27540   */\n      tag_814\n        /* \"#utility.yul\":27537:27539   */\n      0x23\n        /* \"#utility.yul\":27532:27535   */\n      dup4\n        /* \"#utility.yul\":27473:27540   */\n      tag_470\n      jump\t// in\n    tag_814:\n        /* \"#utility.yul\":27466:27540   */\n      swap2\n      pop\n        /* \"#utility.yul\":27549:27642   */\n      tag_815\n        /* \"#utility.yul\":27638:27641   */\n      dup3\n        /* \"#utility.yul\":27549:27642   */\n      tag_508\n      jump\t// in\n    tag_815:\n        /* \"#utility.yul\":27667:27669   */\n      0x40\n        /* \"#utility.yul\":27662:27665   */\n      dup3\n        /* \"#utility.yul\":27658:27670   */\n      add\n        /* \"#utility.yul\":27651:27670   */\n      swap1\n      pop\n        /* \"#utility.yul\":27310:27676   */\n      swap2\n      swap1\n      pop\n      jump\t// out\n        /* \"#utility.yul\":27682:28101   */\n    tag_202:\n        /* \"#utility.yul\":27848:27852   */\n      0x00\n        /* \"#utility.yul\":27886:27888   */\n      0x20\n        /* \"#utility.yul\":27875:27884   */\n      dup3\n        /* \"#utility.yul\":27871:27889   */\n      add\n        /* \"#utility.yul\":27863:27889   */\n      swap1\n      pop\n        /* \"#utility.yul\":27935:27944   */\n      dup2\n        /* \"#utility.yul\":27929:27933   */\n      dup2\n        /* \"#utility.yul\":27925:27945   */\n      sub\n        /* \"#utility.yul\":27921:27922   */\n      0x00\n        /* \"#utility.yul\":27910:27919   */\n      dup4\n        /* \"#utility.yul\":27906:27923   */\n      add\n        /* \"#utility.yul\":27899:27946   */\n      mstore\n        /* \"#utility.yul\":27963:28094   */\n      tag_817\n        /* \"#utility.yul\":28089:28093   */\n      dup2\n        /* \"#utility.yul\":27963:28094   */\n      tag_509\n      jump\t// in\n    tag_817:\n        /* \"#utility.yul\":27955:28094   */\n      swap1\n      pop\n        /* \"#utility.yul\":27682:28101   */\n      swap2\n      swap1\n      pop\n      jump\t// out\n        /* \"#utility.yul\":28107:28287   */\n    tag_212:\n        /* \"#utility.yul\":28155:28232   */\n      0x4e487b7100000000000000000000000000000000000000000000000000000000\n        /* \"#utility.yul\":28152:28153   */\n      0x00\n        /* \"#utility.yul\":28145:28233   */\n      mstore\n        /* \"#utility.yul\":28252:28256   */\n      0x31\n        /* \"#utility.yul\":28249:28250   */\n      0x04\n        /* \"#utility.yul\":28242:28257   */\n      mstore\n        /* \"#utility.yul\":28276:28280   */\n      0x24\n        /* \"#utility.yul\":28273:28274   */\n      0x00\n        /* \"#utility.yul\":28266:28281   */\n      revert\n        /* \"#utility.yul\":28293:28464   */\n    tag_215:\n        /* \"#utility.yul\":28332:28335   */\n      0x00\n        /* \"#utility.yul\":28355:28379   */\n      tag_820\n        /* \"#utility.yul\":28373:28378   */\n      dup3\n        /* \"#utility.yul\":28355:28379   */\n      tag_445\n      jump\t// in\n    tag_820:\n        /* \"#utility.yul\":28346:28379   */\n      swap2\n      pop\n        /* \"#utility.yul\":28401:28405   */\n      0x00\n        /* \"#utility.yul\":28394:28399   */\n      dup3\n        /* \"#utility.yul\":28391:28406   */\n      sub\n        /* \"#utility.yul\":28388:28429   */\n      tag_821\n      jumpi\n        /* \"#utility.yul\":28409:28427   */\n      tag_822\n      tag_485\n      jump\t// in\n    tag_822:\n        /* \"#utility.yul\":28388:28429   */\n    tag_821:\n        /* \"#utility.yul\":28456:28457   */\n      0x01\n        /* \"#utility.yul\":28449:28454   */\n      dup3\n        /* \"#utility.yul\":28445:28458   */\n      sub\n        /* \"#utility.yul\":28438:28458   */\n      swap1\n      pop\n        /* \"#utility.yul\":28293:28464   */\n      swap2\n      swap1\n      pop\n      jump\t// out\n        /* \"#utility.yul\":28470:28588   */\n    tag_510:\n        /* \"#utility.yul\":28557:28581   */\n      tag_824\n        /* \"#utility.yul\":28575:28580   */\n      dup2\n        /* \"#utility.yul\":28557:28581   */\n      tag_436\n      jump\t// in\n    tag_824:\n        /* \"#utility.yul\":28552:28555   */\n      dup3\n        /* \"#utility.yul\":28545:28582   */\n      mstore\n        /* \"#utility.yul\":28470:28588   */\n      pop\n      pop\n      jump\t// out\n        /* \"#utility.yul\":28594:28816   */\n    tag_219:\n        /* \"#utility.yul\":28687:28691   */\n      0x00\n        /* \"#utility.yul\":28725:28727   */\n      0x20\n        /* \"#utility.yul\":28714:28723   */\n      dup3\n        /* \"#utility.yul\":28710:28728   */\n      add\n        /* \"#utility.yul\":28702:28728   */\n      swap1\n      pop\n        /* \"#utility.yul\":28738:28809   */\n      tag_826\n        /* \"#utility.yul\":28806:28807   */\n      0x00\n        /* \"#utility.yul\":28795:28804   */\n      dup4\n        /* \"#utility.yul\":28791:28808   */\n      add\n        /* \"#utility.yul\":28782:28788   */\n      dup5\n        /* \"#utility.yul\":28738:28809   */\n      tag_510\n      jump\t// in\n    tag_826:\n        /* \"#utility.yul\":28594:28816   */\n      swap3\n      swap2\n      pop\n      pop\n      jump\t// out\n        /* \"#utility.yul\":28822:28989   */\n    tag_511:\n        /* \"#utility.yul\":28962:28981   */\n      0x496e76616c69642073686172642049442e000000000000000000000000000000\n        /* \"#utility.yul\":28958:28959   */\n      0x00\n        /* \"#utility.yul\":28950:28956   */\n      dup3\n        /* \"#utility.yul\":28946:28960   */\n      add\n        /* \"#utility.yul\":28939:28982   */\n      mstore\n        /* \"#utility.yul\":28822:28989   */\n      pop\n      jump\t// out\n        /* \"#utility.yul\":28995:29361   */\n    tag_512:\n        /* \"#utility.yul\":29137:29140   */\n      0x00\n        /* \"#utility.yul\":29158:29225   */\n      tag_829\n        /* \"#utility.yul\":29222:29224   */\n      0x11\n        /* \"#utility.yul\":29217:29220   */\n      dup4\n        /* \"#utility.yul\":29158:29225   */\n      tag_470\n      jump\t// in\n    tag_829:\n        /* \"#utility.yul\":29151:29225   */\n      swap2\n      pop\n        /* \"#utility.yul\":29234:29327   */\n      tag_830\n        /* \"#utility.yul\":29323:29326   */\n      dup3\n        /* \"#utility.yul\":29234:29327   */\n      tag_511\n      jump\t// in\n    tag_830:\n        /* \"#utility.yul\":29352:29354   */\n      0x20\n        /* \"#utility.yul\":29347:29350   */\n      dup3\n        /* \"#utility.yul\":29343:29355   */\n      add\n        /* \"#utility.yul\":29336:29355   */\n      swap1\n      pop\n        /* \"#utility.yul\":28995:29361   */\n      swap2\n      swap1\n      pop\n      jump\t// out\n        /* \"#utility.yul\":29367:29786   */\n    tag_223:\n        /* \"#utility.yul\":29533:29537   */\n      0x00\n        /* \"#utility.yul\":29571:29573   */\n      0x20\n        /* \"#utility.yul\":29560:29569   */\n      dup3\n        /* \"#utility.yul\":29556:29574   */\n      add\n        /* \"#utility.yul\":29548:29574   */\n      swap1\n      pop\n        /* \"#utility.yul\":29620:29629   */\n      dup2\n        /* \"#utility.yul\":29614:29618   */\n      dup2\n        /* \"#utility.yul\":29610:29630   */\n      sub\n        /* \"#utility.yul\":29606:29607   */\n      0x00\n        /* \"#utility.yul\":29595:29604   */\n      dup4\n        /* \"#utility.yul\":29591:29608   */\n      add\n        /* \"#utility.yul\":29584:29631   */\n      mstore\n        /* \"#utility.yul\":29648:29779   */\n      tag_832\n        /* \"#utility.yul\":29774:29778   */\n      dup2\n        /* \"#utility.yul\":29648:29779   */\n      tag_512\n      jump\t// in\n    tag_832:\n        /* \"#utility.yul\":29640:29779   */\n      swap1\n      pop\n        /* \"#utility.yul\":29367:29786   */\n      swap2\n      swap1\n      pop\n      jump\t// out\n        /* \"#utility.yul\":29792:30015   */\n    tag_513:\n        /* \"#utility.yul\":29932:29966   */\n      0x4f6e6c792046696c65204f776e65722063616e2064656c657465207468652066\n        /* \"#utility.yul\":29928:29929   */\n      0x00\n        /* \"#utility.yul\":29920:29926   */\n      dup3\n        /* \"#utility.yul\":29916:29930   */\n      add\n        /* \"#utility.yul\":29909:29967   */\n      mstore\n        /* \"#utility.yul\":30001:30007   */\n      0x696c652100000000000000000000000000000000000000000000000000000000\n        /* \"#utility.yul\":29996:29998   */\n      0x20\n        /* \"#utility.yul\":29988:29994   */\n      dup3\n        /* \"#utility.yul\":29984:29999   */\n      add\n        /* \"#utility.yul\":29977:30008   */\n      mstore\n        /* \"#utility.yul\":29792:30015   */\n      pop\n      jump\t// out\n        /* \"#utility.yul\":30021:30387   */\n    tag_514:\n        /* \"#utility.yul\":30163:30166   */\n      0x00\n        /* \"#utility.yul\":30184:30251   */\n      tag_835\n        /* \"#utility.yul\":30248:30250   */\n      0x24\n        /* \"#utility.yul\":30243:30246   */\n      dup4\n        /* \"#utility.yul\":30184:30251   */\n      tag_470\n      jump\t// in\n    tag_835:\n        /* \"#utility.yul\":30177:30251   */\n      swap2\n      pop\n        /* \"#utility.yul\":30260:30353   */\n      tag_836\n        /* \"#utility.yul\":30349:30352   */\n      dup3\n        /* \"#utility.yul\":30260:30353   */\n      tag_513\n      jump\t// in\n    tag_836:\n        /* \"#utility.yul\":30378:30380   */\n      0x40\n        /* \"#utility.yul\":30373:30376   */\n      dup3\n        /* \"#utility.yul\":30369:30381   */\n      add\n        /* \"#utility.yul\":30362:30381   */\n      swap1\n      pop\n        /* \"#utility.yul\":30021:30387   */\n      swap2\n      swap1\n      pop\n      jump\t// out\n        /* \"#utility.yul\":30393:30812   */\n    tag_253:\n        /* \"#utility.yul\":30559:30563   */\n      0x00\n        /* \"#utility.yul\":30597:30599   */\n      0x20\n        /* \"#utility.yul\":30586:30595   */\n      dup3\n        /* \"#utility.yul\":30582:30600   */\n      add\n        /* \"#utility.yul\":30574:30600   */\n      swap1\n      pop\n        /* \"#utility.yul\":30646:30655   */\n      dup2\n        /* \"#utility.yul\":30640:30644   */\n      dup2\n        /* \"#utility.yul\":30636:30656   */\n      sub\n        /* \"#utility.yul\":30632:30633   */\n      0x00\n        /* \"#utility.yul\":30621:30630   */\n      dup4\n        /* \"#utility.yul\":30617:30634   */\n      add\n        /* \"#utility.yul\":30610:30657   */\n      mstore\n        /* \"#utility.yul\":30674:30805   */\n      tag_838\n        /* \"#utility.yul\":30800:30804   */\n      dup2\n        /* \"#utility.yul\":30674:30805   */\n      tag_514\n      jump\t// in\n    tag_838:\n        /* \"#utility.yul\":30666:30805   */\n      swap1\n      pop\n        /* \"#utility.yul\":30393:30812   */\n      swap2\n      swap1\n      pop\n      jump\t// out\n        /* \"#utility.yul\":30818:31150   */\n    tag_270:\n        /* \"#utility.yul\":30939:30943   */\n      0x00\n        /* \"#utility.yul\":30977:30979   */\n      0x40\n        /* \"#utility.yul\":30966:30975   */\n      dup3\n        /* \"#utility.yul\":30962:30980   */\n      add\n        /* \"#utility.yul\":30954:30980   */\n      swap1\n      pop\n        /* \"#utility.yul\":30990:31061   */\n      tag_840\n        /* \"#utility.yul\":31058:31059   */\n      0x00\n        /* \"#utility.yul\":31047:31056   */\n      dup4\n        /* \"#utility.yul\":31043:31060   */\n      add\n        /* \"#utility.yul\":31034:31040   */\n      dup6\n        /* \"#utility.yul\":30990:31061   */\n      tag_459\n      jump\t// in\n    tag_840:\n        /* \"#utility.yul\":31071:31143   */\n      tag_841\n        /* \"#utility.yul\":31139:31141   */\n      0x20\n        /* \"#utility.yul\":31128:31137   */\n      dup4\n        /* \"#utility.yul\":31124:31142   */\n      add\n        /* \"#utility.yul\":31115:31121   */\n      dup5\n        /* \"#utility.yul\":31071:31143   */\n      tag_459\n      jump\t// in\n    tag_841:\n        /* \"#utility.yul\":30818:31150   */\n      swap4\n      swap3\n      pop\n      pop\n      pop\n      jump\t// out\n        /* \"#utility.yul\":31156:31329   */\n    tag_515:\n        /* \"#utility.yul\":31296:31321   */\n      0x496e76616c6964206661726d6572206e6f64652049442e000000000000000000\n        /* \"#utility.yul\":31292:31293   */\n      0x00\n        /* \"#utility.yul\":31284:31290   */\n      dup3\n        /* \"#utility.yul\":31280:31294   */\n      add\n        /* \"#utility.yul\":31273:31322   */\n      mstore\n        /* \"#utility.yul\":31156:31329   */\n      pop\n      jump\t// out\n        /* \"#utility.yul\":31335:31701   */\n    tag_516:\n        /* \"#utility.yul\":31477:31480   */\n      0x00\n        /* \"#utility.yul\":31498:31565   */\n      tag_844\n        /* \"#utility.yul\":31562:31564   */\n      0x17\n        /* \"#utility.yul\":31557:31560   */\n      dup4\n        /* \"#utility.yul\":31498:31565   */\n      tag_470\n      jump\t// in\n    tag_844:\n        /* \"#utility.yul\":31491:31565   */\n      swap2\n      pop\n        /* \"#utility.yul\":31574:31667   */\n      tag_845\n        /* \"#utility.yul\":31663:31666   */\n      dup3\n        /* \"#utility.yul\":31574:31667   */\n      tag_515\n      jump\t// in\n    tag_845:\n        /* \"#utility.yul\":31692:31694   */\n      0x20\n        /* \"#utility.yul\":31687:31690   */\n      dup3\n        /* \"#utility.yul\":31683:31695   */\n      add\n        /* \"#utility.yul\":31676:31695   */\n      swap1\n      pop\n        /* \"#utility.yul\":31335:31701   */\n      swap2\n      swap1\n      pop\n      jump\t// out\n        /* \"#utility.yul\":31707:32126   */\n    tag_284:\n        /* \"#utility.yul\":31873:31877   */\n      0x00\n        /* \"#utility.yul\":31911:31913   */\n      0x20\n        /* \"#utility.yul\":31900:31909   */\n      dup3\n        /* \"#utility.yul\":31896:31914   */\n      add\n        /* \"#utility.yul\":31888:31914   */\n      swap1\n      pop\n        /* \"#utility.yul\":31960:31969   */\n      dup2\n        /* \"#utility.yul\":31954:31958   */\n      dup2\n        /* \"#utility.yul\":31950:31970   */\n      sub\n        /* \"#utility.yul\":31946:31947   */\n      0x00\n        /* \"#utility.yul\":31935:31944   */\n      dup4\n        /* \"#utility.yul\":31931:31948   */\n      add\n        /* \"#utility.yul\":31924:31971   */\n      mstore\n        /* \"#utility.yul\":31988:32119   */\n      tag_847\n        /* \"#utility.yul\":32114:32118   */\n      dup2\n        /* \"#utility.yul\":31988:32119   */\n      tag_516\n      jump\t// in\n    tag_847:\n        /* \"#utility.yul\":31980:32119   */\n      swap1\n      pop\n        /* \"#utility.yul\":31707:32126   */\n      swap2\n      swap1\n      pop\n      jump\t// out\n        /* \"#utility.yul\":32132:32495   */\n    tag_517:\n        /* \"#utility.yul\":32272:32306   */\n      0x53746f726167652050726f7669646572732063616e206f6e6c79206265207265\n        /* \"#utility.yul\":32268:32269   */\n      0x00\n        /* \"#utility.yul\":32260:32266   */\n      dup3\n        /* \"#utility.yul\":32256:32270   */\n      add\n        /* \"#utility.yul\":32249:32307   */\n      mstore\n        /* \"#utility.yul\":32341:32375   */\n      0x6d6f7665642062792074686520636f6e7472616374206f776e65722773206164\n        /* \"#utility.yul\":32336:32338   */\n      0x20\n        /* \"#utility.yul\":32328:32334   */\n      dup3\n        /* \"#utility.yul\":32324:32339   */\n      add\n        /* \"#utility.yul\":32317:32376   */\n      mstore\n        /* \"#utility.yul\":32410:32444   */\n      0x6472657373206f72207468652061646472657373206265696e67207265676973\n        /* \"#utility.yul\":32405:32407   */\n      0x40\n        /* \"#utility.yul\":32397:32403   */\n      dup3\n        /* \"#utility.yul\":32393:32408   */\n      add\n        /* \"#utility.yul\":32386:32445   */\n      mstore\n        /* \"#utility.yul\":32479:32487   */\n      0x7465726564210000000000000000000000000000000000000000000000000000\n        /* \"#utility.yul\":32474:32476   */\n      0x60\n        /* \"#utility.yul\":32466:32472   */\n      dup3\n        /* \"#utility.yul\":32462:32477   */\n      add\n        /* \"#utility.yul\":32455:32488   */\n      mstore\n        /* \"#utility.yul\":32132:32495   */\n      pop\n      jump\t// out\n        /* \"#utility.yul\":32501:32869   */\n    tag_518:\n        /* \"#utility.yul\":32643:32646   */\n      0x00\n        /* \"#utility.yul\":32664:32732   */\n      tag_850\n        /* \"#utility.yul\":32728:32731   */\n      0x66\n        /* \"#utility.yul\":32723:32726   */\n      dup4\n        /* \"#utility.yul\":32664:32732   */\n      tag_470\n      jump\t// in\n    tag_850:\n        /* \"#utility.yul\":32657:32732   */\n      swap2\n      pop\n        /* \"#utility.yul\":32741:32834   */\n      tag_851\n        /* \"#utility.yul\":32830:32833   */\n      dup3\n        /* \"#utility.yul\":32741:32834   */\n      tag_517\n      jump\t// in\n    tag_851:\n        /* \"#utility.yul\":32859:32862   */\n      0x80\n        /* \"#utility.yul\":32854:32857   */\n      dup3\n        /* \"#utility.yul\":32850:32863   */\n      add\n        /* \"#utility.yul\":32843:32863   */\n      swap1\n      pop\n        /* \"#utility.yul\":32501:32869   */\n      swap2\n      swap1\n      pop\n      jump\t// out\n        /* \"#utility.yul\":32875:33294   */\n    tag_292:\n        /* \"#utility.yul\":33041:33045   */\n      0x00\n        /* \"#utility.yul\":33079:33081   */\n      0x20\n        /* \"#utility.yul\":33068:33077   */\n      dup3\n        /* \"#utility.yul\":33064:33082   */\n      add\n        /* \"#utility.yul\":33056:33082   */\n      swap1\n      pop\n        /* \"#utility.yul\":33128:33137   */\n      dup2\n        /* \"#utility.yul\":33122:33126   */\n      dup2\n        /* \"#utility.yul\":33118:33138   */\n      sub\n        /* \"#utility.yul\":33114:33115   */\n      0x00\n        /* \"#utility.yul\":33103:33112   */\n      dup4\n        /* \"#utility.yul\":33099:33116   */\n      add\n        /* \"#utility.yul\":33092:33139   */\n      mstore\n        /* \"#utility.yul\":33156:33287   */\n      tag_853\n        /* \"#utility.yul\":33282:33286   */\n      dup2\n        /* \"#utility.yul\":33156:33287   */\n      tag_518\n      jump\t// in\n    tag_853:\n        /* \"#utility.yul\":33148:33287   */\n      swap1\n      pop\n        /* \"#utility.yul\":32875:33294   */\n      swap2\n      swap1\n      pop\n      jump\t// out\n        /* \"#utility.yul\":33300:33449   */\n    tag_519:\n        /* \"#utility.yul\":33349:33355   */\n      0x00\n        /* \"#utility.yul\":33383:33388   */\n      dup2\n        /* \"#utility.yul\":33377:33389   */\n      sload\n        /* \"#utility.yul\":33367:33389   */\n      swap1\n      pop\n        /* \"#utility.yul\":33409:33442   */\n      tag_855\n        /* \"#utility.yul\":33435:33441   */\n      dup2\n        /* \"#utility.yul\":33409:33442   */\n      tag_228\n      jump\t// in\n    tag_855:\n        /* \"#utility.yul\":33399:33442   */\n      swap1\n      pop\n        /* \"#utility.yul\":33300:33449   */\n      swap2\n      swap1\n      pop\n      jump\t// out\n        /* \"#utility.yul\":33455:34906   */\n    tag_301:\n        /* \"#utility.yul\":33566:33569   */\n      dup2\n        /* \"#utility.yul\":33560:33564   */\n      dup2\n        /* \"#utility.yul\":33557:33570   */\n      sub\n        /* \"#utility.yul\":33554:33580   */\n      tag_857\n      jumpi\n        /* \"#utility.yul\":33573:33578   */\n      pop\n      pop\n      jump(tag_856)\n        /* \"#utility.yul\":33554:33580   */\n    tag_857:\n        /* \"#utility.yul\":33604:33638   */\n      tag_858\n        /* \"#utility.yul\":33634:33637   */\n      dup3\n        /* \"#utility.yul\":33604:33638   */\n      tag_519\n      jump\t// in\n    tag_858:\n        /* \"#utility.yul\":33703:33721   */\n      0xffffffffffffffff\n        /* \"#utility.yul\":33695:33701   */\n      dup2\n        /* \"#utility.yul\":33692:33722   */\n      gt\n        /* \"#utility.yul\":33689:33745   */\n      iszero\n      tag_859\n      jumpi\n        /* \"#utility.yul\":33725:33743   */\n      tag_860\n      tag_387\n      jump\t// in\n    tag_860:\n        /* \"#utility.yul\":33689:33745   */\n    tag_859:\n        /* \"#utility.yul\":33769:33807   */\n      tag_861\n        /* \"#utility.yul\":33801:33805   */\n      dup3\n        /* \"#utility.yul\":33795:33806   */\n      sload\n        /* \"#utility.yul\":33769:33807   */\n      tag_228\n      jump\t// in\n    tag_861:\n        /* \"#utility.yul\":33854:33921   */\n      tag_862\n        /* \"#utility.yul\":33914:33920   */\n      dup3\n        /* \"#utility.yul\":33906:33912   */\n      dup3\n        /* \"#utility.yul\":33900:33904   */\n      dup6\n        /* \"#utility.yul\":33854:33921   */\n      tag_500\n      jump\t// in\n    tag_862:\n        /* \"#utility.yul\":33948:33949   */\n      0x00\n        /* \"#utility.yul\":33977:33979   */\n      0x1f\n        /* \"#utility.yul\":33969:33975   */\n      dup4\n        /* \"#utility.yul\":33966:33980   */\n      gt\n        /* \"#utility.yul\":33994:33995   */\n      0x01\n        /* \"#utility.yul\":33989:34661   */\n      dup2\n      eq\n      tag_864\n      jumpi\n        /* \"#utility.yul\":34705:34706   */\n      0x00\n        /* \"#utility.yul\":34722:34728   */\n      dup5\n        /* \"#utility.yul\":34719:34796   */\n      iszero\n      tag_865\n      jumpi\n        /* \"#utility.yul\":34771:34780   */\n      dup3\n        /* \"#utility.yul\":34766:34769   */\n      dup8\n        /* \"#utility.yul\":34762:34781   */\n      add\n        /* \"#utility.yul\":34756:34782   */\n      sload\n        /* \"#utility.yul\":34747:34782   */\n      swap1\n      pop\n        /* \"#utility.yul\":34719:34796   */\n    tag_865:\n        /* \"#utility.yul\":34822:34889   */\n      tag_866\n        /* \"#utility.yul\":34882:34888   */\n      dup6\n        /* \"#utility.yul\":34875:34880   */\n      dup3\n        /* \"#utility.yul\":34822:34889   */\n      tag_503\n      jump\t// in\n    tag_866:\n        /* \"#utility.yul\":34816:34820   */\n      dup7\n        /* \"#utility.yul\":34809:34890   */\n      sstore\n        /* \"#utility.yul\":34678:34900   */\n      pop\n        /* \"#utility.yul\":33959:34900   */\n      jump(tag_863)\n        /* \"#utility.yul\":33989:34661   */\n    tag_864:\n        /* \"#utility.yul\":34041:34045   */\n      0x1f\n        /* \"#utility.yul\":34037:34046   */\n      not\n        /* \"#utility.yul\":34029:34035   */\n      dup5\n        /* \"#utility.yul\":34025:34047   */\n      and\n        /* \"#utility.yul\":34067:34103   */\n      tag_867\n        /* \"#utility.yul\":34099:34102   */\n      dup8\n        /* \"#utility.yul\":34067:34103   */\n      tag_489\n      jump\t// in\n    tag_867:\n        /* \"#utility.yul\":34060:34103   */\n      swap7\n      pop\n        /* \"#utility.yul\":34130:34167   */\n      tag_868\n        /* \"#utility.yul\":34162:34166   */\n      dup7\n        /* \"#utility.yul\":34130:34167   */\n      tag_489\n      jump\t// in\n    tag_868:\n        /* \"#utility.yul\":34189:34190   */\n      0x00\n        /* \"#utility.yul\":34203:34410   */\n    tag_869:\n        /* \"#utility.yul\":34217:34224   */\n      dup3\n        /* \"#utility.yul\":34214:34215   */\n      dup2\n        /* \"#utility.yul\":34211:34225   */\n      lt\n        /* \"#utility.yul\":34203:34410   */\n      iszero\n      tag_871\n      jumpi\n        /* \"#utility.yul\":34296:34305   */\n      dup5\n        /* \"#utility.yul\":34291:34294   */\n      dup10\n        /* \"#utility.yul\":34287:34306   */\n      add\n        /* \"#utility.yul\":34281:34307   */\n      sload\n        /* \"#utility.yul\":34273:34279   */\n      dup3\n        /* \"#utility.yul\":34266:34308   */\n      sstore\n        /* \"#utility.yul\":34347:34348   */\n      0x01\n        /* \"#utility.yul\":34339:34345   */\n      dup3\n        /* \"#utility.yul\":34335:34349   */\n      add\n        /* \"#utility.yul\":34325:34349   */\n      swap2\n      pop\n        /* \"#utility.yul\":34394:34395   */\n      0x01\n        /* \"#utility.yul\":34383:34392   */\n      dup6\n        /* \"#utility.yul\":34379:34396   */\n      add\n        /* \"#utility.yul\":34366:34396   */\n      swap5\n      pop\n        /* \"#utility.yul\":34240:34244   */\n      0x20\n        /* \"#utility.yul\":34237:34238   */\n      dup2\n        /* \"#utility.yul\":34233:34245   */\n      add\n        /* \"#utility.yul\":34228:34245   */\n      swap1\n      pop\n        /* \"#utility.yul\":34203:34410   */\n      jump(tag_869)\n    tag_871:\n        /* \"#utility.yul\":34438:34444   */\n      dup7\n        /* \"#utility.yul\":34429:34436   */\n      dup4\n        /* \"#utility.yul\":34426:34445   */\n      lt\n        /* \"#utility.yul\":34423:34602   */\n      iszero\n      tag_872\n      jumpi\n        /* \"#utility.yul\":34496:34505   */\n      dup5\n        /* \"#utility.yul\":34491:34494   */\n      dup10\n        /* \"#utility.yul\":34487:34506   */\n      add\n        /* \"#utility.yul\":34481:34507   */\n      sload\n        /* \"#utility.yul\":34539:34587   */\n      tag_873\n        /* \"#utility.yul\":34581:34585   */\n      0x1f\n        /* \"#utility.yul\":34573:34579   */\n      dup10\n        /* \"#utility.yul\":34569:34586   */\n      and\n        /* \"#utility.yul\":34558:34567   */\n      dup3\n        /* \"#utility.yul\":34539:34587   */\n      tag_502\n      jump\t// in\n    tag_873:\n        /* \"#utility.yul\":34531:34537   */\n      dup4\n        /* \"#utility.yul\":34524:34588   */\n      sstore\n        /* \"#utility.yul\":34446:34602   */\n      pop\n        /* \"#utility.yul\":34423:34602   */\n    tag_872:\n        /* \"#utility.yul\":34648:34649   */\n      0x01\n        /* \"#utility.yul\":34644:34645   */\n      0x02\n        /* \"#utility.yul\":34636:34642   */\n      dup9\n        /* \"#utility.yul\":34632:34646   */\n      mul\n        /* \"#utility.yul\":34628:34650   */\n      add\n        /* \"#utility.yul\":34622:34626   */\n      dup9\n        /* \"#utility.yul\":34615:34651   */\n      sstore\n        /* \"#utility.yul\":33996:34661   */\n      pop\n      pop\n      pop\n        /* \"#utility.yul\":33959:34900   */\n    tag_863:\n      pop\n        /* \"#utility.yul\":33544:34906   */\n      pop\n      pop\n      pop\n        /* \"#utility.yul\":33455:34906   */\n      pop\n      pop\n    tag_856:\n      jump\t// out\n        /* \"#utility.yul\":34912:35156   */\n    tag_520:\n        /* \"#utility.yul\":35052:35086   */\n      0x4f6e6c79207468652046696c65204f776e65722063616e206769766520617761\n        /* \"#utility.yul\":35048:35049   */\n      0x00\n        /* \"#utility.yul\":35040:35046   */\n      dup3\n        /* \"#utility.yul\":35036:35050   */\n      add\n        /* \"#utility.yul\":35029:35087   */\n      mstore\n        /* \"#utility.yul\":35121:35148   */\n      0x79206f776e657273686970206f662074686569722066696c6500000000000000\n        /* \"#utility.yul\":35116:35118   */\n      0x20\n        /* \"#utility.yul\":35108:35114   */\n      dup3\n        /* \"#utility.yul\":35104:35119   */\n      add\n        /* \"#utility.yul\":35097:35149   */\n      mstore\n        /* \"#utility.yul\":34912:35156   */\n      pop\n      jump\t// out\n        /* \"#utility.yul\":35162:35528   */\n    tag_521:\n        /* \"#utility.yul\":35304:35307   */\n      0x00\n        /* \"#utility.yul\":35325:35392   */\n      tag_876\n        /* \"#utility.yul\":35389:35391   */\n      0x39\n        /* \"#utility.yul\":35384:35387   */\n      dup4\n        /* \"#utility.yul\":35325:35392   */\n      tag_470\n      jump\t// in\n    tag_876:\n        /* \"#utility.yul\":35318:35392   */\n      swap2\n      pop\n        /* \"#utility.yul\":35401:35494   */\n      tag_877\n        /* \"#utility.yul\":35490:35493   */\n      dup3\n        /* \"#utility.yul\":35401:35494   */\n      tag_520\n      jump\t// in\n    tag_877:\n        /* \"#utility.yul\":35519:35521   */\n      0x40\n        /* \"#utility.yul\":35514:35517   */\n      dup3\n        /* \"#utility.yul\":35510:35522   */\n      add\n        /* \"#utility.yul\":35503:35522   */\n      swap1\n      pop\n        /* \"#utility.yul\":35162:35528   */\n      swap2\n      swap1\n      pop\n      jump\t// out\n        /* \"#utility.yul\":35534:35953   */\n    tag_333:\n        /* \"#utility.yul\":35700:35704   */\n      0x00\n        /* \"#utility.yul\":35738:35740   */\n      0x20\n        /* \"#utility.yul\":35727:35736   */\n      dup3\n        /* \"#utility.yul\":35723:35741   */\n      add\n        /* \"#utility.yul\":35715:35741   */\n      swap1\n      pop\n        /* \"#utility.yul\":35787:35796   */\n      dup2\n        /* \"#utility.yul\":35781:35785   */\n      dup2\n        /* \"#utility.yul\":35777:35797   */\n      sub\n        /* \"#utility.yul\":35773:35774   */\n      0x00\n        /* \"#utility.yul\":35762:35771   */\n      dup4\n        /* \"#utility.yul\":35758:35775   */\n      add\n        /* \"#utility.yul\":35751:35798   */\n      mstore\n        /* \"#utility.yul\":35815:35946   */\n      tag_879\n        /* \"#utility.yul\":35941:35945   */\n      dup2\n        /* \"#utility.yul\":35815:35946   */\n      tag_521\n      jump\t// in\n    tag_879:\n        /* \"#utility.yul\":35807:35946   */\n      swap1\n      pop\n        /* \"#utility.yul\":35534:35953   */\n      swap2\n      swap1\n      pop\n      jump\t// out\n        /* \"#utility.yul\":35959:36190   */\n    tag_522:\n        /* \"#utility.yul\":36099:36133   */\n      0x4661726d6572206861732072656163686564206d6178696d756d2073746f7261\n        /* \"#utility.yul\":36095:36096   */\n      0x00\n        /* \"#utility.yul\":36087:36093   */\n      dup3\n        /* \"#utility.yul\":36083:36097   */\n      add\n        /* \"#utility.yul\":36076:36134   */\n      mstore\n        /* \"#utility.yul\":36168:36182   */\n      0x67652063617061636974792e0000000000000000000000000000000000000000\n        /* \"#utility.yul\":36163:36165   */\n      0x20\n        /* \"#utility.yul\":36155:36161   */\n      dup3\n        /* \"#utility.yul\":36151:36166   */\n      add\n        /* \"#utility.yul\":36144:36183   */\n      mstore\n        /* \"#utility.yul\":35959:36190   */\n      pop\n      jump\t// out\n        /* \"#utility.yul\":36196:36562   */\n    tag_523:\n        /* \"#utility.yul\":36338:36341   */\n      0x00\n        /* \"#utility.yul\":36359:36426   */\n      tag_882\n        /* \"#utility.yul\":36423:36425   */\n      0x2c\n        /* \"#utility.yul\":36418:36421   */\n      dup4\n        /* \"#utility.yul\":36359:36426   */\n      tag_470\n      jump\t// in\n    tag_882:\n        /* \"#utility.yul\":36352:36426   */\n      swap2\n      pop\n        /* \"#utility.yul\":36435:36528   */\n      tag_883\n        /* \"#utility.yul\":36524:36527   */\n      dup3\n        /* \"#utility.yul\":36435:36528   */\n      tag_522\n      jump\t// in\n    tag_883:\n        /* \"#utility.yul\":36553:36555   */\n      0x40\n        /* \"#utility.yul\":36548:36551   */\n      dup3\n        /* \"#utility.yul\":36544:36556   */\n      add\n        /* \"#utility.yul\":36537:36556   */\n      swap1\n      pop\n        /* \"#utility.yul\":36196:36562   */\n      swap2\n      swap1\n      pop\n      jump\t// out\n        /* \"#utility.yul\":36568:36987   */\n    tag_345:\n        /* \"#utility.yul\":36734:36738   */\n      0x00\n        /* \"#utility.yul\":36772:36774   */\n      0x20\n        /* \"#utility.yul\":36761:36770   */\n      dup3\n        /* \"#utility.yul\":36757:36775   */\n      add\n        /* \"#utility.yul\":36749:36775   */\n      swap1\n      pop\n        /* \"#utility.yul\":36821:36830   */\n      dup2\n        /* \"#utility.yul\":36815:36819   */\n      dup2\n        /* \"#utility.yul\":36811:36831   */\n      sub\n        /* \"#utility.yul\":36807:36808   */\n      0x00\n        /* \"#utility.yul\":36796:36805   */\n      dup4\n        /* \"#utility.yul\":36792:36809   */\n      add\n        /* \"#utility.yul\":36785:36832   */\n      mstore\n        /* \"#utility.yul\":36849:36980   */\n      tag_885\n        /* \"#utility.yul\":36975:36979   */\n      dup2\n        /* \"#utility.yul\":36849:36980   */\n      tag_523\n      jump\t// in\n    tag_885:\n        /* \"#utility.yul\":36841:36980   */\n      swap1\n      pop\n        /* \"#utility.yul\":36568:36987   */\n      swap2\n      swap1\n      pop\n      jump\t// out\n        /* \"#utility.yul\":36993:37218   */\n    tag_524:\n        /* \"#utility.yul\":37133:37167   */\n      0x536861726420697320616c72656164792061737369676e656420746f20612066\n        /* \"#utility.yul\":37129:37130   */\n      0x00\n        /* \"#utility.yul\":37121:37127   */\n      dup3\n        /* \"#utility.yul\":37117:37131   */\n      add\n        /* \"#utility.yul\":37110:37168   */\n      mstore\n        /* \"#utility.yul\":37202:37210   */\n      0x61726d65722e0000000000000000000000000000000000000000000000000000\n        /* \"#utility.yul\":37197:37199   */\n      0x20\n        /* \"#utility.yul\":37189:37195   */\n      dup3\n        /* \"#utility.yul\":37185:37200   */\n      add\n        /* \"#utility.yul\":37178:37211   */\n      mstore\n        /* \"#utility.yul\":36993:37218   */\n      pop\n      jump\t// out\n        /* \"#utility.yul\":37224:37590   */\n    tag_525:\n        /* \"#utility.yul\":37366:37369   */\n      0x00\n        /* \"#utility.yul\":37387:37454   */\n      tag_888\n        /* \"#utility.yul\":37451:37453   */\n      0x26\n        /* \"#utility.yul\":37446:37449   */\n      dup4\n        /* \"#utility.yul\":37387:37454   */\n      tag_470\n      jump\t// in\n    tag_888:\n        /* \"#utility.yul\":37380:37454   */\n      swap2\n      pop\n        /* \"#utility.yul\":37463:37556   */\n      tag_889\n        /* \"#utility.yul\":37552:37555   */\n      dup3\n        /* \"#utility.yul\":37463:37556   */\n      tag_524\n      jump\t// in\n    tag_889:\n        /* \"#utility.yul\":37581:37583   */\n      0x40\n        /* \"#utility.yul\":37576:37579   */\n      dup3\n        /* \"#utility.yul\":37572:37584   */\n      add\n        /* \"#utility.yul\":37565:37584   */\n      swap1\n      pop\n        /* \"#utility.yul\":37224:37590   */\n      swap2\n      swap1\n      pop\n      jump\t// out\n        /* \"#utility.yul\":37596:38015   */\n    tag_348:\n        /* \"#utility.yul\":37762:37766   */\n      0x00\n        /* \"#utility.yul\":37800:37802   */\n      0x20\n        /* \"#utility.yul\":37789:37798   */\n      dup3\n        /* \"#utility.yul\":37785:37803   */\n      add\n        /* \"#utility.yul\":37777:37803   */\n      swap1\n      pop\n        /* \"#utility.yul\":37849:37858   */\n      dup2\n        /* \"#utility.yul\":37843:37847   */\n      dup2\n        /* \"#utility.yul\":37839:37859   */\n      sub\n        /* \"#utility.yul\":37835:37836   */\n      0x00\n        /* \"#utility.yul\":37824:37833   */\n      dup4\n        /* \"#utility.yul\":37820:37837   */\n      add\n        /* \"#utility.yul\":37813:37860   */\n      mstore\n        /* \"#utility.yul\":37877:38008   */\n      tag_891\n        /* \"#utility.yul\":38003:38007   */\n      dup2\n        /* \"#utility.yul\":37877:38008   */\n      tag_525\n      jump\t// in\n    tag_891:\n        /* \"#utility.yul\":37869:38008   */\n      swap1\n      pop\n        /* \"#utility.yul\":37596:38015   */\n      swap2\n      swap1\n      pop\n      jump\t// out\n        /* \"#utility.yul\":38021:38254   */\n    tag_526:\n        /* \"#utility.yul\":38161:38195   */\n      0x5368617264206973206e6f742061737369676e656420746f2074686520737065\n        /* \"#utility.yul\":38157:38158   */\n      0x00\n        /* \"#utility.yul\":38149:38155   */\n      dup3\n        /* \"#utility.yul\":38145:38159   */\n      add\n        /* \"#utility.yul\":38138:38196   */\n      mstore\n        /* \"#utility.yul\":38230:38246   */\n      0x636966696564206661726d65722e000000000000000000000000000000000000\n        /* \"#utility.yul\":38225:38227   */\n      0x20\n        /* \"#utility.yul\":38217:38223   */\n      dup3\n        /* \"#utility.yul\":38213:38228   */\n      add\n        /* \"#utility.yul\":38206:38247   */\n      mstore\n        /* \"#utility.yul\":38021:38254   */\n      pop\n      jump\t// out\n        /* \"#utility.yul\":38260:38626   */\n    tag_527:\n        /* \"#utility.yul\":38402:38405   */\n      0x00\n        /* \"#utility.yul\":38423:38490   */\n      tag_894\n        /* \"#utility.yul\":38487:38489   */\n      0x2e\n        /* \"#utility.yul\":38482:38485   */\n      dup4\n        /* \"#utility.yul\":38423:38490   */\n      tag_470\n      jump\t// in\n    tag_894:\n        /* \"#utility.yul\":38416:38490   */\n      swap2\n      pop\n        /* \"#utility.yul\":38499:38592   */\n      tag_895\n        /* \"#utility.yul\":38588:38591   */\n      dup3\n        /* \"#utility.yul\":38499:38592   */\n      tag_526\n      jump\t// in\n    tag_895:\n        /* \"#utility.yul\":38617:38619   */\n      0x40\n        /* \"#utility.yul\":38612:38615   */\n      dup3\n        /* \"#utility.yul\":38608:38620   */\n      add\n        /* \"#utility.yul\":38601:38620   */\n      swap1\n      pop\n        /* \"#utility.yul\":38260:38626   */\n      swap2\n      swap1\n      pop\n      jump\t// out\n        /* \"#utility.yul\":38632:39051   */\n    tag_374:\n        /* \"#utility.yul\":38798:38802   */\n      0x00\n        /* \"#utility.yul\":38836:38838   */\n      0x20\n        /* \"#utility.yul\":38825:38834   */\n      dup3\n        /* \"#utility.yul\":38821:38839   */\n      add\n        /* \"#utility.yul\":38813:38839   */\n      swap1\n      pop\n        /* \"#utility.yul\":38885:38894   */\n      dup2\n        /* \"#utility.yul\":38879:38883   */\n      dup2\n        /* \"#utility.yul\":38875:38895   */\n      sub\n        /* \"#utility.yul\":38871:38872   */\n      0x00\n        /* \"#utility.yul\":38860:38869   */\n      dup4\n        /* \"#utility.yul\":38856:38873   */\n      add\n        /* \"#utility.yul\":38849:38896   */\n      mstore\n        /* \"#utility.yul\":38913:39044   */\n      tag_897\n        /* \"#utility.yul\":39039:39043   */\n      dup2\n        /* \"#utility.yul\":38913:39044   */\n      tag_527\n      jump\t// in\n    tag_897:\n        /* \"#utility.yul\":38905:39044   */\n      swap1\n      pop\n        /* \"#utility.yul\":38632:39051   */\n      swap2\n      swap1\n      pop\n      jump\t// out\n        /* \"#utility.yul\":39057:39290   */\n    tag_528:\n        /* \"#utility.yul\":39197:39231   */\n      0x4f6e6c79207468652046696c65204f776e65722063616e20636865636b206e75\n        /* \"#utility.yul\":39193:39194   */\n      0x00\n        /* \"#utility.yul\":39185:39191   */\n      dup3\n        /* \"#utility.yul\":39181:39195   */\n      add\n        /* \"#utility.yul\":39174:39232   */\n      mstore\n        /* \"#utility.yul\":39266:39282   */\n      0x6d626572206f6620736861726473000000000000000000000000000000000000\n        /* \"#utility.yul\":39261:39263   */\n      0x20\n        /* \"#utility.yul\":39253:39259   */\n      dup3\n        /* \"#utility.yul\":39249:39264   */\n      add\n        /* \"#utility.yul\":39242:39283   */\n      mstore\n        /* \"#utility.yul\":39057:39290   */\n      pop\n      jump\t// out\n        /* \"#utility.yul\":39296:39662   */\n    tag_529:\n        /* \"#utility.yul\":39438:39441   */\n      0x00\n        /* \"#utility.yul\":39459:39526   */\n      tag_900\n        /* \"#utility.yul\":39523:39525   */\n      0x2e\n        /* \"#utility.yul\":39518:39521   */\n      dup4\n        /* \"#utility.yul\":39459:39526   */\n      tag_470\n      jump\t// in\n    tag_900:\n        /* \"#utility.yul\":39452:39526   */\n      swap2\n      pop\n        /* \"#utility.yul\":39535:39628   */\n      tag_901\n        /* \"#utility.yul\":39624:39627   */\n      dup3\n        /* \"#utility.yul\":39535:39628   */\n      tag_528\n      jump\t// in\n    tag_901:\n        /* \"#utility.yul\":39653:39655   */\n      0x40\n        /* \"#utility.yul\":39648:39651   */\n      dup3\n        /* \"#utility.yul\":39644:39656   */\n      add\n        /* \"#utility.yul\":39637:39656   */\n      swap1\n      pop\n        /* \"#utility.yul\":39296:39662   */\n      swap2\n      swap1\n      pop\n      jump\t// out\n        /* \"#utility.yul\":39668:40087   */\n    tag_383:\n        /* \"#utility.yul\":39834:39838   */\n      0x00\n        /* \"#utility.yul\":39872:39874   */\n      0x20\n        /* \"#utility.yul\":39861:39870   */\n      dup3\n        /* \"#utility.yul\":39857:39875   */\n      add\n        /* \"#utility.yul\":39849:39875   */\n      swap1\n      pop\n        /* \"#utility.yul\":39921:39930   */\n      dup2\n        /* \"#utility.yul\":39915:39919   */\n      dup2\n        /* \"#utility.yul\":39911:39931   */\n      sub\n        /* \"#utility.yul\":39907:39908   */\n      0x00\n        /* \"#utility.yul\":39896:39905   */\n      dup4\n        /* \"#utility.yul\":39892:39909   */\n      add\n        /* \"#utility.yul\":39885:39932   */\n      mstore\n        /* \"#utility.yul\":39949:40080   */\n      tag_903\n        /* \"#utility.yul\":40075:40079   */\n      dup2\n        /* \"#utility.yul\":39949:40080   */\n      tag_529\n      jump\t// in\n    tag_903:\n        /* \"#utility.yul\":39941:40080   */\n      swap1\n      pop\n        /* \"#utility.yul\":39668:40087   */\n      swap2\n      swap1\n      pop\n      jump\t// out\n        /* \"#utility.yul\":40093:40318   */\n    tag_530:\n        /* \"#utility.yul\":40233:40267   */\n      0x4f776e61626c653a206e6577206f776e657220697320746865207a65726f2061\n        /* \"#utility.yul\":40229:40230   */\n      0x00\n        /* \"#utility.yul\":40221:40227   */\n      dup3\n        /* \"#utility.yul\":40217:40231   */\n      add\n        /* \"#utility.yul\":40210:40268   */\n      mstore\n        /* \"#utility.yul\":40302:40310   */\n      0x6464726573730000000000000000000000000000000000000000000000000000\n        /* \"#utility.yul\":40297:40299   */\n      0x20\n        /* \"#utility.yul\":40289:40295   */\n      dup3\n        /* \"#utility.yul\":40285:40300   */\n      add\n        /* \"#utility.yul\":40278:40311   */\n      mstore\n        /* \"#utility.yul\":40093:40318   */\n      pop\n      jump\t// out\n        /* \"#utility.yul\":40324:40690   */\n    tag_531:\n        /* \"#utility.yul\":40466:40469   */\n      0x00\n        /* \"#utility.yul\":40487:40554   */\n      tag_906\n        /* \"#utility.yul\":40551:40553   */\n      0x26\n        /* \"#utility.yul\":40546:40549   */\n      dup4\n        /* \"#utility.yul\":40487:40554   */\n      tag_470\n      jump\t// in\n    tag_906:\n        /* \"#utility.yul\":40480:40554   */\n      swap2\n      pop\n        /* \"#utility.yul\":40563:40656   */\n      tag_907\n        /* \"#utility.yul\":40652:40655   */\n      dup3\n        /* \"#utility.yul\":40563:40656   */\n      tag_530\n      jump\t// in\n    tag_907:\n        /* \"#utility.yul\":40681:40683   */\n      0x40\n        /* \"#utility.yul\":40676:40679   */\n      dup3\n        /* \"#utility.yul\":40672:40684   */\n      add\n        /* \"#utility.yul\":40665:40684   */\n      swap1\n      pop\n        /* \"#utility.yul\":40324:40690   */\n      swap2\n      swap1\n      pop\n      jump\t// out\n        /* \"#utility.yul\":40696:41115   */\n    tag_408:\n        /* \"#utility.yul\":40862:40866   */\n      0x00\n        /* \"#utility.yul\":40900:40902   */\n      0x20\n        /* \"#utility.yul\":40889:40898   */\n      dup3\n        /* \"#utility.yul\":40885:40903   */\n      add\n        /* \"#utility.yul\":40877:40903   */\n      swap1\n      pop\n        /* \"#utility.yul\":40949:40958   */\n      dup2\n        /* \"#utility.yul\":40943:40947   */\n      dup2\n        /* \"#utility.yul\":40939:40959   */\n      sub\n        /* \"#utility.yul\":40935:40936   */\n      0x00\n        /* \"#utility.yul\":40924:40933   */\n      dup4\n        /* \"#utility.yul\":40920:40937   */\n      add\n        /* \"#utility.yul\":40913:40960   */\n      mstore\n        /* \"#utility.yul\":40977:41108   */\n      tag_909\n        /* \"#utility.yul\":41103:41107   */\n      dup2\n        /* \"#utility.yul\":40977:41108   */\n      tag_531\n      jump\t// in\n    tag_909:\n        /* \"#utility.yul\":40969:41108   */\n      swap1\n      pop\n        /* \"#utility.yul\":40696:41115   */\n      swap2\n      swap1\n      pop\n      jump\t// out\n        /* \"#utility.yul\":41121:41303   */\n    tag_532:\n        /* \"#utility.yul\":41261:41295   */\n      0x4f776e61626c653a2063616c6c6572206973206e6f7420746865206f776e6572\n        /* \"#utility.yul\":41257:41258   */\n      0x00\n        /* \"#utility.yul\":41249:41255   */\n      dup3\n        /* \"#utility.yul\":41245:41259   */\n      add\n        /* \"#utility.yul\":41238:41296   */\n      mstore\n        /* \"#utility.yul\":41121:41303   */\n      pop\n      jump\t// out\n        /* \"#utility.yul\":41309:41675   */\n    tag_533:\n        /* \"#utility.yul\":41451:41454   */\n      0x00\n        /* \"#utility.yul\":41472:41539   */\n      tag_912\n        /* \"#utility.yul\":41536:41538   */\n      0x20\n        /* \"#utility.yul\":41531:41534   */\n      dup4\n        /* \"#utility.yul\":41472:41539   */\n      tag_470\n      jump\t// in\n    tag_912:\n        /* \"#utility.yul\":41465:41539   */\n      swap2\n      pop\n        /* \"#utility.yul\":41548:41641   */\n      tag_913\n        /* \"#utility.yul\":41637:41640   */\n      dup3\n        /* \"#utility.yul\":41548:41641   */\n      tag_532\n      jump\t// in\n    tag_913:\n        /* \"#utility.yul\":41666:41668   */\n      0x20\n        /* \"#utility.yul\":41661:41664   */\n      dup3\n        /* \"#utility.yul\":41657:41669   */\n      add\n        /* \"#utility.yul\":41650:41669   */\n      swap1\n      pop\n        /* \"#utility.yul\":41309:41675   */\n      swap2\n      swap1\n      pop\n      jump\t// out\n        /* \"#utility.yul\":41681:42100   */\n    tag_417:\n        /* \"#utility.yul\":41847:41851   */\n      0x00\n        /* \"#utility.yul\":41885:41887   */\n      0x20\n        /* \"#utility.yul\":41874:41883   */\n      dup3\n        /* \"#utility.yul\":41870:41888   */\n      add\n        /* \"#utility.yul\":41862:41888   */\n      swap1\n      pop\n        /* \"#utility.yul\":41934:41943   */\n      dup2\n        /* \"#utility.yul\":41928:41932   */\n      dup2\n        /* \"#utility.yul\":41924:41944   */\n      sub\n        /* \"#utility.yul\":41920:41921   */\n      0x00\n        /* \"#utility.yul\":41909:41918   */\n      dup4\n        /* \"#utility.yul\":41905:41922   */\n      add\n        /* \"#utility.yul\":41898:41945   */\n      mstore\n        /* \"#utility.yul\":41962:42093   */\n      tag_915\n        /* \"#utility.yul\":42088:42092   */\n      dup2\n        /* \"#utility.yul\":41962:42093   */\n      tag_533\n      jump\t// in\n    tag_915:\n        /* \"#utility.yul\":41954:42093   */\n      swap1\n      pop\n        /* \"#utility.yul\":41681:42100   */\n      swap2\n      swap1\n      pop\n      jump\t// out\n\n    auxdata: 0xa2646970667358221220b6ed729337329ebdcc24c8ca2d9afc888aa8357daa3da37877130dc92ffbdb3664736f6c63430008120033\n}\n",
				"bytecode": {
					"linkReferences": {},
					"object": "608060405260006004553480156200001657600080fd5b50620000376200002b6200003d60201b60201c565b6200004560201b60201c565b62000109565b600033905090565b60008060009054906101000a900473ffffffffffffffffffffffffffffffffffffffff169050816000806101000a81548173ffffffffffffffffffffffffffffffffffffffff021916908373ffffffffffffffffffffffffffffffffffffffff1602179055508173ffffffffffffffffffffffffffffffffffffffff168173ffffffffffffffffffffffffffffffffffffffff167f8be0079c531659141344cd1fd0a4f28419497f9722a3daafe3b4186f6b6457e060405160405180910390a35050565b613c3980620001196000396000f3fe608060405234801561001057600080fd5b50600436106101c45760003560e01c8063828e6f1a116100f9578063b4fe4fa611610097578063d5faa8d111610071578063d5faa8d114610565578063e0400f7414610581578063e270d1c1146105b1578063f2fde38b146105cf576101c4565b8063b4fe4fa6146104e7578063c4a8b5d514610517578063c759bdbe14610535576101c4565b80638da5cb5b116100d35780638da5cb5b146104355780639650b0a514610453578063aad9eb3d14610483578063ad0caa76146104b3576101c4565b8063828e6f1a146103cd5780638381d799146103fd5780638a78e46e14610419576101c4565b806345246f8e11610166578063636943b311610140578063636943b3146103595780636773042b14610389578063715018a6146103a75780638258d46e146103b1576101c4565b806345246f8e146102f1578063473f89281461030d5780634f83b0ea1461033d576101c4565b806329eaa31b116101a257806329eaa31b146102455780632de1468e146102755780634039df7914610291578063439ec341146102c1576101c4565b8063103f90a3146101c9578063189c4460146101e557806328d305ab14610215575b600080fd5b6101e360048036038101906101de91906126b8565b6105eb565b005b6101ff60048036038101906101fa9190612827565b610794565b60405161020c91906128a5565b60405180910390f35b61022f600480360381019061022a91906128c0565b6109e8565b60405161023c91906129ab565b60405180910390f35b61025f600480360381019061025a91906129cd565b610b30565b60405161026c9190612a15565b60405180910390f35b61028f600480360381019061028a91906128c0565b610b92565b005b6102ab60048036038101906102a691906129cd565b610ed6565b6040516102b89190612aaf565b60405180910390f35b6102db60048036038101906102d691906128c0565b610fd4565b6040516102e891906129ab565b60405180910390f35b61030b600480360381019061030691906128c0565b61105d565b005b610327600480360381019061032291906128c0565b6111f9565b60405161033491906128a5565b60405180910390f35b610357600480360381019061035291906128c0565b611286565b005b610373600480360381019061036e91906128c0565b611453565b60405161038091906128a5565b60405180910390f35b61039161146b565b60405161039e91906128a5565b60405180910390f35b6103af611478565b005b6103cb60048036038101906103c691906129cd565b61148c565b005b6103e760048036038101906103e29190612ad1565b6117fb565b6040516103f491906128a5565b60405180910390f35b61041760048036038101906104129190612afe565b6118d4565b005b610433600480360381019061042e9190612b3e565b611a07565b005b61043d611b8d565b60405161044a9190612b8d565b60405180910390f35b61046d600480360381019061046891906128c0565b611bb6565b60405161047a9190612b8d565b60405180910390f35b61049d60048036038101906104989190612ad1565b611be9565b6040516104aa91906128a5565b60405180910390f35b6104cd60048036038101906104c891906129cd565b611c01565b6040516104de959493929190612ba8565b60405180910390f35b61050160048036038101906104fc91906129cd565b611d4e565b60405161050e91906128a5565b60405180910390f35b61051f611d6b565b60405161052c91906128a5565b60405180910390f35b61054f600480360381019061054a9190612afe565b611d78565b60405161055c9190612a15565b60405180910390f35b61057f600480360381019061057a9190612b3e565b611e02565b005b61059b600480360381019061059691906128c0565b611f3c565b6040516105a891906128a5565b60405180910390f35b6105b9612036565b6040516105c69190612cc0565b60405180910390f35b6105e960048036038101906105e49190612ad1565b61221a565b005b8160076000826bffffffffffffffffffffffff19166bffffffffffffffffffffffff1916815260200190815260200160002060009054906101000a900473ffffffffffffffffffffffffffffffffffffffff1673ffffffffffffffffffffffffffffffffffffffff163373ffffffffffffffffffffffffffffffffffffffff16148061067d575061067c8133611d78565b5b6106bc576040517f08c379a00000000000000000000000000000000000000000000000000000000081526004016106b390612d54565b60405180910390fd5b6000825111610700576040517f08c379a00000000000000000000000000000000000000000000000000000000081526004016106f790612dc0565b60405180910390fd5b81600b6000856bffffffffffffffffffffffff19166bffffffffffffffffffffffff1916815260200190815260200160002090805190602001906107459291906123f2565b50815160106000856bffffffffffffffffffffffff19166bffffffffffffffffffffffff1916815260200190815260200160002060008282546107889190612e0f565b92505081905550505050565b60008373ffffffffffffffffffffffffffffffffffffffff163373ffffffffffffffffffffffffffffffffffffffff16148061080257506107d3611b8d565b73ffffffffffffffffffffffffffffffffffffffff163373ffffffffffffffffffffffffffffffffffffffff16145b610841576040517f08c379a000000000000000000000000000000000000000000000000000000000815260040161083890612f01565b60405180910390fd5b60006040518060a001604052808673ffffffffffffffffffffffffffffffffffffffff168152602001600454815260200160008152602001858152602001848152509050600181908060018154018082558091505060019003906000526020600020906005020160009091909190915060008201518160000160006101000a81548173ffffffffffffffffffffffffffffffffffffffff021916908373ffffffffffffffffffffffffffffffffffffffff160217905550602082015181600101556040820151816002015560608201518160030155608082015181600401908161092b919061312d565b50505060028160200151908060018154018082558091505060019003906000526020600020016000909190919091505560006001808054905061096e91906131ff565b9050806003600084602001518152602001908152602001600020819055506004600081548092919061099f90613233565b91905055507f2ddb9351de05fe32bd5d30de5c77b03a2606011e3e3680eba8639fb446c5492582602001516040516109d791906128a5565b60405180910390a150509392505050565b606060076000836bffffffffffffffffffffffff19166bffffffffffffffffffffffff1916815260200190815260200160002060009054906101000a900473ffffffffffffffffffffffffffffffffffffffff1673ffffffffffffffffffffffffffffffffffffffff163373ffffffffffffffffffffffffffffffffffffffff1614610aa9576040517f08c379a0000000000000000000000000000000000000000000000000000000008152600401610aa0906132ed565b60405180910390fd5b600b6000836bffffffffffffffffffffffff19166bffffffffffffffffffffffff19168152602001908152602001600020805480602002602001604051908101604052809291908181526020018280548015610b2457602002820191906000526020600020905b815481526020019060010190808311610b10575b50505050509050919050565b600080600090505b600280549050811015610b87578260028281548110610b5a57610b5961330d565b5b906000526020600020015403610b74576001915050610b8d565b8080610b7f90613233565b915050610b38565b50600090505b919050565b6001610b9d8261229d565b14610bdd576040517f08c379a0000000000000000000000000000000000000000000000000000000008152600401610bd490613388565b60405180910390fd5b3373ffffffffffffffffffffffffffffffffffffffff1660076000836bffffffffffffffffffffffff19166bffffffffffffffffffffffff1916815260200190815260200160002060009054906101000a900473ffffffffffffffffffffffffffffffffffffffff1673ffffffffffffffffffffffffffffffffffffffff1614610c9c576040517f08c379a0000000000000000000000000000000000000000000000000000000008152600401610c939061341a565b60405180910390fd5b6000600d6000836bffffffffffffffffffffffff19166bffffffffffffffffffffffff1916815260200190815260200160002054905060066001600680549050610ce691906131ff565b81548110610cf757610cf661330d565b5b9060005260206000200160009054906101000a900460601b60068281548110610d2357610d2261330d565b5b9060005260206000200160006101000a81548173ffffffffffffffffffffffffffffffffffffffff021916908360601c02179055506006805480610d6a57610d6961343a565b5b6001900381819060005260206000200160006101000a81549073ffffffffffffffffffffffffffffffffffffffff02191690559055600f60003373ffffffffffffffffffffffffffffffffffffffff1673ffffffffffffffffffffffffffffffffffffffff1681526020019081526020016000206000815480929190610def90613469565b9190505550600d6000836bffffffffffffffffffffffff19166bffffffffffffffffffffffff1916815260200190815260200160002060009055600b6000836bffffffffffffffffffffffff19166bffffffffffffffffffffffff191681526020019081526020016000206000610e66919061243f565b60106000836bffffffffffffffffffffffff19166bffffffffffffffffffffffff19168152602001908152602001600020600090557fda13aa46e5e29a22ea7832e5283268a938c39ddc897441a090548cf71a8f81c282604051610eca91906134a1565b60405180910390a15050565b60606005805490508210610f1f576040517f08c379a0000000000000000000000000000000000000000000000000000000008152600401610f1690613508565b60405180910390fd5b60058281548110610f3357610f3261330d565b5b90600052602060002090600202016001018054610f4f90612f50565b80601f0160208091040260200160405190810160405280929190818152602001828054610f7b90612f50565b8015610fc85780601f10610f9d57610100808354040283529160200191610fc8565b820191906000526020600020905b815481529060010190602001808311610fab57829003601f168201915b50505050509050919050565b6060600b6000836bffffffffffffffffffffffff19166bffffffffffffffffffffffff1916815260200190815260200160002080548060200260200160405190810160405280929190818152602001828054801561105157602002820191906000526020600020905b81548152602001906001019080831161103d575b50505050509050919050565b6006819080600181540180825580915050600190039060005260206000200160009091909190916101000a81548173ffffffffffffffffffffffffffffffffffffffff021916908360601c0217905550600060016006805490506110c191906131ff565b90503360076000846bffffffffffffffffffffffff19166bffffffffffffffffffffffff1916815260200190815260200160002060006101000a81548173ffffffffffffffffffffffffffffffffffffffff021916908373ffffffffffffffffffffffffffffffffffffffff16021790555080600d6000846bffffffffffffffffffffffff19166bffffffffffffffffffffffff1916815260200190815260200160002081905550600f60003373ffffffffffffffffffffffffffffffffffffffff1673ffffffffffffffffffffffffffffffffffffffff16815260200190815260200160002060008154809291906111b990613233565b91905055507fa7714b5994b2cbb93bfe098ef622436aa3e9be80ed5f01b373fd3aa629e14962826040516111ed91906134a1565b60405180910390a15050565b600080600090505b60068054905081101561127b57826bffffffffffffffffffffffff1916600682815481106112325761123161330d565b5b9060005260206000200160009054906101000a900460601b6bffffffffffffffffffffffff191603611268576001915050611281565b808061127390613233565b915050611201565b50600090505b919050565b60076000826bffffffffffffffffffffffff19166bffffffffffffffffffffffff1916815260200190815260200160002060009054906101000a900473ffffffffffffffffffffffffffffffffffffffff1673ffffffffffffffffffffffffffffffffffffffff163373ffffffffffffffffffffffffffffffffffffffff1614611345576040517f08c379a000000000000000000000000000000000000000000000000000000000815260040161133c9061359a565b60405180910390fd5b600061135082610fd4565b905060005b815181101561144e5760005b60028054905081101561143a57600281815481106113825761138161330d565b5b9060005260206000200154600a60008481526020019081526020016000205403611427577f236ef25c59db1c092b5a1df6c8523bd8028b948a5943cfac940c3169845dfb6a600a60008585815181106113de576113dd61330d565b5b60200260200101518152602001908152602001600020548484815181106114085761140761330d565b5b602002602001015160405161141e9291906135ba565b60405180910390a15b808061143290613233565b915050611361565b50808061144690613233565b915050611355565b505050565b60086020528060005260406000206000915090505481565b6000600580549050905090565b6114806122a8565b61148a6000612326565b565b61149581610b30565b6114d4576040517f08c379a00000000000000000000000000000000000000000000000000000000081526004016114cb9061362f565b60405180910390fd5b60006003600083815260200190815260200160002054905060018181548110611500576114ff61330d565b5b906000526020600020906005020160000160009054906101000a900473ffffffffffffffffffffffffffffffffffffffff1673ffffffffffffffffffffffffffffffffffffffff163373ffffffffffffffffffffffffffffffffffffffff16148061159d575061156e611b8d565b73ffffffffffffffffffffffffffffffffffffffff163373ffffffffffffffffffffffffffffffffffffffff16145b6115dc576040517f08c379a00000000000000000000000000000000000000000000000000000000081526004016115d39061370d565b60405180910390fd5b60018080805490506115ee91906131ff565b815481106115ff576115fe61330d565b5b9060005260206000209060050201600182815481106116215761162061330d565b5b90600052602060002090600502016000820160009054906101000a900473ffffffffffffffffffffffffffffffffffffffff168160000160006101000a81548173ffffffffffffffffffffffffffffffffffffffff021916908373ffffffffffffffffffffffffffffffffffffffff160217905550600182015481600101556002820154816002015560038201548160030155600482018160040190816116c89190613743565b5090505060018054806116de576116dd61343a565b5b6001900381819060005260206000209060050201600080820160006101000a81549073ffffffffffffffffffffffffffffffffffffffff02191690556001820160009055600282016000905560038201600090556004820160006117429190612460565b505090556002600160028054905061175a91906131ff565b8154811061176b5761176a61330d565b5b90600052602060002001546002828154811061178a5761178961330d565b5b906000526020600020018190555060028054806117aa576117a961343a565b5b600190038181906000526020600020016000905590557f284d601f5edf187107debaa43ba7901585fb4c85926a0ff565798ac1f9030a3a826040516117ef91906128a5565b60405180910390a15050565b600080600090505b6001805490508110156118c9578273ffffffffffffffffffffffffffffffffffffffff166001828154811061183b5761183a61330d565b5b906000526020600020906005020160000160009054906101000a900473ffffffffffffffffffffffffffffffffffffffff1673ffffffffffffffffffffffffffffffffffffffff16036118b6576001818154811061189c5761189b61330d565b5b9060005260206000209060050201600101549150506118cf565b80806118c190613233565b915050611803565b50600090505b919050565b60076000836bffffffffffffffffffffffff19166bffffffffffffffffffffffff1916815260200190815260200160002060009054906101000a900473ffffffffffffffffffffffffffffffffffffffff1673ffffffffffffffffffffffffffffffffffffffff163373ffffffffffffffffffffffffffffffffffffffff1614611993576040517f08c379a000000000000000000000000000000000000000000000000000000000815260040161198a9061389d565b60405180910390fd5b8060076000846bffffffffffffffffffffffff19166bffffffffffffffffffffffff1916815260200190815260200160002060006101000a81548173ffffffffffffffffffffffffffffffffffffffff021916908373ffffffffffffffffffffffffffffffffffffffff1602179055505050565b611a0f6122a8565b611a1881610b30565b611a57576040517f08c379a0000000000000000000000000000000000000000000000000000000008152600401611a4e9061362f565b60405180910390fd5b600060018281548110611a6d57611a6c61330d565b5b906000526020600020906005020190508060030154816002015410611ac7576040517f08c379a0000000000000000000000000000000000000000000000000000000008152600401611abe9061392f565b60405180910390fd5b6000600a60008581526020019081526020016000205414611b1d576040517f08c379a0000000000000000000000000000000000000000000000000000000008152600401611b14906139c1565b60405180910390fd5b81600a600085815260200190815260200160002081905550806002016000815480929190611b4a90613233565b91905055507fdffeaa5e1aa86d24dcb11d6c9bf68b6e684aebaf31e88f0d03a30cf89858abd68383604051611b809291906135ba565b60405180910390a1505050565b60008060009054906101000a900473ffffffffffffffffffffffffffffffffffffffff16905090565b60076020528060005260406000206000915054906101000a900473ffffffffffffffffffffffffffffffffffffffff1681565b600f6020528060005260406000206000915090505481565b60008060008060606001805490508610611c50576040517f08c379a0000000000000000000000000000000000000000000000000000000008152600401611c479061362f565b60405180910390fd5b600060018781548110611c6657611c6561330d565b5b906000526020600020906005020190508060000160009054906101000a900473ffffffffffffffffffffffffffffffffffffffff1681600101548260020154836003015484600401808054611cba90612f50565b80601f0160208091040260200160405190810160405280929190818152602001828054611ce690612f50565b8015611d335780601f10611d0857610100808354040283529160200191611d33565b820191906000526020600020905b815481529060010190602001808311611d1657829003601f168201915b50505050509050955095509550955095505091939590929450565b6000600a6000838152602001908152602001600020549050919050565b6000600180549050905090565b60008173ffffffffffffffffffffffffffffffffffffffff1660076000856bffffffffffffffffffffffff19166bffffffffffffffffffffffff1916815260200190815260200160002060009054906101000a900473ffffffffffffffffffffffffffffffffffffffff1673ffffffffffffffffffffffffffffffffffffffff1614905092915050565b611e0a6122a8565b611e1381610b30565b611e52576040517f08c379a0000000000000000000000000000000000000000000000000000000008152600401611e499061362f565b60405180910390fd5b80600a60008481526020019081526020016000205414611ea7576040517f08c379a0000000000000000000000000000000000000000000000000000000008152600401611e9e90613a53565b60405180910390fd5b600a600083815260200190815260200160002060009055600060018281548110611ed457611ed361330d565b5b90600052602060002090600502019050806002016000815480929190611ef990613469565b91905055507f236ef25c59db1c092b5a1df6c8523bd8028b948a5943cfac940c3169845dfb6a8383604051611f2f9291906135ba565b60405180910390a1505050565b600060076000836bffffffffffffffffffffffff19166bffffffffffffffffffffffff1916815260200190815260200160002060009054906101000a900473ffffffffffffffffffffffffffffffffffffffff1673ffffffffffffffffffffffffffffffffffffffff163373ffffffffffffffffffffffffffffffffffffffff1614611ffd576040517f08c379a0000000000000000000000000000000000000000000000000000000008152600401611ff490613ae5565b60405180910390fd5b60106000836bffffffffffffffffffffffff19166bffffffffffffffffffffffff19168152602001908152602001600020549050919050565b60606000600f60003373ffffffffffffffffffffffffffffffffffffffff1673ffffffffffffffffffffffffffffffffffffffff1681526020019081526020016000205467ffffffffffffffff8111156120935761209261253f565b5b6040519080825280602002602001820160405280156120c15781602001602082028036833780820191505090505b5090506000805b600680549050811015612211573373ffffffffffffffffffffffffffffffffffffffff1660076000600684815481106121045761210361330d565b5b9060005260206000200160009054906101000a900460601b6bffffffffffffffffffffffff19166bffffffffffffffffffffffff1916815260200190815260200160002060009054906101000a900473ffffffffffffffffffffffffffffffffffffffff1673ffffffffffffffffffffffffffffffffffffffff16036121fe57600681815481106121985761219761330d565b5b9060005260206000200160009054906101000a900460601b8383815181106121c3576121c261330d565b5b60200260200101906bffffffffffffffffffffffff191690816bffffffffffffffffffffffff19168152505081806121fa90613233565b9250505b808061220990613233565b9150506120c8565b50819250505090565b6122226122a8565b600073ffffffffffffffffffffffffffffffffffffffff168173ffffffffffffffffffffffffffffffffffffffff1603612291576040517f08c379a000000000000000000000000000000000000000000000000000000000815260040161228890613b77565b60405180910390fd5b61229a81612326565b50565b600060019050919050565b6122b06123ea565b73ffffffffffffffffffffffffffffffffffffffff166122ce611b8d565b73ffffffffffffffffffffffffffffffffffffffff1614612324576040517f08c379a000000000000000000000000000000000000000000000000000000000815260040161231b90613be3565b60405180910390fd5b565b60008060009054906101000a900473ffffffffffffffffffffffffffffffffffffffff169050816000806101000a81548173ffffffffffffffffffffffffffffffffffffffff021916908373ffffffffffffffffffffffffffffffffffffffff1602179055508173ffffffffffffffffffffffffffffffffffffffff168173ffffffffffffffffffffffffffffffffffffffff167f8be0079c531659141344cd1fd0a4f28419497f9722a3daafe3b4186f6b6457e060405160405180910390a35050565b600033905090565b82805482825590600052602060002090810192821561242e579160200282015b8281111561242d578251825591602001919060010190612412565b5b50905061243b91906124a0565b5090565b508054600082559060005260206000209081019061245d91906124a0565b50565b50805461246c90612f50565b6000825580601f1061247e575061249d565b601f01602090049060005260206000209081019061249c91906124a0565b5b50565b5b808211156124b95760008160009055506001016124a1565b5090565b6000604051905090565b600080fd5b600080fd5b60007fffffffffffffffffffffffffffffffffffffffff00000000000000000000000082169050919050565b612506816124d1565b811461251157600080fd5b50565b600081359050612523816124fd565b92915050565b600080fd5b6000601f19601f8301169050919050565b7f4e487b7100000000000000000000000000000000000000000000000000000000600052604160045260246000fd5b6125778261252e565b810181811067ffffffffffffffff821117156125965761259561253f565b5b80604052505050565b60006125a96124bd565b90506125b5828261256e565b919050565b600067ffffffffffffffff8211156125d5576125d461253f565b5b602082029050602081019050919050565b600080fd5b6000819050919050565b6125fe816125eb565b811461260957600080fd5b50565b60008135905061261b816125f5565b92915050565b600061263461262f846125ba565b61259f565b90508083825260208201905060208402830185811115612657576126566125e6565b5b835b81811015612680578061266c888261260c565b845260208401935050602081019050612659565b5050509392505050565b600082601f83011261269f5761269e612529565b5b81356126af848260208601612621565b91505092915050565b600080604083850312156126cf576126ce6124c7565b5b60006126dd85828601612514565b925050602083013567ffffffffffffffff8111156126fe576126fd6124cc565b5b61270a8582860161268a565b9150509250929050565b600073ffffffffffffffffffffffffffffffffffffffff82169050919050565b600061273f82612714565b9050919050565b61274f81612734565b811461275a57600080fd5b50565b60008135905061276c81612746565b92915050565b600080fd5b600067ffffffffffffffff8211156127925761279161253f565b5b61279b8261252e565b9050602081019050919050565b82818337600083830152505050565b60006127ca6127c584612777565b61259f565b9050828152602081018484840111156127e6576127e5612772565b5b6127f18482856127a8565b509392505050565b600082601f83011261280e5761280d612529565b5b813561281e8482602086016127b7565b91505092915050565b6000806000606084860312156128405761283f6124c7565b5b600061284e8682870161275d565b935050602061285f8682870161260c565b925050604084013567ffffffffffffffff8111156128805761287f6124cc565b5b61288c868287016127f9565b9150509250925092565b61289f816125eb565b82525050565b60006020820190506128ba6000830184612896565b92915050565b6000602082840312156128d6576128d56124c7565b5b60006128e484828501612514565b91505092915050565b600081519050919050565b600082825260208201905092915050565b6000819050602082019050919050565b612922816125eb565b82525050565b60006129348383612919565b60208301905092915050565b6000602082019050919050565b6000612958826128ed565b61296281856128f8565b935061296d83612909565b8060005b8381101561299e5781516129858882612928565b975061299083612940565b925050600181019050612971565b5085935050505092915050565b600060208201905081810360008301526129c5818461294d565b905092915050565b6000602082840312156129e3576129e26124c7565b5b60006129f18482850161260c565b91505092915050565b60008115159050919050565b612a0f816129fa565b82525050565b6000602082019050612a2a6000830184612a06565b92915050565b600081519050919050565b600082825260208201905092915050565b60005b83811015612a6a578082015181840152602081019050612a4f565b60008484015250505050565b6000612a8182612a30565b612a8b8185612a3b565b9350612a9b818560208601612a4c565b612aa48161252e565b840191505092915050565b60006020820190508181036000830152612ac98184612a76565b905092915050565b600060208284031215612ae757612ae66124c7565b5b6000612af58482850161275d565b91505092915050565b60008060408385031215612b1557612b146124c7565b5b6000612b2385828601612514565b9250506020612b348582860161275d565b9150509250929050565b60008060408385031215612b5557612b546124c7565b5b6000612b638582860161260c565b9250506020612b748582860161260c565b9150509250929050565b612b8781612734565b82525050565b6000602082019050612ba26000830184612b7e565b92915050565b600060a082019050612bbd6000830188612b7e565b612bca6020830187612896565b612bd76040830186612896565b612be46060830185612896565b8181036080830152612bf68184612a76565b90509695505050505050565b600081519050919050565b600082825260208201905092915050565b6000819050602082019050919050565b612c37816124d1565b82525050565b6000612c498383612c2e565b60208301905092915050565b6000602082019050919050565b6000612c6d82612c02565b612c778185612c0d565b9350612c8283612c1e565b8060005b83811015612cb3578151612c9a8882612c3d565b9750612ca583612c55565b925050600181019050612c86565b5085935050505092915050565b60006020820190508181036000830152612cda8184612c62565b905092915050565b7f43616c6c6572206973206e6f74207468652066696c65206f776e6572206f722060008201527f646f6573206e6f74206861766520636f6e73656e740000000000000000000000602082015250565b6000612d3e603583612a3b565b9150612d4982612ce2565b604082019050919050565b60006020820190508181036000830152612d6d81612d31565b9050919050565b7f536861726420494473206d757374206e6f7420626520656d7074790000000000600082015250565b6000612daa601b83612a3b565b9150612db582612d74565b602082019050919050565b60006020820190508181036000830152612dd981612d9d565b9050919050565b7f4e487b7100000000000000000000000000000000000000000000000000000000600052601160045260246000fd5b6000612e1a826125eb565b9150612e25836125eb565b9250828201905080821115612e3d57612e3c612de0565b5b92915050565b7f53746f726167652050726f7669646572732063616e206f6e6c7920626520616460008201527f6465642062792074686520636f6e7472616374206f776e65722773206164647260208201527f657373206f72207468652061646472657373206265696e67207265676973746560408201527f7265642100000000000000000000000000000000000000000000000000000000606082015250565b6000612eeb606483612a3b565b9150612ef682612e43565b608082019050919050565b60006020820190508181036000830152612f1a81612ede565b9050919050565b7f4e487b7100000000000000000000000000000000000000000000000000000000600052602260045260246000fd5b60006002820490506001821680612f6857607f821691505b602082108103612f7b57612f7a612f21565b5b50919050565b60008190508160005260206000209050919050565b60006020601f8301049050919050565b600082821b905092915050565b600060088302612fe37fffffffffffffffffffffffffffffffffffffffffffffffffffffffffffffffff82612fa6565b612fed8683612fa6565b95508019841693508086168417925050509392505050565b6000819050919050565b600061302a613025613020846125eb565b613005565b6125eb565b9050919050565b6000819050919050565b6130448361300f565b61305861305082613031565b848454612fb3565b825550505050565b600090565b61306d613060565b61307881848461303b565b505050565b5b8181101561309c57613091600082613065565b60018101905061307e565b5050565b601f8211156130e1576130b281612f81565b6130bb84612f96565b810160208510156130ca578190505b6130de6130d685612f96565b83018261307d565b50505b505050565b600082821c905092915050565b6000613104600019846008026130e6565b1980831691505092915050565b600061311d83836130f3565b9150826002028217905092915050565b61313682612a30565b67ffffffffffffffff81111561314f5761314e61253f565b5b6131598254612f50565b6131648282856130a0565b600060209050601f8311600181146131975760008415613185578287015190505b61318f8582613111565b8655506131f7565b601f1984166131a586612f81565b60005b828110156131cd578489015182556001820191506020850194506020810190506131a8565b868310156131ea57848901516131e6601f8916826130f3565b8355505b6001600288020188555050505b505050505050565b600061320a826125eb565b9150613215836125eb565b925082820390508181111561322d5761322c612de0565b5b92915050565b600061323e826125eb565b91507fffffffffffffffffffffffffffffffffffffffffffffffffffffffffffffffff82036132705761326f612de0565b5b600182019050919050565b7f4f6e6c79207468652046696c65204f776e65722063616e20616363657373206960008201527f7473207368617264732e00000000000000000000000000000000000000000000602082015250565b60006132d7602a83612a3b565b91506132e28261327b565b604082019050919050565b60006020820190508181036000830152613306816132ca565b9050919050565b7f4e487b7100000000000000000000000000000000000000000000000000000000600052603260045260246000fd5b7f5468652066696c6520646f6573206e6f742065786973742e0000000000000000600082015250565b6000613372601883612a3b565b915061337d8261333c565b602082019050919050565b600060208201905081810360008301526133a181613365565b9050919050565b7f4f6e6c7920746865206f776e65722063616e2064656c6574652074686520666960008201527f6c652e0000000000000000000000000000000000000000000000000000000000602082015250565b6000613404602383612a3b565b915061340f826133a8565b604082019050919050565b60006020820190508181036000830152613433816133f7565b9050919050565b7f4e487b7100000000000000000000000000000000000000000000000000000000600052603160045260246000fd5b6000613474826125eb565b91506000820361348757613486612de0565b5b600182039050919050565b61349b816124d1565b82525050565b60006020820190506134b66000830184613492565b92915050565b7f496e76616c69642073686172642049442e000000000000000000000000000000600082015250565b60006134f2601183612a3b565b91506134fd826134bc565b602082019050919050565b60006020820190508181036000830152613521816134e5565b9050919050565b7f4f6e6c792046696c65204f776e65722063616e2064656c65746520746865206660008201527f696c652100000000000000000000000000000000000000000000000000000000602082015250565b6000613584602483612a3b565b915061358f82613528565b604082019050919050565b600060208201905081810360008301526135b381613577565b9050919050565b60006040820190506135cf6000830185612896565b6135dc6020830184612896565b9392505050565b7f496e76616c6964206661726d6572206e6f64652049442e000000000000000000600082015250565b6000613619601783612a3b565b9150613624826135e3565b602082019050919050565b600060208201905081810360008301526136488161360c565b9050919050565b7f53746f726167652050726f7669646572732063616e206f6e6c7920626520726560008201527f6d6f7665642062792074686520636f6e7472616374206f776e6572277320616460208201527f6472657373206f72207468652061646472657373206265696e6720726567697360408201527f7465726564210000000000000000000000000000000000000000000000000000606082015250565b60006136f7606683612a3b565b91506137028261364f565b608082019050919050565b60006020820190508181036000830152613726816136ea565b9050919050565b60008154905061373c81612f50565b9050919050565b818103613751575050613829565b61375a8261372d565b67ffffffffffffffff8111156137735761377261253f565b5b61377d8254612f50565b6137888282856130a0565b6000601f8311600181146137b757600084156137a5578287015490505b6137af8582613111565b865550613822565b601f1984166137c587612f81565b96506137d086612f81565b60005b828110156137f8578489015482556001820191506001850194506020810190506137d3565b868310156138155784890154613811601f8916826130f3565b8355505b6001600288020188555050505b5050505050505b565b7f4f6e6c79207468652046696c65204f776e65722063616e20676976652061776160008201527f79206f776e657273686970206f662074686569722066696c6500000000000000602082015250565b6000613887603983612a3b565b91506138928261382b565b604082019050919050565b600060208201905081810360008301526138b68161387a565b9050919050565b7f4661726d6572206861732072656163686564206d6178696d756d2073746f726160008201527f67652063617061636974792e0000000000000000000000000000000000000000602082015250565b6000613919602c83612a3b565b9150613924826138bd565b604082019050919050565b600060208201905081810360008301526139488161390c565b9050919050565b7f536861726420697320616c72656164792061737369676e656420746f2061206660008201527f61726d65722e0000000000000000000000000000000000000000000000000000602082015250565b60006139ab602683612a3b565b91506139b68261394f565b604082019050919050565b600060208201905081810360008301526139da8161399e565b9050919050565b7f5368617264206973206e6f742061737369676e656420746f207468652073706560008201527f636966696564206661726d65722e000000000000000000000000000000000000602082015250565b6000613a3d602e83612a3b565b9150613a48826139e1565b604082019050919050565b60006020820190508181036000830152613a6c81613a30565b9050919050565b7f4f6e6c79207468652046696c65204f776e65722063616e20636865636b206e7560008201527f6d626572206f6620736861726473000000000000000000000000000000000000602082015250565b6000613acf602e83612a3b565b9150613ada82613a73565b604082019050919050565b60006020820190508181036000830152613afe81613ac2565b9050919050565b7f4f776e61626c653a206e6577206f776e657220697320746865207a65726f206160008201527f6464726573730000000000000000000000000000000000000000000000000000602082015250565b6000613b61602683612a3b565b9150613b6c82613b05565b604082019050919050565b60006020820190508181036000830152613b9081613b54565b9050919050565b7f4f776e61626c653a2063616c6c6572206973206e6f7420746865206f776e6572600082015250565b6000613bcd602083612a3b565b9150613bd882613b97565b602082019050919050565b60006020820190508181036000830152613bfc81613bc0565b905091905056fea2646970667358221220b6ed729337329ebdcc24c8ca2d9afc888aa8357daa3da37877130dc92ffbdb3664736f6c63430008120033",
					"opcodes": "PUSH1 0x80 PUSH1 0x40 MSTORE PUSH1 0x0 PUSH1 0x4 SSTORE CALLVALUE DUP1 ISZERO PUSH3 0x16 JUMPI PUSH1 0x0 DUP1 REVERT JUMPDEST POP PUSH3 0x37 PUSH3 0x2B PUSH3 0x3D PUSH1 0x20 SHL PUSH1 0x20 SHR JUMP JUMPDEST PUSH3 0x45 PUSH1 0x20 SHL PUSH1 0x20 SHR JUMP JUMPDEST PUSH3 0x109 JUMP JUMPDEST PUSH1 0x0 CALLER SWAP1 POP SWAP1 JUMP JUMPDEST PUSH1 0x0 DUP1 PUSH1 0x0 SWAP1 SLOAD SWAP1 PUSH2 0x100 EXP SWAP1 DIV PUSH20 0xFFFFFFFFFFFFFFFFFFFFFFFFFFFFFFFFFFFFFFFF AND SWAP1 POP DUP2 PUSH1 0x0 DUP1 PUSH2 0x100 EXP DUP2 SLOAD DUP2 PUSH20 0xFFFFFFFFFFFFFFFFFFFFFFFFFFFFFFFFFFFFFFFF MUL NOT AND SWAP1 DUP4 PUSH20 0xFFFFFFFFFFFFFFFFFFFFFFFFFFFFFFFFFFFFFFFF AND MUL OR SWAP1 SSTORE POP DUP2 PUSH20 0xFFFFFFFFFFFFFFFFFFFFFFFFFFFFFFFFFFFFFFFF AND DUP2 PUSH20 0xFFFFFFFFFFFFFFFFFFFFFFFFFFFFFFFFFFFFFFFF AND PUSH32 0x8BE0079C531659141344CD1FD0A4F28419497F9722A3DAAFE3B4186F6B6457E0 PUSH1 0x40 MLOAD PUSH1 0x40 MLOAD DUP1 SWAP2 SUB SWAP1 LOG3 POP POP JUMP JUMPDEST PUSH2 0x3C39 DUP1 PUSH3 0x119 PUSH1 0x0 CODECOPY PUSH1 0x0 RETURN INVALID PUSH1 0x80 PUSH1 0x40 MSTORE CALLVALUE DUP1 ISZERO PUSH2 0x10 JUMPI PUSH1 0x0 DUP1 REVERT JUMPDEST POP PUSH1 0x4 CALLDATASIZE LT PUSH2 0x1C4 JUMPI PUSH1 0x0 CALLDATALOAD PUSH1 0xE0 SHR DUP1 PUSH4 0x828E6F1A GT PUSH2 0xF9 JUMPI DUP1 PUSH4 0xB4FE4FA6 GT PUSH2 0x97 JUMPI DUP1 PUSH4 0xD5FAA8D1 GT PUSH2 0x71 JUMPI DUP1 PUSH4 0xD5FAA8D1 EQ PUSH2 0x565 JUMPI DUP1 PUSH4 0xE0400F74 EQ PUSH2 0x581 JUMPI DUP1 PUSH4 0xE270D1C1 EQ PUSH2 0x5B1 JUMPI DUP1 PUSH4 0xF2FDE38B EQ PUSH2 0x5CF JUMPI PUSH2 0x1C4 JUMP JUMPDEST DUP1 PUSH4 0xB4FE4FA6 EQ PUSH2 0x4E7 JUMPI DUP1 PUSH4 0xC4A8B5D5 EQ PUSH2 0x517 JUMPI DUP1 PUSH4 0xC759BDBE EQ PUSH2 0x535 JUMPI PUSH2 0x1C4 JUMP JUMPDEST DUP1 PUSH4 0x8DA5CB5B GT PUSH2 0xD3 JUMPI DUP1 PUSH4 0x8DA5CB5B EQ PUSH2 0x435 JUMPI DUP1 PUSH4 0x9650B0A5 EQ PUSH2 0x453 JUMPI DUP1 PUSH4 0xAAD9EB3D EQ PUSH2 0x483 JUMPI DUP1 PUSH4 0xAD0CAA76 EQ PUSH2 0x4B3 JUMPI PUSH2 0x1C4 JUMP JUMPDEST DUP1 PUSH4 0x828E6F1A EQ PUSH2 0x3CD JUMPI DUP1 PUSH4 0x8381D799 EQ PUSH2 0x3FD JUMPI DUP1 PUSH4 0x8A78E46E EQ PUSH2 0x419 JUMPI PUSH2 0x1C4 JUMP JUMPDEST DUP1 PUSH4 0x45246F8E GT PUSH2 0x166 JUMPI DUP1 PUSH4 0x636943B3 GT PUSH2 0x140 JUMPI DUP1 PUSH4 0x636943B3 EQ PUSH2 0x359 JUMPI DUP1 PUSH4 0x6773042B EQ PUSH2 0x389 JUMPI DUP1 PUSH4 0x715018A6 EQ PUSH2 0x3A7 JUMPI DUP1 PUSH4 0x8258D46E EQ PUSH2 0x3B1 JUMPI PUSH2 0x1C4 JUMP JUMPDEST DUP1 PUSH4 0x45246F8E EQ PUSH2 0x2F1 JUMPI DUP1 PUSH4 0x473F8928 EQ PUSH2 0x30D JUMPI DUP1 PUSH4 0x4F83B0EA EQ PUSH2 0x33D JUMPI PUSH2 0x1C4 JUMP JUMPDEST DUP1 PUSH4 0x29EAA31B GT PUSH2 0x1A2 JUMPI DUP1 PUSH4 0x29EAA31B EQ PUSH2 0x245 JUMPI DUP1 PUSH4 0x2DE1468E EQ PUSH2 0x275 JUMPI DUP1 PUSH4 0x4039DF79 EQ PUSH2 0x291 JUMPI DUP1 PUSH4 0x439EC341 EQ PUSH2 0x2C1 JUMPI PUSH2 0x1C4 JUMP JUMPDEST DUP1 PUSH4 0x103F90A3 EQ PUSH2 0x1C9 JUMPI DUP1 PUSH4 0x189C4460 EQ PUSH2 0x1E5 JUMPI DUP1 PUSH4 0x28D305AB EQ PUSH2 0x215 JUMPI JUMPDEST PUSH1 0x0 DUP1 REVERT JUMPDEST PUSH2 0x1E3 PUSH1 0x4 DUP1 CALLDATASIZE SUB DUP2 ADD SWAP1 PUSH2 0x1DE SWAP2 SWAP1 PUSH2 0x26B8 JUMP JUMPDEST PUSH2 0x5EB JUMP JUMPDEST STOP JUMPDEST PUSH2 0x1FF PUSH1 0x4 DUP1 CALLDATASIZE SUB DUP2 ADD SWAP1 PUSH2 0x1FA SWAP2 SWAP1 PUSH2 0x2827 JUMP JUMPDEST PUSH2 0x794 JUMP JUMPDEST PUSH1 0x40 MLOAD PUSH2 0x20C SWAP2 SWAP1 PUSH2 0x28A5 JUMP JUMPDEST PUSH1 0x40 MLOAD DUP1 SWAP2 SUB SWAP1 RETURN JUMPDEST PUSH2 0x22F PUSH1 0x4 DUP1 CALLDATASIZE SUB DUP2 ADD SWAP1 PUSH2 0x22A SWAP2 SWAP1 PUSH2 0x28C0 JUMP JUMPDEST PUSH2 0x9E8 JUMP JUMPDEST PUSH1 0x40 MLOAD PUSH2 0x23C SWAP2 SWAP1 PUSH2 0x29AB JUMP JUMPDEST PUSH1 0x40 MLOAD DUP1 SWAP2 SUB SWAP1 RETURN JUMPDEST PUSH2 0x25F PUSH1 0x4 DUP1 CALLDATASIZE SUB DUP2 ADD SWAP1 PUSH2 0x25A SWAP2 SWAP1 PUSH2 0x29CD JUMP JUMPDEST PUSH2 0xB30 JUMP JUMPDEST PUSH1 0x40 MLOAD PUSH2 0x26C SWAP2 SWAP1 PUSH2 0x2A15 JUMP JUMPDEST PUSH1 0x40 MLOAD DUP1 SWAP2 SUB SWAP1 RETURN JUMPDEST PUSH2 0x28F PUSH1 0x4 DUP1 CALLDATASIZE SUB DUP2 ADD SWAP1 PUSH2 0x28A SWAP2 SWAP1 PUSH2 0x28C0 JUMP JUMPDEST PUSH2 0xB92 JUMP JUMPDEST STOP JUMPDEST PUSH2 0x2AB PUSH1 0x4 DUP1 CALLDATASIZE SUB DUP2 ADD SWAP1 PUSH2 0x2A6 SWAP2 SWAP1 PUSH2 0x29CD JUMP JUMPDEST PUSH2 0xED6 JUMP JUMPDEST PUSH1 0x40 MLOAD PUSH2 0x2B8 SWAP2 SWAP1 PUSH2 0x2AAF JUMP JUMPDEST PUSH1 0x40 MLOAD DUP1 SWAP2 SUB SWAP1 RETURN JUMPDEST PUSH2 0x2DB PUSH1 0x4 DUP1 CALLDATASIZE SUB DUP2 ADD SWAP1 PUSH2 0x2D6 SWAP2 SWAP1 PUSH2 0x28C0 JUMP JUMPDEST PUSH2 0xFD4 JUMP JUMPDEST PUSH1 0x40 MLOAD PUSH2 0x2E8 SWAP2 SWAP1 PUSH2 0x29AB JUMP JUMPDEST PUSH1 0x40 MLOAD DUP1 SWAP2 SUB SWAP1 RETURN JUMPDEST PUSH2 0x30B PUSH1 0x4 DUP1 CALLDATASIZE SUB DUP2 ADD SWAP1 PUSH2 0x306 SWAP2 SWAP1 PUSH2 0x28C0 JUMP JUMPDEST PUSH2 0x105D JUMP JUMPDEST STOP JUMPDEST PUSH2 0x327 PUSH1 0x4 DUP1 CALLDATASIZE SUB DUP2 ADD SWAP1 PUSH2 0x322 SWAP2 SWAP1 PUSH2 0x28C0 JUMP JUMPDEST PUSH2 0x11F9 JUMP JUMPDEST PUSH1 0x40 MLOAD PUSH2 0x334 SWAP2 SWAP1 PUSH2 0x28A5 JUMP JUMPDEST PUSH1 0x40 MLOAD DUP1 SWAP2 SUB SWAP1 RETURN JUMPDEST PUSH2 0x357 PUSH1 0x4 DUP1 CALLDATASIZE SUB DUP2 ADD SWAP1 PUSH2 0x352 SWAP2 SWAP1 PUSH2 0x28C0 JUMP JUMPDEST PUSH2 0x1286 JUMP JUMPDEST STOP JUMPDEST PUSH2 0x373 PUSH1 0x4 DUP1 CALLDATASIZE SUB DUP2 ADD SWAP1 PUSH2 0x36E SWAP2 SWAP1 PUSH2 0x28C0 JUMP JUMPDEST PUSH2 0x1453 JUMP JUMPDEST PUSH1 0x40 MLOAD PUSH2 0x380 SWAP2 SWAP1 PUSH2 0x28A5 JUMP JUMPDEST PUSH1 0x40 MLOAD DUP1 SWAP2 SUB SWAP1 RETURN JUMPDEST PUSH2 0x391 PUSH2 0x146B JUMP JUMPDEST PUSH1 0x40 MLOAD PUSH2 0x39E SWAP2 SWAP1 PUSH2 0x28A5 JUMP JUMPDEST PUSH1 0x40 MLOAD DUP1 SWAP2 SUB SWAP1 RETURN JUMPDEST PUSH2 0x3AF PUSH2 0x1478 JUMP JUMPDEST STOP JUMPDEST PUSH2 0x3CB PUSH1 0x4 DUP1 CALLDATASIZE SUB DUP2 ADD SWAP1 PUSH2 0x3C6 SWAP2 SWAP1 PUSH2 0x29CD JUMP JUMPDEST PUSH2 0x148C JUMP JUMPDEST STOP JUMPDEST PUSH2 0x3E7 PUSH1 0x4 DUP1 CALLDATASIZE SUB DUP2 ADD SWAP1 PUSH2 0x3E2 SWAP2 SWAP1 PUSH2 0x2AD1 JUMP JUMPDEST PUSH2 0x17FB JUMP JUMPDEST PUSH1 0x40 MLOAD PUSH2 0x3F4 SWAP2 SWAP1 PUSH2 0x28A5 JUMP JUMPDEST PUSH1 0x40 MLOAD DUP1 SWAP2 SUB SWAP1 RETURN JUMPDEST PUSH2 0x417 PUSH1 0x4 DUP1 CALLDATASIZE SUB DUP2 ADD SWAP1 PUSH2 0x412 SWAP2 SWAP1 PUSH2 0x2AFE JUMP JUMPDEST PUSH2 0x18D4 JUMP JUMPDEST STOP JUMPDEST PUSH2 0x433 PUSH1 0x4 DUP1 CALLDATASIZE SUB DUP2 ADD SWAP1 PUSH2 0x42E SWAP2 SWAP1 PUSH2 0x2B3E JUMP JUMPDEST PUSH2 0x1A07 JUMP JUMPDEST STOP JUMPDEST PUSH2 0x43D PUSH2 0x1B8D JUMP JUMPDEST PUSH1 0x40 MLOAD PUSH2 0x44A SWAP2 SWAP1 PUSH2 0x2B8D JUMP JUMPDEST PUSH1 0x40 MLOAD DUP1 SWAP2 SUB SWAP1 RETURN JUMPDEST PUSH2 0x46D PUSH1 0x4 DUP1 CALLDATASIZE SUB DUP2 ADD SWAP1 PUSH2 0x468 SWAP2 SWAP1 PUSH2 0x28C0 JUMP JUMPDEST PUSH2 0x1BB6 JUMP JUMPDEST PUSH1 0x40 MLOAD PUSH2 0x47A SWAP2 SWAP1 PUSH2 0x2B8D JUMP JUMPDEST PUSH1 0x40 MLOAD DUP1 SWAP2 SUB SWAP1 RETURN JUMPDEST PUSH2 0x49D PUSH1 0x4 DUP1 CALLDATASIZE SUB DUP2 ADD SWAP1 PUSH2 0x498 SWAP2 SWAP1 PUSH2 0x2AD1 JUMP JUMPDEST PUSH2 0x1BE9 JUMP JUMPDEST PUSH1 0x40 MLOAD PUSH2 0x4AA SWAP2 SWAP1 PUSH2 0x28A5 JUMP JUMPDEST PUSH1 0x40 MLOAD DUP1 SWAP2 SUB SWAP1 RETURN JUMPDEST PUSH2 0x4CD PUSH1 0x4 DUP1 CALLDATASIZE SUB DUP2 ADD SWAP1 PUSH2 0x4C8 SWAP2 SWAP1 PUSH2 0x29CD JUMP JUMPDEST PUSH2 0x1C01 JUMP JUMPDEST PUSH1 0x40 MLOAD PUSH2 0x4DE SWAP6 SWAP5 SWAP4 SWAP3 SWAP2 SWAP1 PUSH2 0x2BA8 JUMP JUMPDEST PUSH1 0x40 MLOAD DUP1 SWAP2 SUB SWAP1 RETURN JUMPDEST PUSH2 0x501 PUSH1 0x4 DUP1 CALLDATASIZE SUB DUP2 ADD SWAP1 PUSH2 0x4FC SWAP2 SWAP1 PUSH2 0x29CD JUMP JUMPDEST PUSH2 0x1D4E JUMP JUMPDEST PUSH1 0x40 MLOAD PUSH2 0x50E SWAP2 SWAP1 PUSH2 0x28A5 JUMP JUMPDEST PUSH1 0x40 MLOAD DUP1 SWAP2 SUB SWAP1 RETURN JUMPDEST PUSH2 0x51F PUSH2 0x1D6B JUMP JUMPDEST PUSH1 0x40 MLOAD PUSH2 0x52C SWAP2 SWAP1 PUSH2 0x28A5 JUMP JUMPDEST PUSH1 0x40 MLOAD DUP1 SWAP2 SUB SWAP1 RETURN JUMPDEST PUSH2 0x54F PUSH1 0x4 DUP1 CALLDATASIZE SUB DUP2 ADD SWAP1 PUSH2 0x54A SWAP2 SWAP1 PUSH2 0x2AFE JUMP JUMPDEST PUSH2 0x1D78 JUMP JUMPDEST PUSH1 0x40 MLOAD PUSH2 0x55C SWAP2 SWAP1 PUSH2 0x2A15 JUMP JUMPDEST PUSH1 0x40 MLOAD DUP1 SWAP2 SUB SWAP1 RETURN JUMPDEST PUSH2 0x57F PUSH1 0x4 DUP1 CALLDATASIZE SUB DUP2 ADD SWAP1 PUSH2 0x57A SWAP2 SWAP1 PUSH2 0x2B3E JUMP JUMPDEST PUSH2 0x1E02 JUMP JUMPDEST STOP JUMPDEST PUSH2 0x59B PUSH1 0x4 DUP1 CALLDATASIZE SUB DUP2 ADD SWAP1 PUSH2 0x596 SWAP2 SWAP1 PUSH2 0x28C0 JUMP JUMPDEST PUSH2 0x1F3C JUMP JUMPDEST PUSH1 0x40 MLOAD PUSH2 0x5A8 SWAP2 SWAP1 PUSH2 0x28A5 JUMP JUMPDEST PUSH1 0x40 MLOAD DUP1 SWAP2 SUB SWAP1 RETURN JUMPDEST PUSH2 0x5B9 PUSH2 0x2036 JUMP JUMPDEST PUSH1 0x40 MLOAD PUSH2 0x5C6 SWAP2 SWAP1 PUSH2 0x2CC0 JUMP JUMPDEST PUSH1 0x40 MLOAD DUP1 SWAP2 SUB SWAP1 RETURN JUMPDEST PUSH2 0x5E9 PUSH1 0x4 DUP1 CALLDATASIZE SUB DUP2 ADD SWAP1 PUSH2 0x5E4 SWAP2 SWAP1 PUSH2 0x2AD1 JUMP JUMPDEST PUSH2 0x221A JUMP JUMPDEST STOP JUMPDEST DUP2 PUSH1 0x7 PUSH1 0x0 DUP3 PUSH12 0xFFFFFFFFFFFFFFFFFFFFFFFF NOT AND PUSH12 0xFFFFFFFFFFFFFFFFFFFFFFFF NOT AND DUP2 MSTORE PUSH1 0x20 ADD SWAP1 DUP2 MSTORE PUSH1 0x20 ADD PUSH1 0x0 KECCAK256 PUSH1 0x0 SWAP1 SLOAD SWAP1 PUSH2 0x100 EXP SWAP1 DIV PUSH20 0xFFFFFFFFFFFFFFFFFFFFFFFFFFFFFFFFFFFFFFFF AND PUSH20 0xFFFFFFFFFFFFFFFFFFFFFFFFFFFFFFFFFFFFFFFF AND CALLER PUSH20 0xFFFFFFFFFFFFFFFFFFFFFFFFFFFFFFFFFFFFFFFF AND EQ DUP1 PUSH2 0x67D JUMPI POP PUSH2 0x67C DUP2 CALLER PUSH2 0x1D78 JUMP JUMPDEST JUMPDEST PUSH2 0x6BC JUMPI PUSH1 0x40 MLOAD PUSH32 0x8C379A000000000000000000000000000000000000000000000000000000000 DUP2 MSTORE PUSH1 0x4 ADD PUSH2 0x6B3 SWAP1 PUSH2 0x2D54 JUMP JUMPDEST PUSH1 0x40 MLOAD DUP1 SWAP2 SUB SWAP1 REVERT JUMPDEST PUSH1 0x0 DUP3 MLOAD GT PUSH2 0x700 JUMPI PUSH1 0x40 MLOAD PUSH32 0x8C379A000000000000000000000000000000000000000000000000000000000 DUP2 MSTORE PUSH1 0x4 ADD PUSH2 0x6F7 SWAP1 PUSH2 0x2DC0 JUMP JUMPDEST PUSH1 0x40 MLOAD DUP1 SWAP2 SUB SWAP1 REVERT JUMPDEST DUP2 PUSH1 0xB PUSH1 0x0 DUP6 PUSH12 0xFFFFFFFFFFFFFFFFFFFFFFFF NOT AND PUSH12 0xFFFFFFFFFFFFFFFFFFFFFFFF NOT AND DUP2 MSTORE PUSH1 0x20 ADD SWAP1 DUP2 MSTORE PUSH1 0x20 ADD PUSH1 0x0 KECCAK256 SWAP1 DUP1 MLOAD SWAP1 PUSH1 0x20 ADD SWAP1 PUSH2 0x745 SWAP3 SWAP2 SWAP1 PUSH2 0x23F2 JUMP JUMPDEST POP DUP2 MLOAD PUSH1 0x10 PUSH1 0x0 DUP6 PUSH12 0xFFFFFFFFFFFFFFFFFFFFFFFF NOT AND PUSH12 0xFFFFFFFFFFFFFFFFFFFFFFFF NOT AND DUP2 MSTORE PUSH1 0x20 ADD SWAP1 DUP2 MSTORE PUSH1 0x20 ADD PUSH1 0x0 KECCAK256 PUSH1 0x0 DUP3 DUP3 SLOAD PUSH2 0x788 SWAP2 SWAP1 PUSH2 0x2E0F JUMP JUMPDEST SWAP3 POP POP DUP2 SWAP1 SSTORE POP POP POP POP JUMP JUMPDEST PUSH1 0x0 DUP4 PUSH20 0xFFFFFFFFFFFFFFFFFFFFFFFFFFFFFFFFFFFFFFFF AND CALLER PUSH20 0xFFFFFFFFFFFFFFFFFFFFFFFFFFFFFFFFFFFFFFFF AND EQ DUP1 PUSH2 0x802 JUMPI POP PUSH2 0x7D3 PUSH2 0x1B8D JUMP JUMPDEST PUSH20 0xFFFFFFFFFFFFFFFFFFFFFFFFFFFFFFFFFFFFFFFF AND CALLER PUSH20 0xFFFFFFFFFFFFFFFFFFFFFFFFFFFFFFFFFFFFFFFF AND EQ JUMPDEST PUSH2 0x841 JUMPI PUSH1 0x40 MLOAD PUSH32 0x8C379A000000000000000000000000000000000000000000000000000000000 DUP2 MSTORE PUSH1 0x4 ADD PUSH2 0x838 SWAP1 PUSH2 0x2F01 JUMP JUMPDEST PUSH1 0x40 MLOAD DUP1 SWAP2 SUB SWAP1 REVERT JUMPDEST PUSH1 0x0 PUSH1 0x40 MLOAD DUP1 PUSH1 0xA0 ADD PUSH1 0x40 MSTORE DUP1 DUP7 PUSH20 0xFFFFFFFFFFFFFFFFFFFFFFFFFFFFFFFFFFFFFFFF AND DUP2 MSTORE PUSH1 0x20 ADD PUSH1 0x4 SLOAD DUP2 MSTORE PUSH1 0x20 ADD PUSH1 0x0 DUP2 MSTORE PUSH1 0x20 ADD DUP6 DUP2 MSTORE PUSH1 0x20 ADD DUP5 DUP2 MSTORE POP SWAP1 POP PUSH1 0x1 DUP2 SWAP1 DUP1 PUSH1 0x1 DUP2 SLOAD ADD DUP1 DUP3 SSTORE DUP1 SWAP2 POP POP PUSH1 0x1 SWAP1 SUB SWAP1 PUSH1 0x0 MSTORE PUSH1 0x20 PUSH1 0x0 KECCAK256 SWAP1 PUSH1 0x5 MUL ADD PUSH1 0x0 SWAP1 SWAP2 SWAP1 SWAP2 SWAP1 SWAP2 POP PUSH1 0x0 DUP3 ADD MLOAD DUP2 PUSH1 0x0 ADD PUSH1 0x0 PUSH2 0x100 EXP DUP2 SLOAD DUP2 PUSH20 0xFFFFFFFFFFFFFFFFFFFFFFFFFFFFFFFFFFFFFFFF MUL NOT AND SWAP1 DUP4 PUSH20 0xFFFFFFFFFFFFFFFFFFFFFFFFFFFFFFFFFFFFFFFF AND MUL OR SWAP1 SSTORE POP PUSH1 0x20 DUP3 ADD MLOAD DUP2 PUSH1 0x1 ADD SSTORE PUSH1 0x40 DUP3 ADD MLOAD DUP2 PUSH1 0x2 ADD SSTORE PUSH1 0x60 DUP3 ADD MLOAD DUP2 PUSH1 0x3 ADD SSTORE PUSH1 0x80 DUP3 ADD MLOAD DUP2 PUSH1 0x4 ADD SWAP1 DUP2 PUSH2 0x92B SWAP2 SWAP1 PUSH2 0x312D JUMP JUMPDEST POP POP POP PUSH1 0x2 DUP2 PUSH1 0x20 ADD MLOAD SWAP1 DUP1 PUSH1 0x1 DUP2 SLOAD ADD DUP1 DUP3 SSTORE DUP1 SWAP2 POP POP PUSH1 0x1 SWAP1 SUB SWAP1 PUSH1 0x0 MSTORE PUSH1 0x20 PUSH1 0x0 KECCAK256 ADD PUSH1 0x0 SWAP1 SWAP2 SWAP1 SWAP2 SWAP1 SWAP2 POP SSTORE PUSH1 0x0 PUSH1 0x1 DUP1 DUP1 SLOAD SWAP1 POP PUSH2 0x96E SWAP2 SWAP1 PUSH2 0x31FF JUMP JUMPDEST SWAP1 POP DUP1 PUSH1 0x3 PUSH1 0x0 DUP5 PUSH1 0x20 ADD MLOAD DUP2 MSTORE PUSH1 0x20 ADD SWAP1 DUP2 MSTORE PUSH1 0x20 ADD PUSH1 0x0 KECCAK256 DUP2 SWAP1 SSTORE POP PUSH1 0x4 PUSH1 0x0 DUP2 SLOAD DUP1 SWAP3 SWAP2 SWAP1 PUSH2 0x99F SWAP1 PUSH2 0x3233 JUMP JUMPDEST SWAP2 SWAP1 POP SSTORE POP PUSH32 0x2DDB9351DE05FE32BD5D30DE5C77B03A2606011E3E3680EBA8639FB446C54925 DUP3 PUSH1 0x20 ADD MLOAD PUSH1 0x40 MLOAD PUSH2 0x9D7 SWAP2 SWAP1 PUSH2 0x28A5 JUMP JUMPDEST PUSH1 0x40 MLOAD DUP1 SWAP2 SUB SWAP1 LOG1 POP POP SWAP4 SWAP3 POP POP POP JUMP JUMPDEST PUSH1 0x60 PUSH1 0x7 PUSH1 0x0 DUP4 PUSH12 0xFFFFFFFFFFFFFFFFFFFFFFFF NOT AND PUSH12 0xFFFFFFFFFFFFFFFFFFFFFFFF NOT AND DUP2 MSTORE PUSH1 0x20 ADD SWAP1 DUP2 MSTORE PUSH1 0x20 ADD PUSH1 0x0 KECCAK256 PUSH1 0x0 SWAP1 SLOAD SWAP1 PUSH2 0x100 EXP SWAP1 DIV PUSH20 0xFFFFFFFFFFFFFFFFFFFFFFFFFFFFFFFFFFFFFFFF AND PUSH20 0xFFFFFFFFFFFFFFFFFFFFFFFFFFFFFFFFFFFFFFFF AND CALLER PUSH20 0xFFFFFFFFFFFFFFFFFFFFFFFFFFFFFFFFFFFFFFFF AND EQ PUSH2 0xAA9 JUMPI PUSH1 0x40 MLOAD PUSH32 0x8C379A000000000000000000000000000000000000000000000000000000000 DUP2 MSTORE PUSH1 0x4 ADD PUSH2 0xAA0 SWAP1 PUSH2 0x32ED JUMP JUMPDEST PUSH1 0x40 MLOAD DUP1 SWAP2 SUB SWAP1 REVERT JUMPDEST PUSH1 0xB PUSH1 0x0 DUP4 PUSH12 0xFFFFFFFFFFFFFFFFFFFFFFFF NOT AND PUSH12 0xFFFFFFFFFFFFFFFFFFFFFFFF NOT AND DUP2 MSTORE PUSH1 0x20 ADD SWAP1 DUP2 MSTORE PUSH1 0x20 ADD PUSH1 0x0 KECCAK256 DUP1 SLOAD DUP1 PUSH1 0x20 MUL PUSH1 0x20 ADD PUSH1 0x40 MLOAD SWAP1 DUP2 ADD PUSH1 0x40 MSTORE DUP1 SWAP3 SWAP2 SWAP1 DUP2 DUP2 MSTORE PUSH1 0x20 ADD DUP3 DUP1 SLOAD DUP1 ISZERO PUSH2 0xB24 JUMPI PUSH1 0x20 MUL DUP3 ADD SWAP2 SWAP1 PUSH1 0x0 MSTORE PUSH1 0x20 PUSH1 0x0 KECCAK256 SWAP1 JUMPDEST DUP2 SLOAD DUP2 MSTORE PUSH1 0x20 ADD SWAP1 PUSH1 0x1 ADD SWAP1 DUP1 DUP4 GT PUSH2 0xB10 JUMPI JUMPDEST POP POP POP POP POP SWAP1 POP SWAP2 SWAP1 POP JUMP JUMPDEST PUSH1 0x0 DUP1 PUSH1 0x0 SWAP1 POP JUMPDEST PUSH1 0x2 DUP1 SLOAD SWAP1 POP DUP2 LT ISZERO PUSH2 0xB87 JUMPI DUP3 PUSH1 0x2 DUP3 DUP2 SLOAD DUP2 LT PUSH2 0xB5A JUMPI PUSH2 0xB59 PUSH2 0x330D JUMP JUMPDEST JUMPDEST SWAP1 PUSH1 0x0 MSTORE PUSH1 0x20 PUSH1 0x0 KECCAK256 ADD SLOAD SUB PUSH2 0xB74 JUMPI PUSH1 0x1 SWAP2 POP POP PUSH2 0xB8D JUMP JUMPDEST DUP1 DUP1 PUSH2 0xB7F SWAP1 PUSH2 0x3233 JUMP JUMPDEST SWAP2 POP POP PUSH2 0xB38 JUMP JUMPDEST POP PUSH1 0x0 SWAP1 POP JUMPDEST SWAP2 SWAP1 POP JUMP JUMPDEST PUSH1 0x1 PUSH2 0xB9D DUP3 PUSH2 0x229D JUMP JUMPDEST EQ PUSH2 0xBDD JUMPI PUSH1 0x40 MLOAD PUSH32 0x8C379A000000000000000000000000000000000000000000000000000000000 DUP2 MSTORE PUSH1 0x4 ADD PUSH2 0xBD4 SWAP1 PUSH2 0x3388 JUMP JUMPDEST PUSH1 0x40 MLOAD DUP1 SWAP2 SUB SWAP1 REVERT JUMPDEST CALLER PUSH20 0xFFFFFFFFFFFFFFFFFFFFFFFFFFFFFFFFFFFFFFFF AND PUSH1 0x7 PUSH1 0x0 DUP4 PUSH12 0xFFFFFFFFFFFFFFFFFFFFFFFF NOT AND PUSH12 0xFFFFFFFFFFFFFFFFFFFFFFFF NOT AND DUP2 MSTORE PUSH1 0x20 ADD SWAP1 DUP2 MSTORE PUSH1 0x20 ADD PUSH1 0x0 KECCAK256 PUSH1 0x0 SWAP1 SLOAD SWAP1 PUSH2 0x100 EXP SWAP1 DIV PUSH20 0xFFFFFFFFFFFFFFFFFFFFFFFFFFFFFFFFFFFFFFFF AND PUSH20 0xFFFFFFFFFFFFFFFFFFFFFFFFFFFFFFFFFFFFFFFF AND EQ PUSH2 0xC9C JUMPI PUSH1 0x40 MLOAD PUSH32 0x8C379A000000000000000000000000000000000000000000000000000000000 DUP2 MSTORE PUSH1 0x4 ADD PUSH2 0xC93 SWAP1 PUSH2 0x341A JUMP JUMPDEST PUSH1 0x40 MLOAD DUP1 SWAP2 SUB SWAP1 REVERT JUMPDEST PUSH1 0x0 PUSH1 0xD PUSH1 0x0 DUP4 PUSH12 0xFFFFFFFFFFFFFFFFFFFFFFFF NOT AND PUSH12 0xFFFFFFFFFFFFFFFFFFFFFFFF NOT AND DUP2 MSTORE PUSH1 0x20 ADD SWAP1 DUP2 MSTORE PUSH1 0x20 ADD PUSH1 0x0 KECCAK256 SLOAD SWAP1 POP PUSH1 0x6 PUSH1 0x1 PUSH1 0x6 DUP1 SLOAD SWAP1 POP PUSH2 0xCE6 SWAP2 SWAP1 PUSH2 0x31FF JUMP JUMPDEST DUP2 SLOAD DUP2 LT PUSH2 0xCF7 JUMPI PUSH2 0xCF6 PUSH2 0x330D JUMP JUMPDEST JUMPDEST SWAP1 PUSH1 0x0 MSTORE PUSH1 0x20 PUSH1 0x0 KECCAK256 ADD PUSH1 0x0 SWAP1 SLOAD SWAP1 PUSH2 0x100 EXP SWAP1 DIV PUSH1 0x60 SHL PUSH1 0x6 DUP3 DUP2 SLOAD DUP2 LT PUSH2 0xD23 JUMPI PUSH2 0xD22 PUSH2 0x330D JUMP JUMPDEST JUMPDEST SWAP1 PUSH1 0x0 MSTORE PUSH1 0x20 PUSH1 0x0 KECCAK256 ADD PUSH1 0x0 PUSH2 0x100 EXP DUP2 SLOAD DUP2 PUSH20 0xFFFFFFFFFFFFFFFFFFFFFFFFFFFFFFFFFFFFFFFF MUL NOT AND SWAP1 DUP4 PUSH1 0x60 SHR MUL OR SWAP1 SSTORE POP PUSH1 0x6 DUP1 SLOAD DUP1 PUSH2 0xD6A JUMPI PUSH2 0xD69 PUSH2 0x343A JUMP JUMPDEST JUMPDEST PUSH1 0x1 SWAP1 SUB DUP2 DUP2 SWAP1 PUSH1 0x0 MSTORE PUSH1 0x20 PUSH1 0x0 KECCAK256 ADD PUSH1 0x0 PUSH2 0x100 EXP DUP2 SLOAD SWAP1 PUSH20 0xFFFFFFFFFFFFFFFFFFFFFFFFFFFFFFFFFFFFFFFF MUL NOT AND SWAP1 SSTORE SWAP1 SSTORE PUSH1 0xF PUSH1 0x0 CALLER PUSH20 0xFFFFFFFFFFFFFFFFFFFFFFFFFFFFFFFFFFFFFFFF AND PUSH20 0xFFFFFFFFFFFFFFFFFFFFFFFFFFFFFFFFFFFFFFFF AND DUP2 MSTORE PUSH1 0x20 ADD SWAP1 DUP2 MSTORE PUSH1 0x20 ADD PUSH1 0x0 KECCAK256 PUSH1 0x0 DUP2 SLOAD DUP1 SWAP3 SWAP2 SWAP1 PUSH2 0xDEF SWAP1 PUSH2 0x3469 JUMP JUMPDEST SWAP2 SWAP1 POP SSTORE POP PUSH1 0xD PUSH1 0x0 DUP4 PUSH12 0xFFFFFFFFFFFFFFFFFFFFFFFF NOT AND PUSH12 0xFFFFFFFFFFFFFFFFFFFFFFFF NOT AND DUP2 MSTORE PUSH1 0x20 ADD SWAP1 DUP2 MSTORE PUSH1 0x20 ADD PUSH1 0x0 KECCAK256 PUSH1 0x0 SWAP1 SSTORE PUSH1 0xB PUSH1 0x0 DUP4 PUSH12 0xFFFFFFFFFFFFFFFFFFFFFFFF NOT AND PUSH12 0xFFFFFFFFFFFFFFFFFFFFFFFF NOT AND DUP2 MSTORE PUSH1 0x20 ADD SWAP1 DUP2 MSTORE PUSH1 0x20 ADD PUSH1 0x0 KECCAK256 PUSH1 0x0 PUSH2 0xE66 SWAP2 SWAP1 PUSH2 0x243F JUMP JUMPDEST PUSH1 0x10 PUSH1 0x0 DUP4 PUSH12 0xFFFFFFFFFFFFFFFFFFFFFFFF NOT AND PUSH12 0xFFFFFFFFFFFFFFFFFFFFFFFF NOT AND DUP2 MSTORE PUSH1 0x20 ADD SWAP1 DUP2 MSTORE PUSH1 0x20 ADD PUSH1 0x0 KECCAK256 PUSH1 0x0 SWAP1 SSTORE PUSH32 0xDA13AA46E5E29A22EA7832E5283268A938C39DDC897441A090548CF71A8F81C2 DUP3 PUSH1 0x40 MLOAD PUSH2 0xECA SWAP2 SWAP1 PUSH2 0x34A1 JUMP JUMPDEST PUSH1 0x40 MLOAD DUP1 SWAP2 SUB SWAP1 LOG1 POP POP JUMP JUMPDEST PUSH1 0x60 PUSH1 0x5 DUP1 SLOAD SWAP1 POP DUP3 LT PUSH2 0xF1F JUMPI PUSH1 0x40 MLOAD PUSH32 0x8C379A000000000000000000000000000000000000000000000000000000000 DUP2 MSTORE PUSH1 0x4 ADD PUSH2 0xF16 SWAP1 PUSH2 0x3508 JUMP JUMPDEST PUSH1 0x40 MLOAD DUP1 SWAP2 SUB SWAP1 REVERT JUMPDEST PUSH1 0x5 DUP3 DUP2 SLOAD DUP2 LT PUSH2 0xF33 JUMPI PUSH2 0xF32 PUSH2 0x330D JUMP JUMPDEST JUMPDEST SWAP1 PUSH1 0x0 MSTORE PUSH1 0x20 PUSH1 0x0 KECCAK256 SWAP1 PUSH1 0x2 MUL ADD PUSH1 0x1 ADD DUP1 SLOAD PUSH2 0xF4F SWAP1 PUSH2 0x2F50 JUMP JUMPDEST DUP1 PUSH1 0x1F ADD PUSH1 0x20 DUP1 SWAP2 DIV MUL PUSH1 0x20 ADD PUSH1 0x40 MLOAD SWAP1 DUP2 ADD PUSH1 0x40 MSTORE DUP1 SWAP3 SWAP2 SWAP1 DUP2 DUP2 MSTORE PUSH1 0x20 ADD DUP3 DUP1 SLOAD PUSH2 0xF7B SWAP1 PUSH2 0x2F50 JUMP JUMPDEST DUP1 ISZERO PUSH2 0xFC8 JUMPI DUP1 PUSH1 0x1F LT PUSH2 0xF9D JUMPI PUSH2 0x100 DUP1 DUP4 SLOAD DIV MUL DUP4 MSTORE SWAP2 PUSH1 0x20 ADD SWAP2 PUSH2 0xFC8 JUMP JUMPDEST DUP3 ADD SWAP2 SWAP1 PUSH1 0x0 MSTORE PUSH1 0x20 PUSH1 0x0 KECCAK256 SWAP1 JUMPDEST DUP2 SLOAD DUP2 MSTORE SWAP1 PUSH1 0x1 ADD SWAP1 PUSH1 0x20 ADD DUP1 DUP4 GT PUSH2 0xFAB JUMPI DUP3 SWAP1 SUB PUSH1 0x1F AND DUP3 ADD SWAP2 JUMPDEST POP POP POP POP POP SWAP1 POP SWAP2 SWAP1 POP JUMP JUMPDEST PUSH1 0x60 PUSH1 0xB PUSH1 0x0 DUP4 PUSH12 0xFFFFFFFFFFFFFFFFFFFFFFFF NOT AND PUSH12 0xFFFFFFFFFFFFFFFFFFFFFFFF NOT AND DUP2 MSTORE PUSH1 0x20 ADD SWAP1 DUP2 MSTORE PUSH1 0x20 ADD PUSH1 0x0 KECCAK256 DUP1 SLOAD DUP1 PUSH1 0x20 MUL PUSH1 0x20 ADD PUSH1 0x40 MLOAD SWAP1 DUP2 ADD PUSH1 0x40 MSTORE DUP1 SWAP3 SWAP2 SWAP1 DUP2 DUP2 MSTORE PUSH1 0x20 ADD DUP3 DUP1 SLOAD DUP1 ISZERO PUSH2 0x1051 JUMPI PUSH1 0x20 MUL DUP3 ADD SWAP2 SWAP1 PUSH1 0x0 MSTORE PUSH1 0x20 PUSH1 0x0 KECCAK256 SWAP1 JUMPDEST DUP2 SLOAD DUP2 MSTORE PUSH1 0x20 ADD SWAP1 PUSH1 0x1 ADD SWAP1 DUP1 DUP4 GT PUSH2 0x103D JUMPI JUMPDEST POP POP POP POP POP SWAP1 POP SWAP2 SWAP1 POP JUMP JUMPDEST PUSH1 0x6 DUP2 SWAP1 DUP1 PUSH1 0x1 DUP2 SLOAD ADD DUP1 DUP3 SSTORE DUP1 SWAP2 POP POP PUSH1 0x1 SWAP1 SUB SWAP1 PUSH1 0x0 MSTORE PUSH1 0x20 PUSH1 0x0 KECCAK256 ADD PUSH1 0x0 SWAP1 SWAP2 SWAP1 SWAP2 SWAP1 SWAP2 PUSH2 0x100 EXP DUP2 SLOAD DUP2 PUSH20 0xFFFFFFFFFFFFFFFFFFFFFFFFFFFFFFFFFFFFFFFF MUL NOT AND SWAP1 DUP4 PUSH1 0x60 SHR MUL OR SWAP1 SSTORE POP PUSH1 0x0 PUSH1 0x1 PUSH1 0x6 DUP1 SLOAD SWAP1 POP PUSH2 0x10C1 SWAP2 SWAP1 PUSH2 0x31FF JUMP JUMPDEST SWAP1 POP CALLER PUSH1 0x7 PUSH1 0x0 DUP5 PUSH12 0xFFFFFFFFFFFFFFFFFFFFFFFF NOT AND PUSH12 0xFFFFFFFFFFFFFFFFFFFFFFFF NOT AND DUP2 MSTORE PUSH1 0x20 ADD SWAP1 DUP2 MSTORE PUSH1 0x20 ADD PUSH1 0x0 KECCAK256 PUSH1 0x0 PUSH2 0x100 EXP DUP2 SLOAD DUP2 PUSH20 0xFFFFFFFFFFFFFFFFFFFFFFFFFFFFFFFFFFFFFFFF MUL NOT AND SWAP1 DUP4 PUSH20 0xFFFFFFFFFFFFFFFFFFFFFFFFFFFFFFFFFFFFFFFF AND MUL OR SWAP1 SSTORE POP DUP1 PUSH1 0xD PUSH1 0x0 DUP5 PUSH12 0xFFFFFFFFFFFFFFFFFFFFFFFF NOT AND PUSH12 0xFFFFFFFFFFFFFFFFFFFFFFFF NOT AND DUP2 MSTORE PUSH1 0x20 ADD SWAP1 DUP2 MSTORE PUSH1 0x20 ADD PUSH1 0x0 KECCAK256 DUP2 SWAP1 SSTORE POP PUSH1 0xF PUSH1 0x0 CALLER PUSH20 0xFFFFFFFFFFFFFFFFFFFFFFFFFFFFFFFFFFFFFFFF AND PUSH20 0xFFFFFFFFFFFFFFFFFFFFFFFFFFFFFFFFFFFFFFFF AND DUP2 MSTORE PUSH1 0x20 ADD SWAP1 DUP2 MSTORE PUSH1 0x20 ADD PUSH1 0x0 KECCAK256 PUSH1 0x0 DUP2 SLOAD DUP1 SWAP3 SWAP2 SWAP1 PUSH2 0x11B9 SWAP1 PUSH2 0x3233 JUMP JUMPDEST SWAP2 SWAP1 POP SSTORE POP PUSH32 0xA7714B5994B2CBB93BFE098EF622436AA3E9BE80ED5F01B373FD3AA629E14962 DUP3 PUSH1 0x40 MLOAD PUSH2 0x11ED SWAP2 SWAP1 PUSH2 0x34A1 JUMP JUMPDEST PUSH1 0x40 MLOAD DUP1 SWAP2 SUB SWAP1 LOG1 POP POP JUMP JUMPDEST PUSH1 0x0 DUP1 PUSH1 0x0 SWAP1 POP JUMPDEST PUSH1 0x6 DUP1 SLOAD SWAP1 POP DUP2 LT ISZERO PUSH2 0x127B JUMPI DUP3 PUSH12 0xFFFFFFFFFFFFFFFFFFFFFFFF NOT AND PUSH1 0x6 DUP3 DUP2 SLOAD DUP2 LT PUSH2 0x1232 JUMPI PUSH2 0x1231 PUSH2 0x330D JUMP JUMPDEST JUMPDEST SWAP1 PUSH1 0x0 MSTORE PUSH1 0x20 PUSH1 0x0 KECCAK256 ADD PUSH1 0x0 SWAP1 SLOAD SWAP1 PUSH2 0x100 EXP SWAP1 DIV PUSH1 0x60 SHL PUSH12 0xFFFFFFFFFFFFFFFFFFFFFFFF NOT AND SUB PUSH2 0x1268 JUMPI PUSH1 0x1 SWAP2 POP POP PUSH2 0x1281 JUMP JUMPDEST DUP1 DUP1 PUSH2 0x1273 SWAP1 PUSH2 0x3233 JUMP JUMPDEST SWAP2 POP POP PUSH2 0x1201 JUMP JUMPDEST POP PUSH1 0x0 SWAP1 POP JUMPDEST SWAP2 SWAP1 POP JUMP JUMPDEST PUSH1 0x7 PUSH1 0x0 DUP3 PUSH12 0xFFFFFFFFFFFFFFFFFFFFFFFF NOT AND PUSH12 0xFFFFFFFFFFFFFFFFFFFFFFFF NOT AND DUP2 MSTORE PUSH1 0x20 ADD SWAP1 DUP2 MSTORE PUSH1 0x20 ADD PUSH1 0x0 KECCAK256 PUSH1 0x0 SWAP1 SLOAD SWAP1 PUSH2 0x100 EXP SWAP1 DIV PUSH20 0xFFFFFFFFFFFFFFFFFFFFFFFFFFFFFFFFFFFFFFFF AND PUSH20 0xFFFFFFFFFFFFFFFFFFFFFFFFFFFFFFFFFFFFFFFF AND CALLER PUSH20 0xFFFFFFFFFFFFFFFFFFFFFFFFFFFFFFFFFFFFFFFF AND EQ PUSH2 0x1345 JUMPI PUSH1 0x40 MLOAD PUSH32 0x8C379A000000000000000000000000000000000000000000000000000000000 DUP2 MSTORE PUSH1 0x4 ADD PUSH2 0x133C SWAP1 PUSH2 0x359A JUMP JUMPDEST PUSH1 0x40 MLOAD DUP1 SWAP2 SUB SWAP1 REVERT JUMPDEST PUSH1 0x0 PUSH2 0x1350 DUP3 PUSH2 0xFD4 JUMP JUMPDEST SWAP1 POP PUSH1 0x0 JUMPDEST DUP2 MLOAD DUP2 LT ISZERO PUSH2 0x144E JUMPI PUSH1 0x0 JUMPDEST PUSH1 0x2 DUP1 SLOAD SWAP1 POP DUP2 LT ISZERO PUSH2 0x143A JUMPI PUSH1 0x2 DUP2 DUP2 SLOAD DUP2 LT PUSH2 0x1382 JUMPI PUSH2 0x1381 PUSH2 0x330D JUMP JUMPDEST JUMPDEST SWAP1 PUSH1 0x0 MSTORE PUSH1 0x20 PUSH1 0x0 KECCAK256 ADD SLOAD PUSH1 0xA PUSH1 0x0 DUP5 DUP2 MSTORE PUSH1 0x20 ADD SWAP1 DUP2 MSTORE PUSH1 0x20 ADD PUSH1 0x0 KECCAK256 SLOAD SUB PUSH2 0x1427 JUMPI PUSH32 0x236EF25C59DB1C092B5A1DF6C8523BD8028B948A5943CFAC940C3169845DFB6A PUSH1 0xA PUSH1 0x0 DUP6 DUP6 DUP2 MLOAD DUP2 LT PUSH2 0x13DE JUMPI PUSH2 0x13DD PUSH2 0x330D JUMP JUMPDEST JUMPDEST PUSH1 0x20 MUL PUSH1 0x20 ADD ADD MLOAD DUP2 MSTORE PUSH1 0x20 ADD SWAP1 DUP2 MSTORE PUSH1 0x20 ADD PUSH1 0x0 KECCAK256 SLOAD DUP5 DUP5 DUP2 MLOAD DUP2 LT PUSH2 0x1408 JUMPI PUSH2 0x1407 PUSH2 0x330D JUMP JUMPDEST JUMPDEST PUSH1 0x20 MUL PUSH1 0x20 ADD ADD MLOAD PUSH1 0x40 MLOAD PUSH2 0x141E SWAP3 SWAP2 SWAP1 PUSH2 0x35BA JUMP JUMPDEST PUSH1 0x40 MLOAD DUP1 SWAP2 SUB SWAP1 LOG1 JUMPDEST DUP1 DUP1 PUSH2 0x1432 SWAP1 PUSH2 0x3233 JUMP JUMPDEST SWAP2 POP POP PUSH2 0x1361 JUMP JUMPDEST POP DUP1 DUP1 PUSH2 0x1446 SWAP1 PUSH2 0x3233 JUMP JUMPDEST SWAP2 POP POP PUSH2 0x1355 JUMP JUMPDEST POP POP POP JUMP JUMPDEST PUSH1 0x8 PUSH1 0x20 MSTORE DUP1 PUSH1 0x0 MSTORE PUSH1 0x40 PUSH1 0x0 KECCAK256 PUSH1 0x0 SWAP2 POP SWAP1 POP SLOAD DUP2 JUMP JUMPDEST PUSH1 0x0 PUSH1 0x5 DUP1 SLOAD SWAP1 POP SWAP1 POP SWAP1 JUMP JUMPDEST PUSH2 0x1480 PUSH2 0x22A8 JUMP JUMPDEST PUSH2 0x148A PUSH1 0x0 PUSH2 0x2326 JUMP JUMPDEST JUMP JUMPDEST PUSH2 0x1495 DUP2 PUSH2 0xB30 JUMP JUMPDEST PUSH2 0x14D4 JUMPI PUSH1 0x40 MLOAD PUSH32 0x8C379A000000000000000000000000000000000000000000000000000000000 DUP2 MSTORE PUSH1 0x4 ADD PUSH2 0x14CB SWAP1 PUSH2 0x362F JUMP JUMPDEST PUSH1 0x40 MLOAD DUP1 SWAP2 SUB SWAP1 REVERT JUMPDEST PUSH1 0x0 PUSH1 0x3 PUSH1 0x0 DUP4 DUP2 MSTORE PUSH1 0x20 ADD SWAP1 DUP2 MSTORE PUSH1 0x20 ADD PUSH1 0x0 KECCAK256 SLOAD SWAP1 POP PUSH1 0x1 DUP2 DUP2 SLOAD DUP2 LT PUSH2 0x1500 JUMPI PUSH2 0x14FF PUSH2 0x330D JUMP JUMPDEST JUMPDEST SWAP1 PUSH1 0x0 MSTORE PUSH1 0x20 PUSH1 0x0 KECCAK256 SWAP1 PUSH1 0x5 MUL ADD PUSH1 0x0 ADD PUSH1 0x0 SWAP1 SLOAD SWAP1 PUSH2 0x100 EXP SWAP1 DIV PUSH20 0xFFFFFFFFFFFFFFFFFFFFFFFFFFFFFFFFFFFFFFFF AND PUSH20 0xFFFFFFFFFFFFFFFFFFFFFFFFFFFFFFFFFFFFFFFF AND CALLER PUSH20 0xFFFFFFFFFFFFFFFFFFFFFFFFFFFFFFFFFFFFFFFF AND EQ DUP1 PUSH2 0x159D JUMPI POP PUSH2 0x156E PUSH2 0x1B8D JUMP JUMPDEST PUSH20 0xFFFFFFFFFFFFFFFFFFFFFFFFFFFFFFFFFFFFFFFF AND CALLER PUSH20 0xFFFFFFFFFFFFFFFFFFFFFFFFFFFFFFFFFFFFFFFF AND EQ JUMPDEST PUSH2 0x15DC JUMPI PUSH1 0x40 MLOAD PUSH32 0x8C379A000000000000000000000000000000000000000000000000000000000 DUP2 MSTORE PUSH1 0x4 ADD PUSH2 0x15D3 SWAP1 PUSH2 0x370D JUMP JUMPDEST PUSH1 0x40 MLOAD DUP1 SWAP2 SUB SWAP1 REVERT JUMPDEST PUSH1 0x1 DUP1 DUP1 DUP1 SLOAD SWAP1 POP PUSH2 0x15EE SWAP2 SWAP1 PUSH2 0x31FF JUMP JUMPDEST DUP2 SLOAD DUP2 LT PUSH2 0x15FF JUMPI PUSH2 0x15FE PUSH2 0x330D JUMP JUMPDEST JUMPDEST SWAP1 PUSH1 0x0 MSTORE PUSH1 0x20 PUSH1 0x0 KECCAK256 SWAP1 PUSH1 0x5 MUL ADD PUSH1 0x1 DUP3 DUP2 SLOAD DUP2 LT PUSH2 0x1621 JUMPI PUSH2 0x1620 PUSH2 0x330D JUMP JUMPDEST JUMPDEST SWAP1 PUSH1 0x0 MSTORE PUSH1 0x20 PUSH1 0x0 KECCAK256 SWAP1 PUSH1 0x5 MUL ADD PUSH1 0x0 DUP3 ADD PUSH1 0x0 SWAP1 SLOAD SWAP1 PUSH2 0x100 EXP SWAP1 DIV PUSH20 0xFFFFFFFFFFFFFFFFFFFFFFFFFFFFFFFFFFFFFFFF AND DUP2 PUSH1 0x0 ADD PUSH1 0x0 PUSH2 0x100 EXP DUP2 SLOAD DUP2 PUSH20 0xFFFFFFFFFFFFFFFFFFFFFFFFFFFFFFFFFFFFFFFF MUL NOT AND SWAP1 DUP4 PUSH20 0xFFFFFFFFFFFFFFFFFFFFFFFFFFFFFFFFFFFFFFFF AND MUL OR SWAP1 SSTORE POP PUSH1 0x1 DUP3 ADD SLOAD DUP2 PUSH1 0x1 ADD SSTORE PUSH1 0x2 DUP3 ADD SLOAD DUP2 PUSH1 0x2 ADD SSTORE PUSH1 0x3 DUP3 ADD SLOAD DUP2 PUSH1 0x3 ADD SSTORE PUSH1 0x4 DUP3 ADD DUP2 PUSH1 0x4 ADD SWAP1 DUP2 PUSH2 0x16C8 SWAP2 SWAP1 PUSH2 0x3743 JUMP JUMPDEST POP SWAP1 POP POP PUSH1 0x1 DUP1 SLOAD DUP1 PUSH2 0x16DE JUMPI PUSH2 0x16DD PUSH2 0x343A JUMP JUMPDEST JUMPDEST PUSH1 0x1 SWAP1 SUB DUP2 DUP2 SWAP1 PUSH1 0x0 MSTORE PUSH1 0x20 PUSH1 0x0 KECCAK256 SWAP1 PUSH1 0x5 MUL ADD PUSH1 0x0 DUP1 DUP3 ADD PUSH1 0x0 PUSH2 0x100 EXP DUP2 SLOAD SWAP1 PUSH20 0xFFFFFFFFFFFFFFFFFFFFFFFFFFFFFFFFFFFFFFFF MUL NOT AND SWAP1 SSTORE PUSH1 0x1 DUP3 ADD PUSH1 0x0 SWAP1 SSTORE PUSH1 0x2 DUP3 ADD PUSH1 0x0 SWAP1 SSTORE PUSH1 0x3 DUP3 ADD PUSH1 0x0 SWAP1 SSTORE PUSH1 0x4 DUP3 ADD PUSH1 0x0 PUSH2 0x1742 SWAP2 SWAP1 PUSH2 0x2460 JUMP JUMPDEST POP POP SWAP1 SSTORE PUSH1 0x2 PUSH1 0x1 PUSH1 0x2 DUP1 SLOAD SWAP1 POP PUSH2 0x175A SWAP2 SWAP1 PUSH2 0x31FF JUMP JUMPDEST DUP2 SLOAD DUP2 LT PUSH2 0x176B JUMPI PUSH2 0x176A PUSH2 0x330D JUMP JUMPDEST JUMPDEST SWAP1 PUSH1 0x0 MSTORE PUSH1 0x20 PUSH1 0x0 KECCAK256 ADD SLOAD PUSH1 0x2 DUP3 DUP2 SLOAD DUP2 LT PUSH2 0x178A JUMPI PUSH2 0x1789 PUSH2 0x330D JUMP JUMPDEST JUMPDEST SWAP1 PUSH1 0x0 MSTORE PUSH1 0x20 PUSH1 0x0 KECCAK256 ADD DUP2 SWAP1 SSTORE POP PUSH1 0x2 DUP1 SLOAD DUP1 PUSH2 0x17AA JUMPI PUSH2 0x17A9 PUSH2 0x343A JUMP JUMPDEST JUMPDEST PUSH1 0x1 SWAP1 SUB DUP2 DUP2 SWAP1 PUSH1 0x0 MSTORE PUSH1 0x20 PUSH1 0x0 KECCAK256 ADD PUSH1 0x0 SWAP1 SSTORE SWAP1 SSTORE PUSH32 0x284D601F5EDF187107DEBAA43BA7901585FB4C85926A0FF565798AC1F9030A3A DUP3 PUSH1 0x40 MLOAD PUSH2 0x17EF SWAP2 SWAP1 PUSH2 0x28A5 JUMP JUMPDEST PUSH1 0x40 MLOAD DUP1 SWAP2 SUB SWAP1 LOG1 POP POP JUMP JUMPDEST PUSH1 0x0 DUP1 PUSH1 0x0 SWAP1 POP JUMPDEST PUSH1 0x1 DUP1 SLOAD SWAP1 POP DUP2 LT ISZERO PUSH2 0x18C9 JUMPI DUP3 PUSH20 0xFFFFFFFFFFFFFFFFFFFFFFFFFFFFFFFFFFFFFFFF AND PUSH1 0x1 DUP3 DUP2 SLOAD DUP2 LT PUSH2 0x183B JUMPI PUSH2 0x183A PUSH2 0x330D JUMP JUMPDEST JUMPDEST SWAP1 PUSH1 0x0 MSTORE PUSH1 0x20 PUSH1 0x0 KECCAK256 SWAP1 PUSH1 0x5 MUL ADD PUSH1 0x0 ADD PUSH1 0x0 SWAP1 SLOAD SWAP1 PUSH2 0x100 EXP SWAP1 DIV PUSH20 0xFFFFFFFFFFFFFFFFFFFFFFFFFFFFFFFFFFFFFFFF AND PUSH20 0xFFFFFFFFFFFFFFFFFFFFFFFFFFFFFFFFFFFFFFFF AND SUB PUSH2 0x18B6 JUMPI PUSH1 0x1 DUP2 DUP2 SLOAD DUP2 LT PUSH2 0x189C JUMPI PUSH2 0x189B PUSH2 0x330D JUMP JUMPDEST JUMPDEST SWAP1 PUSH1 0x0 MSTORE PUSH1 0x20 PUSH1 0x0 KECCAK256 SWAP1 PUSH1 0x5 MUL ADD PUSH1 0x1 ADD SLOAD SWAP2 POP POP PUSH2 0x18CF JUMP JUMPDEST DUP1 DUP1 PUSH2 0x18C1 SWAP1 PUSH2 0x3233 JUMP JUMPDEST SWAP2 POP POP PUSH2 0x1803 JUMP JUMPDEST POP PUSH1 0x0 SWAP1 POP JUMPDEST SWAP2 SWAP1 POP JUMP JUMPDEST PUSH1 0x7 PUSH1 0x0 DUP4 PUSH12 0xFFFFFFFFFFFFFFFFFFFFFFFF NOT AND PUSH12 0xFFFFFFFFFFFFFFFFFFFFFFFF NOT AND DUP2 MSTORE PUSH1 0x20 ADD SWAP1 DUP2 MSTORE PUSH1 0x20 ADD PUSH1 0x0 KECCAK256 PUSH1 0x0 SWAP1 SLOAD SWAP1 PUSH2 0x100 EXP SWAP1 DIV PUSH20 0xFFFFFFFFFFFFFFFFFFFFFFFFFFFFFFFFFFFFFFFF AND PUSH20 0xFFFFFFFFFFFFFFFFFFFFFFFFFFFFFFFFFFFFFFFF AND CALLER PUSH20 0xFFFFFFFFFFFFFFFFFFFFFFFFFFFFFFFFFFFFFFFF AND EQ PUSH2 0x1993 JUMPI PUSH1 0x40 MLOAD PUSH32 0x8C379A000000000000000000000000000000000000000000000000000000000 DUP2 MSTORE PUSH1 0x4 ADD PUSH2 0x198A SWAP1 PUSH2 0x389D JUMP JUMPDEST PUSH1 0x40 MLOAD DUP1 SWAP2 SUB SWAP1 REVERT JUMPDEST DUP1 PUSH1 0x7 PUSH1 0x0 DUP5 PUSH12 0xFFFFFFFFFFFFFFFFFFFFFFFF NOT AND PUSH12 0xFFFFFFFFFFFFFFFFFFFFFFFF NOT AND DUP2 MSTORE PUSH1 0x20 ADD SWAP1 DUP2 MSTORE PUSH1 0x20 ADD PUSH1 0x0 KECCAK256 PUSH1 0x0 PUSH2 0x100 EXP DUP2 SLOAD DUP2 PUSH20 0xFFFFFFFFFFFFFFFFFFFFFFFFFFFFFFFFFFFFFFFF MUL NOT AND SWAP1 DUP4 PUSH20 0xFFFFFFFFFFFFFFFFFFFFFFFFFFFFFFFFFFFFFFFF AND MUL OR SWAP1 SSTORE POP POP POP JUMP JUMPDEST PUSH2 0x1A0F PUSH2 0x22A8 JUMP JUMPDEST PUSH2 0x1A18 DUP2 PUSH2 0xB30 JUMP JUMPDEST PUSH2 0x1A57 JUMPI PUSH1 0x40 MLOAD PUSH32 0x8C379A000000000000000000000000000000000000000000000000000000000 DUP2 MSTORE PUSH1 0x4 ADD PUSH2 0x1A4E SWAP1 PUSH2 0x362F JUMP JUMPDEST PUSH1 0x40 MLOAD DUP1 SWAP2 SUB SWAP1 REVERT JUMPDEST PUSH1 0x0 PUSH1 0x1 DUP3 DUP2 SLOAD DUP2 LT PUSH2 0x1A6D JUMPI PUSH2 0x1A6C PUSH2 0x330D JUMP JUMPDEST JUMPDEST SWAP1 PUSH1 0x0 MSTORE PUSH1 0x20 PUSH1 0x0 KECCAK256 SWAP1 PUSH1 0x5 MUL ADD SWAP1 POP DUP1 PUSH1 0x3 ADD SLOAD DUP2 PUSH1 0x2 ADD SLOAD LT PUSH2 0x1AC7 JUMPI PUSH1 0x40 MLOAD PUSH32 0x8C379A000000000000000000000000000000000000000000000000000000000 DUP2 MSTORE PUSH1 0x4 ADD PUSH2 0x1ABE SWAP1 PUSH2 0x392F JUMP JUMPDEST PUSH1 0x40 MLOAD DUP1 SWAP2 SUB SWAP1 REVERT JUMPDEST PUSH1 0x0 PUSH1 0xA PUSH1 0x0 DUP6 DUP2 MSTORE PUSH1 0x20 ADD SWAP1 DUP2 MSTORE PUSH1 0x20 ADD PUSH1 0x0 KECCAK256 SLOAD EQ PUSH2 0x1B1D JUMPI PUSH1 0x40 MLOAD PUSH32 0x8C379A000000000000000000000000000000000000000000000000000000000 DUP2 MSTORE PUSH1 0x4 ADD PUSH2 0x1B14 SWAP1 PUSH2 0x39C1 JUMP JUMPDEST PUSH1 0x40 MLOAD DUP1 SWAP2 SUB SWAP1 REVERT JUMPDEST DUP2 PUSH1 0xA PUSH1 0x0 DUP6 DUP2 MSTORE PUSH1 0x20 ADD SWAP1 DUP2 MSTORE PUSH1 0x20 ADD PUSH1 0x0 KECCAK256 DUP2 SWAP1 SSTORE POP DUP1 PUSH1 0x2 ADD PUSH1 0x0 DUP2 SLOAD DUP1 SWAP3 SWAP2 SWAP1 PUSH2 0x1B4A SWAP1 PUSH2 0x3233 JUMP JUMPDEST SWAP2 SWAP1 POP SSTORE POP PUSH32 0xDFFEAA5E1AA86D24DCB11D6C9BF68B6E684AEBAF31E88F0D03A30CF89858ABD6 DUP4 DUP4 PUSH1 0x40 MLOAD PUSH2 0x1B80 SWAP3 SWAP2 SWAP1 PUSH2 0x35BA JUMP JUMPDEST PUSH1 0x40 MLOAD DUP1 SWAP2 SUB SWAP1 LOG1 POP POP POP JUMP JUMPDEST PUSH1 0x0 DUP1 PUSH1 0x0 SWAP1 SLOAD SWAP1 PUSH2 0x100 EXP SWAP1 DIV PUSH20 0xFFFFFFFFFFFFFFFFFFFFFFFFFFFFFFFFFFFFFFFF AND SWAP1 POP SWAP1 JUMP JUMPDEST PUSH1 0x7 PUSH1 0x20 MSTORE DUP1 PUSH1 0x0 MSTORE PUSH1 0x40 PUSH1 0x0 KECCAK256 PUSH1 0x0 SWAP2 POP SLOAD SWAP1 PUSH2 0x100 EXP SWAP1 DIV PUSH20 0xFFFFFFFFFFFFFFFFFFFFFFFFFFFFFFFFFFFFFFFF AND DUP2 JUMP JUMPDEST PUSH1 0xF PUSH1 0x20 MSTORE DUP1 PUSH1 0x0 MSTORE PUSH1 0x40 PUSH1 0x0 KECCAK256 PUSH1 0x0 SWAP2 POP SWAP1 POP SLOAD DUP2 JUMP JUMPDEST PUSH1 0x0 DUP1 PUSH1 0x0 DUP1 PUSH1 0x60 PUSH1 0x1 DUP1 SLOAD SWAP1 POP DUP7 LT PUSH2 0x1C50 JUMPI PUSH1 0x40 MLOAD PUSH32 0x8C379A000000000000000000000000000000000000000000000000000000000 DUP2 MSTORE PUSH1 0x4 ADD PUSH2 0x1C47 SWAP1 PUSH2 0x362F JUMP JUMPDEST PUSH1 0x40 MLOAD DUP1 SWAP2 SUB SWAP1 REVERT JUMPDEST PUSH1 0x0 PUSH1 0x1 DUP8 DUP2 SLOAD DUP2 LT PUSH2 0x1C66 JUMPI PUSH2 0x1C65 PUSH2 0x330D JUMP JUMPDEST JUMPDEST SWAP1 PUSH1 0x0 MSTORE PUSH1 0x20 PUSH1 0x0 KECCAK256 SWAP1 PUSH1 0x5 MUL ADD SWAP1 POP DUP1 PUSH1 0x0 ADD PUSH1 0x0 SWAP1 SLOAD SWAP1 PUSH2 0x100 EXP SWAP1 DIV PUSH20 0xFFFFFFFFFFFFFFFFFFFFFFFFFFFFFFFFFFFFFFFF AND DUP2 PUSH1 0x1 ADD SLOAD DUP3 PUSH1 0x2 ADD SLOAD DUP4 PUSH1 0x3 ADD SLOAD DUP5 PUSH1 0x4 ADD DUP1 DUP1 SLOAD PUSH2 0x1CBA SWAP1 PUSH2 0x2F50 JUMP JUMPDEST DUP1 PUSH1 0x1F ADD PUSH1 0x20 DUP1 SWAP2 DIV MUL PUSH1 0x20 ADD PUSH1 0x40 MLOAD SWAP1 DUP2 ADD PUSH1 0x40 MSTORE DUP1 SWAP3 SWAP2 SWAP1 DUP2 DUP2 MSTORE PUSH1 0x20 ADD DUP3 DUP1 SLOAD PUSH2 0x1CE6 SWAP1 PUSH2 0x2F50 JUMP JUMPDEST DUP1 ISZERO PUSH2 0x1D33 JUMPI DUP1 PUSH1 0x1F LT PUSH2 0x1D08 JUMPI PUSH2 0x100 DUP1 DUP4 SLOAD DIV MUL DUP4 MSTORE SWAP2 PUSH1 0x20 ADD SWAP2 PUSH2 0x1D33 JUMP JUMPDEST DUP3 ADD SWAP2 SWAP1 PUSH1 0x0 MSTORE PUSH1 0x20 PUSH1 0x0 KECCAK256 SWAP1 JUMPDEST DUP2 SLOAD DUP2 MSTORE SWAP1 PUSH1 0x1 ADD SWAP1 PUSH1 0x20 ADD DUP1 DUP4 GT PUSH2 0x1D16 JUMPI DUP3 SWAP1 SUB PUSH1 0x1F AND DUP3 ADD SWAP2 JUMPDEST POP POP POP POP POP SWAP1 POP SWAP6 POP SWAP6 POP SWAP6 POP SWAP6 POP SWAP6 POP POP SWAP2 SWAP4 SWAP6 SWAP1 SWAP3 SWAP5 POP JUMP JUMPDEST PUSH1 0x0 PUSH1 0xA PUSH1 0x0 DUP4 DUP2 MSTORE PUSH1 0x20 ADD SWAP1 DUP2 MSTORE PUSH1 0x20 ADD PUSH1 0x0 KECCAK256 SLOAD SWAP1 POP SWAP2 SWAP1 POP JUMP JUMPDEST PUSH1 0x0 PUSH1 0x1 DUP1 SLOAD SWAP1 POP SWAP1 POP SWAP1 JUMP JUMPDEST PUSH1 0x0 DUP2 PUSH20 0xFFFFFFFFFFFFFFFFFFFFFFFFFFFFFFFFFFFFFFFF AND PUSH1 0x7 PUSH1 0x0 DUP6 PUSH12 0xFFFFFFFFFFFFFFFFFFFFFFFF NOT AND PUSH12 0xFFFFFFFFFFFFFFFFFFFFFFFF NOT AND DUP2 MSTORE PUSH1 0x20 ADD SWAP1 DUP2 MSTORE PUSH1 0x20 ADD PUSH1 0x0 KECCAK256 PUSH1 0x0 SWAP1 SLOAD SWAP1 PUSH2 0x100 EXP SWAP1 DIV PUSH20 0xFFFFFFFFFFFFFFFFFFFFFFFFFFFFFFFFFFFFFFFF AND PUSH20 0xFFFFFFFFFFFFFFFFFFFFFFFFFFFFFFFFFFFFFFFF AND EQ SWAP1 POP SWAP3 SWAP2 POP POP JUMP JUMPDEST PUSH2 0x1E0A PUSH2 0x22A8 JUMP JUMPDEST PUSH2 0x1E13 DUP2 PUSH2 0xB30 JUMP JUMPDEST PUSH2 0x1E52 JUMPI PUSH1 0x40 MLOAD PUSH32 0x8C379A000000000000000000000000000000000000000000000000000000000 DUP2 MSTORE PUSH1 0x4 ADD PUSH2 0x1E49 SWAP1 PUSH2 0x362F JUMP JUMPDEST PUSH1 0x40 MLOAD DUP1 SWAP2 SUB SWAP1 REVERT JUMPDEST DUP1 PUSH1 0xA PUSH1 0x0 DUP5 DUP2 MSTORE PUSH1 0x20 ADD SWAP1 DUP2 MSTORE PUSH1 0x20 ADD PUSH1 0x0 KECCAK256 SLOAD EQ PUSH2 0x1EA7 JUMPI PUSH1 0x40 MLOAD PUSH32 0x8C379A000000000000000000000000000000000000000000000000000000000 DUP2 MSTORE PUSH1 0x4 ADD PUSH2 0x1E9E SWAP1 PUSH2 0x3A53 JUMP JUMPDEST PUSH1 0x40 MLOAD DUP1 SWAP2 SUB SWAP1 REVERT JUMPDEST PUSH1 0xA PUSH1 0x0 DUP4 DUP2 MSTORE PUSH1 0x20 ADD SWAP1 DUP2 MSTORE PUSH1 0x20 ADD PUSH1 0x0 KECCAK256 PUSH1 0x0 SWAP1 SSTORE PUSH1 0x0 PUSH1 0x1 DUP3 DUP2 SLOAD DUP2 LT PUSH2 0x1ED4 JUMPI PUSH2 0x1ED3 PUSH2 0x330D JUMP JUMPDEST JUMPDEST SWAP1 PUSH1 0x0 MSTORE PUSH1 0x20 PUSH1 0x0 KECCAK256 SWAP1 PUSH1 0x5 MUL ADD SWAP1 POP DUP1 PUSH1 0x2 ADD PUSH1 0x0 DUP2 SLOAD DUP1 SWAP3 SWAP2 SWAP1 PUSH2 0x1EF9 SWAP1 PUSH2 0x3469 JUMP JUMPDEST SWAP2 SWAP1 POP SSTORE POP PUSH32 0x236EF25C59DB1C092B5A1DF6C8523BD8028B948A5943CFAC940C3169845DFB6A DUP4 DUP4 PUSH1 0x40 MLOAD PUSH2 0x1F2F SWAP3 SWAP2 SWAP1 PUSH2 0x35BA JUMP JUMPDEST PUSH1 0x40 MLOAD DUP1 SWAP2 SUB SWAP1 LOG1 POP POP POP JUMP JUMPDEST PUSH1 0x0 PUSH1 0x7 PUSH1 0x0 DUP4 PUSH12 0xFFFFFFFFFFFFFFFFFFFFFFFF NOT AND PUSH12 0xFFFFFFFFFFFFFFFFFFFFFFFF NOT AND DUP2 MSTORE PUSH1 0x20 ADD SWAP1 DUP2 MSTORE PUSH1 0x20 ADD PUSH1 0x0 KECCAK256 PUSH1 0x0 SWAP1 SLOAD SWAP1 PUSH2 0x100 EXP SWAP1 DIV PUSH20 0xFFFFFFFFFFFFFFFFFFFFFFFFFFFFFFFFFFFFFFFF AND PUSH20 0xFFFFFFFFFFFFFFFFFFFFFFFFFFFFFFFFFFFFFFFF AND CALLER PUSH20 0xFFFFFFFFFFFFFFFFFFFFFFFFFFFFFFFFFFFFFFFF AND EQ PUSH2 0x1FFD JUMPI PUSH1 0x40 MLOAD PUSH32 0x8C379A000000000000000000000000000000000000000000000000000000000 DUP2 MSTORE PUSH1 0x4 ADD PUSH2 0x1FF4 SWAP1 PUSH2 0x3AE5 JUMP JUMPDEST PUSH1 0x40 MLOAD DUP1 SWAP2 SUB SWAP1 REVERT JUMPDEST PUSH1 0x10 PUSH1 0x0 DUP4 PUSH12 0xFFFFFFFFFFFFFFFFFFFFFFFF NOT AND PUSH12 0xFFFFFFFFFFFFFFFFFFFFFFFF NOT AND DUP2 MSTORE PUSH1 0x20 ADD SWAP1 DUP2 MSTORE PUSH1 0x20 ADD PUSH1 0x0 KECCAK256 SLOAD SWAP1 POP SWAP2 SWAP1 POP JUMP JUMPDEST PUSH1 0x60 PUSH1 0x0 PUSH1 0xF PUSH1 0x0 CALLER PUSH20 0xFFFFFFFFFFFFFFFFFFFFFFFFFFFFFFFFFFFFFFFF AND PUSH20 0xFFFFFFFFFFFFFFFFFFFFFFFFFFFFFFFFFFFFFFFF AND DUP2 MSTORE PUSH1 0x20 ADD SWAP1 DUP2 MSTORE PUSH1 0x20 ADD PUSH1 0x0 KECCAK256 SLOAD PUSH8 0xFFFFFFFFFFFFFFFF DUP2 GT ISZERO PUSH2 0x2093 JUMPI PUSH2 0x2092 PUSH2 0x253F JUMP JUMPDEST JUMPDEST PUSH1 0x40 MLOAD SWAP1 DUP1 DUP3 MSTORE DUP1 PUSH1 0x20 MUL PUSH1 0x20 ADD DUP3 ADD PUSH1 0x40 MSTORE DUP1 ISZERO PUSH2 0x20C1 JUMPI DUP2 PUSH1 0x20 ADD PUSH1 0x20 DUP3 MUL DUP1 CALLDATASIZE DUP4 CALLDATACOPY DUP1 DUP3 ADD SWAP2 POP POP SWAP1 POP JUMPDEST POP SWAP1 POP PUSH1 0x0 DUP1 JUMPDEST PUSH1 0x6 DUP1 SLOAD SWAP1 POP DUP2 LT ISZERO PUSH2 0x2211 JUMPI CALLER PUSH20 0xFFFFFFFFFFFFFFFFFFFFFFFFFFFFFFFFFFFFFFFF AND PUSH1 0x7 PUSH1 0x0 PUSH1 0x6 DUP5 DUP2 SLOAD DUP2 LT PUSH2 0x2104 JUMPI PUSH2 0x2103 PUSH2 0x330D JUMP JUMPDEST JUMPDEST SWAP1 PUSH1 0x0 MSTORE PUSH1 0x20 PUSH1 0x0 KECCAK256 ADD PUSH1 0x0 SWAP1 SLOAD SWAP1 PUSH2 0x100 EXP SWAP1 DIV PUSH1 0x60 SHL PUSH12 0xFFFFFFFFFFFFFFFFFFFFFFFF NOT AND PUSH12 0xFFFFFFFFFFFFFFFFFFFFFFFF NOT AND DUP2 MSTORE PUSH1 0x20 ADD SWAP1 DUP2 MSTORE PUSH1 0x20 ADD PUSH1 0x0 KECCAK256 PUSH1 0x0 SWAP1 SLOAD SWAP1 PUSH2 0x100 EXP SWAP1 DIV PUSH20 0xFFFFFFFFFFFFFFFFFFFFFFFFFFFFFFFFFFFFFFFF AND PUSH20 0xFFFFFFFFFFFFFFFFFFFFFFFFFFFFFFFFFFFFFFFF AND SUB PUSH2 0x21FE JUMPI PUSH1 0x6 DUP2 DUP2 SLOAD DUP2 LT PUSH2 0x2198 JUMPI PUSH2 0x2197 PUSH2 0x330D JUMP JUMPDEST JUMPDEST SWAP1 PUSH1 0x0 MSTORE PUSH1 0x20 PUSH1 0x0 KECCAK256 ADD PUSH1 0x0 SWAP1 SLOAD SWAP1 PUSH2 0x100 EXP SWAP1 DIV PUSH1 0x60 SHL DUP4 DUP4 DUP2 MLOAD DUP2 LT PUSH2 0x21C3 JUMPI PUSH2 0x21C2 PUSH2 0x330D JUMP JUMPDEST JUMPDEST PUSH1 0x20 MUL PUSH1 0x20 ADD ADD SWAP1 PUSH12 0xFFFFFFFFFFFFFFFFFFFFFFFF NOT AND SWAP1 DUP2 PUSH12 0xFFFFFFFFFFFFFFFFFFFFFFFF NOT AND DUP2 MSTORE POP POP DUP2 DUP1 PUSH2 0x21FA SWAP1 PUSH2 0x3233 JUMP JUMPDEST SWAP3 POP POP JUMPDEST DUP1 DUP1 PUSH2 0x2209 SWAP1 PUSH2 0x3233 JUMP JUMPDEST SWAP2 POP POP PUSH2 0x20C8 JUMP JUMPDEST POP DUP2 SWAP3 POP POP POP SWAP1 JUMP JUMPDEST PUSH2 0x2222 PUSH2 0x22A8 JUMP JUMPDEST PUSH1 0x0 PUSH20 0xFFFFFFFFFFFFFFFFFFFFFFFFFFFFFFFFFFFFFFFF AND DUP2 PUSH20 0xFFFFFFFFFFFFFFFFFFFFFFFFFFFFFFFFFFFFFFFF AND SUB PUSH2 0x2291 JUMPI PUSH1 0x40 MLOAD PUSH32 0x8C379A000000000000000000000000000000000000000000000000000000000 DUP2 MSTORE PUSH1 0x4 ADD PUSH2 0x2288 SWAP1 PUSH2 0x3B77 JUMP JUMPDEST PUSH1 0x40 MLOAD DUP1 SWAP2 SUB SWAP1 REVERT JUMPDEST PUSH2 0x229A DUP2 PUSH2 0x2326 JUMP JUMPDEST POP JUMP JUMPDEST PUSH1 0x0 PUSH1 0x1 SWAP1 POP SWAP2 SWAP1 POP JUMP JUMPDEST PUSH2 0x22B0 PUSH2 0x23EA JUMP JUMPDEST PUSH20 0xFFFFFFFFFFFFFFFFFFFFFFFFFFFFFFFFFFFFFFFF AND PUSH2 0x22CE PUSH2 0x1B8D JUMP JUMPDEST PUSH20 0xFFFFFFFFFFFFFFFFFFFFFFFFFFFFFFFFFFFFFFFF AND EQ PUSH2 0x2324 JUMPI PUSH1 0x40 MLOAD PUSH32 0x8C379A000000000000000000000000000000000000000000000000000000000 DUP2 MSTORE PUSH1 0x4 ADD PUSH2 0x231B SWAP1 PUSH2 0x3BE3 JUMP JUMPDEST PUSH1 0x40 MLOAD DUP1 SWAP2 SUB SWAP1 REVERT JUMPDEST JUMP JUMPDEST PUSH1 0x0 DUP1 PUSH1 0x0 SWAP1 SLOAD SWAP1 PUSH2 0x100 EXP SWAP1 DIV PUSH20 0xFFFFFFFFFFFFFFFFFFFFFFFFFFFFFFFFFFFFFFFF AND SWAP1 POP DUP2 PUSH1 0x0 DUP1 PUSH2 0x100 EXP DUP2 SLOAD DUP2 PUSH20 0xFFFFFFFFFFFFFFFFFFFFFFFFFFFFFFFFFFFFFFFF MUL NOT AND SWAP1 DUP4 PUSH20 0xFFFFFFFFFFFFFFFFFFFFFFFFFFFFFFFFFFFFFFFF AND MUL OR SWAP1 SSTORE POP DUP2 PUSH20 0xFFFFFFFFFFFFFFFFFFFFFFFFFFFFFFFFFFFFFFFF AND DUP2 PUSH20 0xFFFFFFFFFFFFFFFFFFFFFFFFFFFFFFFFFFFFFFFF AND PUSH32 0x8BE0079C531659141344CD1FD0A4F28419497F9722A3DAAFE3B4186F6B6457E0 PUSH1 0x40 MLOAD PUSH1 0x40 MLOAD DUP1 SWAP2 SUB SWAP1 LOG3 POP POP JUMP JUMPDEST PUSH1 0x0 CALLER SWAP1 POP SWAP1 JUMP JUMPDEST DUP3 DUP1 SLOAD DUP3 DUP3 SSTORE SWAP1 PUSH1 0x0 MSTORE PUSH1 0x20 PUSH1 0x0 KECCAK256 SWAP1 DUP2 ADD SWAP3 DUP3 ISZERO PUSH2 0x242E JUMPI SWAP2 PUSH1 0x20 MUL DUP3 ADD JUMPDEST DUP3 DUP2 GT ISZERO PUSH2 0x242D JUMPI DUP3 MLOAD DUP3 SSTORE SWAP2 PUSH1 0x20 ADD SWAP2 SWAP1 PUSH1 0x1 ADD SWAP1 PUSH2 0x2412 JUMP JUMPDEST JUMPDEST POP SWAP1 POP PUSH2 0x243B SWAP2 SWAP1 PUSH2 0x24A0 JUMP JUMPDEST POP SWAP1 JUMP JUMPDEST POP DUP1 SLOAD PUSH1 0x0 DUP3 SSTORE SWAP1 PUSH1 0x0 MSTORE PUSH1 0x20 PUSH1 0x0 KECCAK256 SWAP1 DUP2 ADD SWAP1 PUSH2 0x245D SWAP2 SWAP1 PUSH2 0x24A0 JUMP JUMPDEST POP JUMP JUMPDEST POP DUP1 SLOAD PUSH2 0x246C SWAP1 PUSH2 0x2F50 JUMP JUMPDEST PUSH1 0x0 DUP3 SSTORE DUP1 PUSH1 0x1F LT PUSH2 0x247E JUMPI POP PUSH2 0x249D JUMP JUMPDEST PUSH1 0x1F ADD PUSH1 0x20 SWAP1 DIV SWAP1 PUSH1 0x0 MSTORE PUSH1 0x20 PUSH1 0x0 KECCAK256 SWAP1 DUP2 ADD SWAP1 PUSH2 0x249C SWAP2 SWAP1 PUSH2 0x24A0 JUMP JUMPDEST JUMPDEST POP JUMP JUMPDEST JUMPDEST DUP1 DUP3 GT ISZERO PUSH2 0x24B9 JUMPI PUSH1 0x0 DUP2 PUSH1 0x0 SWAP1 SSTORE POP PUSH1 0x1 ADD PUSH2 0x24A1 JUMP JUMPDEST POP SWAP1 JUMP JUMPDEST PUSH1 0x0 PUSH1 0x40 MLOAD SWAP1 POP SWAP1 JUMP JUMPDEST PUSH1 0x0 DUP1 REVERT JUMPDEST PUSH1 0x0 DUP1 REVERT JUMPDEST PUSH1 0x0 PUSH32 0xFFFFFFFFFFFFFFFFFFFFFFFFFFFFFFFFFFFFFFFF000000000000000000000000 DUP3 AND SWAP1 POP SWAP2 SWAP1 POP JUMP JUMPDEST PUSH2 0x2506 DUP2 PUSH2 0x24D1 JUMP JUMPDEST DUP2 EQ PUSH2 0x2511 JUMPI PUSH1 0x0 DUP1 REVERT JUMPDEST POP JUMP JUMPDEST PUSH1 0x0 DUP2 CALLDATALOAD SWAP1 POP PUSH2 0x2523 DUP2 PUSH2 0x24FD JUMP JUMPDEST SWAP3 SWAP2 POP POP JUMP JUMPDEST PUSH1 0x0 DUP1 REVERT JUMPDEST PUSH1 0x0 PUSH1 0x1F NOT PUSH1 0x1F DUP4 ADD AND SWAP1 POP SWAP2 SWAP1 POP JUMP JUMPDEST PUSH32 0x4E487B7100000000000000000000000000000000000000000000000000000000 PUSH1 0x0 MSTORE PUSH1 0x41 PUSH1 0x4 MSTORE PUSH1 0x24 PUSH1 0x0 REVERT JUMPDEST PUSH2 0x2577 DUP3 PUSH2 0x252E JUMP JUMPDEST DUP2 ADD DUP2 DUP2 LT PUSH8 0xFFFFFFFFFFFFFFFF DUP3 GT OR ISZERO PUSH2 0x2596 JUMPI PUSH2 0x2595 PUSH2 0x253F JUMP JUMPDEST JUMPDEST DUP1 PUSH1 0x40 MSTORE POP POP POP JUMP JUMPDEST PUSH1 0x0 PUSH2 0x25A9 PUSH2 0x24BD JUMP JUMPDEST SWAP1 POP PUSH2 0x25B5 DUP3 DUP3 PUSH2 0x256E JUMP JUMPDEST SWAP2 SWAP1 POP JUMP JUMPDEST PUSH1 0x0 PUSH8 0xFFFFFFFFFFFFFFFF DUP3 GT ISZERO PUSH2 0x25D5 JUMPI PUSH2 0x25D4 PUSH2 0x253F JUMP JUMPDEST JUMPDEST PUSH1 0x20 DUP3 MUL SWAP1 POP PUSH1 0x20 DUP2 ADD SWAP1 POP SWAP2 SWAP1 POP JUMP JUMPDEST PUSH1 0x0 DUP1 REVERT JUMPDEST PUSH1 0x0 DUP2 SWAP1 POP SWAP2 SWAP1 POP JUMP JUMPDEST PUSH2 0x25FE DUP2 PUSH2 0x25EB JUMP JUMPDEST DUP2 EQ PUSH2 0x2609 JUMPI PUSH1 0x0 DUP1 REVERT JUMPDEST POP JUMP JUMPDEST PUSH1 0x0 DUP2 CALLDATALOAD SWAP1 POP PUSH2 0x261B DUP2 PUSH2 0x25F5 JUMP JUMPDEST SWAP3 SWAP2 POP POP JUMP JUMPDEST PUSH1 0x0 PUSH2 0x2634 PUSH2 0x262F DUP5 PUSH2 0x25BA JUMP JUMPDEST PUSH2 0x259F JUMP JUMPDEST SWAP1 POP DUP1 DUP4 DUP3 MSTORE PUSH1 0x20 DUP3 ADD SWAP1 POP PUSH1 0x20 DUP5 MUL DUP4 ADD DUP6 DUP2 GT ISZERO PUSH2 0x2657 JUMPI PUSH2 0x2656 PUSH2 0x25E6 JUMP JUMPDEST JUMPDEST DUP4 JUMPDEST DUP2 DUP2 LT ISZERO PUSH2 0x2680 JUMPI DUP1 PUSH2 0x266C DUP9 DUP3 PUSH2 0x260C JUMP JUMPDEST DUP5 MSTORE PUSH1 0x20 DUP5 ADD SWAP4 POP POP PUSH1 0x20 DUP2 ADD SWAP1 POP PUSH2 0x2659 JUMP JUMPDEST POP POP POP SWAP4 SWAP3 POP POP POP JUMP JUMPDEST PUSH1 0x0 DUP3 PUSH1 0x1F DUP4 ADD SLT PUSH2 0x269F JUMPI PUSH2 0x269E PUSH2 0x2529 JUMP JUMPDEST JUMPDEST DUP2 CALLDATALOAD PUSH2 0x26AF DUP5 DUP3 PUSH1 0x20 DUP7 ADD PUSH2 0x2621 JUMP JUMPDEST SWAP2 POP POP SWAP3 SWAP2 POP POP JUMP JUMPDEST PUSH1 0x0 DUP1 PUSH1 0x40 DUP4 DUP6 SUB SLT ISZERO PUSH2 0x26CF JUMPI PUSH2 0x26CE PUSH2 0x24C7 JUMP JUMPDEST JUMPDEST PUSH1 0x0 PUSH2 0x26DD DUP6 DUP3 DUP7 ADD PUSH2 0x2514 JUMP JUMPDEST SWAP3 POP POP PUSH1 0x20 DUP4 ADD CALLDATALOAD PUSH8 0xFFFFFFFFFFFFFFFF DUP2 GT ISZERO PUSH2 0x26FE JUMPI PUSH2 0x26FD PUSH2 0x24CC JUMP JUMPDEST JUMPDEST PUSH2 0x270A DUP6 DUP3 DUP7 ADD PUSH2 0x268A JUMP JUMPDEST SWAP2 POP POP SWAP3 POP SWAP3 SWAP1 POP JUMP JUMPDEST PUSH1 0x0 PUSH20 0xFFFFFFFFFFFFFFFFFFFFFFFFFFFFFFFFFFFFFFFF DUP3 AND SWAP1 POP SWAP2 SWAP1 POP JUMP JUMPDEST PUSH1 0x0 PUSH2 0x273F DUP3 PUSH2 0x2714 JUMP JUMPDEST SWAP1 POP SWAP2 SWAP1 POP JUMP JUMPDEST PUSH2 0x274F DUP2 PUSH2 0x2734 JUMP JUMPDEST DUP2 EQ PUSH2 0x275A JUMPI PUSH1 0x0 DUP1 REVERT JUMPDEST POP JUMP JUMPDEST PUSH1 0x0 DUP2 CALLDATALOAD SWAP1 POP PUSH2 0x276C DUP2 PUSH2 0x2746 JUMP JUMPDEST SWAP3 SWAP2 POP POP JUMP JUMPDEST PUSH1 0x0 DUP1 REVERT JUMPDEST PUSH1 0x0 PUSH8 0xFFFFFFFFFFFFFFFF DUP3 GT ISZERO PUSH2 0x2792 JUMPI PUSH2 0x2791 PUSH2 0x253F JUMP JUMPDEST JUMPDEST PUSH2 0x279B DUP3 PUSH2 0x252E JUMP JUMPDEST SWAP1 POP PUSH1 0x20 DUP2 ADD SWAP1 POP SWAP2 SWAP1 POP JUMP JUMPDEST DUP3 DUP2 DUP4 CALLDATACOPY PUSH1 0x0 DUP4 DUP4 ADD MSTORE POP POP POP JUMP JUMPDEST PUSH1 0x0 PUSH2 0x27CA PUSH2 0x27C5 DUP5 PUSH2 0x2777 JUMP JUMPDEST PUSH2 0x259F JUMP JUMPDEST SWAP1 POP DUP3 DUP2 MSTORE PUSH1 0x20 DUP2 ADD DUP5 DUP5 DUP5 ADD GT ISZERO PUSH2 0x27E6 JUMPI PUSH2 0x27E5 PUSH2 0x2772 JUMP JUMPDEST JUMPDEST PUSH2 0x27F1 DUP5 DUP3 DUP6 PUSH2 0x27A8 JUMP JUMPDEST POP SWAP4 SWAP3 POP POP POP JUMP JUMPDEST PUSH1 0x0 DUP3 PUSH1 0x1F DUP4 ADD SLT PUSH2 0x280E JUMPI PUSH2 0x280D PUSH2 0x2529 JUMP JUMPDEST JUMPDEST DUP2 CALLDATALOAD PUSH2 0x281E DUP5 DUP3 PUSH1 0x20 DUP7 ADD PUSH2 0x27B7 JUMP JUMPDEST SWAP2 POP POP SWAP3 SWAP2 POP POP JUMP JUMPDEST PUSH1 0x0 DUP1 PUSH1 0x0 PUSH1 0x60 DUP5 DUP7 SUB SLT ISZERO PUSH2 0x2840 JUMPI PUSH2 0x283F PUSH2 0x24C7 JUMP JUMPDEST JUMPDEST PUSH1 0x0 PUSH2 0x284E DUP7 DUP3 DUP8 ADD PUSH2 0x275D JUMP JUMPDEST SWAP4 POP POP PUSH1 0x20 PUSH2 0x285F DUP7 DUP3 DUP8 ADD PUSH2 0x260C JUMP JUMPDEST SWAP3 POP POP PUSH1 0x40 DUP5 ADD CALLDATALOAD PUSH8 0xFFFFFFFFFFFFFFFF DUP2 GT ISZERO PUSH2 0x2880 JUMPI PUSH2 0x287F PUSH2 0x24CC JUMP JUMPDEST JUMPDEST PUSH2 0x288C DUP7 DUP3 DUP8 ADD PUSH2 0x27F9 JUMP JUMPDEST SWAP2 POP POP SWAP3 POP SWAP3 POP SWAP3 JUMP JUMPDEST PUSH2 0x289F DUP2 PUSH2 0x25EB JUMP JUMPDEST DUP3 MSTORE POP POP JUMP JUMPDEST PUSH1 0x0 PUSH1 0x20 DUP3 ADD SWAP1 POP PUSH2 0x28BA PUSH1 0x0 DUP4 ADD DUP5 PUSH2 0x2896 JUMP JUMPDEST SWAP3 SWAP2 POP POP JUMP JUMPDEST PUSH1 0x0 PUSH1 0x20 DUP3 DUP5 SUB SLT ISZERO PUSH2 0x28D6 JUMPI PUSH2 0x28D5 PUSH2 0x24C7 JUMP JUMPDEST JUMPDEST PUSH1 0x0 PUSH2 0x28E4 DUP5 DUP3 DUP6 ADD PUSH2 0x2514 JUMP JUMPDEST SWAP2 POP POP SWAP3 SWAP2 POP POP JUMP JUMPDEST PUSH1 0x0 DUP2 MLOAD SWAP1 POP SWAP2 SWAP1 POP JUMP JUMPDEST PUSH1 0x0 DUP3 DUP3 MSTORE PUSH1 0x20 DUP3 ADD SWAP1 POP SWAP3 SWAP2 POP POP JUMP JUMPDEST PUSH1 0x0 DUP2 SWAP1 POP PUSH1 0x20 DUP3 ADD SWAP1 POP SWAP2 SWAP1 POP JUMP JUMPDEST PUSH2 0x2922 DUP2 PUSH2 0x25EB JUMP JUMPDEST DUP3 MSTORE POP POP JUMP JUMPDEST PUSH1 0x0 PUSH2 0x2934 DUP4 DUP4 PUSH2 0x2919 JUMP JUMPDEST PUSH1 0x20 DUP4 ADD SWAP1 POP SWAP3 SWAP2 POP POP JUMP JUMPDEST PUSH1 0x0 PUSH1 0x20 DUP3 ADD SWAP1 POP SWAP2 SWAP1 POP JUMP JUMPDEST PUSH1 0x0 PUSH2 0x2958 DUP3 PUSH2 0x28ED JUMP JUMPDEST PUSH2 0x2962 DUP2 DUP6 PUSH2 0x28F8 JUMP JUMPDEST SWAP4 POP PUSH2 0x296D DUP4 PUSH2 0x2909 JUMP JUMPDEST DUP1 PUSH1 0x0 JUMPDEST DUP4 DUP2 LT ISZERO PUSH2 0x299E JUMPI DUP2 MLOAD PUSH2 0x2985 DUP9 DUP3 PUSH2 0x2928 JUMP JUMPDEST SWAP8 POP PUSH2 0x2990 DUP4 PUSH2 0x2940 JUMP JUMPDEST SWAP3 POP POP PUSH1 0x1 DUP2 ADD SWAP1 POP PUSH2 0x2971 JUMP JUMPDEST POP DUP6 SWAP4 POP POP POP POP SWAP3 SWAP2 POP POP JUMP JUMPDEST PUSH1 0x0 PUSH1 0x20 DUP3 ADD SWAP1 POP DUP2 DUP2 SUB PUSH1 0x0 DUP4 ADD MSTORE PUSH2 0x29C5 DUP2 DUP5 PUSH2 0x294D JUMP JUMPDEST SWAP1 POP SWAP3 SWAP2 POP POP JUMP JUMPDEST PUSH1 0x0 PUSH1 0x20 DUP3 DUP5 SUB SLT ISZERO PUSH2 0x29E3 JUMPI PUSH2 0x29E2 PUSH2 0x24C7 JUMP JUMPDEST JUMPDEST PUSH1 0x0 PUSH2 0x29F1 DUP5 DUP3 DUP6 ADD PUSH2 0x260C JUMP JUMPDEST SWAP2 POP POP SWAP3 SWAP2 POP POP JUMP JUMPDEST PUSH1 0x0 DUP2 ISZERO ISZERO SWAP1 POP SWAP2 SWAP1 POP JUMP JUMPDEST PUSH2 0x2A0F DUP2 PUSH2 0x29FA JUMP JUMPDEST DUP3 MSTORE POP POP JUMP JUMPDEST PUSH1 0x0 PUSH1 0x20 DUP3 ADD SWAP1 POP PUSH2 0x2A2A PUSH1 0x0 DUP4 ADD DUP5 PUSH2 0x2A06 JUMP JUMPDEST SWAP3 SWAP2 POP POP JUMP JUMPDEST PUSH1 0x0 DUP2 MLOAD SWAP1 POP SWAP2 SWAP1 POP JUMP JUMPDEST PUSH1 0x0 DUP3 DUP3 MSTORE PUSH1 0x20 DUP3 ADD SWAP1 POP SWAP3 SWAP2 POP POP JUMP JUMPDEST PUSH1 0x0 JUMPDEST DUP4 DUP2 LT ISZERO PUSH2 0x2A6A JUMPI DUP1 DUP3 ADD MLOAD DUP2 DUP5 ADD MSTORE PUSH1 0x20 DUP2 ADD SWAP1 POP PUSH2 0x2A4F JUMP JUMPDEST PUSH1 0x0 DUP5 DUP5 ADD MSTORE POP POP POP POP JUMP JUMPDEST PUSH1 0x0 PUSH2 0x2A81 DUP3 PUSH2 0x2A30 JUMP JUMPDEST PUSH2 0x2A8B DUP2 DUP6 PUSH2 0x2A3B JUMP JUMPDEST SWAP4 POP PUSH2 0x2A9B DUP2 DUP6 PUSH1 0x20 DUP7 ADD PUSH2 0x2A4C JUMP JUMPDEST PUSH2 0x2AA4 DUP2 PUSH2 0x252E JUMP JUMPDEST DUP5 ADD SWAP2 POP POP SWAP3 SWAP2 POP POP JUMP JUMPDEST PUSH1 0x0 PUSH1 0x20 DUP3 ADD SWAP1 POP DUP2 DUP2 SUB PUSH1 0x0 DUP4 ADD MSTORE PUSH2 0x2AC9 DUP2 DUP5 PUSH2 0x2A76 JUMP JUMPDEST SWAP1 POP SWAP3 SWAP2 POP POP JUMP JUMPDEST PUSH1 0x0 PUSH1 0x20 DUP3 DUP5 SUB SLT ISZERO PUSH2 0x2AE7 JUMPI PUSH2 0x2AE6 PUSH2 0x24C7 JUMP JUMPDEST JUMPDEST PUSH1 0x0 PUSH2 0x2AF5 DUP5 DUP3 DUP6 ADD PUSH2 0x275D JUMP JUMPDEST SWAP2 POP POP SWAP3 SWAP2 POP POP JUMP JUMPDEST PUSH1 0x0 DUP1 PUSH1 0x40 DUP4 DUP6 SUB SLT ISZERO PUSH2 0x2B15 JUMPI PUSH2 0x2B14 PUSH2 0x24C7 JUMP JUMPDEST JUMPDEST PUSH1 0x0 PUSH2 0x2B23 DUP6 DUP3 DUP7 ADD PUSH2 0x2514 JUMP JUMPDEST SWAP3 POP POP PUSH1 0x20 PUSH2 0x2B34 DUP6 DUP3 DUP7 ADD PUSH2 0x275D JUMP JUMPDEST SWAP2 POP POP SWAP3 POP SWAP3 SWAP1 POP JUMP JUMPDEST PUSH1 0x0 DUP1 PUSH1 0x40 DUP4 DUP6 SUB SLT ISZERO PUSH2 0x2B55 JUMPI PUSH2 0x2B54 PUSH2 0x24C7 JUMP JUMPDEST JUMPDEST PUSH1 0x0 PUSH2 0x2B63 DUP6 DUP3 DUP7 ADD PUSH2 0x260C JUMP JUMPDEST SWAP3 POP POP PUSH1 0x20 PUSH2 0x2B74 DUP6 DUP3 DUP7 ADD PUSH2 0x260C JUMP JUMPDEST SWAP2 POP POP SWAP3 POP SWAP3 SWAP1 POP JUMP JUMPDEST PUSH2 0x2B87 DUP2 PUSH2 0x2734 JUMP JUMPDEST DUP3 MSTORE POP POP JUMP JUMPDEST PUSH1 0x0 PUSH1 0x20 DUP3 ADD SWAP1 POP PUSH2 0x2BA2 PUSH1 0x0 DUP4 ADD DUP5 PUSH2 0x2B7E JUMP JUMPDEST SWAP3 SWAP2 POP POP JUMP JUMPDEST PUSH1 0x0 PUSH1 0xA0 DUP3 ADD SWAP1 POP PUSH2 0x2BBD PUSH1 0x0 DUP4 ADD DUP9 PUSH2 0x2B7E JUMP JUMPDEST PUSH2 0x2BCA PUSH1 0x20 DUP4 ADD DUP8 PUSH2 0x2896 JUMP JUMPDEST PUSH2 0x2BD7 PUSH1 0x40 DUP4 ADD DUP7 PUSH2 0x2896 JUMP JUMPDEST PUSH2 0x2BE4 PUSH1 0x60 DUP4 ADD DUP6 PUSH2 0x2896 JUMP JUMPDEST DUP2 DUP2 SUB PUSH1 0x80 DUP4 ADD MSTORE PUSH2 0x2BF6 DUP2 DUP5 PUSH2 0x2A76 JUMP JUMPDEST SWAP1 POP SWAP7 SWAP6 POP POP POP POP POP POP JUMP JUMPDEST PUSH1 0x0 DUP2 MLOAD SWAP1 POP SWAP2 SWAP1 POP JUMP JUMPDEST PUSH1 0x0 DUP3 DUP3 MSTORE PUSH1 0x20 DUP3 ADD SWAP1 POP SWAP3 SWAP2 POP POP JUMP JUMPDEST PUSH1 0x0 DUP2 SWAP1 POP PUSH1 0x20 DUP3 ADD SWAP1 POP SWAP2 SWAP1 POP JUMP JUMPDEST PUSH2 0x2C37 DUP2 PUSH2 0x24D1 JUMP JUMPDEST DUP3 MSTORE POP POP JUMP JUMPDEST PUSH1 0x0 PUSH2 0x2C49 DUP4 DUP4 PUSH2 0x2C2E JUMP JUMPDEST PUSH1 0x20 DUP4 ADD SWAP1 POP SWAP3 SWAP2 POP POP JUMP JUMPDEST PUSH1 0x0 PUSH1 0x20 DUP3 ADD SWAP1 POP SWAP2 SWAP1 POP JUMP JUMPDEST PUSH1 0x0 PUSH2 0x2C6D DUP3 PUSH2 0x2C02 JUMP JUMPDEST PUSH2 0x2C77 DUP2 DUP6 PUSH2 0x2C0D JUMP JUMPDEST SWAP4 POP PUSH2 0x2C82 DUP4 PUSH2 0x2C1E JUMP JUMPDEST DUP1 PUSH1 0x0 JUMPDEST DUP4 DUP2 LT ISZERO PUSH2 0x2CB3 JUMPI DUP2 MLOAD PUSH2 0x2C9A DUP9 DUP3 PUSH2 0x2C3D JUMP JUMPDEST SWAP8 POP PUSH2 0x2CA5 DUP4 PUSH2 0x2C55 JUMP JUMPDEST SWAP3 POP POP PUSH1 0x1 DUP2 ADD SWAP1 POP PUSH2 0x2C86 JUMP JUMPDEST POP DUP6 SWAP4 POP POP POP POP SWAP3 SWAP2 POP POP JUMP JUMPDEST PUSH1 0x0 PUSH1 0x20 DUP3 ADD SWAP1 POP DUP2 DUP2 SUB PUSH1 0x0 DUP4 ADD MSTORE PUSH2 0x2CDA DUP2 DUP5 PUSH2 0x2C62 JUMP JUMPDEST SWAP1 POP SWAP3 SWAP2 POP POP JUMP JUMPDEST PUSH32 0x43616C6C6572206973206E6F74207468652066696C65206F776E6572206F7220 PUSH1 0x0 DUP3 ADD MSTORE PUSH32 0x646F6573206E6F74206861766520636F6E73656E740000000000000000000000 PUSH1 0x20 DUP3 ADD MSTORE POP JUMP JUMPDEST PUSH1 0x0 PUSH2 0x2D3E PUSH1 0x35 DUP4 PUSH2 0x2A3B JUMP JUMPDEST SWAP2 POP PUSH2 0x2D49 DUP3 PUSH2 0x2CE2 JUMP JUMPDEST PUSH1 0x40 DUP3 ADD SWAP1 POP SWAP2 SWAP1 POP JUMP JUMPDEST PUSH1 0x0 PUSH1 0x20 DUP3 ADD SWAP1 POP DUP2 DUP2 SUB PUSH1 0x0 DUP4 ADD MSTORE PUSH2 0x2D6D DUP2 PUSH2 0x2D31 JUMP JUMPDEST SWAP1 POP SWAP2 SWAP1 POP JUMP JUMPDEST PUSH32 0x536861726420494473206D757374206E6F7420626520656D7074790000000000 PUSH1 0x0 DUP3 ADD MSTORE POP JUMP JUMPDEST PUSH1 0x0 PUSH2 0x2DAA PUSH1 0x1B DUP4 PUSH2 0x2A3B JUMP JUMPDEST SWAP2 POP PUSH2 0x2DB5 DUP3 PUSH2 0x2D74 JUMP JUMPDEST PUSH1 0x20 DUP3 ADD SWAP1 POP SWAP2 SWAP1 POP JUMP JUMPDEST PUSH1 0x0 PUSH1 0x20 DUP3 ADD SWAP1 POP DUP2 DUP2 SUB PUSH1 0x0 DUP4 ADD MSTORE PUSH2 0x2DD9 DUP2 PUSH2 0x2D9D JUMP JUMPDEST SWAP1 POP SWAP2 SWAP1 POP JUMP JUMPDEST PUSH32 0x4E487B7100000000000000000000000000000000000000000000000000000000 PUSH1 0x0 MSTORE PUSH1 0x11 PUSH1 0x4 MSTORE PUSH1 0x24 PUSH1 0x0 REVERT JUMPDEST PUSH1 0x0 PUSH2 0x2E1A DUP3 PUSH2 0x25EB JUMP JUMPDEST SWAP2 POP PUSH2 0x2E25 DUP4 PUSH2 0x25EB JUMP JUMPDEST SWAP3 POP DUP3 DUP3 ADD SWAP1 POP DUP1 DUP3 GT ISZERO PUSH2 0x2E3D JUMPI PUSH2 0x2E3C PUSH2 0x2DE0 JUMP JUMPDEST JUMPDEST SWAP3 SWAP2 POP POP JUMP JUMPDEST PUSH32 0x53746F726167652050726F7669646572732063616E206F6E6C79206265206164 PUSH1 0x0 DUP3 ADD MSTORE PUSH32 0x6465642062792074686520636F6E7472616374206F776E657227732061646472 PUSH1 0x20 DUP3 ADD MSTORE PUSH32 0x657373206F72207468652061646472657373206265696E672072656769737465 PUSH1 0x40 DUP3 ADD MSTORE PUSH32 0x7265642100000000000000000000000000000000000000000000000000000000 PUSH1 0x60 DUP3 ADD MSTORE POP JUMP JUMPDEST PUSH1 0x0 PUSH2 0x2EEB PUSH1 0x64 DUP4 PUSH2 0x2A3B JUMP JUMPDEST SWAP2 POP PUSH2 0x2EF6 DUP3 PUSH2 0x2E43 JUMP JUMPDEST PUSH1 0x80 DUP3 ADD SWAP1 POP SWAP2 SWAP1 POP JUMP JUMPDEST PUSH1 0x0 PUSH1 0x20 DUP3 ADD SWAP1 POP DUP2 DUP2 SUB PUSH1 0x0 DUP4 ADD MSTORE PUSH2 0x2F1A DUP2 PUSH2 0x2EDE JUMP JUMPDEST SWAP1 POP SWAP2 SWAP1 POP JUMP JUMPDEST PUSH32 0x4E487B7100000000000000000000000000000000000000000000000000000000 PUSH1 0x0 MSTORE PUSH1 0x22 PUSH1 0x4 MSTORE PUSH1 0x24 PUSH1 0x0 REVERT JUMPDEST PUSH1 0x0 PUSH1 0x2 DUP3 DIV SWAP1 POP PUSH1 0x1 DUP3 AND DUP1 PUSH2 0x2F68 JUMPI PUSH1 0x7F DUP3 AND SWAP2 POP JUMPDEST PUSH1 0x20 DUP3 LT DUP2 SUB PUSH2 0x2F7B JUMPI PUSH2 0x2F7A PUSH2 0x2F21 JUMP JUMPDEST JUMPDEST POP SWAP2 SWAP1 POP JUMP JUMPDEST PUSH1 0x0 DUP2 SWAP1 POP DUP2 PUSH1 0x0 MSTORE PUSH1 0x20 PUSH1 0x0 KECCAK256 SWAP1 POP SWAP2 SWAP1 POP JUMP JUMPDEST PUSH1 0x0 PUSH1 0x20 PUSH1 0x1F DUP4 ADD DIV SWAP1 POP SWAP2 SWAP1 POP JUMP JUMPDEST PUSH1 0x0 DUP3 DUP3 SHL SWAP1 POP SWAP3 SWAP2 POP POP JUMP JUMPDEST PUSH1 0x0 PUSH1 0x8 DUP4 MUL PUSH2 0x2FE3 PUSH32 0xFFFFFFFFFFFFFFFFFFFFFFFFFFFFFFFFFFFFFFFFFFFFFFFFFFFFFFFFFFFFFFFF DUP3 PUSH2 0x2FA6 JUMP JUMPDEST PUSH2 0x2FED DUP7 DUP4 PUSH2 0x2FA6 JUMP JUMPDEST SWAP6 POP DUP1 NOT DUP5 AND SWAP4 POP DUP1 DUP7 AND DUP5 OR SWAP3 POP POP POP SWAP4 SWAP3 POP POP POP JUMP JUMPDEST PUSH1 0x0 DUP2 SWAP1 POP SWAP2 SWAP1 POP JUMP JUMPDEST PUSH1 0x0 PUSH2 0x302A PUSH2 0x3025 PUSH2 0x3020 DUP5 PUSH2 0x25EB JUMP JUMPDEST PUSH2 0x3005 JUMP JUMPDEST PUSH2 0x25EB JUMP JUMPDEST SWAP1 POP SWAP2 SWAP1 POP JUMP JUMPDEST PUSH1 0x0 DUP2 SWAP1 POP SWAP2 SWAP1 POP JUMP JUMPDEST PUSH2 0x3044 DUP4 PUSH2 0x300F JUMP JUMPDEST PUSH2 0x3058 PUSH2 0x3050 DUP3 PUSH2 0x3031 JUMP JUMPDEST DUP5 DUP5 SLOAD PUSH2 0x2FB3 JUMP JUMPDEST DUP3 SSTORE POP POP POP POP JUMP JUMPDEST PUSH1 0x0 SWAP1 JUMP JUMPDEST PUSH2 0x306D PUSH2 0x3060 JUMP JUMPDEST PUSH2 0x3078 DUP2 DUP5 DUP5 PUSH2 0x303B JUMP JUMPDEST POP POP POP JUMP JUMPDEST JUMPDEST DUP2 DUP2 LT ISZERO PUSH2 0x309C JUMPI PUSH2 0x3091 PUSH1 0x0 DUP3 PUSH2 0x3065 JUMP JUMPDEST PUSH1 0x1 DUP2 ADD SWAP1 POP PUSH2 0x307E JUMP JUMPDEST POP POP JUMP JUMPDEST PUSH1 0x1F DUP3 GT ISZERO PUSH2 0x30E1 JUMPI PUSH2 0x30B2 DUP2 PUSH2 0x2F81 JUMP JUMPDEST PUSH2 0x30BB DUP5 PUSH2 0x2F96 JUMP JUMPDEST DUP2 ADD PUSH1 0x20 DUP6 LT ISZERO PUSH2 0x30CA JUMPI DUP2 SWAP1 POP JUMPDEST PUSH2 0x30DE PUSH2 0x30D6 DUP6 PUSH2 0x2F96 JUMP JUMPDEST DUP4 ADD DUP3 PUSH2 0x307D JUMP JUMPDEST POP POP JUMPDEST POP POP POP JUMP JUMPDEST PUSH1 0x0 DUP3 DUP3 SHR SWAP1 POP SWAP3 SWAP2 POP POP JUMP JUMPDEST PUSH1 0x0 PUSH2 0x3104 PUSH1 0x0 NOT DUP5 PUSH1 0x8 MUL PUSH2 0x30E6 JUMP JUMPDEST NOT DUP1 DUP4 AND SWAP2 POP POP SWAP3 SWAP2 POP POP JUMP JUMPDEST PUSH1 0x0 PUSH2 0x311D DUP4 DUP4 PUSH2 0x30F3 JUMP JUMPDEST SWAP2 POP DUP3 PUSH1 0x2 MUL DUP3 OR SWAP1 POP SWAP3 SWAP2 POP POP JUMP JUMPDEST PUSH2 0x3136 DUP3 PUSH2 0x2A30 JUMP JUMPDEST PUSH8 0xFFFFFFFFFFFFFFFF DUP2 GT ISZERO PUSH2 0x314F JUMPI PUSH2 0x314E PUSH2 0x253F JUMP JUMPDEST JUMPDEST PUSH2 0x3159 DUP3 SLOAD PUSH2 0x2F50 JUMP JUMPDEST PUSH2 0x3164 DUP3 DUP3 DUP6 PUSH2 0x30A0 JUMP JUMPDEST PUSH1 0x0 PUSH1 0x20 SWAP1 POP PUSH1 0x1F DUP4 GT PUSH1 0x1 DUP2 EQ PUSH2 0x3197 JUMPI PUSH1 0x0 DUP5 ISZERO PUSH2 0x3185 JUMPI DUP3 DUP8 ADD MLOAD SWAP1 POP JUMPDEST PUSH2 0x318F DUP6 DUP3 PUSH2 0x3111 JUMP JUMPDEST DUP7 SSTORE POP PUSH2 0x31F7 JUMP JUMPDEST PUSH1 0x1F NOT DUP5 AND PUSH2 0x31A5 DUP7 PUSH2 0x2F81 JUMP JUMPDEST PUSH1 0x0 JUMPDEST DUP3 DUP2 LT ISZERO PUSH2 0x31CD JUMPI DUP5 DUP10 ADD MLOAD DUP3 SSTORE PUSH1 0x1 DUP3 ADD SWAP2 POP PUSH1 0x20 DUP6 ADD SWAP5 POP PUSH1 0x20 DUP2 ADD SWAP1 POP PUSH2 0x31A8 JUMP JUMPDEST DUP7 DUP4 LT ISZERO PUSH2 0x31EA JUMPI DUP5 DUP10 ADD MLOAD PUSH2 0x31E6 PUSH1 0x1F DUP10 AND DUP3 PUSH2 0x30F3 JUMP JUMPDEST DUP4 SSTORE POP JUMPDEST PUSH1 0x1 PUSH1 0x2 DUP9 MUL ADD DUP9 SSTORE POP POP POP JUMPDEST POP POP POP POP POP POP JUMP JUMPDEST PUSH1 0x0 PUSH2 0x320A DUP3 PUSH2 0x25EB JUMP JUMPDEST SWAP2 POP PUSH2 0x3215 DUP4 PUSH2 0x25EB JUMP JUMPDEST SWAP3 POP DUP3 DUP3 SUB SWAP1 POP DUP2 DUP2 GT ISZERO PUSH2 0x322D JUMPI PUSH2 0x322C PUSH2 0x2DE0 JUMP JUMPDEST JUMPDEST SWAP3 SWAP2 POP POP JUMP JUMPDEST PUSH1 0x0 PUSH2 0x323E DUP3 PUSH2 0x25EB JUMP JUMPDEST SWAP2 POP PUSH32 0xFFFFFFFFFFFFFFFFFFFFFFFFFFFFFFFFFFFFFFFFFFFFFFFFFFFFFFFFFFFFFFFF DUP3 SUB PUSH2 0x3270 JUMPI PUSH2 0x326F PUSH2 0x2DE0 JUMP JUMPDEST JUMPDEST PUSH1 0x1 DUP3 ADD SWAP1 POP SWAP2 SWAP1 POP JUMP JUMPDEST PUSH32 0x4F6E6C79207468652046696C65204F776E65722063616E206163636573732069 PUSH1 0x0 DUP3 ADD MSTORE PUSH32 0x7473207368617264732E00000000000000000000000000000000000000000000 PUSH1 0x20 DUP3 ADD MSTORE POP JUMP JUMPDEST PUSH1 0x0 PUSH2 0x32D7 PUSH1 0x2A DUP4 PUSH2 0x2A3B JUMP JUMPDEST SWAP2 POP PUSH2 0x32E2 DUP3 PUSH2 0x327B JUMP JUMPDEST PUSH1 0x40 DUP3 ADD SWAP1 POP SWAP2 SWAP1 POP JUMP JUMPDEST PUSH1 0x0 PUSH1 0x20 DUP3 ADD SWAP1 POP DUP2 DUP2 SUB PUSH1 0x0 DUP4 ADD MSTORE PUSH2 0x3306 DUP2 PUSH2 0x32CA JUMP JUMPDEST SWAP1 POP SWAP2 SWAP1 POP JUMP JUMPDEST PUSH32 0x4E487B7100000000000000000000000000000000000000000000000000000000 PUSH1 0x0 MSTORE PUSH1 0x32 PUSH1 0x4 MSTORE PUSH1 0x24 PUSH1 0x0 REVERT JUMPDEST PUSH32 0x5468652066696C6520646F6573206E6F742065786973742E0000000000000000 PUSH1 0x0 DUP3 ADD MSTORE POP JUMP JUMPDEST PUSH1 0x0 PUSH2 0x3372 PUSH1 0x18 DUP4 PUSH2 0x2A3B JUMP JUMPDEST SWAP2 POP PUSH2 0x337D DUP3 PUSH2 0x333C JUMP JUMPDEST PUSH1 0x20 DUP3 ADD SWAP1 POP SWAP2 SWAP1 POP JUMP JUMPDEST PUSH1 0x0 PUSH1 0x20 DUP3 ADD SWAP1 POP DUP2 DUP2 SUB PUSH1 0x0 DUP4 ADD MSTORE PUSH2 0x33A1 DUP2 PUSH2 0x3365 JUMP JUMPDEST SWAP1 POP SWAP2 SWAP1 POP JUMP JUMPDEST PUSH32 0x4F6E6C7920746865206F776E65722063616E2064656C65746520746865206669 PUSH1 0x0 DUP3 ADD MSTORE PUSH32 0x6C652E0000000000000000000000000000000000000000000000000000000000 PUSH1 0x20 DUP3 ADD MSTORE POP JUMP JUMPDEST PUSH1 0x0 PUSH2 0x3404 PUSH1 0x23 DUP4 PUSH2 0x2A3B JUMP JUMPDEST SWAP2 POP PUSH2 0x340F DUP3 PUSH2 0x33A8 JUMP JUMPDEST PUSH1 0x40 DUP3 ADD SWAP1 POP SWAP2 SWAP1 POP JUMP JUMPDEST PUSH1 0x0 PUSH1 0x20 DUP3 ADD SWAP1 POP DUP2 DUP2 SUB PUSH1 0x0 DUP4 ADD MSTORE PUSH2 0x3433 DUP2 PUSH2 0x33F7 JUMP JUMPDEST SWAP1 POP SWAP2 SWAP1 POP JUMP JUMPDEST PUSH32 0x4E487B7100000000000000000000000000000000000000000000000000000000 PUSH1 0x0 MSTORE PUSH1 0x31 PUSH1 0x4 MSTORE PUSH1 0x24 PUSH1 0x0 REVERT JUMPDEST PUSH1 0x0 PUSH2 0x3474 DUP3 PUSH2 0x25EB JUMP JUMPDEST SWAP2 POP PUSH1 0x0 DUP3 SUB PUSH2 0x3487 JUMPI PUSH2 0x3486 PUSH2 0x2DE0 JUMP JUMPDEST JUMPDEST PUSH1 0x1 DUP3 SUB SWAP1 POP SWAP2 SWAP1 POP JUMP JUMPDEST PUSH2 0x349B DUP2 PUSH2 0x24D1 JUMP JUMPDEST DUP3 MSTORE POP POP JUMP JUMPDEST PUSH1 0x0 PUSH1 0x20 DUP3 ADD SWAP1 POP PUSH2 0x34B6 PUSH1 0x0 DUP4 ADD DUP5 PUSH2 0x3492 JUMP JUMPDEST SWAP3 SWAP2 POP POP JUMP JUMPDEST PUSH32 0x496E76616C69642073686172642049442E000000000000000000000000000000 PUSH1 0x0 DUP3 ADD MSTORE POP JUMP JUMPDEST PUSH1 0x0 PUSH2 0x34F2 PUSH1 0x11 DUP4 PUSH2 0x2A3B JUMP JUMPDEST SWAP2 POP PUSH2 0x34FD DUP3 PUSH2 0x34BC JUMP JUMPDEST PUSH1 0x20 DUP3 ADD SWAP1 POP SWAP2 SWAP1 POP JUMP JUMPDEST PUSH1 0x0 PUSH1 0x20 DUP3 ADD SWAP1 POP DUP2 DUP2 SUB PUSH1 0x0 DUP4 ADD MSTORE PUSH2 0x3521 DUP2 PUSH2 0x34E5 JUMP JUMPDEST SWAP1 POP SWAP2 SWAP1 POP JUMP JUMPDEST PUSH32 0x4F6E6C792046696C65204F776E65722063616E2064656C657465207468652066 PUSH1 0x0 DUP3 ADD MSTORE PUSH32 0x696C652100000000000000000000000000000000000000000000000000000000 PUSH1 0x20 DUP3 ADD MSTORE POP JUMP JUMPDEST PUSH1 0x0 PUSH2 0x3584 PUSH1 0x24 DUP4 PUSH2 0x2A3B JUMP JUMPDEST SWAP2 POP PUSH2 0x358F DUP3 PUSH2 0x3528 JUMP JUMPDEST PUSH1 0x40 DUP3 ADD SWAP1 POP SWAP2 SWAP1 POP JUMP JUMPDEST PUSH1 0x0 PUSH1 0x20 DUP3 ADD SWAP1 POP DUP2 DUP2 SUB PUSH1 0x0 DUP4 ADD MSTORE PUSH2 0x35B3 DUP2 PUSH2 0x3577 JUMP JUMPDEST SWAP1 POP SWAP2 SWAP1 POP JUMP JUMPDEST PUSH1 0x0 PUSH1 0x40 DUP3 ADD SWAP1 POP PUSH2 0x35CF PUSH1 0x0 DUP4 ADD DUP6 PUSH2 0x2896 JUMP JUMPDEST PUSH2 0x35DC PUSH1 0x20 DUP4 ADD DUP5 PUSH2 0x2896 JUMP JUMPDEST SWAP4 SWAP3 POP POP POP JUMP JUMPDEST PUSH32 0x496E76616C6964206661726D6572206E6F64652049442E000000000000000000 PUSH1 0x0 DUP3 ADD MSTORE POP JUMP JUMPDEST PUSH1 0x0 PUSH2 0x3619 PUSH1 0x17 DUP4 PUSH2 0x2A3B JUMP JUMPDEST SWAP2 POP PUSH2 0x3624 DUP3 PUSH2 0x35E3 JUMP JUMPDEST PUSH1 0x20 DUP3 ADD SWAP1 POP SWAP2 SWAP1 POP JUMP JUMPDEST PUSH1 0x0 PUSH1 0x20 DUP3 ADD SWAP1 POP DUP2 DUP2 SUB PUSH1 0x0 DUP4 ADD MSTORE PUSH2 0x3648 DUP2 PUSH2 0x360C JUMP JUMPDEST SWAP1 POP SWAP2 SWAP1 POP JUMP JUMPDEST PUSH32 0x53746F726167652050726F7669646572732063616E206F6E6C79206265207265 PUSH1 0x0 DUP3 ADD MSTORE PUSH32 0x6D6F7665642062792074686520636F6E7472616374206F776E65722773206164 PUSH1 0x20 DUP3 ADD MSTORE PUSH32 0x6472657373206F72207468652061646472657373206265696E67207265676973 PUSH1 0x40 DUP3 ADD MSTORE PUSH32 0x7465726564210000000000000000000000000000000000000000000000000000 PUSH1 0x60 DUP3 ADD MSTORE POP JUMP JUMPDEST PUSH1 0x0 PUSH2 0x36F7 PUSH1 0x66 DUP4 PUSH2 0x2A3B JUMP JUMPDEST SWAP2 POP PUSH2 0x3702 DUP3 PUSH2 0x364F JUMP JUMPDEST PUSH1 0x80 DUP3 ADD SWAP1 POP SWAP2 SWAP1 POP JUMP JUMPDEST PUSH1 0x0 PUSH1 0x20 DUP3 ADD SWAP1 POP DUP2 DUP2 SUB PUSH1 0x0 DUP4 ADD MSTORE PUSH2 0x3726 DUP2 PUSH2 0x36EA JUMP JUMPDEST SWAP1 POP SWAP2 SWAP1 POP JUMP JUMPDEST PUSH1 0x0 DUP2 SLOAD SWAP1 POP PUSH2 0x373C DUP2 PUSH2 0x2F50 JUMP JUMPDEST SWAP1 POP SWAP2 SWAP1 POP JUMP JUMPDEST DUP2 DUP2 SUB PUSH2 0x3751 JUMPI POP POP PUSH2 0x3829 JUMP JUMPDEST PUSH2 0x375A DUP3 PUSH2 0x372D JUMP JUMPDEST PUSH8 0xFFFFFFFFFFFFFFFF DUP2 GT ISZERO PUSH2 0x3773 JUMPI PUSH2 0x3772 PUSH2 0x253F JUMP JUMPDEST JUMPDEST PUSH2 0x377D DUP3 SLOAD PUSH2 0x2F50 JUMP JUMPDEST PUSH2 0x3788 DUP3 DUP3 DUP6 PUSH2 0x30A0 JUMP JUMPDEST PUSH1 0x0 PUSH1 0x1F DUP4 GT PUSH1 0x1 DUP2 EQ PUSH2 0x37B7 JUMPI PUSH1 0x0 DUP5 ISZERO PUSH2 0x37A5 JUMPI DUP3 DUP8 ADD SLOAD SWAP1 POP JUMPDEST PUSH2 0x37AF DUP6 DUP3 PUSH2 0x3111 JUMP JUMPDEST DUP7 SSTORE POP PUSH2 0x3822 JUMP JUMPDEST PUSH1 0x1F NOT DUP5 AND PUSH2 0x37C5 DUP8 PUSH2 0x2F81 JUMP JUMPDEST SWAP7 POP PUSH2 0x37D0 DUP7 PUSH2 0x2F81 JUMP JUMPDEST PUSH1 0x0 JUMPDEST DUP3 DUP2 LT ISZERO PUSH2 0x37F8 JUMPI DUP5 DUP10 ADD SLOAD DUP3 SSTORE PUSH1 0x1 DUP3 ADD SWAP2 POP PUSH1 0x1 DUP6 ADD SWAP5 POP PUSH1 0x20 DUP2 ADD SWAP1 POP PUSH2 0x37D3 JUMP JUMPDEST DUP7 DUP4 LT ISZERO PUSH2 0x3815 JUMPI DUP5 DUP10 ADD SLOAD PUSH2 0x3811 PUSH1 0x1F DUP10 AND DUP3 PUSH2 0x30F3 JUMP JUMPDEST DUP4 SSTORE POP JUMPDEST PUSH1 0x1 PUSH1 0x2 DUP9 MUL ADD DUP9 SSTORE POP POP POP JUMPDEST POP POP POP POP POP POP JUMPDEST JUMP JUMPDEST PUSH32 0x4F6E6C79207468652046696C65204F776E65722063616E206769766520617761 PUSH1 0x0 DUP3 ADD MSTORE PUSH32 0x79206F776E657273686970206F662074686569722066696C6500000000000000 PUSH1 0x20 DUP3 ADD MSTORE POP JUMP JUMPDEST PUSH1 0x0 PUSH2 0x3887 PUSH1 0x39 DUP4 PUSH2 0x2A3B JUMP JUMPDEST SWAP2 POP PUSH2 0x3892 DUP3 PUSH2 0x382B JUMP JUMPDEST PUSH1 0x40 DUP3 ADD SWAP1 POP SWAP2 SWAP1 POP JUMP JUMPDEST PUSH1 0x0 PUSH1 0x20 DUP3 ADD SWAP1 POP DUP2 DUP2 SUB PUSH1 0x0 DUP4 ADD MSTORE PUSH2 0x38B6 DUP2 PUSH2 0x387A JUMP JUMPDEST SWAP1 POP SWAP2 SWAP1 POP JUMP JUMPDEST PUSH32 0x4661726D6572206861732072656163686564206D6178696D756D2073746F7261 PUSH1 0x0 DUP3 ADD MSTORE PUSH32 0x67652063617061636974792E0000000000000000000000000000000000000000 PUSH1 0x20 DUP3 ADD MSTORE POP JUMP JUMPDEST PUSH1 0x0 PUSH2 0x3919 PUSH1 0x2C DUP4 PUSH2 0x2A3B JUMP JUMPDEST SWAP2 POP PUSH2 0x3924 DUP3 PUSH2 0x38BD JUMP JUMPDEST PUSH1 0x40 DUP3 ADD SWAP1 POP SWAP2 SWAP1 POP JUMP JUMPDEST PUSH1 0x0 PUSH1 0x20 DUP3 ADD SWAP1 POP DUP2 DUP2 SUB PUSH1 0x0 DUP4 ADD MSTORE PUSH2 0x3948 DUP2 PUSH2 0x390C JUMP JUMPDEST SWAP1 POP SWAP2 SWAP1 POP JUMP JUMPDEST PUSH32 0x536861726420697320616C72656164792061737369676E656420746F20612066 PUSH1 0x0 DUP3 ADD MSTORE PUSH32 0x61726D65722E0000000000000000000000000000000000000000000000000000 PUSH1 0x20 DUP3 ADD MSTORE POP JUMP JUMPDEST PUSH1 0x0 PUSH2 0x39AB PUSH1 0x26 DUP4 PUSH2 0x2A3B JUMP JUMPDEST SWAP2 POP PUSH2 0x39B6 DUP3 PUSH2 0x394F JUMP JUMPDEST PUSH1 0x40 DUP3 ADD SWAP1 POP SWAP2 SWAP1 POP JUMP JUMPDEST PUSH1 0x0 PUSH1 0x20 DUP3 ADD SWAP1 POP DUP2 DUP2 SUB PUSH1 0x0 DUP4 ADD MSTORE PUSH2 0x39DA DUP2 PUSH2 0x399E JUMP JUMPDEST SWAP1 POP SWAP2 SWAP1 POP JUMP JUMPDEST PUSH32 0x5368617264206973206E6F742061737369676E656420746F2074686520737065 PUSH1 0x0 DUP3 ADD MSTORE PUSH32 0x636966696564206661726D65722E000000000000000000000000000000000000 PUSH1 0x20 DUP3 ADD MSTORE POP JUMP JUMPDEST PUSH1 0x0 PUSH2 0x3A3D PUSH1 0x2E DUP4 PUSH2 0x2A3B JUMP JUMPDEST SWAP2 POP PUSH2 0x3A48 DUP3 PUSH2 0x39E1 JUMP JUMPDEST PUSH1 0x40 DUP3 ADD SWAP1 POP SWAP2 SWAP1 POP JUMP JUMPDEST PUSH1 0x0 PUSH1 0x20 DUP3 ADD SWAP1 POP DUP2 DUP2 SUB PUSH1 0x0 DUP4 ADD MSTORE PUSH2 0x3A6C DUP2 PUSH2 0x3A30 JUMP JUMPDEST SWAP1 POP SWAP2 SWAP1 POP JUMP JUMPDEST PUSH32 0x4F6E6C79207468652046696C65204F776E65722063616E20636865636B206E75 PUSH1 0x0 DUP3 ADD MSTORE PUSH32 0x6D626572206F6620736861726473000000000000000000000000000000000000 PUSH1 0x20 DUP3 ADD MSTORE POP JUMP JUMPDEST PUSH1 0x0 PUSH2 0x3ACF PUSH1 0x2E DUP4 PUSH2 0x2A3B JUMP JUMPDEST SWAP2 POP PUSH2 0x3ADA DUP3 PUSH2 0x3A73 JUMP JUMPDEST PUSH1 0x40 DUP3 ADD SWAP1 POP SWAP2 SWAP1 POP JUMP JUMPDEST PUSH1 0x0 PUSH1 0x20 DUP3 ADD SWAP1 POP DUP2 DUP2 SUB PUSH1 0x0 DUP4 ADD MSTORE PUSH2 0x3AFE DUP2 PUSH2 0x3AC2 JUMP JUMPDEST SWAP1 POP SWAP2 SWAP1 POP JUMP JUMPDEST PUSH32 0x4F776E61626C653A206E6577206F776E657220697320746865207A65726F2061 PUSH1 0x0 DUP3 ADD MSTORE PUSH32 0x6464726573730000000000000000000000000000000000000000000000000000 PUSH1 0x20 DUP3 ADD MSTORE POP JUMP JUMPDEST PUSH1 0x0 PUSH2 0x3B61 PUSH1 0x26 DUP4 PUSH2 0x2A3B JUMP JUMPDEST SWAP2 POP PUSH2 0x3B6C DUP3 PUSH2 0x3B05 JUMP JUMPDEST PUSH1 0x40 DUP3 ADD SWAP1 POP SWAP2 SWAP1 POP JUMP JUMPDEST PUSH1 0x0 PUSH1 0x20 DUP3 ADD SWAP1 POP DUP2 DUP2 SUB PUSH1 0x0 DUP4 ADD MSTORE PUSH2 0x3B90 DUP2 PUSH2 0x3B54 JUMP JUMPDEST SWAP1 POP SWAP2 SWAP1 POP JUMP JUMPDEST PUSH32 0x4F776E61626C653A2063616C6C6572206973206E6F7420746865206F776E6572 PUSH1 0x0 DUP3 ADD MSTORE POP JUMP JUMPDEST PUSH1 0x0 PUSH2 0x3BCD PUSH1 0x20 DUP4 PUSH2 0x2A3B JUMP JUMPDEST SWAP2 POP PUSH2 0x3BD8 DUP3 PUSH2 0x3B97 JUMP JUMPDEST PUSH1 0x20 DUP3 ADD SWAP1 POP SWAP2 SWAP1 POP JUMP JUMPDEST PUSH1 0x0 PUSH1 0x20 DUP3 ADD SWAP1 POP DUP2 DUP2 SUB PUSH1 0x0 DUP4 ADD MSTORE PUSH2 0x3BFC DUP2 PUSH2 0x3BC0 JUMP JUMPDEST SWAP1 POP SWAP2 SWAP1 POP JUMP INVALID LOG2 PUSH5 0x6970667358 0x22 SLT KECCAK256 0xB6 0xED PUSH19 0x9337329EBDCC24C8CA2D9AFC888AA8357DAA3D LOG3 PUSH25 0x77130DC92FFBDB3664736F6C63430008120033000000000000 "
				},
				"gasEstimates": {
					"creation": {
						"codeDepositCost": "3083400",
						"executionCost": "infinite",
						"totalCost": "infinite"
					},
					"external": {
						"_deleteFileHash(bytes20)": "infinite",
						"_dropShardsOfDeletedFile(bytes20)": "infinite",
						"_storeFile(bytes20)": "infinite",
						"addShardToStorageProvider(uint256,uint256)": "infinite",
						"addStorageProvider(address,uint256,string)": "infinite",
						"associateShardsWithFileHash(bytes20,uint256[])": "infinite",
						"checkFileHashExternal(bytes20)": "infinite",
						"containsNode(uint256)": "infinite",
						"fileHashToOwner(bytes20)": "2912",
						"fileHashToShardCount(bytes20)": "2816",
						"getFarmer(uint256)": "infinite",
						"getFarmerCount()": "2512",
						"getFarmerIdFromShardId(uint256)": "infinite",
						"getMyFilehashes()": "infinite",
						"getShardCount()": "2512",
						"getShardData(uint256)": "infinite",
						"getShardIDs(bytes20)": "infinite",
						"getShardsByFilehash(bytes20)": "infinite",
						"getShardsInFile_Count(bytes20)": "5136",
						"getStorageProviderNodeID(address)": "infinite",
						"hasConsent(bytes20,address)": "3175",
						"owner()": "2567",
						"ownerFileCount(address)": "2903",
						"removeShardFromStorageProvider(uint256,uint256)": "infinite",
						"removeStorageProvider(uint256)": "infinite",
						"renounceOwnership()": "30487",
						"setFileHashOwner(bytes20,address)": "27331",
						"transferOwnership(address)": "30854"
					},
					"internal": {
						"checkFileHash(bytes20)": "28"
					}
				},
				"methodIdentifiers": {
					"_deleteFileHash(bytes20)": "2de1468e",
					"_dropShardsOfDeletedFile(bytes20)": "4f83b0ea",
					"_storeFile(bytes20)": "45246f8e",
					"addShardToStorageProvider(uint256,uint256)": "8a78e46e",
					"addStorageProvider(address,uint256,string)": "189c4460",
					"associateShardsWithFileHash(bytes20,uint256[])": "103f90a3",
					"checkFileHashExternal(bytes20)": "473f8928",
					"containsNode(uint256)": "29eaa31b",
					"fileHashToOwner(bytes20)": "9650b0a5",
					"fileHashToShardCount(bytes20)": "636943b3",
					"getFarmer(uint256)": "ad0caa76",
					"getFarmerCount()": "c4a8b5d5",
					"getFarmerIdFromShardId(uint256)": "b4fe4fa6",
					"getMyFilehashes()": "e270d1c1",
					"getShardCount()": "6773042b",
					"getShardData(uint256)": "4039df79",
					"getShardIDs(bytes20)": "439ec341",
					"getShardsByFilehash(bytes20)": "28d305ab",
					"getShardsInFile_Count(bytes20)": "e0400f74",
					"getStorageProviderNodeID(address)": "828e6f1a",
					"hasConsent(bytes20,address)": "c759bdbe",
					"owner()": "8da5cb5b",
					"ownerFileCount(address)": "aad9eb3d",
					"removeShardFromStorageProvider(uint256,uint256)": "d5faa8d1",
					"removeStorageProvider(uint256)": "8258d46e",
					"renounceOwnership()": "715018a6",
					"setFileHashOwner(bytes20,address)": "8381d799",
					"transferOwnership(address)": "f2fde38b"
				}
			},
			"storageLayout": {
				"storage": [
					{
						"astId": 29,
						"contract": "Cloudy-Blockchain/contracts/cloudy_contract.sol:ClientManager",
						"label": "_owner",
						"offset": 0,
						"slot": "0",
						"type": "t_address"
					},
					{
						"astId": 160,
						"contract": "Cloudy-Blockchain/contracts/cloudy_contract.sol:ClientManager",
						"label": "availableFarmers",
						"offset": 0,
						"slot": "1",
						"type": "t_array(t_struct(Farmer)156_storage)dyn_storage"
					},
					{
						"astId": 163,
						"contract": "Cloudy-Blockchain/contracts/cloudy_contract.sol:ClientManager",
						"label": "availableFarmerNodeIds",
						"offset": 0,
						"slot": "2",
						"type": "t_array(t_uint256)dyn_storage"
					},
					{
						"astId": 167,
						"contract": "Cloudy-Blockchain/contracts/cloudy_contract.sol:ClientManager",
						"label": "farmerNodeIdToFarmerArrayIndex",
						"offset": 0,
						"slot": "3",
						"type": "t_mapping(t_uint256,t_uint256)"
					},
					{
						"astId": 170,
						"contract": "Cloudy-Blockchain/contracts/cloudy_contract.sol:ClientManager",
						"label": "farmerNodeIdIncrementer",
						"offset": 0,
						"slot": "4",
						"type": "t_uint256"
					},
					{
						"astId": 174,
						"contract": "Cloudy-Blockchain/contracts/cloudy_contract.sol:ClientManager",
						"label": "shards",
						"offset": 0,
						"slot": "5",
						"type": "t_array(t_struct(Shard)145_storage)dyn_storage"
					},
					{
						"astId": 177,
						"contract": "Cloudy-Blockchain/contracts/cloudy_contract.sol:ClientManager",
						"label": "fileHashes",
						"offset": 0,
						"slot": "6",
						"type": "t_array(t_bytes20)dyn_storage"
					},
					{
						"astId": 181,
						"contract": "Cloudy-Blockchain/contracts/cloudy_contract.sol:ClientManager",
						"label": "fileHashToOwner",
						"offset": 0,
						"slot": "7",
						"type": "t_mapping(t_bytes20,t_address)"
					},
					{
						"astId": 185,
						"contract": "Cloudy-Blockchain/contracts/cloudy_contract.sol:ClientManager",
						"label": "fileHashToShardCount",
						"offset": 0,
						"slot": "8",
						"type": "t_mapping(t_bytes20,t_uint256)"
					},
					{
						"astId": 189,
						"contract": "Cloudy-Blockchain/contracts/cloudy_contract.sol:ClientManager",
						"label": "shardIdtoFileHash",
						"offset": 0,
						"slot": "9",
						"type": "t_mapping(t_uint256,t_bytes20)"
					},
					{
						"astId": 193,
						"contract": "Cloudy-Blockchain/contracts/cloudy_contract.sol:ClientManager",
						"label": "shardIdtoFarmerNodeId",
						"offset": 0,
						"slot": "10",
						"type": "t_mapping(t_uint256,t_uint256)"
					},
					{
						"astId": 198,
						"contract": "Cloudy-Blockchain/contracts/cloudy_contract.sol:ClientManager",
						"label": "fileHashToShards",
						"offset": 0,
						"slot": "11",
						"type": "t_mapping(t_bytes20,t_array(t_uint256)dyn_storage)"
					},
					{
						"astId": 202,
						"contract": "Cloudy-Blockchain/contracts/cloudy_contract.sol:ClientManager",
						"label": "fileHashOwners",
						"offset": 0,
						"slot": "12",
						"type": "t_mapping(t_string_memory_ptr,t_address)"
					},
					{
						"astId": 206,
						"contract": "Cloudy-Blockchain/contracts/cloudy_contract.sol:ClientManager",
						"label": "fileHashToArrayIndexes",
						"offset": 0,
						"slot": "13",
						"type": "t_mapping(t_bytes20,t_uint256)"
					},
					{
						"astId": 528,
						"contract": "Cloudy-Blockchain/contracts/cloudy_contract.sol:ClientManager",
						"label": "farmerShardCount",
						"offset": 0,
						"slot": "14",
						"type": "t_mapping(t_uint256,t_uint256)"
					},
					{
						"astId": 532,
						"contract": "Cloudy-Blockchain/contracts/cloudy_contract.sol:ClientManager",
						"label": "ownerFileCount",
						"offset": 0,
						"slot": "15",
						"type": "t_mapping(t_address,t_uint256)"
					},
					{
						"astId": 536,
						"contract": "Cloudy-Blockchain/contracts/cloudy_contract.sol:ClientManager",
						"label": "shardsInFile_Count",
						"offset": 0,
						"slot": "16",
						"type": "t_mapping(t_bytes20,t_uint256)"
					}
				],
				"types": {
					"t_address": {
						"encoding": "inplace",
						"label": "address",
						"numberOfBytes": "20"
					},
					"t_array(t_bytes20)dyn_storage": {
						"base": "t_bytes20",
						"encoding": "dynamic_array",
						"label": "bytes20[]",
						"numberOfBytes": "32"
					},
					"t_array(t_struct(Farmer)156_storage)dyn_storage": {
						"base": "t_struct(Farmer)156_storage",
						"encoding": "dynamic_array",
						"label": "struct ClientManager.Farmer[]",
						"numberOfBytes": "32"
					},
					"t_array(t_struct(Shard)145_storage)dyn_storage": {
						"base": "t_struct(Shard)145_storage",
						"encoding": "dynamic_array",
						"label": "struct ClientManager.Shard[]",
						"numberOfBytes": "32"
					},
					"t_array(t_uint256)dyn_storage": {
						"base": "t_uint256",
						"encoding": "dynamic_array",
						"label": "uint256[]",
						"numberOfBytes": "32"
					},
					"t_bytes20": {
						"encoding": "inplace",
						"label": "bytes20",
						"numberOfBytes": "20"
					},
					"t_mapping(t_address,t_uint256)": {
						"encoding": "mapping",
						"key": "t_address",
						"label": "mapping(address => uint256)",
						"numberOfBytes": "32",
						"value": "t_uint256"
					},
					"t_mapping(t_bytes20,t_address)": {
						"encoding": "mapping",
						"key": "t_bytes20",
						"label": "mapping(bytes20 => address)",
						"numberOfBytes": "32",
						"value": "t_address"
					},
					"t_mapping(t_bytes20,t_array(t_uint256)dyn_storage)": {
						"encoding": "mapping",
						"key": "t_bytes20",
						"label": "mapping(bytes20 => uint256[])",
						"numberOfBytes": "32",
						"value": "t_array(t_uint256)dyn_storage"
					},
					"t_mapping(t_bytes20,t_uint256)": {
						"encoding": "mapping",
						"key": "t_bytes20",
						"label": "mapping(bytes20 => uint256)",
						"numberOfBytes": "32",
						"value": "t_uint256"
					},
					"t_mapping(t_string_memory_ptr,t_address)": {
						"encoding": "mapping",
						"key": "t_string_memory_ptr",
						"label": "mapping(string => address)",
						"numberOfBytes": "32",
						"value": "t_address"
					},
					"t_mapping(t_uint256,t_bytes20)": {
						"encoding": "mapping",
						"key": "t_uint256",
						"label": "mapping(uint256 => bytes20)",
						"numberOfBytes": "32",
						"value": "t_bytes20"
					},
					"t_mapping(t_uint256,t_uint256)": {
						"encoding": "mapping",
						"key": "t_uint256",
						"label": "mapping(uint256 => uint256)",
						"numberOfBytes": "32",
						"value": "t_uint256"
					},
					"t_string_memory_ptr": {
						"encoding": "bytes",
						"label": "string",
						"numberOfBytes": "32"
					},
					"t_string_storage": {
						"encoding": "bytes",
						"label": "string",
						"numberOfBytes": "32"
					},
					"t_struct(Farmer)156_storage": {
						"encoding": "inplace",
						"label": "struct ClientManager.Farmer",
						"members": [
							{
								"astId": 147,
								"contract": "Cloudy-Blockchain/contracts/cloudy_contract.sol:ClientManager",
								"label": "walletAddress",
								"offset": 0,
								"slot": "0",
								"type": "t_address"
							},
							{
								"astId": 149,
								"contract": "Cloudy-Blockchain/contracts/cloudy_contract.sol:ClientManager",
								"label": "nodeId",
								"offset": 0,
								"slot": "1",
								"type": "t_uint256"
							},
							{
								"astId": 151,
								"contract": "Cloudy-Blockchain/contracts/cloudy_contract.sol:ClientManager",
								"label": "currentStoredSize",
								"offset": 0,
								"slot": "2",
								"type": "t_uint256"
							},
							{
								"astId": 153,
								"contract": "Cloudy-Blockchain/contracts/cloudy_contract.sol:ClientManager",
								"label": "maxStorageSize",
								"offset": 0,
								"slot": "3",
								"type": "t_uint256"
							},
							{
								"astId": 155,
								"contract": "Cloudy-Blockchain/contracts/cloudy_contract.sol:ClientManager",
								"label": "storageType",
								"offset": 0,
								"slot": "4",
								"type": "t_string_storage"
							}
						],
						"numberOfBytes": "160"
					},
					"t_struct(Shard)145_storage": {
						"encoding": "inplace",
						"label": "struct ClientManager.Shard",
						"members": [
							{
								"astId": 142,
								"contract": "Cloudy-Blockchain/contracts/cloudy_contract.sol:ClientManager",
								"label": "shardId",
								"offset": 0,
								"slot": "0",
								"type": "t_uint256"
							},
							{
								"astId": 144,
								"contract": "Cloudy-Blockchain/contracts/cloudy_contract.sol:ClientManager",
								"label": "shardData",
								"offset": 0,
								"slot": "1",
								"type": "t_string_storage"
							}
						],
						"numberOfBytes": "64"
					},
					"t_uint256": {
						"encoding": "inplace",
						"label": "uint256",
						"numberOfBytes": "32"
					}
				}
			},
			"userdoc": {
				"kind": "user",
				"methods": {},
				"version": 1
			}
		}
	}
}