{
	"Cloudy-Blockchain/contracts/NewCloudy.sol": {
		"DistributedStorage": {
			"abi": [
				{
					"inputs": [],
					"stateMutability": "nonpayable",
					"type": "constructor"
				},
				{
					"anonymous": false,
					"inputs": [
						{
							"indexed": false,
							"internalType": "bytes32",
							"name": "fileHash",
							"type": "bytes32"
						}
					],
					"name": "FileDeleted",
					"type": "event"
				},
				{
					"anonymous": false,
					"inputs": [
						{
							"indexed": false,
							"internalType": "address",
							"name": "storageProvider",
							"type": "address"
						},
						{
							"indexed": false,
							"internalType": "uint256",
							"name": "amount",
							"type": "uint256"
						}
					],
					"name": "RewardPaid",
					"type": "event"
				},
				{
					"anonymous": false,
					"inputs": [
						{
							"indexed": false,
							"internalType": "uint256",
							"name": "shardId",
							"type": "uint256"
						},
						{
							"indexed": false,
							"internalType": "address",
							"name": "storageProvider",
							"type": "address"
						},
						{
							"indexed": false,
							"internalType": "bool",
							"name": "valid",
							"type": "bool"
						}
					],
					"name": "ShardAudited",
					"type": "event"
				},
				{
					"anonymous": false,
					"inputs": [
						{
							"indexed": false,
							"internalType": "uint256",
							"name": "shardId",
							"type": "uint256"
						}
					],
					"name": "ShardDeleted",
					"type": "event"
				},
				{
					"anonymous": false,
					"inputs": [
						{
							"indexed": false,
							"internalType": "uint256",
							"name": "shardId",
							"type": "uint256"
						},
						{
							"indexed": false,
							"internalType": "address",
							"name": "storageProvider",
							"type": "address"
						}
					],
					"name": "ShardStored",
					"type": "event"
				},
				{
					"anonymous": false,
					"inputs": [
						{
							"indexed": false,
							"internalType": "address",
							"name": "storageProvider",
							"type": "address"
						}
					],
					"name": "StorageProviderDeleted",
					"type": "event"
				},
				{
					"inputs": [
						{
							"internalType": "bytes32",
							"name": "",
							"type": "bytes32"
						}
					],
					"name": "OwnerToFileHash",
					"outputs": [
						{
							"internalType": "bool",
							"name": "",
							"type": "bool"
						}
					],
					"stateMutability": "view",
					"type": "function"
				},
				{
					"inputs": [
						{
							"internalType": "uint256",
							"name": "_shardId",
							"type": "uint256"
						},
						{
							"internalType": "address",
							"name": "_storageProvider",
							"type": "address"
						}
					],
					"name": "assignStorageProvider",
					"outputs": [],
					"stateMutability": "nonpayable",
					"type": "function"
				},
				{
					"inputs": [
						{
							"internalType": "uint256",
							"name": "_shardId",
							"type": "uint256"
						}
					],
					"name": "auditShard",
					"outputs": [],
					"stateMutability": "nonpayable",
					"type": "function"
				},
				{
					"inputs": [
						{
							"internalType": "uint256[]",
							"name": "_shardIds",
							"type": "uint256[]"
						}
					],
					"name": "auditStorageProviders",
					"outputs": [],
					"stateMutability": "nonpayable",
					"type": "function"
				},
				{
					"inputs": [
						{
							"internalType": "bytes32",
							"name": "_fileHash",
							"type": "bytes32"
						}
					],
					"name": "deleteFile",
					"outputs": [],
					"stateMutability": "nonpayable",
					"type": "function"
				},
				{
					"inputs": [
						{
							"internalType": "bytes32",
							"name": "_fileHash",
							"type": "bytes32"
						},
						{
							"internalType": "uint256",
							"name": "_shardId",
							"type": "uint256"
						}
					],
					"name": "deleteShard",
					"outputs": [],
					"stateMutability": "nonpayable",
					"type": "function"
				},
				{
					"inputs": [
						{
							"internalType": "address",
							"name": "_storageProvider",
							"type": "address"
						}
					],
					"name": "deleteStorageProvider",
					"outputs": [],
					"stateMutability": "nonpayable",
					"type": "function"
				},
				{
					"inputs": [
						{
							"internalType": "uint256",
							"name": "",
							"type": "uint256"
						},
						{
							"internalType": "uint256",
							"name": "",
							"type": "uint256"
						}
					],
					"name": "fileShards",
					"outputs": [
						{
							"internalType": "uint256",
							"name": "",
							"type": "uint256"
						}
					],
					"stateMutability": "view",
					"type": "function"
				},
				{
					"inputs": [
						{
							"internalType": "bytes32",
							"name": "",
							"type": "bytes32"
						}
					],
					"name": "filesByHash",
					"outputs": [
						{
							"internalType": "address",
							"name": "owner",
							"type": "address"
						},
						{
							"internalType": "string",
							"name": "ownerName",
							"type": "string"
						},
						{
							"internalType": "string",
							"name": "fileName",
							"type": "string"
						},
						{
							"internalType": "bytes32",
							"name": "fileHash",
							"type": "bytes32"
						},
						{
							"internalType": "bool",
							"name": "exists",
							"type": "bool"
						}
					],
					"stateMutability": "view",
					"type": "function"
				},
				{
					"inputs": [
						{
							"internalType": "bytes32",
							"name": "_fileHash",
							"type": "bytes32"
						}
					],
					"name": "getFileDetails",
					"outputs": [
						{
							"internalType": "address",
							"name": "",
							"type": "address"
						},
						{
							"internalType": "string",
							"name": "",
							"type": "string"
						},
						{
							"internalType": "string",
							"name": "",
							"type": "string"
						},
						{
							"internalType": "bytes32",
							"name": "",
							"type": "bytes32"
						},
						{
							"internalType": "uint256[]",
							"name": "",
							"type": "uint256[]"
						}
					],
					"stateMutability": "view",
					"type": "function"
				},
				{
					"inputs": [
						{
							"internalType": "address",
							"name": "_owner",
							"type": "address"
						}
					],
					"name": "getOwnerFiles",
					"outputs": [
						{
							"internalType": "bytes32[]",
							"name": "",
							"type": "bytes32[]"
						}
					],
					"stateMutability": "view",
					"type": "function"
				},
				{
					"inputs": [
						{
							"internalType": "uint256",
							"name": "_shardId",
							"type": "uint256"
						}
					],
					"name": "getShardFiles",
					"outputs": [
						{
							"internalType": "uint256[]",
							"name": "",
							"type": "uint256[]"
						}
					],
					"stateMutability": "view",
					"type": "function"
				},
				{
					"inputs": [
						{
							"internalType": "address",
							"name": "_storageProvider",
							"type": "address"
						}
					],
					"name": "getStorageProviderDetails",
					"outputs": [
						{
							"internalType": "bytes32",
							"name": "",
							"type": "bytes32"
						},
						{
							"internalType": "address",
							"name": "",
							"type": "address"
						},
						{
							"internalType": "uint256",
							"name": "",
							"type": "uint256"
						},
						{
							"internalType": "uint256",
							"name": "",
							"type": "uint256"
						},
						{
							"internalType": "bool",
							"name": "",
							"type": "bool"
						}
					],
					"stateMutability": "view",
					"type": "function"
				},
				{
					"inputs": [],
					"name": "getStorageProvidersStoring",
					"outputs": [
						{
							"internalType": "address[]",
							"name": "",
							"type": "address[]"
						}
					],
					"stateMutability": "view",
					"type": "function"
				},
				{
					"inputs": [],
					"name": "getStorageProvidersWithSpace",
					"outputs": [
						{
							"internalType": "address[]",
							"name": "",
							"type": "address[]"
						}
					],
					"stateMutability": "view",
					"type": "function"
				},
				{
					"inputs": [
						{
							"internalType": "address",
							"name": "",
							"type": "address"
						},
						{
							"internalType": "uint256",
							"name": "",
							"type": "uint256"
						}
					],
					"name": "ownerFiles",
					"outputs": [
						{
							"internalType": "bytes32",
							"name": "",
							"type": "bytes32"
						}
					],
					"stateMutability": "view",
					"type": "function"
				},
				{
					"inputs": [
						{
							"internalType": "address",
							"name": "",
							"type": "address"
						}
					],
					"name": "providerDetails",
					"outputs": [
						{
							"internalType": "bytes32",
							"name": "ip",
							"type": "bytes32"
						},
						{
							"internalType": "address",
							"name": "walletAddress",
							"type": "address"
						},
						{
							"internalType": "uint256",
							"name": "availableStorageSpace",
							"type": "uint256"
						},
						{
							"internalType": "uint256",
							"name": "maximumStorageSize",
							"type": "uint256"
						},
						{
							"internalType": "bool",
							"name": "isStoring",
							"type": "bool"
						}
					],
					"stateMutability": "view",
					"type": "function"
				},
				{
					"inputs": [
						{
							"internalType": "uint256",
							"name": "",
							"type": "uint256"
						}
					],
					"name": "providersStoring",
					"outputs": [
						{
							"internalType": "address",
							"name": "",
							"type": "address"
						}
					],
					"stateMutability": "view",
					"type": "function"
				},
				{
					"inputs": [
						{
							"internalType": "uint256",
							"name": "",
							"type": "uint256"
						}
					],
					"name": "providersWithSpace",
					"outputs": [
						{
							"internalType": "address",
							"name": "",
							"type": "address"
						}
					],
					"stateMutability": "view",
					"type": "function"
				},
				{
					"inputs": [
						{
							"internalType": "bytes32",
							"name": "_ip",
							"type": "bytes32"
						},
						{
							"internalType": "address",
							"name": "_walletAddress",
							"type": "address"
						},
						{
							"internalType": "uint256",
							"name": "_availableStorageSpace",
							"type": "uint256"
						},
						{
							"internalType": "uint256",
							"name": "_maximumStorageSize",
							"type": "uint256"
						}
					],
					"name": "registerStorageProvider",
					"outputs": [],
					"stateMutability": "nonpayable",
					"type": "function"
				},
				{
					"inputs": [],
					"name": "rewardAmount",
					"outputs": [
						{
							"internalType": "uint256",
							"name": "",
							"type": "uint256"
						}
					],
					"stateMutability": "view",
					"type": "function"
				},
				{
					"inputs": [],
					"name": "shardCounter",
					"outputs": [
						{
							"internalType": "uint256",
							"name": "",
							"type": "uint256"
						}
					],
					"stateMutability": "view",
					"type": "function"
				},
				{
					"inputs": [
						{
							"internalType": "uint256",
							"name": "",
							"type": "uint256"
						}
					],
					"name": "shards",
					"outputs": [
						{
							"internalType": "uint256",
							"name": "id",
							"type": "uint256"
						},
						{
							"internalType": "address",
							"name": "storageProvider",
							"type": "address"
						},
						{
							"internalType": "uint256",
							"name": "timestamp",
							"type": "uint256"
						},
						{
							"internalType": "bytes",
							"name": "shardData",
							"type": "bytes"
						},
						{
							"internalType": "bool",
							"name": "exists",
							"type": "bool"
						}
					],
					"stateMutability": "view",
					"type": "function"
				},
				{
					"inputs": [
						{
							"internalType": "address",
							"name": "",
							"type": "address"
						},
						{
							"internalType": "uint256",
							"name": "",
							"type": "uint256"
						}
					],
					"name": "storageProviders",
					"outputs": [
						{
							"internalType": "uint256",
							"name": "",
							"type": "uint256"
						}
					],
					"stateMutability": "view",
					"type": "function"
				},
				{
					"inputs": [
						{
							"internalType": "address",
							"name": "_storageProvider",
							"type": "address"
						},
						{
							"internalType": "uint256",
							"name": "_newAvailableSpace",
							"type": "uint256"
						}
					],
					"name": "updateAvailableStorageSpace",
					"outputs": [],
					"stateMutability": "nonpayable",
					"type": "function"
				},
				{
					"inputs": [
						{
							"internalType": "uint256",
							"name": "_newRewardAmount",
							"type": "uint256"
						}
					],
					"name": "updateRewardAmount",
					"outputs": [],
					"stateMutability": "nonpayable",
					"type": "function"
				},
				{
					"inputs": [
						{
							"internalType": "string",
							"name": "_ownerName",
							"type": "string"
						},
						{
							"internalType": "string",
							"name": "_fileName",
							"type": "string"
						},
						{
							"internalType": "bytes32",
							"name": "_fileHash",
							"type": "bytes32"
						},
						{
							"internalType": "bytes",
							"name": "_fileData",
							"type": "bytes"
						},
						{
							"internalType": "uint256",
							"name": "_shardSize",
							"type": "uint256"
						}
					],
					"name": "uploadFile",
					"outputs": [],
					"stateMutability": "nonpayable",
					"type": "function"
				}
			],
			"devdoc": {
				"kind": "dev",
				"methods": {},
				"version": 1
			},
			"evm": {
				"assembly": "    /* \"Cloudy-Blockchain/contracts/NewCloudy.sol\":60:17938  contract DistributedStorage {... */\n  mstore(0x40, 0x80)\n    /* \"Cloudy-Blockchain/contracts/NewCloudy.sol\":2124:2239  constructor() {... */\n  callvalue\n  dup1\n  iszero\n  tag_1\n  jumpi\n  0x00\n  dup1\n  revert\ntag_1:\n  pop\n    /* \"Cloudy-Blockchain/contracts/NewCloudy.sol\":2164:2165  1 */\n  0x01\n    /* \"Cloudy-Blockchain/contracts/NewCloudy.sol\":2149:2161  shardCounter */\n  0x09\n    /* \"Cloudy-Blockchain/contracts/NewCloudy.sol\":2149:2165  shardCounter = 1 */\n  dup2\n  swap1\n  sstore\n  pop\n    /* \"Cloudy-Blockchain/contracts/NewCloudy.sol\":2191:2198  1 ether */\n  0x0de0b6b3a7640000\n    /* \"Cloudy-Blockchain/contracts/NewCloudy.sol\":2176:2188  rewardAmount */\n  0x0a\n    /* \"Cloudy-Blockchain/contracts/NewCloudy.sol\":2176:2198  rewardAmount = 1 ether */\n  dup2\n  swap1\n  sstore\n  pop\n    /* \"Cloudy-Blockchain/contracts/NewCloudy.sol\":60:17938  contract DistributedStorage {... */\n  dataSize(sub_0)\n  dup1\n  dataOffset(sub_0)\n  0x00\n  codecopy\n  0x00\n  return\nstop\n\nsub_0: assembly {\n        /* \"Cloudy-Blockchain/contracts/NewCloudy.sol\":60:17938  contract DistributedStorage {... */\n      mstore(0x40, 0x80)\n      callvalue\n      dup1\n      iszero\n      tag_1\n      jumpi\n      0x00\n      dup1\n      revert\n    tag_1:\n      pop\n      jumpi(tag_2, lt(calldatasize, 0x04))\n      shr(0xe0, calldataload(0x00))\n      dup1\n      0x931c1bbd\n      gt\n      tag_30\n      jumpi\n      dup1\n      0xb2524175\n      gt\n      tag_31\n      jumpi\n      dup1\n      0xcde4ba48\n      gt\n      tag_32\n      jumpi\n      dup1\n      0xcde4ba48\n      eq\n      tag_26\n      jumpi\n      dup1\n      0xe4fb7a0f\n      eq\n      tag_27\n      jumpi\n      dup1\n      0xe55f7964\n      eq\n      tag_28\n      jumpi\n      dup1\n      0xf7b2a7be\n      eq\n      tag_29\n      jumpi\n      jump(tag_2)\n    tag_32:\n      dup1\n      0xb2524175\n      eq\n      tag_23\n      jumpi\n      dup1\n      0xb52d6624\n      eq\n      tag_24\n      jumpi\n      dup1\n      0xcdcaf87e\n      eq\n      tag_25\n      jumpi\n      jump(tag_2)\n    tag_31:\n      dup1\n      0xaa2b7010\n      gt\n      tag_33\n      jumpi\n      dup1\n      0xaa2b7010\n      eq\n      tag_19\n      jumpi\n      dup1\n      0xadddf233\n      eq\n      tag_20\n      jumpi\n      dup1\n      0xb0e73d7e\n      eq\n      tag_21\n      jumpi\n      dup1\n      0xb2474059\n      eq\n      tag_22\n      jumpi\n      jump(tag_2)\n    tag_33:\n      dup1\n      0x931c1bbd\n      eq\n      tag_16\n      jumpi\n      dup1\n      0xa4a91eef\n      eq\n      tag_17\n      jumpi\n      dup1\n      0xa7d2e9a3\n      eq\n      tag_18\n      jumpi\n      jump(tag_2)\n    tag_30:\n      dup1\n      0x3c097111\n      gt\n      tag_34\n      jumpi\n      dup1\n      0x5b92b5bd\n      gt\n      tag_35\n      jumpi\n      dup1\n      0x5b92b5bd\n      eq\n      tag_12\n      jumpi\n      dup1\n      0x6ab799f1\n      eq\n      tag_13\n      jumpi\n      dup1\n      0x754ccd33\n      eq\n      tag_14\n      jumpi\n      dup1\n      0x7fe92d2a\n      eq\n      tag_15\n      jumpi\n      jump(tag_2)\n    tag_35:\n      dup1\n      0x3c097111\n      eq\n      tag_9\n      jumpi\n      dup1\n      0x3e689f9c\n      eq\n      tag_10\n      jumpi\n      dup1\n      0x5b395159\n      eq\n      tag_11\n      jumpi\n      jump(tag_2)\n    tag_34:\n      dup1\n      0x15c2ba14\n      eq\n      tag_3\n      jumpi\n      dup1\n      0x16faae90\n      eq\n      tag_4\n      jumpi\n      dup1\n      0x18d340e7\n      eq\n      tag_5\n      jumpi\n      dup1\n      0x192bf875\n      eq\n      tag_6\n      jumpi\n      dup1\n      0x2437c149\n      eq\n      tag_7\n      jumpi\n      dup1\n      0x2a3427f0\n      eq\n      tag_8\n      jumpi\n    tag_2:\n      0x00\n      dup1\n      revert\n        /* \"Cloudy-Blockchain/contracts/NewCloudy.sol\":10215:10328  function updateRewardAmount(uint256 _newRewardAmount) external {... */\n    tag_3:\n      tag_36\n      0x04\n      dup1\n      calldatasize\n      sub\n      dup2\n      add\n      swap1\n      tag_37\n      swap2\n      swap1\n      tag_38\n      jump\t// in\n    tag_37:\n      tag_39\n      jump\t// in\n    tag_36:\n      stop\n        /* \"Cloudy-Blockchain/contracts/NewCloudy.sol\":636:675  mapping(uint256 => Shard) public shards */\n    tag_4:\n      tag_40\n      0x04\n      dup1\n      calldatasize\n      sub\n      dup2\n      add\n      swap1\n      tag_41\n      swap2\n      swap1\n      tag_38\n      jump\t// in\n    tag_41:\n      tag_42\n      jump\t// in\n    tag_40:\n      mload(0x40)\n      tag_43\n      swap6\n      swap5\n      swap4\n      swap3\n      swap2\n      swap1\n      tag_44\n      jump\t// in\n    tag_43:\n      mload(0x40)\n      dup1\n      swap2\n      sub\n      swap1\n      return\n        /* \"Cloudy-Blockchain/contracts/NewCloudy.sol\":12145:13235  function updateAvailableStorageSpace(address _storageProvider, uint256 _newAvailableSpace) external {... */\n    tag_5:\n      tag_45\n      0x04\n      dup1\n      calldatasize\n      sub\n      dup2\n      add\n      swap1\n      tag_46\n      swap2\n      swap1\n      tag_47\n      jump\t// in\n    tag_46:\n      tag_48\n      jump\t// in\n    tag_45:\n      stop\n        /* \"Cloudy-Blockchain/contracts/NewCloudy.sol\":8789:9250  function auditStorageProviders(uint256[] calldata _shardIds) external {... */\n    tag_6:\n      tag_49\n      0x04\n      dup1\n      calldatasize\n      sub\n      dup2\n      add\n      swap1\n      tag_50\n      swap2\n      swap1\n      tag_51\n      jump\t// in\n    tag_50:\n      tag_52\n      jump\t// in\n    tag_49:\n      stop\n        /* \"Cloudy-Blockchain/contracts/NewCloudy.sol\":7611:8655  function assignStorageProvider(uint256 _shardId, address _storageProvider) external {... */\n    tag_7:\n      tag_53\n      0x04\n      dup1\n      calldatasize\n      sub\n      dup2\n      add\n      swap1\n      tag_54\n      swap2\n      swap1\n      tag_55\n      jump\t// in\n    tag_54:\n      tag_56\n      jump\t// in\n    tag_53:\n      stop\n        /* \"Cloudy-Blockchain/contracts/NewCloudy.sol\":1560:1593  address[] public providersStoring */\n    tag_8:\n      tag_57\n      0x04\n      dup1\n      calldatasize\n      sub\n      dup2\n      add\n      swap1\n      tag_58\n      swap2\n      swap1\n      tag_38\n      jump\t// in\n    tag_58:\n      tag_59\n      jump\t// in\n    tag_57:\n      mload(0x40)\n      tag_60\n      swap2\n      swap1\n      tag_61\n      jump\t// in\n    tag_60:\n      mload(0x40)\n      dup1\n      swap2\n      sub\n      swap1\n      return\n        /* \"Cloudy-Blockchain/contracts/NewCloudy.sol\":1405:1440  address[] public providersWithSpace */\n    tag_9:\n      tag_62\n      0x04\n      dup1\n      calldatasize\n      sub\n      dup2\n      add\n      swap1\n      tag_63\n      swap2\n      swap1\n      tag_38\n      jump\t// in\n    tag_63:\n      tag_64\n      jump\t// in\n    tag_62:\n      mload(0x40)\n      tag_65\n      swap2\n      swap1\n      tag_61\n      jump\t// in\n    tag_65:\n      mload(0x40)\n      dup1\n      swap2\n      sub\n      swap1\n      return\n        /* \"Cloudy-Blockchain/contracts/NewCloudy.sol\":1699:1726  uint256 public shardCounter */\n    tag_10:\n      tag_66\n      tag_67\n      jump\t// in\n    tag_66:\n      mload(0x40)\n      tag_68\n      swap2\n      swap1\n      tag_69\n      jump\t// in\n    tag_68:\n      mload(0x40)\n      dup1\n      swap2\n      sub\n      swap1\n      return\n        /* \"Cloudy-Blockchain/contracts/NewCloudy.sol\":17105:17389  function getFileDetails(bytes32 _fileHash) external view returns (address, string memory, string memory, bytes32, uint256[] memory) {... */\n    tag_11:\n      tag_70\n      0x04\n      dup1\n      calldatasize\n      sub\n      dup2\n      add\n      swap1\n      tag_71\n      swap2\n      swap1\n      tag_72\n      jump\t// in\n    tag_71:\n      tag_73\n      jump\t// in\n    tag_70:\n      mload(0x40)\n      tag_74\n      swap6\n      swap5\n      swap4\n      swap3\n      swap2\n      swap1\n      tag_75\n      jump\t// in\n    tag_74:\n      mload(0x40)\n      dup1\n      swap2\n      sub\n      swap1\n      return\n        /* \"Cloudy-Blockchain/contracts/NewCloudy.sol\":13294:14518  function deleteShard(bytes32 _fileHash, uint256 _shardId) external {... */\n    tag_12:\n      tag_76\n      0x04\n      dup1\n      calldatasize\n      sub\n      dup2\n      add\n      swap1\n      tag_77\n      swap2\n      swap1\n      tag_78\n      jump\t// in\n    tag_77:\n      tag_79\n      jump\t// in\n    tag_76:\n      stop\n        /* \"Cloudy-Blockchain/contracts/NewCloudy.sol\":5664:7548  function deleteFile(bytes32 _fileHash) external {... */\n    tag_13:\n      tag_80\n      0x04\n      dup1\n      calldatasize\n      sub\n      dup2\n      add\n      swap1\n      tag_81\n      swap2\n      swap1\n      tag_72\n      jump\t// in\n    tag_81:\n      tag_82\n      jump\t// in\n    tag_80:\n      stop\n        /* \"Cloudy-Blockchain/contracts/NewCloudy.sol\":14526:15061  function auditShard(uint256 _shardId) external {... */\n    tag_14:\n      tag_83\n      0x04\n      dup1\n      calldatasize\n      sub\n      dup2\n      add\n      swap1\n      tag_84\n      swap2\n      swap1\n      tag_38\n      jump\t// in\n    tag_84:\n      tag_85\n      jump\t// in\n    tag_83:\n      stop\n        /* \"Cloudy-Blockchain/contracts/NewCloudy.sol\":950:1008  mapping(address => StorageProvider) public providerDetails */\n    tag_15:\n      tag_86\n      0x04\n      dup1\n      calldatasize\n      sub\n      dup2\n      add\n      swap1\n      tag_87\n      swap2\n      swap1\n      tag_88\n      jump\t// in\n    tag_87:\n      tag_89\n      jump\t// in\n    tag_86:\n      mload(0x40)\n      tag_90\n      swap6\n      swap5\n      swap4\n      swap3\n      swap2\n      swap1\n      tag_91\n      jump\t// in\n    tag_90:\n      mload(0x40)\n      dup1\n      swap2\n      sub\n      swap1\n      return\n        /* \"Cloudy-Blockchain/contracts/NewCloudy.sol\":4146:5212  function uploadFile(string memory _ownerName, string memory _fileName, bytes32 _fileHash, bytes memory _fileData, uint256 _shardSize) external {... */\n    tag_16:\n      tag_92\n      0x04\n      dup1\n      calldatasize\n      sub\n      dup2\n      add\n      swap1\n      tag_93\n      swap2\n      swap1\n      tag_94\n      jump\t// in\n    tag_93:\n      tag_95\n      jump\t// in\n    tag_92:\n      stop\n        /* \"Cloudy-Blockchain/contracts/NewCloudy.sol\":15726:16624  function deleteStorageProvider(address _storageProvider) external {... */\n    tag_17:\n      tag_96\n      0x04\n      dup1\n      calldatasize\n      sub\n      dup2\n      add\n      swap1\n      tag_97\n      swap2\n      swap1\n      tag_88\n      jump\t// in\n    tag_97:\n      tag_98\n      jump\t// in\n    tag_96:\n      stop\n        /* \"Cloudy-Blockchain/contracts/NewCloudy.sol\":17814:17935  function getStorageProvidersStoring() external view returns (address[] memory) {... */\n    tag_18:\n      tag_99\n      tag_100\n      jump\t// in\n    tag_99:\n      mload(0x40)\n      tag_101\n      swap2\n      swap1\n      tag_102\n      jump\t// in\n    tag_101:\n      mload(0x40)\n      dup1\n      swap2\n      sub\n      swap1\n      return\n        /* \"Cloudy-Blockchain/contracts/NewCloudy.sol\":733:776  mapping(bytes32 => File) public filesByHash */\n    tag_19:\n      tag_103\n      0x04\n      dup1\n      calldatasize\n      sub\n      dup2\n      add\n      swap1\n      tag_104\n      swap2\n      swap1\n      tag_72\n      jump\t// in\n    tag_104:\n      tag_105\n      jump\t// in\n    tag_103:\n      mload(0x40)\n      tag_106\n      swap6\n      swap5\n      swap4\n      swap3\n      swap2\n      swap1\n      tag_107\n      jump\t// in\n    tag_106:\n      mload(0x40)\n      dup1\n      swap2\n      sub\n      swap1\n      return\n        /* \"Cloudy-Blockchain/contracts/NewCloudy.sol\":1274:1321  mapping(bytes32 => bool) public OwnerToFileHash */\n    tag_20:\n      tag_108\n      0x04\n      dup1\n      calldatasize\n      sub\n      dup2\n      add\n      swap1\n      tag_109\n      swap2\n      swap1\n      tag_72\n      jump\t// in\n    tag_109:\n      tag_110\n      jump\t// in\n    tag_108:\n      mload(0x40)\n      tag_111\n      swap2\n      swap1\n      tag_112\n      jump\t// in\n    tag_111:\n      mload(0x40)\n      dup1\n      swap2\n      sub\n      swap1\n      return\n        /* \"Cloudy-Blockchain/contracts/NewCloudy.sol\":16744:17093  function getStorageProviderDetails(address _storageProvider) external view returns (bytes32, address, uint256, uint256, bool) {... */\n    tag_21:\n      tag_113\n      0x04\n      dup1\n      calldatasize\n      sub\n      dup2\n      add\n      swap1\n      tag_114\n      swap2\n      swap1\n      tag_88\n      jump\t// in\n    tag_114:\n      tag_115\n      jump\t// in\n    tag_113:\n      mload(0x40)\n      tag_116\n      swap6\n      swap5\n      swap4\n      swap3\n      swap2\n      swap1\n      tag_91\n      jump\t// in\n    tag_116:\n      mload(0x40)\n      dup1\n      swap2\n      sub\n      swap1\n      return\n        /* \"Cloudy-Blockchain/contracts/NewCloudy.sol\":818:871  mapping(address => uint256[]) public storageProviders */\n    tag_22:\n      tag_117\n      0x04\n      dup1\n      calldatasize\n      sub\n      dup2\n      add\n      swap1\n      tag_118\n      swap2\n      swap1\n      tag_47\n      jump\t// in\n    tag_118:\n      tag_119\n      jump\t// in\n    tag_117:\n      mload(0x40)\n      tag_120\n      swap2\n      swap1\n      tag_69\n      jump\t// in\n    tag_120:\n      mload(0x40)\n      dup1\n      swap2\n      sub\n      swap1\n      return\n        /* \"Cloudy-Blockchain/contracts/NewCloudy.sol\":17677:17802  function getStorageProvidersWithSpace() external view returns (address[] memory) {... */\n    tag_23:\n      tag_121\n      tag_122\n      jump\t// in\n    tag_121:\n      mload(0x40)\n      tag_123\n      swap2\n      swap1\n      tag_102\n      jump\t// in\n    tag_123:\n      mload(0x40)\n      dup1\n      swap2\n      sub\n      swap1\n      return\n        /* \"Cloudy-Blockchain/contracts/NewCloudy.sol\":17401:17525  function getOwnerFiles(address _owner) external view returns (bytes32[] memory) {... */\n    tag_24:\n      tag_124\n      0x04\n      dup1\n      calldatasize\n      sub\n      dup2\n      add\n      swap1\n      tag_125\n      swap2\n      swap1\n      tag_88\n      jump\t// in\n    tag_125:\n      tag_126\n      jump\t// in\n    tag_124:\n      mload(0x40)\n      tag_127\n      swap2\n      swap1\n      tag_128\n      jump\t// in\n    tag_127:\n      mload(0x40)\n      dup1\n      swap2\n      sub\n      swap1\n      return\n        /* \"Cloudy-Blockchain/contracts/NewCloudy.sol\":17537:17665  function getShardFiles(uint256 _shardId) external view returns (uint256[] memory) {... */\n    tag_25:\n      tag_129\n      0x04\n      dup1\n      calldatasize\n      sub\n      dup2\n      add\n      swap1\n      tag_130\n      swap2\n      swap1\n      tag_38\n      jump\t// in\n    tag_130:\n      tag_131\n      jump\t// in\n    tag_129:\n      mload(0x40)\n      tag_132\n      swap2\n      swap1\n      tag_133\n      jump\t// in\n    tag_132:\n      mload(0x40)\n      dup1\n      swap2\n      sub\n      swap1\n      return\n        /* \"Cloudy-Blockchain/contracts/NewCloudy.sol\":10783:11174  function registerStorageProvider(bytes32 _ip, address _walletAddress, uint256 _availableStorageSpace, uint256 _maximumStorageSize) external {... */\n    tag_26:\n      tag_134\n      0x04\n      dup1\n      calldatasize\n      sub\n      dup2\n      add\n      swap1\n      tag_135\n      swap2\n      swap1\n      tag_136\n      jump\t// in\n    tag_135:\n      tag_137\n      jump\t// in\n    tag_134:\n      stop\n        /* \"Cloudy-Blockchain/contracts/NewCloudy.sol\":1150:1197  mapping(uint256 => uint256[]) public fileShards */\n    tag_27:\n      tag_138\n      0x04\n      dup1\n      calldatasize\n      sub\n      dup2\n      add\n      swap1\n      tag_139\n      swap2\n      swap1\n      tag_140\n      jump\t// in\n    tag_139:\n      tag_141\n      jump\t// in\n    tag_138:\n      mload(0x40)\n      tag_142\n      swap2\n      swap1\n      tag_69\n      jump\t// in\n    tag_142:\n      mload(0x40)\n      dup1\n      swap2\n      sub\n      swap1\n      return\n        /* \"Cloudy-Blockchain/contracts/NewCloudy.sol\":1015:1062  mapping(address => bytes32[]) public ownerFiles */\n    tag_28:\n      tag_143\n      0x04\n      dup1\n      calldatasize\n      sub\n      dup2\n      add\n      swap1\n      tag_144\n      swap2\n      swap1\n      tag_47\n      jump\t// in\n    tag_144:\n      tag_145\n      jump\t// in\n    tag_143:\n      mload(0x40)\n      tag_146\n      swap2\n      swap1\n      tag_147\n      jump\t// in\n    tag_146:\n      mload(0x40)\n      dup1\n      swap2\n      sub\n      swap1\n      return\n        /* \"Cloudy-Blockchain/contracts/NewCloudy.sol\":1733:1760  uint256 public rewardAmount */\n    tag_29:\n      tag_148\n      tag_149\n      jump\t// in\n    tag_148:\n      mload(0x40)\n      tag_150\n      swap2\n      swap1\n      tag_69\n      jump\t// in\n    tag_150:\n      mload(0x40)\n      dup1\n      swap2\n      sub\n      swap1\n      return\n        /* \"Cloudy-Blockchain/contracts/NewCloudy.sol\":10215:10328  function updateRewardAmount(uint256 _newRewardAmount) external {... */\n    tag_39:\n        /* \"Cloudy-Blockchain/contracts/NewCloudy.sol\":10304:10320  _newRewardAmount */\n      dup1\n        /* \"Cloudy-Blockchain/contracts/NewCloudy.sol\":10289:10301  rewardAmount */\n      0x0a\n        /* \"Cloudy-Blockchain/contracts/NewCloudy.sol\":10289:10320  rewardAmount = _newRewardAmount */\n      dup2\n      swap1\n      sstore\n      pop\n        /* \"Cloudy-Blockchain/contracts/NewCloudy.sol\":10215:10328  function updateRewardAmount(uint256 _newRewardAmount) external {... */\n      pop\n      jump\t// out\n        /* \"Cloudy-Blockchain/contracts/NewCloudy.sol\":636:675  mapping(uint256 => Shard) public shards */\n    tag_42:\n      mstore(0x20, 0x00)\n      dup1\n      0x00\n      mstore\n      keccak256(0x00, 0x40)\n      0x00\n      swap2\n      pop\n      swap1\n      pop\n      dup1\n      0x00\n      add\n      sload\n      swap1\n      dup1\n      0x01\n      add\n      0x00\n      swap1\n      sload\n      swap1\n      0x0100\n      exp\n      swap1\n      div\n      0xffffffffffffffffffffffffffffffffffffffff\n      and\n      swap1\n      dup1\n      0x02\n      add\n      sload\n      swap1\n      dup1\n      0x03\n      add\n      dup1\n      sload\n      tag_152\n      swap1\n      tag_153\n      jump\t// in\n    tag_152:\n      dup1\n      0x1f\n      add\n      0x20\n      dup1\n      swap2\n      div\n      mul\n      0x20\n      add\n      mload(0x40)\n      swap1\n      dup2\n      add\n      0x40\n      mstore\n      dup1\n      swap3\n      swap2\n      swap1\n      dup2\n      dup2\n      mstore\n      0x20\n      add\n      dup3\n      dup1\n      sload\n      tag_154\n      swap1\n      tag_153\n      jump\t// in\n    tag_154:\n      dup1\n      iszero\n      tag_155\n      jumpi\n      dup1\n      0x1f\n      lt\n      tag_156\n      jumpi\n      0x0100\n      dup1\n      dup4\n      sload\n      div\n      mul\n      dup4\n      mstore\n      swap2\n      0x20\n      add\n      swap2\n      jump(tag_155)\n    tag_156:\n      dup3\n      add\n      swap2\n      swap1\n      0x00\n      mstore\n      keccak256(0x00, 0x20)\n      swap1\n    tag_157:\n      dup2\n      sload\n      dup2\n      mstore\n      swap1\n      0x01\n      add\n      swap1\n      0x20\n      add\n      dup1\n      dup4\n      gt\n      tag_157\n      jumpi\n      dup3\n      swap1\n      sub\n      0x1f\n      and\n      dup3\n      add\n      swap2\n    tag_155:\n      pop\n      pop\n      pop\n      pop\n      pop\n      swap1\n      dup1\n      0x04\n      add\n      0x00\n      swap1\n      sload\n      swap1\n      0x0100\n      exp\n      swap1\n      div\n      0xff\n      and\n      swap1\n      pop\n      dup6\n      jump\t// out\n        /* \"Cloudy-Blockchain/contracts/NewCloudy.sol\":12145:13235  function updateAvailableStorageSpace(address _storageProvider, uint256 _newAvailableSpace) external {... */\n    tag_48:\n        /* \"Cloudy-Blockchain/contracts/NewCloudy.sol\":12256:12288  StorageProvider storage provider */\n      0x00\n        /* \"Cloudy-Blockchain/contracts/NewCloudy.sol\":12291:12306  providerDetails */\n      0x03\n        /* \"Cloudy-Blockchain/contracts/NewCloudy.sol\":12291:12324  providerDetails[_storageProvider] */\n      0x00\n        /* \"Cloudy-Blockchain/contracts/NewCloudy.sol\":12307:12323  _storageProvider */\n      dup5\n        /* \"Cloudy-Blockchain/contracts/NewCloudy.sol\":12291:12324  providerDetails[_storageProvider] */\n      0xffffffffffffffffffffffffffffffffffffffff\n      and\n      0xffffffffffffffffffffffffffffffffffffffff\n      and\n      dup2\n      mstore\n      0x20\n      add\n      swap1\n      dup2\n      mstore\n      0x20\n      add\n      0x00\n      keccak256\n        /* \"Cloudy-Blockchain/contracts/NewCloudy.sol\":12256:12324  StorageProvider storage provider = providerDetails[_storageProvider] */\n      swap1\n      pop\n        /* \"Cloudy-Blockchain/contracts/NewCloudy.sol\":12368:12386  _newAvailableSpace */\n      dup2\n        /* \"Cloudy-Blockchain/contracts/NewCloudy.sol\":12335:12343  provider */\n      dup2\n        /* \"Cloudy-Blockchain/contracts/NewCloudy.sol\":12335:12365  provider.availableStorageSpace */\n      0x02\n      add\n        /* \"Cloudy-Blockchain/contracts/NewCloudy.sol\":12335:12386  provider.availableStorageSpace = _newAvailableSpace */\n      dup2\n      swap1\n      sstore\n      pop\n        /* \"Cloudy-Blockchain/contracts/NewCloudy.sol\":12432:12433  0 */\n      0x00\n        /* \"Cloudy-Blockchain/contracts/NewCloudy.sol\":12411:12429  _newAvailableSpace */\n      dup3\n        /* \"Cloudy-Blockchain/contracts/NewCloudy.sol\":12411:12433  _newAvailableSpace > 0 */\n      gt\n        /* \"Cloudy-Blockchain/contracts/NewCloudy.sol\":12407:13228  if (_newAvailableSpace > 0) {... */\n      iszero\n      tag_159\n      jumpi\n        /* \"Cloudy-Blockchain/contracts/NewCloudy.sol\":12450:12468  bool providerFound */\n      0x00\n        /* \"Cloudy-Blockchain/contracts/NewCloudy.sol\":12510:12519  uint256 i */\n      dup1\n        /* \"Cloudy-Blockchain/contracts/NewCloudy.sol\":12505:12733  for (uint256 i = 0; i < providersWithSpace.length; i++) {... */\n    tag_160:\n        /* \"Cloudy-Blockchain/contracts/NewCloudy.sol\":12529:12547  providersWithSpace */\n      0x07\n        /* \"Cloudy-Blockchain/contracts/NewCloudy.sol\":12529:12554  providersWithSpace.length */\n      dup1\n      sload\n      swap1\n      pop\n        /* \"Cloudy-Blockchain/contracts/NewCloudy.sol\":12525:12526  i */\n      dup2\n        /* \"Cloudy-Blockchain/contracts/NewCloudy.sol\":12525:12554  i < providersWithSpace.length */\n      lt\n        /* \"Cloudy-Blockchain/contracts/NewCloudy.sol\":12505:12733  for (uint256 i = 0; i < providersWithSpace.length; i++) {... */\n      iszero\n      tag_161\n      jumpi\n        /* \"Cloudy-Blockchain/contracts/NewCloudy.sol\":12609:12625  _storageProvider */\n      dup5\n        /* \"Cloudy-Blockchain/contracts/NewCloudy.sol\":12584:12625  providersWithSpace[i] == _storageProvider */\n      0xffffffffffffffffffffffffffffffffffffffff\n      and\n        /* \"Cloudy-Blockchain/contracts/NewCloudy.sol\":12584:12602  providersWithSpace */\n      0x07\n        /* \"Cloudy-Blockchain/contracts/NewCloudy.sol\":12603:12604  i */\n      dup3\n        /* \"Cloudy-Blockchain/contracts/NewCloudy.sol\":12584:12605  providersWithSpace[i] */\n      dup2\n      sload\n      dup2\n      lt\n      tag_163\n      jumpi\n      tag_164\n      tag_165\n      jump\t// in\n    tag_164:\n    tag_163:\n      swap1\n      0x00\n      mstore\n      keccak256(0x00, 0x20)\n      add\n      0x00\n      swap1\n      sload\n      swap1\n      0x0100\n      exp\n      swap1\n      div\n      0xffffffffffffffffffffffffffffffffffffffff\n      and\n        /* \"Cloudy-Blockchain/contracts/NewCloudy.sol\":12584:12625  providersWithSpace[i] == _storageProvider */\n      0xffffffffffffffffffffffffffffffffffffffff\n      and\n      sub\n        /* \"Cloudy-Blockchain/contracts/NewCloudy.sol\":12580:12718  if (providersWithSpace[i] == _storageProvider) {... */\n      tag_167\n      jumpi\n        /* \"Cloudy-Blockchain/contracts/NewCloudy.sol\":12666:12670  true */\n      0x01\n        /* \"Cloudy-Blockchain/contracts/NewCloudy.sol\":12650:12670  providerFound = true */\n      swap2\n      pop\n        /* \"Cloudy-Blockchain/contracts/NewCloudy.sol\":12693:12698  break */\n      jump(tag_161)\n        /* \"Cloudy-Blockchain/contracts/NewCloudy.sol\":12580:12718  if (providersWithSpace[i] == _storageProvider) {... */\n    tag_167:\n        /* \"Cloudy-Blockchain/contracts/NewCloudy.sol\":12556:12559  i++ */\n      dup1\n      dup1\n      tag_168\n      swap1\n      tag_169\n      jump\t// in\n    tag_168:\n      swap2\n      pop\n      pop\n        /* \"Cloudy-Blockchain/contracts/NewCloudy.sol\":12505:12733  for (uint256 i = 0; i < providersWithSpace.length; i++) {... */\n      jump(tag_160)\n    tag_161:\n      pop\n        /* \"Cloudy-Blockchain/contracts/NewCloudy.sol\":12766:12779  providerFound */\n      dup1\n        /* \"Cloudy-Blockchain/contracts/NewCloudy.sol\":12761:12857  if (!providerFound) {... */\n      tag_170\n      jumpi\n        /* \"Cloudy-Blockchain/contracts/NewCloudy.sol\":12800:12818  providersWithSpace */\n      0x07\n        /* \"Cloudy-Blockchain/contracts/NewCloudy.sol\":12824:12840  _storageProvider */\n      dup5\n        /* \"Cloudy-Blockchain/contracts/NewCloudy.sol\":12800:12841  providersWithSpace.push(_storageProvider) */\n      swap1\n      dup1\n      0x01\n      dup2\n      sload\n      add\n      dup1\n      dup3\n      sstore\n      dup1\n      swap2\n      pop\n      pop\n      0x01\n      swap1\n      sub\n      swap1\n      0x00\n      mstore\n      keccak256(0x00, 0x20)\n      add\n      0x00\n      swap1\n      swap2\n      swap1\n      swap2\n      swap1\n      swap2\n      0x0100\n      exp\n      dup2\n      sload\n      dup2\n      0xffffffffffffffffffffffffffffffffffffffff\n      mul\n      not\n      and\n      swap1\n      dup4\n      0xffffffffffffffffffffffffffffffffffffffff\n      and\n      mul\n      or\n      swap1\n      sstore\n      pop\n        /* \"Cloudy-Blockchain/contracts/NewCloudy.sol\":12761:12857  if (!providerFound) {... */\n    tag_170:\n        /* \"Cloudy-Blockchain/contracts/NewCloudy.sol\":12435:12868  {... */\n      pop\n        /* \"Cloudy-Blockchain/contracts/NewCloudy.sol\":12407:13228  if (_newAvailableSpace > 0) {... */\n      jump(tag_172)\n    tag_159:\n        /* \"Cloudy-Blockchain/contracts/NewCloudy.sol\":12894:12903  uint256 i */\n      0x00\n        /* \"Cloudy-Blockchain/contracts/NewCloudy.sol\":12889:13217  for (uint256 i = 0; i < providersWithSpace.length; i++) {... */\n    tag_173:\n        /* \"Cloudy-Blockchain/contracts/NewCloudy.sol\":12913:12931  providersWithSpace */\n      0x07\n        /* \"Cloudy-Blockchain/contracts/NewCloudy.sol\":12913:12938  providersWithSpace.length */\n      dup1\n      sload\n      swap1\n      pop\n        /* \"Cloudy-Blockchain/contracts/NewCloudy.sol\":12909:12910  i */\n      dup2\n        /* \"Cloudy-Blockchain/contracts/NewCloudy.sol\":12909:12938  i < providersWithSpace.length */\n      lt\n        /* \"Cloudy-Blockchain/contracts/NewCloudy.sol\":12889:13217  for (uint256 i = 0; i < providersWithSpace.length; i++) {... */\n      iszero\n      tag_174\n      jumpi\n        /* \"Cloudy-Blockchain/contracts/NewCloudy.sol\":12993:13009  _storageProvider */\n      dup4\n        /* \"Cloudy-Blockchain/contracts/NewCloudy.sol\":12968:13009  providersWithSpace[i] == _storageProvider */\n      0xffffffffffffffffffffffffffffffffffffffff\n      and\n        /* \"Cloudy-Blockchain/contracts/NewCloudy.sol\":12968:12986  providersWithSpace */\n      0x07\n        /* \"Cloudy-Blockchain/contracts/NewCloudy.sol\":12987:12988  i */\n      dup3\n        /* \"Cloudy-Blockchain/contracts/NewCloudy.sol\":12968:12989  providersWithSpace[i] */\n      dup2\n      sload\n      dup2\n      lt\n      tag_176\n      jumpi\n      tag_177\n      tag_165\n      jump\t// in\n    tag_177:\n    tag_176:\n      swap1\n      0x00\n      mstore\n      keccak256(0x00, 0x20)\n      add\n      0x00\n      swap1\n      sload\n      swap1\n      0x0100\n      exp\n      swap1\n      div\n      0xffffffffffffffffffffffffffffffffffffffff\n      and\n        /* \"Cloudy-Blockchain/contracts/NewCloudy.sol\":12968:13009  providersWithSpace[i] == _storageProvider */\n      0xffffffffffffffffffffffffffffffffffffffff\n      and\n      sub\n        /* \"Cloudy-Blockchain/contracts/NewCloudy.sol\":12964:13202  if (providersWithSpace[i] == _storageProvider) {... */\n      tag_179\n      jumpi\n        /* \"Cloudy-Blockchain/contracts/NewCloudy.sol\":13058:13076  providersWithSpace */\n      0x07\n        /* \"Cloudy-Blockchain/contracts/NewCloudy.sol\":13105:13106  1 */\n      0x01\n        /* \"Cloudy-Blockchain/contracts/NewCloudy.sol\":13077:13095  providersWithSpace */\n      0x07\n        /* \"Cloudy-Blockchain/contracts/NewCloudy.sol\":13077:13102  providersWithSpace.length */\n      dup1\n      sload\n      swap1\n      pop\n        /* \"Cloudy-Blockchain/contracts/NewCloudy.sol\":13077:13106  providersWithSpace.length - 1 */\n      tag_180\n      swap2\n      swap1\n      tag_181\n      jump\t// in\n    tag_180:\n        /* \"Cloudy-Blockchain/contracts/NewCloudy.sol\":13058:13107  providersWithSpace[providersWithSpace.length - 1] */\n      dup2\n      sload\n      dup2\n      lt\n      tag_182\n      jumpi\n      tag_183\n      tag_165\n      jump\t// in\n    tag_183:\n    tag_182:\n      swap1\n      0x00\n      mstore\n      keccak256(0x00, 0x20)\n      add\n      0x00\n      swap1\n      sload\n      swap1\n      0x0100\n      exp\n      swap1\n      div\n      0xffffffffffffffffffffffffffffffffffffffff\n      and\n        /* \"Cloudy-Blockchain/contracts/NewCloudy.sol\":13034:13052  providersWithSpace */\n      0x07\n        /* \"Cloudy-Blockchain/contracts/NewCloudy.sol\":13053:13054  i */\n      dup3\n        /* \"Cloudy-Blockchain/contracts/NewCloudy.sol\":13034:13055  providersWithSpace[i] */\n      dup2\n      sload\n      dup2\n      lt\n      tag_185\n      jumpi\n      tag_186\n      tag_165\n      jump\t// in\n    tag_186:\n    tag_185:\n      swap1\n      0x00\n      mstore\n      keccak256(0x00, 0x20)\n      add\n      0x00\n        /* \"Cloudy-Blockchain/contracts/NewCloudy.sol\":13034:13107  providersWithSpace[i] = providersWithSpace[providersWithSpace.length - 1] */\n      0x0100\n      exp\n      dup2\n      sload\n      dup2\n      0xffffffffffffffffffffffffffffffffffffffff\n      mul\n      not\n      and\n      swap1\n      dup4\n      0xffffffffffffffffffffffffffffffffffffffff\n      and\n      mul\n      or\n      swap1\n      sstore\n      pop\n        /* \"Cloudy-Blockchain/contracts/NewCloudy.sol\":13130:13148  providersWithSpace */\n      0x07\n        /* \"Cloudy-Blockchain/contracts/NewCloudy.sol\":13130:13154  providersWithSpace.pop() */\n      dup1\n      sload\n      dup1\n      tag_188\n      jumpi\n      tag_189\n      tag_190\n      jump\t// in\n    tag_189:\n    tag_188:\n      0x01\n      swap1\n      sub\n      dup2\n      dup2\n      swap1\n      0x00\n      mstore\n      keccak256(0x00, 0x20)\n      add\n      exp(0x0100, 0x00)\n      dup2\n      sload\n      swap1\n      0xffffffffffffffffffffffffffffffffffffffff\n      mul\n      not\n      and\n      swap1\n      sstore\n      swap1\n      sstore\n        /* \"Cloudy-Blockchain/contracts/NewCloudy.sol\":13177:13182  break */\n      jump(tag_174)\n        /* \"Cloudy-Blockchain/contracts/NewCloudy.sol\":12964:13202  if (providersWithSpace[i] == _storageProvider) {... */\n    tag_179:\n        /* \"Cloudy-Blockchain/contracts/NewCloudy.sol\":12940:12943  i++ */\n      dup1\n      dup1\n      tag_192\n      swap1\n      tag_169\n      jump\t// in\n    tag_192:\n      swap2\n      pop\n      pop\n        /* \"Cloudy-Blockchain/contracts/NewCloudy.sol\":12889:13217  for (uint256 i = 0; i < providersWithSpace.length; i++) {... */\n      jump(tag_173)\n    tag_174:\n      pop\n        /* \"Cloudy-Blockchain/contracts/NewCloudy.sol\":12407:13228  if (_newAvailableSpace > 0) {... */\n    tag_172:\n        /* \"Cloudy-Blockchain/contracts/NewCloudy.sol\":12245:13235  {... */\n      pop\n        /* \"Cloudy-Blockchain/contracts/NewCloudy.sol\":12145:13235  function updateAvailableStorageSpace(address _storageProvider, uint256 _newAvailableSpace) external {... */\n      pop\n      pop\n      jump\t// out\n        /* \"Cloudy-Blockchain/contracts/NewCloudy.sol\":8789:9250  function auditStorageProviders(uint256[] calldata _shardIds) external {... */\n    tag_52:\n        /* \"Cloudy-Blockchain/contracts/NewCloudy.sol\":8875:8884  uint256 i */\n      0x00\n        /* \"Cloudy-Blockchain/contracts/NewCloudy.sol\":8870:9243  for (uint256 i = 0; i < _shardIds.length; i++) {... */\n    tag_194:\n        /* \"Cloudy-Blockchain/contracts/NewCloudy.sol\":8894:8903  _shardIds */\n      dup3\n      dup3\n        /* \"Cloudy-Blockchain/contracts/NewCloudy.sol\":8894:8910  _shardIds.length */\n      swap1\n      pop\n        /* \"Cloudy-Blockchain/contracts/NewCloudy.sol\":8890:8891  i */\n      dup2\n        /* \"Cloudy-Blockchain/contracts/NewCloudy.sol\":8890:8910  i < _shardIds.length */\n      lt\n        /* \"Cloudy-Blockchain/contracts/NewCloudy.sol\":8870:9243  for (uint256 i = 0; i < _shardIds.length; i++) {... */\n      iszero\n      tag_195\n      jumpi\n        /* \"Cloudy-Blockchain/contracts/NewCloudy.sol\":8932:8947  uint256 shardId */\n      0x00\n        /* \"Cloudy-Blockchain/contracts/NewCloudy.sol\":8950:8959  _shardIds */\n      dup4\n      dup4\n        /* \"Cloudy-Blockchain/contracts/NewCloudy.sol\":8960:8961  i */\n      dup4\n        /* \"Cloudy-Blockchain/contracts/NewCloudy.sol\":8950:8962  _shardIds[i] */\n      dup2\n      dup2\n      lt\n      tag_197\n      jumpi\n      tag_198\n      tag_165\n      jump\t// in\n    tag_198:\n    tag_197:\n      swap1\n      pop\n      0x20\n      mul\n      add\n      calldataload\n        /* \"Cloudy-Blockchain/contracts/NewCloudy.sol\":8932:8962  uint256 shardId = _shardIds[i] */\n      swap1\n      pop\n        /* \"Cloudy-Blockchain/contracts/NewCloudy.sol\":8977:8996  Shard storage shard */\n      0x00\n        /* \"Cloudy-Blockchain/contracts/NewCloudy.sol\":8999:9005  shards */\n      dup1\n        /* \"Cloudy-Blockchain/contracts/NewCloudy.sol\":8999:9014  shards[shardId] */\n      0x00\n        /* \"Cloudy-Blockchain/contracts/NewCloudy.sol\":9006:9013  shardId */\n      dup4\n        /* \"Cloudy-Blockchain/contracts/NewCloudy.sol\":8999:9014  shards[shardId] */\n      dup2\n      mstore\n      0x20\n      add\n      swap1\n      dup2\n      mstore\n      0x20\n      add\n      0x00\n      keccak256\n        /* \"Cloudy-Blockchain/contracts/NewCloudy.sol\":8977:9014  Shard storage shard = shards[shardId] */\n      swap1\n      pop\n        /* \"Cloudy-Blockchain/contracts/NewCloudy.sol\":9029:9039  bool valid */\n      0x00\n        /* \"Cloudy-Blockchain/contracts/NewCloudy.sol\":9042:9064  isShardValid(shard.id) */\n      tag_199\n        /* \"Cloudy-Blockchain/contracts/NewCloudy.sol\":9055:9060  shard */\n      dup3\n        /* \"Cloudy-Blockchain/contracts/NewCloudy.sol\":9055:9063  shard.id */\n      0x00\n      add\n      sload\n        /* \"Cloudy-Blockchain/contracts/NewCloudy.sol\":9042:9054  isShardValid */\n      tag_200\n        /* \"Cloudy-Blockchain/contracts/NewCloudy.sol\":9042:9064  isShardValid(shard.id) */\n      jump\t// in\n    tag_199:\n        /* \"Cloudy-Blockchain/contracts/NewCloudy.sol\":9029:9064  bool valid = isShardValid(shard.id) */\n      swap1\n      pop\n        /* \"Cloudy-Blockchain/contracts/NewCloudy.sol\":9086:9137  ShardAudited(shardId, shard.storageProvider, valid) */\n      0xe2287538273600866181d00327199ba2737bdd326a6f08436f117f6a6c0e87a0\n        /* \"Cloudy-Blockchain/contracts/NewCloudy.sol\":9099:9106  shardId */\n      dup4\n        /* \"Cloudy-Blockchain/contracts/NewCloudy.sol\":9108:9113  shard */\n      dup4\n        /* \"Cloudy-Blockchain/contracts/NewCloudy.sol\":9108:9129  shard.storageProvider */\n      0x01\n      add\n      0x00\n      swap1\n      sload\n      swap1\n      0x0100\n      exp\n      swap1\n      div\n      0xffffffffffffffffffffffffffffffffffffffff\n      and\n        /* \"Cloudy-Blockchain/contracts/NewCloudy.sol\":9131:9136  valid */\n      dup4\n        /* \"Cloudy-Blockchain/contracts/NewCloudy.sol\":9086:9137  ShardAudited(shardId, shard.storageProvider, valid) */\n      mload(0x40)\n      tag_201\n      swap4\n      swap3\n      swap2\n      swap1\n      tag_202\n      jump\t// in\n    tag_201:\n      mload(0x40)\n      dup1\n      swap2\n      sub\n      swap1\n      log1\n        /* \"Cloudy-Blockchain/contracts/NewCloudy.sol\":9158:9163  valid */\n      dup1\n        /* \"Cloudy-Blockchain/contracts/NewCloudy.sol\":9154:9232  if (valid) {... */\n      iszero\n      tag_203\n      jumpi\n        /* \"Cloudy-Blockchain/contracts/NewCloudy.sol\":9184:9216  payReward(shard.storageProvider) */\n      tag_204\n        /* \"Cloudy-Blockchain/contracts/NewCloudy.sol\":9194:9199  shard */\n      dup3\n        /* \"Cloudy-Blockchain/contracts/NewCloudy.sol\":9194:9215  shard.storageProvider */\n      0x01\n      add\n      0x00\n      swap1\n      sload\n      swap1\n      0x0100\n      exp\n      swap1\n      div\n      0xffffffffffffffffffffffffffffffffffffffff\n      and\n        /* \"Cloudy-Blockchain/contracts/NewCloudy.sol\":9184:9193  payReward */\n      tag_205\n        /* \"Cloudy-Blockchain/contracts/NewCloudy.sol\":9184:9216  payReward(shard.storageProvider) */\n      jump\t// in\n    tag_204:\n        /* \"Cloudy-Blockchain/contracts/NewCloudy.sol\":9154:9232  if (valid) {... */\n    tag_203:\n        /* \"Cloudy-Blockchain/contracts/NewCloudy.sol\":8917:9243  {... */\n      pop\n      pop\n      pop\n        /* \"Cloudy-Blockchain/contracts/NewCloudy.sol\":8912:8915  i++ */\n      dup1\n      dup1\n      tag_206\n      swap1\n      tag_169\n      jump\t// in\n    tag_206:\n      swap2\n      pop\n      pop\n        /* \"Cloudy-Blockchain/contracts/NewCloudy.sol\":8870:9243  for (uint256 i = 0; i < _shardIds.length; i++) {... */\n      jump(tag_194)\n    tag_195:\n      pop\n        /* \"Cloudy-Blockchain/contracts/NewCloudy.sol\":8789:9250  function auditStorageProviders(uint256[] calldata _shardIds) external {... */\n      pop\n      pop\n      jump\t// out\n        /* \"Cloudy-Blockchain/contracts/NewCloudy.sol\":7611:8655  function assignStorageProvider(uint256 _shardId, address _storageProvider) external {... */\n    tag_56:\n        /* \"Cloudy-Blockchain/contracts/NewCloudy.sol\":7714:7720  shards */\n      0x00\n        /* \"Cloudy-Blockchain/contracts/NewCloudy.sol\":7714:7730  shards[_shardId] */\n      dup1\n        /* \"Cloudy-Blockchain/contracts/NewCloudy.sol\":7721:7729  _shardId */\n      dup4\n        /* \"Cloudy-Blockchain/contracts/NewCloudy.sol\":7714:7730  shards[_shardId] */\n      dup2\n      mstore\n      0x20\n      add\n      swap1\n      dup2\n      mstore\n      0x20\n      add\n      0x00\n      keccak256\n        /* \"Cloudy-Blockchain/contracts/NewCloudy.sol\":7714:7737  shards[_shardId].exists */\n      0x04\n      add\n      0x00\n      swap1\n      sload\n      swap1\n      0x0100\n      exp\n      swap1\n      div\n      0xff\n      and\n        /* \"Cloudy-Blockchain/contracts/NewCloudy.sol\":7706:7762  require(shards[_shardId].exists, \"Shard does not exist\") */\n      tag_208\n      jumpi\n      mload(0x40)\n      0x08c379a000000000000000000000000000000000000000000000000000000000\n      dup2\n      mstore\n      0x04\n      add\n      tag_209\n      swap1\n      tag_210\n      jump\t// in\n    tag_209:\n      mload(0x40)\n      dup1\n      swap2\n      sub\n      swap1\n      revert\n    tag_208:\n        /* \"Cloudy-Blockchain/contracts/NewCloudy.sol\":7781:7796  providerDetails */\n      0x03\n        /* \"Cloudy-Blockchain/contracts/NewCloudy.sol\":7781:7814  providerDetails[_storageProvider] */\n      0x00\n        /* \"Cloudy-Blockchain/contracts/NewCloudy.sol\":7797:7813  _storageProvider */\n      dup3\n        /* \"Cloudy-Blockchain/contracts/NewCloudy.sol\":7781:7814  providerDetails[_storageProvider] */\n      0xffffffffffffffffffffffffffffffffffffffff\n      and\n      0xffffffffffffffffffffffffffffffffffffffff\n      and\n      dup2\n      mstore\n      0x20\n      add\n      swap1\n      dup2\n      mstore\n      0x20\n      add\n      0x00\n      keccak256\n        /* \"Cloudy-Blockchain/contracts/NewCloudy.sol\":7781:7824  providerDetails[_storageProvider].isStoring */\n      0x04\n      add\n      0x00\n      swap1\n      sload\n      swap1\n      0x0100\n      exp\n      swap1\n      div\n      0xff\n      and\n        /* \"Cloudy-Blockchain/contracts/NewCloudy.sol\":7773:7860  require(providerDetails[_storageProvider].isStoring, \"Storage provider does not exist\") */\n      tag_211\n      jumpi\n      mload(0x40)\n      0x08c379a000000000000000000000000000000000000000000000000000000000\n      dup2\n      mstore\n      0x04\n      add\n      tag_212\n      swap1\n      tag_213\n      jump\t// in\n    tag_212:\n      mload(0x40)\n      dup1\n      swap2\n      sub\n      swap1\n      revert\n    tag_211:\n        /* \"Cloudy-Blockchain/contracts/NewCloudy.sol\":7873:7896  address currentProvider */\n      0x00\n        /* \"Cloudy-Blockchain/contracts/NewCloudy.sol\":7899:7905  shards */\n      dup1\n        /* \"Cloudy-Blockchain/contracts/NewCloudy.sol\":7899:7915  shards[_shardId] */\n      0x00\n        /* \"Cloudy-Blockchain/contracts/NewCloudy.sol\":7906:7914  _shardId */\n      dup5\n        /* \"Cloudy-Blockchain/contracts/NewCloudy.sol\":7899:7915  shards[_shardId] */\n      dup2\n      mstore\n      0x20\n      add\n      swap1\n      dup2\n      mstore\n      0x20\n      add\n      0x00\n      keccak256\n        /* \"Cloudy-Blockchain/contracts/NewCloudy.sol\":7899:7931  shards[_shardId].storageProvider */\n      0x01\n      add\n      0x00\n      swap1\n      sload\n      swap1\n      0x0100\n      exp\n      swap1\n      div\n      0xffffffffffffffffffffffffffffffffffffffff\n      and\n        /* \"Cloudy-Blockchain/contracts/NewCloudy.sol\":7873:7931  address currentProvider = shards[_shardId].storageProvider */\n      swap1\n      pop\n        /* \"Cloudy-Blockchain/contracts/NewCloudy.sol\":7965:7981  _storageProvider */\n      dup2\n        /* \"Cloudy-Blockchain/contracts/NewCloudy.sol\":7946:7981  currentProvider != _storageProvider */\n      0xffffffffffffffffffffffffffffffffffffffff\n      and\n        /* \"Cloudy-Blockchain/contracts/NewCloudy.sol\":7946:7961  currentProvider */\n      dup2\n        /* \"Cloudy-Blockchain/contracts/NewCloudy.sol\":7946:7981  currentProvider != _storageProvider */\n      0xffffffffffffffffffffffffffffffffffffffff\n      and\n      eq\n        /* \"Cloudy-Blockchain/contracts/NewCloudy.sol\":7942:8648  if (currentProvider != _storageProvider) {... */\n      tag_214\n      jumpi\n        /* \"Cloudy-Blockchain/contracts/NewCloudy.sol\":8064:8103  uint256[] storage currentProviderShards */\n      0x00\n        /* \"Cloudy-Blockchain/contracts/NewCloudy.sol\":8106:8122  storageProviders */\n      0x02\n        /* \"Cloudy-Blockchain/contracts/NewCloudy.sol\":8106:8139  storageProviders[currentProvider] */\n      0x00\n        /* \"Cloudy-Blockchain/contracts/NewCloudy.sol\":8123:8138  currentProvider */\n      dup4\n        /* \"Cloudy-Blockchain/contracts/NewCloudy.sol\":8106:8139  storageProviders[currentProvider] */\n      0xffffffffffffffffffffffffffffffffffffffff\n      and\n      0xffffffffffffffffffffffffffffffffffffffff\n      and\n      dup2\n      mstore\n      0x20\n      add\n      swap1\n      dup2\n      mstore\n      0x20\n      add\n      0x00\n      keccak256\n        /* \"Cloudy-Blockchain/contracts/NewCloudy.sol\":8064:8139  uint256[] storage currentProviderShards = storageProviders[currentProvider] */\n      swap1\n      pop\n        /* \"Cloudy-Blockchain/contracts/NewCloudy.sol\":8159:8168  uint256 i */\n      0x00\n        /* \"Cloudy-Blockchain/contracts/NewCloudy.sol\":8154:8391  for (uint256 i = 0; i < currentProviderShards.length; i++) {... */\n    tag_215:\n        /* \"Cloudy-Blockchain/contracts/NewCloudy.sol\":8178:8199  currentProviderShards */\n      dup2\n        /* \"Cloudy-Blockchain/contracts/NewCloudy.sol\":8178:8206  currentProviderShards.length */\n      dup1\n      sload\n      swap1\n      pop\n        /* \"Cloudy-Blockchain/contracts/NewCloudy.sol\":8174:8175  i */\n      dup2\n        /* \"Cloudy-Blockchain/contracts/NewCloudy.sol\":8174:8206  i < currentProviderShards.length */\n      lt\n        /* \"Cloudy-Blockchain/contracts/NewCloudy.sol\":8154:8391  for (uint256 i = 0; i < currentProviderShards.length; i++) {... */\n      iszero\n      tag_216\n      jumpi\n        /* \"Cloudy-Blockchain/contracts/NewCloudy.sol\":8264:8272  _shardId */\n      dup5\n        /* \"Cloudy-Blockchain/contracts/NewCloudy.sol\":8236:8257  currentProviderShards */\n      dup3\n        /* \"Cloudy-Blockchain/contracts/NewCloudy.sol\":8258:8259  i */\n      dup3\n        /* \"Cloudy-Blockchain/contracts/NewCloudy.sol\":8236:8260  currentProviderShards[i] */\n      dup2\n      sload\n      dup2\n      lt\n      tag_218\n      jumpi\n      tag_219\n      tag_165\n      jump\t// in\n    tag_219:\n    tag_218:\n      swap1\n      0x00\n      mstore\n      keccak256(0x00, 0x20)\n      add\n      sload\n        /* \"Cloudy-Blockchain/contracts/NewCloudy.sol\":8236:8272  currentProviderShards[i] == _shardId */\n      sub\n        /* \"Cloudy-Blockchain/contracts/NewCloudy.sol\":8232:8376  if (currentProviderShards[i] == _shardId) {... */\n      tag_221\n      jumpi\n        /* \"Cloudy-Blockchain/contracts/NewCloudy.sol\":8304:8325  currentProviderShards */\n      dup2\n        /* \"Cloudy-Blockchain/contracts/NewCloudy.sol\":8326:8327  i */\n      dup2\n        /* \"Cloudy-Blockchain/contracts/NewCloudy.sol\":8304:8328  currentProviderShards[i] */\n      dup2\n      sload\n      dup2\n      lt\n      tag_222\n      jumpi\n      tag_223\n      tag_165\n      jump\t// in\n    tag_223:\n    tag_222:\n      swap1\n      0x00\n      mstore\n      keccak256(0x00, 0x20)\n      add\n        /* \"Cloudy-Blockchain/contracts/NewCloudy.sol\":8297:8328  delete currentProviderShards[i] */\n      0x00\n      swap1\n      sstore\n        /* \"Cloudy-Blockchain/contracts/NewCloudy.sol\":8351:8356  break */\n      jump(tag_216)\n        /* \"Cloudy-Blockchain/contracts/NewCloudy.sol\":8232:8376  if (currentProviderShards[i] == _shardId) {... */\n    tag_221:\n        /* \"Cloudy-Blockchain/contracts/NewCloudy.sol\":8208:8211  i++ */\n      dup1\n      dup1\n      tag_225\n      swap1\n      tag_169\n      jump\t// in\n    tag_225:\n      swap2\n      pop\n      pop\n        /* \"Cloudy-Blockchain/contracts/NewCloudy.sol\":8154:8391  for (uint256 i = 0; i < currentProviderShards.length; i++) {... */\n      jump(tag_215)\n    tag_216:\n      pop\n        /* \"Cloudy-Blockchain/contracts/NewCloudy.sol\":8495:8511  _storageProvider */\n      dup3\n        /* \"Cloudy-Blockchain/contracts/NewCloudy.sol\":8460:8466  shards */\n      0x00\n        /* \"Cloudy-Blockchain/contracts/NewCloudy.sol\":8460:8476  shards[_shardId] */\n      dup1\n        /* \"Cloudy-Blockchain/contracts/NewCloudy.sol\":8467:8475  _shardId */\n      dup7\n        /* \"Cloudy-Blockchain/contracts/NewCloudy.sol\":8460:8476  shards[_shardId] */\n      dup2\n      mstore\n      0x20\n      add\n      swap1\n      dup2\n      mstore\n      0x20\n      add\n      0x00\n      keccak256\n        /* \"Cloudy-Blockchain/contracts/NewCloudy.sol\":8460:8492  shards[_shardId].storageProvider */\n      0x01\n      add\n      0x00\n        /* \"Cloudy-Blockchain/contracts/NewCloudy.sol\":8460:8511  shards[_shardId].storageProvider = _storageProvider */\n      0x0100\n      exp\n      dup2\n      sload\n      dup2\n      0xffffffffffffffffffffffffffffffffffffffff\n      mul\n      not\n      and\n      swap1\n      dup4\n      0xffffffffffffffffffffffffffffffffffffffff\n      and\n      mul\n      or\n      swap1\n      sstore\n      pop\n        /* \"Cloudy-Blockchain/contracts/NewCloudy.sol\":8526:8542  storageProviders */\n      0x02\n        /* \"Cloudy-Blockchain/contracts/NewCloudy.sol\":8526:8560  storageProviders[_storageProvider] */\n      0x00\n        /* \"Cloudy-Blockchain/contracts/NewCloudy.sol\":8543:8559  _storageProvider */\n      dup5\n        /* \"Cloudy-Blockchain/contracts/NewCloudy.sol\":8526:8560  storageProviders[_storageProvider] */\n      0xffffffffffffffffffffffffffffffffffffffff\n      and\n      0xffffffffffffffffffffffffffffffffffffffff\n      and\n      dup2\n      mstore\n      0x20\n      add\n      swap1\n      dup2\n      mstore\n      0x20\n      add\n      0x00\n      keccak256\n        /* \"Cloudy-Blockchain/contracts/NewCloudy.sol\":8566:8574  _shardId */\n      dup5\n        /* \"Cloudy-Blockchain/contracts/NewCloudy.sol\":8526:8575  storageProviders[_storageProvider].push(_shardId) */\n      swap1\n      dup1\n      0x01\n      dup2\n      sload\n      add\n      dup1\n      dup3\n      sstore\n      dup1\n      swap2\n      pop\n      pop\n      0x01\n      swap1\n      sub\n      swap1\n      0x00\n      mstore\n      keccak256(0x00, 0x20)\n      add\n      0x00\n      swap1\n      swap2\n      swap1\n      swap2\n      swap1\n      swap2\n      pop\n      sstore\n        /* \"Cloudy-Blockchain/contracts/NewCloudy.sol\":8597:8636  ShardStored(_shardId, _storageProvider) */\n      0x9126cbe7384024542fde94f05011d7713670628720b50555593f77cc21d1dc8c\n        /* \"Cloudy-Blockchain/contracts/NewCloudy.sol\":8609:8617  _shardId */\n      dup5\n        /* \"Cloudy-Blockchain/contracts/NewCloudy.sol\":8619:8635  _storageProvider */\n      dup5\n        /* \"Cloudy-Blockchain/contracts/NewCloudy.sol\":8597:8636  ShardStored(_shardId, _storageProvider) */\n      mload(0x40)\n      tag_227\n      swap3\n      swap2\n      swap1\n      tag_228\n      jump\t// in\n    tag_227:\n      mload(0x40)\n      dup1\n      swap2\n      sub\n      swap1\n      log1\n        /* \"Cloudy-Blockchain/contracts/NewCloudy.sol\":7983:8648  {... */\n      pop\n        /* \"Cloudy-Blockchain/contracts/NewCloudy.sol\":7942:8648  if (currentProvider != _storageProvider) {... */\n    tag_214:\n        /* \"Cloudy-Blockchain/contracts/NewCloudy.sol\":7695:8655  {... */\n      pop\n        /* \"Cloudy-Blockchain/contracts/NewCloudy.sol\":7611:8655  function assignStorageProvider(uint256 _shardId, address _storageProvider) external {... */\n      pop\n      pop\n      jump\t// out\n        /* \"Cloudy-Blockchain/contracts/NewCloudy.sol\":1560:1593  address[] public providersStoring */\n    tag_59:\n      0x08\n      dup2\n      dup2\n      sload\n      dup2\n      lt\n      tag_229\n      jumpi\n      0x00\n      dup1\n      revert\n    tag_229:\n      swap1\n      0x00\n      mstore\n      keccak256(0x00, 0x20)\n      add\n      0x00\n      swap2\n      pop\n      sload\n      swap1\n      0x0100\n      exp\n      swap1\n      div\n      0xffffffffffffffffffffffffffffffffffffffff\n      and\n      dup2\n      jump\t// out\n        /* \"Cloudy-Blockchain/contracts/NewCloudy.sol\":1405:1440  address[] public providersWithSpace */\n    tag_64:\n      0x07\n      dup2\n      dup2\n      sload\n      dup2\n      lt\n      tag_231\n      jumpi\n      0x00\n      dup1\n      revert\n    tag_231:\n      swap1\n      0x00\n      mstore\n      keccak256(0x00, 0x20)\n      add\n      0x00\n      swap2\n      pop\n      sload\n      swap1\n      0x0100\n      exp\n      swap1\n      div\n      0xffffffffffffffffffffffffffffffffffffffff\n      and\n      dup2\n      jump\t// out\n        /* \"Cloudy-Blockchain/contracts/NewCloudy.sol\":1699:1726  uint256 public shardCounter */\n    tag_67:\n      sload(0x09)\n      dup2\n      jump\t// out\n        /* \"Cloudy-Blockchain/contracts/NewCloudy.sol\":17105:17389  function getFileDetails(bytes32 _fileHash) external view returns (address, string memory, string memory, bytes32, uint256[] memory) {... */\n    tag_73:\n        /* \"Cloudy-Blockchain/contracts/NewCloudy.sol\":17171:17178  address */\n      0x00\n        /* \"Cloudy-Blockchain/contracts/NewCloudy.sol\":17180:17193  string memory */\n      0x60\n        /* \"Cloudy-Blockchain/contracts/NewCloudy.sol\":17195:17208  string memory */\n      dup1\n        /* \"Cloudy-Blockchain/contracts/NewCloudy.sol\":17210:17217  bytes32 */\n      0x00\n        /* \"Cloudy-Blockchain/contracts/NewCloudy.sol\":17219:17235  uint256[] memory */\n      0x60\n        /* \"Cloudy-Blockchain/contracts/NewCloudy.sol\":17248:17265  File storage file */\n      0x00\n        /* \"Cloudy-Blockchain/contracts/NewCloudy.sol\":17268:17279  filesByHash */\n      0x01\n        /* \"Cloudy-Blockchain/contracts/NewCloudy.sol\":17268:17290  filesByHash[_fileHash] */\n      0x00\n        /* \"Cloudy-Blockchain/contracts/NewCloudy.sol\":17280:17289  _fileHash */\n      dup9\n        /* \"Cloudy-Blockchain/contracts/NewCloudy.sol\":17268:17290  filesByHash[_fileHash] */\n      dup2\n      mstore\n      0x20\n      add\n      swap1\n      dup2\n      mstore\n      0x20\n      add\n      0x00\n      keccak256\n        /* \"Cloudy-Blockchain/contracts/NewCloudy.sol\":17248:17290  File storage file = filesByHash[_fileHash] */\n      swap1\n      pop\n        /* \"Cloudy-Blockchain/contracts/NewCloudy.sol\":17309:17313  file */\n      dup1\n        /* \"Cloudy-Blockchain/contracts/NewCloudy.sol\":17309:17319  file.owner */\n      0x00\n      add\n      0x00\n      swap1\n      sload\n      swap1\n      0x0100\n      exp\n      swap1\n      div\n      0xffffffffffffffffffffffffffffffffffffffff\n      and\n        /* \"Cloudy-Blockchain/contracts/NewCloudy.sol\":17321:17325  file */\n      dup2\n        /* \"Cloudy-Blockchain/contracts/NewCloudy.sol\":17321:17335  file.ownerName */\n      0x01\n      add\n        /* \"Cloudy-Blockchain/contracts/NewCloudy.sol\":17337:17341  file */\n      dup3\n        /* \"Cloudy-Blockchain/contracts/NewCloudy.sol\":17337:17350  file.fileName */\n      0x02\n      add\n        /* \"Cloudy-Blockchain/contracts/NewCloudy.sol\":17352:17356  file */\n      dup4\n        /* \"Cloudy-Blockchain/contracts/NewCloudy.sol\":17352:17365  file.fileHash */\n      0x03\n      add\n      sload\n        /* \"Cloudy-Blockchain/contracts/NewCloudy.sol\":17367:17371  file */\n      dup5\n        /* \"Cloudy-Blockchain/contracts/NewCloudy.sol\":17367:17380  file.shardIds */\n      0x04\n      add\n        /* \"Cloudy-Blockchain/contracts/NewCloudy.sol\":17301:17381  return (file.owner, file.ownerName, file.fileName, file.fileHash, file.shardIds) */\n      dup4\n      dup1\n      sload\n      tag_234\n      swap1\n      tag_153\n      jump\t// in\n    tag_234:\n      dup1\n      0x1f\n      add\n      0x20\n      dup1\n      swap2\n      div\n      mul\n      0x20\n      add\n      mload(0x40)\n      swap1\n      dup2\n      add\n      0x40\n      mstore\n      dup1\n      swap3\n      swap2\n      swap1\n      dup2\n      dup2\n      mstore\n      0x20\n      add\n      dup3\n      dup1\n      sload\n      tag_235\n      swap1\n      tag_153\n      jump\t// in\n    tag_235:\n      dup1\n      iszero\n      tag_236\n      jumpi\n      dup1\n      0x1f\n      lt\n      tag_237\n      jumpi\n      0x0100\n      dup1\n      dup4\n      sload\n      div\n      mul\n      dup4\n      mstore\n      swap2\n      0x20\n      add\n      swap2\n      jump(tag_236)\n    tag_237:\n      dup3\n      add\n      swap2\n      swap1\n      0x00\n      mstore\n      keccak256(0x00, 0x20)\n      swap1\n    tag_238:\n      dup2\n      sload\n      dup2\n      mstore\n      swap1\n      0x01\n      add\n      swap1\n      0x20\n      add\n      dup1\n      dup4\n      gt\n      tag_238\n      jumpi\n      dup3\n      swap1\n      sub\n      0x1f\n      and\n      dup3\n      add\n      swap2\n    tag_236:\n      pop\n      pop\n      pop\n      pop\n      pop\n      swap4\n      pop\n      dup3\n      dup1\n      sload\n      tag_239\n      swap1\n      tag_153\n      jump\t// in\n    tag_239:\n      dup1\n      0x1f\n      add\n      0x20\n      dup1\n      swap2\n      div\n      mul\n      0x20\n      add\n      mload(0x40)\n      swap1\n      dup2\n      add\n      0x40\n      mstore\n      dup1\n      swap3\n      swap2\n      swap1\n      dup2\n      dup2\n      mstore\n      0x20\n      add\n      dup3\n      dup1\n      sload\n      tag_240\n      swap1\n      tag_153\n      jump\t// in\n    tag_240:\n      dup1\n      iszero\n      tag_241\n      jumpi\n      dup1\n      0x1f\n      lt\n      tag_242\n      jumpi\n      0x0100\n      dup1\n      dup4\n      sload\n      div\n      mul\n      dup4\n      mstore\n      swap2\n      0x20\n      add\n      swap2\n      jump(tag_241)\n    tag_242:\n      dup3\n      add\n      swap2\n      swap1\n      0x00\n      mstore\n      keccak256(0x00, 0x20)\n      swap1\n    tag_243:\n      dup2\n      sload\n      dup2\n      mstore\n      swap1\n      0x01\n      add\n      swap1\n      0x20\n      add\n      dup1\n      dup4\n      gt\n      tag_243\n      jumpi\n      dup3\n      swap1\n      sub\n      0x1f\n      and\n      dup3\n      add\n      swap2\n    tag_241:\n      pop\n      pop\n      pop\n      pop\n      pop\n      swap3\n      pop\n      dup1\n      dup1\n      sload\n      dup1\n      0x20\n      mul\n      0x20\n      add\n      mload(0x40)\n      swap1\n      dup2\n      add\n      0x40\n      mstore\n      dup1\n      swap3\n      swap2\n      swap1\n      dup2\n      dup2\n      mstore\n      0x20\n      add\n      dup3\n      dup1\n      sload\n      dup1\n      iszero\n      tag_244\n      jumpi\n      0x20\n      mul\n      dup3\n      add\n      swap2\n      swap1\n      0x00\n      mstore\n      keccak256(0x00, 0x20)\n      swap1\n    tag_245:\n      dup2\n      sload\n      dup2\n      mstore\n      0x20\n      add\n      swap1\n      0x01\n      add\n      swap1\n      dup1\n      dup4\n      gt\n      tag_245\n      jumpi\n    tag_244:\n      pop\n      pop\n      pop\n      pop\n      pop\n      swap1\n      pop\n      swap6\n      pop\n      swap6\n      pop\n      swap6\n      pop\n      swap6\n      pop\n      swap6\n      pop\n      pop\n        /* \"Cloudy-Blockchain/contracts/NewCloudy.sol\":17105:17389  function getFileDetails(bytes32 _fileHash) external view returns (address, string memory, string memory, bytes32, uint256[] memory) {... */\n      swap2\n      swap4\n      swap6\n      swap1\n      swap3\n      swap5\n      pop\n      jump\t// out\n        /* \"Cloudy-Blockchain/contracts/NewCloudy.sol\":13294:14518  function deleteShard(bytes32 _fileHash, uint256 _shardId) external {... */\n    tag_79:\n        /* \"Cloudy-Blockchain/contracts/NewCloudy.sol\":13380:13391  filesByHash */\n      0x01\n        /* \"Cloudy-Blockchain/contracts/NewCloudy.sol\":13380:13402  filesByHash[_fileHash] */\n      0x00\n        /* \"Cloudy-Blockchain/contracts/NewCloudy.sol\":13392:13401  _fileHash */\n      dup4\n        /* \"Cloudy-Blockchain/contracts/NewCloudy.sol\":13380:13402  filesByHash[_fileHash] */\n      dup2\n      mstore\n      0x20\n      add\n      swap1\n      dup2\n      mstore\n      0x20\n      add\n      0x00\n      keccak256\n        /* \"Cloudy-Blockchain/contracts/NewCloudy.sol\":13380:13409  filesByHash[_fileHash].exists */\n      0x05\n      add\n      0x00\n      swap1\n      sload\n      swap1\n      0x0100\n      exp\n      swap1\n      div\n      0xff\n      and\n        /* \"Cloudy-Blockchain/contracts/NewCloudy.sol\":13372:13433  require(filesByHash[_fileHash].exists, \"File does not exist\") */\n      tag_247\n      jumpi\n      mload(0x40)\n      0x08c379a000000000000000000000000000000000000000000000000000000000\n      dup2\n      mstore\n      0x04\n      add\n      tag_248\n      swap1\n      tag_249\n      jump\t// in\n    tag_248:\n      mload(0x40)\n      dup1\n      swap2\n      sub\n      swap1\n      revert\n    tag_247:\n        /* \"Cloudy-Blockchain/contracts/NewCloudy.sol\":13452:13458  shards */\n      0x00\n        /* \"Cloudy-Blockchain/contracts/NewCloudy.sol\":13452:13468  shards[_shardId] */\n      dup1\n        /* \"Cloudy-Blockchain/contracts/NewCloudy.sol\":13459:13467  _shardId */\n      dup3\n        /* \"Cloudy-Blockchain/contracts/NewCloudy.sol\":13452:13468  shards[_shardId] */\n      dup2\n      mstore\n      0x20\n      add\n      swap1\n      dup2\n      mstore\n      0x20\n      add\n      0x00\n      keccak256\n        /* \"Cloudy-Blockchain/contracts/NewCloudy.sol\":13452:13475  shards[_shardId].exists */\n      0x04\n      add\n      0x00\n      swap1\n      sload\n      swap1\n      0x0100\n      exp\n      swap1\n      div\n      0xff\n      and\n        /* \"Cloudy-Blockchain/contracts/NewCloudy.sol\":13444:13500  require(shards[_shardId].exists, \"Shard does not exist\") */\n      tag_250\n      jumpi\n      mload(0x40)\n      0x08c379a000000000000000000000000000000000000000000000000000000000\n      dup2\n      mstore\n      0x04\n      add\n      tag_251\n      swap1\n      tag_210\n      jump\t// in\n    tag_251:\n      mload(0x40)\n      dup1\n      swap2\n      sub\n      swap1\n      revert\n    tag_250:\n        /* \"Cloudy-Blockchain/contracts/NewCloudy.sol\":13511:13528  File storage file */\n      0x00\n        /* \"Cloudy-Blockchain/contracts/NewCloudy.sol\":13531:13542  filesByHash */\n      0x01\n        /* \"Cloudy-Blockchain/contracts/NewCloudy.sol\":13531:13553  filesByHash[_fileHash] */\n      0x00\n        /* \"Cloudy-Blockchain/contracts/NewCloudy.sol\":13543:13552  _fileHash */\n      dup5\n        /* \"Cloudy-Blockchain/contracts/NewCloudy.sol\":13531:13553  filesByHash[_fileHash] */\n      dup2\n      mstore\n      0x20\n      add\n      swap1\n      dup2\n      mstore\n      0x20\n      add\n      0x00\n      keccak256\n        /* \"Cloudy-Blockchain/contracts/NewCloudy.sol\":13511:13553  File storage file = filesByHash[_fileHash] */\n      swap1\n      pop\n        /* \"Cloudy-Blockchain/contracts/NewCloudy.sol\":13564:13583  Shard storage shard */\n      0x00\n        /* \"Cloudy-Blockchain/contracts/NewCloudy.sol\":13586:13592  shards */\n      dup1\n        /* \"Cloudy-Blockchain/contracts/NewCloudy.sol\":13586:13602  shards[_shardId] */\n      0x00\n        /* \"Cloudy-Blockchain/contracts/NewCloudy.sol\":13593:13601  _shardId */\n      dup5\n        /* \"Cloudy-Blockchain/contracts/NewCloudy.sol\":13586:13602  shards[_shardId] */\n      dup2\n      mstore\n      0x20\n      add\n      swap1\n      dup2\n      mstore\n      0x20\n      add\n      0x00\n      keccak256\n        /* \"Cloudy-Blockchain/contracts/NewCloudy.sol\":13564:13602  Shard storage shard = shards[_shardId] */\n      swap1\n      pop\n        /* \"Cloudy-Blockchain/contracts/NewCloudy.sol\":13635:13640  shard */\n      dup1\n        /* \"Cloudy-Blockchain/contracts/NewCloudy.sol\":13635:13656  shard.storageProvider */\n      0x01\n      add\n      0x00\n      swap1\n      sload\n      swap1\n      0x0100\n      exp\n      swap1\n      div\n      0xffffffffffffffffffffffffffffffffffffffff\n      and\n        /* \"Cloudy-Blockchain/contracts/NewCloudy.sol\":13621:13656  msg.sender == shard.storageProvider */\n      0xffffffffffffffffffffffffffffffffffffffff\n      and\n        /* \"Cloudy-Blockchain/contracts/NewCloudy.sol\":13621:13631  msg.sender */\n      caller\n        /* \"Cloudy-Blockchain/contracts/NewCloudy.sol\":13621:13656  msg.sender == shard.storageProvider */\n      0xffffffffffffffffffffffffffffffffffffffff\n      and\n      eq\n        /* \"Cloudy-Blockchain/contracts/NewCloudy.sol\":13613:13707  require(msg.sender == shard.storageProvider, \"Only the storage provider can delete the shard\") */\n      tag_252\n      jumpi\n      mload(0x40)\n      0x08c379a000000000000000000000000000000000000000000000000000000000\n      dup2\n      mstore\n      0x04\n      add\n      tag_253\n      swap1\n      tag_254\n      jump\t// in\n    tag_253:\n      mload(0x40)\n      dup1\n      swap2\n      sub\n      swap1\n      revert\n    tag_252:\n        /* \"Cloudy-Blockchain/contracts/NewCloudy.sol\":13782:13814  uint256[] storage providerShards */\n      0x00\n        /* \"Cloudy-Blockchain/contracts/NewCloudy.sol\":13817:13833  storageProviders */\n      0x02\n        /* \"Cloudy-Blockchain/contracts/NewCloudy.sol\":13817:13856  storageProviders[shard.storageProvider] */\n      0x00\n        /* \"Cloudy-Blockchain/contracts/NewCloudy.sol\":13834:13839  shard */\n      dup4\n        /* \"Cloudy-Blockchain/contracts/NewCloudy.sol\":13834:13855  shard.storageProvider */\n      0x01\n      add\n      0x00\n      swap1\n      sload\n      swap1\n      0x0100\n      exp\n      swap1\n      div\n      0xffffffffffffffffffffffffffffffffffffffff\n      and\n        /* \"Cloudy-Blockchain/contracts/NewCloudy.sol\":13817:13856  storageProviders[shard.storageProvider] */\n      0xffffffffffffffffffffffffffffffffffffffff\n      and\n      0xffffffffffffffffffffffffffffffffffffffff\n      and\n      dup2\n      mstore\n      0x20\n      add\n      swap1\n      dup2\n      mstore\n      0x20\n      add\n      0x00\n      keccak256\n        /* \"Cloudy-Blockchain/contracts/NewCloudy.sol\":13782:13856  uint256[] storage providerShards = storageProviders[shard.storageProvider] */\n      swap1\n      pop\n        /* \"Cloudy-Blockchain/contracts/NewCloudy.sol\":13872:13881  uint256 i */\n      0x00\n        /* \"Cloudy-Blockchain/contracts/NewCloudy.sol\":13867:14063  for (uint256 i = 0; i < providerShards.length; i++) {... */\n    tag_255:\n        /* \"Cloudy-Blockchain/contracts/NewCloudy.sol\":13891:13905  providerShards */\n      dup2\n        /* \"Cloudy-Blockchain/contracts/NewCloudy.sol\":13891:13912  providerShards.length */\n      dup1\n      sload\n      swap1\n      pop\n        /* \"Cloudy-Blockchain/contracts/NewCloudy.sol\":13887:13888  i */\n      dup2\n        /* \"Cloudy-Blockchain/contracts/NewCloudy.sol\":13887:13912  i < providerShards.length */\n      lt\n        /* \"Cloudy-Blockchain/contracts/NewCloudy.sol\":13867:14063  for (uint256 i = 0; i < providerShards.length; i++) {... */\n      iszero\n      tag_256\n      jumpi\n        /* \"Cloudy-Blockchain/contracts/NewCloudy.sol\":13959:13967  _shardId */\n      dup5\n        /* \"Cloudy-Blockchain/contracts/NewCloudy.sol\":13938:13952  providerShards */\n      dup3\n        /* \"Cloudy-Blockchain/contracts/NewCloudy.sol\":13953:13954  i */\n      dup3\n        /* \"Cloudy-Blockchain/contracts/NewCloudy.sol\":13938:13955  providerShards[i] */\n      dup2\n      sload\n      dup2\n      lt\n      tag_258\n      jumpi\n      tag_259\n      tag_165\n      jump\t// in\n    tag_259:\n    tag_258:\n      swap1\n      0x00\n      mstore\n      keccak256(0x00, 0x20)\n      add\n      sload\n        /* \"Cloudy-Blockchain/contracts/NewCloudy.sol\":13938:13967  providerShards[i] == _shardId */\n      sub\n        /* \"Cloudy-Blockchain/contracts/NewCloudy.sol\":13934:14052  if (providerShards[i] == _shardId) {... */\n      tag_261\n      jumpi\n        /* \"Cloudy-Blockchain/contracts/NewCloudy.sol\":13995:14009  providerShards */\n      dup2\n        /* \"Cloudy-Blockchain/contracts/NewCloudy.sol\":14010:14011  i */\n      dup2\n        /* \"Cloudy-Blockchain/contracts/NewCloudy.sol\":13995:14012  providerShards[i] */\n      dup2\n      sload\n      dup2\n      lt\n      tag_262\n      jumpi\n      tag_263\n      tag_165\n      jump\t// in\n    tag_263:\n    tag_262:\n      swap1\n      0x00\n      mstore\n      keccak256(0x00, 0x20)\n      add\n        /* \"Cloudy-Blockchain/contracts/NewCloudy.sol\":13988:14012  delete providerShards[i] */\n      0x00\n      swap1\n      sstore\n        /* \"Cloudy-Blockchain/contracts/NewCloudy.sol\":14031:14036  break */\n      jump(tag_256)\n        /* \"Cloudy-Blockchain/contracts/NewCloudy.sol\":13934:14052  if (providerShards[i] == _shardId) {... */\n    tag_261:\n        /* \"Cloudy-Blockchain/contracts/NewCloudy.sol\":13914:13917  i++ */\n      dup1\n      dup1\n      tag_265\n      swap1\n      tag_169\n      jump\t// in\n    tag_265:\n      swap2\n      pop\n      pop\n        /* \"Cloudy-Blockchain/contracts/NewCloudy.sol\":13867:14063  for (uint256 i = 0; i < providerShards.length; i++) {... */\n      jump(tag_255)\n    tag_256:\n      pop\n        /* \"Cloudy-Blockchain/contracts/NewCloudy.sol\":14135:14165  uint256[] storage fileShardIds */\n      0x00\n        /* \"Cloudy-Blockchain/contracts/NewCloudy.sol\":14168:14172  file */\n      dup4\n        /* \"Cloudy-Blockchain/contracts/NewCloudy.sol\":14168:14181  file.shardIds */\n      0x04\n      add\n        /* \"Cloudy-Blockchain/contracts/NewCloudy.sol\":14135:14181  uint256[] storage fileShardIds = file.shardIds */\n      swap1\n      pop\n        /* \"Cloudy-Blockchain/contracts/NewCloudy.sol\":14197:14206  uint256 i */\n      0x00\n        /* \"Cloudy-Blockchain/contracts/NewCloudy.sol\":14192:14382  for (uint256 i = 0; i < fileShardIds.length; i++) {... */\n    tag_266:\n        /* \"Cloudy-Blockchain/contracts/NewCloudy.sol\":14216:14228  fileShardIds */\n      dup2\n        /* \"Cloudy-Blockchain/contracts/NewCloudy.sol\":14216:14235  fileShardIds.length */\n      dup1\n      sload\n      swap1\n      pop\n        /* \"Cloudy-Blockchain/contracts/NewCloudy.sol\":14212:14213  i */\n      dup2\n        /* \"Cloudy-Blockchain/contracts/NewCloudy.sol\":14212:14235  i < fileShardIds.length */\n      lt\n        /* \"Cloudy-Blockchain/contracts/NewCloudy.sol\":14192:14382  for (uint256 i = 0; i < fileShardIds.length; i++) {... */\n      iszero\n      tag_267\n      jumpi\n        /* \"Cloudy-Blockchain/contracts/NewCloudy.sol\":14280:14288  _shardId */\n      dup6\n        /* \"Cloudy-Blockchain/contracts/NewCloudy.sol\":14261:14273  fileShardIds */\n      dup3\n        /* \"Cloudy-Blockchain/contracts/NewCloudy.sol\":14274:14275  i */\n      dup3\n        /* \"Cloudy-Blockchain/contracts/NewCloudy.sol\":14261:14276  fileShardIds[i] */\n      dup2\n      sload\n      dup2\n      lt\n      tag_269\n      jumpi\n      tag_270\n      tag_165\n      jump\t// in\n    tag_270:\n    tag_269:\n      swap1\n      0x00\n      mstore\n      keccak256(0x00, 0x20)\n      add\n      sload\n        /* \"Cloudy-Blockchain/contracts/NewCloudy.sol\":14261:14288  fileShardIds[i] == _shardId */\n      sub\n        /* \"Cloudy-Blockchain/contracts/NewCloudy.sol\":14257:14371  if (fileShardIds[i] == _shardId) {... */\n      tag_272\n      jumpi\n        /* \"Cloudy-Blockchain/contracts/NewCloudy.sol\":14316:14328  fileShardIds */\n      dup2\n        /* \"Cloudy-Blockchain/contracts/NewCloudy.sol\":14329:14330  i */\n      dup2\n        /* \"Cloudy-Blockchain/contracts/NewCloudy.sol\":14316:14331  fileShardIds[i] */\n      dup2\n      sload\n      dup2\n      lt\n      tag_273\n      jumpi\n      tag_274\n      tag_165\n      jump\t// in\n    tag_274:\n    tag_273:\n      swap1\n      0x00\n      mstore\n      keccak256(0x00, 0x20)\n      add\n        /* \"Cloudy-Blockchain/contracts/NewCloudy.sol\":14309:14331  delete fileShardIds[i] */\n      0x00\n      swap1\n      sstore\n        /* \"Cloudy-Blockchain/contracts/NewCloudy.sol\":14350:14355  break */\n      jump(tag_267)\n        /* \"Cloudy-Blockchain/contracts/NewCloudy.sol\":14257:14371  if (fileShardIds[i] == _shardId) {... */\n    tag_272:\n        /* \"Cloudy-Blockchain/contracts/NewCloudy.sol\":14237:14240  i++ */\n      dup1\n      dup1\n      tag_276\n      swap1\n      tag_169\n      jump\t// in\n    tag_276:\n      swap2\n      pop\n      pop\n        /* \"Cloudy-Blockchain/contracts/NewCloudy.sol\":14192:14382  for (uint256 i = 0; i < fileShardIds.length; i++) {... */\n      jump(tag_266)\n    tag_267:\n      pop\n        /* \"Cloudy-Blockchain/contracts/NewCloudy.sol\":14454:14460  shards */\n      0x00\n        /* \"Cloudy-Blockchain/contracts/NewCloudy.sol\":14454:14470  shards[_shardId] */\n      dup1\n        /* \"Cloudy-Blockchain/contracts/NewCloudy.sol\":14461:14469  _shardId */\n      dup7\n        /* \"Cloudy-Blockchain/contracts/NewCloudy.sol\":14454:14470  shards[_shardId] */\n      dup2\n      mstore\n      0x20\n      add\n      swap1\n      dup2\n      mstore\n      0x20\n      add\n      0x00\n      keccak256\n      0x00\n        /* \"Cloudy-Blockchain/contracts/NewCloudy.sol\":14447:14470  delete shards[_shardId] */\n      dup1\n      dup3\n      add\n      0x00\n      swap1\n      sstore\n      0x01\n      dup3\n      add\n      exp(0x0100, 0x00)\n      dup2\n      sload\n      swap1\n      0xffffffffffffffffffffffffffffffffffffffff\n      mul\n      not\n      and\n      swap1\n      sstore\n      0x02\n      dup3\n      add\n      0x00\n      swap1\n      sstore\n      0x03\n      dup3\n      add\n      0x00\n      tag_277\n      swap2\n      swap1\n      tag_278\n      jump\t// in\n    tag_277:\n      0x04\n      dup3\n      add\n      exp(0x0100, 0x00)\n      dup2\n      sload\n      swap1\n      0xff\n      mul\n      not\n      and\n      swap1\n      sstore\n      pop\n      pop\n        /* \"Cloudy-Blockchain/contracts/NewCloudy.sol\":14488:14510  ShardDeleted(_shardId) */\n      0xf6a2d10319800c3ecf3244c17904ea5f3026e430b4417ee5ec5baa464e8f9b0c\n        /* \"Cloudy-Blockchain/contracts/NewCloudy.sol\":14501:14509  _shardId */\n      dup6\n        /* \"Cloudy-Blockchain/contracts/NewCloudy.sol\":14488:14510  ShardDeleted(_shardId) */\n      mload(0x40)\n      tag_279\n      swap2\n      swap1\n      tag_69\n      jump\t// in\n    tag_279:\n      mload(0x40)\n      dup1\n      swap2\n      sub\n      swap1\n      log1\n        /* \"Cloudy-Blockchain/contracts/NewCloudy.sol\":13361:14518  {... */\n      pop\n      pop\n      pop\n      pop\n        /* \"Cloudy-Blockchain/contracts/NewCloudy.sol\":13294:14518  function deleteShard(bytes32 _fileHash, uint256 _shardId) external {... */\n      pop\n      pop\n      jump\t// out\n        /* \"Cloudy-Blockchain/contracts/NewCloudy.sol\":5664:7548  function deleteFile(bytes32 _fileHash) external {... */\n    tag_82:\n        /* \"Cloudy-Blockchain/contracts/NewCloudy.sol\":5731:5742  filesByHash */\n      0x01\n        /* \"Cloudy-Blockchain/contracts/NewCloudy.sol\":5731:5753  filesByHash[_fileHash] */\n      0x00\n        /* \"Cloudy-Blockchain/contracts/NewCloudy.sol\":5743:5752  _fileHash */\n      dup3\n        /* \"Cloudy-Blockchain/contracts/NewCloudy.sol\":5731:5753  filesByHash[_fileHash] */\n      dup2\n      mstore\n      0x20\n      add\n      swap1\n      dup2\n      mstore\n      0x20\n      add\n      0x00\n      keccak256\n        /* \"Cloudy-Blockchain/contracts/NewCloudy.sol\":5731:5760  filesByHash[_fileHash].exists */\n      0x05\n      add\n      0x00\n      swap1\n      sload\n      swap1\n      0x0100\n      exp\n      swap1\n      div\n      0xff\n      and\n        /* \"Cloudy-Blockchain/contracts/NewCloudy.sol\":5723:5784  require(filesByHash[_fileHash].exists, \"File does not exist\") */\n      tag_281\n      jumpi\n      mload(0x40)\n      0x08c379a000000000000000000000000000000000000000000000000000000000\n      dup2\n      mstore\n      0x04\n      add\n      tag_282\n      swap1\n      tag_249\n      jump\t// in\n    tag_282:\n      mload(0x40)\n      dup1\n      swap2\n      sub\n      swap1\n      revert\n    tag_281:\n        /* \"Cloudy-Blockchain/contracts/NewCloudy.sol\":5795:5820  File storage fileToDelete */\n      0x00\n        /* \"Cloudy-Blockchain/contracts/NewCloudy.sol\":5823:5834  filesByHash */\n      0x01\n        /* \"Cloudy-Blockchain/contracts/NewCloudy.sol\":5823:5845  filesByHash[_fileHash] */\n      0x00\n        /* \"Cloudy-Blockchain/contracts/NewCloudy.sol\":5835:5844  _fileHash */\n      dup4\n        /* \"Cloudy-Blockchain/contracts/NewCloudy.sol\":5823:5845  filesByHash[_fileHash] */\n      dup2\n      mstore\n      0x20\n      add\n      swap1\n      dup2\n      mstore\n      0x20\n      add\n      0x00\n      keccak256\n        /* \"Cloudy-Blockchain/contracts/NewCloudy.sol\":5795:5845  File storage fileToDelete = filesByHash[_fileHash] */\n      swap1\n      pop\n        /* \"Cloudy-Blockchain/contracts/NewCloudy.sol\":5878:5890  fileToDelete */\n      dup1\n        /* \"Cloudy-Blockchain/contracts/NewCloudy.sol\":5878:5896  fileToDelete.owner */\n      0x00\n      add\n      0x00\n      swap1\n      sload\n      swap1\n      0x0100\n      exp\n      swap1\n      div\n      0xffffffffffffffffffffffffffffffffffffffff\n      and\n        /* \"Cloudy-Blockchain/contracts/NewCloudy.sol\":5864:5896  msg.sender == fileToDelete.owner */\n      0xffffffffffffffffffffffffffffffffffffffff\n      and\n        /* \"Cloudy-Blockchain/contracts/NewCloudy.sol\":5864:5874  msg.sender */\n      caller\n        /* \"Cloudy-Blockchain/contracts/NewCloudy.sol\":5864:5896  msg.sender == fileToDelete.owner */\n      0xffffffffffffffffffffffffffffffffffffffff\n      and\n      eq\n        /* \"Cloudy-Blockchain/contracts/NewCloudy.sol\":5856:5940  require(msg.sender == fileToDelete.owner, \"Only the file owner can delete the file\") */\n      tag_283\n      jumpi\n      mload(0x40)\n      0x08c379a000000000000000000000000000000000000000000000000000000000\n      dup2\n      mstore\n      0x04\n      add\n      tag_284\n      swap1\n      tag_285\n      jump\t// in\n    tag_284:\n      mload(0x40)\n      dup1\n      swap2\n      sub\n      swap1\n      revert\n    tag_283:\n        /* \"Cloudy-Blockchain/contracts/NewCloudy.sol\":6005:6038  bytes32[] storage ownerFileHashes */\n      0x00\n        /* \"Cloudy-Blockchain/contracts/NewCloudy.sol\":6041:6051  ownerFiles */\n      0x04\n        /* \"Cloudy-Blockchain/contracts/NewCloudy.sol\":6041:6071  ownerFiles[fileToDelete.owner] */\n      0x00\n        /* \"Cloudy-Blockchain/contracts/NewCloudy.sol\":6052:6064  fileToDelete */\n      dup4\n        /* \"Cloudy-Blockchain/contracts/NewCloudy.sol\":6052:6070  fileToDelete.owner */\n      0x00\n      add\n      0x00\n      swap1\n      sload\n      swap1\n      0x0100\n      exp\n      swap1\n      div\n      0xffffffffffffffffffffffffffffffffffffffff\n      and\n        /* \"Cloudy-Blockchain/contracts/NewCloudy.sol\":6041:6071  ownerFiles[fileToDelete.owner] */\n      0xffffffffffffffffffffffffffffffffffffffff\n      and\n      0xffffffffffffffffffffffffffffffffffffffff\n      and\n      dup2\n      mstore\n      0x20\n      add\n      swap1\n      dup2\n      mstore\n      0x20\n      add\n      0x00\n      keccak256\n        /* \"Cloudy-Blockchain/contracts/NewCloudy.sol\":6005:6071  bytes32[] storage ownerFileHashes = ownerFiles[fileToDelete.owner] */\n      swap1\n      pop\n        /* \"Cloudy-Blockchain/contracts/NewCloudy.sol\":6087:6096  uint256 i */\n      0x00\n        /* \"Cloudy-Blockchain/contracts/NewCloudy.sol\":6082:6282  for (uint256 i = 0; i < ownerFileHashes.length; i++) {... */\n    tag_286:\n        /* \"Cloudy-Blockchain/contracts/NewCloudy.sol\":6106:6121  ownerFileHashes */\n      dup2\n        /* \"Cloudy-Blockchain/contracts/NewCloudy.sol\":6106:6128  ownerFileHashes.length */\n      dup1\n      sload\n      swap1\n      pop\n        /* \"Cloudy-Blockchain/contracts/NewCloudy.sol\":6102:6103  i */\n      dup2\n        /* \"Cloudy-Blockchain/contracts/NewCloudy.sol\":6102:6128  i < ownerFileHashes.length */\n      lt\n        /* \"Cloudy-Blockchain/contracts/NewCloudy.sol\":6082:6282  for (uint256 i = 0; i < ownerFileHashes.length; i++) {... */\n      iszero\n      tag_287\n      jumpi\n        /* \"Cloudy-Blockchain/contracts/NewCloudy.sol\":6176:6185  _fileHash */\n      dup4\n        /* \"Cloudy-Blockchain/contracts/NewCloudy.sol\":6154:6169  ownerFileHashes */\n      dup3\n        /* \"Cloudy-Blockchain/contracts/NewCloudy.sol\":6170:6171  i */\n      dup3\n        /* \"Cloudy-Blockchain/contracts/NewCloudy.sol\":6154:6172  ownerFileHashes[i] */\n      dup2\n      sload\n      dup2\n      lt\n      tag_289\n      jumpi\n      tag_290\n      tag_165\n      jump\t// in\n    tag_290:\n    tag_289:\n      swap1\n      0x00\n      mstore\n      keccak256(0x00, 0x20)\n      add\n      sload\n        /* \"Cloudy-Blockchain/contracts/NewCloudy.sol\":6154:6185  ownerFileHashes[i] == _fileHash */\n      sub\n        /* \"Cloudy-Blockchain/contracts/NewCloudy.sol\":6150:6271  if (ownerFileHashes[i] == _fileHash) {... */\n      tag_292\n      jumpi\n        /* \"Cloudy-Blockchain/contracts/NewCloudy.sol\":6213:6228  ownerFileHashes */\n      dup2\n        /* \"Cloudy-Blockchain/contracts/NewCloudy.sol\":6229:6230  i */\n      dup2\n        /* \"Cloudy-Blockchain/contracts/NewCloudy.sol\":6213:6231  ownerFileHashes[i] */\n      dup2\n      sload\n      dup2\n      lt\n      tag_293\n      jumpi\n      tag_294\n      tag_165\n      jump\t// in\n    tag_294:\n    tag_293:\n      swap1\n      0x00\n      mstore\n      keccak256(0x00, 0x20)\n      add\n        /* \"Cloudy-Blockchain/contracts/NewCloudy.sol\":6206:6231  delete ownerFileHashes[i] */\n      0x00\n      swap1\n      sstore\n        /* \"Cloudy-Blockchain/contracts/NewCloudy.sol\":6250:6255  break */\n      jump(tag_287)\n        /* \"Cloudy-Blockchain/contracts/NewCloudy.sol\":6150:6271  if (ownerFileHashes[i] == _fileHash) {... */\n    tag_292:\n        /* \"Cloudy-Blockchain/contracts/NewCloudy.sol\":6130:6133  i++ */\n      dup1\n      dup1\n      tag_296\n      swap1\n      tag_169\n      jump\t// in\n    tag_296:\n      swap2\n      pop\n      pop\n        /* \"Cloudy-Blockchain/contracts/NewCloudy.sol\":6082:6282  for (uint256 i = 0; i < ownerFileHashes.length; i++) {... */\n      jump(tag_286)\n    tag_287:\n      pop\n        /* \"Cloudy-Blockchain/contracts/NewCloudy.sol\":6354:6365  filesByHash */\n      0x01\n        /* \"Cloudy-Blockchain/contracts/NewCloudy.sol\":6354:6376  filesByHash[_fileHash] */\n      0x00\n        /* \"Cloudy-Blockchain/contracts/NewCloudy.sol\":6366:6375  _fileHash */\n      dup5\n        /* \"Cloudy-Blockchain/contracts/NewCloudy.sol\":6354:6376  filesByHash[_fileHash] */\n      dup2\n      mstore\n      0x20\n      add\n      swap1\n      dup2\n      mstore\n      0x20\n      add\n      0x00\n      keccak256\n      0x00\n        /* \"Cloudy-Blockchain/contracts/NewCloudy.sol\":6347:6376  delete filesByHash[_fileHash] */\n      dup1\n      dup3\n      add\n      exp(0x0100, 0x00)\n      dup2\n      sload\n      swap1\n      0xffffffffffffffffffffffffffffffffffffffff\n      mul\n      not\n      and\n      swap1\n      sstore\n      0x01\n      dup3\n      add\n      0x00\n      tag_297\n      swap2\n      swap1\n      tag_298\n      jump\t// in\n    tag_297:\n      0x02\n      dup3\n      add\n      0x00\n      tag_299\n      swap2\n      swap1\n      tag_298\n      jump\t// in\n    tag_299:\n      0x03\n      dup3\n      add\n      0x00\n      swap1\n      sstore\n      0x04\n      dup3\n      add\n      0x00\n      tag_300\n      swap2\n      swap1\n      tag_301\n      jump\t// in\n    tag_300:\n      0x05\n      dup3\n      add\n      exp(0x0100, 0x00)\n      dup2\n      sload\n      swap1\n      0xff\n      mul\n      not\n      and\n      swap1\n      sstore\n      pop\n      pop\n        /* \"Cloudy-Blockchain/contracts/NewCloudy.sol\":6448:6474  uint256[] storage shardIds */\n      0x00\n        /* \"Cloudy-Blockchain/contracts/NewCloudy.sol\":6477:6489  fileToDelete */\n      dup3\n        /* \"Cloudy-Blockchain/contracts/NewCloudy.sol\":6477:6498  fileToDelete.shardIds */\n      0x04\n      add\n        /* \"Cloudy-Blockchain/contracts/NewCloudy.sol\":6448:6498  uint256[] storage shardIds = fileToDelete.shardIds */\n      swap1\n      pop\n        /* \"Cloudy-Blockchain/contracts/NewCloudy.sol\":6514:6523  uint256 i */\n      0x00\n        /* \"Cloudy-Blockchain/contracts/NewCloudy.sol\":6509:7501  for (uint256 i = 0; i < shardIds.length; i++) {... */\n    tag_302:\n        /* \"Cloudy-Blockchain/contracts/NewCloudy.sol\":6533:6541  shardIds */\n      dup2\n        /* \"Cloudy-Blockchain/contracts/NewCloudy.sol\":6533:6548  shardIds.length */\n      dup1\n      sload\n      swap1\n      pop\n        /* \"Cloudy-Blockchain/contracts/NewCloudy.sol\":6529:6530  i */\n      dup2\n        /* \"Cloudy-Blockchain/contracts/NewCloudy.sol\":6529:6548  i < shardIds.length */\n      lt\n        /* \"Cloudy-Blockchain/contracts/NewCloudy.sol\":6509:7501  for (uint256 i = 0; i < shardIds.length; i++) {... */\n      iszero\n      tag_303\n      jumpi\n        /* \"Cloudy-Blockchain/contracts/NewCloudy.sol\":6570:6585  uint256 shardId */\n      0x00\n        /* \"Cloudy-Blockchain/contracts/NewCloudy.sol\":6588:6596  shardIds */\n      dup3\n        /* \"Cloudy-Blockchain/contracts/NewCloudy.sol\":6597:6598  i */\n      dup3\n        /* \"Cloudy-Blockchain/contracts/NewCloudy.sol\":6588:6599  shardIds[i] */\n      dup2\n      sload\n      dup2\n      lt\n      tag_305\n      jumpi\n      tag_306\n      tag_165\n      jump\t// in\n    tag_306:\n    tag_305:\n      swap1\n      0x00\n      mstore\n      keccak256(0x00, 0x20)\n      add\n      sload\n        /* \"Cloudy-Blockchain/contracts/NewCloudy.sol\":6570:6599  uint256 shardId = shardIds[i] */\n      swap1\n      pop\n        /* \"Cloudy-Blockchain/contracts/NewCloudy.sol\":6676:6682  shards */\n      0x00\n        /* \"Cloudy-Blockchain/contracts/NewCloudy.sol\":6676:6691  shards[shardId] */\n      dup1\n        /* \"Cloudy-Blockchain/contracts/NewCloudy.sol\":6683:6690  shardId */\n      dup3\n        /* \"Cloudy-Blockchain/contracts/NewCloudy.sol\":6676:6691  shards[shardId] */\n      dup2\n      mstore\n      0x20\n      add\n      swap1\n      dup2\n      mstore\n      0x20\n      add\n      0x00\n      keccak256\n      0x00\n        /* \"Cloudy-Blockchain/contracts/NewCloudy.sol\":6669:6691  delete shards[shardId] */\n      dup1\n      dup3\n      add\n      0x00\n      swap1\n      sstore\n      0x01\n      dup3\n      add\n      exp(0x0100, 0x00)\n      dup2\n      sload\n      swap1\n      0xffffffffffffffffffffffffffffffffffffffff\n      mul\n      not\n      and\n      swap1\n      sstore\n      0x02\n      dup3\n      add\n      0x00\n      swap1\n      sstore\n      0x03\n      dup3\n      add\n      0x00\n      tag_308\n      swap2\n      swap1\n      tag_278\n      jump\t// in\n    tag_308:\n      0x04\n      dup3\n      add\n      exp(0x0100, 0x00)\n      dup2\n      sload\n      swap1\n      0xff\n      mul\n      not\n      and\n      swap1\n      sstore\n      pop\n      pop\n        /* \"Cloudy-Blockchain/contracts/NewCloudy.sol\":6771:6794  address storageProvider */\n      0x00\n        /* \"Cloudy-Blockchain/contracts/NewCloudy.sol\":6797:6803  shards */\n      dup1\n        /* \"Cloudy-Blockchain/contracts/NewCloudy.sol\":6797:6812  shards[shardId] */\n      0x00\n        /* \"Cloudy-Blockchain/contracts/NewCloudy.sol\":6804:6811  shardId */\n      dup4\n        /* \"Cloudy-Blockchain/contracts/NewCloudy.sol\":6797:6812  shards[shardId] */\n      dup2\n      mstore\n      0x20\n      add\n      swap1\n      dup2\n      mstore\n      0x20\n      add\n      0x00\n      keccak256\n        /* \"Cloudy-Blockchain/contracts/NewCloudy.sol\":6797:6828  shards[shardId].storageProvider */\n      0x01\n      add\n      0x00\n      swap1\n      sload\n      swap1\n      0x0100\n      exp\n      swap1\n      div\n      0xffffffffffffffffffffffffffffffffffffffff\n      and\n        /* \"Cloudy-Blockchain/contracts/NewCloudy.sol\":6771:6828  address storageProvider = shards[shardId].storageProvider */\n      swap1\n      pop\n        /* \"Cloudy-Blockchain/contracts/NewCloudy.sol\":6843:6875  uint256[] storage providerShards */\n      0x00\n        /* \"Cloudy-Blockchain/contracts/NewCloudy.sol\":6878:6894  storageProviders */\n      0x02\n        /* \"Cloudy-Blockchain/contracts/NewCloudy.sol\":6878:6911  storageProviders[storageProvider] */\n      0x00\n        /* \"Cloudy-Blockchain/contracts/NewCloudy.sol\":6895:6910  storageProvider */\n      dup4\n        /* \"Cloudy-Blockchain/contracts/NewCloudy.sol\":6878:6911  storageProviders[storageProvider] */\n      0xffffffffffffffffffffffffffffffffffffffff\n      and\n      0xffffffffffffffffffffffffffffffffffffffff\n      and\n      dup2\n      mstore\n      0x20\n      add\n      swap1\n      dup2\n      mstore\n      0x20\n      add\n      0x00\n      keccak256\n        /* \"Cloudy-Blockchain/contracts/NewCloudy.sol\":6843:6911  uint256[] storage providerShards = storageProviders[storageProvider] */\n      swap1\n      pop\n        /* \"Cloudy-Blockchain/contracts/NewCloudy.sol\":6931:6940  uint256 j */\n      0x00\n        /* \"Cloudy-Blockchain/contracts/NewCloudy.sol\":6926:7141  for (uint256 j = 0; j < providerShards.length; j++) {... */\n    tag_309:\n        /* \"Cloudy-Blockchain/contracts/NewCloudy.sol\":6950:6964  providerShards */\n      dup2\n        /* \"Cloudy-Blockchain/contracts/NewCloudy.sol\":6950:6971  providerShards.length */\n      dup1\n      sload\n      swap1\n      pop\n        /* \"Cloudy-Blockchain/contracts/NewCloudy.sol\":6946:6947  j */\n      dup2\n        /* \"Cloudy-Blockchain/contracts/NewCloudy.sol\":6946:6971  j < providerShards.length */\n      lt\n        /* \"Cloudy-Blockchain/contracts/NewCloudy.sol\":6926:7141  for (uint256 j = 0; j < providerShards.length; j++) {... */\n      iszero\n      tag_310\n      jumpi\n        /* \"Cloudy-Blockchain/contracts/NewCloudy.sol\":7022:7029  shardId */\n      dup4\n        /* \"Cloudy-Blockchain/contracts/NewCloudy.sol\":7001:7015  providerShards */\n      dup3\n        /* \"Cloudy-Blockchain/contracts/NewCloudy.sol\":7016:7017  j */\n      dup3\n        /* \"Cloudy-Blockchain/contracts/NewCloudy.sol\":7001:7018  providerShards[j] */\n      dup2\n      sload\n      dup2\n      lt\n      tag_312\n      jumpi\n      tag_313\n      tag_165\n      jump\t// in\n    tag_313:\n    tag_312:\n      swap1\n      0x00\n      mstore\n      keccak256(0x00, 0x20)\n      add\n      sload\n        /* \"Cloudy-Blockchain/contracts/NewCloudy.sol\":7001:7029  providerShards[j] == shardId */\n      sub\n        /* \"Cloudy-Blockchain/contracts/NewCloudy.sol\":6997:7126  if (providerShards[j] == shardId) {... */\n      tag_315\n      jumpi\n        /* \"Cloudy-Blockchain/contracts/NewCloudy.sol\":7061:7075  providerShards */\n      dup2\n        /* \"Cloudy-Blockchain/contracts/NewCloudy.sol\":7076:7077  j */\n      dup2\n        /* \"Cloudy-Blockchain/contracts/NewCloudy.sol\":7061:7078  providerShards[j] */\n      dup2\n      sload\n      dup2\n      lt\n      tag_316\n      jumpi\n      tag_317\n      tag_165\n      jump\t// in\n    tag_317:\n    tag_316:\n      swap1\n      0x00\n      mstore\n      keccak256(0x00, 0x20)\n      add\n        /* \"Cloudy-Blockchain/contracts/NewCloudy.sol\":7054:7078  delete providerShards[j] */\n      0x00\n      swap1\n      sstore\n        /* \"Cloudy-Blockchain/contracts/NewCloudy.sol\":7101:7106  break */\n      jump(tag_310)\n        /* \"Cloudy-Blockchain/contracts/NewCloudy.sol\":6997:7126  if (providerShards[j] == shardId) {... */\n    tag_315:\n        /* \"Cloudy-Blockchain/contracts/NewCloudy.sol\":6973:6976  j++ */\n      dup1\n      dup1\n      tag_319\n      swap1\n      tag_169\n      jump\t// in\n    tag_319:\n      swap2\n      pop\n      pop\n        /* \"Cloudy-Blockchain/contracts/NewCloudy.sol\":6926:7141  for (uint256 j = 0; j < providerShards.length; j++) {... */\n      jump(tag_309)\n    tag_310:\n      pop\n        /* \"Cloudy-Blockchain/contracts/NewCloudy.sol\":7214:7244  uint256[] storage fileShardIds */\n      0x00\n        /* \"Cloudy-Blockchain/contracts/NewCloudy.sol\":7247:7257  fileShards */\n      0x05\n        /* \"Cloudy-Blockchain/contracts/NewCloudy.sol\":7247:7266  fileShards[shardId] */\n      0x00\n        /* \"Cloudy-Blockchain/contracts/NewCloudy.sol\":7258:7265  shardId */\n      dup6\n        /* \"Cloudy-Blockchain/contracts/NewCloudy.sol\":7247:7266  fileShards[shardId] */\n      dup2\n      mstore\n      0x20\n      add\n      swap1\n      dup2\n      mstore\n      0x20\n      add\n      0x00\n      keccak256\n        /* \"Cloudy-Blockchain/contracts/NewCloudy.sol\":7214:7266  uint256[] storage fileShardIds = fileShards[shardId] */\n      swap1\n      pop\n        /* \"Cloudy-Blockchain/contracts/NewCloudy.sol\":7286:7295  uint256 j */\n      0x00\n        /* \"Cloudy-Blockchain/contracts/NewCloudy.sol\":7281:7490  for (uint256 j = 0; j < fileShardIds.length; j++) {... */\n    tag_320:\n        /* \"Cloudy-Blockchain/contracts/NewCloudy.sol\":7305:7317  fileShardIds */\n      dup2\n        /* \"Cloudy-Blockchain/contracts/NewCloudy.sol\":7305:7324  fileShardIds.length */\n      dup1\n      sload\n      swap1\n      pop\n        /* \"Cloudy-Blockchain/contracts/NewCloudy.sol\":7301:7302  j */\n      dup2\n        /* \"Cloudy-Blockchain/contracts/NewCloudy.sol\":7301:7324  j < fileShardIds.length */\n      lt\n        /* \"Cloudy-Blockchain/contracts/NewCloudy.sol\":7281:7490  for (uint256 j = 0; j < fileShardIds.length; j++) {... */\n      iszero\n      tag_321\n      jumpi\n        /* \"Cloudy-Blockchain/contracts/NewCloudy.sol\":7373:7380  shardId */\n      dup5\n        /* \"Cloudy-Blockchain/contracts/NewCloudy.sol\":7354:7366  fileShardIds */\n      dup3\n        /* \"Cloudy-Blockchain/contracts/NewCloudy.sol\":7367:7368  j */\n      dup3\n        /* \"Cloudy-Blockchain/contracts/NewCloudy.sol\":7354:7369  fileShardIds[j] */\n      dup2\n      sload\n      dup2\n      lt\n      tag_323\n      jumpi\n      tag_324\n      tag_165\n      jump\t// in\n    tag_324:\n    tag_323:\n      swap1\n      0x00\n      mstore\n      keccak256(0x00, 0x20)\n      add\n      sload\n        /* \"Cloudy-Blockchain/contracts/NewCloudy.sol\":7354:7380  fileShardIds[j] == shardId */\n      sub\n        /* \"Cloudy-Blockchain/contracts/NewCloudy.sol\":7350:7475  if (fileShardIds[j] == shardId) {... */\n      tag_326\n      jumpi\n        /* \"Cloudy-Blockchain/contracts/NewCloudy.sol\":7412:7424  fileShardIds */\n      dup2\n        /* \"Cloudy-Blockchain/contracts/NewCloudy.sol\":7425:7426  j */\n      dup2\n        /* \"Cloudy-Blockchain/contracts/NewCloudy.sol\":7412:7427  fileShardIds[j] */\n      dup2\n      sload\n      dup2\n      lt\n      tag_327\n      jumpi\n      tag_328\n      tag_165\n      jump\t// in\n    tag_328:\n    tag_327:\n      swap1\n      0x00\n      mstore\n      keccak256(0x00, 0x20)\n      add\n        /* \"Cloudy-Blockchain/contracts/NewCloudy.sol\":7405:7427  delete fileShardIds[j] */\n      0x00\n      swap1\n      sstore\n        /* \"Cloudy-Blockchain/contracts/NewCloudy.sol\":7450:7455  break */\n      jump(tag_321)\n        /* \"Cloudy-Blockchain/contracts/NewCloudy.sol\":7350:7475  if (fileShardIds[j] == shardId) {... */\n    tag_326:\n        /* \"Cloudy-Blockchain/contracts/NewCloudy.sol\":7326:7329  j++ */\n      dup1\n      dup1\n      tag_330\n      swap1\n      tag_169\n      jump\t// in\n    tag_330:\n      swap2\n      pop\n      pop\n        /* \"Cloudy-Blockchain/contracts/NewCloudy.sol\":7281:7490  for (uint256 j = 0; j < fileShardIds.length; j++) {... */\n      jump(tag_320)\n    tag_321:\n      pop\n        /* \"Cloudy-Blockchain/contracts/NewCloudy.sol\":6555:7501  {... */\n      pop\n      pop\n      pop\n      pop\n        /* \"Cloudy-Blockchain/contracts/NewCloudy.sol\":6550:6553  i++ */\n      dup1\n      dup1\n      tag_331\n      swap1\n      tag_169\n      jump\t// in\n    tag_331:\n      swap2\n      pop\n      pop\n        /* \"Cloudy-Blockchain/contracts/NewCloudy.sol\":6509:7501  for (uint256 i = 0; i < shardIds.length; i++) {... */\n      jump(tag_302)\n    tag_303:\n      pop\n        /* \"Cloudy-Blockchain/contracts/NewCloudy.sol\":7518:7540  FileDeleted(_fileHash) */\n      0x88efefb1eaec3d3a0e08ed74bc99a3407d454b5da66112fed68b20d54837ccae\n        /* \"Cloudy-Blockchain/contracts/NewCloudy.sol\":7530:7539  _fileHash */\n      dup5\n        /* \"Cloudy-Blockchain/contracts/NewCloudy.sol\":7518:7540  FileDeleted(_fileHash) */\n      mload(0x40)\n      tag_332\n      swap2\n      swap1\n      tag_147\n      jump\t// in\n    tag_332:\n      mload(0x40)\n      dup1\n      swap2\n      sub\n      swap1\n      log1\n        /* \"Cloudy-Blockchain/contracts/NewCloudy.sol\":5712:7548  {... */\n      pop\n      pop\n      pop\n        /* \"Cloudy-Blockchain/contracts/NewCloudy.sol\":5664:7548  function deleteFile(bytes32 _fileHash) external {... */\n      pop\n      jump\t// out\n        /* \"Cloudy-Blockchain/contracts/NewCloudy.sol\":14526:15061  function auditShard(uint256 _shardId) external {... */\n    tag_85:\n        /* \"Cloudy-Blockchain/contracts/NewCloudy.sol\":14584:14603  Shard storage shard */\n      0x00\n        /* \"Cloudy-Blockchain/contracts/NewCloudy.sol\":14606:14612  shards */\n      dup1\n        /* \"Cloudy-Blockchain/contracts/NewCloudy.sol\":14606:14622  shards[_shardId] */\n      0x00\n        /* \"Cloudy-Blockchain/contracts/NewCloudy.sol\":14613:14621  _shardId */\n      dup4\n        /* \"Cloudy-Blockchain/contracts/NewCloudy.sol\":14606:14622  shards[_shardId] */\n      dup2\n      mstore\n      0x20\n      add\n      swap1\n      dup2\n      mstore\n      0x20\n      add\n      0x00\n      keccak256\n        /* \"Cloudy-Blockchain/contracts/NewCloudy.sol\":14584:14622  Shard storage shard = shards[_shardId] */\n      swap1\n      pop\n        /* \"Cloudy-Blockchain/contracts/NewCloudy.sol\":14641:14646  shard */\n      dup1\n        /* \"Cloudy-Blockchain/contracts/NewCloudy.sol\":14641:14653  shard.exists */\n      0x04\n      add\n      0x00\n      swap1\n      sload\n      swap1\n      0x0100\n      exp\n      swap1\n      div\n      0xff\n      and\n        /* \"Cloudy-Blockchain/contracts/NewCloudy.sol\":14633:14678  require(shard.exists, \"Shard does not exist\") */\n      tag_334\n      jumpi\n      mload(0x40)\n      0x08c379a000000000000000000000000000000000000000000000000000000000\n      dup2\n      mstore\n      0x04\n      add\n      tag_335\n      swap1\n      tag_210\n      jump\t// in\n    tag_335:\n      mload(0x40)\n      dup1\n      swap2\n      sub\n      swap1\n      revert\n    tag_334:\n        /* \"Cloudy-Blockchain/contracts/NewCloudy.sol\":14691:14703  bool isValid */\n      0x00\n        /* \"Cloudy-Blockchain/contracts/NewCloudy.sol\":14706:14728  isShardValid(_shardId) */\n      tag_336\n        /* \"Cloudy-Blockchain/contracts/NewCloudy.sol\":14719:14727  _shardId */\n      dup4\n        /* \"Cloudy-Blockchain/contracts/NewCloudy.sol\":14706:14718  isShardValid */\n      tag_200\n        /* \"Cloudy-Blockchain/contracts/NewCloudy.sol\":14706:14728  isShardValid(_shardId) */\n      jump\t// in\n    tag_336:\n        /* \"Cloudy-Blockchain/contracts/NewCloudy.sol\":14691:14728  bool isValid = isShardValid(_shardId) */\n      swap1\n      pop\n        /* \"Cloudy-Blockchain/contracts/NewCloudy.sol\":14746:14800  ShardAudited(_shardId, shard.storageProvider, isValid) */\n      0xe2287538273600866181d00327199ba2737bdd326a6f08436f117f6a6c0e87a0\n        /* \"Cloudy-Blockchain/contracts/NewCloudy.sol\":14759:14767  _shardId */\n      dup4\n        /* \"Cloudy-Blockchain/contracts/NewCloudy.sol\":14769:14774  shard */\n      dup4\n        /* \"Cloudy-Blockchain/contracts/NewCloudy.sol\":14769:14790  shard.storageProvider */\n      0x01\n      add\n      0x00\n      swap1\n      sload\n      swap1\n      0x0100\n      exp\n      swap1\n      div\n      0xffffffffffffffffffffffffffffffffffffffff\n      and\n        /* \"Cloudy-Blockchain/contracts/NewCloudy.sol\":14792:14799  isValid */\n      dup4\n        /* \"Cloudy-Blockchain/contracts/NewCloudy.sol\":14746:14800  ShardAudited(_shardId, shard.storageProvider, isValid) */\n      mload(0x40)\n      tag_337\n      swap4\n      swap3\n      swap2\n      swap1\n      tag_202\n      jump\t// in\n    tag_337:\n      mload(0x40)\n      dup1\n      swap2\n      sub\n      swap1\n      log1\n        /* \"Cloudy-Blockchain/contracts/NewCloudy.sol\":14817:14824  isValid */\n      dup1\n        /* \"Cloudy-Blockchain/contracts/NewCloudy.sol\":14813:15054  if (isValid) {... */\n      iszero\n      tag_338\n      jumpi\n        /* \"Cloudy-Blockchain/contracts/NewCloudy.sol\":14885:14917  payReward(shard.storageProvider) */\n      tag_339\n        /* \"Cloudy-Blockchain/contracts/NewCloudy.sol\":14895:14900  shard */\n      dup3\n        /* \"Cloudy-Blockchain/contracts/NewCloudy.sol\":14895:14916  shard.storageProvider */\n      0x01\n      add\n      0x00\n      swap1\n      sload\n      swap1\n      0x0100\n      exp\n      swap1\n      div\n      0xffffffffffffffffffffffffffffffffffffffff\n      and\n        /* \"Cloudy-Blockchain/contracts/NewCloudy.sol\":14885:14894  payReward */\n      tag_205\n        /* \"Cloudy-Blockchain/contracts/NewCloudy.sol\":14885:14917  payReward(shard.storageProvider) */\n      jump\t// in\n    tag_339:\n        /* \"Cloudy-Blockchain/contracts/NewCloudy.sol\":14813:15054  if (isValid) {... */\n      jump(tag_340)\n    tag_338:\n        /* \"Cloudy-Blockchain/contracts/NewCloudy.sol\":15009:15042  removeShardFromProvider(_shardId) */\n      tag_341\n        /* \"Cloudy-Blockchain/contracts/NewCloudy.sol\":15033:15041  _shardId */\n      dup4\n        /* \"Cloudy-Blockchain/contracts/NewCloudy.sol\":15009:15032  removeShardFromProvider */\n      tag_342\n        /* \"Cloudy-Blockchain/contracts/NewCloudy.sol\":15009:15042  removeShardFromProvider(_shardId) */\n      jump\t// in\n    tag_341:\n        /* \"Cloudy-Blockchain/contracts/NewCloudy.sol\":14813:15054  if (isValid) {... */\n    tag_340:\n        /* \"Cloudy-Blockchain/contracts/NewCloudy.sol\":14573:15061  {... */\n      pop\n      pop\n        /* \"Cloudy-Blockchain/contracts/NewCloudy.sol\":14526:15061  function auditShard(uint256 _shardId) external {... */\n      pop\n      jump\t// out\n        /* \"Cloudy-Blockchain/contracts/NewCloudy.sol\":950:1008  mapping(address => StorageProvider) public providerDetails */\n    tag_89:\n      mstore(0x20, 0x03)\n      dup1\n      0x00\n      mstore\n      keccak256(0x00, 0x40)\n      0x00\n      swap2\n      pop\n      swap1\n      pop\n      dup1\n      0x00\n      add\n      sload\n      swap1\n      dup1\n      0x01\n      add\n      0x00\n      swap1\n      sload\n      swap1\n      0x0100\n      exp\n      swap1\n      div\n      0xffffffffffffffffffffffffffffffffffffffff\n      and\n      swap1\n      dup1\n      0x02\n      add\n      sload\n      swap1\n      dup1\n      0x03\n      add\n      sload\n      swap1\n      dup1\n      0x04\n      add\n      0x00\n      swap1\n      sload\n      swap1\n      0x0100\n      exp\n      swap1\n      div\n      0xff\n      and\n      swap1\n      pop\n      dup6\n      jump\t// out\n        /* \"Cloudy-Blockchain/contracts/NewCloudy.sol\":4146:5212  function uploadFile(string memory _ownerName, string memory _fileName, bytes32 _fileHash, bytes memory _fileData, uint256 _shardSize) external {... */\n    tag_95:\n        /* \"Cloudy-Blockchain/contracts/NewCloudy.sol\":4327:4328  0 */\n      0x00\n        /* \"Cloudy-Blockchain/contracts/NewCloudy.sol\":4308:4317  _fileData */\n      dup3\n        /* \"Cloudy-Blockchain/contracts/NewCloudy.sol\":4308:4324  _fileData.length */\n      mload\n        /* \"Cloudy-Blockchain/contracts/NewCloudy.sol\":4308:4328  _fileData.length > 0 */\n      gt\n        /* \"Cloudy-Blockchain/contracts/NewCloudy.sol\":4300:4359  require(_fileData.length > 0, \"File data must be provided\") */\n      tag_344\n      jumpi\n      mload(0x40)\n      0x08c379a000000000000000000000000000000000000000000000000000000000\n      dup2\n      mstore\n      0x04\n      add\n      tag_345\n      swap1\n      tag_346\n      jump\t// in\n    tag_345:\n      mload(0x40)\n      dup1\n      swap2\n      sub\n      swap1\n      revert\n    tag_344:\n        /* \"Cloudy-Blockchain/contracts/NewCloudy.sol\":4372:4389  uint256 numShards */\n      0x00\n        /* \"Cloudy-Blockchain/contracts/NewCloudy.sol\":4439:4449  _shardSize */\n      dup2\n        /* \"Cloudy-Blockchain/contracts/NewCloudy.sol\":4434:4435  1 */\n      0x01\n        /* \"Cloudy-Blockchain/contracts/NewCloudy.sol\":4421:4431  _shardSize */\n      dup4\n        /* \"Cloudy-Blockchain/contracts/NewCloudy.sol\":4401:4410  _fileData */\n      dup6\n        /* \"Cloudy-Blockchain/contracts/NewCloudy.sol\":4401:4417  _fileData.length */\n      mload\n        /* \"Cloudy-Blockchain/contracts/NewCloudy.sol\":4393:4431  uint256(_fileData.length) + _shardSize */\n      tag_347\n      swap2\n      swap1\n      tag_348\n      jump\t// in\n    tag_347:\n        /* \"Cloudy-Blockchain/contracts/NewCloudy.sol\":4393:4435  uint256(_fileData.length) + _shardSize - 1 */\n      tag_349\n      swap2\n      swap1\n      tag_181\n      jump\t// in\n    tag_349:\n        /* \"Cloudy-Blockchain/contracts/NewCloudy.sol\":4392:4449  (uint256(_fileData.length) + _shardSize - 1) / _shardSize */\n      tag_350\n      swap2\n      swap1\n      tag_351\n      jump\t// in\n    tag_350:\n        /* \"Cloudy-Blockchain/contracts/NewCloudy.sol\":4372:4449  uint256 numShards = (uint256(_fileData.length) + _shardSize - 1) / _shardSize */\n      swap1\n      pop\n        /* \"Cloudy-Blockchain/contracts/NewCloudy.sol\":4462:4487  uint256[] memory shardIds */\n      0x00\n        /* \"Cloudy-Blockchain/contracts/NewCloudy.sol\":4504:4513  numShards */\n      dup2\n        /* \"Cloudy-Blockchain/contracts/NewCloudy.sol\":4490:4514  new uint256[](numShards) */\n      0xffffffffffffffff\n      dup2\n      gt\n      iszero\n      tag_352\n      jumpi\n      tag_353\n      tag_354\n      jump\t// in\n    tag_353:\n    tag_352:\n      mload(0x40)\n      swap1\n      dup1\n      dup3\n      mstore\n      dup1\n      0x20\n      mul\n      0x20\n      add\n      dup3\n      add\n      0x40\n      mstore\n      dup1\n      iszero\n      tag_355\n      jumpi\n      dup2\n      0x20\n      add\n      0x20\n      dup3\n      mul\n      dup1\n      calldatasize\n      dup4\n      calldatacopy\n      dup1\n      dup3\n      add\n      swap2\n      pop\n      pop\n      swap1\n      pop\n    tag_355:\n      pop\n        /* \"Cloudy-Blockchain/contracts/NewCloudy.sol\":4462:4514  uint256[] memory shardIds = new uint256[](numShards) */\n      swap1\n      pop\n        /* \"Cloudy-Blockchain/contracts/NewCloudy.sol\":4532:4541  uint256 i */\n      0x00\n        /* \"Cloudy-Blockchain/contracts/NewCloudy.sol\":4527:5023  for (uint256 i = 0; i < numShards; i++) {... */\n    tag_356:\n        /* \"Cloudy-Blockchain/contracts/NewCloudy.sol\":4551:4560  numShards */\n      dup3\n        /* \"Cloudy-Blockchain/contracts/NewCloudy.sol\":4547:4548  i */\n      dup2\n        /* \"Cloudy-Blockchain/contracts/NewCloudy.sol\":4547:4560  i < numShards */\n      lt\n        /* \"Cloudy-Blockchain/contracts/NewCloudy.sol\":4527:5023  for (uint256 i = 0; i < numShards; i++) {... */\n      iszero\n      tag_357\n      jumpi\n        /* \"Cloudy-Blockchain/contracts/NewCloudy.sol\":4582:4595  uint256 start */\n      0x00\n        /* \"Cloudy-Blockchain/contracts/NewCloudy.sol\":4602:4612  _shardSize */\n      dup5\n        /* \"Cloudy-Blockchain/contracts/NewCloudy.sol\":4598:4599  i */\n      dup3\n        /* \"Cloudy-Blockchain/contracts/NewCloudy.sol\":4598:4612  i * _shardSize */\n      tag_359\n      swap2\n      swap1\n      tag_360\n      jump\t// in\n    tag_359:\n        /* \"Cloudy-Blockchain/contracts/NewCloudy.sol\":4582:4612  uint256 start = i * _shardSize */\n      swap1\n      pop\n        /* \"Cloudy-Blockchain/contracts/NewCloudy.sol\":4627:4638  uint256 end */\n      0x00\n        /* \"Cloudy-Blockchain/contracts/NewCloudy.sol\":4649:4659  _shardSize */\n      dup6\n        /* \"Cloudy-Blockchain/contracts/NewCloudy.sol\":4641:4646  start */\n      dup3\n        /* \"Cloudy-Blockchain/contracts/NewCloudy.sol\":4641:4659  start + _shardSize */\n      tag_361\n      swap2\n      swap1\n      tag_348\n      jump\t// in\n    tag_361:\n        /* \"Cloudy-Blockchain/contracts/NewCloudy.sol\":4627:4659  uint256 end = start + _shardSize */\n      swap1\n      pop\n        /* \"Cloudy-Blockchain/contracts/NewCloudy.sol\":4684:4693  _fileData */\n      dup7\n        /* \"Cloudy-Blockchain/contracts/NewCloudy.sol\":4684:4700  _fileData.length */\n      mload\n        /* \"Cloudy-Blockchain/contracts/NewCloudy.sol\":4678:4681  end */\n      dup2\n        /* \"Cloudy-Blockchain/contracts/NewCloudy.sol\":4678:4700  end > _fileData.length */\n      gt\n        /* \"Cloudy-Blockchain/contracts/NewCloudy.sol\":4674:4759  if (end > _fileData.length) {... */\n      iszero\n      tag_362\n      jumpi\n        /* \"Cloudy-Blockchain/contracts/NewCloudy.sol\":4727:4736  _fileData */\n      dup7\n        /* \"Cloudy-Blockchain/contracts/NewCloudy.sol\":4727:4743  _fileData.length */\n      mload\n        /* \"Cloudy-Blockchain/contracts/NewCloudy.sol\":4721:4743  end = _fileData.length */\n      swap1\n      pop\n        /* \"Cloudy-Blockchain/contracts/NewCloudy.sol\":4674:4759  if (end > _fileData.length) {... */\n    tag_362:\n        /* \"Cloudy-Blockchain/contracts/NewCloudy.sol\":4775:4797  bytes memory shardData */\n      0x00\n        /* \"Cloudy-Blockchain/contracts/NewCloudy.sol\":4816:4821  start */\n      dup3\n        /* \"Cloudy-Blockchain/contracts/NewCloudy.sol\":4810:4813  end */\n      dup3\n        /* \"Cloudy-Blockchain/contracts/NewCloudy.sol\":4810:4821  end - start */\n      tag_363\n      swap2\n      swap1\n      tag_181\n      jump\t// in\n    tag_363:\n        /* \"Cloudy-Blockchain/contracts/NewCloudy.sol\":4800:4822  new bytes(end - start) */\n      0xffffffffffffffff\n      dup2\n      gt\n      iszero\n      tag_364\n      jumpi\n      tag_365\n      tag_354\n      jump\t// in\n    tag_365:\n    tag_364:\n      mload(0x40)\n      swap1\n      dup1\n      dup3\n      mstore\n      dup1\n      0x1f\n      add\n      not(0x1f)\n      and\n      0x20\n      add\n      dup3\n      add\n      0x40\n      mstore\n      dup1\n      iszero\n      tag_366\n      jumpi\n      dup2\n      0x20\n      add\n      0x01\n      dup3\n      mul\n      dup1\n      calldatasize\n      dup4\n      calldatacopy\n      dup1\n      dup3\n      add\n      swap2\n      pop\n      pop\n      swap1\n      pop\n    tag_366:\n      pop\n        /* \"Cloudy-Blockchain/contracts/NewCloudy.sol\":4775:4822  bytes memory shardData = new bytes(end - start) */\n      swap1\n      pop\n        /* \"Cloudy-Blockchain/contracts/NewCloudy.sol\":4844:4853  uint256 j */\n      0x00\n        /* \"Cloudy-Blockchain/contracts/NewCloudy.sol\":4856:4861  start */\n      dup4\n        /* \"Cloudy-Blockchain/contracts/NewCloudy.sol\":4844:4861  uint256 j = start */\n      swap1\n      pop\n        /* \"Cloudy-Blockchain/contracts/NewCloudy.sol\":4839:4947  for (uint256 j = start; j < end; j++) {... */\n    tag_367:\n        /* \"Cloudy-Blockchain/contracts/NewCloudy.sol\":4867:4870  end */\n      dup3\n        /* \"Cloudy-Blockchain/contracts/NewCloudy.sol\":4863:4864  j */\n      dup2\n        /* \"Cloudy-Blockchain/contracts/NewCloudy.sol\":4863:4870  j < end */\n      lt\n        /* \"Cloudy-Blockchain/contracts/NewCloudy.sol\":4839:4947  for (uint256 j = start; j < end; j++) {... */\n      iszero\n      tag_368\n      jumpi\n        /* \"Cloudy-Blockchain/contracts/NewCloudy.sol\":4919:4928  _fileData */\n      dup9\n        /* \"Cloudy-Blockchain/contracts/NewCloudy.sol\":4929:4930  j */\n      dup2\n        /* \"Cloudy-Blockchain/contracts/NewCloudy.sol\":4919:4931  _fileData[j] */\n      dup2\n      mload\n      dup2\n      lt\n      tag_370\n      jumpi\n      tag_371\n      tag_165\n      jump\t// in\n    tag_371:\n    tag_370:\n      0x20\n      add\n      add\n      mload\n      0xf8\n      shr\n      0xf8\n      shl\n        /* \"Cloudy-Blockchain/contracts/NewCloudy.sol\":4896:4905  shardData */\n      dup3\n        /* \"Cloudy-Blockchain/contracts/NewCloudy.sol\":4910:4915  start */\n      dup6\n        /* \"Cloudy-Blockchain/contracts/NewCloudy.sol\":4906:4907  j */\n      dup4\n        /* \"Cloudy-Blockchain/contracts/NewCloudy.sol\":4906:4915  j - start */\n      tag_372\n      swap2\n      swap1\n      tag_181\n      jump\t// in\n    tag_372:\n        /* \"Cloudy-Blockchain/contracts/NewCloudy.sol\":4896:4916  shardData[j - start] */\n      dup2\n      mload\n      dup2\n      lt\n      tag_373\n      jumpi\n      tag_374\n      tag_165\n      jump\t// in\n    tag_374:\n    tag_373:\n      0x20\n      add\n      add\n        /* \"Cloudy-Blockchain/contracts/NewCloudy.sol\":4896:4931  shardData[j - start] = _fileData[j] */\n      swap1\n      not(0xffffffffffffffffffffffffffffffffffffffffffffffffffffffffffffff)\n      and\n      swap1\n      dup2\n      0x00\n      byte\n      swap1\n      mstore8\n      pop\n        /* \"Cloudy-Blockchain/contracts/NewCloudy.sol\":4872:4875  j++ */\n      dup1\n      dup1\n      tag_375\n      swap1\n      tag_169\n      jump\t// in\n    tag_375:\n      swap2\n      pop\n      pop\n        /* \"Cloudy-Blockchain/contracts/NewCloudy.sol\":4839:4947  for (uint256 j = start; j < end; j++) {... */\n      jump(tag_367)\n    tag_368:\n      pop\n        /* \"Cloudy-Blockchain/contracts/NewCloudy.sol\":4977:5011  createShard(shardData, msg.sender) */\n      tag_376\n        /* \"Cloudy-Blockchain/contracts/NewCloudy.sol\":4989:4998  shardData */\n      dup2\n        /* \"Cloudy-Blockchain/contracts/NewCloudy.sol\":5000:5010  msg.sender */\n      caller\n        /* \"Cloudy-Blockchain/contracts/NewCloudy.sol\":4977:4988  createShard */\n      tag_377\n        /* \"Cloudy-Blockchain/contracts/NewCloudy.sol\":4977:5011  createShard(shardData, msg.sender) */\n      jump\t// in\n    tag_376:\n        /* \"Cloudy-Blockchain/contracts/NewCloudy.sol\":4963:4971  shardIds */\n      dup6\n        /* \"Cloudy-Blockchain/contracts/NewCloudy.sol\":4972:4973  i */\n      dup6\n        /* \"Cloudy-Blockchain/contracts/NewCloudy.sol\":4963:4974  shardIds[i] */\n      dup2\n      mload\n      dup2\n      lt\n      tag_378\n      jumpi\n      tag_379\n      tag_165\n      jump\t// in\n    tag_379:\n    tag_378:\n      0x20\n      mul\n      0x20\n      add\n      add\n        /* \"Cloudy-Blockchain/contracts/NewCloudy.sol\":4963:5011  shardIds[i] = createShard(shardData, msg.sender) */\n      dup2\n      dup2\n      mstore\n      pop\n      pop\n        /* \"Cloudy-Blockchain/contracts/NewCloudy.sol\":4567:5023  {... */\n      pop\n      pop\n      pop\n        /* \"Cloudy-Blockchain/contracts/NewCloudy.sol\":4562:4565  i++ */\n      dup1\n      dup1\n      tag_380\n      swap1\n      tag_169\n      jump\t// in\n    tag_380:\n      swap2\n      pop\n      pop\n        /* \"Cloudy-Blockchain/contracts/NewCloudy.sol\":4527:5023  for (uint256 i = 0; i < numShards; i++) {... */\n      jump(tag_356)\n    tag_357:\n      pop\n        /* \"Cloudy-Blockchain/contracts/NewCloudy.sol\":5060:5126  File(msg.sender, _ownerName, _fileName, _fileHash, shardIds, true) */\n      mload(0x40)\n      dup1\n      0xc0\n      add\n      0x40\n      mstore\n      dup1\n        /* \"Cloudy-Blockchain/contracts/NewCloudy.sol\":5065:5075  msg.sender */\n      caller\n        /* \"Cloudy-Blockchain/contracts/NewCloudy.sol\":5060:5126  File(msg.sender, _ownerName, _fileName, _fileHash, shardIds, true) */\n      0xffffffffffffffffffffffffffffffffffffffff\n      and\n      dup2\n      mstore\n      0x20\n      add\n        /* \"Cloudy-Blockchain/contracts/NewCloudy.sol\":5077:5087  _ownerName */\n      dup9\n        /* \"Cloudy-Blockchain/contracts/NewCloudy.sol\":5060:5126  File(msg.sender, _ownerName, _fileName, _fileHash, shardIds, true) */\n      dup2\n      mstore\n      0x20\n      add\n        /* \"Cloudy-Blockchain/contracts/NewCloudy.sol\":5089:5098  _fileName */\n      dup8\n        /* \"Cloudy-Blockchain/contracts/NewCloudy.sol\":5060:5126  File(msg.sender, _ownerName, _fileName, _fileHash, shardIds, true) */\n      dup2\n      mstore\n      0x20\n      add\n        /* \"Cloudy-Blockchain/contracts/NewCloudy.sol\":5100:5109  _fileHash */\n      dup7\n        /* \"Cloudy-Blockchain/contracts/NewCloudy.sol\":5060:5126  File(msg.sender, _ownerName, _fileName, _fileHash, shardIds, true) */\n      dup2\n      mstore\n      0x20\n      add\n        /* \"Cloudy-Blockchain/contracts/NewCloudy.sol\":5111:5119  shardIds */\n      dup3\n        /* \"Cloudy-Blockchain/contracts/NewCloudy.sol\":5060:5126  File(msg.sender, _ownerName, _fileName, _fileHash, shardIds, true) */\n      dup2\n      mstore\n      0x20\n      add\n        /* \"Cloudy-Blockchain/contracts/NewCloudy.sol\":5121:5125  true */\n      0x01\n        /* \"Cloudy-Blockchain/contracts/NewCloudy.sol\":5060:5126  File(msg.sender, _ownerName, _fileName, _fileHash, shardIds, true) */\n      iszero\n      iszero\n      dup2\n      mstore\n      pop\n        /* \"Cloudy-Blockchain/contracts/NewCloudy.sol\":5035:5046  filesByHash */\n      0x01\n        /* \"Cloudy-Blockchain/contracts/NewCloudy.sol\":5035:5057  filesByHash[_fileHash] */\n      0x00\n        /* \"Cloudy-Blockchain/contracts/NewCloudy.sol\":5047:5056  _fileHash */\n      dup8\n        /* \"Cloudy-Blockchain/contracts/NewCloudy.sol\":5035:5057  filesByHash[_fileHash] */\n      dup2\n      mstore\n      0x20\n      add\n      swap1\n      dup2\n      mstore\n      0x20\n      add\n      0x00\n      keccak256\n        /* \"Cloudy-Blockchain/contracts/NewCloudy.sol\":5035:5126  filesByHash[_fileHash] = File(msg.sender, _ownerName, _fileName, _fileHash, shardIds, true) */\n      0x00\n      dup3\n      add\n      mload\n      dup2\n      0x00\n      add\n      exp(0x0100, 0x00)\n      dup2\n      sload\n      dup2\n      0xffffffffffffffffffffffffffffffffffffffff\n      mul\n      not\n      and\n      swap1\n      dup4\n      0xffffffffffffffffffffffffffffffffffffffff\n      and\n      mul\n      or\n      swap1\n      sstore\n      pop\n      0x20\n      dup3\n      add\n      mload\n      dup2\n      0x01\n      add\n      swap1\n      dup2\n      tag_381\n      swap2\n      swap1\n      tag_382\n      jump\t// in\n    tag_381:\n      pop\n      0x40\n      dup3\n      add\n      mload\n      dup2\n      0x02\n      add\n      swap1\n      dup2\n      tag_383\n      swap2\n      swap1\n      tag_382\n      jump\t// in\n    tag_383:\n      pop\n      0x60\n      dup3\n      add\n      mload\n      dup2\n      0x03\n      add\n      sstore\n      0x80\n      dup3\n      add\n      mload\n      dup2\n      0x04\n      add\n      swap1\n      dup1\n      mload\n      swap1\n      0x20\n      add\n      swap1\n      tag_384\n      swap3\n      swap2\n      swap1\n      tag_385\n      jump\t// in\n    tag_384:\n      pop\n      0xa0\n      dup3\n      add\n      mload\n      dup2\n      0x05\n      add\n      exp(0x0100, 0x00)\n      dup2\n      sload\n      dup2\n      0xff\n      mul\n      not\n      and\n      swap1\n      dup4\n      iszero\n      iszero\n      mul\n      or\n      swap1\n      sstore\n      pop\n      swap1\n      pop\n      pop\n        /* \"Cloudy-Blockchain/contracts/NewCloudy.sol\":5139:5149  ownerFiles */\n      0x04\n        /* \"Cloudy-Blockchain/contracts/NewCloudy.sol\":5139:5161  ownerFiles[msg.sender] */\n      0x00\n        /* \"Cloudy-Blockchain/contracts/NewCloudy.sol\":5150:5160  msg.sender */\n      caller\n        /* \"Cloudy-Blockchain/contracts/NewCloudy.sol\":5139:5161  ownerFiles[msg.sender] */\n      0xffffffffffffffffffffffffffffffffffffffff\n      and\n      0xffffffffffffffffffffffffffffffffffffffff\n      and\n      dup2\n      mstore\n      0x20\n      add\n      swap1\n      dup2\n      mstore\n      0x20\n      add\n      0x00\n      keccak256\n        /* \"Cloudy-Blockchain/contracts/NewCloudy.sol\":5167:5176  _fileHash */\n      dup6\n        /* \"Cloudy-Blockchain/contracts/NewCloudy.sol\":5139:5177  ownerFiles[msg.sender].push(_fileHash) */\n      swap1\n      dup1\n      0x01\n      dup2\n      sload\n      add\n      dup1\n      dup3\n      sstore\n      dup1\n      swap2\n      pop\n      pop\n      0x01\n      swap1\n      sub\n      swap1\n      0x00\n      mstore\n      keccak256(0x00, 0x20)\n      add\n      0x00\n      swap1\n      swap2\n      swap1\n      swap2\n      swap1\n      swap2\n      pop\n      sstore\n        /* \"Cloudy-Blockchain/contracts/NewCloudy.sol\":5190:5202  shardCounter */\n      0x09\n      0x00\n        /* \"Cloudy-Blockchain/contracts/NewCloudy.sol\":5190:5204  shardCounter++ */\n      dup2\n      sload\n      dup1\n      swap3\n      swap2\n      swap1\n      tag_387\n      swap1\n      tag_169\n      jump\t// in\n    tag_387:\n      swap2\n      swap1\n      pop\n      sstore\n      pop\n        /* \"Cloudy-Blockchain/contracts/NewCloudy.sol\":4289:5212  {... */\n      pop\n      pop\n        /* \"Cloudy-Blockchain/contracts/NewCloudy.sol\":4146:5212  function uploadFile(string memory _ownerName, string memory _fileName, bytes32 _fileHash, bytes memory _fileData, uint256 _shardSize) external {... */\n      pop\n      pop\n      pop\n      pop\n      pop\n      jump\t// out\n        /* \"Cloudy-Blockchain/contracts/NewCloudy.sol\":15726:16624  function deleteStorageProvider(address _storageProvider) external {... */\n    tag_98:\n        /* \"Cloudy-Blockchain/contracts/NewCloudy.sol\":15811:15826  providerDetails */\n      0x03\n        /* \"Cloudy-Blockchain/contracts/NewCloudy.sol\":15811:15844  providerDetails[_storageProvider] */\n      0x00\n        /* \"Cloudy-Blockchain/contracts/NewCloudy.sol\":15827:15843  _storageProvider */\n      dup3\n        /* \"Cloudy-Blockchain/contracts/NewCloudy.sol\":15811:15844  providerDetails[_storageProvider] */\n      0xffffffffffffffffffffffffffffffffffffffff\n      and\n      0xffffffffffffffffffffffffffffffffffffffff\n      and\n      dup2\n      mstore\n      0x20\n      add\n      swap1\n      dup2\n      mstore\n      0x20\n      add\n      0x00\n      keccak256\n        /* \"Cloudy-Blockchain/contracts/NewCloudy.sol\":15811:15854  providerDetails[_storageProvider].isStoring */\n      0x04\n      add\n      0x00\n      swap1\n      sload\n      swap1\n      0x0100\n      exp\n      swap1\n      div\n      0xff\n      and\n        /* \"Cloudy-Blockchain/contracts/NewCloudy.sol\":15803:15890  require(providerDetails[_storageProvider].isStoring, \"Storage provider does not exist\") */\n      tag_389\n      jumpi\n      mload(0x40)\n      0x08c379a000000000000000000000000000000000000000000000000000000000\n      dup2\n      mstore\n      0x04\n      add\n      tag_390\n      swap1\n      tag_213\n      jump\t// in\n    tag_390:\n      mload(0x40)\n      dup1\n      swap2\n      sub\n      swap1\n      revert\n    tag_389:\n        /* \"Cloudy-Blockchain/contracts/NewCloudy.sol\":15968:15983  providerDetails */\n      0x03\n        /* \"Cloudy-Blockchain/contracts/NewCloudy.sol\":15968:16001  providerDetails[_storageProvider] */\n      0x00\n        /* \"Cloudy-Blockchain/contracts/NewCloudy.sol\":15984:16000  _storageProvider */\n      dup3\n        /* \"Cloudy-Blockchain/contracts/NewCloudy.sol\":15968:16001  providerDetails[_storageProvider] */\n      0xffffffffffffffffffffffffffffffffffffffff\n      and\n      0xffffffffffffffffffffffffffffffffffffffff\n      and\n      dup2\n      mstore\n      0x20\n      add\n      swap1\n      dup2\n      mstore\n      0x20\n      add\n      0x00\n      keccak256\n      0x00\n        /* \"Cloudy-Blockchain/contracts/NewCloudy.sol\":15961:16001  delete providerDetails[_storageProvider] */\n      dup1\n      dup3\n      add\n      0x00\n      swap1\n      sstore\n      0x01\n      dup3\n      add\n      exp(0x0100, 0x00)\n      dup2\n      sload\n      swap1\n      0xffffffffffffffffffffffffffffffffffffffff\n      mul\n      not\n      and\n      swap1\n      sstore\n      0x02\n      dup3\n      add\n      0x00\n      swap1\n      sstore\n      0x03\n      dup3\n      add\n      0x00\n      swap1\n      sstore\n      0x04\n      dup3\n      add\n      exp(0x0100, 0x00)\n      dup2\n      sload\n      swap1\n      0xff\n      mul\n      not\n      and\n      swap1\n      sstore\n      pop\n      pop\n        /* \"Cloudy-Blockchain/contracts/NewCloudy.sol\":16019:16035  storageProviders */\n      0x02\n        /* \"Cloudy-Blockchain/contracts/NewCloudy.sol\":16019:16053  storageProviders[_storageProvider] */\n      0x00\n        /* \"Cloudy-Blockchain/contracts/NewCloudy.sol\":16036:16052  _storageProvider */\n      dup3\n        /* \"Cloudy-Blockchain/contracts/NewCloudy.sol\":16019:16053  storageProviders[_storageProvider] */\n      0xffffffffffffffffffffffffffffffffffffffff\n      and\n      0xffffffffffffffffffffffffffffffffffffffff\n      and\n      dup2\n      mstore\n      0x20\n      add\n      swap1\n      dup2\n      mstore\n      0x20\n      add\n      0x00\n      keccak256\n      0x00\n        /* \"Cloudy-Blockchain/contracts/NewCloudy.sol\":16012:16053  delete storageProviders[_storageProvider] */\n      tag_391\n      swap2\n      swap1\n      tag_301\n      jump\t// in\n    tag_391:\n        /* \"Cloudy-Blockchain/contracts/NewCloudy.sol\":16127:16136  uint256 i */\n      0x00\n        /* \"Cloudy-Blockchain/contracts/NewCloudy.sol\":16122:16337  for (uint256 i = 0; i < providersWithSpace.length; i++) {... */\n    tag_392:\n        /* \"Cloudy-Blockchain/contracts/NewCloudy.sol\":16146:16164  providersWithSpace */\n      0x07\n        /* \"Cloudy-Blockchain/contracts/NewCloudy.sol\":16146:16171  providersWithSpace.length */\n      dup1\n      sload\n      swap1\n      pop\n        /* \"Cloudy-Blockchain/contracts/NewCloudy.sol\":16142:16143  i */\n      dup2\n        /* \"Cloudy-Blockchain/contracts/NewCloudy.sol\":16142:16171  i < providersWithSpace.length */\n      lt\n        /* \"Cloudy-Blockchain/contracts/NewCloudy.sol\":16122:16337  for (uint256 i = 0; i < providersWithSpace.length; i++) {... */\n      iszero\n      tag_393\n      jumpi\n        /* \"Cloudy-Blockchain/contracts/NewCloudy.sol\":16221:16237  _storageProvider */\n      dup2\n        /* \"Cloudy-Blockchain/contracts/NewCloudy.sol\":16197:16237  providersWithSpace[i] ==_storageProvider */\n      0xffffffffffffffffffffffffffffffffffffffff\n      and\n        /* \"Cloudy-Blockchain/contracts/NewCloudy.sol\":16197:16215  providersWithSpace */\n      0x07\n        /* \"Cloudy-Blockchain/contracts/NewCloudy.sol\":16216:16217  i */\n      dup3\n        /* \"Cloudy-Blockchain/contracts/NewCloudy.sol\":16197:16218  providersWithSpace[i] */\n      dup2\n      sload\n      dup2\n      lt\n      tag_395\n      jumpi\n      tag_396\n      tag_165\n      jump\t// in\n    tag_396:\n    tag_395:\n      swap1\n      0x00\n      mstore\n      keccak256(0x00, 0x20)\n      add\n      0x00\n      swap1\n      sload\n      swap1\n      0x0100\n      exp\n      swap1\n      div\n      0xffffffffffffffffffffffffffffffffffffffff\n      and\n        /* \"Cloudy-Blockchain/contracts/NewCloudy.sol\":16197:16237  providersWithSpace[i] ==_storageProvider */\n      0xffffffffffffffffffffffffffffffffffffffff\n      and\n      sub\n        /* \"Cloudy-Blockchain/contracts/NewCloudy.sol\":16193:16326  if (providersWithSpace[i] ==_storageProvider) {... */\n      tag_398\n      jumpi\n        /* \"Cloudy-Blockchain/contracts/NewCloudy.sol\":16265:16283  providersWithSpace */\n      0x07\n        /* \"Cloudy-Blockchain/contracts/NewCloudy.sol\":16284:16285  i */\n      dup2\n        /* \"Cloudy-Blockchain/contracts/NewCloudy.sol\":16265:16286  providersWithSpace[i] */\n      dup2\n      sload\n      dup2\n      lt\n      tag_399\n      jumpi\n      tag_400\n      tag_165\n      jump\t// in\n    tag_400:\n    tag_399:\n      swap1\n      0x00\n      mstore\n      keccak256(0x00, 0x20)\n      add\n      0x00\n        /* \"Cloudy-Blockchain/contracts/NewCloudy.sol\":16258:16286  delete providersWithSpace[i] */\n      0x0100\n      exp\n      dup2\n      sload\n      swap1\n      0xffffffffffffffffffffffffffffffffffffffff\n      mul\n      not\n      and\n      swap1\n      sstore\n        /* \"Cloudy-Blockchain/contracts/NewCloudy.sol\":16305:16310  break */\n      jump(tag_393)\n        /* \"Cloudy-Blockchain/contracts/NewCloudy.sol\":16193:16326  if (providersWithSpace[i] ==_storageProvider) {... */\n    tag_398:\n        /* \"Cloudy-Blockchain/contracts/NewCloudy.sol\":16173:16176  i++ */\n      dup1\n      dup1\n      tag_402\n      swap1\n      tag_169\n      jump\t// in\n    tag_402:\n      swap2\n      pop\n      pop\n        /* \"Cloudy-Blockchain/contracts/NewCloudy.sol\":16122:16337  for (uint256 i = 0; i < providersWithSpace.length; i++) {... */\n      jump(tag_392)\n    tag_393:\n      pop\n        /* \"Cloudy-Blockchain/contracts/NewCloudy.sol\":16354:16363  uint256 i */\n      0x00\n        /* \"Cloudy-Blockchain/contracts/NewCloudy.sol\":16349:16559  for (uint256 i = 0; i < providersStoring.length; i++) {... */\n    tag_403:\n        /* \"Cloudy-Blockchain/contracts/NewCloudy.sol\":16373:16389  providersStoring */\n      0x08\n        /* \"Cloudy-Blockchain/contracts/NewCloudy.sol\":16373:16396  providersStoring.length */\n      dup1\n      sload\n      swap1\n      pop\n        /* \"Cloudy-Blockchain/contracts/NewCloudy.sol\":16369:16370  i */\n      dup2\n        /* \"Cloudy-Blockchain/contracts/NewCloudy.sol\":16369:16396  i < providersStoring.length */\n      lt\n        /* \"Cloudy-Blockchain/contracts/NewCloudy.sol\":16349:16559  for (uint256 i = 0; i < providersStoring.length; i++) {... */\n      iszero\n      tag_404\n      jumpi\n        /* \"Cloudy-Blockchain/contracts/NewCloudy.sol\":16445:16461  _storageProvider */\n      dup2\n        /* \"Cloudy-Blockchain/contracts/NewCloudy.sol\":16422:16461  providersStoring[i] == _storageProvider */\n      0xffffffffffffffffffffffffffffffffffffffff\n      and\n        /* \"Cloudy-Blockchain/contracts/NewCloudy.sol\":16422:16438  providersStoring */\n      0x08\n        /* \"Cloudy-Blockchain/contracts/NewCloudy.sol\":16439:16440  i */\n      dup3\n        /* \"Cloudy-Blockchain/contracts/NewCloudy.sol\":16422:16441  providersStoring[i] */\n      dup2\n      sload\n      dup2\n      lt\n      tag_406\n      jumpi\n      tag_407\n      tag_165\n      jump\t// in\n    tag_407:\n    tag_406:\n      swap1\n      0x00\n      mstore\n      keccak256(0x00, 0x20)\n      add\n      0x00\n      swap1\n      sload\n      swap1\n      0x0100\n      exp\n      swap1\n      div\n      0xffffffffffffffffffffffffffffffffffffffff\n      and\n        /* \"Cloudy-Blockchain/contracts/NewCloudy.sol\":16422:16461  providersStoring[i] == _storageProvider */\n      0xffffffffffffffffffffffffffffffffffffffff\n      and\n      sub\n        /* \"Cloudy-Blockchain/contracts/NewCloudy.sol\":16418:16548  if (providersStoring[i] == _storageProvider) {... */\n      tag_409\n      jumpi\n        /* \"Cloudy-Blockchain/contracts/NewCloudy.sol\":16489:16505  providersStoring */\n      0x08\n        /* \"Cloudy-Blockchain/contracts/NewCloudy.sol\":16506:16507  i */\n      dup2\n        /* \"Cloudy-Blockchain/contracts/NewCloudy.sol\":16489:16508  providersStoring[i] */\n      dup2\n      sload\n      dup2\n      lt\n      tag_410\n      jumpi\n      tag_411\n      tag_165\n      jump\t// in\n    tag_411:\n    tag_410:\n      swap1\n      0x00\n      mstore\n      keccak256(0x00, 0x20)\n      add\n      0x00\n        /* \"Cloudy-Blockchain/contracts/NewCloudy.sol\":16482:16508  delete providersStoring[i] */\n      0x0100\n      exp\n      dup2\n      sload\n      swap1\n      0xffffffffffffffffffffffffffffffffffffffff\n      mul\n      not\n      and\n      swap1\n      sstore\n        /* \"Cloudy-Blockchain/contracts/NewCloudy.sol\":16527:16532  break */\n      jump(tag_404)\n        /* \"Cloudy-Blockchain/contracts/NewCloudy.sol\":16418:16548  if (providersStoring[i] == _storageProvider) {... */\n    tag_409:\n        /* \"Cloudy-Blockchain/contracts/NewCloudy.sol\":16398:16401  i++ */\n      dup1\n      dup1\n      tag_413\n      swap1\n      tag_169\n      jump\t// in\n    tag_413:\n      swap2\n      pop\n      pop\n        /* \"Cloudy-Blockchain/contracts/NewCloudy.sol\":16349:16559  for (uint256 i = 0; i < providersStoring.length; i++) {... */\n      jump(tag_403)\n    tag_404:\n      pop\n        /* \"Cloudy-Blockchain/contracts/NewCloudy.sol\":16576:16616  StorageProviderDeleted(_storageProvider) */\n      0x4ec08ac56c966a2996e49a49ef82b618954fb71b28a651fbc8ed9ebc0dfecbd3\n        /* \"Cloudy-Blockchain/contracts/NewCloudy.sol\":16599:16615  _storageProvider */\n      dup2\n        /* \"Cloudy-Blockchain/contracts/NewCloudy.sol\":16576:16616  StorageProviderDeleted(_storageProvider) */\n      mload(0x40)\n      tag_414\n      swap2\n      swap1\n      tag_61\n      jump\t// in\n    tag_414:\n      mload(0x40)\n      dup1\n      swap2\n      sub\n      swap1\n      log1\n        /* \"Cloudy-Blockchain/contracts/NewCloudy.sol\":15726:16624  function deleteStorageProvider(address _storageProvider) external {... */\n      pop\n      jump\t// out\n        /* \"Cloudy-Blockchain/contracts/NewCloudy.sol\":17814:17935  function getStorageProvidersStoring() external view returns (address[] memory) {... */\n    tag_100:\n        /* \"Cloudy-Blockchain/contracts/NewCloudy.sol\":17875:17891  address[] memory */\n      0x60\n        /* \"Cloudy-Blockchain/contracts/NewCloudy.sol\":17911:17927  providersStoring */\n      0x08\n        /* \"Cloudy-Blockchain/contracts/NewCloudy.sol\":17904:17927  return providersStoring */\n      dup1\n      sload\n      dup1\n      0x20\n      mul\n      0x20\n      add\n      mload(0x40)\n      swap1\n      dup2\n      add\n      0x40\n      mstore\n      dup1\n      swap3\n      swap2\n      swap1\n      dup2\n      dup2\n      mstore\n      0x20\n      add\n      dup3\n      dup1\n      sload\n      dup1\n      iszero\n      tag_416\n      jumpi\n      0x20\n      mul\n      dup3\n      add\n      swap2\n      swap1\n      0x00\n      mstore\n      keccak256(0x00, 0x20)\n      swap1\n    tag_417:\n      dup2\n      0x00\n      swap1\n      sload\n      swap1\n      0x0100\n      exp\n      swap1\n      div\n      0xffffffffffffffffffffffffffffffffffffffff\n      and\n      0xffffffffffffffffffffffffffffffffffffffff\n      and\n      dup2\n      mstore\n      0x20\n      add\n      swap1\n      0x01\n      add\n      swap1\n      dup1\n      dup4\n      gt\n      tag_417\n      jumpi\n    tag_416:\n      pop\n      pop\n      pop\n      pop\n      pop\n      swap1\n      pop\n        /* \"Cloudy-Blockchain/contracts/NewCloudy.sol\":17814:17935  function getStorageProvidersStoring() external view returns (address[] memory) {... */\n      swap1\n      jump\t// out\n        /* \"Cloudy-Blockchain/contracts/NewCloudy.sol\":733:776  mapping(bytes32 => File) public filesByHash */\n    tag_105:\n      mstore(0x20, 0x01)\n      dup1\n      0x00\n      mstore\n      keccak256(0x00, 0x40)\n      0x00\n      swap2\n      pop\n      swap1\n      pop\n      dup1\n      0x00\n      add\n      0x00\n      swap1\n      sload\n      swap1\n      0x0100\n      exp\n      swap1\n      div\n      0xffffffffffffffffffffffffffffffffffffffff\n      and\n      swap1\n      dup1\n      0x01\n      add\n      dup1\n      sload\n      tag_418\n      swap1\n      tag_153\n      jump\t// in\n    tag_418:\n      dup1\n      0x1f\n      add\n      0x20\n      dup1\n      swap2\n      div\n      mul\n      0x20\n      add\n      mload(0x40)\n      swap1\n      dup2\n      add\n      0x40\n      mstore\n      dup1\n      swap3\n      swap2\n      swap1\n      dup2\n      dup2\n      mstore\n      0x20\n      add\n      dup3\n      dup1\n      sload\n      tag_419\n      swap1\n      tag_153\n      jump\t// in\n    tag_419:\n      dup1\n      iszero\n      tag_420\n      jumpi\n      dup1\n      0x1f\n      lt\n      tag_421\n      jumpi\n      0x0100\n      dup1\n      dup4\n      sload\n      div\n      mul\n      dup4\n      mstore\n      swap2\n      0x20\n      add\n      swap2\n      jump(tag_420)\n    tag_421:\n      dup3\n      add\n      swap2\n      swap1\n      0x00\n      mstore\n      keccak256(0x00, 0x20)\n      swap1\n    tag_422:\n      dup2\n      sload\n      dup2\n      mstore\n      swap1\n      0x01\n      add\n      swap1\n      0x20\n      add\n      dup1\n      dup4\n      gt\n      tag_422\n      jumpi\n      dup3\n      swap1\n      sub\n      0x1f\n      and\n      dup3\n      add\n      swap2\n    tag_420:\n      pop\n      pop\n      pop\n      pop\n      pop\n      swap1\n      dup1\n      0x02\n      add\n      dup1\n      sload\n      tag_423\n      swap1\n      tag_153\n      jump\t// in\n    tag_423:\n      dup1\n      0x1f\n      add\n      0x20\n      dup1\n      swap2\n      div\n      mul\n      0x20\n      add\n      mload(0x40)\n      swap1\n      dup2\n      add\n      0x40\n      mstore\n      dup1\n      swap3\n      swap2\n      swap1\n      dup2\n      dup2\n      mstore\n      0x20\n      add\n      dup3\n      dup1\n      sload\n      tag_424\n      swap1\n      tag_153\n      jump\t// in\n    tag_424:\n      dup1\n      iszero\n      tag_425\n      jumpi\n      dup1\n      0x1f\n      lt\n      tag_426\n      jumpi\n      0x0100\n      dup1\n      dup4\n      sload\n      div\n      mul\n      dup4\n      mstore\n      swap2\n      0x20\n      add\n      swap2\n      jump(tag_425)\n    tag_426:\n      dup3\n      add\n      swap2\n      swap1\n      0x00\n      mstore\n      keccak256(0x00, 0x20)\n      swap1\n    tag_427:\n      dup2\n      sload\n      dup2\n      mstore\n      swap1\n      0x01\n      add\n      swap1\n      0x20\n      add\n      dup1\n      dup4\n      gt\n      tag_427\n      jumpi\n      dup3\n      swap1\n      sub\n      0x1f\n      and\n      dup3\n      add\n      swap2\n    tag_425:\n      pop\n      pop\n      pop\n      pop\n      pop\n      swap1\n      dup1\n      0x03\n      add\n      sload\n      swap1\n      dup1\n      0x05\n      add\n      0x00\n      swap1\n      sload\n      swap1\n      0x0100\n      exp\n      swap1\n      div\n      0xff\n      and\n      swap1\n      pop\n      dup6\n      jump\t// out\n        /* \"Cloudy-Blockchain/contracts/NewCloudy.sol\":1274:1321  mapping(bytes32 => bool) public OwnerToFileHash */\n    tag_110:\n      mstore(0x20, 0x06)\n      dup1\n      0x00\n      mstore\n      keccak256(0x00, 0x40)\n      0x00\n      swap2\n      pop\n      sload\n      swap1\n      0x0100\n      exp\n      swap1\n      div\n      0xff\n      and\n      dup2\n      jump\t// out\n        /* \"Cloudy-Blockchain/contracts/NewCloudy.sol\":16744:17093  function getStorageProviderDetails(address _storageProvider) external view returns (bytes32, address, uint256, uint256, bool) {... */\n    tag_115:\n        /* \"Cloudy-Blockchain/contracts/NewCloudy.sol\":16828:16835  bytes32 */\n      0x00\n        /* \"Cloudy-Blockchain/contracts/NewCloudy.sol\":16837:16844  address */\n      dup1\n        /* \"Cloudy-Blockchain/contracts/NewCloudy.sol\":16846:16853  uint256 */\n      0x00\n        /* \"Cloudy-Blockchain/contracts/NewCloudy.sol\":16855:16862  uint256 */\n      dup1\n        /* \"Cloudy-Blockchain/contracts/NewCloudy.sol\":16864:16868  bool */\n      0x00\n        /* \"Cloudy-Blockchain/contracts/NewCloudy.sol\":16881:16913  StorageProvider storage provider */\n      dup1\n        /* \"Cloudy-Blockchain/contracts/NewCloudy.sol\":16916:16931  providerDetails */\n      0x03\n        /* \"Cloudy-Blockchain/contracts/NewCloudy.sol\":16916:16949  providerDetails[_storageProvider] */\n      0x00\n        /* \"Cloudy-Blockchain/contracts/NewCloudy.sol\":16932:16948  _storageProvider */\n      dup9\n        /* \"Cloudy-Blockchain/contracts/NewCloudy.sol\":16916:16949  providerDetails[_storageProvider] */\n      0xffffffffffffffffffffffffffffffffffffffff\n      and\n      0xffffffffffffffffffffffffffffffffffffffff\n      and\n      dup2\n      mstore\n      0x20\n      add\n      swap1\n      dup2\n      mstore\n      0x20\n      add\n      0x00\n      keccak256\n        /* \"Cloudy-Blockchain/contracts/NewCloudy.sol\":16881:16949  StorageProvider storage provider = providerDetails[_storageProvider] */\n      swap1\n      pop\n        /* \"Cloudy-Blockchain/contracts/NewCloudy.sol\":16968:16976  provider */\n      dup1\n        /* \"Cloudy-Blockchain/contracts/NewCloudy.sol\":16968:16979  provider.ip */\n      0x00\n      add\n      sload\n        /* \"Cloudy-Blockchain/contracts/NewCloudy.sol\":16981:16989  provider */\n      dup2\n        /* \"Cloudy-Blockchain/contracts/NewCloudy.sol\":16981:17003  provider.walletAddress */\n      0x01\n      add\n      0x00\n      swap1\n      sload\n      swap1\n      0x0100\n      exp\n      swap1\n      div\n      0xffffffffffffffffffffffffffffffffffffffff\n      and\n        /* \"Cloudy-Blockchain/contracts/NewCloudy.sol\":17005:17013  provider */\n      dup3\n        /* \"Cloudy-Blockchain/contracts/NewCloudy.sol\":17005:17035  provider.availableStorageSpace */\n      0x02\n      add\n      sload\n        /* \"Cloudy-Blockchain/contracts/NewCloudy.sol\":17037:17045  provider */\n      dup4\n        /* \"Cloudy-Blockchain/contracts/NewCloudy.sol\":17037:17064  provider.maximumStorageSize */\n      0x03\n      add\n      sload\n        /* \"Cloudy-Blockchain/contracts/NewCloudy.sol\":17066:17074  provider */\n      dup5\n        /* \"Cloudy-Blockchain/contracts/NewCloudy.sol\":17066:17084  provider.isStoring */\n      0x04\n      add\n      0x00\n      swap1\n      sload\n      swap1\n      0x0100\n      exp\n      swap1\n      div\n      0xff\n      and\n        /* \"Cloudy-Blockchain/contracts/NewCloudy.sol\":16960:17085  return (provider.ip, provider.walletAddress, provider.availableStorageSpace, provider.maximumStorageSize, provider.isStoring) */\n      swap6\n      pop\n      swap6\n      pop\n      swap6\n      pop\n      swap6\n      pop\n      swap6\n      pop\n      pop\n        /* \"Cloudy-Blockchain/contracts/NewCloudy.sol\":16744:17093  function getStorageProviderDetails(address _storageProvider) external view returns (bytes32, address, uint256, uint256, bool) {... */\n      swap2\n      swap4\n      swap6\n      swap1\n      swap3\n      swap5\n      pop\n      jump\t// out\n        /* \"Cloudy-Blockchain/contracts/NewCloudy.sol\":818:871  mapping(address => uint256[]) public storageProviders */\n    tag_119:\n      mstore(0x20, 0x02)\n      dup2\n      0x00\n      mstore\n      keccak256(0x00, 0x40)\n      dup2\n      dup2\n      sload\n      dup2\n      lt\n      tag_429\n      jumpi\n      0x00\n      dup1\n      revert\n    tag_429:\n      swap1\n      0x00\n      mstore\n      keccak256(0x00, 0x20)\n      add\n      0x00\n      swap2\n      pop\n      swap2\n      pop\n      pop\n      sload\n      dup2\n      jump\t// out\n        /* \"Cloudy-Blockchain/contracts/NewCloudy.sol\":17677:17802  function getStorageProvidersWithSpace() external view returns (address[] memory) {... */\n    tag_122:\n        /* \"Cloudy-Blockchain/contracts/NewCloudy.sol\":17740:17756  address[] memory */\n      0x60\n        /* \"Cloudy-Blockchain/contracts/NewCloudy.sol\":17776:17794  providersWithSpace */\n      0x07\n        /* \"Cloudy-Blockchain/contracts/NewCloudy.sol\":17769:17794  return providersWithSpace */\n      dup1\n      sload\n      dup1\n      0x20\n      mul\n      0x20\n      add\n      mload(0x40)\n      swap1\n      dup2\n      add\n      0x40\n      mstore\n      dup1\n      swap3\n      swap2\n      swap1\n      dup2\n      dup2\n      mstore\n      0x20\n      add\n      dup3\n      dup1\n      sload\n      dup1\n      iszero\n      tag_432\n      jumpi\n      0x20\n      mul\n      dup3\n      add\n      swap2\n      swap1\n      0x00\n      mstore\n      keccak256(0x00, 0x20)\n      swap1\n    tag_433:\n      dup2\n      0x00\n      swap1\n      sload\n      swap1\n      0x0100\n      exp\n      swap1\n      div\n      0xffffffffffffffffffffffffffffffffffffffff\n      and\n      0xffffffffffffffffffffffffffffffffffffffff\n      and\n      dup2\n      mstore\n      0x20\n      add\n      swap1\n      0x01\n      add\n      swap1\n      dup1\n      dup4\n      gt\n      tag_433\n      jumpi\n    tag_432:\n      pop\n      pop\n      pop\n      pop\n      pop\n      swap1\n      pop\n        /* \"Cloudy-Blockchain/contracts/NewCloudy.sol\":17677:17802  function getStorageProvidersWithSpace() external view returns (address[] memory) {... */\n      swap1\n      jump\t// out\n        /* \"Cloudy-Blockchain/contracts/NewCloudy.sol\":17401:17525  function getOwnerFiles(address _owner) external view returns (bytes32[] memory) {... */\n    tag_126:\n        /* \"Cloudy-Blockchain/contracts/NewCloudy.sol\":17463:17479  bytes32[] memory */\n      0x60\n        /* \"Cloudy-Blockchain/contracts/NewCloudy.sol\":17499:17509  ownerFiles */\n      0x04\n        /* \"Cloudy-Blockchain/contracts/NewCloudy.sol\":17499:17517  ownerFiles[_owner] */\n      0x00\n        /* \"Cloudy-Blockchain/contracts/NewCloudy.sol\":17510:17516  _owner */\n      dup4\n        /* \"Cloudy-Blockchain/contracts/NewCloudy.sol\":17499:17517  ownerFiles[_owner] */\n      0xffffffffffffffffffffffffffffffffffffffff\n      and\n      0xffffffffffffffffffffffffffffffffffffffff\n      and\n      dup2\n      mstore\n      0x20\n      add\n      swap1\n      dup2\n      mstore\n      0x20\n      add\n      0x00\n      keccak256\n        /* \"Cloudy-Blockchain/contracts/NewCloudy.sol\":17492:17517  return ownerFiles[_owner] */\n      dup1\n      sload\n      dup1\n      0x20\n      mul\n      0x20\n      add\n      mload(0x40)\n      swap1\n      dup2\n      add\n      0x40\n      mstore\n      dup1\n      swap3\n      swap2\n      swap1\n      dup2\n      dup2\n      mstore\n      0x20\n      add\n      dup3\n      dup1\n      sload\n      dup1\n      iszero\n      tag_435\n      jumpi\n      0x20\n      mul\n      dup3\n      add\n      swap2\n      swap1\n      0x00\n      mstore\n      keccak256(0x00, 0x20)\n      swap1\n    tag_436:\n      dup2\n      sload\n      dup2\n      mstore\n      0x20\n      add\n      swap1\n      0x01\n      add\n      swap1\n      dup1\n      dup4\n      gt\n      tag_436\n      jumpi\n    tag_435:\n      pop\n      pop\n      pop\n      pop\n      pop\n      swap1\n      pop\n        /* \"Cloudy-Blockchain/contracts/NewCloudy.sol\":17401:17525  function getOwnerFiles(address _owner) external view returns (bytes32[] memory) {... */\n      swap2\n      swap1\n      pop\n      jump\t// out\n        /* \"Cloudy-Blockchain/contracts/NewCloudy.sol\":17537:17665  function getShardFiles(uint256 _shardId) external view returns (uint256[] memory) {... */\n    tag_131:\n        /* \"Cloudy-Blockchain/contracts/NewCloudy.sol\":17601:17617  uint256[] memory */\n      0x60\n        /* \"Cloudy-Blockchain/contracts/NewCloudy.sol\":17637:17647  fileShards */\n      0x05\n        /* \"Cloudy-Blockchain/contracts/NewCloudy.sol\":17637:17657  fileShards[_shardId] */\n      0x00\n        /* \"Cloudy-Blockchain/contracts/NewCloudy.sol\":17648:17656  _shardId */\n      dup4\n        /* \"Cloudy-Blockchain/contracts/NewCloudy.sol\":17637:17657  fileShards[_shardId] */\n      dup2\n      mstore\n      0x20\n      add\n      swap1\n      dup2\n      mstore\n      0x20\n      add\n      0x00\n      keccak256\n        /* \"Cloudy-Blockchain/contracts/NewCloudy.sol\":17630:17657  return fileShards[_shardId] */\n      dup1\n      sload\n      dup1\n      0x20\n      mul\n      0x20\n      add\n      mload(0x40)\n      swap1\n      dup2\n      add\n      0x40\n      mstore\n      dup1\n      swap3\n      swap2\n      swap1\n      dup2\n      dup2\n      mstore\n      0x20\n      add\n      dup3\n      dup1\n      sload\n      dup1\n      iszero\n      tag_438\n      jumpi\n      0x20\n      mul\n      dup3\n      add\n      swap2\n      swap1\n      0x00\n      mstore\n      keccak256(0x00, 0x20)\n      swap1\n    tag_439:\n      dup2\n      sload\n      dup2\n      mstore\n      0x20\n      add\n      swap1\n      0x01\n      add\n      swap1\n      dup1\n      dup4\n      gt\n      tag_439\n      jumpi\n    tag_438:\n      pop\n      pop\n      pop\n      pop\n      pop\n      swap1\n      pop\n        /* \"Cloudy-Blockchain/contracts/NewCloudy.sol\":17537:17665  function getShardFiles(uint256 _shardId) external view returns (uint256[] memory) {... */\n      swap2\n      swap1\n      pop\n      jump\t// out\n        /* \"Cloudy-Blockchain/contracts/NewCloudy.sol\":10783:11174  function registerStorageProvider(bytes32 _ip, address _walletAddress, uint256 _availableStorageSpace, uint256 _maximumStorageSize) external {... */\n    tag_137:\n        /* \"Cloudy-Blockchain/contracts/NewCloudy.sol\":10964:11052  StorageProvider(_ip, _walletAddress, _availableStorageSpace, _maximumStorageSize, false) */\n      mload(0x40)\n      dup1\n      0xa0\n      add\n      0x40\n      mstore\n      dup1\n        /* \"Cloudy-Blockchain/contracts/NewCloudy.sol\":10980:10983  _ip */\n      dup6\n        /* \"Cloudy-Blockchain/contracts/NewCloudy.sol\":10964:11052  StorageProvider(_ip, _walletAddress, _availableStorageSpace, _maximumStorageSize, false) */\n      dup2\n      mstore\n      0x20\n      add\n        /* \"Cloudy-Blockchain/contracts/NewCloudy.sol\":10985:10999  _walletAddress */\n      dup5\n        /* \"Cloudy-Blockchain/contracts/NewCloudy.sol\":10964:11052  StorageProvider(_ip, _walletAddress, _availableStorageSpace, _maximumStorageSize, false) */\n      0xffffffffffffffffffffffffffffffffffffffff\n      and\n      dup2\n      mstore\n      0x20\n      add\n        /* \"Cloudy-Blockchain/contracts/NewCloudy.sol\":11001:11023  _availableStorageSpace */\n      dup4\n        /* \"Cloudy-Blockchain/contracts/NewCloudy.sol\":10964:11052  StorageProvider(_ip, _walletAddress, _availableStorageSpace, _maximumStorageSize, false) */\n      dup2\n      mstore\n      0x20\n      add\n        /* \"Cloudy-Blockchain/contracts/NewCloudy.sol\":11025:11044  _maximumStorageSize */\n      dup3\n        /* \"Cloudy-Blockchain/contracts/NewCloudy.sol\":10964:11052  StorageProvider(_ip, _walletAddress, _availableStorageSpace, _maximumStorageSize, false) */\n      dup2\n      mstore\n      0x20\n      add\n        /* \"Cloudy-Blockchain/contracts/NewCloudy.sol\":11046:11051  false */\n      0x00\n        /* \"Cloudy-Blockchain/contracts/NewCloudy.sol\":10964:11052  StorageProvider(_ip, _walletAddress, _availableStorageSpace, _maximumStorageSize, false) */\n      iszero\n      iszero\n      dup2\n      mstore\n      pop\n        /* \"Cloudy-Blockchain/contracts/NewCloudy.sol\":10934:10949  providerDetails */\n      0x03\n        /* \"Cloudy-Blockchain/contracts/NewCloudy.sol\":10934:10961  providerDetails[msg.sender] */\n      0x00\n        /* \"Cloudy-Blockchain/contracts/NewCloudy.sol\":10950:10960  msg.sender */\n      caller\n        /* \"Cloudy-Blockchain/contracts/NewCloudy.sol\":10934:10961  providerDetails[msg.sender] */\n      0xffffffffffffffffffffffffffffffffffffffff\n      and\n      0xffffffffffffffffffffffffffffffffffffffff\n      and\n      dup2\n      mstore\n      0x20\n      add\n      swap1\n      dup2\n      mstore\n      0x20\n      add\n      0x00\n      keccak256\n        /* \"Cloudy-Blockchain/contracts/NewCloudy.sol\":10934:11052  providerDetails[msg.sender] = StorageProvider(_ip, _walletAddress, _availableStorageSpace, _maximumStorageSize, false) */\n      0x00\n      dup3\n      add\n      mload\n      dup2\n      0x00\n      add\n      sstore\n      0x20\n      dup3\n      add\n      mload\n      dup2\n      0x01\n      add\n      exp(0x0100, 0x00)\n      dup2\n      sload\n      dup2\n      0xffffffffffffffffffffffffffffffffffffffff\n      mul\n      not\n      and\n      swap1\n      dup4\n      0xffffffffffffffffffffffffffffffffffffffff\n      and\n      mul\n      or\n      swap1\n      sstore\n      pop\n      0x40\n      dup3\n      add\n      mload\n      dup2\n      0x02\n      add\n      sstore\n      0x60\n      dup3\n      add\n      mload\n      dup2\n      0x03\n      add\n      sstore\n      0x80\n      dup3\n      add\n      mload\n      dup2\n      0x04\n      add\n      exp(0x0100, 0x00)\n      dup2\n      sload\n      dup2\n      0xff\n      mul\n      not\n      and\n      swap1\n      dup4\n      iszero\n      iszero\n      mul\n      or\n      swap1\n      sstore\n      pop\n      swap1\n      pop\n      pop\n        /* \"Cloudy-Blockchain/contracts/NewCloudy.sol\":11102:11103  0 */\n      0x00\n        /* \"Cloudy-Blockchain/contracts/NewCloudy.sol\":11077:11099  _availableStorageSpace */\n      dup3\n        /* \"Cloudy-Blockchain/contracts/NewCloudy.sol\":11077:11103  _availableStorageSpace > 0 */\n      gt\n        /* \"Cloudy-Blockchain/contracts/NewCloudy.sol\":11073:11167  if (_availableStorageSpace > 0) {... */\n      iszero\n      tag_441\n      jumpi\n        /* \"Cloudy-Blockchain/contracts/NewCloudy.sol\":11120:11138  providersWithSpace */\n      0x07\n        /* \"Cloudy-Blockchain/contracts/NewCloudy.sol\":11144:11154  msg.sender */\n      caller\n        /* \"Cloudy-Blockchain/contracts/NewCloudy.sol\":11120:11155  providersWithSpace.push(msg.sender) */\n      swap1\n      dup1\n      0x01\n      dup2\n      sload\n      add\n      dup1\n      dup3\n      sstore\n      dup1\n      swap2\n      pop\n      pop\n      0x01\n      swap1\n      sub\n      swap1\n      0x00\n      mstore\n      keccak256(0x00, 0x20)\n      add\n      0x00\n      swap1\n      swap2\n      swap1\n      swap2\n      swap1\n      swap2\n      0x0100\n      exp\n      dup2\n      sload\n      dup2\n      0xffffffffffffffffffffffffffffffffffffffff\n      mul\n      not\n      and\n      swap1\n      dup4\n      0xffffffffffffffffffffffffffffffffffffffff\n      and\n      mul\n      or\n      swap1\n      sstore\n      pop\n        /* \"Cloudy-Blockchain/contracts/NewCloudy.sol\":11073:11167  if (_availableStorageSpace > 0) {... */\n    tag_441:\n        /* \"Cloudy-Blockchain/contracts/NewCloudy.sol\":10783:11174  function registerStorageProvider(bytes32 _ip, address _walletAddress, uint256 _availableStorageSpace, uint256 _maximumStorageSize) external {... */\n      pop\n      pop\n      pop\n      pop\n      jump\t// out\n        /* \"Cloudy-Blockchain/contracts/NewCloudy.sol\":1150:1197  mapping(uint256 => uint256[]) public fileShards */\n    tag_141:\n      mstore(0x20, 0x05)\n      dup2\n      0x00\n      mstore\n      keccak256(0x00, 0x40)\n      dup2\n      dup2\n      sload\n      dup2\n      lt\n      tag_443\n      jumpi\n      0x00\n      dup1\n      revert\n    tag_443:\n      swap1\n      0x00\n      mstore\n      keccak256(0x00, 0x20)\n      add\n      0x00\n      swap2\n      pop\n      swap2\n      pop\n      pop\n      sload\n      dup2\n      jump\t// out\n        /* \"Cloudy-Blockchain/contracts/NewCloudy.sol\":1015:1062  mapping(address => bytes32[]) public ownerFiles */\n    tag_145:\n      mstore(0x20, 0x04)\n      dup2\n      0x00\n      mstore\n      keccak256(0x00, 0x40)\n      dup2\n      dup2\n      sload\n      dup2\n      lt\n      tag_445\n      jumpi\n      0x00\n      dup1\n      revert\n    tag_445:\n      swap1\n      0x00\n      mstore\n      keccak256(0x00, 0x20)\n      add\n      0x00\n      swap2\n      pop\n      swap2\n      pop\n      pop\n      sload\n      dup2\n      jump\t// out\n        /* \"Cloudy-Blockchain/contracts/NewCloudy.sol\":1733:1760  uint256 public rewardAmount */\n    tag_149:\n      sload(0x0a)\n      dup2\n      jump\t// out\n        /* \"Cloudy-Blockchain/contracts/NewCloudy.sol\":9559:9715  function isShardValid(uint256 _shardId) internal view returns (bool) {... */\n    tag_200:\n        /* \"Cloudy-Blockchain/contracts/NewCloudy.sol\":9622:9626  bool */\n      0x00\n        /* \"Cloudy-Blockchain/contracts/NewCloudy.sol\":9639:9658  Shard storage shard */\n      dup1\n        /* \"Cloudy-Blockchain/contracts/NewCloudy.sol\":9661:9667  shards */\n      0x00\n        /* \"Cloudy-Blockchain/contracts/NewCloudy.sol\":9661:9677  shards[_shardId] */\n      dup1\n        /* \"Cloudy-Blockchain/contracts/NewCloudy.sol\":9668:9676  _shardId */\n      dup5\n        /* \"Cloudy-Blockchain/contracts/NewCloudy.sol\":9661:9677  shards[_shardId] */\n      dup2\n      mstore\n      0x20\n      add\n      swap1\n      dup2\n      mstore\n      0x20\n      add\n      0x00\n      keccak256\n        /* \"Cloudy-Blockchain/contracts/NewCloudy.sol\":9639:9677  Shard storage shard = shards[_shardId] */\n      swap1\n      pop\n        /* \"Cloudy-Blockchain/contracts/NewCloudy.sol\":9695:9700  shard */\n      dup1\n        /* \"Cloudy-Blockchain/contracts/NewCloudy.sol\":9695:9707  shard.exists */\n      0x04\n      add\n      0x00\n      swap1\n      sload\n      swap1\n      0x0100\n      exp\n      swap1\n      div\n      0xff\n      and\n        /* \"Cloudy-Blockchain/contracts/NewCloudy.sol\":9688:9707  return shard.exists */\n      swap2\n      pop\n      pop\n        /* \"Cloudy-Blockchain/contracts/NewCloudy.sol\":9559:9715  function isShardValid(uint256 _shardId) internal view returns (bool) {... */\n      swap2\n      swap1\n      pop\n      jump\t// out\n        /* \"Cloudy-Blockchain/contracts/NewCloudy.sol\":9814:10156  function payReward(address _storageProvider) internal {... */\n    tag_205:\n        /* \"Cloudy-Blockchain/contracts/NewCloudy.sol\":9912:9924  rewardAmount */\n      sload(0x0a)\n        /* \"Cloudy-Blockchain/contracts/NewCloudy.sol\":9887:9908  address(this).balance */\n      selfbalance\n        /* \"Cloudy-Blockchain/contracts/NewCloudy.sol\":9887:9924  address(this).balance >= rewardAmount */\n      lt\n      iszero\n        /* \"Cloudy-Blockchain/contracts/NewCloudy.sol\":9879:9958  require(address(this).balance >= rewardAmount, \"Insufficient contract balance\") */\n      tag_449\n      jumpi\n      mload(0x40)\n      0x08c379a000000000000000000000000000000000000000000000000000000000\n      dup2\n      mstore\n      0x04\n      add\n      tag_450\n      swap1\n      tag_451\n      jump\t// in\n    tag_450:\n      mload(0x40)\n      dup1\n      swap2\n      sub\n      swap1\n      revert\n    tag_449:\n        /* \"Cloudy-Blockchain/contracts/NewCloudy.sol\":9972:9984  bool success */\n      0x00\n        /* \"Cloudy-Blockchain/contracts/NewCloudy.sol\":9990:10006  _storageProvider */\n      dup2\n        /* \"Cloudy-Blockchain/contracts/NewCloudy.sol\":9990:10011  _storageProvider.call */\n      0xffffffffffffffffffffffffffffffffffffffff\n      and\n        /* \"Cloudy-Blockchain/contracts/NewCloudy.sol\":10019:10031  rewardAmount */\n      sload(0x0a)\n        /* \"Cloudy-Blockchain/contracts/NewCloudy.sol\":9990:10036  _storageProvider.call{value: rewardAmount}(\"\") */\n      mload(0x40)\n      tag_452\n      swap1\n      tag_453\n      jump\t// in\n    tag_452:\n      0x00\n      mload(0x40)\n      dup1\n      dup4\n      sub\n      dup2\n      dup6\n      dup8\n      gas\n      call\n      swap3\n      pop\n      pop\n      pop\n      returndatasize\n      dup1\n      0x00\n      dup2\n      eq\n      tag_456\n      jumpi\n      mload(0x40)\n      swap2\n      pop\n      and(add(returndatasize, 0x3f), not(0x1f))\n      dup3\n      add\n      0x40\n      mstore\n      returndatasize\n      dup3\n      mstore\n      returndatasize\n      0x00\n      0x20\n      dup5\n      add\n      returndatacopy\n      jump(tag_455)\n    tag_456:\n      0x60\n      swap2\n      pop\n    tag_455:\n      pop\n        /* \"Cloudy-Blockchain/contracts/NewCloudy.sol\":9971:10036  (bool success, ) = _storageProvider.call{value: rewardAmount}(\"\") */\n      pop\n      swap1\n      pop\n        /* \"Cloudy-Blockchain/contracts/NewCloudy.sol\":10055:10062  success */\n      dup1\n        /* \"Cloudy-Blockchain/contracts/NewCloudy.sol\":10047:10088  require(success, \"Reward payment failed\") */\n      tag_457\n      jumpi\n      mload(0x40)\n      0x08c379a000000000000000000000000000000000000000000000000000000000\n      dup2\n      mstore\n      0x04\n      add\n      tag_458\n      swap1\n      tag_459\n      jump\t// in\n    tag_458:\n      mload(0x40)\n      dup1\n      swap2\n      sub\n      swap1\n      revert\n    tag_457:\n        /* \"Cloudy-Blockchain/contracts/NewCloudy.sol\":10106:10148  RewardPaid(_storageProvider, rewardAmount) */\n      0xe2403640ba68fed3a2f88b7557551d1993f84b99bb10ff833f0cf8db0c5e0486\n        /* \"Cloudy-Blockchain/contracts/NewCloudy.sol\":10117:10133  _storageProvider */\n      dup3\n        /* \"Cloudy-Blockchain/contracts/NewCloudy.sol\":10135:10147  rewardAmount */\n      sload(0x0a)\n        /* \"Cloudy-Blockchain/contracts/NewCloudy.sol\":10106:10148  RewardPaid(_storageProvider, rewardAmount) */\n      mload(0x40)\n      tag_460\n      swap3\n      swap2\n      swap1\n      tag_461\n      jump\t// in\n    tag_460:\n      mload(0x40)\n      dup1\n      swap2\n      sub\n      swap1\n      log1\n        /* \"Cloudy-Blockchain/contracts/NewCloudy.sol\":9868:10156  {... */\n      pop\n        /* \"Cloudy-Blockchain/contracts/NewCloudy.sol\":9814:10156  function payReward(address _storageProvider) internal {... */\n      pop\n      jump\t// out\n        /* \"Cloudy-Blockchain/contracts/NewCloudy.sol\":15069:15633  function removeShardFromProvider(uint256 _shardId) internal {... */\n    tag_342:\n        /* \"Cloudy-Blockchain/contracts/NewCloudy.sol\":15140:15159  Shard storage shard */\n      0x00\n        /* \"Cloudy-Blockchain/contracts/NewCloudy.sol\":15162:15168  shards */\n      dup1\n        /* \"Cloudy-Blockchain/contracts/NewCloudy.sol\":15162:15178  shards[_shardId] */\n      0x00\n        /* \"Cloudy-Blockchain/contracts/NewCloudy.sol\":15169:15177  _shardId */\n      dup4\n        /* \"Cloudy-Blockchain/contracts/NewCloudy.sol\":15162:15178  shards[_shardId] */\n      dup2\n      mstore\n      0x20\n      add\n      swap1\n      dup2\n      mstore\n      0x20\n      add\n      0x00\n      keccak256\n        /* \"Cloudy-Blockchain/contracts/NewCloudy.sol\":15140:15178  Shard storage shard = shards[_shardId] */\n      swap1\n      pop\n        /* \"Cloudy-Blockchain/contracts/NewCloudy.sol\":15189:15212  address storageProvider */\n      0x00\n        /* \"Cloudy-Blockchain/contracts/NewCloudy.sol\":15215:15220  shard */\n      dup2\n        /* \"Cloudy-Blockchain/contracts/NewCloudy.sol\":15215:15236  shard.storageProvider */\n      0x01\n      add\n      0x00\n      swap1\n      sload\n      swap1\n      0x0100\n      exp\n      swap1\n      div\n      0xffffffffffffffffffffffffffffffffffffffff\n      and\n        /* \"Cloudy-Blockchain/contracts/NewCloudy.sol\":15189:15236  address storageProvider = shard.storageProvider */\n      swap1\n      pop\n        /* \"Cloudy-Blockchain/contracts/NewCloudy.sol\":15311:15343  uint256[] storage providerShards */\n      0x00\n        /* \"Cloudy-Blockchain/contracts/NewCloudy.sol\":15346:15362  storageProviders */\n      0x02\n        /* \"Cloudy-Blockchain/contracts/NewCloudy.sol\":15346:15379  storageProviders[storageProvider] */\n      0x00\n        /* \"Cloudy-Blockchain/contracts/NewCloudy.sol\":15363:15378  storageProvider */\n      dup4\n        /* \"Cloudy-Blockchain/contracts/NewCloudy.sol\":15346:15379  storageProviders[storageProvider] */\n      0xffffffffffffffffffffffffffffffffffffffff\n      and\n      0xffffffffffffffffffffffffffffffffffffffff\n      and\n      dup2\n      mstore\n      0x20\n      add\n      swap1\n      dup2\n      mstore\n      0x20\n      add\n      0x00\n      keccak256\n        /* \"Cloudy-Blockchain/contracts/NewCloudy.sol\":15311:15379  uint256[] storage providerShards = storageProviders[storageProvider] */\n      swap1\n      pop\n        /* \"Cloudy-Blockchain/contracts/NewCloudy.sol\":15395:15404  uint256 i */\n      0x00\n        /* \"Cloudy-Blockchain/contracts/NewCloudy.sol\":15390:15586  for (uint256 i = 0; i < providerShards.length; i++) {... */\n    tag_463:\n        /* \"Cloudy-Blockchain/contracts/NewCloudy.sol\":15414:15428  providerShards */\n      dup2\n        /* \"Cloudy-Blockchain/contracts/NewCloudy.sol\":15414:15435  providerShards.length */\n      dup1\n      sload\n      swap1\n      pop\n        /* \"Cloudy-Blockchain/contracts/NewCloudy.sol\":15410:15411  i */\n      dup2\n        /* \"Cloudy-Blockchain/contracts/NewCloudy.sol\":15410:15435  i < providerShards.length */\n      lt\n        /* \"Cloudy-Blockchain/contracts/NewCloudy.sol\":15390:15586  for (uint256 i = 0; i < providerShards.length; i++) {... */\n      iszero\n      tag_464\n      jumpi\n        /* \"Cloudy-Blockchain/contracts/NewCloudy.sol\":15482:15490  _shardId */\n      dup5\n        /* \"Cloudy-Blockchain/contracts/NewCloudy.sol\":15461:15475  providerShards */\n      dup3\n        /* \"Cloudy-Blockchain/contracts/NewCloudy.sol\":15476:15477  i */\n      dup3\n        /* \"Cloudy-Blockchain/contracts/NewCloudy.sol\":15461:15478  providerShards[i] */\n      dup2\n      sload\n      dup2\n      lt\n      tag_466\n      jumpi\n      tag_467\n      tag_165\n      jump\t// in\n    tag_467:\n    tag_466:\n      swap1\n      0x00\n      mstore\n      keccak256(0x00, 0x20)\n      add\n      sload\n        /* \"Cloudy-Blockchain/contracts/NewCloudy.sol\":15461:15490  providerShards[i] == _shardId */\n      sub\n        /* \"Cloudy-Blockchain/contracts/NewCloudy.sol\":15457:15575  if (providerShards[i] == _shardId) {... */\n      tag_469\n      jumpi\n        /* \"Cloudy-Blockchain/contracts/NewCloudy.sol\":15518:15532  providerShards */\n      dup2\n        /* \"Cloudy-Blockchain/contracts/NewCloudy.sol\":15533:15534  i */\n      dup2\n        /* \"Cloudy-Blockchain/contracts/NewCloudy.sol\":15518:15535  providerShards[i] */\n      dup2\n      sload\n      dup2\n      lt\n      tag_470\n      jumpi\n      tag_471\n      tag_165\n      jump\t// in\n    tag_471:\n    tag_470:\n      swap1\n      0x00\n      mstore\n      keccak256(0x00, 0x20)\n      add\n        /* \"Cloudy-Blockchain/contracts/NewCloudy.sol\":15511:15535  delete providerShards[i] */\n      0x00\n      swap1\n      sstore\n        /* \"Cloudy-Blockchain/contracts/NewCloudy.sol\":15554:15559  break */\n      jump(tag_464)\n        /* \"Cloudy-Blockchain/contracts/NewCloudy.sol\":15457:15575  if (providerShards[i] == _shardId) {... */\n    tag_469:\n        /* \"Cloudy-Blockchain/contracts/NewCloudy.sol\":15437:15440  i++ */\n      dup1\n      dup1\n      tag_473\n      swap1\n      tag_169\n      jump\t// in\n    tag_473:\n      swap2\n      pop\n      pop\n        /* \"Cloudy-Blockchain/contracts/NewCloudy.sol\":15390:15586  for (uint256 i = 0; i < providerShards.length; i++) {... */\n      jump(tag_463)\n    tag_464:\n      pop\n        /* \"Cloudy-Blockchain/contracts/NewCloudy.sol\":15603:15625  ShardDeleted(_shardId) */\n      0xf6a2d10319800c3ecf3244c17904ea5f3026e430b4417ee5ec5baa464e8f9b0c\n        /* \"Cloudy-Blockchain/contracts/NewCloudy.sol\":15616:15624  _shardId */\n      dup5\n        /* \"Cloudy-Blockchain/contracts/NewCloudy.sol\":15603:15625  ShardDeleted(_shardId) */\n      mload(0x40)\n      tag_474\n      swap2\n      swap1\n      tag_69\n      jump\t// in\n    tag_474:\n      mload(0x40)\n      dup1\n      swap2\n      sub\n      swap1\n      log1\n        /* \"Cloudy-Blockchain/contracts/NewCloudy.sol\":15129:15633  {... */\n      pop\n      pop\n      pop\n        /* \"Cloudy-Blockchain/contracts/NewCloudy.sol\":15069:15633  function removeShardFromProvider(uint256 _shardId) internal {... */\n      pop\n      jump\t// out\n        /* \"Cloudy-Blockchain/contracts/NewCloudy.sol\":5220:5656  function createShard(bytes memory _shardData, address _storageProvider) internal returns (uint256)... */\n    tag_377:\n        /* \"Cloudy-Blockchain/contracts/NewCloudy.sol\":5310:5317  uint256 */\n      0x00\n        /* \"Cloudy-Blockchain/contracts/NewCloudy.sol\":5335:5350  uint256 shardId */\n      dup1\n        /* \"Cloudy-Blockchain/contracts/NewCloudy.sol\":5353:5365  shardCounter */\n      sload(0x09)\n        /* \"Cloudy-Blockchain/contracts/NewCloudy.sol\":5335:5365  uint256 shardId = shardCounter */\n      swap1\n      pop\n        /* \"Cloudy-Blockchain/contracts/NewCloudy.sol\":5394:5461  Shard(shardId, _storageProvider, block.timestamp, _shardData, true) */\n      mload(0x40)\n      dup1\n      0xa0\n      add\n      0x40\n      mstore\n      dup1\n        /* \"Cloudy-Blockchain/contracts/NewCloudy.sol\":5400:5407  shardId */\n      dup3\n        /* \"Cloudy-Blockchain/contracts/NewCloudy.sol\":5394:5461  Shard(shardId, _storageProvider, block.timestamp, _shardData, true) */\n      dup2\n      mstore\n      0x20\n      add\n        /* \"Cloudy-Blockchain/contracts/NewCloudy.sol\":5409:5425  _storageProvider */\n      dup5\n        /* \"Cloudy-Blockchain/contracts/NewCloudy.sol\":5394:5461  Shard(shardId, _storageProvider, block.timestamp, _shardData, true) */\n      0xffffffffffffffffffffffffffffffffffffffff\n      and\n      dup2\n      mstore\n      0x20\n      add\n        /* \"Cloudy-Blockchain/contracts/NewCloudy.sol\":5427:5442  block.timestamp */\n      timestamp\n        /* \"Cloudy-Blockchain/contracts/NewCloudy.sol\":5394:5461  Shard(shardId, _storageProvider, block.timestamp, _shardData, true) */\n      dup2\n      mstore\n      0x20\n      add\n        /* \"Cloudy-Blockchain/contracts/NewCloudy.sol\":5444:5454  _shardData */\n      dup6\n        /* \"Cloudy-Blockchain/contracts/NewCloudy.sol\":5394:5461  Shard(shardId, _storageProvider, block.timestamp, _shardData, true) */\n      dup2\n      mstore\n      0x20\n      add\n        /* \"Cloudy-Blockchain/contracts/NewCloudy.sol\":5456:5460  true */\n      0x01\n        /* \"Cloudy-Blockchain/contracts/NewCloudy.sol\":5394:5461  Shard(shardId, _storageProvider, block.timestamp, _shardData, true) */\n      iszero\n      iszero\n      dup2\n      mstore\n      pop\n        /* \"Cloudy-Blockchain/contracts/NewCloudy.sol\":5376:5382  shards */\n      0x00\n        /* \"Cloudy-Blockchain/contracts/NewCloudy.sol\":5376:5391  shards[shardId] */\n      dup1\n        /* \"Cloudy-Blockchain/contracts/NewCloudy.sol\":5383:5390  shardId */\n      dup4\n        /* \"Cloudy-Blockchain/contracts/NewCloudy.sol\":5376:5391  shards[shardId] */\n      dup2\n      mstore\n      0x20\n      add\n      swap1\n      dup2\n      mstore\n      0x20\n      add\n      0x00\n      keccak256\n        /* \"Cloudy-Blockchain/contracts/NewCloudy.sol\":5376:5461  shards[shardId] = Shard(shardId, _storageProvider, block.timestamp, _shardData, true) */\n      0x00\n      dup3\n      add\n      mload\n      dup2\n      0x00\n      add\n      sstore\n      0x20\n      dup3\n      add\n      mload\n      dup2\n      0x01\n      add\n      exp(0x0100, 0x00)\n      dup2\n      sload\n      dup2\n      0xffffffffffffffffffffffffffffffffffffffff\n      mul\n      not\n      and\n      swap1\n      dup4\n      0xffffffffffffffffffffffffffffffffffffffff\n      and\n      mul\n      or\n      swap1\n      sstore\n      pop\n      0x40\n      dup3\n      add\n      mload\n      dup2\n      0x02\n      add\n      sstore\n      0x60\n      dup3\n      add\n      mload\n      dup2\n      0x03\n      add\n      swap1\n      dup2\n      tag_476\n      swap2\n      swap1\n      tag_477\n      jump\t// in\n    tag_476:\n      pop\n      0x80\n      dup3\n      add\n      mload\n      dup2\n      0x04\n      add\n      exp(0x0100, 0x00)\n      dup2\n      sload\n      dup2\n      0xff\n      mul\n      not\n      and\n      swap1\n      dup4\n      iszero\n      iszero\n      mul\n      or\n      swap1\n      sstore\n      pop\n      swap1\n      pop\n      pop\n        /* \"Cloudy-Blockchain/contracts/NewCloudy.sol\":5472:5488  storageProviders */\n      0x02\n        /* \"Cloudy-Blockchain/contracts/NewCloudy.sol\":5472:5506  storageProviders[_storageProvider] */\n      0x00\n        /* \"Cloudy-Blockchain/contracts/NewCloudy.sol\":5489:5505  _storageProvider */\n      dup5\n        /* \"Cloudy-Blockchain/contracts/NewCloudy.sol\":5472:5506  storageProviders[_storageProvider] */\n      0xffffffffffffffffffffffffffffffffffffffff\n      and\n      0xffffffffffffffffffffffffffffffffffffffff\n      and\n      dup2\n      mstore\n      0x20\n      add\n      swap1\n      dup2\n      mstore\n      0x20\n      add\n      0x00\n      keccak256\n        /* \"Cloudy-Blockchain/contracts/NewCloudy.sol\":5512:5519  shardId */\n      dup2\n        /* \"Cloudy-Blockchain/contracts/NewCloudy.sol\":5472:5520  storageProviders[_storageProvider].push(shardId) */\n      swap1\n      dup1\n      0x01\n      dup2\n      sload\n      add\n      dup1\n      dup3\n      sstore\n      dup1\n      swap2\n      pop\n      pop\n      0x01\n      swap1\n      sub\n      swap1\n      0x00\n      mstore\n      keccak256(0x00, 0x20)\n      add\n      0x00\n      swap1\n      swap2\n      swap1\n      swap2\n      swap1\n      swap2\n      pop\n      sstore\n        /* \"Cloudy-Blockchain/contracts/NewCloudy.sol\":5531:5541  fileShards */\n      0x05\n        /* \"Cloudy-Blockchain/contracts/NewCloudy.sol\":5531:5555  fileShards[shardCounter] */\n      0x00\n        /* \"Cloudy-Blockchain/contracts/NewCloudy.sol\":5542:5554  shardCounter */\n      sload(0x09)\n        /* \"Cloudy-Blockchain/contracts/NewCloudy.sol\":5531:5555  fileShards[shardCounter] */\n      dup2\n      mstore\n      0x20\n      add\n      swap1\n      dup2\n      mstore\n      0x20\n      add\n      0x00\n      keccak256\n        /* \"Cloudy-Blockchain/contracts/NewCloudy.sol\":5561:5568  shardId */\n      dup2\n        /* \"Cloudy-Blockchain/contracts/NewCloudy.sol\":5531:5569  fileShards[shardCounter].push(shardId) */\n      swap1\n      dup1\n      0x01\n      dup2\n      sload\n      add\n      dup1\n      dup3\n      sstore\n      dup1\n      swap2\n      pop\n      pop\n      0x01\n      swap1\n      sub\n      swap1\n      0x00\n      mstore\n      keccak256(0x00, 0x20)\n      add\n      0x00\n      swap1\n      swap2\n      swap1\n      swap2\n      swap1\n      swap2\n      pop\n      sstore\n        /* \"Cloudy-Blockchain/contracts/NewCloudy.sol\":5585:5623  ShardStored(shardId, _storageProvider) */\n      0x9126cbe7384024542fde94f05011d7713670628720b50555593f77cc21d1dc8c\n        /* \"Cloudy-Blockchain/contracts/NewCloudy.sol\":5597:5604  shardId */\n      dup2\n        /* \"Cloudy-Blockchain/contracts/NewCloudy.sol\":5606:5622  _storageProvider */\n      dup5\n        /* \"Cloudy-Blockchain/contracts/NewCloudy.sol\":5585:5623  ShardStored(shardId, _storageProvider) */\n      mload(0x40)\n      tag_480\n      swap3\n      swap2\n      swap1\n      tag_228\n      jump\t// in\n    tag_480:\n      mload(0x40)\n      dup1\n      swap2\n      sub\n      swap1\n      log1\n        /* \"Cloudy-Blockchain/contracts/NewCloudy.sol\":5641:5648  shardId */\n      dup1\n        /* \"Cloudy-Blockchain/contracts/NewCloudy.sol\":5634:5648  return shardId */\n      swap2\n      pop\n      pop\n        /* \"Cloudy-Blockchain/contracts/NewCloudy.sol\":5220:5656  function createShard(bytes memory _shardData, address _storageProvider) internal returns (uint256)... */\n      swap3\n      swap2\n      pop\n      pop\n      jump\t// out\n    tag_278:\n      pop\n      dup1\n      sload\n      tag_481\n      swap1\n      tag_153\n      jump\t// in\n    tag_481:\n      0x00\n      dup3\n      sstore\n      dup1\n      0x1f\n      lt\n      tag_483\n      jumpi\n      pop\n      jump(tag_482)\n    tag_483:\n      0x1f\n      add\n      0x20\n      swap1\n      div\n      swap1\n      0x00\n      mstore\n      keccak256(0x00, 0x20)\n      swap1\n      dup2\n      add\n      swap1\n      tag_484\n      swap2\n      swap1\n      tag_485\n      jump\t// in\n    tag_484:\n    tag_482:\n      pop\n      jump\t// out\n    tag_298:\n      pop\n      dup1\n      sload\n      tag_486\n      swap1\n      tag_153\n      jump\t// in\n    tag_486:\n      0x00\n      dup3\n      sstore\n      dup1\n      0x1f\n      lt\n      tag_488\n      jumpi\n      pop\n      jump(tag_487)\n    tag_488:\n      0x1f\n      add\n      0x20\n      swap1\n      div\n      swap1\n      0x00\n      mstore\n      keccak256(0x00, 0x20)\n      swap1\n      dup2\n      add\n      swap1\n      tag_489\n      swap2\n      swap1\n      tag_485\n      jump\t// in\n    tag_489:\n    tag_487:\n      pop\n      jump\t// out\n    tag_301:\n      pop\n      dup1\n      sload\n      0x00\n      dup3\n      sstore\n      swap1\n      0x00\n      mstore\n      keccak256(0x00, 0x20)\n      swap1\n      dup2\n      add\n      swap1\n      tag_491\n      swap2\n      swap1\n      tag_485\n      jump\t// in\n    tag_491:\n      pop\n      jump\t// out\n    tag_385:\n      dup3\n      dup1\n      sload\n      dup3\n      dup3\n      sstore\n      swap1\n      0x00\n      mstore\n      keccak256(0x00, 0x20)\n      swap1\n      dup2\n      add\n      swap3\n      dup3\n      iszero\n      tag_492\n      jumpi\n      swap2\n      0x20\n      mul\n      dup3\n      add\n    tag_493:\n      dup3\n      dup2\n      gt\n      iszero\n      tag_494\n      jumpi\n      dup3\n      mload\n      dup3\n      sstore\n      swap2\n      0x20\n      add\n      swap2\n      swap1\n      0x01\n      add\n      swap1\n      jump(tag_493)\n    tag_494:\n    tag_492:\n      pop\n      swap1\n      pop\n      tag_495\n      swap2\n      swap1\n      tag_485\n      jump\t// in\n    tag_495:\n      pop\n      swap1\n      jump\t// out\n    tag_485:\n    tag_496:\n      dup1\n      dup3\n      gt\n      iszero\n      tag_497\n      jumpi\n      0x00\n      dup2\n      0x00\n      swap1\n      sstore\n      pop\n      0x01\n      add\n      jump(tag_496)\n    tag_497:\n      pop\n      swap1\n      jump\t// out\n        /* \"#utility.yul\":7:82   */\n    tag_498:\n        /* \"#utility.yul\":40:46   */\n      0x00\n        /* \"#utility.yul\":73:75   */\n      0x40\n        /* \"#utility.yul\":67:76   */\n      mload\n        /* \"#utility.yul\":57:76   */\n      swap1\n      pop\n        /* \"#utility.yul\":7:82   */\n      swap1\n      jump\t// out\n        /* \"#utility.yul\":88:205   */\n    tag_499:\n        /* \"#utility.yul\":197:198   */\n      0x00\n        /* \"#utility.yul\":194:195   */\n      dup1\n        /* \"#utility.yul\":187:199   */\n      revert\n        /* \"#utility.yul\":211:328   */\n    tag_500:\n        /* \"#utility.yul\":320:321   */\n      0x00\n        /* \"#utility.yul\":317:318   */\n      dup1\n        /* \"#utility.yul\":310:322   */\n      revert\n        /* \"#utility.yul\":334:411   */\n    tag_501:\n        /* \"#utility.yul\":371:378   */\n      0x00\n        /* \"#utility.yul\":400:405   */\n      dup2\n        /* \"#utility.yul\":389:405   */\n      swap1\n      pop\n        /* \"#utility.yul\":334:411   */\n      swap2\n      swap1\n      pop\n      jump\t// out\n        /* \"#utility.yul\":417:539   */\n    tag_502:\n        /* \"#utility.yul\":490:514   */\n      tag_604\n        /* \"#utility.yul\":508:513   */\n      dup2\n        /* \"#utility.yul\":490:514   */\n      tag_501\n      jump\t// in\n    tag_604:\n        /* \"#utility.yul\":483:488   */\n      dup2\n        /* \"#utility.yul\":480:515   */\n      eq\n        /* \"#utility.yul\":470:533   */\n      tag_605\n      jumpi\n        /* \"#utility.yul\":529:530   */\n      0x00\n        /* \"#utility.yul\":526:527   */\n      dup1\n        /* \"#utility.yul\":519:531   */\n      revert\n        /* \"#utility.yul\":470:533   */\n    tag_605:\n        /* \"#utility.yul\":417:539   */\n      pop\n      jump\t// out\n        /* \"#utility.yul\":545:684   */\n    tag_503:\n        /* \"#utility.yul\":591:596   */\n      0x00\n        /* \"#utility.yul\":629:635   */\n      dup2\n        /* \"#utility.yul\":616:636   */\n      calldataload\n        /* \"#utility.yul\":607:636   */\n      swap1\n      pop\n        /* \"#utility.yul\":645:678   */\n      tag_607\n        /* \"#utility.yul\":672:677   */\n      dup2\n        /* \"#utility.yul\":645:678   */\n      tag_502\n      jump\t// in\n    tag_607:\n        /* \"#utility.yul\":545:684   */\n      swap3\n      swap2\n      pop\n      pop\n      jump\t// out\n        /* \"#utility.yul\":690:1019   */\n    tag_38:\n        /* \"#utility.yul\":749:755   */\n      0x00\n        /* \"#utility.yul\":798:800   */\n      0x20\n        /* \"#utility.yul\":786:795   */\n      dup3\n        /* \"#utility.yul\":777:784   */\n      dup5\n        /* \"#utility.yul\":773:796   */\n      sub\n        /* \"#utility.yul\":769:801   */\n      slt\n        /* \"#utility.yul\":766:885   */\n      iszero\n      tag_609\n      jumpi\n        /* \"#utility.yul\":804:883   */\n      tag_610\n      tag_499\n      jump\t// in\n    tag_610:\n        /* \"#utility.yul\":766:885   */\n    tag_609:\n        /* \"#utility.yul\":924:925   */\n      0x00\n        /* \"#utility.yul\":949:1002   */\n      tag_611\n        /* \"#utility.yul\":994:1001   */\n      dup5\n        /* \"#utility.yul\":985:991   */\n      dup3\n        /* \"#utility.yul\":974:983   */\n      dup6\n        /* \"#utility.yul\":970:992   */\n      add\n        /* \"#utility.yul\":949:1002   */\n      tag_503\n      jump\t// in\n    tag_611:\n        /* \"#utility.yul\":939:1002   */\n      swap2\n      pop\n        /* \"#utility.yul\":895:1012   */\n      pop\n        /* \"#utility.yul\":690:1019   */\n      swap3\n      swap2\n      pop\n      pop\n      jump\t// out\n        /* \"#utility.yul\":1025:1143   */\n    tag_504:\n        /* \"#utility.yul\":1112:1136   */\n      tag_613\n        /* \"#utility.yul\":1130:1135   */\n      dup2\n        /* \"#utility.yul\":1112:1136   */\n      tag_501\n      jump\t// in\n    tag_613:\n        /* \"#utility.yul\":1107:1110   */\n      dup3\n        /* \"#utility.yul\":1100:1137   */\n      mstore\n        /* \"#utility.yul\":1025:1143   */\n      pop\n      pop\n      jump\t// out\n        /* \"#utility.yul\":1149:1275   */\n    tag_505:\n        /* \"#utility.yul\":1186:1193   */\n      0x00\n        /* \"#utility.yul\":1226:1268   */\n      0xffffffffffffffffffffffffffffffffffffffff\n        /* \"#utility.yul\":1219:1224   */\n      dup3\n        /* \"#utility.yul\":1215:1269   */\n      and\n        /* \"#utility.yul\":1204:1269   */\n      swap1\n      pop\n        /* \"#utility.yul\":1149:1275   */\n      swap2\n      swap1\n      pop\n      jump\t// out\n        /* \"#utility.yul\":1281:1377   */\n    tag_506:\n        /* \"#utility.yul\":1318:1325   */\n      0x00\n        /* \"#utility.yul\":1347:1371   */\n      tag_616\n        /* \"#utility.yul\":1365:1370   */\n      dup3\n        /* \"#utility.yul\":1347:1371   */\n      tag_505\n      jump\t// in\n    tag_616:\n        /* \"#utility.yul\":1336:1371   */\n      swap1\n      pop\n        /* \"#utility.yul\":1281:1377   */\n      swap2\n      swap1\n      pop\n      jump\t// out\n        /* \"#utility.yul\":1383:1501   */\n    tag_507:\n        /* \"#utility.yul\":1470:1494   */\n      tag_618\n        /* \"#utility.yul\":1488:1493   */\n      dup2\n        /* \"#utility.yul\":1470:1494   */\n      tag_506\n      jump\t// in\n    tag_618:\n        /* \"#utility.yul\":1465:1468   */\n      dup3\n        /* \"#utility.yul\":1458:1495   */\n      mstore\n        /* \"#utility.yul\":1383:1501   */\n      pop\n      pop\n      jump\t// out\n        /* \"#utility.yul\":1507:1605   */\n    tag_508:\n        /* \"#utility.yul\":1558:1564   */\n      0x00\n        /* \"#utility.yul\":1592:1597   */\n      dup2\n        /* \"#utility.yul\":1586:1598   */\n      mload\n        /* \"#utility.yul\":1576:1598   */\n      swap1\n      pop\n        /* \"#utility.yul\":1507:1605   */\n      swap2\n      swap1\n      pop\n      jump\t// out\n        /* \"#utility.yul\":1611:1779   */\n    tag_509:\n        /* \"#utility.yul\":1694:1705   */\n      0x00\n        /* \"#utility.yul\":1728:1734   */\n      dup3\n        /* \"#utility.yul\":1723:1726   */\n      dup3\n        /* \"#utility.yul\":1716:1735   */\n      mstore\n        /* \"#utility.yul\":1768:1772   */\n      0x20\n        /* \"#utility.yul\":1763:1766   */\n      dup3\n        /* \"#utility.yul\":1759:1773   */\n      add\n        /* \"#utility.yul\":1744:1773   */\n      swap1\n      pop\n        /* \"#utility.yul\":1611:1779   */\n      swap3\n      swap2\n      pop\n      pop\n      jump\t// out\n        /* \"#utility.yul\":1785:2031   */\n    tag_510:\n        /* \"#utility.yul\":1866:1867   */\n      0x00\n        /* \"#utility.yul\":1876:1989   */\n    tag_622:\n        /* \"#utility.yul\":1890:1896   */\n      dup4\n        /* \"#utility.yul\":1887:1888   */\n      dup2\n        /* \"#utility.yul\":1884:1897   */\n      lt\n        /* \"#utility.yul\":1876:1989   */\n      iszero\n      tag_624\n      jumpi\n        /* \"#utility.yul\":1975:1976   */\n      dup1\n        /* \"#utility.yul\":1970:1973   */\n      dup3\n        /* \"#utility.yul\":1966:1977   */\n      add\n        /* \"#utility.yul\":1960:1978   */\n      mload\n        /* \"#utility.yul\":1956:1957   */\n      dup2\n        /* \"#utility.yul\":1951:1954   */\n      dup5\n        /* \"#utility.yul\":1947:1958   */\n      add\n        /* \"#utility.yul\":1940:1979   */\n      mstore\n        /* \"#utility.yul\":1912:1914   */\n      0x20\n        /* \"#utility.yul\":1909:1910   */\n      dup2\n        /* \"#utility.yul\":1905:1915   */\n      add\n        /* \"#utility.yul\":1900:1915   */\n      swap1\n      pop\n        /* \"#utility.yul\":1876:1989   */\n      jump(tag_622)\n    tag_624:\n        /* \"#utility.yul\":2023:2024   */\n      0x00\n        /* \"#utility.yul\":2014:2020   */\n      dup5\n        /* \"#utility.yul\":2009:2012   */\n      dup5\n        /* \"#utility.yul\":2005:2021   */\n      add\n        /* \"#utility.yul\":1998:2025   */\n      mstore\n        /* \"#utility.yul\":1847:2031   */\n      pop\n        /* \"#utility.yul\":1785:2031   */\n      pop\n      pop\n      pop\n      jump\t// out\n        /* \"#utility.yul\":2037:2139   */\n    tag_511:\n        /* \"#utility.yul\":2078:2084   */\n      0x00\n        /* \"#utility.yul\":2129:2131   */\n      0x1f\n        /* \"#utility.yul\":2125:2132   */\n      not\n        /* \"#utility.yul\":2120:2122   */\n      0x1f\n        /* \"#utility.yul\":2113:2118   */\n      dup4\n        /* \"#utility.yul\":2109:2123   */\n      add\n        /* \"#utility.yul\":2105:2133   */\n      and\n        /* \"#utility.yul\":2095:2133   */\n      swap1\n      pop\n        /* \"#utility.yul\":2037:2139   */\n      swap2\n      swap1\n      pop\n      jump\t// out\n        /* \"#utility.yul\":2145:2518   */\n    tag_512:\n        /* \"#utility.yul\":2231:2234   */\n      0x00\n        /* \"#utility.yul\":2259:2297   */\n      tag_627\n        /* \"#utility.yul\":2291:2296   */\n      dup3\n        /* \"#utility.yul\":2259:2297   */\n      tag_508\n      jump\t// in\n    tag_627:\n        /* \"#utility.yul\":2313:2383   */\n      tag_628\n        /* \"#utility.yul\":2376:2382   */\n      dup2\n        /* \"#utility.yul\":2371:2374   */\n      dup6\n        /* \"#utility.yul\":2313:2383   */\n      tag_509\n      jump\t// in\n    tag_628:\n        /* \"#utility.yul\":2306:2383   */\n      swap4\n      pop\n        /* \"#utility.yul\":2392:2457   */\n      tag_629\n        /* \"#utility.yul\":2450:2456   */\n      dup2\n        /* \"#utility.yul\":2445:2448   */\n      dup6\n        /* \"#utility.yul\":2438:2442   */\n      0x20\n        /* \"#utility.yul\":2431:2436   */\n      dup7\n        /* \"#utility.yul\":2427:2443   */\n      add\n        /* \"#utility.yul\":2392:2457   */\n      tag_510\n      jump\t// in\n    tag_629:\n        /* \"#utility.yul\":2482:2511   */\n      tag_630\n        /* \"#utility.yul\":2504:2510   */\n      dup2\n        /* \"#utility.yul\":2482:2511   */\n      tag_511\n      jump\t// in\n    tag_630:\n        /* \"#utility.yul\":2477:2480   */\n      dup5\n        /* \"#utility.yul\":2473:2512   */\n      add\n        /* \"#utility.yul\":2466:2512   */\n      swap2\n      pop\n        /* \"#utility.yul\":2235:2518   */\n      pop\n        /* \"#utility.yul\":2145:2518   */\n      swap3\n      swap2\n      pop\n      pop\n      jump\t// out\n        /* \"#utility.yul\":2524:2614   */\n    tag_513:\n        /* \"#utility.yul\":2558:2565   */\n      0x00\n        /* \"#utility.yul\":2601:2606   */\n      dup2\n        /* \"#utility.yul\":2594:2607   */\n      iszero\n        /* \"#utility.yul\":2587:2608   */\n      iszero\n        /* \"#utility.yul\":2576:2608   */\n      swap1\n      pop\n        /* \"#utility.yul\":2524:2614   */\n      swap2\n      swap1\n      pop\n      jump\t// out\n        /* \"#utility.yul\":2620:2729   */\n    tag_514:\n        /* \"#utility.yul\":2701:2722   */\n      tag_633\n        /* \"#utility.yul\":2716:2721   */\n      dup2\n        /* \"#utility.yul\":2701:2722   */\n      tag_513\n      jump\t// in\n    tag_633:\n        /* \"#utility.yul\":2696:2699   */\n      dup3\n        /* \"#utility.yul\":2689:2723   */\n      mstore\n        /* \"#utility.yul\":2620:2729   */\n      pop\n      pop\n      jump\t// out\n        /* \"#utility.yul\":2735:3474   */\n    tag_44:\n        /* \"#utility.yul\":2952:2956   */\n      0x00\n        /* \"#utility.yul\":2990:2993   */\n      0xa0\n        /* \"#utility.yul\":2979:2988   */\n      dup3\n        /* \"#utility.yul\":2975:2994   */\n      add\n        /* \"#utility.yul\":2967:2994   */\n      swap1\n      pop\n        /* \"#utility.yul\":3004:3075   */\n      tag_635\n        /* \"#utility.yul\":3072:3073   */\n      0x00\n        /* \"#utility.yul\":3061:3070   */\n      dup4\n        /* \"#utility.yul\":3057:3074   */\n      add\n        /* \"#utility.yul\":3048:3054   */\n      dup9\n        /* \"#utility.yul\":3004:3075   */\n      tag_504\n      jump\t// in\n    tag_635:\n        /* \"#utility.yul\":3085:3157   */\n      tag_636\n        /* \"#utility.yul\":3153:3155   */\n      0x20\n        /* \"#utility.yul\":3142:3151   */\n      dup4\n        /* \"#utility.yul\":3138:3156   */\n      add\n        /* \"#utility.yul\":3129:3135   */\n      dup8\n        /* \"#utility.yul\":3085:3157   */\n      tag_507\n      jump\t// in\n    tag_636:\n        /* \"#utility.yul\":3167:3239   */\n      tag_637\n        /* \"#utility.yul\":3235:3237   */\n      0x40\n        /* \"#utility.yul\":3224:3233   */\n      dup4\n        /* \"#utility.yul\":3220:3238   */\n      add\n        /* \"#utility.yul\":3211:3217   */\n      dup7\n        /* \"#utility.yul\":3167:3239   */\n      tag_504\n      jump\t// in\n    tag_637:\n        /* \"#utility.yul\":3286:3295   */\n      dup2\n        /* \"#utility.yul\":3280:3284   */\n      dup2\n        /* \"#utility.yul\":3276:3296   */\n      sub\n        /* \"#utility.yul\":3271:3273   */\n      0x60\n        /* \"#utility.yul\":3260:3269   */\n      dup4\n        /* \"#utility.yul\":3256:3274   */\n      add\n        /* \"#utility.yul\":3249:3297   */\n      mstore\n        /* \"#utility.yul\":3314:3390   */\n      tag_638\n        /* \"#utility.yul\":3385:3389   */\n      dup2\n        /* \"#utility.yul\":3376:3382   */\n      dup6\n        /* \"#utility.yul\":3314:3390   */\n      tag_512\n      jump\t// in\n    tag_638:\n        /* \"#utility.yul\":3306:3390   */\n      swap1\n      pop\n        /* \"#utility.yul\":3400:3467   */\n      tag_639\n        /* \"#utility.yul\":3462:3465   */\n      0x80\n        /* \"#utility.yul\":3451:3460   */\n      dup4\n        /* \"#utility.yul\":3447:3466   */\n      add\n        /* \"#utility.yul\":3438:3444   */\n      dup5\n        /* \"#utility.yul\":3400:3467   */\n      tag_514\n      jump\t// in\n    tag_639:\n        /* \"#utility.yul\":2735:3474   */\n      swap7\n      swap6\n      pop\n      pop\n      pop\n      pop\n      pop\n      pop\n      jump\t// out\n        /* \"#utility.yul\":3480:3602   */\n    tag_515:\n        /* \"#utility.yul\":3553:3577   */\n      tag_641\n        /* \"#utility.yul\":3571:3576   */\n      dup2\n        /* \"#utility.yul\":3553:3577   */\n      tag_506\n      jump\t// in\n    tag_641:\n        /* \"#utility.yul\":3546:3551   */\n      dup2\n        /* \"#utility.yul\":3543:3578   */\n      eq\n        /* \"#utility.yul\":3533:3596   */\n      tag_642\n      jumpi\n        /* \"#utility.yul\":3592:3593   */\n      0x00\n        /* \"#utility.yul\":3589:3590   */\n      dup1\n        /* \"#utility.yul\":3582:3594   */\n      revert\n        /* \"#utility.yul\":3533:3596   */\n    tag_642:\n        /* \"#utility.yul\":3480:3602   */\n      pop\n      jump\t// out\n        /* \"#utility.yul\":3608:3747   */\n    tag_516:\n        /* \"#utility.yul\":3654:3659   */\n      0x00\n        /* \"#utility.yul\":3692:3698   */\n      dup2\n        /* \"#utility.yul\":3679:3699   */\n      calldataload\n        /* \"#utility.yul\":3670:3699   */\n      swap1\n      pop\n        /* \"#utility.yul\":3708:3741   */\n      tag_644\n        /* \"#utility.yul\":3735:3740   */\n      dup2\n        /* \"#utility.yul\":3708:3741   */\n      tag_515\n      jump\t// in\n    tag_644:\n        /* \"#utility.yul\":3608:3747   */\n      swap3\n      swap2\n      pop\n      pop\n      jump\t// out\n        /* \"#utility.yul\":3753:4227   */\n    tag_47:\n        /* \"#utility.yul\":3821:3827   */\n      0x00\n        /* \"#utility.yul\":3829:3835   */\n      dup1\n        /* \"#utility.yul\":3878:3880   */\n      0x40\n        /* \"#utility.yul\":3866:3875   */\n      dup4\n        /* \"#utility.yul\":3857:3864   */\n      dup6\n        /* \"#utility.yul\":3853:3876   */\n      sub\n        /* \"#utility.yul\":3849:3881   */\n      slt\n        /* \"#utility.yul\":3846:3965   */\n      iszero\n      tag_646\n      jumpi\n        /* \"#utility.yul\":3884:3963   */\n      tag_647\n      tag_499\n      jump\t// in\n    tag_647:\n        /* \"#utility.yul\":3846:3965   */\n    tag_646:\n        /* \"#utility.yul\":4004:4005   */\n      0x00\n        /* \"#utility.yul\":4029:4082   */\n      tag_648\n        /* \"#utility.yul\":4074:4081   */\n      dup6\n        /* \"#utility.yul\":4065:4071   */\n      dup3\n        /* \"#utility.yul\":4054:4063   */\n      dup7\n        /* \"#utility.yul\":4050:4072   */\n      add\n        /* \"#utility.yul\":4029:4082   */\n      tag_516\n      jump\t// in\n    tag_648:\n        /* \"#utility.yul\":4019:4082   */\n      swap3\n      pop\n        /* \"#utility.yul\":3975:4092   */\n      pop\n        /* \"#utility.yul\":4131:4133   */\n      0x20\n        /* \"#utility.yul\":4157:4210   */\n      tag_649\n        /* \"#utility.yul\":4202:4209   */\n      dup6\n        /* \"#utility.yul\":4193:4199   */\n      dup3\n        /* \"#utility.yul\":4182:4191   */\n      dup7\n        /* \"#utility.yul\":4178:4200   */\n      add\n        /* \"#utility.yul\":4157:4210   */\n      tag_503\n      jump\t// in\n    tag_649:\n        /* \"#utility.yul\":4147:4210   */\n      swap2\n      pop\n        /* \"#utility.yul\":4102:4220   */\n      pop\n        /* \"#utility.yul\":3753:4227   */\n      swap3\n      pop\n      swap3\n      swap1\n      pop\n      jump\t// out\n        /* \"#utility.yul\":4233:4350   */\n    tag_517:\n        /* \"#utility.yul\":4342:4343   */\n      0x00\n        /* \"#utility.yul\":4339:4340   */\n      dup1\n        /* \"#utility.yul\":4332:4344   */\n      revert\n        /* \"#utility.yul\":4356:4473   */\n    tag_518:\n        /* \"#utility.yul\":4465:4466   */\n      0x00\n        /* \"#utility.yul\":4462:4463   */\n      dup1\n        /* \"#utility.yul\":4455:4467   */\n      revert\n        /* \"#utility.yul\":4479:4596   */\n    tag_519:\n        /* \"#utility.yul\":4588:4589   */\n      0x00\n        /* \"#utility.yul\":4585:4586   */\n      dup1\n        /* \"#utility.yul\":4578:4590   */\n      revert\n        /* \"#utility.yul\":4619:5187   */\n    tag_520:\n        /* \"#utility.yul\":4692:4700   */\n      0x00\n        /* \"#utility.yul\":4702:4708   */\n      dup1\n        /* \"#utility.yul\":4752:4755   */\n      dup4\n        /* \"#utility.yul\":4745:4749   */\n      0x1f\n        /* \"#utility.yul\":4737:4743   */\n      dup5\n        /* \"#utility.yul\":4733:4750   */\n      add\n        /* \"#utility.yul\":4729:4756   */\n      slt\n        /* \"#utility.yul\":4719:4841   */\n      tag_654\n      jumpi\n        /* \"#utility.yul\":4760:4839   */\n      tag_655\n      tag_517\n      jump\t// in\n    tag_655:\n        /* \"#utility.yul\":4719:4841   */\n    tag_654:\n        /* \"#utility.yul\":4873:4879   */\n      dup3\n        /* \"#utility.yul\":4860:4880   */\n      calldataload\n        /* \"#utility.yul\":4850:4880   */\n      swap1\n      pop\n        /* \"#utility.yul\":4903:4921   */\n      0xffffffffffffffff\n        /* \"#utility.yul\":4895:4901   */\n      dup2\n        /* \"#utility.yul\":4892:4922   */\n      gt\n        /* \"#utility.yul\":4889:5006   */\n      iszero\n      tag_656\n      jumpi\n        /* \"#utility.yul\":4925:5004   */\n      tag_657\n      tag_518\n      jump\t// in\n    tag_657:\n        /* \"#utility.yul\":4889:5006   */\n    tag_656:\n        /* \"#utility.yul\":5039:5043   */\n      0x20\n        /* \"#utility.yul\":5031:5037   */\n      dup4\n        /* \"#utility.yul\":5027:5044   */\n      add\n        /* \"#utility.yul\":5015:5044   */\n      swap2\n      pop\n        /* \"#utility.yul\":5093:5096   */\n      dup4\n        /* \"#utility.yul\":5085:5089   */\n      0x20\n        /* \"#utility.yul\":5077:5083   */\n      dup3\n        /* \"#utility.yul\":5073:5090   */\n      mul\n        /* \"#utility.yul\":5063:5071   */\n      dup4\n        /* \"#utility.yul\":5059:5091   */\n      add\n        /* \"#utility.yul\":5056:5097   */\n      gt\n        /* \"#utility.yul\":5053:5181   */\n      iszero\n      tag_658\n      jumpi\n        /* \"#utility.yul\":5100:5179   */\n      tag_659\n      tag_519\n      jump\t// in\n    tag_659:\n        /* \"#utility.yul\":5053:5181   */\n    tag_658:\n        /* \"#utility.yul\":4619:5187   */\n      swap3\n      pop\n      swap3\n      swap1\n      pop\n      jump\t// out\n        /* \"#utility.yul\":5193:5752   */\n    tag_51:\n        /* \"#utility.yul\":5279:5285   */\n      0x00\n        /* \"#utility.yul\":5287:5293   */\n      dup1\n        /* \"#utility.yul\":5336:5338   */\n      0x20\n        /* \"#utility.yul\":5324:5333   */\n      dup4\n        /* \"#utility.yul\":5315:5322   */\n      dup6\n        /* \"#utility.yul\":5311:5334   */\n      sub\n        /* \"#utility.yul\":5307:5339   */\n      slt\n        /* \"#utility.yul\":5304:5423   */\n      iszero\n      tag_661\n      jumpi\n        /* \"#utility.yul\":5342:5421   */\n      tag_662\n      tag_499\n      jump\t// in\n    tag_662:\n        /* \"#utility.yul\":5304:5423   */\n    tag_661:\n        /* \"#utility.yul\":5490:5491   */\n      0x00\n        /* \"#utility.yul\":5479:5488   */\n      dup4\n        /* \"#utility.yul\":5475:5492   */\n      add\n        /* \"#utility.yul\":5462:5493   */\n      calldataload\n        /* \"#utility.yul\":5520:5538   */\n      0xffffffffffffffff\n        /* \"#utility.yul\":5512:5518   */\n      dup2\n        /* \"#utility.yul\":5509:5539   */\n      gt\n        /* \"#utility.yul\":5506:5623   */\n      iszero\n      tag_663\n      jumpi\n        /* \"#utility.yul\":5542:5621   */\n      tag_664\n      tag_500\n      jump\t// in\n    tag_664:\n        /* \"#utility.yul\":5506:5623   */\n    tag_663:\n        /* \"#utility.yul\":5655:5735   */\n      tag_665\n        /* \"#utility.yul\":5727:5734   */\n      dup6\n        /* \"#utility.yul\":5718:5724   */\n      dup3\n        /* \"#utility.yul\":5707:5716   */\n      dup7\n        /* \"#utility.yul\":5703:5725   */\n      add\n        /* \"#utility.yul\":5655:5735   */\n      tag_520\n      jump\t// in\n    tag_665:\n        /* \"#utility.yul\":5637:5735   */\n      swap3\n      pop\n      swap3\n      pop\n        /* \"#utility.yul\":5433:5745   */\n      pop\n        /* \"#utility.yul\":5193:5752   */\n      swap3\n      pop\n      swap3\n      swap1\n      pop\n      jump\t// out\n        /* \"#utility.yul\":5758:6232   */\n    tag_55:\n        /* \"#utility.yul\":5826:5832   */\n      0x00\n        /* \"#utility.yul\":5834:5840   */\n      dup1\n        /* \"#utility.yul\":5883:5885   */\n      0x40\n        /* \"#utility.yul\":5871:5880   */\n      dup4\n        /* \"#utility.yul\":5862:5869   */\n      dup6\n        /* \"#utility.yul\":5858:5881   */\n      sub\n        /* \"#utility.yul\":5854:5886   */\n      slt\n        /* \"#utility.yul\":5851:5970   */\n      iszero\n      tag_667\n      jumpi\n        /* \"#utility.yul\":5889:5968   */\n      tag_668\n      tag_499\n      jump\t// in\n    tag_668:\n        /* \"#utility.yul\":5851:5970   */\n    tag_667:\n        /* \"#utility.yul\":6009:6010   */\n      0x00\n        /* \"#utility.yul\":6034:6087   */\n      tag_669\n        /* \"#utility.yul\":6079:6086   */\n      dup6\n        /* \"#utility.yul\":6070:6076   */\n      dup3\n        /* \"#utility.yul\":6059:6068   */\n      dup7\n        /* \"#utility.yul\":6055:6077   */\n      add\n        /* \"#utility.yul\":6034:6087   */\n      tag_503\n      jump\t// in\n    tag_669:\n        /* \"#utility.yul\":6024:6087   */\n      swap3\n      pop\n        /* \"#utility.yul\":5980:6097   */\n      pop\n        /* \"#utility.yul\":6136:6138   */\n      0x20\n        /* \"#utility.yul\":6162:6215   */\n      tag_670\n        /* \"#utility.yul\":6207:6214   */\n      dup6\n        /* \"#utility.yul\":6198:6204   */\n      dup3\n        /* \"#utility.yul\":6187:6196   */\n      dup7\n        /* \"#utility.yul\":6183:6205   */\n      add\n        /* \"#utility.yul\":6162:6215   */\n      tag_516\n      jump\t// in\n    tag_670:\n        /* \"#utility.yul\":6152:6215   */\n      swap2\n      pop\n        /* \"#utility.yul\":6107:6225   */\n      pop\n        /* \"#utility.yul\":5758:6232   */\n      swap3\n      pop\n      swap3\n      swap1\n      pop\n      jump\t// out\n        /* \"#utility.yul\":6238:6460   */\n    tag_61:\n        /* \"#utility.yul\":6331:6335   */\n      0x00\n        /* \"#utility.yul\":6369:6371   */\n      0x20\n        /* \"#utility.yul\":6358:6367   */\n      dup3\n        /* \"#utility.yul\":6354:6372   */\n      add\n        /* \"#utility.yul\":6346:6372   */\n      swap1\n      pop\n        /* \"#utility.yul\":6382:6453   */\n      tag_672\n        /* \"#utility.yul\":6450:6451   */\n      0x00\n        /* \"#utility.yul\":6439:6448   */\n      dup4\n        /* \"#utility.yul\":6435:6452   */\n      add\n        /* \"#utility.yul\":6426:6432   */\n      dup5\n        /* \"#utility.yul\":6382:6453   */\n      tag_507\n      jump\t// in\n    tag_672:\n        /* \"#utility.yul\":6238:6460   */\n      swap3\n      swap2\n      pop\n      pop\n      jump\t// out\n        /* \"#utility.yul\":6466:6688   */\n    tag_69:\n        /* \"#utility.yul\":6559:6563   */\n      0x00\n        /* \"#utility.yul\":6597:6599   */\n      0x20\n        /* \"#utility.yul\":6586:6595   */\n      dup3\n        /* \"#utility.yul\":6582:6600   */\n      add\n        /* \"#utility.yul\":6574:6600   */\n      swap1\n      pop\n        /* \"#utility.yul\":6610:6681   */\n      tag_674\n        /* \"#utility.yul\":6678:6679   */\n      0x00\n        /* \"#utility.yul\":6667:6676   */\n      dup4\n        /* \"#utility.yul\":6663:6680   */\n      add\n        /* \"#utility.yul\":6654:6660   */\n      dup5\n        /* \"#utility.yul\":6610:6681   */\n      tag_504\n      jump\t// in\n    tag_674:\n        /* \"#utility.yul\":6466:6688   */\n      swap3\n      swap2\n      pop\n      pop\n      jump\t// out\n        /* \"#utility.yul\":6694:6771   */\n    tag_521:\n        /* \"#utility.yul\":6731:6738   */\n      0x00\n        /* \"#utility.yul\":6760:6765   */\n      dup2\n        /* \"#utility.yul\":6749:6765   */\n      swap1\n      pop\n        /* \"#utility.yul\":6694:6771   */\n      swap2\n      swap1\n      pop\n      jump\t// out\n        /* \"#utility.yul\":6777:6899   */\n    tag_522:\n        /* \"#utility.yul\":6850:6874   */\n      tag_677\n        /* \"#utility.yul\":6868:6873   */\n      dup2\n        /* \"#utility.yul\":6850:6874   */\n      tag_521\n      jump\t// in\n    tag_677:\n        /* \"#utility.yul\":6843:6848   */\n      dup2\n        /* \"#utility.yul\":6840:6875   */\n      eq\n        /* \"#utility.yul\":6830:6893   */\n      tag_678\n      jumpi\n        /* \"#utility.yul\":6889:6890   */\n      0x00\n        /* \"#utility.yul\":6886:6887   */\n      dup1\n        /* \"#utility.yul\":6879:6891   */\n      revert\n        /* \"#utility.yul\":6830:6893   */\n    tag_678:\n        /* \"#utility.yul\":6777:6899   */\n      pop\n      jump\t// out\n        /* \"#utility.yul\":6905:7044   */\n    tag_523:\n        /* \"#utility.yul\":6951:6956   */\n      0x00\n        /* \"#utility.yul\":6989:6995   */\n      dup2\n        /* \"#utility.yul\":6976:6996   */\n      calldataload\n        /* \"#utility.yul\":6967:6996   */\n      swap1\n      pop\n        /* \"#utility.yul\":7005:7038   */\n      tag_680\n        /* \"#utility.yul\":7032:7037   */\n      dup2\n        /* \"#utility.yul\":7005:7038   */\n      tag_522\n      jump\t// in\n    tag_680:\n        /* \"#utility.yul\":6905:7044   */\n      swap3\n      swap2\n      pop\n      pop\n      jump\t// out\n        /* \"#utility.yul\":7050:7379   */\n    tag_72:\n        /* \"#utility.yul\":7109:7115   */\n      0x00\n        /* \"#utility.yul\":7158:7160   */\n      0x20\n        /* \"#utility.yul\":7146:7155   */\n      dup3\n        /* \"#utility.yul\":7137:7144   */\n      dup5\n        /* \"#utility.yul\":7133:7156   */\n      sub\n        /* \"#utility.yul\":7129:7161   */\n      slt\n        /* \"#utility.yul\":7126:7245   */\n      iszero\n      tag_682\n      jumpi\n        /* \"#utility.yul\":7164:7243   */\n      tag_683\n      tag_499\n      jump\t// in\n    tag_683:\n        /* \"#utility.yul\":7126:7245   */\n    tag_682:\n        /* \"#utility.yul\":7284:7285   */\n      0x00\n        /* \"#utility.yul\":7309:7362   */\n      tag_684\n        /* \"#utility.yul\":7354:7361   */\n      dup5\n        /* \"#utility.yul\":7345:7351   */\n      dup3\n        /* \"#utility.yul\":7334:7343   */\n      dup6\n        /* \"#utility.yul\":7330:7352   */\n      add\n        /* \"#utility.yul\":7309:7362   */\n      tag_523\n      jump\t// in\n    tag_684:\n        /* \"#utility.yul\":7299:7362   */\n      swap2\n      pop\n        /* \"#utility.yul\":7255:7372   */\n      pop\n        /* \"#utility.yul\":7050:7379   */\n      swap3\n      swap2\n      pop\n      pop\n      jump\t// out\n        /* \"#utility.yul\":7385:7484   */\n    tag_524:\n        /* \"#utility.yul\":7437:7443   */\n      0x00\n        /* \"#utility.yul\":7471:7476   */\n      dup2\n        /* \"#utility.yul\":7465:7477   */\n      mload\n        /* \"#utility.yul\":7455:7477   */\n      swap1\n      pop\n        /* \"#utility.yul\":7385:7484   */\n      swap2\n      swap1\n      pop\n      jump\t// out\n        /* \"#utility.yul\":7490:7659   */\n    tag_525:\n        /* \"#utility.yul\":7574:7585   */\n      0x00\n        /* \"#utility.yul\":7608:7614   */\n      dup3\n        /* \"#utility.yul\":7603:7606   */\n      dup3\n        /* \"#utility.yul\":7596:7615   */\n      mstore\n        /* \"#utility.yul\":7648:7652   */\n      0x20\n        /* \"#utility.yul\":7643:7646   */\n      dup3\n        /* \"#utility.yul\":7639:7653   */\n      add\n        /* \"#utility.yul\":7624:7653   */\n      swap1\n      pop\n        /* \"#utility.yul\":7490:7659   */\n      swap3\n      swap2\n      pop\n      pop\n      jump\t// out\n        /* \"#utility.yul\":7665:8042   */\n    tag_526:\n        /* \"#utility.yul\":7753:7756   */\n      0x00\n        /* \"#utility.yul\":7781:7820   */\n      tag_688\n        /* \"#utility.yul\":7814:7819   */\n      dup3\n        /* \"#utility.yul\":7781:7820   */\n      tag_524\n      jump\t// in\n    tag_688:\n        /* \"#utility.yul\":7836:7907   */\n      tag_689\n        /* \"#utility.yul\":7900:7906   */\n      dup2\n        /* \"#utility.yul\":7895:7898   */\n      dup6\n        /* \"#utility.yul\":7836:7907   */\n      tag_525\n      jump\t// in\n    tag_689:\n        /* \"#utility.yul\":7829:7907   */\n      swap4\n      pop\n        /* \"#utility.yul\":7916:7981   */\n      tag_690\n        /* \"#utility.yul\":7974:7980   */\n      dup2\n        /* \"#utility.yul\":7969:7972   */\n      dup6\n        /* \"#utility.yul\":7962:7966   */\n      0x20\n        /* \"#utility.yul\":7955:7960   */\n      dup7\n        /* \"#utility.yul\":7951:7967   */\n      add\n        /* \"#utility.yul\":7916:7981   */\n      tag_510\n      jump\t// in\n    tag_690:\n        /* \"#utility.yul\":8006:8035   */\n      tag_691\n        /* \"#utility.yul\":8028:8034   */\n      dup2\n        /* \"#utility.yul\":8006:8035   */\n      tag_511\n      jump\t// in\n    tag_691:\n        /* \"#utility.yul\":8001:8004   */\n      dup5\n        /* \"#utility.yul\":7997:8036   */\n      add\n        /* \"#utility.yul\":7990:8036   */\n      swap2\n      pop\n        /* \"#utility.yul\":7757:8042   */\n      pop\n        /* \"#utility.yul\":7665:8042   */\n      swap3\n      swap2\n      pop\n      pop\n      jump\t// out\n        /* \"#utility.yul\":8048:8166   */\n    tag_527:\n        /* \"#utility.yul\":8135:8159   */\n      tag_693\n        /* \"#utility.yul\":8153:8158   */\n      dup2\n        /* \"#utility.yul\":8135:8159   */\n      tag_521\n      jump\t// in\n    tag_693:\n        /* \"#utility.yul\":8130:8133   */\n      dup3\n        /* \"#utility.yul\":8123:8160   */\n      mstore\n        /* \"#utility.yul\":8048:8166   */\n      pop\n      pop\n      jump\t// out\n        /* \"#utility.yul\":8172:8286   */\n    tag_528:\n        /* \"#utility.yul\":8239:8245   */\n      0x00\n        /* \"#utility.yul\":8273:8278   */\n      dup2\n        /* \"#utility.yul\":8267:8279   */\n      mload\n        /* \"#utility.yul\":8257:8279   */\n      swap1\n      pop\n        /* \"#utility.yul\":8172:8286   */\n      swap2\n      swap1\n      pop\n      jump\t// out\n        /* \"#utility.yul\":8292:8476   */\n    tag_529:\n        /* \"#utility.yul\":8391:8402   */\n      0x00\n        /* \"#utility.yul\":8425:8431   */\n      dup3\n        /* \"#utility.yul\":8420:8423   */\n      dup3\n        /* \"#utility.yul\":8413:8432   */\n      mstore\n        /* \"#utility.yul\":8465:8469   */\n      0x20\n        /* \"#utility.yul\":8460:8463   */\n      dup3\n        /* \"#utility.yul\":8456:8470   */\n      add\n        /* \"#utility.yul\":8441:8470   */\n      swap1\n      pop\n        /* \"#utility.yul\":8292:8476   */\n      swap3\n      swap2\n      pop\n      pop\n      jump\t// out\n        /* \"#utility.yul\":8482:8614   */\n    tag_530:\n        /* \"#utility.yul\":8549:8553   */\n      0x00\n        /* \"#utility.yul\":8572:8575   */\n      dup2\n        /* \"#utility.yul\":8564:8575   */\n      swap1\n      pop\n        /* \"#utility.yul\":8602:8606   */\n      0x20\n        /* \"#utility.yul\":8597:8600   */\n      dup3\n        /* \"#utility.yul\":8593:8607   */\n      add\n        /* \"#utility.yul\":8585:8607   */\n      swap1\n      pop\n        /* \"#utility.yul\":8482:8614   */\n      swap2\n      swap1\n      pop\n      jump\t// out\n        /* \"#utility.yul\":8620:8728   */\n    tag_531:\n        /* \"#utility.yul\":8697:8721   */\n      tag_698\n        /* \"#utility.yul\":8715:8720   */\n      dup2\n        /* \"#utility.yul\":8697:8721   */\n      tag_501\n      jump\t// in\n    tag_698:\n        /* \"#utility.yul\":8692:8695   */\n      dup3\n        /* \"#utility.yul\":8685:8722   */\n      mstore\n        /* \"#utility.yul\":8620:8728   */\n      pop\n      pop\n      jump\t// out\n        /* \"#utility.yul\":8734:8913   */\n    tag_532:\n        /* \"#utility.yul\":8803:8813   */\n      0x00\n        /* \"#utility.yul\":8824:8870   */\n      tag_700\n        /* \"#utility.yul\":8866:8869   */\n      dup4\n        /* \"#utility.yul\":8858:8864   */\n      dup4\n        /* \"#utility.yul\":8824:8870   */\n      tag_531\n      jump\t// in\n    tag_700:\n        /* \"#utility.yul\":8902:8906   */\n      0x20\n        /* \"#utility.yul\":8897:8900   */\n      dup4\n        /* \"#utility.yul\":8893:8907   */\n      add\n        /* \"#utility.yul\":8879:8907   */\n      swap1\n      pop\n        /* \"#utility.yul\":8734:8913   */\n      swap3\n      swap2\n      pop\n      pop\n      jump\t// out\n        /* \"#utility.yul\":8919:9032   */\n    tag_533:\n        /* \"#utility.yul\":8989:8993   */\n      0x00\n        /* \"#utility.yul\":9021:9025   */\n      0x20\n        /* \"#utility.yul\":9016:9019   */\n      dup3\n        /* \"#utility.yul\":9012:9026   */\n      add\n        /* \"#utility.yul\":9004:9026   */\n      swap1\n      pop\n        /* \"#utility.yul\":8919:9032   */\n      swap2\n      swap1\n      pop\n      jump\t// out\n        /* \"#utility.yul\":9068:9800   */\n    tag_534:\n        /* \"#utility.yul\":9187:9190   */\n      0x00\n        /* \"#utility.yul\":9216:9270   */\n      tag_703\n        /* \"#utility.yul\":9264:9269   */\n      dup3\n        /* \"#utility.yul\":9216:9270   */\n      tag_528\n      jump\t// in\n    tag_703:\n        /* \"#utility.yul\":9286:9372   */\n      tag_704\n        /* \"#utility.yul\":9365:9371   */\n      dup2\n        /* \"#utility.yul\":9360:9363   */\n      dup6\n        /* \"#utility.yul\":9286:9372   */\n      tag_529\n      jump\t// in\n    tag_704:\n        /* \"#utility.yul\":9279:9372   */\n      swap4\n      pop\n        /* \"#utility.yul\":9396:9452   */\n      tag_705\n        /* \"#utility.yul\":9446:9451   */\n      dup4\n        /* \"#utility.yul\":9396:9452   */\n      tag_530\n      jump\t// in\n    tag_705:\n        /* \"#utility.yul\":9475:9482   */\n      dup1\n        /* \"#utility.yul\":9506:9507   */\n      0x00\n        /* \"#utility.yul\":9491:9775   */\n    tag_706:\n        /* \"#utility.yul\":9516:9522   */\n      dup4\n        /* \"#utility.yul\":9513:9514   */\n      dup2\n        /* \"#utility.yul\":9510:9523   */\n      lt\n        /* \"#utility.yul\":9491:9775   */\n      iszero\n      tag_708\n      jumpi\n        /* \"#utility.yul\":9592:9598   */\n      dup2\n        /* \"#utility.yul\":9586:9599   */\n      mload\n        /* \"#utility.yul\":9619:9682   */\n      tag_709\n        /* \"#utility.yul\":9678:9681   */\n      dup9\n        /* \"#utility.yul\":9663:9676   */\n      dup3\n        /* \"#utility.yul\":9619:9682   */\n      tag_532\n      jump\t// in\n    tag_709:\n        /* \"#utility.yul\":9612:9682   */\n      swap8\n      pop\n        /* \"#utility.yul\":9705:9765   */\n      tag_710\n        /* \"#utility.yul\":9758:9764   */\n      dup4\n        /* \"#utility.yul\":9705:9765   */\n      tag_533\n      jump\t// in\n    tag_710:\n        /* \"#utility.yul\":9695:9765   */\n      swap3\n      pop\n        /* \"#utility.yul\":9551:9775   */\n      pop\n        /* \"#utility.yul\":9538:9539   */\n      0x01\n        /* \"#utility.yul\":9535:9536   */\n      dup2\n        /* \"#utility.yul\":9531:9540   */\n      add\n        /* \"#utility.yul\":9526:9540   */\n      swap1\n      pop\n        /* \"#utility.yul\":9491:9775   */\n      jump(tag_706)\n    tag_708:\n        /* \"#utility.yul\":9495:9509   */\n      pop\n        /* \"#utility.yul\":9791:9794   */\n      dup6\n        /* \"#utility.yul\":9784:9794   */\n      swap4\n      pop\n        /* \"#utility.yul\":9192:9800   */\n      pop\n      pop\n      pop\n        /* \"#utility.yul\":9068:9800   */\n      swap3\n      swap2\n      pop\n      pop\n      jump\t// out\n        /* \"#utility.yul\":9806:10803   */\n    tag_75:\n        /* \"#utility.yul\":10101:10105   */\n      0x00\n        /* \"#utility.yul\":10139:10142   */\n      0xa0\n        /* \"#utility.yul\":10128:10137   */\n      dup3\n        /* \"#utility.yul\":10124:10143   */\n      add\n        /* \"#utility.yul\":10116:10143   */\n      swap1\n      pop\n        /* \"#utility.yul\":10153:10224   */\n      tag_712\n        /* \"#utility.yul\":10221:10222   */\n      0x00\n        /* \"#utility.yul\":10210:10219   */\n      dup4\n        /* \"#utility.yul\":10206:10223   */\n      add\n        /* \"#utility.yul\":10197:10203   */\n      dup9\n        /* \"#utility.yul\":10153:10224   */\n      tag_507\n      jump\t// in\n    tag_712:\n        /* \"#utility.yul\":10271:10280   */\n      dup2\n        /* \"#utility.yul\":10265:10269   */\n      dup2\n        /* \"#utility.yul\":10261:10281   */\n      sub\n        /* \"#utility.yul\":10256:10258   */\n      0x20\n        /* \"#utility.yul\":10245:10254   */\n      dup4\n        /* \"#utility.yul\":10241:10259   */\n      add\n        /* \"#utility.yul\":10234:10282   */\n      mstore\n        /* \"#utility.yul\":10299:10377   */\n      tag_713\n        /* \"#utility.yul\":10372:10376   */\n      dup2\n        /* \"#utility.yul\":10363:10369   */\n      dup8\n        /* \"#utility.yul\":10299:10377   */\n      tag_526\n      jump\t// in\n    tag_713:\n        /* \"#utility.yul\":10291:10377   */\n      swap1\n      pop\n        /* \"#utility.yul\":10424:10433   */\n      dup2\n        /* \"#utility.yul\":10418:10422   */\n      dup2\n        /* \"#utility.yul\":10414:10434   */\n      sub\n        /* \"#utility.yul\":10409:10411   */\n      0x40\n        /* \"#utility.yul\":10398:10407   */\n      dup4\n        /* \"#utility.yul\":10394:10412   */\n      add\n        /* \"#utility.yul\":10387:10435   */\n      mstore\n        /* \"#utility.yul\":10452:10530   */\n      tag_714\n        /* \"#utility.yul\":10525:10529   */\n      dup2\n        /* \"#utility.yul\":10516:10522   */\n      dup7\n        /* \"#utility.yul\":10452:10530   */\n      tag_526\n      jump\t// in\n    tag_714:\n        /* \"#utility.yul\":10444:10530   */\n      swap1\n      pop\n        /* \"#utility.yul\":10540:10612   */\n      tag_715\n        /* \"#utility.yul\":10608:10610   */\n      0x60\n        /* \"#utility.yul\":10597:10606   */\n      dup4\n        /* \"#utility.yul\":10593:10611   */\n      add\n        /* \"#utility.yul\":10584:10590   */\n      dup6\n        /* \"#utility.yul\":10540:10612   */\n      tag_527\n      jump\t// in\n    tag_715:\n        /* \"#utility.yul\":10660:10669   */\n      dup2\n        /* \"#utility.yul\":10654:10658   */\n      dup2\n        /* \"#utility.yul\":10650:10670   */\n      sub\n        /* \"#utility.yul\":10644:10647   */\n      0x80\n        /* \"#utility.yul\":10633:10642   */\n      dup4\n        /* \"#utility.yul\":10629:10648   */\n      add\n        /* \"#utility.yul\":10622:10671   */\n      mstore\n        /* \"#utility.yul\":10688:10796   */\n      tag_716\n        /* \"#utility.yul\":10791:10795   */\n      dup2\n        /* \"#utility.yul\":10782:10788   */\n      dup5\n        /* \"#utility.yul\":10688:10796   */\n      tag_534\n      jump\t// in\n    tag_716:\n        /* \"#utility.yul\":10680:10796   */\n      swap1\n      pop\n        /* \"#utility.yul\":9806:10803   */\n      swap7\n      swap6\n      pop\n      pop\n      pop\n      pop\n      pop\n      pop\n      jump\t// out\n        /* \"#utility.yul\":10809:11283   */\n    tag_78:\n        /* \"#utility.yul\":10877:10883   */\n      0x00\n        /* \"#utility.yul\":10885:10891   */\n      dup1\n        /* \"#utility.yul\":10934:10936   */\n      0x40\n        /* \"#utility.yul\":10922:10931   */\n      dup4\n        /* \"#utility.yul\":10913:10920   */\n      dup6\n        /* \"#utility.yul\":10909:10932   */\n      sub\n        /* \"#utility.yul\":10905:10937   */\n      slt\n        /* \"#utility.yul\":10902:11021   */\n      iszero\n      tag_718\n      jumpi\n        /* \"#utility.yul\":10940:11019   */\n      tag_719\n      tag_499\n      jump\t// in\n    tag_719:\n        /* \"#utility.yul\":10902:11021   */\n    tag_718:\n        /* \"#utility.yul\":11060:11061   */\n      0x00\n        /* \"#utility.yul\":11085:11138   */\n      tag_720\n        /* \"#utility.yul\":11130:11137   */\n      dup6\n        /* \"#utility.yul\":11121:11127   */\n      dup3\n        /* \"#utility.yul\":11110:11119   */\n      dup7\n        /* \"#utility.yul\":11106:11128   */\n      add\n        /* \"#utility.yul\":11085:11138   */\n      tag_523\n      jump\t// in\n    tag_720:\n        /* \"#utility.yul\":11075:11138   */\n      swap3\n      pop\n        /* \"#utility.yul\":11031:11148   */\n      pop\n        /* \"#utility.yul\":11187:11189   */\n      0x20\n        /* \"#utility.yul\":11213:11266   */\n      tag_721\n        /* \"#utility.yul\":11258:11265   */\n      dup6\n        /* \"#utility.yul\":11249:11255   */\n      dup3\n        /* \"#utility.yul\":11238:11247   */\n      dup7\n        /* \"#utility.yul\":11234:11256   */\n      add\n        /* \"#utility.yul\":11213:11266   */\n      tag_503\n      jump\t// in\n    tag_721:\n        /* \"#utility.yul\":11203:11266   */\n      swap2\n      pop\n        /* \"#utility.yul\":11158:11276   */\n      pop\n        /* \"#utility.yul\":10809:11283   */\n      swap3\n      pop\n      swap3\n      swap1\n      pop\n      jump\t// out\n        /* \"#utility.yul\":11289:11618   */\n    tag_88:\n        /* \"#utility.yul\":11348:11354   */\n      0x00\n        /* \"#utility.yul\":11397:11399   */\n      0x20\n        /* \"#utility.yul\":11385:11394   */\n      dup3\n        /* \"#utility.yul\":11376:11383   */\n      dup5\n        /* \"#utility.yul\":11372:11395   */\n      sub\n        /* \"#utility.yul\":11368:11400   */\n      slt\n        /* \"#utility.yul\":11365:11484   */\n      iszero\n      tag_723\n      jumpi\n        /* \"#utility.yul\":11403:11482   */\n      tag_724\n      tag_499\n      jump\t// in\n    tag_724:\n        /* \"#utility.yul\":11365:11484   */\n    tag_723:\n        /* \"#utility.yul\":11523:11524   */\n      0x00\n        /* \"#utility.yul\":11548:11601   */\n      tag_725\n        /* \"#utility.yul\":11593:11600   */\n      dup5\n        /* \"#utility.yul\":11584:11590   */\n      dup3\n        /* \"#utility.yul\":11573:11582   */\n      dup6\n        /* \"#utility.yul\":11569:11591   */\n      add\n        /* \"#utility.yul\":11548:11601   */\n      tag_516\n      jump\t// in\n    tag_725:\n        /* \"#utility.yul\":11538:11601   */\n      swap2\n      pop\n        /* \"#utility.yul\":11494:11611   */\n      pop\n        /* \"#utility.yul\":11289:11618   */\n      swap3\n      swap2\n      pop\n      pop\n      jump\t// out\n        /* \"#utility.yul\":11624:12276   */\n    tag_91:\n        /* \"#utility.yul\":11823:11827   */\n      0x00\n        /* \"#utility.yul\":11861:11864   */\n      0xa0\n        /* \"#utility.yul\":11850:11859   */\n      dup3\n        /* \"#utility.yul\":11846:11865   */\n      add\n        /* \"#utility.yul\":11838:11865   */\n      swap1\n      pop\n        /* \"#utility.yul\":11875:11946   */\n      tag_727\n        /* \"#utility.yul\":11943:11944   */\n      0x00\n        /* \"#utility.yul\":11932:11941   */\n      dup4\n        /* \"#utility.yul\":11928:11945   */\n      add\n        /* \"#utility.yul\":11919:11925   */\n      dup9\n        /* \"#utility.yul\":11875:11946   */\n      tag_527\n      jump\t// in\n    tag_727:\n        /* \"#utility.yul\":11956:12028   */\n      tag_728\n        /* \"#utility.yul\":12024:12026   */\n      0x20\n        /* \"#utility.yul\":12013:12022   */\n      dup4\n        /* \"#utility.yul\":12009:12027   */\n      add\n        /* \"#utility.yul\":12000:12006   */\n      dup8\n        /* \"#utility.yul\":11956:12028   */\n      tag_507\n      jump\t// in\n    tag_728:\n        /* \"#utility.yul\":12038:12110   */\n      tag_729\n        /* \"#utility.yul\":12106:12108   */\n      0x40\n        /* \"#utility.yul\":12095:12104   */\n      dup4\n        /* \"#utility.yul\":12091:12109   */\n      add\n        /* \"#utility.yul\":12082:12088   */\n      dup7\n        /* \"#utility.yul\":12038:12110   */\n      tag_504\n      jump\t// in\n    tag_729:\n        /* \"#utility.yul\":12120:12192   */\n      tag_730\n        /* \"#utility.yul\":12188:12190   */\n      0x60\n        /* \"#utility.yul\":12177:12186   */\n      dup4\n        /* \"#utility.yul\":12173:12191   */\n      add\n        /* \"#utility.yul\":12164:12170   */\n      dup6\n        /* \"#utility.yul\":12120:12192   */\n      tag_504\n      jump\t// in\n    tag_730:\n        /* \"#utility.yul\":12202:12269   */\n      tag_731\n        /* \"#utility.yul\":12264:12267   */\n      0x80\n        /* \"#utility.yul\":12253:12262   */\n      dup4\n        /* \"#utility.yul\":12249:12268   */\n      add\n        /* \"#utility.yul\":12240:12246   */\n      dup5\n        /* \"#utility.yul\":12202:12269   */\n      tag_514\n      jump\t// in\n    tag_731:\n        /* \"#utility.yul\":11624:12276   */\n      swap7\n      swap6\n      pop\n      pop\n      pop\n      pop\n      pop\n      pop\n      jump\t// out\n        /* \"#utility.yul\":12282:12399   */\n    tag_535:\n        /* \"#utility.yul\":12391:12392   */\n      0x00\n        /* \"#utility.yul\":12388:12389   */\n      dup1\n        /* \"#utility.yul\":12381:12393   */\n      revert\n        /* \"#utility.yul\":12405:12585   */\n    tag_354:\n        /* \"#utility.yul\":12453:12530   */\n      0x4e487b7100000000000000000000000000000000000000000000000000000000\n        /* \"#utility.yul\":12450:12451   */\n      0x00\n        /* \"#utility.yul\":12443:12531   */\n      mstore\n        /* \"#utility.yul\":12550:12554   */\n      0x41\n        /* \"#utility.yul\":12547:12548   */\n      0x04\n        /* \"#utility.yul\":12540:12555   */\n      mstore\n        /* \"#utility.yul\":12574:12578   */\n      0x24\n        /* \"#utility.yul\":12571:12572   */\n      0x00\n        /* \"#utility.yul\":12564:12579   */\n      revert\n        /* \"#utility.yul\":12591:12872   */\n    tag_536:\n        /* \"#utility.yul\":12674:12701   */\n      tag_735\n        /* \"#utility.yul\":12696:12700   */\n      dup3\n        /* \"#utility.yul\":12674:12701   */\n      tag_511\n      jump\t// in\n    tag_735:\n        /* \"#utility.yul\":12666:12672   */\n      dup2\n        /* \"#utility.yul\":12662:12702   */\n      add\n        /* \"#utility.yul\":12804:12810   */\n      dup2\n        /* \"#utility.yul\":12792:12802   */\n      dup2\n        /* \"#utility.yul\":12789:12811   */\n      lt\n        /* \"#utility.yul\":12768:12786   */\n      0xffffffffffffffff\n        /* \"#utility.yul\":12756:12766   */\n      dup3\n        /* \"#utility.yul\":12753:12787   */\n      gt\n        /* \"#utility.yul\":12750:12812   */\n      or\n        /* \"#utility.yul\":12747:12835   */\n      iszero\n      tag_736\n      jumpi\n        /* \"#utility.yul\":12815:12833   */\n      tag_737\n      tag_354\n      jump\t// in\n    tag_737:\n        /* \"#utility.yul\":12747:12835   */\n    tag_736:\n        /* \"#utility.yul\":12855:12865   */\n      dup1\n        /* \"#utility.yul\":12851:12853   */\n      0x40\n        /* \"#utility.yul\":12844:12866   */\n      mstore\n        /* \"#utility.yul\":12634:12872   */\n      pop\n        /* \"#utility.yul\":12591:12872   */\n      pop\n      pop\n      jump\t// out\n        /* \"#utility.yul\":12878:13007   */\n    tag_537:\n        /* \"#utility.yul\":12912:12918   */\n      0x00\n        /* \"#utility.yul\":12939:12959   */\n      tag_739\n      tag_498\n      jump\t// in\n    tag_739:\n        /* \"#utility.yul\":12929:12959   */\n      swap1\n      pop\n        /* \"#utility.yul\":12968:13001   */\n      tag_740\n        /* \"#utility.yul\":12996:13000   */\n      dup3\n        /* \"#utility.yul\":12988:12994   */\n      dup3\n        /* \"#utility.yul\":12968:13001   */\n      tag_536\n      jump\t// in\n    tag_740:\n        /* \"#utility.yul\":12878:13007   */\n      swap2\n      swap1\n      pop\n      jump\t// out\n        /* \"#utility.yul\":13013:13321   */\n    tag_538:\n        /* \"#utility.yul\":13075:13079   */\n      0x00\n        /* \"#utility.yul\":13165:13183   */\n      0xffffffffffffffff\n        /* \"#utility.yul\":13157:13163   */\n      dup3\n        /* \"#utility.yul\":13154:13184   */\n      gt\n        /* \"#utility.yul\":13151:13207   */\n      iszero\n      tag_742\n      jumpi\n        /* \"#utility.yul\":13187:13205   */\n      tag_743\n      tag_354\n      jump\t// in\n    tag_743:\n        /* \"#utility.yul\":13151:13207   */\n    tag_742:\n        /* \"#utility.yul\":13225:13254   */\n      tag_744\n        /* \"#utility.yul\":13247:13253   */\n      dup3\n        /* \"#utility.yul\":13225:13254   */\n      tag_511\n      jump\t// in\n    tag_744:\n        /* \"#utility.yul\":13217:13254   */\n      swap1\n      pop\n        /* \"#utility.yul\":13309:13313   */\n      0x20\n        /* \"#utility.yul\":13303:13307   */\n      dup2\n        /* \"#utility.yul\":13299:13314   */\n      add\n        /* \"#utility.yul\":13291:13314   */\n      swap1\n      pop\n        /* \"#utility.yul\":13013:13321   */\n      swap2\n      swap1\n      pop\n      jump\t// out\n        /* \"#utility.yul\":13327:13473   */\n    tag_539:\n        /* \"#utility.yul\":13424:13430   */\n      dup3\n        /* \"#utility.yul\":13419:13422   */\n      dup2\n        /* \"#utility.yul\":13414:13417   */\n      dup4\n        /* \"#utility.yul\":13401:13431   */\n      calldatacopy\n        /* \"#utility.yul\":13465:13466   */\n      0x00\n        /* \"#utility.yul\":13456:13462   */\n      dup4\n        /* \"#utility.yul\":13451:13454   */\n      dup4\n        /* \"#utility.yul\":13447:13463   */\n      add\n        /* \"#utility.yul\":13440:13467   */\n      mstore\n        /* \"#utility.yul\":13327:13473   */\n      pop\n      pop\n      pop\n      jump\t// out\n        /* \"#utility.yul\":13479:13904   */\n    tag_540:\n        /* \"#utility.yul\":13557:13562   */\n      0x00\n        /* \"#utility.yul\":13582:13648   */\n      tag_747\n        /* \"#utility.yul\":13598:13647   */\n      tag_748\n        /* \"#utility.yul\":13640:13646   */\n      dup5\n        /* \"#utility.yul\":13598:13647   */\n      tag_538\n      jump\t// in\n    tag_748:\n        /* \"#utility.yul\":13582:13648   */\n      tag_537\n      jump\t// in\n    tag_747:\n        /* \"#utility.yul\":13573:13648   */\n      swap1\n      pop\n        /* \"#utility.yul\":13671:13677   */\n      dup3\n        /* \"#utility.yul\":13664:13669   */\n      dup2\n        /* \"#utility.yul\":13657:13678   */\n      mstore\n        /* \"#utility.yul\":13709:13713   */\n      0x20\n        /* \"#utility.yul\":13702:13707   */\n      dup2\n        /* \"#utility.yul\":13698:13714   */\n      add\n        /* \"#utility.yul\":13747:13750   */\n      dup5\n        /* \"#utility.yul\":13738:13744   */\n      dup5\n        /* \"#utility.yul\":13733:13736   */\n      dup5\n        /* \"#utility.yul\":13729:13745   */\n      add\n        /* \"#utility.yul\":13726:13751   */\n      gt\n        /* \"#utility.yul\":13723:13835   */\n      iszero\n      tag_749\n      jumpi\n        /* \"#utility.yul\":13754:13833   */\n      tag_750\n      tag_535\n      jump\t// in\n    tag_750:\n        /* \"#utility.yul\":13723:13835   */\n    tag_749:\n        /* \"#utility.yul\":13844:13898   */\n      tag_751\n        /* \"#utility.yul\":13891:13897   */\n      dup5\n        /* \"#utility.yul\":13886:13889   */\n      dup3\n        /* \"#utility.yul\":13881:13884   */\n      dup6\n        /* \"#utility.yul\":13844:13898   */\n      tag_539\n      jump\t// in\n    tag_751:\n        /* \"#utility.yul\":13563:13904   */\n      pop\n        /* \"#utility.yul\":13479:13904   */\n      swap4\n      swap3\n      pop\n      pop\n      pop\n      jump\t// out\n        /* \"#utility.yul\":13924:14264   */\n    tag_541:\n        /* \"#utility.yul\":13980:13985   */\n      0x00\n        /* \"#utility.yul\":14029:14032   */\n      dup3\n        /* \"#utility.yul\":14022:14026   */\n      0x1f\n        /* \"#utility.yul\":14014:14020   */\n      dup4\n        /* \"#utility.yul\":14010:14027   */\n      add\n        /* \"#utility.yul\":14006:14033   */\n      slt\n        /* \"#utility.yul\":13996:14118   */\n      tag_753\n      jumpi\n        /* \"#utility.yul\":14037:14116   */\n      tag_754\n      tag_517\n      jump\t// in\n    tag_754:\n        /* \"#utility.yul\":13996:14118   */\n    tag_753:\n        /* \"#utility.yul\":14154:14160   */\n      dup2\n        /* \"#utility.yul\":14141:14161   */\n      calldataload\n        /* \"#utility.yul\":14179:14258   */\n      tag_755\n        /* \"#utility.yul\":14254:14257   */\n      dup5\n        /* \"#utility.yul\":14246:14252   */\n      dup3\n        /* \"#utility.yul\":14239:14243   */\n      0x20\n        /* \"#utility.yul\":14231:14237   */\n      dup7\n        /* \"#utility.yul\":14227:14244   */\n      add\n        /* \"#utility.yul\":14179:14258   */\n      tag_540\n      jump\t// in\n    tag_755:\n        /* \"#utility.yul\":14170:14258   */\n      swap2\n      pop\n        /* \"#utility.yul\":13986:14264   */\n      pop\n        /* \"#utility.yul\":13924:14264   */\n      swap3\n      swap2\n      pop\n      pop\n      jump\t// out\n        /* \"#utility.yul\":14270:14577   */\n    tag_542:\n        /* \"#utility.yul\":14331:14335   */\n      0x00\n        /* \"#utility.yul\":14421:14439   */\n      0xffffffffffffffff\n        /* \"#utility.yul\":14413:14419   */\n      dup3\n        /* \"#utility.yul\":14410:14440   */\n      gt\n        /* \"#utility.yul\":14407:14463   */\n      iszero\n      tag_757\n      jumpi\n        /* \"#utility.yul\":14443:14461   */\n      tag_758\n      tag_354\n      jump\t// in\n    tag_758:\n        /* \"#utility.yul\":14407:14463   */\n    tag_757:\n        /* \"#utility.yul\":14481:14510   */\n      tag_759\n        /* \"#utility.yul\":14503:14509   */\n      dup3\n        /* \"#utility.yul\":14481:14510   */\n      tag_511\n      jump\t// in\n    tag_759:\n        /* \"#utility.yul\":14473:14510   */\n      swap1\n      pop\n        /* \"#utility.yul\":14565:14569   */\n      0x20\n        /* \"#utility.yul\":14559:14563   */\n      dup2\n        /* \"#utility.yul\":14555:14570   */\n      add\n        /* \"#utility.yul\":14547:14570   */\n      swap1\n      pop\n        /* \"#utility.yul\":14270:14577   */\n      swap2\n      swap1\n      pop\n      jump\t// out\n        /* \"#utility.yul\":14583:15006   */\n    tag_543:\n        /* \"#utility.yul\":14660:14665   */\n      0x00\n        /* \"#utility.yul\":14685:14750   */\n      tag_761\n        /* \"#utility.yul\":14701:14749   */\n      tag_762\n        /* \"#utility.yul\":14742:14748   */\n      dup5\n        /* \"#utility.yul\":14701:14749   */\n      tag_542\n      jump\t// in\n    tag_762:\n        /* \"#utility.yul\":14685:14750   */\n      tag_537\n      jump\t// in\n    tag_761:\n        /* \"#utility.yul\":14676:14750   */\n      swap1\n      pop\n        /* \"#utility.yul\":14773:14779   */\n      dup3\n        /* \"#utility.yul\":14766:14771   */\n      dup2\n        /* \"#utility.yul\":14759:14780   */\n      mstore\n        /* \"#utility.yul\":14811:14815   */\n      0x20\n        /* \"#utility.yul\":14804:14809   */\n      dup2\n        /* \"#utility.yul\":14800:14816   */\n      add\n        /* \"#utility.yul\":14849:14852   */\n      dup5\n        /* \"#utility.yul\":14840:14846   */\n      dup5\n        /* \"#utility.yul\":14835:14838   */\n      dup5\n        /* \"#utility.yul\":14831:14847   */\n      add\n        /* \"#utility.yul\":14828:14853   */\n      gt\n        /* \"#utility.yul\":14825:14937   */\n      iszero\n      tag_763\n      jumpi\n        /* \"#utility.yul\":14856:14935   */\n      tag_764\n      tag_535\n      jump\t// in\n    tag_764:\n        /* \"#utility.yul\":14825:14937   */\n    tag_763:\n        /* \"#utility.yul\":14946:15000   */\n      tag_765\n        /* \"#utility.yul\":14993:14999   */\n      dup5\n        /* \"#utility.yul\":14988:14991   */\n      dup3\n        /* \"#utility.yul\":14983:14986   */\n      dup6\n        /* \"#utility.yul\":14946:15000   */\n      tag_539\n      jump\t// in\n    tag_765:\n        /* \"#utility.yul\":14666:15006   */\n      pop\n        /* \"#utility.yul\":14583:15006   */\n      swap4\n      swap3\n      pop\n      pop\n      pop\n      jump\t// out\n        /* \"#utility.yul\":15025:15363   */\n    tag_544:\n        /* \"#utility.yul\":15080:15085   */\n      0x00\n        /* \"#utility.yul\":15129:15132   */\n      dup3\n        /* \"#utility.yul\":15122:15126   */\n      0x1f\n        /* \"#utility.yul\":15114:15120   */\n      dup4\n        /* \"#utility.yul\":15110:15127   */\n      add\n        /* \"#utility.yul\":15106:15133   */\n      slt\n        /* \"#utility.yul\":15096:15218   */\n      tag_767\n      jumpi\n        /* \"#utility.yul\":15137:15216   */\n      tag_768\n      tag_517\n      jump\t// in\n    tag_768:\n        /* \"#utility.yul\":15096:15218   */\n    tag_767:\n        /* \"#utility.yul\":15254:15260   */\n      dup2\n        /* \"#utility.yul\":15241:15261   */\n      calldataload\n        /* \"#utility.yul\":15279:15357   */\n      tag_769\n        /* \"#utility.yul\":15353:15356   */\n      dup5\n        /* \"#utility.yul\":15345:15351   */\n      dup3\n        /* \"#utility.yul\":15338:15342   */\n      0x20\n        /* \"#utility.yul\":15330:15336   */\n      dup7\n        /* \"#utility.yul\":15326:15343   */\n      add\n        /* \"#utility.yul\":15279:15357   */\n      tag_543\n      jump\t// in\n    tag_769:\n        /* \"#utility.yul\":15270:15357   */\n      swap2\n      pop\n        /* \"#utility.yul\":15086:15363   */\n      pop\n        /* \"#utility.yul\":15025:15363   */\n      swap3\n      swap2\n      pop\n      pop\n      jump\t// out\n        /* \"#utility.yul\":15369:16818   */\n    tag_94:\n        /* \"#utility.yul\":15493:15499   */\n      0x00\n        /* \"#utility.yul\":15501:15507   */\n      dup1\n        /* \"#utility.yul\":15509:15515   */\n      0x00\n        /* \"#utility.yul\":15517:15523   */\n      dup1\n        /* \"#utility.yul\":15525:15531   */\n      0x00\n        /* \"#utility.yul\":15574:15577   */\n      0xa0\n        /* \"#utility.yul\":15562:15571   */\n      dup7\n        /* \"#utility.yul\":15553:15560   */\n      dup9\n        /* \"#utility.yul\":15549:15572   */\n      sub\n        /* \"#utility.yul\":15545:15578   */\n      slt\n        /* \"#utility.yul\":15542:15662   */\n      iszero\n      tag_771\n      jumpi\n        /* \"#utility.yul\":15581:15660   */\n      tag_772\n      tag_499\n      jump\t// in\n    tag_772:\n        /* \"#utility.yul\":15542:15662   */\n    tag_771:\n        /* \"#utility.yul\":15729:15730   */\n      0x00\n        /* \"#utility.yul\":15718:15727   */\n      dup7\n        /* \"#utility.yul\":15714:15731   */\n      add\n        /* \"#utility.yul\":15701:15732   */\n      calldataload\n        /* \"#utility.yul\":15759:15777   */\n      0xffffffffffffffff\n        /* \"#utility.yul\":15751:15757   */\n      dup2\n        /* \"#utility.yul\":15748:15778   */\n      gt\n        /* \"#utility.yul\":15745:15862   */\n      iszero\n      tag_773\n      jumpi\n        /* \"#utility.yul\":15781:15860   */\n      tag_774\n      tag_500\n      jump\t// in\n    tag_774:\n        /* \"#utility.yul\":15745:15862   */\n    tag_773:\n        /* \"#utility.yul\":15886:15949   */\n      tag_775\n        /* \"#utility.yul\":15941:15948   */\n      dup9\n        /* \"#utility.yul\":15932:15938   */\n      dup3\n        /* \"#utility.yul\":15921:15930   */\n      dup10\n        /* \"#utility.yul\":15917:15939   */\n      add\n        /* \"#utility.yul\":15886:15949   */\n      tag_541\n      jump\t// in\n    tag_775:\n        /* \"#utility.yul\":15876:15949   */\n      swap6\n      pop\n        /* \"#utility.yul\":15672:15959   */\n      pop\n        /* \"#utility.yul\":16026:16028   */\n      0x20\n        /* \"#utility.yul\":16015:16024   */\n      dup7\n        /* \"#utility.yul\":16011:16029   */\n      add\n        /* \"#utility.yul\":15998:16030   */\n      calldataload\n        /* \"#utility.yul\":16057:16075   */\n      0xffffffffffffffff\n        /* \"#utility.yul\":16049:16055   */\n      dup2\n        /* \"#utility.yul\":16046:16076   */\n      gt\n        /* \"#utility.yul\":16043:16160   */\n      iszero\n      tag_776\n      jumpi\n        /* \"#utility.yul\":16079:16158   */\n      tag_777\n      tag_500\n      jump\t// in\n    tag_777:\n        /* \"#utility.yul\":16043:16160   */\n    tag_776:\n        /* \"#utility.yul\":16184:16247   */\n      tag_778\n        /* \"#utility.yul\":16239:16246   */\n      dup9\n        /* \"#utility.yul\":16230:16236   */\n      dup3\n        /* \"#utility.yul\":16219:16228   */\n      dup10\n        /* \"#utility.yul\":16215:16237   */\n      add\n        /* \"#utility.yul\":16184:16247   */\n      tag_541\n      jump\t// in\n    tag_778:\n        /* \"#utility.yul\":16174:16247   */\n      swap5\n      pop\n        /* \"#utility.yul\":15969:16257   */\n      pop\n        /* \"#utility.yul\":16296:16298   */\n      0x40\n        /* \"#utility.yul\":16322:16375   */\n      tag_779\n        /* \"#utility.yul\":16367:16374   */\n      dup9\n        /* \"#utility.yul\":16358:16364   */\n      dup3\n        /* \"#utility.yul\":16347:16356   */\n      dup10\n        /* \"#utility.yul\":16343:16365   */\n      add\n        /* \"#utility.yul\":16322:16375   */\n      tag_523\n      jump\t// in\n    tag_779:\n        /* \"#utility.yul\":16312:16375   */\n      swap4\n      pop\n        /* \"#utility.yul\":16267:16385   */\n      pop\n        /* \"#utility.yul\":16452:16454   */\n      0x60\n        /* \"#utility.yul\":16441:16450   */\n      dup7\n        /* \"#utility.yul\":16437:16455   */\n      add\n        /* \"#utility.yul\":16424:16456   */\n      calldataload\n        /* \"#utility.yul\":16483:16501   */\n      0xffffffffffffffff\n        /* \"#utility.yul\":16475:16481   */\n      dup2\n        /* \"#utility.yul\":16472:16502   */\n      gt\n        /* \"#utility.yul\":16469:16586   */\n      iszero\n      tag_780\n      jumpi\n        /* \"#utility.yul\":16505:16584   */\n      tag_781\n      tag_500\n      jump\t// in\n    tag_781:\n        /* \"#utility.yul\":16469:16586   */\n    tag_780:\n        /* \"#utility.yul\":16610:16672   */\n      tag_782\n        /* \"#utility.yul\":16664:16671   */\n      dup9\n        /* \"#utility.yul\":16655:16661   */\n      dup3\n        /* \"#utility.yul\":16644:16653   */\n      dup10\n        /* \"#utility.yul\":16640:16662   */\n      add\n        /* \"#utility.yul\":16610:16672   */\n      tag_544\n      jump\t// in\n    tag_782:\n        /* \"#utility.yul\":16600:16672   */\n      swap3\n      pop\n        /* \"#utility.yul\":16395:16682   */\n      pop\n        /* \"#utility.yul\":16721:16724   */\n      0x80\n        /* \"#utility.yul\":16748:16801   */\n      tag_783\n        /* \"#utility.yul\":16793:16800   */\n      dup9\n        /* \"#utility.yul\":16784:16790   */\n      dup3\n        /* \"#utility.yul\":16773:16782   */\n      dup10\n        /* \"#utility.yul\":16769:16791   */\n      add\n        /* \"#utility.yul\":16748:16801   */\n      tag_503\n      jump\t// in\n    tag_783:\n        /* \"#utility.yul\":16738:16801   */\n      swap2\n      pop\n        /* \"#utility.yul\":16692:16811   */\n      pop\n        /* \"#utility.yul\":15369:16818   */\n      swap3\n      swap6\n      pop\n      swap3\n      swap6\n      swap1\n      swap4\n      pop\n      jump\t// out\n        /* \"#utility.yul\":16824:16938   */\n    tag_545:\n        /* \"#utility.yul\":16891:16897   */\n      0x00\n        /* \"#utility.yul\":16925:16930   */\n      dup2\n        /* \"#utility.yul\":16919:16931   */\n      mload\n        /* \"#utility.yul\":16909:16931   */\n      swap1\n      pop\n        /* \"#utility.yul\":16824:16938   */\n      swap2\n      swap1\n      pop\n      jump\t// out\n        /* \"#utility.yul\":16944:17128   */\n    tag_546:\n        /* \"#utility.yul\":17043:17054   */\n      0x00\n        /* \"#utility.yul\":17077:17083   */\n      dup3\n        /* \"#utility.yul\":17072:17075   */\n      dup3\n        /* \"#utility.yul\":17065:17084   */\n      mstore\n        /* \"#utility.yul\":17117:17121   */\n      0x20\n        /* \"#utility.yul\":17112:17115   */\n      dup3\n        /* \"#utility.yul\":17108:17122   */\n      add\n        /* \"#utility.yul\":17093:17122   */\n      swap1\n      pop\n        /* \"#utility.yul\":16944:17128   */\n      swap3\n      swap2\n      pop\n      pop\n      jump\t// out\n        /* \"#utility.yul\":17134:17266   */\n    tag_547:\n        /* \"#utility.yul\":17201:17205   */\n      0x00\n        /* \"#utility.yul\":17224:17227   */\n      dup2\n        /* \"#utility.yul\":17216:17227   */\n      swap1\n      pop\n        /* \"#utility.yul\":17254:17258   */\n      0x20\n        /* \"#utility.yul\":17249:17252   */\n      dup3\n        /* \"#utility.yul\":17245:17259   */\n      add\n        /* \"#utility.yul\":17237:17259   */\n      swap1\n      pop\n        /* \"#utility.yul\":17134:17266   */\n      swap2\n      swap1\n      pop\n      jump\t// out\n        /* \"#utility.yul\":17272:17380   */\n    tag_548:\n        /* \"#utility.yul\":17349:17373   */\n      tag_788\n        /* \"#utility.yul\":17367:17372   */\n      dup2\n        /* \"#utility.yul\":17349:17373   */\n      tag_506\n      jump\t// in\n    tag_788:\n        /* \"#utility.yul\":17344:17347   */\n      dup3\n        /* \"#utility.yul\":17337:17374   */\n      mstore\n        /* \"#utility.yul\":17272:17380   */\n      pop\n      pop\n      jump\t// out\n        /* \"#utility.yul\":17386:17565   */\n    tag_549:\n        /* \"#utility.yul\":17455:17465   */\n      0x00\n        /* \"#utility.yul\":17476:17522   */\n      tag_790\n        /* \"#utility.yul\":17518:17521   */\n      dup4\n        /* \"#utility.yul\":17510:17516   */\n      dup4\n        /* \"#utility.yul\":17476:17522   */\n      tag_548\n      jump\t// in\n    tag_790:\n        /* \"#utility.yul\":17554:17558   */\n      0x20\n        /* \"#utility.yul\":17549:17552   */\n      dup4\n        /* \"#utility.yul\":17545:17559   */\n      add\n        /* \"#utility.yul\":17531:17559   */\n      swap1\n      pop\n        /* \"#utility.yul\":17386:17565   */\n      swap3\n      swap2\n      pop\n      pop\n      jump\t// out\n        /* \"#utility.yul\":17571:17684   */\n    tag_550:\n        /* \"#utility.yul\":17641:17645   */\n      0x00\n        /* \"#utility.yul\":17673:17677   */\n      0x20\n        /* \"#utility.yul\":17668:17671   */\n      dup3\n        /* \"#utility.yul\":17664:17678   */\n      add\n        /* \"#utility.yul\":17656:17678   */\n      swap1\n      pop\n        /* \"#utility.yul\":17571:17684   */\n      swap2\n      swap1\n      pop\n      jump\t// out\n        /* \"#utility.yul\":17720:18452   */\n    tag_551:\n        /* \"#utility.yul\":17839:17842   */\n      0x00\n        /* \"#utility.yul\":17868:17922   */\n      tag_793\n        /* \"#utility.yul\":17916:17921   */\n      dup3\n        /* \"#utility.yul\":17868:17922   */\n      tag_545\n      jump\t// in\n    tag_793:\n        /* \"#utility.yul\":17938:18024   */\n      tag_794\n        /* \"#utility.yul\":18017:18023   */\n      dup2\n        /* \"#utility.yul\":18012:18015   */\n      dup6\n        /* \"#utility.yul\":17938:18024   */\n      tag_546\n      jump\t// in\n    tag_794:\n        /* \"#utility.yul\":17931:18024   */\n      swap4\n      pop\n        /* \"#utility.yul\":18048:18104   */\n      tag_795\n        /* \"#utility.yul\":18098:18103   */\n      dup4\n        /* \"#utility.yul\":18048:18104   */\n      tag_547\n      jump\t// in\n    tag_795:\n        /* \"#utility.yul\":18127:18134   */\n      dup1\n        /* \"#utility.yul\":18158:18159   */\n      0x00\n        /* \"#utility.yul\":18143:18427   */\n    tag_796:\n        /* \"#utility.yul\":18168:18174   */\n      dup4\n        /* \"#utility.yul\":18165:18166   */\n      dup2\n        /* \"#utility.yul\":18162:18175   */\n      lt\n        /* \"#utility.yul\":18143:18427   */\n      iszero\n      tag_798\n      jumpi\n        /* \"#utility.yul\":18244:18250   */\n      dup2\n        /* \"#utility.yul\":18238:18251   */\n      mload\n        /* \"#utility.yul\":18271:18334   */\n      tag_799\n        /* \"#utility.yul\":18330:18333   */\n      dup9\n        /* \"#utility.yul\":18315:18328   */\n      dup3\n        /* \"#utility.yul\":18271:18334   */\n      tag_549\n      jump\t// in\n    tag_799:\n        /* \"#utility.yul\":18264:18334   */\n      swap8\n      pop\n        /* \"#utility.yul\":18357:18417   */\n      tag_800\n        /* \"#utility.yul\":18410:18416   */\n      dup4\n        /* \"#utility.yul\":18357:18417   */\n      tag_550\n      jump\t// in\n    tag_800:\n        /* \"#utility.yul\":18347:18417   */\n      swap3\n      pop\n        /* \"#utility.yul\":18203:18427   */\n      pop\n        /* \"#utility.yul\":18190:18191   */\n      0x01\n        /* \"#utility.yul\":18187:18188   */\n      dup2\n        /* \"#utility.yul\":18183:18192   */\n      add\n        /* \"#utility.yul\":18178:18192   */\n      swap1\n      pop\n        /* \"#utility.yul\":18143:18427   */\n      jump(tag_796)\n    tag_798:\n        /* \"#utility.yul\":18147:18161   */\n      pop\n        /* \"#utility.yul\":18443:18446   */\n      dup6\n        /* \"#utility.yul\":18436:18446   */\n      swap4\n      pop\n        /* \"#utility.yul\":17844:18452   */\n      pop\n      pop\n      pop\n        /* \"#utility.yul\":17720:18452   */\n      swap3\n      swap2\n      pop\n      pop\n      jump\t// out\n        /* \"#utility.yul\":18458:18831   */\n    tag_102:\n        /* \"#utility.yul\":18601:18605   */\n      0x00\n        /* \"#utility.yul\":18639:18641   */\n      0x20\n        /* \"#utility.yul\":18628:18637   */\n      dup3\n        /* \"#utility.yul\":18624:18642   */\n      add\n        /* \"#utility.yul\":18616:18642   */\n      swap1\n      pop\n        /* \"#utility.yul\":18688:18697   */\n      dup2\n        /* \"#utility.yul\":18682:18686   */\n      dup2\n        /* \"#utility.yul\":18678:18698   */\n      sub\n        /* \"#utility.yul\":18674:18675   */\n      0x00\n        /* \"#utility.yul\":18663:18672   */\n      dup4\n        /* \"#utility.yul\":18659:18676   */\n      add\n        /* \"#utility.yul\":18652:18699   */\n      mstore\n        /* \"#utility.yul\":18716:18824   */\n      tag_802\n        /* \"#utility.yul\":18819:18823   */\n      dup2\n        /* \"#utility.yul\":18810:18816   */\n      dup5\n        /* \"#utility.yul\":18716:18824   */\n      tag_551\n      jump\t// in\n    tag_802:\n        /* \"#utility.yul\":18708:18824   */\n      swap1\n      pop\n        /* \"#utility.yul\":18458:18831   */\n      swap3\n      swap2\n      pop\n      pop\n      jump\t// out\n        /* \"#utility.yul\":18837:19671   */\n    tag_107:\n        /* \"#utility.yul\":19076:19080   */\n      0x00\n        /* \"#utility.yul\":19114:19117   */\n      0xa0\n        /* \"#utility.yul\":19103:19112   */\n      dup3\n        /* \"#utility.yul\":19099:19118   */\n      add\n        /* \"#utility.yul\":19091:19118   */\n      swap1\n      pop\n        /* \"#utility.yul\":19128:19199   */\n      tag_804\n        /* \"#utility.yul\":19196:19197   */\n      0x00\n        /* \"#utility.yul\":19185:19194   */\n      dup4\n        /* \"#utility.yul\":19181:19198   */\n      add\n        /* \"#utility.yul\":19172:19178   */\n      dup9\n        /* \"#utility.yul\":19128:19199   */\n      tag_507\n      jump\t// in\n    tag_804:\n        /* \"#utility.yul\":19246:19255   */\n      dup2\n        /* \"#utility.yul\":19240:19244   */\n      dup2\n        /* \"#utility.yul\":19236:19256   */\n      sub\n        /* \"#utility.yul\":19231:19233   */\n      0x20\n        /* \"#utility.yul\":19220:19229   */\n      dup4\n        /* \"#utility.yul\":19216:19234   */\n      add\n        /* \"#utility.yul\":19209:19257   */\n      mstore\n        /* \"#utility.yul\":19274:19352   */\n      tag_805\n        /* \"#utility.yul\":19347:19351   */\n      dup2\n        /* \"#utility.yul\":19338:19344   */\n      dup8\n        /* \"#utility.yul\":19274:19352   */\n      tag_526\n      jump\t// in\n    tag_805:\n        /* \"#utility.yul\":19266:19352   */\n      swap1\n      pop\n        /* \"#utility.yul\":19399:19408   */\n      dup2\n        /* \"#utility.yul\":19393:19397   */\n      dup2\n        /* \"#utility.yul\":19389:19409   */\n      sub\n        /* \"#utility.yul\":19384:19386   */\n      0x40\n        /* \"#utility.yul\":19373:19382   */\n      dup4\n        /* \"#utility.yul\":19369:19387   */\n      add\n        /* \"#utility.yul\":19362:19410   */\n      mstore\n        /* \"#utility.yul\":19427:19505   */\n      tag_806\n        /* \"#utility.yul\":19500:19504   */\n      dup2\n        /* \"#utility.yul\":19491:19497   */\n      dup7\n        /* \"#utility.yul\":19427:19505   */\n      tag_526\n      jump\t// in\n    tag_806:\n        /* \"#utility.yul\":19419:19505   */\n      swap1\n      pop\n        /* \"#utility.yul\":19515:19587   */\n      tag_807\n        /* \"#utility.yul\":19583:19585   */\n      0x60\n        /* \"#utility.yul\":19572:19581   */\n      dup4\n        /* \"#utility.yul\":19568:19586   */\n      add\n        /* \"#utility.yul\":19559:19565   */\n      dup6\n        /* \"#utility.yul\":19515:19587   */\n      tag_527\n      jump\t// in\n    tag_807:\n        /* \"#utility.yul\":19597:19664   */\n      tag_808\n        /* \"#utility.yul\":19659:19662   */\n      0x80\n        /* \"#utility.yul\":19648:19657   */\n      dup4\n        /* \"#utility.yul\":19644:19663   */\n      add\n        /* \"#utility.yul\":19635:19641   */\n      dup5\n        /* \"#utility.yul\":19597:19664   */\n      tag_514\n      jump\t// in\n    tag_808:\n        /* \"#utility.yul\":18837:19671   */\n      swap7\n      swap6\n      pop\n      pop\n      pop\n      pop\n      pop\n      pop\n      jump\t// out\n        /* \"#utility.yul\":19677:19887   */\n    tag_112:\n        /* \"#utility.yul\":19764:19768   */\n      0x00\n        /* \"#utility.yul\":19802:19804   */\n      0x20\n        /* \"#utility.yul\":19791:19800   */\n      dup3\n        /* \"#utility.yul\":19787:19805   */\n      add\n        /* \"#utility.yul\":19779:19805   */\n      swap1\n      pop\n        /* \"#utility.yul\":19815:19880   */\n      tag_810\n        /* \"#utility.yul\":19877:19878   */\n      0x00\n        /* \"#utility.yul\":19866:19875   */\n      dup4\n        /* \"#utility.yul\":19862:19879   */\n      add\n        /* \"#utility.yul\":19853:19859   */\n      dup5\n        /* \"#utility.yul\":19815:19880   */\n      tag_514\n      jump\t// in\n    tag_810:\n        /* \"#utility.yul\":19677:19887   */\n      swap3\n      swap2\n      pop\n      pop\n      jump\t// out\n        /* \"#utility.yul\":19893:20007   */\n    tag_552:\n        /* \"#utility.yul\":19960:19966   */\n      0x00\n        /* \"#utility.yul\":19994:19999   */\n      dup2\n        /* \"#utility.yul\":19988:20000   */\n      mload\n        /* \"#utility.yul\":19978:20000   */\n      swap1\n      pop\n        /* \"#utility.yul\":19893:20007   */\n      swap2\n      swap1\n      pop\n      jump\t// out\n        /* \"#utility.yul\":20013:20197   */\n    tag_553:\n        /* \"#utility.yul\":20112:20123   */\n      0x00\n        /* \"#utility.yul\":20146:20152   */\n      dup3\n        /* \"#utility.yul\":20141:20144   */\n      dup3\n        /* \"#utility.yul\":20134:20153   */\n      mstore\n        /* \"#utility.yul\":20186:20190   */\n      0x20\n        /* \"#utility.yul\":20181:20184   */\n      dup3\n        /* \"#utility.yul\":20177:20191   */\n      add\n        /* \"#utility.yul\":20162:20191   */\n      swap1\n      pop\n        /* \"#utility.yul\":20013:20197   */\n      swap3\n      swap2\n      pop\n      pop\n      jump\t// out\n        /* \"#utility.yul\":20203:20335   */\n    tag_554:\n        /* \"#utility.yul\":20270:20274   */\n      0x00\n        /* \"#utility.yul\":20293:20296   */\n      dup2\n        /* \"#utility.yul\":20285:20296   */\n      swap1\n      pop\n        /* \"#utility.yul\":20323:20327   */\n      0x20\n        /* \"#utility.yul\":20318:20321   */\n      dup3\n        /* \"#utility.yul\":20314:20328   */\n      add\n        /* \"#utility.yul\":20306:20328   */\n      swap1\n      pop\n        /* \"#utility.yul\":20203:20335   */\n      swap2\n      swap1\n      pop\n      jump\t// out\n        /* \"#utility.yul\":20341:20449   */\n    tag_555:\n        /* \"#utility.yul\":20418:20442   */\n      tag_815\n        /* \"#utility.yul\":20436:20441   */\n      dup2\n        /* \"#utility.yul\":20418:20442   */\n      tag_521\n      jump\t// in\n    tag_815:\n        /* \"#utility.yul\":20413:20416   */\n      dup3\n        /* \"#utility.yul\":20406:20443   */\n      mstore\n        /* \"#utility.yul\":20341:20449   */\n      pop\n      pop\n      jump\t// out\n        /* \"#utility.yul\":20455:20634   */\n    tag_556:\n        /* \"#utility.yul\":20524:20534   */\n      0x00\n        /* \"#utility.yul\":20545:20591   */\n      tag_817\n        /* \"#utility.yul\":20587:20590   */\n      dup4\n        /* \"#utility.yul\":20579:20585   */\n      dup4\n        /* \"#utility.yul\":20545:20591   */\n      tag_555\n      jump\t// in\n    tag_817:\n        /* \"#utility.yul\":20623:20627   */\n      0x20\n        /* \"#utility.yul\":20618:20621   */\n      dup4\n        /* \"#utility.yul\":20614:20628   */\n      add\n        /* \"#utility.yul\":20600:20628   */\n      swap1\n      pop\n        /* \"#utility.yul\":20455:20634   */\n      swap3\n      swap2\n      pop\n      pop\n      jump\t// out\n        /* \"#utility.yul\":20640:20753   */\n    tag_557:\n        /* \"#utility.yul\":20710:20714   */\n      0x00\n        /* \"#utility.yul\":20742:20746   */\n      0x20\n        /* \"#utility.yul\":20737:20740   */\n      dup3\n        /* \"#utility.yul\":20733:20747   */\n      add\n        /* \"#utility.yul\":20725:20747   */\n      swap1\n      pop\n        /* \"#utility.yul\":20640:20753   */\n      swap2\n      swap1\n      pop\n      jump\t// out\n        /* \"#utility.yul\":20789:21521   */\n    tag_558:\n        /* \"#utility.yul\":20908:20911   */\n      0x00\n        /* \"#utility.yul\":20937:20991   */\n      tag_820\n        /* \"#utility.yul\":20985:20990   */\n      dup3\n        /* \"#utility.yul\":20937:20991   */\n      tag_552\n      jump\t// in\n    tag_820:\n        /* \"#utility.yul\":21007:21093   */\n      tag_821\n        /* \"#utility.yul\":21086:21092   */\n      dup2\n        /* \"#utility.yul\":21081:21084   */\n      dup6\n        /* \"#utility.yul\":21007:21093   */\n      tag_553\n      jump\t// in\n    tag_821:\n        /* \"#utility.yul\":21000:21093   */\n      swap4\n      pop\n        /* \"#utility.yul\":21117:21173   */\n      tag_822\n        /* \"#utility.yul\":21167:21172   */\n      dup4\n        /* \"#utility.yul\":21117:21173   */\n      tag_554\n      jump\t// in\n    tag_822:\n        /* \"#utility.yul\":21196:21203   */\n      dup1\n        /* \"#utility.yul\":21227:21228   */\n      0x00\n        /* \"#utility.yul\":21212:21496   */\n    tag_823:\n        /* \"#utility.yul\":21237:21243   */\n      dup4\n        /* \"#utility.yul\":21234:21235   */\n      dup2\n        /* \"#utility.yul\":21231:21244   */\n      lt\n        /* \"#utility.yul\":21212:21496   */\n      iszero\n      tag_825\n      jumpi\n        /* \"#utility.yul\":21313:21319   */\n      dup2\n        /* \"#utility.yul\":21307:21320   */\n      mload\n        /* \"#utility.yul\":21340:21403   */\n      tag_826\n        /* \"#utility.yul\":21399:21402   */\n      dup9\n        /* \"#utility.yul\":21384:21397   */\n      dup3\n        /* \"#utility.yul\":21340:21403   */\n      tag_556\n      jump\t// in\n    tag_826:\n        /* \"#utility.yul\":21333:21403   */\n      swap8\n      pop\n        /* \"#utility.yul\":21426:21486   */\n      tag_827\n        /* \"#utility.yul\":21479:21485   */\n      dup4\n        /* \"#utility.yul\":21426:21486   */\n      tag_557\n      jump\t// in\n    tag_827:\n        /* \"#utility.yul\":21416:21486   */\n      swap3\n      pop\n        /* \"#utility.yul\":21272:21496   */\n      pop\n        /* \"#utility.yul\":21259:21260   */\n      0x01\n        /* \"#utility.yul\":21256:21257   */\n      dup2\n        /* \"#utility.yul\":21252:21261   */\n      add\n        /* \"#utility.yul\":21247:21261   */\n      swap1\n      pop\n        /* \"#utility.yul\":21212:21496   */\n      jump(tag_823)\n    tag_825:\n        /* \"#utility.yul\":21216:21230   */\n      pop\n        /* \"#utility.yul\":21512:21515   */\n      dup6\n        /* \"#utility.yul\":21505:21515   */\n      swap4\n      pop\n        /* \"#utility.yul\":20913:21521   */\n      pop\n      pop\n      pop\n        /* \"#utility.yul\":20789:21521   */\n      swap3\n      swap2\n      pop\n      pop\n      jump\t// out\n        /* \"#utility.yul\":21527:21900   */\n    tag_128:\n        /* \"#utility.yul\":21670:21674   */\n      0x00\n        /* \"#utility.yul\":21708:21710   */\n      0x20\n        /* \"#utility.yul\":21697:21706   */\n      dup3\n        /* \"#utility.yul\":21693:21711   */\n      add\n        /* \"#utility.yul\":21685:21711   */\n      swap1\n      pop\n        /* \"#utility.yul\":21757:21766   */\n      dup2\n        /* \"#utility.yul\":21751:21755   */\n      dup2\n        /* \"#utility.yul\":21747:21767   */\n      sub\n        /* \"#utility.yul\":21743:21744   */\n      0x00\n        /* \"#utility.yul\":21732:21741   */\n      dup4\n        /* \"#utility.yul\":21728:21745   */\n      add\n        /* \"#utility.yul\":21721:21768   */\n      mstore\n        /* \"#utility.yul\":21785:21893   */\n      tag_829\n        /* \"#utility.yul\":21888:21892   */\n      dup2\n        /* \"#utility.yul\":21879:21885   */\n      dup5\n        /* \"#utility.yul\":21785:21893   */\n      tag_558\n      jump\t// in\n    tag_829:\n        /* \"#utility.yul\":21777:21893   */\n      swap1\n      pop\n        /* \"#utility.yul\":21527:21900   */\n      swap3\n      swap2\n      pop\n      pop\n      jump\t// out\n        /* \"#utility.yul\":21906:22279   */\n    tag_133:\n        /* \"#utility.yul\":22049:22053   */\n      0x00\n        /* \"#utility.yul\":22087:22089   */\n      0x20\n        /* \"#utility.yul\":22076:22085   */\n      dup3\n        /* \"#utility.yul\":22072:22090   */\n      add\n        /* \"#utility.yul\":22064:22090   */\n      swap1\n      pop\n        /* \"#utility.yul\":22136:22145   */\n      dup2\n        /* \"#utility.yul\":22130:22134   */\n      dup2\n        /* \"#utility.yul\":22126:22146   */\n      sub\n        /* \"#utility.yul\":22122:22123   */\n      0x00\n        /* \"#utility.yul\":22111:22120   */\n      dup4\n        /* \"#utility.yul\":22107:22124   */\n      add\n        /* \"#utility.yul\":22100:22147   */\n      mstore\n        /* \"#utility.yul\":22164:22272   */\n      tag_831\n        /* \"#utility.yul\":22267:22271   */\n      dup2\n        /* \"#utility.yul\":22258:22264   */\n      dup5\n        /* \"#utility.yul\":22164:22272   */\n      tag_534\n      jump\t// in\n    tag_831:\n        /* \"#utility.yul\":22156:22272   */\n      swap1\n      pop\n        /* \"#utility.yul\":21906:22279   */\n      swap3\n      swap2\n      pop\n      pop\n      jump\t// out\n        /* \"#utility.yul\":22285:23050   */\n    tag_136:\n        /* \"#utility.yul\":22371:22377   */\n      0x00\n        /* \"#utility.yul\":22379:22385   */\n      dup1\n        /* \"#utility.yul\":22387:22393   */\n      0x00\n        /* \"#utility.yul\":22395:22401   */\n      dup1\n        /* \"#utility.yul\":22444:22447   */\n      0x80\n        /* \"#utility.yul\":22432:22441   */\n      dup6\n        /* \"#utility.yul\":22423:22430   */\n      dup8\n        /* \"#utility.yul\":22419:22442   */\n      sub\n        /* \"#utility.yul\":22415:22448   */\n      slt\n        /* \"#utility.yul\":22412:22532   */\n      iszero\n      tag_833\n      jumpi\n        /* \"#utility.yul\":22451:22530   */\n      tag_834\n      tag_499\n      jump\t// in\n    tag_834:\n        /* \"#utility.yul\":22412:22532   */\n    tag_833:\n        /* \"#utility.yul\":22571:22572   */\n      0x00\n        /* \"#utility.yul\":22596:22649   */\n      tag_835\n        /* \"#utility.yul\":22641:22648   */\n      dup8\n        /* \"#utility.yul\":22632:22638   */\n      dup3\n        /* \"#utility.yul\":22621:22630   */\n      dup9\n        /* \"#utility.yul\":22617:22639   */\n      add\n        /* \"#utility.yul\":22596:22649   */\n      tag_523\n      jump\t// in\n    tag_835:\n        /* \"#utility.yul\":22586:22649   */\n      swap5\n      pop\n        /* \"#utility.yul\":22542:22659   */\n      pop\n        /* \"#utility.yul\":22698:22700   */\n      0x20\n        /* \"#utility.yul\":22724:22777   */\n      tag_836\n        /* \"#utility.yul\":22769:22776   */\n      dup8\n        /* \"#utility.yul\":22760:22766   */\n      dup3\n        /* \"#utility.yul\":22749:22758   */\n      dup9\n        /* \"#utility.yul\":22745:22767   */\n      add\n        /* \"#utility.yul\":22724:22777   */\n      tag_516\n      jump\t// in\n    tag_836:\n        /* \"#utility.yul\":22714:22777   */\n      swap4\n      pop\n        /* \"#utility.yul\":22669:22787   */\n      pop\n        /* \"#utility.yul\":22826:22828   */\n      0x40\n        /* \"#utility.yul\":22852:22905   */\n      tag_837\n        /* \"#utility.yul\":22897:22904   */\n      dup8\n        /* \"#utility.yul\":22888:22894   */\n      dup3\n        /* \"#utility.yul\":22877:22886   */\n      dup9\n        /* \"#utility.yul\":22873:22895   */\n      add\n        /* \"#utility.yul\":22852:22905   */\n      tag_503\n      jump\t// in\n    tag_837:\n        /* \"#utility.yul\":22842:22905   */\n      swap3\n      pop\n        /* \"#utility.yul\":22797:22915   */\n      pop\n        /* \"#utility.yul\":22954:22956   */\n      0x60\n        /* \"#utility.yul\":22980:23033   */\n      tag_838\n        /* \"#utility.yul\":23025:23032   */\n      dup8\n        /* \"#utility.yul\":23016:23022   */\n      dup3\n        /* \"#utility.yul\":23005:23014   */\n      dup9\n        /* \"#utility.yul\":23001:23023   */\n      add\n        /* \"#utility.yul\":22980:23033   */\n      tag_503\n      jump\t// in\n    tag_838:\n        /* \"#utility.yul\":22970:23033   */\n      swap2\n      pop\n        /* \"#utility.yul\":22925:23043   */\n      pop\n        /* \"#utility.yul\":22285:23050   */\n      swap3\n      swap6\n      swap2\n      swap5\n      pop\n      swap3\n      pop\n      jump\t// out\n        /* \"#utility.yul\":23056:23530   */\n    tag_140:\n        /* \"#utility.yul\":23124:23130   */\n      0x00\n        /* \"#utility.yul\":23132:23138   */\n      dup1\n        /* \"#utility.yul\":23181:23183   */\n      0x40\n        /* \"#utility.yul\":23169:23178   */\n      dup4\n        /* \"#utility.yul\":23160:23167   */\n      dup6\n        /* \"#utility.yul\":23156:23179   */\n      sub\n        /* \"#utility.yul\":23152:23184   */\n      slt\n        /* \"#utility.yul\":23149:23268   */\n      iszero\n      tag_840\n      jumpi\n        /* \"#utility.yul\":23187:23266   */\n      tag_841\n      tag_499\n      jump\t// in\n    tag_841:\n        /* \"#utility.yul\":23149:23268   */\n    tag_840:\n        /* \"#utility.yul\":23307:23308   */\n      0x00\n        /* \"#utility.yul\":23332:23385   */\n      tag_842\n        /* \"#utility.yul\":23377:23384   */\n      dup6\n        /* \"#utility.yul\":23368:23374   */\n      dup3\n        /* \"#utility.yul\":23357:23366   */\n      dup7\n        /* \"#utility.yul\":23353:23375   */\n      add\n        /* \"#utility.yul\":23332:23385   */\n      tag_503\n      jump\t// in\n    tag_842:\n        /* \"#utility.yul\":23322:23385   */\n      swap3\n      pop\n        /* \"#utility.yul\":23278:23395   */\n      pop\n        /* \"#utility.yul\":23434:23436   */\n      0x20\n        /* \"#utility.yul\":23460:23513   */\n      tag_843\n        /* \"#utility.yul\":23505:23512   */\n      dup6\n        /* \"#utility.yul\":23496:23502   */\n      dup3\n        /* \"#utility.yul\":23485:23494   */\n      dup7\n        /* \"#utility.yul\":23481:23503   */\n      add\n        /* \"#utility.yul\":23460:23513   */\n      tag_503\n      jump\t// in\n    tag_843:\n        /* \"#utility.yul\":23450:23513   */\n      swap2\n      pop\n        /* \"#utility.yul\":23405:23523   */\n      pop\n        /* \"#utility.yul\":23056:23530   */\n      swap3\n      pop\n      swap3\n      swap1\n      pop\n      jump\t// out\n        /* \"#utility.yul\":23536:23758   */\n    tag_147:\n        /* \"#utility.yul\":23629:23633   */\n      0x00\n        /* \"#utility.yul\":23667:23669   */\n      0x20\n        /* \"#utility.yul\":23656:23665   */\n      dup3\n        /* \"#utility.yul\":23652:23670   */\n      add\n        /* \"#utility.yul\":23644:23670   */\n      swap1\n      pop\n        /* \"#utility.yul\":23680:23751   */\n      tag_845\n        /* \"#utility.yul\":23748:23749   */\n      0x00\n        /* \"#utility.yul\":23737:23746   */\n      dup4\n        /* \"#utility.yul\":23733:23750   */\n      add\n        /* \"#utility.yul\":23724:23730   */\n      dup5\n        /* \"#utility.yul\":23680:23751   */\n      tag_527\n      jump\t// in\n    tag_845:\n        /* \"#utility.yul\":23536:23758   */\n      swap3\n      swap2\n      pop\n      pop\n      jump\t// out\n        /* \"#utility.yul\":23764:23944   */\n    tag_559:\n        /* \"#utility.yul\":23812:23889   */\n      0x4e487b7100000000000000000000000000000000000000000000000000000000\n        /* \"#utility.yul\":23809:23810   */\n      0x00\n        /* \"#utility.yul\":23802:23890   */\n      mstore\n        /* \"#utility.yul\":23909:23913   */\n      0x22\n        /* \"#utility.yul\":23906:23907   */\n      0x04\n        /* \"#utility.yul\":23899:23914   */\n      mstore\n        /* \"#utility.yul\":23933:23937   */\n      0x24\n        /* \"#utility.yul\":23930:23931   */\n      0x00\n        /* \"#utility.yul\":23923:23938   */\n      revert\n        /* \"#utility.yul\":23950:24270   */\n    tag_153:\n        /* \"#utility.yul\":23994:24000   */\n      0x00\n        /* \"#utility.yul\":24031:24032   */\n      0x02\n        /* \"#utility.yul\":24025:24029   */\n      dup3\n        /* \"#utility.yul\":24021:24033   */\n      div\n        /* \"#utility.yul\":24011:24033   */\n      swap1\n      pop\n        /* \"#utility.yul\":24078:24079   */\n      0x01\n        /* \"#utility.yul\":24072:24076   */\n      dup3\n        /* \"#utility.yul\":24068:24080   */\n      and\n        /* \"#utility.yul\":24099:24117   */\n      dup1\n        /* \"#utility.yul\":24089:24170   */\n      tag_848\n      jumpi\n        /* \"#utility.yul\":24155:24159   */\n      0x7f\n        /* \"#utility.yul\":24147:24153   */\n      dup3\n        /* \"#utility.yul\":24143:24160   */\n      and\n        /* \"#utility.yul\":24133:24160   */\n      swap2\n      pop\n        /* \"#utility.yul\":24089:24170   */\n    tag_848:\n        /* \"#utility.yul\":24217:24219   */\n      0x20\n        /* \"#utility.yul\":24209:24215   */\n      dup3\n        /* \"#utility.yul\":24206:24220   */\n      lt\n        /* \"#utility.yul\":24186:24204   */\n      dup2\n        /* \"#utility.yul\":24183:24221   */\n      sub\n        /* \"#utility.yul\":24180:24264   */\n      tag_849\n      jumpi\n        /* \"#utility.yul\":24236:24254   */\n      tag_850\n      tag_559\n      jump\t// in\n    tag_850:\n        /* \"#utility.yul\":24180:24264   */\n    tag_849:\n        /* \"#utility.yul\":24001:24270   */\n      pop\n        /* \"#utility.yul\":23950:24270   */\n      swap2\n      swap1\n      pop\n      jump\t// out\n        /* \"#utility.yul\":24276:24456   */\n    tag_165:\n        /* \"#utility.yul\":24324:24401   */\n      0x4e487b7100000000000000000000000000000000000000000000000000000000\n        /* \"#utility.yul\":24321:24322   */\n      0x00\n        /* \"#utility.yul\":24314:24402   */\n      mstore\n        /* \"#utility.yul\":24421:24425   */\n      0x32\n        /* \"#utility.yul\":24418:24419   */\n      0x04\n        /* \"#utility.yul\":24411:24426   */\n      mstore\n        /* \"#utility.yul\":24445:24449   */\n      0x24\n        /* \"#utility.yul\":24442:24443   */\n      0x00\n        /* \"#utility.yul\":24435:24450   */\n      revert\n        /* \"#utility.yul\":24462:24642   */\n    tag_560:\n        /* \"#utility.yul\":24510:24587   */\n      0x4e487b7100000000000000000000000000000000000000000000000000000000\n        /* \"#utility.yul\":24507:24508   */\n      0x00\n        /* \"#utility.yul\":24500:24588   */\n      mstore\n        /* \"#utility.yul\":24607:24611   */\n      0x11\n        /* \"#utility.yul\":24604:24605   */\n      0x04\n        /* \"#utility.yul\":24597:24612   */\n      mstore\n        /* \"#utility.yul\":24631:24635   */\n      0x24\n        /* \"#utility.yul\":24628:24629   */\n      0x00\n        /* \"#utility.yul\":24621:24636   */\n      revert\n        /* \"#utility.yul\":24648:24881   */\n    tag_169:\n        /* \"#utility.yul\":24687:24690   */\n      0x00\n        /* \"#utility.yul\":24710:24734   */\n      tag_854\n        /* \"#utility.yul\":24728:24733   */\n      dup3\n        /* \"#utility.yul\":24710:24734   */\n      tag_501\n      jump\t// in\n    tag_854:\n        /* \"#utility.yul\":24701:24734   */\n      swap2\n      pop\n        /* \"#utility.yul\":24756:24822   */\n      0xffffffffffffffffffffffffffffffffffffffffffffffffffffffffffffffff\n        /* \"#utility.yul\":24749:24754   */\n      dup3\n        /* \"#utility.yul\":24746:24823   */\n      sub\n        /* \"#utility.yul\":24743:24846   */\n      tag_855\n      jumpi\n        /* \"#utility.yul\":24826:24844   */\n      tag_856\n      tag_560\n      jump\t// in\n    tag_856:\n        /* \"#utility.yul\":24743:24846   */\n    tag_855:\n        /* \"#utility.yul\":24873:24874   */\n      0x01\n        /* \"#utility.yul\":24866:24871   */\n      dup3\n        /* \"#utility.yul\":24862:24875   */\n      add\n        /* \"#utility.yul\":24855:24875   */\n      swap1\n      pop\n        /* \"#utility.yul\":24648:24881   */\n      swap2\n      swap1\n      pop\n      jump\t// out\n        /* \"#utility.yul\":24887:25081   */\n    tag_181:\n        /* \"#utility.yul\":24927:24931   */\n      0x00\n        /* \"#utility.yul\":24947:24967   */\n      tag_858\n        /* \"#utility.yul\":24965:24966   */\n      dup3\n        /* \"#utility.yul\":24947:24967   */\n      tag_501\n      jump\t// in\n    tag_858:\n        /* \"#utility.yul\":24942:24967   */\n      swap2\n      pop\n        /* \"#utility.yul\":24981:25001   */\n      tag_859\n        /* \"#utility.yul\":24999:25000   */\n      dup4\n        /* \"#utility.yul\":24981:25001   */\n      tag_501\n      jump\t// in\n    tag_859:\n        /* \"#utility.yul\":24976:25001   */\n      swap3\n      pop\n        /* \"#utility.yul\":25025:25026   */\n      dup3\n        /* \"#utility.yul\":25022:25023   */\n      dup3\n        /* \"#utility.yul\":25018:25027   */\n      sub\n        /* \"#utility.yul\":25010:25027   */\n      swap1\n      pop\n        /* \"#utility.yul\":25049:25050   */\n      dup2\n        /* \"#utility.yul\":25043:25047   */\n      dup2\n        /* \"#utility.yul\":25040:25051   */\n      gt\n        /* \"#utility.yul\":25037:25074   */\n      iszero\n      tag_860\n      jumpi\n        /* \"#utility.yul\":25054:25072   */\n      tag_861\n      tag_560\n      jump\t// in\n    tag_861:\n        /* \"#utility.yul\":25037:25074   */\n    tag_860:\n        /* \"#utility.yul\":24887:25081   */\n      swap3\n      swap2\n      pop\n      pop\n      jump\t// out\n        /* \"#utility.yul\":25087:25267   */\n    tag_190:\n        /* \"#utility.yul\":25135:25212   */\n      0x4e487b7100000000000000000000000000000000000000000000000000000000\n        /* \"#utility.yul\":25132:25133   */\n      0x00\n        /* \"#utility.yul\":25125:25213   */\n      mstore\n        /* \"#utility.yul\":25232:25236   */\n      0x31\n        /* \"#utility.yul\":25229:25230   */\n      0x04\n        /* \"#utility.yul\":25222:25237   */\n      mstore\n        /* \"#utility.yul\":25256:25260   */\n      0x24\n        /* \"#utility.yul\":25253:25254   */\n      0x00\n        /* \"#utility.yul\":25246:25261   */\n      revert\n        /* \"#utility.yul\":25273:25703   */\n    tag_202:\n        /* \"#utility.yul\":25416:25420   */\n      0x00\n        /* \"#utility.yul\":25454:25456   */\n      0x60\n        /* \"#utility.yul\":25443:25452   */\n      dup3\n        /* \"#utility.yul\":25439:25457   */\n      add\n        /* \"#utility.yul\":25431:25457   */\n      swap1\n      pop\n        /* \"#utility.yul\":25467:25538   */\n      tag_864\n        /* \"#utility.yul\":25535:25536   */\n      0x00\n        /* \"#utility.yul\":25524:25533   */\n      dup4\n        /* \"#utility.yul\":25520:25537   */\n      add\n        /* \"#utility.yul\":25511:25517   */\n      dup7\n        /* \"#utility.yul\":25467:25538   */\n      tag_504\n      jump\t// in\n    tag_864:\n        /* \"#utility.yul\":25548:25620   */\n      tag_865\n        /* \"#utility.yul\":25616:25618   */\n      0x20\n        /* \"#utility.yul\":25605:25614   */\n      dup4\n        /* \"#utility.yul\":25601:25619   */\n      add\n        /* \"#utility.yul\":25592:25598   */\n      dup6\n        /* \"#utility.yul\":25548:25620   */\n      tag_507\n      jump\t// in\n    tag_865:\n        /* \"#utility.yul\":25630:25696   */\n      tag_866\n        /* \"#utility.yul\":25692:25694   */\n      0x40\n        /* \"#utility.yul\":25681:25690   */\n      dup4\n        /* \"#utility.yul\":25677:25695   */\n      add\n        /* \"#utility.yul\":25668:25674   */\n      dup5\n        /* \"#utility.yul\":25630:25696   */\n      tag_514\n      jump\t// in\n    tag_866:\n        /* \"#utility.yul\":25273:25703   */\n      swap5\n      swap4\n      pop\n      pop\n      pop\n      pop\n      jump\t// out\n        /* \"#utility.yul\":25709:25879   */\n    tag_561:\n        /* \"#utility.yul\":25849:25871   */\n      0x536861726420646f6573206e6f74206578697374000000000000000000000000\n        /* \"#utility.yul\":25845:25846   */\n      0x00\n        /* \"#utility.yul\":25837:25843   */\n      dup3\n        /* \"#utility.yul\":25833:25847   */\n      add\n        /* \"#utility.yul\":25826:25872   */\n      mstore\n        /* \"#utility.yul\":25709:25879   */\n      pop\n      jump\t// out\n        /* \"#utility.yul\":25885:26251   */\n    tag_562:\n        /* \"#utility.yul\":26027:26030   */\n      0x00\n        /* \"#utility.yul\":26048:26115   */\n      tag_869\n        /* \"#utility.yul\":26112:26114   */\n      0x14\n        /* \"#utility.yul\":26107:26110   */\n      dup4\n        /* \"#utility.yul\":26048:26115   */\n      tag_525\n      jump\t// in\n    tag_869:\n        /* \"#utility.yul\":26041:26115   */\n      swap2\n      pop\n        /* \"#utility.yul\":26124:26217   */\n      tag_870\n        /* \"#utility.yul\":26213:26216   */\n      dup3\n        /* \"#utility.yul\":26124:26217   */\n      tag_561\n      jump\t// in\n    tag_870:\n        /* \"#utility.yul\":26242:26244   */\n      0x20\n        /* \"#utility.yul\":26237:26240   */\n      dup3\n        /* \"#utility.yul\":26233:26245   */\n      add\n        /* \"#utility.yul\":26226:26245   */\n      swap1\n      pop\n        /* \"#utility.yul\":25885:26251   */\n      swap2\n      swap1\n      pop\n      jump\t// out\n        /* \"#utility.yul\":26257:26676   */\n    tag_210:\n        /* \"#utility.yul\":26423:26427   */\n      0x00\n        /* \"#utility.yul\":26461:26463   */\n      0x20\n        /* \"#utility.yul\":26450:26459   */\n      dup3\n        /* \"#utility.yul\":26446:26464   */\n      add\n        /* \"#utility.yul\":26438:26464   */\n      swap1\n      pop\n        /* \"#utility.yul\":26510:26519   */\n      dup2\n        /* \"#utility.yul\":26504:26508   */\n      dup2\n        /* \"#utility.yul\":26500:26520   */\n      sub\n        /* \"#utility.yul\":26496:26497   */\n      0x00\n        /* \"#utility.yul\":26485:26494   */\n      dup4\n        /* \"#utility.yul\":26481:26498   */\n      add\n        /* \"#utility.yul\":26474:26521   */\n      mstore\n        /* \"#utility.yul\":26538:26669   */\n      tag_872\n        /* \"#utility.yul\":26664:26668   */\n      dup2\n        /* \"#utility.yul\":26538:26669   */\n      tag_562\n      jump\t// in\n    tag_872:\n        /* \"#utility.yul\":26530:26669   */\n      swap1\n      pop\n        /* \"#utility.yul\":26257:26676   */\n      swap2\n      swap1\n      pop\n      jump\t// out\n        /* \"#utility.yul\":26682:26863   */\n    tag_563:\n        /* \"#utility.yul\":26822:26855   */\n      0x53746f726167652070726f766964657220646f6573206e6f7420657869737400\n        /* \"#utility.yul\":26818:26819   */\n      0x00\n        /* \"#utility.yul\":26810:26816   */\n      dup3\n        /* \"#utility.yul\":26806:26820   */\n      add\n        /* \"#utility.yul\":26799:26856   */\n      mstore\n        /* \"#utility.yul\":26682:26863   */\n      pop\n      jump\t// out\n        /* \"#utility.yul\":26869:27235   */\n    tag_564:\n        /* \"#utility.yul\":27011:27014   */\n      0x00\n        /* \"#utility.yul\":27032:27099   */\n      tag_875\n        /* \"#utility.yul\":27096:27098   */\n      0x1f\n        /* \"#utility.yul\":27091:27094   */\n      dup4\n        /* \"#utility.yul\":27032:27099   */\n      tag_525\n      jump\t// in\n    tag_875:\n        /* \"#utility.yul\":27025:27099   */\n      swap2\n      pop\n        /* \"#utility.yul\":27108:27201   */\n      tag_876\n        /* \"#utility.yul\":27197:27200   */\n      dup3\n        /* \"#utility.yul\":27108:27201   */\n      tag_563\n      jump\t// in\n    tag_876:\n        /* \"#utility.yul\":27226:27228   */\n      0x20\n        /* \"#utility.yul\":27221:27224   */\n      dup3\n        /* \"#utility.yul\":27217:27229   */\n      add\n        /* \"#utility.yul\":27210:27229   */\n      swap1\n      pop\n        /* \"#utility.yul\":26869:27235   */\n      swap2\n      swap1\n      pop\n      jump\t// out\n        /* \"#utility.yul\":27241:27660   */\n    tag_213:\n        /* \"#utility.yul\":27407:27411   */\n      0x00\n        /* \"#utility.yul\":27445:27447   */\n      0x20\n        /* \"#utility.yul\":27434:27443   */\n      dup3\n        /* \"#utility.yul\":27430:27448   */\n      add\n        /* \"#utility.yul\":27422:27448   */\n      swap1\n      pop\n        /* \"#utility.yul\":27494:27503   */\n      dup2\n        /* \"#utility.yul\":27488:27492   */\n      dup2\n        /* \"#utility.yul\":27484:27504   */\n      sub\n        /* \"#utility.yul\":27480:27481   */\n      0x00\n        /* \"#utility.yul\":27469:27478   */\n      dup4\n        /* \"#utility.yul\":27465:27482   */\n      add\n        /* \"#utility.yul\":27458:27505   */\n      mstore\n        /* \"#utility.yul\":27522:27653   */\n      tag_878\n        /* \"#utility.yul\":27648:27652   */\n      dup2\n        /* \"#utility.yul\":27522:27653   */\n      tag_564\n      jump\t// in\n    tag_878:\n        /* \"#utility.yul\":27514:27653   */\n      swap1\n      pop\n        /* \"#utility.yul\":27241:27660   */\n      swap2\n      swap1\n      pop\n      jump\t// out\n        /* \"#utility.yul\":27666:27998   */\n    tag_228:\n        /* \"#utility.yul\":27787:27791   */\n      0x00\n        /* \"#utility.yul\":27825:27827   */\n      0x40\n        /* \"#utility.yul\":27814:27823   */\n      dup3\n        /* \"#utility.yul\":27810:27828   */\n      add\n        /* \"#utility.yul\":27802:27828   */\n      swap1\n      pop\n        /* \"#utility.yul\":27838:27909   */\n      tag_880\n        /* \"#utility.yul\":27906:27907   */\n      0x00\n        /* \"#utility.yul\":27895:27904   */\n      dup4\n        /* \"#utility.yul\":27891:27908   */\n      add\n        /* \"#utility.yul\":27882:27888   */\n      dup6\n        /* \"#utility.yul\":27838:27909   */\n      tag_504\n      jump\t// in\n    tag_880:\n        /* \"#utility.yul\":27919:27991   */\n      tag_881\n        /* \"#utility.yul\":27987:27989   */\n      0x20\n        /* \"#utility.yul\":27976:27985   */\n      dup4\n        /* \"#utility.yul\":27972:27990   */\n      add\n        /* \"#utility.yul\":27963:27969   */\n      dup5\n        /* \"#utility.yul\":27919:27991   */\n      tag_507\n      jump\t// in\n    tag_881:\n        /* \"#utility.yul\":27666:27998   */\n      swap4\n      swap3\n      pop\n      pop\n      pop\n      jump\t// out\n        /* \"#utility.yul\":28004:28173   */\n    tag_565:\n        /* \"#utility.yul\":28144:28165   */\n      0x46696c6520646f6573206e6f7420657869737400000000000000000000000000\n        /* \"#utility.yul\":28140:28141   */\n      0x00\n        /* \"#utility.yul\":28132:28138   */\n      dup3\n        /* \"#utility.yul\":28128:28142   */\n      add\n        /* \"#utility.yul\":28121:28166   */\n      mstore\n        /* \"#utility.yul\":28004:28173   */\n      pop\n      jump\t// out\n        /* \"#utility.yul\":28179:28545   */\n    tag_566:\n        /* \"#utility.yul\":28321:28324   */\n      0x00\n        /* \"#utility.yul\":28342:28409   */\n      tag_884\n        /* \"#utility.yul\":28406:28408   */\n      0x13\n        /* \"#utility.yul\":28401:28404   */\n      dup4\n        /* \"#utility.yul\":28342:28409   */\n      tag_525\n      jump\t// in\n    tag_884:\n        /* \"#utility.yul\":28335:28409   */\n      swap2\n      pop\n        /* \"#utility.yul\":28418:28511   */\n      tag_885\n        /* \"#utility.yul\":28507:28510   */\n      dup3\n        /* \"#utility.yul\":28418:28511   */\n      tag_565\n      jump\t// in\n    tag_885:\n        /* \"#utility.yul\":28536:28538   */\n      0x20\n        /* \"#utility.yul\":28531:28534   */\n      dup3\n        /* \"#utility.yul\":28527:28539   */\n      add\n        /* \"#utility.yul\":28520:28539   */\n      swap1\n      pop\n        /* \"#utility.yul\":28179:28545   */\n      swap2\n      swap1\n      pop\n      jump\t// out\n        /* \"#utility.yul\":28551:28970   */\n    tag_249:\n        /* \"#utility.yul\":28717:28721   */\n      0x00\n        /* \"#utility.yul\":28755:28757   */\n      0x20\n        /* \"#utility.yul\":28744:28753   */\n      dup3\n        /* \"#utility.yul\":28740:28758   */\n      add\n        /* \"#utility.yul\":28732:28758   */\n      swap1\n      pop\n        /* \"#utility.yul\":28804:28813   */\n      dup2\n        /* \"#utility.yul\":28798:28802   */\n      dup2\n        /* \"#utility.yul\":28794:28814   */\n      sub\n        /* \"#utility.yul\":28790:28791   */\n      0x00\n        /* \"#utility.yul\":28779:28788   */\n      dup4\n        /* \"#utility.yul\":28775:28792   */\n      add\n        /* \"#utility.yul\":28768:28815   */\n      mstore\n        /* \"#utility.yul\":28832:28963   */\n      tag_887\n        /* \"#utility.yul\":28958:28962   */\n      dup2\n        /* \"#utility.yul\":28832:28963   */\n      tag_566\n      jump\t// in\n    tag_887:\n        /* \"#utility.yul\":28824:28963   */\n      swap1\n      pop\n        /* \"#utility.yul\":28551:28970   */\n      swap2\n      swap1\n      pop\n      jump\t// out\n        /* \"#utility.yul\":28976:29209   */\n    tag_567:\n        /* \"#utility.yul\":29116:29150   */\n      0x4f6e6c79207468652073746f726167652070726f76696465722063616e206465\n        /* \"#utility.yul\":29112:29113   */\n      0x00\n        /* \"#utility.yul\":29104:29110   */\n      dup3\n        /* \"#utility.yul\":29100:29114   */\n      add\n        /* \"#utility.yul\":29093:29151   */\n      mstore\n        /* \"#utility.yul\":29185:29201   */\n      0x6c65746520746865207368617264000000000000000000000000000000000000\n        /* \"#utility.yul\":29180:29182   */\n      0x20\n        /* \"#utility.yul\":29172:29178   */\n      dup3\n        /* \"#utility.yul\":29168:29183   */\n      add\n        /* \"#utility.yul\":29161:29202   */\n      mstore\n        /* \"#utility.yul\":28976:29209   */\n      pop\n      jump\t// out\n        /* \"#utility.yul\":29215:29581   */\n    tag_568:\n        /* \"#utility.yul\":29357:29360   */\n      0x00\n        /* \"#utility.yul\":29378:29445   */\n      tag_890\n        /* \"#utility.yul\":29442:29444   */\n      0x2e\n        /* \"#utility.yul\":29437:29440   */\n      dup4\n        /* \"#utility.yul\":29378:29445   */\n      tag_525\n      jump\t// in\n    tag_890:\n        /* \"#utility.yul\":29371:29445   */\n      swap2\n      pop\n        /* \"#utility.yul\":29454:29547   */\n      tag_891\n        /* \"#utility.yul\":29543:29546   */\n      dup3\n        /* \"#utility.yul\":29454:29547   */\n      tag_567\n      jump\t// in\n    tag_891:\n        /* \"#utility.yul\":29572:29574   */\n      0x40\n        /* \"#utility.yul\":29567:29570   */\n      dup3\n        /* \"#utility.yul\":29563:29575   */\n      add\n        /* \"#utility.yul\":29556:29575   */\n      swap1\n      pop\n        /* \"#utility.yul\":29215:29581   */\n      swap2\n      swap1\n      pop\n      jump\t// out\n        /* \"#utility.yul\":29587:30006   */\n    tag_254:\n        /* \"#utility.yul\":29753:29757   */\n      0x00\n        /* \"#utility.yul\":29791:29793   */\n      0x20\n        /* \"#utility.yul\":29780:29789   */\n      dup3\n        /* \"#utility.yul\":29776:29794   */\n      add\n        /* \"#utility.yul\":29768:29794   */\n      swap1\n      pop\n        /* \"#utility.yul\":29840:29849   */\n      dup2\n        /* \"#utility.yul\":29834:29838   */\n      dup2\n        /* \"#utility.yul\":29830:29850   */\n      sub\n        /* \"#utility.yul\":29826:29827   */\n      0x00\n        /* \"#utility.yul\":29815:29824   */\n      dup4\n        /* \"#utility.yul\":29811:29828   */\n      add\n        /* \"#utility.yul\":29804:29851   */\n      mstore\n        /* \"#utility.yul\":29868:29999   */\n      tag_893\n        /* \"#utility.yul\":29994:29998   */\n      dup2\n        /* \"#utility.yul\":29868:29999   */\n      tag_568\n      jump\t// in\n    tag_893:\n        /* \"#utility.yul\":29860:29999   */\n      swap1\n      pop\n        /* \"#utility.yul\":29587:30006   */\n      swap2\n      swap1\n      pop\n      jump\t// out\n        /* \"#utility.yul\":30012:30238   */\n    tag_569:\n        /* \"#utility.yul\":30152:30186   */\n      0x4f6e6c79207468652066696c65206f776e65722063616e2064656c6574652074\n        /* \"#utility.yul\":30148:30149   */\n      0x00\n        /* \"#utility.yul\":30140:30146   */\n      dup3\n        /* \"#utility.yul\":30136:30150   */\n      add\n        /* \"#utility.yul\":30129:30187   */\n      mstore\n        /* \"#utility.yul\":30221:30230   */\n      0x68652066696c6500000000000000000000000000000000000000000000000000\n        /* \"#utility.yul\":30216:30218   */\n      0x20\n        /* \"#utility.yul\":30208:30214   */\n      dup3\n        /* \"#utility.yul\":30204:30219   */\n      add\n        /* \"#utility.yul\":30197:30231   */\n      mstore\n        /* \"#utility.yul\":30012:30238   */\n      pop\n      jump\t// out\n        /* \"#utility.yul\":30244:30610   */\n    tag_570:\n        /* \"#utility.yul\":30386:30389   */\n      0x00\n        /* \"#utility.yul\":30407:30474   */\n      tag_896\n        /* \"#utility.yul\":30471:30473   */\n      0x27\n        /* \"#utility.yul\":30466:30469   */\n      dup4\n        /* \"#utility.yul\":30407:30474   */\n      tag_525\n      jump\t// in\n    tag_896:\n        /* \"#utility.yul\":30400:30474   */\n      swap2\n      pop\n        /* \"#utility.yul\":30483:30576   */\n      tag_897\n        /* \"#utility.yul\":30572:30575   */\n      dup3\n        /* \"#utility.yul\":30483:30576   */\n      tag_569\n      jump\t// in\n    tag_897:\n        /* \"#utility.yul\":30601:30603   */\n      0x40\n        /* \"#utility.yul\":30596:30599   */\n      dup3\n        /* \"#utility.yul\":30592:30604   */\n      add\n        /* \"#utility.yul\":30585:30604   */\n      swap1\n      pop\n        /* \"#utility.yul\":30244:30610   */\n      swap2\n      swap1\n      pop\n      jump\t// out\n        /* \"#utility.yul\":30616:31035   */\n    tag_285:\n        /* \"#utility.yul\":30782:30786   */\n      0x00\n        /* \"#utility.yul\":30820:30822   */\n      0x20\n        /* \"#utility.yul\":30809:30818   */\n      dup3\n        /* \"#utility.yul\":30805:30823   */\n      add\n        /* \"#utility.yul\":30797:30823   */\n      swap1\n      pop\n        /* \"#utility.yul\":30869:30878   */\n      dup2\n        /* \"#utility.yul\":30863:30867   */\n      dup2\n        /* \"#utility.yul\":30859:30879   */\n      sub\n        /* \"#utility.yul\":30855:30856   */\n      0x00\n        /* \"#utility.yul\":30844:30853   */\n      dup4\n        /* \"#utility.yul\":30840:30857   */\n      add\n        /* \"#utility.yul\":30833:30880   */\n      mstore\n        /* \"#utility.yul\":30897:31028   */\n      tag_899\n        /* \"#utility.yul\":31023:31027   */\n      dup2\n        /* \"#utility.yul\":30897:31028   */\n      tag_570\n      jump\t// in\n    tag_899:\n        /* \"#utility.yul\":30889:31028   */\n      swap1\n      pop\n        /* \"#utility.yul\":30616:31035   */\n      swap2\n      swap1\n      pop\n      jump\t// out\n        /* \"#utility.yul\":31041:31217   */\n    tag_571:\n        /* \"#utility.yul\":31181:31209   */\n      0x46696c652064617461206d7573742062652070726f7669646564000000000000\n        /* \"#utility.yul\":31177:31178   */\n      0x00\n        /* \"#utility.yul\":31169:31175   */\n      dup3\n        /* \"#utility.yul\":31165:31179   */\n      add\n        /* \"#utility.yul\":31158:31210   */\n      mstore\n        /* \"#utility.yul\":31041:31217   */\n      pop\n      jump\t// out\n        /* \"#utility.yul\":31223:31589   */\n    tag_572:\n        /* \"#utility.yul\":31365:31368   */\n      0x00\n        /* \"#utility.yul\":31386:31453   */\n      tag_902\n        /* \"#utility.yul\":31450:31452   */\n      0x1a\n        /* \"#utility.yul\":31445:31448   */\n      dup4\n        /* \"#utility.yul\":31386:31453   */\n      tag_525\n      jump\t// in\n    tag_902:\n        /* \"#utility.yul\":31379:31453   */\n      swap2\n      pop\n        /* \"#utility.yul\":31462:31555   */\n      tag_903\n        /* \"#utility.yul\":31551:31554   */\n      dup3\n        /* \"#utility.yul\":31462:31555   */\n      tag_571\n      jump\t// in\n    tag_903:\n        /* \"#utility.yul\":31580:31582   */\n      0x20\n        /* \"#utility.yul\":31575:31578   */\n      dup3\n        /* \"#utility.yul\":31571:31583   */\n      add\n        /* \"#utility.yul\":31564:31583   */\n      swap1\n      pop\n        /* \"#utility.yul\":31223:31589   */\n      swap2\n      swap1\n      pop\n      jump\t// out\n        /* \"#utility.yul\":31595:32014   */\n    tag_346:\n        /* \"#utility.yul\":31761:31765   */\n      0x00\n        /* \"#utility.yul\":31799:31801   */\n      0x20\n        /* \"#utility.yul\":31788:31797   */\n      dup3\n        /* \"#utility.yul\":31784:31802   */\n      add\n        /* \"#utility.yul\":31776:31802   */\n      swap1\n      pop\n        /* \"#utility.yul\":31848:31857   */\n      dup2\n        /* \"#utility.yul\":31842:31846   */\n      dup2\n        /* \"#utility.yul\":31838:31858   */\n      sub\n        /* \"#utility.yul\":31834:31835   */\n      0x00\n        /* \"#utility.yul\":31823:31832   */\n      dup4\n        /* \"#utility.yul\":31819:31836   */\n      add\n        /* \"#utility.yul\":31812:31859   */\n      mstore\n        /* \"#utility.yul\":31876:32007   */\n      tag_905\n        /* \"#utility.yul\":32002:32006   */\n      dup2\n        /* \"#utility.yul\":31876:32007   */\n      tag_572\n      jump\t// in\n    tag_905:\n        /* \"#utility.yul\":31868:32007   */\n      swap1\n      pop\n        /* \"#utility.yul\":31595:32014   */\n      swap2\n      swap1\n      pop\n      jump\t// out\n        /* \"#utility.yul\":32020:32211   */\n    tag_348:\n        /* \"#utility.yul\":32060:32063   */\n      0x00\n        /* \"#utility.yul\":32079:32099   */\n      tag_907\n        /* \"#utility.yul\":32097:32098   */\n      dup3\n        /* \"#utility.yul\":32079:32099   */\n      tag_501\n      jump\t// in\n    tag_907:\n        /* \"#utility.yul\":32074:32099   */\n      swap2\n      pop\n        /* \"#utility.yul\":32113:32133   */\n      tag_908\n        /* \"#utility.yul\":32131:32132   */\n      dup4\n        /* \"#utility.yul\":32113:32133   */\n      tag_501\n      jump\t// in\n    tag_908:\n        /* \"#utility.yul\":32108:32133   */\n      swap3\n      pop\n        /* \"#utility.yul\":32156:32157   */\n      dup3\n        /* \"#utility.yul\":32153:32154   */\n      dup3\n        /* \"#utility.yul\":32149:32158   */\n      add\n        /* \"#utility.yul\":32142:32158   */\n      swap1\n      pop\n        /* \"#utility.yul\":32177:32180   */\n      dup1\n        /* \"#utility.yul\":32174:32175   */\n      dup3\n        /* \"#utility.yul\":32171:32181   */\n      gt\n        /* \"#utility.yul\":32168:32204   */\n      iszero\n      tag_909\n      jumpi\n        /* \"#utility.yul\":32184:32202   */\n      tag_910\n      tag_560\n      jump\t// in\n    tag_910:\n        /* \"#utility.yul\":32168:32204   */\n    tag_909:\n        /* \"#utility.yul\":32020:32211   */\n      swap3\n      swap2\n      pop\n      pop\n      jump\t// out\n        /* \"#utility.yul\":32217:32397   */\n    tag_573:\n        /* \"#utility.yul\":32265:32342   */\n      0x4e487b7100000000000000000000000000000000000000000000000000000000\n        /* \"#utility.yul\":32262:32263   */\n      0x00\n        /* \"#utility.yul\":32255:32343   */\n      mstore\n        /* \"#utility.yul\":32362:32366   */\n      0x12\n        /* \"#utility.yul\":32359:32360   */\n      0x04\n        /* \"#utility.yul\":32352:32367   */\n      mstore\n        /* \"#utility.yul\":32386:32390   */\n      0x24\n        /* \"#utility.yul\":32383:32384   */\n      0x00\n        /* \"#utility.yul\":32376:32391   */\n      revert\n        /* \"#utility.yul\":32403:32588   */\n    tag_351:\n        /* \"#utility.yul\":32443:32444   */\n      0x00\n        /* \"#utility.yul\":32460:32480   */\n      tag_913\n        /* \"#utility.yul\":32478:32479   */\n      dup3\n        /* \"#utility.yul\":32460:32480   */\n      tag_501\n      jump\t// in\n    tag_913:\n        /* \"#utility.yul\":32455:32480   */\n      swap2\n      pop\n        /* \"#utility.yul\":32494:32514   */\n      tag_914\n        /* \"#utility.yul\":32512:32513   */\n      dup4\n        /* \"#utility.yul\":32494:32514   */\n      tag_501\n      jump\t// in\n    tag_914:\n        /* \"#utility.yul\":32489:32514   */\n      swap3\n      pop\n        /* \"#utility.yul\":32533:32534   */\n      dup3\n        /* \"#utility.yul\":32523:32558   */\n      tag_915\n      jumpi\n        /* \"#utility.yul\":32538:32556   */\n      tag_916\n      tag_573\n      jump\t// in\n    tag_916:\n        /* \"#utility.yul\":32523:32558   */\n    tag_915:\n        /* \"#utility.yul\":32580:32581   */\n      dup3\n        /* \"#utility.yul\":32577:32578   */\n      dup3\n        /* \"#utility.yul\":32573:32582   */\n      div\n        /* \"#utility.yul\":32568:32582   */\n      swap1\n      pop\n        /* \"#utility.yul\":32403:32588   */\n      swap3\n      swap2\n      pop\n      pop\n      jump\t// out\n        /* \"#utility.yul\":32594:33004   */\n    tag_360:\n        /* \"#utility.yul\":32634:32641   */\n      0x00\n        /* \"#utility.yul\":32657:32677   */\n      tag_918\n        /* \"#utility.yul\":32675:32676   */\n      dup3\n        /* \"#utility.yul\":32657:32677   */\n      tag_501\n      jump\t// in\n    tag_918:\n        /* \"#utility.yul\":32652:32677   */\n      swap2\n      pop\n        /* \"#utility.yul\":32691:32711   */\n      tag_919\n        /* \"#utility.yul\":32709:32710   */\n      dup4\n        /* \"#utility.yul\":32691:32711   */\n      tag_501\n      jump\t// in\n    tag_919:\n        /* \"#utility.yul\":32686:32711   */\n      swap3\n      pop\n        /* \"#utility.yul\":32746:32747   */\n      dup3\n        /* \"#utility.yul\":32743:32744   */\n      dup3\n        /* \"#utility.yul\":32739:32748   */\n      mul\n        /* \"#utility.yul\":32768:32798   */\n      tag_920\n        /* \"#utility.yul\":32786:32797   */\n      dup2\n        /* \"#utility.yul\":32768:32798   */\n      tag_501\n      jump\t// in\n    tag_920:\n        /* \"#utility.yul\":32757:32798   */\n      swap2\n      pop\n        /* \"#utility.yul\":32947:32948   */\n      dup3\n        /* \"#utility.yul\":32938:32945   */\n      dup3\n        /* \"#utility.yul\":32934:32949   */\n      div\n        /* \"#utility.yul\":32931:32932   */\n      dup5\n        /* \"#utility.yul\":32928:32950   */\n      eq\n        /* \"#utility.yul\":32908:32909   */\n      dup4\n        /* \"#utility.yul\":32901:32910   */\n      iszero\n        /* \"#utility.yul\":32881:32964   */\n      or\n        /* \"#utility.yul\":32858:32997   */\n      tag_921\n      jumpi\n        /* \"#utility.yul\":32977:32995   */\n      tag_922\n      tag_560\n      jump\t// in\n    tag_922:\n        /* \"#utility.yul\":32858:32997   */\n    tag_921:\n        /* \"#utility.yul\":32642:33004   */\n      pop\n        /* \"#utility.yul\":32594:33004   */\n      swap3\n      swap2\n      pop\n      pop\n      jump\t// out\n        /* \"#utility.yul\":33010:33151   */\n    tag_574:\n        /* \"#utility.yul\":33059:33063   */\n      0x00\n        /* \"#utility.yul\":33082:33085   */\n      dup2\n        /* \"#utility.yul\":33074:33085   */\n      swap1\n      pop\n        /* \"#utility.yul\":33105:33108   */\n      dup2\n        /* \"#utility.yul\":33102:33103   */\n      0x00\n        /* \"#utility.yul\":33095:33109   */\n      mstore\n        /* \"#utility.yul\":33139:33143   */\n      0x20\n        /* \"#utility.yul\":33136:33137   */\n      0x00\n        /* \"#utility.yul\":33126:33144   */\n      keccak256\n        /* \"#utility.yul\":33118:33144   */\n      swap1\n      pop\n        /* \"#utility.yul\":33010:33151   */\n      swap2\n      swap1\n      pop\n      jump\t// out\n        /* \"#utility.yul\":33157:33250   */\n    tag_575:\n        /* \"#utility.yul\":33194:33200   */\n      0x00\n        /* \"#utility.yul\":33241:33243   */\n      0x20\n        /* \"#utility.yul\":33236:33238   */\n      0x1f\n        /* \"#utility.yul\":33229:33234   */\n      dup4\n        /* \"#utility.yul\":33225:33239   */\n      add\n        /* \"#utility.yul\":33221:33244   */\n      div\n        /* \"#utility.yul\":33211:33244   */\n      swap1\n      pop\n        /* \"#utility.yul\":33157:33250   */\n      swap2\n      swap1\n      pop\n      jump\t// out\n        /* \"#utility.yul\":33256:33363   */\n    tag_576:\n        /* \"#utility.yul\":33300:33308   */\n      0x00\n        /* \"#utility.yul\":33350:33355   */\n      dup3\n        /* \"#utility.yul\":33344:33348   */\n      dup3\n        /* \"#utility.yul\":33340:33356   */\n      shl\n        /* \"#utility.yul\":33319:33356   */\n      swap1\n      pop\n        /* \"#utility.yul\":33256:33363   */\n      swap3\n      swap2\n      pop\n      pop\n      jump\t// out\n        /* \"#utility.yul\":33369:33762   */\n    tag_577:\n        /* \"#utility.yul\":33438:33444   */\n      0x00\n        /* \"#utility.yul\":33488:33489   */\n      0x08\n        /* \"#utility.yul\":33476:33486   */\n      dup4\n        /* \"#utility.yul\":33472:33490   */\n      mul\n        /* \"#utility.yul\":33511:33608   */\n      tag_927\n        /* \"#utility.yul\":33541:33607   */\n      0xffffffffffffffffffffffffffffffffffffffffffffffffffffffffffffffff\n        /* \"#utility.yul\":33530:33539   */\n      dup3\n        /* \"#utility.yul\":33511:33608   */\n      tag_576\n      jump\t// in\n    tag_927:\n        /* \"#utility.yul\":33629:33668   */\n      tag_928\n        /* \"#utility.yul\":33659:33667   */\n      dup7\n        /* \"#utility.yul\":33648:33657   */\n      dup4\n        /* \"#utility.yul\":33629:33668   */\n      tag_576\n      jump\t// in\n    tag_928:\n        /* \"#utility.yul\":33617:33668   */\n      swap6\n      pop\n        /* \"#utility.yul\":33701:33705   */\n      dup1\n        /* \"#utility.yul\":33697:33706   */\n      not\n        /* \"#utility.yul\":33690:33695   */\n      dup5\n        /* \"#utility.yul\":33686:33707   */\n      and\n        /* \"#utility.yul\":33677:33707   */\n      swap4\n      pop\n        /* \"#utility.yul\":33750:33754   */\n      dup1\n        /* \"#utility.yul\":33740:33748   */\n      dup7\n        /* \"#utility.yul\":33736:33755   */\n      and\n        /* \"#utility.yul\":33729:33734   */\n      dup5\n        /* \"#utility.yul\":33726:33756   */\n      or\n        /* \"#utility.yul\":33716:33756   */\n      swap3\n      pop\n        /* \"#utility.yul\":33445:33762   */\n      pop\n      pop\n        /* \"#utility.yul\":33369:33762   */\n      swap4\n      swap3\n      pop\n      pop\n      pop\n      jump\t// out\n        /* \"#utility.yul\":33768:33828   */\n    tag_578:\n        /* \"#utility.yul\":33796:33799   */\n      0x00\n        /* \"#utility.yul\":33817:33822   */\n      dup2\n        /* \"#utility.yul\":33810:33822   */\n      swap1\n      pop\n        /* \"#utility.yul\":33768:33828   */\n      swap2\n      swap1\n      pop\n      jump\t// out\n        /* \"#utility.yul\":33834:33976   */\n    tag_579:\n        /* \"#utility.yul\":33884:33893   */\n      0x00\n        /* \"#utility.yul\":33917:33970   */\n      tag_931\n        /* \"#utility.yul\":33935:33969   */\n      tag_932\n        /* \"#utility.yul\":33944:33968   */\n      tag_933\n        /* \"#utility.yul\":33962:33967   */\n      dup5\n        /* \"#utility.yul\":33944:33968   */\n      tag_501\n      jump\t// in\n    tag_933:\n        /* \"#utility.yul\":33935:33969   */\n      tag_578\n      jump\t// in\n    tag_932:\n        /* \"#utility.yul\":33917:33970   */\n      tag_501\n      jump\t// in\n    tag_931:\n        /* \"#utility.yul\":33904:33970   */\n      swap1\n      pop\n        /* \"#utility.yul\":33834:33976   */\n      swap2\n      swap1\n      pop\n      jump\t// out\n        /* \"#utility.yul\":33982:34057   */\n    tag_580:\n        /* \"#utility.yul\":34025:34028   */\n      0x00\n        /* \"#utility.yul\":34046:34051   */\n      dup2\n        /* \"#utility.yul\":34039:34051   */\n      swap1\n      pop\n        /* \"#utility.yul\":33982:34057   */\n      swap2\n      swap1\n      pop\n      jump\t// out\n        /* \"#utility.yul\":34063:34332   */\n    tag_581:\n        /* \"#utility.yul\":34173:34212   */\n      tag_936\n        /* \"#utility.yul\":34204:34211   */\n      dup4\n        /* \"#utility.yul\":34173:34212   */\n      tag_579\n      jump\t// in\n    tag_936:\n        /* \"#utility.yul\":34234:34325   */\n      tag_937\n        /* \"#utility.yul\":34283:34324   */\n      tag_938\n        /* \"#utility.yul\":34307:34323   */\n      dup3\n        /* \"#utility.yul\":34283:34324   */\n      tag_580\n      jump\t// in\n    tag_938:\n        /* \"#utility.yul\":34275:34281   */\n      dup5\n        /* \"#utility.yul\":34268:34272   */\n      dup5\n        /* \"#utility.yul\":34262:34273   */\n      sload\n        /* \"#utility.yul\":34234:34325   */\n      tag_577\n      jump\t// in\n    tag_937:\n        /* \"#utility.yul\":34228:34232   */\n      dup3\n        /* \"#utility.yul\":34221:34326   */\n      sstore\n        /* \"#utility.yul\":34139:34332   */\n      pop\n        /* \"#utility.yul\":34063:34332   */\n      pop\n      pop\n      pop\n      jump\t// out\n        /* \"#utility.yul\":34338:34411   */\n    tag_582:\n        /* \"#utility.yul\":34383:34386   */\n      0x00\n        /* \"#utility.yul\":34338:34411   */\n      swap1\n      jump\t// out\n        /* \"#utility.yul\":34417:34606   */\n    tag_583:\n        /* \"#utility.yul\":34494:34526   */\n      tag_941\n      tag_582\n      jump\t// in\n    tag_941:\n        /* \"#utility.yul\":34535:34600   */\n      tag_942\n        /* \"#utility.yul\":34593:34599   */\n      dup2\n        /* \"#utility.yul\":34585:34591   */\n      dup5\n        /* \"#utility.yul\":34579:34583   */\n      dup5\n        /* \"#utility.yul\":34535:34600   */\n      tag_581\n      jump\t// in\n    tag_942:\n        /* \"#utility.yul\":34470:34606   */\n      pop\n        /* \"#utility.yul\":34417:34606   */\n      pop\n      pop\n      jump\t// out\n        /* \"#utility.yul\":34612:34798   */\n    tag_584:\n        /* \"#utility.yul\":34672:34792   */\n    tag_944:\n        /* \"#utility.yul\":34689:34692   */\n      dup2\n        /* \"#utility.yul\":34682:34687   */\n      dup2\n        /* \"#utility.yul\":34679:34693   */\n      lt\n        /* \"#utility.yul\":34672:34792   */\n      iszero\n      tag_946\n      jumpi\n        /* \"#utility.yul\":34743:34782   */\n      tag_947\n        /* \"#utility.yul\":34780:34781   */\n      0x00\n        /* \"#utility.yul\":34773:34778   */\n      dup3\n        /* \"#utility.yul\":34743:34782   */\n      tag_583\n      jump\t// in\n    tag_947:\n        /* \"#utility.yul\":34716:34717   */\n      0x01\n        /* \"#utility.yul\":34709:34714   */\n      dup2\n        /* \"#utility.yul\":34705:34718   */\n      add\n        /* \"#utility.yul\":34696:34718   */\n      swap1\n      pop\n        /* \"#utility.yul\":34672:34792   */\n      jump(tag_944)\n    tag_946:\n        /* \"#utility.yul\":34612:34798   */\n      pop\n      pop\n      jump\t// out\n        /* \"#utility.yul\":34804:35347   */\n    tag_585:\n        /* \"#utility.yul\":34905:34907   */\n      0x1f\n        /* \"#utility.yul\":34900:34903   */\n      dup3\n        /* \"#utility.yul\":34897:34908   */\n      gt\n        /* \"#utility.yul\":34894:35340   */\n      iszero\n      tag_949\n      jumpi\n        /* \"#utility.yul\":34939:34977   */\n      tag_950\n        /* \"#utility.yul\":34971:34976   */\n      dup2\n        /* \"#utility.yul\":34939:34977   */\n      tag_574\n      jump\t// in\n    tag_950:\n        /* \"#utility.yul\":35023:35052   */\n      tag_951\n        /* \"#utility.yul\":35041:35051   */\n      dup5\n        /* \"#utility.yul\":35023:35052   */\n      tag_575\n      jump\t// in\n    tag_951:\n        /* \"#utility.yul\":35013:35021   */\n      dup2\n        /* \"#utility.yul\":35009:35053   */\n      add\n        /* \"#utility.yul\":35206:35208   */\n      0x20\n        /* \"#utility.yul\":35194:35204   */\n      dup6\n        /* \"#utility.yul\":35191:35209   */\n      lt\n        /* \"#utility.yul\":35188:35237   */\n      iszero\n      tag_952\n      jumpi\n        /* \"#utility.yul\":35227:35235   */\n      dup2\n        /* \"#utility.yul\":35212:35235   */\n      swap1\n      pop\n        /* \"#utility.yul\":35188:35237   */\n    tag_952:\n        /* \"#utility.yul\":35250:35330   */\n      tag_953\n        /* \"#utility.yul\":35306:35328   */\n      tag_954\n        /* \"#utility.yul\":35324:35327   */\n      dup6\n        /* \"#utility.yul\":35306:35328   */\n      tag_575\n      jump\t// in\n    tag_954:\n        /* \"#utility.yul\":35296:35304   */\n      dup4\n        /* \"#utility.yul\":35292:35329   */\n      add\n        /* \"#utility.yul\":35279:35290   */\n      dup3\n        /* \"#utility.yul\":35250:35330   */\n      tag_584\n      jump\t// in\n    tag_953:\n        /* \"#utility.yul\":34909:35340   */\n      pop\n      pop\n        /* \"#utility.yul\":34894:35340   */\n    tag_949:\n        /* \"#utility.yul\":34804:35347   */\n      pop\n      pop\n      pop\n      jump\t// out\n        /* \"#utility.yul\":35353:35470   */\n    tag_586:\n        /* \"#utility.yul\":35407:35415   */\n      0x00\n        /* \"#utility.yul\":35457:35462   */\n      dup3\n        /* \"#utility.yul\":35451:35455   */\n      dup3\n        /* \"#utility.yul\":35447:35463   */\n      shr\n        /* \"#utility.yul\":35426:35463   */\n      swap1\n      pop\n        /* \"#utility.yul\":35353:35470   */\n      swap3\n      swap2\n      pop\n      pop\n      jump\t// out\n        /* \"#utility.yul\":35476:35645   */\n    tag_587:\n        /* \"#utility.yul\":35520:35526   */\n      0x00\n        /* \"#utility.yul\":35553:35604   */\n      tag_957\n        /* \"#utility.yul\":35601:35602   */\n      0x00\n        /* \"#utility.yul\":35597:35603   */\n      not\n        /* \"#utility.yul\":35589:35594   */\n      dup5\n        /* \"#utility.yul\":35586:35587   */\n      0x08\n        /* \"#utility.yul\":35582:35595   */\n      mul\n        /* \"#utility.yul\":35553:35604   */\n      tag_586\n      jump\t// in\n    tag_957:\n        /* \"#utility.yul\":35549:35605   */\n      not\n        /* \"#utility.yul\":35634:35638   */\n      dup1\n        /* \"#utility.yul\":35628:35632   */\n      dup4\n        /* \"#utility.yul\":35624:35639   */\n      and\n        /* \"#utility.yul\":35614:35639   */\n      swap2\n      pop\n        /* \"#utility.yul\":35527:35645   */\n      pop\n        /* \"#utility.yul\":35476:35645   */\n      swap3\n      swap2\n      pop\n      pop\n      jump\t// out\n        /* \"#utility.yul\":35650:35945   */\n    tag_588:\n        /* \"#utility.yul\":35726:35730   */\n      0x00\n        /* \"#utility.yul\":35872:35901   */\n      tag_959\n        /* \"#utility.yul\":35897:35900   */\n      dup4\n        /* \"#utility.yul\":35891:35895   */\n      dup4\n        /* \"#utility.yul\":35872:35901   */\n      tag_587\n      jump\t// in\n    tag_959:\n        /* \"#utility.yul\":35864:35901   */\n      swap2\n      pop\n        /* \"#utility.yul\":35934:35937   */\n      dup3\n        /* \"#utility.yul\":35931:35932   */\n      0x02\n        /* \"#utility.yul\":35927:35938   */\n      mul\n        /* \"#utility.yul\":35921:35925   */\n      dup3\n        /* \"#utility.yul\":35918:35939   */\n      or\n        /* \"#utility.yul\":35910:35939   */\n      swap1\n      pop\n        /* \"#utility.yul\":35650:35945   */\n      swap3\n      swap2\n      pop\n      pop\n      jump\t// out\n        /* \"#utility.yul\":35950:37345   */\n    tag_382:\n        /* \"#utility.yul\":36067:36104   */\n      tag_961\n        /* \"#utility.yul\":36100:36103   */\n      dup3\n        /* \"#utility.yul\":36067:36104   */\n      tag_524\n      jump\t// in\n    tag_961:\n        /* \"#utility.yul\":36169:36187   */\n      0xffffffffffffffff\n        /* \"#utility.yul\":36161:36167   */\n      dup2\n        /* \"#utility.yul\":36158:36188   */\n      gt\n        /* \"#utility.yul\":36155:36211   */\n      iszero\n      tag_962\n      jumpi\n        /* \"#utility.yul\":36191:36209   */\n      tag_963\n      tag_354\n      jump\t// in\n    tag_963:\n        /* \"#utility.yul\":36155:36211   */\n    tag_962:\n        /* \"#utility.yul\":36235:36273   */\n      tag_964\n        /* \"#utility.yul\":36267:36271   */\n      dup3\n        /* \"#utility.yul\":36261:36272   */\n      sload\n        /* \"#utility.yul\":36235:36273   */\n      tag_153\n      jump\t// in\n    tag_964:\n        /* \"#utility.yul\":36320:36387   */\n      tag_965\n        /* \"#utility.yul\":36380:36386   */\n      dup3\n        /* \"#utility.yul\":36372:36378   */\n      dup3\n        /* \"#utility.yul\":36366:36370   */\n      dup6\n        /* \"#utility.yul\":36320:36387   */\n      tag_585\n      jump\t// in\n    tag_965:\n        /* \"#utility.yul\":36414:36415   */\n      0x00\n        /* \"#utility.yul\":36438:36442   */\n      0x20\n        /* \"#utility.yul\":36425:36442   */\n      swap1\n      pop\n        /* \"#utility.yul\":36470:36472   */\n      0x1f\n        /* \"#utility.yul\":36462:36468   */\n      dup4\n        /* \"#utility.yul\":36459:36473   */\n      gt\n        /* \"#utility.yul\":36487:36488   */\n      0x01\n        /* \"#utility.yul\":36482:37100   */\n      dup2\n      eq\n      tag_967\n      jumpi\n        /* \"#utility.yul\":37144:37145   */\n      0x00\n        /* \"#utility.yul\":37161:37167   */\n      dup5\n        /* \"#utility.yul\":37158:37235   */\n      iszero\n      tag_968\n      jumpi\n        /* \"#utility.yul\":37210:37219   */\n      dup3\n        /* \"#utility.yul\":37205:37208   */\n      dup8\n        /* \"#utility.yul\":37201:37220   */\n      add\n        /* \"#utility.yul\":37195:37221   */\n      mload\n        /* \"#utility.yul\":37186:37221   */\n      swap1\n      pop\n        /* \"#utility.yul\":37158:37235   */\n    tag_968:\n        /* \"#utility.yul\":37261:37328   */\n      tag_969\n        /* \"#utility.yul\":37321:37327   */\n      dup6\n        /* \"#utility.yul\":37314:37319   */\n      dup3\n        /* \"#utility.yul\":37261:37328   */\n      tag_588\n      jump\t// in\n    tag_969:\n        /* \"#utility.yul\":37255:37259   */\n      dup7\n        /* \"#utility.yul\":37248:37329   */\n      sstore\n        /* \"#utility.yul\":37117:37339   */\n      pop\n        /* \"#utility.yul\":36452:37339   */\n      jump(tag_966)\n        /* \"#utility.yul\":36482:37100   */\n    tag_967:\n        /* \"#utility.yul\":36534:36538   */\n      0x1f\n        /* \"#utility.yul\":36530:36539   */\n      not\n        /* \"#utility.yul\":36522:36528   */\n      dup5\n        /* \"#utility.yul\":36518:36540   */\n      and\n        /* \"#utility.yul\":36568:36605   */\n      tag_970\n        /* \"#utility.yul\":36600:36604   */\n      dup7\n        /* \"#utility.yul\":36568:36605   */\n      tag_574\n      jump\t// in\n    tag_970:\n        /* \"#utility.yul\":36627:36628   */\n      0x00\n        /* \"#utility.yul\":36641:36849   */\n    tag_971:\n        /* \"#utility.yul\":36655:36662   */\n      dup3\n        /* \"#utility.yul\":36652:36653   */\n      dup2\n        /* \"#utility.yul\":36649:36663   */\n      lt\n        /* \"#utility.yul\":36641:36849   */\n      iszero\n      tag_973\n      jumpi\n        /* \"#utility.yul\":36734:36743   */\n      dup5\n        /* \"#utility.yul\":36729:36732   */\n      dup10\n        /* \"#utility.yul\":36725:36744   */\n      add\n        /* \"#utility.yul\":36719:36745   */\n      mload\n        /* \"#utility.yul\":36711:36717   */\n      dup3\n        /* \"#utility.yul\":36704:36746   */\n      sstore\n        /* \"#utility.yul\":36785:36786   */\n      0x01\n        /* \"#utility.yul\":36777:36783   */\n      dup3\n        /* \"#utility.yul\":36773:36787   */\n      add\n        /* \"#utility.yul\":36763:36787   */\n      swap2\n      pop\n        /* \"#utility.yul\":36832:36834   */\n      0x20\n        /* \"#utility.yul\":36821:36830   */\n      dup6\n        /* \"#utility.yul\":36817:36835   */\n      add\n        /* \"#utility.yul\":36804:36835   */\n      swap5\n      pop\n        /* \"#utility.yul\":36678:36682   */\n      0x20\n        /* \"#utility.yul\":36675:36676   */\n      dup2\n        /* \"#utility.yul\":36671:36683   */\n      add\n        /* \"#utility.yul\":36666:36683   */\n      swap1\n      pop\n        /* \"#utility.yul\":36641:36849   */\n      jump(tag_971)\n    tag_973:\n        /* \"#utility.yul\":36877:36883   */\n      dup7\n        /* \"#utility.yul\":36868:36875   */\n      dup4\n        /* \"#utility.yul\":36865:36884   */\n      lt\n        /* \"#utility.yul\":36862:37041   */\n      iszero\n      tag_974\n      jumpi\n        /* \"#utility.yul\":36935:36944   */\n      dup5\n        /* \"#utility.yul\":36930:36933   */\n      dup10\n        /* \"#utility.yul\":36926:36945   */\n      add\n        /* \"#utility.yul\":36920:36946   */\n      mload\n        /* \"#utility.yul\":36978:37026   */\n      tag_975\n        /* \"#utility.yul\":37020:37024   */\n      0x1f\n        /* \"#utility.yul\":37012:37018   */\n      dup10\n        /* \"#utility.yul\":37008:37025   */\n      and\n        /* \"#utility.yul\":36997:37006   */\n      dup3\n        /* \"#utility.yul\":36978:37026   */\n      tag_587\n      jump\t// in\n    tag_975:\n        /* \"#utility.yul\":36970:36976   */\n      dup4\n        /* \"#utility.yul\":36963:37027   */\n      sstore\n        /* \"#utility.yul\":36885:37041   */\n      pop\n        /* \"#utility.yul\":36862:37041   */\n    tag_974:\n        /* \"#utility.yul\":37087:37088   */\n      0x01\n        /* \"#utility.yul\":37083:37084   */\n      0x02\n        /* \"#utility.yul\":37075:37081   */\n      dup9\n        /* \"#utility.yul\":37071:37085   */\n      mul\n        /* \"#utility.yul\":37067:37089   */\n      add\n        /* \"#utility.yul\":37061:37065   */\n      dup9\n        /* \"#utility.yul\":37054:37090   */\n      sstore\n        /* \"#utility.yul\":36489:37100   */\n      pop\n      pop\n      pop\n        /* \"#utility.yul\":36452:37339   */\n    tag_966:\n      pop\n        /* \"#utility.yul\":36042:37345   */\n      pop\n      pop\n      pop\n        /* \"#utility.yul\":35950:37345   */\n      pop\n      pop\n      jump\t// out\n        /* \"#utility.yul\":37351:37530   */\n    tag_589:\n        /* \"#utility.yul\":37491:37522   */\n      0x496e73756666696369656e7420636f6e74726163742062616c616e6365000000\n        /* \"#utility.yul\":37487:37488   */\n      0x00\n        /* \"#utility.yul\":37479:37485   */\n      dup3\n        /* \"#utility.yul\":37475:37489   */\n      add\n        /* \"#utility.yul\":37468:37523   */\n      mstore\n        /* \"#utility.yul\":37351:37530   */\n      pop\n      jump\t// out\n        /* \"#utility.yul\":37536:37902   */\n    tag_590:\n        /* \"#utility.yul\":37678:37681   */\n      0x00\n        /* \"#utility.yul\":37699:37766   */\n      tag_978\n        /* \"#utility.yul\":37763:37765   */\n      0x1d\n        /* \"#utility.yul\":37758:37761   */\n      dup4\n        /* \"#utility.yul\":37699:37766   */\n      tag_525\n      jump\t// in\n    tag_978:\n        /* \"#utility.yul\":37692:37766   */\n      swap2\n      pop\n        /* \"#utility.yul\":37775:37868   */\n      tag_979\n        /* \"#utility.yul\":37864:37867   */\n      dup3\n        /* \"#utility.yul\":37775:37868   */\n      tag_589\n      jump\t// in\n    tag_979:\n        /* \"#utility.yul\":37893:37895   */\n      0x20\n        /* \"#utility.yul\":37888:37891   */\n      dup3\n        /* \"#utility.yul\":37884:37896   */\n      add\n        /* \"#utility.yul\":37877:37896   */\n      swap1\n      pop\n        /* \"#utility.yul\":37536:37902   */\n      swap2\n      swap1\n      pop\n      jump\t// out\n        /* \"#utility.yul\":37908:38327   */\n    tag_451:\n        /* \"#utility.yul\":38074:38078   */\n      0x00\n        /* \"#utility.yul\":38112:38114   */\n      0x20\n        /* \"#utility.yul\":38101:38110   */\n      dup3\n        /* \"#utility.yul\":38097:38115   */\n      add\n        /* \"#utility.yul\":38089:38115   */\n      swap1\n      pop\n        /* \"#utility.yul\":38161:38170   */\n      dup2\n        /* \"#utility.yul\":38155:38159   */\n      dup2\n        /* \"#utility.yul\":38151:38171   */\n      sub\n        /* \"#utility.yul\":38147:38148   */\n      0x00\n        /* \"#utility.yul\":38136:38145   */\n      dup4\n        /* \"#utility.yul\":38132:38149   */\n      add\n        /* \"#utility.yul\":38125:38172   */\n      mstore\n        /* \"#utility.yul\":38189:38320   */\n      tag_981\n        /* \"#utility.yul\":38315:38319   */\n      dup2\n        /* \"#utility.yul\":38189:38320   */\n      tag_590\n      jump\t// in\n    tag_981:\n        /* \"#utility.yul\":38181:38320   */\n      swap1\n      pop\n        /* \"#utility.yul\":37908:38327   */\n      swap2\n      swap1\n      pop\n      jump\t// out\n        /* \"#utility.yul\":38333:38480   */\n    tag_591:\n        /* \"#utility.yul\":38434:38445   */\n      0x00\n        /* \"#utility.yul\":38471:38474   */\n      dup2\n        /* \"#utility.yul\":38456:38474   */\n      swap1\n      pop\n        /* \"#utility.yul\":38333:38480   */\n      swap3\n      swap2\n      pop\n      pop\n      jump\t// out\n        /* \"#utility.yul\":38486:38600   */\n    tag_592:\n      pop\n      jump\t// out\n        /* \"#utility.yul\":38606:39004   */\n    tag_593:\n        /* \"#utility.yul\":38765:38768   */\n      0x00\n        /* \"#utility.yul\":38786:38869   */\n      tag_985\n        /* \"#utility.yul\":38867:38868   */\n      0x00\n        /* \"#utility.yul\":38862:38865   */\n      dup4\n        /* \"#utility.yul\":38786:38869   */\n      tag_591\n      jump\t// in\n    tag_985:\n        /* \"#utility.yul\":38779:38869   */\n      swap2\n      pop\n        /* \"#utility.yul\":38878:38971   */\n      tag_986\n        /* \"#utility.yul\":38967:38970   */\n      dup3\n        /* \"#utility.yul\":38878:38971   */\n      tag_592\n      jump\t// in\n    tag_986:\n        /* \"#utility.yul\":38996:38997   */\n      0x00\n        /* \"#utility.yul\":38991:38994   */\n      dup3\n        /* \"#utility.yul\":38987:38998   */\n      add\n        /* \"#utility.yul\":38980:38998   */\n      swap1\n      pop\n        /* \"#utility.yul\":38606:39004   */\n      swap2\n      swap1\n      pop\n      jump\t// out\n        /* \"#utility.yul\":39010:39389   */\n    tag_453:\n        /* \"#utility.yul\":39194:39197   */\n      0x00\n        /* \"#utility.yul\":39216:39363   */\n      tag_988\n        /* \"#utility.yul\":39359:39362   */\n      dup3\n        /* \"#utility.yul\":39216:39363   */\n      tag_593\n      jump\t// in\n    tag_988:\n        /* \"#utility.yul\":39209:39363   */\n      swap2\n      pop\n        /* \"#utility.yul\":39380:39383   */\n      dup2\n        /* \"#utility.yul\":39373:39383   */\n      swap1\n      pop\n        /* \"#utility.yul\":39010:39389   */\n      swap2\n      swap1\n      pop\n      jump\t// out\n        /* \"#utility.yul\":39395:39566   */\n    tag_594:\n        /* \"#utility.yul\":39535:39558   */\n      0x526577617264207061796d656e74206661696c65640000000000000000000000\n        /* \"#utility.yul\":39531:39532   */\n      0x00\n        /* \"#utility.yul\":39523:39529   */\n      dup3\n        /* \"#utility.yul\":39519:39533   */\n      add\n        /* \"#utility.yul\":39512:39559   */\n      mstore\n        /* \"#utility.yul\":39395:39566   */\n      pop\n      jump\t// out\n        /* \"#utility.yul\":39572:39938   */\n    tag_595:\n        /* \"#utility.yul\":39714:39717   */\n      0x00\n        /* \"#utility.yul\":39735:39802   */\n      tag_991\n        /* \"#utility.yul\":39799:39801   */\n      0x15\n        /* \"#utility.yul\":39794:39797   */\n      dup4\n        /* \"#utility.yul\":39735:39802   */\n      tag_525\n      jump\t// in\n    tag_991:\n        /* \"#utility.yul\":39728:39802   */\n      swap2\n      pop\n        /* \"#utility.yul\":39811:39904   */\n      tag_992\n        /* \"#utility.yul\":39900:39903   */\n      dup3\n        /* \"#utility.yul\":39811:39904   */\n      tag_594\n      jump\t// in\n    tag_992:\n        /* \"#utility.yul\":39929:39931   */\n      0x20\n        /* \"#utility.yul\":39924:39927   */\n      dup3\n        /* \"#utility.yul\":39920:39932   */\n      add\n        /* \"#utility.yul\":39913:39932   */\n      swap1\n      pop\n        /* \"#utility.yul\":39572:39938   */\n      swap2\n      swap1\n      pop\n      jump\t// out\n        /* \"#utility.yul\":39944:40363   */\n    tag_459:\n        /* \"#utility.yul\":40110:40114   */\n      0x00\n        /* \"#utility.yul\":40148:40150   */\n      0x20\n        /* \"#utility.yul\":40137:40146   */\n      dup3\n        /* \"#utility.yul\":40133:40151   */\n      add\n        /* \"#utility.yul\":40125:40151   */\n      swap1\n      pop\n        /* \"#utility.yul\":40197:40206   */\n      dup2\n        /* \"#utility.yul\":40191:40195   */\n      dup2\n        /* \"#utility.yul\":40187:40207   */\n      sub\n        /* \"#utility.yul\":40183:40184   */\n      0x00\n        /* \"#utility.yul\":40172:40181   */\n      dup4\n        /* \"#utility.yul\":40168:40185   */\n      add\n        /* \"#utility.yul\":40161:40208   */\n      mstore\n        /* \"#utility.yul\":40225:40356   */\n      tag_994\n        /* \"#utility.yul\":40351:40355   */\n      dup2\n        /* \"#utility.yul\":40225:40356   */\n      tag_595\n      jump\t// in\n    tag_994:\n        /* \"#utility.yul\":40217:40356   */\n      swap1\n      pop\n        /* \"#utility.yul\":39944:40363   */\n      swap2\n      swap1\n      pop\n      jump\t// out\n        /* \"#utility.yul\":40369:40701   */\n    tag_461:\n        /* \"#utility.yul\":40490:40494   */\n      0x00\n        /* \"#utility.yul\":40528:40530   */\n      0x40\n        /* \"#utility.yul\":40517:40526   */\n      dup3\n        /* \"#utility.yul\":40513:40531   */\n      add\n        /* \"#utility.yul\":40505:40531   */\n      swap1\n      pop\n        /* \"#utility.yul\":40541:40612   */\n      tag_996\n        /* \"#utility.yul\":40609:40610   */\n      0x00\n        /* \"#utility.yul\":40598:40607   */\n      dup4\n        /* \"#utility.yul\":40594:40611   */\n      add\n        /* \"#utility.yul\":40585:40591   */\n      dup6\n        /* \"#utility.yul\":40541:40612   */\n      tag_507\n      jump\t// in\n    tag_996:\n        /* \"#utility.yul\":40622:40694   */\n      tag_997\n        /* \"#utility.yul\":40690:40692   */\n      0x20\n        /* \"#utility.yul\":40679:40688   */\n      dup4\n        /* \"#utility.yul\":40675:40693   */\n      add\n        /* \"#utility.yul\":40666:40672   */\n      dup5\n        /* \"#utility.yul\":40622:40694   */\n      tag_504\n      jump\t// in\n    tag_997:\n        /* \"#utility.yul\":40369:40701   */\n      swap4\n      swap3\n      pop\n      pop\n      pop\n      jump\t// out\n        /* \"#utility.yul\":40707:40847   */\n    tag_596:\n        /* \"#utility.yul\":40755:40759   */\n      0x00\n        /* \"#utility.yul\":40778:40781   */\n      dup2\n        /* \"#utility.yul\":40770:40781   */\n      swap1\n      pop\n        /* \"#utility.yul\":40801:40804   */\n      dup2\n        /* \"#utility.yul\":40798:40799   */\n      0x00\n        /* \"#utility.yul\":40791:40805   */\n      mstore\n        /* \"#utility.yul\":40835:40839   */\n      0x20\n        /* \"#utility.yul\":40832:40833   */\n      0x00\n        /* \"#utility.yul\":40822:40840   */\n      keccak256\n        /* \"#utility.yul\":40814:40840   */\n      swap1\n      pop\n        /* \"#utility.yul\":40707:40847   */\n      swap2\n      swap1\n      pop\n      jump\t// out\n        /* \"#utility.yul\":40853:41394   */\n    tag_597:\n        /* \"#utility.yul\":40953:40955   */\n      0x1f\n        /* \"#utility.yul\":40948:40951   */\n      dup3\n        /* \"#utility.yul\":40945:40956   */\n      gt\n        /* \"#utility.yul\":40942:41387   */\n      iszero\n      tag_1000\n      jumpi\n        /* \"#utility.yul\":40987:41024   */\n      tag_1001\n        /* \"#utility.yul\":41018:41023   */\n      dup2\n        /* \"#utility.yul\":40987:41024   */\n      tag_596\n      jump\t// in\n    tag_1001:\n        /* \"#utility.yul\":41070:41099   */\n      tag_1002\n        /* \"#utility.yul\":41088:41098   */\n      dup5\n        /* \"#utility.yul\":41070:41099   */\n      tag_575\n      jump\t// in\n    tag_1002:\n        /* \"#utility.yul\":41060:41068   */\n      dup2\n        /* \"#utility.yul\":41056:41100   */\n      add\n        /* \"#utility.yul\":41253:41255   */\n      0x20\n        /* \"#utility.yul\":41241:41251   */\n      dup6\n        /* \"#utility.yul\":41238:41256   */\n      lt\n        /* \"#utility.yul\":41235:41284   */\n      iszero\n      tag_1003\n      jumpi\n        /* \"#utility.yul\":41274:41282   */\n      dup2\n        /* \"#utility.yul\":41259:41282   */\n      swap1\n      pop\n        /* \"#utility.yul\":41235:41284   */\n    tag_1003:\n        /* \"#utility.yul\":41297:41377   */\n      tag_1004\n        /* \"#utility.yul\":41353:41375   */\n      tag_1005\n        /* \"#utility.yul\":41371:41374   */\n      dup6\n        /* \"#utility.yul\":41353:41375   */\n      tag_575\n      jump\t// in\n    tag_1005:\n        /* \"#utility.yul\":41343:41351   */\n      dup4\n        /* \"#utility.yul\":41339:41376   */\n      add\n        /* \"#utility.yul\":41326:41337   */\n      dup3\n        /* \"#utility.yul\":41297:41377   */\n      tag_584\n      jump\t// in\n    tag_1004:\n        /* \"#utility.yul\":40957:41387   */\n      pop\n      pop\n        /* \"#utility.yul\":40942:41387   */\n    tag_1000:\n        /* \"#utility.yul\":40853:41394   */\n      pop\n      pop\n      pop\n      jump\t// out\n        /* \"#utility.yul\":41400:42790   */\n    tag_477:\n        /* \"#utility.yul\":41515:41551   */\n      tag_1007\n        /* \"#utility.yul\":41547:41550   */\n      dup3\n        /* \"#utility.yul\":41515:41551   */\n      tag_508\n      jump\t// in\n    tag_1007:\n        /* \"#utility.yul\":41616:41634   */\n      0xffffffffffffffff\n        /* \"#utility.yul\":41608:41614   */\n      dup2\n        /* \"#utility.yul\":41605:41635   */\n      gt\n        /* \"#utility.yul\":41602:41658   */\n      iszero\n      tag_1008\n      jumpi\n        /* \"#utility.yul\":41638:41656   */\n      tag_1009\n      tag_354\n      jump\t// in\n    tag_1009:\n        /* \"#utility.yul\":41602:41658   */\n    tag_1008:\n        /* \"#utility.yul\":41682:41720   */\n      tag_1010\n        /* \"#utility.yul\":41714:41718   */\n      dup3\n        /* \"#utility.yul\":41708:41719   */\n      sload\n        /* \"#utility.yul\":41682:41720   */\n      tag_153\n      jump\t// in\n    tag_1010:\n        /* \"#utility.yul\":41767:41833   */\n      tag_1011\n        /* \"#utility.yul\":41826:41832   */\n      dup3\n        /* \"#utility.yul\":41818:41824   */\n      dup3\n        /* \"#utility.yul\":41812:41816   */\n      dup6\n        /* \"#utility.yul\":41767:41833   */\n      tag_597\n      jump\t// in\n    tag_1011:\n        /* \"#utility.yul\":41860:41861   */\n      0x00\n        /* \"#utility.yul\":41884:41888   */\n      0x20\n        /* \"#utility.yul\":41871:41888   */\n      swap1\n      pop\n        /* \"#utility.yul\":41916:41918   */\n      0x1f\n        /* \"#utility.yul\":41908:41914   */\n      dup4\n        /* \"#utility.yul\":41905:41919   */\n      gt\n        /* \"#utility.yul\":41933:41934   */\n      0x01\n        /* \"#utility.yul\":41928:42545   */\n      dup2\n      eq\n      tag_1013\n      jumpi\n        /* \"#utility.yul\":42589:42590   */\n      0x00\n        /* \"#utility.yul\":42606:42612   */\n      dup5\n        /* \"#utility.yul\":42603:42680   */\n      iszero\n      tag_1014\n      jumpi\n        /* \"#utility.yul\":42655:42664   */\n      dup3\n        /* \"#utility.yul\":42650:42653   */\n      dup8\n        /* \"#utility.yul\":42646:42665   */\n      add\n        /* \"#utility.yul\":42640:42666   */\n      mload\n        /* \"#utility.yul\":42631:42666   */\n      swap1\n      pop\n        /* \"#utility.yul\":42603:42680   */\n    tag_1014:\n        /* \"#utility.yul\":42706:42773   */\n      tag_1015\n        /* \"#utility.yul\":42766:42772   */\n      dup6\n        /* \"#utility.yul\":42759:42764   */\n      dup3\n        /* \"#utility.yul\":42706:42773   */\n      tag_588\n      jump\t// in\n    tag_1015:\n        /* \"#utility.yul\":42700:42704   */\n      dup7\n        /* \"#utility.yul\":42693:42774   */\n      sstore\n        /* \"#utility.yul\":42562:42784   */\n      pop\n        /* \"#utility.yul\":41898:42784   */\n      jump(tag_1012)\n        /* \"#utility.yul\":41928:42545   */\n    tag_1013:\n        /* \"#utility.yul\":41980:41984   */\n      0x1f\n        /* \"#utility.yul\":41976:41985   */\n      not\n        /* \"#utility.yul\":41968:41974   */\n      dup5\n        /* \"#utility.yul\":41964:41986   */\n      and\n        /* \"#utility.yul\":42014:42050   */\n      tag_1016\n        /* \"#utility.yul\":42045:42049   */\n      dup7\n        /* \"#utility.yul\":42014:42050   */\n      tag_596\n      jump\t// in\n    tag_1016:\n        /* \"#utility.yul\":42072:42073   */\n      0x00\n        /* \"#utility.yul\":42086:42294   */\n    tag_1017:\n        /* \"#utility.yul\":42100:42107   */\n      dup3\n        /* \"#utility.yul\":42097:42098   */\n      dup2\n        /* \"#utility.yul\":42094:42108   */\n      lt\n        /* \"#utility.yul\":42086:42294   */\n      iszero\n      tag_1019\n      jumpi\n        /* \"#utility.yul\":42179:42188   */\n      dup5\n        /* \"#utility.yul\":42174:42177   */\n      dup10\n        /* \"#utility.yul\":42170:42189   */\n      add\n        /* \"#utility.yul\":42164:42190   */\n      mload\n        /* \"#utility.yul\":42156:42162   */\n      dup3\n        /* \"#utility.yul\":42149:42191   */\n      sstore\n        /* \"#utility.yul\":42230:42231   */\n      0x01\n        /* \"#utility.yul\":42222:42228   */\n      dup3\n        /* \"#utility.yul\":42218:42232   */\n      add\n        /* \"#utility.yul\":42208:42232   */\n      swap2\n      pop\n        /* \"#utility.yul\":42277:42279   */\n      0x20\n        /* \"#utility.yul\":42266:42275   */\n      dup6\n        /* \"#utility.yul\":42262:42280   */\n      add\n        /* \"#utility.yul\":42249:42280   */\n      swap5\n      pop\n        /* \"#utility.yul\":42123:42127   */\n      0x20\n        /* \"#utility.yul\":42120:42121   */\n      dup2\n        /* \"#utility.yul\":42116:42128   */\n      add\n        /* \"#utility.yul\":42111:42128   */\n      swap1\n      pop\n        /* \"#utility.yul\":42086:42294   */\n      jump(tag_1017)\n    tag_1019:\n        /* \"#utility.yul\":42322:42328   */\n      dup7\n        /* \"#utility.yul\":42313:42320   */\n      dup4\n        /* \"#utility.yul\":42310:42329   */\n      lt\n        /* \"#utility.yul\":42307:42486   */\n      iszero\n      tag_1020\n      jumpi\n        /* \"#utility.yul\":42380:42389   */\n      dup5\n        /* \"#utility.yul\":42375:42378   */\n      dup10\n        /* \"#utility.yul\":42371:42390   */\n      add\n        /* \"#utility.yul\":42365:42391   */\n      mload\n        /* \"#utility.yul\":42423:42471   */\n      tag_1021\n        /* \"#utility.yul\":42465:42469   */\n      0x1f\n        /* \"#utility.yul\":42457:42463   */\n      dup10\n        /* \"#utility.yul\":42453:42470   */\n      and\n        /* \"#utility.yul\":42442:42451   */\n      dup3\n        /* \"#utility.yul\":42423:42471   */\n      tag_587\n      jump\t// in\n    tag_1021:\n        /* \"#utility.yul\":42415:42421   */\n      dup4\n        /* \"#utility.yul\":42408:42472   */\n      sstore\n        /* \"#utility.yul\":42330:42486   */\n      pop\n        /* \"#utility.yul\":42307:42486   */\n    tag_1020:\n        /* \"#utility.yul\":42532:42533   */\n      0x01\n        /* \"#utility.yul\":42528:42529   */\n      0x02\n        /* \"#utility.yul\":42520:42526   */\n      dup9\n        /* \"#utility.yul\":42516:42530   */\n      mul\n        /* \"#utility.yul\":42512:42534   */\n      add\n        /* \"#utility.yul\":42506:42510   */\n      dup9\n        /* \"#utility.yul\":42499:42535   */\n      sstore\n        /* \"#utility.yul\":41935:42545   */\n      pop\n      pop\n      pop\n        /* \"#utility.yul\":41898:42784   */\n    tag_1012:\n      pop\n        /* \"#utility.yul\":41490:42790   */\n      pop\n      pop\n      pop\n        /* \"#utility.yul\":41400:42790   */\n      pop\n      pop\n      jump\t// out\n\n    auxdata: 0xa2646970667358221220a33033ec06bd14e819011cf2c63fd4c819f625c76d2e04558e2f3f1d99cb556a64736f6c63430008120033\n}\n",
				"bytecode": {
					"linkReferences": {},
					"object": "608060405234801561001057600080fd5b506001600981905550670de0b6b3a7640000600a81905550614330806100376000396000f3fe608060405234801561001057600080fd5b50600436106101a95760003560e01c8063931c1bbd116100f9578063b252417511610097578063cde4ba4811610071578063cde4ba4814610528578063e4fb7a0f14610544578063e55f796414610574578063f7b2a7be146105a4576101a9565b8063b2524175146104aa578063b52d6624146104c8578063cdcaf87e146104f8576101a9565b8063aa2b7010116100d3578063aa2b7010146103e2578063adddf23314610416578063b0e73d7e14610446578063b24740591461047a576101a9565b8063931c1bbd1461038c578063a4a91eef146103a8578063a7d2e9a3146103c4576101a9565b80633c097111116101665780635b92b5bd116101405780635b92b5bd146103045780636ab799f114610320578063754ccd331461033c5780637fe92d2a14610358576101a9565b80633c097111146102825780633e689f9c146102b25780635b395159146102d0576101a9565b806315c2ba14146101ae57806316faae90146101ca57806318d340e7146101fe578063192bf8751461021a5780632437c149146102365780632a3427f014610252575b600080fd5b6101c860048036038101906101c39190612d12565b6105c2565b005b6101e460048036038101906101df9190612d12565b6105cc565b6040516101f5959493929190612e3a565b60405180910390f35b61021860048036038101906102139190612ec0565b6106b7565b005b610234600480360381019061022f9190612f65565b6109ad565b005b610250600480360381019061024b9190612fb2565b610aae565b005b61026c60048036038101906102679190612d12565b610db6565b6040516102799190612ff2565b60405180910390f35b61029c60048036038101906102979190612d12565b610df5565b6040516102a99190612ff2565b60405180910390f35b6102ba610e34565b6040516102c7919061300d565b60405180910390f35b6102ea60048036038101906102e5919061305e565b610e3a565b6040516102fb9594939291906131ad565b60405180910390f35b61031e60048036038101906103199190613215565b61100e565b005b61033a6004803603810190610335919061305e565b61138a565b005b61035660048036038101906103519190612d12565b61185f565b005b610372600480360381019061036d9190613255565b611979565b604051610383959493929190613282565b60405180910390f35b6103a660048036038101906103a191906134a6565b6119dc565b005b6103c260048036038101906103bd9190613255565b611d94565b005b6103cc6120f3565b6040516103d99190613633565b60405180910390f35b6103fc60048036038101906103f7919061305e565b612181565b60405161040d959493929190613655565b60405180910390f35b610430600480360381019061042b919061305e565b6122f4565b60405161043d91906136b6565b60405180910390f35b610460600480360381019061045b9190613255565b612314565b604051610471959493929190613282565b60405180910390f35b610494600480360381019061048f9190612ec0565b6123b8565b6040516104a1919061300d565b60405180910390f35b6104b26123e9565b6040516104bf9190613633565b60405180910390f35b6104e260048036038101906104dd9190613255565b612477565b6040516104ef919061378f565b60405180910390f35b610512600480360381019061050d9190612d12565b61250e565b60405161051f91906137b1565b60405180910390f35b610542600480360381019061053d91906137d3565b612579565b005b61055e6004803603810190610559919061383a565b6126f3565b60405161056b919061300d565b60405180910390f35b61058e60048036038101906105899190612ec0565b612724565b60405161059b919061387a565b60405180910390f35b6105ac612755565b6040516105b9919061300d565b60405180910390f35b80600a8190555050565b60006020528060005260406000206000915090508060000154908060010160009054906101000a900473ffffffffffffffffffffffffffffffffffffffff1690806002015490806003018054610621906138c4565b80601f016020809104026020016040519081016040528092919081815260200182805461064d906138c4565b801561069a5780601f1061066f5761010080835404028352916020019161069a565b820191906000526020600020905b81548152906001019060200180831161067d57829003601f168201915b5050505050908060040160009054906101000a900460ff16905085565b6000600360008473ffffffffffffffffffffffffffffffffffffffff1673ffffffffffffffffffffffffffffffffffffffff1681526020019081526020016000209050818160020181905550600082111561081a576000805b6007805490508110156107aa578473ffffffffffffffffffffffffffffffffffffffff1660078281548110610748576107476138f5565b5b9060005260206000200160009054906101000a900473ffffffffffffffffffffffffffffffffffffffff1673ffffffffffffffffffffffffffffffffffffffff160361079757600191506107aa565b80806107a290613953565b915050610710565b5080610814576007849080600181540180825580915050600190039060005260206000200160009091909190916101000a81548173ffffffffffffffffffffffffffffffffffffffff021916908373ffffffffffffffffffffffffffffffffffffffff1602179055505b506109a8565b60005b6007805490508110156109a6578373ffffffffffffffffffffffffffffffffffffffff1660078281548110610855576108546138f5565b5b9060005260206000200160009054906101000a900473ffffffffffffffffffffffffffffffffffffffff1673ffffffffffffffffffffffffffffffffffffffff160361099357600760016007805490506108af919061399b565b815481106108c0576108bf6138f5565b5b9060005260206000200160009054906101000a900473ffffffffffffffffffffffffffffffffffffffff16600782815481106108ff576108fe6138f5565b5b9060005260206000200160006101000a81548173ffffffffffffffffffffffffffffffffffffffff021916908373ffffffffffffffffffffffffffffffffffffffff1602179055506007805480610959576109586139cf565b5b6001900381819060005260206000200160006101000a81549073ffffffffffffffffffffffffffffffffffffffff021916905590556109a6565b808061099e90613953565b91505061081d565b505b505050565b60005b82829050811015610aa95760008383838181106109d0576109cf6138f5565b5b9050602002013590506000806000838152602001908152602001600020905060006109fe826000015461275b565b90507fe2287538273600866181d00327199ba2737bdd326a6f08436f117f6a6c0e87a0838360010160009054906101000a900473ffffffffffffffffffffffffffffffffffffffff1683604051610a57939291906139fe565b60405180910390a18015610a9357610a928260010160009054906101000a900473ffffffffffffffffffffffffffffffffffffffff1661278c565b5b5050508080610aa190613953565b9150506109b0565b505050565b60008083815260200190815260200160002060040160009054906101000a900460ff16610b10576040517f08c379a0000000000000000000000000000000000000000000000000000000008152600401610b0790613a81565b60405180910390fd5b600360008273ffffffffffffffffffffffffffffffffffffffff1673ffffffffffffffffffffffffffffffffffffffff16815260200190815260200160002060040160009054906101000a900460ff16610b9f576040517f08c379a0000000000000000000000000000000000000000000000000000000008152600401610b9690613aed565b60405180910390fd5b600080600084815260200190815260200160002060010160009054906101000a900473ffffffffffffffffffffffffffffffffffffffff1690508173ffffffffffffffffffffffffffffffffffffffff168173ffffffffffffffffffffffffffffffffffffffff1614610db1576000600260008373ffffffffffffffffffffffffffffffffffffffff1673ffffffffffffffffffffffffffffffffffffffff168152602001908152602001600020905060005b8180549050811015610cbb5784828281548110610c7257610c716138f5565b5b906000526020600020015403610ca857818181548110610c9557610c946138f5565b5b9060005260206000200160009055610cbb565b8080610cb390613953565b915050610c52565b508260008086815260200190815260200160002060010160006101000a81548173ffffffffffffffffffffffffffffffffffffffff021916908373ffffffffffffffffffffffffffffffffffffffff160217905550600260008473ffffffffffffffffffffffffffffffffffffffff1673ffffffffffffffffffffffffffffffffffffffff1681526020019081526020016000208490806001815401808255809150506001900390600052602060002001600090919091909150557f9126cbe7384024542fde94f05011d7713670628720b50555593f77cc21d1dc8c8484604051610da7929190613b0d565b60405180910390a1505b505050565b60088181548110610dc657600080fd5b906000526020600020016000915054906101000a900473ffffffffffffffffffffffffffffffffffffffff1681565b60078181548110610e0557600080fd5b906000526020600020016000915054906101000a900473ffffffffffffffffffffffffffffffffffffffff1681565b60095481565b60006060806000606060006001600088815260200190815260200160002090508060000160009054906101000a900473ffffffffffffffffffffffffffffffffffffffff168160010182600201836003015484600401838054610e9c906138c4565b80601f0160208091040260200160405190810160405280929190818152602001828054610ec8906138c4565b8015610f155780601f10610eea57610100808354040283529160200191610f15565b820191906000526020600020905b815481529060010190602001808311610ef857829003601f168201915b50505050509350828054610f28906138c4565b80601f0160208091040260200160405190810160405280929190818152602001828054610f54906138c4565b8015610fa15780601f10610f7657610100808354040283529160200191610fa1565b820191906000526020600020905b815481529060010190602001808311610f8457829003601f168201915b5050505050925080805480602002602001604051908101604052809291908181526020018280548015610ff357602002820191906000526020600020905b815481526020019060010190808311610fdf575b50505050509050955095509550955095505091939590929450565b6001600083815260200190815260200160002060050160009054906101000a900460ff16611071576040517f08c379a000000000000000000000000000000000000000000000000000000000815260040161106890613b82565b60405180910390fd5b60008082815260200190815260200160002060040160009054906101000a900460ff166110d3576040517f08c379a00000000000000000000000000000000000000000000000000000000081526004016110ca90613a81565b60405180910390fd5b6000600160008481526020019081526020016000209050600080600084815260200190815260200160002090508060010160009054906101000a900473ffffffffffffffffffffffffffffffffffffffff1673ffffffffffffffffffffffffffffffffffffffff163373ffffffffffffffffffffffffffffffffffffffff1614611192576040517f08c379a000000000000000000000000000000000000000000000000000000000815260040161118990613c14565b60405180910390fd5b6000600260008360010160009054906101000a900473ffffffffffffffffffffffffffffffffffffffff1673ffffffffffffffffffffffffffffffffffffffff1673ffffffffffffffffffffffffffffffffffffffff168152602001908152602001600020905060005b8180549050811015611265578482828154811061121c5761121b6138f5565b5b9060005260206000200154036112525781818154811061123f5761123e6138f5565b5b9060005260206000200160009055611265565b808061125d90613953565b9150506111fc565b50600083600401905060005b81805490508110156112da5785828281548110611291576112906138f5565b5b9060005260206000200154036112c7578181815481106112b4576112b36138f5565b5b90600052602060002001600090556112da565b80806112d290613953565b915050611271565b506000808681526020019081526020016000206000808201600090556001820160006101000a81549073ffffffffffffffffffffffffffffffffffffffff021916905560028201600090556003820160006113359190612bbd565b6004820160006101000a81549060ff021916905550507ff6a2d10319800c3ecf3244c17904ea5f3026e430b4417ee5ec5baa464e8f9b0c8560405161137a919061300d565b60405180910390a1505050505050565b6001600082815260200190815260200160002060050160009054906101000a900460ff166113ed576040517f08c379a00000000000000000000000000000000000000000000000000000000081526004016113e490613b82565b60405180910390fd5b60006001600083815260200190815260200160002090508060000160009054906101000a900473ffffffffffffffffffffffffffffffffffffffff1673ffffffffffffffffffffffffffffffffffffffff163373ffffffffffffffffffffffffffffffffffffffff1614611496576040517f08c379a000000000000000000000000000000000000000000000000000000000815260040161148d90613ca6565b60405180910390fd5b6000600460008360000160009054906101000a900473ffffffffffffffffffffffffffffffffffffffff1673ffffffffffffffffffffffffffffffffffffffff1673ffffffffffffffffffffffffffffffffffffffff168152602001908152602001600020905060005b818054905081101561156957838282815481106115205761151f6138f5565b5b90600052602060002001540361155657818181548110611543576115426138f5565b5b9060005260206000200160009055611569565b808061156190613953565b915050611500565b5060016000848152602001908152602001600020600080820160006101000a81549073ffffffffffffffffffffffffffffffffffffffff02191690556001820160006115b59190612bfd565b6002820160006115c59190612bfd565b60038201600090556004820160006115dd9190612c3d565b6005820160006101000a81549060ff02191690555050600082600401905060005b818054905081101561182157600082828154811061161f5761161e6138f5565b5b906000526020600020015490506000808281526020019081526020016000206000808201600090556001820160006101000a81549073ffffffffffffffffffffffffffffffffffffffff021916905560028201600090556003820160006116869190612bbd565b6004820160006101000a81549060ff02191690555050600080600083815260200190815260200160002060010160009054906101000a900473ffffffffffffffffffffffffffffffffffffffff1690506000600260008373ffffffffffffffffffffffffffffffffffffffff1673ffffffffffffffffffffffffffffffffffffffff168152602001908152602001600020905060005b8180549050811015611785578382828154811061173c5761173b6138f5565b5b9060005260206000200154036117725781818154811061175f5761175e6138f5565b5b9060005260206000200160009055611785565b808061177d90613953565b91505061171c565b50600060056000858152602001908152602001600020905060005b818054905081101561180957848282815481106117c0576117bf6138f5565b5b9060005260206000200154036117f6578181815481106117e3576117e26138f5565b5b9060005260206000200160009055611809565b808061180190613953565b9150506117a0565b5050505050808061181990613953565b9150506115fe565b507f88efefb1eaec3d3a0e08ed74bc99a3407d454b5da66112fed68b20d54837ccae84604051611851919061387a565b60405180910390a150505050565b600080600083815260200190815260200160002090508060040160009054906101000a900460ff166118c6576040517f08c379a00000000000000000000000000000000000000000000000000000000081526004016118bd90613a81565b60405180910390fd5b60006118d18361275b565b90507fe2287538273600866181d00327199ba2737bdd326a6f08436f117f6a6c0e87a0838360010160009054906101000a900473ffffffffffffffffffffffffffffffffffffffff168360405161192a939291906139fe565b60405180910390a1801561196a576119658260010160009054906101000a900473ffffffffffffffffffffffffffffffffffffffff1661278c565b611974565b611973836128be565b5b505050565b60036020528060005260406000206000915090508060000154908060010160009054906101000a900473ffffffffffffffffffffffffffffffffffffffff16908060020154908060030154908060040160009054906101000a900460ff16905085565b6000825111611a20576040517f08c379a0000000000000000000000000000000000000000000000000000000008152600401611a1790613d12565b60405180910390fd5b6000816001838551611a329190613d32565b611a3c919061399b565b611a469190613d95565b905060008167ffffffffffffffff811115611a6457611a636132da565b5b604051908082528060200260200182016040528015611a925781602001602082028036833780820191505090505b50905060005b82811015611bf65760008482611aae9190613dc6565b905060008582611abe9190613d32565b90508651811115611ace57865190505b60008282611adc919061399b565b67ffffffffffffffff811115611af557611af46132da565b5b6040519080825280601f01601f191660200182016040528015611b275781602001600182028036833780820191505090505b50905060008390505b82811015611bb657888181518110611b4b57611b4a6138f5565b5b602001015160f81c60f81b828583611b63919061399b565b81518110611b7457611b736138f5565b5b60200101907effffffffffffffffffffffffffffffffffffffffffffffffffffffffffffff1916908160001a9053508080611bae90613953565b915050611b30565b50611bc181336129ea565b858581518110611bd457611bd36138f5565b5b6020026020010181815250505050508080611bee90613953565b915050611a98565b506040518060c001604052803373ffffffffffffffffffffffffffffffffffffffff168152602001888152602001878152602001868152602001828152602001600115158152506001600087815260200190815260200160002060008201518160000160006101000a81548173ffffffffffffffffffffffffffffffffffffffff021916908373ffffffffffffffffffffffffffffffffffffffff1602179055506020820151816001019081611cac9190613fb4565b506040820151816002019081611cc29190613fb4565b50606082015181600301556080820151816004019080519060200190611ce9929190612c5e565b5060a08201518160050160006101000a81548160ff021916908315150217905550905050600460003373ffffffffffffffffffffffffffffffffffffffff1673ffffffffffffffffffffffffffffffffffffffff16815260200190815260200160002085908060018154018082558091505060019003906000526020600020016000909190919091505560096000815480929190611d8690613953565b919050555050505050505050565b600360008273ffffffffffffffffffffffffffffffffffffffff1673ffffffffffffffffffffffffffffffffffffffff16815260200190815260200160002060040160009054906101000a900460ff16611e23576040517f08c379a0000000000000000000000000000000000000000000000000000000008152600401611e1a90613aed565b60405180910390fd5b600360008273ffffffffffffffffffffffffffffffffffffffff1673ffffffffffffffffffffffffffffffffffffffff1681526020019081526020016000206000808201600090556001820160006101000a81549073ffffffffffffffffffffffffffffffffffffffff0219169055600282016000905560038201600090556004820160006101000a81549060ff02191690555050600260008273ffffffffffffffffffffffffffffffffffffffff1673ffffffffffffffffffffffffffffffffffffffff1681526020019081526020016000206000611f039190612c3d565b60005b600780549050811015611fdd578173ffffffffffffffffffffffffffffffffffffffff1660078281548110611f3e57611f3d6138f5565b5b9060005260206000200160009054906101000a900473ffffffffffffffffffffffffffffffffffffffff1673ffffffffffffffffffffffffffffffffffffffff1603611fca5760078181548110611f9857611f976138f5565b5b9060005260206000200160006101000a81549073ffffffffffffffffffffffffffffffffffffffff0219169055611fdd565b8080611fd590613953565b915050611f06565b5060005b6008805490508110156120b8578173ffffffffffffffffffffffffffffffffffffffff1660088281548110612019576120186138f5565b5b9060005260206000200160009054906101000a900473ffffffffffffffffffffffffffffffffffffffff1673ffffffffffffffffffffffffffffffffffffffff16036120a55760088181548110612073576120726138f5565b5b9060005260206000200160006101000a81549073ffffffffffffffffffffffffffffffffffffffff02191690556120b8565b80806120b090613953565b915050611fe1565b507f4ec08ac56c966a2996e49a49ef82b618954fb71b28a651fbc8ed9ebc0dfecbd3816040516120e89190612ff2565b60405180910390a150565b6060600880548060200260200160405190810160405280929190818152602001828054801561217757602002820191906000526020600020905b8160009054906101000a900473ffffffffffffffffffffffffffffffffffffffff1673ffffffffffffffffffffffffffffffffffffffff168152602001906001019080831161212d575b5050505050905090565b60016020528060005260406000206000915090508060000160009054906101000a900473ffffffffffffffffffffffffffffffffffffffff16908060010180546121ca906138c4565b80601f01602080910402602001604051908101604052809291908181526020018280546121f6906138c4565b80156122435780601f1061221857610100808354040283529160200191612243565b820191906000526020600020905b81548152906001019060200180831161222657829003601f168201915b505050505090806002018054612258906138c4565b80601f0160208091040260200160405190810160405280929190818152602001828054612284906138c4565b80156122d15780601f106122a6576101008083540402835291602001916122d1565b820191906000526020600020905b8154815290600101906020018083116122b457829003601f168201915b5050505050908060030154908060050160009054906101000a900460ff16905085565b60066020528060005260406000206000915054906101000a900460ff1681565b600080600080600080600360008873ffffffffffffffffffffffffffffffffffffffff1673ffffffffffffffffffffffffffffffffffffffff168152602001908152602001600020905080600001548160010160009054906101000a900473ffffffffffffffffffffffffffffffffffffffff16826002015483600301548460040160009054906101000a900460ff16955095509550955095505091939590929450565b600260205281600052604060002081815481106123d457600080fd5b90600052602060002001600091509150505481565b6060600780548060200260200160405190810160405280929190818152602001828054801561246d57602002820191906000526020600020905b8160009054906101000a900473ffffffffffffffffffffffffffffffffffffffff1673ffffffffffffffffffffffffffffffffffffffff1681526020019060010190808311612423575b5050505050905090565b6060600460008373ffffffffffffffffffffffffffffffffffffffff1673ffffffffffffffffffffffffffffffffffffffff16815260200190815260200160002080548060200260200160405190810160405280929190818152602001828054801561250257602002820191906000526020600020905b8154815260200190600101908083116124ee575b50505050509050919050565b60606005600083815260200190815260200160002080548060200260200160405190810160405280929190818152602001828054801561256d57602002820191906000526020600020905b815481526020019060010190808311612559575b50505050509050919050565b6040518060a001604052808581526020018473ffffffffffffffffffffffffffffffffffffffff16815260200183815260200182815260200160001515815250600360003373ffffffffffffffffffffffffffffffffffffffff1673ffffffffffffffffffffffffffffffffffffffff1681526020019081526020016000206000820151816000015560208201518160010160006101000a81548173ffffffffffffffffffffffffffffffffffffffff021916908373ffffffffffffffffffffffffffffffffffffffff160217905550604082015181600201556060820151816003015560808201518160040160006101000a81548160ff02191690831515021790555090505060008211156126ed576007339080600181540180825580915050600190039060005260206000200160009091909190916101000a81548173ffffffffffffffffffffffffffffffffffffffff021916908373ffffffffffffffffffffffffffffffffffffffff1602179055505b50505050565b6005602052816000526040600020818154811061270f57600080fd5b90600052602060002001600091509150505481565b6004602052816000526040600020818154811061274057600080fd5b90600052602060002001600091509150505481565b600a5481565b60008060008084815260200190815260200160002090508060040160009054906101000a900460ff16915050919050565b600a544710156127d1576040517f08c379a00000000000000000000000000000000000000000000000000000000081526004016127c8906140d2565b60405180910390fd5b60008173ffffffffffffffffffffffffffffffffffffffff16600a546040516127f990614123565b60006040518083038185875af1925050503d8060008114612836576040519150601f19603f3d011682016040523d82523d6000602084013e61283b565b606091505b505090508061287f576040517f08c379a000000000000000000000000000000000000000000000000000000000815260040161287690614184565b60405180910390fd5b7fe2403640ba68fed3a2f88b7557551d1993f84b99bb10ff833f0cf8db0c5e048682600a546040516128b29291906141a4565b60405180910390a15050565b6000806000838152602001908152602001600020905060008160010160009054906101000a900473ffffffffffffffffffffffffffffffffffffffff1690506000600260008373ffffffffffffffffffffffffffffffffffffffff1673ffffffffffffffffffffffffffffffffffffffff168152602001908152602001600020905060005b81805490508110156129ac5784828281548110612963576129626138f5565b5b90600052602060002001540361299957818181548110612986576129856138f5565b5b90600052602060002001600090556129ac565b80806129a490613953565b915050612943565b507ff6a2d10319800c3ecf3244c17904ea5f3026e430b4417ee5ec5baa464e8f9b0c846040516129dc919061300d565b60405180910390a150505050565b60008060095490506040518060a001604052808281526020018473ffffffffffffffffffffffffffffffffffffffff168152602001428152602001858152602001600115158152506000808381526020019081526020016000206000820151816000015560208201518160010160006101000a81548173ffffffffffffffffffffffffffffffffffffffff021916908373ffffffffffffffffffffffffffffffffffffffff160217905550604082015181600201556060820151816003019081612ab49190614228565b5060808201518160040160006101000a81548160ff021916908315150217905550905050600260008473ffffffffffffffffffffffffffffffffffffffff1673ffffffffffffffffffffffffffffffffffffffff1681526020019081526020016000208190806001815401808255809150506001900390600052602060002001600090919091909150556005600060095481526020019081526020016000208190806001815401808255809150506001900390600052602060002001600090919091909150557f9126cbe7384024542fde94f05011d7713670628720b50555593f77cc21d1dc8c8184604051612bab929190613b0d565b60405180910390a18091505092915050565b508054612bc9906138c4565b6000825580601f10612bdb5750612bfa565b601f016020900490600052602060002090810190612bf99190612cab565b5b50565b508054612c09906138c4565b6000825580601f10612c1b5750612c3a565b601f016020900490600052602060002090810190612c399190612cab565b5b50565b5080546000825590600052602060002090810190612c5b9190612cab565b50565b828054828255906000526020600020908101928215612c9a579160200282015b82811115612c99578251825591602001919060010190612c7e565b5b509050612ca79190612cab565b5090565b5b80821115612cc4576000816000905550600101612cac565b5090565b6000604051905090565b600080fd5b600080fd5b6000819050919050565b612cef81612cdc565b8114612cfa57600080fd5b50565b600081359050612d0c81612ce6565b92915050565b600060208284031215612d2857612d27612cd2565b5b6000612d3684828501612cfd565b91505092915050565b612d4881612cdc565b82525050565b600073ffffffffffffffffffffffffffffffffffffffff82169050919050565b6000612d7982612d4e565b9050919050565b612d8981612d6e565b82525050565b600081519050919050565b600082825260208201905092915050565b60005b83811015612dc9578082015181840152602081019050612dae565b60008484015250505050565b6000601f19601f8301169050919050565b6000612df182612d8f565b612dfb8185612d9a565b9350612e0b818560208601612dab565b612e1481612dd5565b840191505092915050565b60008115159050919050565b612e3481612e1f565b82525050565b600060a082019050612e4f6000830188612d3f565b612e5c6020830187612d80565b612e696040830186612d3f565b8181036060830152612e7b8185612de6565b9050612e8a6080830184612e2b565b9695505050505050565b612e9d81612d6e565b8114612ea857600080fd5b50565b600081359050612eba81612e94565b92915050565b60008060408385031215612ed757612ed6612cd2565b5b6000612ee585828601612eab565b9250506020612ef685828601612cfd565b9150509250929050565b600080fd5b600080fd5b600080fd5b60008083601f840112612f2557612f24612f00565b5b8235905067ffffffffffffffff811115612f4257612f41612f05565b5b602083019150836020820283011115612f5e57612f5d612f0a565b5b9250929050565b60008060208385031215612f7c57612f7b612cd2565b5b600083013567ffffffffffffffff811115612f9a57612f99612cd7565b5b612fa685828601612f0f565b92509250509250929050565b60008060408385031215612fc957612fc8612cd2565b5b6000612fd785828601612cfd565b9250506020612fe885828601612eab565b9150509250929050565b60006020820190506130076000830184612d80565b92915050565b60006020820190506130226000830184612d3f565b92915050565b6000819050919050565b61303b81613028565b811461304657600080fd5b50565b60008135905061305881613032565b92915050565b60006020828403121561307457613073612cd2565b5b600061308284828501613049565b91505092915050565b600081519050919050565b600082825260208201905092915050565b60006130b28261308b565b6130bc8185613096565b93506130cc818560208601612dab565b6130d581612dd5565b840191505092915050565b6130e981613028565b82525050565b600081519050919050565b600082825260208201905092915050565b6000819050602082019050919050565b61312481612cdc565b82525050565b6000613136838361311b565b60208301905092915050565b6000602082019050919050565b600061315a826130ef565b61316481856130fa565b935061316f8361310b565b8060005b838110156131a0578151613187888261312a565b975061319283613142565b925050600181019050613173565b5085935050505092915050565b600060a0820190506131c26000830188612d80565b81810360208301526131d481876130a7565b905081810360408301526131e881866130a7565b90506131f760608301856130e0565b8181036080830152613209818461314f565b90509695505050505050565b6000806040838503121561322c5761322b612cd2565b5b600061323a85828601613049565b925050602061324b85828601612cfd565b9150509250929050565b60006020828403121561326b5761326a612cd2565b5b600061327984828501612eab565b91505092915050565b600060a08201905061329760008301886130e0565b6132a46020830187612d80565b6132b16040830186612d3f565b6132be6060830185612d3f565b6132cb6080830184612e2b565b9695505050505050565b600080fd5b7f4e487b7100000000000000000000000000000000000000000000000000000000600052604160045260246000fd5b61331282612dd5565b810181811067ffffffffffffffff82111715613331576133306132da565b5b80604052505050565b6000613344612cc8565b90506133508282613309565b919050565b600067ffffffffffffffff8211156133705761336f6132da565b5b61337982612dd5565b9050602081019050919050565b82818337600083830152505050565b60006133a86133a384613355565b61333a565b9050828152602081018484840111156133c4576133c36132d5565b5b6133cf848285613386565b509392505050565b600082601f8301126133ec576133eb612f00565b5b81356133fc848260208601613395565b91505092915050565b600067ffffffffffffffff8211156134205761341f6132da565b5b61342982612dd5565b9050602081019050919050565b600061344961344484613405565b61333a565b905082815260208101848484011115613465576134646132d5565b5b613470848285613386565b509392505050565b600082601f83011261348d5761348c612f00565b5b813561349d848260208601613436565b91505092915050565b600080600080600060a086880312156134c2576134c1612cd2565b5b600086013567ffffffffffffffff8111156134e0576134df612cd7565b5b6134ec888289016133d7565b955050602086013567ffffffffffffffff81111561350d5761350c612cd7565b5b613519888289016133d7565b945050604061352a88828901613049565b935050606086013567ffffffffffffffff81111561354b5761354a612cd7565b5b61355788828901613478565b925050608061356888828901612cfd565b9150509295509295909350565b600081519050919050565b600082825260208201905092915050565b6000819050602082019050919050565b6135aa81612d6e565b82525050565b60006135bc83836135a1565b60208301905092915050565b6000602082019050919050565b60006135e082613575565b6135ea8185613580565b93506135f583613591565b8060005b8381101561362657815161360d88826135b0565b9750613618836135c8565b9250506001810190506135f9565b5085935050505092915050565b6000602082019050818103600083015261364d81846135d5565b905092915050565b600060a08201905061366a6000830188612d80565b818103602083015261367c81876130a7565b9050818103604083015261369081866130a7565b905061369f60608301856130e0565b6136ac6080830184612e2b565b9695505050505050565b60006020820190506136cb6000830184612e2b565b92915050565b600081519050919050565b600082825260208201905092915050565b6000819050602082019050919050565b61370681613028565b82525050565b600061371883836136fd565b60208301905092915050565b6000602082019050919050565b600061373c826136d1565b61374681856136dc565b9350613751836136ed565b8060005b83811015613782578151613769888261370c565b975061377483613724565b925050600181019050613755565b5085935050505092915050565b600060208201905081810360008301526137a98184613731565b905092915050565b600060208201905081810360008301526137cb818461314f565b905092915050565b600080600080608085870312156137ed576137ec612cd2565b5b60006137fb87828801613049565b945050602061380c87828801612eab565b935050604061381d87828801612cfd565b925050606061382e87828801612cfd565b91505092959194509250565b6000806040838503121561385157613850612cd2565b5b600061385f85828601612cfd565b925050602061387085828601612cfd565b9150509250929050565b600060208201905061388f60008301846130e0565b92915050565b7f4e487b7100000000000000000000000000000000000000000000000000000000600052602260045260246000fd5b600060028204905060018216806138dc57607f821691505b6020821081036138ef576138ee613895565b5b50919050565b7f4e487b7100000000000000000000000000000000000000000000000000000000600052603260045260246000fd5b7f4e487b7100000000000000000000000000000000000000000000000000000000600052601160045260246000fd5b600061395e82612cdc565b91507fffffffffffffffffffffffffffffffffffffffffffffffffffffffffffffffff82036139905761398f613924565b5b600182019050919050565b60006139a682612cdc565b91506139b183612cdc565b92508282039050818111156139c9576139c8613924565b5b92915050565b7f4e487b7100000000000000000000000000000000000000000000000000000000600052603160045260246000fd5b6000606082019050613a136000830186612d3f565b613a206020830185612d80565b613a2d6040830184612e2b565b949350505050565b7f536861726420646f6573206e6f74206578697374000000000000000000000000600082015250565b6000613a6b601483613096565b9150613a7682613a35565b602082019050919050565b60006020820190508181036000830152613a9a81613a5e565b9050919050565b7f53746f726167652070726f766964657220646f6573206e6f7420657869737400600082015250565b6000613ad7601f83613096565b9150613ae282613aa1565b602082019050919050565b60006020820190508181036000830152613b0681613aca565b9050919050565b6000604082019050613b226000830185612d3f565b613b2f6020830184612d80565b9392505050565b7f46696c6520646f6573206e6f7420657869737400000000000000000000000000600082015250565b6000613b6c601383613096565b9150613b7782613b36565b602082019050919050565b60006020820190508181036000830152613b9b81613b5f565b9050919050565b7f4f6e6c79207468652073746f726167652070726f76696465722063616e20646560008201527f6c65746520746865207368617264000000000000000000000000000000000000602082015250565b6000613bfe602e83613096565b9150613c0982613ba2565b604082019050919050565b60006020820190508181036000830152613c2d81613bf1565b9050919050565b7f4f6e6c79207468652066696c65206f776e65722063616e2064656c657465207460008201527f68652066696c6500000000000000000000000000000000000000000000000000602082015250565b6000613c90602783613096565b9150613c9b82613c34565b604082019050919050565b60006020820190508181036000830152613cbf81613c83565b9050919050565b7f46696c652064617461206d7573742062652070726f7669646564000000000000600082015250565b6000613cfc601a83613096565b9150613d0782613cc6565b602082019050919050565b60006020820190508181036000830152613d2b81613cef565b9050919050565b6000613d3d82612cdc565b9150613d4883612cdc565b9250828201905080821115613d6057613d5f613924565b5b92915050565b7f4e487b7100000000000000000000000000000000000000000000000000000000600052601260045260246000fd5b6000613da082612cdc565b9150613dab83612cdc565b925082613dbb57613dba613d66565b5b828204905092915050565b6000613dd182612cdc565b9150613ddc83612cdc565b9250828202613dea81612cdc565b91508282048414831517613e0157613e00613924565b5b5092915050565b60008190508160005260206000209050919050565b60006020601f8301049050919050565b600082821b905092915050565b600060088302613e6a7fffffffffffffffffffffffffffffffffffffffffffffffffffffffffffffffff82613e2d565b613e748683613e2d565b95508019841693508086168417925050509392505050565b6000819050919050565b6000613eb1613eac613ea784612cdc565b613e8c565b612cdc565b9050919050565b6000819050919050565b613ecb83613e96565b613edf613ed782613eb8565b848454613e3a565b825550505050565b600090565b613ef4613ee7565b613eff818484613ec2565b505050565b5b81811015613f2357613f18600082613eec565b600181019050613f05565b5050565b601f821115613f6857613f3981613e08565b613f4284613e1d565b81016020851015613f51578190505b613f65613f5d85613e1d565b830182613f04565b50505b505050565b600082821c905092915050565b6000613f8b60001984600802613f6d565b1980831691505092915050565b6000613fa48383613f7a565b9150826002028217905092915050565b613fbd8261308b565b67ffffffffffffffff811115613fd657613fd56132da565b5b613fe082546138c4565b613feb828285613f27565b600060209050601f83116001811461401e576000841561400c578287015190505b6140168582613f98565b86555061407e565b601f19841661402c86613e08565b60005b828110156140545784890151825560018201915060208501945060208101905061402f565b86831015614071578489015161406d601f891682613f7a565b8355505b6001600288020188555050505b505050505050565b7f496e73756666696369656e7420636f6e74726163742062616c616e6365000000600082015250565b60006140bc601d83613096565b91506140c782614086565b602082019050919050565b600060208201905081810360008301526140eb816140af565b9050919050565b600081905092915050565b50565b600061410d6000836140f2565b9150614118826140fd565b600082019050919050565b600061412e82614100565b9150819050919050565b7f526577617264207061796d656e74206661696c65640000000000000000000000600082015250565b600061416e601583613096565b915061417982614138565b602082019050919050565b6000602082019050818103600083015261419d81614161565b9050919050565b60006040820190506141b96000830185612d80565b6141c66020830184612d3f565b9392505050565b60008190508160005260206000209050919050565b601f821115614223576141f4816141cd565b6141fd84613e1d565b8101602085101561420c578190505b61422061421885613e1d565b830182613f04565b50505b505050565b61423182612d8f565b67ffffffffffffffff81111561424a576142496132da565b5b61425482546138c4565b61425f8282856141e2565b600060209050601f8311600181146142925760008415614280578287015190505b61428a8582613f98565b8655506142f2565b601f1984166142a0866141cd565b60005b828110156142c8578489015182556001820191506020850194506020810190506142a3565b868310156142e557848901516142e1601f891682613f7a565b8355505b6001600288020188555050505b50505050505056fea2646970667358221220a33033ec06bd14e819011cf2c63fd4c819f625c76d2e04558e2f3f1d99cb556a64736f6c63430008120033",
					"opcodes": "PUSH1 0x80 PUSH1 0x40 MSTORE CALLVALUE DUP1 ISZERO PUSH2 0x10 JUMPI PUSH1 0x0 DUP1 REVERT JUMPDEST POP PUSH1 0x1 PUSH1 0x9 DUP2 SWAP1 SSTORE POP PUSH8 0xDE0B6B3A7640000 PUSH1 0xA DUP2 SWAP1 SSTORE POP PUSH2 0x4330 DUP1 PUSH2 0x37 PUSH1 0x0 CODECOPY PUSH1 0x0 RETURN INVALID PUSH1 0x80 PUSH1 0x40 MSTORE CALLVALUE DUP1 ISZERO PUSH2 0x10 JUMPI PUSH1 0x0 DUP1 REVERT JUMPDEST POP PUSH1 0x4 CALLDATASIZE LT PUSH2 0x1A9 JUMPI PUSH1 0x0 CALLDATALOAD PUSH1 0xE0 SHR DUP1 PUSH4 0x931C1BBD GT PUSH2 0xF9 JUMPI DUP1 PUSH4 0xB2524175 GT PUSH2 0x97 JUMPI DUP1 PUSH4 0xCDE4BA48 GT PUSH2 0x71 JUMPI DUP1 PUSH4 0xCDE4BA48 EQ PUSH2 0x528 JUMPI DUP1 PUSH4 0xE4FB7A0F EQ PUSH2 0x544 JUMPI DUP1 PUSH4 0xE55F7964 EQ PUSH2 0x574 JUMPI DUP1 PUSH4 0xF7B2A7BE EQ PUSH2 0x5A4 JUMPI PUSH2 0x1A9 JUMP JUMPDEST DUP1 PUSH4 0xB2524175 EQ PUSH2 0x4AA JUMPI DUP1 PUSH4 0xB52D6624 EQ PUSH2 0x4C8 JUMPI DUP1 PUSH4 0xCDCAF87E EQ PUSH2 0x4F8 JUMPI PUSH2 0x1A9 JUMP JUMPDEST DUP1 PUSH4 0xAA2B7010 GT PUSH2 0xD3 JUMPI DUP1 PUSH4 0xAA2B7010 EQ PUSH2 0x3E2 JUMPI DUP1 PUSH4 0xADDDF233 EQ PUSH2 0x416 JUMPI DUP1 PUSH4 0xB0E73D7E EQ PUSH2 0x446 JUMPI DUP1 PUSH4 0xB2474059 EQ PUSH2 0x47A JUMPI PUSH2 0x1A9 JUMP JUMPDEST DUP1 PUSH4 0x931C1BBD EQ PUSH2 0x38C JUMPI DUP1 PUSH4 0xA4A91EEF EQ PUSH2 0x3A8 JUMPI DUP1 PUSH4 0xA7D2E9A3 EQ PUSH2 0x3C4 JUMPI PUSH2 0x1A9 JUMP JUMPDEST DUP1 PUSH4 0x3C097111 GT PUSH2 0x166 JUMPI DUP1 PUSH4 0x5B92B5BD GT PUSH2 0x140 JUMPI DUP1 PUSH4 0x5B92B5BD EQ PUSH2 0x304 JUMPI DUP1 PUSH4 0x6AB799F1 EQ PUSH2 0x320 JUMPI DUP1 PUSH4 0x754CCD33 EQ PUSH2 0x33C JUMPI DUP1 PUSH4 0x7FE92D2A EQ PUSH2 0x358 JUMPI PUSH2 0x1A9 JUMP JUMPDEST DUP1 PUSH4 0x3C097111 EQ PUSH2 0x282 JUMPI DUP1 PUSH4 0x3E689F9C EQ PUSH2 0x2B2 JUMPI DUP1 PUSH4 0x5B395159 EQ PUSH2 0x2D0 JUMPI PUSH2 0x1A9 JUMP JUMPDEST DUP1 PUSH4 0x15C2BA14 EQ PUSH2 0x1AE JUMPI DUP1 PUSH4 0x16FAAE90 EQ PUSH2 0x1CA JUMPI DUP1 PUSH4 0x18D340E7 EQ PUSH2 0x1FE JUMPI DUP1 PUSH4 0x192BF875 EQ PUSH2 0x21A JUMPI DUP1 PUSH4 0x2437C149 EQ PUSH2 0x236 JUMPI DUP1 PUSH4 0x2A3427F0 EQ PUSH2 0x252 JUMPI JUMPDEST PUSH1 0x0 DUP1 REVERT JUMPDEST PUSH2 0x1C8 PUSH1 0x4 DUP1 CALLDATASIZE SUB DUP2 ADD SWAP1 PUSH2 0x1C3 SWAP2 SWAP1 PUSH2 0x2D12 JUMP JUMPDEST PUSH2 0x5C2 JUMP JUMPDEST STOP JUMPDEST PUSH2 0x1E4 PUSH1 0x4 DUP1 CALLDATASIZE SUB DUP2 ADD SWAP1 PUSH2 0x1DF SWAP2 SWAP1 PUSH2 0x2D12 JUMP JUMPDEST PUSH2 0x5CC JUMP JUMPDEST PUSH1 0x40 MLOAD PUSH2 0x1F5 SWAP6 SWAP5 SWAP4 SWAP3 SWAP2 SWAP1 PUSH2 0x2E3A JUMP JUMPDEST PUSH1 0x40 MLOAD DUP1 SWAP2 SUB SWAP1 RETURN JUMPDEST PUSH2 0x218 PUSH1 0x4 DUP1 CALLDATASIZE SUB DUP2 ADD SWAP1 PUSH2 0x213 SWAP2 SWAP1 PUSH2 0x2EC0 JUMP JUMPDEST PUSH2 0x6B7 JUMP JUMPDEST STOP JUMPDEST PUSH2 0x234 PUSH1 0x4 DUP1 CALLDATASIZE SUB DUP2 ADD SWAP1 PUSH2 0x22F SWAP2 SWAP1 PUSH2 0x2F65 JUMP JUMPDEST PUSH2 0x9AD JUMP JUMPDEST STOP JUMPDEST PUSH2 0x250 PUSH1 0x4 DUP1 CALLDATASIZE SUB DUP2 ADD SWAP1 PUSH2 0x24B SWAP2 SWAP1 PUSH2 0x2FB2 JUMP JUMPDEST PUSH2 0xAAE JUMP JUMPDEST STOP JUMPDEST PUSH2 0x26C PUSH1 0x4 DUP1 CALLDATASIZE SUB DUP2 ADD SWAP1 PUSH2 0x267 SWAP2 SWAP1 PUSH2 0x2D12 JUMP JUMPDEST PUSH2 0xDB6 JUMP JUMPDEST PUSH1 0x40 MLOAD PUSH2 0x279 SWAP2 SWAP1 PUSH2 0x2FF2 JUMP JUMPDEST PUSH1 0x40 MLOAD DUP1 SWAP2 SUB SWAP1 RETURN JUMPDEST PUSH2 0x29C PUSH1 0x4 DUP1 CALLDATASIZE SUB DUP2 ADD SWAP1 PUSH2 0x297 SWAP2 SWAP1 PUSH2 0x2D12 JUMP JUMPDEST PUSH2 0xDF5 JUMP JUMPDEST PUSH1 0x40 MLOAD PUSH2 0x2A9 SWAP2 SWAP1 PUSH2 0x2FF2 JUMP JUMPDEST PUSH1 0x40 MLOAD DUP1 SWAP2 SUB SWAP1 RETURN JUMPDEST PUSH2 0x2BA PUSH2 0xE34 JUMP JUMPDEST PUSH1 0x40 MLOAD PUSH2 0x2C7 SWAP2 SWAP1 PUSH2 0x300D JUMP JUMPDEST PUSH1 0x40 MLOAD DUP1 SWAP2 SUB SWAP1 RETURN JUMPDEST PUSH2 0x2EA PUSH1 0x4 DUP1 CALLDATASIZE SUB DUP2 ADD SWAP1 PUSH2 0x2E5 SWAP2 SWAP1 PUSH2 0x305E JUMP JUMPDEST PUSH2 0xE3A JUMP JUMPDEST PUSH1 0x40 MLOAD PUSH2 0x2FB SWAP6 SWAP5 SWAP4 SWAP3 SWAP2 SWAP1 PUSH2 0x31AD JUMP JUMPDEST PUSH1 0x40 MLOAD DUP1 SWAP2 SUB SWAP1 RETURN JUMPDEST PUSH2 0x31E PUSH1 0x4 DUP1 CALLDATASIZE SUB DUP2 ADD SWAP1 PUSH2 0x319 SWAP2 SWAP1 PUSH2 0x3215 JUMP JUMPDEST PUSH2 0x100E JUMP JUMPDEST STOP JUMPDEST PUSH2 0x33A PUSH1 0x4 DUP1 CALLDATASIZE SUB DUP2 ADD SWAP1 PUSH2 0x335 SWAP2 SWAP1 PUSH2 0x305E JUMP JUMPDEST PUSH2 0x138A JUMP JUMPDEST STOP JUMPDEST PUSH2 0x356 PUSH1 0x4 DUP1 CALLDATASIZE SUB DUP2 ADD SWAP1 PUSH2 0x351 SWAP2 SWAP1 PUSH2 0x2D12 JUMP JUMPDEST PUSH2 0x185F JUMP JUMPDEST STOP JUMPDEST PUSH2 0x372 PUSH1 0x4 DUP1 CALLDATASIZE SUB DUP2 ADD SWAP1 PUSH2 0x36D SWAP2 SWAP1 PUSH2 0x3255 JUMP JUMPDEST PUSH2 0x1979 JUMP JUMPDEST PUSH1 0x40 MLOAD PUSH2 0x383 SWAP6 SWAP5 SWAP4 SWAP3 SWAP2 SWAP1 PUSH2 0x3282 JUMP JUMPDEST PUSH1 0x40 MLOAD DUP1 SWAP2 SUB SWAP1 RETURN JUMPDEST PUSH2 0x3A6 PUSH1 0x4 DUP1 CALLDATASIZE SUB DUP2 ADD SWAP1 PUSH2 0x3A1 SWAP2 SWAP1 PUSH2 0x34A6 JUMP JUMPDEST PUSH2 0x19DC JUMP JUMPDEST STOP JUMPDEST PUSH2 0x3C2 PUSH1 0x4 DUP1 CALLDATASIZE SUB DUP2 ADD SWAP1 PUSH2 0x3BD SWAP2 SWAP1 PUSH2 0x3255 JUMP JUMPDEST PUSH2 0x1D94 JUMP JUMPDEST STOP JUMPDEST PUSH2 0x3CC PUSH2 0x20F3 JUMP JUMPDEST PUSH1 0x40 MLOAD PUSH2 0x3D9 SWAP2 SWAP1 PUSH2 0x3633 JUMP JUMPDEST PUSH1 0x40 MLOAD DUP1 SWAP2 SUB SWAP1 RETURN JUMPDEST PUSH2 0x3FC PUSH1 0x4 DUP1 CALLDATASIZE SUB DUP2 ADD SWAP1 PUSH2 0x3F7 SWAP2 SWAP1 PUSH2 0x305E JUMP JUMPDEST PUSH2 0x2181 JUMP JUMPDEST PUSH1 0x40 MLOAD PUSH2 0x40D SWAP6 SWAP5 SWAP4 SWAP3 SWAP2 SWAP1 PUSH2 0x3655 JUMP JUMPDEST PUSH1 0x40 MLOAD DUP1 SWAP2 SUB SWAP1 RETURN JUMPDEST PUSH2 0x430 PUSH1 0x4 DUP1 CALLDATASIZE SUB DUP2 ADD SWAP1 PUSH2 0x42B SWAP2 SWAP1 PUSH2 0x305E JUMP JUMPDEST PUSH2 0x22F4 JUMP JUMPDEST PUSH1 0x40 MLOAD PUSH2 0x43D SWAP2 SWAP1 PUSH2 0x36B6 JUMP JUMPDEST PUSH1 0x40 MLOAD DUP1 SWAP2 SUB SWAP1 RETURN JUMPDEST PUSH2 0x460 PUSH1 0x4 DUP1 CALLDATASIZE SUB DUP2 ADD SWAP1 PUSH2 0x45B SWAP2 SWAP1 PUSH2 0x3255 JUMP JUMPDEST PUSH2 0x2314 JUMP JUMPDEST PUSH1 0x40 MLOAD PUSH2 0x471 SWAP6 SWAP5 SWAP4 SWAP3 SWAP2 SWAP1 PUSH2 0x3282 JUMP JUMPDEST PUSH1 0x40 MLOAD DUP1 SWAP2 SUB SWAP1 RETURN JUMPDEST PUSH2 0x494 PUSH1 0x4 DUP1 CALLDATASIZE SUB DUP2 ADD SWAP1 PUSH2 0x48F SWAP2 SWAP1 PUSH2 0x2EC0 JUMP JUMPDEST PUSH2 0x23B8 JUMP JUMPDEST PUSH1 0x40 MLOAD PUSH2 0x4A1 SWAP2 SWAP1 PUSH2 0x300D JUMP JUMPDEST PUSH1 0x40 MLOAD DUP1 SWAP2 SUB SWAP1 RETURN JUMPDEST PUSH2 0x4B2 PUSH2 0x23E9 JUMP JUMPDEST PUSH1 0x40 MLOAD PUSH2 0x4BF SWAP2 SWAP1 PUSH2 0x3633 JUMP JUMPDEST PUSH1 0x40 MLOAD DUP1 SWAP2 SUB SWAP1 RETURN JUMPDEST PUSH2 0x4E2 PUSH1 0x4 DUP1 CALLDATASIZE SUB DUP2 ADD SWAP1 PUSH2 0x4DD SWAP2 SWAP1 PUSH2 0x3255 JUMP JUMPDEST PUSH2 0x2477 JUMP JUMPDEST PUSH1 0x40 MLOAD PUSH2 0x4EF SWAP2 SWAP1 PUSH2 0x378F JUMP JUMPDEST PUSH1 0x40 MLOAD DUP1 SWAP2 SUB SWAP1 RETURN JUMPDEST PUSH2 0x512 PUSH1 0x4 DUP1 CALLDATASIZE SUB DUP2 ADD SWAP1 PUSH2 0x50D SWAP2 SWAP1 PUSH2 0x2D12 JUMP JUMPDEST PUSH2 0x250E JUMP JUMPDEST PUSH1 0x40 MLOAD PUSH2 0x51F SWAP2 SWAP1 PUSH2 0x37B1 JUMP JUMPDEST PUSH1 0x40 MLOAD DUP1 SWAP2 SUB SWAP1 RETURN JUMPDEST PUSH2 0x542 PUSH1 0x4 DUP1 CALLDATASIZE SUB DUP2 ADD SWAP1 PUSH2 0x53D SWAP2 SWAP1 PUSH2 0x37D3 JUMP JUMPDEST PUSH2 0x2579 JUMP JUMPDEST STOP JUMPDEST PUSH2 0x55E PUSH1 0x4 DUP1 CALLDATASIZE SUB DUP2 ADD SWAP1 PUSH2 0x559 SWAP2 SWAP1 PUSH2 0x383A JUMP JUMPDEST PUSH2 0x26F3 JUMP JUMPDEST PUSH1 0x40 MLOAD PUSH2 0x56B SWAP2 SWAP1 PUSH2 0x300D JUMP JUMPDEST PUSH1 0x40 MLOAD DUP1 SWAP2 SUB SWAP1 RETURN JUMPDEST PUSH2 0x58E PUSH1 0x4 DUP1 CALLDATASIZE SUB DUP2 ADD SWAP1 PUSH2 0x589 SWAP2 SWAP1 PUSH2 0x2EC0 JUMP JUMPDEST PUSH2 0x2724 JUMP JUMPDEST PUSH1 0x40 MLOAD PUSH2 0x59B SWAP2 SWAP1 PUSH2 0x387A JUMP JUMPDEST PUSH1 0x40 MLOAD DUP1 SWAP2 SUB SWAP1 RETURN JUMPDEST PUSH2 0x5AC PUSH2 0x2755 JUMP JUMPDEST PUSH1 0x40 MLOAD PUSH2 0x5B9 SWAP2 SWAP1 PUSH2 0x300D JUMP JUMPDEST PUSH1 0x40 MLOAD DUP1 SWAP2 SUB SWAP1 RETURN JUMPDEST DUP1 PUSH1 0xA DUP2 SWAP1 SSTORE POP POP JUMP JUMPDEST PUSH1 0x0 PUSH1 0x20 MSTORE DUP1 PUSH1 0x0 MSTORE PUSH1 0x40 PUSH1 0x0 KECCAK256 PUSH1 0x0 SWAP2 POP SWAP1 POP DUP1 PUSH1 0x0 ADD SLOAD SWAP1 DUP1 PUSH1 0x1 ADD PUSH1 0x0 SWAP1 SLOAD SWAP1 PUSH2 0x100 EXP SWAP1 DIV PUSH20 0xFFFFFFFFFFFFFFFFFFFFFFFFFFFFFFFFFFFFFFFF AND SWAP1 DUP1 PUSH1 0x2 ADD SLOAD SWAP1 DUP1 PUSH1 0x3 ADD DUP1 SLOAD PUSH2 0x621 SWAP1 PUSH2 0x38C4 JUMP JUMPDEST DUP1 PUSH1 0x1F ADD PUSH1 0x20 DUP1 SWAP2 DIV MUL PUSH1 0x20 ADD PUSH1 0x40 MLOAD SWAP1 DUP2 ADD PUSH1 0x40 MSTORE DUP1 SWAP3 SWAP2 SWAP1 DUP2 DUP2 MSTORE PUSH1 0x20 ADD DUP3 DUP1 SLOAD PUSH2 0x64D SWAP1 PUSH2 0x38C4 JUMP JUMPDEST DUP1 ISZERO PUSH2 0x69A JUMPI DUP1 PUSH1 0x1F LT PUSH2 0x66F JUMPI PUSH2 0x100 DUP1 DUP4 SLOAD DIV MUL DUP4 MSTORE SWAP2 PUSH1 0x20 ADD SWAP2 PUSH2 0x69A JUMP JUMPDEST DUP3 ADD SWAP2 SWAP1 PUSH1 0x0 MSTORE PUSH1 0x20 PUSH1 0x0 KECCAK256 SWAP1 JUMPDEST DUP2 SLOAD DUP2 MSTORE SWAP1 PUSH1 0x1 ADD SWAP1 PUSH1 0x20 ADD DUP1 DUP4 GT PUSH2 0x67D JUMPI DUP3 SWAP1 SUB PUSH1 0x1F AND DUP3 ADD SWAP2 JUMPDEST POP POP POP POP POP SWAP1 DUP1 PUSH1 0x4 ADD PUSH1 0x0 SWAP1 SLOAD SWAP1 PUSH2 0x100 EXP SWAP1 DIV PUSH1 0xFF AND SWAP1 POP DUP6 JUMP JUMPDEST PUSH1 0x0 PUSH1 0x3 PUSH1 0x0 DUP5 PUSH20 0xFFFFFFFFFFFFFFFFFFFFFFFFFFFFFFFFFFFFFFFF AND PUSH20 0xFFFFFFFFFFFFFFFFFFFFFFFFFFFFFFFFFFFFFFFF AND DUP2 MSTORE PUSH1 0x20 ADD SWAP1 DUP2 MSTORE PUSH1 0x20 ADD PUSH1 0x0 KECCAK256 SWAP1 POP DUP2 DUP2 PUSH1 0x2 ADD DUP2 SWAP1 SSTORE POP PUSH1 0x0 DUP3 GT ISZERO PUSH2 0x81A JUMPI PUSH1 0x0 DUP1 JUMPDEST PUSH1 0x7 DUP1 SLOAD SWAP1 POP DUP2 LT ISZERO PUSH2 0x7AA JUMPI DUP5 PUSH20 0xFFFFFFFFFFFFFFFFFFFFFFFFFFFFFFFFFFFFFFFF AND PUSH1 0x7 DUP3 DUP2 SLOAD DUP2 LT PUSH2 0x748 JUMPI PUSH2 0x747 PUSH2 0x38F5 JUMP JUMPDEST JUMPDEST SWAP1 PUSH1 0x0 MSTORE PUSH1 0x20 PUSH1 0x0 KECCAK256 ADD PUSH1 0x0 SWAP1 SLOAD SWAP1 PUSH2 0x100 EXP SWAP1 DIV PUSH20 0xFFFFFFFFFFFFFFFFFFFFFFFFFFFFFFFFFFFFFFFF AND PUSH20 0xFFFFFFFFFFFFFFFFFFFFFFFFFFFFFFFFFFFFFFFF AND SUB PUSH2 0x797 JUMPI PUSH1 0x1 SWAP2 POP PUSH2 0x7AA JUMP JUMPDEST DUP1 DUP1 PUSH2 0x7A2 SWAP1 PUSH2 0x3953 JUMP JUMPDEST SWAP2 POP POP PUSH2 0x710 JUMP JUMPDEST POP DUP1 PUSH2 0x814 JUMPI PUSH1 0x7 DUP5 SWAP1 DUP1 PUSH1 0x1 DUP2 SLOAD ADD DUP1 DUP3 SSTORE DUP1 SWAP2 POP POP PUSH1 0x1 SWAP1 SUB SWAP1 PUSH1 0x0 MSTORE PUSH1 0x20 PUSH1 0x0 KECCAK256 ADD PUSH1 0x0 SWAP1 SWAP2 SWAP1 SWAP2 SWAP1 SWAP2 PUSH2 0x100 EXP DUP2 SLOAD DUP2 PUSH20 0xFFFFFFFFFFFFFFFFFFFFFFFFFFFFFFFFFFFFFFFF MUL NOT AND SWAP1 DUP4 PUSH20 0xFFFFFFFFFFFFFFFFFFFFFFFFFFFFFFFFFFFFFFFF AND MUL OR SWAP1 SSTORE POP JUMPDEST POP PUSH2 0x9A8 JUMP JUMPDEST PUSH1 0x0 JUMPDEST PUSH1 0x7 DUP1 SLOAD SWAP1 POP DUP2 LT ISZERO PUSH2 0x9A6 JUMPI DUP4 PUSH20 0xFFFFFFFFFFFFFFFFFFFFFFFFFFFFFFFFFFFFFFFF AND PUSH1 0x7 DUP3 DUP2 SLOAD DUP2 LT PUSH2 0x855 JUMPI PUSH2 0x854 PUSH2 0x38F5 JUMP JUMPDEST JUMPDEST SWAP1 PUSH1 0x0 MSTORE PUSH1 0x20 PUSH1 0x0 KECCAK256 ADD PUSH1 0x0 SWAP1 SLOAD SWAP1 PUSH2 0x100 EXP SWAP1 DIV PUSH20 0xFFFFFFFFFFFFFFFFFFFFFFFFFFFFFFFFFFFFFFFF AND PUSH20 0xFFFFFFFFFFFFFFFFFFFFFFFFFFFFFFFFFFFFFFFF AND SUB PUSH2 0x993 JUMPI PUSH1 0x7 PUSH1 0x1 PUSH1 0x7 DUP1 SLOAD SWAP1 POP PUSH2 0x8AF SWAP2 SWAP1 PUSH2 0x399B JUMP JUMPDEST DUP2 SLOAD DUP2 LT PUSH2 0x8C0 JUMPI PUSH2 0x8BF PUSH2 0x38F5 JUMP JUMPDEST JUMPDEST SWAP1 PUSH1 0x0 MSTORE PUSH1 0x20 PUSH1 0x0 KECCAK256 ADD PUSH1 0x0 SWAP1 SLOAD SWAP1 PUSH2 0x100 EXP SWAP1 DIV PUSH20 0xFFFFFFFFFFFFFFFFFFFFFFFFFFFFFFFFFFFFFFFF AND PUSH1 0x7 DUP3 DUP2 SLOAD DUP2 LT PUSH2 0x8FF JUMPI PUSH2 0x8FE PUSH2 0x38F5 JUMP JUMPDEST JUMPDEST SWAP1 PUSH1 0x0 MSTORE PUSH1 0x20 PUSH1 0x0 KECCAK256 ADD PUSH1 0x0 PUSH2 0x100 EXP DUP2 SLOAD DUP2 PUSH20 0xFFFFFFFFFFFFFFFFFFFFFFFFFFFFFFFFFFFFFFFF MUL NOT AND SWAP1 DUP4 PUSH20 0xFFFFFFFFFFFFFFFFFFFFFFFFFFFFFFFFFFFFFFFF AND MUL OR SWAP1 SSTORE POP PUSH1 0x7 DUP1 SLOAD DUP1 PUSH2 0x959 JUMPI PUSH2 0x958 PUSH2 0x39CF JUMP JUMPDEST JUMPDEST PUSH1 0x1 SWAP1 SUB DUP2 DUP2 SWAP1 PUSH1 0x0 MSTORE PUSH1 0x20 PUSH1 0x0 KECCAK256 ADD PUSH1 0x0 PUSH2 0x100 EXP DUP2 SLOAD SWAP1 PUSH20 0xFFFFFFFFFFFFFFFFFFFFFFFFFFFFFFFFFFFFFFFF MUL NOT AND SWAP1 SSTORE SWAP1 SSTORE PUSH2 0x9A6 JUMP JUMPDEST DUP1 DUP1 PUSH2 0x99E SWAP1 PUSH2 0x3953 JUMP JUMPDEST SWAP2 POP POP PUSH2 0x81D JUMP JUMPDEST POP JUMPDEST POP POP POP JUMP JUMPDEST PUSH1 0x0 JUMPDEST DUP3 DUP3 SWAP1 POP DUP2 LT ISZERO PUSH2 0xAA9 JUMPI PUSH1 0x0 DUP4 DUP4 DUP4 DUP2 DUP2 LT PUSH2 0x9D0 JUMPI PUSH2 0x9CF PUSH2 0x38F5 JUMP JUMPDEST JUMPDEST SWAP1 POP PUSH1 0x20 MUL ADD CALLDATALOAD SWAP1 POP PUSH1 0x0 DUP1 PUSH1 0x0 DUP4 DUP2 MSTORE PUSH1 0x20 ADD SWAP1 DUP2 MSTORE PUSH1 0x20 ADD PUSH1 0x0 KECCAK256 SWAP1 POP PUSH1 0x0 PUSH2 0x9FE DUP3 PUSH1 0x0 ADD SLOAD PUSH2 0x275B JUMP JUMPDEST SWAP1 POP PUSH32 0xE2287538273600866181D00327199BA2737BDD326A6F08436F117F6A6C0E87A0 DUP4 DUP4 PUSH1 0x1 ADD PUSH1 0x0 SWAP1 SLOAD SWAP1 PUSH2 0x100 EXP SWAP1 DIV PUSH20 0xFFFFFFFFFFFFFFFFFFFFFFFFFFFFFFFFFFFFFFFF AND DUP4 PUSH1 0x40 MLOAD PUSH2 0xA57 SWAP4 SWAP3 SWAP2 SWAP1 PUSH2 0x39FE JUMP JUMPDEST PUSH1 0x40 MLOAD DUP1 SWAP2 SUB SWAP1 LOG1 DUP1 ISZERO PUSH2 0xA93 JUMPI PUSH2 0xA92 DUP3 PUSH1 0x1 ADD PUSH1 0x0 SWAP1 SLOAD SWAP1 PUSH2 0x100 EXP SWAP1 DIV PUSH20 0xFFFFFFFFFFFFFFFFFFFFFFFFFFFFFFFFFFFFFFFF AND PUSH2 0x278C JUMP JUMPDEST JUMPDEST POP POP POP DUP1 DUP1 PUSH2 0xAA1 SWAP1 PUSH2 0x3953 JUMP JUMPDEST SWAP2 POP POP PUSH2 0x9B0 JUMP JUMPDEST POP POP POP JUMP JUMPDEST PUSH1 0x0 DUP1 DUP4 DUP2 MSTORE PUSH1 0x20 ADD SWAP1 DUP2 MSTORE PUSH1 0x20 ADD PUSH1 0x0 KECCAK256 PUSH1 0x4 ADD PUSH1 0x0 SWAP1 SLOAD SWAP1 PUSH2 0x100 EXP SWAP1 DIV PUSH1 0xFF AND PUSH2 0xB10 JUMPI PUSH1 0x40 MLOAD PUSH32 0x8C379A000000000000000000000000000000000000000000000000000000000 DUP2 MSTORE PUSH1 0x4 ADD PUSH2 0xB07 SWAP1 PUSH2 0x3A81 JUMP JUMPDEST PUSH1 0x40 MLOAD DUP1 SWAP2 SUB SWAP1 REVERT JUMPDEST PUSH1 0x3 PUSH1 0x0 DUP3 PUSH20 0xFFFFFFFFFFFFFFFFFFFFFFFFFFFFFFFFFFFFFFFF AND PUSH20 0xFFFFFFFFFFFFFFFFFFFFFFFFFFFFFFFFFFFFFFFF AND DUP2 MSTORE PUSH1 0x20 ADD SWAP1 DUP2 MSTORE PUSH1 0x20 ADD PUSH1 0x0 KECCAK256 PUSH1 0x4 ADD PUSH1 0x0 SWAP1 SLOAD SWAP1 PUSH2 0x100 EXP SWAP1 DIV PUSH1 0xFF AND PUSH2 0xB9F JUMPI PUSH1 0x40 MLOAD PUSH32 0x8C379A000000000000000000000000000000000000000000000000000000000 DUP2 MSTORE PUSH1 0x4 ADD PUSH2 0xB96 SWAP1 PUSH2 0x3AED JUMP JUMPDEST PUSH1 0x40 MLOAD DUP1 SWAP2 SUB SWAP1 REVERT JUMPDEST PUSH1 0x0 DUP1 PUSH1 0x0 DUP5 DUP2 MSTORE PUSH1 0x20 ADD SWAP1 DUP2 MSTORE PUSH1 0x20 ADD PUSH1 0x0 KECCAK256 PUSH1 0x1 ADD PUSH1 0x0 SWAP1 SLOAD SWAP1 PUSH2 0x100 EXP SWAP1 DIV PUSH20 0xFFFFFFFFFFFFFFFFFFFFFFFFFFFFFFFFFFFFFFFF AND SWAP1 POP DUP2 PUSH20 0xFFFFFFFFFFFFFFFFFFFFFFFFFFFFFFFFFFFFFFFF AND DUP2 PUSH20 0xFFFFFFFFFFFFFFFFFFFFFFFFFFFFFFFFFFFFFFFF AND EQ PUSH2 0xDB1 JUMPI PUSH1 0x0 PUSH1 0x2 PUSH1 0x0 DUP4 PUSH20 0xFFFFFFFFFFFFFFFFFFFFFFFFFFFFFFFFFFFFFFFF AND PUSH20 0xFFFFFFFFFFFFFFFFFFFFFFFFFFFFFFFFFFFFFFFF AND DUP2 MSTORE PUSH1 0x20 ADD SWAP1 DUP2 MSTORE PUSH1 0x20 ADD PUSH1 0x0 KECCAK256 SWAP1 POP PUSH1 0x0 JUMPDEST DUP2 DUP1 SLOAD SWAP1 POP DUP2 LT ISZERO PUSH2 0xCBB JUMPI DUP5 DUP3 DUP3 DUP2 SLOAD DUP2 LT PUSH2 0xC72 JUMPI PUSH2 0xC71 PUSH2 0x38F5 JUMP JUMPDEST JUMPDEST SWAP1 PUSH1 0x0 MSTORE PUSH1 0x20 PUSH1 0x0 KECCAK256 ADD SLOAD SUB PUSH2 0xCA8 JUMPI DUP2 DUP2 DUP2 SLOAD DUP2 LT PUSH2 0xC95 JUMPI PUSH2 0xC94 PUSH2 0x38F5 JUMP JUMPDEST JUMPDEST SWAP1 PUSH1 0x0 MSTORE PUSH1 0x20 PUSH1 0x0 KECCAK256 ADD PUSH1 0x0 SWAP1 SSTORE PUSH2 0xCBB JUMP JUMPDEST DUP1 DUP1 PUSH2 0xCB3 SWAP1 PUSH2 0x3953 JUMP JUMPDEST SWAP2 POP POP PUSH2 0xC52 JUMP JUMPDEST POP DUP3 PUSH1 0x0 DUP1 DUP7 DUP2 MSTORE PUSH1 0x20 ADD SWAP1 DUP2 MSTORE PUSH1 0x20 ADD PUSH1 0x0 KECCAK256 PUSH1 0x1 ADD PUSH1 0x0 PUSH2 0x100 EXP DUP2 SLOAD DUP2 PUSH20 0xFFFFFFFFFFFFFFFFFFFFFFFFFFFFFFFFFFFFFFFF MUL NOT AND SWAP1 DUP4 PUSH20 0xFFFFFFFFFFFFFFFFFFFFFFFFFFFFFFFFFFFFFFFF AND MUL OR SWAP1 SSTORE POP PUSH1 0x2 PUSH1 0x0 DUP5 PUSH20 0xFFFFFFFFFFFFFFFFFFFFFFFFFFFFFFFFFFFFFFFF AND PUSH20 0xFFFFFFFFFFFFFFFFFFFFFFFFFFFFFFFFFFFFFFFF AND DUP2 MSTORE PUSH1 0x20 ADD SWAP1 DUP2 MSTORE PUSH1 0x20 ADD PUSH1 0x0 KECCAK256 DUP5 SWAP1 DUP1 PUSH1 0x1 DUP2 SLOAD ADD DUP1 DUP3 SSTORE DUP1 SWAP2 POP POP PUSH1 0x1 SWAP1 SUB SWAP1 PUSH1 0x0 MSTORE PUSH1 0x20 PUSH1 0x0 KECCAK256 ADD PUSH1 0x0 SWAP1 SWAP2 SWAP1 SWAP2 SWAP1 SWAP2 POP SSTORE PUSH32 0x9126CBE7384024542FDE94F05011D7713670628720B50555593F77CC21D1DC8C DUP5 DUP5 PUSH1 0x40 MLOAD PUSH2 0xDA7 SWAP3 SWAP2 SWAP1 PUSH2 0x3B0D JUMP JUMPDEST PUSH1 0x40 MLOAD DUP1 SWAP2 SUB SWAP1 LOG1 POP JUMPDEST POP POP POP JUMP JUMPDEST PUSH1 0x8 DUP2 DUP2 SLOAD DUP2 LT PUSH2 0xDC6 JUMPI PUSH1 0x0 DUP1 REVERT JUMPDEST SWAP1 PUSH1 0x0 MSTORE PUSH1 0x20 PUSH1 0x0 KECCAK256 ADD PUSH1 0x0 SWAP2 POP SLOAD SWAP1 PUSH2 0x100 EXP SWAP1 DIV PUSH20 0xFFFFFFFFFFFFFFFFFFFFFFFFFFFFFFFFFFFFFFFF AND DUP2 JUMP JUMPDEST PUSH1 0x7 DUP2 DUP2 SLOAD DUP2 LT PUSH2 0xE05 JUMPI PUSH1 0x0 DUP1 REVERT JUMPDEST SWAP1 PUSH1 0x0 MSTORE PUSH1 0x20 PUSH1 0x0 KECCAK256 ADD PUSH1 0x0 SWAP2 POP SLOAD SWAP1 PUSH2 0x100 EXP SWAP1 DIV PUSH20 0xFFFFFFFFFFFFFFFFFFFFFFFFFFFFFFFFFFFFFFFF AND DUP2 JUMP JUMPDEST PUSH1 0x9 SLOAD DUP2 JUMP JUMPDEST PUSH1 0x0 PUSH1 0x60 DUP1 PUSH1 0x0 PUSH1 0x60 PUSH1 0x0 PUSH1 0x1 PUSH1 0x0 DUP9 DUP2 MSTORE PUSH1 0x20 ADD SWAP1 DUP2 MSTORE PUSH1 0x20 ADD PUSH1 0x0 KECCAK256 SWAP1 POP DUP1 PUSH1 0x0 ADD PUSH1 0x0 SWAP1 SLOAD SWAP1 PUSH2 0x100 EXP SWAP1 DIV PUSH20 0xFFFFFFFFFFFFFFFFFFFFFFFFFFFFFFFFFFFFFFFF AND DUP2 PUSH1 0x1 ADD DUP3 PUSH1 0x2 ADD DUP4 PUSH1 0x3 ADD SLOAD DUP5 PUSH1 0x4 ADD DUP4 DUP1 SLOAD PUSH2 0xE9C SWAP1 PUSH2 0x38C4 JUMP JUMPDEST DUP1 PUSH1 0x1F ADD PUSH1 0x20 DUP1 SWAP2 DIV MUL PUSH1 0x20 ADD PUSH1 0x40 MLOAD SWAP1 DUP2 ADD PUSH1 0x40 MSTORE DUP1 SWAP3 SWAP2 SWAP1 DUP2 DUP2 MSTORE PUSH1 0x20 ADD DUP3 DUP1 SLOAD PUSH2 0xEC8 SWAP1 PUSH2 0x38C4 JUMP JUMPDEST DUP1 ISZERO PUSH2 0xF15 JUMPI DUP1 PUSH1 0x1F LT PUSH2 0xEEA JUMPI PUSH2 0x100 DUP1 DUP4 SLOAD DIV MUL DUP4 MSTORE SWAP2 PUSH1 0x20 ADD SWAP2 PUSH2 0xF15 JUMP JUMPDEST DUP3 ADD SWAP2 SWAP1 PUSH1 0x0 MSTORE PUSH1 0x20 PUSH1 0x0 KECCAK256 SWAP1 JUMPDEST DUP2 SLOAD DUP2 MSTORE SWAP1 PUSH1 0x1 ADD SWAP1 PUSH1 0x20 ADD DUP1 DUP4 GT PUSH2 0xEF8 JUMPI DUP3 SWAP1 SUB PUSH1 0x1F AND DUP3 ADD SWAP2 JUMPDEST POP POP POP POP POP SWAP4 POP DUP3 DUP1 SLOAD PUSH2 0xF28 SWAP1 PUSH2 0x38C4 JUMP JUMPDEST DUP1 PUSH1 0x1F ADD PUSH1 0x20 DUP1 SWAP2 DIV MUL PUSH1 0x20 ADD PUSH1 0x40 MLOAD SWAP1 DUP2 ADD PUSH1 0x40 MSTORE DUP1 SWAP3 SWAP2 SWAP1 DUP2 DUP2 MSTORE PUSH1 0x20 ADD DUP3 DUP1 SLOAD PUSH2 0xF54 SWAP1 PUSH2 0x38C4 JUMP JUMPDEST DUP1 ISZERO PUSH2 0xFA1 JUMPI DUP1 PUSH1 0x1F LT PUSH2 0xF76 JUMPI PUSH2 0x100 DUP1 DUP4 SLOAD DIV MUL DUP4 MSTORE SWAP2 PUSH1 0x20 ADD SWAP2 PUSH2 0xFA1 JUMP JUMPDEST DUP3 ADD SWAP2 SWAP1 PUSH1 0x0 MSTORE PUSH1 0x20 PUSH1 0x0 KECCAK256 SWAP1 JUMPDEST DUP2 SLOAD DUP2 MSTORE SWAP1 PUSH1 0x1 ADD SWAP1 PUSH1 0x20 ADD DUP1 DUP4 GT PUSH2 0xF84 JUMPI DUP3 SWAP1 SUB PUSH1 0x1F AND DUP3 ADD SWAP2 JUMPDEST POP POP POP POP POP SWAP3 POP DUP1 DUP1 SLOAD DUP1 PUSH1 0x20 MUL PUSH1 0x20 ADD PUSH1 0x40 MLOAD SWAP1 DUP2 ADD PUSH1 0x40 MSTORE DUP1 SWAP3 SWAP2 SWAP1 DUP2 DUP2 MSTORE PUSH1 0x20 ADD DUP3 DUP1 SLOAD DUP1 ISZERO PUSH2 0xFF3 JUMPI PUSH1 0x20 MUL DUP3 ADD SWAP2 SWAP1 PUSH1 0x0 MSTORE PUSH1 0x20 PUSH1 0x0 KECCAK256 SWAP1 JUMPDEST DUP2 SLOAD DUP2 MSTORE PUSH1 0x20 ADD SWAP1 PUSH1 0x1 ADD SWAP1 DUP1 DUP4 GT PUSH2 0xFDF JUMPI JUMPDEST POP POP POP POP POP SWAP1 POP SWAP6 POP SWAP6 POP SWAP6 POP SWAP6 POP SWAP6 POP POP SWAP2 SWAP4 SWAP6 SWAP1 SWAP3 SWAP5 POP JUMP JUMPDEST PUSH1 0x1 PUSH1 0x0 DUP4 DUP2 MSTORE PUSH1 0x20 ADD SWAP1 DUP2 MSTORE PUSH1 0x20 ADD PUSH1 0x0 KECCAK256 PUSH1 0x5 ADD PUSH1 0x0 SWAP1 SLOAD SWAP1 PUSH2 0x100 EXP SWAP1 DIV PUSH1 0xFF AND PUSH2 0x1071 JUMPI PUSH1 0x40 MLOAD PUSH32 0x8C379A000000000000000000000000000000000000000000000000000000000 DUP2 MSTORE PUSH1 0x4 ADD PUSH2 0x1068 SWAP1 PUSH2 0x3B82 JUMP JUMPDEST PUSH1 0x40 MLOAD DUP1 SWAP2 SUB SWAP1 REVERT JUMPDEST PUSH1 0x0 DUP1 DUP3 DUP2 MSTORE PUSH1 0x20 ADD SWAP1 DUP2 MSTORE PUSH1 0x20 ADD PUSH1 0x0 KECCAK256 PUSH1 0x4 ADD PUSH1 0x0 SWAP1 SLOAD SWAP1 PUSH2 0x100 EXP SWAP1 DIV PUSH1 0xFF AND PUSH2 0x10D3 JUMPI PUSH1 0x40 MLOAD PUSH32 0x8C379A000000000000000000000000000000000000000000000000000000000 DUP2 MSTORE PUSH1 0x4 ADD PUSH2 0x10CA SWAP1 PUSH2 0x3A81 JUMP JUMPDEST PUSH1 0x40 MLOAD DUP1 SWAP2 SUB SWAP1 REVERT JUMPDEST PUSH1 0x0 PUSH1 0x1 PUSH1 0x0 DUP5 DUP2 MSTORE PUSH1 0x20 ADD SWAP1 DUP2 MSTORE PUSH1 0x20 ADD PUSH1 0x0 KECCAK256 SWAP1 POP PUSH1 0x0 DUP1 PUSH1 0x0 DUP5 DUP2 MSTORE PUSH1 0x20 ADD SWAP1 DUP2 MSTORE PUSH1 0x20 ADD PUSH1 0x0 KECCAK256 SWAP1 POP DUP1 PUSH1 0x1 ADD PUSH1 0x0 SWAP1 SLOAD SWAP1 PUSH2 0x100 EXP SWAP1 DIV PUSH20 0xFFFFFFFFFFFFFFFFFFFFFFFFFFFFFFFFFFFFFFFF AND PUSH20 0xFFFFFFFFFFFFFFFFFFFFFFFFFFFFFFFFFFFFFFFF AND CALLER PUSH20 0xFFFFFFFFFFFFFFFFFFFFFFFFFFFFFFFFFFFFFFFF AND EQ PUSH2 0x1192 JUMPI PUSH1 0x40 MLOAD PUSH32 0x8C379A000000000000000000000000000000000000000000000000000000000 DUP2 MSTORE PUSH1 0x4 ADD PUSH2 0x1189 SWAP1 PUSH2 0x3C14 JUMP JUMPDEST PUSH1 0x40 MLOAD DUP1 SWAP2 SUB SWAP1 REVERT JUMPDEST PUSH1 0x0 PUSH1 0x2 PUSH1 0x0 DUP4 PUSH1 0x1 ADD PUSH1 0x0 SWAP1 SLOAD SWAP1 PUSH2 0x100 EXP SWAP1 DIV PUSH20 0xFFFFFFFFFFFFFFFFFFFFFFFFFFFFFFFFFFFFFFFF AND PUSH20 0xFFFFFFFFFFFFFFFFFFFFFFFFFFFFFFFFFFFFFFFF AND PUSH20 0xFFFFFFFFFFFFFFFFFFFFFFFFFFFFFFFFFFFFFFFF AND DUP2 MSTORE PUSH1 0x20 ADD SWAP1 DUP2 MSTORE PUSH1 0x20 ADD PUSH1 0x0 KECCAK256 SWAP1 POP PUSH1 0x0 JUMPDEST DUP2 DUP1 SLOAD SWAP1 POP DUP2 LT ISZERO PUSH2 0x1265 JUMPI DUP5 DUP3 DUP3 DUP2 SLOAD DUP2 LT PUSH2 0x121C JUMPI PUSH2 0x121B PUSH2 0x38F5 JUMP JUMPDEST JUMPDEST SWAP1 PUSH1 0x0 MSTORE PUSH1 0x20 PUSH1 0x0 KECCAK256 ADD SLOAD SUB PUSH2 0x1252 JUMPI DUP2 DUP2 DUP2 SLOAD DUP2 LT PUSH2 0x123F JUMPI PUSH2 0x123E PUSH2 0x38F5 JUMP JUMPDEST JUMPDEST SWAP1 PUSH1 0x0 MSTORE PUSH1 0x20 PUSH1 0x0 KECCAK256 ADD PUSH1 0x0 SWAP1 SSTORE PUSH2 0x1265 JUMP JUMPDEST DUP1 DUP1 PUSH2 0x125D SWAP1 PUSH2 0x3953 JUMP JUMPDEST SWAP2 POP POP PUSH2 0x11FC JUMP JUMPDEST POP PUSH1 0x0 DUP4 PUSH1 0x4 ADD SWAP1 POP PUSH1 0x0 JUMPDEST DUP2 DUP1 SLOAD SWAP1 POP DUP2 LT ISZERO PUSH2 0x12DA JUMPI DUP6 DUP3 DUP3 DUP2 SLOAD DUP2 LT PUSH2 0x1291 JUMPI PUSH2 0x1290 PUSH2 0x38F5 JUMP JUMPDEST JUMPDEST SWAP1 PUSH1 0x0 MSTORE PUSH1 0x20 PUSH1 0x0 KECCAK256 ADD SLOAD SUB PUSH2 0x12C7 JUMPI DUP2 DUP2 DUP2 SLOAD DUP2 LT PUSH2 0x12B4 JUMPI PUSH2 0x12B3 PUSH2 0x38F5 JUMP JUMPDEST JUMPDEST SWAP1 PUSH1 0x0 MSTORE PUSH1 0x20 PUSH1 0x0 KECCAK256 ADD PUSH1 0x0 SWAP1 SSTORE PUSH2 0x12DA JUMP JUMPDEST DUP1 DUP1 PUSH2 0x12D2 SWAP1 PUSH2 0x3953 JUMP JUMPDEST SWAP2 POP POP PUSH2 0x1271 JUMP JUMPDEST POP PUSH1 0x0 DUP1 DUP7 DUP2 MSTORE PUSH1 0x20 ADD SWAP1 DUP2 MSTORE PUSH1 0x20 ADD PUSH1 0x0 KECCAK256 PUSH1 0x0 DUP1 DUP3 ADD PUSH1 0x0 SWAP1 SSTORE PUSH1 0x1 DUP3 ADD PUSH1 0x0 PUSH2 0x100 EXP DUP2 SLOAD SWAP1 PUSH20 0xFFFFFFFFFFFFFFFFFFFFFFFFFFFFFFFFFFFFFFFF MUL NOT AND SWAP1 SSTORE PUSH1 0x2 DUP3 ADD PUSH1 0x0 SWAP1 SSTORE PUSH1 0x3 DUP3 ADD PUSH1 0x0 PUSH2 0x1335 SWAP2 SWAP1 PUSH2 0x2BBD JUMP JUMPDEST PUSH1 0x4 DUP3 ADD PUSH1 0x0 PUSH2 0x100 EXP DUP2 SLOAD SWAP1 PUSH1 0xFF MUL NOT AND SWAP1 SSTORE POP POP PUSH32 0xF6A2D10319800C3ECF3244C17904EA5F3026E430B4417EE5EC5BAA464E8F9B0C DUP6 PUSH1 0x40 MLOAD PUSH2 0x137A SWAP2 SWAP1 PUSH2 0x300D JUMP JUMPDEST PUSH1 0x40 MLOAD DUP1 SWAP2 SUB SWAP1 LOG1 POP POP POP POP POP POP JUMP JUMPDEST PUSH1 0x1 PUSH1 0x0 DUP3 DUP2 MSTORE PUSH1 0x20 ADD SWAP1 DUP2 MSTORE PUSH1 0x20 ADD PUSH1 0x0 KECCAK256 PUSH1 0x5 ADD PUSH1 0x0 SWAP1 SLOAD SWAP1 PUSH2 0x100 EXP SWAP1 DIV PUSH1 0xFF AND PUSH2 0x13ED JUMPI PUSH1 0x40 MLOAD PUSH32 0x8C379A000000000000000000000000000000000000000000000000000000000 DUP2 MSTORE PUSH1 0x4 ADD PUSH2 0x13E4 SWAP1 PUSH2 0x3B82 JUMP JUMPDEST PUSH1 0x40 MLOAD DUP1 SWAP2 SUB SWAP1 REVERT JUMPDEST PUSH1 0x0 PUSH1 0x1 PUSH1 0x0 DUP4 DUP2 MSTORE PUSH1 0x20 ADD SWAP1 DUP2 MSTORE PUSH1 0x20 ADD PUSH1 0x0 KECCAK256 SWAP1 POP DUP1 PUSH1 0x0 ADD PUSH1 0x0 SWAP1 SLOAD SWAP1 PUSH2 0x100 EXP SWAP1 DIV PUSH20 0xFFFFFFFFFFFFFFFFFFFFFFFFFFFFFFFFFFFFFFFF AND PUSH20 0xFFFFFFFFFFFFFFFFFFFFFFFFFFFFFFFFFFFFFFFF AND CALLER PUSH20 0xFFFFFFFFFFFFFFFFFFFFFFFFFFFFFFFFFFFFFFFF AND EQ PUSH2 0x1496 JUMPI PUSH1 0x40 MLOAD PUSH32 0x8C379A000000000000000000000000000000000000000000000000000000000 DUP2 MSTORE PUSH1 0x4 ADD PUSH2 0x148D SWAP1 PUSH2 0x3CA6 JUMP JUMPDEST PUSH1 0x40 MLOAD DUP1 SWAP2 SUB SWAP1 REVERT JUMPDEST PUSH1 0x0 PUSH1 0x4 PUSH1 0x0 DUP4 PUSH1 0x0 ADD PUSH1 0x0 SWAP1 SLOAD SWAP1 PUSH2 0x100 EXP SWAP1 DIV PUSH20 0xFFFFFFFFFFFFFFFFFFFFFFFFFFFFFFFFFFFFFFFF AND PUSH20 0xFFFFFFFFFFFFFFFFFFFFFFFFFFFFFFFFFFFFFFFF AND PUSH20 0xFFFFFFFFFFFFFFFFFFFFFFFFFFFFFFFFFFFFFFFF AND DUP2 MSTORE PUSH1 0x20 ADD SWAP1 DUP2 MSTORE PUSH1 0x20 ADD PUSH1 0x0 KECCAK256 SWAP1 POP PUSH1 0x0 JUMPDEST DUP2 DUP1 SLOAD SWAP1 POP DUP2 LT ISZERO PUSH2 0x1569 JUMPI DUP4 DUP3 DUP3 DUP2 SLOAD DUP2 LT PUSH2 0x1520 JUMPI PUSH2 0x151F PUSH2 0x38F5 JUMP JUMPDEST JUMPDEST SWAP1 PUSH1 0x0 MSTORE PUSH1 0x20 PUSH1 0x0 KECCAK256 ADD SLOAD SUB PUSH2 0x1556 JUMPI DUP2 DUP2 DUP2 SLOAD DUP2 LT PUSH2 0x1543 JUMPI PUSH2 0x1542 PUSH2 0x38F5 JUMP JUMPDEST JUMPDEST SWAP1 PUSH1 0x0 MSTORE PUSH1 0x20 PUSH1 0x0 KECCAK256 ADD PUSH1 0x0 SWAP1 SSTORE PUSH2 0x1569 JUMP JUMPDEST DUP1 DUP1 PUSH2 0x1561 SWAP1 PUSH2 0x3953 JUMP JUMPDEST SWAP2 POP POP PUSH2 0x1500 JUMP JUMPDEST POP PUSH1 0x1 PUSH1 0x0 DUP5 DUP2 MSTORE PUSH1 0x20 ADD SWAP1 DUP2 MSTORE PUSH1 0x20 ADD PUSH1 0x0 KECCAK256 PUSH1 0x0 DUP1 DUP3 ADD PUSH1 0x0 PUSH2 0x100 EXP DUP2 SLOAD SWAP1 PUSH20 0xFFFFFFFFFFFFFFFFFFFFFFFFFFFFFFFFFFFFFFFF MUL NOT AND SWAP1 SSTORE PUSH1 0x1 DUP3 ADD PUSH1 0x0 PUSH2 0x15B5 SWAP2 SWAP1 PUSH2 0x2BFD JUMP JUMPDEST PUSH1 0x2 DUP3 ADD PUSH1 0x0 PUSH2 0x15C5 SWAP2 SWAP1 PUSH2 0x2BFD JUMP JUMPDEST PUSH1 0x3 DUP3 ADD PUSH1 0x0 SWAP1 SSTORE PUSH1 0x4 DUP3 ADD PUSH1 0x0 PUSH2 0x15DD SWAP2 SWAP1 PUSH2 0x2C3D JUMP JUMPDEST PUSH1 0x5 DUP3 ADD PUSH1 0x0 PUSH2 0x100 EXP DUP2 SLOAD SWAP1 PUSH1 0xFF MUL NOT AND SWAP1 SSTORE POP POP PUSH1 0x0 DUP3 PUSH1 0x4 ADD SWAP1 POP PUSH1 0x0 JUMPDEST DUP2 DUP1 SLOAD SWAP1 POP DUP2 LT ISZERO PUSH2 0x1821 JUMPI PUSH1 0x0 DUP3 DUP3 DUP2 SLOAD DUP2 LT PUSH2 0x161F JUMPI PUSH2 0x161E PUSH2 0x38F5 JUMP JUMPDEST JUMPDEST SWAP1 PUSH1 0x0 MSTORE PUSH1 0x20 PUSH1 0x0 KECCAK256 ADD SLOAD SWAP1 POP PUSH1 0x0 DUP1 DUP3 DUP2 MSTORE PUSH1 0x20 ADD SWAP1 DUP2 MSTORE PUSH1 0x20 ADD PUSH1 0x0 KECCAK256 PUSH1 0x0 DUP1 DUP3 ADD PUSH1 0x0 SWAP1 SSTORE PUSH1 0x1 DUP3 ADD PUSH1 0x0 PUSH2 0x100 EXP DUP2 SLOAD SWAP1 PUSH20 0xFFFFFFFFFFFFFFFFFFFFFFFFFFFFFFFFFFFFFFFF MUL NOT AND SWAP1 SSTORE PUSH1 0x2 DUP3 ADD PUSH1 0x0 SWAP1 SSTORE PUSH1 0x3 DUP3 ADD PUSH1 0x0 PUSH2 0x1686 SWAP2 SWAP1 PUSH2 0x2BBD JUMP JUMPDEST PUSH1 0x4 DUP3 ADD PUSH1 0x0 PUSH2 0x100 EXP DUP2 SLOAD SWAP1 PUSH1 0xFF MUL NOT AND SWAP1 SSTORE POP POP PUSH1 0x0 DUP1 PUSH1 0x0 DUP4 DUP2 MSTORE PUSH1 0x20 ADD SWAP1 DUP2 MSTORE PUSH1 0x20 ADD PUSH1 0x0 KECCAK256 PUSH1 0x1 ADD PUSH1 0x0 SWAP1 SLOAD SWAP1 PUSH2 0x100 EXP SWAP1 DIV PUSH20 0xFFFFFFFFFFFFFFFFFFFFFFFFFFFFFFFFFFFFFFFF AND SWAP1 POP PUSH1 0x0 PUSH1 0x2 PUSH1 0x0 DUP4 PUSH20 0xFFFFFFFFFFFFFFFFFFFFFFFFFFFFFFFFFFFFFFFF AND PUSH20 0xFFFFFFFFFFFFFFFFFFFFFFFFFFFFFFFFFFFFFFFF AND DUP2 MSTORE PUSH1 0x20 ADD SWAP1 DUP2 MSTORE PUSH1 0x20 ADD PUSH1 0x0 KECCAK256 SWAP1 POP PUSH1 0x0 JUMPDEST DUP2 DUP1 SLOAD SWAP1 POP DUP2 LT ISZERO PUSH2 0x1785 JUMPI DUP4 DUP3 DUP3 DUP2 SLOAD DUP2 LT PUSH2 0x173C JUMPI PUSH2 0x173B PUSH2 0x38F5 JUMP JUMPDEST JUMPDEST SWAP1 PUSH1 0x0 MSTORE PUSH1 0x20 PUSH1 0x0 KECCAK256 ADD SLOAD SUB PUSH2 0x1772 JUMPI DUP2 DUP2 DUP2 SLOAD DUP2 LT PUSH2 0x175F JUMPI PUSH2 0x175E PUSH2 0x38F5 JUMP JUMPDEST JUMPDEST SWAP1 PUSH1 0x0 MSTORE PUSH1 0x20 PUSH1 0x0 KECCAK256 ADD PUSH1 0x0 SWAP1 SSTORE PUSH2 0x1785 JUMP JUMPDEST DUP1 DUP1 PUSH2 0x177D SWAP1 PUSH2 0x3953 JUMP JUMPDEST SWAP2 POP POP PUSH2 0x171C JUMP JUMPDEST POP PUSH1 0x0 PUSH1 0x5 PUSH1 0x0 DUP6 DUP2 MSTORE PUSH1 0x20 ADD SWAP1 DUP2 MSTORE PUSH1 0x20 ADD PUSH1 0x0 KECCAK256 SWAP1 POP PUSH1 0x0 JUMPDEST DUP2 DUP1 SLOAD SWAP1 POP DUP2 LT ISZERO PUSH2 0x1809 JUMPI DUP5 DUP3 DUP3 DUP2 SLOAD DUP2 LT PUSH2 0x17C0 JUMPI PUSH2 0x17BF PUSH2 0x38F5 JUMP JUMPDEST JUMPDEST SWAP1 PUSH1 0x0 MSTORE PUSH1 0x20 PUSH1 0x0 KECCAK256 ADD SLOAD SUB PUSH2 0x17F6 JUMPI DUP2 DUP2 DUP2 SLOAD DUP2 LT PUSH2 0x17E3 JUMPI PUSH2 0x17E2 PUSH2 0x38F5 JUMP JUMPDEST JUMPDEST SWAP1 PUSH1 0x0 MSTORE PUSH1 0x20 PUSH1 0x0 KECCAK256 ADD PUSH1 0x0 SWAP1 SSTORE PUSH2 0x1809 JUMP JUMPDEST DUP1 DUP1 PUSH2 0x1801 SWAP1 PUSH2 0x3953 JUMP JUMPDEST SWAP2 POP POP PUSH2 0x17A0 JUMP JUMPDEST POP POP POP POP POP DUP1 DUP1 PUSH2 0x1819 SWAP1 PUSH2 0x3953 JUMP JUMPDEST SWAP2 POP POP PUSH2 0x15FE JUMP JUMPDEST POP PUSH32 0x88EFEFB1EAEC3D3A0E08ED74BC99A3407D454B5DA66112FED68B20D54837CCAE DUP5 PUSH1 0x40 MLOAD PUSH2 0x1851 SWAP2 SWAP1 PUSH2 0x387A JUMP JUMPDEST PUSH1 0x40 MLOAD DUP1 SWAP2 SUB SWAP1 LOG1 POP POP POP POP JUMP JUMPDEST PUSH1 0x0 DUP1 PUSH1 0x0 DUP4 DUP2 MSTORE PUSH1 0x20 ADD SWAP1 DUP2 MSTORE PUSH1 0x20 ADD PUSH1 0x0 KECCAK256 SWAP1 POP DUP1 PUSH1 0x4 ADD PUSH1 0x0 SWAP1 SLOAD SWAP1 PUSH2 0x100 EXP SWAP1 DIV PUSH1 0xFF AND PUSH2 0x18C6 JUMPI PUSH1 0x40 MLOAD PUSH32 0x8C379A000000000000000000000000000000000000000000000000000000000 DUP2 MSTORE PUSH1 0x4 ADD PUSH2 0x18BD SWAP1 PUSH2 0x3A81 JUMP JUMPDEST PUSH1 0x40 MLOAD DUP1 SWAP2 SUB SWAP1 REVERT JUMPDEST PUSH1 0x0 PUSH2 0x18D1 DUP4 PUSH2 0x275B JUMP JUMPDEST SWAP1 POP PUSH32 0xE2287538273600866181D00327199BA2737BDD326A6F08436F117F6A6C0E87A0 DUP4 DUP4 PUSH1 0x1 ADD PUSH1 0x0 SWAP1 SLOAD SWAP1 PUSH2 0x100 EXP SWAP1 DIV PUSH20 0xFFFFFFFFFFFFFFFFFFFFFFFFFFFFFFFFFFFFFFFF AND DUP4 PUSH1 0x40 MLOAD PUSH2 0x192A SWAP4 SWAP3 SWAP2 SWAP1 PUSH2 0x39FE JUMP JUMPDEST PUSH1 0x40 MLOAD DUP1 SWAP2 SUB SWAP1 LOG1 DUP1 ISZERO PUSH2 0x196A JUMPI PUSH2 0x1965 DUP3 PUSH1 0x1 ADD PUSH1 0x0 SWAP1 SLOAD SWAP1 PUSH2 0x100 EXP SWAP1 DIV PUSH20 0xFFFFFFFFFFFFFFFFFFFFFFFFFFFFFFFFFFFFFFFF AND PUSH2 0x278C JUMP JUMPDEST PUSH2 0x1974 JUMP JUMPDEST PUSH2 0x1973 DUP4 PUSH2 0x28BE JUMP JUMPDEST JUMPDEST POP POP POP JUMP JUMPDEST PUSH1 0x3 PUSH1 0x20 MSTORE DUP1 PUSH1 0x0 MSTORE PUSH1 0x40 PUSH1 0x0 KECCAK256 PUSH1 0x0 SWAP2 POP SWAP1 POP DUP1 PUSH1 0x0 ADD SLOAD SWAP1 DUP1 PUSH1 0x1 ADD PUSH1 0x0 SWAP1 SLOAD SWAP1 PUSH2 0x100 EXP SWAP1 DIV PUSH20 0xFFFFFFFFFFFFFFFFFFFFFFFFFFFFFFFFFFFFFFFF AND SWAP1 DUP1 PUSH1 0x2 ADD SLOAD SWAP1 DUP1 PUSH1 0x3 ADD SLOAD SWAP1 DUP1 PUSH1 0x4 ADD PUSH1 0x0 SWAP1 SLOAD SWAP1 PUSH2 0x100 EXP SWAP1 DIV PUSH1 0xFF AND SWAP1 POP DUP6 JUMP JUMPDEST PUSH1 0x0 DUP3 MLOAD GT PUSH2 0x1A20 JUMPI PUSH1 0x40 MLOAD PUSH32 0x8C379A000000000000000000000000000000000000000000000000000000000 DUP2 MSTORE PUSH1 0x4 ADD PUSH2 0x1A17 SWAP1 PUSH2 0x3D12 JUMP JUMPDEST PUSH1 0x40 MLOAD DUP1 SWAP2 SUB SWAP1 REVERT JUMPDEST PUSH1 0x0 DUP2 PUSH1 0x1 DUP4 DUP6 MLOAD PUSH2 0x1A32 SWAP2 SWAP1 PUSH2 0x3D32 JUMP JUMPDEST PUSH2 0x1A3C SWAP2 SWAP1 PUSH2 0x399B JUMP JUMPDEST PUSH2 0x1A46 SWAP2 SWAP1 PUSH2 0x3D95 JUMP JUMPDEST SWAP1 POP PUSH1 0x0 DUP2 PUSH8 0xFFFFFFFFFFFFFFFF DUP2 GT ISZERO PUSH2 0x1A64 JUMPI PUSH2 0x1A63 PUSH2 0x32DA JUMP JUMPDEST JUMPDEST PUSH1 0x40 MLOAD SWAP1 DUP1 DUP3 MSTORE DUP1 PUSH1 0x20 MUL PUSH1 0x20 ADD DUP3 ADD PUSH1 0x40 MSTORE DUP1 ISZERO PUSH2 0x1A92 JUMPI DUP2 PUSH1 0x20 ADD PUSH1 0x20 DUP3 MUL DUP1 CALLDATASIZE DUP4 CALLDATACOPY DUP1 DUP3 ADD SWAP2 POP POP SWAP1 POP JUMPDEST POP SWAP1 POP PUSH1 0x0 JUMPDEST DUP3 DUP2 LT ISZERO PUSH2 0x1BF6 JUMPI PUSH1 0x0 DUP5 DUP3 PUSH2 0x1AAE SWAP2 SWAP1 PUSH2 0x3DC6 JUMP JUMPDEST SWAP1 POP PUSH1 0x0 DUP6 DUP3 PUSH2 0x1ABE SWAP2 SWAP1 PUSH2 0x3D32 JUMP JUMPDEST SWAP1 POP DUP7 MLOAD DUP2 GT ISZERO PUSH2 0x1ACE JUMPI DUP7 MLOAD SWAP1 POP JUMPDEST PUSH1 0x0 DUP3 DUP3 PUSH2 0x1ADC SWAP2 SWAP1 PUSH2 0x399B JUMP JUMPDEST PUSH8 0xFFFFFFFFFFFFFFFF DUP2 GT ISZERO PUSH2 0x1AF5 JUMPI PUSH2 0x1AF4 PUSH2 0x32DA JUMP JUMPDEST JUMPDEST PUSH1 0x40 MLOAD SWAP1 DUP1 DUP3 MSTORE DUP1 PUSH1 0x1F ADD PUSH1 0x1F NOT AND PUSH1 0x20 ADD DUP3 ADD PUSH1 0x40 MSTORE DUP1 ISZERO PUSH2 0x1B27 JUMPI DUP2 PUSH1 0x20 ADD PUSH1 0x1 DUP3 MUL DUP1 CALLDATASIZE DUP4 CALLDATACOPY DUP1 DUP3 ADD SWAP2 POP POP SWAP1 POP JUMPDEST POP SWAP1 POP PUSH1 0x0 DUP4 SWAP1 POP JUMPDEST DUP3 DUP2 LT ISZERO PUSH2 0x1BB6 JUMPI DUP9 DUP2 DUP2 MLOAD DUP2 LT PUSH2 0x1B4B JUMPI PUSH2 0x1B4A PUSH2 0x38F5 JUMP JUMPDEST JUMPDEST PUSH1 0x20 ADD ADD MLOAD PUSH1 0xF8 SHR PUSH1 0xF8 SHL DUP3 DUP6 DUP4 PUSH2 0x1B63 SWAP2 SWAP1 PUSH2 0x399B JUMP JUMPDEST DUP2 MLOAD DUP2 LT PUSH2 0x1B74 JUMPI PUSH2 0x1B73 PUSH2 0x38F5 JUMP JUMPDEST JUMPDEST PUSH1 0x20 ADD ADD SWAP1 PUSH31 0xFFFFFFFFFFFFFFFFFFFFFFFFFFFFFFFFFFFFFFFFFFFFFFFFFFFFFFFFFFFFFF NOT AND SWAP1 DUP2 PUSH1 0x0 BYTE SWAP1 MSTORE8 POP DUP1 DUP1 PUSH2 0x1BAE SWAP1 PUSH2 0x3953 JUMP JUMPDEST SWAP2 POP POP PUSH2 0x1B30 JUMP JUMPDEST POP PUSH2 0x1BC1 DUP2 CALLER PUSH2 0x29EA JUMP JUMPDEST DUP6 DUP6 DUP2 MLOAD DUP2 LT PUSH2 0x1BD4 JUMPI PUSH2 0x1BD3 PUSH2 0x38F5 JUMP JUMPDEST JUMPDEST PUSH1 0x20 MUL PUSH1 0x20 ADD ADD DUP2 DUP2 MSTORE POP POP POP POP POP DUP1 DUP1 PUSH2 0x1BEE SWAP1 PUSH2 0x3953 JUMP JUMPDEST SWAP2 POP POP PUSH2 0x1A98 JUMP JUMPDEST POP PUSH1 0x40 MLOAD DUP1 PUSH1 0xC0 ADD PUSH1 0x40 MSTORE DUP1 CALLER PUSH20 0xFFFFFFFFFFFFFFFFFFFFFFFFFFFFFFFFFFFFFFFF AND DUP2 MSTORE PUSH1 0x20 ADD DUP9 DUP2 MSTORE PUSH1 0x20 ADD DUP8 DUP2 MSTORE PUSH1 0x20 ADD DUP7 DUP2 MSTORE PUSH1 0x20 ADD DUP3 DUP2 MSTORE PUSH1 0x20 ADD PUSH1 0x1 ISZERO ISZERO DUP2 MSTORE POP PUSH1 0x1 PUSH1 0x0 DUP8 DUP2 MSTORE PUSH1 0x20 ADD SWAP1 DUP2 MSTORE PUSH1 0x20 ADD PUSH1 0x0 KECCAK256 PUSH1 0x0 DUP3 ADD MLOAD DUP2 PUSH1 0x0 ADD PUSH1 0x0 PUSH2 0x100 EXP DUP2 SLOAD DUP2 PUSH20 0xFFFFFFFFFFFFFFFFFFFFFFFFFFFFFFFFFFFFFFFF MUL NOT AND SWAP1 DUP4 PUSH20 0xFFFFFFFFFFFFFFFFFFFFFFFFFFFFFFFFFFFFFFFF AND MUL OR SWAP1 SSTORE POP PUSH1 0x20 DUP3 ADD MLOAD DUP2 PUSH1 0x1 ADD SWAP1 DUP2 PUSH2 0x1CAC SWAP2 SWAP1 PUSH2 0x3FB4 JUMP JUMPDEST POP PUSH1 0x40 DUP3 ADD MLOAD DUP2 PUSH1 0x2 ADD SWAP1 DUP2 PUSH2 0x1CC2 SWAP2 SWAP1 PUSH2 0x3FB4 JUMP JUMPDEST POP PUSH1 0x60 DUP3 ADD MLOAD DUP2 PUSH1 0x3 ADD SSTORE PUSH1 0x80 DUP3 ADD MLOAD DUP2 PUSH1 0x4 ADD SWAP1 DUP1 MLOAD SWAP1 PUSH1 0x20 ADD SWAP1 PUSH2 0x1CE9 SWAP3 SWAP2 SWAP1 PUSH2 0x2C5E JUMP JUMPDEST POP PUSH1 0xA0 DUP3 ADD MLOAD DUP2 PUSH1 0x5 ADD PUSH1 0x0 PUSH2 0x100 EXP DUP2 SLOAD DUP2 PUSH1 0xFF MUL NOT AND SWAP1 DUP4 ISZERO ISZERO MUL OR SWAP1 SSTORE POP SWAP1 POP POP PUSH1 0x4 PUSH1 0x0 CALLER PUSH20 0xFFFFFFFFFFFFFFFFFFFFFFFFFFFFFFFFFFFFFFFF AND PUSH20 0xFFFFFFFFFFFFFFFFFFFFFFFFFFFFFFFFFFFFFFFF AND DUP2 MSTORE PUSH1 0x20 ADD SWAP1 DUP2 MSTORE PUSH1 0x20 ADD PUSH1 0x0 KECCAK256 DUP6 SWAP1 DUP1 PUSH1 0x1 DUP2 SLOAD ADD DUP1 DUP3 SSTORE DUP1 SWAP2 POP POP PUSH1 0x1 SWAP1 SUB SWAP1 PUSH1 0x0 MSTORE PUSH1 0x20 PUSH1 0x0 KECCAK256 ADD PUSH1 0x0 SWAP1 SWAP2 SWAP1 SWAP2 SWAP1 SWAP2 POP SSTORE PUSH1 0x9 PUSH1 0x0 DUP2 SLOAD DUP1 SWAP3 SWAP2 SWAP1 PUSH2 0x1D86 SWAP1 PUSH2 0x3953 JUMP JUMPDEST SWAP2 SWAP1 POP SSTORE POP POP POP POP POP POP POP POP JUMP JUMPDEST PUSH1 0x3 PUSH1 0x0 DUP3 PUSH20 0xFFFFFFFFFFFFFFFFFFFFFFFFFFFFFFFFFFFFFFFF AND PUSH20 0xFFFFFFFFFFFFFFFFFFFFFFFFFFFFFFFFFFFFFFFF AND DUP2 MSTORE PUSH1 0x20 ADD SWAP1 DUP2 MSTORE PUSH1 0x20 ADD PUSH1 0x0 KECCAK256 PUSH1 0x4 ADD PUSH1 0x0 SWAP1 SLOAD SWAP1 PUSH2 0x100 EXP SWAP1 DIV PUSH1 0xFF AND PUSH2 0x1E23 JUMPI PUSH1 0x40 MLOAD PUSH32 0x8C379A000000000000000000000000000000000000000000000000000000000 DUP2 MSTORE PUSH1 0x4 ADD PUSH2 0x1E1A SWAP1 PUSH2 0x3AED JUMP JUMPDEST PUSH1 0x40 MLOAD DUP1 SWAP2 SUB SWAP1 REVERT JUMPDEST PUSH1 0x3 PUSH1 0x0 DUP3 PUSH20 0xFFFFFFFFFFFFFFFFFFFFFFFFFFFFFFFFFFFFFFFF AND PUSH20 0xFFFFFFFFFFFFFFFFFFFFFFFFFFFFFFFFFFFFFFFF AND DUP2 MSTORE PUSH1 0x20 ADD SWAP1 DUP2 MSTORE PUSH1 0x20 ADD PUSH1 0x0 KECCAK256 PUSH1 0x0 DUP1 DUP3 ADD PUSH1 0x0 SWAP1 SSTORE PUSH1 0x1 DUP3 ADD PUSH1 0x0 PUSH2 0x100 EXP DUP2 SLOAD SWAP1 PUSH20 0xFFFFFFFFFFFFFFFFFFFFFFFFFFFFFFFFFFFFFFFF MUL NOT AND SWAP1 SSTORE PUSH1 0x2 DUP3 ADD PUSH1 0x0 SWAP1 SSTORE PUSH1 0x3 DUP3 ADD PUSH1 0x0 SWAP1 SSTORE PUSH1 0x4 DUP3 ADD PUSH1 0x0 PUSH2 0x100 EXP DUP2 SLOAD SWAP1 PUSH1 0xFF MUL NOT AND SWAP1 SSTORE POP POP PUSH1 0x2 PUSH1 0x0 DUP3 PUSH20 0xFFFFFFFFFFFFFFFFFFFFFFFFFFFFFFFFFFFFFFFF AND PUSH20 0xFFFFFFFFFFFFFFFFFFFFFFFFFFFFFFFFFFFFFFFF AND DUP2 MSTORE PUSH1 0x20 ADD SWAP1 DUP2 MSTORE PUSH1 0x20 ADD PUSH1 0x0 KECCAK256 PUSH1 0x0 PUSH2 0x1F03 SWAP2 SWAP1 PUSH2 0x2C3D JUMP JUMPDEST PUSH1 0x0 JUMPDEST PUSH1 0x7 DUP1 SLOAD SWAP1 POP DUP2 LT ISZERO PUSH2 0x1FDD JUMPI DUP2 PUSH20 0xFFFFFFFFFFFFFFFFFFFFFFFFFFFFFFFFFFFFFFFF AND PUSH1 0x7 DUP3 DUP2 SLOAD DUP2 LT PUSH2 0x1F3E JUMPI PUSH2 0x1F3D PUSH2 0x38F5 JUMP JUMPDEST JUMPDEST SWAP1 PUSH1 0x0 MSTORE PUSH1 0x20 PUSH1 0x0 KECCAK256 ADD PUSH1 0x0 SWAP1 SLOAD SWAP1 PUSH2 0x100 EXP SWAP1 DIV PUSH20 0xFFFFFFFFFFFFFFFFFFFFFFFFFFFFFFFFFFFFFFFF AND PUSH20 0xFFFFFFFFFFFFFFFFFFFFFFFFFFFFFFFFFFFFFFFF AND SUB PUSH2 0x1FCA JUMPI PUSH1 0x7 DUP2 DUP2 SLOAD DUP2 LT PUSH2 0x1F98 JUMPI PUSH2 0x1F97 PUSH2 0x38F5 JUMP JUMPDEST JUMPDEST SWAP1 PUSH1 0x0 MSTORE PUSH1 0x20 PUSH1 0x0 KECCAK256 ADD PUSH1 0x0 PUSH2 0x100 EXP DUP2 SLOAD SWAP1 PUSH20 0xFFFFFFFFFFFFFFFFFFFFFFFFFFFFFFFFFFFFFFFF MUL NOT AND SWAP1 SSTORE PUSH2 0x1FDD JUMP JUMPDEST DUP1 DUP1 PUSH2 0x1FD5 SWAP1 PUSH2 0x3953 JUMP JUMPDEST SWAP2 POP POP PUSH2 0x1F06 JUMP JUMPDEST POP PUSH1 0x0 JUMPDEST PUSH1 0x8 DUP1 SLOAD SWAP1 POP DUP2 LT ISZERO PUSH2 0x20B8 JUMPI DUP2 PUSH20 0xFFFFFFFFFFFFFFFFFFFFFFFFFFFFFFFFFFFFFFFF AND PUSH1 0x8 DUP3 DUP2 SLOAD DUP2 LT PUSH2 0x2019 JUMPI PUSH2 0x2018 PUSH2 0x38F5 JUMP JUMPDEST JUMPDEST SWAP1 PUSH1 0x0 MSTORE PUSH1 0x20 PUSH1 0x0 KECCAK256 ADD PUSH1 0x0 SWAP1 SLOAD SWAP1 PUSH2 0x100 EXP SWAP1 DIV PUSH20 0xFFFFFFFFFFFFFFFFFFFFFFFFFFFFFFFFFFFFFFFF AND PUSH20 0xFFFFFFFFFFFFFFFFFFFFFFFFFFFFFFFFFFFFFFFF AND SUB PUSH2 0x20A5 JUMPI PUSH1 0x8 DUP2 DUP2 SLOAD DUP2 LT PUSH2 0x2073 JUMPI PUSH2 0x2072 PUSH2 0x38F5 JUMP JUMPDEST JUMPDEST SWAP1 PUSH1 0x0 MSTORE PUSH1 0x20 PUSH1 0x0 KECCAK256 ADD PUSH1 0x0 PUSH2 0x100 EXP DUP2 SLOAD SWAP1 PUSH20 0xFFFFFFFFFFFFFFFFFFFFFFFFFFFFFFFFFFFFFFFF MUL NOT AND SWAP1 SSTORE PUSH2 0x20B8 JUMP JUMPDEST DUP1 DUP1 PUSH2 0x20B0 SWAP1 PUSH2 0x3953 JUMP JUMPDEST SWAP2 POP POP PUSH2 0x1FE1 JUMP JUMPDEST POP PUSH32 0x4EC08AC56C966A2996E49A49EF82B618954FB71B28A651FBC8ED9EBC0DFECBD3 DUP2 PUSH1 0x40 MLOAD PUSH2 0x20E8 SWAP2 SWAP1 PUSH2 0x2FF2 JUMP JUMPDEST PUSH1 0x40 MLOAD DUP1 SWAP2 SUB SWAP1 LOG1 POP JUMP JUMPDEST PUSH1 0x60 PUSH1 0x8 DUP1 SLOAD DUP1 PUSH1 0x20 MUL PUSH1 0x20 ADD PUSH1 0x40 MLOAD SWAP1 DUP2 ADD PUSH1 0x40 MSTORE DUP1 SWAP3 SWAP2 SWAP1 DUP2 DUP2 MSTORE PUSH1 0x20 ADD DUP3 DUP1 SLOAD DUP1 ISZERO PUSH2 0x2177 JUMPI PUSH1 0x20 MUL DUP3 ADD SWAP2 SWAP1 PUSH1 0x0 MSTORE PUSH1 0x20 PUSH1 0x0 KECCAK256 SWAP1 JUMPDEST DUP2 PUSH1 0x0 SWAP1 SLOAD SWAP1 PUSH2 0x100 EXP SWAP1 DIV PUSH20 0xFFFFFFFFFFFFFFFFFFFFFFFFFFFFFFFFFFFFFFFF AND PUSH20 0xFFFFFFFFFFFFFFFFFFFFFFFFFFFFFFFFFFFFFFFF AND DUP2 MSTORE PUSH1 0x20 ADD SWAP1 PUSH1 0x1 ADD SWAP1 DUP1 DUP4 GT PUSH2 0x212D JUMPI JUMPDEST POP POP POP POP POP SWAP1 POP SWAP1 JUMP JUMPDEST PUSH1 0x1 PUSH1 0x20 MSTORE DUP1 PUSH1 0x0 MSTORE PUSH1 0x40 PUSH1 0x0 KECCAK256 PUSH1 0x0 SWAP2 POP SWAP1 POP DUP1 PUSH1 0x0 ADD PUSH1 0x0 SWAP1 SLOAD SWAP1 PUSH2 0x100 EXP SWAP1 DIV PUSH20 0xFFFFFFFFFFFFFFFFFFFFFFFFFFFFFFFFFFFFFFFF AND SWAP1 DUP1 PUSH1 0x1 ADD DUP1 SLOAD PUSH2 0x21CA SWAP1 PUSH2 0x38C4 JUMP JUMPDEST DUP1 PUSH1 0x1F ADD PUSH1 0x20 DUP1 SWAP2 DIV MUL PUSH1 0x20 ADD PUSH1 0x40 MLOAD SWAP1 DUP2 ADD PUSH1 0x40 MSTORE DUP1 SWAP3 SWAP2 SWAP1 DUP2 DUP2 MSTORE PUSH1 0x20 ADD DUP3 DUP1 SLOAD PUSH2 0x21F6 SWAP1 PUSH2 0x38C4 JUMP JUMPDEST DUP1 ISZERO PUSH2 0x2243 JUMPI DUP1 PUSH1 0x1F LT PUSH2 0x2218 JUMPI PUSH2 0x100 DUP1 DUP4 SLOAD DIV MUL DUP4 MSTORE SWAP2 PUSH1 0x20 ADD SWAP2 PUSH2 0x2243 JUMP JUMPDEST DUP3 ADD SWAP2 SWAP1 PUSH1 0x0 MSTORE PUSH1 0x20 PUSH1 0x0 KECCAK256 SWAP1 JUMPDEST DUP2 SLOAD DUP2 MSTORE SWAP1 PUSH1 0x1 ADD SWAP1 PUSH1 0x20 ADD DUP1 DUP4 GT PUSH2 0x2226 JUMPI DUP3 SWAP1 SUB PUSH1 0x1F AND DUP3 ADD SWAP2 JUMPDEST POP POP POP POP POP SWAP1 DUP1 PUSH1 0x2 ADD DUP1 SLOAD PUSH2 0x2258 SWAP1 PUSH2 0x38C4 JUMP JUMPDEST DUP1 PUSH1 0x1F ADD PUSH1 0x20 DUP1 SWAP2 DIV MUL PUSH1 0x20 ADD PUSH1 0x40 MLOAD SWAP1 DUP2 ADD PUSH1 0x40 MSTORE DUP1 SWAP3 SWAP2 SWAP1 DUP2 DUP2 MSTORE PUSH1 0x20 ADD DUP3 DUP1 SLOAD PUSH2 0x2284 SWAP1 PUSH2 0x38C4 JUMP JUMPDEST DUP1 ISZERO PUSH2 0x22D1 JUMPI DUP1 PUSH1 0x1F LT PUSH2 0x22A6 JUMPI PUSH2 0x100 DUP1 DUP4 SLOAD DIV MUL DUP4 MSTORE SWAP2 PUSH1 0x20 ADD SWAP2 PUSH2 0x22D1 JUMP JUMPDEST DUP3 ADD SWAP2 SWAP1 PUSH1 0x0 MSTORE PUSH1 0x20 PUSH1 0x0 KECCAK256 SWAP1 JUMPDEST DUP2 SLOAD DUP2 MSTORE SWAP1 PUSH1 0x1 ADD SWAP1 PUSH1 0x20 ADD DUP1 DUP4 GT PUSH2 0x22B4 JUMPI DUP3 SWAP1 SUB PUSH1 0x1F AND DUP3 ADD SWAP2 JUMPDEST POP POP POP POP POP SWAP1 DUP1 PUSH1 0x3 ADD SLOAD SWAP1 DUP1 PUSH1 0x5 ADD PUSH1 0x0 SWAP1 SLOAD SWAP1 PUSH2 0x100 EXP SWAP1 DIV PUSH1 0xFF AND SWAP1 POP DUP6 JUMP JUMPDEST PUSH1 0x6 PUSH1 0x20 MSTORE DUP1 PUSH1 0x0 MSTORE PUSH1 0x40 PUSH1 0x0 KECCAK256 PUSH1 0x0 SWAP2 POP SLOAD SWAP1 PUSH2 0x100 EXP SWAP1 DIV PUSH1 0xFF AND DUP2 JUMP JUMPDEST PUSH1 0x0 DUP1 PUSH1 0x0 DUP1 PUSH1 0x0 DUP1 PUSH1 0x3 PUSH1 0x0 DUP9 PUSH20 0xFFFFFFFFFFFFFFFFFFFFFFFFFFFFFFFFFFFFFFFF AND PUSH20 0xFFFFFFFFFFFFFFFFFFFFFFFFFFFFFFFFFFFFFFFF AND DUP2 MSTORE PUSH1 0x20 ADD SWAP1 DUP2 MSTORE PUSH1 0x20 ADD PUSH1 0x0 KECCAK256 SWAP1 POP DUP1 PUSH1 0x0 ADD SLOAD DUP2 PUSH1 0x1 ADD PUSH1 0x0 SWAP1 SLOAD SWAP1 PUSH2 0x100 EXP SWAP1 DIV PUSH20 0xFFFFFFFFFFFFFFFFFFFFFFFFFFFFFFFFFFFFFFFF AND DUP3 PUSH1 0x2 ADD SLOAD DUP4 PUSH1 0x3 ADD SLOAD DUP5 PUSH1 0x4 ADD PUSH1 0x0 SWAP1 SLOAD SWAP1 PUSH2 0x100 EXP SWAP1 DIV PUSH1 0xFF AND SWAP6 POP SWAP6 POP SWAP6 POP SWAP6 POP SWAP6 POP POP SWAP2 SWAP4 SWAP6 SWAP1 SWAP3 SWAP5 POP JUMP JUMPDEST PUSH1 0x2 PUSH1 0x20 MSTORE DUP2 PUSH1 0x0 MSTORE PUSH1 0x40 PUSH1 0x0 KECCAK256 DUP2 DUP2 SLOAD DUP2 LT PUSH2 0x23D4 JUMPI PUSH1 0x0 DUP1 REVERT JUMPDEST SWAP1 PUSH1 0x0 MSTORE PUSH1 0x20 PUSH1 0x0 KECCAK256 ADD PUSH1 0x0 SWAP2 POP SWAP2 POP POP SLOAD DUP2 JUMP JUMPDEST PUSH1 0x60 PUSH1 0x7 DUP1 SLOAD DUP1 PUSH1 0x20 MUL PUSH1 0x20 ADD PUSH1 0x40 MLOAD SWAP1 DUP2 ADD PUSH1 0x40 MSTORE DUP1 SWAP3 SWAP2 SWAP1 DUP2 DUP2 MSTORE PUSH1 0x20 ADD DUP3 DUP1 SLOAD DUP1 ISZERO PUSH2 0x246D JUMPI PUSH1 0x20 MUL DUP3 ADD SWAP2 SWAP1 PUSH1 0x0 MSTORE PUSH1 0x20 PUSH1 0x0 KECCAK256 SWAP1 JUMPDEST DUP2 PUSH1 0x0 SWAP1 SLOAD SWAP1 PUSH2 0x100 EXP SWAP1 DIV PUSH20 0xFFFFFFFFFFFFFFFFFFFFFFFFFFFFFFFFFFFFFFFF AND PUSH20 0xFFFFFFFFFFFFFFFFFFFFFFFFFFFFFFFFFFFFFFFF AND DUP2 MSTORE PUSH1 0x20 ADD SWAP1 PUSH1 0x1 ADD SWAP1 DUP1 DUP4 GT PUSH2 0x2423 JUMPI JUMPDEST POP POP POP POP POP SWAP1 POP SWAP1 JUMP JUMPDEST PUSH1 0x60 PUSH1 0x4 PUSH1 0x0 DUP4 PUSH20 0xFFFFFFFFFFFFFFFFFFFFFFFFFFFFFFFFFFFFFFFF AND PUSH20 0xFFFFFFFFFFFFFFFFFFFFFFFFFFFFFFFFFFFFFFFF AND DUP2 MSTORE PUSH1 0x20 ADD SWAP1 DUP2 MSTORE PUSH1 0x20 ADD PUSH1 0x0 KECCAK256 DUP1 SLOAD DUP1 PUSH1 0x20 MUL PUSH1 0x20 ADD PUSH1 0x40 MLOAD SWAP1 DUP2 ADD PUSH1 0x40 MSTORE DUP1 SWAP3 SWAP2 SWAP1 DUP2 DUP2 MSTORE PUSH1 0x20 ADD DUP3 DUP1 SLOAD DUP1 ISZERO PUSH2 0x2502 JUMPI PUSH1 0x20 MUL DUP3 ADD SWAP2 SWAP1 PUSH1 0x0 MSTORE PUSH1 0x20 PUSH1 0x0 KECCAK256 SWAP1 JUMPDEST DUP2 SLOAD DUP2 MSTORE PUSH1 0x20 ADD SWAP1 PUSH1 0x1 ADD SWAP1 DUP1 DUP4 GT PUSH2 0x24EE JUMPI JUMPDEST POP POP POP POP POP SWAP1 POP SWAP2 SWAP1 POP JUMP JUMPDEST PUSH1 0x60 PUSH1 0x5 PUSH1 0x0 DUP4 DUP2 MSTORE PUSH1 0x20 ADD SWAP1 DUP2 MSTORE PUSH1 0x20 ADD PUSH1 0x0 KECCAK256 DUP1 SLOAD DUP1 PUSH1 0x20 MUL PUSH1 0x20 ADD PUSH1 0x40 MLOAD SWAP1 DUP2 ADD PUSH1 0x40 MSTORE DUP1 SWAP3 SWAP2 SWAP1 DUP2 DUP2 MSTORE PUSH1 0x20 ADD DUP3 DUP1 SLOAD DUP1 ISZERO PUSH2 0x256D JUMPI PUSH1 0x20 MUL DUP3 ADD SWAP2 SWAP1 PUSH1 0x0 MSTORE PUSH1 0x20 PUSH1 0x0 KECCAK256 SWAP1 JUMPDEST DUP2 SLOAD DUP2 MSTORE PUSH1 0x20 ADD SWAP1 PUSH1 0x1 ADD SWAP1 DUP1 DUP4 GT PUSH2 0x2559 JUMPI JUMPDEST POP POP POP POP POP SWAP1 POP SWAP2 SWAP1 POP JUMP JUMPDEST PUSH1 0x40 MLOAD DUP1 PUSH1 0xA0 ADD PUSH1 0x40 MSTORE DUP1 DUP6 DUP2 MSTORE PUSH1 0x20 ADD DUP5 PUSH20 0xFFFFFFFFFFFFFFFFFFFFFFFFFFFFFFFFFFFFFFFF AND DUP2 MSTORE PUSH1 0x20 ADD DUP4 DUP2 MSTORE PUSH1 0x20 ADD DUP3 DUP2 MSTORE PUSH1 0x20 ADD PUSH1 0x0 ISZERO ISZERO DUP2 MSTORE POP PUSH1 0x3 PUSH1 0x0 CALLER PUSH20 0xFFFFFFFFFFFFFFFFFFFFFFFFFFFFFFFFFFFFFFFF AND PUSH20 0xFFFFFFFFFFFFFFFFFFFFFFFFFFFFFFFFFFFFFFFF AND DUP2 MSTORE PUSH1 0x20 ADD SWAP1 DUP2 MSTORE PUSH1 0x20 ADD PUSH1 0x0 KECCAK256 PUSH1 0x0 DUP3 ADD MLOAD DUP2 PUSH1 0x0 ADD SSTORE PUSH1 0x20 DUP3 ADD MLOAD DUP2 PUSH1 0x1 ADD PUSH1 0x0 PUSH2 0x100 EXP DUP2 SLOAD DUP2 PUSH20 0xFFFFFFFFFFFFFFFFFFFFFFFFFFFFFFFFFFFFFFFF MUL NOT AND SWAP1 DUP4 PUSH20 0xFFFFFFFFFFFFFFFFFFFFFFFFFFFFFFFFFFFFFFFF AND MUL OR SWAP1 SSTORE POP PUSH1 0x40 DUP3 ADD MLOAD DUP2 PUSH1 0x2 ADD SSTORE PUSH1 0x60 DUP3 ADD MLOAD DUP2 PUSH1 0x3 ADD SSTORE PUSH1 0x80 DUP3 ADD MLOAD DUP2 PUSH1 0x4 ADD PUSH1 0x0 PUSH2 0x100 EXP DUP2 SLOAD DUP2 PUSH1 0xFF MUL NOT AND SWAP1 DUP4 ISZERO ISZERO MUL OR SWAP1 SSTORE POP SWAP1 POP POP PUSH1 0x0 DUP3 GT ISZERO PUSH2 0x26ED JUMPI PUSH1 0x7 CALLER SWAP1 DUP1 PUSH1 0x1 DUP2 SLOAD ADD DUP1 DUP3 SSTORE DUP1 SWAP2 POP POP PUSH1 0x1 SWAP1 SUB SWAP1 PUSH1 0x0 MSTORE PUSH1 0x20 PUSH1 0x0 KECCAK256 ADD PUSH1 0x0 SWAP1 SWAP2 SWAP1 SWAP2 SWAP1 SWAP2 PUSH2 0x100 EXP DUP2 SLOAD DUP2 PUSH20 0xFFFFFFFFFFFFFFFFFFFFFFFFFFFFFFFFFFFFFFFF MUL NOT AND SWAP1 DUP4 PUSH20 0xFFFFFFFFFFFFFFFFFFFFFFFFFFFFFFFFFFFFFFFF AND MUL OR SWAP1 SSTORE POP JUMPDEST POP POP POP POP JUMP JUMPDEST PUSH1 0x5 PUSH1 0x20 MSTORE DUP2 PUSH1 0x0 MSTORE PUSH1 0x40 PUSH1 0x0 KECCAK256 DUP2 DUP2 SLOAD DUP2 LT PUSH2 0x270F JUMPI PUSH1 0x0 DUP1 REVERT JUMPDEST SWAP1 PUSH1 0x0 MSTORE PUSH1 0x20 PUSH1 0x0 KECCAK256 ADD PUSH1 0x0 SWAP2 POP SWAP2 POP POP SLOAD DUP2 JUMP JUMPDEST PUSH1 0x4 PUSH1 0x20 MSTORE DUP2 PUSH1 0x0 MSTORE PUSH1 0x40 PUSH1 0x0 KECCAK256 DUP2 DUP2 SLOAD DUP2 LT PUSH2 0x2740 JUMPI PUSH1 0x0 DUP1 REVERT JUMPDEST SWAP1 PUSH1 0x0 MSTORE PUSH1 0x20 PUSH1 0x0 KECCAK256 ADD PUSH1 0x0 SWAP2 POP SWAP2 POP POP SLOAD DUP2 JUMP JUMPDEST PUSH1 0xA SLOAD DUP2 JUMP JUMPDEST PUSH1 0x0 DUP1 PUSH1 0x0 DUP1 DUP5 DUP2 MSTORE PUSH1 0x20 ADD SWAP1 DUP2 MSTORE PUSH1 0x20 ADD PUSH1 0x0 KECCAK256 SWAP1 POP DUP1 PUSH1 0x4 ADD PUSH1 0x0 SWAP1 SLOAD SWAP1 PUSH2 0x100 EXP SWAP1 DIV PUSH1 0xFF AND SWAP2 POP POP SWAP2 SWAP1 POP JUMP JUMPDEST PUSH1 0xA SLOAD SELFBALANCE LT ISZERO PUSH2 0x27D1 JUMPI PUSH1 0x40 MLOAD PUSH32 0x8C379A000000000000000000000000000000000000000000000000000000000 DUP2 MSTORE PUSH1 0x4 ADD PUSH2 0x27C8 SWAP1 PUSH2 0x40D2 JUMP JUMPDEST PUSH1 0x40 MLOAD DUP1 SWAP2 SUB SWAP1 REVERT JUMPDEST PUSH1 0x0 DUP2 PUSH20 0xFFFFFFFFFFFFFFFFFFFFFFFFFFFFFFFFFFFFFFFF AND PUSH1 0xA SLOAD PUSH1 0x40 MLOAD PUSH2 0x27F9 SWAP1 PUSH2 0x4123 JUMP JUMPDEST PUSH1 0x0 PUSH1 0x40 MLOAD DUP1 DUP4 SUB DUP2 DUP6 DUP8 GAS CALL SWAP3 POP POP POP RETURNDATASIZE DUP1 PUSH1 0x0 DUP2 EQ PUSH2 0x2836 JUMPI PUSH1 0x40 MLOAD SWAP2 POP PUSH1 0x1F NOT PUSH1 0x3F RETURNDATASIZE ADD AND DUP3 ADD PUSH1 0x40 MSTORE RETURNDATASIZE DUP3 MSTORE RETURNDATASIZE PUSH1 0x0 PUSH1 0x20 DUP5 ADD RETURNDATACOPY PUSH2 0x283B JUMP JUMPDEST PUSH1 0x60 SWAP2 POP JUMPDEST POP POP SWAP1 POP DUP1 PUSH2 0x287F JUMPI PUSH1 0x40 MLOAD PUSH32 0x8C379A000000000000000000000000000000000000000000000000000000000 DUP2 MSTORE PUSH1 0x4 ADD PUSH2 0x2876 SWAP1 PUSH2 0x4184 JUMP JUMPDEST PUSH1 0x40 MLOAD DUP1 SWAP2 SUB SWAP1 REVERT JUMPDEST PUSH32 0xE2403640BA68FED3A2F88B7557551D1993F84B99BB10FF833F0CF8DB0C5E0486 DUP3 PUSH1 0xA SLOAD PUSH1 0x40 MLOAD PUSH2 0x28B2 SWAP3 SWAP2 SWAP1 PUSH2 0x41A4 JUMP JUMPDEST PUSH1 0x40 MLOAD DUP1 SWAP2 SUB SWAP1 LOG1 POP POP JUMP JUMPDEST PUSH1 0x0 DUP1 PUSH1 0x0 DUP4 DUP2 MSTORE PUSH1 0x20 ADD SWAP1 DUP2 MSTORE PUSH1 0x20 ADD PUSH1 0x0 KECCAK256 SWAP1 POP PUSH1 0x0 DUP2 PUSH1 0x1 ADD PUSH1 0x0 SWAP1 SLOAD SWAP1 PUSH2 0x100 EXP SWAP1 DIV PUSH20 0xFFFFFFFFFFFFFFFFFFFFFFFFFFFFFFFFFFFFFFFF AND SWAP1 POP PUSH1 0x0 PUSH1 0x2 PUSH1 0x0 DUP4 PUSH20 0xFFFFFFFFFFFFFFFFFFFFFFFFFFFFFFFFFFFFFFFF AND PUSH20 0xFFFFFFFFFFFFFFFFFFFFFFFFFFFFFFFFFFFFFFFF AND DUP2 MSTORE PUSH1 0x20 ADD SWAP1 DUP2 MSTORE PUSH1 0x20 ADD PUSH1 0x0 KECCAK256 SWAP1 POP PUSH1 0x0 JUMPDEST DUP2 DUP1 SLOAD SWAP1 POP DUP2 LT ISZERO PUSH2 0x29AC JUMPI DUP5 DUP3 DUP3 DUP2 SLOAD DUP2 LT PUSH2 0x2963 JUMPI PUSH2 0x2962 PUSH2 0x38F5 JUMP JUMPDEST JUMPDEST SWAP1 PUSH1 0x0 MSTORE PUSH1 0x20 PUSH1 0x0 KECCAK256 ADD SLOAD SUB PUSH2 0x2999 JUMPI DUP2 DUP2 DUP2 SLOAD DUP2 LT PUSH2 0x2986 JUMPI PUSH2 0x2985 PUSH2 0x38F5 JUMP JUMPDEST JUMPDEST SWAP1 PUSH1 0x0 MSTORE PUSH1 0x20 PUSH1 0x0 KECCAK256 ADD PUSH1 0x0 SWAP1 SSTORE PUSH2 0x29AC JUMP JUMPDEST DUP1 DUP1 PUSH2 0x29A4 SWAP1 PUSH2 0x3953 JUMP JUMPDEST SWAP2 POP POP PUSH2 0x2943 JUMP JUMPDEST POP PUSH32 0xF6A2D10319800C3ECF3244C17904EA5F3026E430B4417EE5EC5BAA464E8F9B0C DUP5 PUSH1 0x40 MLOAD PUSH2 0x29DC SWAP2 SWAP1 PUSH2 0x300D JUMP JUMPDEST PUSH1 0x40 MLOAD DUP1 SWAP2 SUB SWAP1 LOG1 POP POP POP POP JUMP JUMPDEST PUSH1 0x0 DUP1 PUSH1 0x9 SLOAD SWAP1 POP PUSH1 0x40 MLOAD DUP1 PUSH1 0xA0 ADD PUSH1 0x40 MSTORE DUP1 DUP3 DUP2 MSTORE PUSH1 0x20 ADD DUP5 PUSH20 0xFFFFFFFFFFFFFFFFFFFFFFFFFFFFFFFFFFFFFFFF AND DUP2 MSTORE PUSH1 0x20 ADD TIMESTAMP DUP2 MSTORE PUSH1 0x20 ADD DUP6 DUP2 MSTORE PUSH1 0x20 ADD PUSH1 0x1 ISZERO ISZERO DUP2 MSTORE POP PUSH1 0x0 DUP1 DUP4 DUP2 MSTORE PUSH1 0x20 ADD SWAP1 DUP2 MSTORE PUSH1 0x20 ADD PUSH1 0x0 KECCAK256 PUSH1 0x0 DUP3 ADD MLOAD DUP2 PUSH1 0x0 ADD SSTORE PUSH1 0x20 DUP3 ADD MLOAD DUP2 PUSH1 0x1 ADD PUSH1 0x0 PUSH2 0x100 EXP DUP2 SLOAD DUP2 PUSH20 0xFFFFFFFFFFFFFFFFFFFFFFFFFFFFFFFFFFFFFFFF MUL NOT AND SWAP1 DUP4 PUSH20 0xFFFFFFFFFFFFFFFFFFFFFFFFFFFFFFFFFFFFFFFF AND MUL OR SWAP1 SSTORE POP PUSH1 0x40 DUP3 ADD MLOAD DUP2 PUSH1 0x2 ADD SSTORE PUSH1 0x60 DUP3 ADD MLOAD DUP2 PUSH1 0x3 ADD SWAP1 DUP2 PUSH2 0x2AB4 SWAP2 SWAP1 PUSH2 0x4228 JUMP JUMPDEST POP PUSH1 0x80 DUP3 ADD MLOAD DUP2 PUSH1 0x4 ADD PUSH1 0x0 PUSH2 0x100 EXP DUP2 SLOAD DUP2 PUSH1 0xFF MUL NOT AND SWAP1 DUP4 ISZERO ISZERO MUL OR SWAP1 SSTORE POP SWAP1 POP POP PUSH1 0x2 PUSH1 0x0 DUP5 PUSH20 0xFFFFFFFFFFFFFFFFFFFFFFFFFFFFFFFFFFFFFFFF AND PUSH20 0xFFFFFFFFFFFFFFFFFFFFFFFFFFFFFFFFFFFFFFFF AND DUP2 MSTORE PUSH1 0x20 ADD SWAP1 DUP2 MSTORE PUSH1 0x20 ADD PUSH1 0x0 KECCAK256 DUP2 SWAP1 DUP1 PUSH1 0x1 DUP2 SLOAD ADD DUP1 DUP3 SSTORE DUP1 SWAP2 POP POP PUSH1 0x1 SWAP1 SUB SWAP1 PUSH1 0x0 MSTORE PUSH1 0x20 PUSH1 0x0 KECCAK256 ADD PUSH1 0x0 SWAP1 SWAP2 SWAP1 SWAP2 SWAP1 SWAP2 POP SSTORE PUSH1 0x5 PUSH1 0x0 PUSH1 0x9 SLOAD DUP2 MSTORE PUSH1 0x20 ADD SWAP1 DUP2 MSTORE PUSH1 0x20 ADD PUSH1 0x0 KECCAK256 DUP2 SWAP1 DUP1 PUSH1 0x1 DUP2 SLOAD ADD DUP1 DUP3 SSTORE DUP1 SWAP2 POP POP PUSH1 0x1 SWAP1 SUB SWAP1 PUSH1 0x0 MSTORE PUSH1 0x20 PUSH1 0x0 KECCAK256 ADD PUSH1 0x0 SWAP1 SWAP2 SWAP1 SWAP2 SWAP1 SWAP2 POP SSTORE PUSH32 0x9126CBE7384024542FDE94F05011D7713670628720B50555593F77CC21D1DC8C DUP2 DUP5 PUSH1 0x40 MLOAD PUSH2 0x2BAB SWAP3 SWAP2 SWAP1 PUSH2 0x3B0D JUMP JUMPDEST PUSH1 0x40 MLOAD DUP1 SWAP2 SUB SWAP1 LOG1 DUP1 SWAP2 POP POP SWAP3 SWAP2 POP POP JUMP JUMPDEST POP DUP1 SLOAD PUSH2 0x2BC9 SWAP1 PUSH2 0x38C4 JUMP JUMPDEST PUSH1 0x0 DUP3 SSTORE DUP1 PUSH1 0x1F LT PUSH2 0x2BDB JUMPI POP PUSH2 0x2BFA JUMP JUMPDEST PUSH1 0x1F ADD PUSH1 0x20 SWAP1 DIV SWAP1 PUSH1 0x0 MSTORE PUSH1 0x20 PUSH1 0x0 KECCAK256 SWAP1 DUP2 ADD SWAP1 PUSH2 0x2BF9 SWAP2 SWAP1 PUSH2 0x2CAB JUMP JUMPDEST JUMPDEST POP JUMP JUMPDEST POP DUP1 SLOAD PUSH2 0x2C09 SWAP1 PUSH2 0x38C4 JUMP JUMPDEST PUSH1 0x0 DUP3 SSTORE DUP1 PUSH1 0x1F LT PUSH2 0x2C1B JUMPI POP PUSH2 0x2C3A JUMP JUMPDEST PUSH1 0x1F ADD PUSH1 0x20 SWAP1 DIV SWAP1 PUSH1 0x0 MSTORE PUSH1 0x20 PUSH1 0x0 KECCAK256 SWAP1 DUP2 ADD SWAP1 PUSH2 0x2C39 SWAP2 SWAP1 PUSH2 0x2CAB JUMP JUMPDEST JUMPDEST POP JUMP JUMPDEST POP DUP1 SLOAD PUSH1 0x0 DUP3 SSTORE SWAP1 PUSH1 0x0 MSTORE PUSH1 0x20 PUSH1 0x0 KECCAK256 SWAP1 DUP2 ADD SWAP1 PUSH2 0x2C5B SWAP2 SWAP1 PUSH2 0x2CAB JUMP JUMPDEST POP JUMP JUMPDEST DUP3 DUP1 SLOAD DUP3 DUP3 SSTORE SWAP1 PUSH1 0x0 MSTORE PUSH1 0x20 PUSH1 0x0 KECCAK256 SWAP1 DUP2 ADD SWAP3 DUP3 ISZERO PUSH2 0x2C9A JUMPI SWAP2 PUSH1 0x20 MUL DUP3 ADD JUMPDEST DUP3 DUP2 GT ISZERO PUSH2 0x2C99 JUMPI DUP3 MLOAD DUP3 SSTORE SWAP2 PUSH1 0x20 ADD SWAP2 SWAP1 PUSH1 0x1 ADD SWAP1 PUSH2 0x2C7E JUMP JUMPDEST JUMPDEST POP SWAP1 POP PUSH2 0x2CA7 SWAP2 SWAP1 PUSH2 0x2CAB JUMP JUMPDEST POP SWAP1 JUMP JUMPDEST JUMPDEST DUP1 DUP3 GT ISZERO PUSH2 0x2CC4 JUMPI PUSH1 0x0 DUP2 PUSH1 0x0 SWAP1 SSTORE POP PUSH1 0x1 ADD PUSH2 0x2CAC JUMP JUMPDEST POP SWAP1 JUMP JUMPDEST PUSH1 0x0 PUSH1 0x40 MLOAD SWAP1 POP SWAP1 JUMP JUMPDEST PUSH1 0x0 DUP1 REVERT JUMPDEST PUSH1 0x0 DUP1 REVERT JUMPDEST PUSH1 0x0 DUP2 SWAP1 POP SWAP2 SWAP1 POP JUMP JUMPDEST PUSH2 0x2CEF DUP2 PUSH2 0x2CDC JUMP JUMPDEST DUP2 EQ PUSH2 0x2CFA JUMPI PUSH1 0x0 DUP1 REVERT JUMPDEST POP JUMP JUMPDEST PUSH1 0x0 DUP2 CALLDATALOAD SWAP1 POP PUSH2 0x2D0C DUP2 PUSH2 0x2CE6 JUMP JUMPDEST SWAP3 SWAP2 POP POP JUMP JUMPDEST PUSH1 0x0 PUSH1 0x20 DUP3 DUP5 SUB SLT ISZERO PUSH2 0x2D28 JUMPI PUSH2 0x2D27 PUSH2 0x2CD2 JUMP JUMPDEST JUMPDEST PUSH1 0x0 PUSH2 0x2D36 DUP5 DUP3 DUP6 ADD PUSH2 0x2CFD JUMP JUMPDEST SWAP2 POP POP SWAP3 SWAP2 POP POP JUMP JUMPDEST PUSH2 0x2D48 DUP2 PUSH2 0x2CDC JUMP JUMPDEST DUP3 MSTORE POP POP JUMP JUMPDEST PUSH1 0x0 PUSH20 0xFFFFFFFFFFFFFFFFFFFFFFFFFFFFFFFFFFFFFFFF DUP3 AND SWAP1 POP SWAP2 SWAP1 POP JUMP JUMPDEST PUSH1 0x0 PUSH2 0x2D79 DUP3 PUSH2 0x2D4E JUMP JUMPDEST SWAP1 POP SWAP2 SWAP1 POP JUMP JUMPDEST PUSH2 0x2D89 DUP2 PUSH2 0x2D6E JUMP JUMPDEST DUP3 MSTORE POP POP JUMP JUMPDEST PUSH1 0x0 DUP2 MLOAD SWAP1 POP SWAP2 SWAP1 POP JUMP JUMPDEST PUSH1 0x0 DUP3 DUP3 MSTORE PUSH1 0x20 DUP3 ADD SWAP1 POP SWAP3 SWAP2 POP POP JUMP JUMPDEST PUSH1 0x0 JUMPDEST DUP4 DUP2 LT ISZERO PUSH2 0x2DC9 JUMPI DUP1 DUP3 ADD MLOAD DUP2 DUP5 ADD MSTORE PUSH1 0x20 DUP2 ADD SWAP1 POP PUSH2 0x2DAE JUMP JUMPDEST PUSH1 0x0 DUP5 DUP5 ADD MSTORE POP POP POP POP JUMP JUMPDEST PUSH1 0x0 PUSH1 0x1F NOT PUSH1 0x1F DUP4 ADD AND SWAP1 POP SWAP2 SWAP1 POP JUMP JUMPDEST PUSH1 0x0 PUSH2 0x2DF1 DUP3 PUSH2 0x2D8F JUMP JUMPDEST PUSH2 0x2DFB DUP2 DUP6 PUSH2 0x2D9A JUMP JUMPDEST SWAP4 POP PUSH2 0x2E0B DUP2 DUP6 PUSH1 0x20 DUP7 ADD PUSH2 0x2DAB JUMP JUMPDEST PUSH2 0x2E14 DUP2 PUSH2 0x2DD5 JUMP JUMPDEST DUP5 ADD SWAP2 POP POP SWAP3 SWAP2 POP POP JUMP JUMPDEST PUSH1 0x0 DUP2 ISZERO ISZERO SWAP1 POP SWAP2 SWAP1 POP JUMP JUMPDEST PUSH2 0x2E34 DUP2 PUSH2 0x2E1F JUMP JUMPDEST DUP3 MSTORE POP POP JUMP JUMPDEST PUSH1 0x0 PUSH1 0xA0 DUP3 ADD SWAP1 POP PUSH2 0x2E4F PUSH1 0x0 DUP4 ADD DUP9 PUSH2 0x2D3F JUMP JUMPDEST PUSH2 0x2E5C PUSH1 0x20 DUP4 ADD DUP8 PUSH2 0x2D80 JUMP JUMPDEST PUSH2 0x2E69 PUSH1 0x40 DUP4 ADD DUP7 PUSH2 0x2D3F JUMP JUMPDEST DUP2 DUP2 SUB PUSH1 0x60 DUP4 ADD MSTORE PUSH2 0x2E7B DUP2 DUP6 PUSH2 0x2DE6 JUMP JUMPDEST SWAP1 POP PUSH2 0x2E8A PUSH1 0x80 DUP4 ADD DUP5 PUSH2 0x2E2B JUMP JUMPDEST SWAP7 SWAP6 POP POP POP POP POP POP JUMP JUMPDEST PUSH2 0x2E9D DUP2 PUSH2 0x2D6E JUMP JUMPDEST DUP2 EQ PUSH2 0x2EA8 JUMPI PUSH1 0x0 DUP1 REVERT JUMPDEST POP JUMP JUMPDEST PUSH1 0x0 DUP2 CALLDATALOAD SWAP1 POP PUSH2 0x2EBA DUP2 PUSH2 0x2E94 JUMP JUMPDEST SWAP3 SWAP2 POP POP JUMP JUMPDEST PUSH1 0x0 DUP1 PUSH1 0x40 DUP4 DUP6 SUB SLT ISZERO PUSH2 0x2ED7 JUMPI PUSH2 0x2ED6 PUSH2 0x2CD2 JUMP JUMPDEST JUMPDEST PUSH1 0x0 PUSH2 0x2EE5 DUP6 DUP3 DUP7 ADD PUSH2 0x2EAB JUMP JUMPDEST SWAP3 POP POP PUSH1 0x20 PUSH2 0x2EF6 DUP6 DUP3 DUP7 ADD PUSH2 0x2CFD JUMP JUMPDEST SWAP2 POP POP SWAP3 POP SWAP3 SWAP1 POP JUMP JUMPDEST PUSH1 0x0 DUP1 REVERT JUMPDEST PUSH1 0x0 DUP1 REVERT JUMPDEST PUSH1 0x0 DUP1 REVERT JUMPDEST PUSH1 0x0 DUP1 DUP4 PUSH1 0x1F DUP5 ADD SLT PUSH2 0x2F25 JUMPI PUSH2 0x2F24 PUSH2 0x2F00 JUMP JUMPDEST JUMPDEST DUP3 CALLDATALOAD SWAP1 POP PUSH8 0xFFFFFFFFFFFFFFFF DUP2 GT ISZERO PUSH2 0x2F42 JUMPI PUSH2 0x2F41 PUSH2 0x2F05 JUMP JUMPDEST JUMPDEST PUSH1 0x20 DUP4 ADD SWAP2 POP DUP4 PUSH1 0x20 DUP3 MUL DUP4 ADD GT ISZERO PUSH2 0x2F5E JUMPI PUSH2 0x2F5D PUSH2 0x2F0A JUMP JUMPDEST JUMPDEST SWAP3 POP SWAP3 SWAP1 POP JUMP JUMPDEST PUSH1 0x0 DUP1 PUSH1 0x20 DUP4 DUP6 SUB SLT ISZERO PUSH2 0x2F7C JUMPI PUSH2 0x2F7B PUSH2 0x2CD2 JUMP JUMPDEST JUMPDEST PUSH1 0x0 DUP4 ADD CALLDATALOAD PUSH8 0xFFFFFFFFFFFFFFFF DUP2 GT ISZERO PUSH2 0x2F9A JUMPI PUSH2 0x2F99 PUSH2 0x2CD7 JUMP JUMPDEST JUMPDEST PUSH2 0x2FA6 DUP6 DUP3 DUP7 ADD PUSH2 0x2F0F JUMP JUMPDEST SWAP3 POP SWAP3 POP POP SWAP3 POP SWAP3 SWAP1 POP JUMP JUMPDEST PUSH1 0x0 DUP1 PUSH1 0x40 DUP4 DUP6 SUB SLT ISZERO PUSH2 0x2FC9 JUMPI PUSH2 0x2FC8 PUSH2 0x2CD2 JUMP JUMPDEST JUMPDEST PUSH1 0x0 PUSH2 0x2FD7 DUP6 DUP3 DUP7 ADD PUSH2 0x2CFD JUMP JUMPDEST SWAP3 POP POP PUSH1 0x20 PUSH2 0x2FE8 DUP6 DUP3 DUP7 ADD PUSH2 0x2EAB JUMP JUMPDEST SWAP2 POP POP SWAP3 POP SWAP3 SWAP1 POP JUMP JUMPDEST PUSH1 0x0 PUSH1 0x20 DUP3 ADD SWAP1 POP PUSH2 0x3007 PUSH1 0x0 DUP4 ADD DUP5 PUSH2 0x2D80 JUMP JUMPDEST SWAP3 SWAP2 POP POP JUMP JUMPDEST PUSH1 0x0 PUSH1 0x20 DUP3 ADD SWAP1 POP PUSH2 0x3022 PUSH1 0x0 DUP4 ADD DUP5 PUSH2 0x2D3F JUMP JUMPDEST SWAP3 SWAP2 POP POP JUMP JUMPDEST PUSH1 0x0 DUP2 SWAP1 POP SWAP2 SWAP1 POP JUMP JUMPDEST PUSH2 0x303B DUP2 PUSH2 0x3028 JUMP JUMPDEST DUP2 EQ PUSH2 0x3046 JUMPI PUSH1 0x0 DUP1 REVERT JUMPDEST POP JUMP JUMPDEST PUSH1 0x0 DUP2 CALLDATALOAD SWAP1 POP PUSH2 0x3058 DUP2 PUSH2 0x3032 JUMP JUMPDEST SWAP3 SWAP2 POP POP JUMP JUMPDEST PUSH1 0x0 PUSH1 0x20 DUP3 DUP5 SUB SLT ISZERO PUSH2 0x3074 JUMPI PUSH2 0x3073 PUSH2 0x2CD2 JUMP JUMPDEST JUMPDEST PUSH1 0x0 PUSH2 0x3082 DUP5 DUP3 DUP6 ADD PUSH2 0x3049 JUMP JUMPDEST SWAP2 POP POP SWAP3 SWAP2 POP POP JUMP JUMPDEST PUSH1 0x0 DUP2 MLOAD SWAP1 POP SWAP2 SWAP1 POP JUMP JUMPDEST PUSH1 0x0 DUP3 DUP3 MSTORE PUSH1 0x20 DUP3 ADD SWAP1 POP SWAP3 SWAP2 POP POP JUMP JUMPDEST PUSH1 0x0 PUSH2 0x30B2 DUP3 PUSH2 0x308B JUMP JUMPDEST PUSH2 0x30BC DUP2 DUP6 PUSH2 0x3096 JUMP JUMPDEST SWAP4 POP PUSH2 0x30CC DUP2 DUP6 PUSH1 0x20 DUP7 ADD PUSH2 0x2DAB JUMP JUMPDEST PUSH2 0x30D5 DUP2 PUSH2 0x2DD5 JUMP JUMPDEST DUP5 ADD SWAP2 POP POP SWAP3 SWAP2 POP POP JUMP JUMPDEST PUSH2 0x30E9 DUP2 PUSH2 0x3028 JUMP JUMPDEST DUP3 MSTORE POP POP JUMP JUMPDEST PUSH1 0x0 DUP2 MLOAD SWAP1 POP SWAP2 SWAP1 POP JUMP JUMPDEST PUSH1 0x0 DUP3 DUP3 MSTORE PUSH1 0x20 DUP3 ADD SWAP1 POP SWAP3 SWAP2 POP POP JUMP JUMPDEST PUSH1 0x0 DUP2 SWAP1 POP PUSH1 0x20 DUP3 ADD SWAP1 POP SWAP2 SWAP1 POP JUMP JUMPDEST PUSH2 0x3124 DUP2 PUSH2 0x2CDC JUMP JUMPDEST DUP3 MSTORE POP POP JUMP JUMPDEST PUSH1 0x0 PUSH2 0x3136 DUP4 DUP4 PUSH2 0x311B JUMP JUMPDEST PUSH1 0x20 DUP4 ADD SWAP1 POP SWAP3 SWAP2 POP POP JUMP JUMPDEST PUSH1 0x0 PUSH1 0x20 DUP3 ADD SWAP1 POP SWAP2 SWAP1 POP JUMP JUMPDEST PUSH1 0x0 PUSH2 0x315A DUP3 PUSH2 0x30EF JUMP JUMPDEST PUSH2 0x3164 DUP2 DUP6 PUSH2 0x30FA JUMP JUMPDEST SWAP4 POP PUSH2 0x316F DUP4 PUSH2 0x310B JUMP JUMPDEST DUP1 PUSH1 0x0 JUMPDEST DUP4 DUP2 LT ISZERO PUSH2 0x31A0 JUMPI DUP2 MLOAD PUSH2 0x3187 DUP9 DUP3 PUSH2 0x312A JUMP JUMPDEST SWAP8 POP PUSH2 0x3192 DUP4 PUSH2 0x3142 JUMP JUMPDEST SWAP3 POP POP PUSH1 0x1 DUP2 ADD SWAP1 POP PUSH2 0x3173 JUMP JUMPDEST POP DUP6 SWAP4 POP POP POP POP SWAP3 SWAP2 POP POP JUMP JUMPDEST PUSH1 0x0 PUSH1 0xA0 DUP3 ADD SWAP1 POP PUSH2 0x31C2 PUSH1 0x0 DUP4 ADD DUP9 PUSH2 0x2D80 JUMP JUMPDEST DUP2 DUP2 SUB PUSH1 0x20 DUP4 ADD MSTORE PUSH2 0x31D4 DUP2 DUP8 PUSH2 0x30A7 JUMP JUMPDEST SWAP1 POP DUP2 DUP2 SUB PUSH1 0x40 DUP4 ADD MSTORE PUSH2 0x31E8 DUP2 DUP7 PUSH2 0x30A7 JUMP JUMPDEST SWAP1 POP PUSH2 0x31F7 PUSH1 0x60 DUP4 ADD DUP6 PUSH2 0x30E0 JUMP JUMPDEST DUP2 DUP2 SUB PUSH1 0x80 DUP4 ADD MSTORE PUSH2 0x3209 DUP2 DUP5 PUSH2 0x314F JUMP JUMPDEST SWAP1 POP SWAP7 SWAP6 POP POP POP POP POP POP JUMP JUMPDEST PUSH1 0x0 DUP1 PUSH1 0x40 DUP4 DUP6 SUB SLT ISZERO PUSH2 0x322C JUMPI PUSH2 0x322B PUSH2 0x2CD2 JUMP JUMPDEST JUMPDEST PUSH1 0x0 PUSH2 0x323A DUP6 DUP3 DUP7 ADD PUSH2 0x3049 JUMP JUMPDEST SWAP3 POP POP PUSH1 0x20 PUSH2 0x324B DUP6 DUP3 DUP7 ADD PUSH2 0x2CFD JUMP JUMPDEST SWAP2 POP POP SWAP3 POP SWAP3 SWAP1 POP JUMP JUMPDEST PUSH1 0x0 PUSH1 0x20 DUP3 DUP5 SUB SLT ISZERO PUSH2 0x326B JUMPI PUSH2 0x326A PUSH2 0x2CD2 JUMP JUMPDEST JUMPDEST PUSH1 0x0 PUSH2 0x3279 DUP5 DUP3 DUP6 ADD PUSH2 0x2EAB JUMP JUMPDEST SWAP2 POP POP SWAP3 SWAP2 POP POP JUMP JUMPDEST PUSH1 0x0 PUSH1 0xA0 DUP3 ADD SWAP1 POP PUSH2 0x3297 PUSH1 0x0 DUP4 ADD DUP9 PUSH2 0x30E0 JUMP JUMPDEST PUSH2 0x32A4 PUSH1 0x20 DUP4 ADD DUP8 PUSH2 0x2D80 JUMP JUMPDEST PUSH2 0x32B1 PUSH1 0x40 DUP4 ADD DUP7 PUSH2 0x2D3F JUMP JUMPDEST PUSH2 0x32BE PUSH1 0x60 DUP4 ADD DUP6 PUSH2 0x2D3F JUMP JUMPDEST PUSH2 0x32CB PUSH1 0x80 DUP4 ADD DUP5 PUSH2 0x2E2B JUMP JUMPDEST SWAP7 SWAP6 POP POP POP POP POP POP JUMP JUMPDEST PUSH1 0x0 DUP1 REVERT JUMPDEST PUSH32 0x4E487B7100000000000000000000000000000000000000000000000000000000 PUSH1 0x0 MSTORE PUSH1 0x41 PUSH1 0x4 MSTORE PUSH1 0x24 PUSH1 0x0 REVERT JUMPDEST PUSH2 0x3312 DUP3 PUSH2 0x2DD5 JUMP JUMPDEST DUP2 ADD DUP2 DUP2 LT PUSH8 0xFFFFFFFFFFFFFFFF DUP3 GT OR ISZERO PUSH2 0x3331 JUMPI PUSH2 0x3330 PUSH2 0x32DA JUMP JUMPDEST JUMPDEST DUP1 PUSH1 0x40 MSTORE POP POP POP JUMP JUMPDEST PUSH1 0x0 PUSH2 0x3344 PUSH2 0x2CC8 JUMP JUMPDEST SWAP1 POP PUSH2 0x3350 DUP3 DUP3 PUSH2 0x3309 JUMP JUMPDEST SWAP2 SWAP1 POP JUMP JUMPDEST PUSH1 0x0 PUSH8 0xFFFFFFFFFFFFFFFF DUP3 GT ISZERO PUSH2 0x3370 JUMPI PUSH2 0x336F PUSH2 0x32DA JUMP JUMPDEST JUMPDEST PUSH2 0x3379 DUP3 PUSH2 0x2DD5 JUMP JUMPDEST SWAP1 POP PUSH1 0x20 DUP2 ADD SWAP1 POP SWAP2 SWAP1 POP JUMP JUMPDEST DUP3 DUP2 DUP4 CALLDATACOPY PUSH1 0x0 DUP4 DUP4 ADD MSTORE POP POP POP JUMP JUMPDEST PUSH1 0x0 PUSH2 0x33A8 PUSH2 0x33A3 DUP5 PUSH2 0x3355 JUMP JUMPDEST PUSH2 0x333A JUMP JUMPDEST SWAP1 POP DUP3 DUP2 MSTORE PUSH1 0x20 DUP2 ADD DUP5 DUP5 DUP5 ADD GT ISZERO PUSH2 0x33C4 JUMPI PUSH2 0x33C3 PUSH2 0x32D5 JUMP JUMPDEST JUMPDEST PUSH2 0x33CF DUP5 DUP3 DUP6 PUSH2 0x3386 JUMP JUMPDEST POP SWAP4 SWAP3 POP POP POP JUMP JUMPDEST PUSH1 0x0 DUP3 PUSH1 0x1F DUP4 ADD SLT PUSH2 0x33EC JUMPI PUSH2 0x33EB PUSH2 0x2F00 JUMP JUMPDEST JUMPDEST DUP2 CALLDATALOAD PUSH2 0x33FC DUP5 DUP3 PUSH1 0x20 DUP7 ADD PUSH2 0x3395 JUMP JUMPDEST SWAP2 POP POP SWAP3 SWAP2 POP POP JUMP JUMPDEST PUSH1 0x0 PUSH8 0xFFFFFFFFFFFFFFFF DUP3 GT ISZERO PUSH2 0x3420 JUMPI PUSH2 0x341F PUSH2 0x32DA JUMP JUMPDEST JUMPDEST PUSH2 0x3429 DUP3 PUSH2 0x2DD5 JUMP JUMPDEST SWAP1 POP PUSH1 0x20 DUP2 ADD SWAP1 POP SWAP2 SWAP1 POP JUMP JUMPDEST PUSH1 0x0 PUSH2 0x3449 PUSH2 0x3444 DUP5 PUSH2 0x3405 JUMP JUMPDEST PUSH2 0x333A JUMP JUMPDEST SWAP1 POP DUP3 DUP2 MSTORE PUSH1 0x20 DUP2 ADD DUP5 DUP5 DUP5 ADD GT ISZERO PUSH2 0x3465 JUMPI PUSH2 0x3464 PUSH2 0x32D5 JUMP JUMPDEST JUMPDEST PUSH2 0x3470 DUP5 DUP3 DUP6 PUSH2 0x3386 JUMP JUMPDEST POP SWAP4 SWAP3 POP POP POP JUMP JUMPDEST PUSH1 0x0 DUP3 PUSH1 0x1F DUP4 ADD SLT PUSH2 0x348D JUMPI PUSH2 0x348C PUSH2 0x2F00 JUMP JUMPDEST JUMPDEST DUP2 CALLDATALOAD PUSH2 0x349D DUP5 DUP3 PUSH1 0x20 DUP7 ADD PUSH2 0x3436 JUMP JUMPDEST SWAP2 POP POP SWAP3 SWAP2 POP POP JUMP JUMPDEST PUSH1 0x0 DUP1 PUSH1 0x0 DUP1 PUSH1 0x0 PUSH1 0xA0 DUP7 DUP9 SUB SLT ISZERO PUSH2 0x34C2 JUMPI PUSH2 0x34C1 PUSH2 0x2CD2 JUMP JUMPDEST JUMPDEST PUSH1 0x0 DUP7 ADD CALLDATALOAD PUSH8 0xFFFFFFFFFFFFFFFF DUP2 GT ISZERO PUSH2 0x34E0 JUMPI PUSH2 0x34DF PUSH2 0x2CD7 JUMP JUMPDEST JUMPDEST PUSH2 0x34EC DUP9 DUP3 DUP10 ADD PUSH2 0x33D7 JUMP JUMPDEST SWAP6 POP POP PUSH1 0x20 DUP7 ADD CALLDATALOAD PUSH8 0xFFFFFFFFFFFFFFFF DUP2 GT ISZERO PUSH2 0x350D JUMPI PUSH2 0x350C PUSH2 0x2CD7 JUMP JUMPDEST JUMPDEST PUSH2 0x3519 DUP9 DUP3 DUP10 ADD PUSH2 0x33D7 JUMP JUMPDEST SWAP5 POP POP PUSH1 0x40 PUSH2 0x352A DUP9 DUP3 DUP10 ADD PUSH2 0x3049 JUMP JUMPDEST SWAP4 POP POP PUSH1 0x60 DUP7 ADD CALLDATALOAD PUSH8 0xFFFFFFFFFFFFFFFF DUP2 GT ISZERO PUSH2 0x354B JUMPI PUSH2 0x354A PUSH2 0x2CD7 JUMP JUMPDEST JUMPDEST PUSH2 0x3557 DUP9 DUP3 DUP10 ADD PUSH2 0x3478 JUMP JUMPDEST SWAP3 POP POP PUSH1 0x80 PUSH2 0x3568 DUP9 DUP3 DUP10 ADD PUSH2 0x2CFD JUMP JUMPDEST SWAP2 POP POP SWAP3 SWAP6 POP SWAP3 SWAP6 SWAP1 SWAP4 POP JUMP JUMPDEST PUSH1 0x0 DUP2 MLOAD SWAP1 POP SWAP2 SWAP1 POP JUMP JUMPDEST PUSH1 0x0 DUP3 DUP3 MSTORE PUSH1 0x20 DUP3 ADD SWAP1 POP SWAP3 SWAP2 POP POP JUMP JUMPDEST PUSH1 0x0 DUP2 SWAP1 POP PUSH1 0x20 DUP3 ADD SWAP1 POP SWAP2 SWAP1 POP JUMP JUMPDEST PUSH2 0x35AA DUP2 PUSH2 0x2D6E JUMP JUMPDEST DUP3 MSTORE POP POP JUMP JUMPDEST PUSH1 0x0 PUSH2 0x35BC DUP4 DUP4 PUSH2 0x35A1 JUMP JUMPDEST PUSH1 0x20 DUP4 ADD SWAP1 POP SWAP3 SWAP2 POP POP JUMP JUMPDEST PUSH1 0x0 PUSH1 0x20 DUP3 ADD SWAP1 POP SWAP2 SWAP1 POP JUMP JUMPDEST PUSH1 0x0 PUSH2 0x35E0 DUP3 PUSH2 0x3575 JUMP JUMPDEST PUSH2 0x35EA DUP2 DUP6 PUSH2 0x3580 JUMP JUMPDEST SWAP4 POP PUSH2 0x35F5 DUP4 PUSH2 0x3591 JUMP JUMPDEST DUP1 PUSH1 0x0 JUMPDEST DUP4 DUP2 LT ISZERO PUSH2 0x3626 JUMPI DUP2 MLOAD PUSH2 0x360D DUP9 DUP3 PUSH2 0x35B0 JUMP JUMPDEST SWAP8 POP PUSH2 0x3618 DUP4 PUSH2 0x35C8 JUMP JUMPDEST SWAP3 POP POP PUSH1 0x1 DUP2 ADD SWAP1 POP PUSH2 0x35F9 JUMP JUMPDEST POP DUP6 SWAP4 POP POP POP POP SWAP3 SWAP2 POP POP JUMP JUMPDEST PUSH1 0x0 PUSH1 0x20 DUP3 ADD SWAP1 POP DUP2 DUP2 SUB PUSH1 0x0 DUP4 ADD MSTORE PUSH2 0x364D DUP2 DUP5 PUSH2 0x35D5 JUMP JUMPDEST SWAP1 POP SWAP3 SWAP2 POP POP JUMP JUMPDEST PUSH1 0x0 PUSH1 0xA0 DUP3 ADD SWAP1 POP PUSH2 0x366A PUSH1 0x0 DUP4 ADD DUP9 PUSH2 0x2D80 JUMP JUMPDEST DUP2 DUP2 SUB PUSH1 0x20 DUP4 ADD MSTORE PUSH2 0x367C DUP2 DUP8 PUSH2 0x30A7 JUMP JUMPDEST SWAP1 POP DUP2 DUP2 SUB PUSH1 0x40 DUP4 ADD MSTORE PUSH2 0x3690 DUP2 DUP7 PUSH2 0x30A7 JUMP JUMPDEST SWAP1 POP PUSH2 0x369F PUSH1 0x60 DUP4 ADD DUP6 PUSH2 0x30E0 JUMP JUMPDEST PUSH2 0x36AC PUSH1 0x80 DUP4 ADD DUP5 PUSH2 0x2E2B JUMP JUMPDEST SWAP7 SWAP6 POP POP POP POP POP POP JUMP JUMPDEST PUSH1 0x0 PUSH1 0x20 DUP3 ADD SWAP1 POP PUSH2 0x36CB PUSH1 0x0 DUP4 ADD DUP5 PUSH2 0x2E2B JUMP JUMPDEST SWAP3 SWAP2 POP POP JUMP JUMPDEST PUSH1 0x0 DUP2 MLOAD SWAP1 POP SWAP2 SWAP1 POP JUMP JUMPDEST PUSH1 0x0 DUP3 DUP3 MSTORE PUSH1 0x20 DUP3 ADD SWAP1 POP SWAP3 SWAP2 POP POP JUMP JUMPDEST PUSH1 0x0 DUP2 SWAP1 POP PUSH1 0x20 DUP3 ADD SWAP1 POP SWAP2 SWAP1 POP JUMP JUMPDEST PUSH2 0x3706 DUP2 PUSH2 0x3028 JUMP JUMPDEST DUP3 MSTORE POP POP JUMP JUMPDEST PUSH1 0x0 PUSH2 0x3718 DUP4 DUP4 PUSH2 0x36FD JUMP JUMPDEST PUSH1 0x20 DUP4 ADD SWAP1 POP SWAP3 SWAP2 POP POP JUMP JUMPDEST PUSH1 0x0 PUSH1 0x20 DUP3 ADD SWAP1 POP SWAP2 SWAP1 POP JUMP JUMPDEST PUSH1 0x0 PUSH2 0x373C DUP3 PUSH2 0x36D1 JUMP JUMPDEST PUSH2 0x3746 DUP2 DUP6 PUSH2 0x36DC JUMP JUMPDEST SWAP4 POP PUSH2 0x3751 DUP4 PUSH2 0x36ED JUMP JUMPDEST DUP1 PUSH1 0x0 JUMPDEST DUP4 DUP2 LT ISZERO PUSH2 0x3782 JUMPI DUP2 MLOAD PUSH2 0x3769 DUP9 DUP3 PUSH2 0x370C JUMP JUMPDEST SWAP8 POP PUSH2 0x3774 DUP4 PUSH2 0x3724 JUMP JUMPDEST SWAP3 POP POP PUSH1 0x1 DUP2 ADD SWAP1 POP PUSH2 0x3755 JUMP JUMPDEST POP DUP6 SWAP4 POP POP POP POP SWAP3 SWAP2 POP POP JUMP JUMPDEST PUSH1 0x0 PUSH1 0x20 DUP3 ADD SWAP1 POP DUP2 DUP2 SUB PUSH1 0x0 DUP4 ADD MSTORE PUSH2 0x37A9 DUP2 DUP5 PUSH2 0x3731 JUMP JUMPDEST SWAP1 POP SWAP3 SWAP2 POP POP JUMP JUMPDEST PUSH1 0x0 PUSH1 0x20 DUP3 ADD SWAP1 POP DUP2 DUP2 SUB PUSH1 0x0 DUP4 ADD MSTORE PUSH2 0x37CB DUP2 DUP5 PUSH2 0x314F JUMP JUMPDEST SWAP1 POP SWAP3 SWAP2 POP POP JUMP JUMPDEST PUSH1 0x0 DUP1 PUSH1 0x0 DUP1 PUSH1 0x80 DUP6 DUP8 SUB SLT ISZERO PUSH2 0x37ED JUMPI PUSH2 0x37EC PUSH2 0x2CD2 JUMP JUMPDEST JUMPDEST PUSH1 0x0 PUSH2 0x37FB DUP8 DUP3 DUP9 ADD PUSH2 0x3049 JUMP JUMPDEST SWAP5 POP POP PUSH1 0x20 PUSH2 0x380C DUP8 DUP3 DUP9 ADD PUSH2 0x2EAB JUMP JUMPDEST SWAP4 POP POP PUSH1 0x40 PUSH2 0x381D DUP8 DUP3 DUP9 ADD PUSH2 0x2CFD JUMP JUMPDEST SWAP3 POP POP PUSH1 0x60 PUSH2 0x382E DUP8 DUP3 DUP9 ADD PUSH2 0x2CFD JUMP JUMPDEST SWAP2 POP POP SWAP3 SWAP6 SWAP2 SWAP5 POP SWAP3 POP JUMP JUMPDEST PUSH1 0x0 DUP1 PUSH1 0x40 DUP4 DUP6 SUB SLT ISZERO PUSH2 0x3851 JUMPI PUSH2 0x3850 PUSH2 0x2CD2 JUMP JUMPDEST JUMPDEST PUSH1 0x0 PUSH2 0x385F DUP6 DUP3 DUP7 ADD PUSH2 0x2CFD JUMP JUMPDEST SWAP3 POP POP PUSH1 0x20 PUSH2 0x3870 DUP6 DUP3 DUP7 ADD PUSH2 0x2CFD JUMP JUMPDEST SWAP2 POP POP SWAP3 POP SWAP3 SWAP1 POP JUMP JUMPDEST PUSH1 0x0 PUSH1 0x20 DUP3 ADD SWAP1 POP PUSH2 0x388F PUSH1 0x0 DUP4 ADD DUP5 PUSH2 0x30E0 JUMP JUMPDEST SWAP3 SWAP2 POP POP JUMP JUMPDEST PUSH32 0x4E487B7100000000000000000000000000000000000000000000000000000000 PUSH1 0x0 MSTORE PUSH1 0x22 PUSH1 0x4 MSTORE PUSH1 0x24 PUSH1 0x0 REVERT JUMPDEST PUSH1 0x0 PUSH1 0x2 DUP3 DIV SWAP1 POP PUSH1 0x1 DUP3 AND DUP1 PUSH2 0x38DC JUMPI PUSH1 0x7F DUP3 AND SWAP2 POP JUMPDEST PUSH1 0x20 DUP3 LT DUP2 SUB PUSH2 0x38EF JUMPI PUSH2 0x38EE PUSH2 0x3895 JUMP JUMPDEST JUMPDEST POP SWAP2 SWAP1 POP JUMP JUMPDEST PUSH32 0x4E487B7100000000000000000000000000000000000000000000000000000000 PUSH1 0x0 MSTORE PUSH1 0x32 PUSH1 0x4 MSTORE PUSH1 0x24 PUSH1 0x0 REVERT JUMPDEST PUSH32 0x4E487B7100000000000000000000000000000000000000000000000000000000 PUSH1 0x0 MSTORE PUSH1 0x11 PUSH1 0x4 MSTORE PUSH1 0x24 PUSH1 0x0 REVERT JUMPDEST PUSH1 0x0 PUSH2 0x395E DUP3 PUSH2 0x2CDC JUMP JUMPDEST SWAP2 POP PUSH32 0xFFFFFFFFFFFFFFFFFFFFFFFFFFFFFFFFFFFFFFFFFFFFFFFFFFFFFFFFFFFFFFFF DUP3 SUB PUSH2 0x3990 JUMPI PUSH2 0x398F PUSH2 0x3924 JUMP JUMPDEST JUMPDEST PUSH1 0x1 DUP3 ADD SWAP1 POP SWAP2 SWAP1 POP JUMP JUMPDEST PUSH1 0x0 PUSH2 0x39A6 DUP3 PUSH2 0x2CDC JUMP JUMPDEST SWAP2 POP PUSH2 0x39B1 DUP4 PUSH2 0x2CDC JUMP JUMPDEST SWAP3 POP DUP3 DUP3 SUB SWAP1 POP DUP2 DUP2 GT ISZERO PUSH2 0x39C9 JUMPI PUSH2 0x39C8 PUSH2 0x3924 JUMP JUMPDEST JUMPDEST SWAP3 SWAP2 POP POP JUMP JUMPDEST PUSH32 0x4E487B7100000000000000000000000000000000000000000000000000000000 PUSH1 0x0 MSTORE PUSH1 0x31 PUSH1 0x4 MSTORE PUSH1 0x24 PUSH1 0x0 REVERT JUMPDEST PUSH1 0x0 PUSH1 0x60 DUP3 ADD SWAP1 POP PUSH2 0x3A13 PUSH1 0x0 DUP4 ADD DUP7 PUSH2 0x2D3F JUMP JUMPDEST PUSH2 0x3A20 PUSH1 0x20 DUP4 ADD DUP6 PUSH2 0x2D80 JUMP JUMPDEST PUSH2 0x3A2D PUSH1 0x40 DUP4 ADD DUP5 PUSH2 0x2E2B JUMP JUMPDEST SWAP5 SWAP4 POP POP POP POP JUMP JUMPDEST PUSH32 0x536861726420646F6573206E6F74206578697374000000000000000000000000 PUSH1 0x0 DUP3 ADD MSTORE POP JUMP JUMPDEST PUSH1 0x0 PUSH2 0x3A6B PUSH1 0x14 DUP4 PUSH2 0x3096 JUMP JUMPDEST SWAP2 POP PUSH2 0x3A76 DUP3 PUSH2 0x3A35 JUMP JUMPDEST PUSH1 0x20 DUP3 ADD SWAP1 POP SWAP2 SWAP1 POP JUMP JUMPDEST PUSH1 0x0 PUSH1 0x20 DUP3 ADD SWAP1 POP DUP2 DUP2 SUB PUSH1 0x0 DUP4 ADD MSTORE PUSH2 0x3A9A DUP2 PUSH2 0x3A5E JUMP JUMPDEST SWAP1 POP SWAP2 SWAP1 POP JUMP JUMPDEST PUSH32 0x53746F726167652070726F766964657220646F6573206E6F7420657869737400 PUSH1 0x0 DUP3 ADD MSTORE POP JUMP JUMPDEST PUSH1 0x0 PUSH2 0x3AD7 PUSH1 0x1F DUP4 PUSH2 0x3096 JUMP JUMPDEST SWAP2 POP PUSH2 0x3AE2 DUP3 PUSH2 0x3AA1 JUMP JUMPDEST PUSH1 0x20 DUP3 ADD SWAP1 POP SWAP2 SWAP1 POP JUMP JUMPDEST PUSH1 0x0 PUSH1 0x20 DUP3 ADD SWAP1 POP DUP2 DUP2 SUB PUSH1 0x0 DUP4 ADD MSTORE PUSH2 0x3B06 DUP2 PUSH2 0x3ACA JUMP JUMPDEST SWAP1 POP SWAP2 SWAP1 POP JUMP JUMPDEST PUSH1 0x0 PUSH1 0x40 DUP3 ADD SWAP1 POP PUSH2 0x3B22 PUSH1 0x0 DUP4 ADD DUP6 PUSH2 0x2D3F JUMP JUMPDEST PUSH2 0x3B2F PUSH1 0x20 DUP4 ADD DUP5 PUSH2 0x2D80 JUMP JUMPDEST SWAP4 SWAP3 POP POP POP JUMP JUMPDEST PUSH32 0x46696C6520646F6573206E6F7420657869737400000000000000000000000000 PUSH1 0x0 DUP3 ADD MSTORE POP JUMP JUMPDEST PUSH1 0x0 PUSH2 0x3B6C PUSH1 0x13 DUP4 PUSH2 0x3096 JUMP JUMPDEST SWAP2 POP PUSH2 0x3B77 DUP3 PUSH2 0x3B36 JUMP JUMPDEST PUSH1 0x20 DUP3 ADD SWAP1 POP SWAP2 SWAP1 POP JUMP JUMPDEST PUSH1 0x0 PUSH1 0x20 DUP3 ADD SWAP1 POP DUP2 DUP2 SUB PUSH1 0x0 DUP4 ADD MSTORE PUSH2 0x3B9B DUP2 PUSH2 0x3B5F JUMP JUMPDEST SWAP1 POP SWAP2 SWAP1 POP JUMP JUMPDEST PUSH32 0x4F6E6C79207468652073746F726167652070726F76696465722063616E206465 PUSH1 0x0 DUP3 ADD MSTORE PUSH32 0x6C65746520746865207368617264000000000000000000000000000000000000 PUSH1 0x20 DUP3 ADD MSTORE POP JUMP JUMPDEST PUSH1 0x0 PUSH2 0x3BFE PUSH1 0x2E DUP4 PUSH2 0x3096 JUMP JUMPDEST SWAP2 POP PUSH2 0x3C09 DUP3 PUSH2 0x3BA2 JUMP JUMPDEST PUSH1 0x40 DUP3 ADD SWAP1 POP SWAP2 SWAP1 POP JUMP JUMPDEST PUSH1 0x0 PUSH1 0x20 DUP3 ADD SWAP1 POP DUP2 DUP2 SUB PUSH1 0x0 DUP4 ADD MSTORE PUSH2 0x3C2D DUP2 PUSH2 0x3BF1 JUMP JUMPDEST SWAP1 POP SWAP2 SWAP1 POP JUMP JUMPDEST PUSH32 0x4F6E6C79207468652066696C65206F776E65722063616E2064656C6574652074 PUSH1 0x0 DUP3 ADD MSTORE PUSH32 0x68652066696C6500000000000000000000000000000000000000000000000000 PUSH1 0x20 DUP3 ADD MSTORE POP JUMP JUMPDEST PUSH1 0x0 PUSH2 0x3C90 PUSH1 0x27 DUP4 PUSH2 0x3096 JUMP JUMPDEST SWAP2 POP PUSH2 0x3C9B DUP3 PUSH2 0x3C34 JUMP JUMPDEST PUSH1 0x40 DUP3 ADD SWAP1 POP SWAP2 SWAP1 POP JUMP JUMPDEST PUSH1 0x0 PUSH1 0x20 DUP3 ADD SWAP1 POP DUP2 DUP2 SUB PUSH1 0x0 DUP4 ADD MSTORE PUSH2 0x3CBF DUP2 PUSH2 0x3C83 JUMP JUMPDEST SWAP1 POP SWAP2 SWAP1 POP JUMP JUMPDEST PUSH32 0x46696C652064617461206D7573742062652070726F7669646564000000000000 PUSH1 0x0 DUP3 ADD MSTORE POP JUMP JUMPDEST PUSH1 0x0 PUSH2 0x3CFC PUSH1 0x1A DUP4 PUSH2 0x3096 JUMP JUMPDEST SWAP2 POP PUSH2 0x3D07 DUP3 PUSH2 0x3CC6 JUMP JUMPDEST PUSH1 0x20 DUP3 ADD SWAP1 POP SWAP2 SWAP1 POP JUMP JUMPDEST PUSH1 0x0 PUSH1 0x20 DUP3 ADD SWAP1 POP DUP2 DUP2 SUB PUSH1 0x0 DUP4 ADD MSTORE PUSH2 0x3D2B DUP2 PUSH2 0x3CEF JUMP JUMPDEST SWAP1 POP SWAP2 SWAP1 POP JUMP JUMPDEST PUSH1 0x0 PUSH2 0x3D3D DUP3 PUSH2 0x2CDC JUMP JUMPDEST SWAP2 POP PUSH2 0x3D48 DUP4 PUSH2 0x2CDC JUMP JUMPDEST SWAP3 POP DUP3 DUP3 ADD SWAP1 POP DUP1 DUP3 GT ISZERO PUSH2 0x3D60 JUMPI PUSH2 0x3D5F PUSH2 0x3924 JUMP JUMPDEST JUMPDEST SWAP3 SWAP2 POP POP JUMP JUMPDEST PUSH32 0x4E487B7100000000000000000000000000000000000000000000000000000000 PUSH1 0x0 MSTORE PUSH1 0x12 PUSH1 0x4 MSTORE PUSH1 0x24 PUSH1 0x0 REVERT JUMPDEST PUSH1 0x0 PUSH2 0x3DA0 DUP3 PUSH2 0x2CDC JUMP JUMPDEST SWAP2 POP PUSH2 0x3DAB DUP4 PUSH2 0x2CDC JUMP JUMPDEST SWAP3 POP DUP3 PUSH2 0x3DBB JUMPI PUSH2 0x3DBA PUSH2 0x3D66 JUMP JUMPDEST JUMPDEST DUP3 DUP3 DIV SWAP1 POP SWAP3 SWAP2 POP POP JUMP JUMPDEST PUSH1 0x0 PUSH2 0x3DD1 DUP3 PUSH2 0x2CDC JUMP JUMPDEST SWAP2 POP PUSH2 0x3DDC DUP4 PUSH2 0x2CDC JUMP JUMPDEST SWAP3 POP DUP3 DUP3 MUL PUSH2 0x3DEA DUP2 PUSH2 0x2CDC JUMP JUMPDEST SWAP2 POP DUP3 DUP3 DIV DUP5 EQ DUP4 ISZERO OR PUSH2 0x3E01 JUMPI PUSH2 0x3E00 PUSH2 0x3924 JUMP JUMPDEST JUMPDEST POP SWAP3 SWAP2 POP POP JUMP JUMPDEST PUSH1 0x0 DUP2 SWAP1 POP DUP2 PUSH1 0x0 MSTORE PUSH1 0x20 PUSH1 0x0 KECCAK256 SWAP1 POP SWAP2 SWAP1 POP JUMP JUMPDEST PUSH1 0x0 PUSH1 0x20 PUSH1 0x1F DUP4 ADD DIV SWAP1 POP SWAP2 SWAP1 POP JUMP JUMPDEST PUSH1 0x0 DUP3 DUP3 SHL SWAP1 POP SWAP3 SWAP2 POP POP JUMP JUMPDEST PUSH1 0x0 PUSH1 0x8 DUP4 MUL PUSH2 0x3E6A PUSH32 0xFFFFFFFFFFFFFFFFFFFFFFFFFFFFFFFFFFFFFFFFFFFFFFFFFFFFFFFFFFFFFFFF DUP3 PUSH2 0x3E2D JUMP JUMPDEST PUSH2 0x3E74 DUP7 DUP4 PUSH2 0x3E2D JUMP JUMPDEST SWAP6 POP DUP1 NOT DUP5 AND SWAP4 POP DUP1 DUP7 AND DUP5 OR SWAP3 POP POP POP SWAP4 SWAP3 POP POP POP JUMP JUMPDEST PUSH1 0x0 DUP2 SWAP1 POP SWAP2 SWAP1 POP JUMP JUMPDEST PUSH1 0x0 PUSH2 0x3EB1 PUSH2 0x3EAC PUSH2 0x3EA7 DUP5 PUSH2 0x2CDC JUMP JUMPDEST PUSH2 0x3E8C JUMP JUMPDEST PUSH2 0x2CDC JUMP JUMPDEST SWAP1 POP SWAP2 SWAP1 POP JUMP JUMPDEST PUSH1 0x0 DUP2 SWAP1 POP SWAP2 SWAP1 POP JUMP JUMPDEST PUSH2 0x3ECB DUP4 PUSH2 0x3E96 JUMP JUMPDEST PUSH2 0x3EDF PUSH2 0x3ED7 DUP3 PUSH2 0x3EB8 JUMP JUMPDEST DUP5 DUP5 SLOAD PUSH2 0x3E3A JUMP JUMPDEST DUP3 SSTORE POP POP POP POP JUMP JUMPDEST PUSH1 0x0 SWAP1 JUMP JUMPDEST PUSH2 0x3EF4 PUSH2 0x3EE7 JUMP JUMPDEST PUSH2 0x3EFF DUP2 DUP5 DUP5 PUSH2 0x3EC2 JUMP JUMPDEST POP POP POP JUMP JUMPDEST JUMPDEST DUP2 DUP2 LT ISZERO PUSH2 0x3F23 JUMPI PUSH2 0x3F18 PUSH1 0x0 DUP3 PUSH2 0x3EEC JUMP JUMPDEST PUSH1 0x1 DUP2 ADD SWAP1 POP PUSH2 0x3F05 JUMP JUMPDEST POP POP JUMP JUMPDEST PUSH1 0x1F DUP3 GT ISZERO PUSH2 0x3F68 JUMPI PUSH2 0x3F39 DUP2 PUSH2 0x3E08 JUMP JUMPDEST PUSH2 0x3F42 DUP5 PUSH2 0x3E1D JUMP JUMPDEST DUP2 ADD PUSH1 0x20 DUP6 LT ISZERO PUSH2 0x3F51 JUMPI DUP2 SWAP1 POP JUMPDEST PUSH2 0x3F65 PUSH2 0x3F5D DUP6 PUSH2 0x3E1D JUMP JUMPDEST DUP4 ADD DUP3 PUSH2 0x3F04 JUMP JUMPDEST POP POP JUMPDEST POP POP POP JUMP JUMPDEST PUSH1 0x0 DUP3 DUP3 SHR SWAP1 POP SWAP3 SWAP2 POP POP JUMP JUMPDEST PUSH1 0x0 PUSH2 0x3F8B PUSH1 0x0 NOT DUP5 PUSH1 0x8 MUL PUSH2 0x3F6D JUMP JUMPDEST NOT DUP1 DUP4 AND SWAP2 POP POP SWAP3 SWAP2 POP POP JUMP JUMPDEST PUSH1 0x0 PUSH2 0x3FA4 DUP4 DUP4 PUSH2 0x3F7A JUMP JUMPDEST SWAP2 POP DUP3 PUSH1 0x2 MUL DUP3 OR SWAP1 POP SWAP3 SWAP2 POP POP JUMP JUMPDEST PUSH2 0x3FBD DUP3 PUSH2 0x308B JUMP JUMPDEST PUSH8 0xFFFFFFFFFFFFFFFF DUP2 GT ISZERO PUSH2 0x3FD6 JUMPI PUSH2 0x3FD5 PUSH2 0x32DA JUMP JUMPDEST JUMPDEST PUSH2 0x3FE0 DUP3 SLOAD PUSH2 0x38C4 JUMP JUMPDEST PUSH2 0x3FEB DUP3 DUP3 DUP6 PUSH2 0x3F27 JUMP JUMPDEST PUSH1 0x0 PUSH1 0x20 SWAP1 POP PUSH1 0x1F DUP4 GT PUSH1 0x1 DUP2 EQ PUSH2 0x401E JUMPI PUSH1 0x0 DUP5 ISZERO PUSH2 0x400C JUMPI DUP3 DUP8 ADD MLOAD SWAP1 POP JUMPDEST PUSH2 0x4016 DUP6 DUP3 PUSH2 0x3F98 JUMP JUMPDEST DUP7 SSTORE POP PUSH2 0x407E JUMP JUMPDEST PUSH1 0x1F NOT DUP5 AND PUSH2 0x402C DUP7 PUSH2 0x3E08 JUMP JUMPDEST PUSH1 0x0 JUMPDEST DUP3 DUP2 LT ISZERO PUSH2 0x4054 JUMPI DUP5 DUP10 ADD MLOAD DUP3 SSTORE PUSH1 0x1 DUP3 ADD SWAP2 POP PUSH1 0x20 DUP6 ADD SWAP5 POP PUSH1 0x20 DUP2 ADD SWAP1 POP PUSH2 0x402F JUMP JUMPDEST DUP7 DUP4 LT ISZERO PUSH2 0x4071 JUMPI DUP5 DUP10 ADD MLOAD PUSH2 0x406D PUSH1 0x1F DUP10 AND DUP3 PUSH2 0x3F7A JUMP JUMPDEST DUP4 SSTORE POP JUMPDEST PUSH1 0x1 PUSH1 0x2 DUP9 MUL ADD DUP9 SSTORE POP POP POP JUMPDEST POP POP POP POP POP POP JUMP JUMPDEST PUSH32 0x496E73756666696369656E7420636F6E74726163742062616C616E6365000000 PUSH1 0x0 DUP3 ADD MSTORE POP JUMP JUMPDEST PUSH1 0x0 PUSH2 0x40BC PUSH1 0x1D DUP4 PUSH2 0x3096 JUMP JUMPDEST SWAP2 POP PUSH2 0x40C7 DUP3 PUSH2 0x4086 JUMP JUMPDEST PUSH1 0x20 DUP3 ADD SWAP1 POP SWAP2 SWAP1 POP JUMP JUMPDEST PUSH1 0x0 PUSH1 0x20 DUP3 ADD SWAP1 POP DUP2 DUP2 SUB PUSH1 0x0 DUP4 ADD MSTORE PUSH2 0x40EB DUP2 PUSH2 0x40AF JUMP JUMPDEST SWAP1 POP SWAP2 SWAP1 POP JUMP JUMPDEST PUSH1 0x0 DUP2 SWAP1 POP SWAP3 SWAP2 POP POP JUMP JUMPDEST POP JUMP JUMPDEST PUSH1 0x0 PUSH2 0x410D PUSH1 0x0 DUP4 PUSH2 0x40F2 JUMP JUMPDEST SWAP2 POP PUSH2 0x4118 DUP3 PUSH2 0x40FD JUMP JUMPDEST PUSH1 0x0 DUP3 ADD SWAP1 POP SWAP2 SWAP1 POP JUMP JUMPDEST PUSH1 0x0 PUSH2 0x412E DUP3 PUSH2 0x4100 JUMP JUMPDEST SWAP2 POP DUP2 SWAP1 POP SWAP2 SWAP1 POP JUMP JUMPDEST PUSH32 0x526577617264207061796D656E74206661696C65640000000000000000000000 PUSH1 0x0 DUP3 ADD MSTORE POP JUMP JUMPDEST PUSH1 0x0 PUSH2 0x416E PUSH1 0x15 DUP4 PUSH2 0x3096 JUMP JUMPDEST SWAP2 POP PUSH2 0x4179 DUP3 PUSH2 0x4138 JUMP JUMPDEST PUSH1 0x20 DUP3 ADD SWAP1 POP SWAP2 SWAP1 POP JUMP JUMPDEST PUSH1 0x0 PUSH1 0x20 DUP3 ADD SWAP1 POP DUP2 DUP2 SUB PUSH1 0x0 DUP4 ADD MSTORE PUSH2 0x419D DUP2 PUSH2 0x4161 JUMP JUMPDEST SWAP1 POP SWAP2 SWAP1 POP JUMP JUMPDEST PUSH1 0x0 PUSH1 0x40 DUP3 ADD SWAP1 POP PUSH2 0x41B9 PUSH1 0x0 DUP4 ADD DUP6 PUSH2 0x2D80 JUMP JUMPDEST PUSH2 0x41C6 PUSH1 0x20 DUP4 ADD DUP5 PUSH2 0x2D3F JUMP JUMPDEST SWAP4 SWAP3 POP POP POP JUMP JUMPDEST PUSH1 0x0 DUP2 SWAP1 POP DUP2 PUSH1 0x0 MSTORE PUSH1 0x20 PUSH1 0x0 KECCAK256 SWAP1 POP SWAP2 SWAP1 POP JUMP JUMPDEST PUSH1 0x1F DUP3 GT ISZERO PUSH2 0x4223 JUMPI PUSH2 0x41F4 DUP2 PUSH2 0x41CD JUMP JUMPDEST PUSH2 0x41FD DUP5 PUSH2 0x3E1D JUMP JUMPDEST DUP2 ADD PUSH1 0x20 DUP6 LT ISZERO PUSH2 0x420C JUMPI DUP2 SWAP1 POP JUMPDEST PUSH2 0x4220 PUSH2 0x4218 DUP6 PUSH2 0x3E1D JUMP JUMPDEST DUP4 ADD DUP3 PUSH2 0x3F04 JUMP JUMPDEST POP POP JUMPDEST POP POP POP JUMP JUMPDEST PUSH2 0x4231 DUP3 PUSH2 0x2D8F JUMP JUMPDEST PUSH8 0xFFFFFFFFFFFFFFFF DUP2 GT ISZERO PUSH2 0x424A JUMPI PUSH2 0x4249 PUSH2 0x32DA JUMP JUMPDEST JUMPDEST PUSH2 0x4254 DUP3 SLOAD PUSH2 0x38C4 JUMP JUMPDEST PUSH2 0x425F DUP3 DUP3 DUP6 PUSH2 0x41E2 JUMP JUMPDEST PUSH1 0x0 PUSH1 0x20 SWAP1 POP PUSH1 0x1F DUP4 GT PUSH1 0x1 DUP2 EQ PUSH2 0x4292 JUMPI PUSH1 0x0 DUP5 ISZERO PUSH2 0x4280 JUMPI DUP3 DUP8 ADD MLOAD SWAP1 POP JUMPDEST PUSH2 0x428A DUP6 DUP3 PUSH2 0x3F98 JUMP JUMPDEST DUP7 SSTORE POP PUSH2 0x42F2 JUMP JUMPDEST PUSH1 0x1F NOT DUP5 AND PUSH2 0x42A0 DUP7 PUSH2 0x41CD JUMP JUMPDEST PUSH1 0x0 JUMPDEST DUP3 DUP2 LT ISZERO PUSH2 0x42C8 JUMPI DUP5 DUP10 ADD MLOAD DUP3 SSTORE PUSH1 0x1 DUP3 ADD SWAP2 POP PUSH1 0x20 DUP6 ADD SWAP5 POP PUSH1 0x20 DUP2 ADD SWAP1 POP PUSH2 0x42A3 JUMP JUMPDEST DUP7 DUP4 LT ISZERO PUSH2 0x42E5 JUMPI DUP5 DUP10 ADD MLOAD PUSH2 0x42E1 PUSH1 0x1F DUP10 AND DUP3 PUSH2 0x3F7A JUMP JUMPDEST DUP4 SSTORE POP JUMPDEST PUSH1 0x1 PUSH1 0x2 DUP9 MUL ADD DUP9 SSTORE POP POP POP JUMPDEST POP POP POP POP POP POP JUMP INVALID LOG2 PUSH5 0x6970667358 0x22 SLT KECCAK256 LOG3 ADDRESS CALLER 0xEC MOD 0xBD EQ 0xE8 NOT ADD SHR CALLCODE 0xC6 EXTCODEHASH 0xD4 0xC8 NOT 0xF6 0x25 0xC7 PUSH14 0x2E04558E2F3F1D99CB556A64736F PUSH13 0x63430008120033000000000000 "
				},
				"gasEstimates": {
					"creation": {
						"codeDepositCost": "3440000",
						"executionCost": "48072",
						"totalCost": "3488072"
					},
					"external": {
						"OwnerToFileHash(bytes32)": "2863",
						"assignStorageProvider(uint256,address)": "infinite",
						"auditShard(uint256)": "infinite",
						"auditStorageProviders(uint256[])": "infinite",
						"deleteFile(bytes32)": "infinite",
						"deleteShard(bytes32,uint256)": "infinite",
						"deleteStorageProvider(address)": "infinite",
						"fileShards(uint256,uint256)": "infinite",
						"filesByHash(bytes32)": "infinite",
						"getFileDetails(bytes32)": "infinite",
						"getOwnerFiles(address)": "infinite",
						"getShardFiles(uint256)": "infinite",
						"getStorageProviderDetails(address)": "infinite",
						"getStorageProvidersStoring()": "infinite",
						"getStorageProvidersWithSpace()": "infinite",
						"ownerFiles(address,uint256)": "5255",
						"providerDetails(address)": "infinite",
						"providersStoring(uint256)": "5090",
						"providersWithSpace(uint256)": "5002",
						"registerStorageProvider(bytes32,address,uint256,uint256)": "infinite",
						"rewardAmount()": "2539",
						"shardCounter()": "2497",
						"shards(uint256)": "infinite",
						"storageProviders(address,uint256)": "infinite",
						"updateAvailableStorageSpace(address,uint256)": "infinite",
						"updateRewardAmount(uint256)": "22544",
						"uploadFile(string,string,bytes32,bytes,uint256)": "infinite"
					},
					"internal": {
						"createShard(bytes memory,address)": "infinite",
						"doesFileExist(bytes32)": "infinite",
						"isShardValid(uint256)": "2267",
						"payReward(address)": "infinite",
						"removeShardFromProvider(uint256)": "infinite",
						"updateStorageStatus(address,bool)": "infinite"
					}
				},
				"methodIdentifiers": {
					"OwnerToFileHash(bytes32)": "adddf233",
					"assignStorageProvider(uint256,address)": "2437c149",
					"auditShard(uint256)": "754ccd33",
					"auditStorageProviders(uint256[])": "192bf875",
					"deleteFile(bytes32)": "6ab799f1",
					"deleteShard(bytes32,uint256)": "5b92b5bd",
					"deleteStorageProvider(address)": "a4a91eef",
					"fileShards(uint256,uint256)": "e4fb7a0f",
					"filesByHash(bytes32)": "aa2b7010",
					"getFileDetails(bytes32)": "5b395159",
					"getOwnerFiles(address)": "b52d6624",
					"getShardFiles(uint256)": "cdcaf87e",
					"getStorageProviderDetails(address)": "b0e73d7e",
					"getStorageProvidersStoring()": "a7d2e9a3",
					"getStorageProvidersWithSpace()": "b2524175",
					"ownerFiles(address,uint256)": "e55f7964",
					"providerDetails(address)": "7fe92d2a",
					"providersStoring(uint256)": "2a3427f0",
					"providersWithSpace(uint256)": "3c097111",
					"registerStorageProvider(bytes32,address,uint256,uint256)": "cde4ba48",
					"rewardAmount()": "f7b2a7be",
					"shardCounter()": "3e689f9c",
					"shards(uint256)": "16faae90",
					"storageProviders(address,uint256)": "b2474059",
					"updateAvailableStorageSpace(address,uint256)": "18d340e7",
					"updateRewardAmount(uint256)": "15c2ba14",
					"uploadFile(string,string,bytes32,bytes,uint256)": "931c1bbd"
				}
			},
			"storageLayout": {
				"storage": [
					{
						"astId": 42,
						"contract": "Cloudy-Blockchain/contracts/NewCloudy.sol:DistributedStorage",
						"label": "shards",
						"offset": 0,
						"slot": "0",
						"type": "t_mapping(t_uint256,t_struct(Shard)26_storage)"
					},
					{
						"astId": 47,
						"contract": "Cloudy-Blockchain/contracts/NewCloudy.sol:DistributedStorage",
						"label": "filesByHash",
						"offset": 0,
						"slot": "1",
						"type": "t_mapping(t_bytes32,t_struct(File)15_storage)"
					},
					{
						"astId": 52,
						"contract": "Cloudy-Blockchain/contracts/NewCloudy.sol:DistributedStorage",
						"label": "storageProviders",
						"offset": 0,
						"slot": "2",
						"type": "t_mapping(t_address,t_array(t_uint256)dyn_storage)"
					},
					{
						"astId": 57,
						"contract": "Cloudy-Blockchain/contracts/NewCloudy.sol:DistributedStorage",
						"label": "providerDetails",
						"offset": 0,
						"slot": "3",
						"type": "t_mapping(t_address,t_struct(StorageProvider)37_storage)"
					},
					{
						"astId": 62,
						"contract": "Cloudy-Blockchain/contracts/NewCloudy.sol:DistributedStorage",
						"label": "ownerFiles",
						"offset": 0,
						"slot": "4",
						"type": "t_mapping(t_address,t_array(t_bytes32)dyn_storage)"
					},
					{
						"astId": 67,
						"contract": "Cloudy-Blockchain/contracts/NewCloudy.sol:DistributedStorage",
						"label": "fileShards",
						"offset": 0,
						"slot": "5",
						"type": "t_mapping(t_uint256,t_array(t_uint256)dyn_storage)"
					},
					{
						"astId": 71,
						"contract": "Cloudy-Blockchain/contracts/NewCloudy.sol:DistributedStorage",
						"label": "OwnerToFileHash",
						"offset": 0,
						"slot": "6",
						"type": "t_mapping(t_bytes32,t_bool)"
					},
					{
						"astId": 74,
						"contract": "Cloudy-Blockchain/contracts/NewCloudy.sol:DistributedStorage",
						"label": "providersWithSpace",
						"offset": 0,
						"slot": "7",
						"type": "t_array(t_address)dyn_storage"
					},
					{
						"astId": 77,
						"contract": "Cloudy-Blockchain/contracts/NewCloudy.sol:DistributedStorage",
						"label": "providersStoring",
						"offset": 0,
						"slot": "8",
						"type": "t_array(t_address)dyn_storage"
					},
					{
						"astId": 79,
						"contract": "Cloudy-Blockchain/contracts/NewCloudy.sol:DistributedStorage",
						"label": "shardCounter",
						"offset": 0,
						"slot": "9",
						"type": "t_uint256"
					},
					{
						"astId": 81,
						"contract": "Cloudy-Blockchain/contracts/NewCloudy.sol:DistributedStorage",
						"label": "rewardAmount",
						"offset": 0,
						"slot": "10",
						"type": "t_uint256"
					}
				],
				"types": {
					"t_address": {
						"encoding": "inplace",
						"label": "address",
						"numberOfBytes": "20"
					},
					"t_array(t_address)dyn_storage": {
						"base": "t_address",
						"encoding": "dynamic_array",
						"label": "address[]",
						"numberOfBytes": "32"
					},
					"t_array(t_bytes32)dyn_storage": {
						"base": "t_bytes32",
						"encoding": "dynamic_array",
						"label": "bytes32[]",
						"numberOfBytes": "32"
					},
					"t_array(t_uint256)dyn_storage": {
						"base": "t_uint256",
						"encoding": "dynamic_array",
						"label": "uint256[]",
						"numberOfBytes": "32"
					},
					"t_bool": {
						"encoding": "inplace",
						"label": "bool",
						"numberOfBytes": "1"
					},
					"t_bytes32": {
						"encoding": "inplace",
						"label": "bytes32",
						"numberOfBytes": "32"
					},
					"t_bytes_storage": {
						"encoding": "bytes",
						"label": "bytes",
						"numberOfBytes": "32"
					},
					"t_mapping(t_address,t_array(t_bytes32)dyn_storage)": {
						"encoding": "mapping",
						"key": "t_address",
						"label": "mapping(address => bytes32[])",
						"numberOfBytes": "32",
						"value": "t_array(t_bytes32)dyn_storage"
					},
					"t_mapping(t_address,t_array(t_uint256)dyn_storage)": {
						"encoding": "mapping",
						"key": "t_address",
						"label": "mapping(address => uint256[])",
						"numberOfBytes": "32",
						"value": "t_array(t_uint256)dyn_storage"
					},
					"t_mapping(t_address,t_struct(StorageProvider)37_storage)": {
						"encoding": "mapping",
						"key": "t_address",
						"label": "mapping(address => struct DistributedStorage.StorageProvider)",
						"numberOfBytes": "32",
						"value": "t_struct(StorageProvider)37_storage"
					},
					"t_mapping(t_bytes32,t_bool)": {
						"encoding": "mapping",
						"key": "t_bytes32",
						"label": "mapping(bytes32 => bool)",
						"numberOfBytes": "32",
						"value": "t_bool"
					},
					"t_mapping(t_bytes32,t_struct(File)15_storage)": {
						"encoding": "mapping",
						"key": "t_bytes32",
						"label": "mapping(bytes32 => struct DistributedStorage.File)",
						"numberOfBytes": "32",
						"value": "t_struct(File)15_storage"
					},
					"t_mapping(t_uint256,t_array(t_uint256)dyn_storage)": {
						"encoding": "mapping",
						"key": "t_uint256",
						"label": "mapping(uint256 => uint256[])",
						"numberOfBytes": "32",
						"value": "t_array(t_uint256)dyn_storage"
					},
					"t_mapping(t_uint256,t_struct(Shard)26_storage)": {
						"encoding": "mapping",
						"key": "t_uint256",
						"label": "mapping(uint256 => struct DistributedStorage.Shard)",
						"numberOfBytes": "32",
						"value": "t_struct(Shard)26_storage"
					},
					"t_string_storage": {
						"encoding": "bytes",
						"label": "string",
						"numberOfBytes": "32"
					},
					"t_struct(File)15_storage": {
						"encoding": "inplace",
						"label": "struct DistributedStorage.File",
						"members": [
							{
								"astId": 3,
								"contract": "Cloudy-Blockchain/contracts/NewCloudy.sol:DistributedStorage",
								"label": "owner",
								"offset": 0,
								"slot": "0",
								"type": "t_address"
							},
							{
								"astId": 5,
								"contract": "Cloudy-Blockchain/contracts/NewCloudy.sol:DistributedStorage",
								"label": "ownerName",
								"offset": 0,
								"slot": "1",
								"type": "t_string_storage"
							},
							{
								"astId": 7,
								"contract": "Cloudy-Blockchain/contracts/NewCloudy.sol:DistributedStorage",
								"label": "fileName",
								"offset": 0,
								"slot": "2",
								"type": "t_string_storage"
							},
							{
								"astId": 9,
								"contract": "Cloudy-Blockchain/contracts/NewCloudy.sol:DistributedStorage",
								"label": "fileHash",
								"offset": 0,
								"slot": "3",
								"type": "t_bytes32"
							},
							{
								"astId": 12,
								"contract": "Cloudy-Blockchain/contracts/NewCloudy.sol:DistributedStorage",
								"label": "shardIds",
								"offset": 0,
								"slot": "4",
								"type": "t_array(t_uint256)dyn_storage"
							},
							{
								"astId": 14,
								"contract": "Cloudy-Blockchain/contracts/NewCloudy.sol:DistributedStorage",
								"label": "exists",
								"offset": 0,
								"slot": "5",
								"type": "t_bool"
							}
						],
						"numberOfBytes": "192"
					},
					"t_struct(Shard)26_storage": {
						"encoding": "inplace",
						"label": "struct DistributedStorage.Shard",
						"members": [
							{
								"astId": 17,
								"contract": "Cloudy-Blockchain/contracts/NewCloudy.sol:DistributedStorage",
								"label": "id",
								"offset": 0,
								"slot": "0",
								"type": "t_uint256"
							},
							{
								"astId": 19,
								"contract": "Cloudy-Blockchain/contracts/NewCloudy.sol:DistributedStorage",
								"label": "storageProvider",
								"offset": 0,
								"slot": "1",
								"type": "t_address"
							},
							{
								"astId": 21,
								"contract": "Cloudy-Blockchain/contracts/NewCloudy.sol:DistributedStorage",
								"label": "timestamp",
								"offset": 0,
								"slot": "2",
								"type": "t_uint256"
							},
							{
								"astId": 23,
								"contract": "Cloudy-Blockchain/contracts/NewCloudy.sol:DistributedStorage",
								"label": "shardData",
								"offset": 0,
								"slot": "3",
								"type": "t_bytes_storage"
							},
							{
								"astId": 25,
								"contract": "Cloudy-Blockchain/contracts/NewCloudy.sol:DistributedStorage",
								"label": "exists",
								"offset": 0,
								"slot": "4",
								"type": "t_bool"
							}
						],
						"numberOfBytes": "160"
					},
					"t_struct(StorageProvider)37_storage": {
						"encoding": "inplace",
						"label": "struct DistributedStorage.StorageProvider",
						"members": [
							{
								"astId": 28,
								"contract": "Cloudy-Blockchain/contracts/NewCloudy.sol:DistributedStorage",
								"label": "ip",
								"offset": 0,
								"slot": "0",
								"type": "t_bytes32"
							},
							{
								"astId": 30,
								"contract": "Cloudy-Blockchain/contracts/NewCloudy.sol:DistributedStorage",
								"label": "walletAddress",
								"offset": 0,
								"slot": "1",
								"type": "t_address"
							},
							{
								"astId": 32,
								"contract": "Cloudy-Blockchain/contracts/NewCloudy.sol:DistributedStorage",
								"label": "availableStorageSpace",
								"offset": 0,
								"slot": "2",
								"type": "t_uint256"
							},
							{
								"astId": 34,
								"contract": "Cloudy-Blockchain/contracts/NewCloudy.sol:DistributedStorage",
								"label": "maximumStorageSize",
								"offset": 0,
								"slot": "3",
								"type": "t_uint256"
							},
							{
								"astId": 36,
								"contract": "Cloudy-Blockchain/contracts/NewCloudy.sol:DistributedStorage",
								"label": "isStoring",
								"offset": 0,
								"slot": "4",
								"type": "t_bool"
							}
						],
						"numberOfBytes": "160"
					},
					"t_uint256": {
						"encoding": "inplace",
						"label": "uint256",
						"numberOfBytes": "32"
					}
				}
			},
			"userdoc": {
				"kind": "user",
				"methods": {},
				"version": 1
			}
		}
	}
}