{
	"Cloudy-Blockchain/contracts/NewCloudy.sol": {
		"DistributedStorage": {
			"abi": [
				{
					"inputs": [],
					"stateMutability": "nonpayable",
					"type": "constructor"
				},
				{
					"anonymous": false,
					"inputs": [
						{
							"indexed": true,
							"internalType": "address",
							"name": "owner",
							"type": "address"
						},
						{
							"indexed": false,
							"internalType": "bytes32",
							"name": "fileHash",
							"type": "bytes32"
						}
					],
					"name": "FileDeleted",
					"type": "event"
				},
				{
					"anonymous": false,
					"inputs": [
						{
							"indexed": true,
							"internalType": "address",
							"name": "owner",
							"type": "address"
						},
						{
							"indexed": false,
							"internalType": "bytes32",
							"name": "fileHash",
							"type": "bytes32"
						}
					],
					"name": "FileUploaded",
					"type": "event"
				},
				{
					"anonymous": false,
					"inputs": [
						{
							"indexed": false,
							"internalType": "address",
							"name": "storageProvider",
							"type": "address"
						},
						{
							"indexed": false,
							"internalType": "uint256",
							"name": "amount",
							"type": "uint256"
						}
					],
					"name": "RewardPaid",
					"type": "event"
				},
				{
					"anonymous": false,
					"inputs": [
						{
							"indexed": false,
							"internalType": "uint256",
							"name": "shardId",
							"type": "uint256"
						},
						{
							"indexed": false,
							"internalType": "address",
							"name": "storageProvider",
							"type": "address"
						},
						{
							"indexed": false,
							"internalType": "bool",
							"name": "valid",
							"type": "bool"
						}
					],
					"name": "ShardAudited",
					"type": "event"
				},
				{
					"anonymous": false,
					"inputs": [
						{
							"indexed": false,
							"internalType": "uint256",
							"name": "shardId",
							"type": "uint256"
						}
					],
					"name": "ShardDeleted",
					"type": "event"
				},
				{
					"anonymous": false,
					"inputs": [
						{
							"indexed": false,
							"internalType": "uint256",
							"name": "shardId",
							"type": "uint256"
						},
						{
							"indexed": false,
							"internalType": "address",
							"name": "storageProvider",
							"type": "address"
						}
					],
					"name": "ShardStored",
					"type": "event"
				},
				{
					"anonymous": false,
					"inputs": [
						{
							"indexed": true,
							"internalType": "address",
							"name": "storageProvider",
							"type": "address"
						}
					],
					"name": "StorageProviderAdded",
					"type": "event"
				},
				{
					"anonymous": false,
					"inputs": [
						{
							"indexed": true,
							"internalType": "address",
							"name": "storageProvider",
							"type": "address"
						}
					],
					"name": "StorageProviderDeleted",
					"type": "event"
				},
				{
					"inputs": [
						{
							"internalType": "bytes32",
							"name": "",
							"type": "bytes32"
						}
					],
					"name": "OwnerToFileHash",
					"outputs": [
						{
							"internalType": "bool",
							"name": "",
							"type": "bool"
						}
					],
					"stateMutability": "view",
					"type": "function"
				},
				{
					"inputs": [
						{
							"internalType": "bytes32",
							"name": "_ip",
							"type": "bytes32"
						},
						{
							"internalType": "address",
							"name": "_walletAddress",
							"type": "address"
						},
						{
							"internalType": "uint256",
							"name": "_maximumStorageSize",
							"type": "uint256"
						}
					],
					"name": "addStorageProvider",
					"outputs": [],
					"stateMutability": "nonpayable",
					"type": "function"
				},
				{
					"inputs": [
						{
							"internalType": "uint256",
							"name": "_shardId",
							"type": "uint256"
						},
						{
							"internalType": "address",
							"name": "_storageProvider",
							"type": "address"
						}
					],
					"name": "assignStorageProvider",
					"outputs": [],
					"stateMutability": "nonpayable",
					"type": "function"
				},
				{
					"inputs": [
						{
							"internalType": "uint256",
							"name": "_shardId",
							"type": "uint256"
						}
					],
					"name": "auditShard",
					"outputs": [],
					"stateMutability": "nonpayable",
					"type": "function"
				},
				{
					"inputs": [
						{
							"internalType": "uint256[]",
							"name": "_shardIds",
							"type": "uint256[]"
						}
					],
					"name": "auditStorageProviders",
					"outputs": [],
					"stateMutability": "nonpayable",
					"type": "function"
				},
				{
					"inputs": [
						{
							"internalType": "bytes32",
							"name": "_fileHash",
							"type": "bytes32"
						}
					],
					"name": "deleteFile",
					"outputs": [],
					"stateMutability": "nonpayable",
					"type": "function"
				},
				{
					"inputs": [
						{
							"internalType": "uint256",
							"name": "_shardId",
							"type": "uint256"
						}
					],
					"name": "deleteShard",
					"outputs": [],
					"stateMutability": "nonpayable",
					"type": "function"
				},
				{
					"inputs": [
						{
							"internalType": "address",
							"name": "_storageProvider",
							"type": "address"
						}
					],
					"name": "deleteStorageProvider",
					"outputs": [],
					"stateMutability": "nonpayable",
					"type": "function"
				},
				{
					"inputs": [
						{
							"internalType": "bytes32",
							"name": "",
							"type": "bytes32"
						},
						{
							"internalType": "uint256",
							"name": "",
							"type": "uint256"
						}
					],
					"name": "fileShards",
					"outputs": [
						{
							"internalType": "uint256",
							"name": "",
							"type": "uint256"
						}
					],
					"stateMutability": "view",
					"type": "function"
				},
				{
					"inputs": [
						{
							"internalType": "bytes32",
							"name": "",
							"type": "bytes32"
						}
					],
					"name": "filesByHash",
					"outputs": [
						{
							"internalType": "address",
							"name": "owner",
							"type": "address"
						},
						{
							"internalType": "string",
							"name": "ownerName",
							"type": "string"
						},
						{
							"internalType": "string",
							"name": "fileName",
							"type": "string"
						},
						{
							"internalType": "bytes32",
							"name": "fileHash",
							"type": "bytes32"
						},
						{
							"internalType": "bool",
							"name": "exists",
							"type": "bool"
						}
					],
					"stateMutability": "view",
					"type": "function"
				},
				{
					"inputs": [
						{
							"internalType": "bytes32",
							"name": "_fileHash",
							"type": "bytes32"
						}
					],
					"name": "getFileDetails",
					"outputs": [
						{
							"internalType": "address",
							"name": "",
							"type": "address"
						},
						{
							"internalType": "string",
							"name": "",
							"type": "string"
						},
						{
							"internalType": "string",
							"name": "",
							"type": "string"
						},
						{
							"internalType": "bytes32",
							"name": "",
							"type": "bytes32"
						}
					],
					"stateMutability": "view",
					"type": "function"
				},
				{
					"inputs": [
						{
							"internalType": "bytes32",
							"name": "_fileHash",
							"type": "bytes32"
						}
					],
					"name": "getFilesShards",
					"outputs": [
						{
							"internalType": "uint256[]",
							"name": "",
							"type": "uint256[]"
						}
					],
					"stateMutability": "view",
					"type": "function"
				},
				{
					"inputs": [
						{
							"internalType": "address",
							"name": "_owner",
							"type": "address"
						}
					],
					"name": "getOwnerFiles",
					"outputs": [
						{
							"internalType": "bytes32[]",
							"name": "",
							"type": "bytes32[]"
						}
					],
					"stateMutability": "view",
					"type": "function"
				},
				{
					"inputs": [
						{
							"internalType": "address",
							"name": "_storageProvider",
							"type": "address"
						}
					],
					"name": "getProviderStoredShards",
					"outputs": [
						{
							"internalType": "uint256[]",
							"name": "",
							"type": "uint256[]"
						}
					],
					"stateMutability": "view",
					"type": "function"
				},
				{
					"inputs": [
						{
							"internalType": "address",
							"name": "_storageProvider",
							"type": "address"
						}
					],
					"name": "getStorageProviderDetails",
					"outputs": [
						{
							"internalType": "bytes32",
							"name": "",
							"type": "bytes32"
						},
						{
							"internalType": "address",
							"name": "",
							"type": "address"
						},
						{
							"internalType": "uint256",
							"name": "",
							"type": "uint256"
						},
						{
							"internalType": "uint256",
							"name": "",
							"type": "uint256"
						},
						{
							"internalType": "bool",
							"name": "",
							"type": "bool"
						}
					],
					"stateMutability": "view",
					"type": "function"
				},
				{
					"inputs": [],
					"name": "getStorageProvidersStoring",
					"outputs": [
						{
							"internalType": "address[]",
							"name": "",
							"type": "address[]"
						}
					],
					"stateMutability": "view",
					"type": "function"
				},
				{
					"inputs": [],
					"name": "getStorageProvidersWithSpace",
					"outputs": [
						{
							"internalType": "address[]",
							"name": "",
							"type": "address[]"
						}
					],
					"stateMutability": "view",
					"type": "function"
				},
				{
					"inputs": [
						{
							"internalType": "address",
							"name": "",
							"type": "address"
						},
						{
							"internalType": "uint256",
							"name": "",
							"type": "uint256"
						}
					],
					"name": "ownerFiles",
					"outputs": [
						{
							"internalType": "bytes32",
							"name": "",
							"type": "bytes32"
						}
					],
					"stateMutability": "view",
					"type": "function"
				},
				{
					"inputs": [
						{
							"internalType": "address",
							"name": "",
							"type": "address"
						}
					],
					"name": "providerDetails",
					"outputs": [
						{
							"internalType": "bytes32",
							"name": "ip",
							"type": "bytes32"
						},
						{
							"internalType": "address",
							"name": "walletAddress",
							"type": "address"
						},
						{
							"internalType": "uint256",
							"name": "availableStorageSpace",
							"type": "uint256"
						},
						{
							"internalType": "uint256",
							"name": "maximumStorageSize",
							"type": "uint256"
						},
						{
							"internalType": "bool",
							"name": "isStoring",
							"type": "bool"
						}
					],
					"stateMutability": "view",
					"type": "function"
				},
				{
					"inputs": [
						{
							"internalType": "uint256",
							"name": "",
							"type": "uint256"
						}
					],
					"name": "providersStoring",
					"outputs": [
						{
							"internalType": "address",
							"name": "",
							"type": "address"
						}
					],
					"stateMutability": "view",
					"type": "function"
				},
				{
					"inputs": [
						{
							"internalType": "uint256",
							"name": "",
							"type": "uint256"
						}
					],
					"name": "providersWithSpace",
					"outputs": [
						{
							"internalType": "address",
							"name": "",
							"type": "address"
						}
					],
					"stateMutability": "view",
					"type": "function"
				},
				{
					"inputs": [],
					"name": "rewardAmount",
					"outputs": [
						{
							"internalType": "uint256",
							"name": "",
							"type": "uint256"
						}
					],
					"stateMutability": "view",
					"type": "function"
				},
				{
					"inputs": [],
					"name": "shardCounter",
					"outputs": [
						{
							"internalType": "uint256",
							"name": "",
							"type": "uint256"
						}
					],
					"stateMutability": "view",
					"type": "function"
				},
				{
					"inputs": [
						{
							"internalType": "uint256",
							"name": "",
							"type": "uint256"
						}
					],
					"name": "shards",
					"outputs": [
						{
							"internalType": "uint256",
							"name": "id",
							"type": "uint256"
						},
						{
							"internalType": "address",
							"name": "storageProvider",
							"type": "address"
						},
						{
							"internalType": "uint256",
							"name": "timestamp",
							"type": "uint256"
						},
						{
							"internalType": "bytes",
							"name": "shardData",
							"type": "bytes"
						},
						{
							"internalType": "bytes32",
							"name": "fileHash",
							"type": "bytes32"
						},
						{
							"internalType": "bool",
							"name": "exists",
							"type": "bool"
						}
					],
					"stateMutability": "view",
					"type": "function"
				},
				{
					"inputs": [
						{
							"internalType": "address",
							"name": "",
							"type": "address"
						},
						{
							"internalType": "uint256",
							"name": "",
							"type": "uint256"
						}
					],
					"name": "storageProviders",
					"outputs": [
						{
							"internalType": "uint256",
							"name": "",
							"type": "uint256"
						}
					],
					"stateMutability": "view",
					"type": "function"
				},
				{
					"inputs": [
						{
							"internalType": "address",
							"name": "_storageProvider",
							"type": "address"
						},
						{
							"internalType": "uint256",
							"name": "_newAvailableSpace",
							"type": "uint256"
						}
					],
					"name": "updateAvailableStorageSpace",
					"outputs": [],
					"stateMutability": "nonpayable",
					"type": "function"
				},
				{
					"inputs": [
						{
							"internalType": "uint256",
							"name": "_newRewardAmount",
							"type": "uint256"
						}
					],
					"name": "updateRewardAmount",
					"outputs": [],
					"stateMutability": "nonpayable",
					"type": "function"
				},
				{
					"inputs": [
						{
							"internalType": "string",
							"name": "_ownerName",
							"type": "string"
						},
						{
							"internalType": "string",
							"name": "_fileName",
							"type": "string"
						},
						{
							"internalType": "bytes32",
							"name": "_fileHash",
							"type": "bytes32"
						}
					],
					"name": "uploadFile",
					"outputs": [],
					"stateMutability": "nonpayable",
					"type": "function"
				}
			],
			"devdoc": {
				"kind": "dev",
				"methods": {},
				"version": 1
			},
			"evm": {
				"assembly": "    /* \"Cloudy-Blockchain/contracts/NewCloudy.sol\":60:19984  contract DistributedStorage {... */\n  mstore(0x40, 0x80)\n    /* \"Cloudy-Blockchain/contracts/NewCloudy.sol\":2352:2467  constructor() {... */\n  callvalue\n  dup1\n  iszero\n  tag_1\n  jumpi\n  0x00\n  dup1\n  revert\ntag_1:\n  pop\n    /* \"Cloudy-Blockchain/contracts/NewCloudy.sol\":2392:2393  1 */\n  0x01\n    /* \"Cloudy-Blockchain/contracts/NewCloudy.sol\":2377:2389  shardCounter */\n  0x09\n    /* \"Cloudy-Blockchain/contracts/NewCloudy.sol\":2377:2393  shardCounter = 1 */\n  dup2\n  swap1\n  sstore\n  pop\n    /* \"Cloudy-Blockchain/contracts/NewCloudy.sol\":2419:2426  1 ether */\n  0x0de0b6b3a7640000\n    /* \"Cloudy-Blockchain/contracts/NewCloudy.sol\":2404:2416  rewardAmount */\n  0x0a\n    /* \"Cloudy-Blockchain/contracts/NewCloudy.sol\":2404:2426  rewardAmount = 1 ether */\n  dup2\n  swap1\n  sstore\n  pop\n    /* \"Cloudy-Blockchain/contracts/NewCloudy.sol\":60:19984  contract DistributedStorage {... */\n  dataSize(sub_0)\n  dup1\n  dataOffset(sub_0)\n  0x00\n  codecopy\n  0x00\n  return\nstop\n\nsub_0: assembly {\n        /* \"Cloudy-Blockchain/contracts/NewCloudy.sol\":60:19984  contract DistributedStorage {... */\n      mstore(0x40, 0x80)\n      callvalue\n      dup1\n      iszero\n      tag_1\n      jumpi\n      0x00\n      dup1\n      revert\n    tag_1:\n      pop\n      jumpi(tag_2, lt(calldatasize, 0x04))\n      shr(0xe0, calldataload(0x00))\n      dup1\n      0xa4a91eef\n      gt\n      tag_31\n      jumpi\n      dup1\n      0xb2524175\n      gt\n      tag_32\n      jumpi\n      dup1\n      0xe55f7964\n      gt\n      tag_33\n      jumpi\n      dup1\n      0xe55f7964\n      eq\n      tag_27\n      jumpi\n      dup1\n      0xf5a3abb3\n      eq\n      tag_28\n      jumpi\n      dup1\n      0xf7b2a7be\n      eq\n      tag_29\n      jumpi\n      dup1\n      0xf9a5757e\n      eq\n      tag_30\n      jumpi\n      jump(tag_2)\n    tag_33:\n      dup1\n      0xb2524175\n      eq\n      tag_24\n      jumpi\n      dup1\n      0xb52d6624\n      eq\n      tag_25\n      jumpi\n      dup1\n      0xd9c759a7\n      eq\n      tag_26\n      jumpi\n      jump(tag_2)\n    tag_32:\n      dup1\n      0xaa9a23c7\n      gt\n      tag_34\n      jumpi\n      dup1\n      0xaa9a23c7\n      eq\n      tag_20\n      jumpi\n      dup1\n      0xadddf233\n      eq\n      tag_21\n      jumpi\n      dup1\n      0xb0e73d7e\n      eq\n      tag_22\n      jumpi\n      dup1\n      0xb2474059\n      eq\n      tag_23\n      jumpi\n      jump(tag_2)\n    tag_34:\n      dup1\n      0xa4a91eef\n      eq\n      tag_17\n      jumpi\n      dup1\n      0xa7d2e9a3\n      eq\n      tag_18\n      jumpi\n      dup1\n      0xaa2b7010\n      eq\n      tag_19\n      jumpi\n      jump(tag_2)\n    tag_31:\n      dup1\n      0x3c097111\n      gt\n      tag_35\n      jumpi\n      dup1\n      0x6ab799f1\n      gt\n      tag_36\n      jumpi\n      dup1\n      0x6ab799f1\n      eq\n      tag_13\n      jumpi\n      dup1\n      0x754ccd33\n      eq\n      tag_14\n      jumpi\n      dup1\n      0x7fe92d2a\n      eq\n      tag_15\n      jumpi\n      dup1\n      0x99272ae5\n      eq\n      tag_16\n      jumpi\n      jump(tag_2)\n    tag_36:\n      dup1\n      0x3c097111\n      eq\n      tag_10\n      jumpi\n      dup1\n      0x3e689f9c\n      eq\n      tag_11\n      jumpi\n      dup1\n      0x5b395159\n      eq\n      tag_12\n      jumpi\n      jump(tag_2)\n    tag_35:\n      dup1\n      0x18d340e7\n      gt\n      tag_37\n      jumpi\n      dup1\n      0x18d340e7\n      eq\n      tag_6\n      jumpi\n      dup1\n      0x192bf875\n      eq\n      tag_7\n      jumpi\n      dup1\n      0x2437c149\n      eq\n      tag_8\n      jumpi\n      dup1\n      0x2a3427f0\n      eq\n      tag_9\n      jumpi\n      jump(tag_2)\n    tag_37:\n      dup1\n      0x110cd668\n      eq\n      tag_3\n      jumpi\n      dup1\n      0x15c2ba14\n      eq\n      tag_4\n      jumpi\n      dup1\n      0x16faae90\n      eq\n      tag_5\n      jumpi\n    tag_2:\n      0x00\n      dup1\n      revert\n        /* \"Cloudy-Blockchain/contracts/NewCloudy.sol\":1215:1262  mapping(bytes32 => uint256[]) public fileShards */\n    tag_3:\n      tag_38\n      0x04\n      dup1\n      calldatasize\n      sub\n      dup2\n      add\n      swap1\n      tag_39\n      swap2\n      swap1\n      tag_40\n      jump\t// in\n    tag_39:\n      tag_41\n      jump\t// in\n    tag_38:\n      mload(0x40)\n      tag_42\n      swap2\n      swap1\n      tag_43\n      jump\t// in\n    tag_42:\n      mload(0x40)\n      dup1\n      swap2\n      sub\n      swap1\n      return\n        /* \"Cloudy-Blockchain/contracts/NewCloudy.sol\":10656:10769  function updateRewardAmount(uint256 _newRewardAmount) external {... */\n    tag_4:\n      tag_44\n      0x04\n      dup1\n      calldatasize\n      sub\n      dup2\n      add\n      swap1\n      tag_45\n      swap2\n      swap1\n      tag_46\n      jump\t// in\n    tag_45:\n      tag_47\n      jump\t// in\n    tag_44:\n      stop\n        /* \"Cloudy-Blockchain/contracts/NewCloudy.sol\":701:740  mapping(uint256 => Shard) public shards */\n    tag_5:\n      tag_48\n      0x04\n      dup1\n      calldatasize\n      sub\n      dup2\n      add\n      swap1\n      tag_49\n      swap2\n      swap1\n      tag_46\n      jump\t// in\n    tag_49:\n      tag_50\n      jump\t// in\n    tag_48:\n      mload(0x40)\n      tag_51\n      swap7\n      swap6\n      swap5\n      swap4\n      swap3\n      swap2\n      swap1\n      tag_52\n      jump\t// in\n    tag_51:\n      mload(0x40)\n      dup1\n      swap2\n      sub\n      swap1\n      return\n        /* \"Cloudy-Blockchain/contracts/NewCloudy.sol\":12737:14238  function updateAvailableStorageSpace(address _storageProvider, uint256 _newAvailableSpace) external {... */\n    tag_6:\n      tag_53\n      0x04\n      dup1\n      calldatasize\n      sub\n      dup2\n      add\n      swap1\n      tag_54\n      swap2\n      swap1\n      tag_55\n      jump\t// in\n    tag_54:\n      tag_56\n      jump\t// in\n    tag_53:\n      stop\n        /* \"Cloudy-Blockchain/contracts/NewCloudy.sol\":9230:9691  function auditStorageProviders(uint256[] calldata _shardIds) external {... */\n    tag_7:\n      tag_57\n      0x04\n      dup1\n      calldatasize\n      sub\n      dup2\n      add\n      swap1\n      tag_58\n      swap2\n      swap1\n      tag_59\n      jump\t// in\n    tag_58:\n      tag_60\n      jump\t// in\n    tag_57:\n      stop\n        /* \"Cloudy-Blockchain/contracts/NewCloudy.sol\":7877:9096  function assignStorageProvider(uint256 _shardId, address _storageProvider) external {... */\n    tag_8:\n      tag_61\n      0x04\n      dup1\n      calldatasize\n      sub\n      dup2\n      add\n      swap1\n      tag_62\n      swap2\n      swap1\n      tag_63\n      jump\t// in\n    tag_62:\n      tag_64\n      jump\t// in\n    tag_61:\n      stop\n        /* \"Cloudy-Blockchain/contracts/NewCloudy.sol\":1625:1658  address[] public providersStoring */\n    tag_9:\n      tag_65\n      0x04\n      dup1\n      calldatasize\n      sub\n      dup2\n      add\n      swap1\n      tag_66\n      swap2\n      swap1\n      tag_46\n      jump\t// in\n    tag_66:\n      tag_67\n      jump\t// in\n    tag_65:\n      mload(0x40)\n      tag_68\n      swap2\n      swap1\n      tag_69\n      jump\t// in\n    tag_68:\n      mload(0x40)\n      dup1\n      swap2\n      sub\n      swap1\n      return\n        /* \"Cloudy-Blockchain/contracts/NewCloudy.sol\":1470:1505  address[] public providersWithSpace */\n    tag_10:\n      tag_70\n      0x04\n      dup1\n      calldatasize\n      sub\n      dup2\n      add\n      swap1\n      tag_71\n      swap2\n      swap1\n      tag_46\n      jump\t// in\n    tag_71:\n      tag_72\n      jump\t// in\n    tag_70:\n      mload(0x40)\n      tag_73\n      swap2\n      swap1\n      tag_69\n      jump\t// in\n    tag_73:\n      mload(0x40)\n      dup1\n      swap2\n      sub\n      swap1\n      return\n        /* \"Cloudy-Blockchain/contracts/NewCloudy.sol\":1764:1791  uint256 public shardCounter */\n    tag_11:\n      tag_74\n      tag_75\n      jump\t// in\n    tag_74:\n      mload(0x40)\n      tag_76\n      swap2\n      swap1\n      tag_43\n      jump\t// in\n    tag_76:\n      mload(0x40)\n      dup1\n      swap2\n      sub\n      swap1\n      return\n        /* \"Cloudy-Blockchain/contracts/NewCloudy.sol\":18999:19250  function getFileDetails(bytes32 _fileHash) external view returns (address, string memory, string memory, bytes32) {... */\n    tag_12:\n      tag_77\n      0x04\n      dup1\n      calldatasize\n      sub\n      dup2\n      add\n      swap1\n      tag_78\n      swap2\n      swap1\n      tag_79\n      jump\t// in\n    tag_78:\n      tag_80\n      jump\t// in\n    tag_77:\n      mload(0x40)\n      tag_81\n      swap5\n      swap4\n      swap3\n      swap2\n      swap1\n      tag_82\n      jump\t// in\n    tag_81:\n      mload(0x40)\n      dup1\n      swap2\n      sub\n      swap1\n      return\n        /* \"Cloudy-Blockchain/contracts/NewCloudy.sol\":6710:7814  function deleteFile(bytes32 _fileHash) external {... */\n    tag_13:\n      tag_83\n      0x04\n      dup1\n      calldatasize\n      sub\n      dup2\n      add\n      swap1\n      tag_84\n      swap2\n      swap1\n      tag_79\n      jump\t// in\n    tag_84:\n      tag_85\n      jump\t// in\n    tag_83:\n      stop\n        /* \"Cloudy-Blockchain/contracts/NewCloudy.sol\":16129:16664  function auditShard(uint256 _shardId) external {... */\n    tag_14:\n      tag_86\n      0x04\n      dup1\n      calldatasize\n      sub\n      dup2\n      add\n      swap1\n      tag_87\n      swap2\n      swap1\n      tag_46\n      jump\t// in\n    tag_87:\n      tag_88\n      jump\t// in\n    tag_86:\n      stop\n        /* \"Cloudy-Blockchain/contracts/NewCloudy.sol\":1015:1073  mapping(address => StorageProvider) public providerDetails */\n    tag_15:\n      tag_89\n      0x04\n      dup1\n      calldatasize\n      sub\n      dup2\n      add\n      swap1\n      tag_90\n      swap2\n      swap1\n      tag_91\n      jump\t// in\n    tag_90:\n      tag_92\n      jump\t// in\n    tag_89:\n      mload(0x40)\n      tag_93\n      swap6\n      swap5\n      swap4\n      swap3\n      swap2\n      swap1\n      tag_94\n      jump\t// in\n    tag_93:\n      mload(0x40)\n      dup1\n      swap2\n      sub\n      swap1\n      return\n        /* \"Cloudy-Blockchain/contracts/NewCloudy.sol\":11224:11669  function addStorageProvider(bytes32 _ip, address _walletAddress, uint256 _maximumStorageSize) external {... */\n    tag_16:\n      tag_95\n      0x04\n      dup1\n      calldatasize\n      sub\n      dup2\n      add\n      swap1\n      tag_96\n      swap2\n      swap1\n      tag_97\n      jump\t// in\n    tag_96:\n      tag_98\n      jump\t// in\n    tag_95:\n      stop\n        /* \"Cloudy-Blockchain/contracts/NewCloudy.sol\":17450:18518  function deleteStorageProvider(address _storageProvider) external {... */\n    tag_17:\n      tag_99\n      0x04\n      dup1\n      calldatasize\n      sub\n      dup2\n      add\n      swap1\n      tag_100\n      swap2\n      swap1\n      tag_91\n      jump\t// in\n    tag_100:\n      tag_101\n      jump\t// in\n    tag_99:\n      stop\n        /* \"Cloudy-Blockchain/contracts/NewCloudy.sol\":19678:19799  function getStorageProvidersStoring() external view returns (address[] memory) {... */\n    tag_18:\n      tag_102\n      tag_103\n      jump\t// in\n    tag_102:\n      mload(0x40)\n      tag_104\n      swap2\n      swap1\n      tag_105\n      jump\t// in\n    tag_104:\n      mload(0x40)\n      dup1\n      swap2\n      sub\n      swap1\n      return\n        /* \"Cloudy-Blockchain/contracts/NewCloudy.sol\":798:841  mapping(bytes32 => File) public filesByHash */\n    tag_19:\n      tag_106\n      0x04\n      dup1\n      calldatasize\n      sub\n      dup2\n      add\n      swap1\n      tag_107\n      swap2\n      swap1\n      tag_79\n      jump\t// in\n    tag_107:\n      tag_108\n      jump\t// in\n    tag_106:\n      mload(0x40)\n      tag_109\n      swap6\n      swap5\n      swap4\n      swap3\n      swap2\n      swap1\n      tag_110\n      jump\t// in\n    tag_109:\n      mload(0x40)\n      dup1\n      swap2\n      sub\n      swap1\n      return\n        /* \"Cloudy-Blockchain/contracts/NewCloudy.sol\":14724:16121  function deleteShard(uint256 _shardId) external {... */\n    tag_20:\n      tag_111\n      0x04\n      dup1\n      calldatasize\n      sub\n      dup2\n      add\n      swap1\n      tag_112\n      swap2\n      swap1\n      tag_46\n      jump\t// in\n    tag_112:\n      tag_113\n      jump\t// in\n    tag_111:\n      stop\n        /* \"Cloudy-Blockchain/contracts/NewCloudy.sol\":1339:1386  mapping(bytes32 => bool) public OwnerToFileHash */\n    tag_21:\n      tag_114\n      0x04\n      dup1\n      calldatasize\n      sub\n      dup2\n      add\n      swap1\n      tag_115\n      swap2\n      swap1\n      tag_79\n      jump\t// in\n    tag_115:\n      tag_116\n      jump\t// in\n    tag_114:\n      mload(0x40)\n      tag_117\n      swap2\n      swap1\n      tag_118\n      jump\t// in\n    tag_117:\n      mload(0x40)\n      dup1\n      swap2\n      sub\n      swap1\n      return\n        /* \"Cloudy-Blockchain/contracts/NewCloudy.sol\":18638:18987  function getStorageProviderDetails(address _storageProvider) external view returns (bytes32, address, uint256, uint256, bool) {... */\n    tag_22:\n      tag_119\n      0x04\n      dup1\n      calldatasize\n      sub\n      dup2\n      add\n      swap1\n      tag_120\n      swap2\n      swap1\n      tag_91\n      jump\t// in\n    tag_120:\n      tag_121\n      jump\t// in\n    tag_119:\n      mload(0x40)\n      tag_122\n      swap6\n      swap5\n      swap4\n      swap3\n      swap2\n      swap1\n      tag_94\n      jump\t// in\n    tag_122:\n      mload(0x40)\n      dup1\n      swap2\n      sub\n      swap1\n      return\n        /* \"Cloudy-Blockchain/contracts/NewCloudy.sol\":883:936  mapping(address => uint256[]) public storageProviders */\n    tag_23:\n      tag_123\n      0x04\n      dup1\n      calldatasize\n      sub\n      dup2\n      add\n      swap1\n      tag_124\n      swap2\n      swap1\n      tag_55\n      jump\t// in\n    tag_124:\n      tag_125\n      jump\t// in\n    tag_123:\n      mload(0x40)\n      tag_126\n      swap2\n      swap1\n      tag_43\n      jump\t// in\n    tag_126:\n      mload(0x40)\n      dup1\n      swap2\n      sub\n      swap1\n      return\n        /* \"Cloudy-Blockchain/contracts/NewCloudy.sol\":19541:19666  function getStorageProvidersWithSpace() external view returns (address[] memory) {... */\n    tag_24:\n      tag_127\n      tag_128\n      jump\t// in\n    tag_127:\n      mload(0x40)\n      tag_129\n      swap2\n      swap1\n      tag_105\n      jump\t// in\n    tag_129:\n      mload(0x40)\n      dup1\n      swap2\n      sub\n      swap1\n      return\n        /* \"Cloudy-Blockchain/contracts/NewCloudy.sol\":19262:19386  function getOwnerFiles(address _owner) external view returns (bytes32[] memory) {... */\n    tag_25:\n      tag_130\n      0x04\n      dup1\n      calldatasize\n      sub\n      dup2\n      add\n      swap1\n      tag_131\n      swap2\n      swap1\n      tag_91\n      jump\t// in\n    tag_131:\n      tag_132\n      jump\t// in\n    tag_130:\n      mload(0x40)\n      tag_133\n      swap2\n      swap1\n      tag_134\n      jump\t// in\n    tag_133:\n      mload(0x40)\n      dup1\n      swap2\n      sub\n      swap1\n      return\n        /* \"Cloudy-Blockchain/contracts/NewCloudy.sol\":19807:19981  function getProviderStoredShards(address _storageProvider) external view returns (uint256[] memory) {... */\n    tag_26:\n      tag_135\n      0x04\n      dup1\n      calldatasize\n      sub\n      dup2\n      add\n      swap1\n      tag_136\n      swap2\n      swap1\n      tag_91\n      jump\t// in\n    tag_136:\n      tag_137\n      jump\t// in\n    tag_135:\n      mload(0x40)\n      tag_138\n      swap2\n      swap1\n      tag_139\n      jump\t// in\n    tag_138:\n      mload(0x40)\n      dup1\n      swap2\n      sub\n      swap1\n      return\n        /* \"Cloudy-Blockchain/contracts/NewCloudy.sol\":1080:1127  mapping(address => bytes32[]) public ownerFiles */\n    tag_27:\n      tag_140\n      0x04\n      dup1\n      calldatasize\n      sub\n      dup2\n      add\n      swap1\n      tag_141\n      swap2\n      swap1\n      tag_55\n      jump\t// in\n    tag_141:\n      tag_142\n      jump\t// in\n    tag_140:\n      mload(0x40)\n      tag_143\n      swap2\n      swap1\n      tag_144\n      jump\t// in\n    tag_143:\n      mload(0x40)\n      dup1\n      swap2\n      sub\n      swap1\n      return\n        /* \"Cloudy-Blockchain/contracts/NewCloudy.sol\":19398:19529  function getFilesShards(bytes32 _fileHash) external view returns (uint256[] memory) {... */\n    tag_28:\n      tag_145\n      0x04\n      dup1\n      calldatasize\n      sub\n      dup2\n      add\n      swap1\n      tag_146\n      swap2\n      swap1\n      tag_79\n      jump\t// in\n    tag_146:\n      tag_147\n      jump\t// in\n    tag_145:\n      mload(0x40)\n      tag_148\n      swap2\n      swap1\n      tag_139\n      jump\t// in\n    tag_148:\n      mload(0x40)\n      dup1\n      swap2\n      sub\n      swap1\n      return\n        /* \"Cloudy-Blockchain/contracts/NewCloudy.sol\":1798:1825  uint256 public rewardAmount */\n    tag_29:\n      tag_149\n      tag_150\n      jump\t// in\n    tag_149:\n      mload(0x40)\n      tag_151\n      swap2\n      swap1\n      tag_43\n      jump\t// in\n    tag_151:\n      mload(0x40)\n      dup1\n      swap2\n      sub\n      swap1\n      return\n        /* \"Cloudy-Blockchain/contracts/NewCloudy.sol\":5519:6046  function uploadFile(string memory _ownerName, string memory _fileName, bytes32 _fileHash) external {... */\n    tag_30:\n      tag_152\n      0x04\n      dup1\n      calldatasize\n      sub\n      dup2\n      add\n      swap1\n      tag_153\n      swap2\n      swap1\n      tag_154\n      jump\t// in\n    tag_153:\n      tag_155\n      jump\t// in\n    tag_152:\n      stop\n        /* \"Cloudy-Blockchain/contracts/NewCloudy.sol\":1215:1262  mapping(bytes32 => uint256[]) public fileShards */\n    tag_41:\n      mstore(0x20, 0x05)\n      dup2\n      0x00\n      mstore\n      keccak256(0x00, 0x40)\n      dup2\n      dup2\n      sload\n      dup2\n      lt\n      tag_156\n      jumpi\n      0x00\n      dup1\n      revert\n    tag_156:\n      swap1\n      0x00\n      mstore\n      keccak256(0x00, 0x20)\n      add\n      0x00\n      swap2\n      pop\n      swap2\n      pop\n      pop\n      sload\n      dup2\n      jump\t// out\n        /* \"Cloudy-Blockchain/contracts/NewCloudy.sol\":10656:10769  function updateRewardAmount(uint256 _newRewardAmount) external {... */\n    tag_47:\n        /* \"Cloudy-Blockchain/contracts/NewCloudy.sol\":10745:10761  _newRewardAmount */\n      dup1\n        /* \"Cloudy-Blockchain/contracts/NewCloudy.sol\":10730:10742  rewardAmount */\n      0x0a\n        /* \"Cloudy-Blockchain/contracts/NewCloudy.sol\":10730:10761  rewardAmount = _newRewardAmount */\n      dup2\n      swap1\n      sstore\n      pop\n        /* \"Cloudy-Blockchain/contracts/NewCloudy.sol\":10656:10769  function updateRewardAmount(uint256 _newRewardAmount) external {... */\n      pop\n      jump\t// out\n        /* \"Cloudy-Blockchain/contracts/NewCloudy.sol\":701:740  mapping(uint256 => Shard) public shards */\n    tag_50:\n      mstore(0x20, 0x00)\n      dup1\n      0x00\n      mstore\n      keccak256(0x00, 0x40)\n      0x00\n      swap2\n      pop\n      swap1\n      pop\n      dup1\n      0x00\n      add\n      sload\n      swap1\n      dup1\n      0x01\n      add\n      0x00\n      swap1\n      sload\n      swap1\n      0x0100\n      exp\n      swap1\n      div\n      0xffffffffffffffffffffffffffffffffffffffff\n      and\n      swap1\n      dup1\n      0x02\n      add\n      sload\n      swap1\n      dup1\n      0x03\n      add\n      dup1\n      sload\n      tag_159\n      swap1\n      tag_160\n      jump\t// in\n    tag_159:\n      dup1\n      0x1f\n      add\n      0x20\n      dup1\n      swap2\n      div\n      mul\n      0x20\n      add\n      mload(0x40)\n      swap1\n      dup2\n      add\n      0x40\n      mstore\n      dup1\n      swap3\n      swap2\n      swap1\n      dup2\n      dup2\n      mstore\n      0x20\n      add\n      dup3\n      dup1\n      sload\n      tag_161\n      swap1\n      tag_160\n      jump\t// in\n    tag_161:\n      dup1\n      iszero\n      tag_162\n      jumpi\n      dup1\n      0x1f\n      lt\n      tag_163\n      jumpi\n      0x0100\n      dup1\n      dup4\n      sload\n      div\n      mul\n      dup4\n      mstore\n      swap2\n      0x20\n      add\n      swap2\n      jump(tag_162)\n    tag_163:\n      dup3\n      add\n      swap2\n      swap1\n      0x00\n      mstore\n      keccak256(0x00, 0x20)\n      swap1\n    tag_164:\n      dup2\n      sload\n      dup2\n      mstore\n      swap1\n      0x01\n      add\n      swap1\n      0x20\n      add\n      dup1\n      dup4\n      gt\n      tag_164\n      jumpi\n      dup3\n      swap1\n      sub\n      0x1f\n      and\n      dup3\n      add\n      swap2\n    tag_162:\n      pop\n      pop\n      pop\n      pop\n      pop\n      swap1\n      dup1\n      0x04\n      add\n      sload\n      swap1\n      dup1\n      0x05\n      add\n      0x00\n      swap1\n      sload\n      swap1\n      0x0100\n      exp\n      swap1\n      div\n      0xff\n      and\n      swap1\n      pop\n      dup7\n      jump\t// out\n        /* \"Cloudy-Blockchain/contracts/NewCloudy.sol\":12737:14238  function updateAvailableStorageSpace(address _storageProvider, uint256 _newAvailableSpace) external {... */\n    tag_56:\n        /* \"Cloudy-Blockchain/contracts/NewCloudy.sol\":12848:12880  StorageProvider storage provider */\n      0x00\n        /* \"Cloudy-Blockchain/contracts/NewCloudy.sol\":12883:12898  providerDetails */\n      0x03\n        /* \"Cloudy-Blockchain/contracts/NewCloudy.sol\":12883:12916  providerDetails[_storageProvider] */\n      0x00\n        /* \"Cloudy-Blockchain/contracts/NewCloudy.sol\":12899:12915  _storageProvider */\n      dup5\n        /* \"Cloudy-Blockchain/contracts/NewCloudy.sol\":12883:12916  providerDetails[_storageProvider] */\n      0xffffffffffffffffffffffffffffffffffffffff\n      and\n      0xffffffffffffffffffffffffffffffffffffffff\n      and\n      dup2\n      mstore\n      0x20\n      add\n      swap1\n      dup2\n      mstore\n      0x20\n      add\n      0x00\n      keccak256\n        /* \"Cloudy-Blockchain/contracts/NewCloudy.sol\":12848:12916  StorageProvider storage provider = providerDetails[_storageProvider] */\n      swap1\n      pop\n        /* \"Cloudy-Blockchain/contracts/NewCloudy.sol\":12927:12952  uint256 oldAvailableSpace */\n      0x00\n        /* \"Cloudy-Blockchain/contracts/NewCloudy.sol\":12955:12963  provider */\n      dup2\n        /* \"Cloudy-Blockchain/contracts/NewCloudy.sol\":12955:12985  provider.availableStorageSpace */\n      0x02\n      add\n      sload\n        /* \"Cloudy-Blockchain/contracts/NewCloudy.sol\":12927:12985  uint256 oldAvailableSpace = provider.availableStorageSpace */\n      swap1\n      pop\n        /* \"Cloudy-Blockchain/contracts/NewCloudy.sol\":13029:13047  _newAvailableSpace */\n      dup3\n        /* \"Cloudy-Blockchain/contracts/NewCloudy.sol\":12996:13004  provider */\n      dup3\n        /* \"Cloudy-Blockchain/contracts/NewCloudy.sol\":12996:13026  provider.availableStorageSpace */\n      0x02\n      add\n        /* \"Cloudy-Blockchain/contracts/NewCloudy.sol\":12996:13047  provider.availableStorageSpace = _newAvailableSpace */\n      dup2\n      swap1\n      sstore\n      pop\n        /* \"Cloudy-Blockchain/contracts/NewCloudy.sol\":13986:13987  0 */\n      0x00\n        /* \"Cloudy-Blockchain/contracts/NewCloudy.sol\":13965:13982  oldAvailableSpace */\n      dup2\n        /* \"Cloudy-Blockchain/contracts/NewCloudy.sol\":13965:13987  oldAvailableSpace == 0 */\n      eq\n        /* \"Cloudy-Blockchain/contracts/NewCloudy.sol\":13965:14013  oldAvailableSpace == 0 && _newAvailableSpace > 0 */\n      dup1\n      iszero\n      tag_166\n      jumpi\n      pop\n        /* \"Cloudy-Blockchain/contracts/NewCloudy.sol\":14012:14013  0 */\n      0x00\n        /* \"Cloudy-Blockchain/contracts/NewCloudy.sol\":13991:14009  _newAvailableSpace */\n      dup4\n        /* \"Cloudy-Blockchain/contracts/NewCloudy.sol\":13991:14013  _newAvailableSpace > 0 */\n      gt\n        /* \"Cloudy-Blockchain/contracts/NewCloudy.sol\":13965:14013  oldAvailableSpace == 0 && _newAvailableSpace > 0 */\n    tag_166:\n        /* \"Cloudy-Blockchain/contracts/NewCloudy.sol\":13961:14231  if (oldAvailableSpace == 0 && _newAvailableSpace > 0) {... */\n      iszero\n      tag_167\n      jumpi\n        /* \"Cloudy-Blockchain/contracts/NewCloudy.sol\":14030:14048  providersWithSpace */\n      0x07\n        /* \"Cloudy-Blockchain/contracts/NewCloudy.sol\":14054:14070  _storageProvider */\n      dup5\n        /* \"Cloudy-Blockchain/contracts/NewCloudy.sol\":14030:14071  providersWithSpace.push(_storageProvider) */\n      swap1\n      dup1\n      0x01\n      dup2\n      sload\n      add\n      dup1\n      dup3\n      sstore\n      dup1\n      swap2\n      pop\n      pop\n      0x01\n      swap1\n      sub\n      swap1\n      0x00\n      mstore\n      keccak256(0x00, 0x20)\n      add\n      0x00\n      swap1\n      swap2\n      swap1\n      swap2\n      swap1\n      swap2\n      0x0100\n      exp\n      dup2\n      sload\n      dup2\n      0xffffffffffffffffffffffffffffffffffffffff\n      mul\n      not\n      and\n      swap1\n      dup4\n      0xffffffffffffffffffffffffffffffffffffffff\n      and\n      mul\n      or\n      swap1\n      sstore\n      pop\n        /* \"Cloudy-Blockchain/contracts/NewCloudy.sol\":13961:14231  if (oldAvailableSpace == 0 && _newAvailableSpace > 0) {... */\n      jump(tag_169)\n    tag_167:\n        /* \"Cloudy-Blockchain/contracts/NewCloudy.sol\":14113:14114  0 */\n      0x00\n        /* \"Cloudy-Blockchain/contracts/NewCloudy.sol\":14093:14110  oldAvailableSpace */\n      dup2\n        /* \"Cloudy-Blockchain/contracts/NewCloudy.sol\":14093:14114  oldAvailableSpace > 0 */\n      gt\n        /* \"Cloudy-Blockchain/contracts/NewCloudy.sol\":14093:14141  oldAvailableSpace > 0 && _newAvailableSpace == 0 */\n      dup1\n      iszero\n      tag_170\n      jumpi\n      pop\n        /* \"Cloudy-Blockchain/contracts/NewCloudy.sol\":14140:14141  0 */\n      0x00\n        /* \"Cloudy-Blockchain/contracts/NewCloudy.sol\":14118:14136  _newAvailableSpace */\n      dup4\n        /* \"Cloudy-Blockchain/contracts/NewCloudy.sol\":14118:14141  _newAvailableSpace == 0 */\n      eq\n        /* \"Cloudy-Blockchain/contracts/NewCloudy.sol\":14093:14141  oldAvailableSpace > 0 && _newAvailableSpace == 0 */\n    tag_170:\n        /* \"Cloudy-Blockchain/contracts/NewCloudy.sol\":14089:14231  if (oldAvailableSpace > 0 && _newAvailableSpace == 0) {... */\n      iszero\n      tag_171\n      jumpi\n        /* \"Cloudy-Blockchain/contracts/NewCloudy.sol\":14158:14219  removeProviderFromArray(providersWithSpace, _storageProvider) */\n      tag_172\n        /* \"Cloudy-Blockchain/contracts/NewCloudy.sol\":14182:14200  providersWithSpace */\n      0x07\n        /* \"Cloudy-Blockchain/contracts/NewCloudy.sol\":14202:14218  _storageProvider */\n      dup6\n        /* \"Cloudy-Blockchain/contracts/NewCloudy.sol\":14158:14181  removeProviderFromArray */\n      tag_173\n        /* \"Cloudy-Blockchain/contracts/NewCloudy.sol\":14158:14219  removeProviderFromArray(providersWithSpace, _storageProvider) */\n      jump\t// in\n    tag_172:\n        /* \"Cloudy-Blockchain/contracts/NewCloudy.sol\":14089:14231  if (oldAvailableSpace > 0 && _newAvailableSpace == 0) {... */\n    tag_171:\n        /* \"Cloudy-Blockchain/contracts/NewCloudy.sol\":13961:14231  if (oldAvailableSpace == 0 && _newAvailableSpace > 0) {... */\n    tag_169:\n        /* \"Cloudy-Blockchain/contracts/NewCloudy.sol\":12837:14238  {... */\n      pop\n      pop\n        /* \"Cloudy-Blockchain/contracts/NewCloudy.sol\":12737:14238  function updateAvailableStorageSpace(address _storageProvider, uint256 _newAvailableSpace) external {... */\n      pop\n      pop\n      jump\t// out\n        /* \"Cloudy-Blockchain/contracts/NewCloudy.sol\":9230:9691  function auditStorageProviders(uint256[] calldata _shardIds) external {... */\n    tag_60:\n        /* \"Cloudy-Blockchain/contracts/NewCloudy.sol\":9316:9325  uint256 i */\n      0x00\n        /* \"Cloudy-Blockchain/contracts/NewCloudy.sol\":9311:9684  for (uint256 i = 0; i < _shardIds.length; i++) {... */\n    tag_175:\n        /* \"Cloudy-Blockchain/contracts/NewCloudy.sol\":9335:9344  _shardIds */\n      dup3\n      dup3\n        /* \"Cloudy-Blockchain/contracts/NewCloudy.sol\":9335:9351  _shardIds.length */\n      swap1\n      pop\n        /* \"Cloudy-Blockchain/contracts/NewCloudy.sol\":9331:9332  i */\n      dup2\n        /* \"Cloudy-Blockchain/contracts/NewCloudy.sol\":9331:9351  i < _shardIds.length */\n      lt\n        /* \"Cloudy-Blockchain/contracts/NewCloudy.sol\":9311:9684  for (uint256 i = 0; i < _shardIds.length; i++) {... */\n      iszero\n      tag_176\n      jumpi\n        /* \"Cloudy-Blockchain/contracts/NewCloudy.sol\":9373:9388  uint256 shardId */\n      0x00\n        /* \"Cloudy-Blockchain/contracts/NewCloudy.sol\":9391:9400  _shardIds */\n      dup4\n      dup4\n        /* \"Cloudy-Blockchain/contracts/NewCloudy.sol\":9401:9402  i */\n      dup4\n        /* \"Cloudy-Blockchain/contracts/NewCloudy.sol\":9391:9403  _shardIds[i] */\n      dup2\n      dup2\n      lt\n      tag_178\n      jumpi\n      tag_179\n      tag_180\n      jump\t// in\n    tag_179:\n    tag_178:\n      swap1\n      pop\n      0x20\n      mul\n      add\n      calldataload\n        /* \"Cloudy-Blockchain/contracts/NewCloudy.sol\":9373:9403  uint256 shardId = _shardIds[i] */\n      swap1\n      pop\n        /* \"Cloudy-Blockchain/contracts/NewCloudy.sol\":9418:9437  Shard storage shard */\n      0x00\n        /* \"Cloudy-Blockchain/contracts/NewCloudy.sol\":9440:9446  shards */\n      dup1\n        /* \"Cloudy-Blockchain/contracts/NewCloudy.sol\":9440:9455  shards[shardId] */\n      0x00\n        /* \"Cloudy-Blockchain/contracts/NewCloudy.sol\":9447:9454  shardId */\n      dup4\n        /* \"Cloudy-Blockchain/contracts/NewCloudy.sol\":9440:9455  shards[shardId] */\n      dup2\n      mstore\n      0x20\n      add\n      swap1\n      dup2\n      mstore\n      0x20\n      add\n      0x00\n      keccak256\n        /* \"Cloudy-Blockchain/contracts/NewCloudy.sol\":9418:9455  Shard storage shard = shards[shardId] */\n      swap1\n      pop\n        /* \"Cloudy-Blockchain/contracts/NewCloudy.sol\":9470:9480  bool valid */\n      0x00\n        /* \"Cloudy-Blockchain/contracts/NewCloudy.sol\":9483:9505  isShardValid(shard.id) */\n      tag_181\n        /* \"Cloudy-Blockchain/contracts/NewCloudy.sol\":9496:9501  shard */\n      dup3\n        /* \"Cloudy-Blockchain/contracts/NewCloudy.sol\":9496:9504  shard.id */\n      0x00\n      add\n      sload\n        /* \"Cloudy-Blockchain/contracts/NewCloudy.sol\":9483:9495  isShardValid */\n      tag_182\n        /* \"Cloudy-Blockchain/contracts/NewCloudy.sol\":9483:9505  isShardValid(shard.id) */\n      jump\t// in\n    tag_181:\n        /* \"Cloudy-Blockchain/contracts/NewCloudy.sol\":9470:9505  bool valid = isShardValid(shard.id) */\n      swap1\n      pop\n        /* \"Cloudy-Blockchain/contracts/NewCloudy.sol\":9527:9578  ShardAudited(shardId, shard.storageProvider, valid) */\n      0xe2287538273600866181d00327199ba2737bdd326a6f08436f117f6a6c0e87a0\n        /* \"Cloudy-Blockchain/contracts/NewCloudy.sol\":9540:9547  shardId */\n      dup4\n        /* \"Cloudy-Blockchain/contracts/NewCloudy.sol\":9549:9554  shard */\n      dup4\n        /* \"Cloudy-Blockchain/contracts/NewCloudy.sol\":9549:9570  shard.storageProvider */\n      0x01\n      add\n      0x00\n      swap1\n      sload\n      swap1\n      0x0100\n      exp\n      swap1\n      div\n      0xffffffffffffffffffffffffffffffffffffffff\n      and\n        /* \"Cloudy-Blockchain/contracts/NewCloudy.sol\":9572:9577  valid */\n      dup4\n        /* \"Cloudy-Blockchain/contracts/NewCloudy.sol\":9527:9578  ShardAudited(shardId, shard.storageProvider, valid) */\n      mload(0x40)\n      tag_183\n      swap4\n      swap3\n      swap2\n      swap1\n      tag_184\n      jump\t// in\n    tag_183:\n      mload(0x40)\n      dup1\n      swap2\n      sub\n      swap1\n      log1\n        /* \"Cloudy-Blockchain/contracts/NewCloudy.sol\":9599:9604  valid */\n      dup1\n        /* \"Cloudy-Blockchain/contracts/NewCloudy.sol\":9595:9673  if (valid) {... */\n      iszero\n      tag_185\n      jumpi\n        /* \"Cloudy-Blockchain/contracts/NewCloudy.sol\":9625:9657  payReward(shard.storageProvider) */\n      tag_186\n        /* \"Cloudy-Blockchain/contracts/NewCloudy.sol\":9635:9640  shard */\n      dup3\n        /* \"Cloudy-Blockchain/contracts/NewCloudy.sol\":9635:9656  shard.storageProvider */\n      0x01\n      add\n      0x00\n      swap1\n      sload\n      swap1\n      0x0100\n      exp\n      swap1\n      div\n      0xffffffffffffffffffffffffffffffffffffffff\n      and\n        /* \"Cloudy-Blockchain/contracts/NewCloudy.sol\":9625:9634  payReward */\n      tag_187\n        /* \"Cloudy-Blockchain/contracts/NewCloudy.sol\":9625:9657  payReward(shard.storageProvider) */\n      jump\t// in\n    tag_186:\n        /* \"Cloudy-Blockchain/contracts/NewCloudy.sol\":9595:9673  if (valid) {... */\n    tag_185:\n        /* \"Cloudy-Blockchain/contracts/NewCloudy.sol\":9358:9684  {... */\n      pop\n      pop\n      pop\n        /* \"Cloudy-Blockchain/contracts/NewCloudy.sol\":9353:9356  i++ */\n      dup1\n      dup1\n      tag_188\n      swap1\n      tag_189\n      jump\t// in\n    tag_188:\n      swap2\n      pop\n      pop\n        /* \"Cloudy-Blockchain/contracts/NewCloudy.sol\":9311:9684  for (uint256 i = 0; i < _shardIds.length; i++) {... */\n      jump(tag_175)\n    tag_176:\n      pop\n        /* \"Cloudy-Blockchain/contracts/NewCloudy.sol\":9230:9691  function auditStorageProviders(uint256[] calldata _shardIds) external {... */\n      pop\n      pop\n      jump\t// out\n        /* \"Cloudy-Blockchain/contracts/NewCloudy.sol\":7877:9096  function assignStorageProvider(uint256 _shardId, address _storageProvider) external {... */\n    tag_64:\n        /* \"Cloudy-Blockchain/contracts/NewCloudy.sol\":7980:7986  shards */\n      0x00\n        /* \"Cloudy-Blockchain/contracts/NewCloudy.sol\":7980:7996  shards[_shardId] */\n      dup1\n        /* \"Cloudy-Blockchain/contracts/NewCloudy.sol\":7987:7995  _shardId */\n      dup4\n        /* \"Cloudy-Blockchain/contracts/NewCloudy.sol\":7980:7996  shards[_shardId] */\n      dup2\n      mstore\n      0x20\n      add\n      swap1\n      dup2\n      mstore\n      0x20\n      add\n      0x00\n      keccak256\n        /* \"Cloudy-Blockchain/contracts/NewCloudy.sol\":7980:8003  shards[_shardId].exists */\n      0x05\n      add\n      0x00\n      swap1\n      sload\n      swap1\n      0x0100\n      exp\n      swap1\n      div\n      0xff\n      and\n        /* \"Cloudy-Blockchain/contracts/NewCloudy.sol\":7972:8028  require(shards[_shardId].exists, \"Shard does not exist\") */\n      tag_191\n      jumpi\n      mload(0x40)\n      0x08c379a000000000000000000000000000000000000000000000000000000000\n      dup2\n      mstore\n      0x04\n      add\n      tag_192\n      swap1\n      tag_193\n      jump\t// in\n    tag_192:\n      mload(0x40)\n      dup1\n      swap2\n      sub\n      swap1\n      revert\n    tag_191:\n        /* \"Cloudy-Blockchain/contracts/NewCloudy.sol\":8106:8107  0 */\n      0x00\n        /* \"Cloudy-Blockchain/contracts/NewCloudy.sol\":8047:8108  providerDetails[_storageProvider].walletAddress != address(0) */\n      0xffffffffffffffffffffffffffffffffffffffff\n      and\n        /* \"Cloudy-Blockchain/contracts/NewCloudy.sol\":8047:8062  providerDetails */\n      0x03\n        /* \"Cloudy-Blockchain/contracts/NewCloudy.sol\":8047:8080  providerDetails[_storageProvider] */\n      0x00\n        /* \"Cloudy-Blockchain/contracts/NewCloudy.sol\":8063:8079  _storageProvider */\n      dup4\n        /* \"Cloudy-Blockchain/contracts/NewCloudy.sol\":8047:8080  providerDetails[_storageProvider] */\n      0xffffffffffffffffffffffffffffffffffffffff\n      and\n      0xffffffffffffffffffffffffffffffffffffffff\n      and\n      dup2\n      mstore\n      0x20\n      add\n      swap1\n      dup2\n      mstore\n      0x20\n      add\n      0x00\n      keccak256\n        /* \"Cloudy-Blockchain/contracts/NewCloudy.sol\":8047:8094  providerDetails[_storageProvider].walletAddress */\n      0x01\n      add\n      0x00\n      swap1\n      sload\n      swap1\n      0x0100\n      exp\n      swap1\n      div\n      0xffffffffffffffffffffffffffffffffffffffff\n      and\n        /* \"Cloudy-Blockchain/contracts/NewCloudy.sol\":8047:8108  providerDetails[_storageProvider].walletAddress != address(0) */\n      0xffffffffffffffffffffffffffffffffffffffff\n      and\n      sub\n        /* \"Cloudy-Blockchain/contracts/NewCloudy.sol\":8039:8144  require(providerDetails[_storageProvider].walletAddress != address(0), \"Storage provider does not exist\") */\n      tag_194\n      jumpi\n      mload(0x40)\n      0x08c379a000000000000000000000000000000000000000000000000000000000\n      dup2\n      mstore\n      0x04\n      add\n      tag_195\n      swap1\n      tag_196\n      jump\t// in\n    tag_195:\n      mload(0x40)\n      dup1\n      swap2\n      sub\n      swap1\n      revert\n    tag_194:\n        /* \"Cloudy-Blockchain/contracts/NewCloudy.sol\":8157:8180  address currentProvider */\n      0x00\n        /* \"Cloudy-Blockchain/contracts/NewCloudy.sol\":8183:8189  shards */\n      dup1\n        /* \"Cloudy-Blockchain/contracts/NewCloudy.sol\":8183:8199  shards[_shardId] */\n      0x00\n        /* \"Cloudy-Blockchain/contracts/NewCloudy.sol\":8190:8198  _shardId */\n      dup5\n        /* \"Cloudy-Blockchain/contracts/NewCloudy.sol\":8183:8199  shards[_shardId] */\n      dup2\n      mstore\n      0x20\n      add\n      swap1\n      dup2\n      mstore\n      0x20\n      add\n      0x00\n      keccak256\n        /* \"Cloudy-Blockchain/contracts/NewCloudy.sol\":8183:8215  shards[_shardId].storageProvider */\n      0x01\n      add\n      0x00\n      swap1\n      sload\n      swap1\n      0x0100\n      exp\n      swap1\n      div\n      0xffffffffffffffffffffffffffffffffffffffff\n      and\n        /* \"Cloudy-Blockchain/contracts/NewCloudy.sol\":8157:8215  address currentProvider = shards[_shardId].storageProvider */\n      swap1\n      pop\n        /* \"Cloudy-Blockchain/contracts/NewCloudy.sol\":8249:8265  _storageProvider */\n      dup2\n        /* \"Cloudy-Blockchain/contracts/NewCloudy.sol\":8230:8265  currentProvider != _storageProvider */\n      0xffffffffffffffffffffffffffffffffffffffff\n      and\n        /* \"Cloudy-Blockchain/contracts/NewCloudy.sol\":8230:8245  currentProvider */\n      dup2\n        /* \"Cloudy-Blockchain/contracts/NewCloudy.sol\":8230:8265  currentProvider != _storageProvider */\n      0xffffffffffffffffffffffffffffffffffffffff\n      and\n      eq\n        /* \"Cloudy-Blockchain/contracts/NewCloudy.sol\":8226:9089  if (currentProvider != _storageProvider) {... */\n      tag_197\n      jumpi\n        /* \"Cloudy-Blockchain/contracts/NewCloudy.sol\":8348:8387  uint256[] storage currentProviderShards */\n      0x00\n        /* \"Cloudy-Blockchain/contracts/NewCloudy.sol\":8390:8406  storageProviders */\n      0x02\n        /* \"Cloudy-Blockchain/contracts/NewCloudy.sol\":8390:8423  storageProviders[currentProvider] */\n      0x00\n        /* \"Cloudy-Blockchain/contracts/NewCloudy.sol\":8407:8422  currentProvider */\n      dup4\n        /* \"Cloudy-Blockchain/contracts/NewCloudy.sol\":8390:8423  storageProviders[currentProvider] */\n      0xffffffffffffffffffffffffffffffffffffffff\n      and\n      0xffffffffffffffffffffffffffffffffffffffff\n      and\n      dup2\n      mstore\n      0x20\n      add\n      swap1\n      dup2\n      mstore\n      0x20\n      add\n      0x00\n      keccak256\n        /* \"Cloudy-Blockchain/contracts/NewCloudy.sol\":8348:8423  uint256[] storage currentProviderShards = storageProviders[currentProvider] */\n      swap1\n      pop\n        /* \"Cloudy-Blockchain/contracts/NewCloudy.sol\":8443:8452  uint256 i */\n      0x00\n        /* \"Cloudy-Blockchain/contracts/NewCloudy.sol\":8438:8832  for (uint256 i = 0; i < currentProviderShards.length; i++) {... */\n    tag_198:\n        /* \"Cloudy-Blockchain/contracts/NewCloudy.sol\":8462:8483  currentProviderShards */\n      dup2\n        /* \"Cloudy-Blockchain/contracts/NewCloudy.sol\":8462:8490  currentProviderShards.length */\n      dup1\n      sload\n      swap1\n      pop\n        /* \"Cloudy-Blockchain/contracts/NewCloudy.sol\":8458:8459  i */\n      dup2\n        /* \"Cloudy-Blockchain/contracts/NewCloudy.sol\":8458:8490  i < currentProviderShards.length */\n      lt\n        /* \"Cloudy-Blockchain/contracts/NewCloudy.sol\":8438:8832  for (uint256 i = 0; i < currentProviderShards.length; i++) {... */\n      iszero\n      tag_199\n      jumpi\n        /* \"Cloudy-Blockchain/contracts/NewCloudy.sol\":8548:8556  _shardId */\n      dup5\n        /* \"Cloudy-Blockchain/contracts/NewCloudy.sol\":8520:8541  currentProviderShards */\n      dup3\n        /* \"Cloudy-Blockchain/contracts/NewCloudy.sol\":8542:8543  i */\n      dup3\n        /* \"Cloudy-Blockchain/contracts/NewCloudy.sol\":8520:8544  currentProviderShards[i] */\n      dup2\n      sload\n      dup2\n      lt\n      tag_201\n      jumpi\n      tag_202\n      tag_180\n      jump\t// in\n    tag_202:\n    tag_201:\n      swap1\n      0x00\n      mstore\n      keccak256(0x00, 0x20)\n      add\n      sload\n        /* \"Cloudy-Blockchain/contracts/NewCloudy.sol\":8520:8556  currentProviderShards[i] == _shardId */\n      sub\n        /* \"Cloudy-Blockchain/contracts/NewCloudy.sol\":8516:8817  if (currentProviderShards[i] == _shardId) {... */\n      tag_204\n      jumpi\n        /* \"Cloudy-Blockchain/contracts/NewCloudy.sol\":8608:8629  currentProviderShards */\n      dup2\n        /* \"Cloudy-Blockchain/contracts/NewCloudy.sol\":8661:8662  1 */\n      0x01\n        /* \"Cloudy-Blockchain/contracts/NewCloudy.sol\":8630:8651  currentProviderShards */\n      dup4\n        /* \"Cloudy-Blockchain/contracts/NewCloudy.sol\":8630:8658  currentProviderShards.length */\n      dup1\n      sload\n      swap1\n      pop\n        /* \"Cloudy-Blockchain/contracts/NewCloudy.sol\":8630:8662  currentProviderShards.length - 1 */\n      tag_205\n      swap2\n      swap1\n      tag_206\n      jump\t// in\n    tag_205:\n        /* \"Cloudy-Blockchain/contracts/NewCloudy.sol\":8608:8663  currentProviderShards[currentProviderShards.length - 1] */\n      dup2\n      sload\n      dup2\n      lt\n      tag_207\n      jumpi\n      tag_208\n      tag_180\n      jump\t// in\n    tag_208:\n    tag_207:\n      swap1\n      0x00\n      mstore\n      keccak256(0x00, 0x20)\n      add\n      sload\n        /* \"Cloudy-Blockchain/contracts/NewCloudy.sol\":8581:8602  currentProviderShards */\n      dup3\n        /* \"Cloudy-Blockchain/contracts/NewCloudy.sol\":8603:8604  i */\n      dup3\n        /* \"Cloudy-Blockchain/contracts/NewCloudy.sol\":8581:8605  currentProviderShards[i] */\n      dup2\n      sload\n      dup2\n      lt\n      tag_210\n      jumpi\n      tag_211\n      tag_180\n      jump\t// in\n    tag_211:\n    tag_210:\n      swap1\n      0x00\n      mstore\n      keccak256(0x00, 0x20)\n      add\n        /* \"Cloudy-Blockchain/contracts/NewCloudy.sol\":8581:8663  currentProviderShards[i] = currentProviderShards[currentProviderShards.length - 1] */\n      dup2\n      swap1\n      sstore\n      pop\n        /* \"Cloudy-Blockchain/contracts/NewCloudy.sol\":8686:8707  currentProviderShards */\n      dup2\n        /* \"Cloudy-Blockchain/contracts/NewCloudy.sol\":8686:8713  currentProviderShards.pop() */\n      dup1\n      sload\n      dup1\n      tag_213\n      jumpi\n      tag_214\n      tag_215\n      jump\t// in\n    tag_214:\n    tag_213:\n      0x01\n      swap1\n      sub\n      dup2\n      dup2\n      swap1\n      0x00\n      mstore\n      keccak256(0x00, 0x20)\n      add\n      0x00\n      swap1\n      sstore\n      swap1\n      sstore\n        /* \"Cloudy-Blockchain/contracts/NewCloudy.sol\":8792:8797  break */\n      jump(tag_199)\n        /* \"Cloudy-Blockchain/contracts/NewCloudy.sol\":8516:8817  if (currentProviderShards[i] == _shardId) {... */\n    tag_204:\n        /* \"Cloudy-Blockchain/contracts/NewCloudy.sol\":8492:8495  i++ */\n      dup1\n      dup1\n      tag_217\n      swap1\n      tag_189\n      jump\t// in\n    tag_217:\n      swap2\n      pop\n      pop\n        /* \"Cloudy-Blockchain/contracts/NewCloudy.sol\":8438:8832  for (uint256 i = 0; i < currentProviderShards.length; i++) {... */\n      jump(tag_198)\n    tag_199:\n      pop\n        /* \"Cloudy-Blockchain/contracts/NewCloudy.sol\":8936:8952  _storageProvider */\n      dup3\n        /* \"Cloudy-Blockchain/contracts/NewCloudy.sol\":8901:8907  shards */\n      0x00\n        /* \"Cloudy-Blockchain/contracts/NewCloudy.sol\":8901:8917  shards[_shardId] */\n      dup1\n        /* \"Cloudy-Blockchain/contracts/NewCloudy.sol\":8908:8916  _shardId */\n      dup7\n        /* \"Cloudy-Blockchain/contracts/NewCloudy.sol\":8901:8917  shards[_shardId] */\n      dup2\n      mstore\n      0x20\n      add\n      swap1\n      dup2\n      mstore\n      0x20\n      add\n      0x00\n      keccak256\n        /* \"Cloudy-Blockchain/contracts/NewCloudy.sol\":8901:8933  shards[_shardId].storageProvider */\n      0x01\n      add\n      0x00\n        /* \"Cloudy-Blockchain/contracts/NewCloudy.sol\":8901:8952  shards[_shardId].storageProvider = _storageProvider */\n      0x0100\n      exp\n      dup2\n      sload\n      dup2\n      0xffffffffffffffffffffffffffffffffffffffff\n      mul\n      not\n      and\n      swap1\n      dup4\n      0xffffffffffffffffffffffffffffffffffffffff\n      and\n      mul\n      or\n      swap1\n      sstore\n      pop\n        /* \"Cloudy-Blockchain/contracts/NewCloudy.sol\":8967:8983  storageProviders */\n      0x02\n        /* \"Cloudy-Blockchain/contracts/NewCloudy.sol\":8967:9001  storageProviders[_storageProvider] */\n      0x00\n        /* \"Cloudy-Blockchain/contracts/NewCloudy.sol\":8984:9000  _storageProvider */\n      dup5\n        /* \"Cloudy-Blockchain/contracts/NewCloudy.sol\":8967:9001  storageProviders[_storageProvider] */\n      0xffffffffffffffffffffffffffffffffffffffff\n      and\n      0xffffffffffffffffffffffffffffffffffffffff\n      and\n      dup2\n      mstore\n      0x20\n      add\n      swap1\n      dup2\n      mstore\n      0x20\n      add\n      0x00\n      keccak256\n        /* \"Cloudy-Blockchain/contracts/NewCloudy.sol\":9007:9015  _shardId */\n      dup5\n        /* \"Cloudy-Blockchain/contracts/NewCloudy.sol\":8967:9016  storageProviders[_storageProvider].push(_shardId) */\n      swap1\n      dup1\n      0x01\n      dup2\n      sload\n      add\n      dup1\n      dup3\n      sstore\n      dup1\n      swap2\n      pop\n      pop\n      0x01\n      swap1\n      sub\n      swap1\n      0x00\n      mstore\n      keccak256(0x00, 0x20)\n      add\n      0x00\n      swap1\n      swap2\n      swap1\n      swap2\n      swap1\n      swap2\n      pop\n      sstore\n        /* \"Cloudy-Blockchain/contracts/NewCloudy.sol\":9038:9077  ShardStored(_shardId, _storageProvider) */\n      0x9126cbe7384024542fde94f05011d7713670628720b50555593f77cc21d1dc8c\n        /* \"Cloudy-Blockchain/contracts/NewCloudy.sol\":9050:9058  _shardId */\n      dup5\n        /* \"Cloudy-Blockchain/contracts/NewCloudy.sol\":9060:9076  _storageProvider */\n      dup5\n        /* \"Cloudy-Blockchain/contracts/NewCloudy.sol\":9038:9077  ShardStored(_shardId, _storageProvider) */\n      mload(0x40)\n      tag_219\n      swap3\n      swap2\n      swap1\n      tag_220\n      jump\t// in\n    tag_219:\n      mload(0x40)\n      dup1\n      swap2\n      sub\n      swap1\n      log1\n        /* \"Cloudy-Blockchain/contracts/NewCloudy.sol\":8267:9089  {... */\n      pop\n        /* \"Cloudy-Blockchain/contracts/NewCloudy.sol\":8226:9089  if (currentProvider != _storageProvider) {... */\n    tag_197:\n        /* \"Cloudy-Blockchain/contracts/NewCloudy.sol\":7961:9096  {... */\n      pop\n        /* \"Cloudy-Blockchain/contracts/NewCloudy.sol\":7877:9096  function assignStorageProvider(uint256 _shardId, address _storageProvider) external {... */\n      pop\n      pop\n      jump\t// out\n        /* \"Cloudy-Blockchain/contracts/NewCloudy.sol\":1625:1658  address[] public providersStoring */\n    tag_67:\n      0x08\n      dup2\n      dup2\n      sload\n      dup2\n      lt\n      tag_221\n      jumpi\n      0x00\n      dup1\n      revert\n    tag_221:\n      swap1\n      0x00\n      mstore\n      keccak256(0x00, 0x20)\n      add\n      0x00\n      swap2\n      pop\n      sload\n      swap1\n      0x0100\n      exp\n      swap1\n      div\n      0xffffffffffffffffffffffffffffffffffffffff\n      and\n      dup2\n      jump\t// out\n        /* \"Cloudy-Blockchain/contracts/NewCloudy.sol\":1470:1505  address[] public providersWithSpace */\n    tag_72:\n      0x07\n      dup2\n      dup2\n      sload\n      dup2\n      lt\n      tag_223\n      jumpi\n      0x00\n      dup1\n      revert\n    tag_223:\n      swap1\n      0x00\n      mstore\n      keccak256(0x00, 0x20)\n      add\n      0x00\n      swap2\n      pop\n      sload\n      swap1\n      0x0100\n      exp\n      swap1\n      div\n      0xffffffffffffffffffffffffffffffffffffffff\n      and\n      dup2\n      jump\t// out\n        /* \"Cloudy-Blockchain/contracts/NewCloudy.sol\":1764:1791  uint256 public shardCounter */\n    tag_75:\n      sload(0x09)\n      dup2\n      jump\t// out\n        /* \"Cloudy-Blockchain/contracts/NewCloudy.sol\":18999:19250  function getFileDetails(bytes32 _fileHash) external view returns (address, string memory, string memory, bytes32) {... */\n    tag_80:\n        /* \"Cloudy-Blockchain/contracts/NewCloudy.sol\":19065:19072  address */\n      0x00\n        /* \"Cloudy-Blockchain/contracts/NewCloudy.sol\":19074:19087  string memory */\n      0x60\n        /* \"Cloudy-Blockchain/contracts/NewCloudy.sol\":19089:19102  string memory */\n      dup1\n        /* \"Cloudy-Blockchain/contracts/NewCloudy.sol\":19104:19111  bytes32 */\n      0x00\n        /* \"Cloudy-Blockchain/contracts/NewCloudy.sol\":19124:19141  File storage file */\n      dup1\n        /* \"Cloudy-Blockchain/contracts/NewCloudy.sol\":19144:19155  filesByHash */\n      0x01\n        /* \"Cloudy-Blockchain/contracts/NewCloudy.sol\":19144:19166  filesByHash[_fileHash] */\n      0x00\n        /* \"Cloudy-Blockchain/contracts/NewCloudy.sol\":19156:19165  _fileHash */\n      dup8\n        /* \"Cloudy-Blockchain/contracts/NewCloudy.sol\":19144:19166  filesByHash[_fileHash] */\n      dup2\n      mstore\n      0x20\n      add\n      swap1\n      dup2\n      mstore\n      0x20\n      add\n      0x00\n      keccak256\n        /* \"Cloudy-Blockchain/contracts/NewCloudy.sol\":19124:19166  File storage file = filesByHash[_fileHash] */\n      swap1\n      pop\n        /* \"Cloudy-Blockchain/contracts/NewCloudy.sol\":19185:19189  file */\n      dup1\n        /* \"Cloudy-Blockchain/contracts/NewCloudy.sol\":19185:19195  file.owner */\n      0x00\n      add\n      0x00\n      swap1\n      sload\n      swap1\n      0x0100\n      exp\n      swap1\n      div\n      0xffffffffffffffffffffffffffffffffffffffff\n      and\n        /* \"Cloudy-Blockchain/contracts/NewCloudy.sol\":19197:19201  file */\n      dup2\n        /* \"Cloudy-Blockchain/contracts/NewCloudy.sol\":19197:19211  file.ownerName */\n      0x01\n      add\n        /* \"Cloudy-Blockchain/contracts/NewCloudy.sol\":19213:19217  file */\n      dup3\n        /* \"Cloudy-Blockchain/contracts/NewCloudy.sol\":19213:19226  file.fileName */\n      0x02\n      add\n        /* \"Cloudy-Blockchain/contracts/NewCloudy.sol\":19228:19232  file */\n      dup4\n        /* \"Cloudy-Blockchain/contracts/NewCloudy.sol\":19228:19241  file.fileHash */\n      0x03\n      add\n      sload\n        /* \"Cloudy-Blockchain/contracts/NewCloudy.sol\":19177:19242  return (file.owner, file.ownerName, file.fileName, file.fileHash) */\n      dup3\n      dup1\n      sload\n      tag_226\n      swap1\n      tag_160\n      jump\t// in\n    tag_226:\n      dup1\n      0x1f\n      add\n      0x20\n      dup1\n      swap2\n      div\n      mul\n      0x20\n      add\n      mload(0x40)\n      swap1\n      dup2\n      add\n      0x40\n      mstore\n      dup1\n      swap3\n      swap2\n      swap1\n      dup2\n      dup2\n      mstore\n      0x20\n      add\n      dup3\n      dup1\n      sload\n      tag_227\n      swap1\n      tag_160\n      jump\t// in\n    tag_227:\n      dup1\n      iszero\n      tag_228\n      jumpi\n      dup1\n      0x1f\n      lt\n      tag_229\n      jumpi\n      0x0100\n      dup1\n      dup4\n      sload\n      div\n      mul\n      dup4\n      mstore\n      swap2\n      0x20\n      add\n      swap2\n      jump(tag_228)\n    tag_229:\n      dup3\n      add\n      swap2\n      swap1\n      0x00\n      mstore\n      keccak256(0x00, 0x20)\n      swap1\n    tag_230:\n      dup2\n      sload\n      dup2\n      mstore\n      swap1\n      0x01\n      add\n      swap1\n      0x20\n      add\n      dup1\n      dup4\n      gt\n      tag_230\n      jumpi\n      dup3\n      swap1\n      sub\n      0x1f\n      and\n      dup3\n      add\n      swap2\n    tag_228:\n      pop\n      pop\n      pop\n      pop\n      pop\n      swap3\n      pop\n      dup2\n      dup1\n      sload\n      tag_231\n      swap1\n      tag_160\n      jump\t// in\n    tag_231:\n      dup1\n      0x1f\n      add\n      0x20\n      dup1\n      swap2\n      div\n      mul\n      0x20\n      add\n      mload(0x40)\n      swap1\n      dup2\n      add\n      0x40\n      mstore\n      dup1\n      swap3\n      swap2\n      swap1\n      dup2\n      dup2\n      mstore\n      0x20\n      add\n      dup3\n      dup1\n      sload\n      tag_232\n      swap1\n      tag_160\n      jump\t// in\n    tag_232:\n      dup1\n      iszero\n      tag_233\n      jumpi\n      dup1\n      0x1f\n      lt\n      tag_234\n      jumpi\n      0x0100\n      dup1\n      dup4\n      sload\n      div\n      mul\n      dup4\n      mstore\n      swap2\n      0x20\n      add\n      swap2\n      jump(tag_233)\n    tag_234:\n      dup3\n      add\n      swap2\n      swap1\n      0x00\n      mstore\n      keccak256(0x00, 0x20)\n      swap1\n    tag_235:\n      dup2\n      sload\n      dup2\n      mstore\n      swap1\n      0x01\n      add\n      swap1\n      0x20\n      add\n      dup1\n      dup4\n      gt\n      tag_235\n      jumpi\n      dup3\n      swap1\n      sub\n      0x1f\n      and\n      dup3\n      add\n      swap2\n    tag_233:\n      pop\n      pop\n      pop\n      pop\n      pop\n      swap2\n      pop\n      swap5\n      pop\n      swap5\n      pop\n      swap5\n      pop\n      swap5\n      pop\n      pop\n        /* \"Cloudy-Blockchain/contracts/NewCloudy.sol\":18999:19250  function getFileDetails(bytes32 _fileHash) external view returns (address, string memory, string memory, bytes32) {... */\n      swap2\n      swap4\n      pop\n      swap2\n      swap4\n      jump\t// out\n        /* \"Cloudy-Blockchain/contracts/NewCloudy.sol\":6710:7814  function deleteFile(bytes32 _fileHash) external {... */\n    tag_85:\n        /* \"Cloudy-Blockchain/contracts/NewCloudy.sol\":6777:6788  filesByHash */\n      0x01\n        /* \"Cloudy-Blockchain/contracts/NewCloudy.sol\":6777:6799  filesByHash[_fileHash] */\n      0x00\n        /* \"Cloudy-Blockchain/contracts/NewCloudy.sol\":6789:6798  _fileHash */\n      dup3\n        /* \"Cloudy-Blockchain/contracts/NewCloudy.sol\":6777:6799  filesByHash[_fileHash] */\n      dup2\n      mstore\n      0x20\n      add\n      swap1\n      dup2\n      mstore\n      0x20\n      add\n      0x00\n      keccak256\n        /* \"Cloudy-Blockchain/contracts/NewCloudy.sol\":6777:6806  filesByHash[_fileHash].exists */\n      0x04\n      add\n      0x00\n      swap1\n      sload\n      swap1\n      0x0100\n      exp\n      swap1\n      div\n      0xff\n      and\n        /* \"Cloudy-Blockchain/contracts/NewCloudy.sol\":6769:6830  require(filesByHash[_fileHash].exists, \"File does not exist\") */\n      tag_237\n      jumpi\n      mload(0x40)\n      0x08c379a000000000000000000000000000000000000000000000000000000000\n      dup2\n      mstore\n      0x04\n      add\n      tag_238\n      swap1\n      tag_239\n      jump\t// in\n    tag_238:\n      mload(0x40)\n      dup1\n      swap2\n      sub\n      swap1\n      revert\n    tag_237:\n        /* \"Cloudy-Blockchain/contracts/NewCloudy.sol\":6841:6866  File storage fileToDelete */\n      0x00\n        /* \"Cloudy-Blockchain/contracts/NewCloudy.sol\":6869:6880  filesByHash */\n      0x01\n        /* \"Cloudy-Blockchain/contracts/NewCloudy.sol\":6869:6891  filesByHash[_fileHash] */\n      0x00\n        /* \"Cloudy-Blockchain/contracts/NewCloudy.sol\":6881:6890  _fileHash */\n      dup4\n        /* \"Cloudy-Blockchain/contracts/NewCloudy.sol\":6869:6891  filesByHash[_fileHash] */\n      dup2\n      mstore\n      0x20\n      add\n      swap1\n      dup2\n      mstore\n      0x20\n      add\n      0x00\n      keccak256\n        /* \"Cloudy-Blockchain/contracts/NewCloudy.sol\":6841:6891  File storage fileToDelete = filesByHash[_fileHash] */\n      swap1\n      pop\n        /* \"Cloudy-Blockchain/contracts/NewCloudy.sol\":6924:6936  fileToDelete */\n      dup1\n        /* \"Cloudy-Blockchain/contracts/NewCloudy.sol\":6924:6942  fileToDelete.owner */\n      0x00\n      add\n      0x00\n      swap1\n      sload\n      swap1\n      0x0100\n      exp\n      swap1\n      div\n      0xffffffffffffffffffffffffffffffffffffffff\n      and\n        /* \"Cloudy-Blockchain/contracts/NewCloudy.sol\":6910:6942  msg.sender == fileToDelete.owner */\n      0xffffffffffffffffffffffffffffffffffffffff\n      and\n        /* \"Cloudy-Blockchain/contracts/NewCloudy.sol\":6910:6920  msg.sender */\n      caller\n        /* \"Cloudy-Blockchain/contracts/NewCloudy.sol\":6910:6942  msg.sender == fileToDelete.owner */\n      0xffffffffffffffffffffffffffffffffffffffff\n      and\n      eq\n        /* \"Cloudy-Blockchain/contracts/NewCloudy.sol\":6902:6986  require(msg.sender == fileToDelete.owner, \"Only the file owner can delete the file\") */\n      tag_240\n      jumpi\n      mload(0x40)\n      0x08c379a000000000000000000000000000000000000000000000000000000000\n      dup2\n      mstore\n      0x04\n      add\n      tag_241\n      swap1\n      tag_242\n      jump\t// in\n    tag_241:\n      mload(0x40)\n      dup1\n      swap2\n      sub\n      swap1\n      revert\n    tag_240:\n        /* \"Cloudy-Blockchain/contracts/NewCloudy.sol\":7064:7094  uint256[] storage fileShardIds */\n      0x00\n        /* \"Cloudy-Blockchain/contracts/NewCloudy.sol\":7097:7107  fileShards */\n      0x05\n        /* \"Cloudy-Blockchain/contracts/NewCloudy.sol\":7097:7118  fileShards[_fileHash] */\n      0x00\n        /* \"Cloudy-Blockchain/contracts/NewCloudy.sol\":7108:7117  _fileHash */\n      dup5\n        /* \"Cloudy-Blockchain/contracts/NewCloudy.sol\":7097:7118  fileShards[_fileHash] */\n      dup2\n      mstore\n      0x20\n      add\n      swap1\n      dup2\n      mstore\n      0x20\n      add\n      0x00\n      keccak256\n        /* \"Cloudy-Blockchain/contracts/NewCloudy.sol\":7064:7118  uint256[] storage fileShardIds = fileShards[_fileHash] */\n      swap1\n      pop\n        /* \"Cloudy-Blockchain/contracts/NewCloudy.sol\":7134:7143  uint256 i */\n      0x00\n        /* \"Cloudy-Blockchain/contracts/NewCloudy.sol\":7129:7236  for (uint256 i = 0; i < fileShardIds.length; i++) {... */\n    tag_243:\n        /* \"Cloudy-Blockchain/contracts/NewCloudy.sol\":7153:7165  fileShardIds */\n      dup2\n        /* \"Cloudy-Blockchain/contracts/NewCloudy.sol\":7153:7172  fileShardIds.length */\n      dup1\n      sload\n      swap1\n      pop\n        /* \"Cloudy-Blockchain/contracts/NewCloudy.sol\":7149:7150  i */\n      dup2\n        /* \"Cloudy-Blockchain/contracts/NewCloudy.sol\":7149:7172  i < fileShardIds.length */\n      lt\n        /* \"Cloudy-Blockchain/contracts/NewCloudy.sol\":7129:7236  for (uint256 i = 0; i < fileShardIds.length; i++) {... */\n      iszero\n      tag_244\n      jumpi\n        /* \"Cloudy-Blockchain/contracts/NewCloudy.sol\":7201:7207  shards */\n      0x00\n        /* \"Cloudy-Blockchain/contracts/NewCloudy.sol\":7201:7224  shards[fileShardIds[i]] */\n      dup1\n        /* \"Cloudy-Blockchain/contracts/NewCloudy.sol\":7208:7220  fileShardIds */\n      dup4\n        /* \"Cloudy-Blockchain/contracts/NewCloudy.sol\":7221:7222  i */\n      dup4\n        /* \"Cloudy-Blockchain/contracts/NewCloudy.sol\":7208:7223  fileShardIds[i] */\n      dup2\n      sload\n      dup2\n      lt\n      tag_246\n      jumpi\n      tag_247\n      tag_180\n      jump\t// in\n    tag_247:\n    tag_246:\n      swap1\n      0x00\n      mstore\n      keccak256(0x00, 0x20)\n      add\n      sload\n        /* \"Cloudy-Blockchain/contracts/NewCloudy.sol\":7201:7224  shards[fileShardIds[i]] */\n      dup2\n      mstore\n      0x20\n      add\n      swap1\n      dup2\n      mstore\n      0x20\n      add\n      0x00\n      keccak256\n      0x00\n        /* \"Cloudy-Blockchain/contracts/NewCloudy.sol\":7194:7224  delete shards[fileShardIds[i]] */\n      dup1\n      dup3\n      add\n      0x00\n      swap1\n      sstore\n      0x01\n      dup3\n      add\n      exp(0x0100, 0x00)\n      dup2\n      sload\n      swap1\n      0xffffffffffffffffffffffffffffffffffffffff\n      mul\n      not\n      and\n      swap1\n      sstore\n      0x02\n      dup3\n      add\n      0x00\n      swap1\n      sstore\n      0x03\n      dup3\n      add\n      0x00\n      tag_249\n      swap2\n      swap1\n      tag_250\n      jump\t// in\n    tag_249:\n      0x04\n      dup3\n      add\n      0x00\n      swap1\n      sstore\n      0x05\n      dup3\n      add\n      exp(0x0100, 0x00)\n      dup2\n      sload\n      swap1\n      0xff\n      mul\n      not\n      and\n      swap1\n      sstore\n      pop\n      pop\n        /* \"Cloudy-Blockchain/contracts/NewCloudy.sol\":7174:7177  i++ */\n      dup1\n      dup1\n      tag_251\n      swap1\n      tag_189\n      jump\t// in\n    tag_251:\n      swap2\n      pop\n      pop\n        /* \"Cloudy-Blockchain/contracts/NewCloudy.sol\":7129:7236  for (uint256 i = 0; i < fileShardIds.length; i++) {... */\n      jump(tag_243)\n    tag_244:\n      pop\n        /* \"Cloudy-Blockchain/contracts/NewCloudy.sol\":7253:7263  fileShards */\n      0x05\n        /* \"Cloudy-Blockchain/contracts/NewCloudy.sol\":7253:7274  fileShards[_fileHash] */\n      0x00\n        /* \"Cloudy-Blockchain/contracts/NewCloudy.sol\":7264:7273  _fileHash */\n      dup5\n        /* \"Cloudy-Blockchain/contracts/NewCloudy.sol\":7253:7274  fileShards[_fileHash] */\n      dup2\n      mstore\n      0x20\n      add\n      swap1\n      dup2\n      mstore\n      0x20\n      add\n      0x00\n      keccak256\n      0x00\n        /* \"Cloudy-Blockchain/contracts/NewCloudy.sol\":7246:7274  delete fileShards[_fileHash] */\n      tag_252\n      swap2\n      swap1\n      tag_253\n      jump\t// in\n    tag_252:\n        /* \"Cloudy-Blockchain/contracts/NewCloudy.sol\":7387:7420  bytes32[] storage ownerFileHashes */\n      0x00\n        /* \"Cloudy-Blockchain/contracts/NewCloudy.sol\":7423:7433  ownerFiles */\n      0x04\n        /* \"Cloudy-Blockchain/contracts/NewCloudy.sol\":7423:7445  ownerFiles[msg.sender] */\n      0x00\n        /* \"Cloudy-Blockchain/contracts/NewCloudy.sol\":7434:7444  msg.sender */\n      caller\n        /* \"Cloudy-Blockchain/contracts/NewCloudy.sol\":7423:7445  ownerFiles[msg.sender] */\n      0xffffffffffffffffffffffffffffffffffffffff\n      and\n      0xffffffffffffffffffffffffffffffffffffffff\n      and\n      dup2\n      mstore\n      0x20\n      add\n      swap1\n      dup2\n      mstore\n      0x20\n      add\n      0x00\n      keccak256\n        /* \"Cloudy-Blockchain/contracts/NewCloudy.sol\":7387:7445  bytes32[] storage ownerFileHashes = ownerFiles[msg.sender] */\n      swap1\n      pop\n        /* \"Cloudy-Blockchain/contracts/NewCloudy.sol\":7461:7470  uint256 i */\n      0x00\n        /* \"Cloudy-Blockchain/contracts/NewCloudy.sol\":7456:7656  for (uint256 i = 0; i < ownerFileHashes.length; i++) {... */\n    tag_254:\n        /* \"Cloudy-Blockchain/contracts/NewCloudy.sol\":7480:7495  ownerFileHashes */\n      dup2\n        /* \"Cloudy-Blockchain/contracts/NewCloudy.sol\":7480:7502  ownerFileHashes.length */\n      dup1\n      sload\n      swap1\n      pop\n        /* \"Cloudy-Blockchain/contracts/NewCloudy.sol\":7476:7477  i */\n      dup2\n        /* \"Cloudy-Blockchain/contracts/NewCloudy.sol\":7476:7502  i < ownerFileHashes.length */\n      lt\n        /* \"Cloudy-Blockchain/contracts/NewCloudy.sol\":7456:7656  for (uint256 i = 0; i < ownerFileHashes.length; i++) {... */\n      iszero\n      tag_255\n      jumpi\n        /* \"Cloudy-Blockchain/contracts/NewCloudy.sol\":7550:7559  _fileHash */\n      dup5\n        /* \"Cloudy-Blockchain/contracts/NewCloudy.sol\":7528:7543  ownerFileHashes */\n      dup3\n        /* \"Cloudy-Blockchain/contracts/NewCloudy.sol\":7544:7545  i */\n      dup3\n        /* \"Cloudy-Blockchain/contracts/NewCloudy.sol\":7528:7546  ownerFileHashes[i] */\n      dup2\n      sload\n      dup2\n      lt\n      tag_257\n      jumpi\n      tag_258\n      tag_180\n      jump\t// in\n    tag_258:\n    tag_257:\n      swap1\n      0x00\n      mstore\n      keccak256(0x00, 0x20)\n      add\n      sload\n        /* \"Cloudy-Blockchain/contracts/NewCloudy.sol\":7528:7559  ownerFileHashes[i] == _fileHash */\n      sub\n        /* \"Cloudy-Blockchain/contracts/NewCloudy.sol\":7524:7645  if (ownerFileHashes[i] == _fileHash) {... */\n      tag_260\n      jumpi\n        /* \"Cloudy-Blockchain/contracts/NewCloudy.sol\":7587:7602  ownerFileHashes */\n      dup2\n        /* \"Cloudy-Blockchain/contracts/NewCloudy.sol\":7603:7604  i */\n      dup2\n        /* \"Cloudy-Blockchain/contracts/NewCloudy.sol\":7587:7605  ownerFileHashes[i] */\n      dup2\n      sload\n      dup2\n      lt\n      tag_261\n      jumpi\n      tag_262\n      tag_180\n      jump\t// in\n    tag_262:\n    tag_261:\n      swap1\n      0x00\n      mstore\n      keccak256(0x00, 0x20)\n      add\n        /* \"Cloudy-Blockchain/contracts/NewCloudy.sol\":7580:7605  delete ownerFileHashes[i] */\n      0x00\n      swap1\n      sstore\n        /* \"Cloudy-Blockchain/contracts/NewCloudy.sol\":7624:7629  break */\n      jump(tag_255)\n        /* \"Cloudy-Blockchain/contracts/NewCloudy.sol\":7524:7645  if (ownerFileHashes[i] == _fileHash) {... */\n    tag_260:\n        /* \"Cloudy-Blockchain/contracts/NewCloudy.sol\":7504:7507  i++ */\n      dup1\n      dup1\n      tag_264\n      swap1\n      tag_189\n      jump\t// in\n    tag_264:\n      swap2\n      pop\n      pop\n        /* \"Cloudy-Blockchain/contracts/NewCloudy.sol\":7456:7656  for (uint256 i = 0; i < ownerFileHashes.length; i++) {... */\n      jump(tag_254)\n    tag_255:\n      pop\n        /* \"Cloudy-Blockchain/contracts/NewCloudy.sol\":7732:7743  filesByHash */\n      0x01\n        /* \"Cloudy-Blockchain/contracts/NewCloudy.sol\":7732:7754  filesByHash[_fileHash] */\n      0x00\n        /* \"Cloudy-Blockchain/contracts/NewCloudy.sol\":7744:7753  _fileHash */\n      dup6\n        /* \"Cloudy-Blockchain/contracts/NewCloudy.sol\":7732:7754  filesByHash[_fileHash] */\n      dup2\n      mstore\n      0x20\n      add\n      swap1\n      dup2\n      mstore\n      0x20\n      add\n      0x00\n      keccak256\n      0x00\n        /* \"Cloudy-Blockchain/contracts/NewCloudy.sol\":7725:7754  delete filesByHash[_fileHash] */\n      dup1\n      dup3\n      add\n      exp(0x0100, 0x00)\n      dup2\n      sload\n      swap1\n      0xffffffffffffffffffffffffffffffffffffffff\n      mul\n      not\n      and\n      swap1\n      sstore\n      0x01\n      dup3\n      add\n      0x00\n      tag_265\n      swap2\n      swap1\n      tag_266\n      jump\t// in\n    tag_265:\n      0x02\n      dup3\n      add\n      0x00\n      tag_267\n      swap2\n      swap1\n      tag_266\n      jump\t// in\n    tag_267:\n      0x03\n      dup3\n      add\n      0x00\n      swap1\n      sstore\n      0x04\n      dup3\n      add\n      exp(0x0100, 0x00)\n      dup2\n      sload\n      swap1\n      0xff\n      mul\n      not\n      and\n      swap1\n      sstore\n      pop\n      pop\n        /* \"Cloudy-Blockchain/contracts/NewCloudy.sol\":7784:7794  msg.sender */\n      caller\n        /* \"Cloudy-Blockchain/contracts/NewCloudy.sol\":7772:7806  FileDeleted(msg.sender, _fileHash) */\n      0xffffffffffffffffffffffffffffffffffffffff\n      and\n      0x0b61407fda4ea870fbaa77e68ef9d3f6e3e78eaa5c4fa4674d5ac417f56055f9\n        /* \"Cloudy-Blockchain/contracts/NewCloudy.sol\":7796:7805  _fileHash */\n      dup6\n        /* \"Cloudy-Blockchain/contracts/NewCloudy.sol\":7772:7806  FileDeleted(msg.sender, _fileHash) */\n      mload(0x40)\n      tag_268\n      swap2\n      swap1\n      tag_144\n      jump\t// in\n    tag_268:\n      mload(0x40)\n      dup1\n      swap2\n      sub\n      swap1\n      log2\n        /* \"Cloudy-Blockchain/contracts/NewCloudy.sol\":6758:7814  {... */\n      pop\n      pop\n      pop\n        /* \"Cloudy-Blockchain/contracts/NewCloudy.sol\":6710:7814  function deleteFile(bytes32 _fileHash) external {... */\n      pop\n      jump\t// out\n        /* \"Cloudy-Blockchain/contracts/NewCloudy.sol\":16129:16664  function auditShard(uint256 _shardId) external {... */\n    tag_88:\n        /* \"Cloudy-Blockchain/contracts/NewCloudy.sol\":16187:16206  Shard storage shard */\n      0x00\n        /* \"Cloudy-Blockchain/contracts/NewCloudy.sol\":16209:16215  shards */\n      dup1\n        /* \"Cloudy-Blockchain/contracts/NewCloudy.sol\":16209:16225  shards[_shardId] */\n      0x00\n        /* \"Cloudy-Blockchain/contracts/NewCloudy.sol\":16216:16224  _shardId */\n      dup4\n        /* \"Cloudy-Blockchain/contracts/NewCloudy.sol\":16209:16225  shards[_shardId] */\n      dup2\n      mstore\n      0x20\n      add\n      swap1\n      dup2\n      mstore\n      0x20\n      add\n      0x00\n      keccak256\n        /* \"Cloudy-Blockchain/contracts/NewCloudy.sol\":16187:16225  Shard storage shard = shards[_shardId] */\n      swap1\n      pop\n        /* \"Cloudy-Blockchain/contracts/NewCloudy.sol\":16244:16249  shard */\n      dup1\n        /* \"Cloudy-Blockchain/contracts/NewCloudy.sol\":16244:16256  shard.exists */\n      0x05\n      add\n      0x00\n      swap1\n      sload\n      swap1\n      0x0100\n      exp\n      swap1\n      div\n      0xff\n      and\n        /* \"Cloudy-Blockchain/contracts/NewCloudy.sol\":16236:16281  require(shard.exists, \"Shard does not exist\") */\n      tag_270\n      jumpi\n      mload(0x40)\n      0x08c379a000000000000000000000000000000000000000000000000000000000\n      dup2\n      mstore\n      0x04\n      add\n      tag_271\n      swap1\n      tag_193\n      jump\t// in\n    tag_271:\n      mload(0x40)\n      dup1\n      swap2\n      sub\n      swap1\n      revert\n    tag_270:\n        /* \"Cloudy-Blockchain/contracts/NewCloudy.sol\":16294:16306  bool isValid */\n      0x00\n        /* \"Cloudy-Blockchain/contracts/NewCloudy.sol\":16309:16331  isShardValid(_shardId) */\n      tag_272\n        /* \"Cloudy-Blockchain/contracts/NewCloudy.sol\":16322:16330  _shardId */\n      dup4\n        /* \"Cloudy-Blockchain/contracts/NewCloudy.sol\":16309:16321  isShardValid */\n      tag_182\n        /* \"Cloudy-Blockchain/contracts/NewCloudy.sol\":16309:16331  isShardValid(_shardId) */\n      jump\t// in\n    tag_272:\n        /* \"Cloudy-Blockchain/contracts/NewCloudy.sol\":16294:16331  bool isValid = isShardValid(_shardId) */\n      swap1\n      pop\n        /* \"Cloudy-Blockchain/contracts/NewCloudy.sol\":16349:16403  ShardAudited(_shardId, shard.storageProvider, isValid) */\n      0xe2287538273600866181d00327199ba2737bdd326a6f08436f117f6a6c0e87a0\n        /* \"Cloudy-Blockchain/contracts/NewCloudy.sol\":16362:16370  _shardId */\n      dup4\n        /* \"Cloudy-Blockchain/contracts/NewCloudy.sol\":16372:16377  shard */\n      dup4\n        /* \"Cloudy-Blockchain/contracts/NewCloudy.sol\":16372:16393  shard.storageProvider */\n      0x01\n      add\n      0x00\n      swap1\n      sload\n      swap1\n      0x0100\n      exp\n      swap1\n      div\n      0xffffffffffffffffffffffffffffffffffffffff\n      and\n        /* \"Cloudy-Blockchain/contracts/NewCloudy.sol\":16395:16402  isValid */\n      dup4\n        /* \"Cloudy-Blockchain/contracts/NewCloudy.sol\":16349:16403  ShardAudited(_shardId, shard.storageProvider, isValid) */\n      mload(0x40)\n      tag_273\n      swap4\n      swap3\n      swap2\n      swap1\n      tag_184\n      jump\t// in\n    tag_273:\n      mload(0x40)\n      dup1\n      swap2\n      sub\n      swap1\n      log1\n        /* \"Cloudy-Blockchain/contracts/NewCloudy.sol\":16420:16427  isValid */\n      dup1\n        /* \"Cloudy-Blockchain/contracts/NewCloudy.sol\":16416:16657  if (isValid) {... */\n      iszero\n      tag_274\n      jumpi\n        /* \"Cloudy-Blockchain/contracts/NewCloudy.sol\":16488:16520  payReward(shard.storageProvider) */\n      tag_275\n        /* \"Cloudy-Blockchain/contracts/NewCloudy.sol\":16498:16503  shard */\n      dup3\n        /* \"Cloudy-Blockchain/contracts/NewCloudy.sol\":16498:16519  shard.storageProvider */\n      0x01\n      add\n      0x00\n      swap1\n      sload\n      swap1\n      0x0100\n      exp\n      swap1\n      div\n      0xffffffffffffffffffffffffffffffffffffffff\n      and\n        /* \"Cloudy-Blockchain/contracts/NewCloudy.sol\":16488:16497  payReward */\n      tag_187\n        /* \"Cloudy-Blockchain/contracts/NewCloudy.sol\":16488:16520  payReward(shard.storageProvider) */\n      jump\t// in\n    tag_275:\n        /* \"Cloudy-Blockchain/contracts/NewCloudy.sol\":16416:16657  if (isValid) {... */\n      jump(tag_276)\n    tag_274:\n        /* \"Cloudy-Blockchain/contracts/NewCloudy.sol\":16612:16645  removeShardFromProvider(_shardId) */\n      tag_277\n        /* \"Cloudy-Blockchain/contracts/NewCloudy.sol\":16636:16644  _shardId */\n      dup4\n        /* \"Cloudy-Blockchain/contracts/NewCloudy.sol\":16612:16635  removeShardFromProvider */\n      tag_278\n        /* \"Cloudy-Blockchain/contracts/NewCloudy.sol\":16612:16645  removeShardFromProvider(_shardId) */\n      jump\t// in\n    tag_277:\n        /* \"Cloudy-Blockchain/contracts/NewCloudy.sol\":16416:16657  if (isValid) {... */\n    tag_276:\n        /* \"Cloudy-Blockchain/contracts/NewCloudy.sol\":16176:16664  {... */\n      pop\n      pop\n        /* \"Cloudy-Blockchain/contracts/NewCloudy.sol\":16129:16664  function auditShard(uint256 _shardId) external {... */\n      pop\n      jump\t// out\n        /* \"Cloudy-Blockchain/contracts/NewCloudy.sol\":1015:1073  mapping(address => StorageProvider) public providerDetails */\n    tag_92:\n      mstore(0x20, 0x03)\n      dup1\n      0x00\n      mstore\n      keccak256(0x00, 0x40)\n      0x00\n      swap2\n      pop\n      swap1\n      pop\n      dup1\n      0x00\n      add\n      sload\n      swap1\n      dup1\n      0x01\n      add\n      0x00\n      swap1\n      sload\n      swap1\n      0x0100\n      exp\n      swap1\n      div\n      0xffffffffffffffffffffffffffffffffffffffff\n      and\n      swap1\n      dup1\n      0x02\n      add\n      sload\n      swap1\n      dup1\n      0x03\n      add\n      sload\n      swap1\n      dup1\n      0x04\n      add\n      0x00\n      swap1\n      sload\n      swap1\n      0x0100\n      exp\n      swap1\n      div\n      0xff\n      and\n      swap1\n      pop\n      dup6\n      jump\t// out\n        /* \"Cloudy-Blockchain/contracts/NewCloudy.sol\":11224:11669  function addStorageProvider(bytes32 _ip, address _walletAddress, uint256 _maximumStorageSize) external {... */\n    tag_98:\n        /* \"Cloudy-Blockchain/contracts/NewCloudy.sol\":11347:11362  providerDetails */\n      0x03\n        /* \"Cloudy-Blockchain/contracts/NewCloudy.sol\":11347:11374  providerDetails[msg.sender] */\n      0x00\n        /* \"Cloudy-Blockchain/contracts/NewCloudy.sol\":11363:11373  msg.sender */\n      caller\n        /* \"Cloudy-Blockchain/contracts/NewCloudy.sol\":11347:11374  providerDetails[msg.sender] */\n      0xffffffffffffffffffffffffffffffffffffffff\n      and\n      0xffffffffffffffffffffffffffffffffffffffff\n      and\n      dup2\n      mstore\n      0x20\n      add\n      swap1\n      dup2\n      mstore\n      0x20\n      add\n      0x00\n      keccak256\n        /* \"Cloudy-Blockchain/contracts/NewCloudy.sol\":11347:11384  providerDetails[msg.sender].isStoring */\n      0x04\n      add\n      0x00\n      swap1\n      sload\n      swap1\n      0x0100\n      exp\n      swap1\n      div\n      0xff\n      and\n        /* \"Cloudy-Blockchain/contracts/NewCloudy.sol\":11346:11384  !providerDetails[msg.sender].isStoring */\n      iszero\n        /* \"Cloudy-Blockchain/contracts/NewCloudy.sol\":11338:11420  require(!providerDetails[msg.sender].isStoring, \"Storage provider already exists\") */\n      tag_280\n      jumpi\n      mload(0x40)\n      0x08c379a000000000000000000000000000000000000000000000000000000000\n      dup2\n      mstore\n      0x04\n      add\n      tag_281\n      swap1\n      tag_282\n      jump\t// in\n    tag_281:\n      mload(0x40)\n      dup1\n      swap2\n      sub\n      swap1\n      revert\n    tag_280:\n        /* \"Cloudy-Blockchain/contracts/NewCloudy.sol\":11463:11565  StorageProvider(_ip, _walletAddress, _maximumStorageSize, _maximumStorageSize, true, new uint256[](0)) */\n      mload(0x40)\n      dup1\n      0xc0\n      add\n      0x40\n      mstore\n      dup1\n        /* \"Cloudy-Blockchain/contracts/NewCloudy.sol\":11479:11482  _ip */\n      dup5\n        /* \"Cloudy-Blockchain/contracts/NewCloudy.sol\":11463:11565  StorageProvider(_ip, _walletAddress, _maximumStorageSize, _maximumStorageSize, true, new uint256[](0)) */\n      dup2\n      mstore\n      0x20\n      add\n        /* \"Cloudy-Blockchain/contracts/NewCloudy.sol\":11484:11498  _walletAddress */\n      dup4\n        /* \"Cloudy-Blockchain/contracts/NewCloudy.sol\":11463:11565  StorageProvider(_ip, _walletAddress, _maximumStorageSize, _maximumStorageSize, true, new uint256[](0)) */\n      0xffffffffffffffffffffffffffffffffffffffff\n      and\n      dup2\n      mstore\n      0x20\n      add\n        /* \"Cloudy-Blockchain/contracts/NewCloudy.sol\":11500:11519  _maximumStorageSize */\n      dup3\n        /* \"Cloudy-Blockchain/contracts/NewCloudy.sol\":11463:11565  StorageProvider(_ip, _walletAddress, _maximumStorageSize, _maximumStorageSize, true, new uint256[](0)) */\n      dup2\n      mstore\n      0x20\n      add\n        /* \"Cloudy-Blockchain/contracts/NewCloudy.sol\":11521:11540  _maximumStorageSize */\n      dup3\n        /* \"Cloudy-Blockchain/contracts/NewCloudy.sol\":11463:11565  StorageProvider(_ip, _walletAddress, _maximumStorageSize, _maximumStorageSize, true, new uint256[](0)) */\n      dup2\n      mstore\n      0x20\n      add\n        /* \"Cloudy-Blockchain/contracts/NewCloudy.sol\":11542:11546  true */\n      0x01\n        /* \"Cloudy-Blockchain/contracts/NewCloudy.sol\":11463:11565  StorageProvider(_ip, _walletAddress, _maximumStorageSize, _maximumStorageSize, true, new uint256[](0)) */\n      iszero\n      iszero\n      dup2\n      mstore\n      0x20\n      add\n        /* \"Cloudy-Blockchain/contracts/NewCloudy.sol\":11562:11563  0 */\n      0x00\n        /* \"Cloudy-Blockchain/contracts/NewCloudy.sol\":11548:11564  new uint256[](0) */\n      0xffffffffffffffff\n      dup2\n      gt\n      iszero\n      tag_283\n      jumpi\n      tag_284\n      tag_285\n      jump\t// in\n    tag_284:\n    tag_283:\n      mload(0x40)\n      swap1\n      dup1\n      dup3\n      mstore\n      dup1\n      0x20\n      mul\n      0x20\n      add\n      dup3\n      add\n      0x40\n      mstore\n      dup1\n      iszero\n      tag_286\n      jumpi\n      dup2\n      0x20\n      add\n      0x20\n      dup3\n      mul\n      dup1\n      calldatasize\n      dup4\n      calldatacopy\n      dup1\n      dup3\n      add\n      swap2\n      pop\n      pop\n      swap1\n      pop\n    tag_286:\n      pop\n        /* \"Cloudy-Blockchain/contracts/NewCloudy.sol\":11463:11565  StorageProvider(_ip, _walletAddress, _maximumStorageSize, _maximumStorageSize, true, new uint256[](0)) */\n      dup2\n      mstore\n      pop\n        /* \"Cloudy-Blockchain/contracts/NewCloudy.sol\":11433:11448  providerDetails */\n      0x03\n        /* \"Cloudy-Blockchain/contracts/NewCloudy.sol\":11433:11460  providerDetails[msg.sender] */\n      0x00\n        /* \"Cloudy-Blockchain/contracts/NewCloudy.sol\":11449:11459  msg.sender */\n      caller\n        /* \"Cloudy-Blockchain/contracts/NewCloudy.sol\":11433:11460  providerDetails[msg.sender] */\n      0xffffffffffffffffffffffffffffffffffffffff\n      and\n      0xffffffffffffffffffffffffffffffffffffffff\n      and\n      dup2\n      mstore\n      0x20\n      add\n      swap1\n      dup2\n      mstore\n      0x20\n      add\n      0x00\n      keccak256\n        /* \"Cloudy-Blockchain/contracts/NewCloudy.sol\":11433:11565  providerDetails[msg.sender] = StorageProvider(_ip, _walletAddress, _maximumStorageSize, _maximumStorageSize, true, new uint256[](0)) */\n      0x00\n      dup3\n      add\n      mload\n      dup2\n      0x00\n      add\n      sstore\n      0x20\n      dup3\n      add\n      mload\n      dup2\n      0x01\n      add\n      exp(0x0100, 0x00)\n      dup2\n      sload\n      dup2\n      0xffffffffffffffffffffffffffffffffffffffff\n      mul\n      not\n      and\n      swap1\n      dup4\n      0xffffffffffffffffffffffffffffffffffffffff\n      and\n      mul\n      or\n      swap1\n      sstore\n      pop\n      0x40\n      dup3\n      add\n      mload\n      dup2\n      0x02\n      add\n      sstore\n      0x60\n      dup3\n      add\n      mload\n      dup2\n      0x03\n      add\n      sstore\n      0x80\n      dup3\n      add\n      mload\n      dup2\n      0x04\n      add\n      exp(0x0100, 0x00)\n      dup2\n      sload\n      dup2\n      0xff\n      mul\n      not\n      and\n      swap1\n      dup4\n      iszero\n      iszero\n      mul\n      or\n      swap1\n      sstore\n      pop\n      0xa0\n      dup3\n      add\n      mload\n      dup2\n      0x05\n      add\n      swap1\n      dup1\n      mload\n      swap1\n      0x20\n      add\n      swap1\n      tag_287\n      swap3\n      swap2\n      swap1\n      tag_288\n      jump\t// in\n    tag_287:\n      pop\n      swap1\n      pop\n      pop\n        /* \"Cloudy-Blockchain/contracts/NewCloudy.sol\":11576:11594  providersWithSpace */\n      0x07\n        /* \"Cloudy-Blockchain/contracts/NewCloudy.sol\":11600:11610  msg.sender */\n      caller\n        /* \"Cloudy-Blockchain/contracts/NewCloudy.sol\":11576:11611  providersWithSpace.push(msg.sender) */\n      swap1\n      dup1\n      0x01\n      dup2\n      sload\n      add\n      dup1\n      dup3\n      sstore\n      dup1\n      swap2\n      pop\n      pop\n      0x01\n      swap1\n      sub\n      swap1\n      0x00\n      mstore\n      keccak256(0x00, 0x20)\n      add\n      0x00\n      swap1\n      swap2\n      swap1\n      swap2\n      swap1\n      swap2\n      0x0100\n      exp\n      dup2\n      sload\n      dup2\n      0xffffffffffffffffffffffffffffffffffffffff\n      mul\n      not\n      and\n      swap1\n      dup4\n      0xffffffffffffffffffffffffffffffffffffffff\n      and\n      mul\n      or\n      swap1\n      sstore\n      pop\n        /* \"Cloudy-Blockchain/contracts/NewCloudy.sol\":11650:11660  msg.sender */\n      caller\n        /* \"Cloudy-Blockchain/contracts/NewCloudy.sol\":11629:11661  StorageProviderAdded(msg.sender) */\n      0xffffffffffffffffffffffffffffffffffffffff\n      and\n      0x2a9cd1cd0e4622d13305bf749ce27b6a68630e814956fe6cf8a28b9bf9b010f4\n      mload(0x40)\n      mload(0x40)\n      dup1\n      swap2\n      sub\n      swap1\n      log2\n        /* \"Cloudy-Blockchain/contracts/NewCloudy.sol\":11224:11669  function addStorageProvider(bytes32 _ip, address _walletAddress, uint256 _maximumStorageSize) external {... */\n      pop\n      pop\n      pop\n      jump\t// out\n        /* \"Cloudy-Blockchain/contracts/NewCloudy.sol\":17450:18518  function deleteStorageProvider(address _storageProvider) external {... */\n    tag_101:\n        /* \"Cloudy-Blockchain/contracts/NewCloudy.sol\":17535:17550  providerDetails */\n      0x03\n        /* \"Cloudy-Blockchain/contracts/NewCloudy.sol\":17535:17568  providerDetails[_storageProvider] */\n      0x00\n        /* \"Cloudy-Blockchain/contracts/NewCloudy.sol\":17551:17567  _storageProvider */\n      dup3\n        /* \"Cloudy-Blockchain/contracts/NewCloudy.sol\":17535:17568  providerDetails[_storageProvider] */\n      0xffffffffffffffffffffffffffffffffffffffff\n      and\n      0xffffffffffffffffffffffffffffffffffffffff\n      and\n      dup2\n      mstore\n      0x20\n      add\n      swap1\n      dup2\n      mstore\n      0x20\n      add\n      0x00\n      keccak256\n        /* \"Cloudy-Blockchain/contracts/NewCloudy.sol\":17535:17578  providerDetails[_storageProvider].isStoring */\n      0x04\n      add\n      0x00\n      swap1\n      sload\n      swap1\n      0x0100\n      exp\n      swap1\n      div\n      0xff\n      and\n        /* \"Cloudy-Blockchain/contracts/NewCloudy.sol\":17527:17614  require(providerDetails[_storageProvider].isStoring, \"Storage provider does not exist\") */\n      tag_291\n      jumpi\n      mload(0x40)\n      0x08c379a000000000000000000000000000000000000000000000000000000000\n      dup2\n      mstore\n      0x04\n      add\n      tag_292\n      swap1\n      tag_196\n      jump\t// in\n    tag_292:\n      mload(0x40)\n      dup1\n      swap2\n      sub\n      swap1\n      revert\n    tag_291:\n        /* \"Cloudy-Blockchain/contracts/NewCloudy.sol\":17692:17707  providerDetails */\n      0x03\n        /* \"Cloudy-Blockchain/contracts/NewCloudy.sol\":17692:17725  providerDetails[_storageProvider] */\n      0x00\n        /* \"Cloudy-Blockchain/contracts/NewCloudy.sol\":17708:17724  _storageProvider */\n      dup3\n        /* \"Cloudy-Blockchain/contracts/NewCloudy.sol\":17692:17725  providerDetails[_storageProvider] */\n      0xffffffffffffffffffffffffffffffffffffffff\n      and\n      0xffffffffffffffffffffffffffffffffffffffff\n      and\n      dup2\n      mstore\n      0x20\n      add\n      swap1\n      dup2\n      mstore\n      0x20\n      add\n      0x00\n      keccak256\n      0x00\n        /* \"Cloudy-Blockchain/contracts/NewCloudy.sol\":17685:17725  delete providerDetails[_storageProvider] */\n      dup1\n      dup3\n      add\n      0x00\n      swap1\n      sstore\n      0x01\n      dup3\n      add\n      exp(0x0100, 0x00)\n      dup2\n      sload\n      swap1\n      0xffffffffffffffffffffffffffffffffffffffff\n      mul\n      not\n      and\n      swap1\n      sstore\n      0x02\n      dup3\n      add\n      0x00\n      swap1\n      sstore\n      0x03\n      dup3\n      add\n      0x00\n      swap1\n      sstore\n      0x04\n      dup3\n      add\n      exp(0x0100, 0x00)\n      dup2\n      sload\n      swap1\n      0xff\n      mul\n      not\n      and\n      swap1\n      sstore\n      0x05\n      dup3\n      add\n      0x00\n      tag_293\n      swap2\n      swap1\n      tag_253\n      jump\t// in\n    tag_293:\n      pop\n      pop\n        /* \"Cloudy-Blockchain/contracts/NewCloudy.sol\":17743:17759  storageProviders */\n      0x02\n        /* \"Cloudy-Blockchain/contracts/NewCloudy.sol\":17743:17777  storageProviders[_storageProvider] */\n      0x00\n        /* \"Cloudy-Blockchain/contracts/NewCloudy.sol\":17760:17776  _storageProvider */\n      dup3\n        /* \"Cloudy-Blockchain/contracts/NewCloudy.sol\":17743:17777  storageProviders[_storageProvider] */\n      0xffffffffffffffffffffffffffffffffffffffff\n      and\n      0xffffffffffffffffffffffffffffffffffffffff\n      and\n      dup2\n      mstore\n      0x20\n      add\n      swap1\n      dup2\n      mstore\n      0x20\n      add\n      0x00\n      keccak256\n      0x00\n        /* \"Cloudy-Blockchain/contracts/NewCloudy.sol\":17736:17777  delete storageProviders[_storageProvider] */\n      tag_294\n      swap2\n      swap1\n      tag_253\n      jump\t// in\n    tag_294:\n        /* \"Cloudy-Blockchain/contracts/NewCloudy.sol\":17851:17860  uint256 i */\n      0x00\n        /* \"Cloudy-Blockchain/contracts/NewCloudy.sol\":17846:18149  for (uint256 i = 0; i < providersWithSpace.length; i++) {... */\n    tag_295:\n        /* \"Cloudy-Blockchain/contracts/NewCloudy.sol\":17870:17888  providersWithSpace */\n      0x07\n        /* \"Cloudy-Blockchain/contracts/NewCloudy.sol\":17870:17895  providersWithSpace.length */\n      dup1\n      sload\n      swap1\n      pop\n        /* \"Cloudy-Blockchain/contracts/NewCloudy.sol\":17866:17867  i */\n      dup2\n        /* \"Cloudy-Blockchain/contracts/NewCloudy.sol\":17866:17895  i < providersWithSpace.length */\n      lt\n        /* \"Cloudy-Blockchain/contracts/NewCloudy.sol\":17846:18149  for (uint256 i = 0; i < providersWithSpace.length; i++) {... */\n      iszero\n      tag_296\n      jumpi\n        /* \"Cloudy-Blockchain/contracts/NewCloudy.sol\":17945:17961  _storageProvider */\n      dup2\n        /* \"Cloudy-Blockchain/contracts/NewCloudy.sol\":17921:17961  providersWithSpace[i] ==_storageProvider */\n      0xffffffffffffffffffffffffffffffffffffffff\n      and\n        /* \"Cloudy-Blockchain/contracts/NewCloudy.sol\":17921:17939  providersWithSpace */\n      0x07\n        /* \"Cloudy-Blockchain/contracts/NewCloudy.sol\":17940:17941  i */\n      dup3\n        /* \"Cloudy-Blockchain/contracts/NewCloudy.sol\":17921:17942  providersWithSpace[i] */\n      dup2\n      sload\n      dup2\n      lt\n      tag_298\n      jumpi\n      tag_299\n      tag_180\n      jump\t// in\n    tag_299:\n    tag_298:\n      swap1\n      0x00\n      mstore\n      keccak256(0x00, 0x20)\n      add\n      0x00\n      swap1\n      sload\n      swap1\n      0x0100\n      exp\n      swap1\n      div\n      0xffffffffffffffffffffffffffffffffffffffff\n      and\n        /* \"Cloudy-Blockchain/contracts/NewCloudy.sol\":17921:17961  providersWithSpace[i] ==_storageProvider */\n      0xffffffffffffffffffffffffffffffffffffffff\n      and\n      sub\n        /* \"Cloudy-Blockchain/contracts/NewCloudy.sol\":17917:18138  if (providersWithSpace[i] ==_storageProvider) {... */\n      tag_301\n      jumpi\n        /* \"Cloudy-Blockchain/contracts/NewCloudy.sol\":18006:18024  providersWithSpace */\n      0x07\n        /* \"Cloudy-Blockchain/contracts/NewCloudy.sol\":18053:18054  1 */\n      0x01\n        /* \"Cloudy-Blockchain/contracts/NewCloudy.sol\":18025:18043  providersWithSpace */\n      0x07\n        /* \"Cloudy-Blockchain/contracts/NewCloudy.sol\":18025:18050  providersWithSpace.length */\n      dup1\n      sload\n      swap1\n      pop\n        /* \"Cloudy-Blockchain/contracts/NewCloudy.sol\":18025:18054  providersWithSpace.length - 1 */\n      tag_302\n      swap2\n      swap1\n      tag_206\n      jump\t// in\n    tag_302:\n        /* \"Cloudy-Blockchain/contracts/NewCloudy.sol\":18006:18055  providersWithSpace[providersWithSpace.length - 1] */\n      dup2\n      sload\n      dup2\n      lt\n      tag_303\n      jumpi\n      tag_304\n      tag_180\n      jump\t// in\n    tag_304:\n    tag_303:\n      swap1\n      0x00\n      mstore\n      keccak256(0x00, 0x20)\n      add\n      0x00\n      swap1\n      sload\n      swap1\n      0x0100\n      exp\n      swap1\n      div\n      0xffffffffffffffffffffffffffffffffffffffff\n      and\n        /* \"Cloudy-Blockchain/contracts/NewCloudy.sol\":17982:18000  providersWithSpace */\n      0x07\n        /* \"Cloudy-Blockchain/contracts/NewCloudy.sol\":18001:18002  i */\n      dup3\n        /* \"Cloudy-Blockchain/contracts/NewCloudy.sol\":17982:18003  providersWithSpace[i] */\n      dup2\n      sload\n      dup2\n      lt\n      tag_306\n      jumpi\n      tag_307\n      tag_180\n      jump\t// in\n    tag_307:\n    tag_306:\n      swap1\n      0x00\n      mstore\n      keccak256(0x00, 0x20)\n      add\n      0x00\n        /* \"Cloudy-Blockchain/contracts/NewCloudy.sol\":17982:18055  providersWithSpace[i] = providersWithSpace[providersWithSpace.length - 1] */\n      0x0100\n      exp\n      dup2\n      sload\n      dup2\n      0xffffffffffffffffffffffffffffffffffffffff\n      mul\n      not\n      and\n      swap1\n      dup4\n      0xffffffffffffffffffffffffffffffffffffffff\n      and\n      mul\n      or\n      swap1\n      sstore\n      pop\n        /* \"Cloudy-Blockchain/contracts/NewCloudy.sol\":18074:18092  providersWithSpace */\n      0x07\n        /* \"Cloudy-Blockchain/contracts/NewCloudy.sol\":18074:18098  providersWithSpace.pop() */\n      dup1\n      sload\n      dup1\n      tag_309\n      jumpi\n      tag_310\n      tag_215\n      jump\t// in\n    tag_310:\n    tag_309:\n      0x01\n      swap1\n      sub\n      dup2\n      dup2\n      swap1\n      0x00\n      mstore\n      keccak256(0x00, 0x20)\n      add\n      exp(0x0100, 0x00)\n      dup2\n      sload\n      swap1\n      0xffffffffffffffffffffffffffffffffffffffff\n      mul\n      not\n      and\n      swap1\n      sstore\n      swap1\n      sstore\n        /* \"Cloudy-Blockchain/contracts/NewCloudy.sol\":18117:18122  break */\n      jump(tag_296)\n        /* \"Cloudy-Blockchain/contracts/NewCloudy.sol\":17917:18138  if (providersWithSpace[i] ==_storageProvider) {... */\n    tag_301:\n        /* \"Cloudy-Blockchain/contracts/NewCloudy.sol\":17897:17900  i++ */\n      dup1\n      dup1\n      tag_312\n      swap1\n      tag_189\n      jump\t// in\n    tag_312:\n      swap2\n      pop\n      pop\n        /* \"Cloudy-Blockchain/contracts/NewCloudy.sol\":17846:18149  for (uint256 i = 0; i < providersWithSpace.length; i++) {... */\n      jump(tag_295)\n    tag_296:\n      pop\n        /* \"Cloudy-Blockchain/contracts/NewCloudy.sol\":18166:18175  uint256 i */\n      0x00\n        /* \"Cloudy-Blockchain/contracts/NewCloudy.sol\":18161:18453  for (uint256 i = 0; i < providersStoring.length; i++) {... */\n    tag_313:\n        /* \"Cloudy-Blockchain/contracts/NewCloudy.sol\":18185:18201  providersStoring */\n      0x08\n        /* \"Cloudy-Blockchain/contracts/NewCloudy.sol\":18185:18208  providersStoring.length */\n      dup1\n      sload\n      swap1\n      pop\n        /* \"Cloudy-Blockchain/contracts/NewCloudy.sol\":18181:18182  i */\n      dup2\n        /* \"Cloudy-Blockchain/contracts/NewCloudy.sol\":18181:18208  i < providersStoring.length */\n      lt\n        /* \"Cloudy-Blockchain/contracts/NewCloudy.sol\":18161:18453  for (uint256 i = 0; i < providersStoring.length; i++) {... */\n      iszero\n      tag_314\n      jumpi\n        /* \"Cloudy-Blockchain/contracts/NewCloudy.sol\":18257:18273  _storageProvider */\n      dup2\n        /* \"Cloudy-Blockchain/contracts/NewCloudy.sol\":18234:18273  providersStoring[i] == _storageProvider */\n      0xffffffffffffffffffffffffffffffffffffffff\n      and\n        /* \"Cloudy-Blockchain/contracts/NewCloudy.sol\":18234:18250  providersStoring */\n      0x08\n        /* \"Cloudy-Blockchain/contracts/NewCloudy.sol\":18251:18252  i */\n      dup3\n        /* \"Cloudy-Blockchain/contracts/NewCloudy.sol\":18234:18253  providersStoring[i] */\n      dup2\n      sload\n      dup2\n      lt\n      tag_316\n      jumpi\n      tag_317\n      tag_180\n      jump\t// in\n    tag_317:\n    tag_316:\n      swap1\n      0x00\n      mstore\n      keccak256(0x00, 0x20)\n      add\n      0x00\n      swap1\n      sload\n      swap1\n      0x0100\n      exp\n      swap1\n      div\n      0xffffffffffffffffffffffffffffffffffffffff\n      and\n        /* \"Cloudy-Blockchain/contracts/NewCloudy.sol\":18234:18273  providersStoring[i] == _storageProvider */\n      0xffffffffffffffffffffffffffffffffffffffff\n      and\n      sub\n        /* \"Cloudy-Blockchain/contracts/NewCloudy.sol\":18230:18442  if (providersStoring[i] == _storageProvider) {... */\n      tag_319\n      jumpi\n        /* \"Cloudy-Blockchain/contracts/NewCloudy.sol\":18316:18332  providersStoring */\n      0x08\n        /* \"Cloudy-Blockchain/contracts/NewCloudy.sol\":18359:18360  1 */\n      0x01\n        /* \"Cloudy-Blockchain/contracts/NewCloudy.sol\":18333:18349  providersStoring */\n      0x08\n        /* \"Cloudy-Blockchain/contracts/NewCloudy.sol\":18333:18356  providersStoring.length */\n      dup1\n      sload\n      swap1\n      pop\n        /* \"Cloudy-Blockchain/contracts/NewCloudy.sol\":18333:18360  providersStoring.length - 1 */\n      tag_320\n      swap2\n      swap1\n      tag_206\n      jump\t// in\n    tag_320:\n        /* \"Cloudy-Blockchain/contracts/NewCloudy.sol\":18316:18361  providersStoring[providersStoring.length - 1] */\n      dup2\n      sload\n      dup2\n      lt\n      tag_321\n      jumpi\n      tag_322\n      tag_180\n      jump\t// in\n    tag_322:\n    tag_321:\n      swap1\n      0x00\n      mstore\n      keccak256(0x00, 0x20)\n      add\n      0x00\n      swap1\n      sload\n      swap1\n      0x0100\n      exp\n      swap1\n      div\n      0xffffffffffffffffffffffffffffffffffffffff\n      and\n        /* \"Cloudy-Blockchain/contracts/NewCloudy.sol\":18294:18310  providersStoring */\n      0x08\n        /* \"Cloudy-Blockchain/contracts/NewCloudy.sol\":18311:18312  i */\n      dup3\n        /* \"Cloudy-Blockchain/contracts/NewCloudy.sol\":18294:18313  providersStoring[i] */\n      dup2\n      sload\n      dup2\n      lt\n      tag_324\n      jumpi\n      tag_325\n      tag_180\n      jump\t// in\n    tag_325:\n    tag_324:\n      swap1\n      0x00\n      mstore\n      keccak256(0x00, 0x20)\n      add\n      0x00\n        /* \"Cloudy-Blockchain/contracts/NewCloudy.sol\":18294:18361  providersStoring[i] = providersStoring[providersStoring.length - 1] */\n      0x0100\n      exp\n      dup2\n      sload\n      dup2\n      0xffffffffffffffffffffffffffffffffffffffff\n      mul\n      not\n      and\n      swap1\n      dup4\n      0xffffffffffffffffffffffffffffffffffffffff\n      and\n      mul\n      or\n      swap1\n      sstore\n      pop\n        /* \"Cloudy-Blockchain/contracts/NewCloudy.sol\":18380:18396  providersStoring */\n      0x08\n        /* \"Cloudy-Blockchain/contracts/NewCloudy.sol\":18380:18402  providersStoring.pop() */\n      dup1\n      sload\n      dup1\n      tag_327\n      jumpi\n      tag_328\n      tag_215\n      jump\t// in\n    tag_328:\n    tag_327:\n      0x01\n      swap1\n      sub\n      dup2\n      dup2\n      swap1\n      0x00\n      mstore\n      keccak256(0x00, 0x20)\n      add\n      exp(0x0100, 0x00)\n      dup2\n      sload\n      swap1\n      0xffffffffffffffffffffffffffffffffffffffff\n      mul\n      not\n      and\n      swap1\n      sstore\n      swap1\n      sstore\n        /* \"Cloudy-Blockchain/contracts/NewCloudy.sol\":18421:18426  break */\n      jump(tag_314)\n        /* \"Cloudy-Blockchain/contracts/NewCloudy.sol\":18230:18442  if (providersStoring[i] == _storageProvider) {... */\n    tag_319:\n        /* \"Cloudy-Blockchain/contracts/NewCloudy.sol\":18210:18213  i++ */\n      dup1\n      dup1\n      tag_330\n      swap1\n      tag_189\n      jump\t// in\n    tag_330:\n      swap2\n      pop\n      pop\n        /* \"Cloudy-Blockchain/contracts/NewCloudy.sol\":18161:18453  for (uint256 i = 0; i < providersStoring.length; i++) {... */\n      jump(tag_313)\n    tag_314:\n      pop\n        /* \"Cloudy-Blockchain/contracts/NewCloudy.sol\":18493:18509  _storageProvider */\n      dup1\n        /* \"Cloudy-Blockchain/contracts/NewCloudy.sol\":18470:18510  StorageProviderDeleted(_storageProvider) */\n      0xffffffffffffffffffffffffffffffffffffffff\n      and\n      0x4ec08ac56c966a2996e49a49ef82b618954fb71b28a651fbc8ed9ebc0dfecbd3\n      mload(0x40)\n      mload(0x40)\n      dup1\n      swap2\n      sub\n      swap1\n      log2\n        /* \"Cloudy-Blockchain/contracts/NewCloudy.sol\":17450:18518  function deleteStorageProvider(address _storageProvider) external {... */\n      pop\n      jump\t// out\n        /* \"Cloudy-Blockchain/contracts/NewCloudy.sol\":19678:19799  function getStorageProvidersStoring() external view returns (address[] memory) {... */\n    tag_103:\n        /* \"Cloudy-Blockchain/contracts/NewCloudy.sol\":19739:19755  address[] memory */\n      0x60\n        /* \"Cloudy-Blockchain/contracts/NewCloudy.sol\":19775:19791  providersStoring */\n      0x08\n        /* \"Cloudy-Blockchain/contracts/NewCloudy.sol\":19768:19791  return providersStoring */\n      dup1\n      sload\n      dup1\n      0x20\n      mul\n      0x20\n      add\n      mload(0x40)\n      swap1\n      dup2\n      add\n      0x40\n      mstore\n      dup1\n      swap3\n      swap2\n      swap1\n      dup2\n      dup2\n      mstore\n      0x20\n      add\n      dup3\n      dup1\n      sload\n      dup1\n      iszero\n      tag_332\n      jumpi\n      0x20\n      mul\n      dup3\n      add\n      swap2\n      swap1\n      0x00\n      mstore\n      keccak256(0x00, 0x20)\n      swap1\n    tag_333:\n      dup2\n      0x00\n      swap1\n      sload\n      swap1\n      0x0100\n      exp\n      swap1\n      div\n      0xffffffffffffffffffffffffffffffffffffffff\n      and\n      0xffffffffffffffffffffffffffffffffffffffff\n      and\n      dup2\n      mstore\n      0x20\n      add\n      swap1\n      0x01\n      add\n      swap1\n      dup1\n      dup4\n      gt\n      tag_333\n      jumpi\n    tag_332:\n      pop\n      pop\n      pop\n      pop\n      pop\n      swap1\n      pop\n        /* \"Cloudy-Blockchain/contracts/NewCloudy.sol\":19678:19799  function getStorageProvidersStoring() external view returns (address[] memory) {... */\n      swap1\n      jump\t// out\n        /* \"Cloudy-Blockchain/contracts/NewCloudy.sol\":798:841  mapping(bytes32 => File) public filesByHash */\n    tag_108:\n      mstore(0x20, 0x01)\n      dup1\n      0x00\n      mstore\n      keccak256(0x00, 0x40)\n      0x00\n      swap2\n      pop\n      swap1\n      pop\n      dup1\n      0x00\n      add\n      0x00\n      swap1\n      sload\n      swap1\n      0x0100\n      exp\n      swap1\n      div\n      0xffffffffffffffffffffffffffffffffffffffff\n      and\n      swap1\n      dup1\n      0x01\n      add\n      dup1\n      sload\n      tag_334\n      swap1\n      tag_160\n      jump\t// in\n    tag_334:\n      dup1\n      0x1f\n      add\n      0x20\n      dup1\n      swap2\n      div\n      mul\n      0x20\n      add\n      mload(0x40)\n      swap1\n      dup2\n      add\n      0x40\n      mstore\n      dup1\n      swap3\n      swap2\n      swap1\n      dup2\n      dup2\n      mstore\n      0x20\n      add\n      dup3\n      dup1\n      sload\n      tag_335\n      swap1\n      tag_160\n      jump\t// in\n    tag_335:\n      dup1\n      iszero\n      tag_336\n      jumpi\n      dup1\n      0x1f\n      lt\n      tag_337\n      jumpi\n      0x0100\n      dup1\n      dup4\n      sload\n      div\n      mul\n      dup4\n      mstore\n      swap2\n      0x20\n      add\n      swap2\n      jump(tag_336)\n    tag_337:\n      dup3\n      add\n      swap2\n      swap1\n      0x00\n      mstore\n      keccak256(0x00, 0x20)\n      swap1\n    tag_338:\n      dup2\n      sload\n      dup2\n      mstore\n      swap1\n      0x01\n      add\n      swap1\n      0x20\n      add\n      dup1\n      dup4\n      gt\n      tag_338\n      jumpi\n      dup3\n      swap1\n      sub\n      0x1f\n      and\n      dup3\n      add\n      swap2\n    tag_336:\n      pop\n      pop\n      pop\n      pop\n      pop\n      swap1\n      dup1\n      0x02\n      add\n      dup1\n      sload\n      tag_339\n      swap1\n      tag_160\n      jump\t// in\n    tag_339:\n      dup1\n      0x1f\n      add\n      0x20\n      dup1\n      swap2\n      div\n      mul\n      0x20\n      add\n      mload(0x40)\n      swap1\n      dup2\n      add\n      0x40\n      mstore\n      dup1\n      swap3\n      swap2\n      swap1\n      dup2\n      dup2\n      mstore\n      0x20\n      add\n      dup3\n      dup1\n      sload\n      tag_340\n      swap1\n      tag_160\n      jump\t// in\n    tag_340:\n      dup1\n      iszero\n      tag_341\n      jumpi\n      dup1\n      0x1f\n      lt\n      tag_342\n      jumpi\n      0x0100\n      dup1\n      dup4\n      sload\n      div\n      mul\n      dup4\n      mstore\n      swap2\n      0x20\n      add\n      swap2\n      jump(tag_341)\n    tag_342:\n      dup3\n      add\n      swap2\n      swap1\n      0x00\n      mstore\n      keccak256(0x00, 0x20)\n      swap1\n    tag_343:\n      dup2\n      sload\n      dup2\n      mstore\n      swap1\n      0x01\n      add\n      swap1\n      0x20\n      add\n      dup1\n      dup4\n      gt\n      tag_343\n      jumpi\n      dup3\n      swap1\n      sub\n      0x1f\n      and\n      dup3\n      add\n      swap2\n    tag_341:\n      pop\n      pop\n      pop\n      pop\n      pop\n      swap1\n      dup1\n      0x03\n      add\n      sload\n      swap1\n      dup1\n      0x04\n      add\n      0x00\n      swap1\n      sload\n      swap1\n      0x0100\n      exp\n      swap1\n      div\n      0xff\n      and\n      swap1\n      pop\n      dup6\n      jump\t// out\n        /* \"Cloudy-Blockchain/contracts/NewCloudy.sol\":14724:16121  function deleteShard(uint256 _shardId) external {... */\n    tag_113:\n        /* \"Cloudy-Blockchain/contracts/NewCloudy.sol\":14791:14797  shards */\n      0x00\n        /* \"Cloudy-Blockchain/contracts/NewCloudy.sol\":14791:14807  shards[_shardId] */\n      dup1\n        /* \"Cloudy-Blockchain/contracts/NewCloudy.sol\":14798:14806  _shardId */\n      dup3\n        /* \"Cloudy-Blockchain/contracts/NewCloudy.sol\":14791:14807  shards[_shardId] */\n      dup2\n      mstore\n      0x20\n      add\n      swap1\n      dup2\n      mstore\n      0x20\n      add\n      0x00\n      keccak256\n        /* \"Cloudy-Blockchain/contracts/NewCloudy.sol\":14791:14814  shards[_shardId].exists */\n      0x05\n      add\n      0x00\n      swap1\n      sload\n      swap1\n      0x0100\n      exp\n      swap1\n      div\n      0xff\n      and\n        /* \"Cloudy-Blockchain/contracts/NewCloudy.sol\":14783:14839  require(shards[_shardId].exists, \"Shard does not exist\") */\n      tag_345\n      jumpi\n      mload(0x40)\n      0x08c379a000000000000000000000000000000000000000000000000000000000\n      dup2\n      mstore\n      0x04\n      add\n      tag_346\n      swap1\n      tag_193\n      jump\t// in\n    tag_346:\n      mload(0x40)\n      dup1\n      swap2\n      sub\n      swap1\n      revert\n    tag_345:\n        /* \"Cloudy-Blockchain/contracts/NewCloudy.sol\":14850:14877  Shard storage shardToDelete */\n      0x00\n        /* \"Cloudy-Blockchain/contracts/NewCloudy.sol\":14880:14886  shards */\n      dup1\n        /* \"Cloudy-Blockchain/contracts/NewCloudy.sol\":14880:14896  shards[_shardId] */\n      0x00\n        /* \"Cloudy-Blockchain/contracts/NewCloudy.sol\":14887:14895  _shardId */\n      dup4\n        /* \"Cloudy-Blockchain/contracts/NewCloudy.sol\":14880:14896  shards[_shardId] */\n      dup2\n      mstore\n      0x20\n      add\n      swap1\n      dup2\n      mstore\n      0x20\n      add\n      0x00\n      keccak256\n        /* \"Cloudy-Blockchain/contracts/NewCloudy.sol\":14850:14896  Shard storage shardToDelete = shards[_shardId] */\n      swap1\n      pop\n        /* \"Cloudy-Blockchain/contracts/NewCloudy.sol\":14907:14930  address storageProvider */\n      0x00\n        /* \"Cloudy-Blockchain/contracts/NewCloudy.sol\":14933:14946  shardToDelete */\n      dup2\n        /* \"Cloudy-Blockchain/contracts/NewCloudy.sol\":14933:14962  shardToDelete.storageProvider */\n      0x01\n      add\n      0x00\n      swap1\n      sload\n      swap1\n      0x0100\n      exp\n      swap1\n      div\n      0xffffffffffffffffffffffffffffffffffffffff\n      and\n        /* \"Cloudy-Blockchain/contracts/NewCloudy.sol\":14907:14962  address storageProvider = shardToDelete.storageProvider */\n      swap1\n      pop\n        /* \"Cloudy-Blockchain/contracts/NewCloudy.sol\":14995:15010  storageProvider */\n      dup1\n        /* \"Cloudy-Blockchain/contracts/NewCloudy.sol\":14981:15010  msg.sender == storageProvider */\n      0xffffffffffffffffffffffffffffffffffffffff\n      and\n        /* \"Cloudy-Blockchain/contracts/NewCloudy.sol\":14981:14991  msg.sender */\n      caller\n        /* \"Cloudy-Blockchain/contracts/NewCloudy.sol\":14981:15010  msg.sender == storageProvider */\n      0xffffffffffffffffffffffffffffffffffffffff\n      and\n      eq\n        /* \"Cloudy-Blockchain/contracts/NewCloudy.sol\":14973:15061  require(msg.sender == storageProvider, \"Only the storage provider can delete the shard\") */\n      tag_347\n      jumpi\n      mload(0x40)\n      0x08c379a000000000000000000000000000000000000000000000000000000000\n      dup2\n      mstore\n      0x04\n      add\n      tag_348\n      swap1\n      tag_349\n      jump\t// in\n    tag_348:\n      mload(0x40)\n      dup1\n      swap2\n      sub\n      swap1\n      revert\n    tag_347:\n        /* \"Cloudy-Blockchain/contracts/NewCloudy.sol\":15136:15168  uint256[] storage providerShards */\n      0x00\n        /* \"Cloudy-Blockchain/contracts/NewCloudy.sol\":15171:15187  storageProviders */\n      0x02\n        /* \"Cloudy-Blockchain/contracts/NewCloudy.sol\":15171:15204  storageProviders[storageProvider] */\n      0x00\n        /* \"Cloudy-Blockchain/contracts/NewCloudy.sol\":15188:15203  storageProvider */\n      dup4\n        /* \"Cloudy-Blockchain/contracts/NewCloudy.sol\":15171:15204  storageProviders[storageProvider] */\n      0xffffffffffffffffffffffffffffffffffffffff\n      and\n      0xffffffffffffffffffffffffffffffffffffffff\n      and\n      dup2\n      mstore\n      0x20\n      add\n      swap1\n      dup2\n      mstore\n      0x20\n      add\n      0x00\n      keccak256\n        /* \"Cloudy-Blockchain/contracts/NewCloudy.sol\":15136:15204  uint256[] storage providerShards = storageProviders[storageProvider] */\n      swap1\n      pop\n        /* \"Cloudy-Blockchain/contracts/NewCloudy.sol\":15220:15229  uint256 i */\n      0x00\n        /* \"Cloudy-Blockchain/contracts/NewCloudy.sol\":15215:15532  for (uint256 i = 0; i < providerShards.length; i++) {... */\n    tag_350:\n        /* \"Cloudy-Blockchain/contracts/NewCloudy.sol\":15239:15253  providerShards */\n      dup2\n        /* \"Cloudy-Blockchain/contracts/NewCloudy.sol\":15239:15260  providerShards.length */\n      dup1\n      sload\n      swap1\n      pop\n        /* \"Cloudy-Blockchain/contracts/NewCloudy.sol\":15235:15236  i */\n      dup2\n        /* \"Cloudy-Blockchain/contracts/NewCloudy.sol\":15235:15260  i < providerShards.length */\n      lt\n        /* \"Cloudy-Blockchain/contracts/NewCloudy.sol\":15215:15532  for (uint256 i = 0; i < providerShards.length; i++) {... */\n      iszero\n      tag_351\n      jumpi\n        /* \"Cloudy-Blockchain/contracts/NewCloudy.sol\":15307:15315  _shardId */\n      dup5\n        /* \"Cloudy-Blockchain/contracts/NewCloudy.sol\":15286:15300  providerShards */\n      dup3\n        /* \"Cloudy-Blockchain/contracts/NewCloudy.sol\":15301:15302  i */\n      dup3\n        /* \"Cloudy-Blockchain/contracts/NewCloudy.sol\":15286:15303  providerShards[i] */\n      dup2\n      sload\n      dup2\n      lt\n      tag_353\n      jumpi\n      tag_354\n      tag_180\n      jump\t// in\n    tag_354:\n    tag_353:\n      swap1\n      0x00\n      mstore\n      keccak256(0x00, 0x20)\n      add\n      sload\n        /* \"Cloudy-Blockchain/contracts/NewCloudy.sol\":15286:15315  providerShards[i] == _shardId */\n      sub\n        /* \"Cloudy-Blockchain/contracts/NewCloudy.sol\":15282:15521  if (providerShards[i] == _shardId) {... */\n      tag_356\n      jumpi\n        /* \"Cloudy-Blockchain/contracts/NewCloudy.sol\":15356:15370  providerShards */\n      dup2\n        /* \"Cloudy-Blockchain/contracts/NewCloudy.sol\":15395:15396  1 */\n      0x01\n        /* \"Cloudy-Blockchain/contracts/NewCloudy.sol\":15371:15385  providerShards */\n      dup4\n        /* \"Cloudy-Blockchain/contracts/NewCloudy.sol\":15371:15392  providerShards.length */\n      dup1\n      sload\n      swap1\n      pop\n        /* \"Cloudy-Blockchain/contracts/NewCloudy.sol\":15371:15396  providerShards.length - 1 */\n      tag_357\n      swap2\n      swap1\n      tag_206\n      jump\t// in\n    tag_357:\n        /* \"Cloudy-Blockchain/contracts/NewCloudy.sol\":15356:15397  providerShards[providerShards.length - 1] */\n      dup2\n      sload\n      dup2\n      lt\n      tag_358\n      jumpi\n      tag_359\n      tag_180\n      jump\t// in\n    tag_359:\n    tag_358:\n      swap1\n      0x00\n      mstore\n      keccak256(0x00, 0x20)\n      add\n      sload\n        /* \"Cloudy-Blockchain/contracts/NewCloudy.sol\":15336:15350  providerShards */\n      dup3\n        /* \"Cloudy-Blockchain/contracts/NewCloudy.sol\":15351:15352  i */\n      dup3\n        /* \"Cloudy-Blockchain/contracts/NewCloudy.sol\":15336:15353  providerShards[i] */\n      dup2\n      sload\n      dup2\n      lt\n      tag_361\n      jumpi\n      tag_362\n      tag_180\n      jump\t// in\n    tag_362:\n    tag_361:\n      swap1\n      0x00\n      mstore\n      keccak256(0x00, 0x20)\n      add\n        /* \"Cloudy-Blockchain/contracts/NewCloudy.sol\":15336:15397  providerShards[i] = providerShards[providerShards.length - 1] */\n      dup2\n      swap1\n      sstore\n      pop\n        /* \"Cloudy-Blockchain/contracts/NewCloudy.sol\":15416:15430  providerShards */\n      dup2\n        /* \"Cloudy-Blockchain/contracts/NewCloudy.sol\":15416:15436  providerShards.pop() */\n      dup1\n      sload\n      dup1\n      tag_364\n      jumpi\n      tag_365\n      tag_215\n      jump\t// in\n    tag_365:\n    tag_364:\n      0x01\n      swap1\n      sub\n      dup2\n      dup2\n      swap1\n      0x00\n      mstore\n      keccak256(0x00, 0x20)\n      add\n      0x00\n      swap1\n      sstore\n      swap1\n      sstore\n        /* \"Cloudy-Blockchain/contracts/NewCloudy.sol\":15500:15505  break */\n      jump(tag_351)\n        /* \"Cloudy-Blockchain/contracts/NewCloudy.sol\":15282:15521  if (providerShards[i] == _shardId) {... */\n    tag_356:\n        /* \"Cloudy-Blockchain/contracts/NewCloudy.sol\":15262:15265  i++ */\n      dup1\n      dup1\n      tag_367\n      swap1\n      tag_189\n      jump\t// in\n    tag_367:\n      swap2\n      pop\n      pop\n        /* \"Cloudy-Blockchain/contracts/NewCloudy.sol\":15215:15532  for (uint256 i = 0; i < providerShards.length; i++) {... */\n      jump(tag_350)\n    tag_351:\n      pop\n        /* \"Cloudy-Blockchain/contracts/NewCloudy.sol\":15604:15634  uint256[] storage fileShardIds */\n      0x00\n        /* \"Cloudy-Blockchain/contracts/NewCloudy.sol\":15637:15647  fileShards */\n      0x05\n        /* \"Cloudy-Blockchain/contracts/NewCloudy.sol\":15637:15671  fileShards[shardToDelete.fileHash] */\n      0x00\n        /* \"Cloudy-Blockchain/contracts/NewCloudy.sol\":15648:15661  shardToDelete */\n      dup6\n        /* \"Cloudy-Blockchain/contracts/NewCloudy.sol\":15648:15670  shardToDelete.fileHash */\n      0x04\n      add\n      sload\n        /* \"Cloudy-Blockchain/contracts/NewCloudy.sol\":15637:15671  fileShards[shardToDelete.fileHash] */\n      dup2\n      mstore\n      0x20\n      add\n      swap1\n      dup2\n      mstore\n      0x20\n      add\n      0x00\n      keccak256\n        /* \"Cloudy-Blockchain/contracts/NewCloudy.sol\":15604:15671  uint256[] storage fileShardIds = fileShards[shardToDelete.fileHash] */\n      swap1\n      pop\n        /* \"Cloudy-Blockchain/contracts/NewCloudy.sol\":15687:15696  uint256 i */\n      0x00\n        /* \"Cloudy-Blockchain/contracts/NewCloudy.sol\":15682:15985  for (uint256 i = 0; i < fileShardIds.length; i++) {... */\n    tag_368:\n        /* \"Cloudy-Blockchain/contracts/NewCloudy.sol\":15706:15718  fileShardIds */\n      dup2\n        /* \"Cloudy-Blockchain/contracts/NewCloudy.sol\":15706:15725  fileShardIds.length */\n      dup1\n      sload\n      swap1\n      pop\n        /* \"Cloudy-Blockchain/contracts/NewCloudy.sol\":15702:15703  i */\n      dup2\n        /* \"Cloudy-Blockchain/contracts/NewCloudy.sol\":15702:15725  i < fileShardIds.length */\n      lt\n        /* \"Cloudy-Blockchain/contracts/NewCloudy.sol\":15682:15985  for (uint256 i = 0; i < fileShardIds.length; i++) {... */\n      iszero\n      tag_369\n      jumpi\n        /* \"Cloudy-Blockchain/contracts/NewCloudy.sol\":15770:15778  _shardId */\n      dup6\n        /* \"Cloudy-Blockchain/contracts/NewCloudy.sol\":15751:15763  fileShardIds */\n      dup3\n        /* \"Cloudy-Blockchain/contracts/NewCloudy.sol\":15764:15765  i */\n      dup3\n        /* \"Cloudy-Blockchain/contracts/NewCloudy.sol\":15751:15766  fileShardIds[i] */\n      dup2\n      sload\n      dup2\n      lt\n      tag_371\n      jumpi\n      tag_372\n      tag_180\n      jump\t// in\n    tag_372:\n    tag_371:\n      swap1\n      0x00\n      mstore\n      keccak256(0x00, 0x20)\n      add\n      sload\n        /* \"Cloudy-Blockchain/contracts/NewCloudy.sol\":15751:15778  fileShardIds[i] == _shardId */\n      sub\n        /* \"Cloudy-Blockchain/contracts/NewCloudy.sol\":15747:15974  if (fileShardIds[i] == _shardId) {... */\n      tag_374\n      jumpi\n        /* \"Cloudy-Blockchain/contracts/NewCloudy.sol\":15817:15829  fileShardIds */\n      dup2\n        /* \"Cloudy-Blockchain/contracts/NewCloudy.sol\":15852:15853  1 */\n      0x01\n        /* \"Cloudy-Blockchain/contracts/NewCloudy.sol\":15830:15842  fileShardIds */\n      dup4\n        /* \"Cloudy-Blockchain/contracts/NewCloudy.sol\":15830:15849  fileShardIds.length */\n      dup1\n      sload\n      swap1\n      pop\n        /* \"Cloudy-Blockchain/contracts/NewCloudy.sol\":15830:15853  fileShardIds.length - 1 */\n      tag_375\n      swap2\n      swap1\n      tag_206\n      jump\t// in\n    tag_375:\n        /* \"Cloudy-Blockchain/contracts/NewCloudy.sol\":15817:15854  fileShardIds[fileShardIds.length - 1] */\n      dup2\n      sload\n      dup2\n      lt\n      tag_376\n      jumpi\n      tag_377\n      tag_180\n      jump\t// in\n    tag_377:\n    tag_376:\n      swap1\n      0x00\n      mstore\n      keccak256(0x00, 0x20)\n      add\n      sload\n        /* \"Cloudy-Blockchain/contracts/NewCloudy.sol\":15799:15811  fileShardIds */\n      dup3\n        /* \"Cloudy-Blockchain/contracts/NewCloudy.sol\":15812:15813  i */\n      dup3\n        /* \"Cloudy-Blockchain/contracts/NewCloudy.sol\":15799:15814  fileShardIds[i] */\n      dup2\n      sload\n      dup2\n      lt\n      tag_379\n      jumpi\n      tag_380\n      tag_180\n      jump\t// in\n    tag_380:\n    tag_379:\n      swap1\n      0x00\n      mstore\n      keccak256(0x00, 0x20)\n      add\n        /* \"Cloudy-Blockchain/contracts/NewCloudy.sol\":15799:15854  fileShardIds[i] = fileShardIds[fileShardIds.length - 1] */\n      dup2\n      swap1\n      sstore\n      pop\n        /* \"Cloudy-Blockchain/contracts/NewCloudy.sol\":15873:15885  fileShardIds */\n      dup2\n        /* \"Cloudy-Blockchain/contracts/NewCloudy.sol\":15873:15891  fileShardIds.pop() */\n      dup1\n      sload\n      dup1\n      tag_382\n      jumpi\n      tag_383\n      tag_215\n      jump\t// in\n    tag_383:\n    tag_382:\n      0x01\n      swap1\n      sub\n      dup2\n      dup2\n      swap1\n      0x00\n      mstore\n      keccak256(0x00, 0x20)\n      add\n      0x00\n      swap1\n      sstore\n      swap1\n      sstore\n        /* \"Cloudy-Blockchain/contracts/NewCloudy.sol\":15953:15958  break */\n      jump(tag_369)\n        /* \"Cloudy-Blockchain/contracts/NewCloudy.sol\":15747:15974  if (fileShardIds[i] == _shardId) {... */\n    tag_374:\n        /* \"Cloudy-Blockchain/contracts/NewCloudy.sol\":15727:15730  i++ */\n      dup1\n      dup1\n      tag_385\n      swap1\n      tag_189\n      jump\t// in\n    tag_385:\n      swap2\n      pop\n      pop\n        /* \"Cloudy-Blockchain/contracts/NewCloudy.sol\":15682:15985  for (uint256 i = 0; i < fileShardIds.length; i++) {... */\n      jump(tag_368)\n    tag_369:\n      pop\n        /* \"Cloudy-Blockchain/contracts/NewCloudy.sol\":16057:16063  shards */\n      0x00\n        /* \"Cloudy-Blockchain/contracts/NewCloudy.sol\":16057:16073  shards[_shardId] */\n      dup1\n        /* \"Cloudy-Blockchain/contracts/NewCloudy.sol\":16064:16072  _shardId */\n      dup7\n        /* \"Cloudy-Blockchain/contracts/NewCloudy.sol\":16057:16073  shards[_shardId] */\n      dup2\n      mstore\n      0x20\n      add\n      swap1\n      dup2\n      mstore\n      0x20\n      add\n      0x00\n      keccak256\n      0x00\n        /* \"Cloudy-Blockchain/contracts/NewCloudy.sol\":16050:16073  delete shards[_shardId] */\n      dup1\n      dup3\n      add\n      0x00\n      swap1\n      sstore\n      0x01\n      dup3\n      add\n      exp(0x0100, 0x00)\n      dup2\n      sload\n      swap1\n      0xffffffffffffffffffffffffffffffffffffffff\n      mul\n      not\n      and\n      swap1\n      sstore\n      0x02\n      dup3\n      add\n      0x00\n      swap1\n      sstore\n      0x03\n      dup3\n      add\n      0x00\n      tag_386\n      swap2\n      swap1\n      tag_250\n      jump\t// in\n    tag_386:\n      0x04\n      dup3\n      add\n      0x00\n      swap1\n      sstore\n      0x05\n      dup3\n      add\n      exp(0x0100, 0x00)\n      dup2\n      sload\n      swap1\n      0xff\n      mul\n      not\n      and\n      swap1\n      sstore\n      pop\n      pop\n        /* \"Cloudy-Blockchain/contracts/NewCloudy.sol\":16091:16113  ShardDeleted(_shardId) */\n      0xf6a2d10319800c3ecf3244c17904ea5f3026e430b4417ee5ec5baa464e8f9b0c\n        /* \"Cloudy-Blockchain/contracts/NewCloudy.sol\":16104:16112  _shardId */\n      dup6\n        /* \"Cloudy-Blockchain/contracts/NewCloudy.sol\":16091:16113  ShardDeleted(_shardId) */\n      mload(0x40)\n      tag_387\n      swap2\n      swap1\n      tag_43\n      jump\t// in\n    tag_387:\n      mload(0x40)\n      dup1\n      swap2\n      sub\n      swap1\n      log1\n        /* \"Cloudy-Blockchain/contracts/NewCloudy.sol\":14772:16121  {... */\n      pop\n      pop\n      pop\n      pop\n        /* \"Cloudy-Blockchain/contracts/NewCloudy.sol\":14724:16121  function deleteShard(uint256 _shardId) external {... */\n      pop\n      jump\t// out\n        /* \"Cloudy-Blockchain/contracts/NewCloudy.sol\":1339:1386  mapping(bytes32 => bool) public OwnerToFileHash */\n    tag_116:\n      mstore(0x20, 0x06)\n      dup1\n      0x00\n      mstore\n      keccak256(0x00, 0x40)\n      0x00\n      swap2\n      pop\n      sload\n      swap1\n      0x0100\n      exp\n      swap1\n      div\n      0xff\n      and\n      dup2\n      jump\t// out\n        /* \"Cloudy-Blockchain/contracts/NewCloudy.sol\":18638:18987  function getStorageProviderDetails(address _storageProvider) external view returns (bytes32, address, uint256, uint256, bool) {... */\n    tag_121:\n        /* \"Cloudy-Blockchain/contracts/NewCloudy.sol\":18722:18729  bytes32 */\n      0x00\n        /* \"Cloudy-Blockchain/contracts/NewCloudy.sol\":18731:18738  address */\n      dup1\n        /* \"Cloudy-Blockchain/contracts/NewCloudy.sol\":18740:18747  uint256 */\n      0x00\n        /* \"Cloudy-Blockchain/contracts/NewCloudy.sol\":18749:18756  uint256 */\n      dup1\n        /* \"Cloudy-Blockchain/contracts/NewCloudy.sol\":18758:18762  bool */\n      0x00\n        /* \"Cloudy-Blockchain/contracts/NewCloudy.sol\":18775:18807  StorageProvider storage provider */\n      dup1\n        /* \"Cloudy-Blockchain/contracts/NewCloudy.sol\":18810:18825  providerDetails */\n      0x03\n        /* \"Cloudy-Blockchain/contracts/NewCloudy.sol\":18810:18843  providerDetails[_storageProvider] */\n      0x00\n        /* \"Cloudy-Blockchain/contracts/NewCloudy.sol\":18826:18842  _storageProvider */\n      dup9\n        /* \"Cloudy-Blockchain/contracts/NewCloudy.sol\":18810:18843  providerDetails[_storageProvider] */\n      0xffffffffffffffffffffffffffffffffffffffff\n      and\n      0xffffffffffffffffffffffffffffffffffffffff\n      and\n      dup2\n      mstore\n      0x20\n      add\n      swap1\n      dup2\n      mstore\n      0x20\n      add\n      0x00\n      keccak256\n        /* \"Cloudy-Blockchain/contracts/NewCloudy.sol\":18775:18843  StorageProvider storage provider = providerDetails[_storageProvider] */\n      swap1\n      pop\n        /* \"Cloudy-Blockchain/contracts/NewCloudy.sol\":18862:18870  provider */\n      dup1\n        /* \"Cloudy-Blockchain/contracts/NewCloudy.sol\":18862:18873  provider.ip */\n      0x00\n      add\n      sload\n        /* \"Cloudy-Blockchain/contracts/NewCloudy.sol\":18875:18883  provider */\n      dup2\n        /* \"Cloudy-Blockchain/contracts/NewCloudy.sol\":18875:18897  provider.walletAddress */\n      0x01\n      add\n      0x00\n      swap1\n      sload\n      swap1\n      0x0100\n      exp\n      swap1\n      div\n      0xffffffffffffffffffffffffffffffffffffffff\n      and\n        /* \"Cloudy-Blockchain/contracts/NewCloudy.sol\":18899:18907  provider */\n      dup3\n        /* \"Cloudy-Blockchain/contracts/NewCloudy.sol\":18899:18929  provider.availableStorageSpace */\n      0x02\n      add\n      sload\n        /* \"Cloudy-Blockchain/contracts/NewCloudy.sol\":18931:18939  provider */\n      dup4\n        /* \"Cloudy-Blockchain/contracts/NewCloudy.sol\":18931:18958  provider.maximumStorageSize */\n      0x03\n      add\n      sload\n        /* \"Cloudy-Blockchain/contracts/NewCloudy.sol\":18960:18968  provider */\n      dup5\n        /* \"Cloudy-Blockchain/contracts/NewCloudy.sol\":18960:18978  provider.isStoring */\n      0x04\n      add\n      0x00\n      swap1\n      sload\n      swap1\n      0x0100\n      exp\n      swap1\n      div\n      0xff\n      and\n        /* \"Cloudy-Blockchain/contracts/NewCloudy.sol\":18854:18979  return (provider.ip, provider.walletAddress, provider.availableStorageSpace, provider.maximumStorageSize, provider.isStoring) */\n      swap6\n      pop\n      swap6\n      pop\n      swap6\n      pop\n      swap6\n      pop\n      swap6\n      pop\n      pop\n        /* \"Cloudy-Blockchain/contracts/NewCloudy.sol\":18638:18987  function getStorageProviderDetails(address _storageProvider) external view returns (bytes32, address, uint256, uint256, bool) {... */\n      swap2\n      swap4\n      swap6\n      swap1\n      swap3\n      swap5\n      pop\n      jump\t// out\n        /* \"Cloudy-Blockchain/contracts/NewCloudy.sol\":883:936  mapping(address => uint256[]) public storageProviders */\n    tag_125:\n      mstore(0x20, 0x02)\n      dup2\n      0x00\n      mstore\n      keccak256(0x00, 0x40)\n      dup2\n      dup2\n      sload\n      dup2\n      lt\n      tag_389\n      jumpi\n      0x00\n      dup1\n      revert\n    tag_389:\n      swap1\n      0x00\n      mstore\n      keccak256(0x00, 0x20)\n      add\n      0x00\n      swap2\n      pop\n      swap2\n      pop\n      pop\n      sload\n      dup2\n      jump\t// out\n        /* \"Cloudy-Blockchain/contracts/NewCloudy.sol\":19541:19666  function getStorageProvidersWithSpace() external view returns (address[] memory) {... */\n    tag_128:\n        /* \"Cloudy-Blockchain/contracts/NewCloudy.sol\":19604:19620  address[] memory */\n      0x60\n        /* \"Cloudy-Blockchain/contracts/NewCloudy.sol\":19640:19658  providersWithSpace */\n      0x07\n        /* \"Cloudy-Blockchain/contracts/NewCloudy.sol\":19633:19658  return providersWithSpace */\n      dup1\n      sload\n      dup1\n      0x20\n      mul\n      0x20\n      add\n      mload(0x40)\n      swap1\n      dup2\n      add\n      0x40\n      mstore\n      dup1\n      swap3\n      swap2\n      swap1\n      dup2\n      dup2\n      mstore\n      0x20\n      add\n      dup3\n      dup1\n      sload\n      dup1\n      iszero\n      tag_392\n      jumpi\n      0x20\n      mul\n      dup3\n      add\n      swap2\n      swap1\n      0x00\n      mstore\n      keccak256(0x00, 0x20)\n      swap1\n    tag_393:\n      dup2\n      0x00\n      swap1\n      sload\n      swap1\n      0x0100\n      exp\n      swap1\n      div\n      0xffffffffffffffffffffffffffffffffffffffff\n      and\n      0xffffffffffffffffffffffffffffffffffffffff\n      and\n      dup2\n      mstore\n      0x20\n      add\n      swap1\n      0x01\n      add\n      swap1\n      dup1\n      dup4\n      gt\n      tag_393\n      jumpi\n    tag_392:\n      pop\n      pop\n      pop\n      pop\n      pop\n      swap1\n      pop\n        /* \"Cloudy-Blockchain/contracts/NewCloudy.sol\":19541:19666  function getStorageProvidersWithSpace() external view returns (address[] memory) {... */\n      swap1\n      jump\t// out\n        /* \"Cloudy-Blockchain/contracts/NewCloudy.sol\":19262:19386  function getOwnerFiles(address _owner) external view returns (bytes32[] memory) {... */\n    tag_132:\n        /* \"Cloudy-Blockchain/contracts/NewCloudy.sol\":19324:19340  bytes32[] memory */\n      0x60\n        /* \"Cloudy-Blockchain/contracts/NewCloudy.sol\":19360:19370  ownerFiles */\n      0x04\n        /* \"Cloudy-Blockchain/contracts/NewCloudy.sol\":19360:19378  ownerFiles[_owner] */\n      0x00\n        /* \"Cloudy-Blockchain/contracts/NewCloudy.sol\":19371:19377  _owner */\n      dup4\n        /* \"Cloudy-Blockchain/contracts/NewCloudy.sol\":19360:19378  ownerFiles[_owner] */\n      0xffffffffffffffffffffffffffffffffffffffff\n      and\n      0xffffffffffffffffffffffffffffffffffffffff\n      and\n      dup2\n      mstore\n      0x20\n      add\n      swap1\n      dup2\n      mstore\n      0x20\n      add\n      0x00\n      keccak256\n        /* \"Cloudy-Blockchain/contracts/NewCloudy.sol\":19353:19378  return ownerFiles[_owner] */\n      dup1\n      sload\n      dup1\n      0x20\n      mul\n      0x20\n      add\n      mload(0x40)\n      swap1\n      dup2\n      add\n      0x40\n      mstore\n      dup1\n      swap3\n      swap2\n      swap1\n      dup2\n      dup2\n      mstore\n      0x20\n      add\n      dup3\n      dup1\n      sload\n      dup1\n      iszero\n      tag_395\n      jumpi\n      0x20\n      mul\n      dup3\n      add\n      swap2\n      swap1\n      0x00\n      mstore\n      keccak256(0x00, 0x20)\n      swap1\n    tag_396:\n      dup2\n      sload\n      dup2\n      mstore\n      0x20\n      add\n      swap1\n      0x01\n      add\n      swap1\n      dup1\n      dup4\n      gt\n      tag_396\n      jumpi\n    tag_395:\n      pop\n      pop\n      pop\n      pop\n      pop\n      swap1\n      pop\n        /* \"Cloudy-Blockchain/contracts/NewCloudy.sol\":19262:19386  function getOwnerFiles(address _owner) external view returns (bytes32[] memory) {... */\n      swap2\n      swap1\n      pop\n      jump\t// out\n        /* \"Cloudy-Blockchain/contracts/NewCloudy.sol\":19807:19981  function getProviderStoredShards(address _storageProvider) external view returns (uint256[] memory) {... */\n    tag_137:\n        /* \"Cloudy-Blockchain/contracts/NewCloudy.sol\":19889:19905  uint256[] memory */\n      0x60\n        /* \"Cloudy-Blockchain/contracts/NewCloudy.sol\":19925:19940  providerDetails */\n      0x03\n        /* \"Cloudy-Blockchain/contracts/NewCloudy.sol\":19925:19958  providerDetails[_storageProvider] */\n      0x00\n        /* \"Cloudy-Blockchain/contracts/NewCloudy.sol\":19941:19957  _storageProvider */\n      dup4\n        /* \"Cloudy-Blockchain/contracts/NewCloudy.sol\":19925:19958  providerDetails[_storageProvider] */\n      0xffffffffffffffffffffffffffffffffffffffff\n      and\n      0xffffffffffffffffffffffffffffffffffffffff\n      and\n      dup2\n      mstore\n      0x20\n      add\n      swap1\n      dup2\n      mstore\n      0x20\n      add\n      0x00\n      keccak256\n        /* \"Cloudy-Blockchain/contracts/NewCloudy.sol\":19925:19973  providerDetails[_storageProvider].storedShardIds */\n      0x05\n      add\n        /* \"Cloudy-Blockchain/contracts/NewCloudy.sol\":19918:19973  return providerDetails[_storageProvider].storedShardIds */\n      dup1\n      sload\n      dup1\n      0x20\n      mul\n      0x20\n      add\n      mload(0x40)\n      swap1\n      dup2\n      add\n      0x40\n      mstore\n      dup1\n      swap3\n      swap2\n      swap1\n      dup2\n      dup2\n      mstore\n      0x20\n      add\n      dup3\n      dup1\n      sload\n      dup1\n      iszero\n      tag_398\n      jumpi\n      0x20\n      mul\n      dup3\n      add\n      swap2\n      swap1\n      0x00\n      mstore\n      keccak256(0x00, 0x20)\n      swap1\n    tag_399:\n      dup2\n      sload\n      dup2\n      mstore\n      0x20\n      add\n      swap1\n      0x01\n      add\n      swap1\n      dup1\n      dup4\n      gt\n      tag_399\n      jumpi\n    tag_398:\n      pop\n      pop\n      pop\n      pop\n      pop\n      swap1\n      pop\n        /* \"Cloudy-Blockchain/contracts/NewCloudy.sol\":19807:19981  function getProviderStoredShards(address _storageProvider) external view returns (uint256[] memory) {... */\n      swap2\n      swap1\n      pop\n      jump\t// out\n        /* \"Cloudy-Blockchain/contracts/NewCloudy.sol\":1080:1127  mapping(address => bytes32[]) public ownerFiles */\n    tag_142:\n      mstore(0x20, 0x04)\n      dup2\n      0x00\n      mstore\n      keccak256(0x00, 0x40)\n      dup2\n      dup2\n      sload\n      dup2\n      lt\n      tag_400\n      jumpi\n      0x00\n      dup1\n      revert\n    tag_400:\n      swap1\n      0x00\n      mstore\n      keccak256(0x00, 0x20)\n      add\n      0x00\n      swap2\n      pop\n      swap2\n      pop\n      pop\n      sload\n      dup2\n      jump\t// out\n        /* \"Cloudy-Blockchain/contracts/NewCloudy.sol\":19398:19529  function getFilesShards(bytes32 _fileHash) external view returns (uint256[] memory) {... */\n    tag_147:\n        /* \"Cloudy-Blockchain/contracts/NewCloudy.sol\":19464:19480  uint256[] memory */\n      0x60\n        /* \"Cloudy-Blockchain/contracts/NewCloudy.sol\":19500:19510  fileShards */\n      0x05\n        /* \"Cloudy-Blockchain/contracts/NewCloudy.sol\":19500:19521  fileShards[_fileHash] */\n      0x00\n        /* \"Cloudy-Blockchain/contracts/NewCloudy.sol\":19511:19520  _fileHash */\n      dup4\n        /* \"Cloudy-Blockchain/contracts/NewCloudy.sol\":19500:19521  fileShards[_fileHash] */\n      dup2\n      mstore\n      0x20\n      add\n      swap1\n      dup2\n      mstore\n      0x20\n      add\n      0x00\n      keccak256\n        /* \"Cloudy-Blockchain/contracts/NewCloudy.sol\":19493:19521  return fileShards[_fileHash] */\n      dup1\n      sload\n      dup1\n      0x20\n      mul\n      0x20\n      add\n      mload(0x40)\n      swap1\n      dup2\n      add\n      0x40\n      mstore\n      dup1\n      swap3\n      swap2\n      swap1\n      dup2\n      dup2\n      mstore\n      0x20\n      add\n      dup3\n      dup1\n      sload\n      dup1\n      iszero\n      tag_403\n      jumpi\n      0x20\n      mul\n      dup3\n      add\n      swap2\n      swap1\n      0x00\n      mstore\n      keccak256(0x00, 0x20)\n      swap1\n    tag_404:\n      dup2\n      sload\n      dup2\n      mstore\n      0x20\n      add\n      swap1\n      0x01\n      add\n      swap1\n      dup1\n      dup4\n      gt\n      tag_404\n      jumpi\n    tag_403:\n      pop\n      pop\n      pop\n      pop\n      pop\n      swap1\n      pop\n        /* \"Cloudy-Blockchain/contracts/NewCloudy.sol\":19398:19529  function getFilesShards(bytes32 _fileHash) external view returns (uint256[] memory) {... */\n      swap2\n      swap1\n      pop\n      jump\t// out\n        /* \"Cloudy-Blockchain/contracts/NewCloudy.sol\":1798:1825  uint256 public rewardAmount */\n    tag_150:\n      sload(0x0a)\n      dup2\n      jump\t// out\n        /* \"Cloudy-Blockchain/contracts/NewCloudy.sol\":5519:6046  function uploadFile(string memory _ownerName, string memory _fileName, bytes32 _fileHash) external {... */\n    tag_155:\n        /* \"Cloudy-Blockchain/contracts/NewCloudy.sol\":5638:5662  doesFileExist(_fileHash) */\n      tag_406\n        /* \"Cloudy-Blockchain/contracts/NewCloudy.sol\":5652:5661  _fileHash */\n      dup2\n        /* \"Cloudy-Blockchain/contracts/NewCloudy.sol\":5638:5651  doesFileExist */\n      tag_407\n        /* \"Cloudy-Blockchain/contracts/NewCloudy.sol\":5638:5662  doesFileExist(_fileHash) */\n      jump\t// in\n    tag_406:\n        /* \"Cloudy-Blockchain/contracts/NewCloudy.sol\":5637:5662  !doesFileExist(_fileHash) */\n      iszero\n        /* \"Cloudy-Blockchain/contracts/NewCloudy.sol\":5629:5686  require(!doesFileExist(_fileHash), \"File already exists\") */\n      tag_408\n      jumpi\n      mload(0x40)\n      0x08c379a000000000000000000000000000000000000000000000000000000000\n      dup2\n      mstore\n      0x04\n      add\n      tag_409\n      swap1\n      tag_410\n      jump\t// in\n    tag_409:\n      mload(0x40)\n      dup1\n      swap2\n      sub\n      swap1\n      revert\n    tag_408:\n        /* \"Cloudy-Blockchain/contracts/NewCloudy.sol\":5732:5733  0 */\n      0x00\n        /* \"Cloudy-Blockchain/contracts/NewCloudy.sol\":5711:5721  _ownerName */\n      dup4\n        /* \"Cloudy-Blockchain/contracts/NewCloudy.sol\":5705:5729  bytes(_ownerName).length */\n      mload\n        /* \"Cloudy-Blockchain/contracts/NewCloudy.sol\":5705:5733  bytes(_ownerName).length > 0 */\n      gt\n        /* \"Cloudy-Blockchain/contracts/NewCloudy.sol\":5697:5765  require(bytes(_ownerName).length > 0, \"Owner name must be provided\") */\n      tag_411\n      jumpi\n      mload(0x40)\n      0x08c379a000000000000000000000000000000000000000000000000000000000\n      dup2\n      mstore\n      0x04\n      add\n      tag_412\n      swap1\n      tag_413\n      jump\t// in\n    tag_412:\n      mload(0x40)\n      dup1\n      swap2\n      sub\n      swap1\n      revert\n    tag_411:\n        /* \"Cloudy-Blockchain/contracts/NewCloudy.sol\":5810:5811  0 */\n      0x00\n        /* \"Cloudy-Blockchain/contracts/NewCloudy.sol\":5790:5799  _fileName */\n      dup3\n        /* \"Cloudy-Blockchain/contracts/NewCloudy.sol\":5784:5807  bytes(_fileName).length */\n      mload\n        /* \"Cloudy-Blockchain/contracts/NewCloudy.sol\":5784:5811  bytes(_fileName).length > 0 */\n      gt\n        /* \"Cloudy-Blockchain/contracts/NewCloudy.sol\":5776:5842  require(bytes(_fileName).length > 0, \"File name must be provided\") */\n      tag_414\n      jumpi\n      mload(0x40)\n      0x08c379a000000000000000000000000000000000000000000000000000000000\n      dup2\n      mstore\n      0x04\n      add\n      tag_415\n      swap1\n      tag_416\n      jump\t// in\n    tag_415:\n      mload(0x40)\n      dup1\n      swap2\n      sub\n      swap1\n      revert\n    tag_414:\n        /* \"Cloudy-Blockchain/contracts/NewCloudy.sol\":5880:5936  File(msg.sender, _ownerName, _fileName, _fileHash, true) */\n      mload(0x40)\n      dup1\n      0xa0\n      add\n      0x40\n      mstore\n      dup1\n        /* \"Cloudy-Blockchain/contracts/NewCloudy.sol\":5885:5895  msg.sender */\n      caller\n        /* \"Cloudy-Blockchain/contracts/NewCloudy.sol\":5880:5936  File(msg.sender, _ownerName, _fileName, _fileHash, true) */\n      0xffffffffffffffffffffffffffffffffffffffff\n      and\n      dup2\n      mstore\n      0x20\n      add\n        /* \"Cloudy-Blockchain/contracts/NewCloudy.sol\":5897:5907  _ownerName */\n      dup5\n        /* \"Cloudy-Blockchain/contracts/NewCloudy.sol\":5880:5936  File(msg.sender, _ownerName, _fileName, _fileHash, true) */\n      dup2\n      mstore\n      0x20\n      add\n        /* \"Cloudy-Blockchain/contracts/NewCloudy.sol\":5909:5918  _fileName */\n      dup4\n        /* \"Cloudy-Blockchain/contracts/NewCloudy.sol\":5880:5936  File(msg.sender, _ownerName, _fileName, _fileHash, true) */\n      dup2\n      mstore\n      0x20\n      add\n        /* \"Cloudy-Blockchain/contracts/NewCloudy.sol\":5920:5929  _fileHash */\n      dup3\n        /* \"Cloudy-Blockchain/contracts/NewCloudy.sol\":5880:5936  File(msg.sender, _ownerName, _fileName, _fileHash, true) */\n      dup2\n      mstore\n      0x20\n      add\n        /* \"Cloudy-Blockchain/contracts/NewCloudy.sol\":5931:5935  true */\n      0x01\n        /* \"Cloudy-Blockchain/contracts/NewCloudy.sol\":5880:5936  File(msg.sender, _ownerName, _fileName, _fileHash, true) */\n      iszero\n      iszero\n      dup2\n      mstore\n      pop\n        /* \"Cloudy-Blockchain/contracts/NewCloudy.sol\":5855:5866  filesByHash */\n      0x01\n        /* \"Cloudy-Blockchain/contracts/NewCloudy.sol\":5855:5877  filesByHash[_fileHash] */\n      0x00\n        /* \"Cloudy-Blockchain/contracts/NewCloudy.sol\":5867:5876  _fileHash */\n      dup4\n        /* \"Cloudy-Blockchain/contracts/NewCloudy.sol\":5855:5877  filesByHash[_fileHash] */\n      dup2\n      mstore\n      0x20\n      add\n      swap1\n      dup2\n      mstore\n      0x20\n      add\n      0x00\n      keccak256\n        /* \"Cloudy-Blockchain/contracts/NewCloudy.sol\":5855:5936  filesByHash[_fileHash] = File(msg.sender, _ownerName, _fileName, _fileHash, true) */\n      0x00\n      dup3\n      add\n      mload\n      dup2\n      0x00\n      add\n      exp(0x0100, 0x00)\n      dup2\n      sload\n      dup2\n      0xffffffffffffffffffffffffffffffffffffffff\n      mul\n      not\n      and\n      swap1\n      dup4\n      0xffffffffffffffffffffffffffffffffffffffff\n      and\n      mul\n      or\n      swap1\n      sstore\n      pop\n      0x20\n      dup3\n      add\n      mload\n      dup2\n      0x01\n      add\n      swap1\n      dup2\n      tag_417\n      swap2\n      swap1\n      tag_418\n      jump\t// in\n    tag_417:\n      pop\n      0x40\n      dup3\n      add\n      mload\n      dup2\n      0x02\n      add\n      swap1\n      dup2\n      tag_419\n      swap2\n      swap1\n      tag_418\n      jump\t// in\n    tag_419:\n      pop\n      0x60\n      dup3\n      add\n      mload\n      dup2\n      0x03\n      add\n      sstore\n      0x80\n      dup3\n      add\n      mload\n      dup2\n      0x04\n      add\n      exp(0x0100, 0x00)\n      dup2\n      sload\n      dup2\n      0xff\n      mul\n      not\n      and\n      swap1\n      dup4\n      iszero\n      iszero\n      mul\n      or\n      swap1\n      sstore\n      pop\n      swap1\n      pop\n      pop\n        /* \"Cloudy-Blockchain/contracts/NewCloudy.sol\":5947:5957  ownerFiles */\n      0x04\n        /* \"Cloudy-Blockchain/contracts/NewCloudy.sol\":5947:5969  ownerFiles[msg.sender] */\n      0x00\n        /* \"Cloudy-Blockchain/contracts/NewCloudy.sol\":5958:5968  msg.sender */\n      caller\n        /* \"Cloudy-Blockchain/contracts/NewCloudy.sol\":5947:5969  ownerFiles[msg.sender] */\n      0xffffffffffffffffffffffffffffffffffffffff\n      and\n      0xffffffffffffffffffffffffffffffffffffffff\n      and\n      dup2\n      mstore\n      0x20\n      add\n      swap1\n      dup2\n      mstore\n      0x20\n      add\n      0x00\n      keccak256\n        /* \"Cloudy-Blockchain/contracts/NewCloudy.sol\":5975:5984  _fileHash */\n      dup2\n        /* \"Cloudy-Blockchain/contracts/NewCloudy.sol\":5947:5985  ownerFiles[msg.sender].push(_fileHash) */\n      swap1\n      dup1\n      0x01\n      dup2\n      sload\n      add\n      dup1\n      dup3\n      sstore\n      dup1\n      swap2\n      pop\n      pop\n      0x01\n      swap1\n      sub\n      swap1\n      0x00\n      mstore\n      keccak256(0x00, 0x20)\n      add\n      0x00\n      swap1\n      swap2\n      swap1\n      swap2\n      swap1\n      swap2\n      pop\n      sstore\n        /* \"Cloudy-Blockchain/contracts/NewCloudy.sol\":6016:6026  msg.sender */\n      caller\n        /* \"Cloudy-Blockchain/contracts/NewCloudy.sol\":6003:6038  FileUploaded(msg.sender, _fileHash) */\n      0xffffffffffffffffffffffffffffffffffffffff\n      and\n      0x9d48acd588e12327eb550aa18487e52b21718db603d19f02370a818e4bb7863c\n        /* \"Cloudy-Blockchain/contracts/NewCloudy.sol\":6028:6037  _fileHash */\n      dup3\n        /* \"Cloudy-Blockchain/contracts/NewCloudy.sol\":6003:6038  FileUploaded(msg.sender, _fileHash) */\n      mload(0x40)\n      tag_421\n      swap2\n      swap1\n      tag_144\n      jump\t// in\n    tag_421:\n      mload(0x40)\n      dup1\n      swap2\n      sub\n      swap1\n      log2\n        /* \"Cloudy-Blockchain/contracts/NewCloudy.sol\":5519:6046  function uploadFile(string memory _ownerName, string memory _fileName, bytes32 _fileHash) external {... */\n      pop\n      pop\n      pop\n      jump\t// out\n        /* \"Cloudy-Blockchain/contracts/NewCloudy.sol\":14246:14665  function removeProviderFromArray(address[] storage _array, address _provider) internal {... */\n    tag_173:\n        /* \"Cloudy-Blockchain/contracts/NewCloudy.sol\":14344:14358  uint256 length */\n      0x00\n        /* \"Cloudy-Blockchain/contracts/NewCloudy.sol\":14361:14367  _array */\n      dup3\n        /* \"Cloudy-Blockchain/contracts/NewCloudy.sol\":14361:14374  _array.length */\n      dup1\n      sload\n      swap1\n      pop\n        /* \"Cloudy-Blockchain/contracts/NewCloudy.sol\":14344:14374  uint256 length = _array.length */\n      swap1\n      pop\n        /* \"Cloudy-Blockchain/contracts/NewCloudy.sol\":14390:14399  uint256 i */\n      0x00\n        /* \"Cloudy-Blockchain/contracts/NewCloudy.sol\":14385:14658  for (uint256 i = 0; i < length; i++) {... */\n    tag_423:\n        /* \"Cloudy-Blockchain/contracts/NewCloudy.sol\":14409:14415  length */\n      dup2\n        /* \"Cloudy-Blockchain/contracts/NewCloudy.sol\":14405:14406  i */\n      dup2\n        /* \"Cloudy-Blockchain/contracts/NewCloudy.sol\":14405:14415  i < length */\n      lt\n        /* \"Cloudy-Blockchain/contracts/NewCloudy.sol\":14385:14658  for (uint256 i = 0; i < length; i++) {... */\n      iszero\n      tag_424\n      jumpi\n        /* \"Cloudy-Blockchain/contracts/NewCloudy.sol\":14454:14463  _provider */\n      dup3\n        /* \"Cloudy-Blockchain/contracts/NewCloudy.sol\":14441:14463  _array[i] == _provider */\n      0xffffffffffffffffffffffffffffffffffffffff\n      and\n        /* \"Cloudy-Blockchain/contracts/NewCloudy.sol\":14441:14447  _array */\n      dup5\n        /* \"Cloudy-Blockchain/contracts/NewCloudy.sol\":14448:14449  i */\n      dup3\n        /* \"Cloudy-Blockchain/contracts/NewCloudy.sol\":14441:14450  _array[i] */\n      dup2\n      sload\n      dup2\n      lt\n      tag_426\n      jumpi\n      tag_427\n      tag_180\n      jump\t// in\n    tag_427:\n    tag_426:\n      swap1\n      0x00\n      mstore\n      keccak256(0x00, 0x20)\n      add\n      0x00\n      swap1\n      sload\n      swap1\n      0x0100\n      exp\n      swap1\n      div\n      0xffffffffffffffffffffffffffffffffffffffff\n      and\n        /* \"Cloudy-Blockchain/contracts/NewCloudy.sol\":14441:14463  _array[i] == _provider */\n      0xffffffffffffffffffffffffffffffffffffffff\n      and\n      sub\n        /* \"Cloudy-Blockchain/contracts/NewCloudy.sol\":14437:14647  if (_array[i] == _provider) {... */\n      tag_429\n      jumpi\n        /* \"Cloudy-Blockchain/contracts/NewCloudy.sol\":14501:14502  1 */\n      0x01\n        /* \"Cloudy-Blockchain/contracts/NewCloudy.sol\":14492:14498  length */\n      dup3\n        /* \"Cloudy-Blockchain/contracts/NewCloudy.sol\":14492:14502  length - 1 */\n      tag_430\n      swap2\n      swap1\n      tag_206\n      jump\t// in\n    tag_430:\n        /* \"Cloudy-Blockchain/contracts/NewCloudy.sol\":14488:14489  i */\n      dup2\n        /* \"Cloudy-Blockchain/contracts/NewCloudy.sol\":14488:14502  i < length - 1 */\n      lt\n        /* \"Cloudy-Blockchain/contracts/NewCloudy.sol\":14484:14577  if (i < length - 1) {... */\n      iszero\n      tag_431\n      jumpi\n        /* \"Cloudy-Blockchain/contracts/NewCloudy.sol\":14539:14545  _array */\n      dup4\n        /* \"Cloudy-Blockchain/contracts/NewCloudy.sol\":14555:14556  1 */\n      0x01\n        /* \"Cloudy-Blockchain/contracts/NewCloudy.sol\":14546:14552  length */\n      dup4\n        /* \"Cloudy-Blockchain/contracts/NewCloudy.sol\":14546:14556  length - 1 */\n      tag_432\n      swap2\n      swap1\n      tag_206\n      jump\t// in\n    tag_432:\n        /* \"Cloudy-Blockchain/contracts/NewCloudy.sol\":14539:14557  _array[length - 1] */\n      dup2\n      sload\n      dup2\n      lt\n      tag_433\n      jumpi\n      tag_434\n      tag_180\n      jump\t// in\n    tag_434:\n    tag_433:\n      swap1\n      0x00\n      mstore\n      keccak256(0x00, 0x20)\n      add\n      0x00\n      swap1\n      sload\n      swap1\n      0x0100\n      exp\n      swap1\n      div\n      0xffffffffffffffffffffffffffffffffffffffff\n      and\n        /* \"Cloudy-Blockchain/contracts/NewCloudy.sol\":14527:14533  _array */\n      dup5\n        /* \"Cloudy-Blockchain/contracts/NewCloudy.sol\":14534:14535  i */\n      dup3\n        /* \"Cloudy-Blockchain/contracts/NewCloudy.sol\":14527:14536  _array[i] */\n      dup2\n      sload\n      dup2\n      lt\n      tag_436\n      jumpi\n      tag_437\n      tag_180\n      jump\t// in\n    tag_437:\n    tag_436:\n      swap1\n      0x00\n      mstore\n      keccak256(0x00, 0x20)\n      add\n      0x00\n        /* \"Cloudy-Blockchain/contracts/NewCloudy.sol\":14527:14557  _array[i] = _array[length - 1] */\n      0x0100\n      exp\n      dup2\n      sload\n      dup2\n      0xffffffffffffffffffffffffffffffffffffffff\n      mul\n      not\n      and\n      swap1\n      dup4\n      0xffffffffffffffffffffffffffffffffffffffff\n      and\n      mul\n      or\n      swap1\n      sstore\n      pop\n        /* \"Cloudy-Blockchain/contracts/NewCloudy.sol\":14484:14577  if (i < length - 1) {... */\n    tag_431:\n        /* \"Cloudy-Blockchain/contracts/NewCloudy.sol\":14595:14601  _array */\n      dup4\n        /* \"Cloudy-Blockchain/contracts/NewCloudy.sol\":14595:14607  _array.pop() */\n      dup1\n      sload\n      dup1\n      tag_439\n      jumpi\n      tag_440\n      tag_215\n      jump\t// in\n    tag_440:\n    tag_439:\n      0x01\n      swap1\n      sub\n      dup2\n      dup2\n      swap1\n      0x00\n      mstore\n      keccak256(0x00, 0x20)\n      add\n      exp(0x0100, 0x00)\n      dup2\n      sload\n      swap1\n      0xffffffffffffffffffffffffffffffffffffffff\n      mul\n      not\n      and\n      swap1\n      sstore\n      swap1\n      sstore\n        /* \"Cloudy-Blockchain/contracts/NewCloudy.sol\":14626:14631  break */\n      jump(tag_424)\n        /* \"Cloudy-Blockchain/contracts/NewCloudy.sol\":14437:14647  if (_array[i] == _provider) {... */\n    tag_429:\n        /* \"Cloudy-Blockchain/contracts/NewCloudy.sol\":14417:14420  i++ */\n      dup1\n      dup1\n      tag_442\n      swap1\n      tag_189\n      jump\t// in\n    tag_442:\n      swap2\n      pop\n      pop\n        /* \"Cloudy-Blockchain/contracts/NewCloudy.sol\":14385:14658  for (uint256 i = 0; i < length; i++) {... */\n      jump(tag_423)\n    tag_424:\n      pop\n        /* \"Cloudy-Blockchain/contracts/NewCloudy.sol\":14333:14665  {... */\n      pop\n        /* \"Cloudy-Blockchain/contracts/NewCloudy.sol\":14246:14665  function removeProviderFromArray(address[] storage _array, address _provider) internal {... */\n      pop\n      pop\n      jump\t// out\n        /* \"Cloudy-Blockchain/contracts/NewCloudy.sol\":10000:10156  function isShardValid(uint256 _shardId) internal view returns (bool) {... */\n    tag_182:\n        /* \"Cloudy-Blockchain/contracts/NewCloudy.sol\":10063:10067  bool */\n      0x00\n        /* \"Cloudy-Blockchain/contracts/NewCloudy.sol\":10080:10099  Shard storage shard */\n      dup1\n        /* \"Cloudy-Blockchain/contracts/NewCloudy.sol\":10102:10108  shards */\n      0x00\n        /* \"Cloudy-Blockchain/contracts/NewCloudy.sol\":10102:10118  shards[_shardId] */\n      dup1\n        /* \"Cloudy-Blockchain/contracts/NewCloudy.sol\":10109:10117  _shardId */\n      dup5\n        /* \"Cloudy-Blockchain/contracts/NewCloudy.sol\":10102:10118  shards[_shardId] */\n      dup2\n      mstore\n      0x20\n      add\n      swap1\n      dup2\n      mstore\n      0x20\n      add\n      0x00\n      keccak256\n        /* \"Cloudy-Blockchain/contracts/NewCloudy.sol\":10080:10118  Shard storage shard = shards[_shardId] */\n      swap1\n      pop\n        /* \"Cloudy-Blockchain/contracts/NewCloudy.sol\":10136:10141  shard */\n      dup1\n        /* \"Cloudy-Blockchain/contracts/NewCloudy.sol\":10136:10148  shard.exists */\n      0x05\n      add\n      0x00\n      swap1\n      sload\n      swap1\n      0x0100\n      exp\n      swap1\n      div\n      0xff\n      and\n        /* \"Cloudy-Blockchain/contracts/NewCloudy.sol\":10129:10148  return shard.exists */\n      swap2\n      pop\n      pop\n        /* \"Cloudy-Blockchain/contracts/NewCloudy.sol\":10000:10156  function isShardValid(uint256 _shardId) internal view returns (bool) {... */\n      swap2\n      swap1\n      pop\n      jump\t// out\n        /* \"Cloudy-Blockchain/contracts/NewCloudy.sol\":10255:10597  function payReward(address _storageProvider) internal {... */\n    tag_187:\n        /* \"Cloudy-Blockchain/contracts/NewCloudy.sol\":10353:10365  rewardAmount */\n      sload(0x0a)\n        /* \"Cloudy-Blockchain/contracts/NewCloudy.sol\":10328:10349  address(this).balance */\n      selfbalance\n        /* \"Cloudy-Blockchain/contracts/NewCloudy.sol\":10328:10365  address(this).balance >= rewardAmount */\n      lt\n      iszero\n        /* \"Cloudy-Blockchain/contracts/NewCloudy.sol\":10320:10399  require(address(this).balance >= rewardAmount, \"Insufficient contract balance\") */\n      tag_445\n      jumpi\n      mload(0x40)\n      0x08c379a000000000000000000000000000000000000000000000000000000000\n      dup2\n      mstore\n      0x04\n      add\n      tag_446\n      swap1\n      tag_447\n      jump\t// in\n    tag_446:\n      mload(0x40)\n      dup1\n      swap2\n      sub\n      swap1\n      revert\n    tag_445:\n        /* \"Cloudy-Blockchain/contracts/NewCloudy.sol\":10413:10425  bool success */\n      0x00\n        /* \"Cloudy-Blockchain/contracts/NewCloudy.sol\":10431:10447  _storageProvider */\n      dup2\n        /* \"Cloudy-Blockchain/contracts/NewCloudy.sol\":10431:10452  _storageProvider.call */\n      0xffffffffffffffffffffffffffffffffffffffff\n      and\n        /* \"Cloudy-Blockchain/contracts/NewCloudy.sol\":10460:10472  rewardAmount */\n      sload(0x0a)\n        /* \"Cloudy-Blockchain/contracts/NewCloudy.sol\":10431:10477  _storageProvider.call{value: rewardAmount}(\"\") */\n      mload(0x40)\n      tag_448\n      swap1\n      tag_449\n      jump\t// in\n    tag_448:\n      0x00\n      mload(0x40)\n      dup1\n      dup4\n      sub\n      dup2\n      dup6\n      dup8\n      gas\n      call\n      swap3\n      pop\n      pop\n      pop\n      returndatasize\n      dup1\n      0x00\n      dup2\n      eq\n      tag_452\n      jumpi\n      mload(0x40)\n      swap2\n      pop\n      and(add(returndatasize, 0x3f), not(0x1f))\n      dup3\n      add\n      0x40\n      mstore\n      returndatasize\n      dup3\n      mstore\n      returndatasize\n      0x00\n      0x20\n      dup5\n      add\n      returndatacopy\n      jump(tag_451)\n    tag_452:\n      0x60\n      swap2\n      pop\n    tag_451:\n      pop\n        /* \"Cloudy-Blockchain/contracts/NewCloudy.sol\":10412:10477  (bool success, ) = _storageProvider.call{value: rewardAmount}(\"\") */\n      pop\n      swap1\n      pop\n        /* \"Cloudy-Blockchain/contracts/NewCloudy.sol\":10496:10503  success */\n      dup1\n        /* \"Cloudy-Blockchain/contracts/NewCloudy.sol\":10488:10529  require(success, \"Reward payment failed\") */\n      tag_453\n      jumpi\n      mload(0x40)\n      0x08c379a000000000000000000000000000000000000000000000000000000000\n      dup2\n      mstore\n      0x04\n      add\n      tag_454\n      swap1\n      tag_455\n      jump\t// in\n    tag_454:\n      mload(0x40)\n      dup1\n      swap2\n      sub\n      swap1\n      revert\n    tag_453:\n        /* \"Cloudy-Blockchain/contracts/NewCloudy.sol\":10547:10589  RewardPaid(_storageProvider, rewardAmount) */\n      0xe2403640ba68fed3a2f88b7557551d1993f84b99bb10ff833f0cf8db0c5e0486\n        /* \"Cloudy-Blockchain/contracts/NewCloudy.sol\":10558:10574  _storageProvider */\n      dup3\n        /* \"Cloudy-Blockchain/contracts/NewCloudy.sol\":10576:10588  rewardAmount */\n      sload(0x0a)\n        /* \"Cloudy-Blockchain/contracts/NewCloudy.sol\":10547:10589  RewardPaid(_storageProvider, rewardAmount) */\n      mload(0x40)\n      tag_456\n      swap3\n      swap2\n      swap1\n      tag_457\n      jump\t// in\n    tag_456:\n      mload(0x40)\n      dup1\n      swap2\n      sub\n      swap1\n      log1\n        /* \"Cloudy-Blockchain/contracts/NewCloudy.sol\":10309:10597  {... */\n      pop\n        /* \"Cloudy-Blockchain/contracts/NewCloudy.sol\":10255:10597  function payReward(address _storageProvider) internal {... */\n      pop\n      jump\t// out\n        /* \"Cloudy-Blockchain/contracts/NewCloudy.sol\":16672:17357  function removeShardFromProvider(uint256 _shardId) internal {... */\n    tag_278:\n        /* \"Cloudy-Blockchain/contracts/NewCloudy.sol\":16743:16762  Shard storage shard */\n      0x00\n        /* \"Cloudy-Blockchain/contracts/NewCloudy.sol\":16765:16771  shards */\n      dup1\n        /* \"Cloudy-Blockchain/contracts/NewCloudy.sol\":16765:16781  shards[_shardId] */\n      0x00\n        /* \"Cloudy-Blockchain/contracts/NewCloudy.sol\":16772:16780  _shardId */\n      dup4\n        /* \"Cloudy-Blockchain/contracts/NewCloudy.sol\":16765:16781  shards[_shardId] */\n      dup2\n      mstore\n      0x20\n      add\n      swap1\n      dup2\n      mstore\n      0x20\n      add\n      0x00\n      keccak256\n        /* \"Cloudy-Blockchain/contracts/NewCloudy.sol\":16743:16781  Shard storage shard = shards[_shardId] */\n      swap1\n      pop\n        /* \"Cloudy-Blockchain/contracts/NewCloudy.sol\":16792:16815  address storageProvider */\n      0x00\n        /* \"Cloudy-Blockchain/contracts/NewCloudy.sol\":16818:16823  shard */\n      dup2\n        /* \"Cloudy-Blockchain/contracts/NewCloudy.sol\":16818:16839  shard.storageProvider */\n      0x01\n      add\n      0x00\n      swap1\n      sload\n      swap1\n      0x0100\n      exp\n      swap1\n      div\n      0xffffffffffffffffffffffffffffffffffffffff\n      and\n        /* \"Cloudy-Blockchain/contracts/NewCloudy.sol\":16792:16839  address storageProvider = shard.storageProvider */\n      swap1\n      pop\n        /* \"Cloudy-Blockchain/contracts/NewCloudy.sol\":16914:16946  uint256[] storage providerShards */\n      0x00\n        /* \"Cloudy-Blockchain/contracts/NewCloudy.sol\":16949:16965  storageProviders */\n      0x02\n        /* \"Cloudy-Blockchain/contracts/NewCloudy.sol\":16949:16982  storageProviders[storageProvider] */\n      0x00\n        /* \"Cloudy-Blockchain/contracts/NewCloudy.sol\":16966:16981  storageProvider */\n      dup4\n        /* \"Cloudy-Blockchain/contracts/NewCloudy.sol\":16949:16982  storageProviders[storageProvider] */\n      0xffffffffffffffffffffffffffffffffffffffff\n      and\n      0xffffffffffffffffffffffffffffffffffffffff\n      and\n      dup2\n      mstore\n      0x20\n      add\n      swap1\n      dup2\n      mstore\n      0x20\n      add\n      0x00\n      keccak256\n        /* \"Cloudy-Blockchain/contracts/NewCloudy.sol\":16914:16982  uint256[] storage providerShards = storageProviders[storageProvider] */\n      swap1\n      pop\n        /* \"Cloudy-Blockchain/contracts/NewCloudy.sol\":16998:17007  uint256 i */\n      0x00\n        /* \"Cloudy-Blockchain/contracts/NewCloudy.sol\":16993:17310  for (uint256 i = 0; i < providerShards.length; i++) {... */\n    tag_459:\n        /* \"Cloudy-Blockchain/contracts/NewCloudy.sol\":17017:17031  providerShards */\n      dup2\n        /* \"Cloudy-Blockchain/contracts/NewCloudy.sol\":17017:17038  providerShards.length */\n      dup1\n      sload\n      swap1\n      pop\n        /* \"Cloudy-Blockchain/contracts/NewCloudy.sol\":17013:17014  i */\n      dup2\n        /* \"Cloudy-Blockchain/contracts/NewCloudy.sol\":17013:17038  i < providerShards.length */\n      lt\n        /* \"Cloudy-Blockchain/contracts/NewCloudy.sol\":16993:17310  for (uint256 i = 0; i < providerShards.length; i++) {... */\n      iszero\n      tag_460\n      jumpi\n        /* \"Cloudy-Blockchain/contracts/NewCloudy.sol\":17085:17093  _shardId */\n      dup5\n        /* \"Cloudy-Blockchain/contracts/NewCloudy.sol\":17064:17078  providerShards */\n      dup3\n        /* \"Cloudy-Blockchain/contracts/NewCloudy.sol\":17079:17080  i */\n      dup3\n        /* \"Cloudy-Blockchain/contracts/NewCloudy.sol\":17064:17081  providerShards[i] */\n      dup2\n      sload\n      dup2\n      lt\n      tag_462\n      jumpi\n      tag_463\n      tag_180\n      jump\t// in\n    tag_463:\n    tag_462:\n      swap1\n      0x00\n      mstore\n      keccak256(0x00, 0x20)\n      add\n      sload\n        /* \"Cloudy-Blockchain/contracts/NewCloudy.sol\":17064:17093  providerShards[i] == _shardId */\n      sub\n        /* \"Cloudy-Blockchain/contracts/NewCloudy.sol\":17060:17299  if (providerShards[i] == _shardId) {... */\n      tag_465\n      jumpi\n        /* \"Cloudy-Blockchain/contracts/NewCloudy.sol\":17134:17148  providerShards */\n      dup2\n        /* \"Cloudy-Blockchain/contracts/NewCloudy.sol\":17173:17174  1 */\n      0x01\n        /* \"Cloudy-Blockchain/contracts/NewCloudy.sol\":17149:17163  providerShards */\n      dup4\n        /* \"Cloudy-Blockchain/contracts/NewCloudy.sol\":17149:17170  providerShards.length */\n      dup1\n      sload\n      swap1\n      pop\n        /* \"Cloudy-Blockchain/contracts/NewCloudy.sol\":17149:17174  providerShards.length - 1 */\n      tag_466\n      swap2\n      swap1\n      tag_206\n      jump\t// in\n    tag_466:\n        /* \"Cloudy-Blockchain/contracts/NewCloudy.sol\":17134:17175  providerShards[providerShards.length - 1] */\n      dup2\n      sload\n      dup2\n      lt\n      tag_467\n      jumpi\n      tag_468\n      tag_180\n      jump\t// in\n    tag_468:\n    tag_467:\n      swap1\n      0x00\n      mstore\n      keccak256(0x00, 0x20)\n      add\n      sload\n        /* \"Cloudy-Blockchain/contracts/NewCloudy.sol\":17114:17128  providerShards */\n      dup3\n        /* \"Cloudy-Blockchain/contracts/NewCloudy.sol\":17129:17130  i */\n      dup3\n        /* \"Cloudy-Blockchain/contracts/NewCloudy.sol\":17114:17131  providerShards[i] */\n      dup2\n      sload\n      dup2\n      lt\n      tag_470\n      jumpi\n      tag_471\n      tag_180\n      jump\t// in\n    tag_471:\n    tag_470:\n      swap1\n      0x00\n      mstore\n      keccak256(0x00, 0x20)\n      add\n        /* \"Cloudy-Blockchain/contracts/NewCloudy.sol\":17114:17175  providerShards[i] = providerShards[providerShards.length - 1] */\n      dup2\n      swap1\n      sstore\n      pop\n        /* \"Cloudy-Blockchain/contracts/NewCloudy.sol\":17194:17208  providerShards */\n      dup2\n        /* \"Cloudy-Blockchain/contracts/NewCloudy.sol\":17194:17214  providerShards.pop() */\n      dup1\n      sload\n      dup1\n      tag_473\n      jumpi\n      tag_474\n      tag_215\n      jump\t// in\n    tag_474:\n    tag_473:\n      0x01\n      swap1\n      sub\n      dup2\n      dup2\n      swap1\n      0x00\n      mstore\n      keccak256(0x00, 0x20)\n      add\n      0x00\n      swap1\n      sstore\n      swap1\n      sstore\n        /* \"Cloudy-Blockchain/contracts/NewCloudy.sol\":17278:17283  break */\n      jump(tag_460)\n        /* \"Cloudy-Blockchain/contracts/NewCloudy.sol\":17060:17299  if (providerShards[i] == _shardId) {... */\n    tag_465:\n        /* \"Cloudy-Blockchain/contracts/NewCloudy.sol\":17040:17043  i++ */\n      dup1\n      dup1\n      tag_476\n      swap1\n      tag_189\n      jump\t// in\n    tag_476:\n      swap2\n      pop\n      pop\n        /* \"Cloudy-Blockchain/contracts/NewCloudy.sol\":16993:17310  for (uint256 i = 0; i < providerShards.length; i++) {... */\n      jump(tag_459)\n    tag_460:\n      pop\n        /* \"Cloudy-Blockchain/contracts/NewCloudy.sol\":17327:17349  ShardDeleted(_shardId) */\n      0xf6a2d10319800c3ecf3244c17904ea5f3026e430b4417ee5ec5baa464e8f9b0c\n        /* \"Cloudy-Blockchain/contracts/NewCloudy.sol\":17340:17348  _shardId */\n      dup5\n        /* \"Cloudy-Blockchain/contracts/NewCloudy.sol\":17327:17349  ShardDeleted(_shardId) */\n      mload(0x40)\n      tag_477\n      swap2\n      swap1\n      tag_43\n      jump\t// in\n    tag_477:\n      mload(0x40)\n      dup1\n      swap2\n      sub\n      swap1\n      log1\n        /* \"Cloudy-Blockchain/contracts/NewCloudy.sol\":16732:17357  {... */\n      pop\n      pop\n      pop\n        /* \"Cloudy-Blockchain/contracts/NewCloudy.sol\":16672:17357  function removeShardFromProvider(uint256 _shardId) internal {... */\n      pop\n      jump\t// out\n        /* \"Cloudy-Blockchain/contracts/NewCloudy.sol\":9699:9822  function doesFileExist(bytes32 _fileHash) internal view returns (bool) {... */\n    tag_407:\n        /* \"Cloudy-Blockchain/contracts/NewCloudy.sol\":9764:9768  bool */\n      0x00\n        /* \"Cloudy-Blockchain/contracts/NewCloudy.sol\":9788:9803  OwnerToFileHash */\n      0x06\n        /* \"Cloudy-Blockchain/contracts/NewCloudy.sol\":9788:9814  OwnerToFileHash[_fileHash] */\n      0x00\n        /* \"Cloudy-Blockchain/contracts/NewCloudy.sol\":9804:9813  _fileHash */\n      dup4\n        /* \"Cloudy-Blockchain/contracts/NewCloudy.sol\":9788:9814  OwnerToFileHash[_fileHash] */\n      dup2\n      mstore\n      0x20\n      add\n      swap1\n      dup2\n      mstore\n      0x20\n      add\n      0x00\n      keccak256\n      0x00\n      swap1\n      sload\n      swap1\n      0x0100\n      exp\n      swap1\n      div\n      0xff\n      and\n        /* \"Cloudy-Blockchain/contracts/NewCloudy.sol\":9781:9814  return OwnerToFileHash[_fileHash] */\n      swap1\n      pop\n        /* \"Cloudy-Blockchain/contracts/NewCloudy.sol\":9699:9822  function doesFileExist(bytes32 _fileHash) internal view returns (bool) {... */\n      swap2\n      swap1\n      pop\n      jump\t// out\n    tag_250:\n      pop\n      dup1\n      sload\n      tag_479\n      swap1\n      tag_160\n      jump\t// in\n    tag_479:\n      0x00\n      dup3\n      sstore\n      dup1\n      0x1f\n      lt\n      tag_481\n      jumpi\n      pop\n      jump(tag_480)\n    tag_481:\n      0x1f\n      add\n      0x20\n      swap1\n      div\n      swap1\n      0x00\n      mstore\n      keccak256(0x00, 0x20)\n      swap1\n      dup2\n      add\n      swap1\n      tag_482\n      swap2\n      swap1\n      tag_483\n      jump\t// in\n    tag_482:\n    tag_480:\n      pop\n      jump\t// out\n    tag_253:\n      pop\n      dup1\n      sload\n      0x00\n      dup3\n      sstore\n      swap1\n      0x00\n      mstore\n      keccak256(0x00, 0x20)\n      swap1\n      dup2\n      add\n      swap1\n      tag_485\n      swap2\n      swap1\n      tag_483\n      jump\t// in\n    tag_485:\n      pop\n      jump\t// out\n    tag_266:\n      pop\n      dup1\n      sload\n      tag_486\n      swap1\n      tag_160\n      jump\t// in\n    tag_486:\n      0x00\n      dup3\n      sstore\n      dup1\n      0x1f\n      lt\n      tag_488\n      jumpi\n      pop\n      jump(tag_487)\n    tag_488:\n      0x1f\n      add\n      0x20\n      swap1\n      div\n      swap1\n      0x00\n      mstore\n      keccak256(0x00, 0x20)\n      swap1\n      dup2\n      add\n      swap1\n      tag_489\n      swap2\n      swap1\n      tag_483\n      jump\t// in\n    tag_489:\n    tag_487:\n      pop\n      jump\t// out\n    tag_288:\n      dup3\n      dup1\n      sload\n      dup3\n      dup3\n      sstore\n      swap1\n      0x00\n      mstore\n      keccak256(0x00, 0x20)\n      swap1\n      dup2\n      add\n      swap3\n      dup3\n      iszero\n      tag_490\n      jumpi\n      swap2\n      0x20\n      mul\n      dup3\n      add\n    tag_491:\n      dup3\n      dup2\n      gt\n      iszero\n      tag_492\n      jumpi\n      dup3\n      mload\n      dup3\n      sstore\n      swap2\n      0x20\n      add\n      swap2\n      swap1\n      0x01\n      add\n      swap1\n      jump(tag_491)\n    tag_492:\n    tag_490:\n      pop\n      swap1\n      pop\n      tag_493\n      swap2\n      swap1\n      tag_483\n      jump\t// in\n    tag_493:\n      pop\n      swap1\n      jump\t// out\n    tag_483:\n    tag_494:\n      dup1\n      dup3\n      gt\n      iszero\n      tag_495\n      jumpi\n      0x00\n      dup2\n      0x00\n      swap1\n      sstore\n      pop\n      0x01\n      add\n      jump(tag_494)\n    tag_495:\n      pop\n      swap1\n      jump\t// out\n        /* \"#utility.yul\":7:82   */\n    tag_496:\n        /* \"#utility.yul\":40:46   */\n      0x00\n        /* \"#utility.yul\":73:75   */\n      0x40\n        /* \"#utility.yul\":67:76   */\n      mload\n        /* \"#utility.yul\":57:76   */\n      swap1\n      pop\n        /* \"#utility.yul\":7:82   */\n      swap1\n      jump\t// out\n        /* \"#utility.yul\":88:205   */\n    tag_497:\n        /* \"#utility.yul\":197:198   */\n      0x00\n        /* \"#utility.yul\":194:195   */\n      dup1\n        /* \"#utility.yul\":187:199   */\n      revert\n        /* \"#utility.yul\":211:328   */\n    tag_498:\n        /* \"#utility.yul\":320:321   */\n      0x00\n        /* \"#utility.yul\":317:318   */\n      dup1\n        /* \"#utility.yul\":310:322   */\n      revert\n        /* \"#utility.yul\":334:411   */\n    tag_499:\n        /* \"#utility.yul\":371:378   */\n      0x00\n        /* \"#utility.yul\":400:405   */\n      dup2\n        /* \"#utility.yul\":389:405   */\n      swap1\n      pop\n        /* \"#utility.yul\":334:411   */\n      swap2\n      swap1\n      pop\n      jump\t// out\n        /* \"#utility.yul\":417:539   */\n    tag_500:\n        /* \"#utility.yul\":490:514   */\n      tag_602\n        /* \"#utility.yul\":508:513   */\n      dup2\n        /* \"#utility.yul\":490:514   */\n      tag_499\n      jump\t// in\n    tag_602:\n        /* \"#utility.yul\":483:488   */\n      dup2\n        /* \"#utility.yul\":480:515   */\n      eq\n        /* \"#utility.yul\":470:533   */\n      tag_603\n      jumpi\n        /* \"#utility.yul\":529:530   */\n      0x00\n        /* \"#utility.yul\":526:527   */\n      dup1\n        /* \"#utility.yul\":519:531   */\n      revert\n        /* \"#utility.yul\":470:533   */\n    tag_603:\n        /* \"#utility.yul\":417:539   */\n      pop\n      jump\t// out\n        /* \"#utility.yul\":545:684   */\n    tag_501:\n        /* \"#utility.yul\":591:596   */\n      0x00\n        /* \"#utility.yul\":629:635   */\n      dup2\n        /* \"#utility.yul\":616:636   */\n      calldataload\n        /* \"#utility.yul\":607:636   */\n      swap1\n      pop\n        /* \"#utility.yul\":645:678   */\n      tag_605\n        /* \"#utility.yul\":672:677   */\n      dup2\n        /* \"#utility.yul\":645:678   */\n      tag_500\n      jump\t// in\n    tag_605:\n        /* \"#utility.yul\":545:684   */\n      swap3\n      swap2\n      pop\n      pop\n      jump\t// out\n        /* \"#utility.yul\":690:767   */\n    tag_502:\n        /* \"#utility.yul\":727:734   */\n      0x00\n        /* \"#utility.yul\":756:761   */\n      dup2\n        /* \"#utility.yul\":745:761   */\n      swap1\n      pop\n        /* \"#utility.yul\":690:767   */\n      swap2\n      swap1\n      pop\n      jump\t// out\n        /* \"#utility.yul\":773:895   */\n    tag_503:\n        /* \"#utility.yul\":846:870   */\n      tag_608\n        /* \"#utility.yul\":864:869   */\n      dup2\n        /* \"#utility.yul\":846:870   */\n      tag_502\n      jump\t// in\n    tag_608:\n        /* \"#utility.yul\":839:844   */\n      dup2\n        /* \"#utility.yul\":836:871   */\n      eq\n        /* \"#utility.yul\":826:889   */\n      tag_609\n      jumpi\n        /* \"#utility.yul\":885:886   */\n      0x00\n        /* \"#utility.yul\":882:883   */\n      dup1\n        /* \"#utility.yul\":875:887   */\n      revert\n        /* \"#utility.yul\":826:889   */\n    tag_609:\n        /* \"#utility.yul\":773:895   */\n      pop\n      jump\t// out\n        /* \"#utility.yul\":901:1040   */\n    tag_504:\n        /* \"#utility.yul\":947:952   */\n      0x00\n        /* \"#utility.yul\":985:991   */\n      dup2\n        /* \"#utility.yul\":972:992   */\n      calldataload\n        /* \"#utility.yul\":963:992   */\n      swap1\n      pop\n        /* \"#utility.yul\":1001:1034   */\n      tag_611\n        /* \"#utility.yul\":1028:1033   */\n      dup2\n        /* \"#utility.yul\":1001:1034   */\n      tag_503\n      jump\t// in\n    tag_611:\n        /* \"#utility.yul\":901:1040   */\n      swap3\n      swap2\n      pop\n      pop\n      jump\t// out\n        /* \"#utility.yul\":1046:1520   */\n    tag_40:\n        /* \"#utility.yul\":1114:1120   */\n      0x00\n        /* \"#utility.yul\":1122:1128   */\n      dup1\n        /* \"#utility.yul\":1171:1173   */\n      0x40\n        /* \"#utility.yul\":1159:1168   */\n      dup4\n        /* \"#utility.yul\":1150:1157   */\n      dup6\n        /* \"#utility.yul\":1146:1169   */\n      sub\n        /* \"#utility.yul\":1142:1174   */\n      slt\n        /* \"#utility.yul\":1139:1258   */\n      iszero\n      tag_613\n      jumpi\n        /* \"#utility.yul\":1177:1256   */\n      tag_614\n      tag_497\n      jump\t// in\n    tag_614:\n        /* \"#utility.yul\":1139:1258   */\n    tag_613:\n        /* \"#utility.yul\":1297:1298   */\n      0x00\n        /* \"#utility.yul\":1322:1375   */\n      tag_615\n        /* \"#utility.yul\":1367:1374   */\n      dup6\n        /* \"#utility.yul\":1358:1364   */\n      dup3\n        /* \"#utility.yul\":1347:1356   */\n      dup7\n        /* \"#utility.yul\":1343:1365   */\n      add\n        /* \"#utility.yul\":1322:1375   */\n      tag_501\n      jump\t// in\n    tag_615:\n        /* \"#utility.yul\":1312:1375   */\n      swap3\n      pop\n        /* \"#utility.yul\":1268:1385   */\n      pop\n        /* \"#utility.yul\":1424:1426   */\n      0x20\n        /* \"#utility.yul\":1450:1503   */\n      tag_616\n        /* \"#utility.yul\":1495:1502   */\n      dup6\n        /* \"#utility.yul\":1486:1492   */\n      dup3\n        /* \"#utility.yul\":1475:1484   */\n      dup7\n        /* \"#utility.yul\":1471:1493   */\n      add\n        /* \"#utility.yul\":1450:1503   */\n      tag_504\n      jump\t// in\n    tag_616:\n        /* \"#utility.yul\":1440:1503   */\n      swap2\n      pop\n        /* \"#utility.yul\":1395:1513   */\n      pop\n        /* \"#utility.yul\":1046:1520   */\n      swap3\n      pop\n      swap3\n      swap1\n      pop\n      jump\t// out\n        /* \"#utility.yul\":1526:1644   */\n    tag_505:\n        /* \"#utility.yul\":1613:1637   */\n      tag_618\n        /* \"#utility.yul\":1631:1636   */\n      dup2\n        /* \"#utility.yul\":1613:1637   */\n      tag_502\n      jump\t// in\n    tag_618:\n        /* \"#utility.yul\":1608:1611   */\n      dup3\n        /* \"#utility.yul\":1601:1638   */\n      mstore\n        /* \"#utility.yul\":1526:1644   */\n      pop\n      pop\n      jump\t// out\n        /* \"#utility.yul\":1650:1872   */\n    tag_43:\n        /* \"#utility.yul\":1743:1747   */\n      0x00\n        /* \"#utility.yul\":1781:1783   */\n      0x20\n        /* \"#utility.yul\":1770:1779   */\n      dup3\n        /* \"#utility.yul\":1766:1784   */\n      add\n        /* \"#utility.yul\":1758:1784   */\n      swap1\n      pop\n        /* \"#utility.yul\":1794:1865   */\n      tag_620\n        /* \"#utility.yul\":1862:1863   */\n      0x00\n        /* \"#utility.yul\":1851:1860   */\n      dup4\n        /* \"#utility.yul\":1847:1864   */\n      add\n        /* \"#utility.yul\":1838:1844   */\n      dup5\n        /* \"#utility.yul\":1794:1865   */\n      tag_505\n      jump\t// in\n    tag_620:\n        /* \"#utility.yul\":1650:1872   */\n      swap3\n      swap2\n      pop\n      pop\n      jump\t// out\n        /* \"#utility.yul\":1878:2207   */\n    tag_46:\n        /* \"#utility.yul\":1937:1943   */\n      0x00\n        /* \"#utility.yul\":1986:1988   */\n      0x20\n        /* \"#utility.yul\":1974:1983   */\n      dup3\n        /* \"#utility.yul\":1965:1972   */\n      dup5\n        /* \"#utility.yul\":1961:1984   */\n      sub\n        /* \"#utility.yul\":1957:1989   */\n      slt\n        /* \"#utility.yul\":1954:2073   */\n      iszero\n      tag_622\n      jumpi\n        /* \"#utility.yul\":1992:2071   */\n      tag_623\n      tag_497\n      jump\t// in\n    tag_623:\n        /* \"#utility.yul\":1954:2073   */\n    tag_622:\n        /* \"#utility.yul\":2112:2113   */\n      0x00\n        /* \"#utility.yul\":2137:2190   */\n      tag_624\n        /* \"#utility.yul\":2182:2189   */\n      dup5\n        /* \"#utility.yul\":2173:2179   */\n      dup3\n        /* \"#utility.yul\":2162:2171   */\n      dup6\n        /* \"#utility.yul\":2158:2180   */\n      add\n        /* \"#utility.yul\":2137:2190   */\n      tag_504\n      jump\t// in\n    tag_624:\n        /* \"#utility.yul\":2127:2190   */\n      swap2\n      pop\n        /* \"#utility.yul\":2083:2200   */\n      pop\n        /* \"#utility.yul\":1878:2207   */\n      swap3\n      swap2\n      pop\n      pop\n      jump\t// out\n        /* \"#utility.yul\":2213:2339   */\n    tag_506:\n        /* \"#utility.yul\":2250:2257   */\n      0x00\n        /* \"#utility.yul\":2290:2332   */\n      0xffffffffffffffffffffffffffffffffffffffff\n        /* \"#utility.yul\":2283:2288   */\n      dup3\n        /* \"#utility.yul\":2279:2333   */\n      and\n        /* \"#utility.yul\":2268:2333   */\n      swap1\n      pop\n        /* \"#utility.yul\":2213:2339   */\n      swap2\n      swap1\n      pop\n      jump\t// out\n        /* \"#utility.yul\":2345:2441   */\n    tag_507:\n        /* \"#utility.yul\":2382:2389   */\n      0x00\n        /* \"#utility.yul\":2411:2435   */\n      tag_627\n        /* \"#utility.yul\":2429:2434   */\n      dup3\n        /* \"#utility.yul\":2411:2435   */\n      tag_506\n      jump\t// in\n    tag_627:\n        /* \"#utility.yul\":2400:2435   */\n      swap1\n      pop\n        /* \"#utility.yul\":2345:2441   */\n      swap2\n      swap1\n      pop\n      jump\t// out\n        /* \"#utility.yul\":2447:2565   */\n    tag_508:\n        /* \"#utility.yul\":2534:2558   */\n      tag_629\n        /* \"#utility.yul\":2552:2557   */\n      dup2\n        /* \"#utility.yul\":2534:2558   */\n      tag_507\n      jump\t// in\n    tag_629:\n        /* \"#utility.yul\":2529:2532   */\n      dup3\n        /* \"#utility.yul\":2522:2559   */\n      mstore\n        /* \"#utility.yul\":2447:2565   */\n      pop\n      pop\n      jump\t// out\n        /* \"#utility.yul\":2571:2669   */\n    tag_509:\n        /* \"#utility.yul\":2622:2628   */\n      0x00\n        /* \"#utility.yul\":2656:2661   */\n      dup2\n        /* \"#utility.yul\":2650:2662   */\n      mload\n        /* \"#utility.yul\":2640:2662   */\n      swap1\n      pop\n        /* \"#utility.yul\":2571:2669   */\n      swap2\n      swap1\n      pop\n      jump\t// out\n        /* \"#utility.yul\":2675:2843   */\n    tag_510:\n        /* \"#utility.yul\":2758:2769   */\n      0x00\n        /* \"#utility.yul\":2792:2798   */\n      dup3\n        /* \"#utility.yul\":2787:2790   */\n      dup3\n        /* \"#utility.yul\":2780:2799   */\n      mstore\n        /* \"#utility.yul\":2832:2836   */\n      0x20\n        /* \"#utility.yul\":2827:2830   */\n      dup3\n        /* \"#utility.yul\":2823:2837   */\n      add\n        /* \"#utility.yul\":2808:2837   */\n      swap1\n      pop\n        /* \"#utility.yul\":2675:2843   */\n      swap3\n      swap2\n      pop\n      pop\n      jump\t// out\n        /* \"#utility.yul\":2849:3095   */\n    tag_511:\n        /* \"#utility.yul\":2930:2931   */\n      0x00\n        /* \"#utility.yul\":2940:3053   */\n    tag_633:\n        /* \"#utility.yul\":2954:2960   */\n      dup4\n        /* \"#utility.yul\":2951:2952   */\n      dup2\n        /* \"#utility.yul\":2948:2961   */\n      lt\n        /* \"#utility.yul\":2940:3053   */\n      iszero\n      tag_635\n      jumpi\n        /* \"#utility.yul\":3039:3040   */\n      dup1\n        /* \"#utility.yul\":3034:3037   */\n      dup3\n        /* \"#utility.yul\":3030:3041   */\n      add\n        /* \"#utility.yul\":3024:3042   */\n      mload\n        /* \"#utility.yul\":3020:3021   */\n      dup2\n        /* \"#utility.yul\":3015:3018   */\n      dup5\n        /* \"#utility.yul\":3011:3022   */\n      add\n        /* \"#utility.yul\":3004:3043   */\n      mstore\n        /* \"#utility.yul\":2976:2978   */\n      0x20\n        /* \"#utility.yul\":2973:2974   */\n      dup2\n        /* \"#utility.yul\":2969:2979   */\n      add\n        /* \"#utility.yul\":2964:2979   */\n      swap1\n      pop\n        /* \"#utility.yul\":2940:3053   */\n      jump(tag_633)\n    tag_635:\n        /* \"#utility.yul\":3087:3088   */\n      0x00\n        /* \"#utility.yul\":3078:3084   */\n      dup5\n        /* \"#utility.yul\":3073:3076   */\n      dup5\n        /* \"#utility.yul\":3069:3085   */\n      add\n        /* \"#utility.yul\":3062:3089   */\n      mstore\n        /* \"#utility.yul\":2911:3095   */\n      pop\n        /* \"#utility.yul\":2849:3095   */\n      pop\n      pop\n      pop\n      jump\t// out\n        /* \"#utility.yul\":3101:3203   */\n    tag_512:\n        /* \"#utility.yul\":3142:3148   */\n      0x00\n        /* \"#utility.yul\":3193:3195   */\n      0x1f\n        /* \"#utility.yul\":3189:3196   */\n      not\n        /* \"#utility.yul\":3184:3186   */\n      0x1f\n        /* \"#utility.yul\":3177:3182   */\n      dup4\n        /* \"#utility.yul\":3173:3187   */\n      add\n        /* \"#utility.yul\":3169:3197   */\n      and\n        /* \"#utility.yul\":3159:3197   */\n      swap1\n      pop\n        /* \"#utility.yul\":3101:3203   */\n      swap2\n      swap1\n      pop\n      jump\t// out\n        /* \"#utility.yul\":3209:3582   */\n    tag_513:\n        /* \"#utility.yul\":3295:3298   */\n      0x00\n        /* \"#utility.yul\":3323:3361   */\n      tag_638\n        /* \"#utility.yul\":3355:3360   */\n      dup3\n        /* \"#utility.yul\":3323:3361   */\n      tag_509\n      jump\t// in\n    tag_638:\n        /* \"#utility.yul\":3377:3447   */\n      tag_639\n        /* \"#utility.yul\":3440:3446   */\n      dup2\n        /* \"#utility.yul\":3435:3438   */\n      dup6\n        /* \"#utility.yul\":3377:3447   */\n      tag_510\n      jump\t// in\n    tag_639:\n        /* \"#utility.yul\":3370:3447   */\n      swap4\n      pop\n        /* \"#utility.yul\":3456:3521   */\n      tag_640\n        /* \"#utility.yul\":3514:3520   */\n      dup2\n        /* \"#utility.yul\":3509:3512   */\n      dup6\n        /* \"#utility.yul\":3502:3506   */\n      0x20\n        /* \"#utility.yul\":3495:3500   */\n      dup7\n        /* \"#utility.yul\":3491:3507   */\n      add\n        /* \"#utility.yul\":3456:3521   */\n      tag_511\n      jump\t// in\n    tag_640:\n        /* \"#utility.yul\":3546:3575   */\n      tag_641\n        /* \"#utility.yul\":3568:3574   */\n      dup2\n        /* \"#utility.yul\":3546:3575   */\n      tag_512\n      jump\t// in\n    tag_641:\n        /* \"#utility.yul\":3541:3544   */\n      dup5\n        /* \"#utility.yul\":3537:3576   */\n      add\n        /* \"#utility.yul\":3530:3576   */\n      swap2\n      pop\n        /* \"#utility.yul\":3299:3582   */\n      pop\n        /* \"#utility.yul\":3209:3582   */\n      swap3\n      swap2\n      pop\n      pop\n      jump\t// out\n        /* \"#utility.yul\":3588:3706   */\n    tag_514:\n        /* \"#utility.yul\":3675:3699   */\n      tag_643\n        /* \"#utility.yul\":3693:3698   */\n      dup2\n        /* \"#utility.yul\":3675:3699   */\n      tag_499\n      jump\t// in\n    tag_643:\n        /* \"#utility.yul\":3670:3673   */\n      dup3\n        /* \"#utility.yul\":3663:3700   */\n      mstore\n        /* \"#utility.yul\":3588:3706   */\n      pop\n      pop\n      jump\t// out\n        /* \"#utility.yul\":3712:3802   */\n    tag_515:\n        /* \"#utility.yul\":3746:3753   */\n      0x00\n        /* \"#utility.yul\":3789:3794   */\n      dup2\n        /* \"#utility.yul\":3782:3795   */\n      iszero\n        /* \"#utility.yul\":3775:3796   */\n      iszero\n        /* \"#utility.yul\":3764:3796   */\n      swap1\n      pop\n        /* \"#utility.yul\":3712:3802   */\n      swap2\n      swap1\n      pop\n      jump\t// out\n        /* \"#utility.yul\":3808:3917   */\n    tag_516:\n        /* \"#utility.yul\":3889:3910   */\n      tag_646\n        /* \"#utility.yul\":3904:3909   */\n      dup2\n        /* \"#utility.yul\":3889:3910   */\n      tag_515\n      jump\t// in\n    tag_646:\n        /* \"#utility.yul\":3884:3887   */\n      dup3\n        /* \"#utility.yul\":3877:3911   */\n      mstore\n        /* \"#utility.yul\":3808:3917   */\n      pop\n      pop\n      jump\t// out\n        /* \"#utility.yul\":3923:4773   */\n    tag_52:\n        /* \"#utility.yul\":4168:4172   */\n      0x00\n        /* \"#utility.yul\":4206:4209   */\n      0xc0\n        /* \"#utility.yul\":4195:4204   */\n      dup3\n        /* \"#utility.yul\":4191:4210   */\n      add\n        /* \"#utility.yul\":4183:4210   */\n      swap1\n      pop\n        /* \"#utility.yul\":4220:4291   */\n      tag_648\n        /* \"#utility.yul\":4288:4289   */\n      0x00\n        /* \"#utility.yul\":4277:4286   */\n      dup4\n        /* \"#utility.yul\":4273:4290   */\n      add\n        /* \"#utility.yul\":4264:4270   */\n      dup10\n        /* \"#utility.yul\":4220:4291   */\n      tag_505\n      jump\t// in\n    tag_648:\n        /* \"#utility.yul\":4301:4373   */\n      tag_649\n        /* \"#utility.yul\":4369:4371   */\n      0x20\n        /* \"#utility.yul\":4358:4367   */\n      dup4\n        /* \"#utility.yul\":4354:4372   */\n      add\n        /* \"#utility.yul\":4345:4351   */\n      dup9\n        /* \"#utility.yul\":4301:4373   */\n      tag_508\n      jump\t// in\n    tag_649:\n        /* \"#utility.yul\":4383:4455   */\n      tag_650\n        /* \"#utility.yul\":4451:4453   */\n      0x40\n        /* \"#utility.yul\":4440:4449   */\n      dup4\n        /* \"#utility.yul\":4436:4454   */\n      add\n        /* \"#utility.yul\":4427:4433   */\n      dup8\n        /* \"#utility.yul\":4383:4455   */\n      tag_505\n      jump\t// in\n    tag_650:\n        /* \"#utility.yul\":4502:4511   */\n      dup2\n        /* \"#utility.yul\":4496:4500   */\n      dup2\n        /* \"#utility.yul\":4492:4512   */\n      sub\n        /* \"#utility.yul\":4487:4489   */\n      0x60\n        /* \"#utility.yul\":4476:4485   */\n      dup4\n        /* \"#utility.yul\":4472:4490   */\n      add\n        /* \"#utility.yul\":4465:4513   */\n      mstore\n        /* \"#utility.yul\":4530:4606   */\n      tag_651\n        /* \"#utility.yul\":4601:4605   */\n      dup2\n        /* \"#utility.yul\":4592:4598   */\n      dup7\n        /* \"#utility.yul\":4530:4606   */\n      tag_513\n      jump\t// in\n    tag_651:\n        /* \"#utility.yul\":4522:4606   */\n      swap1\n      pop\n        /* \"#utility.yul\":4616:4689   */\n      tag_652\n        /* \"#utility.yul\":4684:4687   */\n      0x80\n        /* \"#utility.yul\":4673:4682   */\n      dup4\n        /* \"#utility.yul\":4669:4688   */\n      add\n        /* \"#utility.yul\":4660:4666   */\n      dup6\n        /* \"#utility.yul\":4616:4689   */\n      tag_514\n      jump\t// in\n    tag_652:\n        /* \"#utility.yul\":4699:4766   */\n      tag_653\n        /* \"#utility.yul\":4761:4764   */\n      0xa0\n        /* \"#utility.yul\":4750:4759   */\n      dup4\n        /* \"#utility.yul\":4746:4765   */\n      add\n        /* \"#utility.yul\":4737:4743   */\n      dup5\n        /* \"#utility.yul\":4699:4766   */\n      tag_516\n      jump\t// in\n    tag_653:\n        /* \"#utility.yul\":3923:4773   */\n      swap8\n      swap7\n      pop\n      pop\n      pop\n      pop\n      pop\n      pop\n      pop\n      jump\t// out\n        /* \"#utility.yul\":4779:4901   */\n    tag_517:\n        /* \"#utility.yul\":4852:4876   */\n      tag_655\n        /* \"#utility.yul\":4870:4875   */\n      dup2\n        /* \"#utility.yul\":4852:4876   */\n      tag_507\n      jump\t// in\n    tag_655:\n        /* \"#utility.yul\":4845:4850   */\n      dup2\n        /* \"#utility.yul\":4842:4877   */\n      eq\n        /* \"#utility.yul\":4832:4895   */\n      tag_656\n      jumpi\n        /* \"#utility.yul\":4891:4892   */\n      0x00\n        /* \"#utility.yul\":4888:4889   */\n      dup1\n        /* \"#utility.yul\":4881:4893   */\n      revert\n        /* \"#utility.yul\":4832:4895   */\n    tag_656:\n        /* \"#utility.yul\":4779:4901   */\n      pop\n      jump\t// out\n        /* \"#utility.yul\":4907:5046   */\n    tag_518:\n        /* \"#utility.yul\":4953:4958   */\n      0x00\n        /* \"#utility.yul\":4991:4997   */\n      dup2\n        /* \"#utility.yul\":4978:4998   */\n      calldataload\n        /* \"#utility.yul\":4969:4998   */\n      swap1\n      pop\n        /* \"#utility.yul\":5007:5040   */\n      tag_658\n        /* \"#utility.yul\":5034:5039   */\n      dup2\n        /* \"#utility.yul\":5007:5040   */\n      tag_517\n      jump\t// in\n    tag_658:\n        /* \"#utility.yul\":4907:5046   */\n      swap3\n      swap2\n      pop\n      pop\n      jump\t// out\n        /* \"#utility.yul\":5052:5526   */\n    tag_55:\n        /* \"#utility.yul\":5120:5126   */\n      0x00\n        /* \"#utility.yul\":5128:5134   */\n      dup1\n        /* \"#utility.yul\":5177:5179   */\n      0x40\n        /* \"#utility.yul\":5165:5174   */\n      dup4\n        /* \"#utility.yul\":5156:5163   */\n      dup6\n        /* \"#utility.yul\":5152:5175   */\n      sub\n        /* \"#utility.yul\":5148:5180   */\n      slt\n        /* \"#utility.yul\":5145:5264   */\n      iszero\n      tag_660\n      jumpi\n        /* \"#utility.yul\":5183:5262   */\n      tag_661\n      tag_497\n      jump\t// in\n    tag_661:\n        /* \"#utility.yul\":5145:5264   */\n    tag_660:\n        /* \"#utility.yul\":5303:5304   */\n      0x00\n        /* \"#utility.yul\":5328:5381   */\n      tag_662\n        /* \"#utility.yul\":5373:5380   */\n      dup6\n        /* \"#utility.yul\":5364:5370   */\n      dup3\n        /* \"#utility.yul\":5353:5362   */\n      dup7\n        /* \"#utility.yul\":5349:5371   */\n      add\n        /* \"#utility.yul\":5328:5381   */\n      tag_518\n      jump\t// in\n    tag_662:\n        /* \"#utility.yul\":5318:5381   */\n      swap3\n      pop\n        /* \"#utility.yul\":5274:5391   */\n      pop\n        /* \"#utility.yul\":5430:5432   */\n      0x20\n        /* \"#utility.yul\":5456:5509   */\n      tag_663\n        /* \"#utility.yul\":5501:5508   */\n      dup6\n        /* \"#utility.yul\":5492:5498   */\n      dup3\n        /* \"#utility.yul\":5481:5490   */\n      dup7\n        /* \"#utility.yul\":5477:5499   */\n      add\n        /* \"#utility.yul\":5456:5509   */\n      tag_504\n      jump\t// in\n    tag_663:\n        /* \"#utility.yul\":5446:5509   */\n      swap2\n      pop\n        /* \"#utility.yul\":5401:5519   */\n      pop\n        /* \"#utility.yul\":5052:5526   */\n      swap3\n      pop\n      swap3\n      swap1\n      pop\n      jump\t// out\n        /* \"#utility.yul\":5532:5649   */\n    tag_519:\n        /* \"#utility.yul\":5641:5642   */\n      0x00\n        /* \"#utility.yul\":5638:5639   */\n      dup1\n        /* \"#utility.yul\":5631:5643   */\n      revert\n        /* \"#utility.yul\":5655:5772   */\n    tag_520:\n        /* \"#utility.yul\":5764:5765   */\n      0x00\n        /* \"#utility.yul\":5761:5762   */\n      dup1\n        /* \"#utility.yul\":5754:5766   */\n      revert\n        /* \"#utility.yul\":5778:5895   */\n    tag_521:\n        /* \"#utility.yul\":5887:5888   */\n      0x00\n        /* \"#utility.yul\":5884:5885   */\n      dup1\n        /* \"#utility.yul\":5877:5889   */\n      revert\n        /* \"#utility.yul\":5918:6486   */\n    tag_522:\n        /* \"#utility.yul\":5991:5999   */\n      0x00\n        /* \"#utility.yul\":6001:6007   */\n      dup1\n        /* \"#utility.yul\":6051:6054   */\n      dup4\n        /* \"#utility.yul\":6044:6048   */\n      0x1f\n        /* \"#utility.yul\":6036:6042   */\n      dup5\n        /* \"#utility.yul\":6032:6049   */\n      add\n        /* \"#utility.yul\":6028:6055   */\n      slt\n        /* \"#utility.yul\":6018:6140   */\n      tag_668\n      jumpi\n        /* \"#utility.yul\":6059:6138   */\n      tag_669\n      tag_519\n      jump\t// in\n    tag_669:\n        /* \"#utility.yul\":6018:6140   */\n    tag_668:\n        /* \"#utility.yul\":6172:6178   */\n      dup3\n        /* \"#utility.yul\":6159:6179   */\n      calldataload\n        /* \"#utility.yul\":6149:6179   */\n      swap1\n      pop\n        /* \"#utility.yul\":6202:6220   */\n      0xffffffffffffffff\n        /* \"#utility.yul\":6194:6200   */\n      dup2\n        /* \"#utility.yul\":6191:6221   */\n      gt\n        /* \"#utility.yul\":6188:6305   */\n      iszero\n      tag_670\n      jumpi\n        /* \"#utility.yul\":6224:6303   */\n      tag_671\n      tag_520\n      jump\t// in\n    tag_671:\n        /* \"#utility.yul\":6188:6305   */\n    tag_670:\n        /* \"#utility.yul\":6338:6342   */\n      0x20\n        /* \"#utility.yul\":6330:6336   */\n      dup4\n        /* \"#utility.yul\":6326:6343   */\n      add\n        /* \"#utility.yul\":6314:6343   */\n      swap2\n      pop\n        /* \"#utility.yul\":6392:6395   */\n      dup4\n        /* \"#utility.yul\":6384:6388   */\n      0x20\n        /* \"#utility.yul\":6376:6382   */\n      dup3\n        /* \"#utility.yul\":6372:6389   */\n      mul\n        /* \"#utility.yul\":6362:6370   */\n      dup4\n        /* \"#utility.yul\":6358:6390   */\n      add\n        /* \"#utility.yul\":6355:6396   */\n      gt\n        /* \"#utility.yul\":6352:6480   */\n      iszero\n      tag_672\n      jumpi\n        /* \"#utility.yul\":6399:6478   */\n      tag_673\n      tag_521\n      jump\t// in\n    tag_673:\n        /* \"#utility.yul\":6352:6480   */\n    tag_672:\n        /* \"#utility.yul\":5918:6486   */\n      swap3\n      pop\n      swap3\n      swap1\n      pop\n      jump\t// out\n        /* \"#utility.yul\":6492:7051   */\n    tag_59:\n        /* \"#utility.yul\":6578:6584   */\n      0x00\n        /* \"#utility.yul\":6586:6592   */\n      dup1\n        /* \"#utility.yul\":6635:6637   */\n      0x20\n        /* \"#utility.yul\":6623:6632   */\n      dup4\n        /* \"#utility.yul\":6614:6621   */\n      dup6\n        /* \"#utility.yul\":6610:6633   */\n      sub\n        /* \"#utility.yul\":6606:6638   */\n      slt\n        /* \"#utility.yul\":6603:6722   */\n      iszero\n      tag_675\n      jumpi\n        /* \"#utility.yul\":6641:6720   */\n      tag_676\n      tag_497\n      jump\t// in\n    tag_676:\n        /* \"#utility.yul\":6603:6722   */\n    tag_675:\n        /* \"#utility.yul\":6789:6790   */\n      0x00\n        /* \"#utility.yul\":6778:6787   */\n      dup4\n        /* \"#utility.yul\":6774:6791   */\n      add\n        /* \"#utility.yul\":6761:6792   */\n      calldataload\n        /* \"#utility.yul\":6819:6837   */\n      0xffffffffffffffff\n        /* \"#utility.yul\":6811:6817   */\n      dup2\n        /* \"#utility.yul\":6808:6838   */\n      gt\n        /* \"#utility.yul\":6805:6922   */\n      iszero\n      tag_677\n      jumpi\n        /* \"#utility.yul\":6841:6920   */\n      tag_678\n      tag_498\n      jump\t// in\n    tag_678:\n        /* \"#utility.yul\":6805:6922   */\n    tag_677:\n        /* \"#utility.yul\":6954:7034   */\n      tag_679\n        /* \"#utility.yul\":7026:7033   */\n      dup6\n        /* \"#utility.yul\":7017:7023   */\n      dup3\n        /* \"#utility.yul\":7006:7015   */\n      dup7\n        /* \"#utility.yul\":7002:7024   */\n      add\n        /* \"#utility.yul\":6954:7034   */\n      tag_522\n      jump\t// in\n    tag_679:\n        /* \"#utility.yul\":6936:7034   */\n      swap3\n      pop\n      swap3\n      pop\n        /* \"#utility.yul\":6732:7044   */\n      pop\n        /* \"#utility.yul\":6492:7051   */\n      swap3\n      pop\n      swap3\n      swap1\n      pop\n      jump\t// out\n        /* \"#utility.yul\":7057:7531   */\n    tag_63:\n        /* \"#utility.yul\":7125:7131   */\n      0x00\n        /* \"#utility.yul\":7133:7139   */\n      dup1\n        /* \"#utility.yul\":7182:7184   */\n      0x40\n        /* \"#utility.yul\":7170:7179   */\n      dup4\n        /* \"#utility.yul\":7161:7168   */\n      dup6\n        /* \"#utility.yul\":7157:7180   */\n      sub\n        /* \"#utility.yul\":7153:7185   */\n      slt\n        /* \"#utility.yul\":7150:7269   */\n      iszero\n      tag_681\n      jumpi\n        /* \"#utility.yul\":7188:7267   */\n      tag_682\n      tag_497\n      jump\t// in\n    tag_682:\n        /* \"#utility.yul\":7150:7269   */\n    tag_681:\n        /* \"#utility.yul\":7308:7309   */\n      0x00\n        /* \"#utility.yul\":7333:7386   */\n      tag_683\n        /* \"#utility.yul\":7378:7385   */\n      dup6\n        /* \"#utility.yul\":7369:7375   */\n      dup3\n        /* \"#utility.yul\":7358:7367   */\n      dup7\n        /* \"#utility.yul\":7354:7376   */\n      add\n        /* \"#utility.yul\":7333:7386   */\n      tag_504\n      jump\t// in\n    tag_683:\n        /* \"#utility.yul\":7323:7386   */\n      swap3\n      pop\n        /* \"#utility.yul\":7279:7396   */\n      pop\n        /* \"#utility.yul\":7435:7437   */\n      0x20\n        /* \"#utility.yul\":7461:7514   */\n      tag_684\n        /* \"#utility.yul\":7506:7513   */\n      dup6\n        /* \"#utility.yul\":7497:7503   */\n      dup3\n        /* \"#utility.yul\":7486:7495   */\n      dup7\n        /* \"#utility.yul\":7482:7504   */\n      add\n        /* \"#utility.yul\":7461:7514   */\n      tag_518\n      jump\t// in\n    tag_684:\n        /* \"#utility.yul\":7451:7514   */\n      swap2\n      pop\n        /* \"#utility.yul\":7406:7524   */\n      pop\n        /* \"#utility.yul\":7057:7531   */\n      swap3\n      pop\n      swap3\n      swap1\n      pop\n      jump\t// out\n        /* \"#utility.yul\":7537:7759   */\n    tag_69:\n        /* \"#utility.yul\":7630:7634   */\n      0x00\n        /* \"#utility.yul\":7668:7670   */\n      0x20\n        /* \"#utility.yul\":7657:7666   */\n      dup3\n        /* \"#utility.yul\":7653:7671   */\n      add\n        /* \"#utility.yul\":7645:7671   */\n      swap1\n      pop\n        /* \"#utility.yul\":7681:7752   */\n      tag_686\n        /* \"#utility.yul\":7749:7750   */\n      0x00\n        /* \"#utility.yul\":7738:7747   */\n      dup4\n        /* \"#utility.yul\":7734:7751   */\n      add\n        /* \"#utility.yul\":7725:7731   */\n      dup5\n        /* \"#utility.yul\":7681:7752   */\n      tag_508\n      jump\t// in\n    tag_686:\n        /* \"#utility.yul\":7537:7759   */\n      swap3\n      swap2\n      pop\n      pop\n      jump\t// out\n        /* \"#utility.yul\":7765:8094   */\n    tag_79:\n        /* \"#utility.yul\":7824:7830   */\n      0x00\n        /* \"#utility.yul\":7873:7875   */\n      0x20\n        /* \"#utility.yul\":7861:7870   */\n      dup3\n        /* \"#utility.yul\":7852:7859   */\n      dup5\n        /* \"#utility.yul\":7848:7871   */\n      sub\n        /* \"#utility.yul\":7844:7876   */\n      slt\n        /* \"#utility.yul\":7841:7960   */\n      iszero\n      tag_688\n      jumpi\n        /* \"#utility.yul\":7879:7958   */\n      tag_689\n      tag_497\n      jump\t// in\n    tag_689:\n        /* \"#utility.yul\":7841:7960   */\n    tag_688:\n        /* \"#utility.yul\":7999:8000   */\n      0x00\n        /* \"#utility.yul\":8024:8077   */\n      tag_690\n        /* \"#utility.yul\":8069:8076   */\n      dup5\n        /* \"#utility.yul\":8060:8066   */\n      dup3\n        /* \"#utility.yul\":8049:8058   */\n      dup6\n        /* \"#utility.yul\":8045:8067   */\n      add\n        /* \"#utility.yul\":8024:8077   */\n      tag_501\n      jump\t// in\n    tag_690:\n        /* \"#utility.yul\":8014:8077   */\n      swap2\n      pop\n        /* \"#utility.yul\":7970:8087   */\n      pop\n        /* \"#utility.yul\":7765:8094   */\n      swap3\n      swap2\n      pop\n      pop\n      jump\t// out\n        /* \"#utility.yul\":8100:8199   */\n    tag_523:\n        /* \"#utility.yul\":8152:8158   */\n      0x00\n        /* \"#utility.yul\":8186:8191   */\n      dup2\n        /* \"#utility.yul\":8180:8192   */\n      mload\n        /* \"#utility.yul\":8170:8192   */\n      swap1\n      pop\n        /* \"#utility.yul\":8100:8199   */\n      swap2\n      swap1\n      pop\n      jump\t// out\n        /* \"#utility.yul\":8205:8374   */\n    tag_524:\n        /* \"#utility.yul\":8289:8300   */\n      0x00\n        /* \"#utility.yul\":8323:8329   */\n      dup3\n        /* \"#utility.yul\":8318:8321   */\n      dup3\n        /* \"#utility.yul\":8311:8330   */\n      mstore\n        /* \"#utility.yul\":8363:8367   */\n      0x20\n        /* \"#utility.yul\":8358:8361   */\n      dup3\n        /* \"#utility.yul\":8354:8368   */\n      add\n        /* \"#utility.yul\":8339:8368   */\n      swap1\n      pop\n        /* \"#utility.yul\":8205:8374   */\n      swap3\n      swap2\n      pop\n      pop\n      jump\t// out\n        /* \"#utility.yul\":8380:8757   */\n    tag_525:\n        /* \"#utility.yul\":8468:8471   */\n      0x00\n        /* \"#utility.yul\":8496:8535   */\n      tag_694\n        /* \"#utility.yul\":8529:8534   */\n      dup3\n        /* \"#utility.yul\":8496:8535   */\n      tag_523\n      jump\t// in\n    tag_694:\n        /* \"#utility.yul\":8551:8622   */\n      tag_695\n        /* \"#utility.yul\":8615:8621   */\n      dup2\n        /* \"#utility.yul\":8610:8613   */\n      dup6\n        /* \"#utility.yul\":8551:8622   */\n      tag_524\n      jump\t// in\n    tag_695:\n        /* \"#utility.yul\":8544:8622   */\n      swap4\n      pop\n        /* \"#utility.yul\":8631:8696   */\n      tag_696\n        /* \"#utility.yul\":8689:8695   */\n      dup2\n        /* \"#utility.yul\":8684:8687   */\n      dup6\n        /* \"#utility.yul\":8677:8681   */\n      0x20\n        /* \"#utility.yul\":8670:8675   */\n      dup7\n        /* \"#utility.yul\":8666:8682   */\n      add\n        /* \"#utility.yul\":8631:8696   */\n      tag_511\n      jump\t// in\n    tag_696:\n        /* \"#utility.yul\":8721:8750   */\n      tag_697\n        /* \"#utility.yul\":8743:8749   */\n      dup2\n        /* \"#utility.yul\":8721:8750   */\n      tag_512\n      jump\t// in\n    tag_697:\n        /* \"#utility.yul\":8716:8719   */\n      dup5\n        /* \"#utility.yul\":8712:8751   */\n      add\n        /* \"#utility.yul\":8705:8751   */\n      swap2\n      pop\n        /* \"#utility.yul\":8472:8757   */\n      pop\n        /* \"#utility.yul\":8380:8757   */\n      swap3\n      swap2\n      pop\n      pop\n      jump\t// out\n        /* \"#utility.yul\":8763:9498   */\n    tag_82:\n        /* \"#utility.yul\":8980:8984   */\n      0x00\n        /* \"#utility.yul\":9018:9021   */\n      0x80\n        /* \"#utility.yul\":9007:9016   */\n      dup3\n        /* \"#utility.yul\":9003:9022   */\n      add\n        /* \"#utility.yul\":8995:9022   */\n      swap1\n      pop\n        /* \"#utility.yul\":9032:9103   */\n      tag_699\n        /* \"#utility.yul\":9100:9101   */\n      0x00\n        /* \"#utility.yul\":9089:9098   */\n      dup4\n        /* \"#utility.yul\":9085:9102   */\n      add\n        /* \"#utility.yul\":9076:9082   */\n      dup8\n        /* \"#utility.yul\":9032:9103   */\n      tag_508\n      jump\t// in\n    tag_699:\n        /* \"#utility.yul\":9150:9159   */\n      dup2\n        /* \"#utility.yul\":9144:9148   */\n      dup2\n        /* \"#utility.yul\":9140:9160   */\n      sub\n        /* \"#utility.yul\":9135:9137   */\n      0x20\n        /* \"#utility.yul\":9124:9133   */\n      dup4\n        /* \"#utility.yul\":9120:9138   */\n      add\n        /* \"#utility.yul\":9113:9161   */\n      mstore\n        /* \"#utility.yul\":9178:9256   */\n      tag_700\n        /* \"#utility.yul\":9251:9255   */\n      dup2\n        /* \"#utility.yul\":9242:9248   */\n      dup7\n        /* \"#utility.yul\":9178:9256   */\n      tag_525\n      jump\t// in\n    tag_700:\n        /* \"#utility.yul\":9170:9256   */\n      swap1\n      pop\n        /* \"#utility.yul\":9303:9312   */\n      dup2\n        /* \"#utility.yul\":9297:9301   */\n      dup2\n        /* \"#utility.yul\":9293:9313   */\n      sub\n        /* \"#utility.yul\":9288:9290   */\n      0x40\n        /* \"#utility.yul\":9277:9286   */\n      dup4\n        /* \"#utility.yul\":9273:9291   */\n      add\n        /* \"#utility.yul\":9266:9314   */\n      mstore\n        /* \"#utility.yul\":9331:9409   */\n      tag_701\n        /* \"#utility.yul\":9404:9408   */\n      dup2\n        /* \"#utility.yul\":9395:9401   */\n      dup6\n        /* \"#utility.yul\":9331:9409   */\n      tag_525\n      jump\t// in\n    tag_701:\n        /* \"#utility.yul\":9323:9409   */\n      swap1\n      pop\n        /* \"#utility.yul\":9419:9491   */\n      tag_702\n        /* \"#utility.yul\":9487:9489   */\n      0x60\n        /* \"#utility.yul\":9476:9485   */\n      dup4\n        /* \"#utility.yul\":9472:9490   */\n      add\n        /* \"#utility.yul\":9463:9469   */\n      dup5\n        /* \"#utility.yul\":9419:9491   */\n      tag_514\n      jump\t// in\n    tag_702:\n        /* \"#utility.yul\":8763:9498   */\n      swap6\n      swap5\n      pop\n      pop\n      pop\n      pop\n      pop\n      jump\t// out\n        /* \"#utility.yul\":9504:9833   */\n    tag_91:\n        /* \"#utility.yul\":9563:9569   */\n      0x00\n        /* \"#utility.yul\":9612:9614   */\n      0x20\n        /* \"#utility.yul\":9600:9609   */\n      dup3\n        /* \"#utility.yul\":9591:9598   */\n      dup5\n        /* \"#utility.yul\":9587:9610   */\n      sub\n        /* \"#utility.yul\":9583:9615   */\n      slt\n        /* \"#utility.yul\":9580:9699   */\n      iszero\n      tag_704\n      jumpi\n        /* \"#utility.yul\":9618:9697   */\n      tag_705\n      tag_497\n      jump\t// in\n    tag_705:\n        /* \"#utility.yul\":9580:9699   */\n    tag_704:\n        /* \"#utility.yul\":9738:9739   */\n      0x00\n        /* \"#utility.yul\":9763:9816   */\n      tag_706\n        /* \"#utility.yul\":9808:9815   */\n      dup5\n        /* \"#utility.yul\":9799:9805   */\n      dup3\n        /* \"#utility.yul\":9788:9797   */\n      dup6\n        /* \"#utility.yul\":9784:9806   */\n      add\n        /* \"#utility.yul\":9763:9816   */\n      tag_518\n      jump\t// in\n    tag_706:\n        /* \"#utility.yul\":9753:9816   */\n      swap2\n      pop\n        /* \"#utility.yul\":9709:9826   */\n      pop\n        /* \"#utility.yul\":9504:9833   */\n      swap3\n      swap2\n      pop\n      pop\n      jump\t// out\n        /* \"#utility.yul\":9839:10491   */\n    tag_94:\n        /* \"#utility.yul\":10038:10042   */\n      0x00\n        /* \"#utility.yul\":10076:10079   */\n      0xa0\n        /* \"#utility.yul\":10065:10074   */\n      dup3\n        /* \"#utility.yul\":10061:10080   */\n      add\n        /* \"#utility.yul\":10053:10080   */\n      swap1\n      pop\n        /* \"#utility.yul\":10090:10161   */\n      tag_708\n        /* \"#utility.yul\":10158:10159   */\n      0x00\n        /* \"#utility.yul\":10147:10156   */\n      dup4\n        /* \"#utility.yul\":10143:10160   */\n      add\n        /* \"#utility.yul\":10134:10140   */\n      dup9\n        /* \"#utility.yul\":10090:10161   */\n      tag_514\n      jump\t// in\n    tag_708:\n        /* \"#utility.yul\":10171:10243   */\n      tag_709\n        /* \"#utility.yul\":10239:10241   */\n      0x20\n        /* \"#utility.yul\":10228:10237   */\n      dup4\n        /* \"#utility.yul\":10224:10242   */\n      add\n        /* \"#utility.yul\":10215:10221   */\n      dup8\n        /* \"#utility.yul\":10171:10243   */\n      tag_508\n      jump\t// in\n    tag_709:\n        /* \"#utility.yul\":10253:10325   */\n      tag_710\n        /* \"#utility.yul\":10321:10323   */\n      0x40\n        /* \"#utility.yul\":10310:10319   */\n      dup4\n        /* \"#utility.yul\":10306:10324   */\n      add\n        /* \"#utility.yul\":10297:10303   */\n      dup7\n        /* \"#utility.yul\":10253:10325   */\n      tag_505\n      jump\t// in\n    tag_710:\n        /* \"#utility.yul\":10335:10407   */\n      tag_711\n        /* \"#utility.yul\":10403:10405   */\n      0x60\n        /* \"#utility.yul\":10392:10401   */\n      dup4\n        /* \"#utility.yul\":10388:10406   */\n      add\n        /* \"#utility.yul\":10379:10385   */\n      dup6\n        /* \"#utility.yul\":10335:10407   */\n      tag_505\n      jump\t// in\n    tag_711:\n        /* \"#utility.yul\":10417:10484   */\n      tag_712\n        /* \"#utility.yul\":10479:10482   */\n      0x80\n        /* \"#utility.yul\":10468:10477   */\n      dup4\n        /* \"#utility.yul\":10464:10483   */\n      add\n        /* \"#utility.yul\":10455:10461   */\n      dup5\n        /* \"#utility.yul\":10417:10484   */\n      tag_516\n      jump\t// in\n    tag_712:\n        /* \"#utility.yul\":9839:10491   */\n      swap7\n      swap6\n      pop\n      pop\n      pop\n      pop\n      pop\n      pop\n      jump\t// out\n        /* \"#utility.yul\":10497:11116   */\n    tag_97:\n        /* \"#utility.yul\":10574:10580   */\n      0x00\n        /* \"#utility.yul\":10582:10588   */\n      dup1\n        /* \"#utility.yul\":10590:10596   */\n      0x00\n        /* \"#utility.yul\":10639:10641   */\n      0x60\n        /* \"#utility.yul\":10627:10636   */\n      dup5\n        /* \"#utility.yul\":10618:10625   */\n      dup7\n        /* \"#utility.yul\":10614:10637   */\n      sub\n        /* \"#utility.yul\":10610:10642   */\n      slt\n        /* \"#utility.yul\":10607:10726   */\n      iszero\n      tag_714\n      jumpi\n        /* \"#utility.yul\":10645:10724   */\n      tag_715\n      tag_497\n      jump\t// in\n    tag_715:\n        /* \"#utility.yul\":10607:10726   */\n    tag_714:\n        /* \"#utility.yul\":10765:10766   */\n      0x00\n        /* \"#utility.yul\":10790:10843   */\n      tag_716\n        /* \"#utility.yul\":10835:10842   */\n      dup7\n        /* \"#utility.yul\":10826:10832   */\n      dup3\n        /* \"#utility.yul\":10815:10824   */\n      dup8\n        /* \"#utility.yul\":10811:10833   */\n      add\n        /* \"#utility.yul\":10790:10843   */\n      tag_501\n      jump\t// in\n    tag_716:\n        /* \"#utility.yul\":10780:10843   */\n      swap4\n      pop\n        /* \"#utility.yul\":10736:10853   */\n      pop\n        /* \"#utility.yul\":10892:10894   */\n      0x20\n        /* \"#utility.yul\":10918:10971   */\n      tag_717\n        /* \"#utility.yul\":10963:10970   */\n      dup7\n        /* \"#utility.yul\":10954:10960   */\n      dup3\n        /* \"#utility.yul\":10943:10952   */\n      dup8\n        /* \"#utility.yul\":10939:10961   */\n      add\n        /* \"#utility.yul\":10918:10971   */\n      tag_518\n      jump\t// in\n    tag_717:\n        /* \"#utility.yul\":10908:10971   */\n      swap3\n      pop\n        /* \"#utility.yul\":10863:10981   */\n      pop\n        /* \"#utility.yul\":11020:11022   */\n      0x40\n        /* \"#utility.yul\":11046:11099   */\n      tag_718\n        /* \"#utility.yul\":11091:11098   */\n      dup7\n        /* \"#utility.yul\":11082:11088   */\n      dup3\n        /* \"#utility.yul\":11071:11080   */\n      dup8\n        /* \"#utility.yul\":11067:11089   */\n      add\n        /* \"#utility.yul\":11046:11099   */\n      tag_504\n      jump\t// in\n    tag_718:\n        /* \"#utility.yul\":11036:11099   */\n      swap2\n      pop\n        /* \"#utility.yul\":10991:11109   */\n      pop\n        /* \"#utility.yul\":10497:11116   */\n      swap3\n      pop\n      swap3\n      pop\n      swap3\n      jump\t// out\n        /* \"#utility.yul\":11122:11236   */\n    tag_526:\n        /* \"#utility.yul\":11189:11195   */\n      0x00\n        /* \"#utility.yul\":11223:11228   */\n      dup2\n        /* \"#utility.yul\":11217:11229   */\n      mload\n        /* \"#utility.yul\":11207:11229   */\n      swap1\n      pop\n        /* \"#utility.yul\":11122:11236   */\n      swap2\n      swap1\n      pop\n      jump\t// out\n        /* \"#utility.yul\":11242:11426   */\n    tag_527:\n        /* \"#utility.yul\":11341:11352   */\n      0x00\n        /* \"#utility.yul\":11375:11381   */\n      dup3\n        /* \"#utility.yul\":11370:11373   */\n      dup3\n        /* \"#utility.yul\":11363:11382   */\n      mstore\n        /* \"#utility.yul\":11415:11419   */\n      0x20\n        /* \"#utility.yul\":11410:11413   */\n      dup3\n        /* \"#utility.yul\":11406:11420   */\n      add\n        /* \"#utility.yul\":11391:11420   */\n      swap1\n      pop\n        /* \"#utility.yul\":11242:11426   */\n      swap3\n      swap2\n      pop\n      pop\n      jump\t// out\n        /* \"#utility.yul\":11432:11564   */\n    tag_528:\n        /* \"#utility.yul\":11499:11503   */\n      0x00\n        /* \"#utility.yul\":11522:11525   */\n      dup2\n        /* \"#utility.yul\":11514:11525   */\n      swap1\n      pop\n        /* \"#utility.yul\":11552:11556   */\n      0x20\n        /* \"#utility.yul\":11547:11550   */\n      dup3\n        /* \"#utility.yul\":11543:11557   */\n      add\n        /* \"#utility.yul\":11535:11557   */\n      swap1\n      pop\n        /* \"#utility.yul\":11432:11564   */\n      swap2\n      swap1\n      pop\n      jump\t// out\n        /* \"#utility.yul\":11570:11678   */\n    tag_529:\n        /* \"#utility.yul\":11647:11671   */\n      tag_723\n        /* \"#utility.yul\":11665:11670   */\n      dup2\n        /* \"#utility.yul\":11647:11671   */\n      tag_507\n      jump\t// in\n    tag_723:\n        /* \"#utility.yul\":11642:11645   */\n      dup3\n        /* \"#utility.yul\":11635:11672   */\n      mstore\n        /* \"#utility.yul\":11570:11678   */\n      pop\n      pop\n      jump\t// out\n        /* \"#utility.yul\":11684:11863   */\n    tag_530:\n        /* \"#utility.yul\":11753:11763   */\n      0x00\n        /* \"#utility.yul\":11774:11820   */\n      tag_725\n        /* \"#utility.yul\":11816:11819   */\n      dup4\n        /* \"#utility.yul\":11808:11814   */\n      dup4\n        /* \"#utility.yul\":11774:11820   */\n      tag_529\n      jump\t// in\n    tag_725:\n        /* \"#utility.yul\":11852:11856   */\n      0x20\n        /* \"#utility.yul\":11847:11850   */\n      dup4\n        /* \"#utility.yul\":11843:11857   */\n      add\n        /* \"#utility.yul\":11829:11857   */\n      swap1\n      pop\n        /* \"#utility.yul\":11684:11863   */\n      swap3\n      swap2\n      pop\n      pop\n      jump\t// out\n        /* \"#utility.yul\":11869:11982   */\n    tag_531:\n        /* \"#utility.yul\":11939:11943   */\n      0x00\n        /* \"#utility.yul\":11971:11975   */\n      0x20\n        /* \"#utility.yul\":11966:11969   */\n      dup3\n        /* \"#utility.yul\":11962:11976   */\n      add\n        /* \"#utility.yul\":11954:11976   */\n      swap1\n      pop\n        /* \"#utility.yul\":11869:11982   */\n      swap2\n      swap1\n      pop\n      jump\t// out\n        /* \"#utility.yul\":12018:12750   */\n    tag_532:\n        /* \"#utility.yul\":12137:12140   */\n      0x00\n        /* \"#utility.yul\":12166:12220   */\n      tag_728\n        /* \"#utility.yul\":12214:12219   */\n      dup3\n        /* \"#utility.yul\":12166:12220   */\n      tag_526\n      jump\t// in\n    tag_728:\n        /* \"#utility.yul\":12236:12322   */\n      tag_729\n        /* \"#utility.yul\":12315:12321   */\n      dup2\n        /* \"#utility.yul\":12310:12313   */\n      dup6\n        /* \"#utility.yul\":12236:12322   */\n      tag_527\n      jump\t// in\n    tag_729:\n        /* \"#utility.yul\":12229:12322   */\n      swap4\n      pop\n        /* \"#utility.yul\":12346:12402   */\n      tag_730\n        /* \"#utility.yul\":12396:12401   */\n      dup4\n        /* \"#utility.yul\":12346:12402   */\n      tag_528\n      jump\t// in\n    tag_730:\n        /* \"#utility.yul\":12425:12432   */\n      dup1\n        /* \"#utility.yul\":12456:12457   */\n      0x00\n        /* \"#utility.yul\":12441:12725   */\n    tag_731:\n        /* \"#utility.yul\":12466:12472   */\n      dup4\n        /* \"#utility.yul\":12463:12464   */\n      dup2\n        /* \"#utility.yul\":12460:12473   */\n      lt\n        /* \"#utility.yul\":12441:12725   */\n      iszero\n      tag_733\n      jumpi\n        /* \"#utility.yul\":12542:12548   */\n      dup2\n        /* \"#utility.yul\":12536:12549   */\n      mload\n        /* \"#utility.yul\":12569:12632   */\n      tag_734\n        /* \"#utility.yul\":12628:12631   */\n      dup9\n        /* \"#utility.yul\":12613:12626   */\n      dup3\n        /* \"#utility.yul\":12569:12632   */\n      tag_530\n      jump\t// in\n    tag_734:\n        /* \"#utility.yul\":12562:12632   */\n      swap8\n      pop\n        /* \"#utility.yul\":12655:12715   */\n      tag_735\n        /* \"#utility.yul\":12708:12714   */\n      dup4\n        /* \"#utility.yul\":12655:12715   */\n      tag_531\n      jump\t// in\n    tag_735:\n        /* \"#utility.yul\":12645:12715   */\n      swap3\n      pop\n        /* \"#utility.yul\":12501:12725   */\n      pop\n        /* \"#utility.yul\":12488:12489   */\n      0x01\n        /* \"#utility.yul\":12485:12486   */\n      dup2\n        /* \"#utility.yul\":12481:12490   */\n      add\n        /* \"#utility.yul\":12476:12490   */\n      swap1\n      pop\n        /* \"#utility.yul\":12441:12725   */\n      jump(tag_731)\n    tag_733:\n        /* \"#utility.yul\":12445:12459   */\n      pop\n        /* \"#utility.yul\":12741:12744   */\n      dup6\n        /* \"#utility.yul\":12734:12744   */\n      swap4\n      pop\n        /* \"#utility.yul\":12142:12750   */\n      pop\n      pop\n      pop\n        /* \"#utility.yul\":12018:12750   */\n      swap3\n      swap2\n      pop\n      pop\n      jump\t// out\n        /* \"#utility.yul\":12756:13129   */\n    tag_105:\n        /* \"#utility.yul\":12899:12903   */\n      0x00\n        /* \"#utility.yul\":12937:12939   */\n      0x20\n        /* \"#utility.yul\":12926:12935   */\n      dup3\n        /* \"#utility.yul\":12922:12940   */\n      add\n        /* \"#utility.yul\":12914:12940   */\n      swap1\n      pop\n        /* \"#utility.yul\":12986:12995   */\n      dup2\n        /* \"#utility.yul\":12980:12984   */\n      dup2\n        /* \"#utility.yul\":12976:12996   */\n      sub\n        /* \"#utility.yul\":12972:12973   */\n      0x00\n        /* \"#utility.yul\":12961:12970   */\n      dup4\n        /* \"#utility.yul\":12957:12974   */\n      add\n        /* \"#utility.yul\":12950:12997   */\n      mstore\n        /* \"#utility.yul\":13014:13122   */\n      tag_737\n        /* \"#utility.yul\":13117:13121   */\n      dup2\n        /* \"#utility.yul\":13108:13114   */\n      dup5\n        /* \"#utility.yul\":13014:13122   */\n      tag_532\n      jump\t// in\n    tag_737:\n        /* \"#utility.yul\":13006:13122   */\n      swap1\n      pop\n        /* \"#utility.yul\":12756:13129   */\n      swap3\n      swap2\n      pop\n      pop\n      jump\t// out\n        /* \"#utility.yul\":13135:13969   */\n    tag_110:\n        /* \"#utility.yul\":13374:13378   */\n      0x00\n        /* \"#utility.yul\":13412:13415   */\n      0xa0\n        /* \"#utility.yul\":13401:13410   */\n      dup3\n        /* \"#utility.yul\":13397:13416   */\n      add\n        /* \"#utility.yul\":13389:13416   */\n      swap1\n      pop\n        /* \"#utility.yul\":13426:13497   */\n      tag_739\n        /* \"#utility.yul\":13494:13495   */\n      0x00\n        /* \"#utility.yul\":13483:13492   */\n      dup4\n        /* \"#utility.yul\":13479:13496   */\n      add\n        /* \"#utility.yul\":13470:13476   */\n      dup9\n        /* \"#utility.yul\":13426:13497   */\n      tag_508\n      jump\t// in\n    tag_739:\n        /* \"#utility.yul\":13544:13553   */\n      dup2\n        /* \"#utility.yul\":13538:13542   */\n      dup2\n        /* \"#utility.yul\":13534:13554   */\n      sub\n        /* \"#utility.yul\":13529:13531   */\n      0x20\n        /* \"#utility.yul\":13518:13527   */\n      dup4\n        /* \"#utility.yul\":13514:13532   */\n      add\n        /* \"#utility.yul\":13507:13555   */\n      mstore\n        /* \"#utility.yul\":13572:13650   */\n      tag_740\n        /* \"#utility.yul\":13645:13649   */\n      dup2\n        /* \"#utility.yul\":13636:13642   */\n      dup8\n        /* \"#utility.yul\":13572:13650   */\n      tag_525\n      jump\t// in\n    tag_740:\n        /* \"#utility.yul\":13564:13650   */\n      swap1\n      pop\n        /* \"#utility.yul\":13697:13706   */\n      dup2\n        /* \"#utility.yul\":13691:13695   */\n      dup2\n        /* \"#utility.yul\":13687:13707   */\n      sub\n        /* \"#utility.yul\":13682:13684   */\n      0x40\n        /* \"#utility.yul\":13671:13680   */\n      dup4\n        /* \"#utility.yul\":13667:13685   */\n      add\n        /* \"#utility.yul\":13660:13708   */\n      mstore\n        /* \"#utility.yul\":13725:13803   */\n      tag_741\n        /* \"#utility.yul\":13798:13802   */\n      dup2\n        /* \"#utility.yul\":13789:13795   */\n      dup7\n        /* \"#utility.yul\":13725:13803   */\n      tag_525\n      jump\t// in\n    tag_741:\n        /* \"#utility.yul\":13717:13803   */\n      swap1\n      pop\n        /* \"#utility.yul\":13813:13885   */\n      tag_742\n        /* \"#utility.yul\":13881:13883   */\n      0x60\n        /* \"#utility.yul\":13870:13879   */\n      dup4\n        /* \"#utility.yul\":13866:13884   */\n      add\n        /* \"#utility.yul\":13857:13863   */\n      dup6\n        /* \"#utility.yul\":13813:13885   */\n      tag_514\n      jump\t// in\n    tag_742:\n        /* \"#utility.yul\":13895:13962   */\n      tag_743\n        /* \"#utility.yul\":13957:13960   */\n      0x80\n        /* \"#utility.yul\":13946:13955   */\n      dup4\n        /* \"#utility.yul\":13942:13961   */\n      add\n        /* \"#utility.yul\":13933:13939   */\n      dup5\n        /* \"#utility.yul\":13895:13962   */\n      tag_516\n      jump\t// in\n    tag_743:\n        /* \"#utility.yul\":13135:13969   */\n      swap7\n      swap6\n      pop\n      pop\n      pop\n      pop\n      pop\n      pop\n      jump\t// out\n        /* \"#utility.yul\":13975:14185   */\n    tag_118:\n        /* \"#utility.yul\":14062:14066   */\n      0x00\n        /* \"#utility.yul\":14100:14102   */\n      0x20\n        /* \"#utility.yul\":14089:14098   */\n      dup3\n        /* \"#utility.yul\":14085:14103   */\n      add\n        /* \"#utility.yul\":14077:14103   */\n      swap1\n      pop\n        /* \"#utility.yul\":14113:14178   */\n      tag_745\n        /* \"#utility.yul\":14175:14176   */\n      0x00\n        /* \"#utility.yul\":14164:14173   */\n      dup4\n        /* \"#utility.yul\":14160:14177   */\n      add\n        /* \"#utility.yul\":14151:14157   */\n      dup5\n        /* \"#utility.yul\":14113:14178   */\n      tag_516\n      jump\t// in\n    tag_745:\n        /* \"#utility.yul\":13975:14185   */\n      swap3\n      swap2\n      pop\n      pop\n      jump\t// out\n        /* \"#utility.yul\":14191:14305   */\n    tag_533:\n        /* \"#utility.yul\":14258:14264   */\n      0x00\n        /* \"#utility.yul\":14292:14297   */\n      dup2\n        /* \"#utility.yul\":14286:14298   */\n      mload\n        /* \"#utility.yul\":14276:14298   */\n      swap1\n      pop\n        /* \"#utility.yul\":14191:14305   */\n      swap2\n      swap1\n      pop\n      jump\t// out\n        /* \"#utility.yul\":14311:14495   */\n    tag_534:\n        /* \"#utility.yul\":14410:14421   */\n      0x00\n        /* \"#utility.yul\":14444:14450   */\n      dup3\n        /* \"#utility.yul\":14439:14442   */\n      dup3\n        /* \"#utility.yul\":14432:14451   */\n      mstore\n        /* \"#utility.yul\":14484:14488   */\n      0x20\n        /* \"#utility.yul\":14479:14482   */\n      dup3\n        /* \"#utility.yul\":14475:14489   */\n      add\n        /* \"#utility.yul\":14460:14489   */\n      swap1\n      pop\n        /* \"#utility.yul\":14311:14495   */\n      swap3\n      swap2\n      pop\n      pop\n      jump\t// out\n        /* \"#utility.yul\":14501:14633   */\n    tag_535:\n        /* \"#utility.yul\":14568:14572   */\n      0x00\n        /* \"#utility.yul\":14591:14594   */\n      dup2\n        /* \"#utility.yul\":14583:14594   */\n      swap1\n      pop\n        /* \"#utility.yul\":14621:14625   */\n      0x20\n        /* \"#utility.yul\":14616:14619   */\n      dup3\n        /* \"#utility.yul\":14612:14626   */\n      add\n        /* \"#utility.yul\":14604:14626   */\n      swap1\n      pop\n        /* \"#utility.yul\":14501:14633   */\n      swap2\n      swap1\n      pop\n      jump\t// out\n        /* \"#utility.yul\":14639:14747   */\n    tag_536:\n        /* \"#utility.yul\":14716:14740   */\n      tag_750\n        /* \"#utility.yul\":14734:14739   */\n      dup2\n        /* \"#utility.yul\":14716:14740   */\n      tag_499\n      jump\t// in\n    tag_750:\n        /* \"#utility.yul\":14711:14714   */\n      dup3\n        /* \"#utility.yul\":14704:14741   */\n      mstore\n        /* \"#utility.yul\":14639:14747   */\n      pop\n      pop\n      jump\t// out\n        /* \"#utility.yul\":14753:14932   */\n    tag_537:\n        /* \"#utility.yul\":14822:14832   */\n      0x00\n        /* \"#utility.yul\":14843:14889   */\n      tag_752\n        /* \"#utility.yul\":14885:14888   */\n      dup4\n        /* \"#utility.yul\":14877:14883   */\n      dup4\n        /* \"#utility.yul\":14843:14889   */\n      tag_536\n      jump\t// in\n    tag_752:\n        /* \"#utility.yul\":14921:14925   */\n      0x20\n        /* \"#utility.yul\":14916:14919   */\n      dup4\n        /* \"#utility.yul\":14912:14926   */\n      add\n        /* \"#utility.yul\":14898:14926   */\n      swap1\n      pop\n        /* \"#utility.yul\":14753:14932   */\n      swap3\n      swap2\n      pop\n      pop\n      jump\t// out\n        /* \"#utility.yul\":14938:15051   */\n    tag_538:\n        /* \"#utility.yul\":15008:15012   */\n      0x00\n        /* \"#utility.yul\":15040:15044   */\n      0x20\n        /* \"#utility.yul\":15035:15038   */\n      dup3\n        /* \"#utility.yul\":15031:15045   */\n      add\n        /* \"#utility.yul\":15023:15045   */\n      swap1\n      pop\n        /* \"#utility.yul\":14938:15051   */\n      swap2\n      swap1\n      pop\n      jump\t// out\n        /* \"#utility.yul\":15087:15819   */\n    tag_539:\n        /* \"#utility.yul\":15206:15209   */\n      0x00\n        /* \"#utility.yul\":15235:15289   */\n      tag_755\n        /* \"#utility.yul\":15283:15288   */\n      dup3\n        /* \"#utility.yul\":15235:15289   */\n      tag_533\n      jump\t// in\n    tag_755:\n        /* \"#utility.yul\":15305:15391   */\n      tag_756\n        /* \"#utility.yul\":15384:15390   */\n      dup2\n        /* \"#utility.yul\":15379:15382   */\n      dup6\n        /* \"#utility.yul\":15305:15391   */\n      tag_534\n      jump\t// in\n    tag_756:\n        /* \"#utility.yul\":15298:15391   */\n      swap4\n      pop\n        /* \"#utility.yul\":15415:15471   */\n      tag_757\n        /* \"#utility.yul\":15465:15470   */\n      dup4\n        /* \"#utility.yul\":15415:15471   */\n      tag_535\n      jump\t// in\n    tag_757:\n        /* \"#utility.yul\":15494:15501   */\n      dup1\n        /* \"#utility.yul\":15525:15526   */\n      0x00\n        /* \"#utility.yul\":15510:15794   */\n    tag_758:\n        /* \"#utility.yul\":15535:15541   */\n      dup4\n        /* \"#utility.yul\":15532:15533   */\n      dup2\n        /* \"#utility.yul\":15529:15542   */\n      lt\n        /* \"#utility.yul\":15510:15794   */\n      iszero\n      tag_760\n      jumpi\n        /* \"#utility.yul\":15611:15617   */\n      dup2\n        /* \"#utility.yul\":15605:15618   */\n      mload\n        /* \"#utility.yul\":15638:15701   */\n      tag_761\n        /* \"#utility.yul\":15697:15700   */\n      dup9\n        /* \"#utility.yul\":15682:15695   */\n      dup3\n        /* \"#utility.yul\":15638:15701   */\n      tag_537\n      jump\t// in\n    tag_761:\n        /* \"#utility.yul\":15631:15701   */\n      swap8\n      pop\n        /* \"#utility.yul\":15724:15784   */\n      tag_762\n        /* \"#utility.yul\":15777:15783   */\n      dup4\n        /* \"#utility.yul\":15724:15784   */\n      tag_538\n      jump\t// in\n    tag_762:\n        /* \"#utility.yul\":15714:15784   */\n      swap3\n      pop\n        /* \"#utility.yul\":15570:15794   */\n      pop\n        /* \"#utility.yul\":15557:15558   */\n      0x01\n        /* \"#utility.yul\":15554:15555   */\n      dup2\n        /* \"#utility.yul\":15550:15559   */\n      add\n        /* \"#utility.yul\":15545:15559   */\n      swap1\n      pop\n        /* \"#utility.yul\":15510:15794   */\n      jump(tag_758)\n    tag_760:\n        /* \"#utility.yul\":15514:15528   */\n      pop\n        /* \"#utility.yul\":15810:15813   */\n      dup6\n        /* \"#utility.yul\":15803:15813   */\n      swap4\n      pop\n        /* \"#utility.yul\":15211:15819   */\n      pop\n      pop\n      pop\n        /* \"#utility.yul\":15087:15819   */\n      swap3\n      swap2\n      pop\n      pop\n      jump\t// out\n        /* \"#utility.yul\":15825:16198   */\n    tag_134:\n        /* \"#utility.yul\":15968:15972   */\n      0x00\n        /* \"#utility.yul\":16006:16008   */\n      0x20\n        /* \"#utility.yul\":15995:16004   */\n      dup3\n        /* \"#utility.yul\":15991:16009   */\n      add\n        /* \"#utility.yul\":15983:16009   */\n      swap1\n      pop\n        /* \"#utility.yul\":16055:16064   */\n      dup2\n        /* \"#utility.yul\":16049:16053   */\n      dup2\n        /* \"#utility.yul\":16045:16065   */\n      sub\n        /* \"#utility.yul\":16041:16042   */\n      0x00\n        /* \"#utility.yul\":16030:16039   */\n      dup4\n        /* \"#utility.yul\":16026:16043   */\n      add\n        /* \"#utility.yul\":16019:16066   */\n      mstore\n        /* \"#utility.yul\":16083:16191   */\n      tag_764\n        /* \"#utility.yul\":16186:16190   */\n      dup2\n        /* \"#utility.yul\":16177:16183   */\n      dup5\n        /* \"#utility.yul\":16083:16191   */\n      tag_539\n      jump\t// in\n    tag_764:\n        /* \"#utility.yul\":16075:16191   */\n      swap1\n      pop\n        /* \"#utility.yul\":15825:16198   */\n      swap3\n      swap2\n      pop\n      pop\n      jump\t// out\n        /* \"#utility.yul\":16204:16318   */\n    tag_540:\n        /* \"#utility.yul\":16271:16277   */\n      0x00\n        /* \"#utility.yul\":16305:16310   */\n      dup2\n        /* \"#utility.yul\":16299:16311   */\n      mload\n        /* \"#utility.yul\":16289:16311   */\n      swap1\n      pop\n        /* \"#utility.yul\":16204:16318   */\n      swap2\n      swap1\n      pop\n      jump\t// out\n        /* \"#utility.yul\":16324:16508   */\n    tag_541:\n        /* \"#utility.yul\":16423:16434   */\n      0x00\n        /* \"#utility.yul\":16457:16463   */\n      dup3\n        /* \"#utility.yul\":16452:16455   */\n      dup3\n        /* \"#utility.yul\":16445:16464   */\n      mstore\n        /* \"#utility.yul\":16497:16501   */\n      0x20\n        /* \"#utility.yul\":16492:16495   */\n      dup3\n        /* \"#utility.yul\":16488:16502   */\n      add\n        /* \"#utility.yul\":16473:16502   */\n      swap1\n      pop\n        /* \"#utility.yul\":16324:16508   */\n      swap3\n      swap2\n      pop\n      pop\n      jump\t// out\n        /* \"#utility.yul\":16514:16646   */\n    tag_542:\n        /* \"#utility.yul\":16581:16585   */\n      0x00\n        /* \"#utility.yul\":16604:16607   */\n      dup2\n        /* \"#utility.yul\":16596:16607   */\n      swap1\n      pop\n        /* \"#utility.yul\":16634:16638   */\n      0x20\n        /* \"#utility.yul\":16629:16632   */\n      dup3\n        /* \"#utility.yul\":16625:16639   */\n      add\n        /* \"#utility.yul\":16617:16639   */\n      swap1\n      pop\n        /* \"#utility.yul\":16514:16646   */\n      swap2\n      swap1\n      pop\n      jump\t// out\n        /* \"#utility.yul\":16652:16760   */\n    tag_543:\n        /* \"#utility.yul\":16729:16753   */\n      tag_769\n        /* \"#utility.yul\":16747:16752   */\n      dup2\n        /* \"#utility.yul\":16729:16753   */\n      tag_502\n      jump\t// in\n    tag_769:\n        /* \"#utility.yul\":16724:16727   */\n      dup3\n        /* \"#utility.yul\":16717:16754   */\n      mstore\n        /* \"#utility.yul\":16652:16760   */\n      pop\n      pop\n      jump\t// out\n        /* \"#utility.yul\":16766:16945   */\n    tag_544:\n        /* \"#utility.yul\":16835:16845   */\n      0x00\n        /* \"#utility.yul\":16856:16902   */\n      tag_771\n        /* \"#utility.yul\":16898:16901   */\n      dup4\n        /* \"#utility.yul\":16890:16896   */\n      dup4\n        /* \"#utility.yul\":16856:16902   */\n      tag_543\n      jump\t// in\n    tag_771:\n        /* \"#utility.yul\":16934:16938   */\n      0x20\n        /* \"#utility.yul\":16929:16932   */\n      dup4\n        /* \"#utility.yul\":16925:16939   */\n      add\n        /* \"#utility.yul\":16911:16939   */\n      swap1\n      pop\n        /* \"#utility.yul\":16766:16945   */\n      swap3\n      swap2\n      pop\n      pop\n      jump\t// out\n        /* \"#utility.yul\":16951:17064   */\n    tag_545:\n        /* \"#utility.yul\":17021:17025   */\n      0x00\n        /* \"#utility.yul\":17053:17057   */\n      0x20\n        /* \"#utility.yul\":17048:17051   */\n      dup3\n        /* \"#utility.yul\":17044:17058   */\n      add\n        /* \"#utility.yul\":17036:17058   */\n      swap1\n      pop\n        /* \"#utility.yul\":16951:17064   */\n      swap2\n      swap1\n      pop\n      jump\t// out\n        /* \"#utility.yul\":17100:17832   */\n    tag_546:\n        /* \"#utility.yul\":17219:17222   */\n      0x00\n        /* \"#utility.yul\":17248:17302   */\n      tag_774\n        /* \"#utility.yul\":17296:17301   */\n      dup3\n        /* \"#utility.yul\":17248:17302   */\n      tag_540\n      jump\t// in\n    tag_774:\n        /* \"#utility.yul\":17318:17404   */\n      tag_775\n        /* \"#utility.yul\":17397:17403   */\n      dup2\n        /* \"#utility.yul\":17392:17395   */\n      dup6\n        /* \"#utility.yul\":17318:17404   */\n      tag_541\n      jump\t// in\n    tag_775:\n        /* \"#utility.yul\":17311:17404   */\n      swap4\n      pop\n        /* \"#utility.yul\":17428:17484   */\n      tag_776\n        /* \"#utility.yul\":17478:17483   */\n      dup4\n        /* \"#utility.yul\":17428:17484   */\n      tag_542\n      jump\t// in\n    tag_776:\n        /* \"#utility.yul\":17507:17514   */\n      dup1\n        /* \"#utility.yul\":17538:17539   */\n      0x00\n        /* \"#utility.yul\":17523:17807   */\n    tag_777:\n        /* \"#utility.yul\":17548:17554   */\n      dup4\n        /* \"#utility.yul\":17545:17546   */\n      dup2\n        /* \"#utility.yul\":17542:17555   */\n      lt\n        /* \"#utility.yul\":17523:17807   */\n      iszero\n      tag_779\n      jumpi\n        /* \"#utility.yul\":17624:17630   */\n      dup2\n        /* \"#utility.yul\":17618:17631   */\n      mload\n        /* \"#utility.yul\":17651:17714   */\n      tag_780\n        /* \"#utility.yul\":17710:17713   */\n      dup9\n        /* \"#utility.yul\":17695:17708   */\n      dup3\n        /* \"#utility.yul\":17651:17714   */\n      tag_544\n      jump\t// in\n    tag_780:\n        /* \"#utility.yul\":17644:17714   */\n      swap8\n      pop\n        /* \"#utility.yul\":17737:17797   */\n      tag_781\n        /* \"#utility.yul\":17790:17796   */\n      dup4\n        /* \"#utility.yul\":17737:17797   */\n      tag_545\n      jump\t// in\n    tag_781:\n        /* \"#utility.yul\":17727:17797   */\n      swap3\n      pop\n        /* \"#utility.yul\":17583:17807   */\n      pop\n        /* \"#utility.yul\":17570:17571   */\n      0x01\n        /* \"#utility.yul\":17567:17568   */\n      dup2\n        /* \"#utility.yul\":17563:17572   */\n      add\n        /* \"#utility.yul\":17558:17572   */\n      swap1\n      pop\n        /* \"#utility.yul\":17523:17807   */\n      jump(tag_777)\n    tag_779:\n        /* \"#utility.yul\":17527:17541   */\n      pop\n        /* \"#utility.yul\":17823:17826   */\n      dup6\n        /* \"#utility.yul\":17816:17826   */\n      swap4\n      pop\n        /* \"#utility.yul\":17224:17832   */\n      pop\n      pop\n      pop\n        /* \"#utility.yul\":17100:17832   */\n      swap3\n      swap2\n      pop\n      pop\n      jump\t// out\n        /* \"#utility.yul\":17838:18211   */\n    tag_139:\n        /* \"#utility.yul\":17981:17985   */\n      0x00\n        /* \"#utility.yul\":18019:18021   */\n      0x20\n        /* \"#utility.yul\":18008:18017   */\n      dup3\n        /* \"#utility.yul\":18004:18022   */\n      add\n        /* \"#utility.yul\":17996:18022   */\n      swap1\n      pop\n        /* \"#utility.yul\":18068:18077   */\n      dup2\n        /* \"#utility.yul\":18062:18066   */\n      dup2\n        /* \"#utility.yul\":18058:18078   */\n      sub\n        /* \"#utility.yul\":18054:18055   */\n      0x00\n        /* \"#utility.yul\":18043:18052   */\n      dup4\n        /* \"#utility.yul\":18039:18056   */\n      add\n        /* \"#utility.yul\":18032:18079   */\n      mstore\n        /* \"#utility.yul\":18096:18204   */\n      tag_783\n        /* \"#utility.yul\":18199:18203   */\n      dup2\n        /* \"#utility.yul\":18190:18196   */\n      dup5\n        /* \"#utility.yul\":18096:18204   */\n      tag_546\n      jump\t// in\n    tag_783:\n        /* \"#utility.yul\":18088:18204   */\n      swap1\n      pop\n        /* \"#utility.yul\":17838:18211   */\n      swap3\n      swap2\n      pop\n      pop\n      jump\t// out\n        /* \"#utility.yul\":18217:18439   */\n    tag_144:\n        /* \"#utility.yul\":18310:18314   */\n      0x00\n        /* \"#utility.yul\":18348:18350   */\n      0x20\n        /* \"#utility.yul\":18337:18346   */\n      dup3\n        /* \"#utility.yul\":18333:18351   */\n      add\n        /* \"#utility.yul\":18325:18351   */\n      swap1\n      pop\n        /* \"#utility.yul\":18361:18432   */\n      tag_785\n        /* \"#utility.yul\":18429:18430   */\n      0x00\n        /* \"#utility.yul\":18418:18427   */\n      dup4\n        /* \"#utility.yul\":18414:18431   */\n      add\n        /* \"#utility.yul\":18405:18411   */\n      dup5\n        /* \"#utility.yul\":18361:18432   */\n      tag_514\n      jump\t// in\n    tag_785:\n        /* \"#utility.yul\":18217:18439   */\n      swap3\n      swap2\n      pop\n      pop\n      jump\t// out\n        /* \"#utility.yul\":18445:18562   */\n    tag_547:\n        /* \"#utility.yul\":18554:18555   */\n      0x00\n        /* \"#utility.yul\":18551:18552   */\n      dup1\n        /* \"#utility.yul\":18544:18556   */\n      revert\n        /* \"#utility.yul\":18568:18748   */\n    tag_285:\n        /* \"#utility.yul\":18616:18693   */\n      0x4e487b7100000000000000000000000000000000000000000000000000000000\n        /* \"#utility.yul\":18613:18614   */\n      0x00\n        /* \"#utility.yul\":18606:18694   */\n      mstore\n        /* \"#utility.yul\":18713:18717   */\n      0x41\n        /* \"#utility.yul\":18710:18711   */\n      0x04\n        /* \"#utility.yul\":18703:18718   */\n      mstore\n        /* \"#utility.yul\":18737:18741   */\n      0x24\n        /* \"#utility.yul\":18734:18735   */\n      0x00\n        /* \"#utility.yul\":18727:18742   */\n      revert\n        /* \"#utility.yul\":18754:19035   */\n    tag_548:\n        /* \"#utility.yul\":18837:18864   */\n      tag_789\n        /* \"#utility.yul\":18859:18863   */\n      dup3\n        /* \"#utility.yul\":18837:18864   */\n      tag_512\n      jump\t// in\n    tag_789:\n        /* \"#utility.yul\":18829:18835   */\n      dup2\n        /* \"#utility.yul\":18825:18865   */\n      add\n        /* \"#utility.yul\":18967:18973   */\n      dup2\n        /* \"#utility.yul\":18955:18965   */\n      dup2\n        /* \"#utility.yul\":18952:18974   */\n      lt\n        /* \"#utility.yul\":18931:18949   */\n      0xffffffffffffffff\n        /* \"#utility.yul\":18919:18929   */\n      dup3\n        /* \"#utility.yul\":18916:18950   */\n      gt\n        /* \"#utility.yul\":18913:18975   */\n      or\n        /* \"#utility.yul\":18910:18998   */\n      iszero\n      tag_790\n      jumpi\n        /* \"#utility.yul\":18978:18996   */\n      tag_791\n      tag_285\n      jump\t// in\n    tag_791:\n        /* \"#utility.yul\":18910:18998   */\n    tag_790:\n        /* \"#utility.yul\":19018:19028   */\n      dup1\n        /* \"#utility.yul\":19014:19016   */\n      0x40\n        /* \"#utility.yul\":19007:19029   */\n      mstore\n        /* \"#utility.yul\":18797:19035   */\n      pop\n        /* \"#utility.yul\":18754:19035   */\n      pop\n      pop\n      jump\t// out\n        /* \"#utility.yul\":19041:19170   */\n    tag_549:\n        /* \"#utility.yul\":19075:19081   */\n      0x00\n        /* \"#utility.yul\":19102:19122   */\n      tag_793\n      tag_496\n      jump\t// in\n    tag_793:\n        /* \"#utility.yul\":19092:19122   */\n      swap1\n      pop\n        /* \"#utility.yul\":19131:19164   */\n      tag_794\n        /* \"#utility.yul\":19159:19163   */\n      dup3\n        /* \"#utility.yul\":19151:19157   */\n      dup3\n        /* \"#utility.yul\":19131:19164   */\n      tag_548\n      jump\t// in\n    tag_794:\n        /* \"#utility.yul\":19041:19170   */\n      swap2\n      swap1\n      pop\n      jump\t// out\n        /* \"#utility.yul\":19176:19484   */\n    tag_550:\n        /* \"#utility.yul\":19238:19242   */\n      0x00\n        /* \"#utility.yul\":19328:19346   */\n      0xffffffffffffffff\n        /* \"#utility.yul\":19320:19326   */\n      dup3\n        /* \"#utility.yul\":19317:19347   */\n      gt\n        /* \"#utility.yul\":19314:19370   */\n      iszero\n      tag_796\n      jumpi\n        /* \"#utility.yul\":19350:19368   */\n      tag_797\n      tag_285\n      jump\t// in\n    tag_797:\n        /* \"#utility.yul\":19314:19370   */\n    tag_796:\n        /* \"#utility.yul\":19388:19417   */\n      tag_798\n        /* \"#utility.yul\":19410:19416   */\n      dup3\n        /* \"#utility.yul\":19388:19417   */\n      tag_512\n      jump\t// in\n    tag_798:\n        /* \"#utility.yul\":19380:19417   */\n      swap1\n      pop\n        /* \"#utility.yul\":19472:19476   */\n      0x20\n        /* \"#utility.yul\":19466:19470   */\n      dup2\n        /* \"#utility.yul\":19462:19477   */\n      add\n        /* \"#utility.yul\":19454:19477   */\n      swap1\n      pop\n        /* \"#utility.yul\":19176:19484   */\n      swap2\n      swap1\n      pop\n      jump\t// out\n        /* \"#utility.yul\":19490:19636   */\n    tag_551:\n        /* \"#utility.yul\":19587:19593   */\n      dup3\n        /* \"#utility.yul\":19582:19585   */\n      dup2\n        /* \"#utility.yul\":19577:19580   */\n      dup4\n        /* \"#utility.yul\":19564:19594   */\n      calldatacopy\n        /* \"#utility.yul\":19628:19629   */\n      0x00\n        /* \"#utility.yul\":19619:19625   */\n      dup4\n        /* \"#utility.yul\":19614:19617   */\n      dup4\n        /* \"#utility.yul\":19610:19626   */\n      add\n        /* \"#utility.yul\":19603:19630   */\n      mstore\n        /* \"#utility.yul\":19490:19636   */\n      pop\n      pop\n      pop\n      jump\t// out\n        /* \"#utility.yul\":19642:20067   */\n    tag_552:\n        /* \"#utility.yul\":19720:19725   */\n      0x00\n        /* \"#utility.yul\":19745:19811   */\n      tag_801\n        /* \"#utility.yul\":19761:19810   */\n      tag_802\n        /* \"#utility.yul\":19803:19809   */\n      dup5\n        /* \"#utility.yul\":19761:19810   */\n      tag_550\n      jump\t// in\n    tag_802:\n        /* \"#utility.yul\":19745:19811   */\n      tag_549\n      jump\t// in\n    tag_801:\n        /* \"#utility.yul\":19736:19811   */\n      swap1\n      pop\n        /* \"#utility.yul\":19834:19840   */\n      dup3\n        /* \"#utility.yul\":19827:19832   */\n      dup2\n        /* \"#utility.yul\":19820:19841   */\n      mstore\n        /* \"#utility.yul\":19872:19876   */\n      0x20\n        /* \"#utility.yul\":19865:19870   */\n      dup2\n        /* \"#utility.yul\":19861:19877   */\n      add\n        /* \"#utility.yul\":19910:19913   */\n      dup5\n        /* \"#utility.yul\":19901:19907   */\n      dup5\n        /* \"#utility.yul\":19896:19899   */\n      dup5\n        /* \"#utility.yul\":19892:19908   */\n      add\n        /* \"#utility.yul\":19889:19914   */\n      gt\n        /* \"#utility.yul\":19886:19998   */\n      iszero\n      tag_803\n      jumpi\n        /* \"#utility.yul\":19917:19996   */\n      tag_804\n      tag_547\n      jump\t// in\n    tag_804:\n        /* \"#utility.yul\":19886:19998   */\n    tag_803:\n        /* \"#utility.yul\":20007:20061   */\n      tag_805\n        /* \"#utility.yul\":20054:20060   */\n      dup5\n        /* \"#utility.yul\":20049:20052   */\n      dup3\n        /* \"#utility.yul\":20044:20047   */\n      dup6\n        /* \"#utility.yul\":20007:20061   */\n      tag_551\n      jump\t// in\n    tag_805:\n        /* \"#utility.yul\":19726:20067   */\n      pop\n        /* \"#utility.yul\":19642:20067   */\n      swap4\n      swap3\n      pop\n      pop\n      pop\n      jump\t// out\n        /* \"#utility.yul\":20087:20427   */\n    tag_553:\n        /* \"#utility.yul\":20143:20148   */\n      0x00\n        /* \"#utility.yul\":20192:20195   */\n      dup3\n        /* \"#utility.yul\":20185:20189   */\n      0x1f\n        /* \"#utility.yul\":20177:20183   */\n      dup4\n        /* \"#utility.yul\":20173:20190   */\n      add\n        /* \"#utility.yul\":20169:20196   */\n      slt\n        /* \"#utility.yul\":20159:20281   */\n      tag_807\n      jumpi\n        /* \"#utility.yul\":20200:20279   */\n      tag_808\n      tag_519\n      jump\t// in\n    tag_808:\n        /* \"#utility.yul\":20159:20281   */\n    tag_807:\n        /* \"#utility.yul\":20317:20323   */\n      dup2\n        /* \"#utility.yul\":20304:20324   */\n      calldataload\n        /* \"#utility.yul\":20342:20421   */\n      tag_809\n        /* \"#utility.yul\":20417:20420   */\n      dup5\n        /* \"#utility.yul\":20409:20415   */\n      dup3\n        /* \"#utility.yul\":20402:20406   */\n      0x20\n        /* \"#utility.yul\":20394:20400   */\n      dup7\n        /* \"#utility.yul\":20390:20407   */\n      add\n        /* \"#utility.yul\":20342:20421   */\n      tag_552\n      jump\t// in\n    tag_809:\n        /* \"#utility.yul\":20333:20421   */\n      swap2\n      pop\n        /* \"#utility.yul\":20149:20427   */\n      pop\n        /* \"#utility.yul\":20087:20427   */\n      swap3\n      swap2\n      pop\n      pop\n      jump\t// out\n        /* \"#utility.yul\":20433:21412   */\n    tag_154:\n        /* \"#utility.yul\":20530:20536   */\n      0x00\n        /* \"#utility.yul\":20538:20544   */\n      dup1\n        /* \"#utility.yul\":20546:20552   */\n      0x00\n        /* \"#utility.yul\":20595:20597   */\n      0x60\n        /* \"#utility.yul\":20583:20592   */\n      dup5\n        /* \"#utility.yul\":20574:20581   */\n      dup7\n        /* \"#utility.yul\":20570:20593   */\n      sub\n        /* \"#utility.yul\":20566:20598   */\n      slt\n        /* \"#utility.yul\":20563:20682   */\n      iszero\n      tag_811\n      jumpi\n        /* \"#utility.yul\":20601:20680   */\n      tag_812\n      tag_497\n      jump\t// in\n    tag_812:\n        /* \"#utility.yul\":20563:20682   */\n    tag_811:\n        /* \"#utility.yul\":20749:20750   */\n      0x00\n        /* \"#utility.yul\":20738:20747   */\n      dup5\n        /* \"#utility.yul\":20734:20751   */\n      add\n        /* \"#utility.yul\":20721:20752   */\n      calldataload\n        /* \"#utility.yul\":20779:20797   */\n      0xffffffffffffffff\n        /* \"#utility.yul\":20771:20777   */\n      dup2\n        /* \"#utility.yul\":20768:20798   */\n      gt\n        /* \"#utility.yul\":20765:20882   */\n      iszero\n      tag_813\n      jumpi\n        /* \"#utility.yul\":20801:20880   */\n      tag_814\n      tag_498\n      jump\t// in\n    tag_814:\n        /* \"#utility.yul\":20765:20882   */\n    tag_813:\n        /* \"#utility.yul\":20906:20969   */\n      tag_815\n        /* \"#utility.yul\":20961:20968   */\n      dup7\n        /* \"#utility.yul\":20952:20958   */\n      dup3\n        /* \"#utility.yul\":20941:20950   */\n      dup8\n        /* \"#utility.yul\":20937:20959   */\n      add\n        /* \"#utility.yul\":20906:20969   */\n      tag_553\n      jump\t// in\n    tag_815:\n        /* \"#utility.yul\":20896:20969   */\n      swap4\n      pop\n        /* \"#utility.yul\":20692:20979   */\n      pop\n        /* \"#utility.yul\":21046:21048   */\n      0x20\n        /* \"#utility.yul\":21035:21044   */\n      dup5\n        /* \"#utility.yul\":21031:21049   */\n      add\n        /* \"#utility.yul\":21018:21050   */\n      calldataload\n        /* \"#utility.yul\":21077:21095   */\n      0xffffffffffffffff\n        /* \"#utility.yul\":21069:21075   */\n      dup2\n        /* \"#utility.yul\":21066:21096   */\n      gt\n        /* \"#utility.yul\":21063:21180   */\n      iszero\n      tag_816\n      jumpi\n        /* \"#utility.yul\":21099:21178   */\n      tag_817\n      tag_498\n      jump\t// in\n    tag_817:\n        /* \"#utility.yul\":21063:21180   */\n    tag_816:\n        /* \"#utility.yul\":21204:21267   */\n      tag_818\n        /* \"#utility.yul\":21259:21266   */\n      dup7\n        /* \"#utility.yul\":21250:21256   */\n      dup3\n        /* \"#utility.yul\":21239:21248   */\n      dup8\n        /* \"#utility.yul\":21235:21257   */\n      add\n        /* \"#utility.yul\":21204:21267   */\n      tag_553\n      jump\t// in\n    tag_818:\n        /* \"#utility.yul\":21194:21267   */\n      swap3\n      pop\n        /* \"#utility.yul\":20989:21277   */\n      pop\n        /* \"#utility.yul\":21316:21318   */\n      0x40\n        /* \"#utility.yul\":21342:21395   */\n      tag_819\n        /* \"#utility.yul\":21387:21394   */\n      dup7\n        /* \"#utility.yul\":21378:21384   */\n      dup3\n        /* \"#utility.yul\":21367:21376   */\n      dup8\n        /* \"#utility.yul\":21363:21385   */\n      add\n        /* \"#utility.yul\":21342:21395   */\n      tag_501\n      jump\t// in\n    tag_819:\n        /* \"#utility.yul\":21332:21395   */\n      swap2\n      pop\n        /* \"#utility.yul\":21287:21405   */\n      pop\n        /* \"#utility.yul\":20433:21412   */\n      swap3\n      pop\n      swap3\n      pop\n      swap3\n      jump\t// out\n        /* \"#utility.yul\":21418:21598   */\n    tag_554:\n        /* \"#utility.yul\":21466:21543   */\n      0x4e487b7100000000000000000000000000000000000000000000000000000000\n        /* \"#utility.yul\":21463:21464   */\n      0x00\n        /* \"#utility.yul\":21456:21544   */\n      mstore\n        /* \"#utility.yul\":21563:21567   */\n      0x22\n        /* \"#utility.yul\":21560:21561   */\n      0x04\n        /* \"#utility.yul\":21553:21568   */\n      mstore\n        /* \"#utility.yul\":21587:21591   */\n      0x24\n        /* \"#utility.yul\":21584:21585   */\n      0x00\n        /* \"#utility.yul\":21577:21592   */\n      revert\n        /* \"#utility.yul\":21604:21924   */\n    tag_160:\n        /* \"#utility.yul\":21648:21654   */\n      0x00\n        /* \"#utility.yul\":21685:21686   */\n      0x02\n        /* \"#utility.yul\":21679:21683   */\n      dup3\n        /* \"#utility.yul\":21675:21687   */\n      div\n        /* \"#utility.yul\":21665:21687   */\n      swap1\n      pop\n        /* \"#utility.yul\":21732:21733   */\n      0x01\n        /* \"#utility.yul\":21726:21730   */\n      dup3\n        /* \"#utility.yul\":21722:21734   */\n      and\n        /* \"#utility.yul\":21753:21771   */\n      dup1\n        /* \"#utility.yul\":21743:21824   */\n      tag_822\n      jumpi\n        /* \"#utility.yul\":21809:21813   */\n      0x7f\n        /* \"#utility.yul\":21801:21807   */\n      dup3\n        /* \"#utility.yul\":21797:21814   */\n      and\n        /* \"#utility.yul\":21787:21814   */\n      swap2\n      pop\n        /* \"#utility.yul\":21743:21824   */\n    tag_822:\n        /* \"#utility.yul\":21871:21873   */\n      0x20\n        /* \"#utility.yul\":21863:21869   */\n      dup3\n        /* \"#utility.yul\":21860:21874   */\n      lt\n        /* \"#utility.yul\":21840:21858   */\n      dup2\n        /* \"#utility.yul\":21837:21875   */\n      sub\n        /* \"#utility.yul\":21834:21918   */\n      tag_823\n      jumpi\n        /* \"#utility.yul\":21890:21908   */\n      tag_824\n      tag_554\n      jump\t// in\n    tag_824:\n        /* \"#utility.yul\":21834:21918   */\n    tag_823:\n        /* \"#utility.yul\":21655:21924   */\n      pop\n        /* \"#utility.yul\":21604:21924   */\n      swap2\n      swap1\n      pop\n      jump\t// out\n        /* \"#utility.yul\":21930:22110   */\n    tag_180:\n        /* \"#utility.yul\":21978:22055   */\n      0x4e487b7100000000000000000000000000000000000000000000000000000000\n        /* \"#utility.yul\":21975:21976   */\n      0x00\n        /* \"#utility.yul\":21968:22056   */\n      mstore\n        /* \"#utility.yul\":22075:22079   */\n      0x32\n        /* \"#utility.yul\":22072:22073   */\n      0x04\n        /* \"#utility.yul\":22065:22080   */\n      mstore\n        /* \"#utility.yul\":22099:22103   */\n      0x24\n        /* \"#utility.yul\":22096:22097   */\n      0x00\n        /* \"#utility.yul\":22089:22104   */\n      revert\n        /* \"#utility.yul\":22116:22546   */\n    tag_184:\n        /* \"#utility.yul\":22259:22263   */\n      0x00\n        /* \"#utility.yul\":22297:22299   */\n      0x60\n        /* \"#utility.yul\":22286:22295   */\n      dup3\n        /* \"#utility.yul\":22282:22300   */\n      add\n        /* \"#utility.yul\":22274:22300   */\n      swap1\n      pop\n        /* \"#utility.yul\":22310:22381   */\n      tag_827\n        /* \"#utility.yul\":22378:22379   */\n      0x00\n        /* \"#utility.yul\":22367:22376   */\n      dup4\n        /* \"#utility.yul\":22363:22380   */\n      add\n        /* \"#utility.yul\":22354:22360   */\n      dup7\n        /* \"#utility.yul\":22310:22381   */\n      tag_505\n      jump\t// in\n    tag_827:\n        /* \"#utility.yul\":22391:22463   */\n      tag_828\n        /* \"#utility.yul\":22459:22461   */\n      0x20\n        /* \"#utility.yul\":22448:22457   */\n      dup4\n        /* \"#utility.yul\":22444:22462   */\n      add\n        /* \"#utility.yul\":22435:22441   */\n      dup6\n        /* \"#utility.yul\":22391:22463   */\n      tag_508\n      jump\t// in\n    tag_828:\n        /* \"#utility.yul\":22473:22539   */\n      tag_829\n        /* \"#utility.yul\":22535:22537   */\n      0x40\n        /* \"#utility.yul\":22524:22533   */\n      dup4\n        /* \"#utility.yul\":22520:22538   */\n      add\n        /* \"#utility.yul\":22511:22517   */\n      dup5\n        /* \"#utility.yul\":22473:22539   */\n      tag_516\n      jump\t// in\n    tag_829:\n        /* \"#utility.yul\":22116:22546   */\n      swap5\n      swap4\n      pop\n      pop\n      pop\n      pop\n      jump\t// out\n        /* \"#utility.yul\":22552:22732   */\n    tag_555:\n        /* \"#utility.yul\":22600:22677   */\n      0x4e487b7100000000000000000000000000000000000000000000000000000000\n        /* \"#utility.yul\":22597:22598   */\n      0x00\n        /* \"#utility.yul\":22590:22678   */\n      mstore\n        /* \"#utility.yul\":22697:22701   */\n      0x11\n        /* \"#utility.yul\":22694:22695   */\n      0x04\n        /* \"#utility.yul\":22687:22702   */\n      mstore\n        /* \"#utility.yul\":22721:22725   */\n      0x24\n        /* \"#utility.yul\":22718:22719   */\n      0x00\n        /* \"#utility.yul\":22711:22726   */\n      revert\n        /* \"#utility.yul\":22738:22971   */\n    tag_189:\n        /* \"#utility.yul\":22777:22780   */\n      0x00\n        /* \"#utility.yul\":22800:22824   */\n      tag_832\n        /* \"#utility.yul\":22818:22823   */\n      dup3\n        /* \"#utility.yul\":22800:22824   */\n      tag_502\n      jump\t// in\n    tag_832:\n        /* \"#utility.yul\":22791:22824   */\n      swap2\n      pop\n        /* \"#utility.yul\":22846:22912   */\n      0xffffffffffffffffffffffffffffffffffffffffffffffffffffffffffffffff\n        /* \"#utility.yul\":22839:22844   */\n      dup3\n        /* \"#utility.yul\":22836:22913   */\n      sub\n        /* \"#utility.yul\":22833:22936   */\n      tag_833\n      jumpi\n        /* \"#utility.yul\":22916:22934   */\n      tag_834\n      tag_555\n      jump\t// in\n    tag_834:\n        /* \"#utility.yul\":22833:22936   */\n    tag_833:\n        /* \"#utility.yul\":22963:22964   */\n      0x01\n        /* \"#utility.yul\":22956:22961   */\n      dup3\n        /* \"#utility.yul\":22952:22965   */\n      add\n        /* \"#utility.yul\":22945:22965   */\n      swap1\n      pop\n        /* \"#utility.yul\":22738:22971   */\n      swap2\n      swap1\n      pop\n      jump\t// out\n        /* \"#utility.yul\":22977:23147   */\n    tag_556:\n        /* \"#utility.yul\":23117:23139   */\n      0x536861726420646f6573206e6f74206578697374000000000000000000000000\n        /* \"#utility.yul\":23113:23114   */\n      0x00\n        /* \"#utility.yul\":23105:23111   */\n      dup3\n        /* \"#utility.yul\":23101:23115   */\n      add\n        /* \"#utility.yul\":23094:23140   */\n      mstore\n        /* \"#utility.yul\":22977:23147   */\n      pop\n      jump\t// out\n        /* \"#utility.yul\":23153:23519   */\n    tag_557:\n        /* \"#utility.yul\":23295:23298   */\n      0x00\n        /* \"#utility.yul\":23316:23383   */\n      tag_837\n        /* \"#utility.yul\":23380:23382   */\n      0x14\n        /* \"#utility.yul\":23375:23378   */\n      dup4\n        /* \"#utility.yul\":23316:23383   */\n      tag_524\n      jump\t// in\n    tag_837:\n        /* \"#utility.yul\":23309:23383   */\n      swap2\n      pop\n        /* \"#utility.yul\":23392:23485   */\n      tag_838\n        /* \"#utility.yul\":23481:23484   */\n      dup3\n        /* \"#utility.yul\":23392:23485   */\n      tag_556\n      jump\t// in\n    tag_838:\n        /* \"#utility.yul\":23510:23512   */\n      0x20\n        /* \"#utility.yul\":23505:23508   */\n      dup3\n        /* \"#utility.yul\":23501:23513   */\n      add\n        /* \"#utility.yul\":23494:23513   */\n      swap1\n      pop\n        /* \"#utility.yul\":23153:23519   */\n      swap2\n      swap1\n      pop\n      jump\t// out\n        /* \"#utility.yul\":23525:23944   */\n    tag_193:\n        /* \"#utility.yul\":23691:23695   */\n      0x00\n        /* \"#utility.yul\":23729:23731   */\n      0x20\n        /* \"#utility.yul\":23718:23727   */\n      dup3\n        /* \"#utility.yul\":23714:23732   */\n      add\n        /* \"#utility.yul\":23706:23732   */\n      swap1\n      pop\n        /* \"#utility.yul\":23778:23787   */\n      dup2\n        /* \"#utility.yul\":23772:23776   */\n      dup2\n        /* \"#utility.yul\":23768:23788   */\n      sub\n        /* \"#utility.yul\":23764:23765   */\n      0x00\n        /* \"#utility.yul\":23753:23762   */\n      dup4\n        /* \"#utility.yul\":23749:23766   */\n      add\n        /* \"#utility.yul\":23742:23789   */\n      mstore\n        /* \"#utility.yul\":23806:23937   */\n      tag_840\n        /* \"#utility.yul\":23932:23936   */\n      dup2\n        /* \"#utility.yul\":23806:23937   */\n      tag_557\n      jump\t// in\n    tag_840:\n        /* \"#utility.yul\":23798:23937   */\n      swap1\n      pop\n        /* \"#utility.yul\":23525:23944   */\n      swap2\n      swap1\n      pop\n      jump\t// out\n        /* \"#utility.yul\":23950:24131   */\n    tag_558:\n        /* \"#utility.yul\":24090:24123   */\n      0x53746f726167652070726f766964657220646f6573206e6f7420657869737400\n        /* \"#utility.yul\":24086:24087   */\n      0x00\n        /* \"#utility.yul\":24078:24084   */\n      dup3\n        /* \"#utility.yul\":24074:24088   */\n      add\n        /* \"#utility.yul\":24067:24124   */\n      mstore\n        /* \"#utility.yul\":23950:24131   */\n      pop\n      jump\t// out\n        /* \"#utility.yul\":24137:24503   */\n    tag_559:\n        /* \"#utility.yul\":24279:24282   */\n      0x00\n        /* \"#utility.yul\":24300:24367   */\n      tag_843\n        /* \"#utility.yul\":24364:24366   */\n      0x1f\n        /* \"#utility.yul\":24359:24362   */\n      dup4\n        /* \"#utility.yul\":24300:24367   */\n      tag_524\n      jump\t// in\n    tag_843:\n        /* \"#utility.yul\":24293:24367   */\n      swap2\n      pop\n        /* \"#utility.yul\":24376:24469   */\n      tag_844\n        /* \"#utility.yul\":24465:24468   */\n      dup3\n        /* \"#utility.yul\":24376:24469   */\n      tag_558\n      jump\t// in\n    tag_844:\n        /* \"#utility.yul\":24494:24496   */\n      0x20\n        /* \"#utility.yul\":24489:24492   */\n      dup3\n        /* \"#utility.yul\":24485:24497   */\n      add\n        /* \"#utility.yul\":24478:24497   */\n      swap1\n      pop\n        /* \"#utility.yul\":24137:24503   */\n      swap2\n      swap1\n      pop\n      jump\t// out\n        /* \"#utility.yul\":24509:24928   */\n    tag_196:\n        /* \"#utility.yul\":24675:24679   */\n      0x00\n        /* \"#utility.yul\":24713:24715   */\n      0x20\n        /* \"#utility.yul\":24702:24711   */\n      dup3\n        /* \"#utility.yul\":24698:24716   */\n      add\n        /* \"#utility.yul\":24690:24716   */\n      swap1\n      pop\n        /* \"#utility.yul\":24762:24771   */\n      dup2\n        /* \"#utility.yul\":24756:24760   */\n      dup2\n        /* \"#utility.yul\":24752:24772   */\n      sub\n        /* \"#utility.yul\":24748:24749   */\n      0x00\n        /* \"#utility.yul\":24737:24746   */\n      dup4\n        /* \"#utility.yul\":24733:24750   */\n      add\n        /* \"#utility.yul\":24726:24773   */\n      mstore\n        /* \"#utility.yul\":24790:24921   */\n      tag_846\n        /* \"#utility.yul\":24916:24920   */\n      dup2\n        /* \"#utility.yul\":24790:24921   */\n      tag_559\n      jump\t// in\n    tag_846:\n        /* \"#utility.yul\":24782:24921   */\n      swap1\n      pop\n        /* \"#utility.yul\":24509:24928   */\n      swap2\n      swap1\n      pop\n      jump\t// out\n        /* \"#utility.yul\":24934:25128   */\n    tag_206:\n        /* \"#utility.yul\":24974:24978   */\n      0x00\n        /* \"#utility.yul\":24994:25014   */\n      tag_848\n        /* \"#utility.yul\":25012:25013   */\n      dup3\n        /* \"#utility.yul\":24994:25014   */\n      tag_502\n      jump\t// in\n    tag_848:\n        /* \"#utility.yul\":24989:25014   */\n      swap2\n      pop\n        /* \"#utility.yul\":25028:25048   */\n      tag_849\n        /* \"#utility.yul\":25046:25047   */\n      dup4\n        /* \"#utility.yul\":25028:25048   */\n      tag_502\n      jump\t// in\n    tag_849:\n        /* \"#utility.yul\":25023:25048   */\n      swap3\n      pop\n        /* \"#utility.yul\":25072:25073   */\n      dup3\n        /* \"#utility.yul\":25069:25070   */\n      dup3\n        /* \"#utility.yul\":25065:25074   */\n      sub\n        /* \"#utility.yul\":25057:25074   */\n      swap1\n      pop\n        /* \"#utility.yul\":25096:25097   */\n      dup2\n        /* \"#utility.yul\":25090:25094   */\n      dup2\n        /* \"#utility.yul\":25087:25098   */\n      gt\n        /* \"#utility.yul\":25084:25121   */\n      iszero\n      tag_850\n      jumpi\n        /* \"#utility.yul\":25101:25119   */\n      tag_851\n      tag_555\n      jump\t// in\n    tag_851:\n        /* \"#utility.yul\":25084:25121   */\n    tag_850:\n        /* \"#utility.yul\":24934:25128   */\n      swap3\n      swap2\n      pop\n      pop\n      jump\t// out\n        /* \"#utility.yul\":25134:25314   */\n    tag_215:\n        /* \"#utility.yul\":25182:25259   */\n      0x4e487b7100000000000000000000000000000000000000000000000000000000\n        /* \"#utility.yul\":25179:25180   */\n      0x00\n        /* \"#utility.yul\":25172:25260   */\n      mstore\n        /* \"#utility.yul\":25279:25283   */\n      0x31\n        /* \"#utility.yul\":25276:25277   */\n      0x04\n        /* \"#utility.yul\":25269:25284   */\n      mstore\n        /* \"#utility.yul\":25303:25307   */\n      0x24\n        /* \"#utility.yul\":25300:25301   */\n      0x00\n        /* \"#utility.yul\":25293:25308   */\n      revert\n        /* \"#utility.yul\":25320:25652   */\n    tag_220:\n        /* \"#utility.yul\":25441:25445   */\n      0x00\n        /* \"#utility.yul\":25479:25481   */\n      0x40\n        /* \"#utility.yul\":25468:25477   */\n      dup3\n        /* \"#utility.yul\":25464:25482   */\n      add\n        /* \"#utility.yul\":25456:25482   */\n      swap1\n      pop\n        /* \"#utility.yul\":25492:25563   */\n      tag_854\n        /* \"#utility.yul\":25560:25561   */\n      0x00\n        /* \"#utility.yul\":25549:25558   */\n      dup4\n        /* \"#utility.yul\":25545:25562   */\n      add\n        /* \"#utility.yul\":25536:25542   */\n      dup6\n        /* \"#utility.yul\":25492:25563   */\n      tag_505\n      jump\t// in\n    tag_854:\n        /* \"#utility.yul\":25573:25645   */\n      tag_855\n        /* \"#utility.yul\":25641:25643   */\n      0x20\n        /* \"#utility.yul\":25630:25639   */\n      dup4\n        /* \"#utility.yul\":25626:25644   */\n      add\n        /* \"#utility.yul\":25617:25623   */\n      dup5\n        /* \"#utility.yul\":25573:25645   */\n      tag_508\n      jump\t// in\n    tag_855:\n        /* \"#utility.yul\":25320:25652   */\n      swap4\n      swap3\n      pop\n      pop\n      pop\n      jump\t// out\n        /* \"#utility.yul\":25658:25827   */\n    tag_560:\n        /* \"#utility.yul\":25798:25819   */\n      0x46696c6520646f6573206e6f7420657869737400000000000000000000000000\n        /* \"#utility.yul\":25794:25795   */\n      0x00\n        /* \"#utility.yul\":25786:25792   */\n      dup3\n        /* \"#utility.yul\":25782:25796   */\n      add\n        /* \"#utility.yul\":25775:25820   */\n      mstore\n        /* \"#utility.yul\":25658:25827   */\n      pop\n      jump\t// out\n        /* \"#utility.yul\":25833:26199   */\n    tag_561:\n        /* \"#utility.yul\":25975:25978   */\n      0x00\n        /* \"#utility.yul\":25996:26063   */\n      tag_858\n        /* \"#utility.yul\":26060:26062   */\n      0x13\n        /* \"#utility.yul\":26055:26058   */\n      dup4\n        /* \"#utility.yul\":25996:26063   */\n      tag_524\n      jump\t// in\n    tag_858:\n        /* \"#utility.yul\":25989:26063   */\n      swap2\n      pop\n        /* \"#utility.yul\":26072:26165   */\n      tag_859\n        /* \"#utility.yul\":26161:26164   */\n      dup3\n        /* \"#utility.yul\":26072:26165   */\n      tag_560\n      jump\t// in\n    tag_859:\n        /* \"#utility.yul\":26190:26192   */\n      0x20\n        /* \"#utility.yul\":26185:26188   */\n      dup3\n        /* \"#utility.yul\":26181:26193   */\n      add\n        /* \"#utility.yul\":26174:26193   */\n      swap1\n      pop\n        /* \"#utility.yul\":25833:26199   */\n      swap2\n      swap1\n      pop\n      jump\t// out\n        /* \"#utility.yul\":26205:26624   */\n    tag_239:\n        /* \"#utility.yul\":26371:26375   */\n      0x00\n        /* \"#utility.yul\":26409:26411   */\n      0x20\n        /* \"#utility.yul\":26398:26407   */\n      dup3\n        /* \"#utility.yul\":26394:26412   */\n      add\n        /* \"#utility.yul\":26386:26412   */\n      swap1\n      pop\n        /* \"#utility.yul\":26458:26467   */\n      dup2\n        /* \"#utility.yul\":26452:26456   */\n      dup2\n        /* \"#utility.yul\":26448:26468   */\n      sub\n        /* \"#utility.yul\":26444:26445   */\n      0x00\n        /* \"#utility.yul\":26433:26442   */\n      dup4\n        /* \"#utility.yul\":26429:26446   */\n      add\n        /* \"#utility.yul\":26422:26469   */\n      mstore\n        /* \"#utility.yul\":26486:26617   */\n      tag_861\n        /* \"#utility.yul\":26612:26616   */\n      dup2\n        /* \"#utility.yul\":26486:26617   */\n      tag_561\n      jump\t// in\n    tag_861:\n        /* \"#utility.yul\":26478:26617   */\n      swap1\n      pop\n        /* \"#utility.yul\":26205:26624   */\n      swap2\n      swap1\n      pop\n      jump\t// out\n        /* \"#utility.yul\":26630:26856   */\n    tag_562:\n        /* \"#utility.yul\":26770:26804   */\n      0x4f6e6c79207468652066696c65206f776e65722063616e2064656c6574652074\n        /* \"#utility.yul\":26766:26767   */\n      0x00\n        /* \"#utility.yul\":26758:26764   */\n      dup3\n        /* \"#utility.yul\":26754:26768   */\n      add\n        /* \"#utility.yul\":26747:26805   */\n      mstore\n        /* \"#utility.yul\":26839:26848   */\n      0x68652066696c6500000000000000000000000000000000000000000000000000\n        /* \"#utility.yul\":26834:26836   */\n      0x20\n        /* \"#utility.yul\":26826:26832   */\n      dup3\n        /* \"#utility.yul\":26822:26837   */\n      add\n        /* \"#utility.yul\":26815:26849   */\n      mstore\n        /* \"#utility.yul\":26630:26856   */\n      pop\n      jump\t// out\n        /* \"#utility.yul\":26862:27228   */\n    tag_563:\n        /* \"#utility.yul\":27004:27007   */\n      0x00\n        /* \"#utility.yul\":27025:27092   */\n      tag_864\n        /* \"#utility.yul\":27089:27091   */\n      0x27\n        /* \"#utility.yul\":27084:27087   */\n      dup4\n        /* \"#utility.yul\":27025:27092   */\n      tag_524\n      jump\t// in\n    tag_864:\n        /* \"#utility.yul\":27018:27092   */\n      swap2\n      pop\n        /* \"#utility.yul\":27101:27194   */\n      tag_865\n        /* \"#utility.yul\":27190:27193   */\n      dup3\n        /* \"#utility.yul\":27101:27194   */\n      tag_562\n      jump\t// in\n    tag_865:\n        /* \"#utility.yul\":27219:27221   */\n      0x40\n        /* \"#utility.yul\":27214:27217   */\n      dup3\n        /* \"#utility.yul\":27210:27222   */\n      add\n        /* \"#utility.yul\":27203:27222   */\n      swap1\n      pop\n        /* \"#utility.yul\":26862:27228   */\n      swap2\n      swap1\n      pop\n      jump\t// out\n        /* \"#utility.yul\":27234:27653   */\n    tag_242:\n        /* \"#utility.yul\":27400:27404   */\n      0x00\n        /* \"#utility.yul\":27438:27440   */\n      0x20\n        /* \"#utility.yul\":27427:27436   */\n      dup3\n        /* \"#utility.yul\":27423:27441   */\n      add\n        /* \"#utility.yul\":27415:27441   */\n      swap1\n      pop\n        /* \"#utility.yul\":27487:27496   */\n      dup2\n        /* \"#utility.yul\":27481:27485   */\n      dup2\n        /* \"#utility.yul\":27477:27497   */\n      sub\n        /* \"#utility.yul\":27473:27474   */\n      0x00\n        /* \"#utility.yul\":27462:27471   */\n      dup4\n        /* \"#utility.yul\":27458:27475   */\n      add\n        /* \"#utility.yul\":27451:27498   */\n      mstore\n        /* \"#utility.yul\":27515:27646   */\n      tag_867\n        /* \"#utility.yul\":27641:27645   */\n      dup2\n        /* \"#utility.yul\":27515:27646   */\n      tag_563\n      jump\t// in\n    tag_867:\n        /* \"#utility.yul\":27507:27646   */\n      swap1\n      pop\n        /* \"#utility.yul\":27234:27653   */\n      swap2\n      swap1\n      pop\n      jump\t// out\n        /* \"#utility.yul\":27659:27840   */\n    tag_564:\n        /* \"#utility.yul\":27799:27832   */\n      0x53746f726167652070726f766964657220616c72656164792065786973747300\n        /* \"#utility.yul\":27795:27796   */\n      0x00\n        /* \"#utility.yul\":27787:27793   */\n      dup3\n        /* \"#utility.yul\":27783:27797   */\n      add\n        /* \"#utility.yul\":27776:27833   */\n      mstore\n        /* \"#utility.yul\":27659:27840   */\n      pop\n      jump\t// out\n        /* \"#utility.yul\":27846:28212   */\n    tag_565:\n        /* \"#utility.yul\":27988:27991   */\n      0x00\n        /* \"#utility.yul\":28009:28076   */\n      tag_870\n        /* \"#utility.yul\":28073:28075   */\n      0x1f\n        /* \"#utility.yul\":28068:28071   */\n      dup4\n        /* \"#utility.yul\":28009:28076   */\n      tag_524\n      jump\t// in\n    tag_870:\n        /* \"#utility.yul\":28002:28076   */\n      swap2\n      pop\n        /* \"#utility.yul\":28085:28178   */\n      tag_871\n        /* \"#utility.yul\":28174:28177   */\n      dup3\n        /* \"#utility.yul\":28085:28178   */\n      tag_564\n      jump\t// in\n    tag_871:\n        /* \"#utility.yul\":28203:28205   */\n      0x20\n        /* \"#utility.yul\":28198:28201   */\n      dup3\n        /* \"#utility.yul\":28194:28206   */\n      add\n        /* \"#utility.yul\":28187:28206   */\n      swap1\n      pop\n        /* \"#utility.yul\":27846:28212   */\n      swap2\n      swap1\n      pop\n      jump\t// out\n        /* \"#utility.yul\":28218:28637   */\n    tag_282:\n        /* \"#utility.yul\":28384:28388   */\n      0x00\n        /* \"#utility.yul\":28422:28424   */\n      0x20\n        /* \"#utility.yul\":28411:28420   */\n      dup3\n        /* \"#utility.yul\":28407:28425   */\n      add\n        /* \"#utility.yul\":28399:28425   */\n      swap1\n      pop\n        /* \"#utility.yul\":28471:28480   */\n      dup2\n        /* \"#utility.yul\":28465:28469   */\n      dup2\n        /* \"#utility.yul\":28461:28481   */\n      sub\n        /* \"#utility.yul\":28457:28458   */\n      0x00\n        /* \"#utility.yul\":28446:28455   */\n      dup4\n        /* \"#utility.yul\":28442:28459   */\n      add\n        /* \"#utility.yul\":28435:28482   */\n      mstore\n        /* \"#utility.yul\":28499:28630   */\n      tag_873\n        /* \"#utility.yul\":28625:28629   */\n      dup2\n        /* \"#utility.yul\":28499:28630   */\n      tag_565\n      jump\t// in\n    tag_873:\n        /* \"#utility.yul\":28491:28630   */\n      swap1\n      pop\n        /* \"#utility.yul\":28218:28637   */\n      swap2\n      swap1\n      pop\n      jump\t// out\n        /* \"#utility.yul\":28643:28876   */\n    tag_566:\n        /* \"#utility.yul\":28783:28817   */\n      0x4f6e6c79207468652073746f726167652070726f76696465722063616e206465\n        /* \"#utility.yul\":28779:28780   */\n      0x00\n        /* \"#utility.yul\":28771:28777   */\n      dup3\n        /* \"#utility.yul\":28767:28781   */\n      add\n        /* \"#utility.yul\":28760:28818   */\n      mstore\n        /* \"#utility.yul\":28852:28868   */\n      0x6c65746520746865207368617264000000000000000000000000000000000000\n        /* \"#utility.yul\":28847:28849   */\n      0x20\n        /* \"#utility.yul\":28839:28845   */\n      dup3\n        /* \"#utility.yul\":28835:28850   */\n      add\n        /* \"#utility.yul\":28828:28869   */\n      mstore\n        /* \"#utility.yul\":28643:28876   */\n      pop\n      jump\t// out\n        /* \"#utility.yul\":28882:29248   */\n    tag_567:\n        /* \"#utility.yul\":29024:29027   */\n      0x00\n        /* \"#utility.yul\":29045:29112   */\n      tag_876\n        /* \"#utility.yul\":29109:29111   */\n      0x2e\n        /* \"#utility.yul\":29104:29107   */\n      dup4\n        /* \"#utility.yul\":29045:29112   */\n      tag_524\n      jump\t// in\n    tag_876:\n        /* \"#utility.yul\":29038:29112   */\n      swap2\n      pop\n        /* \"#utility.yul\":29121:29214   */\n      tag_877\n        /* \"#utility.yul\":29210:29213   */\n      dup3\n        /* \"#utility.yul\":29121:29214   */\n      tag_566\n      jump\t// in\n    tag_877:\n        /* \"#utility.yul\":29239:29241   */\n      0x40\n        /* \"#utility.yul\":29234:29237   */\n      dup3\n        /* \"#utility.yul\":29230:29242   */\n      add\n        /* \"#utility.yul\":29223:29242   */\n      swap1\n      pop\n        /* \"#utility.yul\":28882:29248   */\n      swap2\n      swap1\n      pop\n      jump\t// out\n        /* \"#utility.yul\":29254:29673   */\n    tag_349:\n        /* \"#utility.yul\":29420:29424   */\n      0x00\n        /* \"#utility.yul\":29458:29460   */\n      0x20\n        /* \"#utility.yul\":29447:29456   */\n      dup3\n        /* \"#utility.yul\":29443:29461   */\n      add\n        /* \"#utility.yul\":29435:29461   */\n      swap1\n      pop\n        /* \"#utility.yul\":29507:29516   */\n      dup2\n        /* \"#utility.yul\":29501:29505   */\n      dup2\n        /* \"#utility.yul\":29497:29517   */\n      sub\n        /* \"#utility.yul\":29493:29494   */\n      0x00\n        /* \"#utility.yul\":29482:29491   */\n      dup4\n        /* \"#utility.yul\":29478:29495   */\n      add\n        /* \"#utility.yul\":29471:29518   */\n      mstore\n        /* \"#utility.yul\":29535:29666   */\n      tag_879\n        /* \"#utility.yul\":29661:29665   */\n      dup2\n        /* \"#utility.yul\":29535:29666   */\n      tag_567\n      jump\t// in\n    tag_879:\n        /* \"#utility.yul\":29527:29666   */\n      swap1\n      pop\n        /* \"#utility.yul\":29254:29673   */\n      swap2\n      swap1\n      pop\n      jump\t// out\n        /* \"#utility.yul\":29679:29848   */\n    tag_568:\n        /* \"#utility.yul\":29819:29840   */\n      0x46696c6520616c72656164792065786973747300000000000000000000000000\n        /* \"#utility.yul\":29815:29816   */\n      0x00\n        /* \"#utility.yul\":29807:29813   */\n      dup3\n        /* \"#utility.yul\":29803:29817   */\n      add\n        /* \"#utility.yul\":29796:29841   */\n      mstore\n        /* \"#utility.yul\":29679:29848   */\n      pop\n      jump\t// out\n        /* \"#utility.yul\":29854:30220   */\n    tag_569:\n        /* \"#utility.yul\":29996:29999   */\n      0x00\n        /* \"#utility.yul\":30017:30084   */\n      tag_882\n        /* \"#utility.yul\":30081:30083   */\n      0x13\n        /* \"#utility.yul\":30076:30079   */\n      dup4\n        /* \"#utility.yul\":30017:30084   */\n      tag_524\n      jump\t// in\n    tag_882:\n        /* \"#utility.yul\":30010:30084   */\n      swap2\n      pop\n        /* \"#utility.yul\":30093:30186   */\n      tag_883\n        /* \"#utility.yul\":30182:30185   */\n      dup3\n        /* \"#utility.yul\":30093:30186   */\n      tag_568\n      jump\t// in\n    tag_883:\n        /* \"#utility.yul\":30211:30213   */\n      0x20\n        /* \"#utility.yul\":30206:30209   */\n      dup3\n        /* \"#utility.yul\":30202:30214   */\n      add\n        /* \"#utility.yul\":30195:30214   */\n      swap1\n      pop\n        /* \"#utility.yul\":29854:30220   */\n      swap2\n      swap1\n      pop\n      jump\t// out\n        /* \"#utility.yul\":30226:30645   */\n    tag_410:\n        /* \"#utility.yul\":30392:30396   */\n      0x00\n        /* \"#utility.yul\":30430:30432   */\n      0x20\n        /* \"#utility.yul\":30419:30428   */\n      dup3\n        /* \"#utility.yul\":30415:30433   */\n      add\n        /* \"#utility.yul\":30407:30433   */\n      swap1\n      pop\n        /* \"#utility.yul\":30479:30488   */\n      dup2\n        /* \"#utility.yul\":30473:30477   */\n      dup2\n        /* \"#utility.yul\":30469:30489   */\n      sub\n        /* \"#utility.yul\":30465:30466   */\n      0x00\n        /* \"#utility.yul\":30454:30463   */\n      dup4\n        /* \"#utility.yul\":30450:30467   */\n      add\n        /* \"#utility.yul\":30443:30490   */\n      mstore\n        /* \"#utility.yul\":30507:30638   */\n      tag_885\n        /* \"#utility.yul\":30633:30637   */\n      dup2\n        /* \"#utility.yul\":30507:30638   */\n      tag_569\n      jump\t// in\n    tag_885:\n        /* \"#utility.yul\":30499:30638   */\n      swap1\n      pop\n        /* \"#utility.yul\":30226:30645   */\n      swap2\n      swap1\n      pop\n      jump\t// out\n        /* \"#utility.yul\":30651:30828   */\n    tag_570:\n        /* \"#utility.yul\":30791:30820   */\n      0x4f776e6572206e616d65206d7573742062652070726f76696465640000000000\n        /* \"#utility.yul\":30787:30788   */\n      0x00\n        /* \"#utility.yul\":30779:30785   */\n      dup3\n        /* \"#utility.yul\":30775:30789   */\n      add\n        /* \"#utility.yul\":30768:30821   */\n      mstore\n        /* \"#utility.yul\":30651:30828   */\n      pop\n      jump\t// out\n        /* \"#utility.yul\":30834:31200   */\n    tag_571:\n        /* \"#utility.yul\":30976:30979   */\n      0x00\n        /* \"#utility.yul\":30997:31064   */\n      tag_888\n        /* \"#utility.yul\":31061:31063   */\n      0x1b\n        /* \"#utility.yul\":31056:31059   */\n      dup4\n        /* \"#utility.yul\":30997:31064   */\n      tag_524\n      jump\t// in\n    tag_888:\n        /* \"#utility.yul\":30990:31064   */\n      swap2\n      pop\n        /* \"#utility.yul\":31073:31166   */\n      tag_889\n        /* \"#utility.yul\":31162:31165   */\n      dup3\n        /* \"#utility.yul\":31073:31166   */\n      tag_570\n      jump\t// in\n    tag_889:\n        /* \"#utility.yul\":31191:31193   */\n      0x20\n        /* \"#utility.yul\":31186:31189   */\n      dup3\n        /* \"#utility.yul\":31182:31194   */\n      add\n        /* \"#utility.yul\":31175:31194   */\n      swap1\n      pop\n        /* \"#utility.yul\":30834:31200   */\n      swap2\n      swap1\n      pop\n      jump\t// out\n        /* \"#utility.yul\":31206:31625   */\n    tag_413:\n        /* \"#utility.yul\":31372:31376   */\n      0x00\n        /* \"#utility.yul\":31410:31412   */\n      0x20\n        /* \"#utility.yul\":31399:31408   */\n      dup3\n        /* \"#utility.yul\":31395:31413   */\n      add\n        /* \"#utility.yul\":31387:31413   */\n      swap1\n      pop\n        /* \"#utility.yul\":31459:31468   */\n      dup2\n        /* \"#utility.yul\":31453:31457   */\n      dup2\n        /* \"#utility.yul\":31449:31469   */\n      sub\n        /* \"#utility.yul\":31445:31446   */\n      0x00\n        /* \"#utility.yul\":31434:31443   */\n      dup4\n        /* \"#utility.yul\":31430:31447   */\n      add\n        /* \"#utility.yul\":31423:31470   */\n      mstore\n        /* \"#utility.yul\":31487:31618   */\n      tag_891\n        /* \"#utility.yul\":31613:31617   */\n      dup2\n        /* \"#utility.yul\":31487:31618   */\n      tag_571\n      jump\t// in\n    tag_891:\n        /* \"#utility.yul\":31479:31618   */\n      swap1\n      pop\n        /* \"#utility.yul\":31206:31625   */\n      swap2\n      swap1\n      pop\n      jump\t// out\n        /* \"#utility.yul\":31631:31807   */\n    tag_572:\n        /* \"#utility.yul\":31771:31799   */\n      0x46696c65206e616d65206d7573742062652070726f7669646564000000000000\n        /* \"#utility.yul\":31767:31768   */\n      0x00\n        /* \"#utility.yul\":31759:31765   */\n      dup3\n        /* \"#utility.yul\":31755:31769   */\n      add\n        /* \"#utility.yul\":31748:31800   */\n      mstore\n        /* \"#utility.yul\":31631:31807   */\n      pop\n      jump\t// out\n        /* \"#utility.yul\":31813:32179   */\n    tag_573:\n        /* \"#utility.yul\":31955:31958   */\n      0x00\n        /* \"#utility.yul\":31976:32043   */\n      tag_894\n        /* \"#utility.yul\":32040:32042   */\n      0x1a\n        /* \"#utility.yul\":32035:32038   */\n      dup4\n        /* \"#utility.yul\":31976:32043   */\n      tag_524\n      jump\t// in\n    tag_894:\n        /* \"#utility.yul\":31969:32043   */\n      swap2\n      pop\n        /* \"#utility.yul\":32052:32145   */\n      tag_895\n        /* \"#utility.yul\":32141:32144   */\n      dup3\n        /* \"#utility.yul\":32052:32145   */\n      tag_572\n      jump\t// in\n    tag_895:\n        /* \"#utility.yul\":32170:32172   */\n      0x20\n        /* \"#utility.yul\":32165:32168   */\n      dup3\n        /* \"#utility.yul\":32161:32173   */\n      add\n        /* \"#utility.yul\":32154:32173   */\n      swap1\n      pop\n        /* \"#utility.yul\":31813:32179   */\n      swap2\n      swap1\n      pop\n      jump\t// out\n        /* \"#utility.yul\":32185:32604   */\n    tag_416:\n        /* \"#utility.yul\":32351:32355   */\n      0x00\n        /* \"#utility.yul\":32389:32391   */\n      0x20\n        /* \"#utility.yul\":32378:32387   */\n      dup3\n        /* \"#utility.yul\":32374:32392   */\n      add\n        /* \"#utility.yul\":32366:32392   */\n      swap1\n      pop\n        /* \"#utility.yul\":32438:32447   */\n      dup2\n        /* \"#utility.yul\":32432:32436   */\n      dup2\n        /* \"#utility.yul\":32428:32448   */\n      sub\n        /* \"#utility.yul\":32424:32425   */\n      0x00\n        /* \"#utility.yul\":32413:32422   */\n      dup4\n        /* \"#utility.yul\":32409:32426   */\n      add\n        /* \"#utility.yul\":32402:32449   */\n      mstore\n        /* \"#utility.yul\":32466:32597   */\n      tag_897\n        /* \"#utility.yul\":32592:32596   */\n      dup2\n        /* \"#utility.yul\":32466:32597   */\n      tag_573\n      jump\t// in\n    tag_897:\n        /* \"#utility.yul\":32458:32597   */\n      swap1\n      pop\n        /* \"#utility.yul\":32185:32604   */\n      swap2\n      swap1\n      pop\n      jump\t// out\n        /* \"#utility.yul\":32610:32751   */\n    tag_574:\n        /* \"#utility.yul\":32659:32663   */\n      0x00\n        /* \"#utility.yul\":32682:32685   */\n      dup2\n        /* \"#utility.yul\":32674:32685   */\n      swap1\n      pop\n        /* \"#utility.yul\":32705:32708   */\n      dup2\n        /* \"#utility.yul\":32702:32703   */\n      0x00\n        /* \"#utility.yul\":32695:32709   */\n      mstore\n        /* \"#utility.yul\":32739:32743   */\n      0x20\n        /* \"#utility.yul\":32736:32737   */\n      0x00\n        /* \"#utility.yul\":32726:32744   */\n      keccak256\n        /* \"#utility.yul\":32718:32744   */\n      swap1\n      pop\n        /* \"#utility.yul\":32610:32751   */\n      swap2\n      swap1\n      pop\n      jump\t// out\n        /* \"#utility.yul\":32757:32850   */\n    tag_575:\n        /* \"#utility.yul\":32794:32800   */\n      0x00\n        /* \"#utility.yul\":32841:32843   */\n      0x20\n        /* \"#utility.yul\":32836:32838   */\n      0x1f\n        /* \"#utility.yul\":32829:32834   */\n      dup4\n        /* \"#utility.yul\":32825:32839   */\n      add\n        /* \"#utility.yul\":32821:32844   */\n      div\n        /* \"#utility.yul\":32811:32844   */\n      swap1\n      pop\n        /* \"#utility.yul\":32757:32850   */\n      swap2\n      swap1\n      pop\n      jump\t// out\n        /* \"#utility.yul\":32856:32963   */\n    tag_576:\n        /* \"#utility.yul\":32900:32908   */\n      0x00\n        /* \"#utility.yul\":32950:32955   */\n      dup3\n        /* \"#utility.yul\":32944:32948   */\n      dup3\n        /* \"#utility.yul\":32940:32956   */\n      shl\n        /* \"#utility.yul\":32919:32956   */\n      swap1\n      pop\n        /* \"#utility.yul\":32856:32963   */\n      swap3\n      swap2\n      pop\n      pop\n      jump\t// out\n        /* \"#utility.yul\":32969:33362   */\n    tag_577:\n        /* \"#utility.yul\":33038:33044   */\n      0x00\n        /* \"#utility.yul\":33088:33089   */\n      0x08\n        /* \"#utility.yul\":33076:33086   */\n      dup4\n        /* \"#utility.yul\":33072:33090   */\n      mul\n        /* \"#utility.yul\":33111:33208   */\n      tag_902\n        /* \"#utility.yul\":33141:33207   */\n      0xffffffffffffffffffffffffffffffffffffffffffffffffffffffffffffffff\n        /* \"#utility.yul\":33130:33139   */\n      dup3\n        /* \"#utility.yul\":33111:33208   */\n      tag_576\n      jump\t// in\n    tag_902:\n        /* \"#utility.yul\":33229:33268   */\n      tag_903\n        /* \"#utility.yul\":33259:33267   */\n      dup7\n        /* \"#utility.yul\":33248:33257   */\n      dup4\n        /* \"#utility.yul\":33229:33268   */\n      tag_576\n      jump\t// in\n    tag_903:\n        /* \"#utility.yul\":33217:33268   */\n      swap6\n      pop\n        /* \"#utility.yul\":33301:33305   */\n      dup1\n        /* \"#utility.yul\":33297:33306   */\n      not\n        /* \"#utility.yul\":33290:33295   */\n      dup5\n        /* \"#utility.yul\":33286:33307   */\n      and\n        /* \"#utility.yul\":33277:33307   */\n      swap4\n      pop\n        /* \"#utility.yul\":33350:33354   */\n      dup1\n        /* \"#utility.yul\":33340:33348   */\n      dup7\n        /* \"#utility.yul\":33336:33355   */\n      and\n        /* \"#utility.yul\":33329:33334   */\n      dup5\n        /* \"#utility.yul\":33326:33356   */\n      or\n        /* \"#utility.yul\":33316:33356   */\n      swap3\n      pop\n        /* \"#utility.yul\":33045:33362   */\n      pop\n      pop\n        /* \"#utility.yul\":32969:33362   */\n      swap4\n      swap3\n      pop\n      pop\n      pop\n      jump\t// out\n        /* \"#utility.yul\":33368:33428   */\n    tag_578:\n        /* \"#utility.yul\":33396:33399   */\n      0x00\n        /* \"#utility.yul\":33417:33422   */\n      dup2\n        /* \"#utility.yul\":33410:33422   */\n      swap1\n      pop\n        /* \"#utility.yul\":33368:33428   */\n      swap2\n      swap1\n      pop\n      jump\t// out\n        /* \"#utility.yul\":33434:33576   */\n    tag_579:\n        /* \"#utility.yul\":33484:33493   */\n      0x00\n        /* \"#utility.yul\":33517:33570   */\n      tag_906\n        /* \"#utility.yul\":33535:33569   */\n      tag_907\n        /* \"#utility.yul\":33544:33568   */\n      tag_908\n        /* \"#utility.yul\":33562:33567   */\n      dup5\n        /* \"#utility.yul\":33544:33568   */\n      tag_502\n      jump\t// in\n    tag_908:\n        /* \"#utility.yul\":33535:33569   */\n      tag_578\n      jump\t// in\n    tag_907:\n        /* \"#utility.yul\":33517:33570   */\n      tag_502\n      jump\t// in\n    tag_906:\n        /* \"#utility.yul\":33504:33570   */\n      swap1\n      pop\n        /* \"#utility.yul\":33434:33576   */\n      swap2\n      swap1\n      pop\n      jump\t// out\n        /* \"#utility.yul\":33582:33657   */\n    tag_580:\n        /* \"#utility.yul\":33625:33628   */\n      0x00\n        /* \"#utility.yul\":33646:33651   */\n      dup2\n        /* \"#utility.yul\":33639:33651   */\n      swap1\n      pop\n        /* \"#utility.yul\":33582:33657   */\n      swap2\n      swap1\n      pop\n      jump\t// out\n        /* \"#utility.yul\":33663:33932   */\n    tag_581:\n        /* \"#utility.yul\":33773:33812   */\n      tag_911\n        /* \"#utility.yul\":33804:33811   */\n      dup4\n        /* \"#utility.yul\":33773:33812   */\n      tag_579\n      jump\t// in\n    tag_911:\n        /* \"#utility.yul\":33834:33925   */\n      tag_912\n        /* \"#utility.yul\":33883:33924   */\n      tag_913\n        /* \"#utility.yul\":33907:33923   */\n      dup3\n        /* \"#utility.yul\":33883:33924   */\n      tag_580\n      jump\t// in\n    tag_913:\n        /* \"#utility.yul\":33875:33881   */\n      dup5\n        /* \"#utility.yul\":33868:33872   */\n      dup5\n        /* \"#utility.yul\":33862:33873   */\n      sload\n        /* \"#utility.yul\":33834:33925   */\n      tag_577\n      jump\t// in\n    tag_912:\n        /* \"#utility.yul\":33828:33832   */\n      dup3\n        /* \"#utility.yul\":33821:33926   */\n      sstore\n        /* \"#utility.yul\":33739:33932   */\n      pop\n        /* \"#utility.yul\":33663:33932   */\n      pop\n      pop\n      pop\n      jump\t// out\n        /* \"#utility.yul\":33938:34011   */\n    tag_582:\n        /* \"#utility.yul\":33983:33986   */\n      0x00\n        /* \"#utility.yul\":33938:34011   */\n      swap1\n      jump\t// out\n        /* \"#utility.yul\":34017:34206   */\n    tag_583:\n        /* \"#utility.yul\":34094:34126   */\n      tag_916\n      tag_582\n      jump\t// in\n    tag_916:\n        /* \"#utility.yul\":34135:34200   */\n      tag_917\n        /* \"#utility.yul\":34193:34199   */\n      dup2\n        /* \"#utility.yul\":34185:34191   */\n      dup5\n        /* \"#utility.yul\":34179:34183   */\n      dup5\n        /* \"#utility.yul\":34135:34200   */\n      tag_581\n      jump\t// in\n    tag_917:\n        /* \"#utility.yul\":34070:34206   */\n      pop\n        /* \"#utility.yul\":34017:34206   */\n      pop\n      pop\n      jump\t// out\n        /* \"#utility.yul\":34212:34398   */\n    tag_584:\n        /* \"#utility.yul\":34272:34392   */\n    tag_919:\n        /* \"#utility.yul\":34289:34292   */\n      dup2\n        /* \"#utility.yul\":34282:34287   */\n      dup2\n        /* \"#utility.yul\":34279:34293   */\n      lt\n        /* \"#utility.yul\":34272:34392   */\n      iszero\n      tag_921\n      jumpi\n        /* \"#utility.yul\":34343:34382   */\n      tag_922\n        /* \"#utility.yul\":34380:34381   */\n      0x00\n        /* \"#utility.yul\":34373:34378   */\n      dup3\n        /* \"#utility.yul\":34343:34382   */\n      tag_583\n      jump\t// in\n    tag_922:\n        /* \"#utility.yul\":34316:34317   */\n      0x01\n        /* \"#utility.yul\":34309:34314   */\n      dup2\n        /* \"#utility.yul\":34305:34318   */\n      add\n        /* \"#utility.yul\":34296:34318   */\n      swap1\n      pop\n        /* \"#utility.yul\":34272:34392   */\n      jump(tag_919)\n    tag_921:\n        /* \"#utility.yul\":34212:34398   */\n      pop\n      pop\n      jump\t// out\n        /* \"#utility.yul\":34404:34947   */\n    tag_585:\n        /* \"#utility.yul\":34505:34507   */\n      0x1f\n        /* \"#utility.yul\":34500:34503   */\n      dup3\n        /* \"#utility.yul\":34497:34508   */\n      gt\n        /* \"#utility.yul\":34494:34940   */\n      iszero\n      tag_924\n      jumpi\n        /* \"#utility.yul\":34539:34577   */\n      tag_925\n        /* \"#utility.yul\":34571:34576   */\n      dup2\n        /* \"#utility.yul\":34539:34577   */\n      tag_574\n      jump\t// in\n    tag_925:\n        /* \"#utility.yul\":34623:34652   */\n      tag_926\n        /* \"#utility.yul\":34641:34651   */\n      dup5\n        /* \"#utility.yul\":34623:34652   */\n      tag_575\n      jump\t// in\n    tag_926:\n        /* \"#utility.yul\":34613:34621   */\n      dup2\n        /* \"#utility.yul\":34609:34653   */\n      add\n        /* \"#utility.yul\":34806:34808   */\n      0x20\n        /* \"#utility.yul\":34794:34804   */\n      dup6\n        /* \"#utility.yul\":34791:34809   */\n      lt\n        /* \"#utility.yul\":34788:34837   */\n      iszero\n      tag_927\n      jumpi\n        /* \"#utility.yul\":34827:34835   */\n      dup2\n        /* \"#utility.yul\":34812:34835   */\n      swap1\n      pop\n        /* \"#utility.yul\":34788:34837   */\n    tag_927:\n        /* \"#utility.yul\":34850:34930   */\n      tag_928\n        /* \"#utility.yul\":34906:34928   */\n      tag_929\n        /* \"#utility.yul\":34924:34927   */\n      dup6\n        /* \"#utility.yul\":34906:34928   */\n      tag_575\n      jump\t// in\n    tag_929:\n        /* \"#utility.yul\":34896:34904   */\n      dup4\n        /* \"#utility.yul\":34892:34929   */\n      add\n        /* \"#utility.yul\":34879:34890   */\n      dup3\n        /* \"#utility.yul\":34850:34930   */\n      tag_584\n      jump\t// in\n    tag_928:\n        /* \"#utility.yul\":34509:34940   */\n      pop\n      pop\n        /* \"#utility.yul\":34494:34940   */\n    tag_924:\n        /* \"#utility.yul\":34404:34947   */\n      pop\n      pop\n      pop\n      jump\t// out\n        /* \"#utility.yul\":34953:35070   */\n    tag_586:\n        /* \"#utility.yul\":35007:35015   */\n      0x00\n        /* \"#utility.yul\":35057:35062   */\n      dup3\n        /* \"#utility.yul\":35051:35055   */\n      dup3\n        /* \"#utility.yul\":35047:35063   */\n      shr\n        /* \"#utility.yul\":35026:35063   */\n      swap1\n      pop\n        /* \"#utility.yul\":34953:35070   */\n      swap3\n      swap2\n      pop\n      pop\n      jump\t// out\n        /* \"#utility.yul\":35076:35245   */\n    tag_587:\n        /* \"#utility.yul\":35120:35126   */\n      0x00\n        /* \"#utility.yul\":35153:35204   */\n      tag_932\n        /* \"#utility.yul\":35201:35202   */\n      0x00\n        /* \"#utility.yul\":35197:35203   */\n      not\n        /* \"#utility.yul\":35189:35194   */\n      dup5\n        /* \"#utility.yul\":35186:35187   */\n      0x08\n        /* \"#utility.yul\":35182:35195   */\n      mul\n        /* \"#utility.yul\":35153:35204   */\n      tag_586\n      jump\t// in\n    tag_932:\n        /* \"#utility.yul\":35149:35205   */\n      not\n        /* \"#utility.yul\":35234:35238   */\n      dup1\n        /* \"#utility.yul\":35228:35232   */\n      dup4\n        /* \"#utility.yul\":35224:35239   */\n      and\n        /* \"#utility.yul\":35214:35239   */\n      swap2\n      pop\n        /* \"#utility.yul\":35127:35245   */\n      pop\n        /* \"#utility.yul\":35076:35245   */\n      swap3\n      swap2\n      pop\n      pop\n      jump\t// out\n        /* \"#utility.yul\":35250:35545   */\n    tag_588:\n        /* \"#utility.yul\":35326:35330   */\n      0x00\n        /* \"#utility.yul\":35472:35501   */\n      tag_934\n        /* \"#utility.yul\":35497:35500   */\n      dup4\n        /* \"#utility.yul\":35491:35495   */\n      dup4\n        /* \"#utility.yul\":35472:35501   */\n      tag_587\n      jump\t// in\n    tag_934:\n        /* \"#utility.yul\":35464:35501   */\n      swap2\n      pop\n        /* \"#utility.yul\":35534:35537   */\n      dup3\n        /* \"#utility.yul\":35531:35532   */\n      0x02\n        /* \"#utility.yul\":35527:35538   */\n      mul\n        /* \"#utility.yul\":35521:35525   */\n      dup3\n        /* \"#utility.yul\":35518:35539   */\n      or\n        /* \"#utility.yul\":35510:35539   */\n      swap1\n      pop\n        /* \"#utility.yul\":35250:35545   */\n      swap3\n      swap2\n      pop\n      pop\n      jump\t// out\n        /* \"#utility.yul\":35550:36945   */\n    tag_418:\n        /* \"#utility.yul\":35667:35704   */\n      tag_936\n        /* \"#utility.yul\":35700:35703   */\n      dup3\n        /* \"#utility.yul\":35667:35704   */\n      tag_523\n      jump\t// in\n    tag_936:\n        /* \"#utility.yul\":35769:35787   */\n      0xffffffffffffffff\n        /* \"#utility.yul\":35761:35767   */\n      dup2\n        /* \"#utility.yul\":35758:35788   */\n      gt\n        /* \"#utility.yul\":35755:35811   */\n      iszero\n      tag_937\n      jumpi\n        /* \"#utility.yul\":35791:35809   */\n      tag_938\n      tag_285\n      jump\t// in\n    tag_938:\n        /* \"#utility.yul\":35755:35811   */\n    tag_937:\n        /* \"#utility.yul\":35835:35873   */\n      tag_939\n        /* \"#utility.yul\":35867:35871   */\n      dup3\n        /* \"#utility.yul\":35861:35872   */\n      sload\n        /* \"#utility.yul\":35835:35873   */\n      tag_160\n      jump\t// in\n    tag_939:\n        /* \"#utility.yul\":35920:35987   */\n      tag_940\n        /* \"#utility.yul\":35980:35986   */\n      dup3\n        /* \"#utility.yul\":35972:35978   */\n      dup3\n        /* \"#utility.yul\":35966:35970   */\n      dup6\n        /* \"#utility.yul\":35920:35987   */\n      tag_585\n      jump\t// in\n    tag_940:\n        /* \"#utility.yul\":36014:36015   */\n      0x00\n        /* \"#utility.yul\":36038:36042   */\n      0x20\n        /* \"#utility.yul\":36025:36042   */\n      swap1\n      pop\n        /* \"#utility.yul\":36070:36072   */\n      0x1f\n        /* \"#utility.yul\":36062:36068   */\n      dup4\n        /* \"#utility.yul\":36059:36073   */\n      gt\n        /* \"#utility.yul\":36087:36088   */\n      0x01\n        /* \"#utility.yul\":36082:36700   */\n      dup2\n      eq\n      tag_942\n      jumpi\n        /* \"#utility.yul\":36744:36745   */\n      0x00\n        /* \"#utility.yul\":36761:36767   */\n      dup5\n        /* \"#utility.yul\":36758:36835   */\n      iszero\n      tag_943\n      jumpi\n        /* \"#utility.yul\":36810:36819   */\n      dup3\n        /* \"#utility.yul\":36805:36808   */\n      dup8\n        /* \"#utility.yul\":36801:36820   */\n      add\n        /* \"#utility.yul\":36795:36821   */\n      mload\n        /* \"#utility.yul\":36786:36821   */\n      swap1\n      pop\n        /* \"#utility.yul\":36758:36835   */\n    tag_943:\n        /* \"#utility.yul\":36861:36928   */\n      tag_944\n        /* \"#utility.yul\":36921:36927   */\n      dup6\n        /* \"#utility.yul\":36914:36919   */\n      dup3\n        /* \"#utility.yul\":36861:36928   */\n      tag_588\n      jump\t// in\n    tag_944:\n        /* \"#utility.yul\":36855:36859   */\n      dup7\n        /* \"#utility.yul\":36848:36929   */\n      sstore\n        /* \"#utility.yul\":36717:36939   */\n      pop\n        /* \"#utility.yul\":36052:36939   */\n      jump(tag_941)\n        /* \"#utility.yul\":36082:36700   */\n    tag_942:\n        /* \"#utility.yul\":36134:36138   */\n      0x1f\n        /* \"#utility.yul\":36130:36139   */\n      not\n        /* \"#utility.yul\":36122:36128   */\n      dup5\n        /* \"#utility.yul\":36118:36140   */\n      and\n        /* \"#utility.yul\":36168:36205   */\n      tag_945\n        /* \"#utility.yul\":36200:36204   */\n      dup7\n        /* \"#utility.yul\":36168:36205   */\n      tag_574\n      jump\t// in\n    tag_945:\n        /* \"#utility.yul\":36227:36228   */\n      0x00\n        /* \"#utility.yul\":36241:36449   */\n    tag_946:\n        /* \"#utility.yul\":36255:36262   */\n      dup3\n        /* \"#utility.yul\":36252:36253   */\n      dup2\n        /* \"#utility.yul\":36249:36263   */\n      lt\n        /* \"#utility.yul\":36241:36449   */\n      iszero\n      tag_948\n      jumpi\n        /* \"#utility.yul\":36334:36343   */\n      dup5\n        /* \"#utility.yul\":36329:36332   */\n      dup10\n        /* \"#utility.yul\":36325:36344   */\n      add\n        /* \"#utility.yul\":36319:36345   */\n      mload\n        /* \"#utility.yul\":36311:36317   */\n      dup3\n        /* \"#utility.yul\":36304:36346   */\n      sstore\n        /* \"#utility.yul\":36385:36386   */\n      0x01\n        /* \"#utility.yul\":36377:36383   */\n      dup3\n        /* \"#utility.yul\":36373:36387   */\n      add\n        /* \"#utility.yul\":36363:36387   */\n      swap2\n      pop\n        /* \"#utility.yul\":36432:36434   */\n      0x20\n        /* \"#utility.yul\":36421:36430   */\n      dup6\n        /* \"#utility.yul\":36417:36435   */\n      add\n        /* \"#utility.yul\":36404:36435   */\n      swap5\n      pop\n        /* \"#utility.yul\":36278:36282   */\n      0x20\n        /* \"#utility.yul\":36275:36276   */\n      dup2\n        /* \"#utility.yul\":36271:36283   */\n      add\n        /* \"#utility.yul\":36266:36283   */\n      swap1\n      pop\n        /* \"#utility.yul\":36241:36449   */\n      jump(tag_946)\n    tag_948:\n        /* \"#utility.yul\":36477:36483   */\n      dup7\n        /* \"#utility.yul\":36468:36475   */\n      dup4\n        /* \"#utility.yul\":36465:36484   */\n      lt\n        /* \"#utility.yul\":36462:36641   */\n      iszero\n      tag_949\n      jumpi\n        /* \"#utility.yul\":36535:36544   */\n      dup5\n        /* \"#utility.yul\":36530:36533   */\n      dup10\n        /* \"#utility.yul\":36526:36545   */\n      add\n        /* \"#utility.yul\":36520:36546   */\n      mload\n        /* \"#utility.yul\":36578:36626   */\n      tag_950\n        /* \"#utility.yul\":36620:36624   */\n      0x1f\n        /* \"#utility.yul\":36612:36618   */\n      dup10\n        /* \"#utility.yul\":36608:36625   */\n      and\n        /* \"#utility.yul\":36597:36606   */\n      dup3\n        /* \"#utility.yul\":36578:36626   */\n      tag_587\n      jump\t// in\n    tag_950:\n        /* \"#utility.yul\":36570:36576   */\n      dup4\n        /* \"#utility.yul\":36563:36627   */\n      sstore\n        /* \"#utility.yul\":36485:36641   */\n      pop\n        /* \"#utility.yul\":36462:36641   */\n    tag_949:\n        /* \"#utility.yul\":36687:36688   */\n      0x01\n        /* \"#utility.yul\":36683:36684   */\n      0x02\n        /* \"#utility.yul\":36675:36681   */\n      dup9\n        /* \"#utility.yul\":36671:36685   */\n      mul\n        /* \"#utility.yul\":36667:36689   */\n      add\n        /* \"#utility.yul\":36661:36665   */\n      dup9\n        /* \"#utility.yul\":36654:36690   */\n      sstore\n        /* \"#utility.yul\":36089:36700   */\n      pop\n      pop\n      pop\n        /* \"#utility.yul\":36052:36939   */\n    tag_941:\n      pop\n        /* \"#utility.yul\":35642:36945   */\n      pop\n      pop\n      pop\n        /* \"#utility.yul\":35550:36945   */\n      pop\n      pop\n      jump\t// out\n        /* \"#utility.yul\":36951:37130   */\n    tag_589:\n        /* \"#utility.yul\":37091:37122   */\n      0x496e73756666696369656e7420636f6e74726163742062616c616e6365000000\n        /* \"#utility.yul\":37087:37088   */\n      0x00\n        /* \"#utility.yul\":37079:37085   */\n      dup3\n        /* \"#utility.yul\":37075:37089   */\n      add\n        /* \"#utility.yul\":37068:37123   */\n      mstore\n        /* \"#utility.yul\":36951:37130   */\n      pop\n      jump\t// out\n        /* \"#utility.yul\":37136:37502   */\n    tag_590:\n        /* \"#utility.yul\":37278:37281   */\n      0x00\n        /* \"#utility.yul\":37299:37366   */\n      tag_953\n        /* \"#utility.yul\":37363:37365   */\n      0x1d\n        /* \"#utility.yul\":37358:37361   */\n      dup4\n        /* \"#utility.yul\":37299:37366   */\n      tag_524\n      jump\t// in\n    tag_953:\n        /* \"#utility.yul\":37292:37366   */\n      swap2\n      pop\n        /* \"#utility.yul\":37375:37468   */\n      tag_954\n        /* \"#utility.yul\":37464:37467   */\n      dup3\n        /* \"#utility.yul\":37375:37468   */\n      tag_589\n      jump\t// in\n    tag_954:\n        /* \"#utility.yul\":37493:37495   */\n      0x20\n        /* \"#utility.yul\":37488:37491   */\n      dup3\n        /* \"#utility.yul\":37484:37496   */\n      add\n        /* \"#utility.yul\":37477:37496   */\n      swap1\n      pop\n        /* \"#utility.yul\":37136:37502   */\n      swap2\n      swap1\n      pop\n      jump\t// out\n        /* \"#utility.yul\":37508:37927   */\n    tag_447:\n        /* \"#utility.yul\":37674:37678   */\n      0x00\n        /* \"#utility.yul\":37712:37714   */\n      0x20\n        /* \"#utility.yul\":37701:37710   */\n      dup3\n        /* \"#utility.yul\":37697:37715   */\n      add\n        /* \"#utility.yul\":37689:37715   */\n      swap1\n      pop\n        /* \"#utility.yul\":37761:37770   */\n      dup2\n        /* \"#utility.yul\":37755:37759   */\n      dup2\n        /* \"#utility.yul\":37751:37771   */\n      sub\n        /* \"#utility.yul\":37747:37748   */\n      0x00\n        /* \"#utility.yul\":37736:37745   */\n      dup4\n        /* \"#utility.yul\":37732:37749   */\n      add\n        /* \"#utility.yul\":37725:37772   */\n      mstore\n        /* \"#utility.yul\":37789:37920   */\n      tag_956\n        /* \"#utility.yul\":37915:37919   */\n      dup2\n        /* \"#utility.yul\":37789:37920   */\n      tag_590\n      jump\t// in\n    tag_956:\n        /* \"#utility.yul\":37781:37920   */\n      swap1\n      pop\n        /* \"#utility.yul\":37508:37927   */\n      swap2\n      swap1\n      pop\n      jump\t// out\n        /* \"#utility.yul\":37933:38080   */\n    tag_591:\n        /* \"#utility.yul\":38034:38045   */\n      0x00\n        /* \"#utility.yul\":38071:38074   */\n      dup2\n        /* \"#utility.yul\":38056:38074   */\n      swap1\n      pop\n        /* \"#utility.yul\":37933:38080   */\n      swap3\n      swap2\n      pop\n      pop\n      jump\t// out\n        /* \"#utility.yul\":38086:38200   */\n    tag_592:\n      pop\n      jump\t// out\n        /* \"#utility.yul\":38206:38604   */\n    tag_593:\n        /* \"#utility.yul\":38365:38368   */\n      0x00\n        /* \"#utility.yul\":38386:38469   */\n      tag_960\n        /* \"#utility.yul\":38467:38468   */\n      0x00\n        /* \"#utility.yul\":38462:38465   */\n      dup4\n        /* \"#utility.yul\":38386:38469   */\n      tag_591\n      jump\t// in\n    tag_960:\n        /* \"#utility.yul\":38379:38469   */\n      swap2\n      pop\n        /* \"#utility.yul\":38478:38571   */\n      tag_961\n        /* \"#utility.yul\":38567:38570   */\n      dup3\n        /* \"#utility.yul\":38478:38571   */\n      tag_592\n      jump\t// in\n    tag_961:\n        /* \"#utility.yul\":38596:38597   */\n      0x00\n        /* \"#utility.yul\":38591:38594   */\n      dup3\n        /* \"#utility.yul\":38587:38598   */\n      add\n        /* \"#utility.yul\":38580:38598   */\n      swap1\n      pop\n        /* \"#utility.yul\":38206:38604   */\n      swap2\n      swap1\n      pop\n      jump\t// out\n        /* \"#utility.yul\":38610:38989   */\n    tag_449:\n        /* \"#utility.yul\":38794:38797   */\n      0x00\n        /* \"#utility.yul\":38816:38963   */\n      tag_963\n        /* \"#utility.yul\":38959:38962   */\n      dup3\n        /* \"#utility.yul\":38816:38963   */\n      tag_593\n      jump\t// in\n    tag_963:\n        /* \"#utility.yul\":38809:38963   */\n      swap2\n      pop\n        /* \"#utility.yul\":38980:38983   */\n      dup2\n        /* \"#utility.yul\":38973:38983   */\n      swap1\n      pop\n        /* \"#utility.yul\":38610:38989   */\n      swap2\n      swap1\n      pop\n      jump\t// out\n        /* \"#utility.yul\":38995:39166   */\n    tag_594:\n        /* \"#utility.yul\":39135:39158   */\n      0x526577617264207061796d656e74206661696c65640000000000000000000000\n        /* \"#utility.yul\":39131:39132   */\n      0x00\n        /* \"#utility.yul\":39123:39129   */\n      dup3\n        /* \"#utility.yul\":39119:39133   */\n      add\n        /* \"#utility.yul\":39112:39159   */\n      mstore\n        /* \"#utility.yul\":38995:39166   */\n      pop\n      jump\t// out\n        /* \"#utility.yul\":39172:39538   */\n    tag_595:\n        /* \"#utility.yul\":39314:39317   */\n      0x00\n        /* \"#utility.yul\":39335:39402   */\n      tag_966\n        /* \"#utility.yul\":39399:39401   */\n      0x15\n        /* \"#utility.yul\":39394:39397   */\n      dup4\n        /* \"#utility.yul\":39335:39402   */\n      tag_524\n      jump\t// in\n    tag_966:\n        /* \"#utility.yul\":39328:39402   */\n      swap2\n      pop\n        /* \"#utility.yul\":39411:39504   */\n      tag_967\n        /* \"#utility.yul\":39500:39503   */\n      dup3\n        /* \"#utility.yul\":39411:39504   */\n      tag_594\n      jump\t// in\n    tag_967:\n        /* \"#utility.yul\":39529:39531   */\n      0x20\n        /* \"#utility.yul\":39524:39527   */\n      dup3\n        /* \"#utility.yul\":39520:39532   */\n      add\n        /* \"#utility.yul\":39513:39532   */\n      swap1\n      pop\n        /* \"#utility.yul\":39172:39538   */\n      swap2\n      swap1\n      pop\n      jump\t// out\n        /* \"#utility.yul\":39544:39963   */\n    tag_455:\n        /* \"#utility.yul\":39710:39714   */\n      0x00\n        /* \"#utility.yul\":39748:39750   */\n      0x20\n        /* \"#utility.yul\":39737:39746   */\n      dup3\n        /* \"#utility.yul\":39733:39751   */\n      add\n        /* \"#utility.yul\":39725:39751   */\n      swap1\n      pop\n        /* \"#utility.yul\":39797:39806   */\n      dup2\n        /* \"#utility.yul\":39791:39795   */\n      dup2\n        /* \"#utility.yul\":39787:39807   */\n      sub\n        /* \"#utility.yul\":39783:39784   */\n      0x00\n        /* \"#utility.yul\":39772:39781   */\n      dup4\n        /* \"#utility.yul\":39768:39785   */\n      add\n        /* \"#utility.yul\":39761:39808   */\n      mstore\n        /* \"#utility.yul\":39825:39956   */\n      tag_969\n        /* \"#utility.yul\":39951:39955   */\n      dup2\n        /* \"#utility.yul\":39825:39956   */\n      tag_595\n      jump\t// in\n    tag_969:\n        /* \"#utility.yul\":39817:39956   */\n      swap1\n      pop\n        /* \"#utility.yul\":39544:39963   */\n      swap2\n      swap1\n      pop\n      jump\t// out\n        /* \"#utility.yul\":39969:40301   */\n    tag_457:\n        /* \"#utility.yul\":40090:40094   */\n      0x00\n        /* \"#utility.yul\":40128:40130   */\n      0x40\n        /* \"#utility.yul\":40117:40126   */\n      dup3\n        /* \"#utility.yul\":40113:40131   */\n      add\n        /* \"#utility.yul\":40105:40131   */\n      swap1\n      pop\n        /* \"#utility.yul\":40141:40212   */\n      tag_971\n        /* \"#utility.yul\":40209:40210   */\n      0x00\n        /* \"#utility.yul\":40198:40207   */\n      dup4\n        /* \"#utility.yul\":40194:40211   */\n      add\n        /* \"#utility.yul\":40185:40191   */\n      dup6\n        /* \"#utility.yul\":40141:40212   */\n      tag_508\n      jump\t// in\n    tag_971:\n        /* \"#utility.yul\":40222:40294   */\n      tag_972\n        /* \"#utility.yul\":40290:40292   */\n      0x20\n        /* \"#utility.yul\":40279:40288   */\n      dup4\n        /* \"#utility.yul\":40275:40293   */\n      add\n        /* \"#utility.yul\":40266:40272   */\n      dup5\n        /* \"#utility.yul\":40222:40294   */\n      tag_505\n      jump\t// in\n    tag_972:\n        /* \"#utility.yul\":39969:40301   */\n      swap4\n      swap3\n      pop\n      pop\n      pop\n      jump\t// out\n\n    auxdata: 0xa2646970667358221220c70697631dec6ac615a51a81665f9b3404fc82841aa2af8b12aeb7c0f8f0c96b64736f6c63430008120033\n}\n",
				"bytecode": {
					"linkReferences": {},
					"object": "608060405234801561001057600080fd5b506001600981905550670de0b6b3a7640000600a819055506140ee806100376000396000f3fe608060405234801561001057600080fd5b50600436106101c45760003560e01c8063a4a91eef116100f9578063b252417511610097578063e55f796411610071578063e55f796414610573578063f5a3abb3146105a3578063f7b2a7be146105d3578063f9a5757e146105f1576101c4565b8063b2524175146104f5578063b52d662414610513578063d9c759a714610543576101c4565b8063aa9a23c7116100d3578063aa9a23c714610445578063adddf23314610461578063b0e73d7e14610491578063b2474059146104c5576101c4565b8063a4a91eef146103d7578063a7d2e9a3146103f3578063aa2b701014610411576101c4565b80633c097111116101665780636ab799f1116101405780636ab799f11461034f578063754ccd331461036b5780637fe92d2a1461038757806399272ae5146103bb576101c4565b80633c097111146102ce5780633e689f9c146102fe5780635b3951591461031c576101c4565b806318d340e7116101a257806318d340e71461024a578063192bf875146102665780632437c149146102825780632a3427f01461029e576101c4565b8063110cd668146101c957806315c2ba14146101f957806316faae9014610215575b600080fd5b6101e360048036038101906101de9190612d05565b61060d565b6040516101f09190612d54565b60405180910390f35b610213600480360381019061020e9190612d6f565b61063e565b005b61022f600480360381019061022a9190612d6f565b610648565b60405161024196959493929190612e97565b60405180910390f35b610264600480360381019061025f9190612f2b565b610739565b005b610280600480360381019061027b9190612fd0565b610833565b005b61029c6004803603810190610297919061301d565b610934565b005b6102b860048036038101906102b39190612d6f565b610cd3565b6040516102c5919061305d565b60405180910390f35b6102e860048036038101906102e39190612d6f565b610d12565b6040516102f5919061305d565b60405180910390f35b610306610d51565b6040516103139190612d54565b60405180910390f35b61033660048036038101906103319190613078565b610d57565b60405161034694939291906130fa565b60405180910390f35b61036960048036038101906103649190613078565b610ece565b005b61038560048036038101906103809190612d6f565b611245565b005b6103a1600480360381019061039c919061314d565b61135f565b6040516103b295949392919061317a565b60405180910390f35b6103d560048036038101906103d091906131cd565b6113c2565b005b6103f160048036038101906103ec919061314d565b611670565b005b6103fb611b4f565b60405161040891906132de565b60405180910390f35b61042b60048036038101906104269190613078565b611bdd565b60405161043c959493929190613300565b60405180910390f35b61045f600480360381019061045a9190612d6f565b611d50565b005b61047b60048036038101906104769190613078565b6120f7565b6040516104889190613361565b60405180910390f35b6104ab60048036038101906104a6919061314d565b612117565b6040516104bc95949392919061317a565b60405180910390f35b6104df60048036038101906104da9190612f2b565b6121bb565b6040516104ec9190612d54565b60405180910390f35b6104fd6121ec565b60405161050a91906132de565b60405180910390f35b61052d6004803603810190610528919061314d565b61227a565b60405161053a919061343a565b60405180910390f35b61055d6004803603810190610558919061314d565b612311565b60405161056a919061351a565b60405180910390f35b61058d60048036038101906105889190612f2b565b6123ab565b60405161059a919061353c565b60405180910390f35b6105bd60048036038101906105b89190613078565b6123dc565b6040516105ca919061351a565b60405180910390f35b6105db612447565b6040516105e89190612d54565b60405180910390f35b61060b60048036038101906106069190613687565b61244d565b005b6005602052816000526040600020818154811061062957600080fd5b90600052602060002001600091509150505481565b80600a8190555050565b60006020528060005260406000206000915090508060000154908060010160009054906101000a900473ffffffffffffffffffffffffffffffffffffffff169080600201549080600301805461069d90613741565b80601f01602080910402602001604051908101604052809291908181526020018280546106c990613741565b80156107165780601f106106eb57610100808354040283529160200191610716565b820191906000526020600020905b8154815290600101906020018083116106f957829003601f168201915b5050505050908060040154908060050160009054906101000a900460ff16905086565b6000600360008473ffffffffffffffffffffffffffffffffffffffff1673ffffffffffffffffffffffffffffffffffffffff168152602001908152602001600020905060008160020154905082826002018190555060008114801561079e5750600083115b1561080b576007849080600181540180825580915050600190039060005260206000200160009091909190916101000a81548173ffffffffffffffffffffffffffffffffffffffff021916908373ffffffffffffffffffffffffffffffffffffffff16021790555061082d565b60008111801561081b5750600083145b1561082c5761082b6007856126ca565b5b5b50505050565b60005b8282905081101561092f57600083838381811061085657610855613772565b5b905060200201359050600080600083815260200190815260200160002090506000610884826000015461286c565b90507fe2287538273600866181d00327199ba2737bdd326a6f08436f117f6a6c0e87a0838360010160009054906101000a900473ffffffffffffffffffffffffffffffffffffffff16836040516108dd939291906137a1565b60405180910390a18015610919576109188260010160009054906101000a900473ffffffffffffffffffffffffffffffffffffffff1661289d565b5b505050808061092790613807565b915050610836565b505050565b60008083815260200190815260200160002060050160009054906101000a900460ff16610996576040517f08c379a000000000000000000000000000000000000000000000000000000000815260040161098d9061389b565b60405180910390fd5b600073ffffffffffffffffffffffffffffffffffffffff16600360008373ffffffffffffffffffffffffffffffffffffffff1673ffffffffffffffffffffffffffffffffffffffff16815260200190815260200160002060010160009054906101000a900473ffffffffffffffffffffffffffffffffffffffff1673ffffffffffffffffffffffffffffffffffffffff1603610a67576040517f08c379a0000000000000000000000000000000000000000000000000000000008152600401610a5e90613907565b60405180910390fd5b600080600084815260200190815260200160002060010160009054906101000a900473ffffffffffffffffffffffffffffffffffffffff1690508173ffffffffffffffffffffffffffffffffffffffff168173ffffffffffffffffffffffffffffffffffffffff1614610cce576000600260008373ffffffffffffffffffffffffffffffffffffffff1673ffffffffffffffffffffffffffffffffffffffff168152602001908152602001600020905060005b8180549050811015610bd85784828281548110610b3a57610b39613772565b5b906000526020600020015403610bc5578160018380549050610b5c9190613927565b81548110610b6d57610b6c613772565b5b9060005260206000200154828281548110610b8b57610b8a613772565b5b906000526020600020018190555081805480610baa57610ba961395b565b5b60019003818190600052602060002001600090559055610bd8565b8080610bd090613807565b915050610b1a565b508260008086815260200190815260200160002060010160006101000a81548173ffffffffffffffffffffffffffffffffffffffff021916908373ffffffffffffffffffffffffffffffffffffffff160217905550600260008473ffffffffffffffffffffffffffffffffffffffff1673ffffffffffffffffffffffffffffffffffffffff1681526020019081526020016000208490806001815401808255809150506001900390600052602060002001600090919091909150557f9126cbe7384024542fde94f05011d7713670628720b50555593f77cc21d1dc8c8484604051610cc492919061398a565b60405180910390a1505b505050565b60088181548110610ce357600080fd5b906000526020600020016000915054906101000a900473ffffffffffffffffffffffffffffffffffffffff1681565b60078181548110610d2257600080fd5b906000526020600020016000915054906101000a900473ffffffffffffffffffffffffffffffffffffffff1681565b60095481565b60006060806000806001600087815260200190815260200160002090508060000160009054906101000a900473ffffffffffffffffffffffffffffffffffffffff1681600101826002018360030154828054610db290613741565b80601f0160208091040260200160405190810160405280929190818152602001828054610dde90613741565b8015610e2b5780601f10610e0057610100808354040283529160200191610e2b565b820191906000526020600020905b815481529060010190602001808311610e0e57829003601f168201915b50505050509250818054610e3e90613741565b80601f0160208091040260200160405190810160405280929190818152602001828054610e6a90613741565b8015610eb75780601f10610e8c57610100808354040283529160200191610eb7565b820191906000526020600020905b815481529060010190602001808311610e9a57829003601f168201915b505050505091509450945094509450509193509193565b6001600082815260200190815260200160002060040160009054906101000a900460ff16610f31576040517f08c379a0000000000000000000000000000000000000000000000000000000008152600401610f28906139ff565b60405180910390fd5b60006001600083815260200190815260200160002090508060000160009054906101000a900473ffffffffffffffffffffffffffffffffffffffff1673ffffffffffffffffffffffffffffffffffffffff163373ffffffffffffffffffffffffffffffffffffffff1614610fda576040517f08c379a0000000000000000000000000000000000000000000000000000000008152600401610fd190613a91565b60405180910390fd5b600060056000848152602001908152602001600020905060005b81805490508110156110a85760008083838154811061101657611015613772565b5b906000526020600020015481526020019081526020016000206000808201600090556001820160006101000a81549073ffffffffffffffffffffffffffffffffffffffff021916905560028201600090556003820160006110779190612b7a565b60048201600090556005820160006101000a81549060ff0219169055505080806110a090613807565b915050610ff4565b506005600084815260200190815260200160002060006110c89190612bba565b6000600460003373ffffffffffffffffffffffffffffffffffffffff1673ffffffffffffffffffffffffffffffffffffffff168152602001908152602001600020905060005b8180549050811015611177578482828154811061112e5761112d613772565b5b9060005260206000200154036111645781818154811061115157611150613772565b5b9060005260206000200160009055611177565b808061116f90613807565b91505061110e565b5060016000858152602001908152602001600020600080820160006101000a81549073ffffffffffffffffffffffffffffffffffffffff02191690556001820160006111c39190612bdb565b6002820160006111d39190612bdb565b60038201600090556004820160006101000a81549060ff021916905550503373ffffffffffffffffffffffffffffffffffffffff167f0b61407fda4ea870fbaa77e68ef9d3f6e3e78eaa5c4fa4674d5ac417f56055f985604051611237919061353c565b60405180910390a250505050565b600080600083815260200190815260200160002090508060050160009054906101000a900460ff166112ac576040517f08c379a00000000000000000000000000000000000000000000000000000000081526004016112a39061389b565b60405180910390fd5b60006112b78361286c565b90507fe2287538273600866181d00327199ba2737bdd326a6f08436f117f6a6c0e87a0838360010160009054906101000a900473ffffffffffffffffffffffffffffffffffffffff1683604051611310939291906137a1565b60405180910390a180156113505761134b8260010160009054906101000a900473ffffffffffffffffffffffffffffffffffffffff1661289d565b61135a565b611359836129cf565b5b505050565b60036020528060005260406000206000915090508060000154908060010160009054906101000a900473ffffffffffffffffffffffffffffffffffffffff16908060020154908060030154908060040160009054906101000a900460ff16905085565b600360003373ffffffffffffffffffffffffffffffffffffffff1673ffffffffffffffffffffffffffffffffffffffff16815260200190815260200160002060040160009054906101000a900460ff1615611452576040517f08c379a000000000000000000000000000000000000000000000000000000000815260040161144990613afd565b60405180910390fd5b6040518060c001604052808481526020018373ffffffffffffffffffffffffffffffffffffffff168152602001828152602001828152602001600115158152602001600067ffffffffffffffff8111156114af576114ae61355c565b5b6040519080825280602002602001820160405280156114dd5781602001602082028036833780820191505090505b50815250600360003373ffffffffffffffffffffffffffffffffffffffff1673ffffffffffffffffffffffffffffffffffffffff1681526020019081526020016000206000820151816000015560208201518160010160006101000a81548173ffffffffffffffffffffffffffffffffffffffff021916908373ffffffffffffffffffffffffffffffffffffffff160217905550604082015181600201556060820151816003015560808201518160040160006101000a81548160ff02191690831515021790555060a08201518160050190805190602001906115c1929190612c1b565b509050506007339080600181540180825580915050600190039060005260206000200160009091909190916101000a81548173ffffffffffffffffffffffffffffffffffffffff021916908373ffffffffffffffffffffffffffffffffffffffff1602179055503373ffffffffffffffffffffffffffffffffffffffff167f2a9cd1cd0e4622d13305bf749ce27b6a68630e814956fe6cf8a28b9bf9b010f460405160405180910390a2505050565b600360008273ffffffffffffffffffffffffffffffffffffffff1673ffffffffffffffffffffffffffffffffffffffff16815260200190815260200160002060040160009054906101000a900460ff166116ff576040517f08c379a00000000000000000000000000000000000000000000000000000000081526004016116f690613907565b60405180910390fd5b600360008273ffffffffffffffffffffffffffffffffffffffff1673ffffffffffffffffffffffffffffffffffffffff1681526020019081526020016000206000808201600090556001820160006101000a81549073ffffffffffffffffffffffffffffffffffffffff0219169055600282016000905560038201600090556004820160006101000a81549060ff02191690556005820160006117a29190612bba565b5050600260008273ffffffffffffffffffffffffffffffffffffffff1673ffffffffffffffffffffffffffffffffffffffff16815260200190815260200160002060006117ef9190612bba565b60005b60078054905081101561197b578173ffffffffffffffffffffffffffffffffffffffff166007828154811061182a57611829613772565b5b9060005260206000200160009054906101000a900473ffffffffffffffffffffffffffffffffffffffff1673ffffffffffffffffffffffffffffffffffffffff160361196857600760016007805490506118849190613927565b8154811061189557611894613772565b5b9060005260206000200160009054906101000a900473ffffffffffffffffffffffffffffffffffffffff16600782815481106118d4576118d3613772565b5b9060005260206000200160006101000a81548173ffffffffffffffffffffffffffffffffffffffff021916908373ffffffffffffffffffffffffffffffffffffffff160217905550600780548061192e5761192d61395b565b5b6001900381819060005260206000200160006101000a81549073ffffffffffffffffffffffffffffffffffffffff0219169055905561197b565b808061197390613807565b9150506117f2565b5060005b600880549050811015611b08578173ffffffffffffffffffffffffffffffffffffffff16600882815481106119b7576119b6613772565b5b9060005260206000200160009054906101000a900473ffffffffffffffffffffffffffffffffffffffff1673ffffffffffffffffffffffffffffffffffffffff1603611af55760086001600880549050611a119190613927565b81548110611a2257611a21613772565b5b9060005260206000200160009054906101000a900473ffffffffffffffffffffffffffffffffffffffff1660088281548110611a6157611a60613772565b5b9060005260206000200160006101000a81548173ffffffffffffffffffffffffffffffffffffffff021916908373ffffffffffffffffffffffffffffffffffffffff1602179055506008805480611abb57611aba61395b565b5b6001900381819060005260206000200160006101000a81549073ffffffffffffffffffffffffffffffffffffffff02191690559055611b08565b8080611b0090613807565b91505061197f565b508073ffffffffffffffffffffffffffffffffffffffff167f4ec08ac56c966a2996e49a49ef82b618954fb71b28a651fbc8ed9ebc0dfecbd360405160405180910390a250565b60606008805480602002602001604051908101604052809291908181526020018280548015611bd357602002820191906000526020600020905b8160009054906101000a900473ffffffffffffffffffffffffffffffffffffffff1673ffffffffffffffffffffffffffffffffffffffff1681526020019060010190808311611b89575b5050505050905090565b60016020528060005260406000206000915090508060000160009054906101000a900473ffffffffffffffffffffffffffffffffffffffff1690806001018054611c2690613741565b80601f0160208091040260200160405190810160405280929190818152602001828054611c5290613741565b8015611c9f5780601f10611c7457610100808354040283529160200191611c9f565b820191906000526020600020905b815481529060010190602001808311611c8257829003601f168201915b505050505090806002018054611cb490613741565b80601f0160208091040260200160405190810160405280929190818152602001828054611ce090613741565b8015611d2d5780601f10611d0257610100808354040283529160200191611d2d565b820191906000526020600020905b815481529060010190602001808311611d1057829003601f168201915b5050505050908060030154908060040160009054906101000a900460ff16905085565b60008082815260200190815260200160002060050160009054906101000a900460ff16611db2576040517f08c379a0000000000000000000000000000000000000000000000000000000008152600401611da99061389b565b60405180910390fd5b6000806000838152602001908152602001600020905060008160010160009054906101000a900473ffffffffffffffffffffffffffffffffffffffff1690508073ffffffffffffffffffffffffffffffffffffffff163373ffffffffffffffffffffffffffffffffffffffff1614611e5f576040517f08c379a0000000000000000000000000000000000000000000000000000000008152600401611e5690613b8f565b60405180910390fd5b6000600260008373ffffffffffffffffffffffffffffffffffffffff1673ffffffffffffffffffffffffffffffffffffffff168152602001908152602001600020905060005b8180549050811015611f635784828281548110611ec557611ec4613772565b5b906000526020600020015403611f50578160018380549050611ee79190613927565b81548110611ef857611ef7613772565b5b9060005260206000200154828281548110611f1657611f15613772565b5b906000526020600020018190555081805480611f3557611f3461395b565b5b60019003818190600052602060002001600090559055611f63565b8080611f5b90613807565b915050611ea5565b5060006005600085600401548152602001908152602001600020905060005b81805490508110156120405785828281548110611fa257611fa1613772565b5b90600052602060002001540361202d578160018380549050611fc49190613927565b81548110611fd557611fd4613772565b5b9060005260206000200154828281548110611ff357611ff2613772565b5b9060005260206000200181905550818054806120125761201161395b565b5b60019003818190600052602060002001600090559055612040565b808061203890613807565b915050611f82565b506000808681526020019081526020016000206000808201600090556001820160006101000a81549073ffffffffffffffffffffffffffffffffffffffff0219169055600282016000905560038201600061209b9190612b7a565b60048201600090556005820160006101000a81549060ff021916905550507ff6a2d10319800c3ecf3244c17904ea5f3026e430b4417ee5ec5baa464e8f9b0c856040516120e89190612d54565b60405180910390a15050505050565b60066020528060005260406000206000915054906101000a900460ff1681565b600080600080600080600360008873ffffffffffffffffffffffffffffffffffffffff1673ffffffffffffffffffffffffffffffffffffffff168152602001908152602001600020905080600001548160010160009054906101000a900473ffffffffffffffffffffffffffffffffffffffff16826002015483600301548460040160009054906101000a900460ff16955095509550955095505091939590929450565b600260205281600052604060002081815481106121d757600080fd5b90600052602060002001600091509150505481565b6060600780548060200260200160405190810160405280929190818152602001828054801561227057602002820191906000526020600020905b8160009054906101000a900473ffffffffffffffffffffffffffffffffffffffff1673ffffffffffffffffffffffffffffffffffffffff1681526020019060010190808311612226575b5050505050905090565b6060600460008373ffffffffffffffffffffffffffffffffffffffff1673ffffffffffffffffffffffffffffffffffffffff16815260200190815260200160002080548060200260200160405190810160405280929190818152602001828054801561230557602002820191906000526020600020905b8154815260200190600101908083116122f1575b50505050509050919050565b6060600360008373ffffffffffffffffffffffffffffffffffffffff1673ffffffffffffffffffffffffffffffffffffffff16815260200190815260200160002060050180548060200260200160405190810160405280929190818152602001828054801561239f57602002820191906000526020600020905b81548152602001906001019080831161238b575b50505050509050919050565b600460205281600052604060002081815481106123c757600080fd5b90600052602060002001600091509150505481565b60606005600083815260200190815260200160002080548060200260200160405190810160405280929190818152602001828054801561243b57602002820191906000526020600020905b815481526020019060010190808311612427575b50505050509050919050565b600a5481565b61245681612b50565b15612496576040517f08c379a000000000000000000000000000000000000000000000000000000000815260040161248d90613bfb565b60405180910390fd5b60008351116124da576040517f08c379a00000000000000000000000000000000000000000000000000000000081526004016124d190613c67565b60405180910390fd5b600082511161251e576040517f08c379a000000000000000000000000000000000000000000000000000000000815260040161251590613cd3565b60405180910390fd5b6040518060a001604052803373ffffffffffffffffffffffffffffffffffffffff168152602001848152602001838152602001828152602001600115158152506001600083815260200190815260200160002060008201518160000160006101000a81548173ffffffffffffffffffffffffffffffffffffffff021916908373ffffffffffffffffffffffffffffffffffffffff16021790555060208201518160010190816125cd9190613e9f565b5060408201518160020190816125e39190613e9f565b506060820151816003015560808201518160040160006101000a81548160ff021916908315150217905550905050600460003373ffffffffffffffffffffffffffffffffffffffff1673ffffffffffffffffffffffffffffffffffffffff1681526020019081526020016000208190806001815401808255809150506001900390600052602060002001600090919091909150553373ffffffffffffffffffffffffffffffffffffffff167f9d48acd588e12327eb550aa18487e52b21718db603d19f02370a818e4bb7863c826040516126bd919061353c565b60405180910390a2505050565b60008280549050905060005b81811015612866578273ffffffffffffffffffffffffffffffffffffffff1684828154811061270857612707613772565b5b9060005260206000200160009054906101000a900473ffffffffffffffffffffffffffffffffffffffff1673ffffffffffffffffffffffffffffffffffffffff16036128535760018261275b9190613927565b81101561280857836001836127709190613927565b8154811061278157612780613772565b5b9060005260206000200160009054906101000a900473ffffffffffffffffffffffffffffffffffffffff168482815481106127bf576127be613772565b5b9060005260206000200160006101000a81548173ffffffffffffffffffffffffffffffffffffffff021916908373ffffffffffffffffffffffffffffffffffffffff1602179055505b838054806128195761281861395b565b5b6001900381819060005260206000200160006101000a81549073ffffffffffffffffffffffffffffffffffffffff02191690559055612866565b808061285e90613807565b9150506126d6565b50505050565b60008060008084815260200190815260200160002090508060050160009054906101000a900460ff16915050919050565b600a544710156128e2576040517f08c379a00000000000000000000000000000000000000000000000000000000081526004016128d990613fbd565b60405180910390fd5b60008173ffffffffffffffffffffffffffffffffffffffff16600a5460405161290a9061400e565b60006040518083038185875af1925050503d8060008114612947576040519150601f19603f3d011682016040523d82523d6000602084013e61294c565b606091505b5050905080612990576040517f08c379a00000000000000000000000000000000000000000000000000000000081526004016129879061406f565b60405180910390fd5b7fe2403640ba68fed3a2f88b7557551d1993f84b99bb10ff833f0cf8db0c5e048682600a546040516129c392919061408f565b60405180910390a15050565b6000806000838152602001908152602001600020905060008160010160009054906101000a900473ffffffffffffffffffffffffffffffffffffffff1690506000600260008373ffffffffffffffffffffffffffffffffffffffff1673ffffffffffffffffffffffffffffffffffffffff168152602001908152602001600020905060005b8180549050811015612b125784828281548110612a7457612a73613772565b5b906000526020600020015403612aff578160018380549050612a969190613927565b81548110612aa757612aa6613772565b5b9060005260206000200154828281548110612ac557612ac4613772565b5b906000526020600020018190555081805480612ae457612ae361395b565b5b60019003818190600052602060002001600090559055612b12565b8080612b0a90613807565b915050612a54565b507ff6a2d10319800c3ecf3244c17904ea5f3026e430b4417ee5ec5baa464e8f9b0c84604051612b429190612d54565b60405180910390a150505050565b60006006600083815260200190815260200160002060009054906101000a900460ff169050919050565b508054612b8690613741565b6000825580601f10612b985750612bb7565b601f016020900490600052602060002090810190612bb69190612c68565b5b50565b5080546000825590600052602060002090810190612bd89190612c68565b50565b508054612be790613741565b6000825580601f10612bf95750612c18565b601f016020900490600052602060002090810190612c179190612c68565b5b50565b828054828255906000526020600020908101928215612c57579160200282015b82811115612c56578251825591602001919060010190612c3b565b5b509050612c649190612c68565b5090565b5b80821115612c81576000816000905550600101612c69565b5090565b6000604051905090565b600080fd5b600080fd5b6000819050919050565b612cac81612c99565b8114612cb757600080fd5b50565b600081359050612cc981612ca3565b92915050565b6000819050919050565b612ce281612ccf565b8114612ced57600080fd5b50565b600081359050612cff81612cd9565b92915050565b60008060408385031215612d1c57612d1b612c8f565b5b6000612d2a85828601612cba565b9250506020612d3b85828601612cf0565b9150509250929050565b612d4e81612ccf565b82525050565b6000602082019050612d696000830184612d45565b92915050565b600060208284031215612d8557612d84612c8f565b5b6000612d9384828501612cf0565b91505092915050565b600073ffffffffffffffffffffffffffffffffffffffff82169050919050565b6000612dc782612d9c565b9050919050565b612dd781612dbc565b82525050565b600081519050919050565b600082825260208201905092915050565b60005b83811015612e17578082015181840152602081019050612dfc565b60008484015250505050565b6000601f19601f8301169050919050565b6000612e3f82612ddd565b612e498185612de8565b9350612e59818560208601612df9565b612e6281612e23565b840191505092915050565b612e7681612c99565b82525050565b60008115159050919050565b612e9181612e7c565b82525050565b600060c082019050612eac6000830189612d45565b612eb96020830188612dce565b612ec66040830187612d45565b8181036060830152612ed88186612e34565b9050612ee76080830185612e6d565b612ef460a0830184612e88565b979650505050505050565b612f0881612dbc565b8114612f1357600080fd5b50565b600081359050612f2581612eff565b92915050565b60008060408385031215612f4257612f41612c8f565b5b6000612f5085828601612f16565b9250506020612f6185828601612cf0565b9150509250929050565b600080fd5b600080fd5b600080fd5b60008083601f840112612f9057612f8f612f6b565b5b8235905067ffffffffffffffff811115612fad57612fac612f70565b5b602083019150836020820283011115612fc957612fc8612f75565b5b9250929050565b60008060208385031215612fe757612fe6612c8f565b5b600083013567ffffffffffffffff81111561300557613004612c94565b5b61301185828601612f7a565b92509250509250929050565b6000806040838503121561303457613033612c8f565b5b600061304285828601612cf0565b925050602061305385828601612f16565b9150509250929050565b60006020820190506130726000830184612dce565b92915050565b60006020828403121561308e5761308d612c8f565b5b600061309c84828501612cba565b91505092915050565b600081519050919050565b600082825260208201905092915050565b60006130cc826130a5565b6130d681856130b0565b93506130e6818560208601612df9565b6130ef81612e23565b840191505092915050565b600060808201905061310f6000830187612dce565b818103602083015261312181866130c1565b9050818103604083015261313581856130c1565b90506131446060830184612e6d565b95945050505050565b60006020828403121561316357613162612c8f565b5b600061317184828501612f16565b91505092915050565b600060a08201905061318f6000830188612e6d565b61319c6020830187612dce565b6131a96040830186612d45565b6131b66060830185612d45565b6131c36080830184612e88565b9695505050505050565b6000806000606084860312156131e6576131e5612c8f565b5b60006131f486828701612cba565b935050602061320586828701612f16565b925050604061321686828701612cf0565b9150509250925092565b600081519050919050565b600082825260208201905092915050565b6000819050602082019050919050565b61325581612dbc565b82525050565b6000613267838361324c565b60208301905092915050565b6000602082019050919050565b600061328b82613220565b613295818561322b565b93506132a08361323c565b8060005b838110156132d15781516132b8888261325b565b97506132c383613273565b9250506001810190506132a4565b5085935050505092915050565b600060208201905081810360008301526132f88184613280565b905092915050565b600060a0820190506133156000830188612dce565b818103602083015261332781876130c1565b9050818103604083015261333b81866130c1565b905061334a6060830185612e6d565b6133576080830184612e88565b9695505050505050565b60006020820190506133766000830184612e88565b92915050565b600081519050919050565b600082825260208201905092915050565b6000819050602082019050919050565b6133b181612c99565b82525050565b60006133c383836133a8565b60208301905092915050565b6000602082019050919050565b60006133e78261337c565b6133f18185613387565b93506133fc83613398565b8060005b8381101561342d57815161341488826133b7565b975061341f836133cf565b925050600181019050613400565b5085935050505092915050565b6000602082019050818103600083015261345481846133dc565b905092915050565b600081519050919050565b600082825260208201905092915050565b6000819050602082019050919050565b61349181612ccf565b82525050565b60006134a38383613488565b60208301905092915050565b6000602082019050919050565b60006134c78261345c565b6134d18185613467565b93506134dc83613478565b8060005b8381101561350d5781516134f48882613497565b97506134ff836134af565b9250506001810190506134e0565b5085935050505092915050565b6000602082019050818103600083015261353481846134bc565b905092915050565b60006020820190506135516000830184612e6d565b92915050565b600080fd5b7f4e487b7100000000000000000000000000000000000000000000000000000000600052604160045260246000fd5b61359482612e23565b810181811067ffffffffffffffff821117156135b3576135b261355c565b5b80604052505050565b60006135c6612c85565b90506135d2828261358b565b919050565b600067ffffffffffffffff8211156135f2576135f161355c565b5b6135fb82612e23565b9050602081019050919050565b82818337600083830152505050565b600061362a613625846135d7565b6135bc565b90508281526020810184848401111561364657613645613557565b5b613651848285613608565b509392505050565b600082601f83011261366e5761366d612f6b565b5b813561367e848260208601613617565b91505092915050565b6000806000606084860312156136a05761369f612c8f565b5b600084013567ffffffffffffffff8111156136be576136bd612c94565b5b6136ca86828701613659565b935050602084013567ffffffffffffffff8111156136eb576136ea612c94565b5b6136f786828701613659565b925050604061370886828701612cba565b9150509250925092565b7f4e487b7100000000000000000000000000000000000000000000000000000000600052602260045260246000fd5b6000600282049050600182168061375957607f821691505b60208210810361376c5761376b613712565b5b50919050565b7f4e487b7100000000000000000000000000000000000000000000000000000000600052603260045260246000fd5b60006060820190506137b66000830186612d45565b6137c36020830185612dce565b6137d06040830184612e88565b949350505050565b7f4e487b7100000000000000000000000000000000000000000000000000000000600052601160045260246000fd5b600061381282612ccf565b91507fffffffffffffffffffffffffffffffffffffffffffffffffffffffffffffffff8203613844576138436137d8565b5b600182019050919050565b7f536861726420646f6573206e6f74206578697374000000000000000000000000600082015250565b60006138856014836130b0565b91506138908261384f565b602082019050919050565b600060208201905081810360008301526138b481613878565b9050919050565b7f53746f726167652070726f766964657220646f6573206e6f7420657869737400600082015250565b60006138f1601f836130b0565b91506138fc826138bb565b602082019050919050565b60006020820190508181036000830152613920816138e4565b9050919050565b600061393282612ccf565b915061393d83612ccf565b9250828203905081811115613955576139546137d8565b5b92915050565b7f4e487b7100000000000000000000000000000000000000000000000000000000600052603160045260246000fd5b600060408201905061399f6000830185612d45565b6139ac6020830184612dce565b9392505050565b7f46696c6520646f6573206e6f7420657869737400000000000000000000000000600082015250565b60006139e96013836130b0565b91506139f4826139b3565b602082019050919050565b60006020820190508181036000830152613a18816139dc565b9050919050565b7f4f6e6c79207468652066696c65206f776e65722063616e2064656c657465207460008201527f68652066696c6500000000000000000000000000000000000000000000000000602082015250565b6000613a7b6027836130b0565b9150613a8682613a1f565b604082019050919050565b60006020820190508181036000830152613aaa81613a6e565b9050919050565b7f53746f726167652070726f766964657220616c72656164792065786973747300600082015250565b6000613ae7601f836130b0565b9150613af282613ab1565b602082019050919050565b60006020820190508181036000830152613b1681613ada565b9050919050565b7f4f6e6c79207468652073746f726167652070726f76696465722063616e20646560008201527f6c65746520746865207368617264000000000000000000000000000000000000602082015250565b6000613b79602e836130b0565b9150613b8482613b1d565b604082019050919050565b60006020820190508181036000830152613ba881613b6c565b9050919050565b7f46696c6520616c72656164792065786973747300000000000000000000000000600082015250565b6000613be56013836130b0565b9150613bf082613baf565b602082019050919050565b60006020820190508181036000830152613c1481613bd8565b9050919050565b7f4f776e6572206e616d65206d7573742062652070726f76696465640000000000600082015250565b6000613c51601b836130b0565b9150613c5c82613c1b565b602082019050919050565b60006020820190508181036000830152613c8081613c44565b9050919050565b7f46696c65206e616d65206d7573742062652070726f7669646564000000000000600082015250565b6000613cbd601a836130b0565b9150613cc882613c87565b602082019050919050565b60006020820190508181036000830152613cec81613cb0565b9050919050565b60008190508160005260206000209050919050565b60006020601f8301049050919050565b600082821b905092915050565b600060088302613d557fffffffffffffffffffffffffffffffffffffffffffffffffffffffffffffffff82613d18565b613d5f8683613d18565b95508019841693508086168417925050509392505050565b6000819050919050565b6000613d9c613d97613d9284612ccf565b613d77565b612ccf565b9050919050565b6000819050919050565b613db683613d81565b613dca613dc282613da3565b848454613d25565b825550505050565b600090565b613ddf613dd2565b613dea818484613dad565b505050565b5b81811015613e0e57613e03600082613dd7565b600181019050613df0565b5050565b601f821115613e5357613e2481613cf3565b613e2d84613d08565b81016020851015613e3c578190505b613e50613e4885613d08565b830182613def565b50505b505050565b600082821c905092915050565b6000613e7660001984600802613e58565b1980831691505092915050565b6000613e8f8383613e65565b9150826002028217905092915050565b613ea8826130a5565b67ffffffffffffffff811115613ec157613ec061355c565b5b613ecb8254613741565b613ed6828285613e12565b600060209050601f831160018114613f095760008415613ef7578287015190505b613f018582613e83565b865550613f69565b601f198416613f1786613cf3565b60005b82811015613f3f57848901518255600182019150602085019450602081019050613f1a565b86831015613f5c5784890151613f58601f891682613e65565b8355505b6001600288020188555050505b505050505050565b7f496e73756666696369656e7420636f6e74726163742062616c616e6365000000600082015250565b6000613fa7601d836130b0565b9150613fb282613f71565b602082019050919050565b60006020820190508181036000830152613fd681613f9a565b9050919050565b600081905092915050565b50565b6000613ff8600083613fdd565b915061400382613fe8565b600082019050919050565b600061401982613feb565b9150819050919050565b7f526577617264207061796d656e74206661696c65640000000000000000000000600082015250565b60006140596015836130b0565b915061406482614023565b602082019050919050565b600060208201905081810360008301526140888161404c565b9050919050565b60006040820190506140a46000830185612dce565b6140b16020830184612d45565b939250505056fea2646970667358221220c70697631dec6ac615a51a81665f9b3404fc82841aa2af8b12aeb7c0f8f0c96b64736f6c63430008120033",
					"opcodes": "PUSH1 0x80 PUSH1 0x40 MSTORE CALLVALUE DUP1 ISZERO PUSH2 0x10 JUMPI PUSH1 0x0 DUP1 REVERT JUMPDEST POP PUSH1 0x1 PUSH1 0x9 DUP2 SWAP1 SSTORE POP PUSH8 0xDE0B6B3A7640000 PUSH1 0xA DUP2 SWAP1 SSTORE POP PUSH2 0x40EE DUP1 PUSH2 0x37 PUSH1 0x0 CODECOPY PUSH1 0x0 RETURN INVALID PUSH1 0x80 PUSH1 0x40 MSTORE CALLVALUE DUP1 ISZERO PUSH2 0x10 JUMPI PUSH1 0x0 DUP1 REVERT JUMPDEST POP PUSH1 0x4 CALLDATASIZE LT PUSH2 0x1C4 JUMPI PUSH1 0x0 CALLDATALOAD PUSH1 0xE0 SHR DUP1 PUSH4 0xA4A91EEF GT PUSH2 0xF9 JUMPI DUP1 PUSH4 0xB2524175 GT PUSH2 0x97 JUMPI DUP1 PUSH4 0xE55F7964 GT PUSH2 0x71 JUMPI DUP1 PUSH4 0xE55F7964 EQ PUSH2 0x573 JUMPI DUP1 PUSH4 0xF5A3ABB3 EQ PUSH2 0x5A3 JUMPI DUP1 PUSH4 0xF7B2A7BE EQ PUSH2 0x5D3 JUMPI DUP1 PUSH4 0xF9A5757E EQ PUSH2 0x5F1 JUMPI PUSH2 0x1C4 JUMP JUMPDEST DUP1 PUSH4 0xB2524175 EQ PUSH2 0x4F5 JUMPI DUP1 PUSH4 0xB52D6624 EQ PUSH2 0x513 JUMPI DUP1 PUSH4 0xD9C759A7 EQ PUSH2 0x543 JUMPI PUSH2 0x1C4 JUMP JUMPDEST DUP1 PUSH4 0xAA9A23C7 GT PUSH2 0xD3 JUMPI DUP1 PUSH4 0xAA9A23C7 EQ PUSH2 0x445 JUMPI DUP1 PUSH4 0xADDDF233 EQ PUSH2 0x461 JUMPI DUP1 PUSH4 0xB0E73D7E EQ PUSH2 0x491 JUMPI DUP1 PUSH4 0xB2474059 EQ PUSH2 0x4C5 JUMPI PUSH2 0x1C4 JUMP JUMPDEST DUP1 PUSH4 0xA4A91EEF EQ PUSH2 0x3D7 JUMPI DUP1 PUSH4 0xA7D2E9A3 EQ PUSH2 0x3F3 JUMPI DUP1 PUSH4 0xAA2B7010 EQ PUSH2 0x411 JUMPI PUSH2 0x1C4 JUMP JUMPDEST DUP1 PUSH4 0x3C097111 GT PUSH2 0x166 JUMPI DUP1 PUSH4 0x6AB799F1 GT PUSH2 0x140 JUMPI DUP1 PUSH4 0x6AB799F1 EQ PUSH2 0x34F JUMPI DUP1 PUSH4 0x754CCD33 EQ PUSH2 0x36B JUMPI DUP1 PUSH4 0x7FE92D2A EQ PUSH2 0x387 JUMPI DUP1 PUSH4 0x99272AE5 EQ PUSH2 0x3BB JUMPI PUSH2 0x1C4 JUMP JUMPDEST DUP1 PUSH4 0x3C097111 EQ PUSH2 0x2CE JUMPI DUP1 PUSH4 0x3E689F9C EQ PUSH2 0x2FE JUMPI DUP1 PUSH4 0x5B395159 EQ PUSH2 0x31C JUMPI PUSH2 0x1C4 JUMP JUMPDEST DUP1 PUSH4 0x18D340E7 GT PUSH2 0x1A2 JUMPI DUP1 PUSH4 0x18D340E7 EQ PUSH2 0x24A JUMPI DUP1 PUSH4 0x192BF875 EQ PUSH2 0x266 JUMPI DUP1 PUSH4 0x2437C149 EQ PUSH2 0x282 JUMPI DUP1 PUSH4 0x2A3427F0 EQ PUSH2 0x29E JUMPI PUSH2 0x1C4 JUMP JUMPDEST DUP1 PUSH4 0x110CD668 EQ PUSH2 0x1C9 JUMPI DUP1 PUSH4 0x15C2BA14 EQ PUSH2 0x1F9 JUMPI DUP1 PUSH4 0x16FAAE90 EQ PUSH2 0x215 JUMPI JUMPDEST PUSH1 0x0 DUP1 REVERT JUMPDEST PUSH2 0x1E3 PUSH1 0x4 DUP1 CALLDATASIZE SUB DUP2 ADD SWAP1 PUSH2 0x1DE SWAP2 SWAP1 PUSH2 0x2D05 JUMP JUMPDEST PUSH2 0x60D JUMP JUMPDEST PUSH1 0x40 MLOAD PUSH2 0x1F0 SWAP2 SWAP1 PUSH2 0x2D54 JUMP JUMPDEST PUSH1 0x40 MLOAD DUP1 SWAP2 SUB SWAP1 RETURN JUMPDEST PUSH2 0x213 PUSH1 0x4 DUP1 CALLDATASIZE SUB DUP2 ADD SWAP1 PUSH2 0x20E SWAP2 SWAP1 PUSH2 0x2D6F JUMP JUMPDEST PUSH2 0x63E JUMP JUMPDEST STOP JUMPDEST PUSH2 0x22F PUSH1 0x4 DUP1 CALLDATASIZE SUB DUP2 ADD SWAP1 PUSH2 0x22A SWAP2 SWAP1 PUSH2 0x2D6F JUMP JUMPDEST PUSH2 0x648 JUMP JUMPDEST PUSH1 0x40 MLOAD PUSH2 0x241 SWAP7 SWAP6 SWAP5 SWAP4 SWAP3 SWAP2 SWAP1 PUSH2 0x2E97 JUMP JUMPDEST PUSH1 0x40 MLOAD DUP1 SWAP2 SUB SWAP1 RETURN JUMPDEST PUSH2 0x264 PUSH1 0x4 DUP1 CALLDATASIZE SUB DUP2 ADD SWAP1 PUSH2 0x25F SWAP2 SWAP1 PUSH2 0x2F2B JUMP JUMPDEST PUSH2 0x739 JUMP JUMPDEST STOP JUMPDEST PUSH2 0x280 PUSH1 0x4 DUP1 CALLDATASIZE SUB DUP2 ADD SWAP1 PUSH2 0x27B SWAP2 SWAP1 PUSH2 0x2FD0 JUMP JUMPDEST PUSH2 0x833 JUMP JUMPDEST STOP JUMPDEST PUSH2 0x29C PUSH1 0x4 DUP1 CALLDATASIZE SUB DUP2 ADD SWAP1 PUSH2 0x297 SWAP2 SWAP1 PUSH2 0x301D JUMP JUMPDEST PUSH2 0x934 JUMP JUMPDEST STOP JUMPDEST PUSH2 0x2B8 PUSH1 0x4 DUP1 CALLDATASIZE SUB DUP2 ADD SWAP1 PUSH2 0x2B3 SWAP2 SWAP1 PUSH2 0x2D6F JUMP JUMPDEST PUSH2 0xCD3 JUMP JUMPDEST PUSH1 0x40 MLOAD PUSH2 0x2C5 SWAP2 SWAP1 PUSH2 0x305D JUMP JUMPDEST PUSH1 0x40 MLOAD DUP1 SWAP2 SUB SWAP1 RETURN JUMPDEST PUSH2 0x2E8 PUSH1 0x4 DUP1 CALLDATASIZE SUB DUP2 ADD SWAP1 PUSH2 0x2E3 SWAP2 SWAP1 PUSH2 0x2D6F JUMP JUMPDEST PUSH2 0xD12 JUMP JUMPDEST PUSH1 0x40 MLOAD PUSH2 0x2F5 SWAP2 SWAP1 PUSH2 0x305D JUMP JUMPDEST PUSH1 0x40 MLOAD DUP1 SWAP2 SUB SWAP1 RETURN JUMPDEST PUSH2 0x306 PUSH2 0xD51 JUMP JUMPDEST PUSH1 0x40 MLOAD PUSH2 0x313 SWAP2 SWAP1 PUSH2 0x2D54 JUMP JUMPDEST PUSH1 0x40 MLOAD DUP1 SWAP2 SUB SWAP1 RETURN JUMPDEST PUSH2 0x336 PUSH1 0x4 DUP1 CALLDATASIZE SUB DUP2 ADD SWAP1 PUSH2 0x331 SWAP2 SWAP1 PUSH2 0x3078 JUMP JUMPDEST PUSH2 0xD57 JUMP JUMPDEST PUSH1 0x40 MLOAD PUSH2 0x346 SWAP5 SWAP4 SWAP3 SWAP2 SWAP1 PUSH2 0x30FA JUMP JUMPDEST PUSH1 0x40 MLOAD DUP1 SWAP2 SUB SWAP1 RETURN JUMPDEST PUSH2 0x369 PUSH1 0x4 DUP1 CALLDATASIZE SUB DUP2 ADD SWAP1 PUSH2 0x364 SWAP2 SWAP1 PUSH2 0x3078 JUMP JUMPDEST PUSH2 0xECE JUMP JUMPDEST STOP JUMPDEST PUSH2 0x385 PUSH1 0x4 DUP1 CALLDATASIZE SUB DUP2 ADD SWAP1 PUSH2 0x380 SWAP2 SWAP1 PUSH2 0x2D6F JUMP JUMPDEST PUSH2 0x1245 JUMP JUMPDEST STOP JUMPDEST PUSH2 0x3A1 PUSH1 0x4 DUP1 CALLDATASIZE SUB DUP2 ADD SWAP1 PUSH2 0x39C SWAP2 SWAP1 PUSH2 0x314D JUMP JUMPDEST PUSH2 0x135F JUMP JUMPDEST PUSH1 0x40 MLOAD PUSH2 0x3B2 SWAP6 SWAP5 SWAP4 SWAP3 SWAP2 SWAP1 PUSH2 0x317A JUMP JUMPDEST PUSH1 0x40 MLOAD DUP1 SWAP2 SUB SWAP1 RETURN JUMPDEST PUSH2 0x3D5 PUSH1 0x4 DUP1 CALLDATASIZE SUB DUP2 ADD SWAP1 PUSH2 0x3D0 SWAP2 SWAP1 PUSH2 0x31CD JUMP JUMPDEST PUSH2 0x13C2 JUMP JUMPDEST STOP JUMPDEST PUSH2 0x3F1 PUSH1 0x4 DUP1 CALLDATASIZE SUB DUP2 ADD SWAP1 PUSH2 0x3EC SWAP2 SWAP1 PUSH2 0x314D JUMP JUMPDEST PUSH2 0x1670 JUMP JUMPDEST STOP JUMPDEST PUSH2 0x3FB PUSH2 0x1B4F JUMP JUMPDEST PUSH1 0x40 MLOAD PUSH2 0x408 SWAP2 SWAP1 PUSH2 0x32DE JUMP JUMPDEST PUSH1 0x40 MLOAD DUP1 SWAP2 SUB SWAP1 RETURN JUMPDEST PUSH2 0x42B PUSH1 0x4 DUP1 CALLDATASIZE SUB DUP2 ADD SWAP1 PUSH2 0x426 SWAP2 SWAP1 PUSH2 0x3078 JUMP JUMPDEST PUSH2 0x1BDD JUMP JUMPDEST PUSH1 0x40 MLOAD PUSH2 0x43C SWAP6 SWAP5 SWAP4 SWAP3 SWAP2 SWAP1 PUSH2 0x3300 JUMP JUMPDEST PUSH1 0x40 MLOAD DUP1 SWAP2 SUB SWAP1 RETURN JUMPDEST PUSH2 0x45F PUSH1 0x4 DUP1 CALLDATASIZE SUB DUP2 ADD SWAP1 PUSH2 0x45A SWAP2 SWAP1 PUSH2 0x2D6F JUMP JUMPDEST PUSH2 0x1D50 JUMP JUMPDEST STOP JUMPDEST PUSH2 0x47B PUSH1 0x4 DUP1 CALLDATASIZE SUB DUP2 ADD SWAP1 PUSH2 0x476 SWAP2 SWAP1 PUSH2 0x3078 JUMP JUMPDEST PUSH2 0x20F7 JUMP JUMPDEST PUSH1 0x40 MLOAD PUSH2 0x488 SWAP2 SWAP1 PUSH2 0x3361 JUMP JUMPDEST PUSH1 0x40 MLOAD DUP1 SWAP2 SUB SWAP1 RETURN JUMPDEST PUSH2 0x4AB PUSH1 0x4 DUP1 CALLDATASIZE SUB DUP2 ADD SWAP1 PUSH2 0x4A6 SWAP2 SWAP1 PUSH2 0x314D JUMP JUMPDEST PUSH2 0x2117 JUMP JUMPDEST PUSH1 0x40 MLOAD PUSH2 0x4BC SWAP6 SWAP5 SWAP4 SWAP3 SWAP2 SWAP1 PUSH2 0x317A JUMP JUMPDEST PUSH1 0x40 MLOAD DUP1 SWAP2 SUB SWAP1 RETURN JUMPDEST PUSH2 0x4DF PUSH1 0x4 DUP1 CALLDATASIZE SUB DUP2 ADD SWAP1 PUSH2 0x4DA SWAP2 SWAP1 PUSH2 0x2F2B JUMP JUMPDEST PUSH2 0x21BB JUMP JUMPDEST PUSH1 0x40 MLOAD PUSH2 0x4EC SWAP2 SWAP1 PUSH2 0x2D54 JUMP JUMPDEST PUSH1 0x40 MLOAD DUP1 SWAP2 SUB SWAP1 RETURN JUMPDEST PUSH2 0x4FD PUSH2 0x21EC JUMP JUMPDEST PUSH1 0x40 MLOAD PUSH2 0x50A SWAP2 SWAP1 PUSH2 0x32DE JUMP JUMPDEST PUSH1 0x40 MLOAD DUP1 SWAP2 SUB SWAP1 RETURN JUMPDEST PUSH2 0x52D PUSH1 0x4 DUP1 CALLDATASIZE SUB DUP2 ADD SWAP1 PUSH2 0x528 SWAP2 SWAP1 PUSH2 0x314D JUMP JUMPDEST PUSH2 0x227A JUMP JUMPDEST PUSH1 0x40 MLOAD PUSH2 0x53A SWAP2 SWAP1 PUSH2 0x343A JUMP JUMPDEST PUSH1 0x40 MLOAD DUP1 SWAP2 SUB SWAP1 RETURN JUMPDEST PUSH2 0x55D PUSH1 0x4 DUP1 CALLDATASIZE SUB DUP2 ADD SWAP1 PUSH2 0x558 SWAP2 SWAP1 PUSH2 0x314D JUMP JUMPDEST PUSH2 0x2311 JUMP JUMPDEST PUSH1 0x40 MLOAD PUSH2 0x56A SWAP2 SWAP1 PUSH2 0x351A JUMP JUMPDEST PUSH1 0x40 MLOAD DUP1 SWAP2 SUB SWAP1 RETURN JUMPDEST PUSH2 0x58D PUSH1 0x4 DUP1 CALLDATASIZE SUB DUP2 ADD SWAP1 PUSH2 0x588 SWAP2 SWAP1 PUSH2 0x2F2B JUMP JUMPDEST PUSH2 0x23AB JUMP JUMPDEST PUSH1 0x40 MLOAD PUSH2 0x59A SWAP2 SWAP1 PUSH2 0x353C JUMP JUMPDEST PUSH1 0x40 MLOAD DUP1 SWAP2 SUB SWAP1 RETURN JUMPDEST PUSH2 0x5BD PUSH1 0x4 DUP1 CALLDATASIZE SUB DUP2 ADD SWAP1 PUSH2 0x5B8 SWAP2 SWAP1 PUSH2 0x3078 JUMP JUMPDEST PUSH2 0x23DC JUMP JUMPDEST PUSH1 0x40 MLOAD PUSH2 0x5CA SWAP2 SWAP1 PUSH2 0x351A JUMP JUMPDEST PUSH1 0x40 MLOAD DUP1 SWAP2 SUB SWAP1 RETURN JUMPDEST PUSH2 0x5DB PUSH2 0x2447 JUMP JUMPDEST PUSH1 0x40 MLOAD PUSH2 0x5E8 SWAP2 SWAP1 PUSH2 0x2D54 JUMP JUMPDEST PUSH1 0x40 MLOAD DUP1 SWAP2 SUB SWAP1 RETURN JUMPDEST PUSH2 0x60B PUSH1 0x4 DUP1 CALLDATASIZE SUB DUP2 ADD SWAP1 PUSH2 0x606 SWAP2 SWAP1 PUSH2 0x3687 JUMP JUMPDEST PUSH2 0x244D JUMP JUMPDEST STOP JUMPDEST PUSH1 0x5 PUSH1 0x20 MSTORE DUP2 PUSH1 0x0 MSTORE PUSH1 0x40 PUSH1 0x0 KECCAK256 DUP2 DUP2 SLOAD DUP2 LT PUSH2 0x629 JUMPI PUSH1 0x0 DUP1 REVERT JUMPDEST SWAP1 PUSH1 0x0 MSTORE PUSH1 0x20 PUSH1 0x0 KECCAK256 ADD PUSH1 0x0 SWAP2 POP SWAP2 POP POP SLOAD DUP2 JUMP JUMPDEST DUP1 PUSH1 0xA DUP2 SWAP1 SSTORE POP POP JUMP JUMPDEST PUSH1 0x0 PUSH1 0x20 MSTORE DUP1 PUSH1 0x0 MSTORE PUSH1 0x40 PUSH1 0x0 KECCAK256 PUSH1 0x0 SWAP2 POP SWAP1 POP DUP1 PUSH1 0x0 ADD SLOAD SWAP1 DUP1 PUSH1 0x1 ADD PUSH1 0x0 SWAP1 SLOAD SWAP1 PUSH2 0x100 EXP SWAP1 DIV PUSH20 0xFFFFFFFFFFFFFFFFFFFFFFFFFFFFFFFFFFFFFFFF AND SWAP1 DUP1 PUSH1 0x2 ADD SLOAD SWAP1 DUP1 PUSH1 0x3 ADD DUP1 SLOAD PUSH2 0x69D SWAP1 PUSH2 0x3741 JUMP JUMPDEST DUP1 PUSH1 0x1F ADD PUSH1 0x20 DUP1 SWAP2 DIV MUL PUSH1 0x20 ADD PUSH1 0x40 MLOAD SWAP1 DUP2 ADD PUSH1 0x40 MSTORE DUP1 SWAP3 SWAP2 SWAP1 DUP2 DUP2 MSTORE PUSH1 0x20 ADD DUP3 DUP1 SLOAD PUSH2 0x6C9 SWAP1 PUSH2 0x3741 JUMP JUMPDEST DUP1 ISZERO PUSH2 0x716 JUMPI DUP1 PUSH1 0x1F LT PUSH2 0x6EB JUMPI PUSH2 0x100 DUP1 DUP4 SLOAD DIV MUL DUP4 MSTORE SWAP2 PUSH1 0x20 ADD SWAP2 PUSH2 0x716 JUMP JUMPDEST DUP3 ADD SWAP2 SWAP1 PUSH1 0x0 MSTORE PUSH1 0x20 PUSH1 0x0 KECCAK256 SWAP1 JUMPDEST DUP2 SLOAD DUP2 MSTORE SWAP1 PUSH1 0x1 ADD SWAP1 PUSH1 0x20 ADD DUP1 DUP4 GT PUSH2 0x6F9 JUMPI DUP3 SWAP1 SUB PUSH1 0x1F AND DUP3 ADD SWAP2 JUMPDEST POP POP POP POP POP SWAP1 DUP1 PUSH1 0x4 ADD SLOAD SWAP1 DUP1 PUSH1 0x5 ADD PUSH1 0x0 SWAP1 SLOAD SWAP1 PUSH2 0x100 EXP SWAP1 DIV PUSH1 0xFF AND SWAP1 POP DUP7 JUMP JUMPDEST PUSH1 0x0 PUSH1 0x3 PUSH1 0x0 DUP5 PUSH20 0xFFFFFFFFFFFFFFFFFFFFFFFFFFFFFFFFFFFFFFFF AND PUSH20 0xFFFFFFFFFFFFFFFFFFFFFFFFFFFFFFFFFFFFFFFF AND DUP2 MSTORE PUSH1 0x20 ADD SWAP1 DUP2 MSTORE PUSH1 0x20 ADD PUSH1 0x0 KECCAK256 SWAP1 POP PUSH1 0x0 DUP2 PUSH1 0x2 ADD SLOAD SWAP1 POP DUP3 DUP3 PUSH1 0x2 ADD DUP2 SWAP1 SSTORE POP PUSH1 0x0 DUP2 EQ DUP1 ISZERO PUSH2 0x79E JUMPI POP PUSH1 0x0 DUP4 GT JUMPDEST ISZERO PUSH2 0x80B JUMPI PUSH1 0x7 DUP5 SWAP1 DUP1 PUSH1 0x1 DUP2 SLOAD ADD DUP1 DUP3 SSTORE DUP1 SWAP2 POP POP PUSH1 0x1 SWAP1 SUB SWAP1 PUSH1 0x0 MSTORE PUSH1 0x20 PUSH1 0x0 KECCAK256 ADD PUSH1 0x0 SWAP1 SWAP2 SWAP1 SWAP2 SWAP1 SWAP2 PUSH2 0x100 EXP DUP2 SLOAD DUP2 PUSH20 0xFFFFFFFFFFFFFFFFFFFFFFFFFFFFFFFFFFFFFFFF MUL NOT AND SWAP1 DUP4 PUSH20 0xFFFFFFFFFFFFFFFFFFFFFFFFFFFFFFFFFFFFFFFF AND MUL OR SWAP1 SSTORE POP PUSH2 0x82D JUMP JUMPDEST PUSH1 0x0 DUP2 GT DUP1 ISZERO PUSH2 0x81B JUMPI POP PUSH1 0x0 DUP4 EQ JUMPDEST ISZERO PUSH2 0x82C JUMPI PUSH2 0x82B PUSH1 0x7 DUP6 PUSH2 0x26CA JUMP JUMPDEST JUMPDEST JUMPDEST POP POP POP POP JUMP JUMPDEST PUSH1 0x0 JUMPDEST DUP3 DUP3 SWAP1 POP DUP2 LT ISZERO PUSH2 0x92F JUMPI PUSH1 0x0 DUP4 DUP4 DUP4 DUP2 DUP2 LT PUSH2 0x856 JUMPI PUSH2 0x855 PUSH2 0x3772 JUMP JUMPDEST JUMPDEST SWAP1 POP PUSH1 0x20 MUL ADD CALLDATALOAD SWAP1 POP PUSH1 0x0 DUP1 PUSH1 0x0 DUP4 DUP2 MSTORE PUSH1 0x20 ADD SWAP1 DUP2 MSTORE PUSH1 0x20 ADD PUSH1 0x0 KECCAK256 SWAP1 POP PUSH1 0x0 PUSH2 0x884 DUP3 PUSH1 0x0 ADD SLOAD PUSH2 0x286C JUMP JUMPDEST SWAP1 POP PUSH32 0xE2287538273600866181D00327199BA2737BDD326A6F08436F117F6A6C0E87A0 DUP4 DUP4 PUSH1 0x1 ADD PUSH1 0x0 SWAP1 SLOAD SWAP1 PUSH2 0x100 EXP SWAP1 DIV PUSH20 0xFFFFFFFFFFFFFFFFFFFFFFFFFFFFFFFFFFFFFFFF AND DUP4 PUSH1 0x40 MLOAD PUSH2 0x8DD SWAP4 SWAP3 SWAP2 SWAP1 PUSH2 0x37A1 JUMP JUMPDEST PUSH1 0x40 MLOAD DUP1 SWAP2 SUB SWAP1 LOG1 DUP1 ISZERO PUSH2 0x919 JUMPI PUSH2 0x918 DUP3 PUSH1 0x1 ADD PUSH1 0x0 SWAP1 SLOAD SWAP1 PUSH2 0x100 EXP SWAP1 DIV PUSH20 0xFFFFFFFFFFFFFFFFFFFFFFFFFFFFFFFFFFFFFFFF AND PUSH2 0x289D JUMP JUMPDEST JUMPDEST POP POP POP DUP1 DUP1 PUSH2 0x927 SWAP1 PUSH2 0x3807 JUMP JUMPDEST SWAP2 POP POP PUSH2 0x836 JUMP JUMPDEST POP POP POP JUMP JUMPDEST PUSH1 0x0 DUP1 DUP4 DUP2 MSTORE PUSH1 0x20 ADD SWAP1 DUP2 MSTORE PUSH1 0x20 ADD PUSH1 0x0 KECCAK256 PUSH1 0x5 ADD PUSH1 0x0 SWAP1 SLOAD SWAP1 PUSH2 0x100 EXP SWAP1 DIV PUSH1 0xFF AND PUSH2 0x996 JUMPI PUSH1 0x40 MLOAD PUSH32 0x8C379A000000000000000000000000000000000000000000000000000000000 DUP2 MSTORE PUSH1 0x4 ADD PUSH2 0x98D SWAP1 PUSH2 0x389B JUMP JUMPDEST PUSH1 0x40 MLOAD DUP1 SWAP2 SUB SWAP1 REVERT JUMPDEST PUSH1 0x0 PUSH20 0xFFFFFFFFFFFFFFFFFFFFFFFFFFFFFFFFFFFFFFFF AND PUSH1 0x3 PUSH1 0x0 DUP4 PUSH20 0xFFFFFFFFFFFFFFFFFFFFFFFFFFFFFFFFFFFFFFFF AND PUSH20 0xFFFFFFFFFFFFFFFFFFFFFFFFFFFFFFFFFFFFFFFF AND DUP2 MSTORE PUSH1 0x20 ADD SWAP1 DUP2 MSTORE PUSH1 0x20 ADD PUSH1 0x0 KECCAK256 PUSH1 0x1 ADD PUSH1 0x0 SWAP1 SLOAD SWAP1 PUSH2 0x100 EXP SWAP1 DIV PUSH20 0xFFFFFFFFFFFFFFFFFFFFFFFFFFFFFFFFFFFFFFFF AND PUSH20 0xFFFFFFFFFFFFFFFFFFFFFFFFFFFFFFFFFFFFFFFF AND SUB PUSH2 0xA67 JUMPI PUSH1 0x40 MLOAD PUSH32 0x8C379A000000000000000000000000000000000000000000000000000000000 DUP2 MSTORE PUSH1 0x4 ADD PUSH2 0xA5E SWAP1 PUSH2 0x3907 JUMP JUMPDEST PUSH1 0x40 MLOAD DUP1 SWAP2 SUB SWAP1 REVERT JUMPDEST PUSH1 0x0 DUP1 PUSH1 0x0 DUP5 DUP2 MSTORE PUSH1 0x20 ADD SWAP1 DUP2 MSTORE PUSH1 0x20 ADD PUSH1 0x0 KECCAK256 PUSH1 0x1 ADD PUSH1 0x0 SWAP1 SLOAD SWAP1 PUSH2 0x100 EXP SWAP1 DIV PUSH20 0xFFFFFFFFFFFFFFFFFFFFFFFFFFFFFFFFFFFFFFFF AND SWAP1 POP DUP2 PUSH20 0xFFFFFFFFFFFFFFFFFFFFFFFFFFFFFFFFFFFFFFFF AND DUP2 PUSH20 0xFFFFFFFFFFFFFFFFFFFFFFFFFFFFFFFFFFFFFFFF AND EQ PUSH2 0xCCE JUMPI PUSH1 0x0 PUSH1 0x2 PUSH1 0x0 DUP4 PUSH20 0xFFFFFFFFFFFFFFFFFFFFFFFFFFFFFFFFFFFFFFFF AND PUSH20 0xFFFFFFFFFFFFFFFFFFFFFFFFFFFFFFFFFFFFFFFF AND DUP2 MSTORE PUSH1 0x20 ADD SWAP1 DUP2 MSTORE PUSH1 0x20 ADD PUSH1 0x0 KECCAK256 SWAP1 POP PUSH1 0x0 JUMPDEST DUP2 DUP1 SLOAD SWAP1 POP DUP2 LT ISZERO PUSH2 0xBD8 JUMPI DUP5 DUP3 DUP3 DUP2 SLOAD DUP2 LT PUSH2 0xB3A JUMPI PUSH2 0xB39 PUSH2 0x3772 JUMP JUMPDEST JUMPDEST SWAP1 PUSH1 0x0 MSTORE PUSH1 0x20 PUSH1 0x0 KECCAK256 ADD SLOAD SUB PUSH2 0xBC5 JUMPI DUP2 PUSH1 0x1 DUP4 DUP1 SLOAD SWAP1 POP PUSH2 0xB5C SWAP2 SWAP1 PUSH2 0x3927 JUMP JUMPDEST DUP2 SLOAD DUP2 LT PUSH2 0xB6D JUMPI PUSH2 0xB6C PUSH2 0x3772 JUMP JUMPDEST JUMPDEST SWAP1 PUSH1 0x0 MSTORE PUSH1 0x20 PUSH1 0x0 KECCAK256 ADD SLOAD DUP3 DUP3 DUP2 SLOAD DUP2 LT PUSH2 0xB8B JUMPI PUSH2 0xB8A PUSH2 0x3772 JUMP JUMPDEST JUMPDEST SWAP1 PUSH1 0x0 MSTORE PUSH1 0x20 PUSH1 0x0 KECCAK256 ADD DUP2 SWAP1 SSTORE POP DUP2 DUP1 SLOAD DUP1 PUSH2 0xBAA JUMPI PUSH2 0xBA9 PUSH2 0x395B JUMP JUMPDEST JUMPDEST PUSH1 0x1 SWAP1 SUB DUP2 DUP2 SWAP1 PUSH1 0x0 MSTORE PUSH1 0x20 PUSH1 0x0 KECCAK256 ADD PUSH1 0x0 SWAP1 SSTORE SWAP1 SSTORE PUSH2 0xBD8 JUMP JUMPDEST DUP1 DUP1 PUSH2 0xBD0 SWAP1 PUSH2 0x3807 JUMP JUMPDEST SWAP2 POP POP PUSH2 0xB1A JUMP JUMPDEST POP DUP3 PUSH1 0x0 DUP1 DUP7 DUP2 MSTORE PUSH1 0x20 ADD SWAP1 DUP2 MSTORE PUSH1 0x20 ADD PUSH1 0x0 KECCAK256 PUSH1 0x1 ADD PUSH1 0x0 PUSH2 0x100 EXP DUP2 SLOAD DUP2 PUSH20 0xFFFFFFFFFFFFFFFFFFFFFFFFFFFFFFFFFFFFFFFF MUL NOT AND SWAP1 DUP4 PUSH20 0xFFFFFFFFFFFFFFFFFFFFFFFFFFFFFFFFFFFFFFFF AND MUL OR SWAP1 SSTORE POP PUSH1 0x2 PUSH1 0x0 DUP5 PUSH20 0xFFFFFFFFFFFFFFFFFFFFFFFFFFFFFFFFFFFFFFFF AND PUSH20 0xFFFFFFFFFFFFFFFFFFFFFFFFFFFFFFFFFFFFFFFF AND DUP2 MSTORE PUSH1 0x20 ADD SWAP1 DUP2 MSTORE PUSH1 0x20 ADD PUSH1 0x0 KECCAK256 DUP5 SWAP1 DUP1 PUSH1 0x1 DUP2 SLOAD ADD DUP1 DUP3 SSTORE DUP1 SWAP2 POP POP PUSH1 0x1 SWAP1 SUB SWAP1 PUSH1 0x0 MSTORE PUSH1 0x20 PUSH1 0x0 KECCAK256 ADD PUSH1 0x0 SWAP1 SWAP2 SWAP1 SWAP2 SWAP1 SWAP2 POP SSTORE PUSH32 0x9126CBE7384024542FDE94F05011D7713670628720B50555593F77CC21D1DC8C DUP5 DUP5 PUSH1 0x40 MLOAD PUSH2 0xCC4 SWAP3 SWAP2 SWAP1 PUSH2 0x398A JUMP JUMPDEST PUSH1 0x40 MLOAD DUP1 SWAP2 SUB SWAP1 LOG1 POP JUMPDEST POP POP POP JUMP JUMPDEST PUSH1 0x8 DUP2 DUP2 SLOAD DUP2 LT PUSH2 0xCE3 JUMPI PUSH1 0x0 DUP1 REVERT JUMPDEST SWAP1 PUSH1 0x0 MSTORE PUSH1 0x20 PUSH1 0x0 KECCAK256 ADD PUSH1 0x0 SWAP2 POP SLOAD SWAP1 PUSH2 0x100 EXP SWAP1 DIV PUSH20 0xFFFFFFFFFFFFFFFFFFFFFFFFFFFFFFFFFFFFFFFF AND DUP2 JUMP JUMPDEST PUSH1 0x7 DUP2 DUP2 SLOAD DUP2 LT PUSH2 0xD22 JUMPI PUSH1 0x0 DUP1 REVERT JUMPDEST SWAP1 PUSH1 0x0 MSTORE PUSH1 0x20 PUSH1 0x0 KECCAK256 ADD PUSH1 0x0 SWAP2 POP SLOAD SWAP1 PUSH2 0x100 EXP SWAP1 DIV PUSH20 0xFFFFFFFFFFFFFFFFFFFFFFFFFFFFFFFFFFFFFFFF AND DUP2 JUMP JUMPDEST PUSH1 0x9 SLOAD DUP2 JUMP JUMPDEST PUSH1 0x0 PUSH1 0x60 DUP1 PUSH1 0x0 DUP1 PUSH1 0x1 PUSH1 0x0 DUP8 DUP2 MSTORE PUSH1 0x20 ADD SWAP1 DUP2 MSTORE PUSH1 0x20 ADD PUSH1 0x0 KECCAK256 SWAP1 POP DUP1 PUSH1 0x0 ADD PUSH1 0x0 SWAP1 SLOAD SWAP1 PUSH2 0x100 EXP SWAP1 DIV PUSH20 0xFFFFFFFFFFFFFFFFFFFFFFFFFFFFFFFFFFFFFFFF AND DUP2 PUSH1 0x1 ADD DUP3 PUSH1 0x2 ADD DUP4 PUSH1 0x3 ADD SLOAD DUP3 DUP1 SLOAD PUSH2 0xDB2 SWAP1 PUSH2 0x3741 JUMP JUMPDEST DUP1 PUSH1 0x1F ADD PUSH1 0x20 DUP1 SWAP2 DIV MUL PUSH1 0x20 ADD PUSH1 0x40 MLOAD SWAP1 DUP2 ADD PUSH1 0x40 MSTORE DUP1 SWAP3 SWAP2 SWAP1 DUP2 DUP2 MSTORE PUSH1 0x20 ADD DUP3 DUP1 SLOAD PUSH2 0xDDE SWAP1 PUSH2 0x3741 JUMP JUMPDEST DUP1 ISZERO PUSH2 0xE2B JUMPI DUP1 PUSH1 0x1F LT PUSH2 0xE00 JUMPI PUSH2 0x100 DUP1 DUP4 SLOAD DIV MUL DUP4 MSTORE SWAP2 PUSH1 0x20 ADD SWAP2 PUSH2 0xE2B JUMP JUMPDEST DUP3 ADD SWAP2 SWAP1 PUSH1 0x0 MSTORE PUSH1 0x20 PUSH1 0x0 KECCAK256 SWAP1 JUMPDEST DUP2 SLOAD DUP2 MSTORE SWAP1 PUSH1 0x1 ADD SWAP1 PUSH1 0x20 ADD DUP1 DUP4 GT PUSH2 0xE0E JUMPI DUP3 SWAP1 SUB PUSH1 0x1F AND DUP3 ADD SWAP2 JUMPDEST POP POP POP POP POP SWAP3 POP DUP2 DUP1 SLOAD PUSH2 0xE3E SWAP1 PUSH2 0x3741 JUMP JUMPDEST DUP1 PUSH1 0x1F ADD PUSH1 0x20 DUP1 SWAP2 DIV MUL PUSH1 0x20 ADD PUSH1 0x40 MLOAD SWAP1 DUP2 ADD PUSH1 0x40 MSTORE DUP1 SWAP3 SWAP2 SWAP1 DUP2 DUP2 MSTORE PUSH1 0x20 ADD DUP3 DUP1 SLOAD PUSH2 0xE6A SWAP1 PUSH2 0x3741 JUMP JUMPDEST DUP1 ISZERO PUSH2 0xEB7 JUMPI DUP1 PUSH1 0x1F LT PUSH2 0xE8C JUMPI PUSH2 0x100 DUP1 DUP4 SLOAD DIV MUL DUP4 MSTORE SWAP2 PUSH1 0x20 ADD SWAP2 PUSH2 0xEB7 JUMP JUMPDEST DUP3 ADD SWAP2 SWAP1 PUSH1 0x0 MSTORE PUSH1 0x20 PUSH1 0x0 KECCAK256 SWAP1 JUMPDEST DUP2 SLOAD DUP2 MSTORE SWAP1 PUSH1 0x1 ADD SWAP1 PUSH1 0x20 ADD DUP1 DUP4 GT PUSH2 0xE9A JUMPI DUP3 SWAP1 SUB PUSH1 0x1F AND DUP3 ADD SWAP2 JUMPDEST POP POP POP POP POP SWAP2 POP SWAP5 POP SWAP5 POP SWAP5 POP SWAP5 POP POP SWAP2 SWAP4 POP SWAP2 SWAP4 JUMP JUMPDEST PUSH1 0x1 PUSH1 0x0 DUP3 DUP2 MSTORE PUSH1 0x20 ADD SWAP1 DUP2 MSTORE PUSH1 0x20 ADD PUSH1 0x0 KECCAK256 PUSH1 0x4 ADD PUSH1 0x0 SWAP1 SLOAD SWAP1 PUSH2 0x100 EXP SWAP1 DIV PUSH1 0xFF AND PUSH2 0xF31 JUMPI PUSH1 0x40 MLOAD PUSH32 0x8C379A000000000000000000000000000000000000000000000000000000000 DUP2 MSTORE PUSH1 0x4 ADD PUSH2 0xF28 SWAP1 PUSH2 0x39FF JUMP JUMPDEST PUSH1 0x40 MLOAD DUP1 SWAP2 SUB SWAP1 REVERT JUMPDEST PUSH1 0x0 PUSH1 0x1 PUSH1 0x0 DUP4 DUP2 MSTORE PUSH1 0x20 ADD SWAP1 DUP2 MSTORE PUSH1 0x20 ADD PUSH1 0x0 KECCAK256 SWAP1 POP DUP1 PUSH1 0x0 ADD PUSH1 0x0 SWAP1 SLOAD SWAP1 PUSH2 0x100 EXP SWAP1 DIV PUSH20 0xFFFFFFFFFFFFFFFFFFFFFFFFFFFFFFFFFFFFFFFF AND PUSH20 0xFFFFFFFFFFFFFFFFFFFFFFFFFFFFFFFFFFFFFFFF AND CALLER PUSH20 0xFFFFFFFFFFFFFFFFFFFFFFFFFFFFFFFFFFFFFFFF AND EQ PUSH2 0xFDA JUMPI PUSH1 0x40 MLOAD PUSH32 0x8C379A000000000000000000000000000000000000000000000000000000000 DUP2 MSTORE PUSH1 0x4 ADD PUSH2 0xFD1 SWAP1 PUSH2 0x3A91 JUMP JUMPDEST PUSH1 0x40 MLOAD DUP1 SWAP2 SUB SWAP1 REVERT JUMPDEST PUSH1 0x0 PUSH1 0x5 PUSH1 0x0 DUP5 DUP2 MSTORE PUSH1 0x20 ADD SWAP1 DUP2 MSTORE PUSH1 0x20 ADD PUSH1 0x0 KECCAK256 SWAP1 POP PUSH1 0x0 JUMPDEST DUP2 DUP1 SLOAD SWAP1 POP DUP2 LT ISZERO PUSH2 0x10A8 JUMPI PUSH1 0x0 DUP1 DUP4 DUP4 DUP2 SLOAD DUP2 LT PUSH2 0x1016 JUMPI PUSH2 0x1015 PUSH2 0x3772 JUMP JUMPDEST JUMPDEST SWAP1 PUSH1 0x0 MSTORE PUSH1 0x20 PUSH1 0x0 KECCAK256 ADD SLOAD DUP2 MSTORE PUSH1 0x20 ADD SWAP1 DUP2 MSTORE PUSH1 0x20 ADD PUSH1 0x0 KECCAK256 PUSH1 0x0 DUP1 DUP3 ADD PUSH1 0x0 SWAP1 SSTORE PUSH1 0x1 DUP3 ADD PUSH1 0x0 PUSH2 0x100 EXP DUP2 SLOAD SWAP1 PUSH20 0xFFFFFFFFFFFFFFFFFFFFFFFFFFFFFFFFFFFFFFFF MUL NOT AND SWAP1 SSTORE PUSH1 0x2 DUP3 ADD PUSH1 0x0 SWAP1 SSTORE PUSH1 0x3 DUP3 ADD PUSH1 0x0 PUSH2 0x1077 SWAP2 SWAP1 PUSH2 0x2B7A JUMP JUMPDEST PUSH1 0x4 DUP3 ADD PUSH1 0x0 SWAP1 SSTORE PUSH1 0x5 DUP3 ADD PUSH1 0x0 PUSH2 0x100 EXP DUP2 SLOAD SWAP1 PUSH1 0xFF MUL NOT AND SWAP1 SSTORE POP POP DUP1 DUP1 PUSH2 0x10A0 SWAP1 PUSH2 0x3807 JUMP JUMPDEST SWAP2 POP POP PUSH2 0xFF4 JUMP JUMPDEST POP PUSH1 0x5 PUSH1 0x0 DUP5 DUP2 MSTORE PUSH1 0x20 ADD SWAP1 DUP2 MSTORE PUSH1 0x20 ADD PUSH1 0x0 KECCAK256 PUSH1 0x0 PUSH2 0x10C8 SWAP2 SWAP1 PUSH2 0x2BBA JUMP JUMPDEST PUSH1 0x0 PUSH1 0x4 PUSH1 0x0 CALLER PUSH20 0xFFFFFFFFFFFFFFFFFFFFFFFFFFFFFFFFFFFFFFFF AND PUSH20 0xFFFFFFFFFFFFFFFFFFFFFFFFFFFFFFFFFFFFFFFF AND DUP2 MSTORE PUSH1 0x20 ADD SWAP1 DUP2 MSTORE PUSH1 0x20 ADD PUSH1 0x0 KECCAK256 SWAP1 POP PUSH1 0x0 JUMPDEST DUP2 DUP1 SLOAD SWAP1 POP DUP2 LT ISZERO PUSH2 0x1177 JUMPI DUP5 DUP3 DUP3 DUP2 SLOAD DUP2 LT PUSH2 0x112E JUMPI PUSH2 0x112D PUSH2 0x3772 JUMP JUMPDEST JUMPDEST SWAP1 PUSH1 0x0 MSTORE PUSH1 0x20 PUSH1 0x0 KECCAK256 ADD SLOAD SUB PUSH2 0x1164 JUMPI DUP2 DUP2 DUP2 SLOAD DUP2 LT PUSH2 0x1151 JUMPI PUSH2 0x1150 PUSH2 0x3772 JUMP JUMPDEST JUMPDEST SWAP1 PUSH1 0x0 MSTORE PUSH1 0x20 PUSH1 0x0 KECCAK256 ADD PUSH1 0x0 SWAP1 SSTORE PUSH2 0x1177 JUMP JUMPDEST DUP1 DUP1 PUSH2 0x116F SWAP1 PUSH2 0x3807 JUMP JUMPDEST SWAP2 POP POP PUSH2 0x110E JUMP JUMPDEST POP PUSH1 0x1 PUSH1 0x0 DUP6 DUP2 MSTORE PUSH1 0x20 ADD SWAP1 DUP2 MSTORE PUSH1 0x20 ADD PUSH1 0x0 KECCAK256 PUSH1 0x0 DUP1 DUP3 ADD PUSH1 0x0 PUSH2 0x100 EXP DUP2 SLOAD SWAP1 PUSH20 0xFFFFFFFFFFFFFFFFFFFFFFFFFFFFFFFFFFFFFFFF MUL NOT AND SWAP1 SSTORE PUSH1 0x1 DUP3 ADD PUSH1 0x0 PUSH2 0x11C3 SWAP2 SWAP1 PUSH2 0x2BDB JUMP JUMPDEST PUSH1 0x2 DUP3 ADD PUSH1 0x0 PUSH2 0x11D3 SWAP2 SWAP1 PUSH2 0x2BDB JUMP JUMPDEST PUSH1 0x3 DUP3 ADD PUSH1 0x0 SWAP1 SSTORE PUSH1 0x4 DUP3 ADD PUSH1 0x0 PUSH2 0x100 EXP DUP2 SLOAD SWAP1 PUSH1 0xFF MUL NOT AND SWAP1 SSTORE POP POP CALLER PUSH20 0xFFFFFFFFFFFFFFFFFFFFFFFFFFFFFFFFFFFFFFFF AND PUSH32 0xB61407FDA4EA870FBAA77E68EF9D3F6E3E78EAA5C4FA4674D5AC417F56055F9 DUP6 PUSH1 0x40 MLOAD PUSH2 0x1237 SWAP2 SWAP1 PUSH2 0x353C JUMP JUMPDEST PUSH1 0x40 MLOAD DUP1 SWAP2 SUB SWAP1 LOG2 POP POP POP POP JUMP JUMPDEST PUSH1 0x0 DUP1 PUSH1 0x0 DUP4 DUP2 MSTORE PUSH1 0x20 ADD SWAP1 DUP2 MSTORE PUSH1 0x20 ADD PUSH1 0x0 KECCAK256 SWAP1 POP DUP1 PUSH1 0x5 ADD PUSH1 0x0 SWAP1 SLOAD SWAP1 PUSH2 0x100 EXP SWAP1 DIV PUSH1 0xFF AND PUSH2 0x12AC JUMPI PUSH1 0x40 MLOAD PUSH32 0x8C379A000000000000000000000000000000000000000000000000000000000 DUP2 MSTORE PUSH1 0x4 ADD PUSH2 0x12A3 SWAP1 PUSH2 0x389B JUMP JUMPDEST PUSH1 0x40 MLOAD DUP1 SWAP2 SUB SWAP1 REVERT JUMPDEST PUSH1 0x0 PUSH2 0x12B7 DUP4 PUSH2 0x286C JUMP JUMPDEST SWAP1 POP PUSH32 0xE2287538273600866181D00327199BA2737BDD326A6F08436F117F6A6C0E87A0 DUP4 DUP4 PUSH1 0x1 ADD PUSH1 0x0 SWAP1 SLOAD SWAP1 PUSH2 0x100 EXP SWAP1 DIV PUSH20 0xFFFFFFFFFFFFFFFFFFFFFFFFFFFFFFFFFFFFFFFF AND DUP4 PUSH1 0x40 MLOAD PUSH2 0x1310 SWAP4 SWAP3 SWAP2 SWAP1 PUSH2 0x37A1 JUMP JUMPDEST PUSH1 0x40 MLOAD DUP1 SWAP2 SUB SWAP1 LOG1 DUP1 ISZERO PUSH2 0x1350 JUMPI PUSH2 0x134B DUP3 PUSH1 0x1 ADD PUSH1 0x0 SWAP1 SLOAD SWAP1 PUSH2 0x100 EXP SWAP1 DIV PUSH20 0xFFFFFFFFFFFFFFFFFFFFFFFFFFFFFFFFFFFFFFFF AND PUSH2 0x289D JUMP JUMPDEST PUSH2 0x135A JUMP JUMPDEST PUSH2 0x1359 DUP4 PUSH2 0x29CF JUMP JUMPDEST JUMPDEST POP POP POP JUMP JUMPDEST PUSH1 0x3 PUSH1 0x20 MSTORE DUP1 PUSH1 0x0 MSTORE PUSH1 0x40 PUSH1 0x0 KECCAK256 PUSH1 0x0 SWAP2 POP SWAP1 POP DUP1 PUSH1 0x0 ADD SLOAD SWAP1 DUP1 PUSH1 0x1 ADD PUSH1 0x0 SWAP1 SLOAD SWAP1 PUSH2 0x100 EXP SWAP1 DIV PUSH20 0xFFFFFFFFFFFFFFFFFFFFFFFFFFFFFFFFFFFFFFFF AND SWAP1 DUP1 PUSH1 0x2 ADD SLOAD SWAP1 DUP1 PUSH1 0x3 ADD SLOAD SWAP1 DUP1 PUSH1 0x4 ADD PUSH1 0x0 SWAP1 SLOAD SWAP1 PUSH2 0x100 EXP SWAP1 DIV PUSH1 0xFF AND SWAP1 POP DUP6 JUMP JUMPDEST PUSH1 0x3 PUSH1 0x0 CALLER PUSH20 0xFFFFFFFFFFFFFFFFFFFFFFFFFFFFFFFFFFFFFFFF AND PUSH20 0xFFFFFFFFFFFFFFFFFFFFFFFFFFFFFFFFFFFFFFFF AND DUP2 MSTORE PUSH1 0x20 ADD SWAP1 DUP2 MSTORE PUSH1 0x20 ADD PUSH1 0x0 KECCAK256 PUSH1 0x4 ADD PUSH1 0x0 SWAP1 SLOAD SWAP1 PUSH2 0x100 EXP SWAP1 DIV PUSH1 0xFF AND ISZERO PUSH2 0x1452 JUMPI PUSH1 0x40 MLOAD PUSH32 0x8C379A000000000000000000000000000000000000000000000000000000000 DUP2 MSTORE PUSH1 0x4 ADD PUSH2 0x1449 SWAP1 PUSH2 0x3AFD JUMP JUMPDEST PUSH1 0x40 MLOAD DUP1 SWAP2 SUB SWAP1 REVERT JUMPDEST PUSH1 0x40 MLOAD DUP1 PUSH1 0xC0 ADD PUSH1 0x40 MSTORE DUP1 DUP5 DUP2 MSTORE PUSH1 0x20 ADD DUP4 PUSH20 0xFFFFFFFFFFFFFFFFFFFFFFFFFFFFFFFFFFFFFFFF AND DUP2 MSTORE PUSH1 0x20 ADD DUP3 DUP2 MSTORE PUSH1 0x20 ADD DUP3 DUP2 MSTORE PUSH1 0x20 ADD PUSH1 0x1 ISZERO ISZERO DUP2 MSTORE PUSH1 0x20 ADD PUSH1 0x0 PUSH8 0xFFFFFFFFFFFFFFFF DUP2 GT ISZERO PUSH2 0x14AF JUMPI PUSH2 0x14AE PUSH2 0x355C JUMP JUMPDEST JUMPDEST PUSH1 0x40 MLOAD SWAP1 DUP1 DUP3 MSTORE DUP1 PUSH1 0x20 MUL PUSH1 0x20 ADD DUP3 ADD PUSH1 0x40 MSTORE DUP1 ISZERO PUSH2 0x14DD JUMPI DUP2 PUSH1 0x20 ADD PUSH1 0x20 DUP3 MUL DUP1 CALLDATASIZE DUP4 CALLDATACOPY DUP1 DUP3 ADD SWAP2 POP POP SWAP1 POP JUMPDEST POP DUP2 MSTORE POP PUSH1 0x3 PUSH1 0x0 CALLER PUSH20 0xFFFFFFFFFFFFFFFFFFFFFFFFFFFFFFFFFFFFFFFF AND PUSH20 0xFFFFFFFFFFFFFFFFFFFFFFFFFFFFFFFFFFFFFFFF AND DUP2 MSTORE PUSH1 0x20 ADD SWAP1 DUP2 MSTORE PUSH1 0x20 ADD PUSH1 0x0 KECCAK256 PUSH1 0x0 DUP3 ADD MLOAD DUP2 PUSH1 0x0 ADD SSTORE PUSH1 0x20 DUP3 ADD MLOAD DUP2 PUSH1 0x1 ADD PUSH1 0x0 PUSH2 0x100 EXP DUP2 SLOAD DUP2 PUSH20 0xFFFFFFFFFFFFFFFFFFFFFFFFFFFFFFFFFFFFFFFF MUL NOT AND SWAP1 DUP4 PUSH20 0xFFFFFFFFFFFFFFFFFFFFFFFFFFFFFFFFFFFFFFFF AND MUL OR SWAP1 SSTORE POP PUSH1 0x40 DUP3 ADD MLOAD DUP2 PUSH1 0x2 ADD SSTORE PUSH1 0x60 DUP3 ADD MLOAD DUP2 PUSH1 0x3 ADD SSTORE PUSH1 0x80 DUP3 ADD MLOAD DUP2 PUSH1 0x4 ADD PUSH1 0x0 PUSH2 0x100 EXP DUP2 SLOAD DUP2 PUSH1 0xFF MUL NOT AND SWAP1 DUP4 ISZERO ISZERO MUL OR SWAP1 SSTORE POP PUSH1 0xA0 DUP3 ADD MLOAD DUP2 PUSH1 0x5 ADD SWAP1 DUP1 MLOAD SWAP1 PUSH1 0x20 ADD SWAP1 PUSH2 0x15C1 SWAP3 SWAP2 SWAP1 PUSH2 0x2C1B JUMP JUMPDEST POP SWAP1 POP POP PUSH1 0x7 CALLER SWAP1 DUP1 PUSH1 0x1 DUP2 SLOAD ADD DUP1 DUP3 SSTORE DUP1 SWAP2 POP POP PUSH1 0x1 SWAP1 SUB SWAP1 PUSH1 0x0 MSTORE PUSH1 0x20 PUSH1 0x0 KECCAK256 ADD PUSH1 0x0 SWAP1 SWAP2 SWAP1 SWAP2 SWAP1 SWAP2 PUSH2 0x100 EXP DUP2 SLOAD DUP2 PUSH20 0xFFFFFFFFFFFFFFFFFFFFFFFFFFFFFFFFFFFFFFFF MUL NOT AND SWAP1 DUP4 PUSH20 0xFFFFFFFFFFFFFFFFFFFFFFFFFFFFFFFFFFFFFFFF AND MUL OR SWAP1 SSTORE POP CALLER PUSH20 0xFFFFFFFFFFFFFFFFFFFFFFFFFFFFFFFFFFFFFFFF AND PUSH32 0x2A9CD1CD0E4622D13305BF749CE27B6A68630E814956FE6CF8A28B9BF9B010F4 PUSH1 0x40 MLOAD PUSH1 0x40 MLOAD DUP1 SWAP2 SUB SWAP1 LOG2 POP POP POP JUMP JUMPDEST PUSH1 0x3 PUSH1 0x0 DUP3 PUSH20 0xFFFFFFFFFFFFFFFFFFFFFFFFFFFFFFFFFFFFFFFF AND PUSH20 0xFFFFFFFFFFFFFFFFFFFFFFFFFFFFFFFFFFFFFFFF AND DUP2 MSTORE PUSH1 0x20 ADD SWAP1 DUP2 MSTORE PUSH1 0x20 ADD PUSH1 0x0 KECCAK256 PUSH1 0x4 ADD PUSH1 0x0 SWAP1 SLOAD SWAP1 PUSH2 0x100 EXP SWAP1 DIV PUSH1 0xFF AND PUSH2 0x16FF JUMPI PUSH1 0x40 MLOAD PUSH32 0x8C379A000000000000000000000000000000000000000000000000000000000 DUP2 MSTORE PUSH1 0x4 ADD PUSH2 0x16F6 SWAP1 PUSH2 0x3907 JUMP JUMPDEST PUSH1 0x40 MLOAD DUP1 SWAP2 SUB SWAP1 REVERT JUMPDEST PUSH1 0x3 PUSH1 0x0 DUP3 PUSH20 0xFFFFFFFFFFFFFFFFFFFFFFFFFFFFFFFFFFFFFFFF AND PUSH20 0xFFFFFFFFFFFFFFFFFFFFFFFFFFFFFFFFFFFFFFFF AND DUP2 MSTORE PUSH1 0x20 ADD SWAP1 DUP2 MSTORE PUSH1 0x20 ADD PUSH1 0x0 KECCAK256 PUSH1 0x0 DUP1 DUP3 ADD PUSH1 0x0 SWAP1 SSTORE PUSH1 0x1 DUP3 ADD PUSH1 0x0 PUSH2 0x100 EXP DUP2 SLOAD SWAP1 PUSH20 0xFFFFFFFFFFFFFFFFFFFFFFFFFFFFFFFFFFFFFFFF MUL NOT AND SWAP1 SSTORE PUSH1 0x2 DUP3 ADD PUSH1 0x0 SWAP1 SSTORE PUSH1 0x3 DUP3 ADD PUSH1 0x0 SWAP1 SSTORE PUSH1 0x4 DUP3 ADD PUSH1 0x0 PUSH2 0x100 EXP DUP2 SLOAD SWAP1 PUSH1 0xFF MUL NOT AND SWAP1 SSTORE PUSH1 0x5 DUP3 ADD PUSH1 0x0 PUSH2 0x17A2 SWAP2 SWAP1 PUSH2 0x2BBA JUMP JUMPDEST POP POP PUSH1 0x2 PUSH1 0x0 DUP3 PUSH20 0xFFFFFFFFFFFFFFFFFFFFFFFFFFFFFFFFFFFFFFFF AND PUSH20 0xFFFFFFFFFFFFFFFFFFFFFFFFFFFFFFFFFFFFFFFF AND DUP2 MSTORE PUSH1 0x20 ADD SWAP1 DUP2 MSTORE PUSH1 0x20 ADD PUSH1 0x0 KECCAK256 PUSH1 0x0 PUSH2 0x17EF SWAP2 SWAP1 PUSH2 0x2BBA JUMP JUMPDEST PUSH1 0x0 JUMPDEST PUSH1 0x7 DUP1 SLOAD SWAP1 POP DUP2 LT ISZERO PUSH2 0x197B JUMPI DUP2 PUSH20 0xFFFFFFFFFFFFFFFFFFFFFFFFFFFFFFFFFFFFFFFF AND PUSH1 0x7 DUP3 DUP2 SLOAD DUP2 LT PUSH2 0x182A JUMPI PUSH2 0x1829 PUSH2 0x3772 JUMP JUMPDEST JUMPDEST SWAP1 PUSH1 0x0 MSTORE PUSH1 0x20 PUSH1 0x0 KECCAK256 ADD PUSH1 0x0 SWAP1 SLOAD SWAP1 PUSH2 0x100 EXP SWAP1 DIV PUSH20 0xFFFFFFFFFFFFFFFFFFFFFFFFFFFFFFFFFFFFFFFF AND PUSH20 0xFFFFFFFFFFFFFFFFFFFFFFFFFFFFFFFFFFFFFFFF AND SUB PUSH2 0x1968 JUMPI PUSH1 0x7 PUSH1 0x1 PUSH1 0x7 DUP1 SLOAD SWAP1 POP PUSH2 0x1884 SWAP2 SWAP1 PUSH2 0x3927 JUMP JUMPDEST DUP2 SLOAD DUP2 LT PUSH2 0x1895 JUMPI PUSH2 0x1894 PUSH2 0x3772 JUMP JUMPDEST JUMPDEST SWAP1 PUSH1 0x0 MSTORE PUSH1 0x20 PUSH1 0x0 KECCAK256 ADD PUSH1 0x0 SWAP1 SLOAD SWAP1 PUSH2 0x100 EXP SWAP1 DIV PUSH20 0xFFFFFFFFFFFFFFFFFFFFFFFFFFFFFFFFFFFFFFFF AND PUSH1 0x7 DUP3 DUP2 SLOAD DUP2 LT PUSH2 0x18D4 JUMPI PUSH2 0x18D3 PUSH2 0x3772 JUMP JUMPDEST JUMPDEST SWAP1 PUSH1 0x0 MSTORE PUSH1 0x20 PUSH1 0x0 KECCAK256 ADD PUSH1 0x0 PUSH2 0x100 EXP DUP2 SLOAD DUP2 PUSH20 0xFFFFFFFFFFFFFFFFFFFFFFFFFFFFFFFFFFFFFFFF MUL NOT AND SWAP1 DUP4 PUSH20 0xFFFFFFFFFFFFFFFFFFFFFFFFFFFFFFFFFFFFFFFF AND MUL OR SWAP1 SSTORE POP PUSH1 0x7 DUP1 SLOAD DUP1 PUSH2 0x192E JUMPI PUSH2 0x192D PUSH2 0x395B JUMP JUMPDEST JUMPDEST PUSH1 0x1 SWAP1 SUB DUP2 DUP2 SWAP1 PUSH1 0x0 MSTORE PUSH1 0x20 PUSH1 0x0 KECCAK256 ADD PUSH1 0x0 PUSH2 0x100 EXP DUP2 SLOAD SWAP1 PUSH20 0xFFFFFFFFFFFFFFFFFFFFFFFFFFFFFFFFFFFFFFFF MUL NOT AND SWAP1 SSTORE SWAP1 SSTORE PUSH2 0x197B JUMP JUMPDEST DUP1 DUP1 PUSH2 0x1973 SWAP1 PUSH2 0x3807 JUMP JUMPDEST SWAP2 POP POP PUSH2 0x17F2 JUMP JUMPDEST POP PUSH1 0x0 JUMPDEST PUSH1 0x8 DUP1 SLOAD SWAP1 POP DUP2 LT ISZERO PUSH2 0x1B08 JUMPI DUP2 PUSH20 0xFFFFFFFFFFFFFFFFFFFFFFFFFFFFFFFFFFFFFFFF AND PUSH1 0x8 DUP3 DUP2 SLOAD DUP2 LT PUSH2 0x19B7 JUMPI PUSH2 0x19B6 PUSH2 0x3772 JUMP JUMPDEST JUMPDEST SWAP1 PUSH1 0x0 MSTORE PUSH1 0x20 PUSH1 0x0 KECCAK256 ADD PUSH1 0x0 SWAP1 SLOAD SWAP1 PUSH2 0x100 EXP SWAP1 DIV PUSH20 0xFFFFFFFFFFFFFFFFFFFFFFFFFFFFFFFFFFFFFFFF AND PUSH20 0xFFFFFFFFFFFFFFFFFFFFFFFFFFFFFFFFFFFFFFFF AND SUB PUSH2 0x1AF5 JUMPI PUSH1 0x8 PUSH1 0x1 PUSH1 0x8 DUP1 SLOAD SWAP1 POP PUSH2 0x1A11 SWAP2 SWAP1 PUSH2 0x3927 JUMP JUMPDEST DUP2 SLOAD DUP2 LT PUSH2 0x1A22 JUMPI PUSH2 0x1A21 PUSH2 0x3772 JUMP JUMPDEST JUMPDEST SWAP1 PUSH1 0x0 MSTORE PUSH1 0x20 PUSH1 0x0 KECCAK256 ADD PUSH1 0x0 SWAP1 SLOAD SWAP1 PUSH2 0x100 EXP SWAP1 DIV PUSH20 0xFFFFFFFFFFFFFFFFFFFFFFFFFFFFFFFFFFFFFFFF AND PUSH1 0x8 DUP3 DUP2 SLOAD DUP2 LT PUSH2 0x1A61 JUMPI PUSH2 0x1A60 PUSH2 0x3772 JUMP JUMPDEST JUMPDEST SWAP1 PUSH1 0x0 MSTORE PUSH1 0x20 PUSH1 0x0 KECCAK256 ADD PUSH1 0x0 PUSH2 0x100 EXP DUP2 SLOAD DUP2 PUSH20 0xFFFFFFFFFFFFFFFFFFFFFFFFFFFFFFFFFFFFFFFF MUL NOT AND SWAP1 DUP4 PUSH20 0xFFFFFFFFFFFFFFFFFFFFFFFFFFFFFFFFFFFFFFFF AND MUL OR SWAP1 SSTORE POP PUSH1 0x8 DUP1 SLOAD DUP1 PUSH2 0x1ABB JUMPI PUSH2 0x1ABA PUSH2 0x395B JUMP JUMPDEST JUMPDEST PUSH1 0x1 SWAP1 SUB DUP2 DUP2 SWAP1 PUSH1 0x0 MSTORE PUSH1 0x20 PUSH1 0x0 KECCAK256 ADD PUSH1 0x0 PUSH2 0x100 EXP DUP2 SLOAD SWAP1 PUSH20 0xFFFFFFFFFFFFFFFFFFFFFFFFFFFFFFFFFFFFFFFF MUL NOT AND SWAP1 SSTORE SWAP1 SSTORE PUSH2 0x1B08 JUMP JUMPDEST DUP1 DUP1 PUSH2 0x1B00 SWAP1 PUSH2 0x3807 JUMP JUMPDEST SWAP2 POP POP PUSH2 0x197F JUMP JUMPDEST POP DUP1 PUSH20 0xFFFFFFFFFFFFFFFFFFFFFFFFFFFFFFFFFFFFFFFF AND PUSH32 0x4EC08AC56C966A2996E49A49EF82B618954FB71B28A651FBC8ED9EBC0DFECBD3 PUSH1 0x40 MLOAD PUSH1 0x40 MLOAD DUP1 SWAP2 SUB SWAP1 LOG2 POP JUMP JUMPDEST PUSH1 0x60 PUSH1 0x8 DUP1 SLOAD DUP1 PUSH1 0x20 MUL PUSH1 0x20 ADD PUSH1 0x40 MLOAD SWAP1 DUP2 ADD PUSH1 0x40 MSTORE DUP1 SWAP3 SWAP2 SWAP1 DUP2 DUP2 MSTORE PUSH1 0x20 ADD DUP3 DUP1 SLOAD DUP1 ISZERO PUSH2 0x1BD3 JUMPI PUSH1 0x20 MUL DUP3 ADD SWAP2 SWAP1 PUSH1 0x0 MSTORE PUSH1 0x20 PUSH1 0x0 KECCAK256 SWAP1 JUMPDEST DUP2 PUSH1 0x0 SWAP1 SLOAD SWAP1 PUSH2 0x100 EXP SWAP1 DIV PUSH20 0xFFFFFFFFFFFFFFFFFFFFFFFFFFFFFFFFFFFFFFFF AND PUSH20 0xFFFFFFFFFFFFFFFFFFFFFFFFFFFFFFFFFFFFFFFF AND DUP2 MSTORE PUSH1 0x20 ADD SWAP1 PUSH1 0x1 ADD SWAP1 DUP1 DUP4 GT PUSH2 0x1B89 JUMPI JUMPDEST POP POP POP POP POP SWAP1 POP SWAP1 JUMP JUMPDEST PUSH1 0x1 PUSH1 0x20 MSTORE DUP1 PUSH1 0x0 MSTORE PUSH1 0x40 PUSH1 0x0 KECCAK256 PUSH1 0x0 SWAP2 POP SWAP1 POP DUP1 PUSH1 0x0 ADD PUSH1 0x0 SWAP1 SLOAD SWAP1 PUSH2 0x100 EXP SWAP1 DIV PUSH20 0xFFFFFFFFFFFFFFFFFFFFFFFFFFFFFFFFFFFFFFFF AND SWAP1 DUP1 PUSH1 0x1 ADD DUP1 SLOAD PUSH2 0x1C26 SWAP1 PUSH2 0x3741 JUMP JUMPDEST DUP1 PUSH1 0x1F ADD PUSH1 0x20 DUP1 SWAP2 DIV MUL PUSH1 0x20 ADD PUSH1 0x40 MLOAD SWAP1 DUP2 ADD PUSH1 0x40 MSTORE DUP1 SWAP3 SWAP2 SWAP1 DUP2 DUP2 MSTORE PUSH1 0x20 ADD DUP3 DUP1 SLOAD PUSH2 0x1C52 SWAP1 PUSH2 0x3741 JUMP JUMPDEST DUP1 ISZERO PUSH2 0x1C9F JUMPI DUP1 PUSH1 0x1F LT PUSH2 0x1C74 JUMPI PUSH2 0x100 DUP1 DUP4 SLOAD DIV MUL DUP4 MSTORE SWAP2 PUSH1 0x20 ADD SWAP2 PUSH2 0x1C9F JUMP JUMPDEST DUP3 ADD SWAP2 SWAP1 PUSH1 0x0 MSTORE PUSH1 0x20 PUSH1 0x0 KECCAK256 SWAP1 JUMPDEST DUP2 SLOAD DUP2 MSTORE SWAP1 PUSH1 0x1 ADD SWAP1 PUSH1 0x20 ADD DUP1 DUP4 GT PUSH2 0x1C82 JUMPI DUP3 SWAP1 SUB PUSH1 0x1F AND DUP3 ADD SWAP2 JUMPDEST POP POP POP POP POP SWAP1 DUP1 PUSH1 0x2 ADD DUP1 SLOAD PUSH2 0x1CB4 SWAP1 PUSH2 0x3741 JUMP JUMPDEST DUP1 PUSH1 0x1F ADD PUSH1 0x20 DUP1 SWAP2 DIV MUL PUSH1 0x20 ADD PUSH1 0x40 MLOAD SWAP1 DUP2 ADD PUSH1 0x40 MSTORE DUP1 SWAP3 SWAP2 SWAP1 DUP2 DUP2 MSTORE PUSH1 0x20 ADD DUP3 DUP1 SLOAD PUSH2 0x1CE0 SWAP1 PUSH2 0x3741 JUMP JUMPDEST DUP1 ISZERO PUSH2 0x1D2D JUMPI DUP1 PUSH1 0x1F LT PUSH2 0x1D02 JUMPI PUSH2 0x100 DUP1 DUP4 SLOAD DIV MUL DUP4 MSTORE SWAP2 PUSH1 0x20 ADD SWAP2 PUSH2 0x1D2D JUMP JUMPDEST DUP3 ADD SWAP2 SWAP1 PUSH1 0x0 MSTORE PUSH1 0x20 PUSH1 0x0 KECCAK256 SWAP1 JUMPDEST DUP2 SLOAD DUP2 MSTORE SWAP1 PUSH1 0x1 ADD SWAP1 PUSH1 0x20 ADD DUP1 DUP4 GT PUSH2 0x1D10 JUMPI DUP3 SWAP1 SUB PUSH1 0x1F AND DUP3 ADD SWAP2 JUMPDEST POP POP POP POP POP SWAP1 DUP1 PUSH1 0x3 ADD SLOAD SWAP1 DUP1 PUSH1 0x4 ADD PUSH1 0x0 SWAP1 SLOAD SWAP1 PUSH2 0x100 EXP SWAP1 DIV PUSH1 0xFF AND SWAP1 POP DUP6 JUMP JUMPDEST PUSH1 0x0 DUP1 DUP3 DUP2 MSTORE PUSH1 0x20 ADD SWAP1 DUP2 MSTORE PUSH1 0x20 ADD PUSH1 0x0 KECCAK256 PUSH1 0x5 ADD PUSH1 0x0 SWAP1 SLOAD SWAP1 PUSH2 0x100 EXP SWAP1 DIV PUSH1 0xFF AND PUSH2 0x1DB2 JUMPI PUSH1 0x40 MLOAD PUSH32 0x8C379A000000000000000000000000000000000000000000000000000000000 DUP2 MSTORE PUSH1 0x4 ADD PUSH2 0x1DA9 SWAP1 PUSH2 0x389B JUMP JUMPDEST PUSH1 0x40 MLOAD DUP1 SWAP2 SUB SWAP1 REVERT JUMPDEST PUSH1 0x0 DUP1 PUSH1 0x0 DUP4 DUP2 MSTORE PUSH1 0x20 ADD SWAP1 DUP2 MSTORE PUSH1 0x20 ADD PUSH1 0x0 KECCAK256 SWAP1 POP PUSH1 0x0 DUP2 PUSH1 0x1 ADD PUSH1 0x0 SWAP1 SLOAD SWAP1 PUSH2 0x100 EXP SWAP1 DIV PUSH20 0xFFFFFFFFFFFFFFFFFFFFFFFFFFFFFFFFFFFFFFFF AND SWAP1 POP DUP1 PUSH20 0xFFFFFFFFFFFFFFFFFFFFFFFFFFFFFFFFFFFFFFFF AND CALLER PUSH20 0xFFFFFFFFFFFFFFFFFFFFFFFFFFFFFFFFFFFFFFFF AND EQ PUSH2 0x1E5F JUMPI PUSH1 0x40 MLOAD PUSH32 0x8C379A000000000000000000000000000000000000000000000000000000000 DUP2 MSTORE PUSH1 0x4 ADD PUSH2 0x1E56 SWAP1 PUSH2 0x3B8F JUMP JUMPDEST PUSH1 0x40 MLOAD DUP1 SWAP2 SUB SWAP1 REVERT JUMPDEST PUSH1 0x0 PUSH1 0x2 PUSH1 0x0 DUP4 PUSH20 0xFFFFFFFFFFFFFFFFFFFFFFFFFFFFFFFFFFFFFFFF AND PUSH20 0xFFFFFFFFFFFFFFFFFFFFFFFFFFFFFFFFFFFFFFFF AND DUP2 MSTORE PUSH1 0x20 ADD SWAP1 DUP2 MSTORE PUSH1 0x20 ADD PUSH1 0x0 KECCAK256 SWAP1 POP PUSH1 0x0 JUMPDEST DUP2 DUP1 SLOAD SWAP1 POP DUP2 LT ISZERO PUSH2 0x1F63 JUMPI DUP5 DUP3 DUP3 DUP2 SLOAD DUP2 LT PUSH2 0x1EC5 JUMPI PUSH2 0x1EC4 PUSH2 0x3772 JUMP JUMPDEST JUMPDEST SWAP1 PUSH1 0x0 MSTORE PUSH1 0x20 PUSH1 0x0 KECCAK256 ADD SLOAD SUB PUSH2 0x1F50 JUMPI DUP2 PUSH1 0x1 DUP4 DUP1 SLOAD SWAP1 POP PUSH2 0x1EE7 SWAP2 SWAP1 PUSH2 0x3927 JUMP JUMPDEST DUP2 SLOAD DUP2 LT PUSH2 0x1EF8 JUMPI PUSH2 0x1EF7 PUSH2 0x3772 JUMP JUMPDEST JUMPDEST SWAP1 PUSH1 0x0 MSTORE PUSH1 0x20 PUSH1 0x0 KECCAK256 ADD SLOAD DUP3 DUP3 DUP2 SLOAD DUP2 LT PUSH2 0x1F16 JUMPI PUSH2 0x1F15 PUSH2 0x3772 JUMP JUMPDEST JUMPDEST SWAP1 PUSH1 0x0 MSTORE PUSH1 0x20 PUSH1 0x0 KECCAK256 ADD DUP2 SWAP1 SSTORE POP DUP2 DUP1 SLOAD DUP1 PUSH2 0x1F35 JUMPI PUSH2 0x1F34 PUSH2 0x395B JUMP JUMPDEST JUMPDEST PUSH1 0x1 SWAP1 SUB DUP2 DUP2 SWAP1 PUSH1 0x0 MSTORE PUSH1 0x20 PUSH1 0x0 KECCAK256 ADD PUSH1 0x0 SWAP1 SSTORE SWAP1 SSTORE PUSH2 0x1F63 JUMP JUMPDEST DUP1 DUP1 PUSH2 0x1F5B SWAP1 PUSH2 0x3807 JUMP JUMPDEST SWAP2 POP POP PUSH2 0x1EA5 JUMP JUMPDEST POP PUSH1 0x0 PUSH1 0x5 PUSH1 0x0 DUP6 PUSH1 0x4 ADD SLOAD DUP2 MSTORE PUSH1 0x20 ADD SWAP1 DUP2 MSTORE PUSH1 0x20 ADD PUSH1 0x0 KECCAK256 SWAP1 POP PUSH1 0x0 JUMPDEST DUP2 DUP1 SLOAD SWAP1 POP DUP2 LT ISZERO PUSH2 0x2040 JUMPI DUP6 DUP3 DUP3 DUP2 SLOAD DUP2 LT PUSH2 0x1FA2 JUMPI PUSH2 0x1FA1 PUSH2 0x3772 JUMP JUMPDEST JUMPDEST SWAP1 PUSH1 0x0 MSTORE PUSH1 0x20 PUSH1 0x0 KECCAK256 ADD SLOAD SUB PUSH2 0x202D JUMPI DUP2 PUSH1 0x1 DUP4 DUP1 SLOAD SWAP1 POP PUSH2 0x1FC4 SWAP2 SWAP1 PUSH2 0x3927 JUMP JUMPDEST DUP2 SLOAD DUP2 LT PUSH2 0x1FD5 JUMPI PUSH2 0x1FD4 PUSH2 0x3772 JUMP JUMPDEST JUMPDEST SWAP1 PUSH1 0x0 MSTORE PUSH1 0x20 PUSH1 0x0 KECCAK256 ADD SLOAD DUP3 DUP3 DUP2 SLOAD DUP2 LT PUSH2 0x1FF3 JUMPI PUSH2 0x1FF2 PUSH2 0x3772 JUMP JUMPDEST JUMPDEST SWAP1 PUSH1 0x0 MSTORE PUSH1 0x20 PUSH1 0x0 KECCAK256 ADD DUP2 SWAP1 SSTORE POP DUP2 DUP1 SLOAD DUP1 PUSH2 0x2012 JUMPI PUSH2 0x2011 PUSH2 0x395B JUMP JUMPDEST JUMPDEST PUSH1 0x1 SWAP1 SUB DUP2 DUP2 SWAP1 PUSH1 0x0 MSTORE PUSH1 0x20 PUSH1 0x0 KECCAK256 ADD PUSH1 0x0 SWAP1 SSTORE SWAP1 SSTORE PUSH2 0x2040 JUMP JUMPDEST DUP1 DUP1 PUSH2 0x2038 SWAP1 PUSH2 0x3807 JUMP JUMPDEST SWAP2 POP POP PUSH2 0x1F82 JUMP JUMPDEST POP PUSH1 0x0 DUP1 DUP7 DUP2 MSTORE PUSH1 0x20 ADD SWAP1 DUP2 MSTORE PUSH1 0x20 ADD PUSH1 0x0 KECCAK256 PUSH1 0x0 DUP1 DUP3 ADD PUSH1 0x0 SWAP1 SSTORE PUSH1 0x1 DUP3 ADD PUSH1 0x0 PUSH2 0x100 EXP DUP2 SLOAD SWAP1 PUSH20 0xFFFFFFFFFFFFFFFFFFFFFFFFFFFFFFFFFFFFFFFF MUL NOT AND SWAP1 SSTORE PUSH1 0x2 DUP3 ADD PUSH1 0x0 SWAP1 SSTORE PUSH1 0x3 DUP3 ADD PUSH1 0x0 PUSH2 0x209B SWAP2 SWAP1 PUSH2 0x2B7A JUMP JUMPDEST PUSH1 0x4 DUP3 ADD PUSH1 0x0 SWAP1 SSTORE PUSH1 0x5 DUP3 ADD PUSH1 0x0 PUSH2 0x100 EXP DUP2 SLOAD SWAP1 PUSH1 0xFF MUL NOT AND SWAP1 SSTORE POP POP PUSH32 0xF6A2D10319800C3ECF3244C17904EA5F3026E430B4417EE5EC5BAA464E8F9B0C DUP6 PUSH1 0x40 MLOAD PUSH2 0x20E8 SWAP2 SWAP1 PUSH2 0x2D54 JUMP JUMPDEST PUSH1 0x40 MLOAD DUP1 SWAP2 SUB SWAP1 LOG1 POP POP POP POP POP JUMP JUMPDEST PUSH1 0x6 PUSH1 0x20 MSTORE DUP1 PUSH1 0x0 MSTORE PUSH1 0x40 PUSH1 0x0 KECCAK256 PUSH1 0x0 SWAP2 POP SLOAD SWAP1 PUSH2 0x100 EXP SWAP1 DIV PUSH1 0xFF AND DUP2 JUMP JUMPDEST PUSH1 0x0 DUP1 PUSH1 0x0 DUP1 PUSH1 0x0 DUP1 PUSH1 0x3 PUSH1 0x0 DUP9 PUSH20 0xFFFFFFFFFFFFFFFFFFFFFFFFFFFFFFFFFFFFFFFF AND PUSH20 0xFFFFFFFFFFFFFFFFFFFFFFFFFFFFFFFFFFFFFFFF AND DUP2 MSTORE PUSH1 0x20 ADD SWAP1 DUP2 MSTORE PUSH1 0x20 ADD PUSH1 0x0 KECCAK256 SWAP1 POP DUP1 PUSH1 0x0 ADD SLOAD DUP2 PUSH1 0x1 ADD PUSH1 0x0 SWAP1 SLOAD SWAP1 PUSH2 0x100 EXP SWAP1 DIV PUSH20 0xFFFFFFFFFFFFFFFFFFFFFFFFFFFFFFFFFFFFFFFF AND DUP3 PUSH1 0x2 ADD SLOAD DUP4 PUSH1 0x3 ADD SLOAD DUP5 PUSH1 0x4 ADD PUSH1 0x0 SWAP1 SLOAD SWAP1 PUSH2 0x100 EXP SWAP1 DIV PUSH1 0xFF AND SWAP6 POP SWAP6 POP SWAP6 POP SWAP6 POP SWAP6 POP POP SWAP2 SWAP4 SWAP6 SWAP1 SWAP3 SWAP5 POP JUMP JUMPDEST PUSH1 0x2 PUSH1 0x20 MSTORE DUP2 PUSH1 0x0 MSTORE PUSH1 0x40 PUSH1 0x0 KECCAK256 DUP2 DUP2 SLOAD DUP2 LT PUSH2 0x21D7 JUMPI PUSH1 0x0 DUP1 REVERT JUMPDEST SWAP1 PUSH1 0x0 MSTORE PUSH1 0x20 PUSH1 0x0 KECCAK256 ADD PUSH1 0x0 SWAP2 POP SWAP2 POP POP SLOAD DUP2 JUMP JUMPDEST PUSH1 0x60 PUSH1 0x7 DUP1 SLOAD DUP1 PUSH1 0x20 MUL PUSH1 0x20 ADD PUSH1 0x40 MLOAD SWAP1 DUP2 ADD PUSH1 0x40 MSTORE DUP1 SWAP3 SWAP2 SWAP1 DUP2 DUP2 MSTORE PUSH1 0x20 ADD DUP3 DUP1 SLOAD DUP1 ISZERO PUSH2 0x2270 JUMPI PUSH1 0x20 MUL DUP3 ADD SWAP2 SWAP1 PUSH1 0x0 MSTORE PUSH1 0x20 PUSH1 0x0 KECCAK256 SWAP1 JUMPDEST DUP2 PUSH1 0x0 SWAP1 SLOAD SWAP1 PUSH2 0x100 EXP SWAP1 DIV PUSH20 0xFFFFFFFFFFFFFFFFFFFFFFFFFFFFFFFFFFFFFFFF AND PUSH20 0xFFFFFFFFFFFFFFFFFFFFFFFFFFFFFFFFFFFFFFFF AND DUP2 MSTORE PUSH1 0x20 ADD SWAP1 PUSH1 0x1 ADD SWAP1 DUP1 DUP4 GT PUSH2 0x2226 JUMPI JUMPDEST POP POP POP POP POP SWAP1 POP SWAP1 JUMP JUMPDEST PUSH1 0x60 PUSH1 0x4 PUSH1 0x0 DUP4 PUSH20 0xFFFFFFFFFFFFFFFFFFFFFFFFFFFFFFFFFFFFFFFF AND PUSH20 0xFFFFFFFFFFFFFFFFFFFFFFFFFFFFFFFFFFFFFFFF AND DUP2 MSTORE PUSH1 0x20 ADD SWAP1 DUP2 MSTORE PUSH1 0x20 ADD PUSH1 0x0 KECCAK256 DUP1 SLOAD DUP1 PUSH1 0x20 MUL PUSH1 0x20 ADD PUSH1 0x40 MLOAD SWAP1 DUP2 ADD PUSH1 0x40 MSTORE DUP1 SWAP3 SWAP2 SWAP1 DUP2 DUP2 MSTORE PUSH1 0x20 ADD DUP3 DUP1 SLOAD DUP1 ISZERO PUSH2 0x2305 JUMPI PUSH1 0x20 MUL DUP3 ADD SWAP2 SWAP1 PUSH1 0x0 MSTORE PUSH1 0x20 PUSH1 0x0 KECCAK256 SWAP1 JUMPDEST DUP2 SLOAD DUP2 MSTORE PUSH1 0x20 ADD SWAP1 PUSH1 0x1 ADD SWAP1 DUP1 DUP4 GT PUSH2 0x22F1 JUMPI JUMPDEST POP POP POP POP POP SWAP1 POP SWAP2 SWAP1 POP JUMP JUMPDEST PUSH1 0x60 PUSH1 0x3 PUSH1 0x0 DUP4 PUSH20 0xFFFFFFFFFFFFFFFFFFFFFFFFFFFFFFFFFFFFFFFF AND PUSH20 0xFFFFFFFFFFFFFFFFFFFFFFFFFFFFFFFFFFFFFFFF AND DUP2 MSTORE PUSH1 0x20 ADD SWAP1 DUP2 MSTORE PUSH1 0x20 ADD PUSH1 0x0 KECCAK256 PUSH1 0x5 ADD DUP1 SLOAD DUP1 PUSH1 0x20 MUL PUSH1 0x20 ADD PUSH1 0x40 MLOAD SWAP1 DUP2 ADD PUSH1 0x40 MSTORE DUP1 SWAP3 SWAP2 SWAP1 DUP2 DUP2 MSTORE PUSH1 0x20 ADD DUP3 DUP1 SLOAD DUP1 ISZERO PUSH2 0x239F JUMPI PUSH1 0x20 MUL DUP3 ADD SWAP2 SWAP1 PUSH1 0x0 MSTORE PUSH1 0x20 PUSH1 0x0 KECCAK256 SWAP1 JUMPDEST DUP2 SLOAD DUP2 MSTORE PUSH1 0x20 ADD SWAP1 PUSH1 0x1 ADD SWAP1 DUP1 DUP4 GT PUSH2 0x238B JUMPI JUMPDEST POP POP POP POP POP SWAP1 POP SWAP2 SWAP1 POP JUMP JUMPDEST PUSH1 0x4 PUSH1 0x20 MSTORE DUP2 PUSH1 0x0 MSTORE PUSH1 0x40 PUSH1 0x0 KECCAK256 DUP2 DUP2 SLOAD DUP2 LT PUSH2 0x23C7 JUMPI PUSH1 0x0 DUP1 REVERT JUMPDEST SWAP1 PUSH1 0x0 MSTORE PUSH1 0x20 PUSH1 0x0 KECCAK256 ADD PUSH1 0x0 SWAP2 POP SWAP2 POP POP SLOAD DUP2 JUMP JUMPDEST PUSH1 0x60 PUSH1 0x5 PUSH1 0x0 DUP4 DUP2 MSTORE PUSH1 0x20 ADD SWAP1 DUP2 MSTORE PUSH1 0x20 ADD PUSH1 0x0 KECCAK256 DUP1 SLOAD DUP1 PUSH1 0x20 MUL PUSH1 0x20 ADD PUSH1 0x40 MLOAD SWAP1 DUP2 ADD PUSH1 0x40 MSTORE DUP1 SWAP3 SWAP2 SWAP1 DUP2 DUP2 MSTORE PUSH1 0x20 ADD DUP3 DUP1 SLOAD DUP1 ISZERO PUSH2 0x243B JUMPI PUSH1 0x20 MUL DUP3 ADD SWAP2 SWAP1 PUSH1 0x0 MSTORE PUSH1 0x20 PUSH1 0x0 KECCAK256 SWAP1 JUMPDEST DUP2 SLOAD DUP2 MSTORE PUSH1 0x20 ADD SWAP1 PUSH1 0x1 ADD SWAP1 DUP1 DUP4 GT PUSH2 0x2427 JUMPI JUMPDEST POP POP POP POP POP SWAP1 POP SWAP2 SWAP1 POP JUMP JUMPDEST PUSH1 0xA SLOAD DUP2 JUMP JUMPDEST PUSH2 0x2456 DUP2 PUSH2 0x2B50 JUMP JUMPDEST ISZERO PUSH2 0x2496 JUMPI PUSH1 0x40 MLOAD PUSH32 0x8C379A000000000000000000000000000000000000000000000000000000000 DUP2 MSTORE PUSH1 0x4 ADD PUSH2 0x248D SWAP1 PUSH2 0x3BFB JUMP JUMPDEST PUSH1 0x40 MLOAD DUP1 SWAP2 SUB SWAP1 REVERT JUMPDEST PUSH1 0x0 DUP4 MLOAD GT PUSH2 0x24DA JUMPI PUSH1 0x40 MLOAD PUSH32 0x8C379A000000000000000000000000000000000000000000000000000000000 DUP2 MSTORE PUSH1 0x4 ADD PUSH2 0x24D1 SWAP1 PUSH2 0x3C67 JUMP JUMPDEST PUSH1 0x40 MLOAD DUP1 SWAP2 SUB SWAP1 REVERT JUMPDEST PUSH1 0x0 DUP3 MLOAD GT PUSH2 0x251E JUMPI PUSH1 0x40 MLOAD PUSH32 0x8C379A000000000000000000000000000000000000000000000000000000000 DUP2 MSTORE PUSH1 0x4 ADD PUSH2 0x2515 SWAP1 PUSH2 0x3CD3 JUMP JUMPDEST PUSH1 0x40 MLOAD DUP1 SWAP2 SUB SWAP1 REVERT JUMPDEST PUSH1 0x40 MLOAD DUP1 PUSH1 0xA0 ADD PUSH1 0x40 MSTORE DUP1 CALLER PUSH20 0xFFFFFFFFFFFFFFFFFFFFFFFFFFFFFFFFFFFFFFFF AND DUP2 MSTORE PUSH1 0x20 ADD DUP5 DUP2 MSTORE PUSH1 0x20 ADD DUP4 DUP2 MSTORE PUSH1 0x20 ADD DUP3 DUP2 MSTORE PUSH1 0x20 ADD PUSH1 0x1 ISZERO ISZERO DUP2 MSTORE POP PUSH1 0x1 PUSH1 0x0 DUP4 DUP2 MSTORE PUSH1 0x20 ADD SWAP1 DUP2 MSTORE PUSH1 0x20 ADD PUSH1 0x0 KECCAK256 PUSH1 0x0 DUP3 ADD MLOAD DUP2 PUSH1 0x0 ADD PUSH1 0x0 PUSH2 0x100 EXP DUP2 SLOAD DUP2 PUSH20 0xFFFFFFFFFFFFFFFFFFFFFFFFFFFFFFFFFFFFFFFF MUL NOT AND SWAP1 DUP4 PUSH20 0xFFFFFFFFFFFFFFFFFFFFFFFFFFFFFFFFFFFFFFFF AND MUL OR SWAP1 SSTORE POP PUSH1 0x20 DUP3 ADD MLOAD DUP2 PUSH1 0x1 ADD SWAP1 DUP2 PUSH2 0x25CD SWAP2 SWAP1 PUSH2 0x3E9F JUMP JUMPDEST POP PUSH1 0x40 DUP3 ADD MLOAD DUP2 PUSH1 0x2 ADD SWAP1 DUP2 PUSH2 0x25E3 SWAP2 SWAP1 PUSH2 0x3E9F JUMP JUMPDEST POP PUSH1 0x60 DUP3 ADD MLOAD DUP2 PUSH1 0x3 ADD SSTORE PUSH1 0x80 DUP3 ADD MLOAD DUP2 PUSH1 0x4 ADD PUSH1 0x0 PUSH2 0x100 EXP DUP2 SLOAD DUP2 PUSH1 0xFF MUL NOT AND SWAP1 DUP4 ISZERO ISZERO MUL OR SWAP1 SSTORE POP SWAP1 POP POP PUSH1 0x4 PUSH1 0x0 CALLER PUSH20 0xFFFFFFFFFFFFFFFFFFFFFFFFFFFFFFFFFFFFFFFF AND PUSH20 0xFFFFFFFFFFFFFFFFFFFFFFFFFFFFFFFFFFFFFFFF AND DUP2 MSTORE PUSH1 0x20 ADD SWAP1 DUP2 MSTORE PUSH1 0x20 ADD PUSH1 0x0 KECCAK256 DUP2 SWAP1 DUP1 PUSH1 0x1 DUP2 SLOAD ADD DUP1 DUP3 SSTORE DUP1 SWAP2 POP POP PUSH1 0x1 SWAP1 SUB SWAP1 PUSH1 0x0 MSTORE PUSH1 0x20 PUSH1 0x0 KECCAK256 ADD PUSH1 0x0 SWAP1 SWAP2 SWAP1 SWAP2 SWAP1 SWAP2 POP SSTORE CALLER PUSH20 0xFFFFFFFFFFFFFFFFFFFFFFFFFFFFFFFFFFFFFFFF AND PUSH32 0x9D48ACD588E12327EB550AA18487E52B21718DB603D19F02370A818E4BB7863C DUP3 PUSH1 0x40 MLOAD PUSH2 0x26BD SWAP2 SWAP1 PUSH2 0x353C JUMP JUMPDEST PUSH1 0x40 MLOAD DUP1 SWAP2 SUB SWAP1 LOG2 POP POP POP JUMP JUMPDEST PUSH1 0x0 DUP3 DUP1 SLOAD SWAP1 POP SWAP1 POP PUSH1 0x0 JUMPDEST DUP2 DUP2 LT ISZERO PUSH2 0x2866 JUMPI DUP3 PUSH20 0xFFFFFFFFFFFFFFFFFFFFFFFFFFFFFFFFFFFFFFFF AND DUP5 DUP3 DUP2 SLOAD DUP2 LT PUSH2 0x2708 JUMPI PUSH2 0x2707 PUSH2 0x3772 JUMP JUMPDEST JUMPDEST SWAP1 PUSH1 0x0 MSTORE PUSH1 0x20 PUSH1 0x0 KECCAK256 ADD PUSH1 0x0 SWAP1 SLOAD SWAP1 PUSH2 0x100 EXP SWAP1 DIV PUSH20 0xFFFFFFFFFFFFFFFFFFFFFFFFFFFFFFFFFFFFFFFF AND PUSH20 0xFFFFFFFFFFFFFFFFFFFFFFFFFFFFFFFFFFFFFFFF AND SUB PUSH2 0x2853 JUMPI PUSH1 0x1 DUP3 PUSH2 0x275B SWAP2 SWAP1 PUSH2 0x3927 JUMP JUMPDEST DUP2 LT ISZERO PUSH2 0x2808 JUMPI DUP4 PUSH1 0x1 DUP4 PUSH2 0x2770 SWAP2 SWAP1 PUSH2 0x3927 JUMP JUMPDEST DUP2 SLOAD DUP2 LT PUSH2 0x2781 JUMPI PUSH2 0x2780 PUSH2 0x3772 JUMP JUMPDEST JUMPDEST SWAP1 PUSH1 0x0 MSTORE PUSH1 0x20 PUSH1 0x0 KECCAK256 ADD PUSH1 0x0 SWAP1 SLOAD SWAP1 PUSH2 0x100 EXP SWAP1 DIV PUSH20 0xFFFFFFFFFFFFFFFFFFFFFFFFFFFFFFFFFFFFFFFF AND DUP5 DUP3 DUP2 SLOAD DUP2 LT PUSH2 0x27BF JUMPI PUSH2 0x27BE PUSH2 0x3772 JUMP JUMPDEST JUMPDEST SWAP1 PUSH1 0x0 MSTORE PUSH1 0x20 PUSH1 0x0 KECCAK256 ADD PUSH1 0x0 PUSH2 0x100 EXP DUP2 SLOAD DUP2 PUSH20 0xFFFFFFFFFFFFFFFFFFFFFFFFFFFFFFFFFFFFFFFF MUL NOT AND SWAP1 DUP4 PUSH20 0xFFFFFFFFFFFFFFFFFFFFFFFFFFFFFFFFFFFFFFFF AND MUL OR SWAP1 SSTORE POP JUMPDEST DUP4 DUP1 SLOAD DUP1 PUSH2 0x2819 JUMPI PUSH2 0x2818 PUSH2 0x395B JUMP JUMPDEST JUMPDEST PUSH1 0x1 SWAP1 SUB DUP2 DUP2 SWAP1 PUSH1 0x0 MSTORE PUSH1 0x20 PUSH1 0x0 KECCAK256 ADD PUSH1 0x0 PUSH2 0x100 EXP DUP2 SLOAD SWAP1 PUSH20 0xFFFFFFFFFFFFFFFFFFFFFFFFFFFFFFFFFFFFFFFF MUL NOT AND SWAP1 SSTORE SWAP1 SSTORE PUSH2 0x2866 JUMP JUMPDEST DUP1 DUP1 PUSH2 0x285E SWAP1 PUSH2 0x3807 JUMP JUMPDEST SWAP2 POP POP PUSH2 0x26D6 JUMP JUMPDEST POP POP POP POP JUMP JUMPDEST PUSH1 0x0 DUP1 PUSH1 0x0 DUP1 DUP5 DUP2 MSTORE PUSH1 0x20 ADD SWAP1 DUP2 MSTORE PUSH1 0x20 ADD PUSH1 0x0 KECCAK256 SWAP1 POP DUP1 PUSH1 0x5 ADD PUSH1 0x0 SWAP1 SLOAD SWAP1 PUSH2 0x100 EXP SWAP1 DIV PUSH1 0xFF AND SWAP2 POP POP SWAP2 SWAP1 POP JUMP JUMPDEST PUSH1 0xA SLOAD SELFBALANCE LT ISZERO PUSH2 0x28E2 JUMPI PUSH1 0x40 MLOAD PUSH32 0x8C379A000000000000000000000000000000000000000000000000000000000 DUP2 MSTORE PUSH1 0x4 ADD PUSH2 0x28D9 SWAP1 PUSH2 0x3FBD JUMP JUMPDEST PUSH1 0x40 MLOAD DUP1 SWAP2 SUB SWAP1 REVERT JUMPDEST PUSH1 0x0 DUP2 PUSH20 0xFFFFFFFFFFFFFFFFFFFFFFFFFFFFFFFFFFFFFFFF AND PUSH1 0xA SLOAD PUSH1 0x40 MLOAD PUSH2 0x290A SWAP1 PUSH2 0x400E JUMP JUMPDEST PUSH1 0x0 PUSH1 0x40 MLOAD DUP1 DUP4 SUB DUP2 DUP6 DUP8 GAS CALL SWAP3 POP POP POP RETURNDATASIZE DUP1 PUSH1 0x0 DUP2 EQ PUSH2 0x2947 JUMPI PUSH1 0x40 MLOAD SWAP2 POP PUSH1 0x1F NOT PUSH1 0x3F RETURNDATASIZE ADD AND DUP3 ADD PUSH1 0x40 MSTORE RETURNDATASIZE DUP3 MSTORE RETURNDATASIZE PUSH1 0x0 PUSH1 0x20 DUP5 ADD RETURNDATACOPY PUSH2 0x294C JUMP JUMPDEST PUSH1 0x60 SWAP2 POP JUMPDEST POP POP SWAP1 POP DUP1 PUSH2 0x2990 JUMPI PUSH1 0x40 MLOAD PUSH32 0x8C379A000000000000000000000000000000000000000000000000000000000 DUP2 MSTORE PUSH1 0x4 ADD PUSH2 0x2987 SWAP1 PUSH2 0x406F JUMP JUMPDEST PUSH1 0x40 MLOAD DUP1 SWAP2 SUB SWAP1 REVERT JUMPDEST PUSH32 0xE2403640BA68FED3A2F88B7557551D1993F84B99BB10FF833F0CF8DB0C5E0486 DUP3 PUSH1 0xA SLOAD PUSH1 0x40 MLOAD PUSH2 0x29C3 SWAP3 SWAP2 SWAP1 PUSH2 0x408F JUMP JUMPDEST PUSH1 0x40 MLOAD DUP1 SWAP2 SUB SWAP1 LOG1 POP POP JUMP JUMPDEST PUSH1 0x0 DUP1 PUSH1 0x0 DUP4 DUP2 MSTORE PUSH1 0x20 ADD SWAP1 DUP2 MSTORE PUSH1 0x20 ADD PUSH1 0x0 KECCAK256 SWAP1 POP PUSH1 0x0 DUP2 PUSH1 0x1 ADD PUSH1 0x0 SWAP1 SLOAD SWAP1 PUSH2 0x100 EXP SWAP1 DIV PUSH20 0xFFFFFFFFFFFFFFFFFFFFFFFFFFFFFFFFFFFFFFFF AND SWAP1 POP PUSH1 0x0 PUSH1 0x2 PUSH1 0x0 DUP4 PUSH20 0xFFFFFFFFFFFFFFFFFFFFFFFFFFFFFFFFFFFFFFFF AND PUSH20 0xFFFFFFFFFFFFFFFFFFFFFFFFFFFFFFFFFFFFFFFF AND DUP2 MSTORE PUSH1 0x20 ADD SWAP1 DUP2 MSTORE PUSH1 0x20 ADD PUSH1 0x0 KECCAK256 SWAP1 POP PUSH1 0x0 JUMPDEST DUP2 DUP1 SLOAD SWAP1 POP DUP2 LT ISZERO PUSH2 0x2B12 JUMPI DUP5 DUP3 DUP3 DUP2 SLOAD DUP2 LT PUSH2 0x2A74 JUMPI PUSH2 0x2A73 PUSH2 0x3772 JUMP JUMPDEST JUMPDEST SWAP1 PUSH1 0x0 MSTORE PUSH1 0x20 PUSH1 0x0 KECCAK256 ADD SLOAD SUB PUSH2 0x2AFF JUMPI DUP2 PUSH1 0x1 DUP4 DUP1 SLOAD SWAP1 POP PUSH2 0x2A96 SWAP2 SWAP1 PUSH2 0x3927 JUMP JUMPDEST DUP2 SLOAD DUP2 LT PUSH2 0x2AA7 JUMPI PUSH2 0x2AA6 PUSH2 0x3772 JUMP JUMPDEST JUMPDEST SWAP1 PUSH1 0x0 MSTORE PUSH1 0x20 PUSH1 0x0 KECCAK256 ADD SLOAD DUP3 DUP3 DUP2 SLOAD DUP2 LT PUSH2 0x2AC5 JUMPI PUSH2 0x2AC4 PUSH2 0x3772 JUMP JUMPDEST JUMPDEST SWAP1 PUSH1 0x0 MSTORE PUSH1 0x20 PUSH1 0x0 KECCAK256 ADD DUP2 SWAP1 SSTORE POP DUP2 DUP1 SLOAD DUP1 PUSH2 0x2AE4 JUMPI PUSH2 0x2AE3 PUSH2 0x395B JUMP JUMPDEST JUMPDEST PUSH1 0x1 SWAP1 SUB DUP2 DUP2 SWAP1 PUSH1 0x0 MSTORE PUSH1 0x20 PUSH1 0x0 KECCAK256 ADD PUSH1 0x0 SWAP1 SSTORE SWAP1 SSTORE PUSH2 0x2B12 JUMP JUMPDEST DUP1 DUP1 PUSH2 0x2B0A SWAP1 PUSH2 0x3807 JUMP JUMPDEST SWAP2 POP POP PUSH2 0x2A54 JUMP JUMPDEST POP PUSH32 0xF6A2D10319800C3ECF3244C17904EA5F3026E430B4417EE5EC5BAA464E8F9B0C DUP5 PUSH1 0x40 MLOAD PUSH2 0x2B42 SWAP2 SWAP1 PUSH2 0x2D54 JUMP JUMPDEST PUSH1 0x40 MLOAD DUP1 SWAP2 SUB SWAP1 LOG1 POP POP POP POP JUMP JUMPDEST PUSH1 0x0 PUSH1 0x6 PUSH1 0x0 DUP4 DUP2 MSTORE PUSH1 0x20 ADD SWAP1 DUP2 MSTORE PUSH1 0x20 ADD PUSH1 0x0 KECCAK256 PUSH1 0x0 SWAP1 SLOAD SWAP1 PUSH2 0x100 EXP SWAP1 DIV PUSH1 0xFF AND SWAP1 POP SWAP2 SWAP1 POP JUMP JUMPDEST POP DUP1 SLOAD PUSH2 0x2B86 SWAP1 PUSH2 0x3741 JUMP JUMPDEST PUSH1 0x0 DUP3 SSTORE DUP1 PUSH1 0x1F LT PUSH2 0x2B98 JUMPI POP PUSH2 0x2BB7 JUMP JUMPDEST PUSH1 0x1F ADD PUSH1 0x20 SWAP1 DIV SWAP1 PUSH1 0x0 MSTORE PUSH1 0x20 PUSH1 0x0 KECCAK256 SWAP1 DUP2 ADD SWAP1 PUSH2 0x2BB6 SWAP2 SWAP1 PUSH2 0x2C68 JUMP JUMPDEST JUMPDEST POP JUMP JUMPDEST POP DUP1 SLOAD PUSH1 0x0 DUP3 SSTORE SWAP1 PUSH1 0x0 MSTORE PUSH1 0x20 PUSH1 0x0 KECCAK256 SWAP1 DUP2 ADD SWAP1 PUSH2 0x2BD8 SWAP2 SWAP1 PUSH2 0x2C68 JUMP JUMPDEST POP JUMP JUMPDEST POP DUP1 SLOAD PUSH2 0x2BE7 SWAP1 PUSH2 0x3741 JUMP JUMPDEST PUSH1 0x0 DUP3 SSTORE DUP1 PUSH1 0x1F LT PUSH2 0x2BF9 JUMPI POP PUSH2 0x2C18 JUMP JUMPDEST PUSH1 0x1F ADD PUSH1 0x20 SWAP1 DIV SWAP1 PUSH1 0x0 MSTORE PUSH1 0x20 PUSH1 0x0 KECCAK256 SWAP1 DUP2 ADD SWAP1 PUSH2 0x2C17 SWAP2 SWAP1 PUSH2 0x2C68 JUMP JUMPDEST JUMPDEST POP JUMP JUMPDEST DUP3 DUP1 SLOAD DUP3 DUP3 SSTORE SWAP1 PUSH1 0x0 MSTORE PUSH1 0x20 PUSH1 0x0 KECCAK256 SWAP1 DUP2 ADD SWAP3 DUP3 ISZERO PUSH2 0x2C57 JUMPI SWAP2 PUSH1 0x20 MUL DUP3 ADD JUMPDEST DUP3 DUP2 GT ISZERO PUSH2 0x2C56 JUMPI DUP3 MLOAD DUP3 SSTORE SWAP2 PUSH1 0x20 ADD SWAP2 SWAP1 PUSH1 0x1 ADD SWAP1 PUSH2 0x2C3B JUMP JUMPDEST JUMPDEST POP SWAP1 POP PUSH2 0x2C64 SWAP2 SWAP1 PUSH2 0x2C68 JUMP JUMPDEST POP SWAP1 JUMP JUMPDEST JUMPDEST DUP1 DUP3 GT ISZERO PUSH2 0x2C81 JUMPI PUSH1 0x0 DUP2 PUSH1 0x0 SWAP1 SSTORE POP PUSH1 0x1 ADD PUSH2 0x2C69 JUMP JUMPDEST POP SWAP1 JUMP JUMPDEST PUSH1 0x0 PUSH1 0x40 MLOAD SWAP1 POP SWAP1 JUMP JUMPDEST PUSH1 0x0 DUP1 REVERT JUMPDEST PUSH1 0x0 DUP1 REVERT JUMPDEST PUSH1 0x0 DUP2 SWAP1 POP SWAP2 SWAP1 POP JUMP JUMPDEST PUSH2 0x2CAC DUP2 PUSH2 0x2C99 JUMP JUMPDEST DUP2 EQ PUSH2 0x2CB7 JUMPI PUSH1 0x0 DUP1 REVERT JUMPDEST POP JUMP JUMPDEST PUSH1 0x0 DUP2 CALLDATALOAD SWAP1 POP PUSH2 0x2CC9 DUP2 PUSH2 0x2CA3 JUMP JUMPDEST SWAP3 SWAP2 POP POP JUMP JUMPDEST PUSH1 0x0 DUP2 SWAP1 POP SWAP2 SWAP1 POP JUMP JUMPDEST PUSH2 0x2CE2 DUP2 PUSH2 0x2CCF JUMP JUMPDEST DUP2 EQ PUSH2 0x2CED JUMPI PUSH1 0x0 DUP1 REVERT JUMPDEST POP JUMP JUMPDEST PUSH1 0x0 DUP2 CALLDATALOAD SWAP1 POP PUSH2 0x2CFF DUP2 PUSH2 0x2CD9 JUMP JUMPDEST SWAP3 SWAP2 POP POP JUMP JUMPDEST PUSH1 0x0 DUP1 PUSH1 0x40 DUP4 DUP6 SUB SLT ISZERO PUSH2 0x2D1C JUMPI PUSH2 0x2D1B PUSH2 0x2C8F JUMP JUMPDEST JUMPDEST PUSH1 0x0 PUSH2 0x2D2A DUP6 DUP3 DUP7 ADD PUSH2 0x2CBA JUMP JUMPDEST SWAP3 POP POP PUSH1 0x20 PUSH2 0x2D3B DUP6 DUP3 DUP7 ADD PUSH2 0x2CF0 JUMP JUMPDEST SWAP2 POP POP SWAP3 POP SWAP3 SWAP1 POP JUMP JUMPDEST PUSH2 0x2D4E DUP2 PUSH2 0x2CCF JUMP JUMPDEST DUP3 MSTORE POP POP JUMP JUMPDEST PUSH1 0x0 PUSH1 0x20 DUP3 ADD SWAP1 POP PUSH2 0x2D69 PUSH1 0x0 DUP4 ADD DUP5 PUSH2 0x2D45 JUMP JUMPDEST SWAP3 SWAP2 POP POP JUMP JUMPDEST PUSH1 0x0 PUSH1 0x20 DUP3 DUP5 SUB SLT ISZERO PUSH2 0x2D85 JUMPI PUSH2 0x2D84 PUSH2 0x2C8F JUMP JUMPDEST JUMPDEST PUSH1 0x0 PUSH2 0x2D93 DUP5 DUP3 DUP6 ADD PUSH2 0x2CF0 JUMP JUMPDEST SWAP2 POP POP SWAP3 SWAP2 POP POP JUMP JUMPDEST PUSH1 0x0 PUSH20 0xFFFFFFFFFFFFFFFFFFFFFFFFFFFFFFFFFFFFFFFF DUP3 AND SWAP1 POP SWAP2 SWAP1 POP JUMP JUMPDEST PUSH1 0x0 PUSH2 0x2DC7 DUP3 PUSH2 0x2D9C JUMP JUMPDEST SWAP1 POP SWAP2 SWAP1 POP JUMP JUMPDEST PUSH2 0x2DD7 DUP2 PUSH2 0x2DBC JUMP JUMPDEST DUP3 MSTORE POP POP JUMP JUMPDEST PUSH1 0x0 DUP2 MLOAD SWAP1 POP SWAP2 SWAP1 POP JUMP JUMPDEST PUSH1 0x0 DUP3 DUP3 MSTORE PUSH1 0x20 DUP3 ADD SWAP1 POP SWAP3 SWAP2 POP POP JUMP JUMPDEST PUSH1 0x0 JUMPDEST DUP4 DUP2 LT ISZERO PUSH2 0x2E17 JUMPI DUP1 DUP3 ADD MLOAD DUP2 DUP5 ADD MSTORE PUSH1 0x20 DUP2 ADD SWAP1 POP PUSH2 0x2DFC JUMP JUMPDEST PUSH1 0x0 DUP5 DUP5 ADD MSTORE POP POP POP POP JUMP JUMPDEST PUSH1 0x0 PUSH1 0x1F NOT PUSH1 0x1F DUP4 ADD AND SWAP1 POP SWAP2 SWAP1 POP JUMP JUMPDEST PUSH1 0x0 PUSH2 0x2E3F DUP3 PUSH2 0x2DDD JUMP JUMPDEST PUSH2 0x2E49 DUP2 DUP6 PUSH2 0x2DE8 JUMP JUMPDEST SWAP4 POP PUSH2 0x2E59 DUP2 DUP6 PUSH1 0x20 DUP7 ADD PUSH2 0x2DF9 JUMP JUMPDEST PUSH2 0x2E62 DUP2 PUSH2 0x2E23 JUMP JUMPDEST DUP5 ADD SWAP2 POP POP SWAP3 SWAP2 POP POP JUMP JUMPDEST PUSH2 0x2E76 DUP2 PUSH2 0x2C99 JUMP JUMPDEST DUP3 MSTORE POP POP JUMP JUMPDEST PUSH1 0x0 DUP2 ISZERO ISZERO SWAP1 POP SWAP2 SWAP1 POP JUMP JUMPDEST PUSH2 0x2E91 DUP2 PUSH2 0x2E7C JUMP JUMPDEST DUP3 MSTORE POP POP JUMP JUMPDEST PUSH1 0x0 PUSH1 0xC0 DUP3 ADD SWAP1 POP PUSH2 0x2EAC PUSH1 0x0 DUP4 ADD DUP10 PUSH2 0x2D45 JUMP JUMPDEST PUSH2 0x2EB9 PUSH1 0x20 DUP4 ADD DUP9 PUSH2 0x2DCE JUMP JUMPDEST PUSH2 0x2EC6 PUSH1 0x40 DUP4 ADD DUP8 PUSH2 0x2D45 JUMP JUMPDEST DUP2 DUP2 SUB PUSH1 0x60 DUP4 ADD MSTORE PUSH2 0x2ED8 DUP2 DUP7 PUSH2 0x2E34 JUMP JUMPDEST SWAP1 POP PUSH2 0x2EE7 PUSH1 0x80 DUP4 ADD DUP6 PUSH2 0x2E6D JUMP JUMPDEST PUSH2 0x2EF4 PUSH1 0xA0 DUP4 ADD DUP5 PUSH2 0x2E88 JUMP JUMPDEST SWAP8 SWAP7 POP POP POP POP POP POP POP JUMP JUMPDEST PUSH2 0x2F08 DUP2 PUSH2 0x2DBC JUMP JUMPDEST DUP2 EQ PUSH2 0x2F13 JUMPI PUSH1 0x0 DUP1 REVERT JUMPDEST POP JUMP JUMPDEST PUSH1 0x0 DUP2 CALLDATALOAD SWAP1 POP PUSH2 0x2F25 DUP2 PUSH2 0x2EFF JUMP JUMPDEST SWAP3 SWAP2 POP POP JUMP JUMPDEST PUSH1 0x0 DUP1 PUSH1 0x40 DUP4 DUP6 SUB SLT ISZERO PUSH2 0x2F42 JUMPI PUSH2 0x2F41 PUSH2 0x2C8F JUMP JUMPDEST JUMPDEST PUSH1 0x0 PUSH2 0x2F50 DUP6 DUP3 DUP7 ADD PUSH2 0x2F16 JUMP JUMPDEST SWAP3 POP POP PUSH1 0x20 PUSH2 0x2F61 DUP6 DUP3 DUP7 ADD PUSH2 0x2CF0 JUMP JUMPDEST SWAP2 POP POP SWAP3 POP SWAP3 SWAP1 POP JUMP JUMPDEST PUSH1 0x0 DUP1 REVERT JUMPDEST PUSH1 0x0 DUP1 REVERT JUMPDEST PUSH1 0x0 DUP1 REVERT JUMPDEST PUSH1 0x0 DUP1 DUP4 PUSH1 0x1F DUP5 ADD SLT PUSH2 0x2F90 JUMPI PUSH2 0x2F8F PUSH2 0x2F6B JUMP JUMPDEST JUMPDEST DUP3 CALLDATALOAD SWAP1 POP PUSH8 0xFFFFFFFFFFFFFFFF DUP2 GT ISZERO PUSH2 0x2FAD JUMPI PUSH2 0x2FAC PUSH2 0x2F70 JUMP JUMPDEST JUMPDEST PUSH1 0x20 DUP4 ADD SWAP2 POP DUP4 PUSH1 0x20 DUP3 MUL DUP4 ADD GT ISZERO PUSH2 0x2FC9 JUMPI PUSH2 0x2FC8 PUSH2 0x2F75 JUMP JUMPDEST JUMPDEST SWAP3 POP SWAP3 SWAP1 POP JUMP JUMPDEST PUSH1 0x0 DUP1 PUSH1 0x20 DUP4 DUP6 SUB SLT ISZERO PUSH2 0x2FE7 JUMPI PUSH2 0x2FE6 PUSH2 0x2C8F JUMP JUMPDEST JUMPDEST PUSH1 0x0 DUP4 ADD CALLDATALOAD PUSH8 0xFFFFFFFFFFFFFFFF DUP2 GT ISZERO PUSH2 0x3005 JUMPI PUSH2 0x3004 PUSH2 0x2C94 JUMP JUMPDEST JUMPDEST PUSH2 0x3011 DUP6 DUP3 DUP7 ADD PUSH2 0x2F7A JUMP JUMPDEST SWAP3 POP SWAP3 POP POP SWAP3 POP SWAP3 SWAP1 POP JUMP JUMPDEST PUSH1 0x0 DUP1 PUSH1 0x40 DUP4 DUP6 SUB SLT ISZERO PUSH2 0x3034 JUMPI PUSH2 0x3033 PUSH2 0x2C8F JUMP JUMPDEST JUMPDEST PUSH1 0x0 PUSH2 0x3042 DUP6 DUP3 DUP7 ADD PUSH2 0x2CF0 JUMP JUMPDEST SWAP3 POP POP PUSH1 0x20 PUSH2 0x3053 DUP6 DUP3 DUP7 ADD PUSH2 0x2F16 JUMP JUMPDEST SWAP2 POP POP SWAP3 POP SWAP3 SWAP1 POP JUMP JUMPDEST PUSH1 0x0 PUSH1 0x20 DUP3 ADD SWAP1 POP PUSH2 0x3072 PUSH1 0x0 DUP4 ADD DUP5 PUSH2 0x2DCE JUMP JUMPDEST SWAP3 SWAP2 POP POP JUMP JUMPDEST PUSH1 0x0 PUSH1 0x20 DUP3 DUP5 SUB SLT ISZERO PUSH2 0x308E JUMPI PUSH2 0x308D PUSH2 0x2C8F JUMP JUMPDEST JUMPDEST PUSH1 0x0 PUSH2 0x309C DUP5 DUP3 DUP6 ADD PUSH2 0x2CBA JUMP JUMPDEST SWAP2 POP POP SWAP3 SWAP2 POP POP JUMP JUMPDEST PUSH1 0x0 DUP2 MLOAD SWAP1 POP SWAP2 SWAP1 POP JUMP JUMPDEST PUSH1 0x0 DUP3 DUP3 MSTORE PUSH1 0x20 DUP3 ADD SWAP1 POP SWAP3 SWAP2 POP POP JUMP JUMPDEST PUSH1 0x0 PUSH2 0x30CC DUP3 PUSH2 0x30A5 JUMP JUMPDEST PUSH2 0x30D6 DUP2 DUP6 PUSH2 0x30B0 JUMP JUMPDEST SWAP4 POP PUSH2 0x30E6 DUP2 DUP6 PUSH1 0x20 DUP7 ADD PUSH2 0x2DF9 JUMP JUMPDEST PUSH2 0x30EF DUP2 PUSH2 0x2E23 JUMP JUMPDEST DUP5 ADD SWAP2 POP POP SWAP3 SWAP2 POP POP JUMP JUMPDEST PUSH1 0x0 PUSH1 0x80 DUP3 ADD SWAP1 POP PUSH2 0x310F PUSH1 0x0 DUP4 ADD DUP8 PUSH2 0x2DCE JUMP JUMPDEST DUP2 DUP2 SUB PUSH1 0x20 DUP4 ADD MSTORE PUSH2 0x3121 DUP2 DUP7 PUSH2 0x30C1 JUMP JUMPDEST SWAP1 POP DUP2 DUP2 SUB PUSH1 0x40 DUP4 ADD MSTORE PUSH2 0x3135 DUP2 DUP6 PUSH2 0x30C1 JUMP JUMPDEST SWAP1 POP PUSH2 0x3144 PUSH1 0x60 DUP4 ADD DUP5 PUSH2 0x2E6D JUMP JUMPDEST SWAP6 SWAP5 POP POP POP POP POP JUMP JUMPDEST PUSH1 0x0 PUSH1 0x20 DUP3 DUP5 SUB SLT ISZERO PUSH2 0x3163 JUMPI PUSH2 0x3162 PUSH2 0x2C8F JUMP JUMPDEST JUMPDEST PUSH1 0x0 PUSH2 0x3171 DUP5 DUP3 DUP6 ADD PUSH2 0x2F16 JUMP JUMPDEST SWAP2 POP POP SWAP3 SWAP2 POP POP JUMP JUMPDEST PUSH1 0x0 PUSH1 0xA0 DUP3 ADD SWAP1 POP PUSH2 0x318F PUSH1 0x0 DUP4 ADD DUP9 PUSH2 0x2E6D JUMP JUMPDEST PUSH2 0x319C PUSH1 0x20 DUP4 ADD DUP8 PUSH2 0x2DCE JUMP JUMPDEST PUSH2 0x31A9 PUSH1 0x40 DUP4 ADD DUP7 PUSH2 0x2D45 JUMP JUMPDEST PUSH2 0x31B6 PUSH1 0x60 DUP4 ADD DUP6 PUSH2 0x2D45 JUMP JUMPDEST PUSH2 0x31C3 PUSH1 0x80 DUP4 ADD DUP5 PUSH2 0x2E88 JUMP JUMPDEST SWAP7 SWAP6 POP POP POP POP POP POP JUMP JUMPDEST PUSH1 0x0 DUP1 PUSH1 0x0 PUSH1 0x60 DUP5 DUP7 SUB SLT ISZERO PUSH2 0x31E6 JUMPI PUSH2 0x31E5 PUSH2 0x2C8F JUMP JUMPDEST JUMPDEST PUSH1 0x0 PUSH2 0x31F4 DUP7 DUP3 DUP8 ADD PUSH2 0x2CBA JUMP JUMPDEST SWAP4 POP POP PUSH1 0x20 PUSH2 0x3205 DUP7 DUP3 DUP8 ADD PUSH2 0x2F16 JUMP JUMPDEST SWAP3 POP POP PUSH1 0x40 PUSH2 0x3216 DUP7 DUP3 DUP8 ADD PUSH2 0x2CF0 JUMP JUMPDEST SWAP2 POP POP SWAP3 POP SWAP3 POP SWAP3 JUMP JUMPDEST PUSH1 0x0 DUP2 MLOAD SWAP1 POP SWAP2 SWAP1 POP JUMP JUMPDEST PUSH1 0x0 DUP3 DUP3 MSTORE PUSH1 0x20 DUP3 ADD SWAP1 POP SWAP3 SWAP2 POP POP JUMP JUMPDEST PUSH1 0x0 DUP2 SWAP1 POP PUSH1 0x20 DUP3 ADD SWAP1 POP SWAP2 SWAP1 POP JUMP JUMPDEST PUSH2 0x3255 DUP2 PUSH2 0x2DBC JUMP JUMPDEST DUP3 MSTORE POP POP JUMP JUMPDEST PUSH1 0x0 PUSH2 0x3267 DUP4 DUP4 PUSH2 0x324C JUMP JUMPDEST PUSH1 0x20 DUP4 ADD SWAP1 POP SWAP3 SWAP2 POP POP JUMP JUMPDEST PUSH1 0x0 PUSH1 0x20 DUP3 ADD SWAP1 POP SWAP2 SWAP1 POP JUMP JUMPDEST PUSH1 0x0 PUSH2 0x328B DUP3 PUSH2 0x3220 JUMP JUMPDEST PUSH2 0x3295 DUP2 DUP6 PUSH2 0x322B JUMP JUMPDEST SWAP4 POP PUSH2 0x32A0 DUP4 PUSH2 0x323C JUMP JUMPDEST DUP1 PUSH1 0x0 JUMPDEST DUP4 DUP2 LT ISZERO PUSH2 0x32D1 JUMPI DUP2 MLOAD PUSH2 0x32B8 DUP9 DUP3 PUSH2 0x325B JUMP JUMPDEST SWAP8 POP PUSH2 0x32C3 DUP4 PUSH2 0x3273 JUMP JUMPDEST SWAP3 POP POP PUSH1 0x1 DUP2 ADD SWAP1 POP PUSH2 0x32A4 JUMP JUMPDEST POP DUP6 SWAP4 POP POP POP POP SWAP3 SWAP2 POP POP JUMP JUMPDEST PUSH1 0x0 PUSH1 0x20 DUP3 ADD SWAP1 POP DUP2 DUP2 SUB PUSH1 0x0 DUP4 ADD MSTORE PUSH2 0x32F8 DUP2 DUP5 PUSH2 0x3280 JUMP JUMPDEST SWAP1 POP SWAP3 SWAP2 POP POP JUMP JUMPDEST PUSH1 0x0 PUSH1 0xA0 DUP3 ADD SWAP1 POP PUSH2 0x3315 PUSH1 0x0 DUP4 ADD DUP9 PUSH2 0x2DCE JUMP JUMPDEST DUP2 DUP2 SUB PUSH1 0x20 DUP4 ADD MSTORE PUSH2 0x3327 DUP2 DUP8 PUSH2 0x30C1 JUMP JUMPDEST SWAP1 POP DUP2 DUP2 SUB PUSH1 0x40 DUP4 ADD MSTORE PUSH2 0x333B DUP2 DUP7 PUSH2 0x30C1 JUMP JUMPDEST SWAP1 POP PUSH2 0x334A PUSH1 0x60 DUP4 ADD DUP6 PUSH2 0x2E6D JUMP JUMPDEST PUSH2 0x3357 PUSH1 0x80 DUP4 ADD DUP5 PUSH2 0x2E88 JUMP JUMPDEST SWAP7 SWAP6 POP POP POP POP POP POP JUMP JUMPDEST PUSH1 0x0 PUSH1 0x20 DUP3 ADD SWAP1 POP PUSH2 0x3376 PUSH1 0x0 DUP4 ADD DUP5 PUSH2 0x2E88 JUMP JUMPDEST SWAP3 SWAP2 POP POP JUMP JUMPDEST PUSH1 0x0 DUP2 MLOAD SWAP1 POP SWAP2 SWAP1 POP JUMP JUMPDEST PUSH1 0x0 DUP3 DUP3 MSTORE PUSH1 0x20 DUP3 ADD SWAP1 POP SWAP3 SWAP2 POP POP JUMP JUMPDEST PUSH1 0x0 DUP2 SWAP1 POP PUSH1 0x20 DUP3 ADD SWAP1 POP SWAP2 SWAP1 POP JUMP JUMPDEST PUSH2 0x33B1 DUP2 PUSH2 0x2C99 JUMP JUMPDEST DUP3 MSTORE POP POP JUMP JUMPDEST PUSH1 0x0 PUSH2 0x33C3 DUP4 DUP4 PUSH2 0x33A8 JUMP JUMPDEST PUSH1 0x20 DUP4 ADD SWAP1 POP SWAP3 SWAP2 POP POP JUMP JUMPDEST PUSH1 0x0 PUSH1 0x20 DUP3 ADD SWAP1 POP SWAP2 SWAP1 POP JUMP JUMPDEST PUSH1 0x0 PUSH2 0x33E7 DUP3 PUSH2 0x337C JUMP JUMPDEST PUSH2 0x33F1 DUP2 DUP6 PUSH2 0x3387 JUMP JUMPDEST SWAP4 POP PUSH2 0x33FC DUP4 PUSH2 0x3398 JUMP JUMPDEST DUP1 PUSH1 0x0 JUMPDEST DUP4 DUP2 LT ISZERO PUSH2 0x342D JUMPI DUP2 MLOAD PUSH2 0x3414 DUP9 DUP3 PUSH2 0x33B7 JUMP JUMPDEST SWAP8 POP PUSH2 0x341F DUP4 PUSH2 0x33CF JUMP JUMPDEST SWAP3 POP POP PUSH1 0x1 DUP2 ADD SWAP1 POP PUSH2 0x3400 JUMP JUMPDEST POP DUP6 SWAP4 POP POP POP POP SWAP3 SWAP2 POP POP JUMP JUMPDEST PUSH1 0x0 PUSH1 0x20 DUP3 ADD SWAP1 POP DUP2 DUP2 SUB PUSH1 0x0 DUP4 ADD MSTORE PUSH2 0x3454 DUP2 DUP5 PUSH2 0x33DC JUMP JUMPDEST SWAP1 POP SWAP3 SWAP2 POP POP JUMP JUMPDEST PUSH1 0x0 DUP2 MLOAD SWAP1 POP SWAP2 SWAP1 POP JUMP JUMPDEST PUSH1 0x0 DUP3 DUP3 MSTORE PUSH1 0x20 DUP3 ADD SWAP1 POP SWAP3 SWAP2 POP POP JUMP JUMPDEST PUSH1 0x0 DUP2 SWAP1 POP PUSH1 0x20 DUP3 ADD SWAP1 POP SWAP2 SWAP1 POP JUMP JUMPDEST PUSH2 0x3491 DUP2 PUSH2 0x2CCF JUMP JUMPDEST DUP3 MSTORE POP POP JUMP JUMPDEST PUSH1 0x0 PUSH2 0x34A3 DUP4 DUP4 PUSH2 0x3488 JUMP JUMPDEST PUSH1 0x20 DUP4 ADD SWAP1 POP SWAP3 SWAP2 POP POP JUMP JUMPDEST PUSH1 0x0 PUSH1 0x20 DUP3 ADD SWAP1 POP SWAP2 SWAP1 POP JUMP JUMPDEST PUSH1 0x0 PUSH2 0x34C7 DUP3 PUSH2 0x345C JUMP JUMPDEST PUSH2 0x34D1 DUP2 DUP6 PUSH2 0x3467 JUMP JUMPDEST SWAP4 POP PUSH2 0x34DC DUP4 PUSH2 0x3478 JUMP JUMPDEST DUP1 PUSH1 0x0 JUMPDEST DUP4 DUP2 LT ISZERO PUSH2 0x350D JUMPI DUP2 MLOAD PUSH2 0x34F4 DUP9 DUP3 PUSH2 0x3497 JUMP JUMPDEST SWAP8 POP PUSH2 0x34FF DUP4 PUSH2 0x34AF JUMP JUMPDEST SWAP3 POP POP PUSH1 0x1 DUP2 ADD SWAP1 POP PUSH2 0x34E0 JUMP JUMPDEST POP DUP6 SWAP4 POP POP POP POP SWAP3 SWAP2 POP POP JUMP JUMPDEST PUSH1 0x0 PUSH1 0x20 DUP3 ADD SWAP1 POP DUP2 DUP2 SUB PUSH1 0x0 DUP4 ADD MSTORE PUSH2 0x3534 DUP2 DUP5 PUSH2 0x34BC JUMP JUMPDEST SWAP1 POP SWAP3 SWAP2 POP POP JUMP JUMPDEST PUSH1 0x0 PUSH1 0x20 DUP3 ADD SWAP1 POP PUSH2 0x3551 PUSH1 0x0 DUP4 ADD DUP5 PUSH2 0x2E6D JUMP JUMPDEST SWAP3 SWAP2 POP POP JUMP JUMPDEST PUSH1 0x0 DUP1 REVERT JUMPDEST PUSH32 0x4E487B7100000000000000000000000000000000000000000000000000000000 PUSH1 0x0 MSTORE PUSH1 0x41 PUSH1 0x4 MSTORE PUSH1 0x24 PUSH1 0x0 REVERT JUMPDEST PUSH2 0x3594 DUP3 PUSH2 0x2E23 JUMP JUMPDEST DUP2 ADD DUP2 DUP2 LT PUSH8 0xFFFFFFFFFFFFFFFF DUP3 GT OR ISZERO PUSH2 0x35B3 JUMPI PUSH2 0x35B2 PUSH2 0x355C JUMP JUMPDEST JUMPDEST DUP1 PUSH1 0x40 MSTORE POP POP POP JUMP JUMPDEST PUSH1 0x0 PUSH2 0x35C6 PUSH2 0x2C85 JUMP JUMPDEST SWAP1 POP PUSH2 0x35D2 DUP3 DUP3 PUSH2 0x358B JUMP JUMPDEST SWAP2 SWAP1 POP JUMP JUMPDEST PUSH1 0x0 PUSH8 0xFFFFFFFFFFFFFFFF DUP3 GT ISZERO PUSH2 0x35F2 JUMPI PUSH2 0x35F1 PUSH2 0x355C JUMP JUMPDEST JUMPDEST PUSH2 0x35FB DUP3 PUSH2 0x2E23 JUMP JUMPDEST SWAP1 POP PUSH1 0x20 DUP2 ADD SWAP1 POP SWAP2 SWAP1 POP JUMP JUMPDEST DUP3 DUP2 DUP4 CALLDATACOPY PUSH1 0x0 DUP4 DUP4 ADD MSTORE POP POP POP JUMP JUMPDEST PUSH1 0x0 PUSH2 0x362A PUSH2 0x3625 DUP5 PUSH2 0x35D7 JUMP JUMPDEST PUSH2 0x35BC JUMP JUMPDEST SWAP1 POP DUP3 DUP2 MSTORE PUSH1 0x20 DUP2 ADD DUP5 DUP5 DUP5 ADD GT ISZERO PUSH2 0x3646 JUMPI PUSH2 0x3645 PUSH2 0x3557 JUMP JUMPDEST JUMPDEST PUSH2 0x3651 DUP5 DUP3 DUP6 PUSH2 0x3608 JUMP JUMPDEST POP SWAP4 SWAP3 POP POP POP JUMP JUMPDEST PUSH1 0x0 DUP3 PUSH1 0x1F DUP4 ADD SLT PUSH2 0x366E JUMPI PUSH2 0x366D PUSH2 0x2F6B JUMP JUMPDEST JUMPDEST DUP2 CALLDATALOAD PUSH2 0x367E DUP5 DUP3 PUSH1 0x20 DUP7 ADD PUSH2 0x3617 JUMP JUMPDEST SWAP2 POP POP SWAP3 SWAP2 POP POP JUMP JUMPDEST PUSH1 0x0 DUP1 PUSH1 0x0 PUSH1 0x60 DUP5 DUP7 SUB SLT ISZERO PUSH2 0x36A0 JUMPI PUSH2 0x369F PUSH2 0x2C8F JUMP JUMPDEST JUMPDEST PUSH1 0x0 DUP5 ADD CALLDATALOAD PUSH8 0xFFFFFFFFFFFFFFFF DUP2 GT ISZERO PUSH2 0x36BE JUMPI PUSH2 0x36BD PUSH2 0x2C94 JUMP JUMPDEST JUMPDEST PUSH2 0x36CA DUP7 DUP3 DUP8 ADD PUSH2 0x3659 JUMP JUMPDEST SWAP4 POP POP PUSH1 0x20 DUP5 ADD CALLDATALOAD PUSH8 0xFFFFFFFFFFFFFFFF DUP2 GT ISZERO PUSH2 0x36EB JUMPI PUSH2 0x36EA PUSH2 0x2C94 JUMP JUMPDEST JUMPDEST PUSH2 0x36F7 DUP7 DUP3 DUP8 ADD PUSH2 0x3659 JUMP JUMPDEST SWAP3 POP POP PUSH1 0x40 PUSH2 0x3708 DUP7 DUP3 DUP8 ADD PUSH2 0x2CBA JUMP JUMPDEST SWAP2 POP POP SWAP3 POP SWAP3 POP SWAP3 JUMP JUMPDEST PUSH32 0x4E487B7100000000000000000000000000000000000000000000000000000000 PUSH1 0x0 MSTORE PUSH1 0x22 PUSH1 0x4 MSTORE PUSH1 0x24 PUSH1 0x0 REVERT JUMPDEST PUSH1 0x0 PUSH1 0x2 DUP3 DIV SWAP1 POP PUSH1 0x1 DUP3 AND DUP1 PUSH2 0x3759 JUMPI PUSH1 0x7F DUP3 AND SWAP2 POP JUMPDEST PUSH1 0x20 DUP3 LT DUP2 SUB PUSH2 0x376C JUMPI PUSH2 0x376B PUSH2 0x3712 JUMP JUMPDEST JUMPDEST POP SWAP2 SWAP1 POP JUMP JUMPDEST PUSH32 0x4E487B7100000000000000000000000000000000000000000000000000000000 PUSH1 0x0 MSTORE PUSH1 0x32 PUSH1 0x4 MSTORE PUSH1 0x24 PUSH1 0x0 REVERT JUMPDEST PUSH1 0x0 PUSH1 0x60 DUP3 ADD SWAP1 POP PUSH2 0x37B6 PUSH1 0x0 DUP4 ADD DUP7 PUSH2 0x2D45 JUMP JUMPDEST PUSH2 0x37C3 PUSH1 0x20 DUP4 ADD DUP6 PUSH2 0x2DCE JUMP JUMPDEST PUSH2 0x37D0 PUSH1 0x40 DUP4 ADD DUP5 PUSH2 0x2E88 JUMP JUMPDEST SWAP5 SWAP4 POP POP POP POP JUMP JUMPDEST PUSH32 0x4E487B7100000000000000000000000000000000000000000000000000000000 PUSH1 0x0 MSTORE PUSH1 0x11 PUSH1 0x4 MSTORE PUSH1 0x24 PUSH1 0x0 REVERT JUMPDEST PUSH1 0x0 PUSH2 0x3812 DUP3 PUSH2 0x2CCF JUMP JUMPDEST SWAP2 POP PUSH32 0xFFFFFFFFFFFFFFFFFFFFFFFFFFFFFFFFFFFFFFFFFFFFFFFFFFFFFFFFFFFFFFFF DUP3 SUB PUSH2 0x3844 JUMPI PUSH2 0x3843 PUSH2 0x37D8 JUMP JUMPDEST JUMPDEST PUSH1 0x1 DUP3 ADD SWAP1 POP SWAP2 SWAP1 POP JUMP JUMPDEST PUSH32 0x536861726420646F6573206E6F74206578697374000000000000000000000000 PUSH1 0x0 DUP3 ADD MSTORE POP JUMP JUMPDEST PUSH1 0x0 PUSH2 0x3885 PUSH1 0x14 DUP4 PUSH2 0x30B0 JUMP JUMPDEST SWAP2 POP PUSH2 0x3890 DUP3 PUSH2 0x384F JUMP JUMPDEST PUSH1 0x20 DUP3 ADD SWAP1 POP SWAP2 SWAP1 POP JUMP JUMPDEST PUSH1 0x0 PUSH1 0x20 DUP3 ADD SWAP1 POP DUP2 DUP2 SUB PUSH1 0x0 DUP4 ADD MSTORE PUSH2 0x38B4 DUP2 PUSH2 0x3878 JUMP JUMPDEST SWAP1 POP SWAP2 SWAP1 POP JUMP JUMPDEST PUSH32 0x53746F726167652070726F766964657220646F6573206E6F7420657869737400 PUSH1 0x0 DUP3 ADD MSTORE POP JUMP JUMPDEST PUSH1 0x0 PUSH2 0x38F1 PUSH1 0x1F DUP4 PUSH2 0x30B0 JUMP JUMPDEST SWAP2 POP PUSH2 0x38FC DUP3 PUSH2 0x38BB JUMP JUMPDEST PUSH1 0x20 DUP3 ADD SWAP1 POP SWAP2 SWAP1 POP JUMP JUMPDEST PUSH1 0x0 PUSH1 0x20 DUP3 ADD SWAP1 POP DUP2 DUP2 SUB PUSH1 0x0 DUP4 ADD MSTORE PUSH2 0x3920 DUP2 PUSH2 0x38E4 JUMP JUMPDEST SWAP1 POP SWAP2 SWAP1 POP JUMP JUMPDEST PUSH1 0x0 PUSH2 0x3932 DUP3 PUSH2 0x2CCF JUMP JUMPDEST SWAP2 POP PUSH2 0x393D DUP4 PUSH2 0x2CCF JUMP JUMPDEST SWAP3 POP DUP3 DUP3 SUB SWAP1 POP DUP2 DUP2 GT ISZERO PUSH2 0x3955 JUMPI PUSH2 0x3954 PUSH2 0x37D8 JUMP JUMPDEST JUMPDEST SWAP3 SWAP2 POP POP JUMP JUMPDEST PUSH32 0x4E487B7100000000000000000000000000000000000000000000000000000000 PUSH1 0x0 MSTORE PUSH1 0x31 PUSH1 0x4 MSTORE PUSH1 0x24 PUSH1 0x0 REVERT JUMPDEST PUSH1 0x0 PUSH1 0x40 DUP3 ADD SWAP1 POP PUSH2 0x399F PUSH1 0x0 DUP4 ADD DUP6 PUSH2 0x2D45 JUMP JUMPDEST PUSH2 0x39AC PUSH1 0x20 DUP4 ADD DUP5 PUSH2 0x2DCE JUMP JUMPDEST SWAP4 SWAP3 POP POP POP JUMP JUMPDEST PUSH32 0x46696C6520646F6573206E6F7420657869737400000000000000000000000000 PUSH1 0x0 DUP3 ADD MSTORE POP JUMP JUMPDEST PUSH1 0x0 PUSH2 0x39E9 PUSH1 0x13 DUP4 PUSH2 0x30B0 JUMP JUMPDEST SWAP2 POP PUSH2 0x39F4 DUP3 PUSH2 0x39B3 JUMP JUMPDEST PUSH1 0x20 DUP3 ADD SWAP1 POP SWAP2 SWAP1 POP JUMP JUMPDEST PUSH1 0x0 PUSH1 0x20 DUP3 ADD SWAP1 POP DUP2 DUP2 SUB PUSH1 0x0 DUP4 ADD MSTORE PUSH2 0x3A18 DUP2 PUSH2 0x39DC JUMP JUMPDEST SWAP1 POP SWAP2 SWAP1 POP JUMP JUMPDEST PUSH32 0x4F6E6C79207468652066696C65206F776E65722063616E2064656C6574652074 PUSH1 0x0 DUP3 ADD MSTORE PUSH32 0x68652066696C6500000000000000000000000000000000000000000000000000 PUSH1 0x20 DUP3 ADD MSTORE POP JUMP JUMPDEST PUSH1 0x0 PUSH2 0x3A7B PUSH1 0x27 DUP4 PUSH2 0x30B0 JUMP JUMPDEST SWAP2 POP PUSH2 0x3A86 DUP3 PUSH2 0x3A1F JUMP JUMPDEST PUSH1 0x40 DUP3 ADD SWAP1 POP SWAP2 SWAP1 POP JUMP JUMPDEST PUSH1 0x0 PUSH1 0x20 DUP3 ADD SWAP1 POP DUP2 DUP2 SUB PUSH1 0x0 DUP4 ADD MSTORE PUSH2 0x3AAA DUP2 PUSH2 0x3A6E JUMP JUMPDEST SWAP1 POP SWAP2 SWAP1 POP JUMP JUMPDEST PUSH32 0x53746F726167652070726F766964657220616C72656164792065786973747300 PUSH1 0x0 DUP3 ADD MSTORE POP JUMP JUMPDEST PUSH1 0x0 PUSH2 0x3AE7 PUSH1 0x1F DUP4 PUSH2 0x30B0 JUMP JUMPDEST SWAP2 POP PUSH2 0x3AF2 DUP3 PUSH2 0x3AB1 JUMP JUMPDEST PUSH1 0x20 DUP3 ADD SWAP1 POP SWAP2 SWAP1 POP JUMP JUMPDEST PUSH1 0x0 PUSH1 0x20 DUP3 ADD SWAP1 POP DUP2 DUP2 SUB PUSH1 0x0 DUP4 ADD MSTORE PUSH2 0x3B16 DUP2 PUSH2 0x3ADA JUMP JUMPDEST SWAP1 POP SWAP2 SWAP1 POP JUMP JUMPDEST PUSH32 0x4F6E6C79207468652073746F726167652070726F76696465722063616E206465 PUSH1 0x0 DUP3 ADD MSTORE PUSH32 0x6C65746520746865207368617264000000000000000000000000000000000000 PUSH1 0x20 DUP3 ADD MSTORE POP JUMP JUMPDEST PUSH1 0x0 PUSH2 0x3B79 PUSH1 0x2E DUP4 PUSH2 0x30B0 JUMP JUMPDEST SWAP2 POP PUSH2 0x3B84 DUP3 PUSH2 0x3B1D JUMP JUMPDEST PUSH1 0x40 DUP3 ADD SWAP1 POP SWAP2 SWAP1 POP JUMP JUMPDEST PUSH1 0x0 PUSH1 0x20 DUP3 ADD SWAP1 POP DUP2 DUP2 SUB PUSH1 0x0 DUP4 ADD MSTORE PUSH2 0x3BA8 DUP2 PUSH2 0x3B6C JUMP JUMPDEST SWAP1 POP SWAP2 SWAP1 POP JUMP JUMPDEST PUSH32 0x46696C6520616C72656164792065786973747300000000000000000000000000 PUSH1 0x0 DUP3 ADD MSTORE POP JUMP JUMPDEST PUSH1 0x0 PUSH2 0x3BE5 PUSH1 0x13 DUP4 PUSH2 0x30B0 JUMP JUMPDEST SWAP2 POP PUSH2 0x3BF0 DUP3 PUSH2 0x3BAF JUMP JUMPDEST PUSH1 0x20 DUP3 ADD SWAP1 POP SWAP2 SWAP1 POP JUMP JUMPDEST PUSH1 0x0 PUSH1 0x20 DUP3 ADD SWAP1 POP DUP2 DUP2 SUB PUSH1 0x0 DUP4 ADD MSTORE PUSH2 0x3C14 DUP2 PUSH2 0x3BD8 JUMP JUMPDEST SWAP1 POP SWAP2 SWAP1 POP JUMP JUMPDEST PUSH32 0x4F776E6572206E616D65206D7573742062652070726F76696465640000000000 PUSH1 0x0 DUP3 ADD MSTORE POP JUMP JUMPDEST PUSH1 0x0 PUSH2 0x3C51 PUSH1 0x1B DUP4 PUSH2 0x30B0 JUMP JUMPDEST SWAP2 POP PUSH2 0x3C5C DUP3 PUSH2 0x3C1B JUMP JUMPDEST PUSH1 0x20 DUP3 ADD SWAP1 POP SWAP2 SWAP1 POP JUMP JUMPDEST PUSH1 0x0 PUSH1 0x20 DUP3 ADD SWAP1 POP DUP2 DUP2 SUB PUSH1 0x0 DUP4 ADD MSTORE PUSH2 0x3C80 DUP2 PUSH2 0x3C44 JUMP JUMPDEST SWAP1 POP SWAP2 SWAP1 POP JUMP JUMPDEST PUSH32 0x46696C65206E616D65206D7573742062652070726F7669646564000000000000 PUSH1 0x0 DUP3 ADD MSTORE POP JUMP JUMPDEST PUSH1 0x0 PUSH2 0x3CBD PUSH1 0x1A DUP4 PUSH2 0x30B0 JUMP JUMPDEST SWAP2 POP PUSH2 0x3CC8 DUP3 PUSH2 0x3C87 JUMP JUMPDEST PUSH1 0x20 DUP3 ADD SWAP1 POP SWAP2 SWAP1 POP JUMP JUMPDEST PUSH1 0x0 PUSH1 0x20 DUP3 ADD SWAP1 POP DUP2 DUP2 SUB PUSH1 0x0 DUP4 ADD MSTORE PUSH2 0x3CEC DUP2 PUSH2 0x3CB0 JUMP JUMPDEST SWAP1 POP SWAP2 SWAP1 POP JUMP JUMPDEST PUSH1 0x0 DUP2 SWAP1 POP DUP2 PUSH1 0x0 MSTORE PUSH1 0x20 PUSH1 0x0 KECCAK256 SWAP1 POP SWAP2 SWAP1 POP JUMP JUMPDEST PUSH1 0x0 PUSH1 0x20 PUSH1 0x1F DUP4 ADD DIV SWAP1 POP SWAP2 SWAP1 POP JUMP JUMPDEST PUSH1 0x0 DUP3 DUP3 SHL SWAP1 POP SWAP3 SWAP2 POP POP JUMP JUMPDEST PUSH1 0x0 PUSH1 0x8 DUP4 MUL PUSH2 0x3D55 PUSH32 0xFFFFFFFFFFFFFFFFFFFFFFFFFFFFFFFFFFFFFFFFFFFFFFFFFFFFFFFFFFFFFFFF DUP3 PUSH2 0x3D18 JUMP JUMPDEST PUSH2 0x3D5F DUP7 DUP4 PUSH2 0x3D18 JUMP JUMPDEST SWAP6 POP DUP1 NOT DUP5 AND SWAP4 POP DUP1 DUP7 AND DUP5 OR SWAP3 POP POP POP SWAP4 SWAP3 POP POP POP JUMP JUMPDEST PUSH1 0x0 DUP2 SWAP1 POP SWAP2 SWAP1 POP JUMP JUMPDEST PUSH1 0x0 PUSH2 0x3D9C PUSH2 0x3D97 PUSH2 0x3D92 DUP5 PUSH2 0x2CCF JUMP JUMPDEST PUSH2 0x3D77 JUMP JUMPDEST PUSH2 0x2CCF JUMP JUMPDEST SWAP1 POP SWAP2 SWAP1 POP JUMP JUMPDEST PUSH1 0x0 DUP2 SWAP1 POP SWAP2 SWAP1 POP JUMP JUMPDEST PUSH2 0x3DB6 DUP4 PUSH2 0x3D81 JUMP JUMPDEST PUSH2 0x3DCA PUSH2 0x3DC2 DUP3 PUSH2 0x3DA3 JUMP JUMPDEST DUP5 DUP5 SLOAD PUSH2 0x3D25 JUMP JUMPDEST DUP3 SSTORE POP POP POP POP JUMP JUMPDEST PUSH1 0x0 SWAP1 JUMP JUMPDEST PUSH2 0x3DDF PUSH2 0x3DD2 JUMP JUMPDEST PUSH2 0x3DEA DUP2 DUP5 DUP5 PUSH2 0x3DAD JUMP JUMPDEST POP POP POP JUMP JUMPDEST JUMPDEST DUP2 DUP2 LT ISZERO PUSH2 0x3E0E JUMPI PUSH2 0x3E03 PUSH1 0x0 DUP3 PUSH2 0x3DD7 JUMP JUMPDEST PUSH1 0x1 DUP2 ADD SWAP1 POP PUSH2 0x3DF0 JUMP JUMPDEST POP POP JUMP JUMPDEST PUSH1 0x1F DUP3 GT ISZERO PUSH2 0x3E53 JUMPI PUSH2 0x3E24 DUP2 PUSH2 0x3CF3 JUMP JUMPDEST PUSH2 0x3E2D DUP5 PUSH2 0x3D08 JUMP JUMPDEST DUP2 ADD PUSH1 0x20 DUP6 LT ISZERO PUSH2 0x3E3C JUMPI DUP2 SWAP1 POP JUMPDEST PUSH2 0x3E50 PUSH2 0x3E48 DUP6 PUSH2 0x3D08 JUMP JUMPDEST DUP4 ADD DUP3 PUSH2 0x3DEF JUMP JUMPDEST POP POP JUMPDEST POP POP POP JUMP JUMPDEST PUSH1 0x0 DUP3 DUP3 SHR SWAP1 POP SWAP3 SWAP2 POP POP JUMP JUMPDEST PUSH1 0x0 PUSH2 0x3E76 PUSH1 0x0 NOT DUP5 PUSH1 0x8 MUL PUSH2 0x3E58 JUMP JUMPDEST NOT DUP1 DUP4 AND SWAP2 POP POP SWAP3 SWAP2 POP POP JUMP JUMPDEST PUSH1 0x0 PUSH2 0x3E8F DUP4 DUP4 PUSH2 0x3E65 JUMP JUMPDEST SWAP2 POP DUP3 PUSH1 0x2 MUL DUP3 OR SWAP1 POP SWAP3 SWAP2 POP POP JUMP JUMPDEST PUSH2 0x3EA8 DUP3 PUSH2 0x30A5 JUMP JUMPDEST PUSH8 0xFFFFFFFFFFFFFFFF DUP2 GT ISZERO PUSH2 0x3EC1 JUMPI PUSH2 0x3EC0 PUSH2 0x355C JUMP JUMPDEST JUMPDEST PUSH2 0x3ECB DUP3 SLOAD PUSH2 0x3741 JUMP JUMPDEST PUSH2 0x3ED6 DUP3 DUP3 DUP6 PUSH2 0x3E12 JUMP JUMPDEST PUSH1 0x0 PUSH1 0x20 SWAP1 POP PUSH1 0x1F DUP4 GT PUSH1 0x1 DUP2 EQ PUSH2 0x3F09 JUMPI PUSH1 0x0 DUP5 ISZERO PUSH2 0x3EF7 JUMPI DUP3 DUP8 ADD MLOAD SWAP1 POP JUMPDEST PUSH2 0x3F01 DUP6 DUP3 PUSH2 0x3E83 JUMP JUMPDEST DUP7 SSTORE POP PUSH2 0x3F69 JUMP JUMPDEST PUSH1 0x1F NOT DUP5 AND PUSH2 0x3F17 DUP7 PUSH2 0x3CF3 JUMP JUMPDEST PUSH1 0x0 JUMPDEST DUP3 DUP2 LT ISZERO PUSH2 0x3F3F JUMPI DUP5 DUP10 ADD MLOAD DUP3 SSTORE PUSH1 0x1 DUP3 ADD SWAP2 POP PUSH1 0x20 DUP6 ADD SWAP5 POP PUSH1 0x20 DUP2 ADD SWAP1 POP PUSH2 0x3F1A JUMP JUMPDEST DUP7 DUP4 LT ISZERO PUSH2 0x3F5C JUMPI DUP5 DUP10 ADD MLOAD PUSH2 0x3F58 PUSH1 0x1F DUP10 AND DUP3 PUSH2 0x3E65 JUMP JUMPDEST DUP4 SSTORE POP JUMPDEST PUSH1 0x1 PUSH1 0x2 DUP9 MUL ADD DUP9 SSTORE POP POP POP JUMPDEST POP POP POP POP POP POP JUMP JUMPDEST PUSH32 0x496E73756666696369656E7420636F6E74726163742062616C616E6365000000 PUSH1 0x0 DUP3 ADD MSTORE POP JUMP JUMPDEST PUSH1 0x0 PUSH2 0x3FA7 PUSH1 0x1D DUP4 PUSH2 0x30B0 JUMP JUMPDEST SWAP2 POP PUSH2 0x3FB2 DUP3 PUSH2 0x3F71 JUMP JUMPDEST PUSH1 0x20 DUP3 ADD SWAP1 POP SWAP2 SWAP1 POP JUMP JUMPDEST PUSH1 0x0 PUSH1 0x20 DUP3 ADD SWAP1 POP DUP2 DUP2 SUB PUSH1 0x0 DUP4 ADD MSTORE PUSH2 0x3FD6 DUP2 PUSH2 0x3F9A JUMP JUMPDEST SWAP1 POP SWAP2 SWAP1 POP JUMP JUMPDEST PUSH1 0x0 DUP2 SWAP1 POP SWAP3 SWAP2 POP POP JUMP JUMPDEST POP JUMP JUMPDEST PUSH1 0x0 PUSH2 0x3FF8 PUSH1 0x0 DUP4 PUSH2 0x3FDD JUMP JUMPDEST SWAP2 POP PUSH2 0x4003 DUP3 PUSH2 0x3FE8 JUMP JUMPDEST PUSH1 0x0 DUP3 ADD SWAP1 POP SWAP2 SWAP1 POP JUMP JUMPDEST PUSH1 0x0 PUSH2 0x4019 DUP3 PUSH2 0x3FEB JUMP JUMPDEST SWAP2 POP DUP2 SWAP1 POP SWAP2 SWAP1 POP JUMP JUMPDEST PUSH32 0x526577617264207061796D656E74206661696C65640000000000000000000000 PUSH1 0x0 DUP3 ADD MSTORE POP JUMP JUMPDEST PUSH1 0x0 PUSH2 0x4059 PUSH1 0x15 DUP4 PUSH2 0x30B0 JUMP JUMPDEST SWAP2 POP PUSH2 0x4064 DUP3 PUSH2 0x4023 JUMP JUMPDEST PUSH1 0x20 DUP3 ADD SWAP1 POP SWAP2 SWAP1 POP JUMP JUMPDEST PUSH1 0x0 PUSH1 0x20 DUP3 ADD SWAP1 POP DUP2 DUP2 SUB PUSH1 0x0 DUP4 ADD MSTORE PUSH2 0x4088 DUP2 PUSH2 0x404C JUMP JUMPDEST SWAP1 POP SWAP2 SWAP1 POP JUMP JUMPDEST PUSH1 0x0 PUSH1 0x40 DUP3 ADD SWAP1 POP PUSH2 0x40A4 PUSH1 0x0 DUP4 ADD DUP6 PUSH2 0x2DCE JUMP JUMPDEST PUSH2 0x40B1 PUSH1 0x20 DUP4 ADD DUP5 PUSH2 0x2D45 JUMP JUMPDEST SWAP4 SWAP3 POP POP POP JUMP INVALID LOG2 PUSH5 0x6970667358 0x22 SLT KECCAK256 0xC7 MOD SWAP8 PUSH4 0x1DEC6AC6 ISZERO 0xA5 BYTE DUP2 PUSH7 0x5F9B3404FC8284 BYTE LOG2 0xAF DUP12 SLT 0xAE 0xB7 0xC0 0xF8 CREATE 0xC9 PUSH12 0x64736F6C6343000812003300 "
				},
				"gasEstimates": {
					"creation": {
						"codeDepositCost": "3324400",
						"executionCost": "47927",
						"totalCost": "3372327"
					},
					"external": {
						"OwnerToFileHash(bytes32)": "2863",
						"addStorageProvider(bytes32,address,uint256)": "infinite",
						"assignStorageProvider(uint256,address)": "infinite",
						"auditShard(uint256)": "infinite",
						"auditStorageProviders(uint256[])": "infinite",
						"deleteFile(bytes32)": "infinite",
						"deleteShard(uint256)": "infinite",
						"deleteStorageProvider(address)": "infinite",
						"fileShards(bytes32,uint256)": "infinite",
						"filesByHash(bytes32)": "infinite",
						"getFileDetails(bytes32)": "infinite",
						"getFilesShards(bytes32)": "infinite",
						"getOwnerFiles(address)": "infinite",
						"getProviderStoredShards(address)": "infinite",
						"getStorageProviderDetails(address)": "infinite",
						"getStorageProvidersStoring()": "infinite",
						"getStorageProvidersWithSpace()": "infinite",
						"ownerFiles(address,uint256)": "5211",
						"providerDetails(address)": "infinite",
						"providersStoring(uint256)": "5068",
						"providersWithSpace(uint256)": "5002",
						"rewardAmount()": "2517",
						"shardCounter()": "2497",
						"shards(uint256)": "infinite",
						"storageProviders(address,uint256)": "infinite",
						"updateAvailableStorageSpace(address,uint256)": "infinite",
						"updateRewardAmount(uint256)": "22589",
						"uploadFile(string,string,bytes32)": "infinite"
					},
					"internal": {
						"doesFileExist(bytes32)": "2248",
						"isShardValid(uint256)": "2267",
						"payReward(address)": "infinite",
						"removeProviderFromArray(address[] storage pointer,address)": "infinite",
						"removeShardFromProvider(uint256)": "infinite",
						"updateStorageStatus(address,bool)": "infinite"
					}
				},
				"methodIdentifiers": {
					"OwnerToFileHash(bytes32)": "adddf233",
					"addStorageProvider(bytes32,address,uint256)": "99272ae5",
					"assignStorageProvider(uint256,address)": "2437c149",
					"auditShard(uint256)": "754ccd33",
					"auditStorageProviders(uint256[])": "192bf875",
					"deleteFile(bytes32)": "6ab799f1",
					"deleteShard(uint256)": "aa9a23c7",
					"deleteStorageProvider(address)": "a4a91eef",
					"fileShards(bytes32,uint256)": "110cd668",
					"filesByHash(bytes32)": "aa2b7010",
					"getFileDetails(bytes32)": "5b395159",
					"getFilesShards(bytes32)": "f5a3abb3",
					"getOwnerFiles(address)": "b52d6624",
					"getProviderStoredShards(address)": "d9c759a7",
					"getStorageProviderDetails(address)": "b0e73d7e",
					"getStorageProvidersStoring()": "a7d2e9a3",
					"getStorageProvidersWithSpace()": "b2524175",
					"ownerFiles(address,uint256)": "e55f7964",
					"providerDetails(address)": "7fe92d2a",
					"providersStoring(uint256)": "2a3427f0",
					"providersWithSpace(uint256)": "3c097111",
					"rewardAmount()": "f7b2a7be",
					"shardCounter()": "3e689f9c",
					"shards(uint256)": "16faae90",
					"storageProviders(address,uint256)": "b2474059",
					"updateAvailableStorageSpace(address,uint256)": "18d340e7",
					"updateRewardAmount(uint256)": "15c2ba14",
					"uploadFile(string,string,bytes32)": "f9a5757e"
				}
			},
			"storageLayout": {
				"storage": [
					{
						"astId": 44,
						"contract": "Cloudy-Blockchain/contracts/NewCloudy.sol:DistributedStorage",
						"label": "shards",
						"offset": 0,
						"slot": "0",
						"type": "t_mapping(t_uint256,t_struct(Shard)25_storage)"
					},
					{
						"astId": 49,
						"contract": "Cloudy-Blockchain/contracts/NewCloudy.sol:DistributedStorage",
						"label": "filesByHash",
						"offset": 0,
						"slot": "1",
						"type": "t_mapping(t_bytes32,t_struct(File)12_storage)"
					},
					{
						"astId": 54,
						"contract": "Cloudy-Blockchain/contracts/NewCloudy.sol:DistributedStorage",
						"label": "storageProviders",
						"offset": 0,
						"slot": "2",
						"type": "t_mapping(t_address,t_array(t_uint256)dyn_storage)"
					},
					{
						"astId": 59,
						"contract": "Cloudy-Blockchain/contracts/NewCloudy.sol:DistributedStorage",
						"label": "providerDetails",
						"offset": 0,
						"slot": "3",
						"type": "t_mapping(t_address,t_struct(StorageProvider)39_storage)"
					},
					{
						"astId": 64,
						"contract": "Cloudy-Blockchain/contracts/NewCloudy.sol:DistributedStorage",
						"label": "ownerFiles",
						"offset": 0,
						"slot": "4",
						"type": "t_mapping(t_address,t_array(t_bytes32)dyn_storage)"
					},
					{
						"astId": 69,
						"contract": "Cloudy-Blockchain/contracts/NewCloudy.sol:DistributedStorage",
						"label": "fileShards",
						"offset": 0,
						"slot": "5",
						"type": "t_mapping(t_bytes32,t_array(t_uint256)dyn_storage)"
					},
					{
						"astId": 73,
						"contract": "Cloudy-Blockchain/contracts/NewCloudy.sol:DistributedStorage",
						"label": "OwnerToFileHash",
						"offset": 0,
						"slot": "6",
						"type": "t_mapping(t_bytes32,t_bool)"
					},
					{
						"astId": 76,
						"contract": "Cloudy-Blockchain/contracts/NewCloudy.sol:DistributedStorage",
						"label": "providersWithSpace",
						"offset": 0,
						"slot": "7",
						"type": "t_array(t_address)dyn_storage"
					},
					{
						"astId": 79,
						"contract": "Cloudy-Blockchain/contracts/NewCloudy.sol:DistributedStorage",
						"label": "providersStoring",
						"offset": 0,
						"slot": "8",
						"type": "t_array(t_address)dyn_storage"
					},
					{
						"astId": 81,
						"contract": "Cloudy-Blockchain/contracts/NewCloudy.sol:DistributedStorage",
						"label": "shardCounter",
						"offset": 0,
						"slot": "9",
						"type": "t_uint256"
					},
					{
						"astId": 83,
						"contract": "Cloudy-Blockchain/contracts/NewCloudy.sol:DistributedStorage",
						"label": "rewardAmount",
						"offset": 0,
						"slot": "10",
						"type": "t_uint256"
					}
				],
				"types": {
					"t_address": {
						"encoding": "inplace",
						"label": "address",
						"numberOfBytes": "20"
					},
					"t_array(t_address)dyn_storage": {
						"base": "t_address",
						"encoding": "dynamic_array",
						"label": "address[]",
						"numberOfBytes": "32"
					},
					"t_array(t_bytes32)dyn_storage": {
						"base": "t_bytes32",
						"encoding": "dynamic_array",
						"label": "bytes32[]",
						"numberOfBytes": "32"
					},
					"t_array(t_uint256)dyn_storage": {
						"base": "t_uint256",
						"encoding": "dynamic_array",
						"label": "uint256[]",
						"numberOfBytes": "32"
					},
					"t_bool": {
						"encoding": "inplace",
						"label": "bool",
						"numberOfBytes": "1"
					},
					"t_bytes32": {
						"encoding": "inplace",
						"label": "bytes32",
						"numberOfBytes": "32"
					},
					"t_bytes_storage": {
						"encoding": "bytes",
						"label": "bytes",
						"numberOfBytes": "32"
					},
					"t_mapping(t_address,t_array(t_bytes32)dyn_storage)": {
						"encoding": "mapping",
						"key": "t_address",
						"label": "mapping(address => bytes32[])",
						"numberOfBytes": "32",
						"value": "t_array(t_bytes32)dyn_storage"
					},
					"t_mapping(t_address,t_array(t_uint256)dyn_storage)": {
						"encoding": "mapping",
						"key": "t_address",
						"label": "mapping(address => uint256[])",
						"numberOfBytes": "32",
						"value": "t_array(t_uint256)dyn_storage"
					},
					"t_mapping(t_address,t_struct(StorageProvider)39_storage)": {
						"encoding": "mapping",
						"key": "t_address",
						"label": "mapping(address => struct DistributedStorage.StorageProvider)",
						"numberOfBytes": "32",
						"value": "t_struct(StorageProvider)39_storage"
					},
					"t_mapping(t_bytes32,t_array(t_uint256)dyn_storage)": {
						"encoding": "mapping",
						"key": "t_bytes32",
						"label": "mapping(bytes32 => uint256[])",
						"numberOfBytes": "32",
						"value": "t_array(t_uint256)dyn_storage"
					},
					"t_mapping(t_bytes32,t_bool)": {
						"encoding": "mapping",
						"key": "t_bytes32",
						"label": "mapping(bytes32 => bool)",
						"numberOfBytes": "32",
						"value": "t_bool"
					},
					"t_mapping(t_bytes32,t_struct(File)12_storage)": {
						"encoding": "mapping",
						"key": "t_bytes32",
						"label": "mapping(bytes32 => struct DistributedStorage.File)",
						"numberOfBytes": "32",
						"value": "t_struct(File)12_storage"
					},
					"t_mapping(t_uint256,t_struct(Shard)25_storage)": {
						"encoding": "mapping",
						"key": "t_uint256",
						"label": "mapping(uint256 => struct DistributedStorage.Shard)",
						"numberOfBytes": "32",
						"value": "t_struct(Shard)25_storage"
					},
					"t_string_storage": {
						"encoding": "bytes",
						"label": "string",
						"numberOfBytes": "32"
					},
					"t_struct(File)12_storage": {
						"encoding": "inplace",
						"label": "struct DistributedStorage.File",
						"members": [
							{
								"astId": 3,
								"contract": "Cloudy-Blockchain/contracts/NewCloudy.sol:DistributedStorage",
								"label": "owner",
								"offset": 0,
								"slot": "0",
								"type": "t_address"
							},
							{
								"astId": 5,
								"contract": "Cloudy-Blockchain/contracts/NewCloudy.sol:DistributedStorage",
								"label": "ownerName",
								"offset": 0,
								"slot": "1",
								"type": "t_string_storage"
							},
							{
								"astId": 7,
								"contract": "Cloudy-Blockchain/contracts/NewCloudy.sol:DistributedStorage",
								"label": "fileName",
								"offset": 0,
								"slot": "2",
								"type": "t_string_storage"
							},
							{
								"astId": 9,
								"contract": "Cloudy-Blockchain/contracts/NewCloudy.sol:DistributedStorage",
								"label": "fileHash",
								"offset": 0,
								"slot": "3",
								"type": "t_bytes32"
							},
							{
								"astId": 11,
								"contract": "Cloudy-Blockchain/contracts/NewCloudy.sol:DistributedStorage",
								"label": "exists",
								"offset": 0,
								"slot": "4",
								"type": "t_bool"
							}
						],
						"numberOfBytes": "160"
					},
					"t_struct(Shard)25_storage": {
						"encoding": "inplace",
						"label": "struct DistributedStorage.Shard",
						"members": [
							{
								"astId": 14,
								"contract": "Cloudy-Blockchain/contracts/NewCloudy.sol:DistributedStorage",
								"label": "id",
								"offset": 0,
								"slot": "0",
								"type": "t_uint256"
							},
							{
								"astId": 16,
								"contract": "Cloudy-Blockchain/contracts/NewCloudy.sol:DistributedStorage",
								"label": "storageProvider",
								"offset": 0,
								"slot": "1",
								"type": "t_address"
							},
							{
								"astId": 18,
								"contract": "Cloudy-Blockchain/contracts/NewCloudy.sol:DistributedStorage",
								"label": "timestamp",
								"offset": 0,
								"slot": "2",
								"type": "t_uint256"
							},
							{
								"astId": 20,
								"contract": "Cloudy-Blockchain/contracts/NewCloudy.sol:DistributedStorage",
								"label": "shardData",
								"offset": 0,
								"slot": "3",
								"type": "t_bytes_storage"
							},
							{
								"astId": 22,
								"contract": "Cloudy-Blockchain/contracts/NewCloudy.sol:DistributedStorage",
								"label": "fileHash",
								"offset": 0,
								"slot": "4",
								"type": "t_bytes32"
							},
							{
								"astId": 24,
								"contract": "Cloudy-Blockchain/contracts/NewCloudy.sol:DistributedStorage",
								"label": "exists",
								"offset": 0,
								"slot": "5",
								"type": "t_bool"
							}
						],
						"numberOfBytes": "192"
					},
					"t_struct(StorageProvider)39_storage": {
						"encoding": "inplace",
						"label": "struct DistributedStorage.StorageProvider",
						"members": [
							{
								"astId": 27,
								"contract": "Cloudy-Blockchain/contracts/NewCloudy.sol:DistributedStorage",
								"label": "ip",
								"offset": 0,
								"slot": "0",
								"type": "t_bytes32"
							},
							{
								"astId": 29,
								"contract": "Cloudy-Blockchain/contracts/NewCloudy.sol:DistributedStorage",
								"label": "walletAddress",
								"offset": 0,
								"slot": "1",
								"type": "t_address"
							},
							{
								"astId": 31,
								"contract": "Cloudy-Blockchain/contracts/NewCloudy.sol:DistributedStorage",
								"label": "availableStorageSpace",
								"offset": 0,
								"slot": "2",
								"type": "t_uint256"
							},
							{
								"astId": 33,
								"contract": "Cloudy-Blockchain/contracts/NewCloudy.sol:DistributedStorage",
								"label": "maximumStorageSize",
								"offset": 0,
								"slot": "3",
								"type": "t_uint256"
							},
							{
								"astId": 35,
								"contract": "Cloudy-Blockchain/contracts/NewCloudy.sol:DistributedStorage",
								"label": "isStoring",
								"offset": 0,
								"slot": "4",
								"type": "t_bool"
							},
							{
								"astId": 38,
								"contract": "Cloudy-Blockchain/contracts/NewCloudy.sol:DistributedStorage",
								"label": "storedShardIds",
								"offset": 0,
								"slot": "5",
								"type": "t_array(t_uint256)dyn_storage"
							}
						],
						"numberOfBytes": "192"
					},
					"t_uint256": {
						"encoding": "inplace",
						"label": "uint256",
						"numberOfBytes": "32"
					}
				}
			},
			"userdoc": {
				"kind": "user",
				"methods": {},
				"version": 1
			}
		}
	}
}